{
  "_format": "hh-sol-artifact-1",
  "contractName": "DoctorFuzzTest",
  "sourceName": "contracts/DoctorFuzzTest.sol",
  "abi": [
    {
      "inputs": [],
      "stateMutability": "nonpayable",
      "type": "constructor"
    },
    {
      "inputs": [],
      "name": "accessRequestCount",
      "outputs": [
        {
          "internalType": "uint256",
          "name": "",
          "type": "uint256"
        }
      ],
      "stateMutability": "view",
      "type": "function"
    },
    {
      "inputs": [
        {
          "internalType": "address",
          "name": "",
          "type": "address"
        },
        {
          "internalType": "address",
          "name": "",
          "type": "address"
        }
      ],
      "name": "accessStatus",
      "outputs": [
        {
          "internalType": "bool",
          "name": "",
          "type": "bool"
        }
      ],
      "stateMutability": "view",
      "type": "function"
    },
    {
      "inputs": [],
      "name": "doctorCount",
      "outputs": [
        {
          "internalType": "uint256",
          "name": "",
          "type": "uint256"
        }
      ],
      "stateMutability": "view",
      "type": "function"
    },
    {
      "inputs": [
        {
          "internalType": "uint256",
          "name": "",
          "type": "uint256"
        }
      ],
      "name": "doctorExists",
      "outputs": [
        {
          "internalType": "bool",
          "name": "",
          "type": "bool"
        }
      ],
      "stateMutability": "view",
      "type": "function"
    },
    {
      "inputs": [
        {
          "internalType": "address",
          "name": "",
          "type": "address"
        }
      ],
      "name": "doctorIds",
      "outputs": [
        {
          "internalType": "uint256",
          "name": "",
          "type": "uint256"
        }
      ],
      "stateMutability": "view",
      "type": "function"
    },
    {
      "inputs": [
        {
          "internalType": "address",
          "name": "",
          "type": "address"
        }
      ],
      "name": "emergencyAccess",
      "outputs": [
        {
          "internalType": "bool",
          "name": "",
          "type": "bool"
        }
      ],
      "stateMutability": "view",
      "type": "function"
    },
    {
      "inputs": [
        {
          "internalType": "address",
          "name": "_patient",
          "type": "address"
        }
      ],
      "name": "emergencyAccessGranted",
      "outputs": [],
      "stateMutability": "nonpayable",
      "type": "function"
    },
    {
      "inputs": [
        {
          "internalType": "address",
          "name": "_doctor",
          "type": "address"
        },
        {
          "internalType": "address",
          "name": "_patient",
          "type": "address"
        }
      ],
      "name": "grantAccess",
      "outputs": [],
      "stateMutability": "nonpayable",
      "type": "function"
    },
    {
      "inputs": [],
      "name": "hospitalContract",
      "outputs": [
        {
          "internalType": "address",
          "name": "",
          "type": "address"
        }
      ],
      "stateMutability": "view",
      "type": "function"
    },
    {
      "inputs": [],
      "name": "invariant_access_bounds",
      "outputs": [],
      "stateMutability": "view",
      "type": "function"
    },
    {
      "inputs": [],
      "name": "invariant_access_requires_patient",
      "outputs": [],
      "stateMutability": "view",
      "type": "function"
    },
    {
      "inputs": [],
      "name": "invariant_doctor_count",
      "outputs": [],
      "stateMutability": "view",
      "type": "function"
    },
    {
      "inputs": [],
      "name": "owner",
      "outputs": [
        {
          "internalType": "address",
          "name": "",
          "type": "address"
        }
      ],
      "stateMutability": "view",
      "type": "function"
    },
    {
      "inputs": [
        {
          "internalType": "address",
          "name": "_doctor",
          "type": "address"
        }
      ],
      "name": "registerDoctor",
      "outputs": [],
      "stateMutability": "nonpayable",
      "type": "function"
    },
    {
      "inputs": [
        {
          "internalType": "address",
          "name": "_doctor",
          "type": "address"
        },
        {
          "internalType": "address",
          "name": "_patient",
          "type": "address"
        }
      ],
      "name": "requestAccess",
      "outputs": [],
      "stateMutability": "nonpayable",
      "type": "function"
    },
    {
      "inputs": [
        {
          "internalType": "address",
          "name": "_hospital",
          "type": "address"
        }
      ],
      "name": "setHospital",
      "outputs": [],
      "stateMutability": "nonpayable",
      "type": "function"
    }
  ],
  "bytecode": "0x60806040526000600455600060055534801561001a57600080fd5b50600680546001600160a01b0319163317905561046f8061003c6000396000f3fe608060405234801561001057600080fd5b50600436106101005760003560e01c8063b3d38b2811610097578063c7fd17d311610066578063c7fd17d314610256578063d8891d2314610118578063dec1c90414610288578063ffc6ae531461029b57600080fd5b8063b3d38b2814610118578063bc12cde6146101f1578063c14ade0914610118578063c6a09d951461021457600080fd5b8063699ca998116100d3578063699ca9981461019457806378522bc4146101a75780638da5cb5b146101b0578063a083e082146101c357600080fd5b806301d0ac0b14610105578063104140851461011a57806341d724b41461013657806347dbb71a14610169575b600080fd5b6101186101133660046103a4565b6102bb565b005b61012360055481565b6040519081526020015b60405180910390f35b6101596101443660046103d7565b60036020526000908152604090205460ff1681565b604051901515815260200161012d565b60075461017c906001600160a01b031681565b6040516001600160a01b03909116815260200161012d565b6101186101a23660046103d7565b610301565b61012360045481565b60065461017c906001600160a01b031681565b6101596101d13660046103a4565b600260209081526000928352604080842090915290825290205460ff1681565b6101596101ff3660046103f9565b60016020526000908152604090205460ff1681565b6101186102223660046103a4565b6001600160a01b0391821660009081526002602090815260408083209390941682529190915220805460ff19166001179055565b6101186102643660046103d7565b6001600160a01b03166000908152600360205260409020805460ff19166001179055565b6101186102963660046103d7565b61034f565b6101236102a93660046103d7565b60006020819052908152604090205481565b600580549060006102cb83610412565b90915550506001600160a01b0391821660009081526002602090815260408083209390941682529190915220805460ff19169055565b6004805490600061031183610412565b90915550506004546001600160a01b03909116600090815260208181526040808320849055928252600190819052919020805460ff19169091179055565b6006546001600160a01b0316331461036657600080fd5b600780546001600160a01b0319166001600160a01b0392909216919091179055565b80356001600160a01b038116811461039f57600080fd5b919050565b600080604083850312156103b757600080fd5b6103c083610388565b91506103ce60208401610388565b90509250929050565b6000602082840312156103e957600080fd5b6103f282610388565b9392505050565b60006020828403121561040b57600080fd5b5035919050565b60006001820161043257634e487b7160e01b600052601160045260246000fd5b506001019056fea2646970667358221220cc80056c043d5a9e5d11db21d1f7dbb9a1bac0c28b34f0995327a4e32d9c567f64736f6c63430008140033",
  "linkReferences": {},
  "deployedLinkReferences": {}
}