{
  "_format": "hh-sol-artifact-1",
  "contractName": "InsuranceUpgradeable",
  "sourceName": "contracts/InsuranceUpgradeable.sol",
  "abi": [
    {
      "inputs": [
        {
          "internalType": "address",
          "name": "_forwarder",
          "type": "address"
        }
      ],
      "stateMutability": "nonpayable",
      "type": "constructor"
    },
    {
      "inputs": [
        {
          "internalType": "address",
          "name": "target",
          "type": "address"
        }
      ],
      "name": "AddressEmptyCode",
      "type": "error"
    },
    {
      "inputs": [
        {
          "internalType": "address",
          "name": "implementation",
          "type": "address"
        }
      ],
      "name": "ERC1967InvalidImplementation",
      "type": "error"
    },
    {
      "inputs": [],
      "name": "ERC1967NonPayable",
      "type": "error"
    },
    {
      "inputs": [],
      "name": "EnforcedPause",
      "type": "error"
    },
    {
      "inputs": [],
      "name": "ExpectedPause",
      "type": "error"
    },
    {
      "inputs": [],
      "name": "FailedInnerCall",
      "type": "error"
    },
    {
      "inputs": [],
      "name": "InvalidInitialization",
      "type": "error"
    },
    {
      "inputs": [],
      "name": "NotInitializing",
      "type": "error"
    },
    {
      "inputs": [],
      "name": "ReentrancyGuardReentrantCall",
      "type": "error"
    },
    {
      "inputs": [],
      "name": "UUPSUnauthorizedCallContext",
      "type": "error"
    },
    {
      "inputs": [
        {
          "internalType": "bytes32",
          "name": "slot",
          "type": "bytes32"
        }
      ],
      "name": "UUPSUnsupportedProxiableUUID",
      "type": "error"
    },
    {
      "anonymous": false,
      "inputs": [
        {
          "indexed": true,
          "internalType": "uint256",
          "name": "claimId",
          "type": "uint256"
        },
        {
          "indexed": false,
          "internalType": "string",
          "name": "status",
          "type": "string"
        }
      ],
      "name": "ClaimProcessed",
      "type": "event"
    },
    {
      "anonymous": false,
      "inputs": [
        {
          "indexed": true,
          "internalType": "uint256",
          "name": "claimId",
          "type": "uint256"
        },
        {
          "indexed": true,
          "internalType": "address",
          "name": "patient",
          "type": "address"
        },
        {
          "indexed": false,
          "internalType": "address",
          "name": "provider",
          "type": "address"
        },
        {
          "indexed": false,
          "internalType": "string",
          "name": "procedure",
          "type": "string"
        },
        {
          "indexed": false,
          "internalType": "bytes32",
          "name": "evidenceHash",
          "type": "bytes32"
        }
      ],
      "name": "ClaimSubmitted",
      "type": "event"
    },
    {
      "anonymous": false,
      "inputs": [
        {
          "indexed": false,
          "internalType": "uint64",
          "name": "version",
          "type": "uint64"
        }
      ],
      "name": "Initialized",
      "type": "event"
    },
    {
      "anonymous": false,
      "inputs": [
        {
          "indexed": true,
          "internalType": "uint256",
          "name": "requestId",
          "type": "uint256"
        },
        {
          "indexed": true,
          "internalType": "address",
          "name": "provider",
          "type": "address"
        },
        {
          "indexed": false,
          "internalType": "uint256",
          "name": "discountPremium",
          "type": "uint256"
        }
      ],
      "name": "InsuranceProofVerified",
      "type": "event"
    },
    {
      "anonymous": false,
      "inputs": [
        {
          "indexed": true,
          "internalType": "address",
          "name": "wallet",
          "type": "address"
        },
        {
          "indexed": false,
          "internalType": "string",
          "name": "name",
          "type": "string"
        }
      ],
      "name": "InsuranceProviderRegistered",
      "type": "event"
    },
    {
      "anonymous": false,
      "inputs": [
        {
          "indexed": true,
          "internalType": "uint256",
          "name": "requestId",
          "type": "uint256"
        },
        {
          "indexed": true,
          "internalType": "address",
          "name": "patient",
          "type": "address"
        },
        {
          "indexed": false,
          "internalType": "address",
          "name": "provider",
          "type": "address"
        },
        {
          "indexed": false,
          "internalType": "uint256",
          "name": "policyId",
          "type": "uint256"
        }
      ],
      "name": "InsuranceQuoteRequested",
      "type": "event"
    },
    {
      "anonymous": false,
      "inputs": [
        {
          "indexed": false,
          "internalType": "address",
          "name": "account",
          "type": "address"
        }
      ],
      "name": "Paused",
      "type": "event"
    },
    {
      "anonymous": false,
      "inputs": [
        {
          "indexed": true,
          "internalType": "uint256",
          "name": "policyId",
          "type": "uint256"
        },
        {
          "indexed": true,
          "internalType": "address",
          "name": "provider",
          "type": "address"
        },
        {
          "indexed": false,
          "internalType": "string",
          "name": "name",
          "type": "string"
        }
      ],
      "name": "PolicyCreated",
      "type": "event"
    },
    {
      "anonymous": false,
      "inputs": [
        {
          "indexed": true,
          "internalType": "uint256",
          "name": "requestId",
          "type": "uint256"
        },
        {
          "indexed": true,
          "internalType": "address",
          "name": "patient",
          "type": "address"
        },
        {
          "indexed": true,
          "internalType": "address",
          "name": "provider",
          "type": "address"
        }
      ],
      "name": "PolicyFinalized",
      "type": "event"
    },
    {
      "anonymous": false,
      "inputs": [
        {
          "indexed": false,
          "internalType": "address",
          "name": "account",
          "type": "address"
        }
      ],
      "name": "Unpaused",
      "type": "event"
    },
    {
      "anonymous": false,
      "inputs": [
        {
          "indexed": true,
          "internalType": "address",
          "name": "implementation",
          "type": "address"
        }
      ],
      "name": "Upgraded",
      "type": "event"
    },
    {
      "inputs": [],
      "name": "UPGRADE_INTERFACE_VERSION",
      "outputs": [
        {
          "internalType": "string",
          "name": "",
          "type": "string"
        }
      ],
      "stateMutability": "view",
      "type": "function"
    },
    {
      "inputs": [],
      "name": "accessControl",
      "outputs": [
        {
          "internalType": "contract MediSecureAccessControl",
          "name": "",
          "type": "address"
        }
      ],
      "stateMutability": "view",
      "type": "function"
    },
    {
      "inputs": [
        {
          "internalType": "uint256",
          "name": "",
          "type": "uint256"
        }
      ],
      "name": "claims",
      "outputs": [
        {
          "internalType": "address",
          "name": "patient",
          "type": "address"
        },
        {
          "internalType": "address",
          "name": "provider",
          "type": "address"
        },
        {
          "internalType": "address",
          "name": "hospitalAddress",
          "type": "address"
        },
        {
          "internalType": "string",
          "name": "procedureName",
          "type": "string"
        },
        {
          "internalType": "uint256",
          "name": "amount",
          "type": "uint256"
        },
        {
          "internalType": "bytes32",
          "name": "evidenceHash",
          "type": "bytes32"
        },
        {
          "internalType": "bool",
          "name": "isSettled",
          "type": "bool"
        },
        {
          "internalType": "string",
          "name": "status",
          "type": "string"
        },
        {
          "internalType": "uint256",
          "name": "timestamp",
          "type": "uint256"
        }
      ],
      "stateMutability": "view",
      "type": "function"
    },
    {
      "inputs": [
        {
          "internalType": "string",
          "name": "_name",
          "type": "string"
        },
        {
          "internalType": "uint256",
          "name": "_basePremium",
          "type": "uint256"
        },
        {
          "internalType": "uint256",
          "name": "_minAge",
          "type": "uint256"
        },
        {
          "internalType": "uint256",
          "name": "_maxAge",
          "type": "uint256"
        },
        {
          "internalType": "uint256",
          "name": "_coverageAmount",
          "type": "uint256"
        }
      ],
      "name": "createPolicy",
      "outputs": [],
      "stateMutability": "nonpayable",
      "type": "function"
    },
    {
      "inputs": [
        {
          "internalType": "uint256",
          "name": "_requestId",
          "type": "uint256"
        }
      ],
      "name": "finalizePolicy",
      "outputs": [],
      "stateMutability": "nonpayable",
      "type": "function"
    },
    {
      "inputs": [
        {
          "internalType": "bytes32",
          "name": "role",
          "type": "bytes32"
        },
        {
          "internalType": "address",
          "name": "account",
          "type": "address"
        }
      ],
      "name": "hasRole",
      "outputs": [
        {
          "internalType": "bool",
          "name": "",
          "type": "bool"
        }
      ],
      "stateMutability": "view",
      "type": "function"
    },
    {
      "inputs": [
        {
          "internalType": "enum Roles",
          "name": "role",
          "type": "uint8"
        },
        {
          "internalType": "address",
          "name": "account",
          "type": "address"
        }
      ],
      "name": "hasRole",
      "outputs": [
        {
          "internalType": "bool",
          "name": "",
          "type": "bool"
        }
      ],
      "stateMutability": "view",
      "type": "function"
    },
    {
      "inputs": [
        {
          "internalType": "address",
          "name": "_accessControl",
          "type": "address"
        }
      ],
      "name": "initialize",
      "outputs": [],
      "stateMutability": "nonpayable",
      "type": "function"
    },
    {
      "inputs": [
        {
          "internalType": "address",
          "name": "",
          "type": "address"
        }
      ],
      "name": "insuranceProviders",
      "outputs": [
        {
          "internalType": "string",
          "name": "name",
          "type": "string"
        },
        {
          "internalType": "bool",
          "name": "isActive",
          "type": "bool"
        },
        {
          "internalType": "uint256",
          "name": "policyCount",
          "type": "uint256"
        }
      ],
      "stateMutability": "view",
      "type": "function"
    },
    {
      "inputs": [
        {
          "internalType": "uint256",
          "name": "",
          "type": "uint256"
        }
      ],
      "name": "insuranceRequests",
      "outputs": [
        {
          "internalType": "address",
          "name": "patient",
          "type": "address"
        },
        {
          "internalType": "address",
          "name": "provider",
          "type": "address"
        },
        {
          "internalType": "uint256",
          "name": "policyId",
          "type": "uint256"
        },
        {
          "internalType": "uint256",
          "name": "finalPremium",
          "type": "uint256"
        },
        {
          "internalType": "bool",
          "name": "isVerified",
          "type": "bool"
        },
        {
          "internalType": "bool",
          "name": "isFinalized",
          "type": "bool"
        }
      ],
      "stateMutability": "view",
      "type": "function"
    },
    {
      "inputs": [
        {
          "internalType": "address",
          "name": "account",
          "type": "address"
        }
      ],
      "name": "isAdmin",
      "outputs": [
        {
          "internalType": "bool",
          "name": "",
          "type": "bool"
        }
      ],
      "stateMutability": "view",
      "type": "function"
    },
    {
      "inputs": [
        {
          "internalType": "address",
          "name": "forwarder",
          "type": "address"
        }
      ],
      "name": "isTrustedForwarder",
      "outputs": [
        {
          "internalType": "bool",
          "name": "",
          "type": "bool"
        }
      ],
      "stateMutability": "view",
      "type": "function"
    },
    {
      "inputs": [
        {
          "internalType": "address",
          "name": "",
          "type": "address"
        },
        {
          "internalType": "uint256",
          "name": "",
          "type": "uint256"
        }
      ],
      "name": "patientPolicyIds",
      "outputs": [
        {
          "internalType": "uint256",
          "name": "",
          "type": "uint256"
        }
      ],
      "stateMutability": "view",
      "type": "function"
    },
    {
      "inputs": [],
      "name": "paused",
      "outputs": [
        {
          "internalType": "bool",
          "name": "",
          "type": "bool"
        }
      ],
      "stateMutability": "view",
      "type": "function"
    },
    {
      "inputs": [
        {
          "internalType": "uint256",
          "name": "",
          "type": "uint256"
        }
      ],
      "name": "policies",
      "outputs": [
        {
          "internalType": "string",
          "name": "name",
          "type": "string"
        },
        {
          "internalType": "uint256",
          "name": "basePremium",
          "type": "uint256"
        },
        {
          "internalType": "bool",
          "name": "isActive",
          "type": "bool"
        },
        {
          "internalType": "uint256",
          "name": "minAge",
          "type": "uint256"
        },
        {
          "internalType": "uint256",
          "name": "maxAge",
          "type": "uint256"
        },
        {
          "internalType": "uint256",
          "name": "coverageAmount",
          "type": "uint256"
        }
      ],
      "stateMutability": "view",
      "type": "function"
    },
    {
      "inputs": [
        {
          "internalType": "uint256",
          "name": "_claimId",
          "type": "uint256"
        },
        {
          "internalType": "string",
          "name": "_status",
          "type": "string"
        }
      ],
      "name": "processClaim",
      "outputs": [],
      "stateMutability": "payable",
      "type": "function"
    },
    {
      "inputs": [
        {
          "internalType": "address",
          "name": "",
          "type": "address"
        },
        {
          "internalType": "uint256",
          "name": "",
          "type": "uint256"
        }
      ],
      "name": "providerClaims",
      "outputs": [
        {
          "internalType": "uint256",
          "name": "",
          "type": "uint256"
        }
      ],
      "stateMutability": "view",
      "type": "function"
    },
    {
      "inputs": [],
      "name": "proxiableUUID",
      "outputs": [
        {
          "internalType": "bytes32",
          "name": "",
          "type": "bytes32"
        }
      ],
      "stateMutability": "view",
      "type": "function"
    },
    {
      "inputs": [
        {
          "internalType": "string",
          "name": "_name",
          "type": "string"
        }
      ],
      "name": "registerInsuranceProvider",
      "outputs": [],
      "stateMutability": "nonpayable",
      "type": "function"
    },
    {
      "inputs": [
        {
          "internalType": "address",
          "name": "_provider",
          "type": "address"
        },
        {
          "internalType": "uint256",
          "name": "_policyId",
          "type": "uint256"
        }
      ],
      "name": "requestQuote",
      "outputs": [],
      "stateMutability": "nonpayable",
      "type": "function"
    },
    {
      "inputs": [
        {
          "internalType": "address",
          "name": "_verifier",
          "type": "address"
        }
      ],
      "name": "setVerifier",
      "outputs": [],
      "stateMutability": "nonpayable",
      "type": "function"
    },
    {
      "inputs": [
        {
          "internalType": "address",
          "name": "_provider",
          "type": "address"
        },
        {
          "internalType": "address",
          "name": "_hospitalAddress",
          "type": "address"
        },
        {
          "internalType": "string",
          "name": "_procedureName",
          "type": "string"
        },
        {
          "internalType": "uint256",
          "name": "_amount",
          "type": "uint256"
        },
        {
          "internalType": "bytes32",
          "name": "_evidenceHash",
          "type": "bytes32"
        }
      ],
      "name": "submitClaim",
      "outputs": [],
      "stateMutability": "nonpayable",
      "type": "function"
    },
    {
      "inputs": [],
      "name": "trustedForwarder",
      "outputs": [
        {
          "internalType": "address",
          "name": "",
          "type": "address"
        }
      ],
      "stateMutability": "view",
      "type": "function"
    },
    {
      "inputs": [
        {
          "internalType": "address",
          "name": "newImplementation",
          "type": "address"
        },
        {
          "internalType": "bytes",
          "name": "data",
          "type": "bytes"
        }
      ],
      "name": "upgradeToAndCall",
      "outputs": [],
      "stateMutability": "payable",
      "type": "function"
    },
    {
      "inputs": [
        {
          "internalType": "uint256",
          "name": "_requestId",
          "type": "uint256"
        }
      ],
      "name": "verifyProof",
      "outputs": [],
      "stateMutability": "nonpayable",
      "type": "function"
    },
    {
      "inputs": [],
      "name": "zkpVerifier",
      "outputs": [
        {
          "internalType": "address",
          "name": "",
          "type": "address"
        }
      ],
      "stateMutability": "view",
      "type": "function"
    }
  ],
  "bytecode": "0x60c0604052306080523480156200001557600080fd5b5060405162002def38038062002def83398101604081905262000038916200010a565b6001600160a01b03811660a0526200004f62000056565b506200013c565b7ff0c57e16840df040f15088dc2f81fe391c3923bec73e23a9662efc9c229c6a00805468010000000000000000900460ff1615620000a75760405163f92ee8a960e01b815260040160405180910390fd5b80546001600160401b0390811614620001075780546001600160401b0319166001600160401b0390811782556040519081527fc7f505b2f371ae2175ee4913f4499e1f2633a7b5936321eed1cdaeb6115181d29060200160405180910390a15b50565b6000602082840312156200011d57600080fd5b81516001600160a01b03811681146200013557600080fd5b9392505050565b60805160a051612c716200017e6000396000818161030a015281816103c0015261217c015260008181611e4101528181611e6a015261207e0152612c716000f3fe6080604052600436106101815760003560e01c806373df0aaa116100d1578063ad3cb1cc1161008a578063c575d09311610064578063c575d093146104f7578063d3e8948314610517578063ede341f014610549578063eed45ccd1461056957600080fd5b8063ad3cb1cc14610479578063b8ee833b146104b7578063c4d66de8146104d757600080fd5b806373df0aaa146103915780637da0a877146103b15780638b6958ff146103e457806391d14854146104045780639e97b8f614610424578063a888c2cd1461044457600080fd5b80634c1fb5781161013e5780635437988d116101185780635437988d146102cd578063572b6c05146102ed5780635c975abb1461033a5780636aebbd661461037157600080fd5b80634c1fb578146102775780634f1ef2861461029757806352d1902d146102aa57600080fd5b80630a5eccd31461018657806313007d551461019b57806324d7806c146101d85780632fafc5f71461020857806341d3caff14610228578063482bce3c14610248575b600080fd5b61019961019436600461250c565b610607565b005b3480156101a757600080fd5b506000546101bb906001600160a01b031681565b6040516001600160a01b0390911681526020015b60405180910390f35b3480156101e457600080fd5b506101f86101f336600461256f565b610a6a565b60405190151581526020016101cf565b34801561021457600080fd5b5061019961022336600461258a565b610ae4565b34801561023457600080fd5b506101996102433660046125e7565b610dd0565b34801561025457600080fd5b5061026861026336600461256f565b610fc3565b6040516101cf93929190612661565b34801561028357600080fd5b50610199610292366004612686565b611071565b6101996102a536600461269f565b61119a565b3480156102b657600080fd5b506102bf6111b9565b6040519081526020016101cf565b3480156102d957600080fd5b506101996102e836600461256f565b6111d6565b3480156102f957600080fd5b506101f861030836600461256f565b7f00000000000000000000000000000000000000000000000000000000000000006001600160a01b0390811691161490565b34801561034657600080fd5b507fcd5ed15c6e187e77e9aee88184c21f4f2182ab5827cb3b7e07fbedcd63f033005460ff166101f8565b34801561037d57600080fd5b50603b546101bb906001600160a01b031681565b34801561039d57600080fd5b506101996103ac3660046126f7565b611319565b3480156103bd57600080fd5b507f00000000000000000000000000000000000000000000000000000000000000006101bb565b3480156103f057600080fd5b506101996103ff366004612686565b611541565b34801561041057600080fd5b506101f861041f366004612767565b61178c565b34801561043057600080fd5b506101f861043f366004612793565b61180a565b34801561045057600080fd5b5061046461045f366004612686565b61183d565b6040516101cf999897969594939291906127c3565b34801561048557600080fd5b506104aa604051806040016040528060058152602001640352e302e360dc1b81525081565b6040516101cf9190612838565b3480156104c357600080fd5b506102bf6104d23660046125e7565b6119ad565b3480156104e357600080fd5b506101996104f236600461256f565b6119de565b34801561050357600080fd5b506102bf6105123660046125e7565b611b06565b34801561052357600080fd5b50610537610532366004612686565b611b22565b6040516101cf9695949392919061284b565b34801561055557600080fd5b50610199610564366004612887565b611be3565b34801561057557600080fd5b506105cb610584366004612686565b603460205260009081526040902080546001820154600283015460038401546004909401546001600160a01b03938416949390921692909160ff8082169161010090041686565b604080516001600160a01b03978816815296909516602087015293850192909252606084015215156080830152151560a082015260c0016101cf565b6000546004906001600160a01b0316639e97b8f682610624611de2565b6040518363ffffffff1660e01b81526004016106419291906128c4565b602060405180830381865afa15801561065e573d6000803e3d6000fd5b505050506040513d601f19601f8201168201806040525081019061068291906128fe565b6106a75760405162461bcd60e51b815260040161069e90612920565b60405180910390fd5b60008054906101000a90046001600160a01b03166001600160a01b0316635c975abb6040518163ffffffff1660e01b8152600401602060405180830381865afa1580156106f8573d6000803e3d6000fd5b505050506040513d601f19601f8201168201806040525081019061071c91906128fe565b156107395760405162461bcd60e51b815260040161069e90612961565b610741611df1565b610749611de2565b6000848152603560205260409020600101546001600160a01b039081169116146107a65760405162461bcd60e51b815260206004820152600e60248201526d4e6f7420796f757220636c61696d60901b604482015260640161069e565b60008381526035602052604090206006015460ff16156107fa5760405162461bcd60e51b815260206004820152600f60248201526e105b1c9958591e481cd95d1d1b1959608a1b604482015260640161069e565b60008381526035602052604090206007016108158382612a18565b506040805180820190915260088152671054141493d5915160c21b6020918201528251908301207f1cdef962e53be3204ebde005dce32d23a1c5ccb8fc56675a07ba9949040c084301610a2d576000838152603560205260409020600401543410156108cd5760405162461bcd60e51b815260206004820152602160248201527f496e73756666696369656e742066756e647320666f7220736574746c656d656e6044820152601d60fa1b606482015260840161069e565b60008381526035602052604090819020600281015460048083015492549351630f70cf8b60e21b81526001600160a01b03928316918101829052919093166024820152633dc33e2c91906044016000604051808303818588803b15801561093357600080fd5b505af1158015610947573d6000803e3d6000fd5b505050600085815260356020526040902060068101805460ff19166001179055600401543411159150610a2d9050576000610980611de2565b6000858152603560205260409020600401546001600160a01b0391909116906109a99034612aee565b604051600081818185875af1925050503d80600081146109e5576040519150601f19603f3d011682016040523d82523d6000602084013e6109ea565b606091505b5050905080610a2b5760405162461bcd60e51b815260206004820152600d60248201526c1499599d5b990819985a5b1959609a1b604482015260640161069e565b505b827f3d2d9aaf072180328e478501720eb5e357f462214fac339049c443729042386783604051610a5d9190612838565b60405180910390a2505050565b60008054604051634f4bdc7b60e11b81526001600160a01b0390911690639e97b8f690610a9d90849086906004016128c4565b602060405180830381865afa158015610aba573d6000803e3d6000fd5b505050506040513d601f19601f82011682018060405250810190610ade91906128fe565b92915050565b6000546004906001600160a01b0316639e97b8f682610b01611de2565b6040518363ffffffff1660e01b8152600401610b1e9291906128c4565b602060405180830381865afa158015610b3b573d6000803e3d6000fd5b505050506040513d601f19601f82011682018060405250810190610b5f91906128fe565b610b7b5760405162461bcd60e51b815260040161069e90612920565b60008054906101000a90046001600160a01b03166001600160a01b0316635c975abb6040518163ffffffff1660e01b8152600401602060405180830381865afa158015610bcc573d6000803e3d6000fd5b505050506040513d601f19601f82011682018060405250810190610bf091906128fe565b15610c0d5760405162461bcd60e51b815260040161069e90612961565b610c15611df1565b6000865111610c555760405162461bcd60e51b815260206004820152600c60248201526b496e76616c6964206e616d6560a01b604482015260640161069e565b60008511610c975760405162461bcd60e51b815260206004820152600f60248201526e496e76616c6964207072656d69756d60881b604482015260640161069e565b838311610cda5760405162461bcd60e51b8152602060048201526011602482015270496e76616c6964206167652072616e676560781b604482015260640161069e565b60388054906000610cea83612b01565b90915550506038546000818152603360205260409020610d0a8882612a18565b506000818152603360205260408120600180820189905560028201805460ff191690911790556003810187905560048101869055600501849055603290610d4f611de2565b6001600160a01b0316815260208101919091526040016000908120600201805491610d7983612b01565b9190505550610d86611de2565b6001600160a01b0316817f21d0178f0cde2aed24022db30651dabafb4bbe431fb787fbc92113304d8e354989604051610dbf9190612838565b60405180910390a350505050505050565b610dd8611df1565b6001600160a01b03821660009081526032602052604090206001015460ff16610e435760405162461bcd60e51b815260206004820152601760248201527f50726f7669646572206e6f742072656769737465726564000000000000000000604482015260640161069e565b60008181526033602052604090206002015460ff16610e985760405162461bcd60e51b8152602060048201526011602482015270506f6c696379206e6f742061637469766560781b604482015260640161069e565b60398054906000610ea883612b01565b9091555050603954610eb8611de2565b600082815260346020818152604080842080546001600160a01b03199081166001600160a01b0397881617825560018083018054909216978b1697909717905560028101889055878552603383529084209094015485845291905260038301556004909101805461ffff19169055603690610f31611de2565b6001600160a01b031681526020808201929092526040016000908120805460018101825590825291902001819055610f67611de2565b6001600160a01b0316817ff1b29b9300929052e2978377445efec1b2f0291325f977ba3864b8032c3e1a558585604051610fb69291906001600160a01b03929092168252602082015260400190565b60405180910390a3505050565b603260205260009081526040902080548190610fde90612998565b80601f016020809104026020016040519081016040528092919081815260200182805461100a90612998565b80156110575780601f1061102c57610100808354040283529160200191611057565b820191906000526020600020905b81548152906001019060200180831161103a57829003601f168201915b505050506001830154600290930154919260ff1691905083565b611079611df1565b611081611de2565b6000828152603460205260409020546001600160a01b039081169116146110dd5760405162461bcd60e51b815260206004820152601060248201526f139bdd081e5bdd5c881c995c5d595cdd60821b604482015260640161069e565b60008181526034602052604090206004015460ff1661112d5760405162461bcd60e51b815260206004820152600c60248201526b139bdd081d995c9a599a595960a21b604482015260640161069e565b600081815260346020526040902060048101805461ff001916610100179055600101546001600160a01b0316611161611de2565b6001600160a01b0316827f67511d343eb9356938a8af11d5abfbaeae7edca1e0a1554007c30b4742d1d78860405160405180910390a450565b6111a2611e36565b6111ab82611edb565b6111b58282611fb1565b5050565b60006111c3612073565b50600080516020612c1c83398151915290565b600080546001600160a01b031690639e97b8f6906111f2611de2565b6040518363ffffffff1660e01b815260040161120f9291906128c4565b602060405180830381865afa15801561122c573d6000803e3d6000fd5b505050506040513d601f19601f8201168201806040525081019061125091906128fe565b6112a75760405162461bcd60e51b815260206004820152602260248201527f416363657373436f6e74726f6c3a20726573747269637465642d746f2d61646d60448201526134b760f11b606482015260840161069e565b6112af611df1565b6001600160a01b0381166112f75760405162461bcd60e51b815260206004820152600f60248201526e496e76616c6964206164647265737360881b604482015260640161069e565b603b80546001600160a01b0319166001600160a01b0392909216919091179055565b611321611df1565b6001600160a01b03851660009081526032602052604090206001015460ff166113825760405162461bcd60e51b815260206004820152601360248201527250726f7669646572206e6f742061637469766560681b604482015260640161069e565b6001600160a01b0384166113d85760405162461bcd60e51b815260206004820152601860248201527f496e76616c696420686f73706974616c20616464726573730000000000000000604482015260640161069e565b603a80549060006113e883612b01565b9091555050603a546113f8611de2565b600082815260356020526040902080546001600160a01b03199081166001600160a01b0393841617825560018201805482168a8516179055600282018054909116928816929092179091556003016114508582612a18565b50600081815260356020818152604080842060048101889055600581018790558151808301909252600982526814d55093525515115160ba1b82840152938590529190526007909101906114a49082612a18565b50600081815260356020908152604080832060068101805460ff19169055426008909101556001600160a01b038916835260378252822080546001810182559083529120018190556114f4611de2565b6001600160a01b0316817fd621c9edee5b7dda898a8dd3a972f2f81a53c6d213536e15d1864349d0d5128988878660405161153193929190612b1a565b60405180910390a3505050505050565b6000546004906001600160a01b0316639e97b8f68261155e611de2565b6040518363ffffffff1660e01b815260040161157b9291906128c4565b602060405180830381865afa158015611598573d6000803e3d6000fd5b505050506040513d601f19601f820116820180604052508101906115bc91906128fe565b6115d85760405162461bcd60e51b815260040161069e90612920565b60008054906101000a90046001600160a01b03166001600160a01b0316635c975abb6040518163ffffffff1660e01b8152600401602060405180830381865afa158015611629573d6000803e3d6000fd5b505050506040513d601f19601f8201168201806040525081019061164d91906128fe565b1561166a5760405162461bcd60e51b815260040161069e90612961565b611672611df1565b61167a611de2565b6000838152603460205260409020600101546001600160a01b039081169116146116d95760405162461bcd60e51b815260206004820152601060248201526f139bdd081e5bdd5c881c995c5d595cdd60821b604482015260640161069e565b60008281526034602090815260408083206002015480845260339092528220600101549091606461170b836050612b4e565b6117159190612b65565b600086815260346020526040902060048101805460ff191660011790556003018190559050611742611de2565b6001600160a01b0316857f796a366357c80d9d52a4076d6a2d52b3c65e7f0b5bff47ff8a76b3c971055ab88360405161177d91815260200190565b60405180910390a35050505050565b60008054604051632474521560e21b8152600481018590526001600160a01b038481166024830152909116906391d14854906044015b602060405180830381865afa1580156117df573d6000803e3d6000fd5b505050506040513d601f19601f8201168201806040525081019061180391906128fe565b9392505050565b60008054604051634f4bdc7b60e11b81526001600160a01b0390911690639e97b8f6906117c290869086906004016128c4565b60356020526000908152604090208054600182015460028301546003840180546001600160a01b039485169593851694909216929161187b90612998565b80601f01602080910402602001604051908101604052809291908181526020018280546118a790612998565b80156118f45780601f106118c9576101008083540402835291602001916118f4565b820191906000526020600020905b8154815290600101906020018083116118d757829003601f168201915b5050506004840154600585015460068601546007870180549697939692955060ff90911693509061192490612998565b80601f016020809104026020016040519081016040528092919081815260200182805461195090612998565b801561199d5780601f106119725761010080835404028352916020019161199d565b820191906000526020600020905b81548152906001019060200180831161198057829003601f168201915b5050505050908060080154905089565b603660205281600052604060002081815481106119c957600080fd5b90600052602060002001600091509150505481565b7ff0c57e16840df040f15088dc2f81fe391c3923bec73e23a9662efc9c229c6a008054600160401b810460ff16159067ffffffffffffffff16600081158015611a245750825b905060008267ffffffffffffffff166001148015611a415750303b155b905081158015611a4f575080155b15611a6d5760405163f92ee8a960e01b815260040160405180910390fd5b845467ffffffffffffffff191660011785558315611a9757845460ff60401b1916600160401b1785555b611a9f6120bc565b611aa76120cc565b611ab0866120dc565b611ab8612164565b8315611afe57845460ff60401b19168555604051600181527fc7f505b2f371ae2175ee4913f4499e1f2633a7b5936321eed1cdaeb6115181d29060200160405180910390a15b505050505050565b603760205281600052604060002081815481106119c957600080fd5b603360205260009081526040902080548190611b3d90612998565b80601f0160208091040260200160405190810160405280929190818152602001828054611b6990612998565b8015611bb65780601f10611b8b57610100808354040283529160200191611bb6565b820191906000526020600020905b815481529060010190602001808311611b9957829003601f168201915b50505060018401546002850154600386015460048701546005909701549596929560ff9092169450925086565b611beb611df1565b60326000611bf7611de2565b6001600160a01b0316815260208101919091526040016000206001015460ff1615611c595760405162461bcd60e51b8152602060048201526012602482015271105b1c9958591e481c9959da5cdd195c995960721b604482015260640161069e565b6000815111611c995760405162461bcd60e51b815260206004820152600c60248201526b496e76616c6964206e616d6560a01b604482015260640161069e565b8060326000611ca6611de2565b6001600160a01b03168152602081019190915260400160002090611cca9082612a18565b50600160326000611cd9611de2565b6001600160a01b0316815260208101919091526040016000908120600101805460ff191692151592909217909155603281611d12611de2565b6001600160a01b0390811682526020820192909252604001600090812060020192909255905416635d5664e16004611d48611de2565b6040518363ffffffff1660e01b8152600401611d659291906128c4565b600060405180830381600087803b158015611d7f57600080fd5b505af1158015611d93573d6000803e3d6000fd5b50505050611d9f611de2565b6001600160a01b03167fba71926bd5489057d853e3d4f8501ea465ca2eb897a1c34e2148b72c8d9b51e682604051611dd79190612838565b60405180910390a250565b6000611dec61216c565b905090565b7fcd5ed15c6e187e77e9aee88184c21f4f2182ab5827cb3b7e07fbedcd63f033005460ff1615611e345760405163d93c066560e01b815260040160405180910390fd5b565b306001600160a01b037f0000000000000000000000000000000000000000000000000000000000000000161480611ebd57507f00000000000000000000000000000000000000000000000000000000000000006001600160a01b0316611eb1600080516020612c1c833981519152546001600160a01b031690565b6001600160a01b031614155b15611e345760405163703e46dd60e11b815260040160405180910390fd5b6000546001600160a01b0316639e97b8f66007611ef6611de2565b6040518363ffffffff1660e01b8152600401611f139291906128c4565b602060405180830381865afa158015611f30573d6000803e3d6000fd5b505050506040513d601f19601f82011682018060405250810190611f5491906128fe565b611fae5760405162461bcd60e51b815260206004820152602560248201527f416363657373436f6e74726f6c3a20726573747269637465642d746f2d7570676044820152643930b232b960d91b606482015260840161069e565b50565b816001600160a01b03166352d1902d6040518163ffffffff1660e01b8152600401602060405180830381865afa92505050801561200b575060408051601f3d908101601f1916820190925261200891810190612b87565b60015b61203357604051634c9c8ce360e01b81526001600160a01b038316600482015260240161069e565b600080516020612c1c833981519152811461206457604051632a87526960e21b81526004810182905260240161069e565b61206e83836121e1565b505050565b306001600160a01b037f00000000000000000000000000000000000000000000000000000000000000001614611e345760405163703e46dd60e11b815260040160405180910390fd5b6120c4612237565b611e34612280565b6120d4612237565b611e346122b3565b6120e4612237565b6120ec612164565b6001600160a01b0381166121425760405162461bcd60e51b815260206004820152601e60248201527f496e76616c69642061636365737320636f6e74726f6c20616464726573730000604482015260640161069e565b600080546001600160a01b0319166001600160a01b0392909216919091179055565b611e34612237565b6000366014336001600160a01b037f0000000000000000000000000000000000000000000000000000000000000000161480156121a95750808210155b156121d9576000366121bb8385612aee565b6121c6928290612ba0565b6121cf91612bca565b60601c9250505090565b339250505090565b6121ea826122e1565b6040516001600160a01b038316907fbc7cd75a20ee27fd9adebab32041f755214dbc6bffa90cc0225b39da2e5c2d3b90600090a280511561222f5761206e8282612346565b6111b56123bc565b7ff0c57e16840df040f15088dc2f81fe391c3923bec73e23a9662efc9c229c6a0054600160401b900460ff16611e3457604051631afcd79f60e31b815260040160405180910390fd5b612288612237565b7fcd5ed15c6e187e77e9aee88184c21f4f2182ab5827cb3b7e07fbedcd63f03300805460ff19169055565b6122bb612237565b60017f9b779b17422d0df92223018b32b4d1fa46e071723d6817e2486d003becc55f0055565b806001600160a01b03163b60000361231757604051634c9c8ce360e01b81526001600160a01b038216600482015260240161069e565b600080516020612c1c83398151915280546001600160a01b0319166001600160a01b0392909216919091179055565b6060600080846001600160a01b0316846040516123639190612bff565b600060405180830381855af49150503d806000811461239e576040519150601f19603f3d011682016040523d82523d6000602084013e6123a3565b606091505b50915091506123b38583836123db565b95945050505050565b3415611e345760405163b398979f60e01b815260040160405180910390fd5b6060826123f0576123eb82612437565b611803565b815115801561240757506001600160a01b0384163b155b1561243057604051639996b31560e01b81526001600160a01b038516600482015260240161069e565b5092915050565b8051156124475780518082602001fd5b604051630a12f52160e11b815260040160405180910390fd5b634e487b7160e01b600052604160045260246000fd5b600067ffffffffffffffff8084111561249157612491612460565b604051601f8501601f19908116603f011681019082821181831017156124b9576124b9612460565b816040528093508581528686860111156124d257600080fd5b858560208301376000602087830101525050509392505050565b600082601f8301126124fd57600080fd5b61180383833560208501612476565b6000806040838503121561251f57600080fd5b82359150602083013567ffffffffffffffff81111561253d57600080fd5b612549858286016124ec565b9150509250929050565b80356001600160a01b038116811461256a57600080fd5b919050565b60006020828403121561258157600080fd5b61180382612553565b600080600080600060a086880312156125a257600080fd5b853567ffffffffffffffff8111156125b957600080fd5b6125c5888289016124ec565b9860208801359850604088013597606081013597506080013595509350505050565b600080604083850312156125fa57600080fd5b61260383612553565b946020939093013593505050565b60005b8381101561262c578181015183820152602001612614565b50506000910152565b6000815180845261264d816020860160208601612611565b601f01601f19169290920160200192915050565b6060815260006126746060830186612635565b93151560208301525060400152919050565b60006020828403121561269857600080fd5b5035919050565b600080604083850312156126b257600080fd5b6126bb83612553565b9150602083013567ffffffffffffffff8111156126d757600080fd5b8301601f810185136126e857600080fd5b61254985823560208401612476565b600080600080600060a0868803121561270f57600080fd5b61271886612553565b945061272660208701612553565b9350604086013567ffffffffffffffff81111561274257600080fd5b61274e888289016124ec565b9598949750949560608101359550608001359392505050565b6000806040838503121561277a57600080fd5b8235915061278a60208401612553565b90509250929050565b600080604083850312156127a657600080fd5b8235600981106127b557600080fd5b915061278a60208401612553565b6001600160a01b038a81168252898116602083015288166040820152610120606082018190526000906127f88382018a612635565b90508760808401528660a084015285151560c084015282810360e08401526128208186612635565b915050826101008301529a9950505050505050505050565b6020815260006118036020830184612635565b60c08152600061285e60c0830189612635565b60208301979097525093151560408501526060840192909252608083015260a090910152919050565b60006020828403121561289957600080fd5b813567ffffffffffffffff8111156128b057600080fd5b6128bc848285016124ec565b949350505050565b60408101600984106128e657634e487b7160e01b600052602160045260246000fd5b9281526001600160a01b039190911660209091015290565b60006020828403121561291057600080fd5b8151801515811461180357600080fd5b60208082526021908201527f416363657373436f6e74726f6c3a20726573747269637465642d746f2d726f6c6040820152606560f81b606082015260800190565b6020808252601b908201527f4d6564695365637572652050726f746f636f6c3a207061757365640000000000604082015260600190565b600181811c908216806129ac57607f821691505b6020821081036129cc57634e487b7160e01b600052602260045260246000fd5b50919050565b601f82111561206e57600081815260208120601f850160051c810160208610156129f95750805b601f850160051c820191505b81811015611afe57828155600101612a05565b815167ffffffffffffffff811115612a3257612a32612460565b612a4681612a408454612998565b846129d2565b602080601f831160018114612a7b5760008415612a635750858301515b600019600386901b1c1916600185901b178555611afe565b600085815260208120601f198616915b82811015612aaa57888601518255948401946001909101908401612a8b565b5085821015612ac85787850151600019600388901b60f8161c191681555b5050505050600190811b01905550565b634e487b7160e01b600052601160045260246000fd5b81810381811115610ade57610ade612ad8565b600060018201612b1357612b13612ad8565b5060010190565b6001600160a01b0384168152606060208201819052600090612b3e90830185612635565b9050826040830152949350505050565b8082028115828204841417610ade57610ade612ad8565b600082612b8257634e487b7160e01b600052601260045260246000fd5b500490565b600060208284031215612b9957600080fd5b5051919050565b60008085851115612bb057600080fd5b83861115612bbd57600080fd5b5050820193919092039150565b6bffffffffffffffffffffffff198135818116916014851015612bf75780818660140360031b1b83161692505b505092915050565b60008251612c11818460208701612611565b919091019291505056fe360894a13ba1a3210667c828492db98dca3e2076cc3735a920a3ca505d382bbca26469706673582212204e8161db85a384c07b097c1b4e900b63f53929611cdfc00257e95ce4ae2adf8664736f6c63430008140033",
  "linkReferences": {},
  "deployedLinkReferences": {}
}