{
  "_format": "hh-sol-artifact-1",
  "contractName": "RBACDoctor",
  "sourceName": "contracts/RBACDoctor.sol",
  "abi": [
    {
      "inputs": [
        {
          "internalType": "address",
          "name": "_accessControl",
          "type": "address"
        },
        {
          "internalType": "address",
          "name": "_forwarder",
          "type": "address"
        }
      ],
      "stateMutability": "nonpayable",
      "type": "constructor"
    },
    {
      "anonymous": false,
      "inputs": [
        {
          "indexed": true,
          "internalType": "address",
          "name": "patient",
          "type": "address"
        },
        {
          "indexed": true,
          "internalType": "address",
          "name": "doctor",
          "type": "address"
        },
        {
          "indexed": false,
          "internalType": "string",
          "name": "ipfsHash",
          "type": "string"
        },
        {
          "indexed": false,
          "internalType": "uint256",
          "name": "grantTime",
          "type": "uint256"
        },
        {
          "indexed": false,
          "internalType": "uint256",
          "name": "duration",
          "type": "uint256"
        }
      ],
      "name": "AccessGranted",
      "type": "event"
    },
    {
      "anonymous": false,
      "inputs": [
        {
          "indexed": true,
          "internalType": "address",
          "name": "patient",
          "type": "address"
        },
        {
          "indexed": true,
          "internalType": "address",
          "name": "doctor",
          "type": "address"
        },
        {
          "indexed": false,
          "internalType": "string",
          "name": "ipfsHash",
          "type": "string"
        },
        {
          "indexed": false,
          "internalType": "string",
          "name": "fileName",
          "type": "string"
        },
        {
          "indexed": false,
          "internalType": "uint256",
          "name": "duration",
          "type": "uint256"
        },
        {
          "indexed": false,
          "internalType": "string",
          "name": "reason",
          "type": "string"
        }
      ],
      "name": "AccessRequested",
      "type": "event"
    },
    {
      "anonymous": false,
      "inputs": [
        {
          "indexed": true,
          "internalType": "address",
          "name": "patient",
          "type": "address"
        },
        {
          "indexed": true,
          "internalType": "address",
          "name": "doctor",
          "type": "address"
        },
        {
          "indexed": false,
          "internalType": "string",
          "name": "ipfsHash",
          "type": "string"
        },
        {
          "indexed": false,
          "internalType": "uint256",
          "name": "revokeTime",
          "type": "uint256"
        }
      ],
      "name": "AccessRevoked",
      "type": "event"
    },
    {
      "anonymous": false,
      "inputs": [
        {
          "indexed": true,
          "internalType": "address",
          "name": "doctor",
          "type": "address"
        },
        {
          "indexed": true,
          "internalType": "address",
          "name": "patient",
          "type": "address"
        },
        {
          "indexed": false,
          "internalType": "string",
          "name": "ipfsHash",
          "type": "string"
        },
        {
          "indexed": false,
          "internalType": "string",
          "name": "reason",
          "type": "string"
        },
        {
          "indexed": false,
          "internalType": "uint256",
          "name": "timestamp",
          "type": "uint256"
        }
      ],
      "name": "EmergencyAccessGranted",
      "type": "event"
    },
    {
      "anonymous": false,
      "inputs": [
        {
          "indexed": true,
          "internalType": "address",
          "name": "patient",
          "type": "address"
        },
        {
          "indexed": true,
          "internalType": "address",
          "name": "resolver",
          "type": "address"
        },
        {
          "indexed": false,
          "internalType": "string",
          "name": "ipfsHash",
          "type": "string"
        },
        {
          "indexed": false,
          "internalType": "uint256",
          "name": "timestamp",
          "type": "uint256"
        }
      ],
      "name": "EmergencyResolved",
      "type": "event"
    },
    {
      "anonymous": false,
      "inputs": [
        {
          "indexed": true,
          "internalType": "uint256",
          "name": "doctorId",
          "type": "uint256"
        },
        {
          "indexed": true,
          "internalType": "uint256",
          "name": "patientId",
          "type": "uint256"
        },
        {
          "indexed": true,
          "internalType": "address",
          "name": "doctor",
          "type": "address"
        }
      ],
      "name": "PatientAdded",
      "type": "event"
    },
    {
      "inputs": [],
      "name": "accessControl",
      "outputs": [
        {
          "internalType": "contract MediSecureAccessControl",
          "name": "",
          "type": "address"
        }
      ],
      "stateMutability": "view",
      "type": "function"
    },
    {
      "inputs": [
        {
          "internalType": "uint256",
          "name": "_patientId",
          "type": "uint256"
        }
      ],
      "name": "addPatient",
      "outputs": [],
      "stateMutability": "nonpayable",
      "type": "function"
    },
    {
      "inputs": [
        {
          "internalType": "address",
          "name": "_patient",
          "type": "address"
        },
        {
          "internalType": "string",
          "name": "_ipfsHash",
          "type": "string"
        },
        {
          "internalType": "string",
          "name": "_reason",
          "type": "string"
        }
      ],
      "name": "declareEmergency",
      "outputs": [],
      "stateMutability": "nonpayable",
      "type": "function"
    },
    {
      "inputs": [
        {
          "internalType": "uint256",
          "name": "",
          "type": "uint256"
        },
        {
          "internalType": "uint256",
          "name": "",
          "type": "uint256"
        }
      ],
      "name": "doctorAccessList",
      "outputs": [
        {
          "internalType": "address",
          "name": "patient",
          "type": "address"
        },
        {
          "internalType": "string",
          "name": "ipfsHash",
          "type": "string"
        },
        {
          "internalType": "string",
          "name": "fileName",
          "type": "string"
        },
        {
          "internalType": "bool",
          "name": "hasAccess",
          "type": "bool"
        },
        {
          "internalType": "uint256",
          "name": "grantTime",
          "type": "uint256"
        },
        {
          "internalType": "uint256",
          "name": "duration",
          "type": "uint256"
        },
        {
          "internalType": "string",
          "name": "reason",
          "type": "string"
        },
        {
          "internalType": "bool",
          "name": "isEmergency",
          "type": "bool"
        },
        {
          "internalType": "bool",
          "name": "isResolved",
          "type": "bool"
        }
      ],
      "stateMutability": "view",
      "type": "function"
    },
    {
      "inputs": [
        {
          "internalType": "address",
          "name": "walletAddress",
          "type": "address"
        }
      ],
      "name": "doctorExists",
      "outputs": [
        {
          "internalType": "bool",
          "name": "",
          "type": "bool"
        }
      ],
      "stateMutability": "view",
      "type": "function"
    },
    {
      "inputs": [
        {
          "internalType": "uint256",
          "name": "",
          "type": "uint256"
        }
      ],
      "name": "doctors",
      "outputs": [
        {
          "internalType": "uint256",
          "name": "doctorId",
          "type": "uint256"
        },
        {
          "internalType": "string",
          "name": "name",
          "type": "string"
        },
        {
          "internalType": "string",
          "name": "specialization",
          "type": "string"
        },
        {
          "internalType": "string",
          "name": "email",
          "type": "string"
        }
      ],
      "stateMutability": "view",
      "type": "function"
    },
    {
      "inputs": [],
      "name": "getAllDoctors",
      "outputs": [
        {
          "components": [
            {
              "internalType": "uint256",
              "name": "doctorId",
              "type": "uint256"
            },
            {
              "internalType": "string",
              "name": "name",
              "type": "string"
            },
            {
              "internalType": "string",
              "name": "specialization",
              "type": "string"
            },
            {
              "internalType": "string",
              "name": "email",
              "type": "string"
            },
            {
              "internalType": "uint256[]",
              "name": "patientIds",
              "type": "uint256[]"
            }
          ],
          "internalType": "struct RBACDoctor.DoctorDetails[]",
          "name": "",
          "type": "tuple[]"
        }
      ],
      "stateMutability": "view",
      "type": "function"
    },
    {
      "inputs": [],
      "name": "getDoctorPatients",
      "outputs": [
        {
          "internalType": "uint256[]",
          "name": "",
          "type": "uint256[]"
        }
      ],
      "stateMutability": "view",
      "type": "function"
    },
    {
      "inputs": [
        {
          "internalType": "address",
          "name": "_doctor",
          "type": "address"
        },
        {
          "internalType": "string",
          "name": "_ipfsHash",
          "type": "string"
        },
        {
          "internalType": "uint256",
          "name": "_duration",
          "type": "uint256"
        }
      ],
      "name": "grantAccess",
      "outputs": [],
      "stateMutability": "nonpayable",
      "type": "function"
    },
    {
      "inputs": [
        {
          "internalType": "address",
          "name": "_patient",
          "type": "address"
        },
        {
          "internalType": "string",
          "name": "_ipfsHash",
          "type": "string"
        }
      ],
      "name": "hasAccessToDocument",
      "outputs": [
        {
          "internalType": "bool",
          "name": "",
          "type": "bool"
        }
      ],
      "stateMutability": "view",
      "type": "function"
    },
    {
      "inputs": [
        {
          "internalType": "bytes32",
          "name": "role",
          "type": "bytes32"
        },
        {
          "internalType": "address",
          "name": "account",
          "type": "address"
        }
      ],
      "name": "hasRole",
      "outputs": [
        {
          "internalType": "bool",
          "name": "",
          "type": "bool"
        }
      ],
      "stateMutability": "view",
      "type": "function"
    },
    {
      "inputs": [
        {
          "internalType": "enum Roles",
          "name": "role",
          "type": "uint8"
        },
        {
          "internalType": "address",
          "name": "account",
          "type": "address"
        }
      ],
      "name": "hasRole",
      "outputs": [
        {
          "internalType": "bool",
          "name": "",
          "type": "bool"
        }
      ],
      "stateMutability": "view",
      "type": "function"
    },
    {
      "inputs": [
        {
          "internalType": "address",
          "name": "account",
          "type": "address"
        }
      ],
      "name": "isAdmin",
      "outputs": [
        {
          "internalType": "bool",
          "name": "",
          "type": "bool"
        }
      ],
      "stateMutability": "view",
      "type": "function"
    },
    {
      "inputs": [
        {
          "internalType": "address",
          "name": "forwarder",
          "type": "address"
        }
      ],
      "name": "isTrustedForwarder",
      "outputs": [
        {
          "internalType": "bool",
          "name": "",
          "type": "bool"
        }
      ],
      "stateMutability": "view",
      "type": "function"
    },
    {
      "inputs": [
        {
          "internalType": "string",
          "name": "_name",
          "type": "string"
        },
        {
          "internalType": "string",
          "name": "_specialization",
          "type": "string"
        },
        {
          "internalType": "string",
          "name": "_hospital",
          "type": "string"
        }
      ],
      "name": "registerDoctor",
      "outputs": [],
      "stateMutability": "nonpayable",
      "type": "function"
    },
    {
      "inputs": [
        {
          "internalType": "address",
          "name": "_patient",
          "type": "address"
        },
        {
          "internalType": "string",
          "name": "_ipfsHash",
          "type": "string"
        },
        {
          "internalType": "string",
          "name": "_fileName",
          "type": "string"
        },
        {
          "internalType": "uint256",
          "name": "_duration",
          "type": "uint256"
        },
        {
          "internalType": "string",
          "name": "_reason",
          "type": "string"
        }
      ],
      "name": "requestAccess",
      "outputs": [],
      "stateMutability": "nonpayable",
      "type": "function"
    },
    {
      "inputs": [
        {
          "internalType": "uint256",
          "name": "_doctorId",
          "type": "uint256"
        },
        {
          "internalType": "uint256",
          "name": "_accessIndex",
          "type": "uint256"
        }
      ],
      "name": "resolveEmergency",
      "outputs": [],
      "stateMutability": "nonpayable",
      "type": "function"
    },
    {
      "inputs": [],
      "name": "trustedForwarder",
      "outputs": [
        {
          "internalType": "address",
          "name": "",
          "type": "address"
        }
      ],
      "stateMutability": "view",
      "type": "function"
    },
    {
      "inputs": [
        {
          "internalType": "address",
          "name": "",
          "type": "address"
        }
      ],
      "name": "walletToDoctorId",
      "outputs": [
        {
          "internalType": "uint256",
          "name": "",
          "type": "uint256"
        }
      ],
      "stateMutability": "view",
      "type": "function"
    }
  ],
  "bytecode": "0x60a06040523480156200001157600080fd5b50604051620029f1380380620029f1833981016040819052620000349162000091565b6001600160a01b03808216608052829082908216156200006a57600080546001600160a01b0319166001600160a01b0384161790555b50505050620000c9565b80516001600160a01b03811681146200008c57600080fd5b919050565b60008060408385031215620000a557600080fd5b620000b08362000074565b9150620000c06020840162000074565b90509250929050565b6080516128fe620000f36000396000818161023d015281816102920152611e1e01526128fe6000f3fe608060405234801561001057600080fd5b50600436106101215760003560e01c8063572b6c05116100ad57806391d148541161007157806391d14854146102de57806398cf72b3146102f15780639e97b8f61461031f578063f0d9509014610332578063f6827cd11461034757600080fd5b8063572b6c051461022d5780636efb1b841461026d5780637da0a877146102905780637f93a961146102b65780638b145ec8146102c957600080fd5b806329fe0bda116100f457806329fe0bda146101a15780632ad230a9146101b457806333948de2146101df578063506e08d21461020757806350c7a9121461021a57600080fd5b806302b66aaf1461012657806313007d551461013b578063215dfdea1461016b57806324d7806c1461017e575b600080fd5b610139610134366004611f4b565b61035a565b005b60005461014e906001600160a01b031681565b6040516001600160a01b0390911681526020015b60405180910390f35b610139610179366004611fee565b610591565b61019161018c366004612062565b610994565b6040519015158152602001610162565b6101396101af36600461207d565b610a0e565b6101916101c2366004612062565b6001600160a01b0316600090815260016020526040902054151590565b6101f26101ed36600461207d565b610c27565b604051610162999897969594939291906120ef565b61013961021536600461216f565b610e40565b610139610228366004612188565b611009565b61019161023b366004612062565b7f00000000000000000000000000000000000000000000000000000000000000006001600160a01b0390811691161490565b61028061027b36600461216f565b611171565b60405161016294939291906121d7565b7f000000000000000000000000000000000000000000000000000000000000000061014e565b6101396102c4366004612221565b611332565b6102d1611575565b60405161016291906122b3565b6101916102ec3660046122c6565b61162a565b6103116102ff366004612062565b60016020526000908152604090205481565b604051908152602001610162565b61019161032d3660046122f2565b6116a8565b61033a6116db565b6040516101629190612322565b6101916103553660046123e9565b6119e4565b61036561018c611e17565b806103785750610378600161032d611e17565b6103ba5760405162461bcd60e51b815260206004820152600e60248201526d139bdd08185d5d1a1bdc9a5e995960921b60448201526064015b60405180910390fd5b6000600160006103c8611e17565b6001600160a01b03166001600160a01b031681526020019081526020016000205490508060000361040b5760405162461bcd60e51b81526004016103b190612437565b60008181526003602090815260408083208151610120810183526001600160a01b038b811682528185018b81529382018a9052606082018690526080820186905260a0820189905260c0820188905260e08201869052610100820186905282546001808201855593875294909520815160089095020180546001600160a01b031916949095169390931784559051919291908201906104aa90826124ef565b50604082015160028201906104bf90826124ef565b50606082015160038201805460ff19169115159190911790556080820151600482015560a0820151600582015560c0820151600682019061050090826124ef565b5060e082015160079190910180546101009384015161ffff1990911692151561ff00191692909217911515909202179055610539611e17565b6001600160a01b0316866001600160a01b03167fc4de088654327f2907ad8f0c288704b90c01af218c310b25c1682df9b7c8c7cd8787878760405161058194939291906125af565b60405180910390a3505050505050565b6000546001906001600160a01b0316639e97b8f6826105ae611e17565b6040518363ffffffff1660e01b81526004016105cb9291906125ee565b602060405180830381865afa1580156105e8573d6000803e3d6000fd5b505050506040513d601f19601f8201168201806040525081019061060c9190612628565b6106625760405162461bcd60e51b815260206004820152602160248201527f416363657373436f6e74726f6c3a20726573747269637465642d746f2d726f6c6044820152606560f81b60648201526084016103b1565b60008054906101000a90046001600160a01b03166001600160a01b0316635c975abb6040518163ffffffff1660e01b8152600401602060405180830381865afa1580156106b3573d6000803e3d6000fd5b505050506040513d601f19601f820116820180604052508101906106d79190612628565b156107245760405162461bcd60e51b815260206004820152601b60248201527f4d6564695365637572652050726f746f636f6c3a20706175736564000000000060448201526064016103b1565b600060016000610732611e17565b6001600160a01b03166001600160a01b03168152602001908152602001600020549050806000036107755760405162461bcd60e51b81526004016103b190612437565b600a8351116107b95760405162461bcd60e51b815260206004820152601060248201526f1499585cdbdb881d1bdbc81cda1bdc9d60821b60448201526064016103b1565b60036000828152602001908152602001600020604051806101200160405280876001600160a01b031681526020018681526020016040518060400160405280601081526020016f454d455247454e43595f41434345535360801b8152508152602001600115158152602001428152602001611c20815260200185604051602001610843919061264a565b60408051808303601f19018152918152908252600160208084018290526000939092018390528454808201865594835291819020835160089095020180546001600160a01b0319166001600160a01b03909516949094178455820151919291908201906108b090826124ef565b50604082015160028201906108c590826124ef565b50606082015160038201805460ff19169115159190911790556080820151600482015560a0820151600582015560c0820151600682019061090690826124ef565b5060e082015160079190910180546101009384015161ffff1990911692151561ff001916929092179115159092021790556001600160a01b038516610949611e17565b6001600160a01b03167fc18b0a731326cfd073d9219b559d4a74aaed4d08716d26c4ace853127d096edb8686426040516109859392919061267d565b60405180910390a35050505050565b60008054604051634f4bdc7b60e11b81526001600160a01b0390911690639e97b8f6906109c790849086906004016125ee565b602060405180830381865afa1580156109e4573d6000803e3d6000fd5b505050506040513d601f19601f82011682018060405250810190610a089190612628565b92915050565b600080546001600160a01b031690639e97b8f690610a2a611e17565b6040518363ffffffff1660e01b8152600401610a479291906125ee565b602060405180830381865afa158015610a64573d6000803e3d6000fd5b505050506040513d601f19601f82011682018060405250810190610a889190612628565b610adf5760405162461bcd60e51b815260206004820152602260248201527f416363657373436f6e74726f6c3a20726573747269637465642d746f2d61646d60448201526134b760f11b60648201526084016103b1565b6000828152600360205260409020548110610b335760405162461bcd60e51b8152602060048201526014602482015273092dcecc2d8d2c840c2c6c6cae6e640d2dcc8caf60631b60448201526064016103b1565b6000828152600360205260408120805483908110610b5357610b536126b3565b60009182526020909120600890910201600781015490915060ff16610bba5760405162461bcd60e51b815260206004820152601760248201527f4e6f7420616e20656d657267656e63792061636365737300000000000000000060448201526064016103b1565b60078101805461ff001916610100179055610bd3611e17565b81546040516001600160a01b0392831692909116907fbe73bae5f08d7fe7ebd150bf32bcb303131391314609cc522ae754b46286ecc090610c1a90600186019042906126c9565b60405180910390a3505050565b60036020528160005260406000208181548110610c4357600080fd5b6000918252602090912060089091020180546001820180546001600160a01b039092169450919250610c7490612466565b80601f0160208091040260200160405190810160405280929190818152602001828054610ca090612466565b8015610ced5780601f10610cc257610100808354040283529160200191610ced565b820191906000526020600020905b815481529060010190602001808311610cd057829003601f168201915b505050505090806002018054610d0290612466565b80601f0160208091040260200160405190810160405280929190818152602001828054610d2e90612466565b8015610d7b5780601f10610d5057610100808354040283529160200191610d7b565b820191906000526020600020905b815481529060010190602001808311610d5e57829003601f168201915b505050600384015460048501546005860154600687018054969760ff9094169692955090935090610dab90612466565b80601f0160208091040260200160405190810160405280929190818152602001828054610dd790612466565b8015610e245780601f10610df957610100808354040283529160200191610e24565b820191906000526020600020905b815481529060010190602001808311610e0757829003601f168201915b5050506007909301549192505060ff8082169161010090041689565b610e4b61018c611e17565b80610e5e5750610e5e600161032d611e17565b610e9b5760405162461bcd60e51b815260206004820152600e60248201526d139bdd08185d5d1a1bdc9a5e995960921b60448201526064016103b1565b600060016000610ea9611e17565b6001600160a01b03166001600160a01b0316815260200190815260200160002054905080600003610eec5760405162461bcd60e51b81526004016103b190612437565b6000805b600083815260026020526040902060040154811015610f5a576000838152600260205260409020600401805485919083908110610f2f57610f2f6126b3565b906000526020600020015403610f485760019150610f5a565b80610f5281612773565b915050610ef0565b508015610fa15760405162461bcd60e51b815260206004820152601560248201527414185d1a595b9d08185b1c9958591e481859191959605a1b60448201526064016103b1565b600082815260026020908152604082206004018054600181018255908352912001839055610fcd611e17565b6001600160a01b031683837f62e4da5e5c3a89b6dca6a385b8712c06f51bf0855ae5b6abd14937474a4ce01e60405160405180910390a4505050565b60016000611015611e17565b6001600160a01b031681526020810191909152604001600020541561107c5760405162461bcd60e51b815260206004820152601960248201527f446f63746f7220616c726561647920726567697374657265640000000000000060448201526064016103b1565b6000546001600160a01b0316635d5664e16001611097611e17565b6040518363ffffffff1660e01b81526004016110b49291906125ee565b600060405180830381600087803b1580156110ce57600080fd5b505af11580156110e2573d6000803e3d6000fd5b5050600480549250905060006110f783612773565b91905055506004546001600061110b611e17565b6001600160a01b03168152602080820192909252604090810160009081209390935560045480845260029092529091209081556001810161114c85826124ef565b506002810161115b84826124ef565b506003810161116a83826124ef565b5050505050565b6002602052600090815260409020805460018201805491929161119390612466565b80601f01602080910402602001604051908101604052809291908181526020018280546111bf90612466565b801561120c5780601f106111e15761010080835404028352916020019161120c565b820191906000526020600020905b8154815290600101906020018083116111ef57829003601f168201915b50505050509080600201805461122190612466565b80601f016020809104026020016040519081016040528092919081815260200182805461124d90612466565b801561129a5780601f1061126f5761010080835404028352916020019161129a565b820191906000526020600020905b81548152906001019060200180831161127d57829003601f168201915b5050505050908060030180546112af90612466565b80601f01602080910402602001604051908101604052809291908181526020018280546112db90612466565b80156113285780601f106112fd57610100808354040283529160200191611328565b820191906000526020600020905b81548152906001019060200180831161130b57829003601f168201915b5050505050905084565b6001600160a01b0383166000908152600160205260408120549081900361136b5760405162461bcd60e51b81526004016103b190612437565b6000818152600360205260408120905b815481101561152c5761138c611e17565b6001600160a01b03168282815481106113a7576113a76126b3565b60009182526020909120600890910201546001600160a01b031614801561143b5750846040516020016113da919061278c565b60405160208183030381529060405280519060200120828281548110611402576114026126b3565b906000526020600020906008020160010160405160200161142391906127a8565b60405160208183030381529060405280519060200120145b1561151a576001828281548110611454576114546126b3565b906000526020600020906008020160030160006101000a81548160ff0219169083151502179055504282828154811061148f5761148f6126b3565b906000526020600020906008020160040181905550838282815481106114b7576114b76126b3565b906000526020600020906008020160050181905550856001600160a01b03166114de611e17565b6001600160a01b03167fc298d419e944a3f1e7da1b2245c9f34649b9a6ea67875bcd37e975ef5d7209a38742886040516105819392919061281e565b8061152481612773565b91505061137b565b5060405162461bcd60e51b815260206004820152601860248201527f4163636573732072657175657374206e6f7420666f756e64000000000000000060448201526064016103b1565b6060600060016000611585611e17565b6001600160a01b03166001600160a01b03168152602001908152602001600020549050806000036115c85760405162461bcd60e51b81526004016103b190612437565b6000818152600260209081526040918290206004018054835181840281018401909452808452909183018282801561161f57602002820191906000526020600020905b81548152602001906001019080831161160b575b505050505091505090565b60008054604051632474521560e21b8152600481018590526001600160a01b038481166024830152909116906391d14854906044015b602060405180830381865afa15801561167d573d6000803e3d6000fd5b505050506040513d601f19601f820116820180604052508101906116a19190612628565b9392505050565b60008054604051634f4bdc7b60e11b81526001600160a01b0390911690639e97b8f69061166090869086906004016125ee565b60045460609060008167ffffffffffffffff8111156116fc576116fc611ea8565b60405190808252806020026020018201604052801561175f57816020015b61174c6040518060a0016040528060008152602001606081526020016060815260200160608152602001606081525090565b81526020019060019003908161171a5790505b50905060005b828110156119dd576002600061177c836001612843565b81526020019081526020016000206040518060a0016040529081600082015481526020016001820180546117af90612466565b80601f01602080910402602001604051908101604052809291908181526020018280546117db90612466565b80156118285780601f106117fd57610100808354040283529160200191611828565b820191906000526020600020905b81548152906001019060200180831161180b57829003601f168201915b5050505050815260200160028201805461184190612466565b80601f016020809104026020016040519081016040528092919081815260200182805461186d90612466565b80156118ba5780601f1061188f576101008083540402835291602001916118ba565b820191906000526020600020905b81548152906001019060200180831161189d57829003601f168201915b505050505081526020016003820180546118d390612466565b80601f01602080910402602001604051908101604052809291908181526020018280546118ff90612466565b801561194c5780601f106119215761010080835404028352916020019161194c565b820191906000526020600020905b81548152906001019060200180831161192f57829003601f168201915b50505050508152602001600482018054806020026020016040519081016040528092919081815260200182805480156119a457602002820191906000526020600020905b815481526020019060010190808311611990575b5050505050815250508282815181106119bf576119bf6126b3565b602002602001018190525080806119d590612773565b915050611765565b5092915050565b600080600160006119f3611e17565b6001600160a01b03166001600160a01b0316815260200190815260200160002054905080600003611a365760405162461bcd60e51b81526004016103b190612437565b600081815260036020908152604080832080548251818502810185019093528083529192909190849084015b82821015611cb15760008481526020908190206040805161012081019091526008850290910180546001600160a01b031682526001810180549293919291840191611aac90612466565b80601f0160208091040260200160405190810160405280929190818152602001828054611ad890612466565b8015611b255780601f10611afa57610100808354040283529160200191611b25565b820191906000526020600020905b815481529060010190602001808311611b0857829003601f168201915b50505050508152602001600282018054611b3e90612466565b80601f0160208091040260200160405190810160405280929190818152602001828054611b6a90612466565b8015611bb75780601f10611b8c57610100808354040283529160200191611bb7565b820191906000526020600020905b815481529060010190602001808311611b9a57829003601f168201915b5050509183525050600382015460ff16151560208201526004820154604082015260058201546060820152600682018054608090920191611bf790612466565b80601f0160208091040260200160405190810160405280929190818152602001828054611c2390612466565b8015611c705780601f10611c4557610100808354040283529160200191611c70565b820191906000526020600020905b815481529060010190602001808311611c5357829003601f168201915b50505091835250506007919091015460ff80821615156020808501919091526101009092041615156040909201919091529082526001929092019101611a62565b50505050905060005b8151811015611e0b57856001600160a01b0316828281518110611cdf57611cdf6126b3565b6020026020010151600001516001600160a01b0316148015611d69575084604051602001611d0d919061278c565b60405160208183030381529060405280519060200120828281518110611d3557611d356126b3565b602002602001015160200151604051602001611d51919061278c565b60405160208183030381529060405280519060200120145b8015611d8f5750818181518110611d8257611d826126b3565b6020026020010151606001515b15611df957818181518110611da657611da66126b3565b602002602001015160a00151828281518110611dc457611dc46126b3565b602002602001015160800151611dda9190612843565b421115611ded5760009350505050610a08565b60019350505050610a08565b80611e0381612773565b915050611cba565b50600095945050505050565b60003660147f00000000000000000000000000000000000000000000000000000000000000006001600160a01b031633148015611e545750808210155b15611e8457600036611e668385612856565b611e71928290612869565b611e7a91612893565b60601c9250505090565b339250505090565b80356001600160a01b0381168114611ea357600080fd5b919050565b634e487b7160e01b600052604160045260246000fd5b600082601f830112611ecf57600080fd5b813567ffffffffffffffff80821115611eea57611eea611ea8565b604051601f8301601f19908116603f01168101908282118183101715611f1257611f12611ea8565b81604052838152866020858801011115611f2b57600080fd5b836020870160208301376000602085830101528094505050505092915050565b600080600080600060a08688031215611f6357600080fd5b611f6c86611e8c565b9450602086013567ffffffffffffffff80821115611f8957600080fd5b611f9589838a01611ebe565b95506040880135915080821115611fab57600080fd5b611fb789838a01611ebe565b9450606088013593506080880135915080821115611fd457600080fd5b50611fe188828901611ebe565b9150509295509295909350565b60008060006060848603121561200357600080fd5b61200c84611e8c565b9250602084013567ffffffffffffffff8082111561202957600080fd5b61203587838801611ebe565b9350604086013591508082111561204b57600080fd5b5061205886828701611ebe565b9150509250925092565b60006020828403121561207457600080fd5b6116a182611e8c565b6000806040838503121561209057600080fd5b50508035926020909101359150565b60005b838110156120ba5781810151838201526020016120a2565b50506000910152565b600081518084526120db81602086016020860161209f565b601f01601f19169290920160200192915050565b6001600160a01b038a168152610120602082018190526000906121148382018c6120c3565b90508281036040840152612128818b6120c3565b905088151560608401528760808401528660a084015282810360c084015261215081876120c3565b94151560e0840152505090151561010090910152979650505050505050565b60006020828403121561218157600080fd5b5035919050565b60008060006060848603121561219d57600080fd5b833567ffffffffffffffff808211156121b557600080fd5b6121c187838801611ebe565b9450602086013591508082111561202957600080fd5b8481526080602082015260006121f060808301866120c3565b828103604084015261220281866120c3565b9050828103606084015261221681856120c3565b979650505050505050565b60008060006060848603121561223657600080fd5b61223f84611e8c565b9250602084013567ffffffffffffffff81111561225b57600080fd5b61226786828701611ebe565b925050604084013590509250925092565b600081518084526020808501945080840160005b838110156122a85781518752958201959082019060010161228c565b509495945050505050565b6020815260006116a16020830184612278565b600080604083850312156122d957600080fd5b823591506122e960208401611e8c565b90509250929050565b6000806040838503121561230557600080fd5b82356009811061231457600080fd5b91506122e960208401611e8c565b60006020808301818452808551808352604092508286019150828160051b87010184880160005b838110156123db57603f19898403018552815160a08151855288820151818a870152612377828701826120c3565b915050878201518582038987015261238f82826120c3565b915050606080830151868303828801526123a983826120c3565b92505050608080830151925085820381870152506123c78183612278565b968901969450505090860190600101612349565b509098975050505050505050565b600080604083850312156123fc57600080fd5b61240583611e8c565b9150602083013567ffffffffffffffff81111561242157600080fd5b61242d85828601611ebe565b9150509250929050565b602080825260159082015274111bd8dd1bdc881b9bdd081c9959da5cdd195c9959605a1b604082015260600190565b600181811c9082168061247a57607f821691505b60208210810361249a57634e487b7160e01b600052602260045260246000fd5b50919050565b601f8211156124ea57600081815260208120601f850160051c810160208610156124c75750805b601f850160051c820191505b818110156124e6578281556001016124d3565b5050505b505050565b815167ffffffffffffffff81111561250957612509611ea8565b61251d816125178454612466565b846124a0565b602080601f831160018114612552576000841561253a5750858301515b600019600386901b1c1916600185901b1785556124e6565b600085815260208120601f198616915b8281101561258157888601518255948401946001909101908401612562565b508582101561259f5787850151600019600388901b60f8161c191681555b5050505050600190811b01905550565b6080815260006125c260808301876120c3565b82810360208401526125d481876120c3565b9050846040840152828103606084015261221681856120c3565b604081016009841061261057634e487b7160e01b600052602160045260246000fd5b9281526001600160a01b039190911660209091015290565b60006020828403121561263a57600080fd5b815180151581146116a157600080fd5b6a022a6a2a923a2a721ac9d160ad1b81526000825161267081600b85016020870161209f565b91909101600b0192915050565b60608152600061269060608301866120c3565b82810360208401526126a281866120c3565b915050826040830152949350505050565b634e487b7160e01b600052603260045260246000fd5b6040815260008084546126db81612466565b80604086015260606001808416600081146126fd576001811461271757612748565b60ff1985168884015283151560051b880183019550612748565b8960005260208060002060005b8681101561273f5781548b8201870152908401908201612724565b8a018501975050505b50505050506020929092019290925292915050565b634e487b7160e01b600052601160045260246000fd5b6000600182016127855761278561275d565b5060010190565b6000825161279e81846020870161209f565b9190910192915050565b60008083546127b681612466565b600182811680156127ce57600181146127e357612812565b60ff1984168752821515830287019450612812565b8760005260208060002060005b858110156128095781548a8201529084019082016127f0565b50505082870194505b50929695505050505050565b60608152600061283160608301866120c3565b60208301949094525060400152919050565b80820180821115610a0857610a0861275d565b81810381811115610a0857610a0861275d565b6000808585111561287957600080fd5b8386111561288657600080fd5b5050820193919092039150565b6bffffffffffffffffffffffff1981358181169160148510156128c05780818660140360031b1b83161692505b50509291505056fea2646970667358221220a74c8866e93e4e96635744c0bcc495569d99d4cb0373a0f5a5bba2a08a30a1c864736f6c63430008140033",
  "linkReferences": {},
  "deployedLinkReferences": {}
}