{
  "_format": "hh-sol-artifact-1",
  "contractName": "DoctorReputation",
  "sourceName": "contracts/DoctorReputation.sol",
  "abi": [
    {
      "inputs": [],
      "name": "AccessControlBadConfirmation",
      "type": "error"
    },
    {
      "inputs": [
        {
          "internalType": "address",
          "name": "account",
          "type": "address"
        },
        {
          "internalType": "bytes32",
          "name": "neededRole",
          "type": "bytes32"
        }
      ],
      "name": "AccessControlUnauthorizedAccount",
      "type": "error"
    },
    {
      "inputs": [],
      "name": "EnforcedPause",
      "type": "error"
    },
    {
      "inputs": [],
      "name": "ExpectedPause",
      "type": "error"
    },
    {
      "inputs": [],
      "name": "ReentrancyGuardReentrantCall",
      "type": "error"
    },
    {
      "anonymous": false,
      "inputs": [
        {
          "indexed": true,
          "internalType": "address",
          "name": "doctor",
          "type": "address"
        }
      ],
      "name": "DoctorStatsUpdated",
      "type": "event"
    },
    {
      "anonymous": false,
      "inputs": [
        {
          "indexed": false,
          "internalType": "address",
          "name": "account",
          "type": "address"
        }
      ],
      "name": "Paused",
      "type": "event"
    },
    {
      "anonymous": false,
      "inputs": [
        {
          "indexed": true,
          "internalType": "address",
          "name": "doctor",
          "type": "address"
        },
        {
          "indexed": false,
          "internalType": "uint256",
          "name": "newScore",
          "type": "uint256"
        }
      ],
      "name": "ReputationRecalculated",
      "type": "event"
    },
    {
      "anonymous": false,
      "inputs": [
        {
          "indexed": true,
          "internalType": "uint256",
          "name": "reviewId",
          "type": "uint256"
        }
      ],
      "name": "ReviewDeleted",
      "type": "event"
    },
    {
      "anonymous": false,
      "inputs": [
        {
          "indexed": true,
          "internalType": "uint256",
          "name": "reviewId",
          "type": "uint256"
        },
        {
          "indexed": true,
          "internalType": "address",
          "name": "patient",
          "type": "address"
        },
        {
          "indexed": true,
          "internalType": "address",
          "name": "doctor",
          "type": "address"
        },
        {
          "indexed": false,
          "internalType": "uint8",
          "name": "rating",
          "type": "uint8"
        },
        {
          "indexed": false,
          "internalType": "bool",
          "name": "verifiedVisit",
          "type": "bool"
        }
      ],
      "name": "ReviewSubmitted",
      "type": "event"
    },
    {
      "anonymous": false,
      "inputs": [
        {
          "indexed": true,
          "internalType": "bytes32",
          "name": "role",
          "type": "bytes32"
        },
        {
          "indexed": true,
          "internalType": "bytes32",
          "name": "previousAdminRole",
          "type": "bytes32"
        },
        {
          "indexed": true,
          "internalType": "bytes32",
          "name": "newAdminRole",
          "type": "bytes32"
        }
      ],
      "name": "RoleAdminChanged",
      "type": "event"
    },
    {
      "anonymous": false,
      "inputs": [
        {
          "indexed": true,
          "internalType": "bytes32",
          "name": "role",
          "type": "bytes32"
        },
        {
          "indexed": true,
          "internalType": "address",
          "name": "account",
          "type": "address"
        },
        {
          "indexed": true,
          "internalType": "address",
          "name": "sender",
          "type": "address"
        }
      ],
      "name": "RoleGranted",
      "type": "event"
    },
    {
      "anonymous": false,
      "inputs": [
        {
          "indexed": true,
          "internalType": "bytes32",
          "name": "role",
          "type": "bytes32"
        },
        {
          "indexed": true,
          "internalType": "address",
          "name": "account",
          "type": "address"
        },
        {
          "indexed": true,
          "internalType": "address",
          "name": "sender",
          "type": "address"
        }
      ],
      "name": "RoleRevoked",
      "type": "event"
    },
    {
      "anonymous": false,
      "inputs": [
        {
          "indexed": false,
          "internalType": "address",
          "name": "account",
          "type": "address"
        }
      ],
      "name": "Unpaused",
      "type": "event"
    },
    {
      "inputs": [],
      "name": "ADMIN_ROLE",
      "outputs": [
        {
          "internalType": "bytes32",
          "name": "",
          "type": "bytes32"
        }
      ],
      "stateMutability": "view",
      "type": "function"
    },
    {
      "inputs": [],
      "name": "DEFAULT_ADMIN_ROLE",
      "outputs": [
        {
          "internalType": "bytes32",
          "name": "",
          "type": "bytes32"
        }
      ],
      "stateMutability": "view",
      "type": "function"
    },
    {
      "inputs": [],
      "name": "DOCTOR_ROLE",
      "outputs": [
        {
          "internalType": "bytes32",
          "name": "",
          "type": "bytes32"
        }
      ],
      "stateMutability": "view",
      "type": "function"
    },
    {
      "inputs": [],
      "name": "MAX_RATING",
      "outputs": [
        {
          "internalType": "uint256",
          "name": "",
          "type": "uint256"
        }
      ],
      "stateMutability": "view",
      "type": "function"
    },
    {
      "inputs": [],
      "name": "MIN_REVIEW_INTERVAL",
      "outputs": [
        {
          "internalType": "uint256",
          "name": "",
          "type": "uint256"
        }
      ],
      "stateMutability": "view",
      "type": "function"
    },
    {
      "inputs": [],
      "name": "PATIENT_ROLE",
      "outputs": [
        {
          "internalType": "bytes32",
          "name": "",
          "type": "bytes32"
        }
      ],
      "stateMutability": "view",
      "type": "function"
    },
    {
      "inputs": [],
      "name": "REPUTATION_WEIGHT_UNVERIFIED",
      "outputs": [
        {
          "internalType": "uint256",
          "name": "",
          "type": "uint256"
        }
      ],
      "stateMutability": "view",
      "type": "function"
    },
    {
      "inputs": [],
      "name": "REPUTATION_WEIGHT_VERIFIED",
      "outputs": [
        {
          "internalType": "uint256",
          "name": "",
          "type": "uint256"
        }
      ],
      "stateMutability": "view",
      "type": "function"
    },
    {
      "inputs": [
        {
          "internalType": "address",
          "name": "_doctor",
          "type": "address"
        }
      ],
      "name": "canReviewDoctor",
      "outputs": [
        {
          "internalType": "bool",
          "name": "",
          "type": "bool"
        }
      ],
      "stateMutability": "view",
      "type": "function"
    },
    {
      "inputs": [
        {
          "internalType": "uint256",
          "name": "_reviewId",
          "type": "uint256"
        }
      ],
      "name": "deleteReview",
      "outputs": [],
      "stateMutability": "nonpayable",
      "type": "function"
    },
    {
      "inputs": [
        {
          "internalType": "address",
          "name": "",
          "type": "address"
        },
        {
          "internalType": "uint256",
          "name": "",
          "type": "uint256"
        }
      ],
      "name": "doctorReviewIds",
      "outputs": [
        {
          "internalType": "uint256",
          "name": "",
          "type": "uint256"
        }
      ],
      "stateMutability": "view",
      "type": "function"
    },
    {
      "inputs": [
        {
          "internalType": "address",
          "name": "",
          "type": "address"
        }
      ],
      "name": "doctorStats",
      "outputs": [
        {
          "internalType": "uint256",
          "name": "totalReviews",
          "type": "uint256"
        },
        {
          "internalType": "uint256",
          "name": "sumRatings",
          "type": "uint256"
        },
        {
          "internalType": "uint256",
          "name": "verifiedVisits",
          "type": "uint256"
        },
        {
          "internalType": "uint256",
          "name": "totalAppointments",
          "type": "uint256"
        },
        {
          "internalType": "uint8",
          "name": "currentRating",
          "type": "uint8"
        },
        {
          "internalType": "uint256",
          "name": "reputationScore",
          "type": "uint256"
        },
        {
          "internalType": "bool",
          "name": "exists",
          "type": "bool"
        }
      ],
      "stateMutability": "view",
      "type": "function"
    },
    {
      "inputs": [
        {
          "internalType": "address",
          "name": "_doctor",
          "type": "address"
        }
      ],
      "name": "getDoctorRatingBreakdown",
      "outputs": [
        {
          "components": [
            {
              "internalType": "uint256",
              "name": "count5Star",
              "type": "uint256"
            },
            {
              "internalType": "uint256",
              "name": "count4Star",
              "type": "uint256"
            },
            {
              "internalType": "uint256",
              "name": "count3Star",
              "type": "uint256"
            },
            {
              "internalType": "uint256",
              "name": "count2Star",
              "type": "uint256"
            },
            {
              "internalType": "uint256",
              "name": "count1Star",
              "type": "uint256"
            }
          ],
          "internalType": "struct DoctorReputation.RatingBreakdown",
          "name": "",
          "type": "tuple"
        }
      ],
      "stateMutability": "view",
      "type": "function"
    },
    {
      "inputs": [
        {
          "internalType": "address",
          "name": "_doctor",
          "type": "address"
        },
        {
          "internalType": "uint256",
          "name": "_offset",
          "type": "uint256"
        },
        {
          "internalType": "uint256",
          "name": "_limit",
          "type": "uint256"
        }
      ],
      "name": "getDoctorReviews",
      "outputs": [
        {
          "components": [
            {
              "internalType": "uint256",
              "name": "id",
              "type": "uint256"
            },
            {
              "internalType": "address",
              "name": "patient",
              "type": "address"
            },
            {
              "internalType": "address",
              "name": "doctor",
              "type": "address"
            },
            {
              "internalType": "uint8",
              "name": "rating",
              "type": "uint8"
            },
            {
              "internalType": "string",
              "name": "comment",
              "type": "string"
            },
            {
              "internalType": "uint256",
              "name": "appointmentId",
              "type": "uint256"
            },
            {
              "internalType": "uint256",
              "name": "timestamp",
              "type": "uint256"
            },
            {
              "internalType": "bool",
              "name": "isVerifiedVisit",
              "type": "bool"
            },
            {
              "internalType": "bool",
              "name": "isDeleted",
              "type": "bool"
            }
          ],
          "internalType": "struct DoctorReputation.Review[]",
          "name": "",
          "type": "tuple[]"
        }
      ],
      "stateMutability": "view",
      "type": "function"
    },
    {
      "inputs": [
        {
          "internalType": "address",
          "name": "_doctor",
          "type": "address"
        }
      ],
      "name": "getDoctorStats",
      "outputs": [
        {
          "components": [
            {
              "internalType": "uint256",
              "name": "totalReviews",
              "type": "uint256"
            },
            {
              "internalType": "uint256",
              "name": "sumRatings",
              "type": "uint256"
            },
            {
              "internalType": "uint256",
              "name": "verifiedVisits",
              "type": "uint256"
            },
            {
              "internalType": "uint256",
              "name": "totalAppointments",
              "type": "uint256"
            },
            {
              "internalType": "uint8",
              "name": "currentRating",
              "type": "uint8"
            },
            {
              "internalType": "uint256",
              "name": "reputationScore",
              "type": "uint256"
            },
            {
              "internalType": "bool",
              "name": "exists",
              "type": "bool"
            }
          ],
          "internalType": "struct DoctorReputation.DoctorStats",
          "name": "",
          "type": "tuple"
        }
      ],
      "stateMutability": "view",
      "type": "function"
    },
    {
      "inputs": [
        {
          "internalType": "bytes32",
          "name": "role",
          "type": "bytes32"
        }
      ],
      "name": "getRoleAdmin",
      "outputs": [
        {
          "internalType": "bytes32",
          "name": "",
          "type": "bytes32"
        }
      ],
      "stateMutability": "view",
      "type": "function"
    },
    {
      "inputs": [
        {
          "internalType": "uint256",
          "name": "_limit",
          "type": "uint256"
        }
      ],
      "name": "getTopDoctors",
      "outputs": [
        {
          "internalType": "address[]",
          "name": "",
          "type": "address[]"
        }
      ],
      "stateMutability": "view",
      "type": "function"
    },
    {
      "inputs": [
        {
          "internalType": "bytes32",
          "name": "role",
          "type": "bytes32"
        },
        {
          "internalType": "address",
          "name": "account",
          "type": "address"
        }
      ],
      "name": "grantRole",
      "outputs": [],
      "stateMutability": "nonpayable",
      "type": "function"
    },
    {
      "inputs": [
        {
          "internalType": "address",
          "name": "",
          "type": "address"
        },
        {
          "internalType": "address",
          "name": "",
          "type": "address"
        }
      ],
      "name": "hasReviewed",
      "outputs": [
        {
          "internalType": "bool",
          "name": "",
          "type": "bool"
        }
      ],
      "stateMutability": "view",
      "type": "function"
    },
    {
      "inputs": [
        {
          "internalType": "bytes32",
          "name": "role",
          "type": "bytes32"
        },
        {
          "internalType": "address",
          "name": "account",
          "type": "address"
        }
      ],
      "name": "hasRole",
      "outputs": [
        {
          "internalType": "bool",
          "name": "",
          "type": "bool"
        }
      ],
      "stateMutability": "view",
      "type": "function"
    },
    {
      "inputs": [
        {
          "internalType": "address",
          "name": "",
          "type": "address"
        },
        {
          "internalType": "address",
          "name": "",
          "type": "address"
        }
      ],
      "name": "lastReviewTime",
      "outputs": [
        {
          "internalType": "uint256",
          "name": "",
          "type": "uint256"
        }
      ],
      "stateMutability": "view",
      "type": "function"
    },
    {
      "inputs": [],
      "name": "pauseContract",
      "outputs": [],
      "stateMutability": "nonpayable",
      "type": "function"
    },
    {
      "inputs": [],
      "name": "paused",
      "outputs": [
        {
          "internalType": "bool",
          "name": "",
          "type": "bool"
        }
      ],
      "stateMutability": "view",
      "type": "function"
    },
    {
      "inputs": [
        {
          "internalType": "address",
          "name": "_doctor",
          "type": "address"
        }
      ],
      "name": "registerDoctor",
      "outputs": [],
      "stateMutability": "nonpayable",
      "type": "function"
    },
    {
      "inputs": [
        {
          "internalType": "bytes32",
          "name": "role",
          "type": "bytes32"
        },
        {
          "internalType": "address",
          "name": "callerConfirmation",
          "type": "address"
        }
      ],
      "name": "renounceRole",
      "outputs": [],
      "stateMutability": "nonpayable",
      "type": "function"
    },
    {
      "inputs": [
        {
          "internalType": "uint256",
          "name": "",
          "type": "uint256"
        }
      ],
      "name": "reviews",
      "outputs": [
        {
          "internalType": "uint256",
          "name": "id",
          "type": "uint256"
        },
        {
          "internalType": "address",
          "name": "patient",
          "type": "address"
        },
        {
          "internalType": "address",
          "name": "doctor",
          "type": "address"
        },
        {
          "internalType": "uint8",
          "name": "rating",
          "type": "uint8"
        },
        {
          "internalType": "string",
          "name": "comment",
          "type": "string"
        },
        {
          "internalType": "uint256",
          "name": "appointmentId",
          "type": "uint256"
        },
        {
          "internalType": "uint256",
          "name": "timestamp",
          "type": "uint256"
        },
        {
          "internalType": "bool",
          "name": "isVerifiedVisit",
          "type": "bool"
        },
        {
          "internalType": "bool",
          "name": "isDeleted",
          "type": "bool"
        }
      ],
      "stateMutability": "view",
      "type": "function"
    },
    {
      "inputs": [
        {
          "internalType": "bytes32",
          "name": "role",
          "type": "bytes32"
        },
        {
          "internalType": "address",
          "name": "account",
          "type": "address"
        }
      ],
      "name": "revokeRole",
      "outputs": [],
      "stateMutability": "nonpayable",
      "type": "function"
    },
    {
      "inputs": [
        {
          "internalType": "address",
          "name": "_doctor",
          "type": "address"
        },
        {
          "internalType": "uint8",
          "name": "_rating",
          "type": "uint8"
        },
        {
          "internalType": "string",
          "name": "_comment",
          "type": "string"
        },
        {
          "internalType": "uint256",
          "name": "_appointmentId",
          "type": "uint256"
        },
        {
          "internalType": "bool",
          "name": "_verifiedVisit",
          "type": "bool"
        }
      ],
      "name": "submitReview",
      "outputs": [],
      "stateMutability": "nonpayable",
      "type": "function"
    },
    {
      "inputs": [
        {
          "internalType": "bytes4",
          "name": "interfaceId",
          "type": "bytes4"
        }
      ],
      "name": "supportsInterface",
      "outputs": [
        {
          "internalType": "bool",
          "name": "",
          "type": "bool"
        }
      ],
      "stateMutability": "view",
      "type": "function"
    },
    {
      "inputs": [],
      "name": "unpauseContract",
      "outputs": [],
      "stateMutability": "nonpayable",
      "type": "function"
    }
  ],
  "bytecode": "0x608060405234801561001057600080fd5b5060016000819055805460ff1916905561225c8061002f6000396000f3fe608060405234801561001057600080fd5b50600436106101da5760003560e01c806391d1485411610104578063d00493d6116100a2578063e0a3ab3b11610071578063e0a3ab3b146104b8578063e83ddcea146104c1578063ed7d3f80146104e9578063fec331f21461057657600080fd5b8063d00493d6146103f6578063d45e88aa14610424578063d547741f14610492578063d71e4890146104a557600080fd5b8063a217fddf116100de578063a217fddf146103ac578063ac5cb97d146103b4578063b33712c5146103db578063c58f2dea146103e357600080fd5b806391d148541461037157806394e113ea14610384578063a04c1f9a1461038c57600080fd5b80633ba1d9ee1161017c5780635c975abb1161014b5780635c975abb1461032b57806361917ee914610336578063699ca9981461034957806375b238fc1461035c57600080fd5b80633ba1d9ee146102c55780633db6ce40146102d8578063439766ce146102f85780635a2c1e1a1461030057600080fd5b806328c9a313116101b857806328c9a3131461028d5780632f2ff15d146102955780633196f2db146102aa57806336568abe146102b257600080fd5b806301ffc9a7146101df5780631629d90814610207578063248a9ca31461025c575b600080fd5b6101f26101ed366004611c11565b61059d565b60405190151581526020015b60405180910390f35b61021a610215366004611c57565b6105d4565b6040516101fe9190600060a082019050825182526020830151602083015260408301516040830152606083015160608301526080830151608083015292915050565b61027f61026a366004611c72565b60009081526002602052604090206001015490565b6040519081526020016101fe565b61027f606481565b6102a86102a3366004611c8b565b610783565b005b61027f609681565b6102a86102c0366004611c8b565b6107ae565b6102a86102d3366004611cc7565b6107e6565b6102eb6102e6366004611d7c565b610cd8565b6040516101fe9190611df5565b6102a8610f48565b61027f61030e366004611ed7565b600760209081526000928352604080842090915290825290205481565b60015460ff166101f2565b6101f2610344366004611c57565b610f6b565b6102a8610357366004611c57565b61100d565b61027f60008051602061220783398151915281565b6101f261037f366004611c8b565b611060565b61027f600581565b61039f61039a366004611c72565b61108b565b6040516101fe9190611f01565b61027f600081565b61027f7f72606200fac42b7dc86b75901d61ecfab2a4a1a6eded478b97a428094891abed81565b6102a86113b9565b61027f6103f1366004611f4e565b6113d9565b6101f2610404366004611ed7565b600560209081526000928352604080842090915290825290205460ff1681565b610437610432366004611c57565b61140a565b6040516101fe9190600060e0820190508251825260208301516020830152604083015160408301526060830151606083015260ff608084015116608083015260a083015160a083015260c0830151151560c083015292915050565b6102a86104a0366004611c8b565b6114c4565b6102a86104b3366004611c72565b6114e9565b61027f610e1081565b6104d46104cf366004611c72565b611668565b6040516101fe99989796959493929190611f78565b61053c6104f7366004611c57565b60036020819052600091825260409091208054600182015460028301549383015460048401546005850154600690950154939592949293919260ff9182169290911687565b60408051978852602088019690965294860193909352606085019190915260ff16608084015260a0830152151560c082015260e0016101fe565b61027f7f0af1dac7dea2fd7f7738119cec7df099dfad49aa9d2e7d17ba6b60f63ae7411f81565b60006001600160e01b03198216637965db0b60e01b14806105ce57506301ffc9a760e01b6001600160e01b03198316145b92915050565b6106066040518060a0016040528060008152602001600081526020016000815260200160008152602001600081525090565b6001600160a01b0382166000908152600460209081526040808320815160a0810183528481529283018490529082018390526060820183905260808201839052915b825481101561077b5760006006600085848154811061066957610669611fe0565b9060005260206000200154815260200190815260200160002090508060060160019054906101000a900460ff16156106a15750610769565b6002810154600160a01b900460ff166005036106cb578251836106c38261200c565b905250610767565b6002810154600160a01b900460ff166004036106f157602083018051906106c38261200c565b6002810154600160a01b900460ff1660030361071757604083018051906106c38261200c565b600281810154600160a01b900460ff16900361073d57606083018051906106c38261200c565b6002810154600160a01b900460ff1660010361076757608083018051906107638261200c565b9052505b505b806107738161200c565b915050610648565b509392505050565b60008281526002602052604090206001015461079e81611755565b6107a8838361175f565b50505050565b6001600160a01b03811633146107d75760405163334bd91960e11b815260040160405180910390fd5b6107e182826117f3565b505050565b6108107f72606200fac42b7dc86b75901d61ecfab2a4a1a6eded478b97a428094891abed33611060565b61085c5760405162461bcd60e51b81526020600482015260186024820152774f6e6c792070617469656e74732063616e2072657669657760401b60448201526064015b60405180910390fd5b85336001600160a01b038216036108ae5760405162461bcd60e51b815260206004820152601660248201527521b0b73737ba103932bb34b2bb903cb7bab939b2b63360511b6044820152606401610853565b3360009081526005602090815260408083206001600160a01b038516845290915290205460ff16156109225760405162461bcd60e51b815260206004820152601c60248201527f416c7265616479207265766965776564207468697320646f63746f72000000006044820152606401610853565b3360009081526007602090815260408083206001600160a01b0385168452909152902054801561099957610e106109598242612025565b10156109995760405162461bcd60e51b815260206004820152600f60248201526e2932bb34b2bb903a37b79039b7b7b760891b6044820152606401610853565b6109a1611860565b6109a961188a565b6001600160a01b0388166109f85760405162461bcd60e51b8152602060048201526016602482015275496e76616c696420646f63746f72206164647265737360501b6044820152606401610853565b60018760ff1610158015610a10575060058760ff1611155b610a4d5760405162461bcd60e51b815260206004820152600e60248201526d496e76616c696420726174696e6760901b6044820152606401610853565b6001600160a01b03881660009081526003602052604090206006015460ff16610ab05760405162461bcd60e51b8152602060048201526015602482015274111bd8dd1bdc881b9bdd081c9959da5cdd195c9959605a1b6044820152606401610853565b6000600860008154610ac19061200c565b918290555060008181526006602052604090208181556001810180546001600160a01b0319163317905560028101805460ff8c16600160a01b026001600160a81b03199091166001600160a01b038e161717905590915060038101610b27888a836120d6565b50858160040181905550428160050181905550848160060160006101000a81548160ff02191690831515021790555060008160060160016101000a81548160ff021916908315150217905550600160056000336001600160a01b03166001600160a01b0316815260200190815260200160002060008c6001600160a01b03166001600160a01b0316815260200190815260200160002060006101000a81548160ff0219169083151502179055504260076000336001600160a01b03166001600160a01b0316815260200190815260200160002060008c6001600160a01b03166001600160a01b0316815260200190815260200160002081905550600460008b6001600160a01b03166001600160a01b03168152602001908152602001600020829080600181540180825580915050600190039060005260206000200160009091909190915055610c768a6118b0565b6040805160ff8b16815286151560208201526001600160a01b038c1691339185917fe8373191d2cae55753fb17a18a47d897c3704bded0da08b8957958e730e4c625910160405180910390a45050610cce6001600055565b5050505050505050565b6001600160a01b0383166000908152600460205260409020805460609190808510610d38576040805160008082526020820190925290610d2e565b610d1b611bc6565b815260200190600190039081610d135790505b5092505050610f41565b600081610d458688612197565b11610d505784610d5a565b610d5a8683612025565b905060008167ffffffffffffffff811115610d7757610d77612038565b604051908082528060200260200182016040528015610db057816020015b610d9d611bc6565b815260200190600190039081610d955790505b50905060005b82811015610f3a57600085610dcb838b612197565b81548110610ddb57610ddb611fe0565b600091825260208083209190910154808352600682526040928390208351610120810185528154815260018201546001600160a01b0390811694820194909452600282015493841694810194909452600160a01b90920460ff1660608401526003820180549194506080840191610e519061204e565b80601f0160208091040260200160405190810160405280929190818152602001828054610e7d9061204e565b8015610eca5780601f10610e9f57610100808354040283529160200191610eca565b820191906000526020600020905b815481529060010190602001808311610ead57829003601f168201915b5050509183525050600482015460208201526005820154604082015260069091015460ff808216151560608401526101009091041615156080909101528351849084908110610f1b57610f1b611fe0565b6020026020010181905250508080610f329061200c565b915050610db6565b5093505050505b9392505050565b600080516020612207833981519152610f6081611755565b610f68611a26565b50565b6000336001600160a01b03831603610f8557506000919050565b3360009081526005602090815260408083206001600160a01b038616845290915290205460ff1615610fb957506000919050565b3360009081526007602090815260408083206001600160a01b03861684529091529020548015801590610ff65750610e10610ff48242612025565b105b156110045750600092915050565b50600192915050565b60008051602061220783398151915261102581611755565b506001600160a01b0316600090815260036020526040812060068101805460ff19908116600117909155600482018054909116905560050155565b60009182526002602090815260408084206001600160a01b0393909316845291905290205460ff1690565b606060006032831161109d57826110a0565b60325b905060008167ffffffffffffffff8111156110bd576110bd612038565b6040519080825280602002602001820160405280156110e6578160200160208202803683370190505b5090506000805b8381101561116a576001600160a01b03811660009081526003602052604090206006015460ff1615611158578083836111258161200c565b94508151811061113757611137611fe0565b60200260200101906001600160a01b031690816001600160a01b0316815250505b806111628161200c565b9150506110ed565b5060005b611179600183612025565b8110156113065760005b600161118f8385612025565b6111999190612025565b8110156112f35760036000856111b0846001612197565b815181106111c0576111c0611fe0565b60200260200101516001600160a01b03166001600160a01b03168152602001908152602001600020600501546003600086848151811061120257611202611fe0565b60200260200101516001600160a01b03166001600160a01b031681526020019081526020016000206005015410156112e157600084828151811061124857611248611fe0565b60200260200101519050848260016112609190612197565b8151811061127057611270611fe0565b602002602001015185838151811061128a5761128a611fe0565b6001600160a01b039092166020928302919091019091015280856112af846001612197565b815181106112bf576112bf611fe0565b60200260200101906001600160a01b031690816001600160a01b031681525050505b806112eb8161200c565b915050611183565b50806112fe8161200c565b91505061116e565b5060008167ffffffffffffffff81111561132257611322612038565b60405190808252806020026020018201604052801561134b578160200160208202803683370190505b50905060005b828110156113af5783818151811061136b5761136b611fe0565b602002602001015182828151811061138557611385611fe0565b6001600160a01b0390921660209283029190910190910152806113a78161200c565b915050611351565b5095945050505050565b6000805160206122078339815191526113d181611755565b610f68611a7a565b600460205281600052604060002081815481106113f557600080fd5b90600052602060002001600091509150505481565b61144f6040518060e0016040528060008152602001600081526020016000815260200160008152602001600060ff168152602001600081526020016000151581525090565b506001600160a01b0316600090815260036020818152604092839020835160e08101855281548152600182015492810192909252600281015493820193909352908201546060820152600482015460ff9081166080830152600583015460a0830152600690920154909116151560c082015290565b6000828152600260205260409020600101546114df81611755565b6107a883836117f3565b6115137f72606200fac42b7dc86b75901d61ecfab2a4a1a6eded478b97a428094891abed33611060565b61155a5760405162461bcd60e51b81526020600482015260186024820152774f6e6c792070617469656e74732063616e2072657669657760401b6044820152606401610853565b611562611860565b600081815260066020526040902060018101546001600160a01b031633146115be5760405162461bcd60e51b815260206004820152600f60248201526e4e6f7420796f75722072657669657760881b6044820152606401610853565b6006810154610100900460ff161561160a5760405162461bcd60e51b815260206004820152600f60248201526e105b1c9958591e4819195b195d1959608a1b6044820152606401610853565b60068101805461ff0019166101001790556002810154611632906001600160a01b03166118b0565b60405182907fe5b8d5ce0f468eff18b88328bfdf877d45b5aa6359e0df3ac054656b7acf9b1590600090a250610f686001600055565b600660205260009081526040902080546001820154600283015460038401805493946001600160a01b039384169493831693600160a01b90930460ff16929091906116b29061204e565b80601f01602080910402602001604051908101604052809291908181526020018280546116de9061204e565b801561172b5780601f106117005761010080835404028352916020019161172b565b820191906000526020600020905b81548152906001019060200180831161170e57829003601f168201915b50505050600483015460058401546006909401549293909290915060ff8082169161010090041689565b610f688133611ab3565b600061176b8383611060565b6117eb5760008381526002602090815260408083206001600160a01b03861684529091529020805460ff191660011790556117a33390565b6001600160a01b0316826001600160a01b0316847f2f8788117e7eff1d82e926ec794901d17c78024a50270940304540a733656f0d60405160405180910390a45060016105ce565b5060006105ce565b60006117ff8383611060565b156117eb5760008381526002602090815260408083206001600160a01b0386168085529252808320805460ff1916905551339286917ff6391f5c32d9c69d2a47ea670b442974b53935d1edc7fd64eb21e047a839171b9190a45060016105ce565b60026000540361188357604051633ee5aeb560e01b815260040160405180910390fd5b6002600055565b60015460ff16156118ae5760405163d93c066560e01b815260040160405180910390fd5b565b6001600160a01b0381166000908152600360209081526040808320600490925282209091808080805b8554811015611998576000600660008884815481106118fa576118fa611fe0565b9060005260206000200154815260200190815260200160002090508060060160019054906101000a900460ff161561193f57826119368161200c565b93505050611986565b856119498161200c565b60028301549097506119669150600160a01b900460ff1686612197565b600682015490955060ff161561198457836119808161200c565b9450505b505b806119908161200c565b9150506118d9565b50838655600186018390556002860182905583156119d1576119ba84846121aa565b60048701805460ff191660ff929092169190911790555b60048601546119e49060ff168584611af0565b60058701556040516001600160a01b038816907ffba40ba9747c21b5ca943d171dc47acfd359677a07677bc32f0dd119af46825390600090a250505050505050565b611a2e61188a565b6001805460ff1916811790557f62e78cea01bee320cd4e420270b5ea74000d11b0c9f74754ebdbfc544b05a258335b6040516001600160a01b03909116815260200160405180910390a1565b611a82611ba3565b6001805460ff191690557f5db9ee0a495bf2e6ff9c91a7834c1ba4fdd244a5e8aa4e537bd38aeae4b073aa33611a5d565b611abd8282611060565b611aec5760405163e2517d3f60e01b81526001600160a01b038216600482015260248101839052604401610853565b5050565b600082600003611b0257506000610f41565b6000611b0f8560146121cc565b60ff1690506000600a8511611b25576000611b3b565b611b30600a86612025565b611b3b9060026121ef565b905060648111611b4b5780611b4e565b60645b905060006064611b5f6096876121ef565b611b6991906121aa565b9050600081611b788486612197565b611b829190612197565b90506103e88111611b935780611b97565b6103e85b98975050505050505050565b60015460ff166118ae57604051638dfc202b60e01b815260040160405180910390fd5b60408051610120810182526000808252602082018190529181018290526060808201839052608082015260a0810182905260c0810182905260e0810182905261010081019190915290565b600060208284031215611c2357600080fd5b81356001600160e01b031981168114610f4157600080fd5b80356001600160a01b0381168114611c5257600080fd5b919050565b600060208284031215611c6957600080fd5b610f4182611c3b565b600060208284031215611c8457600080fd5b5035919050565b60008060408385031215611c9e57600080fd5b82359150611cae60208401611c3b565b90509250929050565b80358015158114611c5257600080fd5b60008060008060008060a08789031215611ce057600080fd5b611ce987611c3b565b9550602087013560ff81168114611cff57600080fd5b9450604087013567ffffffffffffffff80821115611d1c57600080fd5b818901915089601f830112611d3057600080fd5b813581811115611d3f57600080fd5b8a6020828501011115611d5157600080fd5b60208301965080955050505060608701359150611d7060808801611cb7565b90509295509295509295565b600080600060608486031215611d9157600080fd5b611d9a84611c3b565b95602085013595506040909401359392505050565b6000815180845260005b81811015611dd557602081850181015186830182015201611db9565b506000602082860101526020601f19601f83011685010191505092915050565b60006020808301818452808551808352604092508286019150828160051b87010184880160005b83811015611ec957603f19898403018552815180518452878101516001600160a01b039081168986015287820151168785015260608082015160ff16908501526080808201516101208287018190529190611e7983880182611daf565b9250505060a080830151818701525060c080830151818701525060e080830151611ea68288018215159052565b505061010091820151151594909101939093529386019390860190600101611e1c565b509098975050505050505050565b60008060408385031215611eea57600080fd5b611ef383611c3b565b9150611cae60208401611c3b565b6020808252825182820181905260009190848201906040850190845b81811015611f425783516001600160a01b031683529284019291840191600101611f1d565b50909695505050505050565b60008060408385031215611f6157600080fd5b611f6a83611c3b565b946020939093013593505050565b8981526001600160a01b0389811660208301528816604082015260ff8716606082015261012060808201819052600090611fb483820189611daf565b60a0840197909752505060c081019390935290151560e083015215156101009091015295945050505050565b634e487b7160e01b600052603260045260246000fd5b634e487b7160e01b600052601160045260246000fd5b60006001820161201e5761201e611ff6565b5060010190565b818103818111156105ce576105ce611ff6565b634e487b7160e01b600052604160045260246000fd5b600181811c9082168061206257607f821691505b60208210810361208257634e487b7160e01b600052602260045260246000fd5b50919050565b601f8211156107e157600081815260208120601f850160051c810160208610156120af5750805b601f850160051c820191505b818110156120ce578281556001016120bb565b505050505050565b67ffffffffffffffff8311156120ee576120ee612038565b612102836120fc835461204e565b83612088565b6000601f841160018114612136576000851561211e5750838201355b600019600387901b1c1916600186901b178355612190565b600083815260209020601f19861690835b828110156121675786850135825560209485019460019092019101612147565b50868210156121845760001960f88860031b161c19848701351681555b505060018560011b0183555b5050505050565b808201808211156105ce576105ce611ff6565b6000826121c757634e487b7160e01b600052601260045260246000fd5b500490565b60ff81811683821602908116908181146121e8576121e8611ff6565b5092915050565b80820281158282048414176105ce576105ce611ff656fea49807205ce4d355092ef5a8a18f56e8913cf4a201fbe287825b095693c21775a264697066735822122024eb4293ca905e5023665a861aca8e37fd565cc9c21063550f35cbeb40d1ee6964736f6c63430008140033",
  "linkReferences": {},
  "deployedLinkReferences": {}
}