{
  "_format": "hh-sol-artifact-1",
  "contractName": "MetaTransactionHelper",
  "sourceName": "contracts/MetaTransactionHelper.sol",
  "abi": [
    {
      "inputs": [],
      "stateMutability": "nonpayable",
      "type": "constructor"
    },
    {
      "inputs": [],
      "name": "ECDSAInvalidSignature",
      "type": "error"
    },
    {
      "inputs": [
        {
          "internalType": "uint256",
          "name": "length",
          "type": "uint256"
        }
      ],
      "name": "ECDSAInvalidSignatureLength",
      "type": "error"
    },
    {
      "inputs": [
        {
          "internalType": "bytes32",
          "name": "s",
          "type": "bytes32"
        }
      ],
      "name": "ECDSAInvalidSignatureS",
      "type": "error"
    },
    {
      "inputs": [],
      "name": "InvalidShortString",
      "type": "error"
    },
    {
      "inputs": [
        {
          "internalType": "string",
          "name": "str",
          "type": "string"
        }
      ],
      "name": "StringTooLong",
      "type": "error"
    },
    {
      "anonymous": false,
      "inputs": [],
      "name": "EIP712DomainChanged",
      "type": "event"
    },
    {
      "anonymous": false,
      "inputs": [
        {
          "indexed": true,
          "internalType": "address",
          "name": "from",
          "type": "address"
        },
        {
          "indexed": true,
          "internalType": "address",
          "name": "to",
          "type": "address"
        },
        {
          "indexed": true,
          "internalType": "bytes32",
          "name": "txHash",
          "type": "bytes32"
        },
        {
          "indexed": false,
          "internalType": "bytes",
          "name": "result",
          "type": "bytes"
        }
      ],
      "name": "MetaTransactionExecuted",
      "type": "event"
    },
    {
      "inputs": [],
      "name": "eip712Domain",
      "outputs": [
        {
          "internalType": "bytes1",
          "name": "fields",
          "type": "bytes1"
        },
        {
          "internalType": "string",
          "name": "name",
          "type": "string"
        },
        {
          "internalType": "string",
          "name": "version",
          "type": "string"
        },
        {
          "internalType": "uint256",
          "name": "chainId",
          "type": "uint256"
        },
        {
          "internalType": "address",
          "name": "verifyingContract",
          "type": "address"
        },
        {
          "internalType": "bytes32",
          "name": "salt",
          "type": "bytes32"
        },
        {
          "internalType": "uint256[]",
          "name": "extensions",
          "type": "uint256[]"
        }
      ],
      "stateMutability": "view",
      "type": "function"
    },
    {
      "inputs": [
        {
          "components": [
            {
              "internalType": "address",
              "name": "from",
              "type": "address"
            },
            {
              "internalType": "address",
              "name": "to",
              "type": "address"
            },
            {
              "internalType": "uint256",
              "name": "value",
              "type": "uint256"
            },
            {
              "internalType": "bytes",
              "name": "data",
              "type": "bytes"
            },
            {
              "internalType": "uint256",
              "name": "nonce",
              "type": "uint256"
            },
            {
              "internalType": "uint256",
              "name": "gasPrice",
              "type": "uint256"
            },
            {
              "internalType": "uint256",
              "name": "gasLimit",
              "type": "uint256"
            },
            {
              "internalType": "uint256",
              "name": "deadline",
              "type": "uint256"
            }
          ],
          "internalType": "struct MetaTransactionHelper.MetaTransaction",
          "name": "_tx",
          "type": "tuple"
        },
        {
          "internalType": "bytes",
          "name": "_signature",
          "type": "bytes"
        }
      ],
      "name": "executeMetaTransaction",
      "outputs": [
        {
          "internalType": "bytes",
          "name": "",
          "type": "bytes"
        }
      ],
      "stateMutability": "payable",
      "type": "function"
    },
    {
      "inputs": [
        {
          "internalType": "bytes32",
          "name": "",
          "type": "bytes32"
        }
      ],
      "name": "executedTx",
      "outputs": [
        {
          "internalType": "bool",
          "name": "",
          "type": "bool"
        }
      ],
      "stateMutability": "view",
      "type": "function"
    },
    {
      "inputs": [],
      "name": "getDomainSeparator",
      "outputs": [
        {
          "internalType": "bytes32",
          "name": "",
          "type": "bytes32"
        }
      ],
      "stateMutability": "view",
      "type": "function"
    },
    {
      "inputs": [
        {
          "internalType": "address",
          "name": "_user",
          "type": "address"
        }
      ],
      "name": "getNonce",
      "outputs": [
        {
          "internalType": "uint256",
          "name": "",
          "type": "uint256"
        }
      ],
      "stateMutability": "view",
      "type": "function"
    },
    {
      "inputs": [
        {
          "internalType": "address",
          "name": "_from",
          "type": "address"
        },
        {
          "internalType": "address",
          "name": "_to",
          "type": "address"
        },
        {
          "internalType": "uint256",
          "name": "_value",
          "type": "uint256"
        },
        {
          "internalType": "bytes",
          "name": "_data",
          "type": "bytes"
        },
        {
          "internalType": "uint256",
          "name": "_nonce",
          "type": "uint256"
        },
        {
          "internalType": "uint256",
          "name": "_gasPrice",
          "type": "uint256"
        },
        {
          "internalType": "uint256",
          "name": "_gasLimit",
          "type": "uint256"
        },
        {
          "internalType": "uint256",
          "name": "_deadline",
          "type": "uint256"
        }
      ],
      "name": "getTransactionHash",
      "outputs": [
        {
          "internalType": "bytes32",
          "name": "",
          "type": "bytes32"
        }
      ],
      "stateMutability": "view",
      "type": "function"
    },
    {
      "inputs": [
        {
          "internalType": "address",
          "name": "",
          "type": "address"
        }
      ],
      "name": "nonces",
      "outputs": [
        {
          "internalType": "uint256",
          "name": "",
          "type": "uint256"
        }
      ],
      "stateMutability": "view",
      "type": "function"
    }
  ],
  "bytecode": "0x6101606040523480156200001257600080fd5b50604080518082018252600981526853616e6a6565766e6960b81b602080830191909152825180840190935260038352620312e360ec1b90830152906200005b82600062000109565b610120526200006c81600162000109565b61014052815160208084019190912060e052815190820120610100524660a052620000fa60e05161010051604080517f8b73c3c69bb8fe3d512ecc4cf759cc79239f7b179b0ffacaa9a75d522b39400f60208201529081019290925260608201524660808201523060a082015260009060c00160405160208183030381529060405280519060200120905090565b60805250503060c05262000374565b60006020835110156200012957620001218362000142565b90506200013c565b8162000136848262000233565b5060ff90505b92915050565b600080829050601f8151111562000179578260405163305a27a960e01b8152600401620001709190620002ff565b60405180910390fd5b805162000186826200034f565b179392505050565b634e487b7160e01b600052604160045260246000fd5b600181811c90821680620001b957607f821691505b602082108103620001da57634e487b7160e01b600052602260045260246000fd5b50919050565b601f8211156200022e57600081815260208120601f850160051c81016020861015620002095750805b601f850160051c820191505b818110156200022a5782815560010162000215565b5050505b505050565b81516001600160401b038111156200024f576200024f6200018e565b6200026781620002608454620001a4565b84620001e0565b602080601f8311600181146200029f5760008415620002865750858301515b600019600386901b1c1916600185901b1785556200022a565b600085815260208120601f198616915b82811015620002d057888601518255948401946001909101908401620002af565b5085821015620002ef5787850151600019600388901b60f8161c191681555b5050505050600190811b01905550565b600060208083528351808285015260005b818110156200032e5785810183015185820160400152820162000310565b506000604082860101526040601f19601f8301168501019250505092915050565b80516020808301519190811015620001da5760001960209190910360031b1b16919050565b60805160a05160c05160e051610100516101205161014051610fe5620003cf60003960006107b501526000610788015260006108e2015260006108ba015260006108150152600061083f015260006108690152610fe56000f3fe6080604052600436106100705760003560e01c806384b0196e1161004e57806384b0196e1461010b578063967469e014610133578063cdb2c04214610153578063ed24911d1461019357600080fd5b80632d0335ab146100755780635bd2a2c3146100be5780637ecebe00146100de575b600080fd5b34801561008157600080fd5b506100ab610090366004610c3a565b6001600160a01b031660009081526002602052604090205490565b6040519081526020015b60405180910390f35b6100d16100cc366004610ca5565b6101a8565b6040516100b59190610d5d565b3480156100ea57600080fd5b506100ab6100f9366004610c3a565b60026020526000908152604090205481565b34801561011757600080fd5b50610120610645565b6040516100b59796959493929190610d70565b34801561013f57600080fd5b506100ab61014e366004610e06565b61068b565b34801561015f57600080fd5b5061018361016e366004610e96565b60036020526000908152604090205460ff1681565b60405190151581526020016100b5565b34801561019f57600080fd5b506100ab610746565b6060428460e0013510156101f55760405162461bcd60e51b815260206004820152600f60248201526e111958591b1a5b99481c185cdcd959608a1b60448201526064015b60405180910390fd5b3461020860c086013560a0870135610ec5565b11156102495760405162461bcd60e51b815260206004820152601060248201526f496e73756666696369656e742067617360801b60448201526064016101ec565b60808401356002600061025f6020880188610c3a565b6001600160a01b03166001600160a01b0316815260200190815260200160002054146102bd5760405162461bcd60e51b815260206004820152600d60248201526c496e76616c6964206e6f6e636560981b60448201526064016101ec565b600061030a6102cf6020870187610c3a565b6102df6040880160208901610c3a565b60408801356102f160608a018a610edc565b8a608001358b60a001358c60c001358d60e0013561068b565b60008181526003602052604090205490915060ff161561035f5760405162461bcd60e51b815260206004820152601060248201526f105b1c9958591e48195e1958dd5d195960821b60448201526064016101ec565b6000818152600360209081526040808320805460ff191660011790558051601f87018390048302810183019091528581526103b791879087908190840183828082843760009201919091525086939250506107559050565b90506103c66020870187610c3a565b6001600160a01b0316816001600160a01b0316146104175760405162461bcd60e51b815260206004820152600e60248201526d24b73b30b634b21039b4b3b732b960911b60448201526064016101ec565b600260006104286020890189610c3a565b6001600160a01b031681526020810191909152604001600090812080549161044f83610f23565b9091555060009050806104686040890160208a01610c3a565b6001600160a01b031660c089013560408a013561048860608c018c610edc565b604051610496929190610f3c565b600060405180830381858888f193505050503d80600081146104d4576040519150601f19603f3d011682016040523d82523d6000602084013e6104d9565b606091505b5091509150816105175760405162461bcd60e51b8152602060048201526009602482015268151e0819985a5b195960ba1b60448201526064016101ec565b3461052a60c08a013560a08b0135610ec5565b10156105d35760003361054560c08b013560a08c0135610ec5565b61054f9034610f4c565b604051600081818185875af1925050503d806000811461058b576040519150601f19603f3d011682016040523d82523d6000602084013e610590565b606091505b50509050806105d15760405162461bcd60e51b815260206004820152600d60248201526c1499599d5b990819985a5b1959609a1b60448201526064016101ec565b505b836105e460408a0160208b01610c3a565b6001600160a01b03166105fa60208b018b610c3a565b6001600160a01b03167ff37754862f320bc44387eb6fbe2e63de49d0d9de5f31b900094705db5496164b846040516106329190610d5d565b60405180910390a4979650505050505050565b600060608060008060006060610659610781565b6106616107ae565b60408051600080825260208201909252600f60f81b9b939a50919850469750309650945092509050565b60006107387f5a37d04eb6a61daf93c20a600cbd539cdaaf391efee1f6b0902b39c8715089c08b8b8b8b8b6040516106c4929190610f3c565b6040805191829003822060208301969096526001600160a01b0394851690820152929091166060830152608082015260a081019190915260c0810187905260e081018690526101008101859052610120810184905261014001604051602081830303815290604052805190602001206107db565b9a9950505050505050505050565b6000610750610808565b905090565b6000806000806107658686610933565b9250925092506107758282610980565b50909150505b92915050565b60606107507f00000000000000000000000000000000000000000000000000000000000000006000610a3d565b60606107507f00000000000000000000000000000000000000000000000000000000000000006001610a3d565b600061077b6107e8610808565b8360405161190160f01b8152600281019290925260228201526042902090565b6000306001600160a01b037f00000000000000000000000000000000000000000000000000000000000000001614801561086157507f000000000000000000000000000000000000000000000000000000000000000046145b1561088b57507f000000000000000000000000000000000000000000000000000000000000000090565b610750604080517f8b73c3c69bb8fe3d512ecc4cf759cc79239f7b179b0ffacaa9a75d522b39400f60208201527f0000000000000000000000000000000000000000000000000000000000000000918101919091527f000000000000000000000000000000000000000000000000000000000000000060608201524660808201523060a082015260009060c00160405160208183030381529060405280519060200120905090565b6000806000835160410361096d5760208401516040850151606086015160001a61095f88828585610ae8565b955095509550505050610979565b50508151600091506002905b9250925092565b600082600381111561099457610994610f5f565b0361099d575050565b60018260038111156109b1576109b1610f5f565b036109cf5760405163f645eedf60e01b815260040160405180910390fd5b60028260038111156109e3576109e3610f5f565b03610a045760405163fce698f760e01b8152600481018290526024016101ec565b6003826003811115610a1857610a18610f5f565b03610a39576040516335e2f38360e21b8152600481018290526024016101ec565b5050565b606060ff8314610a5757610a5083610bb7565b905061077b565b818054610a6390610f75565b80601f0160208091040260200160405190810160405280929190818152602001828054610a8f90610f75565b8015610adc5780601f10610ab157610100808354040283529160200191610adc565b820191906000526020600020905b815481529060010190602001808311610abf57829003601f168201915b5050505050905061077b565b600080807f7fffffffffffffffffffffffffffffff5d576e7357a4501ddfe92f46681b20a0841115610b235750600091506003905082610bad565b604080516000808252602082018084528a905260ff891692820192909252606081018790526080810186905260019060a0016020604051602081039080840390855afa158015610b77573d6000803e3d6000fd5b5050604051601f1901519150506001600160a01b038116610ba357506000925060019150829050610bad565b9250600091508190505b9450945094915050565b60606000610bc483610bf6565b604080516020808252818301909252919250600091906020820181803683375050509182525060208101929092525090565b600060ff8216601f81111561077b57604051632cd44ac360e21b815260040160405180910390fd5b80356001600160a01b0381168114610c3557600080fd5b919050565b600060208284031215610c4c57600080fd5b610c5582610c1e565b9392505050565b60008083601f840112610c6e57600080fd5b50813567ffffffffffffffff811115610c8657600080fd5b602083019150836020828501011115610c9e57600080fd5b9250929050565b600080600060408486031215610cba57600080fd5b833567ffffffffffffffff80821115610cd257600080fd5b908501906101008288031215610ce757600080fd5b90935060208501359080821115610cfd57600080fd5b50610d0a86828701610c5c565b9497909650939450505050565b6000815180845260005b81811015610d3d57602081850181015186830182015201610d21565b506000602082860101526020601f19601f83011685010191505092915050565b602081526000610c556020830184610d17565b60ff60f81b881681526000602060e081840152610d9060e084018a610d17565b8381036040850152610da2818a610d17565b606085018990526001600160a01b038816608086015260a0850187905284810360c0860152855180825283870192509083019060005b81811015610df457835183529284019291840191600101610dd8565b50909c9b505050505050505050505050565b60008060008060008060008060006101008a8c031215610e2557600080fd5b610e2e8a610c1e565b9850610e3c60208b01610c1e565b975060408a0135965060608a013567ffffffffffffffff811115610e5f57600080fd5b610e6b8c828d01610c5c565b9a9d999c50979a97999860808901359860a0810135985060c0810135975060e0013595509350505050565b600060208284031215610ea857600080fd5b5035919050565b634e487b7160e01b600052601160045260246000fd5b808202811582820484141761077b5761077b610eaf565b6000808335601e19843603018112610ef357600080fd5b83018035915067ffffffffffffffff821115610f0e57600080fd5b602001915036819003821315610c9e57600080fd5b600060018201610f3557610f35610eaf565b5060010190565b8183823760009101908152919050565b8181038181111561077b5761077b610eaf565b634e487b7160e01b600052602160045260246000fd5b600181811c90821680610f8957607f821691505b602082108103610fa957634e487b7160e01b600052602260045260246000fd5b5091905056fea2646970667358221220ff00c2e63f06318b2dd43a224804967bc54220f29d8ff0c4f001e5ad2dfcf6a564736f6c63430008140033",
  "linkReferences": {},
  "deployedLinkReferences": {}
}