{
  "_format": "hh-sol-artifact-1",
  "contractName": "WellnessRewards",
  "sourceName": "contracts/WellnessRewards.sol",
  "abi": [
    {
      "inputs": [
        {
          "internalType": "address",
          "name": "_accessControl",
          "type": "address"
        },
        {
          "internalType": "address",
          "name": "_forwarder",
          "type": "address"
        },
        {
          "internalType": "address",
          "name": "_token",
          "type": "address"
        },
        {
          "internalType": "address",
          "name": "_verifier",
          "type": "address"
        }
      ],
      "stateMutability": "nonpayable",
      "type": "constructor"
    },
    {
      "inputs": [
        {
          "internalType": "address",
          "name": "target",
          "type": "address"
        }
      ],
      "name": "AddressEmptyCode",
      "type": "error"
    },
    {
      "inputs": [
        {
          "internalType": "address",
          "name": "account",
          "type": "address"
        }
      ],
      "name": "AddressInsufficientBalance",
      "type": "error"
    },
    {
      "inputs": [],
      "name": "EnforcedPause",
      "type": "error"
    },
    {
      "inputs": [],
      "name": "ExpectedPause",
      "type": "error"
    },
    {
      "inputs": [],
      "name": "FailedInnerCall",
      "type": "error"
    },
    {
      "inputs": [],
      "name": "InvalidProof",
      "type": "error"
    },
    {
      "inputs": [],
      "name": "NotPatient",
      "type": "error"
    },
    {
      "inputs": [],
      "name": "ReentrancyGuardReentrantCall",
      "type": "error"
    },
    {
      "inputs": [
        {
          "internalType": "address",
          "name": "token",
          "type": "address"
        }
      ],
      "name": "SafeERC20FailedOperation",
      "type": "error"
    },
    {
      "inputs": [],
      "name": "StillInInterval",
      "type": "error"
    },
    {
      "anonymous": false,
      "inputs": [
        {
          "indexed": true,
          "internalType": "address",
          "name": "patient",
          "type": "address"
        },
        {
          "indexed": false,
          "internalType": "uint256",
          "name": "milestone",
          "type": "uint256"
        }
      ],
      "name": "MilestoneReached",
      "type": "event"
    },
    {
      "anonymous": false,
      "inputs": [
        {
          "indexed": false,
          "internalType": "address",
          "name": "account",
          "type": "address"
        }
      ],
      "name": "Paused",
      "type": "event"
    },
    {
      "anonymous": false,
      "inputs": [
        {
          "indexed": false,
          "internalType": "address",
          "name": "account",
          "type": "address"
        }
      ],
      "name": "Unpaused",
      "type": "event"
    },
    {
      "anonymous": false,
      "inputs": [
        {
          "indexed": true,
          "internalType": "address",
          "name": "patient",
          "type": "address"
        },
        {
          "indexed": false,
          "internalType": "uint256",
          "name": "streakCount",
          "type": "uint256"
        },
        {
          "indexed": false,
          "internalType": "uint256",
          "name": "reward",
          "type": "uint256"
        }
      ],
      "name": "WellnessVerified",
      "type": "event"
    },
    {
      "inputs": [],
      "name": "accessControl",
      "outputs": [
        {
          "internalType": "contract MediSecureAccessControl",
          "name": "",
          "type": "address"
        }
      ],
      "stateMutability": "view",
      "type": "function"
    },
    {
      "inputs": [
        {
          "internalType": "uint256",
          "name": "amount",
          "type": "uint256"
        }
      ],
      "name": "fundRewardPool",
      "outputs": [],
      "stateMutability": "nonpayable",
      "type": "function"
    },
    {
      "inputs": [
        {
          "internalType": "bytes32",
          "name": "role",
          "type": "bytes32"
        },
        {
          "internalType": "address",
          "name": "account",
          "type": "address"
        }
      ],
      "name": "hasRole",
      "outputs": [
        {
          "internalType": "bool",
          "name": "",
          "type": "bool"
        }
      ],
      "stateMutability": "view",
      "type": "function"
    },
    {
      "inputs": [
        {
          "internalType": "enum Roles",
          "name": "role",
          "type": "uint8"
        },
        {
          "internalType": "address",
          "name": "account",
          "type": "address"
        }
      ],
      "name": "hasRole",
      "outputs": [
        {
          "internalType": "bool",
          "name": "",
          "type": "bool"
        }
      ],
      "stateMutability": "view",
      "type": "function"
    },
    {
      "inputs": [
        {
          "internalType": "address",
          "name": "account",
          "type": "address"
        }
      ],
      "name": "isAdmin",
      "outputs": [
        {
          "internalType": "bool",
          "name": "",
          "type": "bool"
        }
      ],
      "stateMutability": "view",
      "type": "function"
    },
    {
      "inputs": [
        {
          "internalType": "address",
          "name": "forwarder",
          "type": "address"
        }
      ],
      "name": "isTrustedForwarder",
      "outputs": [
        {
          "internalType": "bool",
          "name": "",
          "type": "bool"
        }
      ],
      "stateMutability": "view",
      "type": "function"
    },
    {
      "inputs": [],
      "name": "milestoneBonus",
      "outputs": [
        {
          "internalType": "uint256",
          "name": "",
          "type": "uint256"
        }
      ],
      "stateMutability": "view",
      "type": "function"
    },
    {
      "inputs": [],
      "name": "minimumInterval",
      "outputs": [
        {
          "internalType": "uint256",
          "name": "",
          "type": "uint256"
        }
      ],
      "stateMutability": "view",
      "type": "function"
    },
    {
      "inputs": [
        {
          "internalType": "address",
          "name": "",
          "type": "address"
        }
      ],
      "name": "patientStreaks",
      "outputs": [
        {
          "internalType": "uint256",
          "name": "count",
          "type": "uint256"
        },
        {
          "internalType": "uint256",
          "name": "lastProofTimestamp",
          "type": "uint256"
        }
      ],
      "stateMutability": "view",
      "type": "function"
    },
    {
      "inputs": [],
      "name": "paused",
      "outputs": [
        {
          "internalType": "bool",
          "name": "",
          "type": "bool"
        }
      ],
      "stateMutability": "view",
      "type": "function"
    },
    {
      "inputs": [],
      "name": "rewardPerProof",
      "outputs": [
        {
          "internalType": "uint256",
          "name": "",
          "type": "uint256"
        }
      ],
      "stateMutability": "view",
      "type": "function"
    },
    {
      "inputs": [],
      "name": "sanjeevniToken",
      "outputs": [
        {
          "internalType": "contract IERC20",
          "name": "",
          "type": "address"
        }
      ],
      "stateMutability": "view",
      "type": "function"
    },
    {
      "inputs": [
        {
          "internalType": "uint256",
          "name": "_interval",
          "type": "uint256"
        }
      ],
      "name": "setInterval",
      "outputs": [],
      "stateMutability": "nonpayable",
      "type": "function"
    },
    {
      "inputs": [
        {
          "internalType": "uint256",
          "name": "_base",
          "type": "uint256"
        },
        {
          "internalType": "uint256",
          "name": "_bonus",
          "type": "uint256"
        }
      ],
      "name": "setRewardAmounts",
      "outputs": [],
      "stateMutability": "nonpayable",
      "type": "function"
    },
    {
      "inputs": [
        {
          "internalType": "address",
          "name": "_verifier",
          "type": "address"
        }
      ],
      "name": "setVerifier",
      "outputs": [],
      "stateMutability": "nonpayable",
      "type": "function"
    },
    {
      "inputs": [
        {
          "internalType": "bytes",
          "name": "proof",
          "type": "bytes"
        }
      ],
      "name": "submitWellnessProof",
      "outputs": [],
      "stateMutability": "nonpayable",
      "type": "function"
    },
    {
      "inputs": [],
      "name": "trustedForwarder",
      "outputs": [
        {
          "internalType": "address",
          "name": "",
          "type": "address"
        }
      ],
      "stateMutability": "view",
      "type": "function"
    },
    {
      "inputs": [],
      "name": "zkpVerifier",
      "outputs": [
        {
          "internalType": "address",
          "name": "",
          "type": "address"
        }
      ],
      "stateMutability": "view",
      "type": "function"
    }
  ],
  "bytecode": "0x60c06040526802b5e3af16b1880000600455681b1ae4d6e2ef5000006005556220f58060065534801561003157600080fd5b50604051610feb380380610feb833981016040819052610050916100e2565b60016000819055805460ff191690556001600160a01b03808416608052849084908216156100995760018054610100600160a81b0319166101006001600160a01b038516021790555b50506001600160a01b0391821660a052600280546001600160a01b03191691909216179055506101369050565b80516001600160a01b03811681146100dd57600080fd5b919050565b600080600080608085870312156100f857600080fd5b610101856100c6565b935061010f602086016100c6565b925061011d604086016100c6565b915061012b606086016100c6565b905092959194509250565b60805160a051610e6d61017e600039600081816102e80152818161031f0152818161065301526106aa0152600081816101d50152818161022501526109850152610e6d6000f3fe608060405234801561001057600080fd5b50600436106101165760003560e01c80637da0a877116100a25780639e97b8f6116100715780639e97b8f614610278578063b774718d1461028b578063d113ef7c14610294578063ee918d42146102a7578063fc1d6911146102e357600080fd5b80637da0a8771461022357806391d148541461024957806397c994201461025c5780639ab060de1461026f57600080fd5b806351cfaf73116100e957806351cfaf731461019b5780635437988d146101b2578063572b6c05146101c55780635c975abb146102055780636aebbd661461021057600080fd5b806313007d551461011b5780631d583e0d1461015057806322a900821461016557806324d7806c14610178575b600080fd5b6001546101339061010090046001600160a01b031681565b6040516001600160a01b0390911681526020015b60405180910390f35b61016361015e366004610b54565b61030a565b005b610163610173366004610b54565b61034a565b61018b610186366004610b89565b6103f2565b6040519015158152602001610147565b6101a460065481565b604051908152602001610147565b6101636101c0366004610b89565b610471565b61018b6101d3366004610b89565b7f00000000000000000000000000000000000000000000000000000000000000006001600160a01b0390811691161490565b60015460ff1661018b565b600254610133906001600160a01b031681565b7f0000000000000000000000000000000000000000000000000000000000000000610133565b61018b610257366004610ba4565b61052d565b61016361026a366004610bd0565b6105b0565b6101a460055481565b61018b610286366004610c42565b610796565b6101a460045481565b6101636102a2366004610c72565b6107ce565b6102ce6102b5366004610b89565b6003602052600090815260409020805460019091015482565b60408051928352602083019190915201610147565b6101337f000000000000000000000000000000000000000000000000000000000000000081565b610347610315610873565b6001600160a01b037f000000000000000000000000000000000000000000000000000000000000000016903084610882565b50565b60015461010090046001600160a01b0316639e97b8f6600061036a610873565b6040518363ffffffff1660e01b8152600401610387929190610c94565b602060405180830381865afa1580156103a4573d6000803e3d6000fd5b505050506040513d601f19601f820116820180604052508101906103c89190610cce565b6103ed5760405162461bcd60e51b81526004016103e490610cf0565b60405180910390fd5b600655565b600154604051634f4bdc7b60e11b815260009161010090046001600160a01b031690639e97b8f69061042a9084908690600401610c94565b602060405180830381865afa158015610447573d6000803e3d6000fd5b505050506040513d601f19601f8201168201806040525081019061046b9190610cce565b92915050565b60015461010090046001600160a01b0316639e97b8f66000610491610873565b6040518363ffffffff1660e01b81526004016104ae929190610c94565b602060405180830381865afa1580156104cb573d6000803e3d6000fd5b505050506040513d601f19601f820116820180604052508101906104ef9190610cce565b61050b5760405162461bcd60e51b81526004016103e490610cf0565b600280546001600160a01b0319166001600160a01b0392909216919091179055565b600154604051632474521560e21b8152600481018490526001600160a01b038381166024830152600092610100900416906391d14854906044015b602060405180830381865afa158015610585573d6000803e3d6000fd5b505050506040513d601f19601f820116820180604052508101906105a99190610cce565b9392505050565b6105b86108ef565b6105c0610915565b6000600360006105ce610873565b6001600160a01b03166001600160a01b03168152602001908152602001600020905060065481600101546106029190610d48565b4210156106225760405163f84d933160e01b815260040160405180910390fd5b805481600061063083610d5b565b909155505042600182015561067a610646610873565b6004546001600160a01b037f000000000000000000000000000000000000000000000000000000000000000016919061093f565b600454815461068b90600590610d74565b60000361072f576106d161069d610873565b6005546001600160a01b037f000000000000000000000000000000000000000000000000000000000000000016919061093f565b6005546106de9082610d48565b90506106e8610873565b6001600160a01b03167f606c93dd9d51adef863c541a7a184bf8786670793adc7241622075b3bda7f36b836000015460405161072691815260200190565b60405180910390a25b610737610873565b6001600160a01b03167f6fd087f506dbf330bfd57c5033b6262a2cabc53941578e0b6b9adf2516e740f783600001548360405161077e929190918252602082015260400190565b60405180910390a250506107926001600055565b5050565b600154604051634f4bdc7b60e11b815260009161010090046001600160a01b031690639e97b8f6906105689086908690600401610c94565b60015461010090046001600160a01b0316639e97b8f660006107ee610873565b6040518363ffffffff1660e01b815260040161080b929190610c94565b602060405180830381865afa158015610828573d6000803e3d6000fd5b505050506040513d601f19601f8201168201806040525081019061084c9190610cce565b6108685760405162461bcd60e51b81526004016103e490610cf0565b600491909155600555565b600061087d610975565b905090565b6040516001600160a01b0384811660248301528381166044830152606482018390526108e99186918216906323b872dd906084015b604051602081830303815290604052915060e01b6020820180516001600160e01b0383818316178352505050506109ea565b50505050565b60015460ff16156109135760405163d93c066560e01b815260040160405180910390fd5b565b60026000540361093857604051633ee5aeb560e01b815260040160405180910390fd5b6002600055565b6040516001600160a01b0383811660248301526044820183905261097091859182169063a9059cbb906064016108b7565b505050565b6000366014336001600160a01b037f0000000000000000000000000000000000000000000000000000000000000000161480156109b25750808210155b156109e2576000366109c48385610d96565b6109cf928290610da9565b6109d891610dd3565b60601c9250505090565b339250505090565b60006109ff6001600160a01b03841683610a4d565b90508051600014158015610a24575080806020019051810190610a229190610cce565b155b1561097057604051635274afe760e01b81526001600160a01b03841660048201526024016103e4565b60606105a98383600084600080856001600160a01b03168486604051610a739190610e08565b60006040518083038185875af1925050503d8060008114610ab0576040519150601f19603f3d011682016040523d82523d6000602084013e610ab5565b606091505b5091509150610ac5868383610acf565b9695505050505050565b606082610ae457610adf82610b2b565b6105a9565b8151158015610afb57506001600160a01b0384163b155b15610b2457604051639996b31560e01b81526001600160a01b03851660048201526024016103e4565b50806105a9565b805115610b3b5780518082602001fd5b604051630a12f52160e11b815260040160405180910390fd5b600060208284031215610b6657600080fd5b5035919050565b80356001600160a01b0381168114610b8457600080fd5b919050565b600060208284031215610b9b57600080fd5b6105a982610b6d565b60008060408385031215610bb757600080fd5b82359150610bc760208401610b6d565b90509250929050565b60008060208385031215610be357600080fd5b823567ffffffffffffffff80821115610bfb57600080fd5b818501915085601f830112610c0f57600080fd5b813581811115610c1e57600080fd5b866020828501011115610c3057600080fd5b60209290920196919550909350505050565b60008060408385031215610c5557600080fd5b823560098110610c6457600080fd5b9150610bc760208401610b6d565b60008060408385031215610c8557600080fd5b50508035926020909101359150565b6040810160098410610cb657634e487b7160e01b600052602160045260246000fd5b9281526001600160a01b039190911660209091015290565b600060208284031215610ce057600080fd5b815180151581146105a957600080fd5b60208082526022908201527f416363657373436f6e74726f6c3a20726573747269637465642d746f2d61646d60408201526134b760f11b606082015260800190565b634e487b7160e01b600052601160045260246000fd5b8082018082111561046b5761046b610d32565b600060018201610d6d57610d6d610d32565b5060010190565b600082610d9157634e487b7160e01b600052601260045260246000fd5b500690565b8181038181111561046b5761046b610d32565b60008085851115610db957600080fd5b83861115610dc657600080fd5b5050820193919092039150565b6bffffffffffffffffffffffff198135818116916014851015610e005780818660140360031b1b83161692505b505092915050565b6000825160005b81811015610e295760208186018101518583015201610e0f565b50600092019182525091905056fea26469706673582212200f77414685c0f23730ae37296cc5d0da7a39d7b92c67c86d2b19f9ef753d236964736f6c63430008140033",
  "linkReferences": {},
  "deployedLinkReferences": {}
}