{
  "_format": "hh-sol-artifact-1",
  "contractName": "DoctorUpgradeable",
  "sourceName": "contracts/DoctorUpgradeable.sol",
  "abi": [
    {
      "inputs": [
        {
          "internalType": "address",
          "name": "_forwarder",
          "type": "address"
        }
      ],
      "stateMutability": "nonpayable",
      "type": "constructor"
    },
    {
      "inputs": [
        {
          "internalType": "address",
          "name": "target",
          "type": "address"
        }
      ],
      "name": "AddressEmptyCode",
      "type": "error"
    },
    {
      "inputs": [
        {
          "internalType": "address",
          "name": "implementation",
          "type": "address"
        }
      ],
      "name": "ERC1967InvalidImplementation",
      "type": "error"
    },
    {
      "inputs": [],
      "name": "ERC1967NonPayable",
      "type": "error"
    },
    {
      "inputs": [],
      "name": "EnforcedPause",
      "type": "error"
    },
    {
      "inputs": [],
      "name": "ExpectedPause",
      "type": "error"
    },
    {
      "inputs": [],
      "name": "FailedInnerCall",
      "type": "error"
    },
    {
      "inputs": [],
      "name": "InvalidInitialization",
      "type": "error"
    },
    {
      "inputs": [],
      "name": "NotInitializing",
      "type": "error"
    },
    {
      "inputs": [],
      "name": "ReentrancyGuardReentrantCall",
      "type": "error"
    },
    {
      "inputs": [],
      "name": "UUPSUnauthorizedCallContext",
      "type": "error"
    },
    {
      "inputs": [
        {
          "internalType": "bytes32",
          "name": "slot",
          "type": "bytes32"
        }
      ],
      "name": "UUPSUnsupportedProxiableUUID",
      "type": "error"
    },
    {
      "anonymous": false,
      "inputs": [
        {
          "indexed": true,
          "internalType": "address",
          "name": "patient",
          "type": "address"
        },
        {
          "indexed": true,
          "internalType": "address",
          "name": "doctor",
          "type": "address"
        },
        {
          "indexed": false,
          "internalType": "bytes32",
          "name": "ipfsHash",
          "type": "bytes32"
        },
        {
          "indexed": false,
          "internalType": "uint256",
          "name": "grantTime",
          "type": "uint256"
        },
        {
          "indexed": false,
          "internalType": "uint256",
          "name": "duration",
          "type": "uint256"
        }
      ],
      "name": "AccessGranted",
      "type": "event"
    },
    {
      "anonymous": false,
      "inputs": [
        {
          "indexed": true,
          "internalType": "address",
          "name": "patient",
          "type": "address"
        },
        {
          "indexed": true,
          "internalType": "address",
          "name": "doctor",
          "type": "address"
        },
        {
          "indexed": false,
          "internalType": "bytes32",
          "name": "ipfsHash",
          "type": "bytes32"
        },
        {
          "indexed": false,
          "internalType": "string",
          "name": "fileName",
          "type": "string"
        },
        {
          "indexed": false,
          "internalType": "uint256",
          "name": "duration",
          "type": "uint256"
        },
        {
          "indexed": false,
          "internalType": "string",
          "name": "reason",
          "type": "string"
        }
      ],
      "name": "AccessRequested",
      "type": "event"
    },
    {
      "anonymous": false,
      "inputs": [
        {
          "indexed": true,
          "internalType": "uint256",
          "name": "doctorId",
          "type": "uint256"
        },
        {
          "indexed": true,
          "internalType": "address",
          "name": "wallet",
          "type": "address"
        },
        {
          "indexed": false,
          "internalType": "string",
          "name": "name",
          "type": "string"
        }
      ],
      "name": "DoctorRegistered",
      "type": "event"
    },
    {
      "anonymous": false,
      "inputs": [
        {
          "indexed": true,
          "internalType": "address",
          "name": "patient",
          "type": "address"
        },
        {
          "indexed": true,
          "internalType": "address",
          "name": "doctor",
          "type": "address"
        },
        {
          "indexed": false,
          "internalType": "bytes32",
          "name": "ipfsHash",
          "type": "bytes32"
        },
        {
          "indexed": false,
          "internalType": "string",
          "name": "reason",
          "type": "string"
        },
        {
          "indexed": false,
          "internalType": "uint256",
          "name": "timestamp",
          "type": "uint256"
        }
      ],
      "name": "EmergencyAccessGranted",
      "type": "event"
    },
    {
      "anonymous": false,
      "inputs": [
        {
          "indexed": false,
          "internalType": "uint64",
          "name": "version",
          "type": "uint64"
        }
      ],
      "name": "Initialized",
      "type": "event"
    },
    {
      "anonymous": false,
      "inputs": [
        {
          "indexed": false,
          "internalType": "address",
          "name": "account",
          "type": "address"
        }
      ],
      "name": "Paused",
      "type": "event"
    },
    {
      "anonymous": false,
      "inputs": [
        {
          "indexed": false,
          "internalType": "address",
          "name": "account",
          "type": "address"
        }
      ],
      "name": "Unpaused",
      "type": "event"
    },
    {
      "anonymous": false,
      "inputs": [
        {
          "indexed": true,
          "internalType": "address",
          "name": "implementation",
          "type": "address"
        }
      ],
      "name": "Upgraded",
      "type": "event"
    },
    {
      "inputs": [],
      "name": "UPGRADE_INTERFACE_VERSION",
      "outputs": [
        {
          "internalType": "string",
          "name": "",
          "type": "string"
        }
      ],
      "stateMutability": "view",
      "type": "function"
    },
    {
      "inputs": [],
      "name": "accessControl",
      "outputs": [
        {
          "internalType": "contract MediSecureAccessControl",
          "name": "",
          "type": "address"
        }
      ],
      "stateMutability": "view",
      "type": "function"
    },
    {
      "inputs": [
        {
          "internalType": "uint256",
          "name": "",
          "type": "uint256"
        },
        {
          "internalType": "uint256",
          "name": "",
          "type": "uint256"
        }
      ],
      "name": "doctorAccessList",
      "outputs": [
        {
          "internalType": "address",
          "name": "patient",
          "type": "address"
        },
        {
          "internalType": "bytes32",
          "name": "ipfsHash",
          "type": "bytes32"
        },
        {
          "internalType": "bool",
          "name": "hasAccess",
          "type": "bool"
        },
        {
          "internalType": "uint256",
          "name": "grantTime",
          "type": "uint256"
        },
        {
          "internalType": "uint256",
          "name": "duration",
          "type": "uint256"
        },
        {
          "internalType": "string",
          "name": "reason",
          "type": "string"
        },
        {
          "internalType": "bool",
          "name": "isEmergency",
          "type": "bool"
        }
      ],
      "stateMutability": "view",
      "type": "function"
    },
    {
      "inputs": [
        {
          "internalType": "uint256",
          "name": "",
          "type": "uint256"
        }
      ],
      "name": "doctors",
      "outputs": [
        {
          "internalType": "string",
          "name": "name",
          "type": "string"
        },
        {
          "internalType": "string",
          "name": "specialization",
          "type": "string"
        },
        {
          "internalType": "string",
          "name": "email",
          "type": "string"
        },
        {
          "internalType": "string",
          "name": "hospital",
          "type": "string"
        },
        {
          "internalType": "bool",
          "name": "isActive",
          "type": "bool"
        }
      ],
      "stateMutability": "view",
      "type": "function"
    },
    {
      "inputs": [
        {
          "internalType": "address",
          "name": "_patient",
          "type": "address"
        },
        {
          "internalType": "bytes32",
          "name": "_ipfsHash",
          "type": "bytes32"
        },
        {
          "internalType": "string",
          "name": "_reason",
          "type": "string"
        },
        {
          "internalType": "address",
          "name": "_hospitalAddress",
          "type": "address"
        }
      ],
      "name": "emergencyBreakGlass",
      "outputs": [],
      "stateMutability": "nonpayable",
      "type": "function"
    },
    {
      "inputs": [
        {
          "internalType": "uint256",
          "name": "_accessIndex",
          "type": "uint256"
        }
      ],
      "name": "grantAccess",
      "outputs": [],
      "stateMutability": "nonpayable",
      "type": "function"
    },
    {
      "inputs": [
        {
          "internalType": "address",
          "name": "_patient",
          "type": "address"
        },
        {
          "internalType": "bytes32",
          "name": "_ipfsHash",
          "type": "bytes32"
        }
      ],
      "name": "hasAccessToDocument",
      "outputs": [
        {
          "internalType": "bool",
          "name": "",
          "type": "bool"
        }
      ],
      "stateMutability": "view",
      "type": "function"
    },
    {
      "inputs": [
        {
          "internalType": "bytes32",
          "name": "role",
          "type": "bytes32"
        },
        {
          "internalType": "address",
          "name": "account",
          "type": "address"
        }
      ],
      "name": "hasRole",
      "outputs": [
        {
          "internalType": "bool",
          "name": "",
          "type": "bool"
        }
      ],
      "stateMutability": "view",
      "type": "function"
    },
    {
      "inputs": [
        {
          "internalType": "enum Roles",
          "name": "role",
          "type": "uint8"
        },
        {
          "internalType": "address",
          "name": "account",
          "type": "address"
        }
      ],
      "name": "hasRole",
      "outputs": [
        {
          "internalType": "bool",
          "name": "",
          "type": "bool"
        }
      ],
      "stateMutability": "view",
      "type": "function"
    },
    {
      "inputs": [],
      "name": "hospitalContract",
      "outputs": [
        {
          "internalType": "address",
          "name": "",
          "type": "address"
        }
      ],
      "stateMutability": "view",
      "type": "function"
    },
    {
      "inputs": [
        {
          "internalType": "address",
          "name": "_accessControl",
          "type": "address"
        }
      ],
      "name": "initialize",
      "outputs": [],
      "stateMutability": "nonpayable",
      "type": "function"
    },
    {
      "inputs": [
        {
          "internalType": "address",
          "name": "account",
          "type": "address"
        }
      ],
      "name": "isAdmin",
      "outputs": [
        {
          "internalType": "bool",
          "name": "",
          "type": "bool"
        }
      ],
      "stateMutability": "view",
      "type": "function"
    },
    {
      "inputs": [
        {
          "internalType": "address",
          "name": "forwarder",
          "type": "address"
        }
      ],
      "name": "isTrustedForwarder",
      "outputs": [
        {
          "internalType": "bool",
          "name": "",
          "type": "bool"
        }
      ],
      "stateMutability": "view",
      "type": "function"
    },
    {
      "inputs": [],
      "name": "paused",
      "outputs": [
        {
          "internalType": "bool",
          "name": "",
          "type": "bool"
        }
      ],
      "stateMutability": "view",
      "type": "function"
    },
    {
      "inputs": [],
      "name": "proxiableUUID",
      "outputs": [
        {
          "internalType": "bytes32",
          "name": "",
          "type": "bytes32"
        }
      ],
      "stateMutability": "view",
      "type": "function"
    },
    {
      "inputs": [
        {
          "internalType": "string",
          "name": "_name",
          "type": "string"
        },
        {
          "internalType": "string",
          "name": "_specialization",
          "type": "string"
        },
        {
          "internalType": "string",
          "name": "_email",
          "type": "string"
        },
        {
          "internalType": "string",
          "name": "_hospital",
          "type": "string"
        }
      ],
      "name": "registerDoctor",
      "outputs": [],
      "stateMutability": "nonpayable",
      "type": "function"
    },
    {
      "inputs": [
        {
          "internalType": "address",
          "name": "_patient",
          "type": "address"
        },
        {
          "internalType": "bytes32",
          "name": "_ipfsHash",
          "type": "bytes32"
        },
        {
          "internalType": "string",
          "name": "_fileName",
          "type": "string"
        },
        {
          "internalType": "uint256",
          "name": "_duration",
          "type": "uint256"
        },
        {
          "internalType": "string",
          "name": "_reason",
          "type": "string"
        }
      ],
      "name": "requestAccess",
      "outputs": [],
      "stateMutability": "nonpayable",
      "type": "function"
    },
    {
      "inputs": [
        {
          "internalType": "address",
          "name": "_hospital",
          "type": "address"
        }
      ],
      "name": "setHospitalContract",
      "outputs": [],
      "stateMutability": "nonpayable",
      "type": "function"
    },
    {
      "inputs": [],
      "name": "trustedForwarder",
      "outputs": [
        {
          "internalType": "address",
          "name": "",
          "type": "address"
        }
      ],
      "stateMutability": "view",
      "type": "function"
    },
    {
      "inputs": [
        {
          "internalType": "address",
          "name": "newImplementation",
          "type": "address"
        },
        {
          "internalType": "bytes",
          "name": "data",
          "type": "bytes"
        }
      ],
      "name": "upgradeToAndCall",
      "outputs": [],
      "stateMutability": "payable",
      "type": "function"
    },
    {
      "inputs": [
        {
          "internalType": "address",
          "name": "",
          "type": "address"
        }
      ],
      "name": "walletToDoctorId",
      "outputs": [
        {
          "internalType": "uint256",
          "name": "",
          "type": "uint256"
        }
      ],
      "stateMutability": "view",
      "type": "function"
    }
  ],
  "bytecode": "0x60c0604052306080523480156200001557600080fd5b50604051620029bf380380620029bf83398101604081905262000038916200010a565b6001600160a01b03811660a0526200004f62000056565b506200013c565b7ff0c57e16840df040f15088dc2f81fe391c3923bec73e23a9662efc9c229c6a00805468010000000000000000900460ff1615620000a75760405163f92ee8a960e01b815260040160405180910390fd5b80546001600160401b0390811614620001075780546001600160401b0319166001600160401b0390811782556040519081527fc7f505b2f371ae2175ee4913f4499e1f2633a7b5936321eed1cdaeb6115181d29060200160405180910390a15b50565b6000602082840312156200011d57600080fd5b81516001600160a01b03811681146200013557600080fd5b9392505050565b60805160a0516128416200017e600039600081816102a40152818161036b0152611ca701526000818161196c015281816119950152611ba901526128416000f3fe60806040526004361061012a5760003560e01c80635c975abb116100ab57806398cf72b31161006f57806398cf72b3146103af5780639e97b8f6146103dc578063ad3cb1cc146103fc578063b38c458d1461043a578063c4d66de81461045a578063ea03225e1461047a57600080fd5b80635c975abb146102d45780636efb1b841461030b5780637ca145631461033c5780637da0a8771461035c57806391d148541461038f57600080fd5b806333a8587f116100f257806333a8587f1461021157806347dbb71a146102315780634f1ef2861461025157806352d1902d14610264578063572b6c051461028757600080fd5b806313007d551461012f578063157597541461016c578063174142d81461018e57806324d7806c146101be57806333948de2146101de575b600080fd5b34801561013b57600080fd5b5060005461014f906001600160a01b031681565b6040516001600160a01b0390911681526020015b60405180910390f35b34801561017857600080fd5b5061018c610187366004611fa7565b61049a565b005b34801561019a57600080fd5b506101ae6101a9366004611fc2565b6105db565b6040519015158152602001610163565b3480156101ca57600080fd5b506101ae6101d9366004611fa7565b61075b565b3480156101ea57600080fd5b506101fe6101f9366004611fec565b6107cf565b604051610163979695949392919061205e565b34801561021d57600080fd5b5061018c61022c36600461215b565b6108c8565b34801561023d57600080fd5b5060325461014f906001600160a01b031681565b61018c61025f366004612208565b610b4a565b34801561027057600080fd5b50610279610b69565b604051908152602001610163565b34801561029357600080fd5b506101ae6102a2366004611fa7565b7f00000000000000000000000000000000000000000000000000000000000000006001600160a01b0390811691161490565b3480156102e057600080fd5b507fcd5ed15c6e187e77e9aee88184c21f4f2182ab5827cb3b7e07fbedcd63f033005460ff166101ae565b34801561031757600080fd5b5061032b61032636600461226a565b610b86565b604051610163959493929190612283565b34801561034857600080fd5b5061018c61035736600461226a565b610dd7565b34801561036857600080fd5b507f000000000000000000000000000000000000000000000000000000000000000061014f565b34801561039b57600080fd5b506101ae6103aa3660046122e5565b611053565b3480156103bb57600080fd5b506102796103ca366004611fa7565b60336020526000908152604090205481565b3480156103e857600080fd5b506101ae6103f7366004612311565b6110d1565b34801561040857600080fd5b5061042d604051806040016040528060058152602001640352e302e360dc1b81525081565b6040516101639190612341565b34801561044657600080fd5b5061018c610455366004612354565b611104565b34801561046657600080fd5b5061018c610475366004611fa7565b611492565b34801561048657600080fd5b5061018c6104953660046123bc565b6115ba565b600080546001600160a01b031690639e97b8f6906104b661190d565b6040518363ffffffff1660e01b81526004016104d3929190612444565b602060405180830381865afa1580156104f0573d6000803e3d6000fd5b505050506040513d601f19601f82011682018060405250810190610514919061247e565b6105705760405162461bcd60e51b815260206004820152602260248201527f416363657373436f6e74726f6c3a20726573747269637465642d746f2d61646d60448201526134b760f11b60648201526084015b60405180910390fd5b6001600160a01b0381166105b95760405162461bcd60e51b815260206004820152601060248201526f125b9d985b1a59081a1bdcdc1a5d185b60821b6044820152606401610567565b603280546001600160a01b0319166001600160a01b0392909216919091179055565b600080603360006105ea61190d565b6001600160a01b03166001600160a01b031681526020019081526020016000205490508060000361061f576000915050610755565b6000818152603560205260408120905b815481101561074d57856001600160a01b0316828281548110610654576106546124a0565b60009182526020909120600790910201546001600160a01b031614801561069d575084828281548110610689576106896124a0565b906000526020600020906007020160010154145b80156106ce57508181815481106106b6576106b66124a0565b600091825260209091206002600790920201015460ff165b801561072a5750428282815481106106e8576106e86124a0565b90600052602060002090600702016004015483838154811061070c5761070c6124a0565b90600052602060002090600702016003015461072891906124cc565b115b1561073b5760019350505050610755565b80610745816124df565b91505061062f565b506000925050505b92915050565b60008054604051634f4bdc7b60e11b81526001600160a01b0390911690639e97b8f69061078e9084908690600401612444565b602060405180830381865afa1580156107ab573d6000803e3d6000fd5b505050506040513d601f19601f82011682018060405250810190610755919061247e565b603560205281600052604060002081815481106107eb57600080fd5b60009182526020909120600790910201805460018201546002830154600384015460048501546005860180546001600160a01b03909616985093965060ff9092169490939192909161083c906124f8565b80601f0160208091040260200160405190810160405280929190818152602001828054610868906124f8565b80156108b55780601f1061088a576101008083540402835291602001916108b5565b820191906000526020600020905b81548152906001019060200180831161089857829003601f168201915b5050506006909301549192505060ff1687565b6108d061191c565b603360006108dc61190d565b6001600160a01b03168152602081019190915260400160002054156109385760405162461bcd60e51b8152602060048201526012602482015271105b1c9958591e481c9959da5cdd195c995960721b6044820152606401610567565b60008451116109785760405162461bcd60e51b815260206004820152600c60248201526b496e76616c6964206e616d6560a01b6044820152606401610567565b60008351116109c25760405162461bcd60e51b815260206004820152601660248201527524b73b30b634b21039b832b1b4b0b634bd30ba34b7b760511b6044820152606401610567565b603680549060006109d2836124df565b909155505060365480603360006109e761190d565b6001600160a01b03168152602080820192909252604090810160009081209390935583835260349091529020610a1d8682612578565b506000818152603460205260409020600101610a398582612578565b506000818152603460205260409020600201610a558482612578565b506000818152603460205260409020600301610a718382612578565b506000818152603460205260408120600501805460ff1916600190811790915590546001600160a01b031690635d5664e190610aab61190d565b6040518363ffffffff1660e01b8152600401610ac8929190612444565b600060405180830381600087803b158015610ae257600080fd5b505af1158015610af6573d6000803e3d6000fd5b50505050610b0261190d565b6001600160a01b0316817f8de76adc97d5ae61684a14cc77473db8a63c8ce1a9a5a937814252292e41220687604051610b3b9190612341565b60405180910390a35050505050565b610b52611961565b610b5b82611a06565b610b658282611adc565b5050565b6000610b73611b9e565b506000805160206127ec83398151915290565b603460205260009081526040902080548190610ba1906124f8565b80601f0160208091040260200160405190810160405280929190818152602001828054610bcd906124f8565b8015610c1a5780601f10610bef57610100808354040283529160200191610c1a565b820191906000526020600020905b815481529060010190602001808311610bfd57829003601f168201915b505050505090806001018054610c2f906124f8565b80601f0160208091040260200160405190810160405280929190818152602001828054610c5b906124f8565b8015610ca85780601f10610c7d57610100808354040283529160200191610ca8565b820191906000526020600020905b815481529060010190602001808311610c8b57829003601f168201915b505050505090806002018054610cbd906124f8565b80601f0160208091040260200160405190810160405280929190818152602001828054610ce9906124f8565b8015610d365780601f10610d0b57610100808354040283529160200191610d36565b820191906000526020600020905b815481529060010190602001808311610d1957829003601f168201915b505050505090806003018054610d4b906124f8565b80601f0160208091040260200160405190810160405280929190818152602001828054610d77906124f8565b8015610dc45780601f10610d9957610100808354040283529160200191610dc4565b820191906000526020600020905b815481529060010190602001808311610da757829003601f168201915b5050506005909301549192505060ff1685565b6000546001906001600160a01b0316639e97b8f682610df461190d565b6040518363ffffffff1660e01b8152600401610e11929190612444565b602060405180830381865afa158015610e2e573d6000803e3d6000fd5b505050506040513d601f19601f82011682018060405250810190610e52919061247e565b610e6e5760405162461bcd60e51b815260040161056790612638565b60008054906101000a90046001600160a01b03166001600160a01b0316635c975abb6040518163ffffffff1660e01b8152600401602060405180830381865afa158015610ebf573d6000803e3d6000fd5b505050506040513d601f19601f82011682018060405250810190610ee3919061247e565b15610f005760405162461bcd60e51b815260040161056790612679565b600060336000610f0e61190d565b6001600160a01b03166001600160a01b0316815260200190815260200160002054905080600003610f515760405162461bcd60e51b8152600401610567906126b0565b6000818152603560205260409020548310610f9e5760405162461bcd60e51b815260206004820152600d60248201526c092dcecc2d8d2c840d2dcc8caf609b1b6044820152606401610567565b6000818152603560205260408120805485908110610fbe57610fbe6124a0565b600091825260209091206002600790920201908101805460ff191660011790554260038201559050610fee61190d565b815460018301546003840154600485015460408051938452602084019290925282820152516001600160a01b0393841693909216917f4254448439e0665182a52321c28bdc7262a9054bac7953c2d6ff38ec5e38c8c49181900360600190a350505050565b60008054604051632474521560e21b8152600481018590526001600160a01b038481166024830152909116906391d14854906044015b602060405180830381865afa1580156110a6573d6000803e3d6000fd5b505050506040513d601f19601f820116820180604052508101906110ca919061247e565b9392505050565b60008054604051634f4bdc7b60e11b81526001600160a01b0390911690639e97b8f6906110899086908690600401612444565b61110c61191c565b6000546001906001600160a01b0316639e97b8f68261112961190d565b6040518363ffffffff1660e01b8152600401611146929190612444565b602060405180830381865afa158015611163573d6000803e3d6000fd5b505050506040513d601f19601f82011682018060405250810190611187919061247e565b6111a35760405162461bcd60e51b815260040161056790612638565b60008054906101000a90046001600160a01b03166001600160a01b0316635c975abb6040518163ffffffff1660e01b8152600401602060405180830381865afa1580156111f4573d6000803e3d6000fd5b505050506040513d601f19601f82011682018060405250810190611218919061247e565b156112355760405162461bcd60e51b815260040161056790612679565b60006033600061124361190d565b6001600160a01b03166001600160a01b03168152602001908152602001600020549050806000036112865760405162461bcd60e51b8152600401610567906126b0565b6032546001600160a01b031663b6d8539561129f61190d565b6040516001600160e01b031960e084901b1681526001600160a01b0391821660048201529086166024820152604401602060405180830381865afa1580156112eb573d6000803e3d6000fd5b505050506040513d601f19601f8201168201806040525081019061130f919061247e565b61135b5760405162461bcd60e51b815260206004820152601c60248201527f4e6f74206f6e2064757479206174207468697320686f73706974616c000000006044820152606401610567565b6000818152603560209081526040808320815160e0810183526001600160a01b038b811682528185018b815260019483018581524260608501908152610e106080860190815260a086018e815260c087018990528754808a018955978b5298909920855160079097020180546001600160a01b03191696909416959095178355905194820194909455925160028401805460ff19169115159190911790559051600383015592516004820155905160058201906114189082612578565b5060c091909101516006909101805460ff191691151591909117905561143c61190d565b6001600160a01b0316866001600160a01b03167ff63eb721cf6e90d98ead1612f2840591b49b69ad643320eb7b5bae2255d18be0878742604051611482939291906126df565b60405180910390a3505050505050565b7ff0c57e16840df040f15088dc2f81fe391c3923bec73e23a9662efc9c229c6a008054600160401b810460ff16159067ffffffffffffffff166000811580156114d85750825b905060008267ffffffffffffffff1660011480156114f55750303b155b905081158015611503575080155b156115215760405163f92ee8a960e01b815260040160405180910390fd5b845467ffffffffffffffff19166001178555831561154b57845460ff60401b1916600160401b1785555b611553611be7565b61155b611bf7565b61156486611c07565b61156c611c8f565b83156115b257845460ff60401b19168555604051600181527fc7f505b2f371ae2175ee4913f4499e1f2633a7b5936321eed1cdaeb6115181d29060200160405180910390a15b505050505050565b6115c261191c565b6000546001906001600160a01b0316639e97b8f6826115df61190d565b6040518363ffffffff1660e01b81526004016115fc929190612444565b602060405180830381865afa158015611619573d6000803e3d6000fd5b505050506040513d601f19601f8201168201806040525081019061163d919061247e565b6116595760405162461bcd60e51b815260040161056790612638565b60008054906101000a90046001600160a01b03166001600160a01b0316635c975abb6040518163ffffffff1660e01b8152600401602060405180830381865afa1580156116aa573d6000803e3d6000fd5b505050506040513d601f19601f820116820180604052508101906116ce919061247e565b156116eb5760405162461bcd60e51b815260040161056790612679565b6000603360006116f961190d565b6001600160a01b03166001600160a01b031681526020019081526020016000205490508060000361173c5760405162461bcd60e51b8152600401610567906126b0565b6001600160a01b0387166117845760405162461bcd60e51b815260206004820152600f60248201526e125b9d985b1a59081c185d1a595b9d608a1b6044820152606401610567565b60008411801561179857506301e133808411155b6117d75760405162461bcd60e51b815260206004820152601060248201526f24b73b30b634b210323ab930ba34b7b760811b6044820152606401610567565b6000818152603560209081526040808320815160e0810183526001600160a01b038c811682528185018c815293820186815260608301878152608084018c815260a085018c815260c086018a9052865460018082018955978b5298909920855160079099020180546001600160a01b03191698909416979097178355945193820193909355915160028301805460ff19169115159190911790559151600382015591516004830155915160058201906118909082612578565b5060c091909101516006909101805460ff19169115159190911790556118b461190d565b6001600160a01b0316876001600160a01b03167f032e90aba75196c13be708222ec9b6dd8f39ad3f203d525b4169cee70741b3f2888888886040516118fc9493929190612708565b60405180910390a350505050505050565b6000611917611c97565b905090565b7fcd5ed15c6e187e77e9aee88184c21f4f2182ab5827cb3b7e07fbedcd63f033005460ff161561195f5760405163d93c066560e01b815260040160405180910390fd5b565b306001600160a01b037f00000000000000000000000000000000000000000000000000000000000000001614806119e857507f00000000000000000000000000000000000000000000000000000000000000006001600160a01b03166119dc6000805160206127ec833981519152546001600160a01b031690565b6001600160a01b031614155b1561195f5760405163703e46dd60e11b815260040160405180910390fd5b6000546001600160a01b0316639e97b8f66007611a2161190d565b6040518363ffffffff1660e01b8152600401611a3e929190612444565b602060405180830381865afa158015611a5b573d6000803e3d6000fd5b505050506040513d601f19601f82011682018060405250810190611a7f919061247e565b611ad95760405162461bcd60e51b815260206004820152602560248201527f416363657373436f6e74726f6c3a20726573747269637465642d746f2d7570676044820152643930b232b960d91b6064820152608401610567565b50565b816001600160a01b03166352d1902d6040518163ffffffff1660e01b8152600401602060405180830381865afa925050508015611b36575060408051601f3d908101601f19168201909252611b3391810190612744565b60015b611b5e57604051634c9c8ce360e01b81526001600160a01b0383166004820152602401610567565b6000805160206127ec8339815191528114611b8f57604051632a87526960e21b815260048101829052602401610567565b611b998383611d0c565b505050565b306001600160a01b037f0000000000000000000000000000000000000000000000000000000000000000161461195f5760405163703e46dd60e11b815260040160405180910390fd5b611bef611d62565b61195f611dab565b611bff611d62565b61195f611dde565b611c0f611d62565b611c17611c8f565b6001600160a01b038116611c6d5760405162461bcd60e51b815260206004820152601e60248201527f496e76616c69642061636365737320636f6e74726f6c206164647265737300006044820152606401610567565b600080546001600160a01b0319166001600160a01b0392909216919091179055565b61195f611d62565b6000366014336001600160a01b037f000000000000000000000000000000000000000000000000000000000000000016148015611cd45750808210155b15611d0457600036611ce6838561275d565b611cf1928290612770565b611cfa9161279a565b60601c9250505090565b339250505090565b611d1582611e0c565b6040516001600160a01b038316907fbc7cd75a20ee27fd9adebab32041f755214dbc6bffa90cc0225b39da2e5c2d3b90600090a2805115611d5a57611b998282611e71565b610b65611ee7565b7ff0c57e16840df040f15088dc2f81fe391c3923bec73e23a9662efc9c229c6a0054600160401b900460ff1661195f57604051631afcd79f60e31b815260040160405180910390fd5b611db3611d62565b7fcd5ed15c6e187e77e9aee88184c21f4f2182ab5827cb3b7e07fbedcd63f03300805460ff19169055565b611de6611d62565b60017f9b779b17422d0df92223018b32b4d1fa46e071723d6817e2486d003becc55f0055565b806001600160a01b03163b600003611e4257604051634c9c8ce360e01b81526001600160a01b0382166004820152602401610567565b6000805160206127ec83398151915280546001600160a01b0319166001600160a01b0392909216919091179055565b6060600080846001600160a01b031684604051611e8e91906127cf565b600060405180830381855af49150503d8060008114611ec9576040519150601f19603f3d011682016040523d82523d6000602084013e611ece565b606091505b5091509150611ede858383611f06565b95945050505050565b341561195f5760405163b398979f60e01b815260040160405180910390fd5b606082611f1b57611f1682611f62565b6110ca565b8151158015611f3257506001600160a01b0384163b155b15611f5b57604051639996b31560e01b81526001600160a01b0385166004820152602401610567565b5092915050565b805115611f725780518082602001fd5b604051630a12f52160e11b815260040160405180910390fd5b80356001600160a01b0381168114611fa257600080fd5b919050565b600060208284031215611fb957600080fd5b6110ca82611f8b565b60008060408385031215611fd557600080fd5b611fde83611f8b565b946020939093013593505050565b60008060408385031215611fff57600080fd5b50508035926020909101359150565b60005b83811015612029578181015183820152602001612011565b50506000910152565b6000815180845261204a81602086016020860161200e565b601f01601f19169290920160200192915050565b60018060a01b0388168152866020820152851515604082015284606082015283608082015260e060a0820152600061209960e0830185612032565b905082151560c083015298975050505050505050565b634e487b7160e01b600052604160045260246000fd5b600067ffffffffffffffff808411156120e0576120e06120af565b604051601f8501601f19908116603f01168101908282118183101715612108576121086120af565b8160405280935085815286868601111561212157600080fd5b858560208301376000602087830101525050509392505050565b600082601f83011261214c57600080fd5b6110ca838335602085016120c5565b6000806000806080858703121561217157600080fd5b843567ffffffffffffffff8082111561218957600080fd5b6121958883890161213b565b955060208701359150808211156121ab57600080fd5b6121b78883890161213b565b945060408701359150808211156121cd57600080fd5b6121d98883890161213b565b935060608701359150808211156121ef57600080fd5b506121fc8782880161213b565b91505092959194509250565b6000806040838503121561221b57600080fd5b61222483611f8b565b9150602083013567ffffffffffffffff81111561224057600080fd5b8301601f8101851361225157600080fd5b612260858235602084016120c5565b9150509250929050565b60006020828403121561227c57600080fd5b5035919050565b60a08152600061229660a0830188612032565b82810360208401526122a88188612032565b905082810360408401526122bc8187612032565b905082810360608401526122d08186612032565b91505082151560808301529695505050505050565b600080604083850312156122f857600080fd5b8235915061230860208401611f8b565b90509250929050565b6000806040838503121561232457600080fd5b82356009811061233357600080fd5b915061230860208401611f8b565b6020815260006110ca6020830184612032565b6000806000806080858703121561236a57600080fd5b61237385611f8b565b935060208501359250604085013567ffffffffffffffff81111561239657600080fd5b6123a28782880161213b565b9250506123b160608601611f8b565b905092959194509250565b600080600080600060a086880312156123d457600080fd5b6123dd86611f8b565b945060208601359350604086013567ffffffffffffffff8082111561240157600080fd5b61240d89838a0161213b565b945060608801359350608088013591508082111561242a57600080fd5b506124378882890161213b565b9150509295509295909350565b604081016009841061246657634e487b7160e01b600052602160045260246000fd5b9281526001600160a01b039190911660209091015290565b60006020828403121561249057600080fd5b815180151581146110ca57600080fd5b634e487b7160e01b600052603260045260246000fd5b634e487b7160e01b600052601160045260246000fd5b80820180821115610755576107556124b6565b6000600182016124f1576124f16124b6565b5060010190565b600181811c9082168061250c57607f821691505b60208210810361252c57634e487b7160e01b600052602260045260246000fd5b50919050565b601f821115611b9957600081815260208120601f850160051c810160208610156125595750805b601f850160051c820191505b818110156115b257828155600101612565565b815167ffffffffffffffff811115612592576125926120af565b6125a6816125a084546124f8565b84612532565b602080601f8311600181146125db57600084156125c35750858301515b600019600386901b1c1916600185901b1785556115b2565b600085815260208120601f198616915b8281101561260a578886015182559484019460019091019084016125eb565b50858210156126285787850151600019600388901b60f8161c191681555b5050505050600190811b01905550565b60208082526021908201527f416363657373436f6e74726f6c3a20726573747269637465642d746f2d726f6c6040820152606560f81b606082015260800190565b6020808252601b908201527f4d6564695365637572652050726f746f636f6c3a207061757365640000000000604082015260600190565b602080825260159082015274111bd8dd1bdc881b9bdd081c9959da5cdd195c9959605a1b604082015260600190565b8381526060602082015260006126f86060830185612032565b9050826040830152949350505050565b8481526080602082015260006127216080830186612032565b84604084015282810360608401526127398185612032565b979650505050505050565b60006020828403121561275657600080fd5b5051919050565b81810381811115610755576107556124b6565b6000808585111561278057600080fd5b8386111561278d57600080fd5b5050820193919092039150565b6bffffffffffffffffffffffff1981358181169160148510156127c75780818660140360031b1b83161692505b505092915050565b600082516127e181846020870161200e565b919091019291505056fe360894a13ba1a3210667c828492db98dca3e2076cc3735a920a3ca505d382bbca264697066735822122099f5e3a09a756380f1b95de28d517a8d659b6ac21955fecb70a50716a713314a64736f6c63430008140033",
  "linkReferences": {},
  "deployedLinkReferences": {}
}