{
  "_format": "hh-sol-artifact-1",
  "contractName": "InsurancePriceOracle",
  "sourceName": "contracts/InsurancePriceOracle.sol",
  "abi": [
    {
      "inputs": [
        {
          "internalType": "address",
          "name": "_accessControl",
          "type": "address"
        },
        {
          "internalType": "address",
          "name": "_trustedForwarder",
          "type": "address"
        },
        {
          "internalType": "address",
          "name": "_medianizer",
          "type": "address"
        }
      ],
      "stateMutability": "nonpayable",
      "type": "constructor"
    },
    {
      "anonymous": false,
      "inputs": [
        {
          "indexed": false,
          "internalType": "string",
          "name": "asset",
          "type": "string"
        },
        {
          "indexed": false,
          "internalType": "address",
          "name": "feed",
          "type": "address"
        }
      ],
      "name": "PriceFeedUpdated",
      "type": "event"
    },
    {
      "anonymous": false,
      "inputs": [
        {
          "indexed": false,
          "internalType": "string",
          "name": "asset",
          "type": "string"
        },
        {
          "indexed": false,
          "internalType": "uint256",
          "name": "price",
          "type": "uint256"
        }
      ],
      "name": "PriceRequested",
      "type": "event"
    },
    {
      "inputs": [],
      "name": "accessControl",
      "outputs": [
        {
          "internalType": "contract MediSecureAccessControl",
          "name": "",
          "type": "address"
        }
      ],
      "stateMutability": "view",
      "type": "function"
    },
    {
      "inputs": [
        {
          "internalType": "string",
          "name": "asset",
          "type": "string"
        }
      ],
      "name": "getLatestPrice",
      "outputs": [
        {
          "internalType": "uint256",
          "name": "",
          "type": "uint256"
        }
      ],
      "stateMutability": "nonpayable",
      "type": "function"
    },
    {
      "inputs": [
        {
          "internalType": "bytes32",
          "name": "role",
          "type": "bytes32"
        },
        {
          "internalType": "address",
          "name": "account",
          "type": "address"
        }
      ],
      "name": "hasRole",
      "outputs": [
        {
          "internalType": "bool",
          "name": "",
          "type": "bool"
        }
      ],
      "stateMutability": "view",
      "type": "function"
    },
    {
      "inputs": [
        {
          "internalType": "enum Roles",
          "name": "role",
          "type": "uint8"
        },
        {
          "internalType": "address",
          "name": "account",
          "type": "address"
        }
      ],
      "name": "hasRole",
      "outputs": [
        {
          "internalType": "bool",
          "name": "",
          "type": "bool"
        }
      ],
      "stateMutability": "view",
      "type": "function"
    },
    {
      "inputs": [
        {
          "internalType": "address",
          "name": "account",
          "type": "address"
        }
      ],
      "name": "isAdmin",
      "outputs": [
        {
          "internalType": "bool",
          "name": "",
          "type": "bool"
        }
      ],
      "stateMutability": "view",
      "type": "function"
    },
    {
      "inputs": [
        {
          "internalType": "address",
          "name": "forwarder",
          "type": "address"
        }
      ],
      "name": "isTrustedForwarder",
      "outputs": [
        {
          "internalType": "bool",
          "name": "",
          "type": "bool"
        }
      ],
      "stateMutability": "view",
      "type": "function"
    },
    {
      "inputs": [],
      "name": "medianizer",
      "outputs": [
        {
          "internalType": "address",
          "name": "",
          "type": "address"
        }
      ],
      "stateMutability": "view",
      "type": "function"
    },
    {
      "inputs": [
        {
          "internalType": "string",
          "name": "",
          "type": "string"
        }
      ],
      "name": "priceFeeds",
      "outputs": [
        {
          "internalType": "address",
          "name": "",
          "type": "address"
        }
      ],
      "stateMutability": "view",
      "type": "function"
    },
    {
      "inputs": [
        {
          "internalType": "string",
          "name": "asset",
          "type": "string"
        },
        {
          "internalType": "address",
          "name": "feed",
          "type": "address"
        }
      ],
      "name": "setPriceFeed",
      "outputs": [],
      "stateMutability": "nonpayable",
      "type": "function"
    },
    {
      "inputs": [],
      "name": "trustedForwarder",
      "outputs": [
        {
          "internalType": "address",
          "name": "",
          "type": "address"
        }
      ],
      "stateMutability": "view",
      "type": "function"
    }
  ],
  "bytecode": "0x60a060405234801561001057600080fd5b50604051610b94380380610b9483398101604081905261002f916100aa565b6001600160a01b038083166080528390839082161561006457600080546001600160a01b0319166001600160a01b0384161790555b5050600280546001600160a01b0319166001600160a01b0392909216919091179055506100ed9050565b80516001600160a01b03811681146100a557600080fd5b919050565b6000806000606084860312156100bf57600080fd5b6100c88461008e565b92506100d66020850161008e565b91506100e46040850161008e565b90509250925092565b608051610a7e610116600039600081816101190152818161014b01526106240152610a7e6000f3fe608060405234801561001057600080fd5b506004361061009e5760003560e01c806391d148541161006657806391d148541461016f5780639e97b8f614610182578063cb8ae86c14610195578063f3b3347e146101c9578063f66a1b71146101de57600080fd5b8063053571e1146100a357806313007d55146100d357806324d7806c146100e6578063572b6c05146101095780637da0a87714610149575b600080fd5b6002546100b6906001600160a01b031681565b6040516001600160a01b0390911681526020015b60405180910390f35b6000546100b6906001600160a01b031681565b6100f96100f43660046106ae565b6101ff565b60405190151581526020016100ca565b6100f96101173660046106ae565b7f00000000000000000000000000000000000000000000000000000000000000006001600160a01b0390811691161490565b7f00000000000000000000000000000000000000000000000000000000000000006100b6565b6100f961017d3660046106c9565b610279565b6100f96101903660046106f5565b6102f7565b6100b66101a33660046107c8565b80516020818301810180516001825292820191909301209152546001600160a01b031681565b6101dc6101d7366004610805565b61032a565b005b6101f16101ec3660046107c8565b6104c1565b6040519081526020016100ca565b60008054604051634f4bdc7b60e11b81526001600160a01b0390911690639e97b8f690610232908490869060040161084a565b602060405180830381865afa15801561024f573d6000803e3d6000fd5b505050506040513d601f19601f820116820180604052508101906102739190610884565b92915050565b60008054604051632474521560e21b8152600481018590526001600160a01b038481166024830152909116906391d14854906044015b602060405180830381865afa1580156102cc573d6000803e3d6000fd5b505050506040513d601f19601f820116820180604052508101906102f09190610884565b9392505050565b60008054604051634f4bdc7b60e11b81526001600160a01b0390911690639e97b8f6906102af908690869060040161084a565b600080546001600160a01b031690639e97b8f69061034661061d565b6040518363ffffffff1660e01b815260040161036392919061084a565b602060405180830381865afa158015610380573d6000803e3d6000fd5b505050506040513d601f19601f820116820180604052508101906103a49190610884565b6104005760405162461bcd60e51b815260206004820152602260248201527f416363657373436f6e74726f6c3a20726573747269637465642d746f2d61646d60448201526134b760f11b60648201526084015b60405180910390fd5b6001600160a01b0381166104455760405162461bcd60e51b815260206004820152600c60248201526b125b9d985b1a59081999595960a21b60448201526064016103f7565b8060018360405161045691906108ca565b90815260405190819003602001812080546001600160a01b03939093166001600160a01b0319909316929092179091557f74b9819a3b3ab6f1735c195541c4352dec722e0e22f92198d9f1719d2e89a757906104b59084908490610912565b60405180910390a15050565b6000806001836040516104d491906108ca565b908152604051908190036020019020546001600160a01b031690508061052d5760405162461bcd60e51b815260206004820152600e60248201526d11995959081b9bdd08199bdd5b9960921b60448201526064016103f7565b60008190506000816001600160a01b031663feaf968c6040518163ffffffff1660e01b815260040160a060405180830381865afa158015610572573d6000803e3d6000fd5b505050506040513d601f19601f820116820180604052508101906105969190610956565b505050915050600081136105dc5760405162461bcd60e51b815260206004820152600d60248201526c496e76616c696420707269636560981b60448201526064016103f7565b7fe50392ec1ef53dfbbfbb366280c4831b8bde37354fbb6528121d32ae76a9700a858260405161060d9291906109a6565b60405180910390a1949350505050565b60003660147f00000000000000000000000000000000000000000000000000000000000000006001600160a01b03163314801561065a5750808210155b1561068a5760003661066c83856109c8565b6106779282906109e9565b61068091610a13565b60601c9250505090565b339250505090565b80356001600160a01b03811681146106a957600080fd5b919050565b6000602082840312156106c057600080fd5b6102f082610692565b600080604083850312156106dc57600080fd5b823591506106ec60208401610692565b90509250929050565b6000806040838503121561070857600080fd5b82356009811061071757600080fd5b91506106ec60208401610692565b634e487b7160e01b600052604160045260246000fd5b600082601f83011261074c57600080fd5b813567ffffffffffffffff8082111561076757610767610725565b604051601f8301601f19908116603f0116810190828211818310171561078f5761078f610725565b816040528381528660208588010111156107a857600080fd5b836020870160208301376000602085830101528094505050505092915050565b6000602082840312156107da57600080fd5b813567ffffffffffffffff8111156107f157600080fd5b6107fd8482850161073b565b949350505050565b6000806040838503121561081857600080fd5b823567ffffffffffffffff81111561082f57600080fd5b61083b8582860161073b565b9250506106ec60208401610692565b604081016009841061086c57634e487b7160e01b600052602160045260246000fd5b9281526001600160a01b039190911660209091015290565b60006020828403121561089657600080fd5b815180151581146102f057600080fd5b60005b838110156108c15781810151838201526020016108a9565b50506000910152565b600082516108dc8184602087016108a6565b9190910192915050565b600081518084526108fe8160208601602086016108a6565b601f01601f19169290920160200192915050565b60408152600061092560408301856108e6565b905060018060a01b03831660208301529392505050565b805169ffffffffffffffffffff811681146106a957600080fd5b600080600080600060a0868803121561096e57600080fd5b6109778661093c565b945060208601519350604086015192506060860151915061099a6080870161093c565b90509295509295909350565b6040815260006109b960408301856108e6565b90508260208301529392505050565b8181038181111561027357634e487b7160e01b600052601160045260246000fd5b600080858511156109f957600080fd5b83861115610a0657600080fd5b5050820193919092039150565b6bffffffffffffffffffffffff198135818116916014851015610a405780818660140360031b1b83161692505b50509291505056fea264697066735822122087896cad24dc4a4345b15ec67482f274f8e8273702261b6b2f85307774ed0afa64736f6c63430008140033",
  "linkReferences": {},
  "deployedLinkReferences": {}
}