{
  "contractName": "Doctor",
  "abi": [
    {
      "anonymous": false,
      "inputs": [
        {
          "indexed": true,
          "internalType": "address",
          "name": "patient",
          "type": "address"
        },
        {
          "indexed": true,
          "internalType": "address",
          "name": "doctor",
          "type": "address"
        },
        {
          "indexed": false,
          "internalType": "string",
          "name": "ipfsHash",
          "type": "string"
        },
        {
          "indexed": false,
          "internalType": "uint256",
          "name": "grantTime",
          "type": "uint256"
        },
        {
          "indexed": false,
          "internalType": "uint256",
          "name": "duration",
          "type": "uint256"
        }
      ],
      "name": "AccessGranted",
      "type": "event"
    },
    {
      "anonymous": false,
      "inputs": [
        {
          "indexed": true,
          "internalType": "address",
          "name": "patient",
          "type": "address"
        },
        {
          "indexed": true,
          "internalType": "address",
          "name": "doctor",
          "type": "address"
        },
        {
          "indexed": false,
          "internalType": "string",
          "name": "ipfsHash",
          "type": "string"
        },
        {
          "indexed": false,
          "internalType": "string",
          "name": "fileName",
          "type": "string"
        },
        {
          "indexed": false,
          "internalType": "uint256",
          "name": "duration",
          "type": "uint256"
        },
        {
          "indexed": false,
          "internalType": "string",
          "name": "reason",
          "type": "string"
        }
      ],
      "name": "AccessRequested",
      "type": "event"
    },
    {
      "anonymous": false,
      "inputs": [
        {
          "indexed": true,
          "internalType": "address",
          "name": "patient",
          "type": "address"
        },
        {
          "indexed": true,
          "internalType": "address",
          "name": "doctor",
          "type": "address"
        },
        {
          "indexed": false,
          "internalType": "string",
          "name": "ipfsHash",
          "type": "string"
        },
        {
          "indexed": false,
          "internalType": "uint256",
          "name": "revokeTime",
          "type": "uint256"
        }
      ],
      "name": "AccessRevoked",
      "type": "event"
    },
    {
      "anonymous": false,
      "inputs": [
        {
          "indexed": true,
          "internalType": "address",
          "name": "doctor",
          "type": "address"
        },
        {
          "indexed": true,
          "internalType": "address",
          "name": "patient",
          "type": "address"
        },
        {
          "indexed": false,
          "internalType": "string",
          "name": "ipfsHash",
          "type": "string"
        },
        {
          "indexed": false,
          "internalType": "string",
          "name": "reason",
          "type": "string"
        },
        {
          "indexed": false,
          "internalType": "uint256",
          "name": "timestamp",
          "type": "uint256"
        }
      ],
      "name": "EmergencyAccessGranted",
      "type": "event"
    },
    {
      "anonymous": false,
      "inputs": [
        {
          "indexed": true,
          "internalType": "address",
          "name": "patient",
          "type": "address"
        },
        {
          "indexed": true,
          "internalType": "address",
          "name": "resolver",
          "type": "address"
        },
        {
          "indexed": false,
          "internalType": "string",
          "name": "ipfsHash",
          "type": "string"
        },
        {
          "indexed": false,
          "internalType": "uint256",
          "name": "timestamp",
          "type": "uint256"
        }
      ],
      "name": "EmergencyResolved",
      "type": "event"
    },
    {
      "anonymous": false,
      "inputs": [
        {
          "indexed": true,
          "internalType": "uint256",
          "name": "doctorId",
          "type": "uint256"
        },
        {
          "indexed": true,
          "internalType": "uint256",
          "name": "patientId",
          "type": "uint256"
        },
        {
          "indexed": true,
          "internalType": "address",
          "name": "doctor",
          "type": "address"
        }
      ],
      "name": "PatientAdded",
      "type": "event"
    },
    {
      "inputs": [
        {
          "internalType": "uint256",
          "name": "",
          "type": "uint256"
        },
        {
          "internalType": "uint256",
          "name": "",
          "type": "uint256"
        }
      ],
      "name": "doctorAccessList",
      "outputs": [
        {
          "internalType": "address",
          "name": "patient",
          "type": "address"
        },
        {
          "internalType": "string",
          "name": "ipfsHash",
          "type": "string"
        },
        {
          "internalType": "string",
          "name": "fileName",
          "type": "string"
        },
        {
          "internalType": "bool",
          "name": "hasAccess",
          "type": "bool"
        },
        {
          "internalType": "uint256",
          "name": "grantTime",
          "type": "uint256"
        },
        {
          "internalType": "uint256",
          "name": "duration",
          "type": "uint256"
        },
        {
          "internalType": "string",
          "name": "reason",
          "type": "string"
        },
        {
          "internalType": "bool",
          "name": "isEmergency",
          "type": "bool"
        },
        {
          "internalType": "bool",
          "name": "isResolved",
          "type": "bool"
        }
      ],
      "stateMutability": "view",
      "type": "function"
    },
    {
      "inputs": [
        {
          "internalType": "uint256",
          "name": "",
          "type": "uint256"
        }
      ],
      "name": "doctors",
      "outputs": [
        {
          "internalType": "uint256",
          "name": "doctorId",
          "type": "uint256"
        },
        {
          "internalType": "string",
          "name": "name",
          "type": "string"
        },
        {
          "internalType": "string",
          "name": "specialization",
          "type": "string"
        },
        {
          "internalType": "string",
          "name": "email",
          "type": "string"
        }
      ],
      "stateMutability": "view",
      "type": "function"
    },
    {
      "inputs": [
        {
          "internalType": "address",
          "name": "",
          "type": "address"
        }
      ],
      "name": "walletToDoctorId",
      "outputs": [
        {
          "internalType": "uint256",
          "name": "",
          "type": "uint256"
        }
      ],
      "stateMutability": "view",
      "type": "function"
    },
    {
      "inputs": [
        {
          "internalType": "string",
          "name": "_name",
          "type": "string"
        },
        {
          "internalType": "string",
          "name": "_specialization",
          "type": "string"
        },
        {
          "internalType": "string",
          "name": "_hospital",
          "type": "string"
        }
      ],
      "name": "registerDoctor",
      "outputs": [],
      "stateMutability": "nonpayable",
      "type": "function"
    },
    {
      "inputs": [
        {
          "internalType": "uint256",
          "name": "_patientId",
          "type": "uint256"
        }
      ],
      "name": "addPatient",
      "outputs": [],
      "stateMutability": "nonpayable",
      "type": "function"
    },
    {
      "inputs": [],
      "name": "getDoctorPatients",
      "outputs": [
        {
          "internalType": "uint256[]",
          "name": "",
          "type": "uint256[]"
        }
      ],
      "stateMutability": "view",
      "type": "function"
    },
    {
      "inputs": [
        {
          "internalType": "address",
          "name": "_patient",
          "type": "address"
        },
        {
          "internalType": "string",
          "name": "_ipfsHash",
          "type": "string"
        }
      ],
      "name": "hasAccessToDocument",
      "outputs": [
        {
          "internalType": "bool",
          "name": "",
          "type": "bool"
        }
      ],
      "stateMutability": "view",
      "type": "function"
    },
    {
      "inputs": [
        {
          "internalType": "address",
          "name": "_patient",
          "type": "address"
        },
        {
          "internalType": "string",
          "name": "_ipfsHash",
          "type": "string"
        },
        {
          "internalType": "string",
          "name": "_fileName",
          "type": "string"
        },
        {
          "internalType": "uint256",
          "name": "_duration",
          "type": "uint256"
        },
        {
          "internalType": "string",
          "name": "_reason",
          "type": "string"
        }
      ],
      "name": "requestAccess",
      "outputs": [],
      "stateMutability": "nonpayable",
      "type": "function"
    },
    {
      "inputs": [
        {
          "internalType": "address",
          "name": "_patient",
          "type": "address"
        },
        {
          "internalType": "string",
          "name": "_ipfsHash",
          "type": "string"
        },
        {
          "internalType": "string",
          "name": "_fileName",
          "type": "string"
        },
        {
          "internalType": "string",
          "name": "_reason",
          "type": "string"
        }
      ],
      "name": "emergencyBreakGlass",
      "outputs": [],
      "stateMutability": "nonpayable",
      "type": "function"
    },
    {
      "inputs": [
        {
          "internalType": "address",
          "name": "_doctor",
          "type": "address"
        },
        {
          "internalType": "string",
          "name": "_ipfsHash",
          "type": "string"
        },
        {
          "internalType": "uint256",
          "name": "_duration",
          "type": "uint256"
        }
      ],
      "name": "grantAccess",
      "outputs": [],
      "stateMutability": "nonpayable",
      "type": "function"
    },
    {
      "inputs": [
        {
          "internalType": "address",
          "name": "_doctor",
          "type": "address"
        },
        {
          "internalType": "string",
          "name": "_ipfsHash",
          "type": "string"
        }
      ],
      "name": "resolveEmergency",
      "outputs": [],
      "stateMutability": "nonpayable",
      "type": "function"
    },
    {
      "inputs": [
        {
          "internalType": "address",
          "name": "_doctor",
          "type": "address"
        },
        {
          "internalType": "string",
          "name": "_ipfsHash",
          "type": "string"
        }
      ],
      "name": "revokeAccess",
      "outputs": [],
      "stateMutability": "nonpayable",
      "type": "function"
    },
    {
      "inputs": [],
      "name": "getAccessList",
      "outputs": [
        {
          "components": [
            {
              "internalType": "address",
              "name": "patient",
              "type": "address"
            },
            {
              "internalType": "string",
              "name": "ipfsHash",
              "type": "string"
            },
            {
              "internalType": "string",
              "name": "fileName",
              "type": "string"
            },
            {
              "internalType": "bool",
              "name": "hasAccess",
              "type": "bool"
            },
            {
              "internalType": "uint256",
              "name": "grantTime",
              "type": "uint256"
            },
            {
              "internalType": "uint256",
              "name": "duration",
              "type": "uint256"
            },
            {
              "internalType": "string",
              "name": "reason",
              "type": "string"
            },
            {
              "internalType": "bool",
              "name": "isEmergency",
              "type": "bool"
            },
            {
              "internalType": "bool",
              "name": "isResolved",
              "type": "bool"
            }
          ],
          "internalType": "struct Doctor.DocumentAccess[]",
          "name": "",
          "type": "tuple[]"
        }
      ],
      "stateMutability": "view",
      "type": "function"
    },
    {
      "inputs": [],
      "name": "getPatients",
      "outputs": [
        {
          "components": [
            {
              "internalType": "uint256",
              "name": "doctorId",
              "type": "uint256"
            },
            {
              "internalType": "string",
              "name": "name",
              "type": "string"
            },
            {
              "internalType": "string",
              "name": "specialization",
              "type": "string"
            },
            {
              "internalType": "string",
              "name": "email",
              "type": "string"
            },
            {
              "internalType": "uint256[]",
              "name": "patientIds",
              "type": "uint256[]"
            }
          ],
          "internalType": "struct Doctor.DoctorDetails[]",
          "name": "",
          "type": "tuple[]"
        }
      ],
      "stateMutability": "view",
      "type": "function"
    },
    {
      "inputs": [
        {
          "internalType": "address",
          "name": "walletAddress",
          "type": "address"
        }
      ],
      "name": "doctorExists",
      "outputs": [
        {
          "internalType": "bool",
          "name": "",
          "type": "bool"
        }
      ],
      "stateMutability": "view",
      "type": "function"
    },
    {
      "inputs": [],
      "name": "getAllDoctors",
      "outputs": [
        {
          "components": [
            {
              "internalType": "uint256",
              "name": "doctorId",
              "type": "uint256"
            },
            {
              "internalType": "string",
              "name": "name",
              "type": "string"
            },
            {
              "internalType": "string",
              "name": "specialization",
              "type": "string"
            },
            {
              "internalType": "string",
              "name": "email",
              "type": "string"
            },
            {
              "internalType": "uint256[]",
              "name": "patientIds",
              "type": "uint256[]"
            }
          ],
          "internalType": "struct Doctor.DoctorDetails[]",
          "name": "",
          "type": "tuple[]"
        }
      ],
      "stateMutability": "view",
      "type": "function"
    }
  ],
  "bytecode": "0x608060405234801561000f575f80fd5b50613eca8061001d5f395ff3fe608060405234801561000f575f80fd5b50600436106100fe575f3560e01c80637f93a9611161009557806398cf72b31161006457806398cf72b31461029f578063af2e1665146102cf578063f0d95090146102eb578063f6827cd114610309576100fe565b80637f93a9611461022b578063869ef231146102475780638b145ec8146102635780638d5ddbb314610281576100fe565b8063506e08d2116100d1578063506e08d2146101a457806350c7a912146101c05780636a44cac9146101dc5780636efb1b84146101f8576100fe565b806302b66aaf1461010257806312ad1c371461011e5780632ad230a91461013c57806333948de21461016c575b5f80fd5b61011c60048036038101906101179190612c62565b610339565b005b6101266105bc565b6040516101339190612fa1565b60405180910390f35b61015660048036038101906101519190612fc1565b610c0d565b6040516101639190613006565b60405180910390f35b6101866004803603810190610181919061301f565b610c55565b60405161019b999897969594939291906130c3565b60405180910390f35b6101be60048036038101906101b99190613163565b610e8f565b005b6101da60048036038101906101d5919061318e565b611048565b005b6101f660048036038101906101f19190613232565b61117c565b005b610212600480360381019061020d9190613163565b611477565b604051610222949392919061328c565b60405180910390f35b610245600480360381019061024091906132e4565b611635565b005b610261600480360381019061025c9190613350565b611912565b005b61026b611b97565b6040516102789190613474565b60405180910390f35b610289611c82565b604051610296919061363d565b60405180910390f35b6102b960048036038101906102b49190612fc1565b611fd8565b6040516102c6919061365d565b60405180910390f35b6102e960048036038101906102e49190613232565b611fec565b005b6102f36122b0565b6040516103009190612fa1565b60405180910390f35b610323600480360381019061031e9190613232565b61258a565b6040516103309190613006565b60405180910390f35b5f805f3373ffffffffffffffffffffffffffffffffffffffff1673ffffffffffffffffffffffffffffffffffffffff1681526020019081526020015f205490505f81036103bb576040517f08c379a00000000000000000000000000000000000000000000000000000000081526004016103b2906136c0565b60405180910390fd5b60025f8281526020019081526020015f206040518061012001604052808873ffffffffffffffffffffffffffffffffffffffff1681526020018781526020018681526020015f151581526020015f81526020018581526020018481526020015f151581526020015f1515815250908060018154018082558091505060019003905f5260205f2090600802015f909190919091505f820151815f015f6101000a81548173ffffffffffffffffffffffffffffffffffffffff021916908373ffffffffffffffffffffffffffffffffffffffff16021790555060208201518160010190816104a791906138d8565b5060408201518160020190816104bd91906138d8565b506060820151816003015f6101000a81548160ff0219169083151502179055506080820151816004015560a0820151816005015560c082015181600601908161050691906138d8565b5060e0820151816007015f6101000a81548160ff0219169083151502179055506101008201518160070160016101000a81548160ff02191690831515021790555050503373ffffffffffffffffffffffffffffffffffffffff168673ffffffffffffffffffffffffffffffffffffffff167fc4de088654327f2907ad8f0c288704b90c01af218c310b25c1682df9b7c8c7cd878787876040516105ac94939291906139a7565b60405180910390a3505050505050565b60605f805f3373ffffffffffffffffffffffffffffffffffffffff1673ffffffffffffffffffffffffffffffffffffffff1681526020019081526020015f205490505f8103610640576040517f08c379a0000000000000000000000000000000000000000000000000000000008152600401610637906136c0565b60405180910390fd5b5f60025f8381526020019081526020015f20805480602002602001604051908101604052809291908181526020015f905b82821015610909578382905f5260205f209060080201604051806101200160405290815f82015f9054906101000a900473ffffffffffffffffffffffffffffffffffffffff1673ffffffffffffffffffffffffffffffffffffffff1673ffffffffffffffffffffffffffffffffffffffff1681526020016001820180546106f79061370b565b80601f01602080910402602001604051908101604052809291908181526020018280546107239061370b565b801561076e5780601f106107455761010080835404028352916020019161076e565b820191905f5260205f20905b81548152906001019060200180831161075157829003601f168201915b505050505081526020016002820180546107879061370b565b80601f01602080910402602001604051908101604052809291908181526020018280546107b39061370b565b80156107fe5780601f106107d5576101008083540402835291602001916107fe565b820191905f5260205f20905b8154815290600101906020018083116107e157829003601f168201915b50505050508152602001600382015f9054906101000a900460ff1615151515815260200160048201548152602001600582015481526020016006820180546108459061370b565b80601f01602080910402602001604051908101604052809291908181526020018280546108719061370b565b80156108bc5780601f10610893576101008083540402835291602001916108bc565b820191905f5260205f20905b81548152906001019060200180831161089f57829003601f168201915b50505050508152602001600782015f9054906101000a900460ff161515151581526020016007820160019054906101000a900460ff16151515158152505081526020019060010190610671565b5050505090505f815167ffffffffffffffff81111561092b5761092a612b0b565b5b60405190808252806020026020018201604052801561096457816020015b610951612a5a565b8152602001906001900390816109495790505b5090505f805b8351811015610c0257838181518110610986576109856139ff565b5b60200260200101516060015115610bef5760015f8681526020019081526020015f206040518060a00160405290815f82015481526020016001820180546109cc9061370b565b80601f01602080910402602001604051908101604052809291908181526020018280546109f89061370b565b8015610a435780601f10610a1a57610100808354040283529160200191610a43565b820191905f5260205f20905b815481529060010190602001808311610a2657829003601f168201915b50505050508152602001600282018054610a5c9061370b565b80601f0160208091040260200160405190810160405280929190818152602001828054610a889061370b565b8015610ad35780601f10610aaa57610100808354040283529160200191610ad3565b820191905f5260205f20905b815481529060010190602001808311610ab657829003601f168201915b50505050508152602001600382018054610aec9061370b565b80601f0160208091040260200160405190810160405280929190818152602001828054610b189061370b565b8015610b635780601f10610b3a57610100808354040283529160200191610b63565b820191905f5260205f20905b815481529060010190602001808311610b4657829003601f168201915b5050505050815260200160048201805480602002602001604051908101604052809291908181526020018280548015610bb957602002820191905f5260205f20905b815481526020019060010190808311610ba5575b505050505081525050838381518110610bd557610bd46139ff565b5b60200260200101819052508180610beb90613a59565b9250505b8080610bfa90613a59565b91505061096a565b508194505050505090565b5f805f808473ffffffffffffffffffffffffffffffffffffffff1673ffffffffffffffffffffffffffffffffffffffff1681526020019081526020015f205414159050919050565b6002602052815f5260405f208181548110610c6e575f80fd5b905f5260205f2090600802015f9150915050805f015f9054906101000a900473ffffffffffffffffffffffffffffffffffffffff1690806001018054610cb39061370b565b80601f0160208091040260200160405190810160405280929190818152602001828054610cdf9061370b565b8015610d2a5780601f10610d0157610100808354040283529160200191610d2a565b820191905f5260205f20905b815481529060010190602001808311610d0d57829003601f168201915b505050505090806002018054610d3f9061370b565b80601f0160208091040260200160405190810160405280929190818152602001828054610d6b9061370b565b8015610db65780601f10610d8d57610100808354040283529160200191610db6565b820191905f5260205f20905b815481529060010190602001808311610d9957829003601f168201915b505050505090806003015f9054906101000a900460ff1690806004015490806005015490806006018054610de99061370b565b80601f0160208091040260200160405190810160405280929190818152602001828054610e159061370b565b8015610e605780601f10610e3757610100808354040283529160200191610e60565b820191905f5260205f20905b815481529060010190602001808311610e4357829003601f168201915b505050505090806007015f9054906101000a900460ff16908060070160019054906101000a900460ff16905089565b5f805f3373ffffffffffffffffffffffffffffffffffffffff1673ffffffffffffffffffffffffffffffffffffffff1681526020019081526020015f205490505f8103610f11576040517f08c379a0000000000000000000000000000000000000000000000000000000008152600401610f08906136c0565b60405180910390fd5b5f805b60015f8481526020019081526020015f2060040180549050811015610f84578360015f8581526020019081526020015f206004018281548110610f5a57610f596139ff565b5b905f5260205f20015403610f715760019150610f84565b8080610f7c90613a59565b915050610f14565b508015610fc6576040517f08c379a0000000000000000000000000000000000000000000000000000000008152600401610fbd90613aea565b60405180910390fd5b60015f8381526020019081526020015f2060040183908060018154018082558091505060019003905f5260205f20015f90919091909150553373ffffffffffffffffffffffffffffffffffffffff1683837f62e4da5e5c3a89b6dca6a385b8712c06f51bf0855ae5b6abd14937474a4ce01e60405160405180910390a4505050565b5f805f3373ffffffffffffffffffffffffffffffffffffffff1673ffffffffffffffffffffffffffffffffffffffff1681526020019081526020015f2054146110c6576040517f08c379a00000000000000000000000000000000000000000000000000000000081526004016110bd90613b52565b60405180910390fd5b60035f8154809291906110d890613a59565b91905055506003545f803373ffffffffffffffffffffffffffffffffffffffff1673ffffffffffffffffffffffffffffffffffffffff1681526020019081526020015f20819055505f60015f60035481526020019081526020015f209050600354815f01819055508381600101908161115191906138d8565b508281600201908161116391906138d8565b508181600301908161117591906138d8565b5050505050565b5f805f8473ffffffffffffffffffffffffffffffffffffffff1673ffffffffffffffffffffffffffffffffffffffff1681526020019081526020015f205490505f81036111fe576040517f08c379a00000000000000000000000000000000000000000000000000000000081526004016111f5906136c0565b60405180910390fd5b5f60025f8381526020019081526020015f2090505f5b8180549050811015611437573373ffffffffffffffffffffffffffffffffffffffff1682828154811061124a576112496139ff565b5b905f5260205f2090600802015f015f9054906101000a900473ffffffffffffffffffffffffffffffffffffffff1673ffffffffffffffffffffffffffffffffffffffff161480156113075750836040516020016112a79190613baa565b604051602081830303815290604052805190602001208282815481106112d0576112cf6139ff565b5b905f5260205f2090600802016001016040516020016112ef9190613c40565b60405160208183030381529060405280519060200120145b15611424575f8282815481106113205761131f6139ff565b5b905f5260205f2090600802016003015f6101000a81548160ff021916908315150217905550818181548110611358576113576139ff565b5b905f5260205f2090600802016007015f9054906101000a900460ff16156113b557600182828154811061138e5761138d6139ff565b5b905f5260205f20906008020160070160016101000a81548160ff0219169083151502179055505b8473ffffffffffffffffffffffffffffffffffffffff163373ffffffffffffffffffffffffffffffffffffffff167f1852eeec29c8b9e06624d3e3008123c26ddd6173947b6bea9054402ea8ca57ad8642604051611414929190613c56565b60405180910390a3505050611473565b808061142f90613a59565b915050611214565b506040517f08c379a000000000000000000000000000000000000000000000000000000000815260040161146a90613cce565b60405180910390fd5b5050565b6001602052805f5260405f205f91509050805f01549080600101805461149c9061370b565b80601f01602080910402602001604051908101604052809291908181526020018280546114c89061370b565b80156115135780601f106114ea57610100808354040283529160200191611513565b820191905f5260205f20905b8154815290600101906020018083116114f657829003601f168201915b5050505050908060020180546115289061370b565b80601f01602080910402602001604051908101604052809291908181526020018280546115549061370b565b801561159f5780601f106115765761010080835404028352916020019161159f565b820191905f5260205f20905b81548152906001019060200180831161158257829003601f168201915b5050505050908060030180546115b49061370b565b80601f01602080910402602001604051908101604052809291908181526020018280546115e09061370b565b801561162b5780601f106116025761010080835404028352916020019161162b565b820191905f5260205f20905b81548152906001019060200180831161160e57829003601f168201915b5050505050905084565b5f805f8573ffffffffffffffffffffffffffffffffffffffff1673ffffffffffffffffffffffffffffffffffffffff1681526020019081526020015f205490505f81036116b7576040517f08c379a00000000000000000000000000000000000000000000000000000000081526004016116ae906136c0565b60405180910390fd5b5f60025f8381526020019081526020015f2090505f5b81805490508110156118d1573373ffffffffffffffffffffffffffffffffffffffff16828281548110611703576117026139ff565b5b905f5260205f2090600802015f015f9054906101000a900473ffffffffffffffffffffffffffffffffffffffff1673ffffffffffffffffffffffffffffffffffffffff161480156117c05750846040516020016117609190613baa565b60405160208183030381529060405280519060200120828281548110611789576117886139ff565b5b905f5260205f2090600802016001016040516020016117a89190613c40565b60405160208183030381529060405280519060200120145b156118be5760018282815481106117da576117d96139ff565b5b905f5260205f2090600802016003015f6101000a81548160ff02191690831515021790555042828281548110611813576118126139ff565b5b905f5260205f209060080201600401819055508382828154811061183a576118396139ff565b5b905f5260205f209060080201600501819055508573ffffffffffffffffffffffffffffffffffffffff163373ffffffffffffffffffffffffffffffffffffffff167fc298d419e944a3f1e7da1b2245c9f34649b9a6ea67875bcd37e975ef5d7209a38742886040516118ae93929190613cec565b60405180910390a350505061190d565b80806118c990613a59565b9150506116cd565b506040517f08c379a000000000000000000000000000000000000000000000000000000000815260040161190490613d72565b60405180910390fd5b505050565b5f805f3373ffffffffffffffffffffffffffffffffffffffff1673ffffffffffffffffffffffffffffffffffffffff1681526020019081526020015f205490505f8103611994576040517f08c379a000000000000000000000000000000000000000000000000000000000815260040161198b906136c0565b60405180910390fd5b60025f8281526020019081526020015f206040518061012001604052808773ffffffffffffffffffffffffffffffffffffffff1681526020018681526020018581526020016001151581526020014281526020016201518081526020018481526020016001151581526020015f1515815250908060018154018082558091505060019003905f5260205f2090600802015f909190919091505f820151815f015f6101000a81548173ffffffffffffffffffffffffffffffffffffffff021916908373ffffffffffffffffffffffffffffffffffffffff1602179055506020820151816001019081611a8591906138d8565b506040820151816002019081611a9b91906138d8565b506060820151816003015f6101000a81548160ff0219169083151502179055506080820151816004015560a0820151816005015560c0820151816006019081611ae491906138d8565b5060e0820151816007015f6101000a81548160ff0219169083151502179055506101008201518160070160016101000a81548160ff02191690831515021790555050508473ffffffffffffffffffffffffffffffffffffffff163373ffffffffffffffffffffffffffffffffffffffff167fc18b0a731326cfd073d9219b559d4a74aaed4d08716d26c4ace853127d096edb868542604051611b8893929190613d90565b60405180910390a35050505050565b60605f805f3373ffffffffffffffffffffffffffffffffffffffff1673ffffffffffffffffffffffffffffffffffffffff1681526020019081526020015f205490505f8103611c1b576040517f08c379a0000000000000000000000000000000000000000000000000000000008152600401611c12906136c0565b60405180910390fd5b60015f8281526020019081526020015f20600401805480602002602001604051908101604052809291908181526020018280548015611c7757602002820191905f5260205f20905b815481526020019060010190808311611c63575b505050505091505090565b60605f805f3373ffffffffffffffffffffffffffffffffffffffff1673ffffffffffffffffffffffffffffffffffffffff1681526020019081526020015f205490505f8103611d06576040517f08c379a0000000000000000000000000000000000000000000000000000000008152600401611cfd906136c0565b60405180910390fd5b60025f8281526020019081526020015f20805480602002602001604051908101604052809291908181526020015f905b82821015611fce578382905f5260205f209060080201604051806101200160405290815f82015f9054906101000a900473ffffffffffffffffffffffffffffffffffffffff1673ffffffffffffffffffffffffffffffffffffffff1673ffffffffffffffffffffffffffffffffffffffff168152602001600182018054611dbc9061370b565b80601f0160208091040260200160405190810160405280929190818152602001828054611de89061370b565b8015611e335780601f10611e0a57610100808354040283529160200191611e33565b820191905f5260205f20905b815481529060010190602001808311611e1657829003601f168201915b50505050508152602001600282018054611e4c9061370b565b80601f0160208091040260200160405190810160405280929190818152602001828054611e789061370b565b8015611ec35780601f10611e9a57610100808354040283529160200191611ec3565b820191905f5260205f20905b815481529060010190602001808311611ea657829003601f168201915b50505050508152602001600382015f9054906101000a900460ff161515151581526020016004820154815260200160058201548152602001600682018054611f0a9061370b565b80601f0160208091040260200160405190810160405280929190818152602001828054611f369061370b565b8015611f815780601f10611f5857610100808354040283529160200191611f81565b820191905f5260205f20905b815481529060010190602001808311611f6457829003601f168201915b50505050508152602001600782015f9054906101000a900460ff161515151581526020016007820160019054906101000a900460ff16151515158152505081526020019060010190611d36565b5050505091505090565b5f602052805f5260405f205f915090505481565b5f805f8473ffffffffffffffffffffffffffffffffffffffff1673ffffffffffffffffffffffffffffffffffffffff1681526020019081526020015f205490505f810361206e576040517f08c379a0000000000000000000000000000000000000000000000000000000008152600401612065906136c0565b60405180910390fd5b5f60025f8381526020019081526020015f2090505f5b8180549050811015612270573373ffffffffffffffffffffffffffffffffffffffff168282815481106120ba576120b96139ff565b5b905f5260205f2090600802015f015f9054906101000a900473ffffffffffffffffffffffffffffffffffffffff1673ffffffffffffffffffffffffffffffffffffffff161480156121775750836040516020016121179190613baa565b604051602081830303815290604052805190602001208282815481106121405761213f6139ff565b5b905f5260205f20906008020160010160405160200161215f9190613c40565b60405160208183030381529060405280519060200120145b80156121ae5750818181548110612191576121906139ff565b5b905f5260205f2090600802016007015f9054906101000a900460ff165b1561225d5760018282815481106121c8576121c76139ff565b5b905f5260205f20906008020160070160016101000a81548160ff0219169083151502179055503373ffffffffffffffffffffffffffffffffffffffff163373ffffffffffffffffffffffffffffffffffffffff167fbe73bae5f08d7fe7ebd150bf32bcb303131391314609cc522ae754b46286ecc0864260405161224d929190613c56565b60405180910390a35050506122ac565b808061226890613a59565b915050612084565b506040517f08c379a00000000000000000000000000000000000000000000000000000000081526004016122a390613e43565b60405180910390fd5b5050565b60605f60035490505f8167ffffffffffffffff8111156122d3576122d2612b0b565b5b60405190808252806020026020018201604052801561230c57816020015b6122f9612a5a565b8152602001906001900390816122f15790505b5090505f5b828110156125815760015f6001836123299190613e61565b81526020019081526020015f206040518060a00160405290815f820154815260200160018201805461235a9061370b565b80601f01602080910402602001604051908101604052809291908181526020018280546123869061370b565b80156123d15780601f106123a8576101008083540402835291602001916123d1565b820191905f5260205f20905b8154815290600101906020018083116123b457829003601f168201915b505050505081526020016002820180546123ea9061370b565b80601f01602080910402602001604051908101604052809291908181526020018280546124169061370b565b80156124615780601f1061243857610100808354040283529160200191612461565b820191905f5260205f20905b81548152906001019060200180831161244457829003601f168201915b5050505050815260200160038201805461247a9061370b565b80601f01602080910402602001604051908101604052809291908181526020018280546124a69061370b565b80156124f15780601f106124c8576101008083540402835291602001916124f1565b820191905f5260205f20905b8154815290600101906020018083116124d457829003601f168201915b505050505081526020016004820180548060200260200160405190810160405280929190818152602001828054801561254757602002820191905f5260205f20905b815481526020019060010190808311612533575b505050505081525050828281518110612563576125626139ff565b5b6020026020010181905250808061257990613a59565b915050612311565b50809250505090565b5f805f803373ffffffffffffffffffffffffffffffffffffffff1673ffffffffffffffffffffffffffffffffffffffff1681526020019081526020015f205490505f810361260d576040517f08c379a0000000000000000000000000000000000000000000000000000000008152600401612604906136c0565b60405180910390fd5b5f60025f8381526020019081526020015f20805480602002602001604051908101604052809291908181526020015f905b828210156128d6578382905f5260205f209060080201604051806101200160405290815f82015f9054906101000a900473ffffffffffffffffffffffffffffffffffffffff1673ffffffffffffffffffffffffffffffffffffffff1673ffffffffffffffffffffffffffffffffffffffff1681526020016001820180546126c49061370b565b80601f01602080910402602001604051908101604052809291908181526020018280546126f09061370b565b801561273b5780601f106127125761010080835404028352916020019161273b565b820191905f5260205f20905b81548152906001019060200180831161271e57829003601f168201915b505050505081526020016002820180546127549061370b565b80601f01602080910402602001604051908101604052809291908181526020018280546127809061370b565b80156127cb5780601f106127a2576101008083540402835291602001916127cb565b820191905f5260205f20905b8154815290600101906020018083116127ae57829003601f168201915b50505050508152602001600382015f9054906101000a900460ff1615151515815260200160048201548152602001600582015481526020016006820180546128129061370b565b80601f016020809104026020016040519081016040528092919081815260200182805461283e9061370b565b80156128895780601f1061286057610100808354040283529160200191612889565b820191905f5260205f20905b81548152906001019060200180831161286c57829003601f168201915b50505050508152602001600782015f9054906101000a900460ff161515151581526020016007820160019054906101000a900460ff1615151515815250508152602001906001019061263e565b5050505090505f5b8151811015612a4d578573ffffffffffffffffffffffffffffffffffffffff16828281518110612911576129106139ff565b5b60200260200101515f015173ffffffffffffffffffffffffffffffffffffffff161480156129a857508460405160200161294b9190613baa565b60405160208183030381529060405280519060200120828281518110612974576129736139ff565b5b6020026020010151602001516040516020016129909190613baa565b60405160208183030381529060405280519060200120145b80156129cf57508181815181106129c2576129c16139ff565b5b6020026020010151606001515b15612a3a578181815181106129e7576129e66139ff565b5b602002602001015160a00151828281518110612a0657612a056139ff565b5b602002602001015160800151612a1c9190613e61565b421115612a2e575f9350505050612a54565b60019350505050612a54565b8080612a4590613a59565b9150506128de565b505f925050505b92915050565b6040518060a001604052805f8152602001606081526020016060815260200160608152602001606081525090565b5f604051905090565b5f80fd5b5f80fd5b5f73ffffffffffffffffffffffffffffffffffffffff82169050919050565b5f612ac282612a99565b9050919050565b612ad281612ab8565b8114612adc575f80fd5b50565b5f81359050612aed81612ac9565b92915050565b5f80fd5b5f80fd5b5f601f19601f8301169050919050565b7f4e487b71000000000000000000000000000000000000000000000000000000005f52604160045260245ffd5b612b4182612afb565b810181811067ffffffffffffffff82111715612b6057612b5f612b0b565b5b80604052505050565b5f612b72612a88565b9050612b7e8282612b38565b919050565b5f67ffffffffffffffff821115612b9d57612b9c612b0b565b5b612ba682612afb565b9050602081019050919050565b828183375f83830152505050565b5f612bd3612bce84612b83565b612b69565b905082815260208101848484011115612bef57612bee612af7565b5b612bfa848285612bb3565b509392505050565b5f82601f830112612c1657612c15612af3565b5b8135612c26848260208601612bc1565b91505092915050565b5f819050919050565b612c4181612c2f565b8114612c4b575f80fd5b50565b5f81359050612c5c81612c38565b92915050565b5f805f805f60a08688031215612c7b57612c7a612a91565b5b5f612c8888828901612adf565b955050602086013567ffffffffffffffff811115612ca957612ca8612a95565b5b612cb588828901612c02565b945050604086013567ffffffffffffffff811115612cd657612cd5612a95565b5b612ce288828901612c02565b9350506060612cf388828901612c4e565b925050608086013567ffffffffffffffff811115612d1457612d13612a95565b5b612d2088828901612c02565b9150509295509295909350565b5f81519050919050565b5f82825260208201905092915050565b5f819050602082019050919050565b612d5f81612c2f565b82525050565b5f81519050919050565b5f82825260208201905092915050565b5f5b83811015612d9c578082015181840152602081019050612d81565b5f8484015250505050565b5f612db182612d65565b612dbb8185612d6f565b9350612dcb818560208601612d7f565b612dd481612afb565b840191505092915050565b5f81519050919050565b5f82825260208201905092915050565b5f819050602082019050919050565b5f612e138383612d56565b60208301905092915050565b5f602082019050919050565b5f612e3582612ddf565b612e3f8185612de9565b9350612e4a83612df9565b805f5b83811015612e7a578151612e618882612e08565b9750612e6c83612e1f565b925050600181019050612e4d565b5085935050505092915050565b5f60a083015f830151612e9c5f860182612d56565b5060208301518482036020860152612eb48282612da7565b91505060408301518482036040860152612ece8282612da7565b91505060608301518482036060860152612ee88282612da7565b91505060808301518482036080860152612f028282612e2b565b9150508091505092915050565b5f612f1a8383612e87565b905092915050565b5f602082019050919050565b5f612f3882612d2d565b612f428185612d37565b935083602082028501612f5485612d47565b805f5b85811015612f8f5784840389528151612f708582612f0f565b9450612f7b83612f22565b925060208a01995050600181019050612f57565b50829750879550505050505092915050565b5f6020820190508181035f830152612fb98184612f2e565b905092915050565b5f60208284031215612fd657612fd5612a91565b5b5f612fe384828501612adf565b91505092915050565b5f8115159050919050565b61300081612fec565b82525050565b5f6020820190506130195f830184612ff7565b92915050565b5f806040838503121561303557613034612a91565b5b5f61304285828601612c4e565b925050602061305385828601612c4e565b9150509250929050565b61306681612ab8565b82525050565b5f82825260208201905092915050565b5f61308682612d65565b613090818561306c565b93506130a0818560208601612d7f565b6130a981612afb565b840191505092915050565b6130bd81612c2f565b82525050565b5f610120820190506130d75f83018c61305d565b81810360208301526130e9818b61307c565b905081810360408301526130fd818a61307c565b905061310c6060830189612ff7565b61311960808301886130b4565b61312660a08301876130b4565b81810360c0830152613138818661307c565b905061314760e0830185612ff7565b613155610100830184612ff7565b9a9950505050505050505050565b5f6020828403121561317857613177612a91565b5b5f61318584828501612c4e565b91505092915050565b5f805f606084860312156131a5576131a4612a91565b5b5f84013567ffffffffffffffff8111156131c2576131c1612a95565b5b6131ce86828701612c02565b935050602084013567ffffffffffffffff8111156131ef576131ee612a95565b5b6131fb86828701612c02565b925050604084013567ffffffffffffffff81111561321c5761321b612a95565b5b61322886828701612c02565b9150509250925092565b5f806040838503121561324857613247612a91565b5b5f61325585828601612adf565b925050602083013567ffffffffffffffff81111561327657613275612a95565b5b61328285828601612c02565b9150509250929050565b5f60808201905061329f5f8301876130b4565b81810360208301526132b1818661307c565b905081810360408301526132c5818561307c565b905081810360608301526132d9818461307c565b905095945050505050565b5f805f606084860312156132fb576132fa612a91565b5b5f61330886828701612adf565b935050602084013567ffffffffffffffff81111561332957613328612a95565b5b61333586828701612c02565b925050604061334686828701612c4e565b9150509250925092565b5f805f806080858703121561336857613367612a91565b5b5f61337587828801612adf565b945050602085013567ffffffffffffffff81111561339657613395612a95565b5b6133a287828801612c02565b935050604085013567ffffffffffffffff8111156133c3576133c2612a95565b5b6133cf87828801612c02565b925050606085013567ffffffffffffffff8111156133f0576133ef612a95565b5b6133fc87828801612c02565b91505092959194509250565b5f82825260208201905092915050565b5f61342282612ddf565b61342c8185613408565b935061343783612df9565b805f5b8381101561346757815161344e8882612e08565b975061345983612e1f565b92505060018101905061343a565b5085935050505092915050565b5f6020820190508181035f83015261348c8184613418565b905092915050565b5f81519050919050565b5f82825260208201905092915050565b5f819050602082019050919050565b6134c681612ab8565b82525050565b6134d581612fec565b82525050565b5f61012083015f8301516134f15f8601826134bd565b50602083015184820360208601526135098282612da7565b915050604083015184820360408601526135238282612da7565b915050606083015161353860608601826134cc565b50608083015161354b6080860182612d56565b5060a083015161355e60a0860182612d56565b5060c083015184820360c08601526135768282612da7565b91505060e083015161358b60e08601826134cc565b506101008301516135a06101008601826134cc565b508091505092915050565b5f6135b683836134db565b905092915050565b5f602082019050919050565b5f6135d482613494565b6135de818561349e565b9350836020820285016135f0856134ae565b805f5b8581101561362b578484038952815161360c85826135ab565b9450613617836135be565b925060208a019950506001810190506135f3565b50829750879550505050505092915050565b5f6020820190508181035f83015261365581846135ca565b905092915050565b5f6020820190506136705f8301846130b4565b92915050565b7f446f63746f72206e6f74207265676973746572656400000000000000000000005f82015250565b5f6136aa60158361306c565b91506136b582613676565b602082019050919050565b5f6020820190508181035f8301526136d78161369e565b9050919050565b7f4e487b71000000000000000000000000000000000000000000000000000000005f52602260045260245ffd5b5f600282049050600182168061372257607f821691505b602082108103613735576137346136de565b5b50919050565b5f819050815f5260205f209050919050565b5f6020601f8301049050919050565b5f82821b905092915050565b5f600883026137977fffffffffffffffffffffffffffffffffffffffffffffffffffffffffffffffff8261375c565b6137a1868361375c565b95508019841693508086168417925050509392505050565b5f819050919050565b5f6137dc6137d76137d284612c2f565b6137b9565b612c2f565b9050919050565b5f819050919050565b6137f5836137c2565b613809613801826137e3565b848454613768565b825550505050565b5f90565b61381d613811565b6138288184846137ec565b505050565b5b8181101561384b576138405f82613815565b60018101905061382e565b5050565b601f821115613890576138618161373b565b61386a8461374d565b81016020851015613879578190505b61388d6138858561374d565b83018261382d565b50505b505050565b5f82821c905092915050565b5f6138b05f1984600802613895565b1980831691505092915050565b5f6138c883836138a1565b9150826002028217905092915050565b6138e182612d65565b67ffffffffffffffff8111156138fa576138f9612b0b565b5b613904825461370b565b61390f82828561384f565b5f60209050601f831160018114613940575f841561392e578287015190505b61393885826138bd565b86555061399f565b601f19841661394e8661373b565b5f5b8281101561397557848901518255600182019150602085019450602081019050613950565b86831015613992578489015161398e601f8916826138a1565b8355505b6001600288020188555050505b505050505050565b5f6080820190508181035f8301526139bf818761307c565b905081810360208301526139d3818661307c565b90506139e260408301856130b4565b81810360608301526139f4818461307c565b905095945050505050565b7f4e487b71000000000000000000000000000000000000000000000000000000005f52603260045260245ffd5b7f4e487b71000000000000000000000000000000000000000000000000000000005f52601160045260245ffd5b5f613a6382612c2f565b91507fffffffffffffffffffffffffffffffffffffffffffffffffffffffffffffffff8203613a9557613a94613a2c565b5b600182019050919050565b7f50617469656e7420616c726561647920616464656400000000000000000000005f82015250565b5f613ad460158361306c565b9150613adf82613aa0565b602082019050919050565b5f6020820190508181035f830152613b0181613ac8565b9050919050565b7f446f63746f7220616c72656164792072656769737465726564000000000000005f82015250565b5f613b3c60198361306c565b9150613b4782613b08565b602082019050919050565b5f6020820190508181035f830152613b6981613b30565b9050919050565b5f81905092915050565b5f613b8482612d65565b613b8e8185613b70565b9350613b9e818560208601612d7f565b80840191505092915050565b5f613bb58284613b7a565b915081905092915050565b5f8154613bcc8161370b565b613bd68186613b70565b9450600182165f8114613bf05760018114613c0557613c37565b60ff1983168652811515820286019350613c37565b613c0e8561373b565b5f5b83811015613c2f57815481890152600182019150602081019050613c10565b838801955050505b50505092915050565b5f613c4b8284613bc0565b915081905092915050565b5f6040820190508181035f830152613c6e818561307c565b9050613c7d60208301846130b4565b9392505050565b7f416363657373207265636f7264206e6f7420666f756e640000000000000000005f82015250565b5f613cb860178361306c565b9150613cc382613c84565b602082019050919050565b5f6020820190508181035f830152613ce581613cac565b9050919050565b5f6060820190508181035f830152613d04818661307c565b9050613d1360208301856130b4565b613d2060408301846130b4565b949350505050565b7f4163636573732072657175657374206e6f7420666f756e6400000000000000005f82015250565b5f613d5c60188361306c565b9150613d6782613d28565b602082019050919050565b5f6020820190508181035f830152613d8981613d50565b9050919050565b5f6060820190508181035f830152613da8818661307c565b90508181036020830152613dbc818561307c565b9050613dcb60408301846130b4565b949350505050565b7f456d657267656e6379207265636f7264206e6f7420666f756e64206f7220616c5f8201527f7265616479207265736f6c766564000000000000000000000000000000000000602082015250565b5f613e2d602e8361306c565b9150613e3882613dd3565b604082019050919050565b5f6020820190508181035f830152613e5a81613e21565b9050919050565b5f613e6b82612c2f565b9150613e7683612c2f565b9250828201905080821115613e8e57613e8d613a2c565b5b9291505056fea26469706673582212205081481461a3e4df946b089418edc87a18ae300173f816bcfe946c85386ccdde64736f6c63430008140033",
  "immutableReferences": {},
  "source": "// SPDX-License-Identifier: MIT\r\npragma solidity ^0.8.19;\r\n\r\ncontract Doctor {\r\n    struct DoctorDetails {\r\n        uint256 doctorId;\r\n        string name;\r\n        string specialization;\r\n        string email;\r\n        uint256[] patientIds; // List of patients linked to this doctor\r\n    }\r\n\r\n    struct DocumentAccess {\r\n        address patient;\r\n        string ipfsHash;\r\n        string fileName;\r\n        bool hasAccess;\r\n        uint256 grantTime;\r\n        uint256 duration;\r\n        string reason;\r\n        bool isEmergency;\r\n        bool isResolved; // NEW: Alert dismissed?\r\n    }\r\n\r\n    mapping(address => uint256) public walletToDoctorId;\r\n    mapping(uint256 => DoctorDetails) public doctors;\r\n    mapping(uint256 => DocumentAccess[]) public doctorAccessList;\r\n\r\n    uint256 private doctorIdCounter;\r\n\r\n    // --- EVENTS ---\r\n    event AccessRequested(\r\n        address indexed patient,\r\n        address indexed doctor,\r\n        string ipfsHash,\r\n        string fileName,\r\n        uint256 duration,\r\n        string reason\r\n    );\r\n    event AccessGranted(\r\n        address indexed patient,\r\n        address indexed doctor,\r\n        string ipfsHash,\r\n        uint256 grantTime,\r\n        uint256 duration\r\n    );\r\n    event AccessRevoked(\r\n        address indexed patient,\r\n        address indexed doctor,\r\n        string ipfsHash,\r\n        uint256 revokeTime\r\n    );\r\n    event PatientAdded(\r\n        uint256 indexed doctorId,\r\n        uint256 indexed patientId,\r\n        address indexed doctor\r\n    );\r\n    event EmergencyAccessGranted(\r\n        address indexed doctor,\r\n        address indexed patient,\r\n        string ipfsHash,\r\n        string reason,\r\n        uint256 timestamp\r\n    );\r\n    event EmergencyResolved(\r\n        address indexed patient,\r\n        address indexed resolver,\r\n        string ipfsHash,\r\n        uint256 timestamp\r\n    );\r\n\r\n    function registerDoctor(\r\n        string memory _name,\r\n        string memory _specialization,\r\n        string memory _hospital\r\n    ) public {\r\n        require(walletToDoctorId[msg.sender] == 0, \"Doctor already registered\");\r\n        doctorIdCounter++;\r\n        walletToDoctorId[msg.sender] = doctorIdCounter;\r\n\r\n        DoctorDetails storage newDoctor = doctors[doctorIdCounter];\r\n        newDoctor.doctorId = doctorIdCounter;\r\n        newDoctor.name = _name;\r\n        newDoctor.specialization = _specialization;\r\n        newDoctor.email = _hospital;\r\n    }\r\n\r\n    function addPatient(uint256 _patientId) public {\r\n        uint256 doctorId = walletToDoctorId[msg.sender];\r\n        require(doctorId != 0, \"Doctor not registered\");\r\n\r\n        bool exists = false;\r\n        for (uint i = 0; i < doctors[doctorId].patientIds.length; i++) {\r\n            if (doctors[doctorId].patientIds[i] == _patientId) {\r\n                exists = true;\r\n                break;\r\n            }\r\n        }\r\n        require(!exists, \"Patient already added\");\r\n\r\n        doctors[doctorId].patientIds.push(_patientId);\r\n        emit PatientAdded(doctorId, _patientId, msg.sender);\r\n    }\r\n\r\n    function getDoctorPatients() public view returns (uint256[] memory) {\r\n        uint256 doctorId = walletToDoctorId[msg.sender];\r\n        require(doctorId != 0, \"Doctor not registered\");\r\n        return doctors[doctorId].patientIds;\r\n    }\r\n\r\n    function hasAccessToDocument(\r\n        address _patient,\r\n        string memory _ipfsHash\r\n    ) public view returns (bool) {\r\n        uint256 doctorId = walletToDoctorId[msg.sender];\r\n        require(doctorId != 0, \"Doctor not registered\");\r\n\r\n        DocumentAccess[] memory accessList = doctorAccessList[doctorId];\r\n        for (uint256 i = 0; i < accessList.length; i++) {\r\n            if (\r\n                accessList[i].patient == _patient &&\r\n                keccak256(abi.encodePacked(accessList[i].ipfsHash)) ==\r\n                keccak256(abi.encodePacked(_ipfsHash)) &&\r\n                accessList[i].hasAccess\r\n            ) {\r\n                // Check for expiration\r\n                if (\r\n                    block.timestamp >\r\n                    accessList[i].grantTime + accessList[i].duration\r\n                ) {\r\n                    return false;\r\n                }\r\n                return true;\r\n            }\r\n        }\r\n        return false;\r\n    }\r\n\r\n    function requestAccess(\r\n        address _patient,\r\n        string memory _ipfsHash,\r\n        string memory _fileName,\r\n        uint256 _duration,\r\n        string memory _reason\r\n    ) public {\r\n        uint256 doctorId = walletToDoctorId[msg.sender];\r\n        require(doctorId != 0, \"Doctor not registered\");\r\n\r\n        doctorAccessList[doctorId].push(\r\n            DocumentAccess({\r\n                patient: _patient,\r\n                ipfsHash: _ipfsHash,\r\n                fileName: _fileName,\r\n                hasAccess: false,\r\n                grantTime: 0,\r\n                duration: _duration,\r\n                reason: _reason,\r\n                isEmergency: false,\r\n                isResolved: false\r\n            })\r\n        );\r\n\r\n        emit AccessRequested(\r\n            _patient,\r\n            msg.sender,\r\n            _ipfsHash,\r\n            _fileName,\r\n            _duration,\r\n            _reason\r\n        );\r\n    }\r\n\r\n    function emergencyBreakGlass(\r\n        address _patient,\r\n        string memory _ipfsHash,\r\n        string memory _fileName,\r\n        string memory _reason\r\n    ) public {\r\n        uint256 doctorId = walletToDoctorId[msg.sender];\r\n        require(doctorId != 0, \"Doctor not registered\");\r\n\r\n        doctorAccessList[doctorId].push(\r\n            DocumentAccess({\r\n                patient: _patient,\r\n                ipfsHash: _ipfsHash,\r\n                fileName: _fileName,\r\n                hasAccess: true, // Auto Grant\r\n                grantTime: block.timestamp,\r\n                duration: 24 hours, // Fixed duration for emergency\r\n                reason: _reason,\r\n                isEmergency: true,\r\n                isResolved: false\r\n            })\r\n        );\r\n\r\n        emit EmergencyAccessGranted(\r\n            msg.sender,\r\n            _patient,\r\n            _ipfsHash,\r\n            _reason,\r\n            block.timestamp\r\n        );\r\n    }\r\n\r\n    function grantAccess(\r\n        address _doctor,\r\n        string memory _ipfsHash,\r\n        uint256 _duration\r\n    ) public {\r\n        uint256 doctorId = walletToDoctorId[_doctor];\r\n        require(doctorId != 0, \"Doctor not registered\");\r\n\r\n        DocumentAccess[] storage accessList = doctorAccessList[doctorId];\r\n        for (uint256 i = 0; i < accessList.length; i++) {\r\n            if (\r\n                accessList[i].patient == msg.sender &&\r\n                keccak256(abi.encodePacked(accessList[i].ipfsHash)) ==\r\n                keccak256(abi.encodePacked(_ipfsHash))\r\n            ) {\r\n                accessList[i].hasAccess = true;\r\n                accessList[i].grantTime = block.timestamp;\r\n                accessList[i].duration = _duration;\r\n\r\n                emit AccessGranted(\r\n                    msg.sender,\r\n                    _doctor,\r\n                    _ipfsHash,\r\n                    block.timestamp,\r\n                    _duration\r\n                );\r\n                return;\r\n            }\r\n        }\r\n        revert(\"Access request not found\");\r\n    }\r\n\r\n    function resolveEmergency(address _doctor, string memory _ipfsHash) public {\r\n        uint256 doctorId = walletToDoctorId[_doctor];\r\n        require(doctorId != 0, \"Doctor not registered\");\r\n\r\n        DocumentAccess[] storage accessList = doctorAccessList[doctorId];\r\n        for (uint256 i = 0; i < accessList.length; i++) {\r\n            if (\r\n                accessList[i].patient == msg.sender &&\r\n                keccak256(abi.encodePacked(accessList[i].ipfsHash)) ==\r\n                keccak256(abi.encodePacked(_ipfsHash)) &&\r\n                accessList[i].isEmergency\r\n            ) {\r\n                accessList[i].isResolved = true;\r\n                emit EmergencyResolved(\r\n                    msg.sender,\r\n                    msg.sender,\r\n                    _ipfsHash,\r\n                    block.timestamp\r\n                );\r\n                return;\r\n            }\r\n        }\r\n        revert(\"Emergency record not found or already resolved\");\r\n    }\r\n\r\n    function revokeAccess(address _doctor, string memory _ipfsHash) public {\r\n        uint256 doctorId = walletToDoctorId[_doctor];\r\n        require(doctorId != 0, \"Doctor not registered\");\r\n\r\n        DocumentAccess[] storage accessList = doctorAccessList[doctorId];\r\n        for (uint256 i = 0; i < accessList.length; i++) {\r\n            if (\r\n                accessList[i].patient == msg.sender &&\r\n                keccak256(abi.encodePacked(accessList[i].ipfsHash)) ==\r\n                keccak256(abi.encodePacked(_ipfsHash))\r\n            ) {\r\n                accessList[i].hasAccess = false;\r\n                if (accessList[i].isEmergency) {\r\n                    accessList[i].isResolved = true;\r\n                }\r\n                emit AccessRevoked(\r\n                    msg.sender,\r\n                    _doctor,\r\n                    _ipfsHash,\r\n                    block.timestamp\r\n                );\r\n                return;\r\n            }\r\n        }\r\n        revert(\"Access record not found\");\r\n    }\r\n\r\n    // --- GETTERS ---\r\n    function getAccessList() public view returns (DocumentAccess[] memory) {\r\n        uint256 doctorId = walletToDoctorId[msg.sender];\r\n        require(doctorId != 0, \"Doctor not registered\");\r\n        return doctorAccessList[doctorId];\r\n    }\r\n\r\n    function getPatients() public view returns (DoctorDetails[] memory) {\r\n        uint256 doctorId = walletToDoctorId[msg.sender];\r\n        require(doctorId != 0, \"Doctor not registered\");\r\n\r\n        DocumentAccess[] memory accessList = doctorAccessList[doctorId];\r\n        DoctorDetails[] memory patients = new DoctorDetails[](\r\n            accessList.length\r\n        );\r\n        uint256 count = 0;\r\n\r\n        for (uint256 i = 0; i < accessList.length; i++) {\r\n            if (accessList[i].hasAccess) {\r\n                patients[count] = doctors[doctorId];\r\n                count++;\r\n            }\r\n        }\r\n\r\n        return patients;\r\n    }\r\n\r\n    function doctorExists(address walletAddress) public view returns (bool) {\r\n        return walletToDoctorId[walletAddress] != 0;\r\n    }\r\n\r\n    function getAllDoctors() public view returns (DoctorDetails[] memory) {\r\n        uint256 total = doctorIdCounter;\r\n        DoctorDetails[] memory list = new DoctorDetails[](total);\r\n\r\n        for (uint256 i = 0; i < total; i++) {\r\n            list[i] = doctors[i + 1];\r\n        }\r\n\r\n        return list;\r\n    }\r\n}\r\n",
  "sourcePath": "J:\\Users\\ayush\\Desktop\\code\\team-rocket-medi-secure\\contracts\\contracts\\Doctor.sol",
  "compiler": {
    "name": "solc",
    "version": "0.8.20+commit.a1b79de6.Emscripten.clang"
  },
  "schemaVersion": "3.4.16",
  "updatedAt": "2026-01-19T05:02:41.967Z",
  "devdoc": {
    "kind": "dev",
    "methods": {},
    "version": 1
  },
  "userdoc": {
    "kind": "user",
    "methods": {},
    "version": 1
  }
}