{
  "contractName": "Doctor",
  "abi": [
    {
      "inputs": [],
      "stateMutability": "nonpayable",
      "type": "constructor"
    },
    {
      "anonymous": false,
      "inputs": [
        {
          "indexed": true,
          "internalType": "address",
          "name": "patient",
          "type": "address"
        },
        {
          "indexed": true,
          "internalType": "address",
          "name": "doctor",
          "type": "address"
        },
        {
          "indexed": false,
          "internalType": "string",
          "name": "ipfsHash",
          "type": "string"
        },
        {
          "indexed": false,
          "internalType": "uint256",
          "name": "grantTime",
          "type": "uint256"
        },
        {
          "indexed": false,
          "internalType": "uint256",
          "name": "duration",
          "type": "uint256"
        }
      ],
      "name": "AccessGranted",
      "type": "event"
    },
    {
      "anonymous": false,
      "inputs": [
        {
          "indexed": true,
          "internalType": "address",
          "name": "patient",
          "type": "address"
        },
        {
          "indexed": true,
          "internalType": "address",
          "name": "doctor",
          "type": "address"
        },
        {
          "indexed": false,
          "internalType": "string",
          "name": "ipfsHash",
          "type": "string"
        },
        {
          "indexed": false,
          "internalType": "string",
          "name": "fileName",
          "type": "string"
        },
        {
          "indexed": false,
          "internalType": "uint256",
          "name": "duration",
          "type": "uint256"
        },
        {
          "indexed": false,
          "internalType": "string",
          "name": "reason",
          "type": "string"
        }
      ],
      "name": "AccessRequested",
      "type": "event"
    },
    {
      "anonymous": false,
      "inputs": [
        {
          "indexed": true,
          "internalType": "address",
          "name": "patient",
          "type": "address"
        },
        {
          "indexed": true,
          "internalType": "address",
          "name": "doctor",
          "type": "address"
        },
        {
          "indexed": false,
          "internalType": "string",
          "name": "ipfsHash",
          "type": "string"
        },
        {
          "indexed": false,
          "internalType": "uint256",
          "name": "revokeTime",
          "type": "uint256"
        }
      ],
      "name": "AccessRevoked",
      "type": "event"
    },
    {
      "anonymous": false,
      "inputs": [
        {
          "indexed": true,
          "internalType": "address",
          "name": "doctor",
          "type": "address"
        },
        {
          "indexed": true,
          "internalType": "address",
          "name": "patient",
          "type": "address"
        },
        {
          "indexed": false,
          "internalType": "string",
          "name": "ipfsHash",
          "type": "string"
        },
        {
          "indexed": false,
          "internalType": "string",
          "name": "reason",
          "type": "string"
        },
        {
          "indexed": false,
          "internalType": "uint256",
          "name": "timestamp",
          "type": "uint256"
        }
      ],
      "name": "EmergencyAccessGranted",
      "type": "event"
    },
    {
      "anonymous": false,
      "inputs": [
        {
          "indexed": true,
          "internalType": "address",
          "name": "patient",
          "type": "address"
        },
        {
          "indexed": true,
          "internalType": "address",
          "name": "resolver",
          "type": "address"
        },
        {
          "indexed": false,
          "internalType": "string",
          "name": "ipfsHash",
          "type": "string"
        },
        {
          "indexed": false,
          "internalType": "uint256",
          "name": "timestamp",
          "type": "uint256"
        }
      ],
      "name": "EmergencyResolved",
      "type": "event"
    },
    {
      "anonymous": false,
      "inputs": [
        {
          "indexed": true,
          "internalType": "uint256",
          "name": "doctorId",
          "type": "uint256"
        },
        {
          "indexed": true,
          "internalType": "uint256",
          "name": "patientId",
          "type": "uint256"
        },
        {
          "indexed": true,
          "internalType": "address",
          "name": "doctor",
          "type": "address"
        }
      ],
      "name": "PatientAdded",
      "type": "event"
    },
    {
      "inputs": [
        {
          "internalType": "uint256",
          "name": "",
          "type": "uint256"
        },
        {
          "internalType": "uint256",
          "name": "",
          "type": "uint256"
        }
      ],
      "name": "doctorAccessList",
      "outputs": [
        {
          "internalType": "address",
          "name": "patient",
          "type": "address"
        },
        {
          "internalType": "string",
          "name": "ipfsHash",
          "type": "string"
        },
        {
          "internalType": "string",
          "name": "fileName",
          "type": "string"
        },
        {
          "internalType": "bool",
          "name": "hasAccess",
          "type": "bool"
        },
        {
          "internalType": "uint256",
          "name": "grantTime",
          "type": "uint256"
        },
        {
          "internalType": "uint256",
          "name": "duration",
          "type": "uint256"
        },
        {
          "internalType": "string",
          "name": "reason",
          "type": "string"
        },
        {
          "internalType": "bool",
          "name": "isEmergency",
          "type": "bool"
        },
        {
          "internalType": "bool",
          "name": "isResolved",
          "type": "bool"
        }
      ],
      "stateMutability": "view",
      "type": "function",
      "constant": true
    },
    {
      "inputs": [
        {
          "internalType": "uint256",
          "name": "",
          "type": "uint256"
        }
      ],
      "name": "doctors",
      "outputs": [
        {
          "internalType": "uint256",
          "name": "doctorId",
          "type": "uint256"
        },
        {
          "internalType": "string",
          "name": "name",
          "type": "string"
        },
        {
          "internalType": "string",
          "name": "specialization",
          "type": "string"
        },
        {
          "internalType": "string",
          "name": "email",
          "type": "string"
        }
      ],
      "stateMutability": "view",
      "type": "function",
      "constant": true
    },
    {
      "inputs": [],
      "name": "hospitalContract",
      "outputs": [
        {
          "internalType": "address",
          "name": "",
          "type": "address"
        }
      ],
      "stateMutability": "view",
      "type": "function",
      "constant": true
    },
    {
      "inputs": [],
      "name": "owner",
      "outputs": [
        {
          "internalType": "address",
          "name": "",
          "type": "address"
        }
      ],
      "stateMutability": "view",
      "type": "function",
      "constant": true
    },
    {
      "inputs": [
        {
          "internalType": "address",
          "name": "",
          "type": "address"
        }
      ],
      "name": "walletToDoctorId",
      "outputs": [
        {
          "internalType": "uint256",
          "name": "",
          "type": "uint256"
        }
      ],
      "stateMutability": "view",
      "type": "function",
      "constant": true
    },
    {
      "inputs": [
        {
          "internalType": "address",
          "name": "_addr",
          "type": "address"
        }
      ],
      "name": "setHospitalContract",
      "outputs": [],
      "stateMutability": "nonpayable",
      "type": "function"
    },
    {
      "inputs": [
        {
          "internalType": "string",
          "name": "_name",
          "type": "string"
        },
        {
          "internalType": "string",
          "name": "_specialization",
          "type": "string"
        },
        {
          "internalType": "string",
          "name": "_hospital",
          "type": "string"
        }
      ],
      "name": "registerDoctor",
      "outputs": [],
      "stateMutability": "nonpayable",
      "type": "function"
    },
    {
      "inputs": [
        {
          "internalType": "uint256",
          "name": "_patientId",
          "type": "uint256"
        }
      ],
      "name": "addPatient",
      "outputs": [],
      "stateMutability": "nonpayable",
      "type": "function"
    },
    {
      "inputs": [],
      "name": "getDoctorPatients",
      "outputs": [
        {
          "internalType": "uint256[]",
          "name": "",
          "type": "uint256[]"
        }
      ],
      "stateMutability": "view",
      "type": "function",
      "constant": true
    },
    {
      "inputs": [
        {
          "internalType": "address",
          "name": "_patient",
          "type": "address"
        },
        {
          "internalType": "string",
          "name": "_ipfsHash",
          "type": "string"
        }
      ],
      "name": "hasAccessToDocument",
      "outputs": [
        {
          "internalType": "bool",
          "name": "",
          "type": "bool"
        }
      ],
      "stateMutability": "view",
      "type": "function",
      "constant": true
    },
    {
      "inputs": [
        {
          "internalType": "address",
          "name": "_patient",
          "type": "address"
        },
        {
          "internalType": "string",
          "name": "_ipfsHash",
          "type": "string"
        },
        {
          "internalType": "string",
          "name": "_fileName",
          "type": "string"
        },
        {
          "internalType": "uint256",
          "name": "_duration",
          "type": "uint256"
        },
        {
          "internalType": "string",
          "name": "_reason",
          "type": "string"
        }
      ],
      "name": "requestAccess",
      "outputs": [],
      "stateMutability": "nonpayable",
      "type": "function"
    },
    {
      "inputs": [
        {
          "internalType": "address",
          "name": "_patient",
          "type": "address"
        },
        {
          "internalType": "string",
          "name": "_ipfsHash",
          "type": "string"
        },
        {
          "internalType": "string",
          "name": "_fileName",
          "type": "string"
        },
        {
          "internalType": "string",
          "name": "_reason",
          "type": "string"
        },
        {
          "internalType": "address",
          "name": "_hospitalAddress",
          "type": "address"
        }
      ],
      "name": "emergencyBreakGlass",
      "outputs": [],
      "stateMutability": "nonpayable",
      "type": "function"
    },
    {
      "inputs": [
        {
          "internalType": "address",
          "name": "_doctor",
          "type": "address"
        },
        {
          "internalType": "string",
          "name": "_ipfsHash",
          "type": "string"
        },
        {
          "internalType": "uint256",
          "name": "_duration",
          "type": "uint256"
        }
      ],
      "name": "grantAccess",
      "outputs": [],
      "stateMutability": "nonpayable",
      "type": "function"
    },
    {
      "inputs": [
        {
          "internalType": "address",
          "name": "_doctor",
          "type": "address"
        },
        {
          "internalType": "string",
          "name": "_ipfsHash",
          "type": "string"
        }
      ],
      "name": "resolveEmergency",
      "outputs": [],
      "stateMutability": "nonpayable",
      "type": "function"
    },
    {
      "inputs": [
        {
          "internalType": "address",
          "name": "_doctor",
          "type": "address"
        },
        {
          "internalType": "string",
          "name": "_ipfsHash",
          "type": "string"
        }
      ],
      "name": "revokeAccess",
      "outputs": [],
      "stateMutability": "nonpayable",
      "type": "function"
    },
    {
      "inputs": [],
      "name": "getAccessList",
      "outputs": [
        {
          "components": [
            {
              "internalType": "address",
              "name": "patient",
              "type": "address"
            },
            {
              "internalType": "string",
              "name": "ipfsHash",
              "type": "string"
            },
            {
              "internalType": "string",
              "name": "fileName",
              "type": "string"
            },
            {
              "internalType": "bool",
              "name": "hasAccess",
              "type": "bool"
            },
            {
              "internalType": "uint256",
              "name": "grantTime",
              "type": "uint256"
            },
            {
              "internalType": "uint256",
              "name": "duration",
              "type": "uint256"
            },
            {
              "internalType": "string",
              "name": "reason",
              "type": "string"
            },
            {
              "internalType": "bool",
              "name": "isEmergency",
              "type": "bool"
            },
            {
              "internalType": "bool",
              "name": "isResolved",
              "type": "bool"
            }
          ],
          "internalType": "struct Doctor.DocumentAccess[]",
          "name": "",
          "type": "tuple[]"
        }
      ],
      "stateMutability": "view",
      "type": "function",
      "constant": true
    },
    {
      "inputs": [],
      "name": "getPatients",
      "outputs": [
        {
          "components": [
            {
              "internalType": "uint256",
              "name": "doctorId",
              "type": "uint256"
            },
            {
              "internalType": "string",
              "name": "name",
              "type": "string"
            },
            {
              "internalType": "string",
              "name": "specialization",
              "type": "string"
            },
            {
              "internalType": "string",
              "name": "email",
              "type": "string"
            },
            {
              "internalType": "uint256[]",
              "name": "patientIds",
              "type": "uint256[]"
            }
          ],
          "internalType": "struct Doctor.DoctorDetails[]",
          "name": "",
          "type": "tuple[]"
        }
      ],
      "stateMutability": "view",
      "type": "function",
      "constant": true
    },
    {
      "inputs": [
        {
          "internalType": "address",
          "name": "walletAddress",
          "type": "address"
        }
      ],
      "name": "doctorExists",
      "outputs": [
        {
          "internalType": "bool",
          "name": "",
          "type": "bool"
        }
      ],
      "stateMutability": "view",
      "type": "function",
      "constant": true
    },
    {
      "inputs": [],
      "name": "getAllDoctors",
      "outputs": [
        {
          "components": [
            {
              "internalType": "uint256",
              "name": "doctorId",
              "type": "uint256"
            },
            {
              "internalType": "string",
              "name": "name",
              "type": "string"
            },
            {
              "internalType": "string",
              "name": "specialization",
              "type": "string"
            },
            {
              "internalType": "string",
              "name": "email",
              "type": "string"
            },
            {
              "internalType": "uint256[]",
              "name": "patientIds",
              "type": "uint256[]"
            }
          ],
          "internalType": "struct Doctor.DoctorDetails[]",
          "name": "",
          "type": "tuple[]"
        }
      ],
      "stateMutability": "view",
      "type": "function",
      "constant": true
    }
  ],
  "bytecode": "0x608060405234801561000f575f80fd5b503360045f6101000a81548173ffffffffffffffffffffffffffffffffffffffff021916908373ffffffffffffffffffffffffffffffffffffffff1602179055506143fa8061005d5f395ff3fe608060405234801561000f575f80fd5b506004361061011f575f3560e01c80636efb1b84116100ab57806398cf72b31161006f57806398cf72b3146102fc578063af2e16651461032c578063b69c615714610348578063f0d9509014610364578063f6827cd1146103825761011f565b80636efb1b84146102535780637f93a961146102865780638b145ec8146102a25780638d5ddbb3146102c05780638da5cb5b146102de5761011f565b806333948de2116100f257806333948de2146101a957806347dbb71a146101e1578063506e08d2146101ff57806350c7a9121461021b5780636a44cac9146102375761011f565b806302b66aaf1461012357806312ad1c371461013f578063157597541461015d5780632ad230a914610179575b5f80fd5b61013d60048036038101906101389190612f66565b6103b2565b005b610147610635565b60405161015491906132a5565b60405180910390f35b610177600480360381019061017291906132c5565b610c86565b005b610193600480360381019061018e91906132c5565b610d58565b6040516101a0919061330a565b60405180910390f35b6101c360048036038101906101be9190613323565b610da0565b6040516101d8999897969594939291906133c7565b60405180910390f35b6101e9610fda565b6040516101f69190613467565b60405180910390f35b61021960048036038101906102149190613480565b610fff565b005b610235600480360381019061023091906134ab565b6111b8565b005b610251600480360381019061024c919061354f565b6112ec565b005b61026d60048036038101906102689190613480565b6115e7565b60405161027d94939291906135a9565b60405180910390f35b6102a0600480360381019061029b9190613601565b6117a5565b005b6102aa611a82565b6040516102b791906136d9565b60405180910390f35b6102c8611b6d565b6040516102d591906138a2565b60405180910390f35b6102e6611ec3565b6040516102f39190613467565b60405180910390f35b610316600480360381019061031191906132c5565b611ee8565b60405161032391906138c2565b60405180910390f35b6103466004803603810190610341919061354f565b611efc565b005b610362600480360381019061035d91906138db565b6121c0565b005b61036c6125b4565b60405161037991906132a5565b60405180910390f35b61039c6004803603810190610397919061354f565b61288e565b6040516103a9919061330a565b60405180910390f35b5f805f3373ffffffffffffffffffffffffffffffffffffffff1673ffffffffffffffffffffffffffffffffffffffff1681526020019081526020015f205490505f8103610434576040517f08c379a000000000000000000000000000000000000000000000000000000000815260040161042b906139f0565b60405180910390fd5b60025f8281526020019081526020015f206040518061012001604052808873ffffffffffffffffffffffffffffffffffffffff1681526020018781526020018681526020015f151581526020015f81526020018581526020018481526020015f151581526020015f1515815250908060018154018082558091505060019003905f5260205f2090600802015f909190919091505f820151815f015f6101000a81548173ffffffffffffffffffffffffffffffffffffffff021916908373ffffffffffffffffffffffffffffffffffffffff16021790555060208201518160010190816105209190613c08565b5060408201518160020190816105369190613c08565b506060820151816003015f6101000a81548160ff0219169083151502179055506080820151816004015560a0820151816005015560c082015181600601908161057f9190613c08565b5060e0820151816007015f6101000a81548160ff0219169083151502179055506101008201518160070160016101000a81548160ff02191690831515021790555050503373ffffffffffffffffffffffffffffffffffffffff168673ffffffffffffffffffffffffffffffffffffffff167fc4de088654327f2907ad8f0c288704b90c01af218c310b25c1682df9b7c8c7cd878787876040516106259493929190613cd7565b60405180910390a3505050505050565b60605f805f3373ffffffffffffffffffffffffffffffffffffffff1673ffffffffffffffffffffffffffffffffffffffff1681526020019081526020015f205490505f81036106b9576040517f08c379a00000000000000000000000000000000000000000000000000000000081526004016106b0906139f0565b60405180910390fd5b5f60025f8381526020019081526020015f20805480602002602001604051908101604052809291908181526020015f905b82821015610982578382905f5260205f209060080201604051806101200160405290815f82015f9054906101000a900473ffffffffffffffffffffffffffffffffffffffff1673ffffffffffffffffffffffffffffffffffffffff1673ffffffffffffffffffffffffffffffffffffffff16815260200160018201805461077090613a3b565b80601f016020809104026020016040519081016040528092919081815260200182805461079c90613a3b565b80156107e75780601f106107be576101008083540402835291602001916107e7565b820191905f5260205f20905b8154815290600101906020018083116107ca57829003601f168201915b5050505050815260200160028201805461080090613a3b565b80601f016020809104026020016040519081016040528092919081815260200182805461082c90613a3b565b80156108775780601f1061084e57610100808354040283529160200191610877565b820191905f5260205f20905b81548152906001019060200180831161085a57829003601f168201915b50505050508152602001600382015f9054906101000a900460ff1615151515815260200160048201548152602001600582015481526020016006820180546108be90613a3b565b80601f01602080910402602001604051908101604052809291908181526020018280546108ea90613a3b565b80156109355780601f1061090c57610100808354040283529160200191610935565b820191905f5260205f20905b81548152906001019060200180831161091857829003601f168201915b50505050508152602001600782015f9054906101000a900460ff161515151581526020016007820160019054906101000a900460ff161515151581525050815260200190600101906106ea565b5050505090505f815167ffffffffffffffff8111156109a4576109a3612e0f565b5b6040519080825280602002602001820160405280156109dd57816020015b6109ca612d5e565b8152602001906001900390816109c25790505b5090505f805b8351811015610c7b578381815181106109ff576109fe613d2f565b5b60200260200101516060015115610c685760015f8681526020019081526020015f206040518060a00160405290815f8201548152602001600182018054610a4590613a3b565b80601f0160208091040260200160405190810160405280929190818152602001828054610a7190613a3b565b8015610abc5780601f10610a9357610100808354040283529160200191610abc565b820191905f5260205f20905b815481529060010190602001808311610a9f57829003601f168201915b50505050508152602001600282018054610ad590613a3b565b80601f0160208091040260200160405190810160405280929190818152602001828054610b0190613a3b565b8015610b4c5780601f10610b2357610100808354040283529160200191610b4c565b820191905f5260205f20905b815481529060010190602001808311610b2f57829003601f168201915b50505050508152602001600382018054610b6590613a3b565b80601f0160208091040260200160405190810160405280929190818152602001828054610b9190613a3b565b8015610bdc5780601f10610bb357610100808354040283529160200191610bdc565b820191905f5260205f20905b815481529060010190602001808311610bbf57829003601f168201915b5050505050815260200160048201805480602002602001604051908101604052809291908181526020018280548015610c3257602002820191905f5260205f20905b815481526020019060010190808311610c1e575b505050505081525050838381518110610c4e57610c4d613d2f565b5b60200260200101819052508180610c6490613d89565b9250505b8080610c7390613d89565b9150506109e3565b508194505050505090565b60045f9054906101000a900473ffffffffffffffffffffffffffffffffffffffff1673ffffffffffffffffffffffffffffffffffffffff163373ffffffffffffffffffffffffffffffffffffffff1614610d15576040517f08c379a0000000000000000000000000000000000000000000000000000000008152600401610d0c90613e1a565b60405180910390fd5b8060055f6101000a81548173ffffffffffffffffffffffffffffffffffffffff021916908373ffffffffffffffffffffffffffffffffffffffff16021790555050565b5f805f808473ffffffffffffffffffffffffffffffffffffffff1673ffffffffffffffffffffffffffffffffffffffff1681526020019081526020015f205414159050919050565b6002602052815f5260405f208181548110610db9575f80fd5b905f5260205f2090600802015f9150915050805f015f9054906101000a900473ffffffffffffffffffffffffffffffffffffffff1690806001018054610dfe90613a3b565b80601f0160208091040260200160405190810160405280929190818152602001828054610e2a90613a3b565b8015610e755780601f10610e4c57610100808354040283529160200191610e75565b820191905f5260205f20905b815481529060010190602001808311610e5857829003601f168201915b505050505090806002018054610e8a90613a3b565b80601f0160208091040260200160405190810160405280929190818152602001828054610eb690613a3b565b8015610f015780601f10610ed857610100808354040283529160200191610f01565b820191905f5260205f20905b815481529060010190602001808311610ee457829003601f168201915b505050505090806003015f9054906101000a900460ff1690806004015490806005015490806006018054610f3490613a3b565b80601f0160208091040260200160405190810160405280929190818152602001828054610f6090613a3b565b8015610fab5780601f10610f8257610100808354040283529160200191610fab565b820191905f5260205f20905b815481529060010190602001808311610f8e57829003601f168201915b505050505090806007015f9054906101000a900460ff16908060070160019054906101000a900460ff16905089565b60055f9054906101000a900473ffffffffffffffffffffffffffffffffffffffff1681565b5f805f3373ffffffffffffffffffffffffffffffffffffffff1673ffffffffffffffffffffffffffffffffffffffff1681526020019081526020015f205490505f8103611081576040517f08c379a0000000000000000000000000000000000000000000000000000000008152600401611078906139f0565b60405180910390fd5b5f805b60015f8481526020019081526020015f20600401805490508110156110f4578360015f8581526020019081526020015f2060040182815481106110ca576110c9613d2f565b5b905f5260205f200154036110e157600191506110f4565b80806110ec90613d89565b915050611084565b508015611136576040517f08c379a000000000000000000000000000000000000000000000000000000000815260040161112d90613e82565b60405180910390fd5b60015f8381526020019081526020015f2060040183908060018154018082558091505060019003905f5260205f20015f90919091909150553373ffffffffffffffffffffffffffffffffffffffff1683837f62e4da5e5c3a89b6dca6a385b8712c06f51bf0855ae5b6abd14937474a4ce01e60405160405180910390a4505050565b5f805f3373ffffffffffffffffffffffffffffffffffffffff1673ffffffffffffffffffffffffffffffffffffffff1681526020019081526020015f205414611236576040517f08c379a000000000000000000000000000000000000000000000000000000000815260040161122d90613eea565b60405180910390fd5b60035f81548092919061124890613d89565b91905055506003545f803373ffffffffffffffffffffffffffffffffffffffff1673ffffffffffffffffffffffffffffffffffffffff1681526020019081526020015f20819055505f60015f60035481526020019081526020015f209050600354815f0181905550838160010190816112c19190613c08565b50828160020190816112d39190613c08565b50818160030190816112e59190613c08565b5050505050565b5f805f8473ffffffffffffffffffffffffffffffffffffffff1673ffffffffffffffffffffffffffffffffffffffff1681526020019081526020015f205490505f810361136e576040517f08c379a0000000000000000000000000000000000000000000000000000000008152600401611365906139f0565b60405180910390fd5b5f60025f8381526020019081526020015f2090505f5b81805490508110156115a7573373ffffffffffffffffffffffffffffffffffffffff168282815481106113ba576113b9613d2f565b5b905f5260205f2090600802015f015f9054906101000a900473ffffffffffffffffffffffffffffffffffffffff1673ffffffffffffffffffffffffffffffffffffffff161480156114775750836040516020016114179190613f42565b604051602081830303815290604052805190602001208282815481106114405761143f613d2f565b5b905f5260205f20906008020160010160405160200161145f9190613fd8565b60405160208183030381529060405280519060200120145b15611594575f8282815481106114905761148f613d2f565b5b905f5260205f2090600802016003015f6101000a81548160ff0219169083151502179055508181815481106114c8576114c7613d2f565b5b905f5260205f2090600802016007015f9054906101000a900460ff16156115255760018282815481106114fe576114fd613d2f565b5b905f5260205f20906008020160070160016101000a81548160ff0219169083151502179055505b8473ffffffffffffffffffffffffffffffffffffffff163373ffffffffffffffffffffffffffffffffffffffff167f1852eeec29c8b9e06624d3e3008123c26ddd6173947b6bea9054402ea8ca57ad8642604051611584929190613fee565b60405180910390a35050506115e3565b808061159f90613d89565b915050611384565b506040517f08c379a00000000000000000000000000000000000000000000000000000000081526004016115da90614066565b60405180910390fd5b5050565b6001602052805f5260405f205f91509050805f01549080600101805461160c90613a3b565b80601f016020809104026020016040519081016040528092919081815260200182805461163890613a3b565b80156116835780601f1061165a57610100808354040283529160200191611683565b820191905f5260205f20905b81548152906001019060200180831161166657829003601f168201915b50505050509080600201805461169890613a3b565b80601f01602080910402602001604051908101604052809291908181526020018280546116c490613a3b565b801561170f5780601f106116e65761010080835404028352916020019161170f565b820191905f5260205f20905b8154815290600101906020018083116116f257829003601f168201915b50505050509080600301805461172490613a3b565b80601f016020809104026020016040519081016040528092919081815260200182805461175090613a3b565b801561179b5780601f106117725761010080835404028352916020019161179b565b820191905f5260205f20905b81548152906001019060200180831161177e57829003601f168201915b5050505050905084565b5f805f8573ffffffffffffffffffffffffffffffffffffffff1673ffffffffffffffffffffffffffffffffffffffff1681526020019081526020015f205490505f8103611827576040517f08c379a000000000000000000000000000000000000000000000000000000000815260040161181e906139f0565b60405180910390fd5b5f60025f8381526020019081526020015f2090505f5b8180549050811015611a41573373ffffffffffffffffffffffffffffffffffffffff1682828154811061187357611872613d2f565b5b905f5260205f2090600802015f015f9054906101000a900473ffffffffffffffffffffffffffffffffffffffff1673ffffffffffffffffffffffffffffffffffffffff161480156119305750846040516020016118d09190613f42565b604051602081830303815290604052805190602001208282815481106118f9576118f8613d2f565b5b905f5260205f2090600802016001016040516020016119189190613fd8565b60405160208183030381529060405280519060200120145b15611a2e57600182828154811061194a57611949613d2f565b5b905f5260205f2090600802016003015f6101000a81548160ff0219169083151502179055504282828154811061198357611982613d2f565b5b905f5260205f20906008020160040181905550838282815481106119aa576119a9613d2f565b5b905f5260205f209060080201600501819055508573ffffffffffffffffffffffffffffffffffffffff163373ffffffffffffffffffffffffffffffffffffffff167fc298d419e944a3f1e7da1b2245c9f34649b9a6ea67875bcd37e975ef5d7209a3874288604051611a1e93929190614084565b60405180910390a3505050611a7d565b8080611a3990613d89565b91505061183d565b506040517f08c379a0000000000000000000000000000000000000000000000000000000008152600401611a749061410a565b60405180910390fd5b505050565b60605f805f3373ffffffffffffffffffffffffffffffffffffffff1673ffffffffffffffffffffffffffffffffffffffff1681526020019081526020015f205490505f8103611b06576040517f08c379a0000000000000000000000000000000000000000000000000000000008152600401611afd906139f0565b60405180910390fd5b60015f8281526020019081526020015f20600401805480602002602001604051908101604052809291908181526020018280548015611b6257602002820191905f5260205f20905b815481526020019060010190808311611b4e575b505050505091505090565b60605f805f3373ffffffffffffffffffffffffffffffffffffffff1673ffffffffffffffffffffffffffffffffffffffff1681526020019081526020015f205490505f8103611bf1576040517f08c379a0000000000000000000000000000000000000000000000000000000008152600401611be8906139f0565b60405180910390fd5b60025f8281526020019081526020015f20805480602002602001604051908101604052809291908181526020015f905b82821015611eb9578382905f5260205f209060080201604051806101200160405290815f82015f9054906101000a900473ffffffffffffffffffffffffffffffffffffffff1673ffffffffffffffffffffffffffffffffffffffff1673ffffffffffffffffffffffffffffffffffffffff168152602001600182018054611ca790613a3b565b80601f0160208091040260200160405190810160405280929190818152602001828054611cd390613a3b565b8015611d1e5780601f10611cf557610100808354040283529160200191611d1e565b820191905f5260205f20905b815481529060010190602001808311611d0157829003601f168201915b50505050508152602001600282018054611d3790613a3b565b80601f0160208091040260200160405190810160405280929190818152602001828054611d6390613a3b565b8015611dae5780601f10611d8557610100808354040283529160200191611dae565b820191905f5260205f20905b815481529060010190602001808311611d9157829003601f168201915b50505050508152602001600382015f9054906101000a900460ff161515151581526020016004820154815260200160058201548152602001600682018054611df590613a3b565b80601f0160208091040260200160405190810160405280929190818152602001828054611e2190613a3b565b8015611e6c5780601f10611e4357610100808354040283529160200191611e6c565b820191905f5260205f20905b815481529060010190602001808311611e4f57829003601f168201915b50505050508152602001600782015f9054906101000a900460ff161515151581526020016007820160019054906101000a900460ff16151515158152505081526020019060010190611c21565b5050505091505090565b60045f9054906101000a900473ffffffffffffffffffffffffffffffffffffffff1681565b5f602052805f5260405f205f915090505481565b5f805f8473ffffffffffffffffffffffffffffffffffffffff1673ffffffffffffffffffffffffffffffffffffffff1681526020019081526020015f205490505f8103611f7e576040517f08c379a0000000000000000000000000000000000000000000000000000000008152600401611f75906139f0565b60405180910390fd5b5f60025f8381526020019081526020015f2090505f5b8180549050811015612180573373ffffffffffffffffffffffffffffffffffffffff16828281548110611fca57611fc9613d2f565b5b905f5260205f2090600802015f015f9054906101000a900473ffffffffffffffffffffffffffffffffffffffff1673ffffffffffffffffffffffffffffffffffffffff161480156120875750836040516020016120279190613f42565b604051602081830303815290604052805190602001208282815481106120505761204f613d2f565b5b905f5260205f20906008020160010160405160200161206f9190613fd8565b60405160208183030381529060405280519060200120145b80156120be57508181815481106120a1576120a0613d2f565b5b905f5260205f2090600802016007015f9054906101000a900460ff165b1561216d5760018282815481106120d8576120d7613d2f565b5b905f5260205f20906008020160070160016101000a81548160ff0219169083151502179055503373ffffffffffffffffffffffffffffffffffffffff163373ffffffffffffffffffffffffffffffffffffffff167fbe73bae5f08d7fe7ebd150bf32bcb303131391314609cc522ae754b46286ecc0864260405161215d929190613fee565b60405180910390a35050506121bc565b808061217890613d89565b915050611f94565b506040517f08c379a00000000000000000000000000000000000000000000000000000000081526004016121b390614198565b60405180910390fd5b5050565b5f805f3373ffffffffffffffffffffffffffffffffffffffff1673ffffffffffffffffffffffffffffffffffffffff1681526020019081526020015f205490505f8103612242576040517f08c379a0000000000000000000000000000000000000000000000000000000008152600401612239906139f0565b60405180910390fd5b5f73ffffffffffffffffffffffffffffffffffffffff1660055f9054906101000a900473ffffffffffffffffffffffffffffffffffffffff1673ffffffffffffffffffffffffffffffffffffffff16036122d1576040517f08c379a00000000000000000000000000000000000000000000000000000000081526004016122c890614226565b60405180910390fd5b5f60055f9054906101000a900473ffffffffffffffffffffffffffffffffffffffff1673ffffffffffffffffffffffffffffffffffffffff1663b6d8539533856040518363ffffffff1660e01b815260040161232e929190614244565b602060405180830381865afa158015612349573d5f803e3d5ffd5b505050506040513d601f19601f8201168201806040525081019061236d9190614295565b9050806123af576040517f08c379a00000000000000000000000000000000000000000000000000000000081526004016123a690614330565b60405180910390fd5b60025f8381526020019081526020015f206040518061012001604052808973ffffffffffffffffffffffffffffffffffffffff1681526020018881526020018781526020016001151581526020014281526020016201518081526020018681526020016001151581526020015f1515815250908060018154018082558091505060019003905f5260205f2090600802015f909190919091505f820151815f015f6101000a81548173ffffffffffffffffffffffffffffffffffffffff021916908373ffffffffffffffffffffffffffffffffffffffff16021790555060208201518160010190816124a09190613c08565b5060408201518160020190816124b69190613c08565b506060820151816003015f6101000a81548160ff0219169083151502179055506080820151816004015560a0820151816005015560c08201518160060190816124ff9190613c08565b5060e0820151816007015f6101000a81548160ff0219169083151502179055506101008201518160070160016101000a81548160ff02191690831515021790555050508673ffffffffffffffffffffffffffffffffffffffff163373ffffffffffffffffffffffffffffffffffffffff167fc18b0a731326cfd073d9219b559d4a74aaed4d08716d26c4ace853127d096edb8887426040516125a39392919061434e565b60405180910390a350505050505050565b60605f60035490505f8167ffffffffffffffff8111156125d7576125d6612e0f565b5b60405190808252806020026020018201604052801561261057816020015b6125fd612d5e565b8152602001906001900390816125f55790505b5090505f5b828110156128855760015f60018361262d9190614391565b81526020019081526020015f206040518060a00160405290815f820154815260200160018201805461265e90613a3b565b80601f016020809104026020016040519081016040528092919081815260200182805461268a90613a3b565b80156126d55780601f106126ac576101008083540402835291602001916126d5565b820191905f5260205f20905b8154815290600101906020018083116126b857829003601f168201915b505050505081526020016002820180546126ee90613a3b565b80601f016020809104026020016040519081016040528092919081815260200182805461271a90613a3b565b80156127655780601f1061273c57610100808354040283529160200191612765565b820191905f5260205f20905b81548152906001019060200180831161274857829003601f168201915b5050505050815260200160038201805461277e90613a3b565b80601f01602080910402602001604051908101604052809291908181526020018280546127aa90613a3b565b80156127f55780601f106127cc576101008083540402835291602001916127f5565b820191905f5260205f20905b8154815290600101906020018083116127d857829003601f168201915b505050505081526020016004820180548060200260200160405190810160405280929190818152602001828054801561284b57602002820191905f5260205f20905b815481526020019060010190808311612837575b50505050508152505082828151811061286757612866613d2f565b5b6020026020010181905250808061287d90613d89565b915050612615565b50809250505090565b5f805f803373ffffffffffffffffffffffffffffffffffffffff1673ffffffffffffffffffffffffffffffffffffffff1681526020019081526020015f205490505f8103612911576040517f08c379a0000000000000000000000000000000000000000000000000000000008152600401612908906139f0565b60405180910390fd5b5f60025f8381526020019081526020015f20805480602002602001604051908101604052809291908181526020015f905b82821015612bda578382905f5260205f209060080201604051806101200160405290815f82015f9054906101000a900473ffffffffffffffffffffffffffffffffffffffff1673ffffffffffffffffffffffffffffffffffffffff1673ffffffffffffffffffffffffffffffffffffffff1681526020016001820180546129c890613a3b565b80601f01602080910402602001604051908101604052809291908181526020018280546129f490613a3b565b8015612a3f5780601f10612a1657610100808354040283529160200191612a3f565b820191905f5260205f20905b815481529060010190602001808311612a2257829003601f168201915b50505050508152602001600282018054612a5890613a3b565b80601f0160208091040260200160405190810160405280929190818152602001828054612a8490613a3b565b8015612acf5780601f10612aa657610100808354040283529160200191612acf565b820191905f5260205f20905b815481529060010190602001808311612ab257829003601f168201915b50505050508152602001600382015f9054906101000a900460ff161515151581526020016004820154815260200160058201548152602001600682018054612b1690613a3b565b80601f0160208091040260200160405190810160405280929190818152602001828054612b4290613a3b565b8015612b8d5780601f10612b6457610100808354040283529160200191612b8d565b820191905f5260205f20905b815481529060010190602001808311612b7057829003601f168201915b50505050508152602001600782015f9054906101000a900460ff161515151581526020016007820160019054906101000a900460ff16151515158152505081526020019060010190612942565b5050505090505f5b8151811015612d51578573ffffffffffffffffffffffffffffffffffffffff16828281518110612c1557612c14613d2f565b5b60200260200101515f015173ffffffffffffffffffffffffffffffffffffffff16148015612cac575084604051602001612c4f9190613f42565b60405160208183030381529060405280519060200120828281518110612c7857612c77613d2f565b5b602002602001015160200151604051602001612c949190613f42565b60405160208183030381529060405280519060200120145b8015612cd35750818181518110612cc657612cc5613d2f565b5b6020026020010151606001515b15612d3e57818181518110612ceb57612cea613d2f565b5b602002602001015160a00151828281518110612d0a57612d09613d2f565b5b602002602001015160800151612d209190614391565b421115612d32575f9350505050612d58565b60019350505050612d58565b8080612d4990613d89565b915050612be2565b505f925050505b92915050565b6040518060a001604052805f8152602001606081526020016060815260200160608152602001606081525090565b5f604051905090565b5f80fd5b5f80fd5b5f73ffffffffffffffffffffffffffffffffffffffff82169050919050565b5f612dc682612d9d565b9050919050565b612dd681612dbc565b8114612de0575f80fd5b50565b5f81359050612df181612dcd565b92915050565b5f80fd5b5f80fd5b5f601f19601f8301169050919050565b7f4e487b71000000000000000000000000000000000000000000000000000000005f52604160045260245ffd5b612e4582612dff565b810181811067ffffffffffffffff82111715612e6457612e63612e0f565b5b80604052505050565b5f612e76612d8c565b9050612e828282612e3c565b919050565b5f67ffffffffffffffff821115612ea157612ea0612e0f565b5b612eaa82612dff565b9050602081019050919050565b828183375f83830152505050565b5f612ed7612ed284612e87565b612e6d565b905082815260208101848484011115612ef357612ef2612dfb565b5b612efe848285612eb7565b509392505050565b5f82601f830112612f1a57612f19612df7565b5b8135612f2a848260208601612ec5565b91505092915050565b5f819050919050565b612f4581612f33565b8114612f4f575f80fd5b50565b5f81359050612f6081612f3c565b92915050565b5f805f805f60a08688031215612f7f57612f7e612d95565b5b5f612f8c88828901612de3565b955050602086013567ffffffffffffffff811115612fad57612fac612d99565b5b612fb988828901612f06565b945050604086013567ffffffffffffffff811115612fda57612fd9612d99565b5b612fe688828901612f06565b9350506060612ff788828901612f52565b925050608086013567ffffffffffffffff81111561301857613017612d99565b5b61302488828901612f06565b9150509295509295909350565b5f81519050919050565b5f82825260208201905092915050565b5f819050602082019050919050565b61306381612f33565b82525050565b5f81519050919050565b5f82825260208201905092915050565b5f5b838110156130a0578082015181840152602081019050613085565b5f8484015250505050565b5f6130b582613069565b6130bf8185613073565b93506130cf818560208601613083565b6130d881612dff565b840191505092915050565b5f81519050919050565b5f82825260208201905092915050565b5f819050602082019050919050565b5f613117838361305a565b60208301905092915050565b5f602082019050919050565b5f613139826130e3565b61314381856130ed565b935061314e836130fd565b805f5b8381101561317e578151613165888261310c565b975061317083613123565b925050600181019050613151565b5085935050505092915050565b5f60a083015f8301516131a05f86018261305a565b50602083015184820360208601526131b882826130ab565b915050604083015184820360408601526131d282826130ab565b915050606083015184820360608601526131ec82826130ab565b91505060808301518482036080860152613206828261312f565b9150508091505092915050565b5f61321e838361318b565b905092915050565b5f602082019050919050565b5f61323c82613031565b613246818561303b565b9350836020820285016132588561304b565b805f5b8581101561329357848403895281516132748582613213565b945061327f83613226565b925060208a0199505060018101905061325b565b50829750879550505050505092915050565b5f6020820190508181035f8301526132bd8184613232565b905092915050565b5f602082840312156132da576132d9612d95565b5b5f6132e784828501612de3565b91505092915050565b5f8115159050919050565b613304816132f0565b82525050565b5f60208201905061331d5f8301846132fb565b92915050565b5f806040838503121561333957613338612d95565b5b5f61334685828601612f52565b925050602061335785828601612f52565b9150509250929050565b61336a81612dbc565b82525050565b5f82825260208201905092915050565b5f61338a82613069565b6133948185613370565b93506133a4818560208601613083565b6133ad81612dff565b840191505092915050565b6133c181612f33565b82525050565b5f610120820190506133db5f83018c613361565b81810360208301526133ed818b613380565b90508181036040830152613401818a613380565b905061341060608301896132fb565b61341d60808301886133b8565b61342a60a08301876133b8565b81810360c083015261343c8186613380565b905061344b60e08301856132fb565b6134596101008301846132fb565b9a9950505050505050505050565b5f60208201905061347a5f830184613361565b92915050565b5f6020828403121561349557613494612d95565b5b5f6134a284828501612f52565b91505092915050565b5f805f606084860312156134c2576134c1612d95565b5b5f84013567ffffffffffffffff8111156134df576134de612d99565b5b6134eb86828701612f06565b935050602084013567ffffffffffffffff81111561350c5761350b612d99565b5b61351886828701612f06565b925050604084013567ffffffffffffffff81111561353957613538612d99565b5b61354586828701612f06565b9150509250925092565b5f806040838503121561356557613564612d95565b5b5f61357285828601612de3565b925050602083013567ffffffffffffffff81111561359357613592612d99565b5b61359f85828601612f06565b9150509250929050565b5f6080820190506135bc5f8301876133b8565b81810360208301526135ce8186613380565b905081810360408301526135e28185613380565b905081810360608301526135f68184613380565b905095945050505050565b5f805f6060848603121561361857613617612d95565b5b5f61362586828701612de3565b935050602084013567ffffffffffffffff81111561364657613645612d99565b5b61365286828701612f06565b925050604061366386828701612f52565b9150509250925092565b5f82825260208201905092915050565b5f613687826130e3565b613691818561366d565b935061369c836130fd565b805f5b838110156136cc5781516136b3888261310c565b97506136be83613123565b92505060018101905061369f565b5085935050505092915050565b5f6020820190508181035f8301526136f1818461367d565b905092915050565b5f81519050919050565b5f82825260208201905092915050565b5f819050602082019050919050565b61372b81612dbc565b82525050565b61373a816132f0565b82525050565b5f61012083015f8301516137565f860182613722565b506020830151848203602086015261376e82826130ab565b9150506040830151848203604086015261378882826130ab565b915050606083015161379d6060860182613731565b5060808301516137b0608086018261305a565b5060a08301516137c360a086018261305a565b5060c083015184820360c08601526137db82826130ab565b91505060e08301516137f060e0860182613731565b50610100830151613805610100860182613731565b508091505092915050565b5f61381b8383613740565b905092915050565b5f602082019050919050565b5f613839826136f9565b6138438185613703565b93508360208202850161385585613713565b805f5b8581101561389057848403895281516138718582613810565b945061387c83613823565b925060208a01995050600181019050613858565b50829750879550505050505092915050565b5f6020820190508181035f8301526138ba818461382f565b905092915050565b5f6020820190506138d55f8301846133b8565b92915050565b5f805f805f60a086880312156138f4576138f3612d95565b5b5f61390188828901612de3565b955050602086013567ffffffffffffffff81111561392257613921612d99565b5b61392e88828901612f06565b945050604086013567ffffffffffffffff81111561394f5761394e612d99565b5b61395b88828901612f06565b935050606086013567ffffffffffffffff81111561397c5761397b612d99565b5b61398888828901612f06565b925050608061399988828901612de3565b9150509295509295909350565b7f446f63746f72206e6f74207265676973746572656400000000000000000000005f82015250565b5f6139da601583613370565b91506139e5826139a6565b602082019050919050565b5f6020820190508181035f830152613a07816139ce565b9050919050565b7f4e487b71000000000000000000000000000000000000000000000000000000005f52602260045260245ffd5b5f6002820490506001821680613a5257607f821691505b602082108103613a6557613a64613a0e565b5b50919050565b5f819050815f5260205f209050919050565b5f6020601f8301049050919050565b5f82821b905092915050565b5f60088302613ac77fffffffffffffffffffffffffffffffffffffffffffffffffffffffffffffffff82613a8c565b613ad18683613a8c565b95508019841693508086168417925050509392505050565b5f819050919050565b5f613b0c613b07613b0284612f33565b613ae9565b612f33565b9050919050565b5f819050919050565b613b2583613af2565b613b39613b3182613b13565b848454613a98565b825550505050565b5f90565b613b4d613b41565b613b58818484613b1c565b505050565b5b81811015613b7b57613b705f82613b45565b600181019050613b5e565b5050565b601f821115613bc057613b9181613a6b565b613b9a84613a7d565b81016020851015613ba9578190505b613bbd613bb585613a7d565b830182613b5d565b50505b505050565b5f82821c905092915050565b5f613be05f1984600802613bc5565b1980831691505092915050565b5f613bf88383613bd1565b9150826002028217905092915050565b613c1182613069565b67ffffffffffffffff811115613c2a57613c29612e0f565b5b613c348254613a3b565b613c3f828285613b7f565b5f60209050601f831160018114613c70575f8415613c5e578287015190505b613c688582613bed565b865550613ccf565b601f198416613c7e86613a6b565b5f5b82811015613ca557848901518255600182019150602085019450602081019050613c80565b86831015613cc25784890151613cbe601f891682613bd1565b8355505b6001600288020188555050505b505050505050565b5f6080820190508181035f830152613cef8187613380565b90508181036020830152613d038186613380565b9050613d1260408301856133b8565b8181036060830152613d248184613380565b905095945050505050565b7f4e487b71000000000000000000000000000000000000000000000000000000005f52603260045260245ffd5b7f4e487b71000000000000000000000000000000000000000000000000000000005f52601160045260245ffd5b5f613d9382612f33565b91507fffffffffffffffffffffffffffffffffffffffffffffffffffffffffffffffff8203613dc557613dc4613d5c565b5b600182019050919050565b7f4f6e6c79206f776e65722063616e2063616c6c207468697300000000000000005f82015250565b5f613e04601883613370565b9150613e0f82613dd0565b602082019050919050565b5f6020820190508181035f830152613e3181613df8565b9050919050565b7f50617469656e7420616c726561647920616464656400000000000000000000005f82015250565b5f613e6c601583613370565b9150613e7782613e38565b602082019050919050565b5f6020820190508181035f830152613e9981613e60565b9050919050565b7f446f63746f7220616c72656164792072656769737465726564000000000000005f82015250565b5f613ed4601983613370565b9150613edf82613ea0565b602082019050919050565b5f6020820190508181035f830152613f0181613ec8565b9050919050565b5f81905092915050565b5f613f1c82613069565b613f268185613f08565b9350613f36818560208601613083565b80840191505092915050565b5f613f4d8284613f12565b915081905092915050565b5f8154613f6481613a3b565b613f6e8186613f08565b9450600182165f8114613f885760018114613f9d57613fcf565b60ff1983168652811515820286019350613fcf565b613fa685613a6b565b5f5b83811015613fc757815481890152600182019150602081019050613fa8565b838801955050505b50505092915050565b5f613fe38284613f58565b915081905092915050565b5f6040820190508181035f8301526140068185613380565b905061401560208301846133b8565b9392505050565b7f416363657373207265636f7264206e6f7420666f756e640000000000000000005f82015250565b5f614050601783613370565b915061405b8261401c565b602082019050919050565b5f6020820190508181035f83015261407d81614044565b9050919050565b5f6060820190508181035f83015261409c8186613380565b90506140ab60208301856133b8565b6140b860408301846133b8565b949350505050565b7f4163636573732072657175657374206e6f7420666f756e6400000000000000005f82015250565b5f6140f4601883613370565b91506140ff826140c0565b602082019050919050565b5f6020820190508181035f830152614121816140e8565b9050919050565b7f456d657267656e6379207265636f7264206e6f7420666f756e64206f7220616c5f8201527f7265616479207265736f6c766564000000000000000000000000000000000000602082015250565b5f614182602e83613370565b915061418d82614128565b604082019050919050565b5f6020820190508181035f8301526141af81614176565b9050919050565b7f486f73706974616c20766572696669636174696f6e2073797374656d206e6f745f8201527f2073657400000000000000000000000000000000000000000000000000000000602082015250565b5f614210602483613370565b915061421b826141b6565b604082019050919050565b5f6020820190508181035f83015261423d81614204565b9050919050565b5f6040820190506142575f830185613361565b6142646020830184613361565b9392505050565b614274816132f0565b811461427e575f80fd5b50565b5f8151905061428f8161426b565b92915050565b5f602082840312156142aa576142a9612d95565b5b5f6142b784828501614281565b91505092915050565b7f446f63746f72206973206e6f742070756e6368656420696e20666f7220656d655f8201527f7267656e63792064757479206174207468697320686f73706974616c00000000602082015250565b5f61431a603c83613370565b9150614325826142c0565b604082019050919050565b5f6020820190508181035f8301526143478161430e565b9050919050565b5f6060820190508181035f8301526143668186613380565b9050818103602083015261437a8185613380565b905061438960408301846133b8565b949350505050565b5f61439b82612f33565b91506143a683612f33565b92508282019050808211156143be576143bd613d5c565b5b9291505056fea264697066735822122086dbe69e65587cb2de537fbcb71875283906d17149fa0ced3f8d98fd87e1c65264736f6c63430008140033",
  "immutableReferences": {},
  "source": "// SPDX-License-Identifier: MIT\r\npragma solidity ^0.8.19;\r\n\r\ninterface IHospital {\r\n    function isDoctorOnDuty(address _doctor, address _hospitalAddress) external view returns (bool);\r\n}\r\n\r\ncontract Doctor {\r\n    struct DoctorDetails {\r\n        uint256 doctorId;\r\n        string name;\r\n        string specialization;\r\n        string email;\r\n        uint256[] patientIds; // List of patients linked to this doctor\r\n    }\r\n\r\n    struct DocumentAccess {\r\n        address patient;\r\n        string ipfsHash;\r\n        string fileName;\r\n        bool hasAccess;\r\n        uint256 grantTime;\r\n        uint256 duration;\r\n        string reason;\r\n        bool isEmergency;\r\n        bool isResolved; // NEW: Alert dismissed?\r\n    }\r\n\r\n    mapping(address => uint256) public walletToDoctorId;\r\n    mapping(uint256 => DoctorDetails) public doctors;\r\n    mapping(uint256 => DocumentAccess[]) public doctorAccessList;\r\n\r\n    uint256 private doctorIdCounter;\r\n\r\n    // Hospital Verification\r\n    address public owner;\r\n    address public hospitalContract;\r\n\r\n    // --- EVENTS ---\r\n    event AccessRequested(\r\n        address indexed patient,\r\n        address indexed doctor,\r\n        string ipfsHash,\r\n        string fileName,\r\n        uint256 duration,\r\n        string reason\r\n    );\r\n    event AccessGranted(\r\n        address indexed patient,\r\n        address indexed doctor,\r\n        string ipfsHash,\r\n        uint256 grantTime,\r\n        uint256 duration\r\n    );\r\n    event AccessRevoked(\r\n        address indexed patient,\r\n        address indexed doctor,\r\n        string ipfsHash,\r\n        uint256 revokeTime\r\n    );\r\n    event PatientAdded(\r\n        uint256 indexed doctorId,\r\n        uint256 indexed patientId,\r\n        address indexed doctor\r\n    );\r\n    event EmergencyAccessGranted(\r\n        address indexed doctor,\r\n        address indexed patient,\r\n        string ipfsHash,\r\n        string reason,\r\n        uint256 timestamp\r\n    );\r\n    event EmergencyResolved(\r\n        address indexed patient,\r\n        address indexed resolver,\r\n        string ipfsHash,\r\n        uint256 timestamp\r\n    );\r\n\r\n    constructor() {\r\n        owner = msg.sender;\r\n    }\r\n\r\n    modifier onlyOwner() {\r\n        require(msg.sender == owner, \"Only owner can call this\");\r\n        _;\r\n    }\r\n\r\n    function setHospitalContract(address _addr) public onlyOwner {\r\n        hospitalContract = _addr;\r\n    }\r\n\r\n    function registerDoctor(\r\n        string memory _name,\r\n        string memory _specialization,\r\n        string memory _hospital\r\n    ) public {\r\n        require(walletToDoctorId[msg.sender] == 0, \"Doctor already registered\");\r\n        doctorIdCounter++;\r\n        walletToDoctorId[msg.sender] = doctorIdCounter;\r\n\r\n        DoctorDetails storage newDoctor = doctors[doctorIdCounter];\r\n        newDoctor.doctorId = doctorIdCounter;\r\n        newDoctor.name = _name;\r\n        newDoctor.specialization = _specialization;\r\n        newDoctor.email = _hospital; // Keeping legacy field mapping for now\r\n    }\r\n\r\n    function addPatient(uint256 _patientId) public {\r\n        uint256 doctorId = walletToDoctorId[msg.sender];\r\n        require(doctorId != 0, \"Doctor not registered\");\r\n\r\n        bool exists = false;\r\n        for (uint i = 0; i < doctors[doctorId].patientIds.length; i++) {\r\n            if (doctors[doctorId].patientIds[i] == _patientId) {\r\n                exists = true;\r\n                break;\r\n            }\r\n        }\r\n        require(!exists, \"Patient already added\");\r\n\r\n        doctors[doctorId].patientIds.push(_patientId);\r\n        emit PatientAdded(doctorId, _patientId, msg.sender);\r\n    }\r\n\r\n    function getDoctorPatients() public view returns (uint256[] memory) {\r\n        uint256 doctorId = walletToDoctorId[msg.sender];\r\n        require(doctorId != 0, \"Doctor not registered\");\r\n        return doctors[doctorId].patientIds;\r\n    }\r\n\r\n    function hasAccessToDocument(\r\n        address _patient,\r\n        string memory _ipfsHash\r\n    ) public view returns (bool) {\r\n        uint256 doctorId = walletToDoctorId[msg.sender];\r\n        require(doctorId != 0, \"Doctor not registered\");\r\n\r\n        DocumentAccess[] memory accessList = doctorAccessList[doctorId];\r\n        for (uint256 i = 0; i < accessList.length; i++) {\r\n            if (\r\n                accessList[i].patient == _patient &&\r\n                keccak256(abi.encodePacked(accessList[i].ipfsHash)) ==\r\n                keccak256(abi.encodePacked(_ipfsHash)) &&\r\n                accessList[i].hasAccess\r\n            ) {\r\n                // Check for expiration\r\n                if (\r\n                    block.timestamp >\r\n                    accessList[i].grantTime + accessList[i].duration\r\n                ) {\r\n                    return false;\r\n                }\r\n                return true;\r\n            }\r\n        }\r\n        return false;\r\n    }\r\n\r\n    function requestAccess(\r\n        address _patient,\r\n        string memory _ipfsHash,\r\n        string memory _fileName,\r\n        uint256 _duration,\r\n        string memory _reason\r\n    ) public {\r\n        uint256 doctorId = walletToDoctorId[msg.sender];\r\n        require(doctorId != 0, \"Doctor not registered\");\r\n\r\n        doctorAccessList[doctorId].push(\r\n            DocumentAccess({\r\n                patient: _patient,\r\n                ipfsHash: _ipfsHash,\r\n                fileName: _fileName,\r\n                hasAccess: false,\r\n                grantTime: 0,\r\n                duration: _duration,\r\n                reason: _reason,\r\n                isEmergency: false,\r\n                isResolved: false\r\n            })\r\n        );\r\n\r\n        emit AccessRequested(\r\n            _patient,\r\n            msg.sender,\r\n            _ipfsHash,\r\n            _fileName,\r\n            _duration,\r\n            _reason\r\n        );\r\n    }\r\n\r\n    function emergencyBreakGlass(\r\n        address _patient,\r\n        string memory _ipfsHash,\r\n        string memory _fileName,\r\n        string memory _reason,\r\n        address _hospitalAddress\r\n    ) public {\r\n        uint256 doctorId = walletToDoctorId[msg.sender];\r\n        require(doctorId != 0, \"Doctor not registered\");\r\n        require(hospitalContract != address(0), \"Hospital verification system not set\");\r\n        \r\n        // Verify with Hospital Contract\r\n        bool onDuty = IHospital(hospitalContract).isDoctorOnDuty(msg.sender, _hospitalAddress);\r\n        require(onDuty, \"Doctor is not punched in for emergency duty at this hospital\");\r\n\r\n        doctorAccessList[doctorId].push(\r\n            DocumentAccess({\r\n                patient: _patient,\r\n                ipfsHash: _ipfsHash,\r\n                fileName: _fileName,\r\n                hasAccess: true, // Auto Grant\r\n                grantTime: block.timestamp,\r\n                duration: 24 hours, // Fixed duration for emergency\r\n                reason: _reason,\r\n                isEmergency: true,\r\n                isResolved: false\r\n            })\r\n        );\r\n\r\n        emit EmergencyAccessGranted(\r\n            msg.sender,\r\n            _patient,\r\n            _ipfsHash,\r\n            _reason,\r\n            block.timestamp\r\n        );\r\n    }\r\n\r\n    function grantAccess(\r\n        address _doctor,\r\n        string memory _ipfsHash,\r\n        uint256 _duration\r\n    ) public {\r\n        uint256 doctorId = walletToDoctorId[_doctor];\r\n        require(doctorId != 0, \"Doctor not registered\");\r\n\r\n        DocumentAccess[] storage accessList = doctorAccessList[doctorId];\r\n        for (uint256 i = 0; i < accessList.length; i++) {\r\n            if (\r\n                accessList[i].patient == msg.sender &&\r\n                keccak256(abi.encodePacked(accessList[i].ipfsHash)) ==\r\n                keccak256(abi.encodePacked(_ipfsHash))\r\n            ) {\r\n                accessList[i].hasAccess = true;\r\n                accessList[i].grantTime = block.timestamp;\r\n                accessList[i].duration = _duration;\r\n\r\n                emit AccessGranted(\r\n                    msg.sender,\r\n                    _doctor,\r\n                    _ipfsHash,\r\n                    block.timestamp,\r\n                    _duration\r\n                );\r\n                return;\r\n            }\r\n        }\r\n        revert(\"Access request not found\");\r\n    }\r\n\r\n    function resolveEmergency(address _doctor, string memory _ipfsHash) public {\r\n        uint256 doctorId = walletToDoctorId[_doctor];\r\n        require(doctorId != 0, \"Doctor not registered\");\r\n\r\n        DocumentAccess[] storage accessList = doctorAccessList[doctorId];\r\n        for (uint256 i = 0; i < accessList.length; i++) {\r\n            if (\r\n                accessList[i].patient == msg.sender &&\r\n                keccak256(abi.encodePacked(accessList[i].ipfsHash)) ==\r\n                keccak256(abi.encodePacked(_ipfsHash)) &&\r\n                accessList[i].isEmergency\r\n            ) {\r\n                accessList[i].isResolved = true;\r\n                emit EmergencyResolved(\r\n                    msg.sender,\r\n                    msg.sender,\r\n                    _ipfsHash,\r\n                    block.timestamp\r\n                );\r\n                return;\r\n            }\r\n        }\r\n        revert(\"Emergency record not found or already resolved\");\r\n    }\r\n\r\n    function revokeAccess(address _doctor, string memory _ipfsHash) public {\r\n        uint256 doctorId = walletToDoctorId[_doctor];\r\n        require(doctorId != 0, \"Doctor not registered\");\r\n\r\n        DocumentAccess[] storage accessList = doctorAccessList[doctorId];\r\n        for (uint256 i = 0; i < accessList.length; i++) {\r\n            if (\r\n                accessList[i].patient == msg.sender &&\r\n                keccak256(abi.encodePacked(accessList[i].ipfsHash)) ==\r\n                keccak256(abi.encodePacked(_ipfsHash))\r\n            ) {\r\n                accessList[i].hasAccess = false;\r\n                if (accessList[i].isEmergency) {\r\n                    accessList[i].isResolved = true;\r\n                }\r\n                emit AccessRevoked(\r\n                    msg.sender,\r\n                    _doctor,\r\n                    _ipfsHash,\r\n                    block.timestamp\r\n                );\r\n                return;\r\n            }\r\n        }\r\n        revert(\"Access record not found\");\r\n    }\r\n\r\n    // --- GETTERS ---\r\n    function getAccessList() public view returns (DocumentAccess[] memory) {\r\n        uint256 doctorId = walletToDoctorId[msg.sender];\r\n        require(doctorId != 0, \"Doctor not registered\");\r\n        return doctorAccessList[doctorId];\r\n    }\r\n\r\n    function getPatients() public view returns (DoctorDetails[] memory) {\r\n        uint256 doctorId = walletToDoctorId[msg.sender];\r\n        require(doctorId != 0, \"Doctor not registered\");\r\n\r\n        DocumentAccess[] memory accessList = doctorAccessList[doctorId];\r\n        DoctorDetails[] memory patients = new DoctorDetails[](\r\n            accessList.length\r\n        );\r\n        uint256 count = 0;\r\n\r\n        for (uint256 i = 0; i < accessList.length; i++) {\r\n            if (accessList[i].hasAccess) {\r\n                patients[count] = doctors[doctorId];\r\n                count++;\r\n            }\r\n        }\r\n\r\n        return patients;\r\n    }\r\n\r\n    function doctorExists(address walletAddress) public view returns (bool) {\r\n        return walletToDoctorId[walletAddress] != 0;\r\n    }\r\n\r\n    function getAllDoctors() public view returns (DoctorDetails[] memory) {\r\n        uint256 total = doctorIdCounter;\r\n        DoctorDetails[] memory list = new DoctorDetails[](total);\r\n\r\n        for (uint256 i = 0; i < total; i++) {\r\n            list[i] = doctors[i + 1];\r\n        }\r\n\r\n        return list;\r\n    }\r\n}\r\n",
  "sourcePath": "J:\\Users\\ayush\\Desktop\\code\\team-rocket-medi-secure\\contracts\\contracts\\Doctor.sol",
  "compiler": {
    "name": "solc",
    "version": "0.8.20+commit.a1b79de6.Emscripten.clang"
  },
  "schemaVersion": "3.4.16",
  "updatedAt": "2026-01-19T05:25:14.419Z",
  "networkType": "ethereum",
  "devdoc": {
    "kind": "dev",
    "methods": {},
    "version": 1
  },
  "userdoc": {
    "kind": "user",
    "methods": {},
    "version": 1
  }
}