{
  "contractName": "Doctor",
  "abi": [
    {
      "anonymous": false,
      "inputs": [
        {
          "indexed": true,
          "internalType": "address",
          "name": "patient",
          "type": "address"
        },
        {
          "indexed": true,
          "internalType": "address",
          "name": "doctor",
          "type": "address"
        },
        {
          "indexed": false,
          "internalType": "string",
          "name": "ipfsHash",
          "type": "string"
        },
        {
          "indexed": false,
          "internalType": "uint256",
          "name": "grantTime",
          "type": "uint256"
        },
        {
          "indexed": false,
          "internalType": "uint256",
          "name": "duration",
          "type": "uint256"
        }
      ],
      "name": "AccessGranted",
      "type": "event"
    },
    {
      "anonymous": false,
      "inputs": [
        {
          "indexed": true,
          "internalType": "address",
          "name": "patient",
          "type": "address"
        },
        {
          "indexed": true,
          "internalType": "address",
          "name": "doctor",
          "type": "address"
        },
        {
          "indexed": false,
          "internalType": "string",
          "name": "ipfsHash",
          "type": "string"
        },
        {
          "indexed": false,
          "internalType": "string",
          "name": "fileName",
          "type": "string"
        },
        {
          "indexed": false,
          "internalType": "uint256",
          "name": "duration",
          "type": "uint256"
        },
        {
          "indexed": false,
          "internalType": "string",
          "name": "reason",
          "type": "string"
        }
      ],
      "name": "AccessRequested",
      "type": "event"
    },
    {
      "anonymous": false,
      "inputs": [
        {
          "indexed": true,
          "internalType": "address",
          "name": "patient",
          "type": "address"
        },
        {
          "indexed": true,
          "internalType": "address",
          "name": "doctor",
          "type": "address"
        },
        {
          "indexed": false,
          "internalType": "string",
          "name": "ipfsHash",
          "type": "string"
        },
        {
          "indexed": false,
          "internalType": "uint256",
          "name": "revokeTime",
          "type": "uint256"
        }
      ],
      "name": "AccessRevoked",
      "type": "event"
    },
    {
      "anonymous": false,
      "inputs": [
        {
          "indexed": true,
          "internalType": "uint256",
          "name": "doctorId",
          "type": "uint256"
        },
        {
          "indexed": true,
          "internalType": "uint256",
          "name": "patientId",
          "type": "uint256"
        },
        {
          "indexed": true,
          "internalType": "address",
          "name": "doctor",
          "type": "address"
        }
      ],
      "name": "PatientAdded",
      "type": "event"
    },
    {
      "inputs": [
        {
          "internalType": "uint256",
          "name": "",
          "type": "uint256"
        },
        {
          "internalType": "uint256",
          "name": "",
          "type": "uint256"
        }
      ],
      "name": "doctorAccessList",
      "outputs": [
        {
          "internalType": "address",
          "name": "patient",
          "type": "address"
        },
        {
          "internalType": "string",
          "name": "ipfsHash",
          "type": "string"
        },
        {
          "internalType": "string",
          "name": "fileName",
          "type": "string"
        },
        {
          "internalType": "bool",
          "name": "hasAccess",
          "type": "bool"
        },
        {
          "internalType": "uint256",
          "name": "grantTime",
          "type": "uint256"
        },
        {
          "internalType": "uint256",
          "name": "duration",
          "type": "uint256"
        },
        {
          "internalType": "string",
          "name": "reason",
          "type": "string"
        }
      ],
      "stateMutability": "view",
      "type": "function",
      "constant": true
    },
    {
      "inputs": [
        {
          "internalType": "uint256",
          "name": "",
          "type": "uint256"
        }
      ],
      "name": "doctors",
      "outputs": [
        {
          "internalType": "uint256",
          "name": "doctorId",
          "type": "uint256"
        },
        {
          "internalType": "string",
          "name": "name",
          "type": "string"
        },
        {
          "internalType": "string",
          "name": "specialization",
          "type": "string"
        },
        {
          "internalType": "string",
          "name": "email",
          "type": "string"
        }
      ],
      "stateMutability": "view",
      "type": "function",
      "constant": true
    },
    {
      "inputs": [
        {
          "internalType": "address",
          "name": "",
          "type": "address"
        }
      ],
      "name": "walletToDoctorId",
      "outputs": [
        {
          "internalType": "uint256",
          "name": "",
          "type": "uint256"
        }
      ],
      "stateMutability": "view",
      "type": "function",
      "constant": true
    },
    {
      "inputs": [
        {
          "internalType": "string",
          "name": "_name",
          "type": "string"
        },
        {
          "internalType": "string",
          "name": "_specialization",
          "type": "string"
        },
        {
          "internalType": "string",
          "name": "_hospital",
          "type": "string"
        }
      ],
      "name": "registerDoctor",
      "outputs": [],
      "stateMutability": "nonpayable",
      "type": "function"
    },
    {
      "inputs": [
        {
          "internalType": "uint256",
          "name": "_patientId",
          "type": "uint256"
        }
      ],
      "name": "addPatient",
      "outputs": [],
      "stateMutability": "nonpayable",
      "type": "function"
    },
    {
      "inputs": [],
      "name": "getDoctorPatients",
      "outputs": [
        {
          "internalType": "uint256[]",
          "name": "",
          "type": "uint256[]"
        }
      ],
      "stateMutability": "view",
      "type": "function",
      "constant": true
    },
    {
      "inputs": [
        {
          "internalType": "address",
          "name": "_patient",
          "type": "address"
        },
        {
          "internalType": "string",
          "name": "_ipfsHash",
          "type": "string"
        }
      ],
      "name": "hasAccessToDocument",
      "outputs": [
        {
          "internalType": "bool",
          "name": "",
          "type": "bool"
        }
      ],
      "stateMutability": "view",
      "type": "function",
      "constant": true
    },
    {
      "inputs": [
        {
          "internalType": "address",
          "name": "_patient",
          "type": "address"
        },
        {
          "internalType": "string",
          "name": "_ipfsHash",
          "type": "string"
        },
        {
          "internalType": "string",
          "name": "_fileName",
          "type": "string"
        },
        {
          "internalType": "uint256",
          "name": "_duration",
          "type": "uint256"
        },
        {
          "internalType": "string",
          "name": "_reason",
          "type": "string"
        }
      ],
      "name": "requestAccess",
      "outputs": [],
      "stateMutability": "nonpayable",
      "type": "function"
    },
    {
      "inputs": [
        {
          "internalType": "address",
          "name": "_doctor",
          "type": "address"
        },
        {
          "internalType": "string",
          "name": "_ipfsHash",
          "type": "string"
        },
        {
          "internalType": "uint256",
          "name": "_duration",
          "type": "uint256"
        }
      ],
      "name": "grantAccess",
      "outputs": [],
      "stateMutability": "nonpayable",
      "type": "function"
    },
    {
      "inputs": [
        {
          "internalType": "address",
          "name": "_doctor",
          "type": "address"
        },
        {
          "internalType": "string",
          "name": "_ipfsHash",
          "type": "string"
        }
      ],
      "name": "revokeAccess",
      "outputs": [],
      "stateMutability": "nonpayable",
      "type": "function"
    },
    {
      "inputs": [],
      "name": "getAccessList",
      "outputs": [
        {
          "components": [
            {
              "internalType": "address",
              "name": "patient",
              "type": "address"
            },
            {
              "internalType": "string",
              "name": "ipfsHash",
              "type": "string"
            },
            {
              "internalType": "string",
              "name": "fileName",
              "type": "string"
            },
            {
              "internalType": "bool",
              "name": "hasAccess",
              "type": "bool"
            },
            {
              "internalType": "uint256",
              "name": "grantTime",
              "type": "uint256"
            },
            {
              "internalType": "uint256",
              "name": "duration",
              "type": "uint256"
            },
            {
              "internalType": "string",
              "name": "reason",
              "type": "string"
            }
          ],
          "internalType": "struct Doctor.DocumentAccess[]",
          "name": "",
          "type": "tuple[]"
        }
      ],
      "stateMutability": "view",
      "type": "function",
      "constant": true
    },
    {
      "inputs": [],
      "name": "getPatients",
      "outputs": [
        {
          "components": [
            {
              "internalType": "uint256",
              "name": "doctorId",
              "type": "uint256"
            },
            {
              "internalType": "string",
              "name": "name",
              "type": "string"
            },
            {
              "internalType": "string",
              "name": "specialization",
              "type": "string"
            },
            {
              "internalType": "string",
              "name": "email",
              "type": "string"
            },
            {
              "internalType": "uint256[]",
              "name": "patientIds",
              "type": "uint256[]"
            }
          ],
          "internalType": "struct Doctor.DoctorDetails[]",
          "name": "",
          "type": "tuple[]"
        }
      ],
      "stateMutability": "view",
      "type": "function",
      "constant": true
    },
    {
      "inputs": [
        {
          "internalType": "address",
          "name": "walletAddress",
          "type": "address"
        }
      ],
      "name": "doctorExists",
      "outputs": [
        {
          "internalType": "bool",
          "name": "",
          "type": "bool"
        }
      ],
      "stateMutability": "view",
      "type": "function",
      "constant": true
    },
    {
      "inputs": [],
      "name": "getAllDoctors",
      "outputs": [
        {
          "components": [
            {
              "internalType": "uint256",
              "name": "doctorId",
              "type": "uint256"
            },
            {
              "internalType": "string",
              "name": "name",
              "type": "string"
            },
            {
              "internalType": "string",
              "name": "specialization",
              "type": "string"
            },
            {
              "internalType": "string",
              "name": "email",
              "type": "string"
            },
            {
              "internalType": "uint256[]",
              "name": "patientIds",
              "type": "uint256[]"
            }
          ],
          "internalType": "struct Doctor.DoctorDetails[]",
          "name": "",
          "type": "tuple[]"
        }
      ],
      "stateMutability": "view",
      "type": "function",
      "constant": true
    }
  ],
  "bytecode": "0x608060405234801561000f575f80fd5b506135d98061001d5f395ff3fe608060405234801561000f575f80fd5b50600436106100e8575f3560e01c80636efb1b841161008a5780638d5ddbb3116100645780638d5ddbb31461024d57806398cf72b31461026b578063f0d950901461029b578063f6827cd1146102b9576100e8565b80636efb1b84146101e05780637f93a961146102135780638b145ec81461022f576100e8565b806333948de2116100c657806333948de214610156578063506e08d21461018c57806350c7a912146101a85780636a44cac9146101c4576100e8565b806302b66aaf146100ec57806312ad1c37146101085780632ad230a914610126575b5f80fd5b61010660048036038101906101019190612541565b6102e9565b005b61011061051b565b60405161011d9190612880565b60405180910390f35b610140600480360381019061013b91906128a0565b610b36565b60405161014d91906128e5565b60405180910390f35b610170600480360381019061016b91906128fe565b610b7e565b60405161018397969594939291906129a2565b60405180910390f35b6101a660048036038101906101a19190612a24565b610d93565b005b6101c260048036038101906101bd9190612a4f565b610f4c565b005b6101de60048036038101906101d99190612af3565b611080565b005b6101fa60048036038101906101f59190612a24565b61130b565b60405161020a9493929190612b4d565b60405180910390f35b61022d60048036038101906102289190612ba5565b6114c9565b005b6102376117a6565b6040516102449190612c7d565b60405180910390f35b610255611891565b6040516102629190612e1d565b60405180910390f35b610285600480360381019061028091906128a0565b611bb1565b6040516102929190612e3d565b60405180910390f35b6102a3611bc5565b6040516102b09190612880565b60405180910390f35b6102d360048036038101906102ce9190612af3565b611e9f565b6040516102e091906128e5565b60405180910390f35b5f805f3373ffffffffffffffffffffffffffffffffffffffff1673ffffffffffffffffffffffffffffffffffffffff1681526020019081526020015f205490505f810361036b576040517f08c379a000000000000000000000000000000000000000000000000000000000815260040161036290612ea0565b60405180910390fd5b60025f8281526020019081526020015f206040518060e001604052808873ffffffffffffffffffffffffffffffffffffffff1681526020018781526020018681526020015f151581526020015f815260200185815260200184815250908060018154018082558091505060019003905f5260205f2090600702015f909190919091505f820151815f015f6101000a81548173ffffffffffffffffffffffffffffffffffffffff021916908373ffffffffffffffffffffffffffffffffffffffff160217905550602082015181600101908161044691906130b8565b50604082015181600201908161045c91906130b8565b506060820151816003015f6101000a81548160ff0219169083151502179055506080820151816004015560a0820151816005015560c08201518160060190816104a591906130b8565b5050503373ffffffffffffffffffffffffffffffffffffffff168673ffffffffffffffffffffffffffffffffffffffff167fc4de088654327f2907ad8f0c288704b90c01af218c310b25c1682df9b7c8c7cd8787878760405161050b9493929190613187565b60405180910390a3505050505050565b60605f805f3373ffffffffffffffffffffffffffffffffffffffff1673ffffffffffffffffffffffffffffffffffffffff1681526020019081526020015f205490505f810361059f576040517f08c379a000000000000000000000000000000000000000000000000000000000815260040161059690612ea0565b60405180910390fd5b5f60025f8381526020019081526020015f20805480602002602001604051908101604052809291908181526020015f905b82821015610832578382905f5260205f2090600702016040518060e00160405290815f82015f9054906101000a900473ffffffffffffffffffffffffffffffffffffffff1673ffffffffffffffffffffffffffffffffffffffff1673ffffffffffffffffffffffffffffffffffffffff16815260200160018201805461065590612eeb565b80601f016020809104026020016040519081016040528092919081815260200182805461068190612eeb565b80156106cc5780601f106106a3576101008083540402835291602001916106cc565b820191905f5260205f20905b8154815290600101906020018083116106af57829003601f168201915b505050505081526020016002820180546106e590612eeb565b80601f016020809104026020016040519081016040528092919081815260200182805461071190612eeb565b801561075c5780601f106107335761010080835404028352916020019161075c565b820191905f5260205f20905b81548152906001019060200180831161073f57829003601f168201915b50505050508152602001600382015f9054906101000a900460ff1615151515815260200160048201548152602001600582015481526020016006820180546107a390612eeb565b80601f01602080910402602001604051908101604052809291908181526020018280546107cf90612eeb565b801561081a5780601f106107f15761010080835404028352916020019161081a565b820191905f5260205f20905b8154815290600101906020018083116107fd57829003601f168201915b505050505081525050815260200190600101906105d0565b5050505090505f815167ffffffffffffffff811115610854576108536123ea565b5b60405190808252806020026020018201604052801561088d57816020015b61087a612339565b8152602001906001900390816108725790505b5090505f805b8351811015610b2b578381815181106108af576108ae6131df565b5b60200260200101516060015115610b185760015f8681526020019081526020015f206040518060a00160405290815f82015481526020016001820180546108f590612eeb565b80601f016020809104026020016040519081016040528092919081815260200182805461092190612eeb565b801561096c5780601f106109435761010080835404028352916020019161096c565b820191905f5260205f20905b81548152906001019060200180831161094f57829003601f168201915b5050505050815260200160028201805461098590612eeb565b80601f01602080910402602001604051908101604052809291908181526020018280546109b190612eeb565b80156109fc5780601f106109d3576101008083540402835291602001916109fc565b820191905f5260205f20905b8154815290600101906020018083116109df57829003601f168201915b50505050508152602001600382018054610a1590612eeb565b80601f0160208091040260200160405190810160405280929190818152602001828054610a4190612eeb565b8015610a8c5780601f10610a6357610100808354040283529160200191610a8c565b820191905f5260205f20905b815481529060010190602001808311610a6f57829003601f168201915b5050505050815260200160048201805480602002602001604051908101604052809291908181526020018280548015610ae257602002820191905f5260205f20905b815481526020019060010190808311610ace575b505050505081525050838381518110610afe57610afd6131df565b5b60200260200101819052508180610b1490613239565b9250505b8080610b2390613239565b915050610893565b508194505050505090565b5f805f808473ffffffffffffffffffffffffffffffffffffffff1673ffffffffffffffffffffffffffffffffffffffff1681526020019081526020015f205414159050919050565b6002602052815f5260405f208181548110610b97575f80fd5b905f5260205f2090600702015f9150915050805f015f9054906101000a900473ffffffffffffffffffffffffffffffffffffffff1690806001018054610bdc90612eeb565b80601f0160208091040260200160405190810160405280929190818152602001828054610c0890612eeb565b8015610c535780601f10610c2a57610100808354040283529160200191610c53565b820191905f5260205f20905b815481529060010190602001808311610c3657829003601f168201915b505050505090806002018054610c6890612eeb565b80601f0160208091040260200160405190810160405280929190818152602001828054610c9490612eeb565b8015610cdf5780601f10610cb657610100808354040283529160200191610cdf565b820191905f5260205f20905b815481529060010190602001808311610cc257829003601f168201915b505050505090806003015f9054906101000a900460ff1690806004015490806005015490806006018054610d1290612eeb565b80601f0160208091040260200160405190810160405280929190818152602001828054610d3e90612eeb565b8015610d895780601f10610d6057610100808354040283529160200191610d89565b820191905f5260205f20905b815481529060010190602001808311610d6c57829003601f168201915b5050505050905087565b5f805f3373ffffffffffffffffffffffffffffffffffffffff1673ffffffffffffffffffffffffffffffffffffffff1681526020019081526020015f205490505f8103610e15576040517f08c379a0000000000000000000000000000000000000000000000000000000008152600401610e0c90612ea0565b60405180910390fd5b5f805b60015f8481526020019081526020015f2060040180549050811015610e88578360015f8581526020019081526020015f206004018281548110610e5e57610e5d6131df565b5b905f5260205f20015403610e755760019150610e88565b8080610e8090613239565b915050610e18565b508015610eca576040517f08c379a0000000000000000000000000000000000000000000000000000000008152600401610ec1906132ca565b60405180910390fd5b60015f8381526020019081526020015f2060040183908060018154018082558091505060019003905f5260205f20015f90919091909150553373ffffffffffffffffffffffffffffffffffffffff1683837f62e4da5e5c3a89b6dca6a385b8712c06f51bf0855ae5b6abd14937474a4ce01e60405160405180910390a4505050565b5f805f3373ffffffffffffffffffffffffffffffffffffffff1673ffffffffffffffffffffffffffffffffffffffff1681526020019081526020015f205414610fca576040517f08c379a0000000000000000000000000000000000000000000000000000000008152600401610fc190613332565b60405180910390fd5b60035f815480929190610fdc90613239565b91905055506003545f803373ffffffffffffffffffffffffffffffffffffffff1673ffffffffffffffffffffffffffffffffffffffff1681526020019081526020015f20819055505f60015f60035481526020019081526020015f209050600354815f01819055508381600101908161105591906130b8565b508281600201908161106791906130b8565b508181600301908161107991906130b8565b5050505050565b5f805f8473ffffffffffffffffffffffffffffffffffffffff1673ffffffffffffffffffffffffffffffffffffffff1681526020019081526020015f205490505f8103611102576040517f08c379a00000000000000000000000000000000000000000000000000000000081526004016110f990612ea0565b60405180910390fd5b5f60025f8381526020019081526020015f2090505f5b81805490508110156112cb573373ffffffffffffffffffffffffffffffffffffffff1682828154811061114e5761114d6131df565b5b905f5260205f2090600702015f015f9054906101000a900473ffffffffffffffffffffffffffffffffffffffff1673ffffffffffffffffffffffffffffffffffffffff1614801561120b5750836040516020016111ab919061338a565b604051602081830303815290604052805190602001208282815481106111d4576111d36131df565b5b905f5260205f2090600702016001016040516020016111f39190613420565b60405160208183030381529060405280519060200120145b156112b8575f828281548110611224576112236131df565b5b905f5260205f2090600702016003015f6101000a81548160ff0219169083151502179055508473ffffffffffffffffffffffffffffffffffffffff163373ffffffffffffffffffffffffffffffffffffffff167f1852eeec29c8b9e06624d3e3008123c26ddd6173947b6bea9054402ea8ca57ad86426040516112a8929190613436565b60405180910390a3505050611307565b80806112c390613239565b915050611118565b506040517f08c379a00000000000000000000000000000000000000000000000000000000081526004016112fe906134ae565b60405180910390fd5b5050565b6001602052805f5260405f205f91509050805f01549080600101805461133090612eeb565b80601f016020809104026020016040519081016040528092919081815260200182805461135c90612eeb565b80156113a75780601f1061137e576101008083540402835291602001916113a7565b820191905f5260205f20905b81548152906001019060200180831161138a57829003601f168201915b5050505050908060020180546113bc90612eeb565b80601f01602080910402602001604051908101604052809291908181526020018280546113e890612eeb565b80156114335780601f1061140a57610100808354040283529160200191611433565b820191905f5260205f20905b81548152906001019060200180831161141657829003601f168201915b50505050509080600301805461144890612eeb565b80601f016020809104026020016040519081016040528092919081815260200182805461147490612eeb565b80156114bf5780601f10611496576101008083540402835291602001916114bf565b820191905f5260205f20905b8154815290600101906020018083116114a257829003601f168201915b5050505050905084565b5f805f8573ffffffffffffffffffffffffffffffffffffffff1673ffffffffffffffffffffffffffffffffffffffff1681526020019081526020015f205490505f810361154b576040517f08c379a000000000000000000000000000000000000000000000000000000000815260040161154290612ea0565b60405180910390fd5b5f60025f8381526020019081526020015f2090505f5b8180549050811015611765573373ffffffffffffffffffffffffffffffffffffffff16828281548110611597576115966131df565b5b905f5260205f2090600702015f015f9054906101000a900473ffffffffffffffffffffffffffffffffffffffff1673ffffffffffffffffffffffffffffffffffffffff161480156116545750846040516020016115f4919061338a565b6040516020818303038152906040528051906020012082828154811061161d5761161c6131df565b5b905f5260205f20906007020160010160405160200161163c9190613420565b60405160208183030381529060405280519060200120145b1561175257600182828154811061166e5761166d6131df565b5b905f5260205f2090600702016003015f6101000a81548160ff021916908315150217905550428282815481106116a7576116a66131df565b5b905f5260205f20906007020160040181905550838282815481106116ce576116cd6131df565b5b905f5260205f209060070201600501819055508573ffffffffffffffffffffffffffffffffffffffff163373ffffffffffffffffffffffffffffffffffffffff167fc298d419e944a3f1e7da1b2245c9f34649b9a6ea67875bcd37e975ef5d7209a3874288604051611742939291906134cc565b60405180910390a35050506117a1565b808061175d90613239565b915050611561565b506040517f08c379a000000000000000000000000000000000000000000000000000000000815260040161179890613552565b60405180910390fd5b505050565b60605f805f3373ffffffffffffffffffffffffffffffffffffffff1673ffffffffffffffffffffffffffffffffffffffff1681526020019081526020015f205490505f810361182a576040517f08c379a000000000000000000000000000000000000000000000000000000000815260040161182190612ea0565b60405180910390fd5b60015f8281526020019081526020015f2060040180548060200260200160405190810160405280929190818152602001828054801561188657602002820191905f5260205f20905b815481526020019060010190808311611872575b505050505091505090565b60605f805f3373ffffffffffffffffffffffffffffffffffffffff1673ffffffffffffffffffffffffffffffffffffffff1681526020019081526020015f205490505f8103611915576040517f08c379a000000000000000000000000000000000000000000000000000000000815260040161190c90612ea0565b60405180910390fd5b60025f8281526020019081526020015f20805480602002602001604051908101604052809291908181526020015f905b82821015611ba7578382905f5260205f2090600702016040518060e00160405290815f82015f9054906101000a900473ffffffffffffffffffffffffffffffffffffffff1673ffffffffffffffffffffffffffffffffffffffff1673ffffffffffffffffffffffffffffffffffffffff1681526020016001820180546119ca90612eeb565b80601f01602080910402602001604051908101604052809291908181526020018280546119f690612eeb565b8015611a415780601f10611a1857610100808354040283529160200191611a41565b820191905f5260205f20905b815481529060010190602001808311611a2457829003601f168201915b50505050508152602001600282018054611a5a90612eeb565b80601f0160208091040260200160405190810160405280929190818152602001828054611a8690612eeb565b8015611ad15780601f10611aa857610100808354040283529160200191611ad1565b820191905f5260205f20905b815481529060010190602001808311611ab457829003601f168201915b50505050508152602001600382015f9054906101000a900460ff161515151581526020016004820154815260200160058201548152602001600682018054611b1890612eeb565b80601f0160208091040260200160405190810160405280929190818152602001828054611b4490612eeb565b8015611b8f5780601f10611b6657610100808354040283529160200191611b8f565b820191905f5260205f20905b815481529060010190602001808311611b7257829003601f168201915b50505050508152505081526020019060010190611945565b5050505091505090565b5f602052805f5260405f205f915090505481565b60605f60035490505f8167ffffffffffffffff811115611be857611be76123ea565b5b604051908082528060200260200182016040528015611c2157816020015b611c0e612339565b815260200190600190039081611c065790505b5090505f5b82811015611e965760015f600183611c3e9190613570565b81526020019081526020015f206040518060a00160405290815f8201548152602001600182018054611c6f90612eeb565b80601f0160208091040260200160405190810160405280929190818152602001828054611c9b90612eeb565b8015611ce65780601f10611cbd57610100808354040283529160200191611ce6565b820191905f5260205f20905b815481529060010190602001808311611cc957829003601f168201915b50505050508152602001600282018054611cff90612eeb565b80601f0160208091040260200160405190810160405280929190818152602001828054611d2b90612eeb565b8015611d765780601f10611d4d57610100808354040283529160200191611d76565b820191905f5260205f20905b815481529060010190602001808311611d5957829003601f168201915b50505050508152602001600382018054611d8f90612eeb565b80601f0160208091040260200160405190810160405280929190818152602001828054611dbb90612eeb565b8015611e065780601f10611ddd57610100808354040283529160200191611e06565b820191905f5260205f20905b815481529060010190602001808311611de957829003601f168201915b5050505050815260200160048201805480602002602001604051908101604052809291908181526020018280548015611e5c57602002820191905f5260205f20905b815481526020019060010190808311611e48575b505050505081525050828281518110611e7857611e776131df565b5b60200260200101819052508080611e8e90613239565b915050611c26565b50809250505090565b5f805f803373ffffffffffffffffffffffffffffffffffffffff1673ffffffffffffffffffffffffffffffffffffffff1681526020019081526020015f205490505f8103611f22576040517f08c379a0000000000000000000000000000000000000000000000000000000008152600401611f1990612ea0565b60405180910390fd5b5f60025f8381526020019081526020015f20805480602002602001604051908101604052809291908181526020015f905b828210156121b5578382905f5260205f2090600702016040518060e00160405290815f82015f9054906101000a900473ffffffffffffffffffffffffffffffffffffffff1673ffffffffffffffffffffffffffffffffffffffff1673ffffffffffffffffffffffffffffffffffffffff168152602001600182018054611fd890612eeb565b80601f016020809104026020016040519081016040528092919081815260200182805461200490612eeb565b801561204f5780601f106120265761010080835404028352916020019161204f565b820191905f5260205f20905b81548152906001019060200180831161203257829003601f168201915b5050505050815260200160028201805461206890612eeb565b80601f016020809104026020016040519081016040528092919081815260200182805461209490612eeb565b80156120df5780601f106120b6576101008083540402835291602001916120df565b820191905f5260205f20905b8154815290600101906020018083116120c257829003601f168201915b50505050508152602001600382015f9054906101000a900460ff16151515158152602001600482015481526020016005820154815260200160068201805461212690612eeb565b80601f016020809104026020016040519081016040528092919081815260200182805461215290612eeb565b801561219d5780601f106121745761010080835404028352916020019161219d565b820191905f5260205f20905b81548152906001019060200180831161218057829003601f168201915b50505050508152505081526020019060010190611f53565b5050505090505f5b815181101561232c578573ffffffffffffffffffffffffffffffffffffffff168282815181106121f0576121ef6131df565b5b60200260200101515f015173ffffffffffffffffffffffffffffffffffffffff1614801561228757508460405160200161222a919061338a565b60405160208183030381529060405280519060200120828281518110612253576122526131df565b5b60200260200101516020015160405160200161226f919061338a565b60405160208183030381529060405280519060200120145b80156122ae57508181815181106122a1576122a06131df565b5b6020026020010151606001515b15612319578181815181106122c6576122c56131df565b5b602002602001015160a001518282815181106122e5576122e46131df565b5b6020026020010151608001516122fb9190613570565b42111561230d575f9350505050612333565b60019350505050612333565b808061232490613239565b9150506121bd565b505f925050505b92915050565b6040518060a001604052805f8152602001606081526020016060815260200160608152602001606081525090565b5f604051905090565b5f80fd5b5f80fd5b5f73ffffffffffffffffffffffffffffffffffffffff82169050919050565b5f6123a182612378565b9050919050565b6123b181612397565b81146123bb575f80fd5b50565b5f813590506123cc816123a8565b92915050565b5f80fd5b5f80fd5b5f601f19601f8301169050919050565b7f4e487b71000000000000000000000000000000000000000000000000000000005f52604160045260245ffd5b612420826123da565b810181811067ffffffffffffffff8211171561243f5761243e6123ea565b5b80604052505050565b5f612451612367565b905061245d8282612417565b919050565b5f67ffffffffffffffff82111561247c5761247b6123ea565b5b612485826123da565b9050602081019050919050565b828183375f83830152505050565b5f6124b26124ad84612462565b612448565b9050828152602081018484840111156124ce576124cd6123d6565b5b6124d9848285612492565b509392505050565b5f82601f8301126124f5576124f46123d2565b5b81356125058482602086016124a0565b91505092915050565b5f819050919050565b6125208161250e565b811461252a575f80fd5b50565b5f8135905061253b81612517565b92915050565b5f805f805f60a0868803121561255a57612559612370565b5b5f612567888289016123be565b955050602086013567ffffffffffffffff81111561258857612587612374565b5b612594888289016124e1565b945050604086013567ffffffffffffffff8111156125b5576125b4612374565b5b6125c1888289016124e1565b93505060606125d28882890161252d565b925050608086013567ffffffffffffffff8111156125f3576125f2612374565b5b6125ff888289016124e1565b9150509295509295909350565b5f81519050919050565b5f82825260208201905092915050565b5f819050602082019050919050565b61263e8161250e565b82525050565b5f81519050919050565b5f82825260208201905092915050565b5f5b8381101561267b578082015181840152602081019050612660565b5f8484015250505050565b5f61269082612644565b61269a818561264e565b93506126aa81856020860161265e565b6126b3816123da565b840191505092915050565b5f81519050919050565b5f82825260208201905092915050565b5f819050602082019050919050565b5f6126f28383612635565b60208301905092915050565b5f602082019050919050565b5f612714826126be565b61271e81856126c8565b9350612729836126d8565b805f5b8381101561275957815161274088826126e7565b975061274b836126fe565b92505060018101905061272c565b5085935050505092915050565b5f60a083015f83015161277b5f860182612635565b50602083015184820360208601526127938282612686565b915050604083015184820360408601526127ad8282612686565b915050606083015184820360608601526127c78282612686565b915050608083015184820360808601526127e1828261270a565b9150508091505092915050565b5f6127f98383612766565b905092915050565b5f602082019050919050565b5f6128178261260c565b6128218185612616565b93508360208202850161283385612626565b805f5b8581101561286e578484038952815161284f85826127ee565b945061285a83612801565b925060208a01995050600181019050612836565b50829750879550505050505092915050565b5f6020820190508181035f830152612898818461280d565b905092915050565b5f602082840312156128b5576128b4612370565b5b5f6128c2848285016123be565b91505092915050565b5f8115159050919050565b6128df816128cb565b82525050565b5f6020820190506128f85f8301846128d6565b92915050565b5f806040838503121561291457612913612370565b5b5f6129218582860161252d565b92505060206129328582860161252d565b9150509250929050565b61294581612397565b82525050565b5f82825260208201905092915050565b5f61296582612644565b61296f818561294b565b935061297f81856020860161265e565b612988816123da565b840191505092915050565b61299c8161250e565b82525050565b5f60e0820190506129b55f83018a61293c565b81810360208301526129c7818961295b565b905081810360408301526129db818861295b565b90506129ea60608301876128d6565b6129f76080830186612993565b612a0460a0830185612993565b81810360c0830152612a16818461295b565b905098975050505050505050565b5f60208284031215612a3957612a38612370565b5b5f612a468482850161252d565b91505092915050565b5f805f60608486031215612a6657612a65612370565b5b5f84013567ffffffffffffffff811115612a8357612a82612374565b5b612a8f868287016124e1565b935050602084013567ffffffffffffffff811115612ab057612aaf612374565b5b612abc868287016124e1565b925050604084013567ffffffffffffffff811115612add57612adc612374565b5b612ae9868287016124e1565b9150509250925092565b5f8060408385031215612b0957612b08612370565b5b5f612b16858286016123be565b925050602083013567ffffffffffffffff811115612b3757612b36612374565b5b612b43858286016124e1565b9150509250929050565b5f608082019050612b605f830187612993565b8181036020830152612b72818661295b565b90508181036040830152612b86818561295b565b90508181036060830152612b9a818461295b565b905095945050505050565b5f805f60608486031215612bbc57612bbb612370565b5b5f612bc9868287016123be565b935050602084013567ffffffffffffffff811115612bea57612be9612374565b5b612bf6868287016124e1565b9250506040612c078682870161252d565b9150509250925092565b5f82825260208201905092915050565b5f612c2b826126be565b612c358185612c11565b9350612c40836126d8565b805f5b83811015612c70578151612c5788826126e7565b9750612c62836126fe565b925050600181019050612c43565b5085935050505092915050565b5f6020820190508181035f830152612c958184612c21565b905092915050565b5f81519050919050565b5f82825260208201905092915050565b5f819050602082019050919050565b612ccf81612397565b82525050565b612cde816128cb565b82525050565b5f60e083015f830151612cf95f860182612cc6565b5060208301518482036020860152612d118282612686565b91505060408301518482036040860152612d2b8282612686565b9150506060830151612d406060860182612cd5565b506080830151612d536080860182612635565b5060a0830151612d6660a0860182612635565b5060c083015184820360c0860152612d7e8282612686565b9150508091505092915050565b5f612d968383612ce4565b905092915050565b5f602082019050919050565b5f612db482612c9d565b612dbe8185612ca7565b935083602082028501612dd085612cb7565b805f5b85811015612e0b5784840389528151612dec8582612d8b565b9450612df783612d9e565b925060208a01995050600181019050612dd3565b50829750879550505050505092915050565b5f6020820190508181035f830152612e358184612daa565b905092915050565b5f602082019050612e505f830184612993565b92915050565b7f446f63746f72206e6f74207265676973746572656400000000000000000000005f82015250565b5f612e8a60158361294b565b9150612e9582612e56565b602082019050919050565b5f6020820190508181035f830152612eb781612e7e565b9050919050565b7f4e487b71000000000000000000000000000000000000000000000000000000005f52602260045260245ffd5b5f6002820490506001821680612f0257607f821691505b602082108103612f1557612f14612ebe565b5b50919050565b5f819050815f5260205f209050919050565b5f6020601f8301049050919050565b5f82821b905092915050565b5f60088302612f777fffffffffffffffffffffffffffffffffffffffffffffffffffffffffffffffff82612f3c565b612f818683612f3c565b95508019841693508086168417925050509392505050565b5f819050919050565b5f612fbc612fb7612fb28461250e565b612f99565b61250e565b9050919050565b5f819050919050565b612fd583612fa2565b612fe9612fe182612fc3565b848454612f48565b825550505050565b5f90565b612ffd612ff1565b613008818484612fcc565b505050565b5b8181101561302b576130205f82612ff5565b60018101905061300e565b5050565b601f8211156130705761304181612f1b565b61304a84612f2d565b81016020851015613059578190505b61306d61306585612f2d565b83018261300d565b50505b505050565b5f82821c905092915050565b5f6130905f1984600802613075565b1980831691505092915050565b5f6130a88383613081565b9150826002028217905092915050565b6130c182612644565b67ffffffffffffffff8111156130da576130d96123ea565b5b6130e48254612eeb565b6130ef82828561302f565b5f60209050601f831160018114613120575f841561310e578287015190505b613118858261309d565b86555061317f565b601f19841661312e86612f1b565b5f5b8281101561315557848901518255600182019150602085019450602081019050613130565b86831015613172578489015161316e601f891682613081565b8355505b6001600288020188555050505b505050505050565b5f6080820190508181035f83015261319f818761295b565b905081810360208301526131b3818661295b565b90506131c26040830185612993565b81810360608301526131d4818461295b565b905095945050505050565b7f4e487b71000000000000000000000000000000000000000000000000000000005f52603260045260245ffd5b7f4e487b71000000000000000000000000000000000000000000000000000000005f52601160045260245ffd5b5f6132438261250e565b91507fffffffffffffffffffffffffffffffffffffffffffffffffffffffffffffffff82036132755761327461320c565b5b600182019050919050565b7f50617469656e7420616c726561647920616464656400000000000000000000005f82015250565b5f6132b460158361294b565b91506132bf82613280565b602082019050919050565b5f6020820190508181035f8301526132e1816132a8565b9050919050565b7f446f63746f7220616c72656164792072656769737465726564000000000000005f82015250565b5f61331c60198361294b565b9150613327826132e8565b602082019050919050565b5f6020820190508181035f83015261334981613310565b9050919050565b5f81905092915050565b5f61336482612644565b61336e8185613350565b935061337e81856020860161265e565b80840191505092915050565b5f613395828461335a565b915081905092915050565b5f81546133ac81612eeb565b6133b68186613350565b9450600182165f81146133d057600181146133e557613417565b60ff1983168652811515820286019350613417565b6133ee85612f1b565b5f5b8381101561340f578154818901526001820191506020810190506133f0565b838801955050505b50505092915050565b5f61342b82846133a0565b915081905092915050565b5f6040820190508181035f83015261344e818561295b565b905061345d6020830184612993565b9392505050565b7f416363657373207265636f7264206e6f7420666f756e640000000000000000005f82015250565b5f61349860178361294b565b91506134a382613464565b602082019050919050565b5f6020820190508181035f8301526134c58161348c565b9050919050565b5f6060820190508181035f8301526134e4818661295b565b90506134f36020830185612993565b6135006040830184612993565b949350505050565b7f4163636573732072657175657374206e6f7420666f756e6400000000000000005f82015250565b5f61353c60188361294b565b915061354782613508565b602082019050919050565b5f6020820190508181035f83015261356981613530565b9050919050565b5f61357a8261250e565b91506135858361250e565b925082820190508082111561359d5761359c61320c565b5b9291505056fea26469706673582212206e6eb3d5a0c6581d306c67e506d2344558112b821593337a3a105c7e25ddfb3e64736f6c63430008140033",
  "immutableReferences": {},
  "source": "// SPDX-License-Identifier: MIT\r\npragma solidity ^0.8.19;\r\n\r\ncontract Doctor {\r\n    struct DoctorDetails {\r\n        uint256 doctorId;\r\n        string name;\r\n        string specialization;\r\n        string email;\r\n        uint256[] patientIds; // NEW: List of patients linked to this doctor\r\n    }\r\n\r\n    struct DocumentAccess {\r\n        address patient;\r\n        string ipfsHash;\r\n        string fileName;\r\n        bool hasAccess;\r\n        uint256 grantTime;\r\n        uint256 duration;\r\n        string reason; // NEW: Purpose of access\r\n    }\r\n\r\n    mapping(address => uint256) public walletToDoctorId;\r\n    mapping(uint256 => DoctorDetails) public doctors;\r\n    mapping(uint256 => DocumentAccess[]) public doctorAccessList;\r\n\r\n    uint256 private doctorIdCounter;\r\n\r\n    // --- EVENTS ---\r\n    event AccessRequested(\r\n        address indexed patient,\r\n        address indexed doctor,\r\n        string ipfsHash,\r\n        string fileName,\r\n        uint256 duration,\r\n        string reason // NEW\r\n    );\r\n    event AccessGranted(\r\n        address indexed patient,\r\n        address indexed doctor,\r\n        string ipfsHash,\r\n        uint256 grantTime,\r\n        uint256 duration\r\n    );\r\n    event AccessRevoked(\r\n        address indexed patient,\r\n        address indexed doctor,\r\n        string ipfsHash,\r\n        uint256 revokeTime\r\n    );\r\n    event PatientAdded(\r\n        uint256 indexed doctorId,\r\n        uint256 indexed patientId,\r\n        address indexed doctor\r\n    );\r\n\r\n    function registerDoctor(\r\n        string memory _name,\r\n        string memory _specialization,\r\n        string memory _hospital\r\n    ) public {\r\n        require(walletToDoctorId[msg.sender] == 0, \"Doctor already registered\");\r\n        doctorIdCounter++;\r\n        walletToDoctorId[msg.sender] = doctorIdCounter;\r\n\r\n        DoctorDetails storage newDoctor = doctors[doctorIdCounter];\r\n        newDoctor.doctorId = doctorIdCounter;\r\n        newDoctor.name = _name;\r\n        newDoctor.specialization = _specialization;\r\n        newDoctor.email = _hospital;\r\n    }\r\n\r\n    function addPatient(uint256 _patientId) public {\r\n        uint256 doctorId = walletToDoctorId[msg.sender];\r\n        require(doctorId != 0, \"Doctor not registered\");\r\n\r\n        bool exists = false;\r\n        for (uint i = 0; i < doctors[doctorId].patientIds.length; i++) {\r\n            if (doctors[doctorId].patientIds[i] == _patientId) {\r\n                exists = true;\r\n                break;\r\n            }\r\n        }\r\n        require(!exists, \"Patient already added\");\r\n\r\n        doctors[doctorId].patientIds.push(_patientId);\r\n        emit PatientAdded(doctorId, _patientId, msg.sender);\r\n    }\r\n\r\n    function getDoctorPatients() public view returns (uint256[] memory) {\r\n        uint256 doctorId = walletToDoctorId[msg.sender];\r\n        require(doctorId != 0, \"Doctor not registered\");\r\n        return doctors[doctorId].patientIds;\r\n    }\r\n\r\n    function hasAccessToDocument(\r\n        address _patient,\r\n        string memory _ipfsHash\r\n    ) public view returns (bool) {\r\n        uint256 doctorId = walletToDoctorId[msg.sender];\r\n        require(doctorId != 0, \"Doctor not registered\");\r\n\r\n        DocumentAccess[] memory accessList = doctorAccessList[doctorId];\r\n        for (uint256 i = 0; i < accessList.length; i++) {\r\n            if (\r\n                accessList[i].patient == _patient &&\r\n                keccak256(abi.encodePacked(accessList[i].ipfsHash)) ==\r\n                keccak256(abi.encodePacked(_ipfsHash)) &&\r\n                accessList[i].hasAccess\r\n            ) {\r\n                // Check for expiration\r\n                if (\r\n                    block.timestamp >\r\n                    accessList[i].grantTime + accessList[i].duration\r\n                ) {\r\n                    return false;\r\n                }\r\n                return true;\r\n            }\r\n        }\r\n        return false;\r\n    }\r\n\r\n    function requestAccess(\r\n        address _patient,\r\n        string memory _ipfsHash,\r\n        string memory _fileName,\r\n        uint256 _duration,\r\n        string memory _reason\r\n    ) public {\r\n        uint256 doctorId = walletToDoctorId[msg.sender];\r\n        require(doctorId != 0, \"Doctor not registered\");\r\n\r\n        doctorAccessList[doctorId].push(\r\n            DocumentAccess({\r\n                patient: _patient,\r\n                ipfsHash: _ipfsHash,\r\n                fileName: _fileName,\r\n                hasAccess: false,\r\n                grantTime: 0,\r\n                duration: _duration,\r\n                reason: _reason\r\n            })\r\n        );\r\n\r\n        emit AccessRequested(\r\n            _patient,\r\n            msg.sender,\r\n            _ipfsHash,\r\n            _fileName,\r\n            _duration,\r\n            _reason\r\n        );\r\n    }\r\n\r\n    function grantAccess(\r\n        address _doctor,\r\n        string memory _ipfsHash,\r\n        uint256 _duration\r\n    ) public {\r\n        uint256 doctorId = walletToDoctorId[_doctor];\r\n        require(doctorId != 0, \"Doctor not registered\");\r\n\r\n        DocumentAccess[] storage accessList = doctorAccessList[doctorId];\r\n        for (uint256 i = 0; i < accessList.length; i++) {\r\n            if (\r\n                accessList[i].patient == msg.sender &&\r\n                keccak256(abi.encodePacked(accessList[i].ipfsHash)) ==\r\n                keccak256(abi.encodePacked(_ipfsHash))\r\n            ) {\r\n                accessList[i].hasAccess = true;\r\n                accessList[i].grantTime = block.timestamp;\r\n                accessList[i].duration = _duration; // Update with confirmed duration\r\n\r\n                emit AccessGranted(\r\n                    msg.sender,\r\n                    _doctor,\r\n                    _ipfsHash,\r\n                    block.timestamp,\r\n                    _duration\r\n                );\r\n                return;\r\n            }\r\n        }\r\n        revert(\"Access request not found\");\r\n    }\r\n\r\n    function revokeAccess(address _doctor, string memory _ipfsHash) public {\r\n        uint256 doctorId = walletToDoctorId[_doctor];\r\n        require(doctorId != 0, \"Doctor not registered\");\r\n\r\n        DocumentAccess[] storage accessList = doctorAccessList[doctorId];\r\n        for (uint256 i = 0; i < accessList.length; i++) {\r\n            if (\r\n                accessList[i].patient == msg.sender &&\r\n                keccak256(abi.encodePacked(accessList[i].ipfsHash)) ==\r\n                keccak256(abi.encodePacked(_ipfsHash))\r\n            ) {\r\n                accessList[i].hasAccess = false;\r\n                emit AccessRevoked(\r\n                    msg.sender,\r\n                    _doctor,\r\n                    _ipfsHash,\r\n                    block.timestamp\r\n                );\r\n                return;\r\n            }\r\n        }\r\n        revert(\"Access record not found\");\r\n    }\r\n\r\n    // --- GETTERS ---\r\n    function getAccessList() public view returns (DocumentAccess[] memory) {\r\n        uint256 doctorId = walletToDoctorId[msg.sender];\r\n        require(doctorId != 0, \"Doctor not registered\");\r\n        return doctorAccessList[doctorId];\r\n    }\r\n\r\n    function getPatients() public view returns (DoctorDetails[] memory) {\r\n        uint256 doctorId = walletToDoctorId[msg.sender];\r\n        require(doctorId != 0, \"Doctor not registered\");\r\n\r\n        DocumentAccess[] memory accessList = doctorAccessList[doctorId];\r\n        DoctorDetails[] memory patients = new DoctorDetails[](\r\n            accessList.length\r\n        );\r\n        uint256 count = 0;\r\n\r\n        for (uint256 i = 0; i < accessList.length; i++) {\r\n            if (accessList[i].hasAccess) {\r\n                patients[count] = doctors[doctorId];\r\n                count++;\r\n            }\r\n        }\r\n\r\n        return patients;\r\n    }\r\n\r\n    function doctorExists(address walletAddress) public view returns (bool) {\r\n        return walletToDoctorId[walletAddress] != 0;\r\n    }\r\n\r\n    function getAllDoctors() public view returns (DoctorDetails[] memory) {\r\n        uint256 total = doctorIdCounter;\r\n        DoctorDetails[] memory list = new DoctorDetails[](total);\r\n\r\n        for (uint256 i = 0; i < total; i++) {\r\n            list[i] = doctors[i + 1];\r\n        }\r\n\r\n        return list;\r\n    }\r\n}\r\n",
  "sourcePath": "J:\\Users\\ayush\\Desktop\\code\\team-rocket-medi-secure\\contracts\\contracts\\Doctor.sol",
  "compiler": {
    "name": "solc",
    "version": "0.8.20+commit.a1b79de6.Emscripten.clang"
  },
  "schemaVersion": "3.4.16",
  "updatedAt": "2026-01-17T15:33:06.161Z",
  "networkType": "ethereum",
  "devdoc": {
    "kind": "dev",
    "methods": {},
    "version": 1
  },
  "userdoc": {
    "kind": "user",
    "methods": {},
    "version": 1
  }
}