{
  "contractName": "Doctor",
  "abi": [
    {
      "anonymous": false,
      "inputs": [
        {
          "indexed": true,
          "internalType": "address",
          "name": "patient",
          "type": "address"
        },
        {
          "indexed": true,
          "internalType": "address",
          "name": "doctor",
          "type": "address"
        },
        {
          "indexed": false,
          "internalType": "string",
          "name": "ipfsHash",
          "type": "string"
        }
      ],
      "name": "AccessRequested",
      "type": "event"
    },
    {
      "anonymous": false,
      "inputs": [
        {
          "indexed": true,
          "internalType": "uint256",
          "name": "doctorId",
          "type": "uint256"
        },
        {
          "indexed": true,
          "internalType": "uint256",
          "name": "patientId",
          "type": "uint256"
        },
        {
          "indexed": true,
          "internalType": "address",
          "name": "doctor",
          "type": "address"
        }
      ],
      "name": "PatientAdded",
      "type": "event"
    },
    {
      "inputs": [
        {
          "internalType": "uint256",
          "name": "",
          "type": "uint256"
        },
        {
          "internalType": "uint256",
          "name": "",
          "type": "uint256"
        }
      ],
      "name": "doctorAccessList",
      "outputs": [
        {
          "internalType": "address",
          "name": "patient",
          "type": "address"
        },
        {
          "internalType": "string",
          "name": "ipfsHash",
          "type": "string"
        },
        {
          "internalType": "bool",
          "name": "hasAccess",
          "type": "bool"
        }
      ],
      "stateMutability": "view",
      "type": "function",
      "constant": true
    },
    {
      "inputs": [
        {
          "internalType": "uint256",
          "name": "",
          "type": "uint256"
        }
      ],
      "name": "doctors",
      "outputs": [
        {
          "internalType": "uint256",
          "name": "doctorId",
          "type": "uint256"
        },
        {
          "internalType": "string",
          "name": "name",
          "type": "string"
        },
        {
          "internalType": "string",
          "name": "specialization",
          "type": "string"
        },
        {
          "internalType": "string",
          "name": "email",
          "type": "string"
        }
      ],
      "stateMutability": "view",
      "type": "function",
      "constant": true
    },
    {
      "inputs": [
        {
          "internalType": "address",
          "name": "",
          "type": "address"
        }
      ],
      "name": "walletToDoctorId",
      "outputs": [
        {
          "internalType": "uint256",
          "name": "",
          "type": "uint256"
        }
      ],
      "stateMutability": "view",
      "type": "function",
      "constant": true
    },
    {
      "inputs": [
        {
          "internalType": "string",
          "name": "_name",
          "type": "string"
        },
        {
          "internalType": "string",
          "name": "_specialization",
          "type": "string"
        },
        {
          "internalType": "string",
          "name": "_email",
          "type": "string"
        }
      ],
      "name": "registerDoctor",
      "outputs": [],
      "stateMutability": "nonpayable",
      "type": "function"
    },
    {
      "inputs": [
        {
          "internalType": "uint256",
          "name": "_patientId",
          "type": "uint256"
        }
      ],
      "name": "addPatient",
      "outputs": [],
      "stateMutability": "nonpayable",
      "type": "function"
    },
    {
      "inputs": [],
      "name": "getDoctorPatients",
      "outputs": [
        {
          "internalType": "uint256[]",
          "name": "",
          "type": "uint256[]"
        }
      ],
      "stateMutability": "view",
      "type": "function",
      "constant": true
    },
    {
      "inputs": [
        {
          "internalType": "address",
          "name": "_patient",
          "type": "address"
        },
        {
          "internalType": "string",
          "name": "_ipfsHash",
          "type": "string"
        }
      ],
      "name": "hasAccessToDocument",
      "outputs": [
        {
          "internalType": "bool",
          "name": "",
          "type": "bool"
        }
      ],
      "stateMutability": "view",
      "type": "function",
      "constant": true
    },
    {
      "inputs": [
        {
          "internalType": "address",
          "name": "_patient",
          "type": "address"
        },
        {
          "internalType": "string",
          "name": "_ipfsHash",
          "type": "string"
        }
      ],
      "name": "requestAccess",
      "outputs": [],
      "stateMutability": "nonpayable",
      "type": "function"
    },
    {
      "inputs": [
        {
          "internalType": "address",
          "name": "_doctor",
          "type": "address"
        },
        {
          "internalType": "string",
          "name": "_ipfsHash",
          "type": "string"
        }
      ],
      "name": "grantAccess",
      "outputs": [],
      "stateMutability": "nonpayable",
      "type": "function"
    },
    {
      "inputs": [],
      "name": "getPatients",
      "outputs": [
        {
          "components": [
            {
              "internalType": "uint256",
              "name": "doctorId",
              "type": "uint256"
            },
            {
              "internalType": "string",
              "name": "name",
              "type": "string"
            },
            {
              "internalType": "string",
              "name": "specialization",
              "type": "string"
            },
            {
              "internalType": "string",
              "name": "email",
              "type": "string"
            },
            {
              "internalType": "uint256[]",
              "name": "patientIds",
              "type": "uint256[]"
            }
          ],
          "internalType": "struct Doctor.DoctorDetails[]",
          "name": "",
          "type": "tuple[]"
        }
      ],
      "stateMutability": "view",
      "type": "function",
      "constant": true
    },
    {
      "inputs": [
        {
          "internalType": "address",
          "name": "walletAddress",
          "type": "address"
        }
      ],
      "name": "doctorExists",
      "outputs": [
        {
          "internalType": "bool",
          "name": "",
          "type": "bool"
        }
      ],
      "stateMutability": "view",
      "type": "function",
      "constant": true
    },
    {
      "inputs": [],
      "name": "getAllDoctors",
      "outputs": [
        {
          "components": [
            {
              "internalType": "uint256",
              "name": "doctorId",
              "type": "uint256"
            },
            {
              "internalType": "string",
              "name": "name",
              "type": "string"
            },
            {
              "internalType": "string",
              "name": "specialization",
              "type": "string"
            },
            {
              "internalType": "string",
              "name": "email",
              "type": "string"
            },
            {
              "internalType": "uint256[]",
              "name": "patientIds",
              "type": "uint256[]"
            }
          ],
          "internalType": "struct Doctor.DoctorDetails[]",
          "name": "",
          "type": "tuple[]"
        }
      ],
      "stateMutability": "view",
      "type": "function",
      "constant": true
    }
  ],
  "bytecode": "0x608060405234801561001057600080fd5b5061288e806100206000396000f3fe608060405234801561001057600080fd5b50600436106100b45760003560e01c80636efb1b84116100715780636efb1b841461018d5780638b145ec8146101c057806398cf72b3146101de578063e50fe48e1461020e578063f0d950901461022a578063f6827cd114610248576100b4565b806312ad1c37146100b95780632ad230a9146100d75780632f6d4a591461010757806333948de214610123578063506e08d21461015557806350c7a91214610171575b600080fd5b6100c1610278565b6040516100ce9190611c6d565b60405180910390f35b6100f160048036038101906100ec9190611d01565b61077b565b6040516100fe9190611d49565b60405180910390f35b610121600480360381019061011c9190611e99565b6107c6565b005b61013d60048036038101906101389190611f21565b6109a5565b60405161014c93929190611fba565b60405180910390f35b61016f600480360381019061016a9190611ff8565b610aa1565b005b61018b60048036038101906101869190612025565b610c4a565b005b6101a760048036038101906101a29190611ff8565b610e20565b6040516101b794939291906120db565b60405180910390f35b6101c8610fe8565b6040516101d591906121a4565b60405180910390f35b6101f860048036038101906101f39190611d01565b6110db565b60405161020591906121c6565b60405180910390f35b61022860048036038101906102239190611e99565b6110f3565b005b610232611329565b60405161023f9190611c6d565b60405180910390f35b610262600480360381019061025d9190611e99565b611611565b60405161026f9190611d49565b60405180910390f35b606060008060003373ffffffffffffffffffffffffffffffffffffffff1673ffffffffffffffffffffffffffffffffffffffff16815260200190815260200160002054905060008103610300576040517f08c379a00000000000000000000000000000000000000000000000000000000081526004016102f79061222d565b60405180910390fd5b600060026000838152602001908152602001600020805480602002602001604051908101604052809291908181526020016000905b8282101561046a57838290600052602060002090600302016040518060600160405290816000820160009054906101000a900473ffffffffffffffffffffffffffffffffffffffff1673ffffffffffffffffffffffffffffffffffffffff1673ffffffffffffffffffffffffffffffffffffffff1681526020016001820180546103be9061227c565b80601f01602080910402602001604051908101604052809291908181526020018280546103ea9061227c565b80156104375780601f1061040c57610100808354040283529160200191610437565b820191906000526020600020905b81548152906001019060200180831161041a57829003601f168201915b505050505081526020016002820160009054906101000a900460ff16151515158152505081526020019060010190610335565b5050505090506000815167ffffffffffffffff81111561048d5761048c611d6e565b5b6040519080825280602002602001820160405280156104c657816020015b6104b361192f565b8152602001906001900390816104ab5790505b5090506000805b8351811015610770578381815181106104e9576104e86122ad565b5b6020026020010151604001511561075d57600160008681526020019081526020016000206040518060a0016040529081600082015481526020016001820180546105329061227c565b80601f016020809104026020016040519081016040528092919081815260200182805461055e9061227c565b80156105ab5780601f10610580576101008083540402835291602001916105ab565b820191906000526020600020905b81548152906001019060200180831161058e57829003601f168201915b505050505081526020016002820180546105c49061227c565b80601f01602080910402602001604051908101604052809291908181526020018280546105f09061227c565b801561063d5780601f106106125761010080835404028352916020019161063d565b820191906000526020600020905b81548152906001019060200180831161062057829003601f168201915b505050505081526020016003820180546106569061227c565b80601f01602080910402602001604051908101604052809291908181526020018280546106829061227c565b80156106cf5780601f106106a4576101008083540402835291602001916106cf565b820191906000526020600020905b8154815290600101906020018083116106b257829003601f168201915b505050505081526020016004820180548060200260200160405190810160405280929190818152602001828054801561072757602002820191906000526020600020905b815481526020019060010190808311610713575b505050505081525050838381518110610743576107426122ad565b5b602002602001018190525081806107599061230b565b9250505b80806107689061230b565b9150506104cd565b508194505050505090565b6000806000808473ffffffffffffffffffffffffffffffffffffffff1673ffffffffffffffffffffffffffffffffffffffff1681526020019081526020016000205414159050919050565b60008060003373ffffffffffffffffffffffffffffffffffffffff1673ffffffffffffffffffffffffffffffffffffffff1681526020019081526020016000205490506000810361084c576040517f08c379a00000000000000000000000000000000000000000000000000000000081526004016108439061222d565b60405180910390fd5b6002600082815260200190815260200160002060405180606001604052808573ffffffffffffffffffffffffffffffffffffffff16815260200184815260200160001515815250908060018154018082558091505060019003906000526020600020906003020160009091909190915060008201518160000160006101000a81548173ffffffffffffffffffffffffffffffffffffffff021916908373ffffffffffffffffffffffffffffffffffffffff160217905550602082015181600101908161091891906124ff565b5060408201518160020160006101000a81548160ff02191690831515021790555050503373ffffffffffffffffffffffffffffffffffffffff168373ffffffffffffffffffffffffffffffffffffffff167f7345df1fefb912154845267ca137457ad1fd510d6426afd2502e66d3006022638460405161099891906125d1565b60405180910390a3505050565b600260205281600052604060002081815481106109c157600080fd5b9060005260206000209060030201600091509150508060000160009054906101000a900473ffffffffffffffffffffffffffffffffffffffff1690806001018054610a0b9061227c565b80601f0160208091040260200160405190810160405280929190818152602001828054610a379061227c565b8015610a845780601f10610a5957610100808354040283529160200191610a84565b820191906000526020600020905b815481529060010190602001808311610a6757829003601f168201915b5050505050908060020160009054906101000a900460ff16905083565b60008060003373ffffffffffffffffffffffffffffffffffffffff1673ffffffffffffffffffffffffffffffffffffffff16815260200190815260200160002054905060008103610b27576040517f08c379a0000000000000000000000000000000000000000000000000000000008152600401610b1e9061222d565b60405180910390fd5b600060016000838152602001908152602001600020600401905060005b8180549050811015610bc25783828281548110610b6457610b636122ad565b5b906000526020600020015403610baf576040517f08c379a0000000000000000000000000000000000000000000000000000000008152600401610ba69061263f565b60405180910390fd5b8080610bba9061230b565b915050610b44565b50600160008381526020019081526020016000206004018390806001815401808255809150506001900390600052602060002001600090919091909150553373ffffffffffffffffffffffffffffffffffffffff1683837f62e4da5e5c3a89b6dca6a385b8712c06f51bf0855ae5b6abd14937474a4ce01e60405160405180910390a4505050565b60008060003373ffffffffffffffffffffffffffffffffffffffff1673ffffffffffffffffffffffffffffffffffffffff1681526020019081526020016000205414610ccb576040517f08c379a0000000000000000000000000000000000000000000000000000000008152600401610cc2906126ab565b60405180910390fd5b60036000815480929190610cde9061230b565b91905055506003546000803373ffffffffffffffffffffffffffffffffffffffff1673ffffffffffffffffffffffffffffffffffffffff168152602001908152602001600020819055506040518060a001604052806003548152602001848152602001838152602001828152602001600067ffffffffffffffff811115610d6857610d67611d6e565b5b604051908082528060200260200182016040528015610d965781602001602082028036833780820191505090505b50815250600160006003548152602001908152602001600020600082015181600001556020820151816001019081610dce91906124ff565b506040820151816002019081610de491906124ff565b506060820151816003019081610dfa91906124ff565b506080820151816004019080519060200190610e1792919061195e565b50905050505050565b6001602052806000526040600020600091509050806000015490806001018054610e499061227c565b80601f0160208091040260200160405190810160405280929190818152602001828054610e759061227c565b8015610ec25780601f10610e9757610100808354040283529160200191610ec2565b820191906000526020600020905b815481529060010190602001808311610ea557829003601f168201915b505050505090806002018054610ed79061227c565b80601f0160208091040260200160405190810160405280929190818152602001828054610f039061227c565b8015610f505780601f10610f2557610100808354040283529160200191610f50565b820191906000526020600020905b815481529060010190602001808311610f3357829003601f168201915b505050505090806003018054610f659061227c565b80601f0160208091040260200160405190810160405280929190818152602001828054610f919061227c565b8015610fde5780601f10610fb357610100808354040283529160200191610fde565b820191906000526020600020905b815481529060010190602001808311610fc157829003601f168201915b5050505050905084565b606060008060003373ffffffffffffffffffffffffffffffffffffffff1673ffffffffffffffffffffffffffffffffffffffff16815260200190815260200160002054905060008103611070576040517f08c379a00000000000000000000000000000000000000000000000000000000081526004016110679061222d565b60405180910390fd5b600160008281526020019081526020016000206004018054806020026020016040519081016040528092919081815260200182805480156110d057602002820191906000526020600020905b8154815260200190600101908083116110bc575b505050505091505090565b60006020528060005260406000206000915090505481565b60008060008473ffffffffffffffffffffffffffffffffffffffff1673ffffffffffffffffffffffffffffffffffffffff16815260200190815260200160002054905060008103611179576040517f08c379a00000000000000000000000000000000000000000000000000000000081526004016111709061222d565b60405180910390fd5b600060026000838152602001908152602001600020905060005b81805490508110156112e9573373ffffffffffffffffffffffffffffffffffffffff168282815481106111c9576111c86122ad565b5b906000526020600020906003020160000160009054906101000a900473ffffffffffffffffffffffffffffffffffffffff1673ffffffffffffffffffffffffffffffffffffffff1614801561128c57508360405160200161122a9190612707565b60405160208183030381529060405280519060200120828281548110611253576112526122ad565b5b906000526020600020906003020160010160405160200161127491906127a1565b60405160208183030381529060405280519060200120145b156112d65760018282815481106112a6576112a56122ad565b5b906000526020600020906003020160020160006101000a81548160ff021916908315150217905550505050611325565b80806112e19061230b565b915050611193565b506040517f08c379a000000000000000000000000000000000000000000000000000000000815260040161131c90612804565b60405180910390fd5b5050565b60606000600354905060008167ffffffffffffffff81111561134e5761134d611d6e565b5b60405190808252806020026020018201604052801561138757816020015b61137461192f565b81526020019060019003908161136c5790505b50905060005b8281101561160857600160006001836113a69190612824565b81526020019081526020016000206040518060a0016040529081600082015481526020016001820180546113d99061227c565b80601f01602080910402602001604051908101604052809291908181526020018280546114059061227c565b80156114525780601f1061142757610100808354040283529160200191611452565b820191906000526020600020905b81548152906001019060200180831161143557829003601f168201915b5050505050815260200160028201805461146b9061227c565b80601f01602080910402602001604051908101604052809291908181526020018280546114979061227c565b80156114e45780601f106114b9576101008083540402835291602001916114e4565b820191906000526020600020905b8154815290600101906020018083116114c757829003601f168201915b505050505081526020016003820180546114fd9061227c565b80601f01602080910402602001604051908101604052809291908181526020018280546115299061227c565b80156115765780601f1061154b57610100808354040283529160200191611576565b820191906000526020600020905b81548152906001019060200180831161155957829003601f168201915b50505050508152602001600482018054806020026020016040519081016040528092919081815260200182805480156115ce57602002820191906000526020600020905b8154815260200190600101908083116115ba575b5050505050815250508282815181106115ea576115e96122ad565b5b602002602001018190525080806116009061230b565b91505061138d565b50809250505090565b6000806000803373ffffffffffffffffffffffffffffffffffffffff1673ffffffffffffffffffffffffffffffffffffffff16815260200190815260200160002054905060008103611698576040517f08c379a000000000000000000000000000000000000000000000000000000000815260040161168f9061222d565b60405180910390fd5b600060026000838152602001908152602001600020805480602002602001604051908101604052809291908181526020016000905b8282101561180257838290600052602060002090600302016040518060600160405290816000820160009054906101000a900473ffffffffffffffffffffffffffffffffffffffff1673ffffffffffffffffffffffffffffffffffffffff1673ffffffffffffffffffffffffffffffffffffffff1681526020016001820180546117569061227c565b80601f01602080910402602001604051908101604052809291908181526020018280546117829061227c565b80156117cf5780601f106117a4576101008083540402835291602001916117cf565b820191906000526020600020905b8154815290600101906020018083116117b257829003601f168201915b505050505081526020016002820160009054906101000a900460ff161515151581525050815260200190600101906116cd565b50505050905060005b8151811015611921578573ffffffffffffffffffffffffffffffffffffffff1682828151811061183e5761183d6122ad565b5b60200260200101516000015173ffffffffffffffffffffffffffffffffffffffff161480156118d65750846040516020016118799190612707565b604051602081830303815290604052805190602001208282815181106118a2576118a16122ad565b5b6020026020010151602001516040516020016118be9190612707565b60405160208183030381529060405280519060200120145b80156118fd57508181815181106118f0576118ef6122ad565b5b6020026020010151604001515b1561190e5760019350505050611929565b80806119199061230b565b91505061180b565b506000925050505b92915050565b6040518060a0016040528060008152602001606081526020016060815260200160608152602001606081525090565b82805482825590600052602060002090810192821561199a579160200282015b8281111561199957825182559160200191906001019061197e565b5b5090506119a791906119ab565b5090565b5b808211156119c45760008160009055506001016119ac565b5090565b600081519050919050565b600082825260208201905092915050565b6000819050602082019050919050565b6000819050919050565b611a07816119f4565b82525050565b600081519050919050565b600082825260208201905092915050565b60005b83811015611a47578082015181840152602081019050611a2c565b60008484015250505050565b6000601f19601f8301169050919050565b6000611a6f82611a0d565b611a798185611a18565b9350611a89818560208601611a29565b611a9281611a53565b840191505092915050565b600081519050919050565b600082825260208201905092915050565b6000819050602082019050919050565b6000611ad583836119fe565b60208301905092915050565b6000602082019050919050565b6000611af982611a9d565b611b038185611aa8565b9350611b0e83611ab9565b8060005b83811015611b3f578151611b268882611ac9565b9750611b3183611ae1565b925050600181019050611b12565b5085935050505092915050565b600060a083016000830151611b6460008601826119fe565b5060208301518482036020860152611b7c8282611a64565b91505060408301518482036040860152611b968282611a64565b91505060608301518482036060860152611bb08282611a64565b91505060808301518482036080860152611bca8282611aee565b9150508091505092915050565b6000611be38383611b4c565b905092915050565b6000602082019050919050565b6000611c03826119c8565b611c0d81856119d3565b935083602082028501611c1f856119e4565b8060005b85811015611c5b5784840389528151611c3c8582611bd7565b9450611c4783611beb565b925060208a01995050600181019050611c23565b50829750879550505050505092915050565b60006020820190508181036000830152611c878184611bf8565b905092915050565b6000604051905090565b600080fd5b600080fd5b600073ffffffffffffffffffffffffffffffffffffffff82169050919050565b6000611cce82611ca3565b9050919050565b611cde81611cc3565b8114611ce957600080fd5b50565b600081359050611cfb81611cd5565b92915050565b600060208284031215611d1757611d16611c99565b5b6000611d2584828501611cec565b91505092915050565b60008115159050919050565b611d4381611d2e565b82525050565b6000602082019050611d5e6000830184611d3a565b92915050565b600080fd5b600080fd5b7f4e487b7100000000000000000000000000000000000000000000000000000000600052604160045260246000fd5b611da682611a53565b810181811067ffffffffffffffff82111715611dc557611dc4611d6e565b5b80604052505050565b6000611dd8611c8f565b9050611de48282611d9d565b919050565b600067ffffffffffffffff821115611e0457611e03611d6e565b5b611e0d82611a53565b9050602081019050919050565b82818337600083830152505050565b6000611e3c611e3784611de9565b611dce565b905082815260208101848484011115611e5857611e57611d69565b5b611e63848285611e1a565b509392505050565b600082601f830112611e8057611e7f611d64565b5b8135611e90848260208601611e29565b91505092915050565b60008060408385031215611eb057611eaf611c99565b5b6000611ebe85828601611cec565b925050602083013567ffffffffffffffff811115611edf57611ede611c9e565b5b611eeb85828601611e6b565b9150509250929050565b611efe816119f4565b8114611f0957600080fd5b50565b600081359050611f1b81611ef5565b92915050565b60008060408385031215611f3857611f37611c99565b5b6000611f4685828601611f0c565b9250506020611f5785828601611f0c565b9150509250929050565b611f6a81611cc3565b82525050565b600082825260208201905092915050565b6000611f8c82611a0d565b611f968185611f70565b9350611fa6818560208601611a29565b611faf81611a53565b840191505092915050565b6000606082019050611fcf6000830186611f61565b8181036020830152611fe18185611f81565b9050611ff06040830184611d3a565b949350505050565b60006020828403121561200e5761200d611c99565b5b600061201c84828501611f0c565b91505092915050565b60008060006060848603121561203e5761203d611c99565b5b600084013567ffffffffffffffff81111561205c5761205b611c9e565b5b61206886828701611e6b565b935050602084013567ffffffffffffffff81111561208957612088611c9e565b5b61209586828701611e6b565b925050604084013567ffffffffffffffff8111156120b6576120b5611c9e565b5b6120c286828701611e6b565b9150509250925092565b6120d5816119f4565b82525050565b60006080820190506120f060008301876120cc565b81810360208301526121028186611f81565b905081810360408301526121168185611f81565b9050818103606083015261212a8184611f81565b905095945050505050565b600082825260208201905092915050565b600061215182611a9d565b61215b8185612135565b935061216683611ab9565b8060005b8381101561219757815161217e8882611ac9565b975061218983611ae1565b92505060018101905061216a565b5085935050505092915050565b600060208201905081810360008301526121be8184612146565b905092915050565b60006020820190506121db60008301846120cc565b92915050565b7f446f63746f72206e6f7420726567697374657265640000000000000000000000600082015250565b6000612217601583611f70565b9150612222826121e1565b602082019050919050565b600060208201905081810360008301526122468161220a565b9050919050565b7f4e487b7100000000000000000000000000000000000000000000000000000000600052602260045260246000fd5b6000600282049050600182168061229457607f821691505b6020821081036122a7576122a661224d565b5b50919050565b7f4e487b7100000000000000000000000000000000000000000000000000000000600052603260045260246000fd5b7f4e487b7100000000000000000000000000000000000000000000000000000000600052601160045260246000fd5b6000612316826119f4565b91507fffffffffffffffffffffffffffffffffffffffffffffffffffffffffffffffff8203612348576123476122dc565b5b600182019050919050565b60008190508160005260206000209050919050565b60006020601f8301049050919050565b600082821b905092915050565b6000600883026123b57fffffffffffffffffffffffffffffffffffffffffffffffffffffffffffffffff82612378565b6123bf8683612378565b95508019841693508086168417925050509392505050565b6000819050919050565b60006123fc6123f76123f2846119f4565b6123d7565b6119f4565b9050919050565b6000819050919050565b612416836123e1565b61242a61242282612403565b848454612385565b825550505050565b600090565b61243f612432565b61244a81848461240d565b505050565b5b8181101561246e57612463600082612437565b600181019050612450565b5050565b601f8211156124b35761248481612353565b61248d84612368565b8101602085101561249c578190505b6124b06124a885612368565b83018261244f565b50505b505050565b600082821c905092915050565b60006124d6600019846008026124b8565b1980831691505092915050565b60006124ef83836124c5565b9150826002028217905092915050565b61250882611a0d565b67ffffffffffffffff81111561252157612520611d6e565b5b61252b825461227c565b612536828285612472565b600060209050601f8311600181146125695760008415612557578287015190505b61256185826124e3565b8655506125c9565b601f19841661257786612353565b60005b8281101561259f5784890151825560018201915060208501945060208101905061257a565b868310156125bc57848901516125b8601f8916826124c5565b8355505b6001600288020188555050505b505050505050565b600060208201905081810360008301526125eb8184611f81565b905092915050565b7f50617469656e7420616c72656164792061646465640000000000000000000000600082015250565b6000612629601583611f70565b9150612634826125f3565b602082019050919050565b600060208201905081810360008301526126588161261c565b9050919050565b7f446f63746f7220616c7265616479207265676973746572656400000000000000600082015250565b6000612695601983611f70565b91506126a08261265f565b602082019050919050565b600060208201905081810360008301526126c481612688565b9050919050565b600081905092915050565b60006126e182611a0d565b6126eb81856126cb565b93506126fb818560208601611a29565b80840191505092915050565b600061271382846126d6565b915081905092915050565b6000815461272b8161227c565b61273581866126cb565b94506001821660008114612750576001811461276557612798565b60ff1983168652811515820286019350612798565b61276e85612353565b60005b8381101561279057815481890152600182019150602081019050612771565b838801955050505b50505092915050565b60006127ad828461271e565b915081905092915050565b7f4163636573732072657175657374206e6f7420666f756e640000000000000000600082015250565b60006127ee601883611f70565b91506127f9826127b8565b602082019050919050565b6000602082019050818103600083015261281d816127e1565b9050919050565b600061282f826119f4565b915061283a836119f4565b9250828201905080821115612852576128516122dc565b5b9291505056fea2646970667358221220068881b56c8ff69a9d91bcfcba518a8355c55abe6da380a9d6db59a87735f89564736f6c63430008130033",
  "immutableReferences": {},
  "source": "// SPDX-License-Identifier: MIT\r\npragma solidity ^0.8.19;\r\n\r\ncontract Doctor {\r\n    struct DoctorDetails {\r\n        uint256 doctorId;\r\n        string name;\r\n        string specialization;\r\n        string email;\r\n        uint256[] patientIds; // NEW: List of patients linked to this doctor\r\n    }\r\n\r\n    struct DocumentAccess {\r\n        address patient;\r\n        string ipfsHash;\r\n        bool hasAccess;\r\n    }\r\n\r\n    mapping(address => uint256) public walletToDoctorId;\r\n    mapping(uint256 => DoctorDetails) public doctors;\r\n    mapping(uint256 => DocumentAccess[]) public doctorAccessList;\r\n\r\n    uint256 private doctorIdCounter;\r\n\r\n    // --- EVENTS ---\r\n    event AccessRequested(address indexed patient, address indexed doctor, string ipfsHash);\r\n    event PatientAdded(uint256 indexed doctorId, uint256 indexed patientId, address indexed doctor);\r\n\r\n    // --- DOCTOR REGISTRATION ---\r\n    function registerDoctor(\r\n        string memory _name,\r\n        string memory _specialization,\r\n        string memory _email\r\n    ) public {\r\n        require(walletToDoctorId[msg.sender] == 0, \"Doctor already registered\");\r\n\r\n        doctorIdCounter++;\r\n        walletToDoctorId[msg.sender] = doctorIdCounter;\r\n\r\n        doctors[doctorIdCounter] = DoctorDetails({\r\n            doctorId: doctorIdCounter,\r\n            name: _name,\r\n            specialization: _specialization,\r\n            email: _email,\r\n            patientIds: new uint256[](0) // Initialize empty patient list\r\n        });\r\n    }\r\n\r\n    // --- ADD PATIENT TO DOCTOR ---\r\n    function addPatient(uint256 _patientId) public {\r\n        uint256 doctorId = walletToDoctorId[msg.sender];\r\n        require(doctorId != 0, \"Doctor not registered\");\r\n\r\n        // Optional: ensure no duplicate patient\r\n        uint256[] storage patients = doctors[doctorId].patientIds;\r\n        for (uint256 i = 0; i < patients.length; i++) {\r\n            if (patients[i] == _patientId) {\r\n                revert(\"Patient already added\");\r\n            }\r\n        }\r\n\r\n        doctors[doctorId].patientIds.push(_patientId);\r\n\r\n        emit PatientAdded(doctorId, _patientId, msg.sender);\r\n    }\r\n\r\n    // --- GET DOCTOR'S PATIENT LIST ---\r\n    function getDoctorPatients() public view returns (uint256[] memory) {\r\n        uint256 doctorId = walletToDoctorId[msg.sender];\r\n        require(doctorId != 0, \"Doctor not registered\");\r\n        return doctors[doctorId].patientIds;\r\n    }\r\n\r\n    // --- DOCUMENT ACCESS LOGIC ---\r\n    function hasAccessToDocument(address _patient, string memory _ipfsHash)\r\n        public\r\n        view\r\n        returns (bool)\r\n    {\r\n        uint256 doctorId = walletToDoctorId[msg.sender];\r\n        require(doctorId != 0, \"Doctor not registered\");\r\n\r\n        DocumentAccess[] memory accessList = doctorAccessList[doctorId];\r\n        for (uint256 i = 0; i < accessList.length; i++) {\r\n            if (\r\n                accessList[i].patient == _patient &&\r\n                keccak256(abi.encodePacked(accessList[i].ipfsHash)) ==\r\n                keccak256(abi.encodePacked(_ipfsHash)) &&\r\n                accessList[i].hasAccess\r\n            ) {\r\n                return true;\r\n            }\r\n        }\r\n        return false;\r\n    }\r\n\r\n    function requestAccess(address _patient, string memory _ipfsHash) public {\r\n        uint256 doctorId = walletToDoctorId[msg.sender];\r\n        require(doctorId != 0, \"Doctor not registered\");\r\n\r\n        doctorAccessList[doctorId].push(\r\n            DocumentAccess({patient: _patient, ipfsHash: _ipfsHash, hasAccess: false})\r\n        );\r\n\r\n        emit AccessRequested(_patient, msg.sender, _ipfsHash);\r\n    }\r\n\r\n    function grantAccess(address _doctor, string memory _ipfsHash) public {\r\n        uint256 doctorId = walletToDoctorId[_doctor];\r\n        require(doctorId != 0, \"Doctor not registered\");\r\n\r\n        DocumentAccess[] storage accessList = doctorAccessList[doctorId];\r\n        for (uint256 i = 0; i < accessList.length; i++) {\r\n            if (\r\n                accessList[i].patient == msg.sender &&\r\n                keccak256(abi.encodePacked(accessList[i].ipfsHash)) ==\r\n                keccak256(abi.encodePacked(_ipfsHash))\r\n            ) {\r\n                accessList[i].hasAccess = true;\r\n                return;\r\n            }\r\n        }\r\n        revert(\"Access request not found\");\r\n    }\r\n\r\n    // --- GETTERS ---\r\n    function getPatients() public view returns (DoctorDetails[] memory) {\r\n        uint256 doctorId = walletToDoctorId[msg.sender];\r\n        require(doctorId != 0, \"Doctor not registered\");\r\n\r\n        DocumentAccess[] memory accessList = doctorAccessList[doctorId];\r\n        DoctorDetails[] memory patients = new DoctorDetails[](accessList.length);\r\n        uint256 count = 0;\r\n\r\n        for (uint256 i = 0; i < accessList.length; i++) {\r\n            if (accessList[i].hasAccess) {\r\n                patients[count] = doctors[doctorId];\r\n                count++;\r\n            }\r\n        }\r\n\r\n        return patients;\r\n    }\r\n\r\n    function doctorExists(address walletAddress) public view returns (bool) {\r\n        return walletToDoctorId[walletAddress] != 0;\r\n    }\r\n\r\n    function getAllDoctors() public view returns (DoctorDetails[] memory) {\r\n        uint256 total = doctorIdCounter;\r\n        DoctorDetails[] memory list = new DoctorDetails[](total);\r\n\r\n        for (uint256 i = 0; i < total; i++) {\r\n            list[i] = doctors[i + 1];\r\n        }\r\n\r\n        return list;\r\n    }\r\n}\r\n",
  "sourcePath": "J:\\Users\\ayush\\Desktop\\rocket\\backend\\contracts\\contracts\\Doctor.sol",
  "compiler": {
    "name": "solc",
    "version": "0.8.19+commit.7dd6d404.Emscripten.clang"
  },
  "schemaVersion": "3.4.16",
  "updatedAt": "2025-10-04T15:02:13.144Z",
  "networkType": "ethereum",
  "devdoc": {
    "kind": "dev",
    "methods": {},
    "version": 1
  },
  "userdoc": {
    "kind": "user",
    "methods": {},
    "version": 1
  }
}