{
  "contractName": "Doctor",
  "abi": [
    {
      "inputs": [],
      "stateMutability": "nonpayable",
      "type": "constructor"
    },
    {
      "anonymous": false,
      "inputs": [
        {
          "indexed": true,
          "internalType": "address",
          "name": "patient",
          "type": "address"
        },
        {
          "indexed": true,
          "internalType": "address",
          "name": "doctor",
          "type": "address"
        },
        {
          "indexed": false,
          "internalType": "string",
          "name": "ipfsHash",
          "type": "string"
        },
        {
          "indexed": false,
          "internalType": "uint256",
          "name": "grantTime",
          "type": "uint256"
        },
        {
          "indexed": false,
          "internalType": "uint256",
          "name": "duration",
          "type": "uint256"
        }
      ],
      "name": "AccessGranted",
      "type": "event"
    },
    {
      "anonymous": false,
      "inputs": [
        {
          "indexed": true,
          "internalType": "address",
          "name": "patient",
          "type": "address"
        },
        {
          "indexed": true,
          "internalType": "address",
          "name": "doctor",
          "type": "address"
        },
        {
          "indexed": false,
          "internalType": "string",
          "name": "ipfsHash",
          "type": "string"
        },
        {
          "indexed": false,
          "internalType": "string",
          "name": "fileName",
          "type": "string"
        },
        {
          "indexed": false,
          "internalType": "uint256",
          "name": "duration",
          "type": "uint256"
        },
        {
          "indexed": false,
          "internalType": "string",
          "name": "reason",
          "type": "string"
        }
      ],
      "name": "AccessRequested",
      "type": "event"
    },
    {
      "anonymous": false,
      "inputs": [
        {
          "indexed": true,
          "internalType": "address",
          "name": "patient",
          "type": "address"
        },
        {
          "indexed": true,
          "internalType": "address",
          "name": "doctor",
          "type": "address"
        },
        {
          "indexed": false,
          "internalType": "string",
          "name": "ipfsHash",
          "type": "string"
        },
        {
          "indexed": false,
          "internalType": "uint256",
          "name": "revokeTime",
          "type": "uint256"
        }
      ],
      "name": "AccessRevoked",
      "type": "event"
    },
    {
      "anonymous": false,
      "inputs": [
        {
          "indexed": true,
          "internalType": "address",
          "name": "doctor",
          "type": "address"
        },
        {
          "indexed": true,
          "internalType": "address",
          "name": "patient",
          "type": "address"
        },
        {
          "indexed": false,
          "internalType": "string",
          "name": "ipfsHash",
          "type": "string"
        },
        {
          "indexed": false,
          "internalType": "string",
          "name": "reason",
          "type": "string"
        },
        {
          "indexed": false,
          "internalType": "uint256",
          "name": "timestamp",
          "type": "uint256"
        }
      ],
      "name": "EmergencyAccessGranted",
      "type": "event"
    },
    {
      "anonymous": false,
      "inputs": [
        {
          "indexed": true,
          "internalType": "address",
          "name": "patient",
          "type": "address"
        },
        {
          "indexed": true,
          "internalType": "address",
          "name": "resolver",
          "type": "address"
        },
        {
          "indexed": false,
          "internalType": "string",
          "name": "ipfsHash",
          "type": "string"
        },
        {
          "indexed": false,
          "internalType": "uint256",
          "name": "timestamp",
          "type": "uint256"
        }
      ],
      "name": "EmergencyResolved",
      "type": "event"
    },
    {
      "anonymous": false,
      "inputs": [
        {
          "indexed": true,
          "internalType": "uint256",
          "name": "doctorId",
          "type": "uint256"
        },
        {
          "indexed": true,
          "internalType": "uint256",
          "name": "patientId",
          "type": "uint256"
        },
        {
          "indexed": true,
          "internalType": "address",
          "name": "doctor",
          "type": "address"
        }
      ],
      "name": "PatientAdded",
      "type": "event"
    },
    {
      "inputs": [
        {
          "internalType": "uint256",
          "name": "",
          "type": "uint256"
        },
        {
          "internalType": "uint256",
          "name": "",
          "type": "uint256"
        }
      ],
      "name": "doctorAccessList",
      "outputs": [
        {
          "internalType": "address",
          "name": "patient",
          "type": "address"
        },
        {
          "internalType": "string",
          "name": "ipfsHash",
          "type": "string"
        },
        {
          "internalType": "string",
          "name": "fileName",
          "type": "string"
        },
        {
          "internalType": "bool",
          "name": "hasAccess",
          "type": "bool"
        },
        {
          "internalType": "uint256",
          "name": "grantTime",
          "type": "uint256"
        },
        {
          "internalType": "uint256",
          "name": "duration",
          "type": "uint256"
        },
        {
          "internalType": "string",
          "name": "reason",
          "type": "string"
        },
        {
          "internalType": "bool",
          "name": "isEmergency",
          "type": "bool"
        },
        {
          "internalType": "bool",
          "name": "isResolved",
          "type": "bool"
        }
      ],
      "stateMutability": "view",
      "type": "function"
    },
    {
      "inputs": [
        {
          "internalType": "uint256",
          "name": "",
          "type": "uint256"
        }
      ],
      "name": "doctors",
      "outputs": [
        {
          "internalType": "uint256",
          "name": "doctorId",
          "type": "uint256"
        },
        {
          "internalType": "string",
          "name": "name",
          "type": "string"
        },
        {
          "internalType": "string",
          "name": "specialization",
          "type": "string"
        },
        {
          "internalType": "string",
          "name": "email",
          "type": "string"
        }
      ],
      "stateMutability": "view",
      "type": "function"
    },
    {
      "inputs": [],
      "name": "hospitalContract",
      "outputs": [
        {
          "internalType": "address",
          "name": "",
          "type": "address"
        }
      ],
      "stateMutability": "view",
      "type": "function"
    },
    {
      "inputs": [],
      "name": "owner",
      "outputs": [
        {
          "internalType": "address",
          "name": "",
          "type": "address"
        }
      ],
      "stateMutability": "view",
      "type": "function"
    },
    {
      "inputs": [
        {
          "internalType": "address",
          "name": "",
          "type": "address"
        }
      ],
      "name": "walletToDoctorId",
      "outputs": [
        {
          "internalType": "uint256",
          "name": "",
          "type": "uint256"
        }
      ],
      "stateMutability": "view",
      "type": "function"
    },
    {
      "inputs": [
        {
          "internalType": "address",
          "name": "_addr",
          "type": "address"
        }
      ],
      "name": "setHospitalContract",
      "outputs": [],
      "stateMutability": "nonpayable",
      "type": "function"
    },
    {
      "inputs": [
        {
          "internalType": "string",
          "name": "_name",
          "type": "string"
        },
        {
          "internalType": "string",
          "name": "_specialization",
          "type": "string"
        },
        {
          "internalType": "string",
          "name": "_hospital",
          "type": "string"
        }
      ],
      "name": "registerDoctor",
      "outputs": [],
      "stateMutability": "nonpayable",
      "type": "function"
    },
    {
      "inputs": [
        {
          "internalType": "uint256",
          "name": "_patientId",
          "type": "uint256"
        }
      ],
      "name": "addPatient",
      "outputs": [],
      "stateMutability": "nonpayable",
      "type": "function"
    },
    {
      "inputs": [],
      "name": "getDoctorPatients",
      "outputs": [
        {
          "internalType": "uint256[]",
          "name": "",
          "type": "uint256[]"
        }
      ],
      "stateMutability": "view",
      "type": "function"
    },
    {
      "inputs": [
        {
          "internalType": "address",
          "name": "_patient",
          "type": "address"
        },
        {
          "internalType": "string",
          "name": "_ipfsHash",
          "type": "string"
        }
      ],
      "name": "hasAccessToDocument",
      "outputs": [
        {
          "internalType": "bool",
          "name": "",
          "type": "bool"
        }
      ],
      "stateMutability": "view",
      "type": "function"
    },
    {
      "inputs": [
        {
          "internalType": "address",
          "name": "_patient",
          "type": "address"
        },
        {
          "internalType": "string",
          "name": "_ipfsHash",
          "type": "string"
        },
        {
          "internalType": "string",
          "name": "_fileName",
          "type": "string"
        },
        {
          "internalType": "uint256",
          "name": "_duration",
          "type": "uint256"
        },
        {
          "internalType": "string",
          "name": "_reason",
          "type": "string"
        }
      ],
      "name": "requestAccess",
      "outputs": [],
      "stateMutability": "nonpayable",
      "type": "function"
    },
    {
      "inputs": [
        {
          "internalType": "address",
          "name": "_patient",
          "type": "address"
        },
        {
          "internalType": "string",
          "name": "_ipfsHash",
          "type": "string"
        },
        {
          "internalType": "string",
          "name": "_fileName",
          "type": "string"
        },
        {
          "internalType": "string",
          "name": "_reason",
          "type": "string"
        },
        {
          "internalType": "address",
          "name": "_hospitalAddress",
          "type": "address"
        }
      ],
      "name": "emergencyBreakGlass",
      "outputs": [],
      "stateMutability": "nonpayable",
      "type": "function"
    },
    {
      "inputs": [
        {
          "internalType": "address",
          "name": "_doctor",
          "type": "address"
        },
        {
          "internalType": "string",
          "name": "_ipfsHash",
          "type": "string"
        },
        {
          "internalType": "uint256",
          "name": "_duration",
          "type": "uint256"
        }
      ],
      "name": "grantAccess",
      "outputs": [],
      "stateMutability": "nonpayable",
      "type": "function"
    },
    {
      "inputs": [
        {
          "internalType": "address",
          "name": "_doctor",
          "type": "address"
        },
        {
          "internalType": "string",
          "name": "_ipfsHash",
          "type": "string"
        }
      ],
      "name": "resolveEmergency",
      "outputs": [],
      "stateMutability": "nonpayable",
      "type": "function"
    },
    {
      "inputs": [
        {
          "internalType": "address",
          "name": "_doctor",
          "type": "address"
        },
        {
          "internalType": "string",
          "name": "_ipfsHash",
          "type": "string"
        }
      ],
      "name": "revokeAccess",
      "outputs": [],
      "stateMutability": "nonpayable",
      "type": "function"
    },
    {
      "inputs": [],
      "name": "getAccessList",
      "outputs": [
        {
          "components": [
            {
              "internalType": "address",
              "name": "patient",
              "type": "address"
            },
            {
              "internalType": "string",
              "name": "ipfsHash",
              "type": "string"
            },
            {
              "internalType": "string",
              "name": "fileName",
              "type": "string"
            },
            {
              "internalType": "bool",
              "name": "hasAccess",
              "type": "bool"
            },
            {
              "internalType": "uint256",
              "name": "grantTime",
              "type": "uint256"
            },
            {
              "internalType": "uint256",
              "name": "duration",
              "type": "uint256"
            },
            {
              "internalType": "string",
              "name": "reason",
              "type": "string"
            },
            {
              "internalType": "bool",
              "name": "isEmergency",
              "type": "bool"
            },
            {
              "internalType": "bool",
              "name": "isResolved",
              "type": "bool"
            }
          ],
          "internalType": "struct Doctor.DocumentAccess[]",
          "name": "",
          "type": "tuple[]"
        }
      ],
      "stateMutability": "view",
      "type": "function"
    },
    {
      "inputs": [],
      "name": "getPatients",
      "outputs": [
        {
          "components": [
            {
              "internalType": "uint256",
              "name": "doctorId",
              "type": "uint256"
            },
            {
              "internalType": "string",
              "name": "name",
              "type": "string"
            },
            {
              "internalType": "string",
              "name": "specialization",
              "type": "string"
            },
            {
              "internalType": "string",
              "name": "email",
              "type": "string"
            },
            {
              "internalType": "uint256[]",
              "name": "patientIds",
              "type": "uint256[]"
            }
          ],
          "internalType": "struct Doctor.DoctorDetails[]",
          "name": "",
          "type": "tuple[]"
        }
      ],
      "stateMutability": "view",
      "type": "function"
    },
    {
      "inputs": [
        {
          "internalType": "address",
          "name": "walletAddress",
          "type": "address"
        }
      ],
      "name": "doctorExists",
      "outputs": [
        {
          "internalType": "bool",
          "name": "",
          "type": "bool"
        }
      ],
      "stateMutability": "view",
      "type": "function"
    },
    {
      "inputs": [],
      "name": "getAllDoctors",
      "outputs": [
        {
          "components": [
            {
              "internalType": "uint256",
              "name": "doctorId",
              "type": "uint256"
            },
            {
              "internalType": "string",
              "name": "name",
              "type": "string"
            },
            {
              "internalType": "string",
              "name": "specialization",
              "type": "string"
            },
            {
              "internalType": "string",
              "name": "email",
              "type": "string"
            },
            {
              "internalType": "uint256[]",
              "name": "patientIds",
              "type": "uint256[]"
            }
          ],
          "internalType": "struct Doctor.DoctorDetails[]",
          "name": "",
          "type": "tuple[]"
        }
      ],
      "stateMutability": "view",
      "type": "function"
    }
  ],
  "bytecode": "0x6080604052348015600e575f5ffd5b503360045f6101000a81548173ffffffffffffffffffffffffffffffffffffffff021916908373ffffffffffffffffffffffffffffffffffffffff1602179055506143e58061005c5f395ff3fe608060405234801561000f575f5ffd5b506004361061011f575f3560e01c80636efb1b84116100ab57806398cf72b31161006f57806398cf72b3146102fc578063af2e16651461032c578063b69c615714610348578063f0d9509014610364578063f6827cd1146103825761011f565b80636efb1b84146102535780637f93a961146102865780638b145ec8146102a25780638d5ddbb3146102c05780638da5cb5b146102de5761011f565b806333948de2116100f257806333948de2146101a957806347dbb71a146101e1578063506e08d2146101ff57806350c7a9121461021b5780636a44cac9146102375761011f565b806302b66aaf1461012357806312ad1c371461013f578063157597541461015d5780632ad230a914610179575b5f5ffd5b61013d60048036038101906101389190612f57565b6103b2565b005b610147610635565b604051610154919061327c565b60405180910390f35b6101776004803603810190610172919061329c565b610c86565b005b610193600480360381019061018e919061329c565b610d58565b6040516101a091906132e1565b60405180910390f35b6101c360048036038101906101be91906132fa565b610da0565b6040516101d89998979695949392919061339e565b60405180910390f35b6101e9610fda565b6040516101f6919061343e565b60405180910390f35b61021960048036038101906102149190613457565b610fff565b005b61023560048036038101906102309190613482565b6111b8565b005b610251600480360381019061024c9190613526565b6112ec565b005b61026d60048036038101906102689190613457565b6115e4565b60405161027d9493929190613580565b60405180910390f35b6102a0600480360381019061029b91906135d8565b6117a2565b005b6102aa611a7c565b6040516102b791906136b0565b60405180910390f35b6102c8611b67565b6040516102d59190613879565b60405180910390f35b6102e6611ebd565b6040516102f3919061343e565b60405180910390f35b6103166004803603810190610311919061329c565b611ee2565b6040516103239190613899565b60405180910390f35b61034660048036038101906103419190613526565b611ef6565b005b610362600480360381019061035d91906138b2565b6121b7565b005b61036c6125ab565b604051610379919061327c565b60405180910390f35b61039c60048036038101906103979190613526565b612882565b6040516103a991906132e1565b60405180910390f35b5f5f5f3373ffffffffffffffffffffffffffffffffffffffff1673ffffffffffffffffffffffffffffffffffffffff1681526020019081526020015f205490505f8103610434576040517f08c379a000000000000000000000000000000000000000000000000000000000815260040161042b906139c7565b60405180910390fd5b60025f8281526020019081526020015f206040518061012001604052808873ffffffffffffffffffffffffffffffffffffffff1681526020018781526020018681526020015f151581526020015f81526020018581526020018481526020015f151581526020015f1515815250908060018154018082558091505060019003905f5260205f2090600802015f909190919091505f820151815f015f6101000a81548173ffffffffffffffffffffffffffffffffffffffff021916908373ffffffffffffffffffffffffffffffffffffffff16021790555060208201518160010190816105209190613bf3565b5060408201518160020190816105369190613bf3565b506060820151816003015f6101000a81548160ff0219169083151502179055506080820151816004015560a0820151816005015560c082015181600601908161057f9190613bf3565b5060e0820151816007015f6101000a81548160ff0219169083151502179055506101008201518160070160016101000a81548160ff02191690831515021790555050503373ffffffffffffffffffffffffffffffffffffffff168673ffffffffffffffffffffffffffffffffffffffff167fc4de088654327f2907ad8f0c288704b90c01af218c310b25c1682df9b7c8c7cd878787876040516106259493929190613cc2565b60405180910390a3505050505050565b60605f5f5f3373ffffffffffffffffffffffffffffffffffffffff1673ffffffffffffffffffffffffffffffffffffffff1681526020019081526020015f205490505f81036106b9576040517f08c379a00000000000000000000000000000000000000000000000000000000081526004016106b0906139c7565b60405180910390fd5b5f60025f8381526020019081526020015f20805480602002602001604051908101604052809291908181526020015f905b82821015610982578382905f5260205f209060080201604051806101200160405290815f82015f9054906101000a900473ffffffffffffffffffffffffffffffffffffffff1673ffffffffffffffffffffffffffffffffffffffff1673ffffffffffffffffffffffffffffffffffffffff16815260200160018201805461077090613a12565b80601f016020809104026020016040519081016040528092919081815260200182805461079c90613a12565b80156107e75780601f106107be576101008083540402835291602001916107e7565b820191905f5260205f20905b8154815290600101906020018083116107ca57829003601f168201915b5050505050815260200160028201805461080090613a12565b80601f016020809104026020016040519081016040528092919081815260200182805461082c90613a12565b80156108775780601f1061084e57610100808354040283529160200191610877565b820191905f5260205f20905b81548152906001019060200180831161085a57829003601f168201915b50505050508152602001600382015f9054906101000a900460ff1615151515815260200160048201548152602001600582015481526020016006820180546108be90613a12565b80601f01602080910402602001604051908101604052809291908181526020018280546108ea90613a12565b80156109355780601f1061090c57610100808354040283529160200191610935565b820191905f5260205f20905b81548152906001019060200180831161091857829003601f168201915b50505050508152602001600782015f9054906101000a900460ff161515151581526020016007820160019054906101000a900460ff161515151581525050815260200190600101906106ea565b5050505090505f815167ffffffffffffffff8111156109a4576109a3612e00565b5b6040519080825280602002602001820160405280156109dd57816020015b6109ca612d4f565b8152602001906001900390816109c25790505b5090505f5f90505f5f90505b8351811015610c7b57838181518110610a0557610a04613d1a565b5b60200260200101516060015115610c6e5760015f8681526020019081526020015f206040518060a00160405290815f8201548152602001600182018054610a4b90613a12565b80601f0160208091040260200160405190810160405280929190818152602001828054610a7790613a12565b8015610ac25780601f10610a9957610100808354040283529160200191610ac2565b820191905f5260205f20905b815481529060010190602001808311610aa557829003601f168201915b50505050508152602001600282018054610adb90613a12565b80601f0160208091040260200160405190810160405280929190818152602001828054610b0790613a12565b8015610b525780601f10610b2957610100808354040283529160200191610b52565b820191905f5260205f20905b815481529060010190602001808311610b3557829003601f168201915b50505050508152602001600382018054610b6b90613a12565b80601f0160208091040260200160405190810160405280929190818152602001828054610b9790613a12565b8015610be25780601f10610bb957610100808354040283529160200191610be2565b820191905f5260205f20905b815481529060010190602001808311610bc557829003601f168201915b5050505050815260200160048201805480602002602001604051908101604052809291908181526020018280548015610c3857602002820191905f5260205f20905b815481526020019060010190808311610c24575b505050505081525050838381518110610c5457610c53613d1a565b5b60200260200101819052508180610c6a90613d74565b9250505b80806001019150506109e9565b508194505050505090565b60045f9054906101000a900473ffffffffffffffffffffffffffffffffffffffff1673ffffffffffffffffffffffffffffffffffffffff163373ffffffffffffffffffffffffffffffffffffffff1614610d15576040517f08c379a0000000000000000000000000000000000000000000000000000000008152600401610d0c90613e05565b60405180910390fd5b8060055f6101000a81548173ffffffffffffffffffffffffffffffffffffffff021916908373ffffffffffffffffffffffffffffffffffffffff16021790555050565b5f5f5f5f8473ffffffffffffffffffffffffffffffffffffffff1673ffffffffffffffffffffffffffffffffffffffff1681526020019081526020015f205414159050919050565b6002602052815f5260405f208181548110610db9575f80fd5b905f5260205f2090600802015f9150915050805f015f9054906101000a900473ffffffffffffffffffffffffffffffffffffffff1690806001018054610dfe90613a12565b80601f0160208091040260200160405190810160405280929190818152602001828054610e2a90613a12565b8015610e755780601f10610e4c57610100808354040283529160200191610e75565b820191905f5260205f20905b815481529060010190602001808311610e5857829003601f168201915b505050505090806002018054610e8a90613a12565b80601f0160208091040260200160405190810160405280929190818152602001828054610eb690613a12565b8015610f015780601f10610ed857610100808354040283529160200191610f01565b820191905f5260205f20905b815481529060010190602001808311610ee457829003601f168201915b505050505090806003015f9054906101000a900460ff1690806004015490806005015490806006018054610f3490613a12565b80601f0160208091040260200160405190810160405280929190818152602001828054610f6090613a12565b8015610fab5780601f10610f8257610100808354040283529160200191610fab565b820191905f5260205f20905b815481529060010190602001808311610f8e57829003601f168201915b505050505090806007015f9054906101000a900460ff16908060070160019054906101000a900460ff16905089565b60055f9054906101000a900473ffffffffffffffffffffffffffffffffffffffff1681565b5f5f5f3373ffffffffffffffffffffffffffffffffffffffff1673ffffffffffffffffffffffffffffffffffffffff1681526020019081526020015f205490505f8103611081576040517f08c379a0000000000000000000000000000000000000000000000000000000008152600401611078906139c7565b60405180910390fd5b5f5f90505f5f90505b60015f8481526020019081526020015f20600401805490508110156110f4578360015f8581526020019081526020015f2060040182815481106110d0576110cf613d1a565b5b905f5260205f200154036110e757600191506110f4565b808060010191505061108a565b508015611136576040517f08c379a000000000000000000000000000000000000000000000000000000000815260040161112d90613e6d565b60405180910390fd5b60015f8381526020019081526020015f2060040183908060018154018082558091505060019003905f5260205f20015f90919091909150553373ffffffffffffffffffffffffffffffffffffffff1683837f62e4da5e5c3a89b6dca6a385b8712c06f51bf0855ae5b6abd14937474a4ce01e60405160405180910390a4505050565b5f5f5f3373ffffffffffffffffffffffffffffffffffffffff1673ffffffffffffffffffffffffffffffffffffffff1681526020019081526020015f205414611236576040517f08c379a000000000000000000000000000000000000000000000000000000000815260040161122d90613ed5565b60405180910390fd5b60035f81548092919061124890613d74565b91905055506003545f5f3373ffffffffffffffffffffffffffffffffffffffff1673ffffffffffffffffffffffffffffffffffffffff1681526020019081526020015f20819055505f60015f60035481526020019081526020015f209050600354815f0181905550838160010190816112c19190613bf3565b50828160020190816112d39190613bf3565b50818160030190816112e59190613bf3565b5050505050565b5f5f5f8473ffffffffffffffffffffffffffffffffffffffff1673ffffffffffffffffffffffffffffffffffffffff1681526020019081526020015f205490505f810361136e576040517f08c379a0000000000000000000000000000000000000000000000000000000008152600401611365906139c7565b60405180910390fd5b5f60025f8381526020019081526020015f2090505f5f90505b81805490508110156115a4573373ffffffffffffffffffffffffffffffffffffffff168282815481106113bd576113bc613d1a565b5b905f5260205f2090600802015f015f9054906101000a900473ffffffffffffffffffffffffffffffffffffffff1673ffffffffffffffffffffffffffffffffffffffff1614801561147a57508360405160200161141a9190613f2d565b6040516020818303038152906040528051906020012082828154811061144357611442613d1a565b5b905f5260205f2090600802016001016040516020016114629190613fc3565b60405160208183030381529060405280519060200120145b15611597575f82828154811061149357611492613d1a565b5b905f5260205f2090600802016003015f6101000a81548160ff0219169083151502179055508181815481106114cb576114ca613d1a565b5b905f5260205f2090600802016007015f9054906101000a900460ff161561152857600182828154811061150157611500613d1a565b5b905f5260205f20906008020160070160016101000a81548160ff0219169083151502179055505b8473ffffffffffffffffffffffffffffffffffffffff163373ffffffffffffffffffffffffffffffffffffffff167f1852eeec29c8b9e06624d3e3008123c26ddd6173947b6bea9054402ea8ca57ad8642604051611587929190613fd9565b60405180910390a35050506115e0565b8080600101915050611387565b506040517f08c379a00000000000000000000000000000000000000000000000000000000081526004016115d790614051565b60405180910390fd5b5050565b6001602052805f5260405f205f91509050805f01549080600101805461160990613a12565b80601f016020809104026020016040519081016040528092919081815260200182805461163590613a12565b80156116805780601f1061165757610100808354040283529160200191611680565b820191905f5260205f20905b81548152906001019060200180831161166357829003601f168201915b50505050509080600201805461169590613a12565b80601f01602080910402602001604051908101604052809291908181526020018280546116c190613a12565b801561170c5780601f106116e35761010080835404028352916020019161170c565b820191905f5260205f20905b8154815290600101906020018083116116ef57829003601f168201915b50505050509080600301805461172190613a12565b80601f016020809104026020016040519081016040528092919081815260200182805461174d90613a12565b80156117985780601f1061176f57610100808354040283529160200191611798565b820191905f5260205f20905b81548152906001019060200180831161177b57829003601f168201915b5050505050905084565b5f5f5f8573ffffffffffffffffffffffffffffffffffffffff1673ffffffffffffffffffffffffffffffffffffffff1681526020019081526020015f205490505f8103611824576040517f08c379a000000000000000000000000000000000000000000000000000000000815260040161181b906139c7565b60405180910390fd5b5f60025f8381526020019081526020015f2090505f5f90505b8180549050811015611a3b573373ffffffffffffffffffffffffffffffffffffffff1682828154811061187357611872613d1a565b5b905f5260205f2090600802015f015f9054906101000a900473ffffffffffffffffffffffffffffffffffffffff1673ffffffffffffffffffffffffffffffffffffffff161480156119305750846040516020016118d09190613f2d565b604051602081830303815290604052805190602001208282815481106118f9576118f8613d1a565b5b905f5260205f2090600802016001016040516020016119189190613fc3565b60405160208183030381529060405280519060200120145b15611a2e57600182828154811061194a57611949613d1a565b5b905f5260205f2090600802016003015f6101000a81548160ff0219169083151502179055504282828154811061198357611982613d1a565b5b905f5260205f20906008020160040181905550838282815481106119aa576119a9613d1a565b5b905f5260205f209060080201600501819055508573ffffffffffffffffffffffffffffffffffffffff163373ffffffffffffffffffffffffffffffffffffffff167fc298d419e944a3f1e7da1b2245c9f34649b9a6ea67875bcd37e975ef5d7209a3874288604051611a1e9392919061406f565b60405180910390a3505050611a77565b808060010191505061183d565b506040517f08c379a0000000000000000000000000000000000000000000000000000000008152600401611a6e906140f5565b60405180910390fd5b505050565b60605f5f5f3373ffffffffffffffffffffffffffffffffffffffff1673ffffffffffffffffffffffffffffffffffffffff1681526020019081526020015f205490505f8103611b00576040517f08c379a0000000000000000000000000000000000000000000000000000000008152600401611af7906139c7565b60405180910390fd5b60015f8281526020019081526020015f20600401805480602002602001604051908101604052809291908181526020018280548015611b5c57602002820191905f5260205f20905b815481526020019060010190808311611b48575b505050505091505090565b60605f5f5f3373ffffffffffffffffffffffffffffffffffffffff1673ffffffffffffffffffffffffffffffffffffffff1681526020019081526020015f205490505f8103611beb576040517f08c379a0000000000000000000000000000000000000000000000000000000008152600401611be2906139c7565b60405180910390fd5b60025f8281526020019081526020015f20805480602002602001604051908101604052809291908181526020015f905b82821015611eb3578382905f5260205f209060080201604051806101200160405290815f82015f9054906101000a900473ffffffffffffffffffffffffffffffffffffffff1673ffffffffffffffffffffffffffffffffffffffff1673ffffffffffffffffffffffffffffffffffffffff168152602001600182018054611ca190613a12565b80601f0160208091040260200160405190810160405280929190818152602001828054611ccd90613a12565b8015611d185780601f10611cef57610100808354040283529160200191611d18565b820191905f5260205f20905b815481529060010190602001808311611cfb57829003601f168201915b50505050508152602001600282018054611d3190613a12565b80601f0160208091040260200160405190810160405280929190818152602001828054611d5d90613a12565b8015611da85780601f10611d7f57610100808354040283529160200191611da8565b820191905f5260205f20905b815481529060010190602001808311611d8b57829003601f168201915b50505050508152602001600382015f9054906101000a900460ff161515151581526020016004820154815260200160058201548152602001600682018054611def90613a12565b80601f0160208091040260200160405190810160405280929190818152602001828054611e1b90613a12565b8015611e665780601f10611e3d57610100808354040283529160200191611e66565b820191905f5260205f20905b815481529060010190602001808311611e4957829003601f168201915b50505050508152602001600782015f9054906101000a900460ff161515151581526020016007820160019054906101000a900460ff16151515158152505081526020019060010190611c1b565b5050505091505090565b60045f9054906101000a900473ffffffffffffffffffffffffffffffffffffffff1681565b5f602052805f5260405f205f915090505481565b5f5f5f8473ffffffffffffffffffffffffffffffffffffffff1673ffffffffffffffffffffffffffffffffffffffff1681526020019081526020015f205490505f8103611f78576040517f08c379a0000000000000000000000000000000000000000000000000000000008152600401611f6f906139c7565b60405180910390fd5b5f60025f8381526020019081526020015f2090505f5f90505b8180549050811015612177573373ffffffffffffffffffffffffffffffffffffffff16828281548110611fc757611fc6613d1a565b5b905f5260205f2090600802015f015f9054906101000a900473ffffffffffffffffffffffffffffffffffffffff1673ffffffffffffffffffffffffffffffffffffffff161480156120845750836040516020016120249190613f2d565b6040516020818303038152906040528051906020012082828154811061204d5761204c613d1a565b5b905f5260205f20906008020160010160405160200161206c9190613fc3565b60405160208183030381529060405280519060200120145b80156120bb575081818154811061209e5761209d613d1a565b5b905f5260205f2090600802016007015f9054906101000a900460ff165b1561216a5760018282815481106120d5576120d4613d1a565b5b905f5260205f20906008020160070160016101000a81548160ff0219169083151502179055503373ffffffffffffffffffffffffffffffffffffffff163373ffffffffffffffffffffffffffffffffffffffff167fbe73bae5f08d7fe7ebd150bf32bcb303131391314609cc522ae754b46286ecc0864260405161215a929190613fd9565b60405180910390a35050506121b3565b8080600101915050611f91565b506040517f08c379a00000000000000000000000000000000000000000000000000000000081526004016121aa90614183565b60405180910390fd5b5050565b5f5f5f3373ffffffffffffffffffffffffffffffffffffffff1673ffffffffffffffffffffffffffffffffffffffff1681526020019081526020015f205490505f8103612239576040517f08c379a0000000000000000000000000000000000000000000000000000000008152600401612230906139c7565b60405180910390fd5b5f73ffffffffffffffffffffffffffffffffffffffff1660055f9054906101000a900473ffffffffffffffffffffffffffffffffffffffff1673ffffffffffffffffffffffffffffffffffffffff16036122c8576040517f08c379a00000000000000000000000000000000000000000000000000000000081526004016122bf90614211565b60405180910390fd5b5f60055f9054906101000a900473ffffffffffffffffffffffffffffffffffffffff1673ffffffffffffffffffffffffffffffffffffffff1663b6d8539533856040518363ffffffff1660e01b815260040161232592919061422f565b602060405180830381865afa158015612340573d5f5f3e3d5ffd5b505050506040513d601f19601f820116820180604052508101906123649190614280565b9050806123a6576040517f08c379a000000000000000000000000000000000000000000000000000000000815260040161239d9061431b565b60405180910390fd5b60025f8381526020019081526020015f206040518061012001604052808973ffffffffffffffffffffffffffffffffffffffff1681526020018881526020018781526020016001151581526020014281526020016201518081526020018681526020016001151581526020015f1515815250908060018154018082558091505060019003905f5260205f2090600802015f909190919091505f820151815f015f6101000a81548173ffffffffffffffffffffffffffffffffffffffff021916908373ffffffffffffffffffffffffffffffffffffffff16021790555060208201518160010190816124979190613bf3565b5060408201518160020190816124ad9190613bf3565b506060820151816003015f6101000a81548160ff0219169083151502179055506080820151816004015560a0820151816005015560c08201518160060190816124f69190613bf3565b5060e0820151816007015f6101000a81548160ff0219169083151502179055506101008201518160070160016101000a81548160ff02191690831515021790555050508673ffffffffffffffffffffffffffffffffffffffff163373ffffffffffffffffffffffffffffffffffffffff167fc18b0a731326cfd073d9219b559d4a74aaed4d08716d26c4ace853127d096edb88874260405161259a93929190614339565b60405180910390a350505050505050565b60605f60035490505f8167ffffffffffffffff8111156125ce576125cd612e00565b5b60405190808252806020026020018201604052801561260757816020015b6125f4612d4f565b8152602001906001900390816125ec5790505b5090505f5f90505b828110156128795760015f600183612627919061437c565b81526020019081526020015f206040518060a00160405290815f820154815260200160018201805461265890613a12565b80601f016020809104026020016040519081016040528092919081815260200182805461268490613a12565b80156126cf5780601f106126a6576101008083540402835291602001916126cf565b820191905f5260205f20905b8154815290600101906020018083116126b257829003601f168201915b505050505081526020016002820180546126e890613a12565b80601f016020809104026020016040519081016040528092919081815260200182805461271490613a12565b801561275f5780601f106127365761010080835404028352916020019161275f565b820191905f5260205f20905b81548152906001019060200180831161274257829003601f168201915b5050505050815260200160038201805461277890613a12565b80601f01602080910402602001604051908101604052809291908181526020018280546127a490613a12565b80156127ef5780601f106127c6576101008083540402835291602001916127ef565b820191905f5260205f20905b8154815290600101906020018083116127d257829003601f168201915b505050505081526020016004820180548060200260200160405190810160405280929190818152602001828054801561284557602002820191905f5260205f20905b815481526020019060010190808311612831575b50505050508152505082828151811061286157612860613d1a565b5b6020026020010181905250808060010191505061260f565b50809250505090565b5f5f5f5f3373ffffffffffffffffffffffffffffffffffffffff1673ffffffffffffffffffffffffffffffffffffffff1681526020019081526020015f205490505f8103612905576040517f08c379a00000000000000000000000000000000000000000000000000000000081526004016128fc906139c7565b60405180910390fd5b5f60025f8381526020019081526020015f20805480602002602001604051908101604052809291908181526020015f905b82821015612bce578382905f5260205f209060080201604051806101200160405290815f82015f9054906101000a900473ffffffffffffffffffffffffffffffffffffffff1673ffffffffffffffffffffffffffffffffffffffff1673ffffffffffffffffffffffffffffffffffffffff1681526020016001820180546129bc90613a12565b80601f01602080910402602001604051908101604052809291908181526020018280546129e890613a12565b8015612a335780601f10612a0a57610100808354040283529160200191612a33565b820191905f5260205f20905b815481529060010190602001808311612a1657829003601f168201915b50505050508152602001600282018054612a4c90613a12565b80601f0160208091040260200160405190810160405280929190818152602001828054612a7890613a12565b8015612ac35780601f10612a9a57610100808354040283529160200191612ac3565b820191905f5260205f20905b815481529060010190602001808311612aa657829003601f168201915b50505050508152602001600382015f9054906101000a900460ff161515151581526020016004820154815260200160058201548152602001600682018054612b0a90613a12565b80601f0160208091040260200160405190810160405280929190818152602001828054612b3690613a12565b8015612b815780601f10612b5857610100808354040283529160200191612b81565b820191905f5260205f20905b815481529060010190602001808311612b6457829003601f168201915b50505050508152602001600782015f9054906101000a900460ff161515151581526020016007820160019054906101000a900460ff16151515158152505081526020019060010190612936565b5050505090505f5f90505b8151811015612d42578573ffffffffffffffffffffffffffffffffffffffff16828281518110612c0c57612c0b613d1a565b5b60200260200101515f015173ffffffffffffffffffffffffffffffffffffffff16148015612ca3575084604051602001612c469190613f2d565b60405160208183030381529060405280519060200120828281518110612c6f57612c6e613d1a565b5b602002602001015160200151604051602001612c8b9190613f2d565b60405160208183030381529060405280519060200120145b8015612cca5750818181518110612cbd57612cbc613d1a565b5b6020026020010151606001515b15612d3557818181518110612ce257612ce1613d1a565b5b602002602001015160a00151828281518110612d0157612d00613d1a565b5b602002602001015160800151612d17919061437c565b421115612d29575f9350505050612d49565b60019350505050612d49565b8080600101915050612bd9565b505f925050505b92915050565b6040518060a001604052805f8152602001606081526020016060815260200160608152602001606081525090565b5f604051905090565b5f5ffd5b5f5ffd5b5f73ffffffffffffffffffffffffffffffffffffffff82169050919050565b5f612db782612d8e565b9050919050565b612dc781612dad565b8114612dd1575f5ffd5b50565b5f81359050612de281612dbe565b92915050565b5f5ffd5b5f5ffd5b5f601f19601f8301169050919050565b7f4e487b71000000000000000000000000000000000000000000000000000000005f52604160045260245ffd5b612e3682612df0565b810181811067ffffffffffffffff82111715612e5557612e54612e00565b5b80604052505050565b5f612e67612d7d565b9050612e738282612e2d565b919050565b5f67ffffffffffffffff821115612e9257612e91612e00565b5b612e9b82612df0565b9050602081019050919050565b828183375f83830152505050565b5f612ec8612ec384612e78565b612e5e565b905082815260208101848484011115612ee457612ee3612dec565b5b612eef848285612ea8565b509392505050565b5f82601f830112612f0b57612f0a612de8565b5b8135612f1b848260208601612eb6565b91505092915050565b5f819050919050565b612f3681612f24565b8114612f40575f5ffd5b50565b5f81359050612f5181612f2d565b92915050565b5f5f5f5f5f60a08688031215612f7057612f6f612d86565b5b5f612f7d88828901612dd4565b955050602086013567ffffffffffffffff811115612f9e57612f9d612d8a565b5b612faa88828901612ef7565b945050604086013567ffffffffffffffff811115612fcb57612fca612d8a565b5b612fd788828901612ef7565b9350506060612fe888828901612f43565b925050608086013567ffffffffffffffff81111561300957613008612d8a565b5b61301588828901612ef7565b9150509295509295909350565b5f81519050919050565b5f82825260208201905092915050565b5f819050602082019050919050565b61305481612f24565b82525050565b5f81519050919050565b5f82825260208201905092915050565b8281835e5f83830152505050565b5f61308c8261305a565b6130968185613064565b93506130a6818560208601613074565b6130af81612df0565b840191505092915050565b5f81519050919050565b5f82825260208201905092915050565b5f819050602082019050919050565b5f6130ee838361304b565b60208301905092915050565b5f602082019050919050565b5f613110826130ba565b61311a81856130c4565b9350613125836130d4565b805f5b8381101561315557815161313c88826130e3565b9750613147836130fa565b925050600181019050613128565b5085935050505092915050565b5f60a083015f8301516131775f86018261304b565b506020830151848203602086015261318f8282613082565b915050604083015184820360408601526131a98282613082565b915050606083015184820360608601526131c38282613082565b915050608083015184820360808601526131dd8282613106565b9150508091505092915050565b5f6131f58383613162565b905092915050565b5f602082019050919050565b5f61321382613022565b61321d818561302c565b93508360208202850161322f8561303c565b805f5b8581101561326a578484038952815161324b85826131ea565b9450613256836131fd565b925060208a01995050600181019050613232565b50829750879550505050505092915050565b5f6020820190508181035f8301526132948184613209565b905092915050565b5f602082840312156132b1576132b0612d86565b5b5f6132be84828501612dd4565b91505092915050565b5f8115159050919050565b6132db816132c7565b82525050565b5f6020820190506132f45f8301846132d2565b92915050565b5f5f604083850312156133105761330f612d86565b5b5f61331d85828601612f43565b925050602061332e85828601612f43565b9150509250929050565b61334181612dad565b82525050565b5f82825260208201905092915050565b5f6133618261305a565b61336b8185613347565b935061337b818560208601613074565b61338481612df0565b840191505092915050565b61339881612f24565b82525050565b5f610120820190506133b25f83018c613338565b81810360208301526133c4818b613357565b905081810360408301526133d8818a613357565b90506133e760608301896132d2565b6133f4608083018861338f565b61340160a083018761338f565b81810360c08301526134138186613357565b905061342260e08301856132d2565b6134306101008301846132d2565b9a9950505050505050505050565b5f6020820190506134515f830184613338565b92915050565b5f6020828403121561346c5761346b612d86565b5b5f61347984828501612f43565b91505092915050565b5f5f5f6060848603121561349957613498612d86565b5b5f84013567ffffffffffffffff8111156134b6576134b5612d8a565b5b6134c286828701612ef7565b935050602084013567ffffffffffffffff8111156134e3576134e2612d8a565b5b6134ef86828701612ef7565b925050604084013567ffffffffffffffff8111156135105761350f612d8a565b5b61351c86828701612ef7565b9150509250925092565b5f5f6040838503121561353c5761353b612d86565b5b5f61354985828601612dd4565b925050602083013567ffffffffffffffff81111561356a57613569612d8a565b5b61357685828601612ef7565b9150509250929050565b5f6080820190506135935f83018761338f565b81810360208301526135a58186613357565b905081810360408301526135b98185613357565b905081810360608301526135cd8184613357565b905095945050505050565b5f5f5f606084860312156135ef576135ee612d86565b5b5f6135fc86828701612dd4565b935050602084013567ffffffffffffffff81111561361d5761361c612d8a565b5b61362986828701612ef7565b925050604061363a86828701612f43565b9150509250925092565b5f82825260208201905092915050565b5f61365e826130ba565b6136688185613644565b9350613673836130d4565b805f5b838110156136a357815161368a88826130e3565b9750613695836130fa565b925050600181019050613676565b5085935050505092915050565b5f6020820190508181035f8301526136c88184613654565b905092915050565b5f81519050919050565b5f82825260208201905092915050565b5f819050602082019050919050565b61370281612dad565b82525050565b613711816132c7565b82525050565b5f61012083015f83015161372d5f8601826136f9565b50602083015184820360208601526137458282613082565b9150506040830151848203604086015261375f8282613082565b91505060608301516137746060860182613708565b506080830151613787608086018261304b565b5060a083015161379a60a086018261304b565b5060c083015184820360c08601526137b28282613082565b91505060e08301516137c760e0860182613708565b506101008301516137dc610100860182613708565b508091505092915050565b5f6137f28383613717565b905092915050565b5f602082019050919050565b5f613810826136d0565b61381a81856136da565b93508360208202850161382c856136ea565b805f5b85811015613867578484038952815161384885826137e7565b9450613853836137fa565b925060208a0199505060018101905061382f565b50829750879550505050505092915050565b5f6020820190508181035f8301526138918184613806565b905092915050565b5f6020820190506138ac5f83018461338f565b92915050565b5f5f5f5f5f60a086880312156138cb576138ca612d86565b5b5f6138d888828901612dd4565b955050602086013567ffffffffffffffff8111156138f9576138f8612d8a565b5b61390588828901612ef7565b945050604086013567ffffffffffffffff81111561392657613925612d8a565b5b61393288828901612ef7565b935050606086013567ffffffffffffffff81111561395357613952612d8a565b5b61395f88828901612ef7565b925050608061397088828901612dd4565b9150509295509295909350565b7f446f63746f72206e6f74207265676973746572656400000000000000000000005f82015250565b5f6139b1601583613347565b91506139bc8261397d565b602082019050919050565b5f6020820190508181035f8301526139de816139a5565b9050919050565b7f4e487b71000000000000000000000000000000000000000000000000000000005f52602260045260245ffd5b5f6002820490506001821680613a2957607f821691505b602082108103613a3c57613a3b6139e5565b5b50919050565b5f819050815f5260205f209050919050565b5f6020601f8301049050919050565b5f82821b905092915050565b5f60088302613a9e7fffffffffffffffffffffffffffffffffffffffffffffffffffffffffffffffff82613a63565b613aa88683613a63565b95508019841693508086168417925050509392505050565b5f819050919050565b5f613ae3613ade613ad984612f24565b613ac0565b612f24565b9050919050565b5f819050919050565b613afc83613ac9565b613b10613b0882613aea565b848454613a6f565b825550505050565b5f5f905090565b613b27613b18565b613b32818484613af3565b505050565b5f5b82811015613b5857613b4d5f828401613b1f565b600181019050613b39565b505050565b601f821115613bab5782821115613baa57613b7781613a42565b613b8083613a54565b613b8985613a54565b6020861015613b96575f90505b808301613ba582840382613b37565b505050505b5b505050565b5f82821c905092915050565b5f613bcb5f1984600802613bb0565b1980831691505092915050565b5f613be38383613bbc565b9150826002028217905092915050565b613bfc8261305a565b67ffffffffffffffff811115613c1557613c14612e00565b5b613c1f8254613a12565b613c2a828285613b5d565b5f60209050601f831160018114613c5b575f8415613c49578287015190505b613c538582613bd8565b865550613cba565b601f198416613c6986613a42565b5f5b82811015613c9057848901518255600182019150602085019450602081019050613c6b565b86831015613cad5784890151613ca9601f891682613bbc565b8355505b6001600288020188555050505b505050505050565b5f6080820190508181035f830152613cda8187613357565b90508181036020830152613cee8186613357565b9050613cfd604083018561338f565b8181036060830152613d0f8184613357565b905095945050505050565b7f4e487b71000000000000000000000000000000000000000000000000000000005f52603260045260245ffd5b7f4e487b71000000000000000000000000000000000000000000000000000000005f52601160045260245ffd5b5f613d7e82612f24565b91507fffffffffffffffffffffffffffffffffffffffffffffffffffffffffffffffff8203613db057613daf613d47565b5b600182019050919050565b7f4f6e6c79206f776e65722063616e2063616c6c207468697300000000000000005f82015250565b5f613def601883613347565b9150613dfa82613dbb565b602082019050919050565b5f6020820190508181035f830152613e1c81613de3565b9050919050565b7f50617469656e7420616c726561647920616464656400000000000000000000005f82015250565b5f613e57601583613347565b9150613e6282613e23565b602082019050919050565b5f6020820190508181035f830152613e8481613e4b565b9050919050565b7f446f63746f7220616c72656164792072656769737465726564000000000000005f82015250565b5f613ebf601983613347565b9150613eca82613e8b565b602082019050919050565b5f6020820190508181035f830152613eec81613eb3565b9050919050565b5f81905092915050565b5f613f078261305a565b613f118185613ef3565b9350613f21818560208601613074565b80840191505092915050565b5f613f388284613efd565b915081905092915050565b5f8154613f4f81613a12565b613f598186613ef3565b9450600182165f8114613f735760018114613f8857613fba565b60ff1983168652811515820286019350613fba565b613f9185613a42565b5f5b83811015613fb257815481890152600182019150602081019050613f93565b838801955050505b50505092915050565b5f613fce8284613f43565b915081905092915050565b5f6040820190508181035f830152613ff18185613357565b9050614000602083018461338f565b9392505050565b7f416363657373207265636f7264206e6f7420666f756e640000000000000000005f82015250565b5f61403b601783613347565b915061404682614007565b602082019050919050565b5f6020820190508181035f8301526140688161402f565b9050919050565b5f6060820190508181035f8301526140878186613357565b9050614096602083018561338f565b6140a3604083018461338f565b949350505050565b7f4163636573732072657175657374206e6f7420666f756e6400000000000000005f82015250565b5f6140df601883613347565b91506140ea826140ab565b602082019050919050565b5f6020820190508181035f83015261410c816140d3565b9050919050565b7f456d657267656e6379207265636f7264206e6f7420666f756e64206f7220616c5f8201527f7265616479207265736f6c766564000000000000000000000000000000000000602082015250565b5f61416d602e83613347565b915061417882614113565b604082019050919050565b5f6020820190508181035f83015261419a81614161565b9050919050565b7f486f73706974616c20766572696669636174696f6e2073797374656d206e6f745f8201527f2073657400000000000000000000000000000000000000000000000000000000602082015250565b5f6141fb602483613347565b9150614206826141a1565b604082019050919050565b5f6020820190508181035f830152614228816141ef565b9050919050565b5f6040820190506142425f830185613338565b61424f6020830184613338565b9392505050565b61425f816132c7565b8114614269575f5ffd5b50565b5f8151905061427a81614256565b92915050565b5f6020828403121561429557614294612d86565b5b5f6142a28482850161426c565b91505092915050565b7f446f63746f72206973206e6f742070756e6368656420696e20666f7220656d655f8201527f7267656e63792064757479206174207468697320686f73706974616c00000000602082015250565b5f614305603c83613347565b9150614310826142ab565b604082019050919050565b5f6020820190508181035f830152614332816142f9565b9050919050565b5f6060820190508181035f8301526143518186613357565b905081810360208301526143658185613357565b9050614374604083018461338f565b949350505050565b5f61438682612f24565b915061439183612f24565b92508282019050808211156143a9576143a8613d47565b5b9291505056fea2646970667358221220047cc5d0ea9ca308d847f91482e0fdff520b157a657ef8e3e9c40e560021981b64736f6c63430008210033",
  "immutableReferences": {},
  "source": "// SPDX-License-Identifier: MIT\r\npragma solidity ^0.8.19;\r\n\r\ninterface IHospital {\r\n    function isDoctorOnDuty(address _doctor, address _hospitalAddress) external view returns (bool);\r\n}\r\n\r\ncontract Doctor {\r\n    struct DoctorDetails {\r\n        uint256 doctorId;\r\n        string name;\r\n        string specialization;\r\n        string email;\r\n        uint256[] patientIds; // List of patients linked to this doctor\r\n    }\r\n\r\n    struct DocumentAccess {\r\n        address patient;\r\n        string ipfsHash;\r\n        string fileName;\r\n        bool hasAccess;\r\n        uint256 grantTime;\r\n        uint256 duration;\r\n        string reason;\r\n        bool isEmergency;\r\n        bool isResolved; // NEW: Alert dismissed?\r\n    }\r\n\r\n    mapping(address => uint256) public walletToDoctorId;\r\n    mapping(uint256 => DoctorDetails) public doctors;\r\n    mapping(uint256 => DocumentAccess[]) public doctorAccessList;\r\n\r\n    uint256 private doctorIdCounter;\r\n\r\n    // Hospital Verification\r\n    address public owner;\r\n    address public hospitalContract;\r\n\r\n    // --- EVENTS ---\r\n    event AccessRequested(\r\n        address indexed patient,\r\n        address indexed doctor,\r\n        string ipfsHash,\r\n        string fileName,\r\n        uint256 duration,\r\n        string reason\r\n    );\r\n    event AccessGranted(\r\n        address indexed patient,\r\n        address indexed doctor,\r\n        string ipfsHash,\r\n        uint256 grantTime,\r\n        uint256 duration\r\n    );\r\n    event AccessRevoked(\r\n        address indexed patient,\r\n        address indexed doctor,\r\n        string ipfsHash,\r\n        uint256 revokeTime\r\n    );\r\n    event PatientAdded(\r\n        uint256 indexed doctorId,\r\n        uint256 indexed patientId,\r\n        address indexed doctor\r\n    );\r\n    event EmergencyAccessGranted(\r\n        address indexed doctor,\r\n        address indexed patient,\r\n        string ipfsHash,\r\n        string reason,\r\n        uint256 timestamp\r\n    );\r\n    event EmergencyResolved(\r\n        address indexed patient,\r\n        address indexed resolver,\r\n        string ipfsHash,\r\n        uint256 timestamp\r\n    );\r\n\r\n    constructor() {\r\n        owner = msg.sender;\r\n    }\r\n\r\n    modifier onlyOwner() {\r\n        require(msg.sender == owner, \"Only owner can call this\");\r\n        _;\r\n    }\r\n\r\n    function setHospitalContract(address _addr) public onlyOwner {\r\n        hospitalContract = _addr;\r\n    }\r\n\r\n    function registerDoctor(\r\n        string memory _name,\r\n        string memory _specialization,\r\n        string memory _hospital\r\n    ) public {\r\n        require(walletToDoctorId[msg.sender] == 0, \"Doctor already registered\");\r\n        doctorIdCounter++;\r\n        walletToDoctorId[msg.sender] = doctorIdCounter;\r\n\r\n        DoctorDetails storage newDoctor = doctors[doctorIdCounter];\r\n        newDoctor.doctorId = doctorIdCounter;\r\n        newDoctor.name = _name;\r\n        newDoctor.specialization = _specialization;\r\n        newDoctor.email = _hospital; // Keeping legacy field mapping for now\r\n    }\r\n\r\n    function addPatient(uint256 _patientId) public {\r\n        uint256 doctorId = walletToDoctorId[msg.sender];\r\n        require(doctorId != 0, \"Doctor not registered\");\r\n\r\n        bool exists = false;\r\n        for (uint i = 0; i < doctors[doctorId].patientIds.length; i++) {\r\n            if (doctors[doctorId].patientIds[i] == _patientId) {\r\n                exists = true;\r\n                break;\r\n            }\r\n        }\r\n        require(!exists, \"Patient already added\");\r\n\r\n        doctors[doctorId].patientIds.push(_patientId);\r\n        emit PatientAdded(doctorId, _patientId, msg.sender);\r\n    }\r\n\r\n    function getDoctorPatients() public view returns (uint256[] memory) {\r\n        uint256 doctorId = walletToDoctorId[msg.sender];\r\n        require(doctorId != 0, \"Doctor not registered\");\r\n        return doctors[doctorId].patientIds;\r\n    }\r\n\r\n    function hasAccessToDocument(\r\n        address _patient,\r\n        string memory _ipfsHash\r\n    ) public view returns (bool) {\r\n        uint256 doctorId = walletToDoctorId[msg.sender];\r\n        require(doctorId != 0, \"Doctor not registered\");\r\n\r\n        DocumentAccess[] memory accessList = doctorAccessList[doctorId];\r\n        for (uint256 i = 0; i < accessList.length; i++) {\r\n            if (\r\n                accessList[i].patient == _patient &&\r\n                keccak256(abi.encodePacked(accessList[i].ipfsHash)) ==\r\n                keccak256(abi.encodePacked(_ipfsHash)) &&\r\n                accessList[i].hasAccess\r\n            ) {\r\n                // Check for expiration\r\n                if (\r\n                    block.timestamp >\r\n                    accessList[i].grantTime + accessList[i].duration\r\n                ) {\r\n                    return false;\r\n                }\r\n                return true;\r\n            }\r\n        }\r\n        return false;\r\n    }\r\n\r\n    function requestAccess(\r\n        address _patient,\r\n        string memory _ipfsHash,\r\n        string memory _fileName,\r\n        uint256 _duration,\r\n        string memory _reason\r\n    ) public {\r\n        uint256 doctorId = walletToDoctorId[msg.sender];\r\n        require(doctorId != 0, \"Doctor not registered\");\r\n\r\n        doctorAccessList[doctorId].push(\r\n            DocumentAccess({\r\n                patient: _patient,\r\n                ipfsHash: _ipfsHash,\r\n                fileName: _fileName,\r\n                hasAccess: false,\r\n                grantTime: 0,\r\n                duration: _duration,\r\n                reason: _reason,\r\n                isEmergency: false,\r\n                isResolved: false\r\n            })\r\n        );\r\n\r\n        emit AccessRequested(\r\n            _patient,\r\n            msg.sender,\r\n            _ipfsHash,\r\n            _fileName,\r\n            _duration,\r\n            _reason\r\n        );\r\n    }\r\n\r\n    function emergencyBreakGlass(\r\n        address _patient,\r\n        string memory _ipfsHash,\r\n        string memory _fileName,\r\n        string memory _reason,\r\n        address _hospitalAddress\r\n    ) public {\r\n        uint256 doctorId = walletToDoctorId[msg.sender];\r\n        require(doctorId != 0, \"Doctor not registered\");\r\n        require(hospitalContract != address(0), \"Hospital verification system not set\");\r\n        \r\n        // Verify with Hospital Contract\r\n        bool onDuty = IHospital(hospitalContract).isDoctorOnDuty(msg.sender, _hospitalAddress);\r\n        require(onDuty, \"Doctor is not punched in for emergency duty at this hospital\");\r\n\r\n        doctorAccessList[doctorId].push(\r\n            DocumentAccess({\r\n                patient: _patient,\r\n                ipfsHash: _ipfsHash,\r\n                fileName: _fileName,\r\n                hasAccess: true, // Auto Grant\r\n                grantTime: block.timestamp,\r\n                duration: 24 hours, // Fixed duration for emergency\r\n                reason: _reason,\r\n                isEmergency: true,\r\n                isResolved: false\r\n            })\r\n        );\r\n\r\n        emit EmergencyAccessGranted(\r\n            msg.sender,\r\n            _patient,\r\n            _ipfsHash,\r\n            _reason,\r\n            block.timestamp\r\n        );\r\n    }\r\n\r\n    function grantAccess(\r\n        address _doctor,\r\n        string memory _ipfsHash,\r\n        uint256 _duration\r\n    ) public {\r\n        uint256 doctorId = walletToDoctorId[_doctor];\r\n        require(doctorId != 0, \"Doctor not registered\");\r\n\r\n        DocumentAccess[] storage accessList = doctorAccessList[doctorId];\r\n        for (uint256 i = 0; i < accessList.length; i++) {\r\n            if (\r\n                accessList[i].patient == msg.sender &&\r\n                keccak256(abi.encodePacked(accessList[i].ipfsHash)) ==\r\n                keccak256(abi.encodePacked(_ipfsHash))\r\n            ) {\r\n                accessList[i].hasAccess = true;\r\n                accessList[i].grantTime = block.timestamp;\r\n                accessList[i].duration = _duration;\r\n\r\n                emit AccessGranted(\r\n                    msg.sender,\r\n                    _doctor,\r\n                    _ipfsHash,\r\n                    block.timestamp,\r\n                    _duration\r\n                );\r\n                return;\r\n            }\r\n        }\r\n        revert(\"Access request not found\");\r\n    }\r\n\r\n    function resolveEmergency(address _doctor, string memory _ipfsHash) public {\r\n        uint256 doctorId = walletToDoctorId[_doctor];\r\n        require(doctorId != 0, \"Doctor not registered\");\r\n\r\n        DocumentAccess[] storage accessList = doctorAccessList[doctorId];\r\n        for (uint256 i = 0; i < accessList.length; i++) {\r\n            if (\r\n                accessList[i].patient == msg.sender &&\r\n                keccak256(abi.encodePacked(accessList[i].ipfsHash)) ==\r\n                keccak256(abi.encodePacked(_ipfsHash)) &&\r\n                accessList[i].isEmergency\r\n            ) {\r\n                accessList[i].isResolved = true;\r\n                emit EmergencyResolved(\r\n                    msg.sender,\r\n                    msg.sender,\r\n                    _ipfsHash,\r\n                    block.timestamp\r\n                );\r\n                return;\r\n            }\r\n        }\r\n        revert(\"Emergency record not found or already resolved\");\r\n    }\r\n\r\n    function revokeAccess(address _doctor, string memory _ipfsHash) public {\r\n        uint256 doctorId = walletToDoctorId[_doctor];\r\n        require(doctorId != 0, \"Doctor not registered\");\r\n\r\n        DocumentAccess[] storage accessList = doctorAccessList[doctorId];\r\n        for (uint256 i = 0; i < accessList.length; i++) {\r\n            if (\r\n                accessList[i].patient == msg.sender &&\r\n                keccak256(abi.encodePacked(accessList[i].ipfsHash)) ==\r\n                keccak256(abi.encodePacked(_ipfsHash))\r\n            ) {\r\n                accessList[i].hasAccess = false;\r\n                if (accessList[i].isEmergency) {\r\n                    accessList[i].isResolved = true;\r\n                }\r\n                emit AccessRevoked(\r\n                    msg.sender,\r\n                    _doctor,\r\n                    _ipfsHash,\r\n                    block.timestamp\r\n                );\r\n                return;\r\n            }\r\n        }\r\n        revert(\"Access record not found\");\r\n    }\r\n\r\n    // --- GETTERS ---\r\n    function getAccessList() public view returns (DocumentAccess[] memory) {\r\n        uint256 doctorId = walletToDoctorId[msg.sender];\r\n        require(doctorId != 0, \"Doctor not registered\");\r\n        return doctorAccessList[doctorId];\r\n    }\r\n\r\n    function getPatients() public view returns (DoctorDetails[] memory) {\r\n        uint256 doctorId = walletToDoctorId[msg.sender];\r\n        require(doctorId != 0, \"Doctor not registered\");\r\n\r\n        DocumentAccess[] memory accessList = doctorAccessList[doctorId];\r\n        DoctorDetails[] memory patients = new DoctorDetails[](\r\n            accessList.length\r\n        );\r\n        uint256 count = 0;\r\n\r\n        for (uint256 i = 0; i < accessList.length; i++) {\r\n            if (accessList[i].hasAccess) {\r\n                patients[count] = doctors[doctorId];\r\n                count++;\r\n            }\r\n        }\r\n\r\n        return patients;\r\n    }\r\n\r\n    function doctorExists(address walletAddress) public view returns (bool) {\r\n        return walletToDoctorId[walletAddress] != 0;\r\n    }\r\n\r\n    function getAllDoctors() public view returns (DoctorDetails[] memory) {\r\n        uint256 total = doctorIdCounter;\r\n        DoctorDetails[] memory list = new DoctorDetails[](total);\r\n\r\n        for (uint256 i = 0; i < total; i++) {\r\n            list[i] = doctors[i + 1];\r\n        }\r\n\r\n        return list;\r\n    }\r\n}\r\n",
  "sourcePath": "J:\\Users\\ayush\\Desktop\\code\\team-rocket-medi-secure\\contracts\\contracts\\Doctor.sol",
  "compiler": {
    "name": "solc",
    "version": "0.8.33+commit.64118f21.Emscripten.clang"
  },
  "schemaVersion": "3.4.16",
  "updatedAt": "2026-01-19T19:07:39.263Z",
  "devdoc": {
    "kind": "dev",
    "methods": {},
    "version": 1
  },
  "userdoc": {
    "kind": "user",
    "methods": {},
    "version": 1
  }
}