{
  "contractName": "Doctor",
  "abi": [
    {
      "anonymous": false,
      "inputs": [
        {
          "indexed": true,
          "internalType": "address",
          "name": "patient",
          "type": "address"
        },
        {
          "indexed": true,
          "internalType": "address",
          "name": "doctor",
          "type": "address"
        },
        {
          "indexed": false,
          "internalType": "string",
          "name": "ipfsHash",
          "type": "string"
        },
        {
          "indexed": false,
          "internalType": "string",
          "name": "fileName",
          "type": "string"
        },
        {
          "indexed": false,
          "internalType": "uint256",
          "name": "duration",
          "type": "uint256"
        }
      ],
      "name": "AccessRequested",
      "type": "event"
    },
    {
      "anonymous": false,
      "inputs": [
        {
          "indexed": true,
          "internalType": "uint256",
          "name": "doctorId",
          "type": "uint256"
        },
        {
          "indexed": true,
          "internalType": "uint256",
          "name": "patientId",
          "type": "uint256"
        },
        {
          "indexed": true,
          "internalType": "address",
          "name": "doctor",
          "type": "address"
        }
      ],
      "name": "PatientAdded",
      "type": "event"
    },
    {
      "inputs": [
        {
          "internalType": "uint256",
          "name": "",
          "type": "uint256"
        },
        {
          "internalType": "uint256",
          "name": "",
          "type": "uint256"
        }
      ],
      "name": "doctorAccessList",
      "outputs": [
        {
          "internalType": "address",
          "name": "patient",
          "type": "address"
        },
        {
          "internalType": "string",
          "name": "ipfsHash",
          "type": "string"
        },
        {
          "internalType": "string",
          "name": "fileName",
          "type": "string"
        },
        {
          "internalType": "bool",
          "name": "hasAccess",
          "type": "bool"
        },
        {
          "internalType": "uint256",
          "name": "grantTime",
          "type": "uint256"
        },
        {
          "internalType": "uint256",
          "name": "duration",
          "type": "uint256"
        }
      ],
      "stateMutability": "view",
      "type": "function",
      "constant": true
    },
    {
      "inputs": [
        {
          "internalType": "uint256",
          "name": "",
          "type": "uint256"
        }
      ],
      "name": "doctors",
      "outputs": [
        {
          "internalType": "uint256",
          "name": "doctorId",
          "type": "uint256"
        },
        {
          "internalType": "string",
          "name": "name",
          "type": "string"
        },
        {
          "internalType": "string",
          "name": "specialization",
          "type": "string"
        },
        {
          "internalType": "string",
          "name": "email",
          "type": "string"
        }
      ],
      "stateMutability": "view",
      "type": "function",
      "constant": true
    },
    {
      "inputs": [
        {
          "internalType": "address",
          "name": "",
          "type": "address"
        }
      ],
      "name": "walletToDoctorId",
      "outputs": [
        {
          "internalType": "uint256",
          "name": "",
          "type": "uint256"
        }
      ],
      "stateMutability": "view",
      "type": "function",
      "constant": true
    },
    {
      "inputs": [
        {
          "internalType": "string",
          "name": "_name",
          "type": "string"
        },
        {
          "internalType": "string",
          "name": "_specialization",
          "type": "string"
        },
        {
          "internalType": "string",
          "name": "_hospital",
          "type": "string"
        }
      ],
      "name": "registerDoctor",
      "outputs": [],
      "stateMutability": "nonpayable",
      "type": "function"
    },
    {
      "inputs": [
        {
          "internalType": "uint256",
          "name": "_patientId",
          "type": "uint256"
        }
      ],
      "name": "addPatient",
      "outputs": [],
      "stateMutability": "nonpayable",
      "type": "function"
    },
    {
      "inputs": [],
      "name": "getDoctorPatients",
      "outputs": [
        {
          "internalType": "uint256[]",
          "name": "",
          "type": "uint256[]"
        }
      ],
      "stateMutability": "view",
      "type": "function",
      "constant": true
    },
    {
      "inputs": [
        {
          "internalType": "address",
          "name": "_patient",
          "type": "address"
        },
        {
          "internalType": "string",
          "name": "_ipfsHash",
          "type": "string"
        }
      ],
      "name": "hasAccessToDocument",
      "outputs": [
        {
          "internalType": "bool",
          "name": "",
          "type": "bool"
        }
      ],
      "stateMutability": "view",
      "type": "function",
      "constant": true
    },
    {
      "inputs": [
        {
          "internalType": "address",
          "name": "_patient",
          "type": "address"
        },
        {
          "internalType": "string",
          "name": "_ipfsHash",
          "type": "string"
        },
        {
          "internalType": "string",
          "name": "_fileName",
          "type": "string"
        },
        {
          "internalType": "uint256",
          "name": "_duration",
          "type": "uint256"
        }
      ],
      "name": "requestAccess",
      "outputs": [],
      "stateMutability": "nonpayable",
      "type": "function"
    },
    {
      "inputs": [
        {
          "internalType": "address",
          "name": "_doctor",
          "type": "address"
        },
        {
          "internalType": "string",
          "name": "_ipfsHash",
          "type": "string"
        },
        {
          "internalType": "uint256",
          "name": "_duration",
          "type": "uint256"
        }
      ],
      "name": "grantAccess",
      "outputs": [],
      "stateMutability": "nonpayable",
      "type": "function"
    },
    {
      "inputs": [],
      "name": "getAccessList",
      "outputs": [
        {
          "components": [
            {
              "internalType": "address",
              "name": "patient",
              "type": "address"
            },
            {
              "internalType": "string",
              "name": "ipfsHash",
              "type": "string"
            },
            {
              "internalType": "string",
              "name": "fileName",
              "type": "string"
            },
            {
              "internalType": "bool",
              "name": "hasAccess",
              "type": "bool"
            },
            {
              "internalType": "uint256",
              "name": "grantTime",
              "type": "uint256"
            },
            {
              "internalType": "uint256",
              "name": "duration",
              "type": "uint256"
            }
          ],
          "internalType": "struct Doctor.DocumentAccess[]",
          "name": "",
          "type": "tuple[]"
        }
      ],
      "stateMutability": "view",
      "type": "function",
      "constant": true
    },
    {
      "inputs": [],
      "name": "getPatients",
      "outputs": [
        {
          "components": [
            {
              "internalType": "uint256",
              "name": "doctorId",
              "type": "uint256"
            },
            {
              "internalType": "string",
              "name": "name",
              "type": "string"
            },
            {
              "internalType": "string",
              "name": "specialization",
              "type": "string"
            },
            {
              "internalType": "string",
              "name": "email",
              "type": "string"
            },
            {
              "internalType": "uint256[]",
              "name": "patientIds",
              "type": "uint256[]"
            }
          ],
          "internalType": "struct Doctor.DoctorDetails[]",
          "name": "",
          "type": "tuple[]"
        }
      ],
      "stateMutability": "view",
      "type": "function",
      "constant": true
    },
    {
      "inputs": [
        {
          "internalType": "address",
          "name": "walletAddress",
          "type": "address"
        }
      ],
      "name": "doctorExists",
      "outputs": [
        {
          "internalType": "bool",
          "name": "",
          "type": "bool"
        }
      ],
      "stateMutability": "view",
      "type": "function",
      "constant": true
    },
    {
      "inputs": [],
      "name": "getAllDoctors",
      "outputs": [
        {
          "components": [
            {
              "internalType": "uint256",
              "name": "doctorId",
              "type": "uint256"
            },
            {
              "internalType": "string",
              "name": "name",
              "type": "string"
            },
            {
              "internalType": "string",
              "name": "specialization",
              "type": "string"
            },
            {
              "internalType": "string",
              "name": "email",
              "type": "string"
            },
            {
              "internalType": "uint256[]",
              "name": "patientIds",
              "type": "uint256[]"
            }
          ],
          "internalType": "struct Doctor.DoctorDetails[]",
          "name": "",
          "type": "tuple[]"
        }
      ],
      "stateMutability": "view",
      "type": "function",
      "constant": true
    }
  ],
  "bytecode": "0x608060405234801561001057600080fd5b50613053806100206000396000f3fe608060405234801561001057600080fd5b50600436106100cf5760003560e01c80636efb1b841161008c5780638d5ddbb3116100665780638d5ddbb31461021857806398cf72b314610236578063f0d9509014610266578063f6827cd114610284576100cf565b80636efb1b84146101ab5780637f93a961146101de5780638b145ec8146101fa576100cf565b80630ca9e2a3146100d457806312ad1c37146100f05780632ad230a91461010e57806333948de21461013e578063506e08d21461017357806350c7a9121461018f575b600080fd5b6100ee60048036038101906100e99190612087565b6102b4565b005b6100f86104d6565b60405161010591906123b0565b60405180910390f35b610128600480360381019061012391906123d2565b610a7f565b604051610135919061241a565b60405180910390f35b61015860048036038101906101539190612435565b610aca565b60405161016a969594939291906124dd565b60405180910390f35b61018d6004803603810190610188919061254c565b610c60565b005b6101a960048036038101906101a49190612579565b610e29565b005b6101c560048036038101906101c0919061254c565b610f67565b6040516101d59493929190612620565b60405180910390f35b6101f860048036038101906101f3919061267a565b61112f565b005b6102026113b8565b60405161020f9190612758565b60405180910390f35b6102206114ab565b60405161022d91906128ea565b60405180910390f35b610250600480360381019061024b91906123d2565b61174b565b60405161025d919061290c565b60405180910390f35b61026e611763565b60405161027b91906123b0565b60405180910390f35b61029e60048036038101906102999190612927565b611a4b565b6040516102ab919061241a565b60405180910390f35b60008060003373ffffffffffffffffffffffffffffffffffffffff1673ffffffffffffffffffffffffffffffffffffffff1681526020019081526020016000205490506000810361033a576040517f08c379a0000000000000000000000000000000000000000000000000000000008152600401610331906129cf565b60405180910390fd5b600260008281526020019081526020016000206040518060c001604052808773ffffffffffffffffffffffffffffffffffffffff1681526020018681526020018581526020016000151581526020016000815260200184815250908060018154018082558091505060019003906000526020600020906006020160009091909190915060008201518160000160006101000a81548173ffffffffffffffffffffffffffffffffffffffff021916908373ffffffffffffffffffffffffffffffffffffffff16021790555060208201518160010190816104199190612bfb565b50604082015181600201908161042f9190612bfb565b5060608201518160030160006101000a81548160ff0219169083151502179055506080820151816004015560a0820151816005015550503373ffffffffffffffffffffffffffffffffffffffff168573ffffffffffffffffffffffffffffffffffffffff167ff40d19df78758c064b87c49d3df20be2607b374ad85efdb27a381b829498f3198686866040516104c793929190612ccd565b60405180910390a35050505050565b606060008060003373ffffffffffffffffffffffffffffffffffffffff1673ffffffffffffffffffffffffffffffffffffffff1681526020019081526020016000205490506000810361055e576040517f08c379a0000000000000000000000000000000000000000000000000000000008152600401610555906129cf565b60405180910390fd5b600060026000838152602001908152602001600020805480602002602001604051908101604052809291908181526020016000905b8282101561076e57838290600052602060002090600602016040518060c00160405290816000820160009054906101000a900473ffffffffffffffffffffffffffffffffffffffff1673ffffffffffffffffffffffffffffffffffffffff1673ffffffffffffffffffffffffffffffffffffffff16815260200160018201805461061c90612a1e565b80601f016020809104026020016040519081016040528092919081815260200182805461064890612a1e565b80156106955780601f1061066a57610100808354040283529160200191610695565b820191906000526020600020905b81548152906001019060200180831161067857829003601f168201915b505050505081526020016002820180546106ae90612a1e565b80601f01602080910402602001604051908101604052809291908181526020018280546106da90612a1e565b80156107275780601f106106fc57610100808354040283529160200191610727565b820191906000526020600020905b81548152906001019060200180831161070a57829003601f168201915b505050505081526020016003820160009054906101000a900460ff161515151581526020016004820154815260200160058201548152505081526020019060010190610593565b5050505090506000815167ffffffffffffffff81111561079157610790611f26565b5b6040519080825280602002602001820160405280156107ca57816020015b6107b7611e6a565b8152602001906001900390816107af5790505b5090506000805b8351811015610a74578381815181106107ed576107ec612d12565b5b60200260200101516060015115610a6157600160008681526020019081526020016000206040518060a00160405290816000820154815260200160018201805461083690612a1e565b80601f016020809104026020016040519081016040528092919081815260200182805461086290612a1e565b80156108af5780601f10610884576101008083540402835291602001916108af565b820191906000526020600020905b81548152906001019060200180831161089257829003601f168201915b505050505081526020016002820180546108c890612a1e565b80601f01602080910402602001604051908101604052809291908181526020018280546108f490612a1e565b80156109415780601f1061091657610100808354040283529160200191610941565b820191906000526020600020905b81548152906001019060200180831161092457829003601f168201915b5050505050815260200160038201805461095a90612a1e565b80601f016020809104026020016040519081016040528092919081815260200182805461098690612a1e565b80156109d35780601f106109a8576101008083540402835291602001916109d3565b820191906000526020600020905b8154815290600101906020018083116109b657829003601f168201915b5050505050815260200160048201805480602002602001604051908101604052809291908181526020018280548015610a2b57602002820191906000526020600020905b815481526020019060010190808311610a17575b505050505081525050838381518110610a4757610a46612d12565b5b60200260200101819052508180610a5d90612d70565b9250505b8080610a6c90612d70565b9150506107d1565b508194505050505090565b6000806000808473ffffffffffffffffffffffffffffffffffffffff1673ffffffffffffffffffffffffffffffffffffffff1681526020019081526020016000205414159050919050565b60026020528160005260406000208181548110610ae657600080fd5b9060005260206000209060060201600091509150508060000160009054906101000a900473ffffffffffffffffffffffffffffffffffffffff1690806001018054610b3090612a1e565b80601f0160208091040260200160405190810160405280929190818152602001828054610b5c90612a1e565b8015610ba95780601f10610b7e57610100808354040283529160200191610ba9565b820191906000526020600020905b815481529060010190602001808311610b8c57829003601f168201915b505050505090806002018054610bbe90612a1e565b80601f0160208091040260200160405190810160405280929190818152602001828054610bea90612a1e565b8015610c375780601f10610c0c57610100808354040283529160200191610c37565b820191906000526020600020905b815481529060010190602001808311610c1a57829003601f168201915b5050505050908060030160009054906101000a900460ff16908060040154908060050154905086565b60008060003373ffffffffffffffffffffffffffffffffffffffff1673ffffffffffffffffffffffffffffffffffffffff16815260200190815260200160002054905060008103610ce6576040517f08c379a0000000000000000000000000000000000000000000000000000000008152600401610cdd906129cf565b60405180910390fd5b6000805b6001600084815260200190815260200160002060040180549050811015610d605783600160008581526020019081526020016000206004018281548110610d3457610d33612d12565b5b906000526020600020015403610d4d5760019150610d60565b8080610d5890612d70565b915050610cea565b508015610da2576040517f08c379a0000000000000000000000000000000000000000000000000000000008152600401610d9990612e04565b60405180910390fd5b600160008381526020019081526020016000206004018390806001815401808255809150506001900390600052602060002001600090919091909150553373ffffffffffffffffffffffffffffffffffffffff1683837f62e4da5e5c3a89b6dca6a385b8712c06f51bf0855ae5b6abd14937474a4ce01e60405160405180910390a4505050565b60008060003373ffffffffffffffffffffffffffffffffffffffff1673ffffffffffffffffffffffffffffffffffffffff1681526020019081526020016000205414610eaa576040517f08c379a0000000000000000000000000000000000000000000000000000000008152600401610ea190612e70565b60405180910390fd5b60036000815480929190610ebd90612d70565b91905055506003546000803373ffffffffffffffffffffffffffffffffffffffff1673ffffffffffffffffffffffffffffffffffffffff1681526020019081526020016000208190555060006001600060035481526020019081526020016000209050600354816000018190555083816001019081610f3c9190612bfb565b5082816002019081610f4e9190612bfb565b5081816003019081610f609190612bfb565b5050505050565b6001602052806000526040600020600091509050806000015490806001018054610f9090612a1e565b80601f0160208091040260200160405190810160405280929190818152602001828054610fbc90612a1e565b80156110095780601f10610fde57610100808354040283529160200191611009565b820191906000526020600020905b815481529060010190602001808311610fec57829003601f168201915b50505050509080600201805461101e90612a1e565b80601f016020809104026020016040519081016040528092919081815260200182805461104a90612a1e565b80156110975780601f1061106c57610100808354040283529160200191611097565b820191906000526020600020905b81548152906001019060200180831161107a57829003601f168201915b5050505050908060030180546110ac90612a1e565b80601f01602080910402602001604051908101604052809291908181526020018280546110d890612a1e565b80156111255780601f106110fa57610100808354040283529160200191611125565b820191906000526020600020905b81548152906001019060200180831161110857829003601f168201915b5050505050905084565b60008060008573ffffffffffffffffffffffffffffffffffffffff1673ffffffffffffffffffffffffffffffffffffffff168152602001908152602001600020549050600081036111b5576040517f08c379a00000000000000000000000000000000000000000000000000000000081526004016111ac906129cf565b60405180910390fd5b600060026000838152602001908152602001600020905060005b8180549050811015611377573373ffffffffffffffffffffffffffffffffffffffff1682828154811061120557611204612d12565b5b906000526020600020906006020160000160009054906101000a900473ffffffffffffffffffffffffffffffffffffffff1673ffffffffffffffffffffffffffffffffffffffff161480156112c85750846040516020016112669190612ecc565b6040516020818303038152906040528051906020012082828154811061128f5761128e612d12565b5b90600052602060002090600602016001016040516020016112b09190612f66565b60405160208183030381529060405280519060200120145b156113645760018282815481106112e2576112e1612d12565b5b906000526020600020906006020160030160006101000a81548160ff0219169083151502179055504282828154811061131e5761131d612d12565b5b9060005260206000209060060201600401819055508382828154811061134757611346612d12565b5b9060005260206000209060060201600501819055505050506113b3565b808061136f90612d70565b9150506111cf565b506040517f08c379a00000000000000000000000000000000000000000000000000000000081526004016113aa90612fc9565b60405180910390fd5b505050565b606060008060003373ffffffffffffffffffffffffffffffffffffffff1673ffffffffffffffffffffffffffffffffffffffff16815260200190815260200160002054905060008103611440576040517f08c379a0000000000000000000000000000000000000000000000000000000008152600401611437906129cf565b60405180910390fd5b600160008281526020019081526020016000206004018054806020026020016040519081016040528092919081815260200182805480156114a057602002820191906000526020600020905b81548152602001906001019080831161148c575b505050505091505090565b606060008060003373ffffffffffffffffffffffffffffffffffffffff1673ffffffffffffffffffffffffffffffffffffffff16815260200190815260200160002054905060008103611533576040517f08c379a000000000000000000000000000000000000000000000000000000000815260040161152a906129cf565b60405180910390fd5b60026000828152602001908152602001600020805480602002602001604051908101604052809291908181526020016000905b8282101561174157838290600052602060002090600602016040518060c00160405290816000820160009054906101000a900473ffffffffffffffffffffffffffffffffffffffff1673ffffffffffffffffffffffffffffffffffffffff1673ffffffffffffffffffffffffffffffffffffffff1681526020016001820180546115ef90612a1e565b80601f016020809104026020016040519081016040528092919081815260200182805461161b90612a1e565b80156116685780601f1061163d57610100808354040283529160200191611668565b820191906000526020600020905b81548152906001019060200180831161164b57829003601f168201915b5050505050815260200160028201805461168190612a1e565b80601f01602080910402602001604051908101604052809291908181526020018280546116ad90612a1e565b80156116fa5780601f106116cf576101008083540402835291602001916116fa565b820191906000526020600020905b8154815290600101906020018083116116dd57829003601f168201915b505050505081526020016003820160009054906101000a900460ff161515151581526020016004820154815260200160058201548152505081526020019060010190611566565b5050505091505090565b60006020528060005260406000206000915090505481565b60606000600354905060008167ffffffffffffffff81111561178857611787611f26565b5b6040519080825280602002602001820160405280156117c157816020015b6117ae611e6a565b8152602001906001900390816117a65790505b50905060005b82811015611a4257600160006001836117e09190612fe9565b81526020019081526020016000206040518060a00160405290816000820154815260200160018201805461181390612a1e565b80601f016020809104026020016040519081016040528092919081815260200182805461183f90612a1e565b801561188c5780601f106118615761010080835404028352916020019161188c565b820191906000526020600020905b81548152906001019060200180831161186f57829003601f168201915b505050505081526020016002820180546118a590612a1e565b80601f01602080910402602001604051908101604052809291908181526020018280546118d190612a1e565b801561191e5780601f106118f35761010080835404028352916020019161191e565b820191906000526020600020905b81548152906001019060200180831161190157829003601f168201915b5050505050815260200160038201805461193790612a1e565b80601f016020809104026020016040519081016040528092919081815260200182805461196390612a1e565b80156119b05780601f10611985576101008083540402835291602001916119b0565b820191906000526020600020905b81548152906001019060200180831161199357829003601f168201915b5050505050815260200160048201805480602002602001604051908101604052809291908181526020018280548015611a0857602002820191906000526020600020905b8154815260200190600101908083116119f4575b505050505081525050828281518110611a2457611a23612d12565b5b60200260200101819052508080611a3a90612d70565b9150506117c7565b50809250505090565b6000806000803373ffffffffffffffffffffffffffffffffffffffff1673ffffffffffffffffffffffffffffffffffffffff16815260200190815260200160002054905060008103611ad2576040517f08c379a0000000000000000000000000000000000000000000000000000000008152600401611ac9906129cf565b60405180910390fd5b600060026000838152602001908152602001600020805480602002602001604051908101604052809291908181526020016000905b82821015611ce257838290600052602060002090600602016040518060c00160405290816000820160009054906101000a900473ffffffffffffffffffffffffffffffffffffffff1673ffffffffffffffffffffffffffffffffffffffff1673ffffffffffffffffffffffffffffffffffffffff168152602001600182018054611b9090612a1e565b80601f0160208091040260200160405190810160405280929190818152602001828054611bbc90612a1e565b8015611c095780601f10611bde57610100808354040283529160200191611c09565b820191906000526020600020905b815481529060010190602001808311611bec57829003601f168201915b50505050508152602001600282018054611c2290612a1e565b80601f0160208091040260200160405190810160405280929190818152602001828054611c4e90612a1e565b8015611c9b5780601f10611c7057610100808354040283529160200191611c9b565b820191906000526020600020905b815481529060010190602001808311611c7e57829003601f168201915b505050505081526020016003820160009054906101000a900460ff161515151581526020016004820154815260200160058201548152505081526020019060010190611b07565b50505050905060005b8151811015611e5c578573ffffffffffffffffffffffffffffffffffffffff16828281518110611d1e57611d1d612d12565b5b60200260200101516000015173ffffffffffffffffffffffffffffffffffffffff16148015611db6575084604051602001611d599190612ecc565b60405160208183030381529060405280519060200120828281518110611d8257611d81612d12565b5b602002602001015160200151604051602001611d9e9190612ecc565b60405160208183030381529060405280519060200120145b8015611ddd5750818181518110611dd057611dcf612d12565b5b6020026020010151606001515b15611e4957818181518110611df557611df4612d12565b5b602002602001015160a00151828281518110611e1457611e13612d12565b5b602002602001015160800151611e2a9190612fe9565b421115611e3d5760009350505050611e64565b60019350505050611e64565b8080611e5490612d70565b915050611ceb565b506000925050505b92915050565b6040518060a0016040528060008152602001606081526020016060815260200160608152602001606081525090565b6000604051905090565b600080fd5b600080fd5b600073ffffffffffffffffffffffffffffffffffffffff82169050919050565b6000611ed882611ead565b9050919050565b611ee881611ecd565b8114611ef357600080fd5b50565b600081359050611f0581611edf565b92915050565b600080fd5b600080fd5b6000601f19601f8301169050919050565b7f4e487b7100000000000000000000000000000000000000000000000000000000600052604160045260246000fd5b611f5e82611f15565b810181811067ffffffffffffffff82111715611f7d57611f7c611f26565b5b80604052505050565b6000611f90611e99565b9050611f9c8282611f55565b919050565b600067ffffffffffffffff821115611fbc57611fbb611f26565b5b611fc582611f15565b9050602081019050919050565b82818337600083830152505050565b6000611ff4611fef84611fa1565b611f86565b9050828152602081018484840111156120105761200f611f10565b5b61201b848285611fd2565b509392505050565b600082601f83011261203857612037611f0b565b5b8135612048848260208601611fe1565b91505092915050565b6000819050919050565b61206481612051565b811461206f57600080fd5b50565b6000813590506120818161205b565b92915050565b600080600080608085870312156120a1576120a0611ea3565b5b60006120af87828801611ef6565b945050602085013567ffffffffffffffff8111156120d0576120cf611ea8565b5b6120dc87828801612023565b935050604085013567ffffffffffffffff8111156120fd576120fc611ea8565b5b61210987828801612023565b925050606061211a87828801612072565b91505092959194509250565b600081519050919050565b600082825260208201905092915050565b6000819050602082019050919050565b61215b81612051565b82525050565b600081519050919050565b600082825260208201905092915050565b60005b8381101561219b578082015181840152602081019050612180565b60008484015250505050565b60006121b282612161565b6121bc818561216c565b93506121cc81856020860161217d565b6121d581611f15565b840191505092915050565b600081519050919050565b600082825260208201905092915050565b6000819050602082019050919050565b60006122188383612152565b60208301905092915050565b6000602082019050919050565b600061223c826121e0565b61224681856121eb565b9350612251836121fc565b8060005b83811015612282578151612269888261220c565b975061227483612224565b925050600181019050612255565b5085935050505092915050565b600060a0830160008301516122a76000860182612152565b50602083015184820360208601526122bf82826121a7565b915050604083015184820360408601526122d982826121a7565b915050606083015184820360608601526122f382826121a7565b9150506080830151848203608086015261230d8282612231565b9150508091505092915050565b6000612326838361228f565b905092915050565b6000602082019050919050565b600061234682612126565b6123508185612131565b93508360208202850161236285612142565b8060005b8581101561239e578484038952815161237f858261231a565b945061238a8361232e565b925060208a01995050600181019050612366565b50829750879550505050505092915050565b600060208201905081810360008301526123ca818461233b565b905092915050565b6000602082840312156123e8576123e7611ea3565b5b60006123f684828501611ef6565b91505092915050565b60008115159050919050565b612414816123ff565b82525050565b600060208201905061242f600083018461240b565b92915050565b6000806040838503121561244c5761244b611ea3565b5b600061245a85828601612072565b925050602061246b85828601612072565b9150509250929050565b61247e81611ecd565b82525050565b600082825260208201905092915050565b60006124a082612161565b6124aa8185612484565b93506124ba81856020860161217d565b6124c381611f15565b840191505092915050565b6124d781612051565b82525050565b600060c0820190506124f26000830189612475565b81810360208301526125048188612495565b905081810360408301526125188187612495565b9050612527606083018661240b565b61253460808301856124ce565b61254160a08301846124ce565b979650505050505050565b60006020828403121561256257612561611ea3565b5b600061257084828501612072565b91505092915050565b60008060006060848603121561259257612591611ea3565b5b600084013567ffffffffffffffff8111156125b0576125af611ea8565b5b6125bc86828701612023565b935050602084013567ffffffffffffffff8111156125dd576125dc611ea8565b5b6125e986828701612023565b925050604084013567ffffffffffffffff81111561260a57612609611ea8565b5b61261686828701612023565b9150509250925092565b600060808201905061263560008301876124ce565b81810360208301526126478186612495565b9050818103604083015261265b8185612495565b9050818103606083015261266f8184612495565b905095945050505050565b60008060006060848603121561269357612692611ea3565b5b60006126a186828701611ef6565b935050602084013567ffffffffffffffff8111156126c2576126c1611ea8565b5b6126ce86828701612023565b92505060406126df86828701612072565b9150509250925092565b600082825260208201905092915050565b6000612705826121e0565b61270f81856126e9565b935061271a836121fc565b8060005b8381101561274b578151612732888261220c565b975061273d83612224565b92505060018101905061271e565b5085935050505092915050565b6000602082019050818103600083015261277281846126fa565b905092915050565b600081519050919050565b600082825260208201905092915050565b6000819050602082019050919050565b6127af81611ecd565b82525050565b6127be816123ff565b82525050565b600060c0830160008301516127dc60008601826127a6565b50602083015184820360208601526127f482826121a7565b9150506040830151848203604086015261280e82826121a7565b915050606083015161282360608601826127b5565b5060808301516128366080860182612152565b5060a083015161284960a0860182612152565b508091505092915050565b600061286083836127c4565b905092915050565b6000602082019050919050565b60006128808261277a565b61288a8185612785565b93508360208202850161289c85612796565b8060005b858110156128d857848403895281516128b98582612854565b94506128c483612868565b925060208a019950506001810190506128a0565b50829750879550505050505092915050565b600060208201905081810360008301526129048184612875565b905092915050565b600060208201905061292160008301846124ce565b92915050565b6000806040838503121561293e5761293d611ea3565b5b600061294c85828601611ef6565b925050602083013567ffffffffffffffff81111561296d5761296c611ea8565b5b61297985828601612023565b9150509250929050565b7f446f63746f72206e6f7420726567697374657265640000000000000000000000600082015250565b60006129b9601583612484565b91506129c482612983565b602082019050919050565b600060208201905081810360008301526129e8816129ac565b9050919050565b7f4e487b7100000000000000000000000000000000000000000000000000000000600052602260045260246000fd5b60006002820490506001821680612a3657607f821691505b602082108103612a4957612a486129ef565b5b50919050565b60008190508160005260206000209050919050565b60006020601f8301049050919050565b600082821b905092915050565b600060088302612ab17fffffffffffffffffffffffffffffffffffffffffffffffffffffffffffffffff82612a74565b612abb8683612a74565b95508019841693508086168417925050509392505050565b6000819050919050565b6000612af8612af3612aee84612051565b612ad3565b612051565b9050919050565b6000819050919050565b612b1283612add565b612b26612b1e82612aff565b848454612a81565b825550505050565b600090565b612b3b612b2e565b612b46818484612b09565b505050565b5b81811015612b6a57612b5f600082612b33565b600181019050612b4c565b5050565b601f821115612baf57612b8081612a4f565b612b8984612a64565b81016020851015612b98578190505b612bac612ba485612a64565b830182612b4b565b50505b505050565b600082821c905092915050565b6000612bd260001984600802612bb4565b1980831691505092915050565b6000612beb8383612bc1565b9150826002028217905092915050565b612c0482612161565b67ffffffffffffffff811115612c1d57612c1c611f26565b5b612c278254612a1e565b612c32828285612b6e565b600060209050601f831160018114612c655760008415612c53578287015190505b612c5d8582612bdf565b865550612cc5565b601f198416612c7386612a4f565b60005b82811015612c9b57848901518255600182019150602085019450602081019050612c76565b86831015612cb85784890151612cb4601f891682612bc1565b8355505b6001600288020188555050505b505050505050565b60006060820190508181036000830152612ce78186612495565b90508181036020830152612cfb8185612495565b9050612d0a60408301846124ce565b949350505050565b7f4e487b7100000000000000000000000000000000000000000000000000000000600052603260045260246000fd5b7f4e487b7100000000000000000000000000000000000000000000000000000000600052601160045260246000fd5b6000612d7b82612051565b91507fffffffffffffffffffffffffffffffffffffffffffffffffffffffffffffffff8203612dad57612dac612d41565b5b600182019050919050565b7f50617469656e7420616c72656164792061646465640000000000000000000000600082015250565b6000612dee601583612484565b9150612df982612db8565b602082019050919050565b60006020820190508181036000830152612e1d81612de1565b9050919050565b7f446f63746f7220616c7265616479207265676973746572656400000000000000600082015250565b6000612e5a601983612484565b9150612e6582612e24565b602082019050919050565b60006020820190508181036000830152612e8981612e4d565b9050919050565b600081905092915050565b6000612ea682612161565b612eb08185612e90565b9350612ec081856020860161217d565b80840191505092915050565b6000612ed88284612e9b565b915081905092915050565b60008154612ef081612a1e565b612efa8186612e90565b94506001821660008114612f155760018114612f2a57612f5d565b60ff1983168652811515820286019350612f5d565b612f3385612a4f565b60005b83811015612f5557815481890152600182019150602081019050612f36565b838801955050505b50505092915050565b6000612f728284612ee3565b915081905092915050565b7f4163636573732072657175657374206e6f7420666f756e640000000000000000600082015250565b6000612fb3601883612484565b9150612fbe82612f7d565b602082019050919050565b60006020820190508181036000830152612fe281612fa6565b9050919050565b6000612ff482612051565b9150612fff83612051565b925082820190508082111561301757613016612d41565b5b9291505056fea26469706673582212208b6ffc96c58889575f94b31f46a00e9be50790cbe2cbda893e3281010456ffe064736f6c63430008130033",
  "immutableReferences": {},
  "source": "// SPDX-License-Identifier: MIT\r\npragma solidity ^0.8.19;\r\n\r\ncontract Doctor {\r\n    struct DoctorDetails {\r\n        uint256 doctorId;\r\n        string name;\r\n        string specialization;\r\n        string email;\r\n        uint256[] patientIds; // NEW: List of patients linked to this doctor\r\n    }\r\n\r\n    struct DocumentAccess {\r\n        address patient;\r\n        string ipfsHash;\r\n        string fileName;\r\n        bool hasAccess;\r\n        uint256 grantTime;\r\n        uint256 duration;\r\n    }\r\n\r\n    mapping(address => uint256) public walletToDoctorId;\r\n    mapping(uint256 => DoctorDetails) public doctors;\r\n    mapping(uint256 => DocumentAccess[]) public doctorAccessList;\r\n\r\n    uint256 private doctorIdCounter;\r\n\r\n    // --- EVENTS ---\r\n    event AccessRequested(\r\n        address indexed patient,\r\n        address indexed doctor,\r\n        string ipfsHash,\r\n        string fileName,\r\n        uint256 duration\r\n    );\r\n    event PatientAdded(\r\n        uint256 indexed doctorId,\r\n        uint256 indexed patientId,\r\n        address indexed doctor\r\n    );\r\n\r\n    function registerDoctor(\r\n        string memory _name,\r\n        string memory _specialization,\r\n        string memory _hospital\r\n    ) public {\r\n        require(walletToDoctorId[msg.sender] == 0, \"Doctor already registered\");\r\n        doctorIdCounter++;\r\n        walletToDoctorId[msg.sender] = doctorIdCounter;\r\n\r\n        DoctorDetails storage newDoctor = doctors[doctorIdCounter];\r\n        newDoctor.doctorId = doctorIdCounter;\r\n        newDoctor.name = _name;\r\n        newDoctor.specialization = _specialization;\r\n        newDoctor.email = _hospital;\r\n    }\r\n\r\n    function addPatient(uint256 _patientId) public {\r\n        uint256 doctorId = walletToDoctorId[msg.sender];\r\n        require(doctorId != 0, \"Doctor not registered\");\r\n\r\n        bool exists = false;\r\n        for (uint i = 0; i < doctors[doctorId].patientIds.length; i++) {\r\n            if (doctors[doctorId].patientIds[i] == _patientId) {\r\n                exists = true;\r\n                break;\r\n            }\r\n        }\r\n        require(!exists, \"Patient already added\");\r\n\r\n        doctors[doctorId].patientIds.push(_patientId);\r\n        emit PatientAdded(doctorId, _patientId, msg.sender);\r\n    }\r\n\r\n    function getDoctorPatients() public view returns (uint256[] memory) {\r\n        uint256 doctorId = walletToDoctorId[msg.sender];\r\n        require(doctorId != 0, \"Doctor not registered\");\r\n        return doctors[doctorId].patientIds;\r\n    }\r\n\r\n    function hasAccessToDocument(\r\n        address _patient,\r\n        string memory _ipfsHash\r\n    ) public view returns (bool) {\r\n        uint256 doctorId = walletToDoctorId[msg.sender];\r\n        require(doctorId != 0, \"Doctor not registered\");\r\n\r\n        DocumentAccess[] memory accessList = doctorAccessList[doctorId];\r\n        for (uint256 i = 0; i < accessList.length; i++) {\r\n            if (\r\n                accessList[i].patient == _patient &&\r\n                keccak256(abi.encodePacked(accessList[i].ipfsHash)) ==\r\n                keccak256(abi.encodePacked(_ipfsHash)) &&\r\n                accessList[i].hasAccess\r\n            ) {\r\n                // Check for expiration\r\n                if (\r\n                    block.timestamp >\r\n                    accessList[i].grantTime + accessList[i].duration\r\n                ) {\r\n                    return false;\r\n                }\r\n                return true;\r\n            }\r\n        }\r\n        return false;\r\n    }\r\n\r\n    function requestAccess(\r\n        address _patient,\r\n        string memory _ipfsHash,\r\n        string memory _fileName,\r\n        uint256 _duration\r\n    ) public {\r\n        uint256 doctorId = walletToDoctorId[msg.sender];\r\n        require(doctorId != 0, \"Doctor not registered\");\r\n\r\n        doctorAccessList[doctorId].push(\r\n            DocumentAccess({\r\n                patient: _patient,\r\n                ipfsHash: _ipfsHash,\r\n                fileName: _fileName,\r\n                hasAccess: false,\r\n                grantTime: 0,\r\n                duration: _duration\r\n            })\r\n        );\r\n\r\n        emit AccessRequested(\r\n            _patient,\r\n            msg.sender,\r\n            _ipfsHash,\r\n            _fileName,\r\n            _duration\r\n        );\r\n    }\r\n\r\n    function grantAccess(\r\n        address _doctor,\r\n        string memory _ipfsHash,\r\n        uint256 _duration\r\n    ) public {\r\n        uint256 doctorId = walletToDoctorId[_doctor];\r\n        require(doctorId != 0, \"Doctor not registered\");\r\n\r\n        DocumentAccess[] storage accessList = doctorAccessList[doctorId];\r\n        for (uint256 i = 0; i < accessList.length; i++) {\r\n            if (\r\n                accessList[i].patient == msg.sender &&\r\n                keccak256(abi.encodePacked(accessList[i].ipfsHash)) ==\r\n                keccak256(abi.encodePacked(_ipfsHash))\r\n            ) {\r\n                accessList[i].hasAccess = true;\r\n                accessList[i].grantTime = block.timestamp;\r\n                accessList[i].duration = _duration; // Update with confirmed duration\r\n                return;\r\n            }\r\n        }\r\n        revert(\"Access request not found\");\r\n    }\r\n\r\n    // --- GETTERS ---\r\n    function getAccessList() public view returns (DocumentAccess[] memory) {\r\n        uint256 doctorId = walletToDoctorId[msg.sender];\r\n        require(doctorId != 0, \"Doctor not registered\");\r\n        return doctorAccessList[doctorId];\r\n    }\r\n\r\n    function getPatients() public view returns (DoctorDetails[] memory) {\r\n        uint256 doctorId = walletToDoctorId[msg.sender];\r\n        require(doctorId != 0, \"Doctor not registered\");\r\n\r\n        DocumentAccess[] memory accessList = doctorAccessList[doctorId];\r\n        DoctorDetails[] memory patients = new DoctorDetails[](\r\n            accessList.length\r\n        );\r\n        uint256 count = 0;\r\n\r\n        for (uint256 i = 0; i < accessList.length; i++) {\r\n            if (accessList[i].hasAccess) {\r\n                patients[count] = doctors[doctorId];\r\n                count++;\r\n            }\r\n        }\r\n\r\n        return patients;\r\n    }\r\n\r\n    function doctorExists(address walletAddress) public view returns (bool) {\r\n        return walletToDoctorId[walletAddress] != 0;\r\n    }\r\n\r\n    function getAllDoctors() public view returns (DoctorDetails[] memory) {\r\n        uint256 total = doctorIdCounter;\r\n        DoctorDetails[] memory list = new DoctorDetails[](total);\r\n\r\n        for (uint256 i = 0; i < total; i++) {\r\n            list[i] = doctors[i + 1];\r\n        }\r\n\r\n        return list;\r\n    }\r\n}\r\n",
  "sourcePath": "J:\\Users\\ayush\\Desktop\\code\\team-rocket-medi-secure\\contracts\\contracts\\Doctor.sol",
  "compiler": {
    "name": "solc",
    "version": "0.8.19+commit.7dd6d404.Emscripten.clang"
  },
  "schemaVersion": "3.4.16",
  "updatedAt": "2026-01-17T14:13:37.608Z",
  "networkType": "ethereum",
  "devdoc": {
    "kind": "dev",
    "methods": {},
    "version": 1
  },
  "userdoc": {
    "kind": "user",
    "methods": {},
    "version": 1
  }
}