{
  "contractName": "Doctor",
  "abi": [
    {
      "anonymous": false,
      "inputs": [
        {
          "indexed": true,
          "internalType": "address",
          "name": "patient",
          "type": "address"
        },
        {
          "indexed": true,
          "internalType": "address",
          "name": "doctor",
          "type": "address"
        },
        {
          "indexed": false,
          "internalType": "string",
          "name": "ipfsHash",
          "type": "string"
        }
      ],
      "name": "AccessRequested",
      "type": "event"
    },
    {
      "anonymous": false,
      "inputs": [
        {
          "indexed": true,
          "internalType": "uint256",
          "name": "doctorId",
          "type": "uint256"
        },
        {
          "indexed": true,
          "internalType": "uint256",
          "name": "patientId",
          "type": "uint256"
        },
        {
          "indexed": true,
          "internalType": "address",
          "name": "doctor",
          "type": "address"
        }
      ],
      "name": "PatientAdded",
      "type": "event"
    },
    {
      "inputs": [
        {
          "internalType": "uint256",
          "name": "",
          "type": "uint256"
        },
        {
          "internalType": "uint256",
          "name": "",
          "type": "uint256"
        }
      ],
      "name": "doctorAccessList",
      "outputs": [
        {
          "internalType": "address",
          "name": "patient",
          "type": "address"
        },
        {
          "internalType": "string",
          "name": "ipfsHash",
          "type": "string"
        },
        {
          "internalType": "bool",
          "name": "hasAccess",
          "type": "bool"
        }
      ],
      "stateMutability": "view",
      "type": "function",
      "constant": true
    },
    {
      "inputs": [
        {
          "internalType": "uint256",
          "name": "",
          "type": "uint256"
        }
      ],
      "name": "doctors",
      "outputs": [
        {
          "internalType": "uint256",
          "name": "doctorId",
          "type": "uint256"
        },
        {
          "internalType": "string",
          "name": "name",
          "type": "string"
        },
        {
          "internalType": "string",
          "name": "specialization",
          "type": "string"
        },
        {
          "internalType": "string",
          "name": "email",
          "type": "string"
        }
      ],
      "stateMutability": "view",
      "type": "function",
      "constant": true
    },
    {
      "inputs": [
        {
          "internalType": "address",
          "name": "",
          "type": "address"
        }
      ],
      "name": "walletToDoctorId",
      "outputs": [
        {
          "internalType": "uint256",
          "name": "",
          "type": "uint256"
        }
      ],
      "stateMutability": "view",
      "type": "function",
      "constant": true
    },
    {
      "inputs": [
        {
          "internalType": "string",
          "name": "_name",
          "type": "string"
        },
        {
          "internalType": "string",
          "name": "_specialization",
          "type": "string"
        },
        {
          "internalType": "string",
          "name": "_email",
          "type": "string"
        }
      ],
      "name": "registerDoctor",
      "outputs": [],
      "stateMutability": "nonpayable",
      "type": "function"
    },
    {
      "inputs": [
        {
          "internalType": "uint256",
          "name": "_patientId",
          "type": "uint256"
        }
      ],
      "name": "addPatient",
      "outputs": [],
      "stateMutability": "nonpayable",
      "type": "function"
    },
    {
      "inputs": [],
      "name": "getDoctorPatients",
      "outputs": [
        {
          "internalType": "uint256[]",
          "name": "",
          "type": "uint256[]"
        }
      ],
      "stateMutability": "view",
      "type": "function",
      "constant": true
    },
    {
      "inputs": [
        {
          "internalType": "address",
          "name": "_patient",
          "type": "address"
        },
        {
          "internalType": "string",
          "name": "_ipfsHash",
          "type": "string"
        }
      ],
      "name": "hasAccessToDocument",
      "outputs": [
        {
          "internalType": "bool",
          "name": "",
          "type": "bool"
        }
      ],
      "stateMutability": "view",
      "type": "function",
      "constant": true
    },
    {
      "inputs": [
        {
          "internalType": "address",
          "name": "_patient",
          "type": "address"
        },
        {
          "internalType": "string",
          "name": "_ipfsHash",
          "type": "string"
        }
      ],
      "name": "requestAccess",
      "outputs": [],
      "stateMutability": "nonpayable",
      "type": "function"
    },
    {
      "inputs": [
        {
          "internalType": "address",
          "name": "_doctor",
          "type": "address"
        },
        {
          "internalType": "string",
          "name": "_ipfsHash",
          "type": "string"
        }
      ],
      "name": "grantAccess",
      "outputs": [],
      "stateMutability": "nonpayable",
      "type": "function"
    },
    {
      "inputs": [],
      "name": "getAccessList",
      "outputs": [
        {
          "components": [
            {
              "internalType": "address",
              "name": "patient",
              "type": "address"
            },
            {
              "internalType": "string",
              "name": "ipfsHash",
              "type": "string"
            },
            {
              "internalType": "bool",
              "name": "hasAccess",
              "type": "bool"
            }
          ],
          "internalType": "struct Doctor.DocumentAccess[]",
          "name": "",
          "type": "tuple[]"
        }
      ],
      "stateMutability": "view",
      "type": "function",
      "constant": true
    },
    {
      "inputs": [],
      "name": "getPatients",
      "outputs": [
        {
          "components": [
            {
              "internalType": "uint256",
              "name": "doctorId",
              "type": "uint256"
            },
            {
              "internalType": "string",
              "name": "name",
              "type": "string"
            },
            {
              "internalType": "string",
              "name": "specialization",
              "type": "string"
            },
            {
              "internalType": "string",
              "name": "email",
              "type": "string"
            },
            {
              "internalType": "uint256[]",
              "name": "patientIds",
              "type": "uint256[]"
            }
          ],
          "internalType": "struct Doctor.DoctorDetails[]",
          "name": "",
          "type": "tuple[]"
        }
      ],
      "stateMutability": "view",
      "type": "function",
      "constant": true
    },
    {
      "inputs": [
        {
          "internalType": "address",
          "name": "walletAddress",
          "type": "address"
        }
      ],
      "name": "doctorExists",
      "outputs": [
        {
          "internalType": "bool",
          "name": "",
          "type": "bool"
        }
      ],
      "stateMutability": "view",
      "type": "function",
      "constant": true
    },
    {
      "inputs": [],
      "name": "getAllDoctors",
      "outputs": [
        {
          "components": [
            {
              "internalType": "uint256",
              "name": "doctorId",
              "type": "uint256"
            },
            {
              "internalType": "string",
              "name": "name",
              "type": "string"
            },
            {
              "internalType": "string",
              "name": "specialization",
              "type": "string"
            },
            {
              "internalType": "string",
              "name": "email",
              "type": "string"
            },
            {
              "internalType": "uint256[]",
              "name": "patientIds",
              "type": "uint256[]"
            }
          ],
          "internalType": "struct Doctor.DoctorDetails[]",
          "name": "",
          "type": "tuple[]"
        }
      ],
      "stateMutability": "view",
      "type": "function",
      "constant": true
    }
  ],
  "bytecode": "0x608060405234801561001057600080fd5b50612c13806100206000396000f3fe608060405234801561001057600080fd5b50600436106100cf5760003560e01c80636efb1b841161008c57806398cf72b31161006657806398cf72b314610217578063e50fe48e14610247578063f0d9509014610263578063f6827cd114610281576100cf565b80636efb1b84146101a85780638b145ec8146101db5780638d5ddbb3146101f9576100cf565b806312ad1c37146100d45780632ad230a9146100f25780632f6d4a591461012257806333948de21461013e578063506e08d21461017057806350c7a9121461018c575b600080fd5b6100dc6102b1565b6040516100e99190611ea0565b60405180910390f35b61010c60048036038101906101079190611f34565b6107b4565b6040516101199190611f7c565b60405180910390f35b61013c600480360381019061013791906120cc565b6107ff565b005b61015860048036038101906101539190612154565b6109de565b604051610167939291906121ed565b60405180910390f35b61018a6004803603810190610185919061222b565b610ada565b005b6101a660048036038101906101a19190612258565b610c83565b005b6101c260048036038101906101bd919061222b565b610e59565b6040516101d2949392919061230e565b60405180910390f35b6101e3611021565b6040516101f091906123d7565b60405180910390f35b610201611114565b60405161020e9190612529565b60405180910390f35b610231600480360381019061022c9190611f34565b61130e565b60405161023e919061254b565b60405180910390f35b610261600480360381019061025c91906120cc565b611326565b005b61026b61155c565b6040516102789190611ea0565b60405180910390f35b61029b600480360381019061029691906120cc565b611844565b6040516102a89190611f7c565b60405180910390f35b606060008060003373ffffffffffffffffffffffffffffffffffffffff1673ffffffffffffffffffffffffffffffffffffffff16815260200190815260200160002054905060008103610339576040517f08c379a0000000000000000000000000000000000000000000000000000000008152600401610330906125b2565b60405180910390fd5b600060026000838152602001908152602001600020805480602002602001604051908101604052809291908181526020016000905b828210156104a357838290600052602060002090600302016040518060600160405290816000820160009054906101000a900473ffffffffffffffffffffffffffffffffffffffff1673ffffffffffffffffffffffffffffffffffffffff1673ffffffffffffffffffffffffffffffffffffffff1681526020016001820180546103f790612601565b80601f016020809104026020016040519081016040528092919081815260200182805461042390612601565b80156104705780601f1061044557610100808354040283529160200191610470565b820191906000526020600020905b81548152906001019060200180831161045357829003601f168201915b505050505081526020016002820160009054906101000a900460ff1615151515815250508152602001906001019061036e565b5050505090506000815167ffffffffffffffff8111156104c6576104c5611fa1565b5b6040519080825280602002602001820160405280156104ff57816020015b6104ec611b62565b8152602001906001900390816104e45790505b5090506000805b83518110156107a95783818151811061052257610521612632565b5b6020026020010151604001511561079657600160008681526020019081526020016000206040518060a00160405290816000820154815260200160018201805461056b90612601565b80601f016020809104026020016040519081016040528092919081815260200182805461059790612601565b80156105e45780601f106105b9576101008083540402835291602001916105e4565b820191906000526020600020905b8154815290600101906020018083116105c757829003601f168201915b505050505081526020016002820180546105fd90612601565b80601f016020809104026020016040519081016040528092919081815260200182805461062990612601565b80156106765780601f1061064b57610100808354040283529160200191610676565b820191906000526020600020905b81548152906001019060200180831161065957829003601f168201915b5050505050815260200160038201805461068f90612601565b80601f01602080910402602001604051908101604052809291908181526020018280546106bb90612601565b80156107085780601f106106dd57610100808354040283529160200191610708565b820191906000526020600020905b8154815290600101906020018083116106eb57829003601f168201915b505050505081526020016004820180548060200260200160405190810160405280929190818152602001828054801561076057602002820191906000526020600020905b81548152602001906001019080831161074c575b50505050508152505083838151811061077c5761077b612632565b5b6020026020010181905250818061079290612690565b9250505b80806107a190612690565b915050610506565b508194505050505090565b6000806000808473ffffffffffffffffffffffffffffffffffffffff1673ffffffffffffffffffffffffffffffffffffffff1681526020019081526020016000205414159050919050565b60008060003373ffffffffffffffffffffffffffffffffffffffff1673ffffffffffffffffffffffffffffffffffffffff16815260200190815260200160002054905060008103610885576040517f08c379a000000000000000000000000000000000000000000000000000000000815260040161087c906125b2565b60405180910390fd5b6002600082815260200190815260200160002060405180606001604052808573ffffffffffffffffffffffffffffffffffffffff16815260200184815260200160001515815250908060018154018082558091505060019003906000526020600020906003020160009091909190915060008201518160000160006101000a81548173ffffffffffffffffffffffffffffffffffffffff021916908373ffffffffffffffffffffffffffffffffffffffff16021790555060208201518160010190816109519190612884565b5060408201518160020160006101000a81548160ff02191690831515021790555050503373ffffffffffffffffffffffffffffffffffffffff168373ffffffffffffffffffffffffffffffffffffffff167f7345df1fefb912154845267ca137457ad1fd510d6426afd2502e66d300602263846040516109d19190612956565b60405180910390a3505050565b600260205281600052604060002081815481106109fa57600080fd5b9060005260206000209060030201600091509150508060000160009054906101000a900473ffffffffffffffffffffffffffffffffffffffff1690806001018054610a4490612601565b80601f0160208091040260200160405190810160405280929190818152602001828054610a7090612601565b8015610abd5780601f10610a9257610100808354040283529160200191610abd565b820191906000526020600020905b815481529060010190602001808311610aa057829003601f168201915b5050505050908060020160009054906101000a900460ff16905083565b60008060003373ffffffffffffffffffffffffffffffffffffffff1673ffffffffffffffffffffffffffffffffffffffff16815260200190815260200160002054905060008103610b60576040517f08c379a0000000000000000000000000000000000000000000000000000000008152600401610b57906125b2565b60405180910390fd5b600060016000838152602001908152602001600020600401905060005b8180549050811015610bfb5783828281548110610b9d57610b9c612632565b5b906000526020600020015403610be8576040517f08c379a0000000000000000000000000000000000000000000000000000000008152600401610bdf906129c4565b60405180910390fd5b8080610bf390612690565b915050610b7d565b50600160008381526020019081526020016000206004018390806001815401808255809150506001900390600052602060002001600090919091909150553373ffffffffffffffffffffffffffffffffffffffff1683837f62e4da5e5c3a89b6dca6a385b8712c06f51bf0855ae5b6abd14937474a4ce01e60405160405180910390a4505050565b60008060003373ffffffffffffffffffffffffffffffffffffffff1673ffffffffffffffffffffffffffffffffffffffff1681526020019081526020016000205414610d04576040517f08c379a0000000000000000000000000000000000000000000000000000000008152600401610cfb90612a30565b60405180910390fd5b60036000815480929190610d1790612690565b91905055506003546000803373ffffffffffffffffffffffffffffffffffffffff1673ffffffffffffffffffffffffffffffffffffffff168152602001908152602001600020819055506040518060a001604052806003548152602001848152602001838152602001828152602001600067ffffffffffffffff811115610da157610da0611fa1565b5b604051908082528060200260200182016040528015610dcf5781602001602082028036833780820191505090505b50815250600160006003548152602001908152602001600020600082015181600001556020820151816001019081610e079190612884565b506040820151816002019081610e1d9190612884565b506060820151816003019081610e339190612884565b506080820151816004019080519060200190610e50929190611b91565b50905050505050565b6001602052806000526040600020600091509050806000015490806001018054610e8290612601565b80601f0160208091040260200160405190810160405280929190818152602001828054610eae90612601565b8015610efb5780601f10610ed057610100808354040283529160200191610efb565b820191906000526020600020905b815481529060010190602001808311610ede57829003601f168201915b505050505090806002018054610f1090612601565b80601f0160208091040260200160405190810160405280929190818152602001828054610f3c90612601565b8015610f895780601f10610f5e57610100808354040283529160200191610f89565b820191906000526020600020905b815481529060010190602001808311610f6c57829003601f168201915b505050505090806003018054610f9e90612601565b80601f0160208091040260200160405190810160405280929190818152602001828054610fca90612601565b80156110175780601f10610fec57610100808354040283529160200191611017565b820191906000526020600020905b815481529060010190602001808311610ffa57829003601f168201915b5050505050905084565b606060008060003373ffffffffffffffffffffffffffffffffffffffff1673ffffffffffffffffffffffffffffffffffffffff168152602001908152602001600020549050600081036110a9576040517f08c379a00000000000000000000000000000000000000000000000000000000081526004016110a0906125b2565b60405180910390fd5b6001600082815260200190815260200160002060040180548060200260200160405190810160405280929190818152602001828054801561110957602002820191906000526020600020905b8154815260200190600101908083116110f5575b505050505091505090565b606060008060003373ffffffffffffffffffffffffffffffffffffffff1673ffffffffffffffffffffffffffffffffffffffff1681526020019081526020016000205490506000810361119c576040517f08c379a0000000000000000000000000000000000000000000000000000000008152600401611193906125b2565b60405180910390fd5b60026000828152602001908152602001600020805480602002602001604051908101604052809291908181526020016000905b8282101561130457838290600052602060002090600302016040518060600160405290816000820160009054906101000a900473ffffffffffffffffffffffffffffffffffffffff1673ffffffffffffffffffffffffffffffffffffffff1673ffffffffffffffffffffffffffffffffffffffff16815260200160018201805461125890612601565b80601f016020809104026020016040519081016040528092919081815260200182805461128490612601565b80156112d15780601f106112a6576101008083540402835291602001916112d1565b820191906000526020600020905b8154815290600101906020018083116112b457829003601f168201915b505050505081526020016002820160009054906101000a900460ff161515151581525050815260200190600101906111cf565b5050505091505090565b60006020528060005260406000206000915090505481565b60008060008473ffffffffffffffffffffffffffffffffffffffff1673ffffffffffffffffffffffffffffffffffffffff168152602001908152602001600020549050600081036113ac576040517f08c379a00000000000000000000000000000000000000000000000000000000081526004016113a3906125b2565b60405180910390fd5b600060026000838152602001908152602001600020905060005b818054905081101561151c573373ffffffffffffffffffffffffffffffffffffffff168282815481106113fc576113fb612632565b5b906000526020600020906003020160000160009054906101000a900473ffffffffffffffffffffffffffffffffffffffff1673ffffffffffffffffffffffffffffffffffffffff161480156114bf57508360405160200161145d9190612a8c565b6040516020818303038152906040528051906020012082828154811061148657611485612632565b5b90600052602060002090600302016001016040516020016114a79190612b26565b60405160208183030381529060405280519060200120145b156115095760018282815481106114d9576114d8612632565b5b906000526020600020906003020160020160006101000a81548160ff021916908315150217905550505050611558565b808061151490612690565b9150506113c6565b506040517f08c379a000000000000000000000000000000000000000000000000000000000815260040161154f90612b89565b60405180910390fd5b5050565b60606000600354905060008167ffffffffffffffff81111561158157611580611fa1565b5b6040519080825280602002602001820160405280156115ba57816020015b6115a7611b62565b81526020019060019003908161159f5790505b50905060005b8281101561183b57600160006001836115d99190612ba9565b81526020019081526020016000206040518060a00160405290816000820154815260200160018201805461160c90612601565b80601f016020809104026020016040519081016040528092919081815260200182805461163890612601565b80156116855780601f1061165a57610100808354040283529160200191611685565b820191906000526020600020905b81548152906001019060200180831161166857829003601f168201915b5050505050815260200160028201805461169e90612601565b80601f01602080910402602001604051908101604052809291908181526020018280546116ca90612601565b80156117175780601f106116ec57610100808354040283529160200191611717565b820191906000526020600020905b8154815290600101906020018083116116fa57829003601f168201915b5050505050815260200160038201805461173090612601565b80601f016020809104026020016040519081016040528092919081815260200182805461175c90612601565b80156117a95780601f1061177e576101008083540402835291602001916117a9565b820191906000526020600020905b81548152906001019060200180831161178c57829003601f168201915b505050505081526020016004820180548060200260200160405190810160405280929190818152602001828054801561180157602002820191906000526020600020905b8154815260200190600101908083116117ed575b50505050508152505082828151811061181d5761181c612632565b5b6020026020010181905250808061183390612690565b9150506115c0565b50809250505090565b6000806000803373ffffffffffffffffffffffffffffffffffffffff1673ffffffffffffffffffffffffffffffffffffffff168152602001908152602001600020549050600081036118cb576040517f08c379a00000000000000000000000000000000000000000000000000000000081526004016118c2906125b2565b60405180910390fd5b600060026000838152602001908152602001600020805480602002602001604051908101604052809291908181526020016000905b82821015611a3557838290600052602060002090600302016040518060600160405290816000820160009054906101000a900473ffffffffffffffffffffffffffffffffffffffff1673ffffffffffffffffffffffffffffffffffffffff1673ffffffffffffffffffffffffffffffffffffffff16815260200160018201805461198990612601565b80601f01602080910402602001604051908101604052809291908181526020018280546119b590612601565b8015611a025780601f106119d757610100808354040283529160200191611a02565b820191906000526020600020905b8154815290600101906020018083116119e557829003601f168201915b505050505081526020016002820160009054906101000a900460ff16151515158152505081526020019060010190611900565b50505050905060005b8151811015611b54578573ffffffffffffffffffffffffffffffffffffffff16828281518110611a7157611a70612632565b5b60200260200101516000015173ffffffffffffffffffffffffffffffffffffffff16148015611b09575084604051602001611aac9190612a8c565b60405160208183030381529060405280519060200120828281518110611ad557611ad4612632565b5b602002602001015160200151604051602001611af19190612a8c565b60405160208183030381529060405280519060200120145b8015611b305750818181518110611b2357611b22612632565b5b6020026020010151604001515b15611b415760019350505050611b5c565b8080611b4c90612690565b915050611a3e565b506000925050505b92915050565b6040518060a0016040528060008152602001606081526020016060815260200160608152602001606081525090565b828054828255906000526020600020908101928215611bcd579160200282015b82811115611bcc578251825591602001919060010190611bb1565b5b509050611bda9190611bde565b5090565b5b80821115611bf7576000816000905550600101611bdf565b5090565b600081519050919050565b600082825260208201905092915050565b6000819050602082019050919050565b6000819050919050565b611c3a81611c27565b82525050565b600081519050919050565b600082825260208201905092915050565b60005b83811015611c7a578082015181840152602081019050611c5f565b60008484015250505050565b6000601f19601f8301169050919050565b6000611ca282611c40565b611cac8185611c4b565b9350611cbc818560208601611c5c565b611cc581611c86565b840191505092915050565b600081519050919050565b600082825260208201905092915050565b6000819050602082019050919050565b6000611d088383611c31565b60208301905092915050565b6000602082019050919050565b6000611d2c82611cd0565b611d368185611cdb565b9350611d4183611cec565b8060005b83811015611d72578151611d598882611cfc565b9750611d6483611d14565b925050600181019050611d45565b5085935050505092915050565b600060a083016000830151611d976000860182611c31565b5060208301518482036020860152611daf8282611c97565b91505060408301518482036040860152611dc98282611c97565b91505060608301518482036060860152611de38282611c97565b91505060808301518482036080860152611dfd8282611d21565b9150508091505092915050565b6000611e168383611d7f565b905092915050565b6000602082019050919050565b6000611e3682611bfb565b611e408185611c06565b935083602082028501611e5285611c17565b8060005b85811015611e8e5784840389528151611e6f8582611e0a565b9450611e7a83611e1e565b925060208a01995050600181019050611e56565b50829750879550505050505092915050565b60006020820190508181036000830152611eba8184611e2b565b905092915050565b6000604051905090565b600080fd5b600080fd5b600073ffffffffffffffffffffffffffffffffffffffff82169050919050565b6000611f0182611ed6565b9050919050565b611f1181611ef6565b8114611f1c57600080fd5b50565b600081359050611f2e81611f08565b92915050565b600060208284031215611f4a57611f49611ecc565b5b6000611f5884828501611f1f565b91505092915050565b60008115159050919050565b611f7681611f61565b82525050565b6000602082019050611f916000830184611f6d565b92915050565b600080fd5b600080fd5b7f4e487b7100000000000000000000000000000000000000000000000000000000600052604160045260246000fd5b611fd982611c86565b810181811067ffffffffffffffff82111715611ff857611ff7611fa1565b5b80604052505050565b600061200b611ec2565b90506120178282611fd0565b919050565b600067ffffffffffffffff82111561203757612036611fa1565b5b61204082611c86565b9050602081019050919050565b82818337600083830152505050565b600061206f61206a8461201c565b612001565b90508281526020810184848401111561208b5761208a611f9c565b5b61209684828561204d565b509392505050565b600082601f8301126120b3576120b2611f97565b5b81356120c384826020860161205c565b91505092915050565b600080604083850312156120e3576120e2611ecc565b5b60006120f185828601611f1f565b925050602083013567ffffffffffffffff81111561211257612111611ed1565b5b61211e8582860161209e565b9150509250929050565b61213181611c27565b811461213c57600080fd5b50565b60008135905061214e81612128565b92915050565b6000806040838503121561216b5761216a611ecc565b5b60006121798582860161213f565b925050602061218a8582860161213f565b9150509250929050565b61219d81611ef6565b82525050565b600082825260208201905092915050565b60006121bf82611c40565b6121c981856121a3565b93506121d9818560208601611c5c565b6121e281611c86565b840191505092915050565b60006060820190506122026000830186612194565b818103602083015261221481856121b4565b90506122236040830184611f6d565b949350505050565b60006020828403121561224157612240611ecc565b5b600061224f8482850161213f565b91505092915050565b60008060006060848603121561227157612270611ecc565b5b600084013567ffffffffffffffff81111561228f5761228e611ed1565b5b61229b8682870161209e565b935050602084013567ffffffffffffffff8111156122bc576122bb611ed1565b5b6122c88682870161209e565b925050604084013567ffffffffffffffff8111156122e9576122e8611ed1565b5b6122f58682870161209e565b9150509250925092565b61230881611c27565b82525050565b600060808201905061232360008301876122ff565b818103602083015261233581866121b4565b9050818103604083015261234981856121b4565b9050818103606083015261235d81846121b4565b905095945050505050565b600082825260208201905092915050565b600061238482611cd0565b61238e8185612368565b935061239983611cec565b8060005b838110156123ca5781516123b18882611cfc565b97506123bc83611d14565b92505060018101905061239d565b5085935050505092915050565b600060208201905081810360008301526123f18184612379565b905092915050565b600081519050919050565b600082825260208201905092915050565b6000819050602082019050919050565b61242e81611ef6565b82525050565b61243d81611f61565b82525050565b600060608301600083015161245b6000860182612425565b50602083015184820360208601526124738282611c97565b91505060408301516124886040860182612434565b508091505092915050565b600061249f8383612443565b905092915050565b6000602082019050919050565b60006124bf826123f9565b6124c98185612404565b9350836020820285016124db85612415565b8060005b8581101561251757848403895281516124f88582612493565b9450612503836124a7565b925060208a019950506001810190506124df565b50829750879550505050505092915050565b6000602082019050818103600083015261254381846124b4565b905092915050565b600060208201905061256060008301846122ff565b92915050565b7f446f63746f72206e6f7420726567697374657265640000000000000000000000600082015250565b600061259c6015836121a3565b91506125a782612566565b602082019050919050565b600060208201905081810360008301526125cb8161258f565b9050919050565b7f4e487b7100000000000000000000000000000000000000000000000000000000600052602260045260246000fd5b6000600282049050600182168061261957607f821691505b60208210810361262c5761262b6125d2565b5b50919050565b7f4e487b7100000000000000000000000000000000000000000000000000000000600052603260045260246000fd5b7f4e487b7100000000000000000000000000000000000000000000000000000000600052601160045260246000fd5b600061269b82611c27565b91507fffffffffffffffffffffffffffffffffffffffffffffffffffffffffffffffff82036126cd576126cc612661565b5b600182019050919050565b60008190508160005260206000209050919050565b60006020601f8301049050919050565b600082821b905092915050565b60006008830261273a7fffffffffffffffffffffffffffffffffffffffffffffffffffffffffffffffff826126fd565b61274486836126fd565b95508019841693508086168417925050509392505050565b6000819050919050565b600061278161277c61277784611c27565b61275c565b611c27565b9050919050565b6000819050919050565b61279b83612766565b6127af6127a782612788565b84845461270a565b825550505050565b600090565b6127c46127b7565b6127cf818484612792565b505050565b5b818110156127f3576127e86000826127bc565b6001810190506127d5565b5050565b601f82111561283857612809816126d8565b612812846126ed565b81016020851015612821578190505b61283561282d856126ed565b8301826127d4565b50505b505050565b600082821c905092915050565b600061285b6000198460080261283d565b1980831691505092915050565b6000612874838361284a565b9150826002028217905092915050565b61288d82611c40565b67ffffffffffffffff8111156128a6576128a5611fa1565b5b6128b08254612601565b6128bb8282856127f7565b600060209050601f8311600181146128ee57600084156128dc578287015190505b6128e68582612868565b86555061294e565b601f1984166128fc866126d8565b60005b82811015612924578489015182556001820191506020850194506020810190506128ff565b86831015612941578489015161293d601f89168261284a565b8355505b6001600288020188555050505b505050505050565b6000602082019050818103600083015261297081846121b4565b905092915050565b7f50617469656e7420616c72656164792061646465640000000000000000000000600082015250565b60006129ae6015836121a3565b91506129b982612978565b602082019050919050565b600060208201905081810360008301526129dd816129a1565b9050919050565b7f446f63746f7220616c7265616479207265676973746572656400000000000000600082015250565b6000612a1a6019836121a3565b9150612a25826129e4565b602082019050919050565b60006020820190508181036000830152612a4981612a0d565b9050919050565b600081905092915050565b6000612a6682611c40565b612a708185612a50565b9350612a80818560208601611c5c565b80840191505092915050565b6000612a988284612a5b565b915081905092915050565b60008154612ab081612601565b612aba8186612a50565b94506001821660008114612ad55760018114612aea57612b1d565b60ff1983168652811515820286019350612b1d565b612af3856126d8565b60005b83811015612b1557815481890152600182019150602081019050612af6565b838801955050505b50505092915050565b6000612b328284612aa3565b915081905092915050565b7f4163636573732072657175657374206e6f7420666f756e640000000000000000600082015250565b6000612b736018836121a3565b9150612b7e82612b3d565b602082019050919050565b60006020820190508181036000830152612ba281612b66565b9050919050565b6000612bb482611c27565b9150612bbf83611c27565b9250828201905080821115612bd757612bd6612661565b5b9291505056fea264697066735822122006f0c831a5afd2dbed70ba9ead0fcd4217adb1a9f0cb2da2fc9d076ab9abb27764736f6c63430008130033",
  "immutableReferences": {},
  "source": "// SPDX-License-Identifier: MIT\r\npragma solidity ^0.8.19;\r\n\r\ncontract Doctor {\r\n    struct DoctorDetails {\r\n        uint256 doctorId;\r\n        string name;\r\n        string specialization;\r\n        string email;\r\n        uint256[] patientIds; // NEW: List of patients linked to this doctor\r\n    }\r\n\r\n    struct DocumentAccess {\r\n        address patient;\r\n        string ipfsHash;\r\n        bool hasAccess;\r\n    }\r\n\r\n    mapping(address => uint256) public walletToDoctorId;\r\n    mapping(uint256 => DoctorDetails) public doctors;\r\n    mapping(uint256 => DocumentAccess[]) public doctorAccessList;\r\n\r\n    uint256 private doctorIdCounter;\r\n\r\n    // --- EVENTS ---\r\n    event AccessRequested(\r\n        address indexed patient,\r\n        address indexed doctor,\r\n        string ipfsHash\r\n    );\r\n    event PatientAdded(\r\n        uint256 indexed doctorId,\r\n        uint256 indexed patientId,\r\n        address indexed doctor\r\n    );\r\n\r\n    // --- DOCTOR REGISTRATION ---\r\n    function registerDoctor(\r\n        string memory _name,\r\n        string memory _specialization,\r\n        string memory _email\r\n    ) public {\r\n        require(walletToDoctorId[msg.sender] == 0, \"Doctor already registered\");\r\n\r\n        doctorIdCounter++;\r\n        walletToDoctorId[msg.sender] = doctorIdCounter;\r\n\r\n        doctors[doctorIdCounter] = DoctorDetails({\r\n            doctorId: doctorIdCounter,\r\n            name: _name,\r\n            specialization: _specialization,\r\n            email: _email,\r\n            patientIds: new uint256[](0) // Initialize empty patient list\r\n        });\r\n    }\r\n\r\n    // --- ADD PATIENT TO DOCTOR ---\r\n    function addPatient(uint256 _patientId) public {\r\n        uint256 doctorId = walletToDoctorId[msg.sender];\r\n        require(doctorId != 0, \"Doctor not registered\");\r\n\r\n        // Optional: ensure no duplicate patient\r\n        uint256[] storage patients = doctors[doctorId].patientIds;\r\n        for (uint256 i = 0; i < patients.length; i++) {\r\n            if (patients[i] == _patientId) {\r\n                revert(\"Patient already added\");\r\n            }\r\n        }\r\n\r\n        doctors[doctorId].patientIds.push(_patientId);\r\n\r\n        emit PatientAdded(doctorId, _patientId, msg.sender);\r\n    }\r\n\r\n    // --- GET DOCTOR'S PATIENT LIST ---\r\n    function getDoctorPatients() public view returns (uint256[] memory) {\r\n        uint256 doctorId = walletToDoctorId[msg.sender];\r\n        require(doctorId != 0, \"Doctor not registered\");\r\n        return doctors[doctorId].patientIds;\r\n    }\r\n\r\n    // --- DOCUMENT ACCESS LOGIC ---\r\n    function hasAccessToDocument(\r\n        address _patient,\r\n        string memory _ipfsHash\r\n    ) public view returns (bool) {\r\n        uint256 doctorId = walletToDoctorId[msg.sender];\r\n        require(doctorId != 0, \"Doctor not registered\");\r\n\r\n        DocumentAccess[] memory accessList = doctorAccessList[doctorId];\r\n        for (uint256 i = 0; i < accessList.length; i++) {\r\n            if (\r\n                accessList[i].patient == _patient &&\r\n                keccak256(abi.encodePacked(accessList[i].ipfsHash)) ==\r\n                keccak256(abi.encodePacked(_ipfsHash)) &&\r\n                accessList[i].hasAccess\r\n            ) {\r\n                return true;\r\n            }\r\n        }\r\n        return false;\r\n    }\r\n\r\n    function requestAccess(address _patient, string memory _ipfsHash) public {\r\n        uint256 doctorId = walletToDoctorId[msg.sender];\r\n        require(doctorId != 0, \"Doctor not registered\");\r\n\r\n        doctorAccessList[doctorId].push(\r\n            DocumentAccess({\r\n                patient: _patient,\r\n                ipfsHash: _ipfsHash,\r\n                hasAccess: false\r\n            })\r\n        );\r\n\r\n        emit AccessRequested(_patient, msg.sender, _ipfsHash);\r\n    }\r\n\r\n    function grantAccess(address _doctor, string memory _ipfsHash) public {\r\n        uint256 doctorId = walletToDoctorId[_doctor];\r\n        require(doctorId != 0, \"Doctor not registered\");\r\n\r\n        DocumentAccess[] storage accessList = doctorAccessList[doctorId];\r\n        for (uint256 i = 0; i < accessList.length; i++) {\r\n            if (\r\n                accessList[i].patient == msg.sender &&\r\n                keccak256(abi.encodePacked(accessList[i].ipfsHash)) ==\r\n                keccak256(abi.encodePacked(_ipfsHash))\r\n            ) {\r\n                accessList[i].hasAccess = true;\r\n                return;\r\n            }\r\n        }\r\n        revert(\"Access request not found\");\r\n    }\r\n\r\n    // --- GETTERS ---\r\n    function getAccessList() public view returns (DocumentAccess[] memory) {\r\n        uint256 doctorId = walletToDoctorId[msg.sender];\r\n        require(doctorId != 0, \"Doctor not registered\");\r\n        return doctorAccessList[doctorId];\r\n    }\r\n\r\n    function getPatients() public view returns (DoctorDetails[] memory) {\r\n        uint256 doctorId = walletToDoctorId[msg.sender];\r\n        require(doctorId != 0, \"Doctor not registered\");\r\n\r\n        DocumentAccess[] memory accessList = doctorAccessList[doctorId];\r\n        DoctorDetails[] memory patients = new DoctorDetails[](\r\n            accessList.length\r\n        );\r\n        uint256 count = 0;\r\n\r\n        for (uint256 i = 0; i < accessList.length; i++) {\r\n            if (accessList[i].hasAccess) {\r\n                patients[count] = doctors[doctorId];\r\n                count++;\r\n            }\r\n        }\r\n\r\n        return patients;\r\n    }\r\n\r\n    function doctorExists(address walletAddress) public view returns (bool) {\r\n        return walletToDoctorId[walletAddress] != 0;\r\n    }\r\n\r\n    function getAllDoctors() public view returns (DoctorDetails[] memory) {\r\n        uint256 total = doctorIdCounter;\r\n        DoctorDetails[] memory list = new DoctorDetails[](total);\r\n\r\n        for (uint256 i = 0; i < total; i++) {\r\n            list[i] = doctors[i + 1];\r\n        }\r\n\r\n        return list;\r\n    }\r\n}\r\n",
  "sourcePath": "J:\\Users\\ayush\\Desktop\\code\\team-rocket-medi-secure\\contracts\\contracts\\Doctor.sol",
  "compiler": {
    "name": "solc",
    "version": "0.8.19+commit.7dd6d404.Emscripten.clang"
  },
  "schemaVersion": "3.4.16",
  "updatedAt": "2026-01-17T12:02:32.754Z",
  "networkType": "ethereum",
  "devdoc": {
    "kind": "dev",
    "methods": {},
    "version": 1
  },
  "userdoc": {
    "kind": "user",
    "methods": {},
    "version": 1
  }
}