{
  "contractName": "Doctor",
  "abi": [
    {
      "anonymous": false,
      "inputs": [
        {
          "indexed": true,
          "internalType": "address",
          "name": "patient",
          "type": "address"
        },
        {
          "indexed": true,
          "internalType": "address",
          "name": "doctor",
          "type": "address"
        },
        {
          "indexed": false,
          "internalType": "string",
          "name": "ipfsHash",
          "type": "string"
        },
        {
          "indexed": false,
          "internalType": "string",
          "name": "fileName",
          "type": "string"
        }
      ],
      "name": "AccessRequested",
      "type": "event"
    },
    {
      "anonymous": false,
      "inputs": [
        {
          "indexed": true,
          "internalType": "uint256",
          "name": "doctorId",
          "type": "uint256"
        },
        {
          "indexed": true,
          "internalType": "uint256",
          "name": "patientId",
          "type": "uint256"
        },
        {
          "indexed": true,
          "internalType": "address",
          "name": "doctor",
          "type": "address"
        }
      ],
      "name": "PatientAdded",
      "type": "event"
    },
    {
      "inputs": [
        {
          "internalType": "uint256",
          "name": "",
          "type": "uint256"
        },
        {
          "internalType": "uint256",
          "name": "",
          "type": "uint256"
        }
      ],
      "name": "doctorAccessList",
      "outputs": [
        {
          "internalType": "address",
          "name": "patient",
          "type": "address"
        },
        {
          "internalType": "string",
          "name": "ipfsHash",
          "type": "string"
        },
        {
          "internalType": "string",
          "name": "fileName",
          "type": "string"
        },
        {
          "internalType": "bool",
          "name": "hasAccess",
          "type": "bool"
        }
      ],
      "stateMutability": "view",
      "type": "function",
      "constant": true
    },
    {
      "inputs": [
        {
          "internalType": "uint256",
          "name": "",
          "type": "uint256"
        }
      ],
      "name": "doctors",
      "outputs": [
        {
          "internalType": "uint256",
          "name": "doctorId",
          "type": "uint256"
        },
        {
          "internalType": "string",
          "name": "name",
          "type": "string"
        },
        {
          "internalType": "string",
          "name": "specialization",
          "type": "string"
        },
        {
          "internalType": "string",
          "name": "email",
          "type": "string"
        }
      ],
      "stateMutability": "view",
      "type": "function",
      "constant": true
    },
    {
      "inputs": [
        {
          "internalType": "address",
          "name": "",
          "type": "address"
        }
      ],
      "name": "walletToDoctorId",
      "outputs": [
        {
          "internalType": "uint256",
          "name": "",
          "type": "uint256"
        }
      ],
      "stateMutability": "view",
      "type": "function",
      "constant": true
    },
    {
      "inputs": [
        {
          "internalType": "string",
          "name": "_name",
          "type": "string"
        },
        {
          "internalType": "string",
          "name": "_specialization",
          "type": "string"
        },
        {
          "internalType": "string",
          "name": "_hospital",
          "type": "string"
        }
      ],
      "name": "registerDoctor",
      "outputs": [],
      "stateMutability": "nonpayable",
      "type": "function"
    },
    {
      "inputs": [
        {
          "internalType": "uint256",
          "name": "_patientId",
          "type": "uint256"
        }
      ],
      "name": "addPatient",
      "outputs": [],
      "stateMutability": "nonpayable",
      "type": "function"
    },
    {
      "inputs": [],
      "name": "getDoctorPatients",
      "outputs": [
        {
          "internalType": "uint256[]",
          "name": "",
          "type": "uint256[]"
        }
      ],
      "stateMutability": "view",
      "type": "function",
      "constant": true
    },
    {
      "inputs": [
        {
          "internalType": "address",
          "name": "_patient",
          "type": "address"
        },
        {
          "internalType": "string",
          "name": "_ipfsHash",
          "type": "string"
        }
      ],
      "name": "hasAccessToDocument",
      "outputs": [
        {
          "internalType": "bool",
          "name": "",
          "type": "bool"
        }
      ],
      "stateMutability": "view",
      "type": "function",
      "constant": true
    },
    {
      "inputs": [
        {
          "internalType": "address",
          "name": "_patient",
          "type": "address"
        },
        {
          "internalType": "string",
          "name": "_ipfsHash",
          "type": "string"
        },
        {
          "internalType": "string",
          "name": "_fileName",
          "type": "string"
        }
      ],
      "name": "requestAccess",
      "outputs": [],
      "stateMutability": "nonpayable",
      "type": "function"
    },
    {
      "inputs": [
        {
          "internalType": "address",
          "name": "_doctor",
          "type": "address"
        },
        {
          "internalType": "string",
          "name": "_ipfsHash",
          "type": "string"
        }
      ],
      "name": "grantAccess",
      "outputs": [],
      "stateMutability": "nonpayable",
      "type": "function"
    },
    {
      "inputs": [],
      "name": "getAccessList",
      "outputs": [
        {
          "components": [
            {
              "internalType": "address",
              "name": "patient",
              "type": "address"
            },
            {
              "internalType": "string",
              "name": "ipfsHash",
              "type": "string"
            },
            {
              "internalType": "string",
              "name": "fileName",
              "type": "string"
            },
            {
              "internalType": "bool",
              "name": "hasAccess",
              "type": "bool"
            }
          ],
          "internalType": "struct Doctor.DocumentAccess[]",
          "name": "",
          "type": "tuple[]"
        }
      ],
      "stateMutability": "view",
      "type": "function",
      "constant": true
    },
    {
      "inputs": [],
      "name": "getPatients",
      "outputs": [
        {
          "components": [
            {
              "internalType": "uint256",
              "name": "doctorId",
              "type": "uint256"
            },
            {
              "internalType": "string",
              "name": "name",
              "type": "string"
            },
            {
              "internalType": "string",
              "name": "specialization",
              "type": "string"
            },
            {
              "internalType": "string",
              "name": "email",
              "type": "string"
            },
            {
              "internalType": "uint256[]",
              "name": "patientIds",
              "type": "uint256[]"
            }
          ],
          "internalType": "struct Doctor.DoctorDetails[]",
          "name": "",
          "type": "tuple[]"
        }
      ],
      "stateMutability": "view",
      "type": "function",
      "constant": true
    },
    {
      "inputs": [
        {
          "internalType": "address",
          "name": "walletAddress",
          "type": "address"
        }
      ],
      "name": "doctorExists",
      "outputs": [
        {
          "internalType": "bool",
          "name": "",
          "type": "bool"
        }
      ],
      "stateMutability": "view",
      "type": "function",
      "constant": true
    },
    {
      "inputs": [],
      "name": "getAllDoctors",
      "outputs": [
        {
          "components": [
            {
              "internalType": "uint256",
              "name": "doctorId",
              "type": "uint256"
            },
            {
              "internalType": "string",
              "name": "name",
              "type": "string"
            },
            {
              "internalType": "string",
              "name": "specialization",
              "type": "string"
            },
            {
              "internalType": "string",
              "name": "email",
              "type": "string"
            },
            {
              "internalType": "uint256[]",
              "name": "patientIds",
              "type": "uint256[]"
            }
          ],
          "internalType": "struct Doctor.DoctorDetails[]",
          "name": "",
          "type": "tuple[]"
        }
      ],
      "stateMutability": "view",
      "type": "function",
      "constant": true
    }
  ],
  "bytecode": "0x608060405234801561001057600080fd5b50612e64806100206000396000f3fe608060405234801561001057600080fd5b50600436106100cf5760003560e01c80638b145ec81161008c578063a7e2981411610066578063a7e298141461022c578063e50fe48e14610248578063f0d9509014610264578063f6827cd114610282576100cf565b80638b145ec8146101c05780638d5ddbb3146101de57806398cf72b3146101fc576100cf565b806312ad1c37146100d45780632ad230a9146100f257806333948de214610122578063506e08d21461015557806350c7a912146101715780636efb1b841461018d575b600080fd5b6100dc6102b2565b6040516100e99190612022565b60405180910390f35b61010c600480360381019061010791906120b6565b610847565b60405161011991906120fe565b60405180910390f35b61013c60048036038101906101379190612145565b610892565b60405161014c94939291906121de565b60405180910390f35b61016f600480360381019061016a9190612231565b610a1c565b005b61018b60048036038101906101869190612393565b610be5565b005b6101a760048036038101906101a29190612231565b610d23565b6040516101b79493929190612449565b60405180910390f35b6101c8610eeb565b6040516101d59190612512565b60405180910390f35b6101e6610fde565b6040516101f3919061267e565b60405180910390f35b610216600480360381019061021191906120b6565b61126a565b60405161022391906126a0565b60405180910390f35b610246600480360381019061024191906126bb565b611282565b005b610262600480360381019061025d9190612746565b611480565b005b61026c6116b6565b6040516102799190612022565b60405180910390f35b61029c60048036038101906102979190612746565b61199e565b6040516102a991906120fe565b60405180910390f35b606060008060003373ffffffffffffffffffffffffffffffffffffffff1673ffffffffffffffffffffffffffffffffffffffff1681526020019081526020016000205490506000810361033a576040517f08c379a0000000000000000000000000000000000000000000000000000000008152600401610331906127ee565b60405180910390fd5b600060026000838152602001908152602001600020805480602002602001604051908101604052809291908181526020016000905b8282101561053657838290600052602060002090600402016040518060800160405290816000820160009054906101000a900473ffffffffffffffffffffffffffffffffffffffff1673ffffffffffffffffffffffffffffffffffffffff1673ffffffffffffffffffffffffffffffffffffffff1681526020016001820180546103f89061283d565b80601f01602080910402602001604051908101604052809291908181526020018280546104249061283d565b80156104715780601f1061044657610100808354040283529160200191610471565b820191906000526020600020905b81548152906001019060200180831161045457829003601f168201915b5050505050815260200160028201805461048a9061283d565b80601f01602080910402602001604051908101604052809291908181526020018280546104b69061283d565b80156105035780601f106104d857610100808354040283529160200191610503565b820191906000526020600020905b8154815290600101906020018083116104e657829003601f168201915b505050505081526020016003820160009054906101000a900460ff1615151515815250508152602001906001019061036f565b5050505090506000815167ffffffffffffffff81111561055957610558612268565b5b60405190808252806020026020018201604052801561059257816020015b61057f611d4e565b8152602001906001900390816105775790505b5090506000805b835181101561083c578381815181106105b5576105b461286e565b5b6020026020010151606001511561082957600160008681526020019081526020016000206040518060a0016040529081600082015481526020016001820180546105fe9061283d565b80601f016020809104026020016040519081016040528092919081815260200182805461062a9061283d565b80156106775780601f1061064c57610100808354040283529160200191610677565b820191906000526020600020905b81548152906001019060200180831161065a57829003601f168201915b505050505081526020016002820180546106909061283d565b80601f01602080910402602001604051908101604052809291908181526020018280546106bc9061283d565b80156107095780601f106106de57610100808354040283529160200191610709565b820191906000526020600020905b8154815290600101906020018083116106ec57829003601f168201915b505050505081526020016003820180546107229061283d565b80601f016020809104026020016040519081016040528092919081815260200182805461074e9061283d565b801561079b5780601f106107705761010080835404028352916020019161079b565b820191906000526020600020905b81548152906001019060200180831161077e57829003601f168201915b50505050508152602001600482018054806020026020016040519081016040528092919081815260200182805480156107f357602002820191906000526020600020905b8154815260200190600101908083116107df575b50505050508152505083838151811061080f5761080e61286e565b5b60200260200101819052508180610825906128cc565b9250505b8080610834906128cc565b915050610599565b508194505050505090565b6000806000808473ffffffffffffffffffffffffffffffffffffffff1673ffffffffffffffffffffffffffffffffffffffff1681526020019081526020016000205414159050919050565b600260205281600052604060002081815481106108ae57600080fd5b9060005260206000209060040201600091509150508060000160009054906101000a900473ffffffffffffffffffffffffffffffffffffffff16908060010180546108f89061283d565b80601f01602080910402602001604051908101604052809291908181526020018280546109249061283d565b80156109715780601f1061094657610100808354040283529160200191610971565b820191906000526020600020905b81548152906001019060200180831161095457829003601f168201915b5050505050908060020180546109869061283d565b80601f01602080910402602001604051908101604052809291908181526020018280546109b29061283d565b80156109ff5780601f106109d4576101008083540402835291602001916109ff565b820191906000526020600020905b8154815290600101906020018083116109e257829003601f168201915b5050505050908060030160009054906101000a900460ff16905084565b60008060003373ffffffffffffffffffffffffffffffffffffffff1673ffffffffffffffffffffffffffffffffffffffff16815260200190815260200160002054905060008103610aa2576040517f08c379a0000000000000000000000000000000000000000000000000000000008152600401610a99906127ee565b60405180910390fd5b6000805b6001600084815260200190815260200160002060040180549050811015610b1c5783600160008581526020019081526020016000206004018281548110610af057610aef61286e565b5b906000526020600020015403610b095760019150610b1c565b8080610b14906128cc565b915050610aa6565b508015610b5e576040517f08c379a0000000000000000000000000000000000000000000000000000000008152600401610b5590612960565b60405180910390fd5b600160008381526020019081526020016000206004018390806001815401808255809150506001900390600052602060002001600090919091909150553373ffffffffffffffffffffffffffffffffffffffff1683837f62e4da5e5c3a89b6dca6a385b8712c06f51bf0855ae5b6abd14937474a4ce01e60405160405180910390a4505050565b60008060003373ffffffffffffffffffffffffffffffffffffffff1673ffffffffffffffffffffffffffffffffffffffff1681526020019081526020016000205414610c66576040517f08c379a0000000000000000000000000000000000000000000000000000000008152600401610c5d906129cc565b60405180910390fd5b60036000815480929190610c79906128cc565b91905055506003546000803373ffffffffffffffffffffffffffffffffffffffff1673ffffffffffffffffffffffffffffffffffffffff1681526020019081526020016000208190555060006001600060035481526020019081526020016000209050600354816000018190555083816001019081610cf89190612b98565b5082816002019081610d0a9190612b98565b5081816003019081610d1c9190612b98565b5050505050565b6001602052806000526040600020600091509050806000015490806001018054610d4c9061283d565b80601f0160208091040260200160405190810160405280929190818152602001828054610d789061283d565b8015610dc55780601f10610d9a57610100808354040283529160200191610dc5565b820191906000526020600020905b815481529060010190602001808311610da857829003601f168201915b505050505090806002018054610dda9061283d565b80601f0160208091040260200160405190810160405280929190818152602001828054610e069061283d565b8015610e535780601f10610e2857610100808354040283529160200191610e53565b820191906000526020600020905b815481529060010190602001808311610e3657829003601f168201915b505050505090806003018054610e689061283d565b80601f0160208091040260200160405190810160405280929190818152602001828054610e949061283d565b8015610ee15780601f10610eb657610100808354040283529160200191610ee1565b820191906000526020600020905b815481529060010190602001808311610ec457829003601f168201915b5050505050905084565b606060008060003373ffffffffffffffffffffffffffffffffffffffff1673ffffffffffffffffffffffffffffffffffffffff16815260200190815260200160002054905060008103610f73576040517f08c379a0000000000000000000000000000000000000000000000000000000008152600401610f6a906127ee565b60405180910390fd5b60016000828152602001908152602001600020600401805480602002602001604051908101604052809291908181526020018280548015610fd357602002820191906000526020600020905b815481526020019060010190808311610fbf575b505050505091505090565b606060008060003373ffffffffffffffffffffffffffffffffffffffff1673ffffffffffffffffffffffffffffffffffffffff16815260200190815260200160002054905060008103611066576040517f08c379a000000000000000000000000000000000000000000000000000000000815260040161105d906127ee565b60405180910390fd5b60026000828152602001908152602001600020805480602002602001604051908101604052809291908181526020016000905b8282101561126057838290600052602060002090600402016040518060800160405290816000820160009054906101000a900473ffffffffffffffffffffffffffffffffffffffff1673ffffffffffffffffffffffffffffffffffffffff1673ffffffffffffffffffffffffffffffffffffffff1681526020016001820180546111229061283d565b80601f016020809104026020016040519081016040528092919081815260200182805461114e9061283d565b801561119b5780601f106111705761010080835404028352916020019161119b565b820191906000526020600020905b81548152906001019060200180831161117e57829003601f168201915b505050505081526020016002820180546111b49061283d565b80601f01602080910402602001604051908101604052809291908181526020018280546111e09061283d565b801561122d5780601f106112025761010080835404028352916020019161122d565b820191906000526020600020905b81548152906001019060200180831161121057829003601f168201915b505050505081526020016003820160009054906101000a900460ff16151515158152505081526020019060010190611099565b5050505091505090565b60006020528060005260406000206000915090505481565b60008060003373ffffffffffffffffffffffffffffffffffffffff1673ffffffffffffffffffffffffffffffffffffffff16815260200190815260200160002054905060008103611308576040517f08c379a00000000000000000000000000000000000000000000000000000000081526004016112ff906127ee565b60405180910390fd5b6002600082815260200190815260200160002060405180608001604052808673ffffffffffffffffffffffffffffffffffffffff16815260200185815260200184815260200160001515815250908060018154018082558091505060019003906000526020600020906004020160009091909190915060008201518160000160006101000a81548173ffffffffffffffffffffffffffffffffffffffff021916908373ffffffffffffffffffffffffffffffffffffffff16021790555060208201518160010190816113da9190612b98565b5060408201518160020190816113f09190612b98565b5060608201518160030160006101000a81548160ff02191690831515021790555050503373ffffffffffffffffffffffffffffffffffffffff168473ffffffffffffffffffffffffffffffffffffffff167f37ddc6a8e723b72e570d0ba8a3d7e57d75e8dc646011431329544104be02e0028585604051611472929190612c6a565b60405180910390a350505050565b60008060008473ffffffffffffffffffffffffffffffffffffffff1673ffffffffffffffffffffffffffffffffffffffff16815260200190815260200160002054905060008103611506576040517f08c379a00000000000000000000000000000000000000000000000000000000081526004016114fd906127ee565b60405180910390fd5b600060026000838152602001908152602001600020905060005b8180549050811015611676573373ffffffffffffffffffffffffffffffffffffffff168282815481106115565761155561286e565b5b906000526020600020906004020160000160009054906101000a900473ffffffffffffffffffffffffffffffffffffffff1673ffffffffffffffffffffffffffffffffffffffff161480156116195750836040516020016115b79190612cdd565b604051602081830303815290604052805190602001208282815481106115e0576115df61286e565b5b90600052602060002090600402016001016040516020016116019190612d77565b60405160208183030381529060405280519060200120145b156116635760018282815481106116335761163261286e565b5b906000526020600020906004020160030160006101000a81548160ff0219169083151502179055505050506116b2565b808061166e906128cc565b915050611520565b506040517f08c379a00000000000000000000000000000000000000000000000000000000081526004016116a990612dda565b60405180910390fd5b5050565b60606000600354905060008167ffffffffffffffff8111156116db576116da612268565b5b60405190808252806020026020018201604052801561171457816020015b611701611d4e565b8152602001906001900390816116f95790505b50905060005b8281101561199557600160006001836117339190612dfa565b81526020019081526020016000206040518060a0016040529081600082015481526020016001820180546117669061283d565b80601f01602080910402602001604051908101604052809291908181526020018280546117929061283d565b80156117df5780601f106117b4576101008083540402835291602001916117df565b820191906000526020600020905b8154815290600101906020018083116117c257829003601f168201915b505050505081526020016002820180546117f89061283d565b80601f01602080910402602001604051908101604052809291908181526020018280546118249061283d565b80156118715780601f1061184657610100808354040283529160200191611871565b820191906000526020600020905b81548152906001019060200180831161185457829003601f168201915b5050505050815260200160038201805461188a9061283d565b80601f01602080910402602001604051908101604052809291908181526020018280546118b69061283d565b80156119035780601f106118d857610100808354040283529160200191611903565b820191906000526020600020905b8154815290600101906020018083116118e657829003601f168201915b505050505081526020016004820180548060200260200160405190810160405280929190818152602001828054801561195b57602002820191906000526020600020905b815481526020019060010190808311611947575b5050505050815250508282815181106119775761197661286e565b5b6020026020010181905250808061198d906128cc565b91505061171a565b50809250505090565b6000806000803373ffffffffffffffffffffffffffffffffffffffff1673ffffffffffffffffffffffffffffffffffffffff16815260200190815260200160002054905060008103611a25576040517f08c379a0000000000000000000000000000000000000000000000000000000008152600401611a1c906127ee565b60405180910390fd5b600060026000838152602001908152602001600020805480602002602001604051908101604052809291908181526020016000905b82821015611c2157838290600052602060002090600402016040518060800160405290816000820160009054906101000a900473ffffffffffffffffffffffffffffffffffffffff1673ffffffffffffffffffffffffffffffffffffffff1673ffffffffffffffffffffffffffffffffffffffff168152602001600182018054611ae39061283d565b80601f0160208091040260200160405190810160405280929190818152602001828054611b0f9061283d565b8015611b5c5780601f10611b3157610100808354040283529160200191611b5c565b820191906000526020600020905b815481529060010190602001808311611b3f57829003601f168201915b50505050508152602001600282018054611b759061283d565b80601f0160208091040260200160405190810160405280929190818152602001828054611ba19061283d565b8015611bee5780601f10611bc357610100808354040283529160200191611bee565b820191906000526020600020905b815481529060010190602001808311611bd157829003601f168201915b505050505081526020016003820160009054906101000a900460ff16151515158152505081526020019060010190611a5a565b50505050905060005b8151811015611d40578573ffffffffffffffffffffffffffffffffffffffff16828281518110611c5d57611c5c61286e565b5b60200260200101516000015173ffffffffffffffffffffffffffffffffffffffff16148015611cf5575084604051602001611c989190612cdd565b60405160208183030381529060405280519060200120828281518110611cc157611cc061286e565b5b602002602001015160200151604051602001611cdd9190612cdd565b60405160208183030381529060405280519060200120145b8015611d1c5750818181518110611d0f57611d0e61286e565b5b6020026020010151606001515b15611d2d5760019350505050611d48565b8080611d38906128cc565b915050611c2a565b506000925050505b92915050565b6040518060a0016040528060008152602001606081526020016060815260200160608152602001606081525090565b600081519050919050565b600082825260208201905092915050565b6000819050602082019050919050565b6000819050919050565b611dbc81611da9565b82525050565b600081519050919050565b600082825260208201905092915050565b60005b83811015611dfc578082015181840152602081019050611de1565b60008484015250505050565b6000601f19601f8301169050919050565b6000611e2482611dc2565b611e2e8185611dcd565b9350611e3e818560208601611dde565b611e4781611e08565b840191505092915050565b600081519050919050565b600082825260208201905092915050565b6000819050602082019050919050565b6000611e8a8383611db3565b60208301905092915050565b6000602082019050919050565b6000611eae82611e52565b611eb88185611e5d565b9350611ec383611e6e565b8060005b83811015611ef4578151611edb8882611e7e565b9750611ee683611e96565b925050600181019050611ec7565b5085935050505092915050565b600060a083016000830151611f196000860182611db3565b5060208301518482036020860152611f318282611e19565b91505060408301518482036040860152611f4b8282611e19565b91505060608301518482036060860152611f658282611e19565b91505060808301518482036080860152611f7f8282611ea3565b9150508091505092915050565b6000611f988383611f01565b905092915050565b6000602082019050919050565b6000611fb882611d7d565b611fc28185611d88565b935083602082028501611fd485611d99565b8060005b858110156120105784840389528151611ff18582611f8c565b9450611ffc83611fa0565b925060208a01995050600181019050611fd8565b50829750879550505050505092915050565b6000602082019050818103600083015261203c8184611fad565b905092915050565b6000604051905090565b600080fd5b600080fd5b600073ffffffffffffffffffffffffffffffffffffffff82169050919050565b600061208382612058565b9050919050565b61209381612078565b811461209e57600080fd5b50565b6000813590506120b08161208a565b92915050565b6000602082840312156120cc576120cb61204e565b5b60006120da848285016120a1565b91505092915050565b60008115159050919050565b6120f8816120e3565b82525050565b600060208201905061211360008301846120ef565b92915050565b61212281611da9565b811461212d57600080fd5b50565b60008135905061213f81612119565b92915050565b6000806040838503121561215c5761215b61204e565b5b600061216a85828601612130565b925050602061217b85828601612130565b9150509250929050565b61218e81612078565b82525050565b600082825260208201905092915050565b60006121b082611dc2565b6121ba8185612194565b93506121ca818560208601611dde565b6121d381611e08565b840191505092915050565b60006080820190506121f36000830187612185565b818103602083015261220581866121a5565b9050818103604083015261221981856121a5565b905061222860608301846120ef565b95945050505050565b6000602082840312156122475761224661204e565b5b600061225584828501612130565b91505092915050565b600080fd5b600080fd5b7f4e487b7100000000000000000000000000000000000000000000000000000000600052604160045260246000fd5b6122a082611e08565b810181811067ffffffffffffffff821117156122bf576122be612268565b5b80604052505050565b60006122d2612044565b90506122de8282612297565b919050565b600067ffffffffffffffff8211156122fe576122fd612268565b5b61230782611e08565b9050602081019050919050565b82818337600083830152505050565b6000612336612331846122e3565b6122c8565b90508281526020810184848401111561235257612351612263565b5b61235d848285612314565b509392505050565b600082601f83011261237a5761237961225e565b5b813561238a848260208601612323565b91505092915050565b6000806000606084860312156123ac576123ab61204e565b5b600084013567ffffffffffffffff8111156123ca576123c9612053565b5b6123d686828701612365565b935050602084013567ffffffffffffffff8111156123f7576123f6612053565b5b61240386828701612365565b925050604084013567ffffffffffffffff81111561242457612423612053565b5b61243086828701612365565b9150509250925092565b61244381611da9565b82525050565b600060808201905061245e600083018761243a565b818103602083015261247081866121a5565b9050818103604083015261248481856121a5565b9050818103606083015261249881846121a5565b905095945050505050565b600082825260208201905092915050565b60006124bf82611e52565b6124c981856124a3565b93506124d483611e6e565b8060005b838110156125055781516124ec8882611e7e565b97506124f783611e96565b9250506001810190506124d8565b5085935050505092915050565b6000602082019050818103600083015261252c81846124b4565b905092915050565b600081519050919050565b600082825260208201905092915050565b6000819050602082019050919050565b61256981612078565b82525050565b612578816120e3565b82525050565b60006080830160008301516125966000860182612560565b50602083015184820360208601526125ae8282611e19565b915050604083015184820360408601526125c88282611e19565b91505060608301516125dd606086018261256f565b508091505092915050565b60006125f4838361257e565b905092915050565b6000602082019050919050565b600061261482612534565b61261e818561253f565b93508360208202850161263085612550565b8060005b8581101561266c578484038952815161264d85826125e8565b9450612658836125fc565b925060208a01995050600181019050612634565b50829750879550505050505092915050565b600060208201905081810360008301526126988184612609565b905092915050565b60006020820190506126b5600083018461243a565b92915050565b6000806000606084860312156126d4576126d361204e565b5b60006126e2868287016120a1565b935050602084013567ffffffffffffffff81111561270357612702612053565b5b61270f86828701612365565b925050604084013567ffffffffffffffff8111156127305761272f612053565b5b61273c86828701612365565b9150509250925092565b6000806040838503121561275d5761275c61204e565b5b600061276b858286016120a1565b925050602083013567ffffffffffffffff81111561278c5761278b612053565b5b61279885828601612365565b9150509250929050565b7f446f63746f72206e6f7420726567697374657265640000000000000000000000600082015250565b60006127d8601583612194565b91506127e3826127a2565b602082019050919050565b60006020820190508181036000830152612807816127cb565b9050919050565b7f4e487b7100000000000000000000000000000000000000000000000000000000600052602260045260246000fd5b6000600282049050600182168061285557607f821691505b6020821081036128685761286761280e565b5b50919050565b7f4e487b7100000000000000000000000000000000000000000000000000000000600052603260045260246000fd5b7f4e487b7100000000000000000000000000000000000000000000000000000000600052601160045260246000fd5b60006128d782611da9565b91507fffffffffffffffffffffffffffffffffffffffffffffffffffffffffffffffff82036129095761290861289d565b5b600182019050919050565b7f50617469656e7420616c72656164792061646465640000000000000000000000600082015250565b600061294a601583612194565b915061295582612914565b602082019050919050565b600060208201905081810360008301526129798161293d565b9050919050565b7f446f63746f7220616c7265616479207265676973746572656400000000000000600082015250565b60006129b6601983612194565b91506129c182612980565b602082019050919050565b600060208201905081810360008301526129e5816129a9565b9050919050565b60008190508160005260206000209050919050565b60006020601f8301049050919050565b600082821b905092915050565b600060088302612a4e7fffffffffffffffffffffffffffffffffffffffffffffffffffffffffffffffff82612a11565b612a588683612a11565b95508019841693508086168417925050509392505050565b6000819050919050565b6000612a95612a90612a8b84611da9565b612a70565b611da9565b9050919050565b6000819050919050565b612aaf83612a7a565b612ac3612abb82612a9c565b848454612a1e565b825550505050565b600090565b612ad8612acb565b612ae3818484612aa6565b505050565b5b81811015612b0757612afc600082612ad0565b600181019050612ae9565b5050565b601f821115612b4c57612b1d816129ec565b612b2684612a01565b81016020851015612b35578190505b612b49612b4185612a01565b830182612ae8565b50505b505050565b600082821c905092915050565b6000612b6f60001984600802612b51565b1980831691505092915050565b6000612b888383612b5e565b9150826002028217905092915050565b612ba182611dc2565b67ffffffffffffffff811115612bba57612bb9612268565b5b612bc4825461283d565b612bcf828285612b0b565b600060209050601f831160018114612c025760008415612bf0578287015190505b612bfa8582612b7c565b865550612c62565b601f198416612c10866129ec565b60005b82811015612c3857848901518255600182019150602085019450602081019050612c13565b86831015612c555784890151612c51601f891682612b5e565b8355505b6001600288020188555050505b505050505050565b60006040820190508181036000830152612c8481856121a5565b90508181036020830152612c9881846121a5565b90509392505050565b600081905092915050565b6000612cb782611dc2565b612cc18185612ca1565b9350612cd1818560208601611dde565b80840191505092915050565b6000612ce98284612cac565b915081905092915050565b60008154612d018161283d565b612d0b8186612ca1565b94506001821660008114612d265760018114612d3b57612d6e565b60ff1983168652811515820286019350612d6e565b612d44856129ec565b60005b83811015612d6657815481890152600182019150602081019050612d47565b838801955050505b50505092915050565b6000612d838284612cf4565b915081905092915050565b7f4163636573732072657175657374206e6f7420666f756e640000000000000000600082015250565b6000612dc4601883612194565b9150612dcf82612d8e565b602082019050919050565b60006020820190508181036000830152612df381612db7565b9050919050565b6000612e0582611da9565b9150612e1083611da9565b9250828201905080821115612e2857612e2761289d565b5b9291505056fea26469706673582212206ed6521d2e591f23b998cba8319e081ca493497b0d50d5e0d08925f1412b435464736f6c63430008130033",
  "immutableReferences": {},
  "source": "// SPDX-License-Identifier: MIT\r\npragma solidity ^0.8.19;\r\n\r\ncontract Doctor {\r\n    struct DoctorDetails {\r\n        uint256 doctorId;\r\n        string name;\r\n        string specialization;\r\n        string email;\r\n        uint256[] patientIds; // NEW: List of patients linked to this doctor\r\n    }\r\n\r\n    struct DocumentAccess {\r\n        address patient;\r\n        string ipfsHash;\r\n        string fileName; // Added fileName\r\n        bool hasAccess;\r\n    }\r\n\r\n    mapping(address => uint256) public walletToDoctorId;\r\n    mapping(uint256 => DoctorDetails) public doctors;\r\n    mapping(uint256 => DocumentAccess[]) public doctorAccessList;\r\n\r\n    uint256 private doctorIdCounter;\r\n\r\n    // --- EVENTS ---\r\n    event AccessRequested(\r\n        address indexed patient,\r\n        address indexed doctor,\r\n        string ipfsHash,\r\n        string fileName // Added fileName\r\n    );\r\n    event PatientAdded(\r\n        uint256 indexed doctorId,\r\n        uint256 indexed patientId,\r\n        address indexed doctor\r\n    );\r\n\r\n    function registerDoctor(\r\n        string memory _name,\r\n        string memory _specialization,\r\n        string memory _hospital\r\n    ) public {\r\n        require(walletToDoctorId[msg.sender] == 0, \"Doctor already registered\");\r\n        doctorIdCounter++;\r\n        walletToDoctorId[msg.sender] = doctorIdCounter;\r\n\r\n        DoctorDetails storage newDoctor = doctors[doctorIdCounter];\r\n        newDoctor.doctorId = doctorIdCounter;\r\n        newDoctor.name = _name;\r\n        newDoctor.specialization = _specialization;\r\n        newDoctor.email = _hospital;\r\n    }\r\n\r\n    function addPatient(uint256 _patientId) public {\r\n        uint256 doctorId = walletToDoctorId[msg.sender];\r\n        require(doctorId != 0, \"Doctor not registered\");\r\n\r\n        // Avoid duplicates? Simple check or just push.\r\n        // For MVP push is fine, or check if already exists.\r\n        bool exists = false;\r\n        for (uint i = 0; i < doctors[doctorId].patientIds.length; i++) {\r\n            if (doctors[doctorId].patientIds[i] == _patientId) {\r\n                exists = true;\r\n                break;\r\n            }\r\n        }\r\n        require(!exists, \"Patient already added\");\r\n\r\n        doctors[doctorId].patientIds.push(_patientId);\r\n        emit PatientAdded(doctorId, _patientId, msg.sender);\r\n    }\r\n\r\n    function getDoctorPatients() public view returns (uint256[] memory) {\r\n        uint256 doctorId = walletToDoctorId[msg.sender];\r\n        require(doctorId != 0, \"Doctor not registered\");\r\n        return doctors[doctorId].patientIds;\r\n    }\r\n    function hasAccessToDocument(\r\n        address _patient,\r\n        string memory _ipfsHash\r\n    ) public view returns (bool) {\r\n        uint256 doctorId = walletToDoctorId[msg.sender];\r\n        require(doctorId != 0, \"Doctor not registered\");\r\n\r\n        DocumentAccess[] memory accessList = doctorAccessList[doctorId];\r\n        for (uint256 i = 0; i < accessList.length; i++) {\r\n            if (\r\n                accessList[i].patient == _patient &&\r\n                keccak256(abi.encodePacked(accessList[i].ipfsHash)) ==\r\n                keccak256(abi.encodePacked(_ipfsHash)) &&\r\n                accessList[i].hasAccess\r\n            ) {\r\n                return true;\r\n            }\r\n        }\r\n        return false;\r\n    }\r\n\r\n    function requestAccess(\r\n        address _patient,\r\n        string memory _ipfsHash,\r\n        string memory _fileName\r\n    ) public {\r\n        uint256 doctorId = walletToDoctorId[msg.sender];\r\n        require(doctorId != 0, \"Doctor not registered\");\r\n\r\n        doctorAccessList[doctorId].push(\r\n            DocumentAccess({\r\n                patient: _patient,\r\n                ipfsHash: _ipfsHash,\r\n                fileName: _fileName,\r\n                hasAccess: false\r\n            })\r\n        );\r\n\r\n        emit AccessRequested(_patient, msg.sender, _ipfsHash, _fileName);\r\n    }\r\n\r\n    function grantAccess(address _doctor, string memory _ipfsHash) public {\r\n        uint256 doctorId = walletToDoctorId[_doctor];\r\n        require(doctorId != 0, \"Doctor not registered\");\r\n\r\n        DocumentAccess[] storage accessList = doctorAccessList[doctorId];\r\n        for (uint256 i = 0; i < accessList.length; i++) {\r\n            if (\r\n                accessList[i].patient == msg.sender &&\r\n                keccak256(abi.encodePacked(accessList[i].ipfsHash)) ==\r\n                keccak256(abi.encodePacked(_ipfsHash))\r\n            ) {\r\n                accessList[i].hasAccess = true;\r\n                return;\r\n            }\r\n        }\r\n        revert(\"Access request not found\");\r\n    }\r\n\r\n    // --- GETTERS ---\r\n    function getAccessList() public view returns (DocumentAccess[] memory) {\r\n        uint256 doctorId = walletToDoctorId[msg.sender];\r\n        require(doctorId != 0, \"Doctor not registered\");\r\n        return doctorAccessList[doctorId];\r\n    }\r\n\r\n    function getPatients() public view returns (DoctorDetails[] memory) {\r\n        uint256 doctorId = walletToDoctorId[msg.sender];\r\n        require(doctorId != 0, \"Doctor not registered\");\r\n\r\n        DocumentAccess[] memory accessList = doctorAccessList[doctorId];\r\n        DoctorDetails[] memory patients = new DoctorDetails[](\r\n            accessList.length\r\n        );\r\n        uint256 count = 0;\r\n\r\n        for (uint256 i = 0; i < accessList.length; i++) {\r\n            if (accessList[i].hasAccess) {\r\n                patients[count] = doctors[doctorId];\r\n                count++;\r\n            }\r\n        }\r\n\r\n        return patients;\r\n    }\r\n\r\n    function doctorExists(address walletAddress) public view returns (bool) {\r\n        return walletToDoctorId[walletAddress] != 0;\r\n    }\r\n\r\n    function getAllDoctors() public view returns (DoctorDetails[] memory) {\r\n        uint256 total = doctorIdCounter;\r\n        DoctorDetails[] memory list = new DoctorDetails[](total);\r\n\r\n        for (uint256 i = 0; i < total; i++) {\r\n            list[i] = doctors[i + 1];\r\n        }\r\n\r\n        return list;\r\n    }\r\n}\r\n",
  "sourcePath": "J:\\Users\\ayush\\Desktop\\code\\team-rocket-medi-secure\\contracts\\contracts\\Doctor.sol",
  "compiler": {
    "name": "solc",
    "version": "0.8.19+commit.7dd6d404.Emscripten.clang"
  },
  "schemaVersion": "3.4.16",
  "updatedAt": "2026-01-17T13:50:54.618Z",
  "networkType": "ethereum",
  "devdoc": {
    "kind": "dev",
    "methods": {},
    "version": 1
  },
  "userdoc": {
    "kind": "user",
    "methods": {},
    "version": 1
  }
}