{
  "contractName": "Doctor",
  "abi": [
    {
      "anonymous": false,
      "inputs": [
        {
          "indexed": true,
          "internalType": "address",
          "name": "patient",
          "type": "address"
        },
        {
          "indexed": true,
          "internalType": "address",
          "name": "doctor",
          "type": "address"
        },
        {
          "indexed": false,
          "internalType": "string",
          "name": "ipfsHash",
          "type": "string"
        },
        {
          "indexed": false,
          "internalType": "uint256",
          "name": "grantTime",
          "type": "uint256"
        },
        {
          "indexed": false,
          "internalType": "uint256",
          "name": "duration",
          "type": "uint256"
        }
      ],
      "name": "AccessGranted",
      "type": "event"
    },
    {
      "anonymous": false,
      "inputs": [
        {
          "indexed": true,
          "internalType": "address",
          "name": "patient",
          "type": "address"
        },
        {
          "indexed": true,
          "internalType": "address",
          "name": "doctor",
          "type": "address"
        },
        {
          "indexed": false,
          "internalType": "string",
          "name": "ipfsHash",
          "type": "string"
        },
        {
          "indexed": false,
          "internalType": "string",
          "name": "fileName",
          "type": "string"
        },
        {
          "indexed": false,
          "internalType": "uint256",
          "name": "duration",
          "type": "uint256"
        },
        {
          "indexed": false,
          "internalType": "string",
          "name": "reason",
          "type": "string"
        }
      ],
      "name": "AccessRequested",
      "type": "event"
    },
    {
      "anonymous": false,
      "inputs": [
        {
          "indexed": true,
          "internalType": "address",
          "name": "patient",
          "type": "address"
        },
        {
          "indexed": true,
          "internalType": "address",
          "name": "doctor",
          "type": "address"
        },
        {
          "indexed": false,
          "internalType": "string",
          "name": "ipfsHash",
          "type": "string"
        },
        {
          "indexed": false,
          "internalType": "uint256",
          "name": "revokeTime",
          "type": "uint256"
        }
      ],
      "name": "AccessRevoked",
      "type": "event"
    },
    {
      "anonymous": false,
      "inputs": [
        {
          "indexed": true,
          "internalType": "address",
          "name": "doctor",
          "type": "address"
        },
        {
          "indexed": true,
          "internalType": "address",
          "name": "patient",
          "type": "address"
        },
        {
          "indexed": false,
          "internalType": "string",
          "name": "ipfsHash",
          "type": "string"
        },
        {
          "indexed": false,
          "internalType": "string",
          "name": "reason",
          "type": "string"
        },
        {
          "indexed": false,
          "internalType": "uint256",
          "name": "timestamp",
          "type": "uint256"
        }
      ],
      "name": "EmergencyAccessGranted",
      "type": "event"
    },
    {
      "anonymous": false,
      "inputs": [
        {
          "indexed": true,
          "internalType": "uint256",
          "name": "doctorId",
          "type": "uint256"
        },
        {
          "indexed": true,
          "internalType": "uint256",
          "name": "patientId",
          "type": "uint256"
        },
        {
          "indexed": true,
          "internalType": "address",
          "name": "doctor",
          "type": "address"
        }
      ],
      "name": "PatientAdded",
      "type": "event"
    },
    {
      "inputs": [
        {
          "internalType": "uint256",
          "name": "",
          "type": "uint256"
        },
        {
          "internalType": "uint256",
          "name": "",
          "type": "uint256"
        }
      ],
      "name": "doctorAccessList",
      "outputs": [
        {
          "internalType": "address",
          "name": "patient",
          "type": "address"
        },
        {
          "internalType": "string",
          "name": "ipfsHash",
          "type": "string"
        },
        {
          "internalType": "string",
          "name": "fileName",
          "type": "string"
        },
        {
          "internalType": "bool",
          "name": "hasAccess",
          "type": "bool"
        },
        {
          "internalType": "uint256",
          "name": "grantTime",
          "type": "uint256"
        },
        {
          "internalType": "uint256",
          "name": "duration",
          "type": "uint256"
        },
        {
          "internalType": "string",
          "name": "reason",
          "type": "string"
        },
        {
          "internalType": "bool",
          "name": "isEmergency",
          "type": "bool"
        }
      ],
      "stateMutability": "view",
      "type": "function",
      "constant": true
    },
    {
      "inputs": [
        {
          "internalType": "uint256",
          "name": "",
          "type": "uint256"
        }
      ],
      "name": "doctors",
      "outputs": [
        {
          "internalType": "uint256",
          "name": "doctorId",
          "type": "uint256"
        },
        {
          "internalType": "string",
          "name": "name",
          "type": "string"
        },
        {
          "internalType": "string",
          "name": "specialization",
          "type": "string"
        },
        {
          "internalType": "string",
          "name": "email",
          "type": "string"
        }
      ],
      "stateMutability": "view",
      "type": "function",
      "constant": true
    },
    {
      "inputs": [
        {
          "internalType": "address",
          "name": "",
          "type": "address"
        }
      ],
      "name": "walletToDoctorId",
      "outputs": [
        {
          "internalType": "uint256",
          "name": "",
          "type": "uint256"
        }
      ],
      "stateMutability": "view",
      "type": "function",
      "constant": true
    },
    {
      "inputs": [
        {
          "internalType": "string",
          "name": "_name",
          "type": "string"
        },
        {
          "internalType": "string",
          "name": "_specialization",
          "type": "string"
        },
        {
          "internalType": "string",
          "name": "_hospital",
          "type": "string"
        }
      ],
      "name": "registerDoctor",
      "outputs": [],
      "stateMutability": "nonpayable",
      "type": "function"
    },
    {
      "inputs": [
        {
          "internalType": "uint256",
          "name": "_patientId",
          "type": "uint256"
        }
      ],
      "name": "addPatient",
      "outputs": [],
      "stateMutability": "nonpayable",
      "type": "function"
    },
    {
      "inputs": [],
      "name": "getDoctorPatients",
      "outputs": [
        {
          "internalType": "uint256[]",
          "name": "",
          "type": "uint256[]"
        }
      ],
      "stateMutability": "view",
      "type": "function",
      "constant": true
    },
    {
      "inputs": [
        {
          "internalType": "address",
          "name": "_patient",
          "type": "address"
        },
        {
          "internalType": "string",
          "name": "_ipfsHash",
          "type": "string"
        }
      ],
      "name": "hasAccessToDocument",
      "outputs": [
        {
          "internalType": "bool",
          "name": "",
          "type": "bool"
        }
      ],
      "stateMutability": "view",
      "type": "function",
      "constant": true
    },
    {
      "inputs": [
        {
          "internalType": "address",
          "name": "_patient",
          "type": "address"
        },
        {
          "internalType": "string",
          "name": "_ipfsHash",
          "type": "string"
        },
        {
          "internalType": "string",
          "name": "_fileName",
          "type": "string"
        },
        {
          "internalType": "uint256",
          "name": "_duration",
          "type": "uint256"
        },
        {
          "internalType": "string",
          "name": "_reason",
          "type": "string"
        }
      ],
      "name": "requestAccess",
      "outputs": [],
      "stateMutability": "nonpayable",
      "type": "function"
    },
    {
      "inputs": [
        {
          "internalType": "address",
          "name": "_patient",
          "type": "address"
        },
        {
          "internalType": "string",
          "name": "_ipfsHash",
          "type": "string"
        },
        {
          "internalType": "string",
          "name": "_fileName",
          "type": "string"
        },
        {
          "internalType": "string",
          "name": "_reason",
          "type": "string"
        }
      ],
      "name": "emergencyBreakGlass",
      "outputs": [],
      "stateMutability": "nonpayable",
      "type": "function"
    },
    {
      "inputs": [
        {
          "internalType": "address",
          "name": "_doctor",
          "type": "address"
        },
        {
          "internalType": "string",
          "name": "_ipfsHash",
          "type": "string"
        },
        {
          "internalType": "uint256",
          "name": "_duration",
          "type": "uint256"
        }
      ],
      "name": "grantAccess",
      "outputs": [],
      "stateMutability": "nonpayable",
      "type": "function"
    },
    {
      "inputs": [
        {
          "internalType": "address",
          "name": "_doctor",
          "type": "address"
        },
        {
          "internalType": "string",
          "name": "_ipfsHash",
          "type": "string"
        }
      ],
      "name": "revokeAccess",
      "outputs": [],
      "stateMutability": "nonpayable",
      "type": "function"
    },
    {
      "inputs": [],
      "name": "getAccessList",
      "outputs": [
        {
          "components": [
            {
              "internalType": "address",
              "name": "patient",
              "type": "address"
            },
            {
              "internalType": "string",
              "name": "ipfsHash",
              "type": "string"
            },
            {
              "internalType": "string",
              "name": "fileName",
              "type": "string"
            },
            {
              "internalType": "bool",
              "name": "hasAccess",
              "type": "bool"
            },
            {
              "internalType": "uint256",
              "name": "grantTime",
              "type": "uint256"
            },
            {
              "internalType": "uint256",
              "name": "duration",
              "type": "uint256"
            },
            {
              "internalType": "string",
              "name": "reason",
              "type": "string"
            },
            {
              "internalType": "bool",
              "name": "isEmergency",
              "type": "bool"
            }
          ],
          "internalType": "struct Doctor.DocumentAccess[]",
          "name": "",
          "type": "tuple[]"
        }
      ],
      "stateMutability": "view",
      "type": "function",
      "constant": true
    },
    {
      "inputs": [],
      "name": "getPatients",
      "outputs": [
        {
          "components": [
            {
              "internalType": "uint256",
              "name": "doctorId",
              "type": "uint256"
            },
            {
              "internalType": "string",
              "name": "name",
              "type": "string"
            },
            {
              "internalType": "string",
              "name": "specialization",
              "type": "string"
            },
            {
              "internalType": "string",
              "name": "email",
              "type": "string"
            },
            {
              "internalType": "uint256[]",
              "name": "patientIds",
              "type": "uint256[]"
            }
          ],
          "internalType": "struct Doctor.DoctorDetails[]",
          "name": "",
          "type": "tuple[]"
        }
      ],
      "stateMutability": "view",
      "type": "function",
      "constant": true
    },
    {
      "inputs": [
        {
          "internalType": "address",
          "name": "walletAddress",
          "type": "address"
        }
      ],
      "name": "doctorExists",
      "outputs": [
        {
          "internalType": "bool",
          "name": "",
          "type": "bool"
        }
      ],
      "stateMutability": "view",
      "type": "function",
      "constant": true
    },
    {
      "inputs": [],
      "name": "getAllDoctors",
      "outputs": [
        {
          "components": [
            {
              "internalType": "uint256",
              "name": "doctorId",
              "type": "uint256"
            },
            {
              "internalType": "string",
              "name": "name",
              "type": "string"
            },
            {
              "internalType": "string",
              "name": "specialization",
              "type": "string"
            },
            {
              "internalType": "string",
              "name": "email",
              "type": "string"
            },
            {
              "internalType": "uint256[]",
              "name": "patientIds",
              "type": "uint256[]"
            }
          ],
          "internalType": "struct Doctor.DoctorDetails[]",
          "name": "",
          "type": "tuple[]"
        }
      ],
      "stateMutability": "view",
      "type": "function",
      "constant": true
    }
  ],
  "bytecode": "0x608060405234801561000f575f80fd5b50613a068061001d5f395ff3fe608060405234801561000f575f80fd5b50600436106100f3575f3560e01c80636efb1b84116100955780638d5ddbb3116100645780638d5ddbb31461027557806398cf72b314610293578063f0d95090146102c3578063f6827cd1146102e1576100f3565b80636efb1b84146101ec5780637f93a9611461021f578063869ef2311461023b5780638b145ec814610257576100f3565b806333948de2116100d157806333948de214610161578063506e08d21461019857806350c7a912146101b45780636a44cac9146101d0576100f3565b806302b66aaf146100f757806312ad1c37146101135780632ad230a914610131575b5f80fd5b610111600480360381019061010c9190612850565b610311565b005b61011b61056b565b6040516101289190612b8f565b60405180910390f35b61014b60048036038101906101469190612baf565b610ba1565b6040516101589190612bf4565b60405180910390f35b61017b60048036038101906101769190612c0d565b610be9565b60405161018f989796959493929190612cb1565b60405180910390f35b6101b260048036038101906101ad9190612d42565b610e10565b005b6101ce60048036038101906101c99190612d6d565b610fc9565b005b6101ea60048036038101906101e59190612e11565b6110fd565b005b61020660048036038101906102019190612d42565b611388565b6040516102169493929190612e6b565b60405180910390f35b61023960048036038101906102349190612ec3565b611546565b005b61025560048036038101906102509190612f2f565b611823565b005b61025f611a7f565b60405161026c9190613053565b60405180910390f35b61027d611b6a565b60405161028a9190613207565b60405180910390f35b6102ad60048036038101906102a89190612baf565b611ea5565b6040516102ba9190613227565b60405180910390f35b6102cb611eb9565b6040516102d89190612b8f565b60405180910390f35b6102fb60048036038101906102f69190612e11565b612193565b6040516103089190612bf4565b60405180910390f35b5f805f3373ffffffffffffffffffffffffffffffffffffffff1673ffffffffffffffffffffffffffffffffffffffff1681526020019081526020015f205490505f8103610393576040517f08c379a000000000000000000000000000000000000000000000000000000000815260040161038a9061328a565b60405180910390fd5b60025f8281526020019081526020015f206040518061010001604052808873ffffffffffffffffffffffffffffffffffffffff1681526020018781526020018681526020015f151581526020015f81526020018581526020018481526020015f1515815250908060018154018082558091505060019003905f5260205f2090600802015f909190919091505f820151815f015f6101000a81548173ffffffffffffffffffffffffffffffffffffffff021916908373ffffffffffffffffffffffffffffffffffffffff160217905550602082015181600101908161047791906134a2565b50604082015181600201908161048d91906134a2565b506060820151816003015f6101000a81548160ff0219169083151502179055506080820151816004015560a0820151816005015560c08201518160060190816104d691906134a2565b5060e0820151816007015f6101000a81548160ff02191690831515021790555050503373ffffffffffffffffffffffffffffffffffffffff168673ffffffffffffffffffffffffffffffffffffffff167fc4de088654327f2907ad8f0c288704b90c01af218c310b25c1682df9b7c8c7cd8787878760405161055b9493929190613571565b60405180910390a3505050505050565b60605f805f3373ffffffffffffffffffffffffffffffffffffffff1673ffffffffffffffffffffffffffffffffffffffff1681526020019081526020015f205490505f81036105ef576040517f08c379a00000000000000000000000000000000000000000000000000000000081526004016105e69061328a565b60405180910390fd5b5f60025f8381526020019081526020015f20805480602002602001604051908101604052809291908181526020015f905b8282101561089d578382905f5260205f209060080201604051806101000160405290815f82015f9054906101000a900473ffffffffffffffffffffffffffffffffffffffff1673ffffffffffffffffffffffffffffffffffffffff1673ffffffffffffffffffffffffffffffffffffffff1681526020016001820180546106a6906132d5565b80601f01602080910402602001604051908101604052809291908181526020018280546106d2906132d5565b801561071d5780601f106106f45761010080835404028352916020019161071d565b820191905f5260205f20905b81548152906001019060200180831161070057829003601f168201915b50505050508152602001600282018054610736906132d5565b80601f0160208091040260200160405190810160405280929190818152602001828054610762906132d5565b80156107ad5780601f10610784576101008083540402835291602001916107ad565b820191905f5260205f20905b81548152906001019060200180831161079057829003601f168201915b50505050508152602001600382015f9054906101000a900460ff1615151515815260200160048201548152602001600582015481526020016006820180546107f4906132d5565b80601f0160208091040260200160405190810160405280929190818152602001828054610820906132d5565b801561086b5780601f106108425761010080835404028352916020019161086b565b820191905f5260205f20905b81548152906001019060200180831161084e57829003601f168201915b50505050508152602001600782015f9054906101000a900460ff16151515158152505081526020019060010190610620565b5050505090505f815167ffffffffffffffff8111156108bf576108be6126f9565b5b6040519080825280602002602001820160405280156108f857816020015b6108e5612648565b8152602001906001900390816108dd5790505b5090505f805b8351811015610b965783818151811061091a576109196135c9565b5b60200260200101516060015115610b835760015f8681526020019081526020015f206040518060a00160405290815f8201548152602001600182018054610960906132d5565b80601f016020809104026020016040519081016040528092919081815260200182805461098c906132d5565b80156109d75780601f106109ae576101008083540402835291602001916109d7565b820191905f5260205f20905b8154815290600101906020018083116109ba57829003601f168201915b505050505081526020016002820180546109f0906132d5565b80601f0160208091040260200160405190810160405280929190818152602001828054610a1c906132d5565b8015610a675780601f10610a3e57610100808354040283529160200191610a67565b820191905f5260205f20905b815481529060010190602001808311610a4a57829003601f168201915b50505050508152602001600382018054610a80906132d5565b80601f0160208091040260200160405190810160405280929190818152602001828054610aac906132d5565b8015610af75780601f10610ace57610100808354040283529160200191610af7565b820191905f5260205f20905b815481529060010190602001808311610ada57829003601f168201915b5050505050815260200160048201805480602002602001604051908101604052809291908181526020018280548015610b4d57602002820191905f5260205f20905b815481526020019060010190808311610b39575b505050505081525050838381518110610b6957610b686135c9565b5b60200260200101819052508180610b7f90613623565b9250505b8080610b8e90613623565b9150506108fe565b508194505050505090565b5f805f808473ffffffffffffffffffffffffffffffffffffffff1673ffffffffffffffffffffffffffffffffffffffff1681526020019081526020015f205414159050919050565b6002602052815f5260405f208181548110610c02575f80fd5b905f5260205f2090600802015f9150915050805f015f9054906101000a900473ffffffffffffffffffffffffffffffffffffffff1690806001018054610c47906132d5565b80601f0160208091040260200160405190810160405280929190818152602001828054610c73906132d5565b8015610cbe5780601f10610c9557610100808354040283529160200191610cbe565b820191905f5260205f20905b815481529060010190602001808311610ca157829003601f168201915b505050505090806002018054610cd3906132d5565b80601f0160208091040260200160405190810160405280929190818152602001828054610cff906132d5565b8015610d4a5780601f10610d2157610100808354040283529160200191610d4a565b820191905f5260205f20905b815481529060010190602001808311610d2d57829003601f168201915b505050505090806003015f9054906101000a900460ff1690806004015490806005015490806006018054610d7d906132d5565b80601f0160208091040260200160405190810160405280929190818152602001828054610da9906132d5565b8015610df45780601f10610dcb57610100808354040283529160200191610df4565b820191905f5260205f20905b815481529060010190602001808311610dd757829003601f168201915b505050505090806007015f9054906101000a900460ff16905088565b5f805f3373ffffffffffffffffffffffffffffffffffffffff1673ffffffffffffffffffffffffffffffffffffffff1681526020019081526020015f205490505f8103610e92576040517f08c379a0000000000000000000000000000000000000000000000000000000008152600401610e899061328a565b60405180910390fd5b5f805b60015f8481526020019081526020015f2060040180549050811015610f05578360015f8581526020019081526020015f206004018281548110610edb57610eda6135c9565b5b905f5260205f20015403610ef25760019150610f05565b8080610efd90613623565b915050610e95565b508015610f47576040517f08c379a0000000000000000000000000000000000000000000000000000000008152600401610f3e906136b4565b60405180910390fd5b60015f8381526020019081526020015f2060040183908060018154018082558091505060019003905f5260205f20015f90919091909150553373ffffffffffffffffffffffffffffffffffffffff1683837f62e4da5e5c3a89b6dca6a385b8712c06f51bf0855ae5b6abd14937474a4ce01e60405160405180910390a4505050565b5f805f3373ffffffffffffffffffffffffffffffffffffffff1673ffffffffffffffffffffffffffffffffffffffff1681526020019081526020015f205414611047576040517f08c379a000000000000000000000000000000000000000000000000000000000815260040161103e9061371c565b60405180910390fd5b60035f81548092919061105990613623565b91905055506003545f803373ffffffffffffffffffffffffffffffffffffffff1673ffffffffffffffffffffffffffffffffffffffff1681526020019081526020015f20819055505f60015f60035481526020019081526020015f209050600354815f0181905550838160010190816110d291906134a2565b50828160020190816110e491906134a2565b50818160030190816110f691906134a2565b5050505050565b5f805f8473ffffffffffffffffffffffffffffffffffffffff1673ffffffffffffffffffffffffffffffffffffffff1681526020019081526020015f205490505f810361117f576040517f08c379a00000000000000000000000000000000000000000000000000000000081526004016111769061328a565b60405180910390fd5b5f60025f8381526020019081526020015f2090505f5b8180549050811015611348573373ffffffffffffffffffffffffffffffffffffffff168282815481106111cb576111ca6135c9565b5b905f5260205f2090600802015f015f9054906101000a900473ffffffffffffffffffffffffffffffffffffffff1673ffffffffffffffffffffffffffffffffffffffff161480156112885750836040516020016112289190613774565b60405160208183030381529060405280519060200120828281548110611251576112506135c9565b5b905f5260205f209060080201600101604051602001611270919061380a565b60405160208183030381529060405280519060200120145b15611335575f8282815481106112a1576112a06135c9565b5b905f5260205f2090600802016003015f6101000a81548160ff0219169083151502179055508473ffffffffffffffffffffffffffffffffffffffff163373ffffffffffffffffffffffffffffffffffffffff167f1852eeec29c8b9e06624d3e3008123c26ddd6173947b6bea9054402ea8ca57ad8642604051611325929190613820565b60405180910390a3505050611384565b808061134090613623565b915050611195565b506040517f08c379a000000000000000000000000000000000000000000000000000000000815260040161137b90613898565b60405180910390fd5b5050565b6001602052805f5260405f205f91509050805f0154908060010180546113ad906132d5565b80601f01602080910402602001604051908101604052809291908181526020018280546113d9906132d5565b80156114245780601f106113fb57610100808354040283529160200191611424565b820191905f5260205f20905b81548152906001019060200180831161140757829003601f168201915b505050505090806002018054611439906132d5565b80601f0160208091040260200160405190810160405280929190818152602001828054611465906132d5565b80156114b05780601f10611487576101008083540402835291602001916114b0565b820191905f5260205f20905b81548152906001019060200180831161149357829003601f168201915b5050505050908060030180546114c5906132d5565b80601f01602080910402602001604051908101604052809291908181526020018280546114f1906132d5565b801561153c5780601f106115135761010080835404028352916020019161153c565b820191905f5260205f20905b81548152906001019060200180831161151f57829003601f168201915b5050505050905084565b5f805f8573ffffffffffffffffffffffffffffffffffffffff1673ffffffffffffffffffffffffffffffffffffffff1681526020019081526020015f205490505f81036115c8576040517f08c379a00000000000000000000000000000000000000000000000000000000081526004016115bf9061328a565b60405180910390fd5b5f60025f8381526020019081526020015f2090505f5b81805490508110156117e2573373ffffffffffffffffffffffffffffffffffffffff16828281548110611614576116136135c9565b5b905f5260205f2090600802015f015f9054906101000a900473ffffffffffffffffffffffffffffffffffffffff1673ffffffffffffffffffffffffffffffffffffffff161480156116d15750846040516020016116719190613774565b6040516020818303038152906040528051906020012082828154811061169a576116996135c9565b5b905f5260205f2090600802016001016040516020016116b9919061380a565b60405160208183030381529060405280519060200120145b156117cf5760018282815481106116eb576116ea6135c9565b5b905f5260205f2090600802016003015f6101000a81548160ff02191690831515021790555042828281548110611724576117236135c9565b5b905f5260205f209060080201600401819055508382828154811061174b5761174a6135c9565b5b905f5260205f209060080201600501819055508573ffffffffffffffffffffffffffffffffffffffff163373ffffffffffffffffffffffffffffffffffffffff167fc298d419e944a3f1e7da1b2245c9f34649b9a6ea67875bcd37e975ef5d7209a38742886040516117bf939291906138b6565b60405180910390a350505061181e565b80806117da90613623565b9150506115de565b506040517f08c379a00000000000000000000000000000000000000000000000000000000081526004016118159061393c565b60405180910390fd5b505050565b5f805f3373ffffffffffffffffffffffffffffffffffffffff1673ffffffffffffffffffffffffffffffffffffffff1681526020019081526020015f205490505f81036118a5576040517f08c379a000000000000000000000000000000000000000000000000000000000815260040161189c9061328a565b60405180910390fd5b60025f8281526020019081526020015f206040518061010001604052808773ffffffffffffffffffffffffffffffffffffffff16815260200186815260200185815260200160011515815260200142815260200162015180815260200184815260200160011515815250908060018154018082558091505060019003905f5260205f2090600802015f909190919091505f820151815f015f6101000a81548173ffffffffffffffffffffffffffffffffffffffff021916908373ffffffffffffffffffffffffffffffffffffffff160217905550602082015181600101908161198e91906134a2565b5060408201518160020190816119a491906134a2565b506060820151816003015f6101000a81548160ff0219169083151502179055506080820151816004015560a0820151816005015560c08201518160060190816119ed91906134a2565b5060e0820151816007015f6101000a81548160ff02191690831515021790555050508473ffffffffffffffffffffffffffffffffffffffff163373ffffffffffffffffffffffffffffffffffffffff167fc18b0a731326cfd073d9219b559d4a74aaed4d08716d26c4ace853127d096edb868542604051611a709392919061395a565b60405180910390a35050505050565b60605f805f3373ffffffffffffffffffffffffffffffffffffffff1673ffffffffffffffffffffffffffffffffffffffff1681526020019081526020015f205490505f8103611b03576040517f08c379a0000000000000000000000000000000000000000000000000000000008152600401611afa9061328a565b60405180910390fd5b60015f8281526020019081526020015f20600401805480602002602001604051908101604052809291908181526020018280548015611b5f57602002820191905f5260205f20905b815481526020019060010190808311611b4b575b505050505091505090565b60605f805f3373ffffffffffffffffffffffffffffffffffffffff1673ffffffffffffffffffffffffffffffffffffffff1681526020019081526020015f205490505f8103611bee576040517f08c379a0000000000000000000000000000000000000000000000000000000008152600401611be59061328a565b60405180910390fd5b60025f8281526020019081526020015f20805480602002602001604051908101604052809291908181526020015f905b82821015611e9b578382905f5260205f209060080201604051806101000160405290815f82015f9054906101000a900473ffffffffffffffffffffffffffffffffffffffff1673ffffffffffffffffffffffffffffffffffffffff1673ffffffffffffffffffffffffffffffffffffffff168152602001600182018054611ca4906132d5565b80601f0160208091040260200160405190810160405280929190818152602001828054611cd0906132d5565b8015611d1b5780601f10611cf257610100808354040283529160200191611d1b565b820191905f5260205f20905b815481529060010190602001808311611cfe57829003601f168201915b50505050508152602001600282018054611d34906132d5565b80601f0160208091040260200160405190810160405280929190818152602001828054611d60906132d5565b8015611dab5780601f10611d8257610100808354040283529160200191611dab565b820191905f5260205f20905b815481529060010190602001808311611d8e57829003601f168201915b50505050508152602001600382015f9054906101000a900460ff161515151581526020016004820154815260200160058201548152602001600682018054611df2906132d5565b80601f0160208091040260200160405190810160405280929190818152602001828054611e1e906132d5565b8015611e695780601f10611e4057610100808354040283529160200191611e69565b820191905f5260205f20905b815481529060010190602001808311611e4c57829003601f168201915b50505050508152602001600782015f9054906101000a900460ff16151515158152505081526020019060010190611c1e565b5050505091505090565b5f602052805f5260405f205f915090505481565b60605f60035490505f8167ffffffffffffffff811115611edc57611edb6126f9565b5b604051908082528060200260200182016040528015611f1557816020015b611f02612648565b815260200190600190039081611efa5790505b5090505f5b8281101561218a5760015f600183611f32919061399d565b81526020019081526020015f206040518060a00160405290815f8201548152602001600182018054611f63906132d5565b80601f0160208091040260200160405190810160405280929190818152602001828054611f8f906132d5565b8015611fda5780601f10611fb157610100808354040283529160200191611fda565b820191905f5260205f20905b815481529060010190602001808311611fbd57829003601f168201915b50505050508152602001600282018054611ff3906132d5565b80601f016020809104026020016040519081016040528092919081815260200182805461201f906132d5565b801561206a5780601f106120415761010080835404028352916020019161206a565b820191905f5260205f20905b81548152906001019060200180831161204d57829003601f168201915b50505050508152602001600382018054612083906132d5565b80601f01602080910402602001604051908101604052809291908181526020018280546120af906132d5565b80156120fa5780601f106120d1576101008083540402835291602001916120fa565b820191905f5260205f20905b8154815290600101906020018083116120dd57829003601f168201915b505050505081526020016004820180548060200260200160405190810160405280929190818152602001828054801561215057602002820191905f5260205f20905b81548152602001906001019080831161213c575b50505050508152505082828151811061216c5761216b6135c9565b5b6020026020010181905250808061218290613623565b915050611f1a565b50809250505090565b5f805f803373ffffffffffffffffffffffffffffffffffffffff1673ffffffffffffffffffffffffffffffffffffffff1681526020019081526020015f205490505f8103612216576040517f08c379a000000000000000000000000000000000000000000000000000000000815260040161220d9061328a565b60405180910390fd5b5f60025f8381526020019081526020015f20805480602002602001604051908101604052809291908181526020015f905b828210156124c4578382905f5260205f209060080201604051806101000160405290815f82015f9054906101000a900473ffffffffffffffffffffffffffffffffffffffff1673ffffffffffffffffffffffffffffffffffffffff1673ffffffffffffffffffffffffffffffffffffffff1681526020016001820180546122cd906132d5565b80601f01602080910402602001604051908101604052809291908181526020018280546122f9906132d5565b80156123445780601f1061231b57610100808354040283529160200191612344565b820191905f5260205f20905b81548152906001019060200180831161232757829003601f168201915b5050505050815260200160028201805461235d906132d5565b80601f0160208091040260200160405190810160405280929190818152602001828054612389906132d5565b80156123d45780601f106123ab576101008083540402835291602001916123d4565b820191905f5260205f20905b8154815290600101906020018083116123b757829003601f168201915b50505050508152602001600382015f9054906101000a900460ff16151515158152602001600482015481526020016005820154815260200160068201805461241b906132d5565b80601f0160208091040260200160405190810160405280929190818152602001828054612447906132d5565b80156124925780601f1061246957610100808354040283529160200191612492565b820191905f5260205f20905b81548152906001019060200180831161247557829003601f168201915b50505050508152602001600782015f9054906101000a900460ff16151515158152505081526020019060010190612247565b5050505090505f5b815181101561263b578573ffffffffffffffffffffffffffffffffffffffff168282815181106124ff576124fe6135c9565b5b60200260200101515f015173ffffffffffffffffffffffffffffffffffffffff161480156125965750846040516020016125399190613774565b60405160208183030381529060405280519060200120828281518110612562576125616135c9565b5b60200260200101516020015160405160200161257e9190613774565b60405160208183030381529060405280519060200120145b80156125bd57508181815181106125b0576125af6135c9565b5b6020026020010151606001515b15612628578181815181106125d5576125d46135c9565b5b602002602001015160a001518282815181106125f4576125f36135c9565b5b60200260200101516080015161260a919061399d565b42111561261c575f9350505050612642565b60019350505050612642565b808061263390613623565b9150506124cc565b505f925050505b92915050565b6040518060a001604052805f8152602001606081526020016060815260200160608152602001606081525090565b5f604051905090565b5f80fd5b5f80fd5b5f73ffffffffffffffffffffffffffffffffffffffff82169050919050565b5f6126b082612687565b9050919050565b6126c0816126a6565b81146126ca575f80fd5b50565b5f813590506126db816126b7565b92915050565b5f80fd5b5f80fd5b5f601f19601f8301169050919050565b7f4e487b71000000000000000000000000000000000000000000000000000000005f52604160045260245ffd5b61272f826126e9565b810181811067ffffffffffffffff8211171561274e5761274d6126f9565b5b80604052505050565b5f612760612676565b905061276c8282612726565b919050565b5f67ffffffffffffffff82111561278b5761278a6126f9565b5b612794826126e9565b9050602081019050919050565b828183375f83830152505050565b5f6127c16127bc84612771565b612757565b9050828152602081018484840111156127dd576127dc6126e5565b5b6127e88482856127a1565b509392505050565b5f82601f830112612804576128036126e1565b5b81356128148482602086016127af565b91505092915050565b5f819050919050565b61282f8161281d565b8114612839575f80fd5b50565b5f8135905061284a81612826565b92915050565b5f805f805f60a086880312156128695761286861267f565b5b5f612876888289016126cd565b955050602086013567ffffffffffffffff81111561289757612896612683565b5b6128a3888289016127f0565b945050604086013567ffffffffffffffff8111156128c4576128c3612683565b5b6128d0888289016127f0565b93505060606128e18882890161283c565b925050608086013567ffffffffffffffff81111561290257612901612683565b5b61290e888289016127f0565b9150509295509295909350565b5f81519050919050565b5f82825260208201905092915050565b5f819050602082019050919050565b61294d8161281d565b82525050565b5f81519050919050565b5f82825260208201905092915050565b5f5b8381101561298a57808201518184015260208101905061296f565b5f8484015250505050565b5f61299f82612953565b6129a9818561295d565b93506129b981856020860161296d565b6129c2816126e9565b840191505092915050565b5f81519050919050565b5f82825260208201905092915050565b5f819050602082019050919050565b5f612a018383612944565b60208301905092915050565b5f602082019050919050565b5f612a23826129cd565b612a2d81856129d7565b9350612a38836129e7565b805f5b83811015612a68578151612a4f88826129f6565b9750612a5a83612a0d565b925050600181019050612a3b565b5085935050505092915050565b5f60a083015f830151612a8a5f860182612944565b5060208301518482036020860152612aa28282612995565b91505060408301518482036040860152612abc8282612995565b91505060608301518482036060860152612ad68282612995565b91505060808301518482036080860152612af08282612a19565b9150508091505092915050565b5f612b088383612a75565b905092915050565b5f602082019050919050565b5f612b268261291b565b612b308185612925565b935083602082028501612b4285612935565b805f5b85811015612b7d5784840389528151612b5e8582612afd565b9450612b6983612b10565b925060208a01995050600181019050612b45565b50829750879550505050505092915050565b5f6020820190508181035f830152612ba78184612b1c565b905092915050565b5f60208284031215612bc457612bc361267f565b5b5f612bd1848285016126cd565b91505092915050565b5f8115159050919050565b612bee81612bda565b82525050565b5f602082019050612c075f830184612be5565b92915050565b5f8060408385031215612c2357612c2261267f565b5b5f612c308582860161283c565b9250506020612c418582860161283c565b9150509250929050565b612c54816126a6565b82525050565b5f82825260208201905092915050565b5f612c7482612953565b612c7e8185612c5a565b9350612c8e81856020860161296d565b612c97816126e9565b840191505092915050565b612cab8161281d565b82525050565b5f61010082019050612cc55f83018b612c4b565b8181036020830152612cd7818a612c6a565b90508181036040830152612ceb8189612c6a565b9050612cfa6060830188612be5565b612d076080830187612ca2565b612d1460a0830186612ca2565b81810360c0830152612d268185612c6a565b9050612d3560e0830184612be5565b9998505050505050505050565b5f60208284031215612d5757612d5661267f565b5b5f612d648482850161283c565b91505092915050565b5f805f60608486031215612d8457612d8361267f565b5b5f84013567ffffffffffffffff811115612da157612da0612683565b5b612dad868287016127f0565b935050602084013567ffffffffffffffff811115612dce57612dcd612683565b5b612dda868287016127f0565b925050604084013567ffffffffffffffff811115612dfb57612dfa612683565b5b612e07868287016127f0565b9150509250925092565b5f8060408385031215612e2757612e2661267f565b5b5f612e34858286016126cd565b925050602083013567ffffffffffffffff811115612e5557612e54612683565b5b612e61858286016127f0565b9150509250929050565b5f608082019050612e7e5f830187612ca2565b8181036020830152612e908186612c6a565b90508181036040830152612ea48185612c6a565b90508181036060830152612eb88184612c6a565b905095945050505050565b5f805f60608486031215612eda57612ed961267f565b5b5f612ee7868287016126cd565b935050602084013567ffffffffffffffff811115612f0857612f07612683565b5b612f14868287016127f0565b9250506040612f258682870161283c565b9150509250925092565b5f805f8060808587031215612f4757612f4661267f565b5b5f612f54878288016126cd565b945050602085013567ffffffffffffffff811115612f7557612f74612683565b5b612f81878288016127f0565b935050604085013567ffffffffffffffff811115612fa257612fa1612683565b5b612fae878288016127f0565b925050606085013567ffffffffffffffff811115612fcf57612fce612683565b5b612fdb878288016127f0565b91505092959194509250565b5f82825260208201905092915050565b5f613001826129cd565b61300b8185612fe7565b9350613016836129e7565b805f5b8381101561304657815161302d88826129f6565b975061303883612a0d565b925050600181019050613019565b5085935050505092915050565b5f6020820190508181035f83015261306b8184612ff7565b905092915050565b5f81519050919050565b5f82825260208201905092915050565b5f819050602082019050919050565b6130a5816126a6565b82525050565b6130b481612bda565b82525050565b5f61010083015f8301516130d05f86018261309c565b50602083015184820360208601526130e88282612995565b915050604083015184820360408601526131028282612995565b915050606083015161311760608601826130ab565b50608083015161312a6080860182612944565b5060a083015161313d60a0860182612944565b5060c083015184820360c08601526131558282612995565b91505060e083015161316a60e08601826130ab565b508091505092915050565b5f61318083836130ba565b905092915050565b5f602082019050919050565b5f61319e82613073565b6131a8818561307d565b9350836020820285016131ba8561308d565b805f5b858110156131f557848403895281516131d68582613175565b94506131e183613188565b925060208a019950506001810190506131bd565b50829750879550505050505092915050565b5f6020820190508181035f83015261321f8184613194565b905092915050565b5f60208201905061323a5f830184612ca2565b92915050565b7f446f63746f72206e6f74207265676973746572656400000000000000000000005f82015250565b5f613274601583612c5a565b915061327f82613240565b602082019050919050565b5f6020820190508181035f8301526132a181613268565b9050919050565b7f4e487b71000000000000000000000000000000000000000000000000000000005f52602260045260245ffd5b5f60028204905060018216806132ec57607f821691505b6020821081036132ff576132fe6132a8565b5b50919050565b5f819050815f5260205f209050919050565b5f6020601f8301049050919050565b5f82821b905092915050565b5f600883026133617fffffffffffffffffffffffffffffffffffffffffffffffffffffffffffffffff82613326565b61336b8683613326565b95508019841693508086168417925050509392505050565b5f819050919050565b5f6133a66133a161339c8461281d565b613383565b61281d565b9050919050565b5f819050919050565b6133bf8361338c565b6133d36133cb826133ad565b848454613332565b825550505050565b5f90565b6133e76133db565b6133f28184846133b6565b505050565b5b818110156134155761340a5f826133df565b6001810190506133f8565b5050565b601f82111561345a5761342b81613305565b61343484613317565b81016020851015613443578190505b61345761344f85613317565b8301826133f7565b50505b505050565b5f82821c905092915050565b5f61347a5f198460080261345f565b1980831691505092915050565b5f613492838361346b565b9150826002028217905092915050565b6134ab82612953565b67ffffffffffffffff8111156134c4576134c36126f9565b5b6134ce82546132d5565b6134d9828285613419565b5f60209050601f83116001811461350a575f84156134f8578287015190505b6135028582613487565b865550613569565b601f19841661351886613305565b5f5b8281101561353f5784890151825560018201915060208501945060208101905061351a565b8683101561355c5784890151613558601f89168261346b565b8355505b6001600288020188555050505b505050505050565b5f6080820190508181035f8301526135898187612c6a565b9050818103602083015261359d8186612c6a565b90506135ac6040830185612ca2565b81810360608301526135be8184612c6a565b905095945050505050565b7f4e487b71000000000000000000000000000000000000000000000000000000005f52603260045260245ffd5b7f4e487b71000000000000000000000000000000000000000000000000000000005f52601160045260245ffd5b5f61362d8261281d565b91507fffffffffffffffffffffffffffffffffffffffffffffffffffffffffffffffff820361365f5761365e6135f6565b5b600182019050919050565b7f50617469656e7420616c726561647920616464656400000000000000000000005f82015250565b5f61369e601583612c5a565b91506136a98261366a565b602082019050919050565b5f6020820190508181035f8301526136cb81613692565b9050919050565b7f446f63746f7220616c72656164792072656769737465726564000000000000005f82015250565b5f613706601983612c5a565b9150613711826136d2565b602082019050919050565b5f6020820190508181035f830152613733816136fa565b9050919050565b5f81905092915050565b5f61374e82612953565b613758818561373a565b935061376881856020860161296d565b80840191505092915050565b5f61377f8284613744565b915081905092915050565b5f8154613796816132d5565b6137a0818661373a565b9450600182165f81146137ba57600181146137cf57613801565b60ff1983168652811515820286019350613801565b6137d885613305565b5f5b838110156137f9578154818901526001820191506020810190506137da565b838801955050505b50505092915050565b5f613815828461378a565b915081905092915050565b5f6040820190508181035f8301526138388185612c6a565b90506138476020830184612ca2565b9392505050565b7f416363657373207265636f7264206e6f7420666f756e640000000000000000005f82015250565b5f613882601783612c5a565b915061388d8261384e565b602082019050919050565b5f6020820190508181035f8301526138af81613876565b9050919050565b5f6060820190508181035f8301526138ce8186612c6a565b90506138dd6020830185612ca2565b6138ea6040830184612ca2565b949350505050565b7f4163636573732072657175657374206e6f7420666f756e6400000000000000005f82015250565b5f613926601883612c5a565b9150613931826138f2565b602082019050919050565b5f6020820190508181035f8301526139538161391a565b9050919050565b5f6060820190508181035f8301526139728186612c6a565b905081810360208301526139868185612c6a565b90506139956040830184612ca2565b949350505050565b5f6139a78261281d565b91506139b28361281d565b92508282019050808211156139ca576139c96135f6565b5b9291505056fea264697066735822122033720d8ff4a53facfb1f5df1716a3dc76a6efb6c80f2be6104d3a700bed20e4264736f6c63430008140033",
  "immutableReferences": {},
  "source": "// SPDX-License-Identifier: MIT\r\npragma solidity ^0.8.19;\r\n\r\ncontract Doctor {\r\n    struct DoctorDetails {\r\n        uint256 doctorId;\r\n        string name;\r\n        string specialization;\r\n        string email;\r\n        uint256[] patientIds; // NEW: List of patients linked to this doctor\r\n    }\r\n\r\n    struct DocumentAccess {\r\n        address patient;\r\n        string ipfsHash;\r\n        string fileName;\r\n        bool hasAccess;\r\n        uint256 grantTime;\r\n        uint256 duration;\r\n        string reason; // NEW: Purpose of access\r\n        bool isEmergency; // NEW: Emergency flag\r\n    }\r\n\r\n    mapping(address => uint256) public walletToDoctorId;\r\n    mapping(uint256 => DoctorDetails) public doctors;\r\n    mapping(uint256 => DocumentAccess[]) public doctorAccessList;\r\n\r\n    uint256 private doctorIdCounter;\r\n\r\n    // --- EVENTS ---\r\n    event AccessRequested(\r\n        address indexed patient,\r\n        address indexed doctor,\r\n        string ipfsHash,\r\n        string fileName,\r\n        uint256 duration,\r\n        string reason\r\n    );\r\n    event AccessGranted(\r\n        address indexed patient,\r\n        address indexed doctor,\r\n        string ipfsHash,\r\n        uint256 grantTime,\r\n        uint256 duration\r\n    );\r\n    event AccessRevoked(\r\n        address indexed patient,\r\n        address indexed doctor,\r\n        string ipfsHash,\r\n        uint256 revokeTime\r\n    );\r\n    event PatientAdded(\r\n        uint256 indexed doctorId,\r\n        uint256 indexed patientId,\r\n        address indexed doctor\r\n    );\r\n    event EmergencyAccessGranted(\r\n        address indexed doctor,\r\n        address indexed patient,\r\n        string ipfsHash,\r\n        string reason,\r\n        uint256 timestamp\r\n    );\r\n\r\n    function registerDoctor(\r\n        string memory _name,\r\n        string memory _specialization,\r\n        string memory _hospital\r\n    ) public {\r\n        require(walletToDoctorId[msg.sender] == 0, \"Doctor already registered\");\r\n        doctorIdCounter++;\r\n        walletToDoctorId[msg.sender] = doctorIdCounter;\r\n\r\n        DoctorDetails storage newDoctor = doctors[doctorIdCounter];\r\n        newDoctor.doctorId = doctorIdCounter;\r\n        newDoctor.name = _name;\r\n        newDoctor.specialization = _specialization;\r\n        newDoctor.email = _hospital;\r\n    }\r\n\r\n    function addPatient(uint256 _patientId) public {\r\n        uint256 doctorId = walletToDoctorId[msg.sender];\r\n        require(doctorId != 0, \"Doctor not registered\");\r\n\r\n        bool exists = false;\r\n        for (uint i = 0; i < doctors[doctorId].patientIds.length; i++) {\r\n            if (doctors[doctorId].patientIds[i] == _patientId) {\r\n                exists = true;\r\n                break;\r\n            }\r\n        }\r\n        require(!exists, \"Patient already added\");\r\n\r\n        doctors[doctorId].patientIds.push(_patientId);\r\n        emit PatientAdded(doctorId, _patientId, msg.sender);\r\n    }\r\n\r\n    function getDoctorPatients() public view returns (uint256[] memory) {\r\n        uint256 doctorId = walletToDoctorId[msg.sender];\r\n        require(doctorId != 0, \"Doctor not registered\");\r\n        return doctors[doctorId].patientIds;\r\n    }\r\n\r\n    function hasAccessToDocument(\r\n        address _patient,\r\n        string memory _ipfsHash\r\n    ) public view returns (bool) {\r\n        uint256 doctorId = walletToDoctorId[msg.sender];\r\n        require(doctorId != 0, \"Doctor not registered\");\r\n\r\n        DocumentAccess[] memory accessList = doctorAccessList[doctorId];\r\n        for (uint256 i = 0; i < accessList.length; i++) {\r\n            if (\r\n                accessList[i].patient == _patient &&\r\n                keccak256(abi.encodePacked(accessList[i].ipfsHash)) ==\r\n                keccak256(abi.encodePacked(_ipfsHash)) &&\r\n                accessList[i].hasAccess\r\n            ) {\r\n                // Check for expiration\r\n                if (\r\n                    block.timestamp >\r\n                    accessList[i].grantTime + accessList[i].duration\r\n                ) {\r\n                    return false;\r\n                }\r\n                return true;\r\n            }\r\n        }\r\n        return false;\r\n    }\r\n\r\n    function requestAccess(\r\n        address _patient,\r\n        string memory _ipfsHash,\r\n        string memory _fileName,\r\n        uint256 _duration,\r\n        string memory _reason\r\n    ) public {\r\n        uint256 doctorId = walletToDoctorId[msg.sender];\r\n        require(doctorId != 0, \"Doctor not registered\");\r\n\r\n        doctorAccessList[doctorId].push(\r\n            DocumentAccess({\r\n                patient: _patient,\r\n                ipfsHash: _ipfsHash,\r\n                fileName: _fileName,\r\n                hasAccess: false,\r\n                grantTime: 0,\r\n                duration: _duration,\r\n                reason: _reason,\r\n                isEmergency: false\r\n            })\r\n        );\r\n\r\n        emit AccessRequested(\r\n            _patient,\r\n            msg.sender,\r\n            _ipfsHash,\r\n            _fileName,\r\n            _duration,\r\n            _reason\r\n        );\r\n    }\r\n\r\n    function emergencyBreakGlass(\r\n        address _patient,\r\n        string memory _ipfsHash,\r\n        string memory _fileName,\r\n        string memory _reason\r\n    ) public {\r\n        uint256 doctorId = walletToDoctorId[msg.sender];\r\n        require(doctorId != 0, \"Doctor not registered\");\r\n\r\n        doctorAccessList[doctorId].push(\r\n            DocumentAccess({\r\n                patient: _patient,\r\n                ipfsHash: _ipfsHash,\r\n                fileName: _fileName,\r\n                hasAccess: true, // Auto Grant\r\n                grantTime: block.timestamp,\r\n                duration: 24 hours, // Fixed duration for emergency\r\n                reason: _reason,\r\n                isEmergency: true\r\n            })\r\n        );\r\n\r\n        emit EmergencyAccessGranted(\r\n            msg.sender,\r\n            _patient,\r\n            _ipfsHash,\r\n            _reason,\r\n            block.timestamp\r\n        );\r\n    }\r\n\r\n    function grantAccess(\r\n        address _doctor,\r\n        string memory _ipfsHash,\r\n        uint256 _duration\r\n    ) public {\r\n        uint256 doctorId = walletToDoctorId[_doctor];\r\n        require(doctorId != 0, \"Doctor not registered\");\r\n\r\n        DocumentAccess[] storage accessList = doctorAccessList[doctorId];\r\n        for (uint256 i = 0; i < accessList.length; i++) {\r\n            if (\r\n                accessList[i].patient == msg.sender &&\r\n                keccak256(abi.encodePacked(accessList[i].ipfsHash)) ==\r\n                keccak256(abi.encodePacked(_ipfsHash))\r\n            ) {\r\n                accessList[i].hasAccess = true;\r\n                accessList[i].grantTime = block.timestamp;\r\n                accessList[i].duration = _duration; // Update with confirmed duration\r\n\r\n                emit AccessGranted(\r\n                    msg.sender,\r\n                    _doctor,\r\n                    _ipfsHash,\r\n                    block.timestamp,\r\n                    _duration\r\n                );\r\n                return;\r\n            }\r\n        }\r\n        revert(\"Access request not found\");\r\n    }\r\n\r\n    function revokeAccess(address _doctor, string memory _ipfsHash) public {\r\n        uint256 doctorId = walletToDoctorId[_doctor];\r\n        require(doctorId != 0, \"Doctor not registered\");\r\n\r\n        DocumentAccess[] storage accessList = doctorAccessList[doctorId];\r\n        for (uint256 i = 0; i < accessList.length; i++) {\r\n            if (\r\n                accessList[i].patient == msg.sender &&\r\n                keccak256(abi.encodePacked(accessList[i].ipfsHash)) ==\r\n                keccak256(abi.encodePacked(_ipfsHash))\r\n            ) {\r\n                accessList[i].hasAccess = false;\r\n                emit AccessRevoked(\r\n                    msg.sender,\r\n                    _doctor,\r\n                    _ipfsHash,\r\n                    block.timestamp\r\n                );\r\n                return;\r\n            }\r\n        }\r\n        revert(\"Access record not found\");\r\n    }\r\n\r\n    // --- GETTERS ---\r\n    function getAccessList() public view returns (DocumentAccess[] memory) {\r\n        uint256 doctorId = walletToDoctorId[msg.sender];\r\n        require(doctorId != 0, \"Doctor not registered\");\r\n        return doctorAccessList[doctorId];\r\n    }\r\n\r\n    function getPatients() public view returns (DoctorDetails[] memory) {\r\n        uint256 doctorId = walletToDoctorId[msg.sender];\r\n        require(doctorId != 0, \"Doctor not registered\");\r\n\r\n        DocumentAccess[] memory accessList = doctorAccessList[doctorId];\r\n        DoctorDetails[] memory patients = new DoctorDetails[](\r\n            accessList.length\r\n        );\r\n        uint256 count = 0;\r\n\r\n        for (uint256 i = 0; i < accessList.length; i++) {\r\n            if (accessList[i].hasAccess) {\r\n                patients[count] = doctors[doctorId];\r\n                count++;\r\n            }\r\n        }\r\n\r\n        return patients;\r\n    }\r\n\r\n    function doctorExists(address walletAddress) public view returns (bool) {\r\n        return walletToDoctorId[walletAddress] != 0;\r\n    }\r\n\r\n    function getAllDoctors() public view returns (DoctorDetails[] memory) {\r\n        uint256 total = doctorIdCounter;\r\n        DoctorDetails[] memory list = new DoctorDetails[](total);\r\n\r\n        for (uint256 i = 0; i < total; i++) {\r\n            list[i] = doctors[i + 1];\r\n        }\r\n\r\n        return list;\r\n    }\r\n}\r\n",
  "sourcePath": "J:\\Users\\ayush\\Desktop\\code\\team-rocket-medi-secure\\contracts\\contracts\\Doctor.sol",
  "compiler": {
    "name": "solc",
    "version": "0.8.20+commit.a1b79de6.Emscripten.clang"
  },
  "schemaVersion": "3.4.16",
  "updatedAt": "2026-01-17T16:43:56.748Z",
  "networkType": "ethereum",
  "devdoc": {
    "kind": "dev",
    "methods": {},
    "version": 1
  },
  "userdoc": {
    "kind": "user",
    "methods": {},
    "version": 1
  }
}