{
  "contractName": "Patient",
  "abi": [
    {
      "inputs": [
        {
          "internalType": "address",
          "name": "_forwarder",
          "type": "address"
        }
      ],
      "stateMutability": "nonpayable",
      "type": "constructor"
    },
    {
      "inputs": [
        {
          "internalType": "address",
          "name": "target",
          "type": "address"
        }
      ],
      "name": "AddressEmptyCode",
      "type": "error"
    },
    {
      "inputs": [],
      "name": "ECDSAInvalidSignature",
      "type": "error"
    },
    {
      "inputs": [
        {
          "internalType": "uint256",
          "name": "length",
          "type": "uint256"
        }
      ],
      "name": "ECDSAInvalidSignatureLength",
      "type": "error"
    },
    {
      "inputs": [
        {
          "internalType": "bytes32",
          "name": "s",
          "type": "bytes32"
        }
      ],
      "name": "ECDSAInvalidSignatureS",
      "type": "error"
    },
    {
      "inputs": [
        {
          "internalType": "address",
          "name": "implementation",
          "type": "address"
        }
      ],
      "name": "ERC1967InvalidImplementation",
      "type": "error"
    },
    {
      "inputs": [],
      "name": "ERC1967NonPayable",
      "type": "error"
    },
    {
      "inputs": [
        {
          "internalType": "address",
          "name": "sender",
          "type": "address"
        },
        {
          "internalType": "uint256",
          "name": "tokenId",
          "type": "uint256"
        },
        {
          "internalType": "address",
          "name": "owner",
          "type": "address"
        }
      ],
      "name": "ERC721IncorrectOwner",
      "type": "error"
    },
    {
      "inputs": [
        {
          "internalType": "address",
          "name": "operator",
          "type": "address"
        },
        {
          "internalType": "uint256",
          "name": "tokenId",
          "type": "uint256"
        }
      ],
      "name": "ERC721InsufficientApproval",
      "type": "error"
    },
    {
      "inputs": [
        {
          "internalType": "address",
          "name": "approver",
          "type": "address"
        }
      ],
      "name": "ERC721InvalidApprover",
      "type": "error"
    },
    {
      "inputs": [
        {
          "internalType": "address",
          "name": "operator",
          "type": "address"
        }
      ],
      "name": "ERC721InvalidOperator",
      "type": "error"
    },
    {
      "inputs": [
        {
          "internalType": "address",
          "name": "owner",
          "type": "address"
        }
      ],
      "name": "ERC721InvalidOwner",
      "type": "error"
    },
    {
      "inputs": [
        {
          "internalType": "address",
          "name": "receiver",
          "type": "address"
        }
      ],
      "name": "ERC721InvalidReceiver",
      "type": "error"
    },
    {
      "inputs": [
        {
          "internalType": "address",
          "name": "sender",
          "type": "address"
        }
      ],
      "name": "ERC721InvalidSender",
      "type": "error"
    },
    {
      "inputs": [
        {
          "internalType": "uint256",
          "name": "tokenId",
          "type": "uint256"
        }
      ],
      "name": "ERC721NonexistentToken",
      "type": "error"
    },
    {
      "inputs": [],
      "name": "EnforcedPause",
      "type": "error"
    },
    {
      "inputs": [],
      "name": "ExpectedPause",
      "type": "error"
    },
    {
      "inputs": [],
      "name": "FailedInnerCall",
      "type": "error"
    },
    {
      "inputs": [],
      "name": "InvalidInitialization",
      "type": "error"
    },
    {
      "inputs": [],
      "name": "NotInitializing",
      "type": "error"
    },
    {
      "inputs": [],
      "name": "ReentrancyGuardReentrantCall",
      "type": "error"
    },
    {
      "inputs": [],
      "name": "UUPSUnauthorizedCallContext",
      "type": "error"
    },
    {
      "inputs": [
        {
          "internalType": "bytes32",
          "name": "slot",
          "type": "bytes32"
        }
      ],
      "name": "UUPSUnsupportedProxiableUUID",
      "type": "error"
    },
    {
      "anonymous": false,
      "inputs": [
        {
          "indexed": true,
          "internalType": "address",
          "name": "owner",
          "type": "address"
        },
        {
          "indexed": true,
          "internalType": "address",
          "name": "approved",
          "type": "address"
        },
        {
          "indexed": true,
          "internalType": "uint256",
          "name": "tokenId",
          "type": "uint256"
        }
      ],
      "name": "Approval",
      "type": "event"
    },
    {
      "anonymous": false,
      "inputs": [
        {
          "indexed": true,
          "internalType": "address",
          "name": "owner",
          "type": "address"
        },
        {
          "indexed": true,
          "internalType": "address",
          "name": "operator",
          "type": "address"
        },
        {
          "indexed": false,
          "internalType": "bool",
          "name": "approved",
          "type": "bool"
        }
      ],
      "name": "ApprovalForAll",
      "type": "event"
    },
    {
      "anonymous": false,
      "inputs": [
        {
          "indexed": true,
          "internalType": "address",
          "name": "patient",
          "type": "address"
        },
        {
          "indexed": true,
          "internalType": "address",
          "name": "doctor",
          "type": "address"
        },
        {
          "indexed": false,
          "internalType": "uint256",
          "name": "tokenId",
          "type": "uint256"
        }
      ],
      "name": "ConsentGranted",
      "type": "event"
    },
    {
      "anonymous": false,
      "inputs": [
        {
          "indexed": true,
          "internalType": "address",
          "name": "patient",
          "type": "address"
        },
        {
          "indexed": false,
          "internalType": "uint256",
          "name": "tokenId",
          "type": "uint256"
        }
      ],
      "name": "ConsentRevoked",
      "type": "event"
    },
    {
      "anonymous": false,
      "inputs": [],
      "name": "EIP712DomainChanged",
      "type": "event"
    },
    {
      "anonymous": false,
      "inputs": [
        {
          "indexed": false,
          "internalType": "uint64",
          "name": "version",
          "type": "uint64"
        }
      ],
      "name": "Initialized",
      "type": "event"
    },
    {
      "anonymous": false,
      "inputs": [
        {
          "indexed": true,
          "internalType": "uint256",
          "name": "patientId",
          "type": "uint256"
        },
        {
          "indexed": false,
          "internalType": "uint256",
          "name": "tokenId",
          "type": "uint256"
        },
        {
          "indexed": false,
          "internalType": "string",
          "name": "ipfsHash",
          "type": "string"
        }
      ],
      "name": "MedicalRecordAdded",
      "type": "event"
    },
    {
      "anonymous": false,
      "inputs": [
        {
          "indexed": true,
          "internalType": "uint256",
          "name": "patientId",
          "type": "uint256"
        },
        {
          "indexed": true,
          "internalType": "address",
          "name": "wallet",
          "type": "address"
        },
        {
          "indexed": false,
          "internalType": "string",
          "name": "username",
          "type": "string"
        }
      ],
      "name": "PatientRegistered",
      "type": "event"
    },
    {
      "anonymous": false,
      "inputs": [
        {
          "indexed": false,
          "internalType": "address",
          "name": "account",
          "type": "address"
        }
      ],
      "name": "Paused",
      "type": "event"
    },
    {
      "anonymous": false,
      "inputs": [
        {
          "indexed": true,
          "internalType": "address",
          "name": "from",
          "type": "address"
        },
        {
          "indexed": true,
          "internalType": "address",
          "name": "to",
          "type": "address"
        },
        {
          "indexed": true,
          "internalType": "uint256",
          "name": "tokenId",
          "type": "uint256"
        }
      ],
      "name": "Transfer",
      "type": "event"
    },
    {
      "anonymous": false,
      "inputs": [
        {
          "indexed": false,
          "internalType": "address",
          "name": "account",
          "type": "address"
        }
      ],
      "name": "Unpaused",
      "type": "event"
    },
    {
      "anonymous": false,
      "inputs": [
        {
          "indexed": true,
          "internalType": "address",
          "name": "implementation",
          "type": "address"
        }
      ],
      "name": "Upgraded",
      "type": "event"
    },
    {
      "inputs": [],
      "name": "UPGRADE_INTERFACE_VERSION",
      "outputs": [
        {
          "internalType": "string",
          "name": "",
          "type": "string"
        }
      ],
      "stateMutability": "view",
      "type": "function",
      "constant": true
    },
    {
      "inputs": [],
      "name": "accessControl",
      "outputs": [
        {
          "internalType": "contract MediSecureAccessControl",
          "name": "",
          "type": "address"
        }
      ],
      "stateMutability": "view",
      "type": "function",
      "constant": true
    },
    {
      "inputs": [
        {
          "internalType": "address",
          "name": "to",
          "type": "address"
        },
        {
          "internalType": "uint256",
          "name": "tokenId",
          "type": "uint256"
        }
      ],
      "name": "approve",
      "outputs": [],
      "stateMutability": "nonpayable",
      "type": "function"
    },
    {
      "inputs": [
        {
          "internalType": "address",
          "name": "owner",
          "type": "address"
        }
      ],
      "name": "balanceOf",
      "outputs": [
        {
          "internalType": "uint256",
          "name": "",
          "type": "uint256"
        }
      ],
      "stateMutability": "view",
      "type": "function",
      "constant": true
    },
    {
      "inputs": [],
      "name": "consentSBT",
      "outputs": [
        {
          "internalType": "contract ConsentSBT",
          "name": "",
          "type": "address"
        }
      ],
      "stateMutability": "view",
      "type": "function",
      "constant": true
    },
    {
      "inputs": [],
      "name": "eip712Domain",
      "outputs": [
        {
          "internalType": "bytes1",
          "name": "fields",
          "type": "bytes1"
        },
        {
          "internalType": "string",
          "name": "name",
          "type": "string"
        },
        {
          "internalType": "string",
          "name": "version",
          "type": "string"
        },
        {
          "internalType": "uint256",
          "name": "chainId",
          "type": "uint256"
        },
        {
          "internalType": "address",
          "name": "verifyingContract",
          "type": "address"
        },
        {
          "internalType": "bytes32",
          "name": "salt",
          "type": "bytes32"
        },
        {
          "internalType": "uint256[]",
          "name": "extensions",
          "type": "uint256[]"
        }
      ],
      "stateMutability": "view",
      "type": "function",
      "constant": true
    },
    {
      "inputs": [
        {
          "internalType": "address",
          "name": "",
          "type": "address"
        }
      ],
      "name": "emergencyAccessHashes",
      "outputs": [
        {
          "internalType": "bytes32",
          "name": "",
          "type": "bytes32"
        }
      ],
      "stateMutability": "view",
      "type": "function",
      "constant": true
    },
    {
      "inputs": [
        {
          "internalType": "uint256",
          "name": "tokenId",
          "type": "uint256"
        }
      ],
      "name": "getApproved",
      "outputs": [
        {
          "internalType": "address",
          "name": "",
          "type": "address"
        }
      ],
      "stateMutability": "view",
      "type": "function",
      "constant": true
    },
    {
      "inputs": [
        {
          "internalType": "bytes32",
          "name": "role",
          "type": "bytes32"
        },
        {
          "internalType": "address",
          "name": "account",
          "type": "address"
        }
      ],
      "name": "hasRole",
      "outputs": [
        {
          "internalType": "bool",
          "name": "",
          "type": "bool"
        }
      ],
      "stateMutability": "view",
      "type": "function",
      "constant": true
    },
    {
      "inputs": [
        {
          "internalType": "enum Roles",
          "name": "role",
          "type": "uint8"
        },
        {
          "internalType": "address",
          "name": "account",
          "type": "address"
        }
      ],
      "name": "hasRole",
      "outputs": [
        {
          "internalType": "bool",
          "name": "",
          "type": "bool"
        }
      ],
      "stateMutability": "view",
      "type": "function",
      "constant": true
    },
    {
      "inputs": [
        {
          "internalType": "address",
          "name": "account",
          "type": "address"
        }
      ],
      "name": "isAdmin",
      "outputs": [
        {
          "internalType": "bool",
          "name": "",
          "type": "bool"
        }
      ],
      "stateMutability": "view",
      "type": "function",
      "constant": true
    },
    {
      "inputs": [
        {
          "internalType": "address",
          "name": "owner",
          "type": "address"
        },
        {
          "internalType": "address",
          "name": "operator",
          "type": "address"
        }
      ],
      "name": "isApprovedForAll",
      "outputs": [
        {
          "internalType": "bool",
          "name": "",
          "type": "bool"
        }
      ],
      "stateMutability": "view",
      "type": "function",
      "constant": true
    },
    {
      "inputs": [
        {
          "internalType": "address",
          "name": "forwarder",
          "type": "address"
        }
      ],
      "name": "isTrustedForwarder",
      "outputs": [
        {
          "internalType": "bool",
          "name": "",
          "type": "bool"
        }
      ],
      "stateMutability": "view",
      "type": "function",
      "constant": true
    },
    {
      "inputs": [],
      "name": "name",
      "outputs": [
        {
          "internalType": "string",
          "name": "",
          "type": "string"
        }
      ],
      "stateMutability": "view",
      "type": "function",
      "constant": true
    },
    {
      "inputs": [
        {
          "internalType": "address",
          "name": "",
          "type": "address"
        }
      ],
      "name": "nonces",
      "outputs": [
        {
          "internalType": "uint256",
          "name": "",
          "type": "uint256"
        }
      ],
      "stateMutability": "view",
      "type": "function",
      "constant": true
    },
    {
      "inputs": [
        {
          "internalType": "uint256",
          "name": "tokenId",
          "type": "uint256"
        }
      ],
      "name": "ownerOf",
      "outputs": [
        {
          "internalType": "address",
          "name": "",
          "type": "address"
        }
      ],
      "stateMutability": "view",
      "type": "function",
      "constant": true
    },
    {
      "inputs": [],
      "name": "patientCount",
      "outputs": [
        {
          "internalType": "uint256",
          "name": "",
          "type": "uint256"
        }
      ],
      "stateMutability": "view",
      "type": "function",
      "constant": true
    },
    {
      "inputs": [
        {
          "internalType": "uint256",
          "name": "",
          "type": "uint256"
        },
        {
          "internalType": "uint256",
          "name": "",
          "type": "uint256"
        }
      ],
      "name": "patientNominees",
      "outputs": [
        {
          "internalType": "string",
          "name": "name",
          "type": "string"
        },
        {
          "internalType": "address",
          "name": "walletAddress",
          "type": "address"
        },
        {
          "internalType": "string",
          "name": "relationship",
          "type": "string"
        },
        {
          "internalType": "string",
          "name": "contactNumber",
          "type": "string"
        }
      ],
      "stateMutability": "view",
      "type": "function",
      "constant": true
    },
    {
      "inputs": [
        {
          "internalType": "uint256",
          "name": "",
          "type": "uint256"
        },
        {
          "internalType": "uint256",
          "name": "",
          "type": "uint256"
        }
      ],
      "name": "patientRecords",
      "outputs": [
        {
          "internalType": "uint256",
          "name": "tokenId",
          "type": "uint256"
        },
        {
          "internalType": "string",
          "name": "ipfsHash",
          "type": "string"
        },
        {
          "internalType": "string",
          "name": "fileName",
          "type": "string"
        },
        {
          "internalType": "string",
          "name": "recordDate",
          "type": "string"
        },
        {
          "internalType": "string",
          "name": "hospital",
          "type": "string"
        },
        {
          "internalType": "bool",
          "name": "isEmergencyViewable",
          "type": "bool"
        }
      ],
      "stateMutability": "view",
      "type": "function",
      "constant": true
    },
    {
      "inputs": [
        {
          "internalType": "uint256",
          "name": "",
          "type": "uint256"
        }
      ],
      "name": "patients",
      "outputs": [
        {
          "internalType": "uint256",
          "name": "patientId",
          "type": "uint256"
        },
        {
          "internalType": "string",
          "name": "username",
          "type": "string"
        },
        {
          "internalType": "string",
          "name": "name",
          "type": "string"
        },
        {
          "internalType": "address",
          "name": "walletAddress",
          "type": "address"
        },
        {
          "internalType": "string",
          "name": "email",
          "type": "string"
        },
        {
          "internalType": "uint256",
          "name": "age",
          "type": "uint256"
        },
        {
          "internalType": "string",
          "name": "bloodGroup",
          "type": "string"
        }
      ],
      "stateMutability": "view",
      "type": "function",
      "constant": true
    },
    {
      "inputs": [],
      "name": "paused",
      "outputs": [
        {
          "internalType": "bool",
          "name": "",
          "type": "bool"
        }
      ],
      "stateMutability": "view",
      "type": "function",
      "constant": true
    },
    {
      "inputs": [],
      "name": "proxiableUUID",
      "outputs": [
        {
          "internalType": "bytes32",
          "name": "",
          "type": "bytes32"
        }
      ],
      "stateMutability": "view",
      "type": "function",
      "constant": true
    },
    {
      "inputs": [
        {
          "internalType": "address",
          "name": "from",
          "type": "address"
        },
        {
          "internalType": "address",
          "name": "to",
          "type": "address"
        },
        {
          "internalType": "uint256",
          "name": "tokenId",
          "type": "uint256"
        }
      ],
      "name": "safeTransferFrom",
      "outputs": [],
      "stateMutability": "nonpayable",
      "type": "function"
    },
    {
      "inputs": [
        {
          "internalType": "address",
          "name": "from",
          "type": "address"
        },
        {
          "internalType": "address",
          "name": "to",
          "type": "address"
        },
        {
          "internalType": "uint256",
          "name": "tokenId",
          "type": "uint256"
        },
        {
          "internalType": "bytes",
          "name": "data",
          "type": "bytes"
        }
      ],
      "name": "safeTransferFrom",
      "outputs": [],
      "stateMutability": "nonpayable",
      "type": "function"
    },
    {
      "inputs": [
        {
          "internalType": "address",
          "name": "operator",
          "type": "address"
        },
        {
          "internalType": "bool",
          "name": "approved",
          "type": "bool"
        }
      ],
      "name": "setApprovalForAll",
      "outputs": [],
      "stateMutability": "nonpayable",
      "type": "function"
    },
    {
      "inputs": [
        {
          "internalType": "bytes4",
          "name": "interfaceId",
          "type": "bytes4"
        }
      ],
      "name": "supportsInterface",
      "outputs": [
        {
          "internalType": "bool",
          "name": "",
          "type": "bool"
        }
      ],
      "stateMutability": "view",
      "type": "function",
      "constant": true
    },
    {
      "inputs": [],
      "name": "symbol",
      "outputs": [
        {
          "internalType": "string",
          "name": "",
          "type": "string"
        }
      ],
      "stateMutability": "view",
      "type": "function",
      "constant": true
    },
    {
      "inputs": [
        {
          "internalType": "uint256",
          "name": "tokenId",
          "type": "uint256"
        }
      ],
      "name": "tokenURI",
      "outputs": [
        {
          "internalType": "string",
          "name": "",
          "type": "string"
        }
      ],
      "stateMutability": "view",
      "type": "function",
      "constant": true
    },
    {
      "inputs": [
        {
          "internalType": "address",
          "name": "from",
          "type": "address"
        },
        {
          "internalType": "address",
          "name": "to",
          "type": "address"
        },
        {
          "internalType": "uint256",
          "name": "tokenId",
          "type": "uint256"
        }
      ],
      "name": "transferFrom",
      "outputs": [],
      "stateMutability": "nonpayable",
      "type": "function"
    },
    {
      "inputs": [],
      "name": "trustedForwarder",
      "outputs": [
        {
          "internalType": "address",
          "name": "",
          "type": "address"
        }
      ],
      "stateMutability": "view",
      "type": "function",
      "constant": true
    },
    {
      "inputs": [
        {
          "internalType": "address",
          "name": "newImplementation",
          "type": "address"
        },
        {
          "internalType": "bytes",
          "name": "data",
          "type": "bytes"
        }
      ],
      "name": "upgradeToAndCall",
      "outputs": [],
      "stateMutability": "payable",
      "type": "function",
      "payable": true
    },
    {
      "inputs": [
        {
          "internalType": "string",
          "name": "",
          "type": "string"
        }
      ],
      "name": "usernameToPatientId",
      "outputs": [
        {
          "internalType": "uint256",
          "name": "",
          "type": "uint256"
        }
      ],
      "stateMutability": "view",
      "type": "function",
      "constant": true
    },
    {
      "inputs": [
        {
          "internalType": "address",
          "name": "",
          "type": "address"
        }
      ],
      "name": "walletToPatientId",
      "outputs": [
        {
          "internalType": "uint256",
          "name": "",
          "type": "uint256"
        }
      ],
      "stateMutability": "view",
      "type": "function",
      "constant": true
    },
    {
      "inputs": [
        {
          "internalType": "address",
          "name": "_accessControl",
          "type": "address"
        },
        {
          "internalType": "address",
          "name": "_sbt",
          "type": "address"
        }
      ],
      "name": "initialize",
      "outputs": [],
      "stateMutability": "nonpayable",
      "type": "function"
    },
    {
      "inputs": [
        {
          "internalType": "string",
          "name": "_username",
          "type": "string"
        },
        {
          "internalType": "string",
          "name": "_name",
          "type": "string"
        },
        {
          "internalType": "string",
          "name": "_email",
          "type": "string"
        },
        {
          "internalType": "uint256",
          "name": "_age",
          "type": "uint256"
        },
        {
          "internalType": "string",
          "name": "_bloodGroup",
          "type": "string"
        }
      ],
      "name": "registerPatient",
      "outputs": [],
      "stateMutability": "nonpayable",
      "type": "function"
    },
    {
      "inputs": [
        {
          "internalType": "string",
          "name": "_ipfsHash",
          "type": "string"
        },
        {
          "internalType": "string",
          "name": "_fileName",
          "type": "string"
        },
        {
          "internalType": "string",
          "name": "_recordDate",
          "type": "string"
        },
        {
          "internalType": "string",
          "name": "_hospital",
          "type": "string"
        },
        {
          "internalType": "bool",
          "name": "_isEmergencyViewable",
          "type": "bool"
        }
      ],
      "name": "addMedicalRecord",
      "outputs": [],
      "stateMutability": "nonpayable",
      "type": "function"
    },
    {
      "inputs": [
        {
          "internalType": "address",
          "name": "doctor",
          "type": "address"
        },
        {
          "internalType": "string",
          "name": "metadataURI",
          "type": "string"
        }
      ],
      "name": "grantConsent",
      "outputs": [],
      "stateMutability": "nonpayable",
      "type": "function"
    },
    {
      "inputs": [
        {
          "internalType": "address",
          "name": "doctor",
          "type": "address"
        },
        {
          "internalType": "string",
          "name": "metadataURI",
          "type": "string"
        },
        {
          "internalType": "address",
          "name": "patient",
          "type": "address"
        },
        {
          "internalType": "bytes",
          "name": "signature",
          "type": "bytes"
        }
      ],
      "name": "grantConsentWithSignature",
      "outputs": [],
      "stateMutability": "nonpayable",
      "type": "function"
    },
    {
      "inputs": [
        {
          "internalType": "uint256",
          "name": "tokenId",
          "type": "uint256"
        }
      ],
      "name": "revokeConsent",
      "outputs": [],
      "stateMutability": "nonpayable",
      "type": "function"
    },
    {
      "inputs": [
        {
          "internalType": "bytes32",
          "name": "_hash",
          "type": "bytes32"
        }
      ],
      "name": "setEmergencyAccessHash",
      "outputs": [],
      "stateMutability": "nonpayable",
      "type": "function"
    },
    {
      "inputs": [
        {
          "internalType": "uint256",
          "name": "index",
          "type": "uint256"
        }
      ],
      "name": "toggleEmergencyVisibility",
      "outputs": [],
      "stateMutability": "nonpayable",
      "type": "function"
    },
    {
      "inputs": [
        {
          "internalType": "string",
          "name": "_name",
          "type": "string"
        },
        {
          "internalType": "address",
          "name": "_wallet",
          "type": "address"
        },
        {
          "internalType": "string",
          "name": "_relationship",
          "type": "string"
        },
        {
          "internalType": "string",
          "name": "_contactNumber",
          "type": "string"
        }
      ],
      "name": "addNominee",
      "outputs": [],
      "stateMutability": "nonpayable",
      "type": "function"
    },
    {
      "inputs": [
        {
          "internalType": "uint256",
          "name": "pId",
          "type": "uint256"
        }
      ],
      "name": "getNominees",
      "outputs": [
        {
          "components": [
            {
              "internalType": "string",
              "name": "name",
              "type": "string"
            },
            {
              "internalType": "address",
              "name": "walletAddress",
              "type": "address"
            },
            {
              "internalType": "string",
              "name": "relationship",
              "type": "string"
            },
            {
              "internalType": "string",
              "name": "contactNumber",
              "type": "string"
            }
          ],
          "internalType": "struct Patient.Nominee[]",
          "name": "",
          "type": "tuple[]"
        }
      ],
      "stateMutability": "view",
      "type": "function",
      "constant": true
    },
    {
      "inputs": [
        {
          "internalType": "address",
          "name": "patient",
          "type": "address"
        }
      ],
      "name": "getPatientMedicalRecords",
      "outputs": [
        {
          "components": [
            {
              "internalType": "uint256",
              "name": "tokenId",
              "type": "uint256"
            },
            {
              "internalType": "string",
              "name": "ipfsHash",
              "type": "string"
            },
            {
              "internalType": "string",
              "name": "fileName",
              "type": "string"
            },
            {
              "internalType": "string",
              "name": "recordDate",
              "type": "string"
            },
            {
              "internalType": "string",
              "name": "hospital",
              "type": "string"
            },
            {
              "internalType": "bool",
              "name": "isEmergencyViewable",
              "type": "bool"
            }
          ],
          "internalType": "struct Patient.MedicalRecord[]",
          "name": "",
          "type": "tuple[]"
        }
      ],
      "stateMutability": "view",
      "type": "function",
      "constant": true
    },
    {
      "inputs": [
        {
          "internalType": "uint256",
          "name": "pId",
          "type": "uint256"
        }
      ],
      "name": "getPatientDetails",
      "outputs": [
        {
          "components": [
            {
              "internalType": "uint256",
              "name": "patientId",
              "type": "uint256"
            },
            {
              "internalType": "string",
              "name": "username",
              "type": "string"
            },
            {
              "internalType": "string",
              "name": "name",
              "type": "string"
            },
            {
              "internalType": "address",
              "name": "walletAddress",
              "type": "address"
            },
            {
              "internalType": "string",
              "name": "email",
              "type": "string"
            },
            {
              "internalType": "uint256",
              "name": "age",
              "type": "uint256"
            },
            {
              "internalType": "string",
              "name": "bloodGroup",
              "type": "string"
            }
          ],
          "internalType": "struct Patient.PatientDetails",
          "name": "",
          "type": "tuple"
        }
      ],
      "stateMutability": "view",
      "type": "function",
      "constant": true
    },
    {
      "inputs": [
        {
          "internalType": "uint256",
          "name": "pId",
          "type": "uint256"
        }
      ],
      "name": "getMedicalRecords",
      "outputs": [
        {
          "components": [
            {
              "internalType": "uint256",
              "name": "tokenId",
              "type": "uint256"
            },
            {
              "internalType": "string",
              "name": "ipfsHash",
              "type": "string"
            },
            {
              "internalType": "string",
              "name": "fileName",
              "type": "string"
            },
            {
              "internalType": "string",
              "name": "recordDate",
              "type": "string"
            },
            {
              "internalType": "string",
              "name": "hospital",
              "type": "string"
            },
            {
              "internalType": "bool",
              "name": "isEmergencyViewable",
              "type": "bool"
            }
          ],
          "internalType": "struct Patient.MedicalRecord[]",
          "name": "",
          "type": "tuple[]"
        }
      ],
      "stateMutability": "view",
      "type": "function",
      "constant": true
    },
    {
      "inputs": [
        {
          "internalType": "address",
          "name": "account",
          "type": "address"
        }
      ],
      "name": "isRegistered",
      "outputs": [
        {
          "internalType": "bool",
          "name": "",
          "type": "bool"
        }
      ],
      "stateMutability": "view",
      "type": "function",
      "constant": true
    },
    {
      "inputs": [
        {
          "internalType": "address",
          "name": "account",
          "type": "address"
        }
      ],
      "name": "userExists",
      "outputs": [
        {
          "internalType": "bool",
          "name": "",
          "type": "bool"
        }
      ],
      "stateMutability": "view",
      "type": "function",
      "constant": true
    }
  ],
  "bytecode": "0x60c06040523060805234801562000014575f80fd5b5060405162004e0838038062004e08833981016040819052620000379162000049565b6001600160a01b031660a05262000078565b5f602082840312156200005a575f80fd5b81516001600160a01b038116811462000071575f80fd5b9392505050565b60805160a051614d52620000b65f395f81816105fc015281816106cd015261359401525f8181612fe60152818161300f01526132170152614d525ff3fe60806040526004361061028b575f3560e01c80635c975abb116101555780639e97b8f6116100be578063c87b56dd11610078578063c87b56dd146108d6578063d5b6ec7c146108f5578063e985e9c514610914578063f6ee0a2d14610933578063f920884014610952578063ffbcfac214610971575f80fd5b80639e97b8f6146107fe578063a0303c411461081d578063a22cb46514610832578063ad3cb1cc14610851578063b88d4fde14610881578063c3c5a547146108a0575f80fd5b806384b0196e1161010f57806384b0196e1461071c5780638590ed1914610743578063889732881461077a57806391d148541461079957806393119a83146107b857806395d89b41146107ea575f80fd5b80635c975abb1461062c5780636352211e146106625780636f3981ec1461068157806370a08231146106a05780637da0a877146106bf5780637ecebe00146106f1575f80fd5b806324d7806c116101f757806340cb1c5d116101b157806340cb1c5d1461055057806342842e0e1461057b578063485cc9551461059a5780634f1ef286146105b957806352d1902d146105cc578063572b6c05146105e0575f80fd5b806324d7806c1461045d57806325422a691461047c5780632d50aae3146104a8578063300c601c146104d45780633feb932c146105005780634035ae091461051f575f80fd5b806313007d551161024857806313007d551461038a578063161f821e146103a857806316a0042c146103c75780631f976131146103e657806323b872dd1461040557806323ecb05814610424575f80fd5b806301ffc9a71461028f57806306fdde03146102c3578063081812fc146102e4578063095ea7b31461031b5780630c5d6c9d1461033c5780630e666e491461036b575b5f80fd5b34801561029a575f80fd5b506102ae6102a9366004613f2d565b610990565b60405190151581526020015b60405180910390f35b3480156102ce575f80fd5b506102d76109e1565b6040516102ba9190613f95565b3480156102ef575f80fd5b506103036102fe366004613fa7565b610a82565b6040516001600160a01b0390911681526020016102ba565b348015610326575f80fd5b5061033a610335366004613fd9565b610a96565b005b348015610347575f80fd5b5061035b610356366004614001565b610aac565b6040516102ba9493929190614021565b348015610376575f80fd5b506102ae610385366004614073565b610c93565b348015610395575f80fd5b505f54610303906001600160a01b031681565b3480156103b3575f80fd5b5061033a6103c2366004613fa7565b610cb2565b3480156103d2575f80fd5b5061033a6103e1366004613fa7565b610d34565b3480156103f1575f80fd5b5061033a610400366004614128565b610de2565b348015610410575f80fd5b5061033a61041f3660046141ba565b610eeb565b34801561042f575f80fd5b5061044f61043e366004614073565b60366020525f908152604090205481565b6040519081526020016102ba565b348015610468575f80fd5b506102ae610477366004614073565b610f7b565b348015610487575f80fd5b5061049b610496366004614073565b610fec565b6040516102ba91906141f3565b3480156104b3575f80fd5b506104c76104c2366004613fa7565b6112c3565b6040516102ba91906142c5565b3480156104df575f80fd5b506104f36104ee366004613fa7565b6114eb565b6040516102ba919061436c565b34801561050b575f80fd5b5061033a61051a36600461444b565b6117be565b34801561052a575f80fd5b5061053e610539366004614001565b611969565b6040516102ba969594939291906144d8565b34801561055b575f80fd5b5061044f61056a366004614073565b60356020525f908152604090205481565b348015610586575f80fd5b5061033a6105953660046141ba565b611bd6565b3480156105a5575f80fd5b5061033a6105b4366004614540565b611bf5565b61033a6105c7366004614571565b611ddb565b3480156105d7575f80fd5b5061044f611df6565b3480156105eb575f80fd5b506102ae6105fa366004614073565b7f00000000000000000000000000000000000000000000000000000000000000006001600160a01b0390811691161490565b348015610637575f80fd5b507fcd5ed15c6e187e77e9aee88184c21f4f2182ab5827cb3b7e07fbedcd63f033005460ff166102ae565b34801561066d575f80fd5b5061030361067c366004613fa7565b611e11565b34801561068c575f80fd5b5061033a61069b3660046145c8565b611e1b565b3480156106ab575f80fd5b5061044f6106ba366004614073565b611fc0565b3480156106ca575f80fd5b507f0000000000000000000000000000000000000000000000000000000000000000610303565b3480156106fc575f80fd5b5061044f61070b366004614073565b60346020525f908152604090205481565b348015610727575f80fd5b50610730612018565b6040516102ba9796959493929190614681565b34801561074e575f80fd5b5061044f61075d366004614715565b805160208183018101805160378252928201919093012091525481565b348015610785575f80fd5b5061033a610794366004614571565b6120c1565b3480156107a4575f80fd5b506102ae6107b3366004614746565b6120db565b3480156107c3575f80fd5b506107d76107d2366004613fa7565b612156565b6040516102ba9796959493929190614767565b3480156107f5575f80fd5b506102d76123b7565b348015610809575f80fd5b506102ae6108183660046147dc565b6123f5565b348015610828575f80fd5b5061044f603a5481565b34801561083d575f80fd5b5061033a61084c3660046147fb565b612427565b34801561085c575f80fd5b506102d7604051806040016040528060058152602001640352e302e360dc1b81525081565b34801561088c575f80fd5b5061033a61089b366004614830565b612439565b3480156108ab575f80fd5b506102ae6108ba366004614073565b6001600160a01b03165f90815260366020526040902054151590565b3480156108e1575f80fd5b506102d76108f0366004613fa7565b612450565b348015610900575f80fd5b5061033a61090f366004613fa7565b6124c0565b34801561091f575f80fd5b506102ae61092e366004614540565b6125e4565b34801561093e575f80fd5b5061033a61094d366004614887565b612630565b34801561095d575f80fd5b50603254610303906001600160a01b031681565b34801561097c575f80fd5b5061049b61098b366004613fa7565b6128fd565b5f6001600160e01b031982166380ac58cd60e01b14806109c057506001600160e01b03198216635b5e139f60e01b145b806109db57506301ffc9a760e01b6001600160e01b03198316145b92915050565b5f80516020614cbd8339815191528054606091908190610a0090614935565b80601f0160208091040260200160405190810160405280929190818152602001828054610a2c90614935565b8015610a775780601f10610a4e57610100808354040283529160200191610a77565b820191905f5260205f20905b815481529060010190602001808311610a5a57829003601f168201915b505050505091505090565b5f610a8c82612bba565b506109db82612bf1565b610aa88282610aa3612c2a565b612c38565b5050565b603d602052815f5260405f208181548110610ac5575f80fd5b905f5260205f2090600402015f9150915050805f018054610ae590614935565b80601f0160208091040260200160405190810160405280929190818152602001828054610b1190614935565b8015610b5c5780601f10610b3357610100808354040283529160200191610b5c565b820191905f5260205f20905b815481529060010190602001808311610b3f57829003601f168201915b505050600184015460028501805494956001600160a01b03909216949193509150610b8690614935565b80601f0160208091040260200160405190810160405280929190818152602001828054610bb290614935565b8015610bfd5780601f10610bd457610100808354040283529160200191610bfd565b820191905f5260205f20905b815481529060010190602001808311610be057829003601f168201915b505050505090806003018054610c1290614935565b80601f0160208091040260200160405190810160405280929190818152602001828054610c3e90614935565b8015610c895780601f10610c6057610100808354040283529160200191610c89565b820191905f5260205f20905b815481529060010190602001808311610c6c57829003601f168201915b5050505050905084565b6001600160a01b0381165f9081526036602052604081205415156109db565b610cba612c45565b60365f610cc5612c2a565b6001600160a01b03166001600160a01b031681526020019081526020015f20545f03610d0c5760405162461bcd60e51b8152600401610d039061496d565b60405180910390fd5b8060355f610d18612c2a565b6001600160a01b0316815260208101919091526040015f205550565b610d3c612c45565b6032546040516305a8010b60e21b8152600481018390526001600160a01b03909116906316a0042c906024015f604051808303815f87803b158015610d7f575f80fd5b505af1158015610d91573d5f803e3d5ffd5b50505050610d9d612c2a565b6001600160a01b03167f988f76ef7977a3c8ed258b6edb689399775fa491cc7367bb03d44d8d55af79a882604051610dd791815260200190565b60405180910390a250565b610dea612c45565b5f60365f610df6612c2a565b6001600160a01b03166001600160a01b031681526020019081526020015f20549050805f03610e375760405162461bcd60e51b8152600401610d039061496d565b5f818152603d6020908152604080832081516080810183528981526001600160a01b03891681850152918201879052606082018690528054600181018255908452919092208251600490920201908190610e9190826149e2565b5060208201516001820180546001600160a01b0319166001600160a01b0390921691909117905560408201516002820190610ecc90826149e2565b5060608201516003820190610ee190826149e2565b5050505050505050565b6001600160a01b038216610f1457604051633250574960e11b81525f6004820152602401610d03565b5f610f278383610f22612c2a565b612c8a565b9050836001600160a01b0316816001600160a01b031614610f75576040516364283d7b60e01b81526001600160a01b0380861660048301526024820184905282166044820152606401610d03565b50505050565b5f8054604051634f4bdc7b60e11b81526001600160a01b0390911690639e97b8f690610fad9084908690600401614ab1565b602060405180830381865afa158015610fc8573d5f803e3d5ffd5b505050506040513d601f19601f820116820180604052508101906109db9190614ae9565b6001600160a01b0381165f908152603660209081526040808320548352603c8252808320805482518185028101850190935280835260609492939192909184015b828210156112b8578382905f5260205f2090600602016040518060c00160405290815f820154815260200160018201805461106790614935565b80601f016020809104026020016040519081016040528092919081815260200182805461109390614935565b80156110de5780601f106110b5576101008083540402835291602001916110de565b820191905f5260205f20905b8154815290600101906020018083116110c157829003601f168201915b505050505081526020016002820180546110f790614935565b80601f016020809104026020016040519081016040528092919081815260200182805461112390614935565b801561116e5780601f106111455761010080835404028352916020019161116e565b820191905f5260205f20905b81548152906001019060200180831161115157829003601f168201915b5050505050815260200160038201805461118790614935565b80601f01602080910402602001604051908101604052809291908181526020018280546111b390614935565b80156111fe5780601f106111d5576101008083540402835291602001916111fe565b820191905f5260205f20905b8154815290600101906020018083116111e157829003601f168201915b5050505050815260200160048201805461121790614935565b80601f016020809104026020016040519081016040528092919081815260200182805461124390614935565b801561128e5780601f106112655761010080835404028352916020019161128e565b820191905f5260205f20905b81548152906001019060200180831161127157829003601f168201915b50505091835250506005919091015460ff161515602091820152908252600192909201910161102d565b505050509050919050565b6060603d5f8381526020019081526020015f20805480602002602001604051908101604052809291908181526020015f905b828210156112b8578382905f5260205f2090600402016040518060800160405290815f8201805461132590614935565b80601f016020809104026020016040519081016040528092919081815260200182805461135190614935565b801561139c5780601f106113735761010080835404028352916020019161139c565b820191905f5260205f20905b81548152906001019060200180831161137f57829003601f168201915b505050918352505060018201546001600160a01b031660208201526002820180546040909201916113cc90614935565b80601f01602080910402602001604051908101604052809291908181526020018280546113f890614935565b80156114435780601f1061141a57610100808354040283529160200191611443565b820191905f5260205f20905b81548152906001019060200180831161142657829003601f168201915b5050505050815260200160038201805461145c90614935565b80601f016020809104026020016040519081016040528092919081815260200182805461148890614935565b80156114d35780601f106114aa576101008083540402835291602001916114d3565b820191905f5260205f20905b8154815290600101906020018083116114b657829003601f168201915b505050505081525050815260200190600101906112f5565b6115316040518060e001604052805f815260200160608152602001606081526020015f6001600160a01b03168152602001606081526020015f8152602001606081525090565b603b5f8381526020019081526020015f206040518060e00160405290815f820154815260200160018201805461156690614935565b80601f016020809104026020016040519081016040528092919081815260200182805461159290614935565b80156115dd5780601f106115b4576101008083540402835291602001916115dd565b820191905f5260205f20905b8154815290600101906020018083116115c057829003601f168201915b505050505081526020016002820180546115f690614935565b80601f016020809104026020016040519081016040528092919081815260200182805461162290614935565b801561166d5780601f106116445761010080835404028352916020019161166d565b820191905f5260205f20905b81548152906001019060200180831161165057829003601f168201915b505050918352505060038201546001600160a01b0316602082015260048201805460409092019161169d90614935565b80601f01602080910402602001604051908101604052809291908181526020018280546116c990614935565b80156117145780601f106116eb57610100808354040283529160200191611714565b820191905f5260205f20905b8154815290600101906020018083116116f757829003601f168201915b505050505081526020016005820154815260200160068201805461173790614935565b80601f016020809104026020016040519081016040528092919081815260200182805461176390614935565b80156117ae5780601f10611785576101008083540402835291602001916117ae565b820191905f5260205f20905b81548152906001019060200180831161179157829003601f168201915b5050505050815250509050919050565b6117c6612c45565b5f7f880b912ed844c0c5d633d436ab28612ee7442a1aec4689b791e4497d8a639a388787876040516117f9929190614b04565b60408051918290039091206001600160a01b0388165f9081526034602052918220805491928992919061182b83614b27565b909155506040805160208101969096526001600160a01b03948516908601526060850192909252909116608083015260a082015260c0016040516020818303038152906040528051906020012090505f61188482612d8c565b90505f6118c68286868080601f0160208091040260200160405190810160405280939291908181526020018383808284375f92019190915250612db892505050565b9050856001600160a01b0316816001600160a01b03161461191d5760405162461bcd60e51b8152602060048201526011602482015270496e76616c6964207369676e617475726560781b6044820152606401610d03565b61195e8989898080601f0160208091040260200160405190810160405280939291908181526020018383808284375f920191909152508b9250612de0915050565b505050505050505050565b603c602052815f5260405f208181548110611982575f80fd5b905f5260205f2090600602015f9150915050805f0154908060010180546119a890614935565b80601f01602080910402602001604051908101604052809291908181526020018280546119d490614935565b8015611a1f5780601f106119f657610100808354040283529160200191611a1f565b820191905f5260205f20905b815481529060010190602001808311611a0257829003601f168201915b505050505090806002018054611a3490614935565b80601f0160208091040260200160405190810160405280929190818152602001828054611a6090614935565b8015611aab5780601f10611a8257610100808354040283529160200191611aab565b820191905f5260205f20905b815481529060010190602001808311611a8e57829003601f168201915b505050505090806003018054611ac090614935565b80601f0160208091040260200160405190810160405280929190818152602001828054611aec90614935565b8015611b375780601f10611b0e57610100808354040283529160200191611b37565b820191905f5260205f20905b815481529060010190602001808311611b1a57829003601f168201915b505050505090806004018054611b4c90614935565b80601f0160208091040260200160405190810160405280929190818152602001828054611b7890614935565b8015611bc35780601f10611b9a57610100808354040283529160200191611bc3565b820191905f5260205f20905b815481529060010190602001808311611ba657829003601f168201915b5050506005909301549192505060ff1686565b611bf083838360405180602001604052805f815250612439565b505050565b7ff0c57e16840df040f15088dc2f81fe391c3923bec73e23a9662efc9c229c6a008054600160401b810460ff1615906001600160401b03165f81158015611c395750825b90505f826001600160401b03166001148015611c545750303b155b905081158015611c62575080155b15611c805760405163f92ee8a960e01b815260040160405180910390fd5b845467ffffffffffffffff191660011785558315611caa57845460ff60401b1916600160401b1785555b611d046040518060400160405280601881526020017f53616e6a6565766e69204d65646963616c205265636f726400000000000000008152506040518060400160405280600381526020016229a6a960e91b815250612f08565b611d0c612f1a565b611d14612f2a565b611d606040518060400160405280601181526020017014d85b9a99595d9b9a4814185d1a595b9d607a1b815250604051806040016040528060018152602001603160f81b815250612f3a565b611d68612f4c565b611d7187612f54565b603280546001600160a01b0319166001600160a01b0388161790558315611dd257845460ff60401b19168555604051600181527fc7f505b2f371ae2175ee4913f4499e1f2633a7b5936321eed1cdaeb6115181d29060200160405180910390a15b50505050505050565b611de3612fdb565b611dec8261307f565b610aa88282613150565b5f611dff61320c565b505f80516020614cfd83398151915290565b5f6109db82612bba565b611e23612c45565b5f60365f611e2f612c2a565b6001600160a01b03166001600160a01b031681526020019081526020015f20549050805f03611e705760405162461bcd60e51b8152600401610d039061496d565b5f60335f8154611e7f90614b27565b91829055509050611e97611e91612c2a565b82613255565b6040805160c08101825282815260208082018a81528284018a9052606083018990526080830188905286151560a08401525f85815260388352848120879055868152603c80845285822080548884526039865296832087905590845260018087018255908252929020835160069095020193845551919283929091820190611f1f90826149e2565b5060408201516002820190611f3490826149e2565b5060608201516003820190611f4990826149e2565b5060808201516004820190611f5e90826149e2565b5060a091909101516005909101805460ff191691151591909117905560405183907f1f30f38b4f871adca727d3828cdd92e1d3ba6c231a941a699585e7a2ac79672690611fae9085908c90614b3f565b60405180910390a25050505050505050565b5f5f80516020614cbd8339815191526001600160a01b038316611ff8576040516322718ad960e21b81525f6004820152602401610d03565b6001600160a01b039092165f908152600390920160205250604090205490565b5f60608082808083815f80516020614cdd833981519152805490915015801561204357506001810154155b6120875760405162461bcd60e51b81526020600482015260156024820152741152540dcc4c8e88155b9a5b9a5d1a585b1a5e9959605a1b6044820152606401610d03565b61208f61326e565b6120976132ac565b604080515f80825260208201909252600f60f81b9c939b5091995046985030975095509350915050565b6120c9612c45565b610aa882826120d6612c2a565b612de0565b5f8054604051632474521560e21b8152600481018590526001600160a01b038481166024830152909116906391d14854906044015b602060405180830381865afa15801561212b573d5f803e3d5ffd5b505050506040513d601f19601f8201168201806040525081019061214f9190614ae9565b9392505050565b603b6020525f90815260409020805460018201805491929161217790614935565b80601f01602080910402602001604051908101604052809291908181526020018280546121a390614935565b80156121ee5780601f106121c5576101008083540402835291602001916121ee565b820191905f5260205f20905b8154815290600101906020018083116121d157829003601f168201915b50505050509080600201805461220390614935565b80601f016020809104026020016040519081016040528092919081815260200182805461222f90614935565b801561227a5780601f106122515761010080835404028352916020019161227a565b820191905f5260205f20905b81548152906001019060200180831161225d57829003601f168201915b505050600384015460048501805494956001600160a01b039092169491935091506122a490614935565b80601f01602080910402602001604051908101604052809291908181526020018280546122d090614935565b801561231b5780601f106122f25761010080835404028352916020019161231b565b820191905f5260205f20905b8154815290600101906020018083116122fe57829003601f168201915b50505050509080600501549080600601805461233690614935565b80601f016020809104026020016040519081016040528092919081815260200182805461236290614935565b80156123ad5780601f10612384576101008083540402835291602001916123ad565b820191905f5260205f20905b81548152906001019060200180831161239057829003601f168201915b5050505050905087565b7f80bb2b638cc20bc4d0a60d66940f3ab4a00c1d7b313497ca82fb0b4ab007930180546060915f80516020614cbd83398151915291610a0090614935565b5f8054604051634f4bdc7b60e11b81526001600160a01b0390911690639e97b8f6906121109086908690600401614ab1565b610aa8612432612c2a565b83836132ea565b612444848484610eeb565b610f7584848484613390565b606061245b82612bba565b505f61247160408051602081019091525f815290565b90505f81511161248f5760405180602001604052805f81525061214f565b80612499846134bd565b6040516020016124aa929190614b57565b6040516020818303038152906040529392505050565b6124c8612c45565b5f60365f6124d4612c2a565b6001600160a01b03166001600160a01b031681526020019081526020015f20549050805f036125155760405162461bcd60e51b8152600401610d039061496d565b5f818152603c602052604090205482106125615760405162461bcd60e51b815260206004820152600d60248201526c092dcecc2d8d2c840d2dcc8caf609b1b6044820152606401610d03565b5f818152603c6020526040902080548390811061258057612580614b85565b905f5260205f2090600602016005015f9054906101000a900460ff1615603c5f8381526020019081526020015f2083815481106125bf576125bf614b85565b5f9182526020909120600690910201600501805460ff19169115159190911790555050565b6001600160a01b039182165f9081527f80bb2b638cc20bc4d0a60d66940f3ab4a00c1d7b313497ca82fb0b4ab00793056020908152604080832093909416825291909152205460ff1690565b612638612c45565b60365f612643612c2a565b6001600160a01b0316815260208101919091526040015f20541561269e5760405162461bcd60e51b8152602060048201526012602482015271105b1c9958591e481c9959da5cdd195c995960721b6044820152606401610d03565b6037856040516126ae9190614b99565b9081526020016040518091039020545f146126fc5760405162461bcd60e51b815260206004820152600e60248201526d2ab9b2b93730b6b2903a30b5b2b760911b6044820152606401610d03565b603a8054905f61270b83614b27565b91905055506040518060e00160405280603a548152602001868152602001858152602001612737612c2a565b6001600160a01b03168152602080820186905260408083018690526060909201849052603a545f908152603b8252919091208251815590820151600182019061278090826149e2565b506040820151600282019061279590826149e2565b5060608201516003820180546001600160a01b0319166001600160a01b03909216919091179055608082015160048201906127d090826149e2565b5060a0820151600582015560c082015160068201906127ef90826149e2565b50905050603a5460365f612801612c2a565b6001600160a01b03166001600160a01b031681526020019081526020015f2081905550603a546037866040516128379190614b99565b908152604051908190036020019020555f546001600160a01b0316635d5664e16002612861612c2a565b6040518363ffffffff1660e01b815260040161287e929190614ab1565b5f604051808303815f87803b158015612895575f80fd5b505af11580156128a7573d5f803e3d5ffd5b505050506128b3612c2a565b6001600160a01b0316603a547fe960aa893775ad9187a8fc84e3a4750f46f677c7e4f410b0d77faad875966603876040516128ee9190613f95565b60405180910390a35050505050565b6060603c5f8381526020019081526020015f20805480602002602001604051908101604052809291908181526020015f905b828210156112b8578382905f5260205f2090600602016040518060c00160405290815f820154815260200160018201805461296990614935565b80601f016020809104026020016040519081016040528092919081815260200182805461299590614935565b80156129e05780601f106129b7576101008083540402835291602001916129e0565b820191905f5260205f20905b8154815290600101906020018083116129c357829003601f168201915b505050505081526020016002820180546129f990614935565b80601f0160208091040260200160405190810160405280929190818152602001828054612a2590614935565b8015612a705780601f10612a4757610100808354040283529160200191612a70565b820191905f5260205f20905b815481529060010190602001808311612a5357829003601f168201915b50505050508152602001600382018054612a8990614935565b80601f0160208091040260200160405190810160405280929190818152602001828054612ab590614935565b8015612b005780601f10612ad757610100808354040283529160200191612b00565b820191905f5260205f20905b815481529060010190602001808311612ae357829003601f168201915b50505050508152602001600482018054612b1990614935565b80601f0160208091040260200160405190810160405280929190818152602001828054612b4590614935565b8015612b905780601f10612b6757610100808354040283529160200191612b90565b820191905f5260205f20905b815481529060010190602001808311612b7357829003601f168201915b50505091835250506005919091015460ff161515602091820152908252600192909201910161292f565b5f80612bc58361354c565b90506001600160a01b0381166109db57604051637e27328960e01b815260048101849052602401610d03565b5f9081527f80bb2b638cc20bc4d0a60d66940f3ab4a00c1d7b313497ca82fb0b4ab007930460205260409020546001600160a01b031690565b5f612c33613585565b905090565b611bf083838360016135f8565b7fcd5ed15c6e187e77e9aee88184c21f4f2182ab5827cb3b7e07fbedcd63f033005460ff1615612c885760405163d93c066560e01b815260040160405180910390fd5b565b5f5f80516020614cbd83398151915281612ca38561354c565b90506001600160a01b03841615612cbf57612cbf81858761370b565b6001600160a01b03811615612cfb57612cda5f865f806135f8565b6001600160a01b0381165f908152600383016020526040902080545f190190555b6001600160a01b03861615612d2b576001600160a01b0386165f9081526003830160205260409020805460010190555b5f85815260028301602052604080822080546001600160a01b0319166001600160a01b038a811691821790925591518893918516917fddf252ad1be2c89b69c2b068fc378daa952ba7f163c4a11628f55a4df523b3ef91a495945050505050565b5f6109db612d9861376f565b8360405161190160f01b8152600281019290925260228201526042902090565b5f805f80612dc68686613778565b925092509250612dd682826137c1565b5090949350505050565b6001600160a01b0381165f908152603660205260408120549003612e3f5760405162461bcd60e51b815260206004820152601660248201527514185d1a595b9d081b9bdd081c9959da5cdd195c995960521b6044820152606401610d03565b60325460405163418b865160e11b81525f916001600160a01b0316906383170ca290612e7390859088908890600401614bb4565b6020604051808303815f875af1158015612e8f573d5f803e3d5ffd5b505050506040513d601f19601f82011682018060405250810190612eb39190614bdf565b9050836001600160a01b0316826001600160a01b03167f76a1ad651bc50df5ed36a8884155c46292a92f3605f168df56223cb72e98d02a83604051612efa91815260200190565b60405180910390a350505050565b612f10613879565b610aa882826138c2565b612f22613879565b612c886138f2565b612f32613879565b612c88613920565b612f42613879565b610aa88282613953565b612c88613879565b612f5c613879565b612f64612f4c565b6001600160a01b038116612fba5760405162461bcd60e51b815260206004820152601e60248201527f496e76616c69642061636365737320636f6e74726f6c206164647265737300006044820152606401610d03565b5f80546001600160a01b0319166001600160a01b0392909216919091179055565b306001600160a01b037f000000000000000000000000000000000000000000000000000000000000000016148061306157507f00000000000000000000000000000000000000000000000000000000000000006001600160a01b03166130555f80516020614cfd833981519152546001600160a01b031690565b6001600160a01b031614155b15612c885760405163703e46dd60e11b815260040160405180910390fd5b5f80546001600160a01b031690639e97b8f69061309a612c2a565b6040518363ffffffff1660e01b81526004016130b7929190614ab1565b602060405180830381865afa1580156130d2573d5f803e3d5ffd5b505050506040513d601f19601f820116820180604052508101906130f69190614ae9565b61314d5760405162461bcd60e51b815260206004820152602260248201527f416363657373436f6e74726f6c3a20726573747269637465642d746f2d61646d60448201526134b760f11b6064820152608401610d03565b50565b816001600160a01b03166352d1902d6040518163ffffffff1660e01b8152600401602060405180830381865afa9250505080156131aa575060408051601f3d908101601f191682019092526131a791810190614bdf565b60015b6131d257604051634c9c8ce360e01b81526001600160a01b0383166004820152602401610d03565b5f80516020614cfd833981519152811461320257604051632a87526960e21b815260048101829052602401610d03565b611bf083836139b2565b306001600160a01b037f00000000000000000000000000000000000000000000000000000000000000001614612c885760405163703e46dd60e11b815260040160405180910390fd5b610aa8828260405180602001604052805f815250613a07565b7fa16a46d94261c7517cc8ff89f61c0ce93598e3c849801011dee649a6a557d10280546060915f80516020614cdd83398151915291610a0090614935565b7fa16a46d94261c7517cc8ff89f61c0ce93598e3c849801011dee649a6a557d10380546060915f80516020614cdd83398151915291610a0090614935565b5f80516020614cbd8339815191526001600160a01b03831661332a57604051630b61174360e31b81526001600160a01b0384166004820152602401610d03565b6001600160a01b038481165f818152600584016020908152604080832094881680845294825291829020805460ff191687151590811790915591519182527f17307eab39ab6107e8899845ad3d59bd9653f200f220920489ca2b5937696c319101612efa565b6001600160a01b0383163b15610f7557826001600160a01b031663150b7a026133b7612c2a565b8685856040518563ffffffff1660e01b81526004016133d99493929190614bf6565b6020604051808303815f875af1925050508015613413575060408051601f3d908101601f1916820190925261341091810190614c32565b60015b61347a573d808015613440576040519150601f19603f3d011682016040523d82523d5f602084013e613445565b606091505b5080515f0361347257604051633250574960e11b81526001600160a01b0385166004820152602401610d03565b805181602001fd5b6001600160e01b03198116630a85bd0160e11b146134b657604051633250574960e11b81526001600160a01b0385166004820152602401610d03565b5050505050565b60605f6134c983613a1d565b60010190505f816001600160401b038111156134e7576134e761408c565b6040519080825280601f01601f191660200182016040528015613511576020820181803683370190505b5090508181016020015b5f19016f181899199a1a9b1b9c1cb0b131b232b360811b600a86061a8153600a850494508461351b57509392505050565b5f9081527f80bb2b638cc20bc4d0a60d66940f3ab4a00c1d7b313497ca82fb0b4ab007930260205260409020546001600160a01b031690565b5f366014336001600160a01b037f0000000000000000000000000000000000000000000000000000000000000000161480156135c15750808210155b156135f0575f366135d28385614c4d565b6135dd928290614c60565b6135e691614c87565b60601c9250505090565b339250505090565b5f80516020614cbd833981519152818061361a57506001600160a01b03831615155b156136db575f61362985612bba565b90506001600160a01b038416158015906136555750836001600160a01b0316816001600160a01b031614155b8015613668575061366681856125e4565b155b156136915760405163a9fbf51f60e01b81526001600160a01b0385166004820152602401610d03565b82156136d95784866001600160a01b0316826001600160a01b03167f8c5be1e5ebec7d5bd14f71427d1e84f3dd0314c0f7b2291e5b200ac8c7c3b92560405160405180910390a45b505b5f93845260040160205250506040902080546001600160a01b0319166001600160a01b0392909216919091179055565b613716838383613af4565b611bf0576001600160a01b03831661374457604051637e27328960e01b815260048101829052602401610d03565b60405163177e802f60e01b81526001600160a01b038316600482015260248101829052604401610d03565b5f612c33613b59565b5f805f83516041036137af576020840151604085015160608601515f1a6137a188828585613bcc565b9550955095505050506137ba565b505081515f91506002905b9250925092565b5f8260038111156137d4576137d4614a9d565b036137dd575050565b60018260038111156137f1576137f1614a9d565b0361380f5760405163f645eedf60e01b815260040160405180910390fd5b600282600381111561382357613823614a9d565b036138445760405163fce698f760e01b815260048101829052602401610d03565b600382600381111561385857613858614a9d565b03610aa8576040516335e2f38360e21b815260048101829052602401610d03565b7ff0c57e16840df040f15088dc2f81fe391c3923bec73e23a9662efc9c229c6a0054600160401b900460ff16612c8857604051631afcd79f60e31b815260040160405180910390fd5b6138ca613879565b5f80516020614cbd833981519152806138e384826149e2565b5060018101610f7583826149e2565b6138fa613879565b60017f9b779b17422d0df92223018b32b4d1fa46e071723d6817e2486d003becc55f0055565b613928613879565b7fcd5ed15c6e187e77e9aee88184c21f4f2182ab5827cb3b7e07fbedcd63f03300805460ff19169055565b61395b613879565b5f80516020614cdd8339815191527fa16a46d94261c7517cc8ff89f61c0ce93598e3c849801011dee649a6a557d10261399484826149e2565b50600381016139a383826149e2565b505f8082556001909101555050565b6139bb82613c94565b6040516001600160a01b038316907fbc7cd75a20ee27fd9adebab32041f755214dbc6bffa90cc0225b39da2e5c2d3b905f90a28051156139ff57611bf08282613cf7565b610aa8613d69565b613a118383613d88565b611bf05f848484613390565b5f8072184f03e93ff9f4daa797ed6e38ed64bf6a1f0160401b8310613a5b5772184f03e93ff9f4daa797ed6e38ed64bf6a1f0160401b830492506040015b6d04ee2d6d415b85acef81000000008310613a87576d04ee2d6d415b85acef8100000000830492506020015b662386f26fc100008310613aa557662386f26fc10000830492506010015b6305f5e1008310613abd576305f5e100830492506008015b6127108310613ad157612710830492506004015b60648310613ae3576064830492506002015b600a83106109db5760010192915050565b5f6001600160a01b03831615801590613b515750826001600160a01b0316846001600160a01b03161480613b2d5750613b2d84846125e4565b80613b515750826001600160a01b0316613b4683612bf1565b6001600160a01b0316145b949350505050565b5f7f8b73c3c69bb8fe3d512ecc4cf759cc79239f7b179b0ffacaa9a75d522b39400f613b83613de9565b613b8b613e51565b60408051602081019490945283019190915260608201524660808201523060a082015260c00160405160208183030381529060405280519060200120905090565b5f80807f7fffffffffffffffffffffffffffffff5d576e7357a4501ddfe92f46681b20a0841115613c0557505f91506003905082613c8a565b604080515f808252602082018084528a905260ff891692820192909252606081018790526080810186905260019060a0016020604051602081039080840390855afa158015613c56573d5f803e3d5ffd5b5050604051601f1901519150506001600160a01b038116613c8157505f925060019150829050613c8a565b92505f91508190505b9450945094915050565b806001600160a01b03163b5f03613cc957604051634c9c8ce360e01b81526001600160a01b0382166004820152602401610d03565b5f80516020614cfd83398151915280546001600160a01b0319166001600160a01b0392909216919091179055565b60605f80846001600160a01b031684604051613d139190614b99565b5f60405180830381855af49150503d805f8114613d4b576040519150601f19603f3d011682016040523d82523d5f602084013e613d50565b606091505b5091509150613d60858383613e93565b95945050505050565b3415612c885760405163b398979f60e01b815260040160405180910390fd5b6001600160a01b038216613db157604051633250574960e11b81525f6004820152602401610d03565b5f613dbd83835f612c8a565b90506001600160a01b03811615611bf0576040516339e3563760e11b81525f6004820152602401610d03565b5f5f80516020614cdd83398151915281613e0161326e565b805190915015613e1957805160209091012092915050565b81548015613e28579392505050565b7fc5d2460186f7233c927e7db2dcc703c0e500b653ca82273b7bfad8045d85a470935050505090565b5f5f80516020614cdd83398151915281613e696132ac565b805190915015613e8157805160209091012092915050565b60018201548015613e28579392505050565b606082613ea857613ea382613eef565b61214f565b8151158015613ebf57506001600160a01b0384163b155b15613ee857604051639996b31560e01b81526001600160a01b0385166004820152602401610d03565b508061214f565b805115613eff5780518082602001fd5b604051630a12f52160e11b815260040160405180910390fd5b6001600160e01b03198116811461314d575f80fd5b5f60208284031215613f3d575f80fd5b813561214f81613f18565b5f5b83811015613f62578181015183820152602001613f4a565b50505f910152565b5f8151808452613f81816020860160208601613f48565b601f01601f19169290920160200192915050565b602081525f61214f6020830184613f6a565b5f60208284031215613fb7575f80fd5b5035919050565b80356001600160a01b0381168114613fd4575f80fd5b919050565b5f8060408385031215613fea575f80fd5b613ff383613fbe565b946020939093013593505050565b5f8060408385031215614012575f80fd5b50508035926020909101359150565b608081525f6140336080830187613f6a565b6001600160a01b038616602084015282810360408401526140548186613f6a565b905082810360608401526140688185613f6a565b979650505050505050565b5f60208284031215614083575f80fd5b61214f82613fbe565b634e487b7160e01b5f52604160045260245ffd5b5f82601f8301126140af575f80fd5b81356001600160401b03808211156140c9576140c961408c565b604051601f8301601f19908116603f011681019082821181831017156140f1576140f161408c565b81604052838152866020858801011115614109575f80fd5b836020870160208301375f602085830101528094505050505092915050565b5f805f806080858703121561413b575f80fd5b84356001600160401b0380821115614151575f80fd5b61415d888389016140a0565b955061416b60208801613fbe565b94506040870135915080821115614180575f80fd5b61418c888389016140a0565b935060608701359150808211156141a1575f80fd5b506141ae878288016140a0565b91505092959194509250565b5f805f606084860312156141cc575f80fd5b6141d584613fbe565b92506141e360208501613fbe565b9150604084013590509250925092565b5f6020808301818452808551808352604092508286019150828160051b8701018488015f5b838110156142b757603f19898403018552815160c08151855288820151818a87015261424682870182613f6a565b915050878201518582038987015261425e8282613f6a565b915050606080830151868303828801526142788382613f6a565b92505050608080830151868303828801526142938382613f6a565b60a09485015115159790940196909652505094870194925090860190600101614218565b509098975050505050505050565b5f6020808301818452808551808352604092508286019150828160051b8701018488015f5b838110156142b757603f1989840301855281516080815181865261431082870182613f6a565b838b01516001600160a01b0316878c0152898401518782038b890152909250905061433b8282613f6a565b915050606080830151925085820381870152506143588183613f6a565b9689019694505050908601906001016142ea565b60208152815160208201525f602083015160e06040840152614392610100840182613f6a565b90506040840151601f19808584030160608601526143b08383613f6a565b925060018060a01b03606087015116608086015260808601519150808584030160a08601526143df8383613f6a565b925060a086015160c086015260c08601519150808584030160e086015250613d608282613f6a565b5f8083601f840112614417575f80fd5b5081356001600160401b0381111561442d575f80fd5b602083019150836020828501011115614444575f80fd5b9250929050565b5f805f805f8060808789031215614460575f80fd5b61446987613fbe565b955060208701356001600160401b0380821115614484575f80fd5b6144908a838b01614407565b90975095508591506144a460408a01613fbe565b945060608901359150808211156144b9575f80fd5b506144c689828a01614407565b979a9699509497509295939492505050565b86815260c060208201525f6144f060c0830188613f6a565b82810360408401526145028188613f6a565b905082810360608401526145168187613f6a565b9050828103608084015261452a8186613f6a565b91505082151560a0830152979650505050505050565b5f8060408385031215614551575f80fd5b61455a83613fbe565b915061456860208401613fbe565b90509250929050565b5f8060408385031215614582575f80fd5b61458b83613fbe565b915060208301356001600160401b038111156145a5575f80fd5b6145b1858286016140a0565b9150509250929050565b801515811461314d575f80fd5b5f805f805f60a086880312156145dc575f80fd5b85356001600160401b03808211156145f2575f80fd5b6145fe89838a016140a0565b96506020880135915080821115614613575f80fd5b61461f89838a016140a0565b95506040880135915080821115614634575f80fd5b61464089838a016140a0565b94506060880135915080821115614655575f80fd5b50614662888289016140a0565b9250506080860135614673816145bb565b809150509295509295909350565b60ff60f81b881681525f602060e0818401526146a060e084018a613f6a565b83810360408501526146b2818a613f6a565b606085018990526001600160a01b038816608086015260a0850187905284810360c086015285518082528387019250908301905f5b81811015614703578351835292840192918401916001016146e7565b50909c9b505050505050505050505050565b5f60208284031215614725575f80fd5b81356001600160401b0381111561473a575f80fd5b613b51848285016140a0565b5f8060408385031215614757575f80fd5b8235915061456860208401613fbe565b87815260e060208201525f61477f60e0830189613f6a565b82810360408401526147918189613f6a565b6001600160a01b0388166060850152838103608085015290506147b48187613f6a565b90508460a084015282810360c08401526147ce8185613f6a565b9a9950505050505050505050565b5f80604083850312156147ed575f80fd5b82356009811061455a575f80fd5b5f806040838503121561480c575f80fd5b61481583613fbe565b91506020830135614825816145bb565b809150509250929050565b5f805f8060808587031215614843575f80fd5b61484c85613fbe565b935061485a60208601613fbe565b92506040850135915060608501356001600160401b0381111561487b575f80fd5b6141ae878288016140a0565b5f805f805f60a0868803121561489b575f80fd5b85356001600160401b03808211156148b1575f80fd5b6148bd89838a016140a0565b965060208801359150808211156148d2575f80fd5b6148de89838a016140a0565b955060408801359150808211156148f3575f80fd5b6148ff89838a016140a0565b945060608801359350608088013591508082111561491b575f80fd5b50614928888289016140a0565b9150509295509295909350565b600181811c9082168061494957607f821691505b60208210810361496757634e487b7160e01b5f52602260045260245ffd5b50919050565b6020808252600e908201526d139bdd081c9959da5cdd195c995960921b604082015260600190565b601f821115611bf0575f81815260208120601f850160051c810160208610156149bb5750805b601f850160051c820191505b818110156149da578281556001016149c7565b505050505050565b81516001600160401b038111156149fb576149fb61408c565b614a0f81614a098454614935565b84614995565b602080601f831160018114614a42575f8415614a2b5750858301515b5f19600386901b1c1916600185901b1785556149da565b5f85815260208120601f198616915b82811015614a7057888601518255948401946001909101908401614a51565b5085821015614a8d57878501515f19600388901b60f8161c191681555b5050505050600190811b01905550565b634e487b7160e01b5f52602160045260245ffd5b6040810160098410614ad157634e487b7160e01b5f52602160045260245ffd5b9281526001600160a01b039190911660209091015290565b5f60208284031215614af9575f80fd5b815161214f816145bb565b818382375f9101908152919050565b634e487b7160e01b5f52601160045260245ffd5b5f60018201614b3857614b38614b13565b5060010190565b828152604060208201525f613b516040830184613f6a565b5f8351614b68818460208801613f48565b835190830190614b7c818360208801613f48565b01949350505050565b634e487b7160e01b5f52603260045260245ffd5b5f8251614baa818460208701613f48565b9190910192915050565b6001600160a01b038481168252831660208201526060604082018190525f90613d6090830184613f6a565b5f60208284031215614bef575f80fd5b5051919050565b6001600160a01b03858116825284166020820152604081018390526080606082018190525f90614c2890830184613f6a565b9695505050505050565b5f60208284031215614c42575f80fd5b815161214f81613f18565b818103818111156109db576109db614b13565b5f8085851115614c6e575f80fd5b83861115614c7a575f80fd5b5050820193919092039150565b6bffffffffffffffffffffffff198135818116916014851015614cb45780818660140360031b1b83161692505b50509291505056fe80bb2b638cc20bc4d0a60d66940f3ab4a00c1d7b313497ca82fb0b4ab0079300a16a46d94261c7517cc8ff89f61c0ce93598e3c849801011dee649a6a557d100360894a13ba1a3210667c828492db98dca3e2076cc3735a920a3ca505d382bbca264697066735822122082081fda90ea9fe4ee75740f61d3ae69fb51951a859937652c31c70edc535a8664736f6c63430008140033",
  "immutableReferences": {
    "585": [
      {
        "length": 32,
        "start": 1532
      },
      {
        "length": 32,
        "start": 1741
      },
      {
        "length": 32,
        "start": 13716
      }
    ],
    "992": [
      {
        "length": 32,
        "start": 12262
      },
      {
        "length": 32,
        "start": 12303
      },
      {
        "length": 32,
        "start": 12823
      }
    ]
  },
  "source": "// SPDX-License-Identifier: MIT\r\npragma solidity ^0.8.20;\r\n\r\nimport \"@openzeppelin/contracts-upgradeable/token/ERC721/ERC721Upgradeable.sol\";\r\nimport \"@openzeppelin/contracts-upgradeable/utils/ReentrancyGuardUpgradeable.sol\";\r\nimport \"@openzeppelin/contracts-upgradeable/utils/PausableUpgradeable.sol\";\r\nimport \"@openzeppelin/contracts-upgradeable/utils/cryptography/EIP712Upgradeable.sol\";\r\nimport \"@openzeppelin/contracts-upgradeable/proxy/utils/Initializable.sol\";\r\nimport \"@openzeppelin/contracts-upgradeable/proxy/utils/UUPSUpgradeable.sol\";\r\nimport \"@openzeppelin/contracts-upgradeable/utils/ContextUpgradeable.sol\";\r\nimport \"@openzeppelin/contracts-upgradeable/metatx/ERC2771ContextUpgradeable.sol\";\r\nimport \"@openzeppelin/contracts/utils/cryptography/ECDSA.sol\";\r\nimport \"./common/MediSecureAuthUpgradeable.sol\";\r\nimport {Roles} from \"./MediSecureAccessControl.sol\";\r\nimport \"./libraries/StringUtils.sol\";\r\nimport \"./ConsentSBT.sol\";\r\n\r\n/**\r\n * @title Patient\r\n * @dev Full medical record management with EIP-712 Gasless Consent (Proxy Compatible).\r\n */\r\ncontract Patient is Initializable, ERC721Upgradeable, ReentrancyGuardUpgradeable, PausableUpgradeable, EIP712Upgradeable, UUPSUpgradeable, MediSecureAuthUpgradeable, ERC2771ContextUpgradeable {\r\n    using StringUtils for bytes32;\r\n\r\n    ConsentSBT public consentSBT;\r\n    uint256 private _nextTokenId;\r\n\r\n    bytes32 private constant GRANT_CONSENT_TYPEHASH = keccak256(\"GrantConsent(address doctor,string metadataURI,address patient,uint256 nonce)\");\r\n    mapping(address => uint256) public nonces;\r\n    mapping(address => bytes32) public emergencyAccessHashes;\r\n\r\n\r\n    // State\r\n    mapping(address => uint256) public walletToPatientId;\r\n    mapping(string => uint256) public usernameToPatientId;\r\n    mapping(uint256 => uint256) private _tokenIdToPatientId;\r\n    mapping(uint256 => uint256) private _tokenIdToRecordIndex;\r\n    \r\n    uint256 public patientCount;\r\n\r\n    struct MedicalRecord {\r\n        uint256 tokenId;\r\n        string ipfsHash;\r\n        string fileName;\r\n        string recordDate;\r\n        string hospital;\r\n        bool isEmergencyViewable;\r\n    }\r\n\r\n    struct PatientDetails {\r\n        uint256 patientId;\r\n        string username;\r\n        string name;\r\n        address walletAddress;\r\n        string email;\r\n        uint256 age;\r\n        string bloodGroup;\r\n    }\r\n\r\n    struct Nominee {\r\n        string name;\r\n        address walletAddress;\r\n        string relationship;\r\n        string contactNumber;\r\n    }\r\n\r\n    mapping(uint256 => PatientDetails) public patients;\r\n    mapping(uint256 => MedicalRecord[]) public patientRecords;\r\n    mapping(uint256 => Nominee[]) public patientNominees;\r\n\r\n    event PatientRegistered(uint256 indexed patientId, address indexed wallet, string username);\r\n    event MedicalRecordAdded(uint256 indexed patientId, uint256 tokenId, string ipfsHash);\r\n    event ConsentGranted(address indexed patient, address indexed doctor, uint256 tokenId);\r\n    event ConsentRevoked(address indexed patient, uint256 tokenId);\r\n\r\n    /// @custom:oz-upgrades-unsafe-allow constructor\r\n    constructor(address _forwarder) ERC2771ContextUpgradeable(_forwarder) {\r\n        // _disableInitializers(); // Temporarily disabled so standard truffle deployer can initialize it\r\n    }\r\n\r\n    function initialize(address _accessControl, address _sbt) public initializer {\r\n        __ERC721_init(\"Sanjeevni Medical Record\", \"SMR\");\r\n        __ReentrancyGuard_init();\r\n        __Pausable_init();\r\n        __EIP712_init(\"Sanjeevni Patient\", \"1\");\r\n        __UUPSUpgradeable_init();\r\n        __MediSecureAuth_init(_accessControl);\r\n\r\n        consentSBT = ConsentSBT(_sbt);\r\n    }\r\n\r\n    function _authorizeUpgrade(address newImplementation) internal override onlyAdmin {}\r\n\r\n    // Overrides for Context/ERC2771Context to resolve conflicts\r\n    function _msgSender() internal view override(ContextUpgradeable, ERC2771ContextUpgradeable) returns (address) {\r\n        return ERC2771ContextUpgradeable._msgSender();\r\n    }\r\n\r\n    function _msgData() internal view override(ContextUpgradeable, ERC2771ContextUpgradeable) returns (bytes calldata) {\r\n        return ERC2771ContextUpgradeable._msgData();\r\n    }\r\n\r\n    function _contextSuffixLength() internal view override(ContextUpgradeable, ERC2771ContextUpgradeable) returns (uint256) {\r\n        return ERC2771ContextUpgradeable._contextSuffixLength();\r\n    }\r\n\r\n    // --- Patient Profile ---\r\n\r\n    function registerPatient(\r\n        string memory _username, \r\n        string memory _name, \r\n        string memory _email, \r\n        uint256 _age, \r\n        string memory _bloodGroup\r\n    ) public whenNotPaused {\r\n        require(walletToPatientId[_msgSender()] == 0, \"Already registered\");\r\n        require(usernameToPatientId[_username] == 0, \"Username taken\");\r\n\r\n        patientCount++;\r\n        patients[patientCount] = PatientDetails({\r\n            patientId: patientCount,\r\n            username: _username,\r\n            name: _name,\r\n            walletAddress: _msgSender(),\r\n            email: _email,\r\n            age: _age,\r\n            bloodGroup: _bloodGroup\r\n        });\r\n        walletToPatientId[_msgSender()] = patientCount;\r\n        usernameToPatientId[_username] = patientCount;\r\n\r\n        accessControl.grantRole(Roles.PATIENT, _msgSender());\r\n        emit PatientRegistered(patientCount, _msgSender(), _username);\r\n    }\r\n\r\n    // --- Medical Records ---\r\n\r\n    function addMedicalRecord(\r\n        string memory _ipfsHash,\r\n        string memory _fileName,\r\n        string memory _recordDate,\r\n        string memory _hospital,\r\n        bool _isEmergencyViewable\r\n    ) public whenNotPaused {\r\n        uint256 pId = walletToPatientId[_msgSender()];\r\n        require(pId != 0, \"Not registered\");\r\n\r\n        uint256 tokenId = ++_nextTokenId;\r\n        _safeMint(_msgSender(), tokenId);\r\n\r\n        MedicalRecord memory record = MedicalRecord({\r\n            tokenId: tokenId,\r\n            ipfsHash: _ipfsHash,\r\n            fileName: _fileName,\r\n            recordDate: _recordDate,\r\n            hospital: _hospital,\r\n            isEmergencyViewable: _isEmergencyViewable\r\n        });\r\n\r\n        _tokenIdToPatientId[tokenId] = pId;\r\n        _tokenIdToRecordIndex[tokenId] = patientRecords[pId].length;\r\n        patientRecords[pId].push(record);\r\n\r\n        emit MedicalRecordAdded(pId, tokenId, _ipfsHash);\r\n    }\r\n\r\n    // --- Gasless Consent (EIP-712) ---\r\n\r\n    function grantConsent(address doctor, string memory metadataURI) public whenNotPaused {\r\n        _executeGrantConsent(doctor, metadataURI, _msgSender());\r\n    }\r\n\r\n    function grantConsentWithSignature(\r\n        address doctor,\r\n        string calldata metadataURI,\r\n        address patient,\r\n        bytes calldata signature\r\n    ) external whenNotPaused {\r\n        bytes32 structHash = keccak256(abi.encode(\r\n            GRANT_CONSENT_TYPEHASH,\r\n            doctor,\r\n            keccak256(bytes(metadataURI)),\r\n            patient,\r\n            nonces[patient]++\r\n        ));\r\n\r\n        bytes32 hash = _hashTypedDataV4(structHash);\r\n        address signer = ECDSA.recover(hash, signature);\r\n        require(signer == patient, \"Invalid signature\");\r\n\r\n        _executeGrantConsent(doctor, metadataURI, patient);\r\n    }\r\n\r\n    function _executeGrantConsent(address doctor, string memory metadataURI, address patient) internal {\r\n        require(walletToPatientId[patient] != 0, \"Patient not registered\");\r\n        uint256 sbtId = consentSBT.mintConsent(patient, doctor, metadataURI);\r\n        emit ConsentGranted(patient, doctor, sbtId);\r\n    }\r\n\r\n    function revokeConsent(uint256 tokenId) public whenNotPaused {\r\n        consentSBT.revokeConsent(tokenId);\r\n        emit ConsentRevoked(_msgSender(), tokenId);\r\n    }\r\n\r\n    function setEmergencyAccessHash(bytes32 _hash) public whenNotPaused {\r\n        require(walletToPatientId[_msgSender()] != 0, \"Not registered\");\r\n        emergencyAccessHashes[_msgSender()] = _hash;\r\n    }\r\n\r\n    function toggleEmergencyVisibility(uint256 index) public whenNotPaused {\r\n        uint256 pId = walletToPatientId[_msgSender()];\r\n        require(pId != 0, \"Not registered\");\r\n        require(index < patientRecords[pId].length, \"Invalid index\");\r\n        patientRecords[pId][index].isEmergencyViewable = !patientRecords[pId][index].isEmergencyViewable;\r\n    }\r\n\r\n    function addNominee(\r\n        string memory _name, \r\n        address _wallet, \r\n        string memory _relationship, \r\n        string memory _contactNumber\r\n    ) public whenNotPaused {\r\n        uint256 pId = walletToPatientId[_msgSender()];\r\n        require(pId != 0, \"Not registered\");\r\n        patientNominees[pId].push(Nominee({\r\n            name: _name,\r\n            walletAddress: _wallet,\r\n            relationship: _relationship,\r\n            contactNumber: _contactNumber\r\n        }));\r\n    }\r\n\r\n\r\n    // --- Getters ---\r\n\r\n    function getNominees(uint256 pId) public view returns (Nominee[] memory) {\r\n        return patientNominees[pId];\r\n    }\r\n\r\n    function getPatientMedicalRecords(address patient) public view returns (MedicalRecord[] memory) {\r\n        return patientRecords[walletToPatientId[patient]];\r\n    }\r\n\r\n    // Added for frontend compatibility\r\n    function getPatientDetails(uint256 pId) public view returns (PatientDetails memory) {\r\n        return patients[pId];\r\n    }\r\n\r\n    // Added for frontend compatibility\r\n    function getMedicalRecords(uint256 pId) public view returns (MedicalRecord[] memory) {\r\n        return patientRecords[pId];\r\n    }\r\n\r\n    function isRegistered(address account) public view returns (bool) {\r\n\r\n        return walletToPatientId[account] != 0;\r\n    }\r\n\r\n    function userExists(address account) public view returns (bool) {\r\n        return isRegistered(account);\r\n    }\r\n}",
  "sourcePath": "C:\\Users\\night\\Downloads\\team-rocket-medi-secure\\team-rocket-medi-secure\\contracts\\contracts\\Patient.sol",
  "compiler": {
    "name": "solc",
    "version": "0.8.20+commit.a1b79de6.Emscripten.clang"
  },
  "schemaVersion": "3.4.16",
  "updatedAt": "2026-04-24T10:38:36.421Z",
  "networkType": "ethereum",
  "devdoc": {
    "details": "Full medical record management with EIP-712 Gasless Consent (Proxy Compatible).",
    "errors": {
      "AddressEmptyCode(address)": [
        {
          "details": "There's no code at `target` (it is not a contract)."
        }
      ],
      "ECDSAInvalidSignature()": [
        {
          "details": "The signature derives the `address(0)`."
        }
      ],
      "ECDSAInvalidSignatureLength(uint256)": [
        {
          "details": "The signature has an invalid length."
        }
      ],
      "ECDSAInvalidSignatureS(bytes32)": [
        {
          "details": "The signature has an S value that is in the upper half order."
        }
      ],
      "ERC1967InvalidImplementation(address)": [
        {
          "details": "The `implementation` of the proxy is invalid."
        }
      ],
      "ERC1967NonPayable()": [
        {
          "details": "An upgrade function sees `msg.value > 0` that may be lost."
        }
      ],
      "ERC721IncorrectOwner(address,uint256,address)": [
        {
          "details": "Indicates an error related to the ownership over a particular token. Used in transfers.",
          "params": {
            "owner": "Address of the current owner of a token.",
            "sender": "Address whose tokens are being transferred.",
            "tokenId": "Identifier number of a token."
          }
        }
      ],
      "ERC721InsufficientApproval(address,uint256)": [
        {
          "details": "Indicates a failure with the `operator`’s approval. Used in transfers.",
          "params": {
            "operator": "Address that may be allowed to operate on tokens without being their owner.",
            "tokenId": "Identifier number of a token."
          }
        }
      ],
      "ERC721InvalidApprover(address)": [
        {
          "details": "Indicates a failure with the `approver` of a token to be approved. Used in approvals.",
          "params": {
            "approver": "Address initiating an approval operation."
          }
        }
      ],
      "ERC721InvalidOperator(address)": [
        {
          "details": "Indicates a failure with the `operator` to be approved. Used in approvals.",
          "params": {
            "operator": "Address that may be allowed to operate on tokens without being their owner."
          }
        }
      ],
      "ERC721InvalidOwner(address)": [
        {
          "details": "Indicates that an address can't be an owner. For example, `address(0)` is a forbidden owner in EIP-20. Used in balance queries.",
          "params": {
            "owner": "Address of the current owner of a token."
          }
        }
      ],
      "ERC721InvalidReceiver(address)": [
        {
          "details": "Indicates a failure with the token `receiver`. Used in transfers.",
          "params": {
            "receiver": "Address to which tokens are being transferred."
          }
        }
      ],
      "ERC721InvalidSender(address)": [
        {
          "details": "Indicates a failure with the token `sender`. Used in transfers.",
          "params": {
            "sender": "Address whose tokens are being transferred."
          }
        }
      ],
      "ERC721NonexistentToken(uint256)": [
        {
          "details": "Indicates a `tokenId` whose `owner` is the zero address.",
          "params": {
            "tokenId": "Identifier number of a token."
          }
        }
      ],
      "EnforcedPause()": [
        {
          "details": "The operation failed because the contract is paused."
        }
      ],
      "ExpectedPause()": [
        {
          "details": "The operation failed because the contract is not paused."
        }
      ],
      "FailedInnerCall()": [
        {
          "details": "A call to an address target failed. The target may have reverted."
        }
      ],
      "InvalidInitialization()": [
        {
          "details": "The contract is already initialized."
        }
      ],
      "NotInitializing()": [
        {
          "details": "The contract is not initializing."
        }
      ],
      "ReentrancyGuardReentrantCall()": [
        {
          "details": "Unauthorized reentrant call."
        }
      ],
      "UUPSUnauthorizedCallContext()": [
        {
          "details": "The call is from an unauthorized context."
        }
      ],
      "UUPSUnsupportedProxiableUUID(bytes32)": [
        {
          "details": "The storage `slot` is unsupported as a UUID."
        }
      ]
    },
    "events": {
      "Approval(address,address,uint256)": {
        "details": "Emitted when `owner` enables `approved` to manage the `tokenId` token."
      },
      "ApprovalForAll(address,address,bool)": {
        "details": "Emitted when `owner` enables or disables (`approved`) `operator` to manage all of its assets."
      },
      "EIP712DomainChanged()": {
        "details": "MAY be emitted to signal that the domain could have changed."
      },
      "Initialized(uint64)": {
        "details": "Triggered when the contract has been initialized or reinitialized."
      },
      "Paused(address)": {
        "details": "Emitted when the pause is triggered by `account`."
      },
      "Transfer(address,address,uint256)": {
        "details": "Emitted when `tokenId` token is transferred from `from` to `to`."
      },
      "Unpaused(address)": {
        "details": "Emitted when the pause is lifted by `account`."
      },
      "Upgraded(address)": {
        "details": "Emitted when the implementation is upgraded."
      }
    },
    "kind": "dev",
    "methods": {
      "approve(address,uint256)": {
        "details": "See {IERC721-approve}."
      },
      "balanceOf(address)": {
        "details": "See {IERC721-balanceOf}."
      },
      "constructor": {
        "custom:oz-upgrades-unsafe-allow": "constructor"
      },
      "eip712Domain()": {
        "details": "See {IERC-5267}."
      },
      "getApproved(uint256)": {
        "details": "See {IERC721-getApproved}."
      },
      "isApprovedForAll(address,address)": {
        "details": "See {IERC721-isApprovedForAll}."
      },
      "isTrustedForwarder(address)": {
        "details": "Indicates whether any particular address is the trusted forwarder."
      },
      "name()": {
        "details": "See {IERC721Metadata-name}."
      },
      "ownerOf(uint256)": {
        "details": "See {IERC721-ownerOf}."
      },
      "paused()": {
        "details": "Returns true if the contract is paused, and false otherwise."
      },
      "proxiableUUID()": {
        "details": "Implementation of the ERC1822 {proxiableUUID} function. This returns the storage slot used by the implementation. It is used to validate the implementation's compatibility when performing an upgrade. IMPORTANT: A proxy pointing at a proxiable contract should not be considered proxiable itself, because this risks bricking a proxy that upgrades to it, by delegating to itself until out of gas. Thus it is critical that this function revert if invoked through a proxy. This is guaranteed by the `notDelegated` modifier."
      },
      "safeTransferFrom(address,address,uint256)": {
        "details": "See {IERC721-safeTransferFrom}."
      },
      "safeTransferFrom(address,address,uint256,bytes)": {
        "details": "See {IERC721-safeTransferFrom}."
      },
      "setApprovalForAll(address,bool)": {
        "details": "See {IERC721-setApprovalForAll}."
      },
      "supportsInterface(bytes4)": {
        "details": "See {IERC165-supportsInterface}."
      },
      "symbol()": {
        "details": "See {IERC721Metadata-symbol}."
      },
      "tokenURI(uint256)": {
        "details": "See {IERC721Metadata-tokenURI}."
      },
      "transferFrom(address,address,uint256)": {
        "details": "See {IERC721-transferFrom}."
      },
      "trustedForwarder()": {
        "details": "Returns the address of the trusted forwarder."
      },
      "upgradeToAndCall(address,bytes)": {
        "custom:oz-upgrades-unsafe-allow-reachable": "delegatecall",
        "details": "Upgrade the implementation of the proxy to `newImplementation`, and subsequently execute the function call encoded in `data`. Calls {_authorizeUpgrade}. Emits an {Upgraded} event."
      }
    },
    "title": "Patient",
    "version": 1
  },
  "userdoc": {
    "kind": "user",
    "methods": {},
    "version": 1
  }
}