{
  "contractName": "Patient",
  "abi": [
    {
      "inputs": [
        {
          "internalType": "uint256",
          "name": "",
          "type": "uint256"
        }
      ],
      "name": "patients",
      "outputs": [
        {
          "internalType": "uint256",
          "name": "patientId",
          "type": "uint256"
        },
        {
          "internalType": "string",
          "name": "name",
          "type": "string"
        },
        {
          "internalType": "string",
          "name": "email",
          "type": "string"
        },
        {
          "internalType": "uint8",
          "name": "age",
          "type": "uint8"
        },
        {
          "internalType": "string",
          "name": "bloodGroup",
          "type": "string"
        }
      ],
      "stateMutability": "view",
      "type": "function",
      "constant": true
    },
    {
      "inputs": [
        {
          "internalType": "address",
          "name": "",
          "type": "address"
        }
      ],
      "name": "walletToPatientId",
      "outputs": [
        {
          "internalType": "uint256",
          "name": "",
          "type": "uint256"
        }
      ],
      "stateMutability": "view",
      "type": "function",
      "constant": true
    },
    {
      "inputs": [
        {
          "internalType": "address",
          "name": "walletAddress",
          "type": "address"
        }
      ],
      "name": "userExists",
      "outputs": [
        {
          "internalType": "bool",
          "name": "",
          "type": "bool"
        }
      ],
      "stateMutability": "view",
      "type": "function",
      "constant": true
    },
    {
      "inputs": [
        {
          "internalType": "string",
          "name": "_name",
          "type": "string"
        },
        {
          "internalType": "string",
          "name": "_email",
          "type": "string"
        },
        {
          "internalType": "uint8",
          "name": "_age",
          "type": "uint8"
        },
        {
          "internalType": "string",
          "name": "_bloodGroup",
          "type": "string"
        }
      ],
      "name": "registerPatient",
      "outputs": [],
      "stateMutability": "nonpayable",
      "type": "function"
    },
    {
      "inputs": [
        {
          "internalType": "string",
          "name": "_ipfsUrl",
          "type": "string"
        }
      ],
      "name": "addMedicalRecord",
      "outputs": [],
      "stateMutability": "nonpayable",
      "type": "function"
    },
    {
      "inputs": [
        {
          "internalType": "uint256",
          "name": "_patientId",
          "type": "uint256"
        }
      ],
      "name": "getPatientDetails",
      "outputs": [
        {
          "components": [
            {
              "internalType": "uint256",
              "name": "patientId",
              "type": "uint256"
            },
            {
              "internalType": "string",
              "name": "name",
              "type": "string"
            },
            {
              "internalType": "string",
              "name": "email",
              "type": "string"
            },
            {
              "internalType": "uint8",
              "name": "age",
              "type": "uint8"
            },
            {
              "internalType": "string",
              "name": "bloodGroup",
              "type": "string"
            },
            {
              "internalType": "string[]",
              "name": "medicalRecords",
              "type": "string[]"
            }
          ],
          "internalType": "struct Patient.PatientDetails",
          "name": "",
          "type": "tuple"
        }
      ],
      "stateMutability": "view",
      "type": "function",
      "constant": true
    },
    {
      "inputs": [
        {
          "internalType": "uint256",
          "name": "_patientId",
          "type": "uint256"
        }
      ],
      "name": "getMedicalRecords",
      "outputs": [
        {
          "internalType": "string[]",
          "name": "",
          "type": "string[]"
        }
      ],
      "stateMutability": "view",
      "type": "function",
      "constant": true
    }
  ],
  "bytecode": "0x608060405234801561001057600080fd5b50611888806100206000396000f3fe608060405234801561001057600080fd5b506004361061007d5760003560e01c806393119a831161005b57806393119a8314610112578063d4244b3314610146578063e671926a14610162578063ffbcfac21461017e5761007d565b80630e666e491461008257806323ecb058146100b2578063300c601c146100e2575b600080fd5b61009c60048036038101906100979190610cbe565b6101ae565b6040516100a99190610d06565b60405180910390f35b6100cc60048036038101906100c79190610cbe565b6101f9565b6040516100d99190610d3a565b60405180910390f35b6100fc60048036038101906100f79190610d81565b610211565b6040516101099190610fc9565b60405180910390f35b61012c60048036038101906101279190610d81565b610545565b60405161013d959493929190611044565b60405180910390f35b610160600480360381019061015b919061120d565b610720565b005b61017c600480360381019061017791906112c8565b610926565b005b61019860048036038101906101939190610d81565b6109f9565b6040516101a59190611397565b60405180910390f35b6000806000808473ffffffffffffffffffffffffffffffffffffffff1673ffffffffffffffffffffffffffffffffffffffff1681526020019081526020016000205414159050919050565b60006020528060005260406000206000915090505481565b610219610b39565b60008211801561022b57506002548211155b61026a576040517f08c379a000000000000000000000000000000000000000000000000000000000815260040161026190611405565b60405180910390fd5b600160008381526020019081526020016000206040518060c0016040529081600082015481526020016001820180546102a290611454565b80601f01602080910402602001604051908101604052809291908181526020018280546102ce90611454565b801561031b5780601f106102f05761010080835404028352916020019161031b565b820191906000526020600020905b8154815290600101906020018083116102fe57829003601f168201915b5050505050815260200160028201805461033490611454565b80601f016020809104026020016040519081016040528092919081815260200182805461036090611454565b80156103ad5780601f10610382576101008083540402835291602001916103ad565b820191906000526020600020905b81548152906001019060200180831161039057829003601f168201915b505050505081526020016003820160009054906101000a900460ff1660ff1660ff1681526020016004820180546103e390611454565b80601f016020809104026020016040519081016040528092919081815260200182805461040f90611454565b801561045c5780601f106104315761010080835404028352916020019161045c565b820191906000526020600020905b81548152906001019060200180831161043f57829003601f168201915b5050505050815260200160058201805480602002602001604051908101604052809291908181526020016000905b828210156105365783829060005260206000200180546104a990611454565b80601f01602080910402602001604051908101604052809291908181526020018280546104d590611454565b80156105225780601f106104f757610100808354040283529160200191610522565b820191906000526020600020905b81548152906001019060200180831161050557829003601f168201915b50505050508152602001906001019061048a565b50505050815250509050919050565b600160205280600052604060002060009150905080600001549080600101805461056e90611454565b80601f016020809104026020016040519081016040528092919081815260200182805461059a90611454565b80156105e75780601f106105bc576101008083540402835291602001916105e7565b820191906000526020600020905b8154815290600101906020018083116105ca57829003601f168201915b5050505050908060020180546105fc90611454565b80601f016020809104026020016040519081016040528092919081815260200182805461062890611454565b80156106755780601f1061064a57610100808354040283529160200191610675565b820191906000526020600020905b81548152906001019060200180831161065857829003601f168201915b5050505050908060030160009054906101000a900460ff169080600401805461069d90611454565b80601f01602080910402602001604051908101604052809291908181526020018280546106c990611454565b80156107165780601f106106eb57610100808354040283529160200191610716565b820191906000526020600020905b8154815290600101906020018083116106f957829003601f168201915b5050505050905085565b60008060003373ffffffffffffffffffffffffffffffffffffffff1673ffffffffffffffffffffffffffffffffffffffff16815260200190815260200160002054146107a1576040517f08c379a0000000000000000000000000000000000000000000000000000000008152600401610798906114d1565b60405180910390fd5b600260008154809291906107b490611520565b91905055506002546000803373ffffffffffffffffffffffffffffffffffffffff1673ffffffffffffffffffffffffffffffffffffffff168152602001908152602001600020819055506040518060c0016040528060025481526020018581526020018481526020018360ff168152602001828152602001600067ffffffffffffffff811115610847576108466110b6565b5b60405190808252806020026020018201604052801561087a57816020015b60608152602001906001900390816108655790505b508152506001600060025481526020019081526020016000206000820151816000015560208201518160010190816108b29190611714565b5060408201518160020190816108c89190611714565b5060608201518160030160006101000a81548160ff021916908360ff16021790555060808201518160040190816108ff9190611714565b5060a082015181600501908051906020019061091c929190610b72565b5090505050505050565b60008060003373ffffffffffffffffffffffffffffffffffffffff1673ffffffffffffffffffffffffffffffffffffffff168152602001908152602001600020549050600081036109ac576040517f08c379a00000000000000000000000000000000000000000000000000000000081526004016109a390611832565b60405180910390fd5b60016000828152602001908152602001600020600501829080600181540180825580915050600190039060005260206000200160009091909190915090816109f49190611714565b505050565b6060600082118015610a0d57506002548211155b610a4c576040517f08c379a0000000000000000000000000000000000000000000000000000000008152600401610a4390611405565b60405180910390fd5b60016000838152602001908152602001600020600501805480602002602001604051908101604052809291908181526020016000905b82821015610b2e578382906000526020600020018054610aa190611454565b80601f0160208091040260200160405190810160405280929190818152602001828054610acd90611454565b8015610b1a5780601f10610aef57610100808354040283529160200191610b1a565b820191906000526020600020905b815481529060010190602001808311610afd57829003601f168201915b505050505081526020019060010190610a82565b505050509050919050565b6040518060c00160405280600081526020016060815260200160608152602001600060ff16815260200160608152602001606081525090565b828054828255906000526020600020908101928215610bba579160200282015b82811115610bb9578251829081610ba99190611714565b5091602001919060010190610b92565b5b509050610bc79190610bcb565b5090565b5b80821115610beb5760008181610be29190610bef565b50600101610bcc565b5090565b508054610bfb90611454565b6000825580601f10610c0d5750610c2c565b601f016020900490600052602060002090810190610c2b9190610c2f565b5b50565b5b80821115610c48576000816000905550600101610c30565b5090565b6000604051905090565b600080fd5b600080fd5b600073ffffffffffffffffffffffffffffffffffffffff82169050919050565b6000610c8b82610c60565b9050919050565b610c9b81610c80565b8114610ca657600080fd5b50565b600081359050610cb881610c92565b92915050565b600060208284031215610cd457610cd3610c56565b5b6000610ce284828501610ca9565b91505092915050565b60008115159050919050565b610d0081610ceb565b82525050565b6000602082019050610d1b6000830184610cf7565b92915050565b6000819050919050565b610d3481610d21565b82525050565b6000602082019050610d4f6000830184610d2b565b92915050565b610d5e81610d21565b8114610d6957600080fd5b50565b600081359050610d7b81610d55565b92915050565b600060208284031215610d9757610d96610c56565b5b6000610da584828501610d6c565b91505092915050565b610db781610d21565b82525050565b600081519050919050565b600082825260208201905092915050565b60005b83811015610df7578082015181840152602081019050610ddc565b60008484015250505050565b6000601f19601f8301169050919050565b6000610e1f82610dbd565b610e298185610dc8565b9350610e39818560208601610dd9565b610e4281610e03565b840191505092915050565b600060ff82169050919050565b610e6381610e4d565b82525050565b600081519050919050565b600082825260208201905092915050565b6000819050602082019050919050565b6000610ea18383610e14565b905092915050565b6000602082019050919050565b6000610ec182610e69565b610ecb8185610e74565b935083602082028501610edd85610e85565b8060005b85811015610f195784840389528151610efa8582610e95565b9450610f0583610ea9565b925060208a01995050600181019050610ee1565b50829750879550505050505092915050565b600060c083016000830151610f436000860182610dae565b5060208301518482036020860152610f5b8282610e14565b91505060408301518482036040860152610f758282610e14565b9150506060830151610f8a6060860182610e5a565b5060808301518482036080860152610fa28282610e14565b91505060a083015184820360a0860152610fbc8282610eb6565b9150508091505092915050565b60006020820190508181036000830152610fe38184610f2b565b905092915050565b600082825260208201905092915050565b600061100782610dbd565b6110118185610feb565b9350611021818560208601610dd9565b61102a81610e03565b840191505092915050565b61103e81610e4d565b82525050565b600060a0820190506110596000830188610d2b565b818103602083015261106b8187610ffc565b9050818103604083015261107f8186610ffc565b905061108e6060830185611035565b81810360808301526110a08184610ffc565b90509695505050505050565b600080fd5b600080fd5b7f4e487b7100000000000000000000000000000000000000000000000000000000600052604160045260246000fd5b6110ee82610e03565b810181811067ffffffffffffffff8211171561110d5761110c6110b6565b5b80604052505050565b6000611120610c4c565b905061112c82826110e5565b919050565b600067ffffffffffffffff82111561114c5761114b6110b6565b5b61115582610e03565b9050602081019050919050565b82818337600083830152505050565b600061118461117f84611131565b611116565b9050828152602081018484840111156111a05761119f6110b1565b5b6111ab848285611162565b509392505050565b600082601f8301126111c8576111c76110ac565b5b81356111d8848260208601611171565b91505092915050565b6111ea81610e4d565b81146111f557600080fd5b50565b600081359050611207816111e1565b92915050565b6000806000806080858703121561122757611226610c56565b5b600085013567ffffffffffffffff81111561124557611244610c5b565b5b611251878288016111b3565b945050602085013567ffffffffffffffff81111561127257611271610c5b565b5b61127e878288016111b3565b935050604061128f878288016111f8565b925050606085013567ffffffffffffffff8111156112b0576112af610c5b565b5b6112bc878288016111b3565b91505092959194509250565b6000602082840312156112de576112dd610c56565b5b600082013567ffffffffffffffff8111156112fc576112fb610c5b565b5b611308848285016111b3565b91505092915050565b600082825260208201905092915050565b600061132d82610e69565b6113378185611311565b93508360208202850161134985610e85565b8060005b8581101561138557848403895281516113668582610e95565b945061137183610ea9565b925060208a0199505060018101905061134d565b50829750879550505050505092915050565b600060208201905081810360008301526113b18184611322565b905092915050565b7f496e76616c69642070617469656e742049440000000000000000000000000000600082015250565b60006113ef601283610feb565b91506113fa826113b9565b602082019050919050565b6000602082019050818103600083015261141e816113e2565b9050919050565b7f4e487b7100000000000000000000000000000000000000000000000000000000600052602260045260246000fd5b6000600282049050600182168061146c57607f821691505b60208210810361147f5761147e611425565b5b50919050565b7f50617469656e7420616c72656164792072656769737465726564000000000000600082015250565b60006114bb601a83610feb565b91506114c682611485565b602082019050919050565b600060208201905081810360008301526114ea816114ae565b9050919050565b7f4e487b7100000000000000000000000000000000000000000000000000000000600052601160045260246000fd5b600061152b82610d21565b91507fffffffffffffffffffffffffffffffffffffffffffffffffffffffffffffffff820361155d5761155c6114f1565b5b600182019050919050565b60008190508160005260206000209050919050565b60006020601f8301049050919050565b600082821b905092915050565b6000600883026115ca7fffffffffffffffffffffffffffffffffffffffffffffffffffffffffffffffff8261158d565b6115d4868361158d565b95508019841693508086168417925050509392505050565b6000819050919050565b600061161161160c61160784610d21565b6115ec565b610d21565b9050919050565b6000819050919050565b61162b836115f6565b61163f61163782611618565b84845461159a565b825550505050565b600090565b611654611647565b61165f818484611622565b505050565b5b818110156116835761167860008261164c565b600181019050611665565b5050565b601f8211156116c85761169981611568565b6116a28461157d565b810160208510156116b1578190505b6116c56116bd8561157d565b830182611664565b50505b505050565b600082821c905092915050565b60006116eb600019846008026116cd565b1980831691505092915050565b600061170483836116da565b9150826002028217905092915050565b61171d82610dbd565b67ffffffffffffffff811115611736576117356110b6565b5b6117408254611454565b61174b828285611687565b600060209050601f83116001811461177e576000841561176c578287015190505b61177685826116f8565b8655506117de565b601f19841661178c86611568565b60005b828110156117b45784890151825560018201915060208501945060208101905061178f565b868310156117d157848901516117cd601f8916826116da565b8355505b6001600288020188555050505b505050505050565b7f50617469656e74206e6f74207265676973746572656400000000000000000000600082015250565b600061181c601683610feb565b9150611827826117e6565b602082019050919050565b6000602082019050818103600083015261184b8161180f565b905091905056fea264697066735822122097c496f8bc7f99785611a2003dc6b7e940d9ec40bfb665122988455ff7017f9d64736f6c63430008130033",
  "immutableReferences": {},
  "source": "// SPDX-License-Identifier: MIT\r\npragma solidity 0.8.19;\r\n\r\ncontract Patient {\r\n    mapping(address => uint256) public walletToPatientId;\r\n\r\n    function userExists(address walletAddress) public view returns (bool) {\r\n        return walletToPatientId[walletAddress] != 0;\r\n    }\r\n\r\n    struct PatientDetails {\r\n        uint256 patientId;\r\n        string name;\r\n        string email;\r\n        uint8 age;\r\n        string bloodGroup;\r\n        string[] medicalRecords;\r\n    }\r\n\r\n    mapping(uint256 => PatientDetails) public patients;\r\n    uint256 private patientIdCounter;\r\n\r\n    function registerPatient(string memory _name, string memory _email, uint8 _age, string memory _bloodGroup) public {\r\n        require(walletToPatientId[msg.sender] == 0, \"Patient already registered\");\r\n        patientIdCounter++;\r\n        walletToPatientId[msg.sender] = patientIdCounter;\r\n        patients[patientIdCounter] = PatientDetails({\r\n            patientId: patientIdCounter,\r\n            name: _name,\r\n            email: _email,\r\n            age: _age,\r\n            bloodGroup: _bloodGroup,\r\n            medicalRecords: new string[](0)\r\n        });\r\n    }\r\n\r\n    function addMedicalRecord(string memory _ipfsUrl) public {\r\n        uint256 patientId = walletToPatientId[msg.sender];\r\n        require(patientId != 0, \"Patient not registered\");\r\n\r\n        patients[patientId].medicalRecords.push(_ipfsUrl);\r\n\r\n    }\r\n\r\n    function getPatientDetails(uint256 _patientId) public view returns (PatientDetails memory) {\r\n        require(_patientId > 0 && _patientId <= patientIdCounter, \"Invalid patient ID\");\r\n        return patients[_patientId];\r\n    }\r\n\r\n    function getMedicalRecords(uint256 _patientId) public view returns (string[] memory) {\r\n        require(_patientId > 0 && _patientId <= patientIdCounter, \"Invalid patient ID\");\r\n        return patients[_patientId].medicalRecords;\r\n    }\r\n\r\n\r\n}\r\n",
  "sourcePath": "J:\\Users\\ayush\\Desktop\\code\\team-rocket-medi-secure\\contracts\\contracts\\Patient.sol",
  "compiler": {
    "name": "solc",
    "version": "0.8.19+commit.7dd6d404.Emscripten.clang"
  },
  "schemaVersion": "3.4.16",
  "updatedAt": "2026-01-15T19:26:51.714Z",
  "networkType": "ethereum",
  "devdoc": {
    "kind": "dev",
    "methods": {},
    "version": 1
  },
  "userdoc": {
    "kind": "user",
    "methods": {},
    "version": 1
  }
}