{
  "contractName": "Patient",
  "abi": [
    {
      "inputs": [],
      "stateMutability": "nonpayable",
      "type": "constructor"
    },
    {
      "inputs": [
        {
          "internalType": "address",
          "name": "sender",
          "type": "address"
        },
        {
          "internalType": "uint256",
          "name": "tokenId",
          "type": "uint256"
        },
        {
          "internalType": "address",
          "name": "owner",
          "type": "address"
        }
      ],
      "name": "ERC721IncorrectOwner",
      "type": "error"
    },
    {
      "inputs": [
        {
          "internalType": "address",
          "name": "operator",
          "type": "address"
        },
        {
          "internalType": "uint256",
          "name": "tokenId",
          "type": "uint256"
        }
      ],
      "name": "ERC721InsufficientApproval",
      "type": "error"
    },
    {
      "inputs": [
        {
          "internalType": "address",
          "name": "approver",
          "type": "address"
        }
      ],
      "name": "ERC721InvalidApprover",
      "type": "error"
    },
    {
      "inputs": [
        {
          "internalType": "address",
          "name": "operator",
          "type": "address"
        }
      ],
      "name": "ERC721InvalidOperator",
      "type": "error"
    },
    {
      "inputs": [
        {
          "internalType": "address",
          "name": "owner",
          "type": "address"
        }
      ],
      "name": "ERC721InvalidOwner",
      "type": "error"
    },
    {
      "inputs": [
        {
          "internalType": "address",
          "name": "receiver",
          "type": "address"
        }
      ],
      "name": "ERC721InvalidReceiver",
      "type": "error"
    },
    {
      "inputs": [
        {
          "internalType": "address",
          "name": "sender",
          "type": "address"
        }
      ],
      "name": "ERC721InvalidSender",
      "type": "error"
    },
    {
      "inputs": [
        {
          "internalType": "uint256",
          "name": "tokenId",
          "type": "uint256"
        }
      ],
      "name": "ERC721NonexistentToken",
      "type": "error"
    },
    {
      "anonymous": false,
      "inputs": [
        {
          "indexed": true,
          "internalType": "address",
          "name": "owner",
          "type": "address"
        },
        {
          "indexed": true,
          "internalType": "address",
          "name": "approved",
          "type": "address"
        },
        {
          "indexed": true,
          "internalType": "uint256",
          "name": "tokenId",
          "type": "uint256"
        }
      ],
      "name": "Approval",
      "type": "event"
    },
    {
      "anonymous": false,
      "inputs": [
        {
          "indexed": true,
          "internalType": "address",
          "name": "owner",
          "type": "address"
        },
        {
          "indexed": true,
          "internalType": "address",
          "name": "operator",
          "type": "address"
        },
        {
          "indexed": false,
          "internalType": "bool",
          "name": "approved",
          "type": "bool"
        }
      ],
      "name": "ApprovalForAll",
      "type": "event"
    },
    {
      "anonymous": false,
      "inputs": [
        {
          "indexed": false,
          "internalType": "uint256",
          "name": "_fromTokenId",
          "type": "uint256"
        },
        {
          "indexed": false,
          "internalType": "uint256",
          "name": "_toTokenId",
          "type": "uint256"
        }
      ],
      "name": "BatchMetadataUpdate",
      "type": "event"
    },
    {
      "anonymous": false,
      "inputs": [
        {
          "indexed": false,
          "internalType": "uint256",
          "name": "_tokenId",
          "type": "uint256"
        }
      ],
      "name": "MetadataUpdate",
      "type": "event"
    },
    {
      "anonymous": false,
      "inputs": [
        {
          "indexed": true,
          "internalType": "address",
          "name": "from",
          "type": "address"
        },
        {
          "indexed": true,
          "internalType": "address",
          "name": "to",
          "type": "address"
        },
        {
          "indexed": true,
          "internalType": "uint256",
          "name": "tokenId",
          "type": "uint256"
        }
      ],
      "name": "Transfer",
      "type": "event"
    },
    {
      "inputs": [
        {
          "internalType": "address",
          "name": "to",
          "type": "address"
        },
        {
          "internalType": "uint256",
          "name": "tokenId",
          "type": "uint256"
        }
      ],
      "name": "approve",
      "outputs": [],
      "stateMutability": "nonpayable",
      "type": "function"
    },
    {
      "inputs": [
        {
          "internalType": "address",
          "name": "owner",
          "type": "address"
        }
      ],
      "name": "balanceOf",
      "outputs": [
        {
          "internalType": "uint256",
          "name": "",
          "type": "uint256"
        }
      ],
      "stateMutability": "view",
      "type": "function",
      "constant": true
    },
    {
      "inputs": [
        {
          "internalType": "uint256",
          "name": "tokenId",
          "type": "uint256"
        }
      ],
      "name": "getApproved",
      "outputs": [
        {
          "internalType": "address",
          "name": "",
          "type": "address"
        }
      ],
      "stateMutability": "view",
      "type": "function",
      "constant": true
    },
    {
      "inputs": [
        {
          "internalType": "address",
          "name": "owner",
          "type": "address"
        },
        {
          "internalType": "address",
          "name": "operator",
          "type": "address"
        }
      ],
      "name": "isApprovedForAll",
      "outputs": [
        {
          "internalType": "bool",
          "name": "",
          "type": "bool"
        }
      ],
      "stateMutability": "view",
      "type": "function",
      "constant": true
    },
    {
      "inputs": [],
      "name": "name",
      "outputs": [
        {
          "internalType": "string",
          "name": "",
          "type": "string"
        }
      ],
      "stateMutability": "view",
      "type": "function",
      "constant": true
    },
    {
      "inputs": [
        {
          "internalType": "uint256",
          "name": "tokenId",
          "type": "uint256"
        }
      ],
      "name": "ownerOf",
      "outputs": [
        {
          "internalType": "address",
          "name": "",
          "type": "address"
        }
      ],
      "stateMutability": "view",
      "type": "function",
      "constant": true
    },
    {
      "inputs": [
        {
          "internalType": "uint256",
          "name": "",
          "type": "uint256"
        },
        {
          "internalType": "uint256",
          "name": "",
          "type": "uint256"
        }
      ],
      "name": "patientNominees",
      "outputs": [
        {
          "internalType": "string",
          "name": "name",
          "type": "string"
        },
        {
          "internalType": "address",
          "name": "walletAddress",
          "type": "address"
        },
        {
          "internalType": "string",
          "name": "relationship",
          "type": "string"
        },
        {
          "internalType": "string",
          "name": "contactNumber",
          "type": "string"
        }
      ],
      "stateMutability": "view",
      "type": "function",
      "constant": true
    },
    {
      "inputs": [
        {
          "internalType": "uint256",
          "name": "",
          "type": "uint256"
        }
      ],
      "name": "patients",
      "outputs": [
        {
          "internalType": "uint256",
          "name": "patientId",
          "type": "uint256"
        },
        {
          "internalType": "string",
          "name": "username",
          "type": "string"
        },
        {
          "internalType": "string",
          "name": "name",
          "type": "string"
        },
        {
          "internalType": "address",
          "name": "walletAddress",
          "type": "address"
        },
        {
          "internalType": "string",
          "name": "email",
          "type": "string"
        },
        {
          "internalType": "uint8",
          "name": "age",
          "type": "uint8"
        },
        {
          "internalType": "string",
          "name": "bloodGroup",
          "type": "string"
        }
      ],
      "stateMutability": "view",
      "type": "function",
      "constant": true
    },
    {
      "inputs": [
        {
          "internalType": "address",
          "name": "from",
          "type": "address"
        },
        {
          "internalType": "address",
          "name": "to",
          "type": "address"
        },
        {
          "internalType": "uint256",
          "name": "tokenId",
          "type": "uint256"
        }
      ],
      "name": "safeTransferFrom",
      "outputs": [],
      "stateMutability": "nonpayable",
      "type": "function"
    },
    {
      "inputs": [
        {
          "internalType": "address",
          "name": "from",
          "type": "address"
        },
        {
          "internalType": "address",
          "name": "to",
          "type": "address"
        },
        {
          "internalType": "uint256",
          "name": "tokenId",
          "type": "uint256"
        },
        {
          "internalType": "bytes",
          "name": "data",
          "type": "bytes"
        }
      ],
      "name": "safeTransferFrom",
      "outputs": [],
      "stateMutability": "nonpayable",
      "type": "function"
    },
    {
      "inputs": [
        {
          "internalType": "address",
          "name": "operator",
          "type": "address"
        },
        {
          "internalType": "bool",
          "name": "approved",
          "type": "bool"
        }
      ],
      "name": "setApprovalForAll",
      "outputs": [],
      "stateMutability": "nonpayable",
      "type": "function"
    },
    {
      "inputs": [
        {
          "internalType": "bytes4",
          "name": "interfaceId",
          "type": "bytes4"
        }
      ],
      "name": "supportsInterface",
      "outputs": [
        {
          "internalType": "bool",
          "name": "",
          "type": "bool"
        }
      ],
      "stateMutability": "view",
      "type": "function",
      "constant": true
    },
    {
      "inputs": [],
      "name": "symbol",
      "outputs": [
        {
          "internalType": "string",
          "name": "",
          "type": "string"
        }
      ],
      "stateMutability": "view",
      "type": "function",
      "constant": true
    },
    {
      "inputs": [
        {
          "internalType": "uint256",
          "name": "tokenId",
          "type": "uint256"
        }
      ],
      "name": "tokenURI",
      "outputs": [
        {
          "internalType": "string",
          "name": "",
          "type": "string"
        }
      ],
      "stateMutability": "view",
      "type": "function",
      "constant": true
    },
    {
      "inputs": [
        {
          "internalType": "address",
          "name": "from",
          "type": "address"
        },
        {
          "internalType": "address",
          "name": "to",
          "type": "address"
        },
        {
          "internalType": "uint256",
          "name": "tokenId",
          "type": "uint256"
        }
      ],
      "name": "transferFrom",
      "outputs": [],
      "stateMutability": "nonpayable",
      "type": "function"
    },
    {
      "inputs": [
        {
          "internalType": "string",
          "name": "",
          "type": "string"
        }
      ],
      "name": "usernameToPatientId",
      "outputs": [
        {
          "internalType": "uint256",
          "name": "",
          "type": "uint256"
        }
      ],
      "stateMutability": "view",
      "type": "function",
      "constant": true
    },
    {
      "inputs": [
        {
          "internalType": "address",
          "name": "",
          "type": "address"
        }
      ],
      "name": "walletToPatientId",
      "outputs": [
        {
          "internalType": "uint256",
          "name": "",
          "type": "uint256"
        }
      ],
      "stateMutability": "view",
      "type": "function",
      "constant": true
    },
    {
      "inputs": [
        {
          "internalType": "address",
          "name": "walletAddress",
          "type": "address"
        }
      ],
      "name": "userExists",
      "outputs": [
        {
          "internalType": "bool",
          "name": "",
          "type": "bool"
        }
      ],
      "stateMutability": "view",
      "type": "function",
      "constant": true
    },
    {
      "inputs": [
        {
          "internalType": "string",
          "name": "_username",
          "type": "string"
        },
        {
          "internalType": "string",
          "name": "_name",
          "type": "string"
        },
        {
          "internalType": "string",
          "name": "_email",
          "type": "string"
        },
        {
          "internalType": "uint8",
          "name": "_age",
          "type": "uint8"
        },
        {
          "internalType": "string",
          "name": "_bloodGroup",
          "type": "string"
        }
      ],
      "name": "registerPatient",
      "outputs": [],
      "stateMutability": "nonpayable",
      "type": "function"
    },
    {
      "inputs": [
        {
          "internalType": "string",
          "name": "_name",
          "type": "string"
        },
        {
          "internalType": "string",
          "name": "_email",
          "type": "string"
        },
        {
          "internalType": "uint8",
          "name": "_age",
          "type": "uint8"
        },
        {
          "internalType": "string",
          "name": "_bloodGroup",
          "type": "string"
        }
      ],
      "name": "updatePatientDetails",
      "outputs": [],
      "stateMutability": "nonpayable",
      "type": "function"
    },
    {
      "inputs": [
        {
          "internalType": "string",
          "name": "_name",
          "type": "string"
        },
        {
          "internalType": "address",
          "name": "_walletAddress",
          "type": "address"
        },
        {
          "internalType": "string",
          "name": "_relationship",
          "type": "string"
        },
        {
          "internalType": "string",
          "name": "_contactNumber",
          "type": "string"
        }
      ],
      "name": "addNominee",
      "outputs": [],
      "stateMutability": "nonpayable",
      "type": "function"
    },
    {
      "inputs": [
        {
          "internalType": "uint256",
          "name": "_patientId",
          "type": "uint256"
        }
      ],
      "name": "getNominees",
      "outputs": [
        {
          "components": [
            {
              "internalType": "string",
              "name": "name",
              "type": "string"
            },
            {
              "internalType": "address",
              "name": "walletAddress",
              "type": "address"
            },
            {
              "internalType": "string",
              "name": "relationship",
              "type": "string"
            },
            {
              "internalType": "string",
              "name": "contactNumber",
              "type": "string"
            }
          ],
          "internalType": "struct Patient.Nominee[]",
          "name": "",
          "type": "tuple[]"
        }
      ],
      "stateMutability": "view",
      "type": "function",
      "constant": true
    },
    {
      "inputs": [
        {
          "internalType": "string",
          "name": "_ipfsHash",
          "type": "string"
        },
        {
          "internalType": "string",
          "name": "_fileName",
          "type": "string"
        },
        {
          "internalType": "string",
          "name": "_recordDate",
          "type": "string"
        },
        {
          "internalType": "string",
          "name": "_hospital",
          "type": "string"
        }
      ],
      "name": "addMedicalRecord",
      "outputs": [],
      "stateMutability": "nonpayable",
      "type": "function"
    },
    {
      "inputs": [
        {
          "internalType": "uint256",
          "name": "_patientId",
          "type": "uint256"
        }
      ],
      "name": "getPatientDetails",
      "outputs": [
        {
          "components": [
            {
              "internalType": "uint256",
              "name": "patientId",
              "type": "uint256"
            },
            {
              "internalType": "string",
              "name": "username",
              "type": "string"
            },
            {
              "internalType": "string",
              "name": "name",
              "type": "string"
            },
            {
              "internalType": "address",
              "name": "walletAddress",
              "type": "address"
            },
            {
              "internalType": "string",
              "name": "email",
              "type": "string"
            },
            {
              "internalType": "uint8",
              "name": "age",
              "type": "uint8"
            },
            {
              "internalType": "string",
              "name": "bloodGroup",
              "type": "string"
            },
            {
              "components": [
                {
                  "internalType": "uint256",
                  "name": "tokenId",
                  "type": "uint256"
                },
                {
                  "internalType": "string",
                  "name": "ipfsHash",
                  "type": "string"
                },
                {
                  "internalType": "string",
                  "name": "fileName",
                  "type": "string"
                },
                {
                  "internalType": "string",
                  "name": "recordDate",
                  "type": "string"
                },
                {
                  "internalType": "string",
                  "name": "hospital",
                  "type": "string"
                }
              ],
              "internalType": "struct Patient.MedicalRecord[]",
              "name": "medicalRecords",
              "type": "tuple[]"
            }
          ],
          "internalType": "struct Patient.PatientDetails",
          "name": "",
          "type": "tuple"
        }
      ],
      "stateMutability": "view",
      "type": "function",
      "constant": true
    },
    {
      "inputs": [
        {
          "internalType": "string",
          "name": "_username",
          "type": "string"
        }
      ],
      "name": "getPatientIdByUsername",
      "outputs": [
        {
          "internalType": "uint256",
          "name": "",
          "type": "uint256"
        }
      ],
      "stateMutability": "view",
      "type": "function",
      "constant": true
    },
    {
      "inputs": [
        {
          "internalType": "uint256",
          "name": "_patientId",
          "type": "uint256"
        }
      ],
      "name": "getMedicalRecords",
      "outputs": [
        {
          "components": [
            {
              "internalType": "uint256",
              "name": "tokenId",
              "type": "uint256"
            },
            {
              "internalType": "string",
              "name": "ipfsHash",
              "type": "string"
            },
            {
              "internalType": "string",
              "name": "fileName",
              "type": "string"
            },
            {
              "internalType": "string",
              "name": "recordDate",
              "type": "string"
            },
            {
              "internalType": "string",
              "name": "hospital",
              "type": "string"
            }
          ],
          "internalType": "struct Patient.MedicalRecord[]",
          "name": "",
          "type": "tuple[]"
        }
      ],
      "stateMutability": "view",
      "type": "function",
      "constant": true
    }
  ],
  "bytecode": "0x608060405234801561001057600080fd5b50604051806040016040528060118152602001701359591a54d958dd5c9948149958dbdc99607a1b815250604051806040016040528060068152602001654d454452454360d01b8152508160009081610069919061012a565b506001610076828261012a565b5050506101ec565b634e487b7160e01b600052604160045260246000fd5b600181811c908216806100a857607f821691505b6020821081036100c857634e487b7160e01b600052602260045260246000fd5b50919050565b601f821115610125578282111561012557806000526020600020601f840160051c60208510156100fc575060005b90810190601f840160051c0360005b818110156101215760008382015560010161010b565b5050505b505050565b81516001600160401b038111156101435761014361007e565b610157816101518454610094565b846100ce565b6020601f82116001811461018b57600083156101735750848201515b600019600385901b1c1916600184901b1784556101e5565b600084815260208120601f198516915b828110156101bb578785015182556020948501946001909201910161019b565b50848210156101d95786840151600019600387901b60f8161c191681555b505060018360011b0184555b5050505050565b612e8f806101fb6000396000f3fe608060405234801561001057600080fd5b506004361061018e5760003560e01c80633a0c8fb2116100de57806393119a8311610097578063b88d4fde11610071578063b88d4fde146103e3578063c87b56dd146103f6578063e985e9c514610409578063ffbcfac21461041c57600080fd5b806393119a83146103a257806395d89b41146103c8578063a22cb465146103d057600080fd5b80633a0c8fb21461031857806342842e0e1461032b5780636352211e1461033e57806370a08231146103515780638590ed19146103645780638d6c56c31461038f57600080fd5b80631f9761311161014b57806323ecb0581161012557806323ecb058146102975780632b05a65e146102c55780632d50aae3146102d8578063300c601c146102f857600080fd5b80631f9761311461025e5780631ff3bd8b1461027157806323b872dd1461028457600080fd5b806301ffc9a71461019357806306fdde03146101bb578063081812fc146101d0578063095ea7b3146101fb5780630c5d6c9d146102105780630e666e4914610233575b600080fd5b6101a66101a1366004612342565b61043c565b60405190151581526020015b60405180910390f35b6101c3610467565b6040516101b291906123af565b6101e36101de3660046123c2565b6104f9565b6040516001600160a01b0390911681526020016101b2565b61020e6102093660046123f7565b610522565b005b61022361021e366004612421565b610531565b6040516101b29493929190612443565b6101a6610241366004612496565b6001600160a01b0316600090815260086020526040902054151590565b61020e61026c36600461255f565b610725565b61020e61027f366004612612565b610813565b61020e6102923660046126df565b6109a3565b6102b76102a5366004612496565b60086020526000908152604090205481565b6040519081526020016101b2565b6102b76102d336600461271c565b610a2e565b6102eb6102e63660046123c2565b610a56565b6040516101b29190612750565b61030b6103063660046123c2565b610c95565b6040516101b291906128c9565b61020e6103263660046129a2565b61128c565b61020e6103393660046126df565b611398565b6101e361034c3660046123c2565b6113b8565b6102b761035f366004612496565b6113c3565b6102b761037236600461271c565b805160208183018101805160098252928201919093012091525481565b61020e61039d366004612a1e565b61140b565b6103b56103b03660046123c2565b611486565b6040516101b29796959493929190612aa8565b6101c36116f9565b61020e6103de366004612b21565b611708565b61020e6103f1366004612b5d565b611713565b6101c36104043660046123c2565b61172b565b6101a6610417366004612bcc565b61183c565b61042f61042a3660046123c2565b61186a565b6040516101b29190612bff565b60006001600160e01b03198216632483248360e11b1480610461575061046182611b6f565b92915050565b60606000805461047690612c12565b80601f01602080910402602001604051908101604052809291908181526020018280546104a290612c12565b80156104ef5780601f106104c4576101008083540402835291602001916104ef565b820191906000526020600020905b8154815290600101906020018083116104d257829003601f168201915b5050505050905090565b600061050482611bbf565b506000828152600460205260409020546001600160a01b0316610461565b61052d828233611bf8565b5050565b600c602052816000526040600020818154811061054d57600080fd5b90600052602060002090600402016000915091505080600001805461057190612c12565b80601f016020809104026020016040519081016040528092919081815260200182805461059d90612c12565b80156105ea5780601f106105bf576101008083540402835291602001916105ea565b820191906000526020600020905b8154815290600101906020018083116105cd57829003601f168201915b505050600184015460028501805494956001600160a01b0390921694919350915061061490612c12565b80601f016020809104026020016040519081016040528092919081815260200182805461064090612c12565b801561068d5780601f106106625761010080835404028352916020019161068d565b820191906000526020600020905b81548152906001019060200180831161067057829003601f168201915b5050505050908060030180546106a290612c12565b80601f01602080910402602001604051908101604052809291908181526020018280546106ce90612c12565b801561071b5780601f106106f05761010080835404028352916020019161071b565b820191906000526020600020905b8154815290600101906020018083116106fe57829003601f168201915b5050505050905084565b336000908152600860205260408120549081900361075e5760405162461bcd60e51b815260040161075590612c4c565b60405180910390fd5b6000818152600c6020908152604080832081516080810183528981526001600160a01b038916818501529182018790526060820186905280546001810182559084529190922082516004909202019081906107b99082612ccf565b5060208201516001820180546001600160a01b0319166001600160a01b03909216919091179055604082015160028201906107f49082612ccf565b50606082015160038201906108099082612ccf565b5050505050505050565b33600090815260086020526040902054156108705760405162461bcd60e51b815260206004820152601a60248201527f50617469656e7420616c726561647920726567697374657265640000000000006044820152606401610755565b6009856040516108809190612d8d565b9081526020016040518091039020546000146108d75760405162461bcd60e51b81526020600482015260166024820152752ab9b2b93730b6b29030b63932b0b23c903a30b5b2b760511b6044820152606401610755565b600b80549060006108e783612da9565b9091555050600b54336000908152600860205260409081902082905551600990610912908890612d8d565b908152604080516020928190038301902092909255600b546000818152600a909252919020908155600181016109488782612ccf565b50600281016109578682612ccf565b506003810180546001600160a01b031916331790556004810161097a8582612ccf565b5060058101805460ff191660ff85161790556006810161099a8382612ccf565b50505050505050565b6001600160a01b0382166109cd57604051633250574960e11b815260006004820152602401610755565b60006109da838333611c05565b9050836001600160a01b0316816001600160a01b031614610a28576040516364283d7b60e01b81526001600160a01b0380861660048301526024820184905282166044820152606401610755565b50505050565b6000600982604051610a409190612d8d565b9081526020016040518091039020549050919050565b6060600c6000838152602001908152602001600020805480602002602001604051908101604052809291908181526020016000905b82821015610c8a5783829060005260206000209060040201604051806080016040529081600082018054610abe90612c12565b80601f0160208091040260200160405190810160405280929190818152602001828054610aea90612c12565b8015610b375780601f10610b0c57610100808354040283529160200191610b37565b820191906000526020600020905b815481529060010190602001808311610b1a57829003601f168201915b505050918352505060018201546001600160a01b03166020820152600282018054604090920191610b6790612c12565b80601f0160208091040260200160405190810160405280929190818152602001828054610b9390612c12565b8015610be05780601f10610bb557610100808354040283529160200191610be0565b820191906000526020600020905b815481529060010190602001808311610bc357829003601f168201915b50505050508152602001600382018054610bf990612c12565b80601f0160208091040260200160405190810160405280929190818152602001828054610c2590612c12565b8015610c725780601f10610c4757610100808354040283529160200191610c72565b820191906000526020600020905b815481529060010190602001808311610c5557829003601f168201915b50505050508152505081526020019060010190610a8b565b505050509050919050565b610ce960405180610100016040528060008152602001606081526020016060815260200160006001600160a01b0316815260200160608152602001600060ff16815260200160608152602001606081525090565b600082118015610cfb5750600b548211155b610d3c5760405162461bcd60e51b8152602060048201526012602482015271125b9d985b1a59081c185d1a595b9d08125160721b6044820152606401610755565b600a60008381526020019081526020016000206040518061010001604052908160008201548152602001600182018054610d7590612c12565b80601f0160208091040260200160405190810160405280929190818152602001828054610da190612c12565b8015610dee5780601f10610dc357610100808354040283529160200191610dee565b820191906000526020600020905b815481529060010190602001808311610dd157829003601f168201915b50505050508152602001600282018054610e0790612c12565b80601f0160208091040260200160405190810160405280929190818152602001828054610e3390612c12565b8015610e805780601f10610e5557610100808354040283529160200191610e80565b820191906000526020600020905b815481529060010190602001808311610e6357829003601f168201915b505050918352505060038201546001600160a01b03166020820152600482018054604090920191610eb090612c12565b80601f0160208091040260200160405190810160405280929190818152602001828054610edc90612c12565b8015610f295780601f10610efe57610100808354040283529160200191610f29565b820191906000526020600020905b815481529060010190602001808311610f0c57829003601f168201915b5050509183525050600582015460ff166020820152600682018054604090920191610f5390612c12565b80601f0160208091040260200160405190810160405280929190818152602001828054610f7f90612c12565b8015610fcc5780601f10610fa157610100808354040283529160200191610fcc565b820191906000526020600020905b815481529060010190602001808311610faf57829003601f168201915b5050505050815260200160078201805480602002602001604051908101604052809291908181526020016000905b8282101561127e57838290600052602060002090600502016040518060a00160405290816000820154815260200160018201805461103790612c12565b80601f016020809104026020016040519081016040528092919081815260200182805461106390612c12565b80156110b05780601f10611085576101008083540402835291602001916110b0565b820191906000526020600020905b81548152906001019060200180831161109357829003601f168201915b505050505081526020016002820180546110c990612c12565b80601f01602080910402602001604051908101604052809291908181526020018280546110f590612c12565b80156111425780601f1061111757610100808354040283529160200191611142565b820191906000526020600020905b81548152906001019060200180831161112557829003601f168201915b5050505050815260200160038201805461115b90612c12565b80601f016020809104026020016040519081016040528092919081815260200182805461118790612c12565b80156111d45780601f106111a9576101008083540402835291602001916111d4565b820191906000526020600020905b8154815290600101906020018083116111b757829003601f168201915b505050505081526020016004820180546111ed90612c12565b80601f016020809104026020016040519081016040528092919081815260200182805461121990612c12565b80156112665780601f1061123b57610100808354040283529160200191611266565b820191906000526020600020905b81548152906001019060200180831161124957829003601f168201915b50505050508152505081526020019060010190610ffa565b505050915250909392505050565b33600090815260086020526040812054908190036112bc5760405162461bcd60e51b815260040161075590612c4c565b60078054600091826112cd83612da9565b9190505590506112dd3382611cfe565b6112e78187611d63565b6000828152600a60209081526040808320815160a0810183528581528084018b81529281018a9052606081018990526080810188905260079091018054600181810183559186529390942081516005909402019283559051909282019061134e9082612ccf565b50604082015160028201906113639082612ccf565b50606082015160038201906113789082612ccf565b506080820151600482019061138d9082612ccf565b505050505050505050565b6113b383838360405180602001604052806000815250611713565b505050565b600061046182611bbf565b60006001600160a01b0382166113ef576040516322718ad960e21b815260006004820152602401610755565b506001600160a01b031660009081526003602052604090205490565b336000908152600860205260408120549081900361143b5760405162461bcd60e51b815260040161075590612c4c565b6000818152600a60205260409020600281016114578782612ccf565b50600481016114668682612ccf565b5060058101805460ff191660ff86161790556006810161099a8482612ccf565b600a60205260009081526040902080546001820180549192916114a890612c12565b80601f01602080910402602001604051908101604052809291908181526020018280546114d490612c12565b80156115215780601f106114f657610100808354040283529160200191611521565b820191906000526020600020905b81548152906001019060200180831161150457829003601f168201915b50505050509080600201805461153690612c12565b80601f016020809104026020016040519081016040528092919081815260200182805461156290612c12565b80156115af5780601f10611584576101008083540402835291602001916115af565b820191906000526020600020905b81548152906001019060200180831161159257829003601f168201915b505050600384015460048501805494956001600160a01b039092169491935091506115d990612c12565b80601f016020809104026020016040519081016040528092919081815260200182805461160590612c12565b80156116525780601f1061162757610100808354040283529160200191611652565b820191906000526020600020905b81548152906001019060200180831161163557829003601f168201915b5050506005840154600685018054949560ff90921694919350915061167690612c12565b80601f01602080910402602001604051908101604052809291908181526020018280546116a290612c12565b80156116ef5780601f106116c4576101008083540402835291602001916116ef565b820191906000526020600020905b8154815290600101906020018083116116d257829003601f168201915b5050505050905087565b60606001805461047690612c12565b61052d338383611db3565b61171e8484846109a3565b610a283385858585611e52565b606061173682611bbf565b506000828152600660205260408120805461175090612c12565b80601f016020809104026020016040519081016040528092919081815260200182805461177c90612c12565b80156117c95780601f1061179e576101008083540402835291602001916117c9565b820191906000526020600020905b8154815290600101906020018083116117ac57829003601f168201915b5050505050905060006117e760408051602081019091526000815290565b905080516000036117f9575092915050565b81511561182b578082604051602001611813929190612dd0565b60405160208183030381529060405292505050919050565b61183484611f7d565b949350505050565b6001600160a01b03918216600090815260056020908152604080832093909416825291909152205460ff1690565b606060008211801561187e5750600b548211155b6118bf5760405162461bcd60e51b8152602060048201526012602482015271125b9d985b1a59081c185d1a595b9d08125160721b6044820152606401610755565b6000828152600a6020908152604080832060070180548251818502810185019093528083529193909284015b82821015610c8a57838290600052602060002090600502016040518060a00160405290816000820154815260200160018201805461192890612c12565b80601f016020809104026020016040519081016040528092919081815260200182805461195490612c12565b80156119a15780601f10611976576101008083540402835291602001916119a1565b820191906000526020600020905b81548152906001019060200180831161198457829003601f168201915b505050505081526020016002820180546119ba90612c12565b80601f01602080910402602001604051908101604052809291908181526020018280546119e690612c12565b8015611a335780601f10611a0857610100808354040283529160200191611a33565b820191906000526020600020905b815481529060010190602001808311611a1657829003601f168201915b50505050508152602001600382018054611a4c90612c12565b80601f0160208091040260200160405190810160405280929190818152602001828054611a7890612c12565b8015611ac55780601f10611a9a57610100808354040283529160200191611ac5565b820191906000526020600020905b815481529060010190602001808311611aa857829003601f168201915b50505050508152602001600482018054611ade90612c12565b80601f0160208091040260200160405190810160405280929190818152602001828054611b0a90612c12565b8015611b575780601f10611b2c57610100808354040283529160200191611b57565b820191906000526020600020905b815481529060010190602001808311611b3a57829003601f168201915b505050505081525050815260200190600101906118eb565b60006001600160e01b031982166380ac58cd60e01b1480611ba057506001600160e01b03198216635b5e139f60e01b145b8061046157506301ffc9a760e01b6001600160e01b0319831614610461565b6000818152600260205260408120546001600160a01b03168061046157604051637e27328960e01b815260048101849052602401610755565b6113b38383836001611ff2565b6000828152600260205260408120546001600160a01b0390811690831615611c3257611c328184866120f8565b6001600160a01b03811615611c7057611c4f600085600080611ff2565b6001600160a01b038116600090815260036020526040902080546000190190555b6001600160a01b03851615611c9f576001600160a01b0385166000908152600360205260409020805460010190555b60008481526002602052604080822080546001600160a01b0319166001600160a01b0389811691821790925591518793918516917fddf252ad1be2c89b69c2b068fc378daa952ba7f163c4a11628f55a4df523b3ef91a4949350505050565b6001600160a01b038216611d2857604051633250574960e11b815260006004820152602401610755565b6000611d3683836000611c05565b90506001600160a01b038116156113b3576040516339e3563760e11b815260006004820152602401610755565b6000828152600660205260409020611d7b8282612ccf565b506040518281527ff8e1a15aba9398e019f0b49df1a4fde98ee17ae345cb5f6b5e2c27f5033e8ce79060200160405180910390a15050565b6001600160a01b038216611de557604051630b61174360e31b81526001600160a01b0383166004820152602401610755565b6001600160a01b03838116600081815260056020908152604080832094871680845294825291829020805460ff191686151590811790915591519182527f17307eab39ab6107e8899845ad3d59bd9653f200f220920489ca2b5937696c31910160405180910390a3505050565b6001600160a01b0383163b15611f7657604051630a85bd0160e11b81526001600160a01b0384169063150b7a0290611e94908890889087908790600401612dff565b6020604051808303816000875af1925050508015611ecf575060408051601f3d908101601f19168201909252611ecc91810190612e3c565b60015b611f38573d808015611efd576040519150601f19603f3d011682016040523d82523d6000602084013e611f02565b606091505b508051600003611f3057604051633250574960e11b81526001600160a01b0385166004820152602401610755565b805160208201fd5b6001600160e01b03198116630a85bd0160e11b14611f7457604051633250574960e11b81526001600160a01b0385166004820152602401610755565b505b5050505050565b6060611f8882611bbf565b506000611fa060408051602081019091526000815290565b90506000815111611fc05760405180602001604052806000815250611feb565b80611fca8461215c565b604051602001611fdb929190612dd0565b6040516020818303038152906040525b9392505050565b808061200657506001600160a01b03821615155b156120c857600061201684611bbf565b90506001600160a01b038316158015906120425750826001600160a01b0316816001600160a01b031614155b80156120555750612053818461183c565b155b1561207e5760405163a9fbf51f60e01b81526001600160a01b0384166004820152602401610755565b81156120c65783856001600160a01b0316826001600160a01b03167f8c5be1e5ebec7d5bd14f71427d1e84f3dd0314c0f7b2291e5b200ac8c7c3b92560405160405180910390a45b505b5050600090815260046020526040902080546001600160a01b0319166001600160a01b0392909216919091179055565b6121038383836121ee565b6113b3576001600160a01b03831661213157604051637e27328960e01b815260048101829052602401610755565b60405163177e802f60e01b81526001600160a01b038316600482015260248101829052604401610755565b6060600061216983612251565b60010190506000816001600160401b03811115612188576121886124b1565b6040519080825280601f01601f1916602001820160405280156121b2576020820181803683370190505b5090508181016020015b600019016f181899199a1a9b1b9c1cb0b131b232b360811b600a86061a8153600a85049450846121bc57509392505050565b60006001600160a01b038316158015906118345750826001600160a01b0316846001600160a01b031614806122285750612228848461183c565b806118345750506000908152600460205260409020546001600160a01b03908116911614919050565b60008072184f03e93ff9f4daa797ed6e38ed64bf6a1f0160401b83106122905772184f03e93ff9f4daa797ed6e38ed64bf6a1f0160401b830492506040015b6d04ee2d6d415b85acef810000000083106122bc576d04ee2d6d415b85acef8100000000830492506020015b662386f26fc1000083106122da57662386f26fc10000830492506010015b6305f5e10083106122f2576305f5e100830492506008015b612710831061230657612710830492506004015b60648310612318576064830492506002015b600a83106104615760010192915050565b6001600160e01b03198116811461233f57600080fd5b50565b60006020828403121561235457600080fd5b8135611feb81612329565b60005b8381101561237a578181015183820152602001612362565b50506000910152565b6000815180845261239b81602086016020860161235f565b601f01601f19169290920160200192915050565b602081526000611feb6020830184612383565b6000602082840312156123d457600080fd5b5035919050565b80356001600160a01b03811681146123f257600080fd5b919050565b6000806040838503121561240a57600080fd5b612413836123db565b946020939093013593505050565b6000806040838503121561243457600080fd5b50508035926020909101359150565b6080815260006124566080830187612383565b6001600160a01b038616602084015282810360408401526124778186612383565b9050828103606084015261248b8185612383565b979650505050505050565b6000602082840312156124a857600080fd5b611feb826123db565b634e487b7160e01b600052604160045260246000fd5b6000806001600160401b038411156124e1576124e16124b1565b50604051601f19601f85018116603f011681018181106001600160401b038211171561250f5761250f6124b1565b60405283815290508082840185101561252757600080fd5b83836020830137600060208583010152509392505050565b600082601f83011261255057600080fd5b611feb838335602085016124c7565b6000806000806080858703121561257557600080fd5b84356001600160401b0381111561258b57600080fd5b6125978782880161253f565b9450506125a6602086016123db565b925060408501356001600160401b038111156125c157600080fd5b6125cd8782880161253f565b92505060608501356001600160401b038111156125e957600080fd5b6125f58782880161253f565b91505092959194509250565b803560ff811681146123f257600080fd5b600080600080600060a0868803121561262a57600080fd5b85356001600160401b0381111561264057600080fd5b61264c8882890161253f565b95505060208601356001600160401b0381111561266857600080fd5b6126748882890161253f565b94505060408601356001600160401b0381111561269057600080fd5b61269c8882890161253f565b9350506126ab60608701612601565b915060808601356001600160401b038111156126c657600080fd5b6126d28882890161253f565b9150509295509295909350565b6000806000606084860312156126f457600080fd5b6126fd846123db565b925061270b602085016123db565b929592945050506040919091013590565b60006020828403121561272e57600080fd5b81356001600160401b0381111561274457600080fd5b6118348482850161253f565b6000602082016020835280845180835260408501915060408160051b86010192506020860160005b828110156127fc57603f19878603018452815180516080875261279e6080880182612383565b905060018060a01b036020830151166020880152604082015187820360408901526127c98282612383565b9150506060820151915086810360608801526127e58183612383565b965050506020938401939190910190600101612778565b50929695505050505050565b600082825180855260208501945060208160051b8301016020850160005b838110156128bd57601f19858403018852815180518452602081015160a0602086015261285660a0860182612383565b90506040820151858203604087015261286f8282612383565b915050606082015185820360608701526128898282612383565b9150506080820151915084810360808601526128a58183612383565b60209a8b019a90955093909301925050600101612826565b50909695505050505050565b60208152815160208201526000602083015161010060408401526128f1610120840182612383565b90506040840151601f1984830301606085015261290e8282612383565b915050606084015161292b60808501826001600160a01b03169052565b506080840151838203601f190160a08501526129478282612383565b91505060a084015161295e60c085018260ff169052565b5060c0840151838203601f190160e085015261297a8282612383565b91505060e0840151601f19848303016101008501526129998282612808565b95945050505050565b600080600080608085870312156129b857600080fd5b84356001600160401b038111156129ce57600080fd5b6129da8782880161253f565b94505060208501356001600160401b038111156129f657600080fd5b612a028782880161253f565b93505060408501356001600160401b038111156125c157600080fd5b60008060008060808587031215612a3457600080fd5b84356001600160401b03811115612a4a57600080fd5b612a568782880161253f565b94505060208501356001600160401b03811115612a7257600080fd5b612a7e8782880161253f565b935050612a8d60408601612601565b915060608501356001600160401b038111156125e957600080fd5b87815260e060208201526000612ac160e0830189612383565b8281036040840152612ad38189612383565b6001600160a01b038816606085015283810360808501529050612af68187612383565b905060ff851660a084015282810360c0840152612b138185612383565b9a9950505050505050505050565b60008060408385031215612b3457600080fd5b612b3d836123db565b915060208301358015158114612b5257600080fd5b809150509250929050565b60008060008060808587031215612b7357600080fd5b612b7c856123db565b9350612b8a602086016123db565b92506040850135915060608501356001600160401b03811115612bac57600080fd5b8501601f81018713612bbd57600080fd5b6125f5878235602084016124c7565b60008060408385031215612bdf57600080fd5b612be8836123db565b9150612bf6602084016123db565b90509250929050565b602081526000611feb6020830184612808565b600181811c90821680612c2657607f821691505b602082108103612c4657634e487b7160e01b600052602260045260246000fd5b50919050565b60208082526016908201527514185d1a595b9d081b9bdd081c9959da5cdd195c995960521b604082015260600190565b601f8211156113b357828211156113b357806000526020600020601f840160051c6020851015612caa575060005b90810190601f840160051c0360005b81811015611f7457600083820155600101612cb9565b81516001600160401b03811115612ce857612ce86124b1565b612cfc81612cf68454612c12565b84612c7c565b6020601f821160018114612d305760008315612d185750848201515b600019600385901b1c1916600184901b178455611f76565b600084815260208120601f198516915b82811015612d605787850151825560209485019460019092019101612d40565b5084821015612d7e5786840151600019600387901b60f8161c191681555b50505050600190811b01905550565b60008251612d9f81846020870161235f565b9190910192915050565b600060018201612dc957634e487b7160e01b600052601160045260246000fd5b5060010190565b60008351612de281846020880161235f565b835190830190612df681836020880161235f565b01949350505050565b6001600160a01b0385811682528416602082015260408101839052608060608201819052600090612e3290830184612383565b9695505050505050565b600060208284031215612e4e57600080fd5b8151611feb8161232956fea2646970667358221220830cd4ede015cbdaefd19a2014be33db6681631a1c3b69c949cd3ae9a254d9e164736f6c63430008210033",
  "immutableReferences": {},
  "source": "// SPDX-License-Identifier: MIT\r\npragma solidity ^0.8.20;\r\n\r\nimport \"@openzeppelin/contracts/token/ERC721/extensions/ERC721URIStorage.sol\";\r\n\r\ncontract Patient is ERC721URIStorage {\r\n    uint256 private _nextTokenId;\r\n\r\n    mapping(address => uint256) public walletToPatientId;\r\n    mapping(string => uint256) public usernameToPatientId; // Username -> ID mapping\r\n\r\n    function userExists(address walletAddress) public view returns (bool) {\r\n        return walletToPatientId[walletAddress] != 0;\r\n    }\r\n\r\n    struct MedicalRecord {\r\n        uint256 tokenId; // NFT ID\r\n        string ipfsHash;\r\n        string fileName;\r\n        string recordDate;\r\n        string hospital;\r\n    }\r\n\r\n    struct PatientDetails {\r\n        uint256 patientId;\r\n        string username;\r\n        string name;\r\n        address walletAddress;\r\n        string email;\r\n        uint8 age;\r\n        string bloodGroup;\r\n        MedicalRecord[] medicalRecords;\r\n    }\r\n\r\n    mapping(uint256 => PatientDetails) public patients;\r\n    uint256 private patientIdCounter;\r\n\r\n    struct Nominee {\r\n        string name;\r\n        address walletAddress;\r\n        string relationship;\r\n        string contactNumber;\r\n    }\r\n\r\n    mapping(uint256 => Nominee[]) public patientNominees;\r\n\r\n    constructor() ERC721(\"MediSecure Record\", \"MEDREC\") {}\r\n\r\n    function registerPatient(\r\n        string memory _username,\r\n        string memory _name,\r\n        string memory _email,\r\n        uint8 _age,\r\n        string memory _bloodGroup\r\n    ) public {\r\n        require(\r\n            walletToPatientId[msg.sender] == 0,\r\n            \"Patient already registered\"\r\n        );\r\n        require(usernameToPatientId[_username] == 0, \"Username already taken\");\r\n\r\n        patientIdCounter++;\r\n        walletToPatientId[msg.sender] = patientIdCounter;\r\n        usernameToPatientId[_username] = patientIdCounter;\r\n\r\n        PatientDetails storage newPatient = patients[patientIdCounter];\r\n        newPatient.patientId = patientIdCounter;\r\n        newPatient.username = _username;\r\n        newPatient.name = _name;\r\n        newPatient.walletAddress = msg.sender;\r\n        newPatient.email = _email;\r\n        newPatient.age = _age;\r\n        newPatient.bloodGroup = _bloodGroup;\r\n    }\r\n\r\n    function updatePatientDetails(\r\n        string memory _name,\r\n        string memory _email,\r\n        uint8 _age,\r\n        string memory _bloodGroup\r\n    ) public {\r\n        uint256 patientId = walletToPatientId[msg.sender];\r\n        require(patientId != 0, \"Patient not registered\");\r\n\r\n        PatientDetails storage patient = patients[patientId];\r\n        patient.name = _name;\r\n        patient.email = _email;\r\n        patient.age = _age;\r\n        patient.bloodGroup = _bloodGroup;\r\n    }\r\n\r\n    function addNominee(\r\n        string memory _name,\r\n        address _walletAddress,\r\n        string memory _relationship,\r\n        string memory _contactNumber\r\n    ) public {\r\n        uint256 patientId = walletToPatientId[msg.sender];\r\n        require(patientId != 0, \"Patient not registered\");\r\n\r\n        patientNominees[patientId].push(\r\n            Nominee({\r\n                name: _name,\r\n                walletAddress: _walletAddress,\r\n                relationship: _relationship,\r\n                contactNumber: _contactNumber\r\n            })\r\n        );\r\n    }\r\n\r\n    function getNominees(\r\n        uint256 _patientId\r\n    ) public view returns (Nominee[] memory) {\r\n        return patientNominees[_patientId];\r\n    }\r\n\r\n    function addMedicalRecord(\r\n        string memory _ipfsHash,\r\n        string memory _fileName,\r\n        string memory _recordDate,\r\n        string memory _hospital\r\n    ) public {\r\n        uint256 patientId = walletToPatientId[msg.sender];\r\n        require(patientId != 0, \"Patient not registered\");\r\n\r\n        // Mint NFT\r\n        uint256 tokenId = _nextTokenId++;\r\n        _mint(msg.sender, tokenId);\r\n        _setTokenURI(tokenId, _ipfsHash);\r\n\r\n        patients[patientId].medicalRecords.push(\r\n            MedicalRecord({\r\n                tokenId: tokenId,\r\n                ipfsHash: _ipfsHash,\r\n                fileName: _fileName,\r\n                recordDate: _recordDate,\r\n                hospital: _hospital\r\n            })\r\n        );\r\n    }\r\n\r\n    function getPatientDetails(\r\n        uint256 _patientId\r\n    ) public view returns (PatientDetails memory) {\r\n        require(\r\n            _patientId > 0 && _patientId <= patientIdCounter,\r\n            \"Invalid patient ID\"\r\n        );\r\n        return patients[_patientId];\r\n    }\r\n\r\n    // Helper to get ID from username (useful for frontend)\r\n    function getPatientIdByUsername(\r\n        string memory _username\r\n    ) public view returns (uint256) {\r\n        return usernameToPatientId[_username];\r\n    }\r\n\r\n    function getMedicalRecords(\r\n        uint256 _patientId\r\n    ) public view returns (MedicalRecord[] memory) {\r\n        require(\r\n            _patientId > 0 && _patientId <= patientIdCounter,\r\n            \"Invalid patient ID\"\r\n        );\r\n        return patients[_patientId].medicalRecords;\r\n    }\r\n}\r\n",
  "sourcePath": "J:\\Users\\ayush\\Desktop\\code\\team-rocket-medi-secure\\contracts\\contracts\\Patient.sol",
  "compiler": {
    "name": "solc",
    "version": "0.8.33+commit.64118f21.Emscripten.clang"
  },
  "schemaVersion": "3.4.16",
  "updatedAt": "2026-01-22T12:11:31.235Z",
  "networkType": "ethereum",
  "devdoc": {
    "errors": {
      "ERC721IncorrectOwner(address,uint256,address)": [
        {
          "details": "Indicates an error related to the ownership over a particular token. Used in transfers.",
          "params": {
            "owner": "Address of the current owner of a token.",
            "sender": "Address whose tokens are being transferred.",
            "tokenId": "Identifier number of a token."
          }
        }
      ],
      "ERC721InsufficientApproval(address,uint256)": [
        {
          "details": "Indicates a failure with the `operator`s approval. Used in transfers.",
          "params": {
            "operator": "Address that may be allowed to operate on tokens without being their owner.",
            "tokenId": "Identifier number of a token."
          }
        }
      ],
      "ERC721InvalidApprover(address)": [
        {
          "details": "Indicates a failure with the `approver` of a token to be approved. Used in approvals.",
          "params": {
            "approver": "Address initiating an approval operation."
          }
        }
      ],
      "ERC721InvalidOperator(address)": [
        {
          "details": "Indicates a failure with the `operator` to be approved. Used in approvals.",
          "params": {
            "operator": "Address that may be allowed to operate on tokens without being their owner."
          }
        }
      ],
      "ERC721InvalidOwner(address)": [
        {
          "details": "Indicates that an address can't be an owner. For example, `address(0)` is a forbidden owner in ERC-20. Used in balance queries.",
          "params": {
            "owner": "Address of the current owner of a token."
          }
        }
      ],
      "ERC721InvalidReceiver(address)": [
        {
          "details": "Indicates a failure with the token `receiver`. Used in transfers.",
          "params": {
            "receiver": "Address to which tokens are being transferred."
          }
        }
      ],
      "ERC721InvalidSender(address)": [
        {
          "details": "Indicates a failure with the token `sender`. Used in transfers.",
          "params": {
            "sender": "Address whose tokens are being transferred."
          }
        }
      ],
      "ERC721NonexistentToken(uint256)": [
        {
          "details": "Indicates a `tokenId` whose `owner` is the zero address.",
          "params": {
            "tokenId": "Identifier number of a token."
          }
        }
      ]
    },
    "events": {
      "Approval(address,address,uint256)": {
        "details": "Emitted when `owner` enables `approved` to manage the `tokenId` token."
      },
      "ApprovalForAll(address,address,bool)": {
        "details": "Emitted when `owner` enables or disables (`approved`) `operator` to manage all of its assets."
      },
      "BatchMetadataUpdate(uint256,uint256)": {
        "details": "This event emits when the metadata of a range of tokens is changed. So that the third-party platforms such as NFT market could timely update the images and related attributes of the NFTs."
      },
      "MetadataUpdate(uint256)": {
        "details": "This event emits when the metadata of a token is changed. So that the third-party platforms such as NFT market could timely update the images and related attributes of the NFT."
      },
      "Transfer(address,address,uint256)": {
        "details": "Emitted when `tokenId` token is transferred from `from` to `to`."
      }
    },
    "kind": "dev",
    "methods": {
      "approve(address,uint256)": {
        "details": "Gives permission to `to` to transfer `tokenId` token to another account. The approval is cleared when the token is transferred. Only a single account can be approved at a time, so approving the zero address clears previous approvals. Requirements: - The caller must own the token or be an approved operator. - `tokenId` must exist. Emits an {Approval} event."
      },
      "balanceOf(address)": {
        "details": "Returns the number of tokens in ``owner``'s account."
      },
      "getApproved(uint256)": {
        "details": "Returns the account approved for `tokenId` token. Requirements: - `tokenId` must exist."
      },
      "isApprovedForAll(address,address)": {
        "details": "Returns if the `operator` is allowed to manage all of the assets of `owner`. See {setApprovalForAll}"
      },
      "name()": {
        "details": "Returns the token collection name."
      },
      "ownerOf(uint256)": {
        "details": "Returns the owner of the `tokenId` token. Requirements: - `tokenId` must exist."
      },
      "safeTransferFrom(address,address,uint256)": {
        "details": "Safely transfers `tokenId` token from `from` to `to`, checking first that contract recipients are aware of the ERC-721 protocol to prevent tokens from being forever locked. Requirements: - `from` cannot be the zero address. - `to` cannot be the zero address. - `tokenId` token must exist and be owned by `from`. - If the caller is not `from`, it must have been allowed to move this token by either {approve} or   {setApprovalForAll}. - If `to` refers to a smart contract, it must implement {IERC721Receiver-onERC721Received}, which is called upon   a safe transfer. Emits a {Transfer} event."
      },
      "safeTransferFrom(address,address,uint256,bytes)": {
        "details": "Safely transfers `tokenId` token from `from` to `to`. Requirements: - `from` cannot be the zero address. - `to` cannot be the zero address. - `tokenId` token must exist and be owned by `from`. - If the caller is not `from`, it must be approved to move this token by either {approve} or {setApprovalForAll}. - If `to` refers to a smart contract, it must implement {IERC721Receiver-onERC721Received}, which is called upon   a safe transfer. Emits a {Transfer} event."
      },
      "setApprovalForAll(address,bool)": {
        "details": "Approve or remove `operator` as an operator for the caller. Operators can call {transferFrom} or {safeTransferFrom} for any token owned by the caller. Requirements: - The `operator` cannot be the address zero. Emits an {ApprovalForAll} event."
      },
      "supportsInterface(bytes4)": {
        "details": "Returns true if this contract implements the interface defined by `interfaceId`. See the corresponding https://eips.ethereum.org/EIPS/eip-165#how-interfaces-are-identified[ERC section] to learn more about how these ids are created. This function call must use less than 30 000 gas."
      },
      "symbol()": {
        "details": "Returns the token collection symbol."
      },
      "tokenURI(uint256)": {
        "details": "Returns the Uniform Resource Identifier (URI) for `tokenId` token."
      },
      "transferFrom(address,address,uint256)": {
        "details": "Transfers `tokenId` token from `from` to `to`. WARNING: Note that the caller is responsible to confirm that the recipient is capable of receiving ERC-721 or else they may be permanently lost. Usage of {safeTransferFrom} prevents loss, though the caller must understand this adds an external call which potentially creates a reentrancy vulnerability. Requirements: - `from` cannot be the zero address. - `to` cannot be the zero address. - `tokenId` token must be owned by `from`. - If the caller is not `from`, it must be approved to move this token by either {approve} or {setApprovalForAll}. Emits a {Transfer} event."
      }
    },
    "version": 1
  },
  "userdoc": {
    "kind": "user",
    "methods": {},
    "version": 1
  }
}