{
  "contractName": "Patient",
  "abi": [
    {
      "inputs": [
        {
          "internalType": "uint256",
          "name": "",
          "type": "uint256"
        }
      ],
      "name": "patients",
      "outputs": [
        {
          "internalType": "uint256",
          "name": "patientId",
          "type": "uint256"
        },
        {
          "internalType": "string",
          "name": "username",
          "type": "string"
        },
        {
          "internalType": "string",
          "name": "name",
          "type": "string"
        },
        {
          "internalType": "address",
          "name": "walletAddress",
          "type": "address"
        },
        {
          "internalType": "string",
          "name": "email",
          "type": "string"
        },
        {
          "internalType": "uint8",
          "name": "age",
          "type": "uint8"
        },
        {
          "internalType": "string",
          "name": "bloodGroup",
          "type": "string"
        }
      ],
      "stateMutability": "view",
      "type": "function",
      "constant": true
    },
    {
      "inputs": [
        {
          "internalType": "string",
          "name": "",
          "type": "string"
        }
      ],
      "name": "usernameToPatientId",
      "outputs": [
        {
          "internalType": "uint256",
          "name": "",
          "type": "uint256"
        }
      ],
      "stateMutability": "view",
      "type": "function",
      "constant": true
    },
    {
      "inputs": [
        {
          "internalType": "address",
          "name": "",
          "type": "address"
        }
      ],
      "name": "walletToPatientId",
      "outputs": [
        {
          "internalType": "uint256",
          "name": "",
          "type": "uint256"
        }
      ],
      "stateMutability": "view",
      "type": "function",
      "constant": true
    },
    {
      "inputs": [
        {
          "internalType": "address",
          "name": "walletAddress",
          "type": "address"
        }
      ],
      "name": "userExists",
      "outputs": [
        {
          "internalType": "bool",
          "name": "",
          "type": "bool"
        }
      ],
      "stateMutability": "view",
      "type": "function",
      "constant": true
    },
    {
      "inputs": [
        {
          "internalType": "string",
          "name": "_username",
          "type": "string"
        },
        {
          "internalType": "string",
          "name": "_name",
          "type": "string"
        },
        {
          "internalType": "string",
          "name": "_email",
          "type": "string"
        },
        {
          "internalType": "uint8",
          "name": "_age",
          "type": "uint8"
        },
        {
          "internalType": "string",
          "name": "_bloodGroup",
          "type": "string"
        }
      ],
      "name": "registerPatient",
      "outputs": [],
      "stateMutability": "nonpayable",
      "type": "function"
    },
    {
      "inputs": [
        {
          "internalType": "string",
          "name": "_ipfsHash",
          "type": "string"
        },
        {
          "internalType": "string",
          "name": "_fileName",
          "type": "string"
        },
        {
          "internalType": "string",
          "name": "_recordDate",
          "type": "string"
        },
        {
          "internalType": "string",
          "name": "_hospital",
          "type": "string"
        }
      ],
      "name": "addMedicalRecord",
      "outputs": [],
      "stateMutability": "nonpayable",
      "type": "function"
    },
    {
      "inputs": [
        {
          "internalType": "uint256",
          "name": "_patientId",
          "type": "uint256"
        }
      ],
      "name": "getPatientDetails",
      "outputs": [
        {
          "components": [
            {
              "internalType": "uint256",
              "name": "patientId",
              "type": "uint256"
            },
            {
              "internalType": "string",
              "name": "username",
              "type": "string"
            },
            {
              "internalType": "string",
              "name": "name",
              "type": "string"
            },
            {
              "internalType": "address",
              "name": "walletAddress",
              "type": "address"
            },
            {
              "internalType": "string",
              "name": "email",
              "type": "string"
            },
            {
              "internalType": "uint8",
              "name": "age",
              "type": "uint8"
            },
            {
              "internalType": "string",
              "name": "bloodGroup",
              "type": "string"
            },
            {
              "components": [
                {
                  "internalType": "string",
                  "name": "ipfsHash",
                  "type": "string"
                },
                {
                  "internalType": "string",
                  "name": "fileName",
                  "type": "string"
                },
                {
                  "internalType": "string",
                  "name": "recordDate",
                  "type": "string"
                },
                {
                  "internalType": "string",
                  "name": "hospital",
                  "type": "string"
                }
              ],
              "internalType": "struct Patient.MedicalRecord[]",
              "name": "medicalRecords",
              "type": "tuple[]"
            }
          ],
          "internalType": "struct Patient.PatientDetails",
          "name": "",
          "type": "tuple"
        }
      ],
      "stateMutability": "view",
      "type": "function",
      "constant": true
    },
    {
      "inputs": [
        {
          "internalType": "string",
          "name": "_username",
          "type": "string"
        }
      ],
      "name": "getPatientIdByUsername",
      "outputs": [
        {
          "internalType": "uint256",
          "name": "",
          "type": "uint256"
        }
      ],
      "stateMutability": "view",
      "type": "function",
      "constant": true
    },
    {
      "inputs": [
        {
          "internalType": "uint256",
          "name": "_patientId",
          "type": "uint256"
        }
      ],
      "name": "getMedicalRecords",
      "outputs": [
        {
          "components": [
            {
              "internalType": "string",
              "name": "ipfsHash",
              "type": "string"
            },
            {
              "internalType": "string",
              "name": "fileName",
              "type": "string"
            },
            {
              "internalType": "string",
              "name": "recordDate",
              "type": "string"
            },
            {
              "internalType": "string",
              "name": "hospital",
              "type": "string"
            }
          ],
          "internalType": "struct Patient.MedicalRecord[]",
          "name": "",
          "type": "tuple[]"
        }
      ],
      "stateMutability": "view",
      "type": "function",
      "constant": true
    }
  ],
  "bytecode": "0x608060405234801561001057600080fd5b5061212d806100206000396000f3fe608060405234801561001057600080fd5b50600436106100935760003560e01c8063300c601c11610066578063300c601c146101445780633a0c8fb2146101745780638590ed191461019057806393119a83146101c0578063ffbcfac2146101f657610093565b80630e666e49146100985780631ff3bd8b146100c857806323ecb058146100e45780632b05a65e14610114575b600080fd5b6100b260048036038101906100ad91906112b6565b610226565b6040516100bf91906112fe565b60405180910390f35b6100e260048036038101906100dd9190611498565b610271565b005b6100fe60048036038101906100f991906112b6565b6104a9565b60405161010b919061159c565b60405180910390f35b61012e600480360381019061012991906115b7565b6104c1565b60405161013b919061159c565b60405180910390f35b61015e6004803603810190610159919061162c565b6104e9565b60405161016b919061190b565b60405180910390f35b61018e6004803603810190610189919061192d565b610ad4565b005b6101aa60048036038101906101a591906115b7565b610c1b565b6040516101b7919061159c565b60405180910390f35b6101da60048036038101906101d5919061162c565b610c49565b6040516101ed9796959493929190611a6c565b60405180910390f35b610210600480360381019061020b919061162c565b610ed8565b60405161021d9190611b7d565b60405180910390f35b6000806000808473ffffffffffffffffffffffffffffffffffffffff1673ffffffffffffffffffffffffffffffffffffffff1681526020019081526020016000205414159050919050565b60008060003373ffffffffffffffffffffffffffffffffffffffff1673ffffffffffffffffffffffffffffffffffffffff16815260200190815260200160002054146102f2576040517f08c379a00000000000000000000000000000000000000000000000000000000081526004016102e990611beb565b60405180910390fd5b60006001866040516103049190611c47565b90815260200160405180910390205414610353576040517f08c379a000000000000000000000000000000000000000000000000000000000815260040161034a90611caa565b60405180910390fd5b6003600081548092919061036690611cf9565b91905055506003546000803373ffffffffffffffffffffffffffffffffffffffff1673ffffffffffffffffffffffffffffffffffffffff168152602001908152602001600020819055506003546001866040516103c39190611c47565b9081526020016040518091039020819055506000600260006003548152602001908152602001600020905060035481600001819055508581600101908161040a9190611f4d565b508481600201908161041c9190611f4d565b50338160030160006101000a81548173ffffffffffffffffffffffffffffffffffffffff021916908373ffffffffffffffffffffffffffffffffffffffff160217905550838160040190816104719190611f4d565b50828160050160006101000a81548160ff021916908360ff160217905550818160060190816104a09190611f4d565b50505050505050565b60006020528060005260406000206000915090505481565b60006001826040516104d39190611c47565b9081526020016040518091039020549050919050565b6104f16111e6565b60008211801561050357506003548211155b610542576040517f08c379a00000000000000000000000000000000000000000000000000000000081526004016105399061206b565b60405180910390fd5b60026000838152602001908152602001600020604051806101000160405290816000820154815260200160018201805461057b90611d70565b80601f01602080910402602001604051908101604052809291908181526020018280546105a790611d70565b80156105f45780601f106105c9576101008083540402835291602001916105f4565b820191906000526020600020905b8154815290600101906020018083116105d757829003601f168201915b5050505050815260200160028201805461060d90611d70565b80601f016020809104026020016040519081016040528092919081815260200182805461063990611d70565b80156106865780601f1061065b57610100808354040283529160200191610686565b820191906000526020600020905b81548152906001019060200180831161066957829003601f168201915b505050505081526020016003820160009054906101000a900473ffffffffffffffffffffffffffffffffffffffff1673ffffffffffffffffffffffffffffffffffffffff1673ffffffffffffffffffffffffffffffffffffffff1681526020016004820180546106f590611d70565b80601f016020809104026020016040519081016040528092919081815260200182805461072190611d70565b801561076e5780601f106107435761010080835404028352916020019161076e565b820191906000526020600020905b81548152906001019060200180831161075157829003601f168201915b505050505081526020016005820160009054906101000a900460ff1660ff1660ff1681526020016006820180546107a490611d70565b80601f01602080910402602001604051908101604052809291908181526020018280546107d090611d70565b801561081d5780601f106107f25761010080835404028352916020019161081d565b820191906000526020600020905b81548152906001019060200180831161080057829003601f168201915b5050505050815260200160078201805480602002602001604051908101604052809291908181526020016000905b82821015610ac5578382906000526020600020906004020160405180608001604052908160008201805461087e90611d70565b80601f01602080910402602001604051908101604052809291908181526020018280546108aa90611d70565b80156108f75780601f106108cc576101008083540402835291602001916108f7565b820191906000526020600020905b8154815290600101906020018083116108da57829003601f168201915b5050505050815260200160018201805461091090611d70565b80601f016020809104026020016040519081016040528092919081815260200182805461093c90611d70565b80156109895780601f1061095e57610100808354040283529160200191610989565b820191906000526020600020905b81548152906001019060200180831161096c57829003601f168201915b505050505081526020016002820180546109a290611d70565b80601f01602080910402602001604051908101604052809291908181526020018280546109ce90611d70565b8015610a1b5780601f106109f057610100808354040283529160200191610a1b565b820191906000526020600020905b8154815290600101906020018083116109fe57829003601f168201915b50505050508152602001600382018054610a3490611d70565b80601f0160208091040260200160405190810160405280929190818152602001828054610a6090611d70565b8015610aad5780601f10610a8257610100808354040283529160200191610aad565b820191906000526020600020905b815481529060010190602001808311610a9057829003601f168201915b5050505050815250508152602001906001019061084b565b50505050815250509050919050565b60008060003373ffffffffffffffffffffffffffffffffffffffff1673ffffffffffffffffffffffffffffffffffffffff16815260200190815260200160002054905060008103610b5a576040517f08c379a0000000000000000000000000000000000000000000000000000000008152600401610b51906120d7565b60405180910390fd5b6002600082815260200190815260200160002060070160405180608001604052808781526020018681526020018581526020018481525090806001815401808255809150506001900390600052602060002090600402016000909190919091506000820151816000019081610bcf9190611f4d565b506020820151816001019081610be59190611f4d565b506040820151816002019081610bfb9190611f4d565b506060820151816003019081610c119190611f4d565b5050505050505050565b6001818051602081018201805184825260208301602085012081835280955050505050506000915090505481565b6002602052806000526040600020600091509050806000015490806001018054610c7290611d70565b80601f0160208091040260200160405190810160405280929190818152602001828054610c9e90611d70565b8015610ceb5780601f10610cc057610100808354040283529160200191610ceb565b820191906000526020600020905b815481529060010190602001808311610cce57829003601f168201915b505050505090806002018054610d0090611d70565b80601f0160208091040260200160405190810160405280929190818152602001828054610d2c90611d70565b8015610d795780601f10610d4e57610100808354040283529160200191610d79565b820191906000526020600020905b815481529060010190602001808311610d5c57829003601f168201915b5050505050908060030160009054906101000a900473ffffffffffffffffffffffffffffffffffffffff1690806004018054610db490611d70565b80601f0160208091040260200160405190810160405280929190818152602001828054610de090611d70565b8015610e2d5780601f10610e0257610100808354040283529160200191610e2d565b820191906000526020600020905b815481529060010190602001808311610e1057829003601f168201915b5050505050908060050160009054906101000a900460ff1690806006018054610e5590611d70565b80601f0160208091040260200160405190810160405280929190818152602001828054610e8190611d70565b8015610ece5780601f10610ea357610100808354040283529160200191610ece565b820191906000526020600020905b815481529060010190602001808311610eb157829003601f168201915b5050505050905087565b6060600082118015610eec57506003548211155b610f2b576040517f08c379a0000000000000000000000000000000000000000000000000000000008152600401610f229061206b565b60405180910390fd5b60026000838152602001908152602001600020600701805480602002602001604051908101604052809291908181526020016000905b828210156111db5783829060005260206000209060040201604051806080016040529081600082018054610f9490611d70565b80601f0160208091040260200160405190810160405280929190818152602001828054610fc090611d70565b801561100d5780601f10610fe25761010080835404028352916020019161100d565b820191906000526020600020905b815481529060010190602001808311610ff057829003601f168201915b5050505050815260200160018201805461102690611d70565b80601f016020809104026020016040519081016040528092919081815260200182805461105290611d70565b801561109f5780601f106110745761010080835404028352916020019161109f565b820191906000526020600020905b81548152906001019060200180831161108257829003601f168201915b505050505081526020016002820180546110b890611d70565b80601f01602080910402602001604051908101604052809291908181526020018280546110e490611d70565b80156111315780601f1061110657610100808354040283529160200191611131565b820191906000526020600020905b81548152906001019060200180831161111457829003601f168201915b5050505050815260200160038201805461114a90611d70565b80601f016020809104026020016040519081016040528092919081815260200182805461117690611d70565b80156111c35780601f10611198576101008083540402835291602001916111c3565b820191906000526020600020905b8154815290600101906020018083116111a657829003601f168201915b50505050508152505081526020019060010190610f61565b505050509050919050565b604051806101000160405280600081526020016060815260200160608152602001600073ffffffffffffffffffffffffffffffffffffffff16815260200160608152602001600060ff16815260200160608152602001606081525090565b6000604051905090565b600080fd5b600080fd5b600073ffffffffffffffffffffffffffffffffffffffff82169050919050565b600061128382611258565b9050919050565b61129381611278565b811461129e57600080fd5b50565b6000813590506112b08161128a565b92915050565b6000602082840312156112cc576112cb61124e565b5b60006112da848285016112a1565b91505092915050565b60008115159050919050565b6112f8816112e3565b82525050565b600060208201905061131360008301846112ef565b92915050565b600080fd5b600080fd5b6000601f19601f8301169050919050565b7f4e487b7100000000000000000000000000000000000000000000000000000000600052604160045260246000fd5b61136c82611323565b810181811067ffffffffffffffff8211171561138b5761138a611334565b5b80604052505050565b600061139e611244565b90506113aa8282611363565b919050565b600067ffffffffffffffff8211156113ca576113c9611334565b5b6113d382611323565b9050602081019050919050565b82818337600083830152505050565b60006114026113fd846113af565b611394565b90508281526020810184848401111561141e5761141d61131e565b5b6114298482856113e0565b509392505050565b600082601f83011261144657611445611319565b5b81356114568482602086016113ef565b91505092915050565b600060ff82169050919050565b6114758161145f565b811461148057600080fd5b50565b6000813590506114928161146c565b92915050565b600080600080600060a086880312156114b4576114b361124e565b5b600086013567ffffffffffffffff8111156114d2576114d1611253565b5b6114de88828901611431565b955050602086013567ffffffffffffffff8111156114ff576114fe611253565b5b61150b88828901611431565b945050604086013567ffffffffffffffff81111561152c5761152b611253565b5b61153888828901611431565b935050606061154988828901611483565b925050608086013567ffffffffffffffff81111561156a57611569611253565b5b61157688828901611431565b9150509295509295909350565b6000819050919050565b61159681611583565b82525050565b60006020820190506115b1600083018461158d565b92915050565b6000602082840312156115cd576115cc61124e565b5b600082013567ffffffffffffffff8111156115eb576115ea611253565b5b6115f784828501611431565b91505092915050565b61160981611583565b811461161457600080fd5b50565b60008135905061162681611600565b92915050565b6000602082840312156116425761164161124e565b5b600061165084828501611617565b91505092915050565b61166281611583565b82525050565b600081519050919050565b600082825260208201905092915050565b60005b838110156116a2578082015181840152602081019050611687565b60008484015250505050565b60006116b982611668565b6116c38185611673565b93506116d3818560208601611684565b6116dc81611323565b840191505092915050565b6116f081611278565b82525050565b6116ff8161145f565b82525050565b600081519050919050565b600082825260208201905092915050565b6000819050602082019050919050565b6000608083016000830151848203600086015261174e82826116ae565b9150506020830151848203602086015261176882826116ae565b9150506040830151848203604086015261178282826116ae565b9150506060830151848203606086015261179c82826116ae565b9150508091505092915050565b60006117b58383611731565b905092915050565b6000602082019050919050565b60006117d582611705565b6117df8185611710565b9350836020820285016117f185611721565b8060005b8581101561182d578484038952815161180e85826117a9565b9450611819836117bd565b925060208a019950506001810190506117f5565b50829750879550505050505092915050565b6000610100830160008301516118586000860182611659565b506020830151848203602086015261187082826116ae565b9150506040830151848203604086015261188a82826116ae565b915050606083015161189f60608601826116e7565b50608083015184820360808601526118b782826116ae565b91505060a08301516118cc60a08601826116f6565b5060c083015184820360c08601526118e482826116ae565b91505060e083015184820360e08601526118fe82826117ca565b9150508091505092915050565b60006020820190508181036000830152611925818461183f565b905092915050565b600080600080608085870312156119475761194661124e565b5b600085013567ffffffffffffffff81111561196557611964611253565b5b61197187828801611431565b945050602085013567ffffffffffffffff81111561199257611991611253565b5b61199e87828801611431565b935050604085013567ffffffffffffffff8111156119bf576119be611253565b5b6119cb87828801611431565b925050606085013567ffffffffffffffff8111156119ec576119eb611253565b5b6119f887828801611431565b91505092959194509250565b600082825260208201905092915050565b6000611a2082611668565b611a2a8185611a04565b9350611a3a818560208601611684565b611a4381611323565b840191505092915050565b611a5781611278565b82525050565b611a668161145f565b82525050565b600060e082019050611a81600083018a61158d565b8181036020830152611a938189611a15565b90508181036040830152611aa78188611a15565b9050611ab66060830187611a4e565b8181036080830152611ac88186611a15565b9050611ad760a0830185611a5d565b81810360c0830152611ae98184611a15565b905098975050505050505050565b600082825260208201905092915050565b6000611b1382611705565b611b1d8185611af7565b935083602082028501611b2f85611721565b8060005b85811015611b6b5784840389528151611b4c85826117a9565b9450611b57836117bd565b925060208a01995050600181019050611b33565b50829750879550505050505092915050565b60006020820190508181036000830152611b978184611b08565b905092915050565b7f50617469656e7420616c72656164792072656769737465726564000000000000600082015250565b6000611bd5601a83611a04565b9150611be082611b9f565b602082019050919050565b60006020820190508181036000830152611c0481611bc8565b9050919050565b600081905092915050565b6000611c2182611668565b611c2b8185611c0b565b9350611c3b818560208601611684565b80840191505092915050565b6000611c538284611c16565b915081905092915050565b7f557365726e616d6520616c72656164792074616b656e00000000000000000000600082015250565b6000611c94601683611a04565b9150611c9f82611c5e565b602082019050919050565b60006020820190508181036000830152611cc381611c87565b9050919050565b7f4e487b7100000000000000000000000000000000000000000000000000000000600052601160045260246000fd5b6000611d0482611583565b91507fffffffffffffffffffffffffffffffffffffffffffffffffffffffffffffffff8203611d3657611d35611cca565b5b600182019050919050565b7f4e487b7100000000000000000000000000000000000000000000000000000000600052602260045260246000fd5b60006002820490506001821680611d8857607f821691505b602082108103611d9b57611d9a611d41565b5b50919050565b60008190508160005260206000209050919050565b60006020601f8301049050919050565b600082821b905092915050565b600060088302611e037fffffffffffffffffffffffffffffffffffffffffffffffffffffffffffffffff82611dc6565b611e0d8683611dc6565b95508019841693508086168417925050509392505050565b6000819050919050565b6000611e4a611e45611e4084611583565b611e25565b611583565b9050919050565b6000819050919050565b611e6483611e2f565b611e78611e7082611e51565b848454611dd3565b825550505050565b600090565b611e8d611e80565b611e98818484611e5b565b505050565b5b81811015611ebc57611eb1600082611e85565b600181019050611e9e565b5050565b601f821115611f0157611ed281611da1565b611edb84611db6565b81016020851015611eea578190505b611efe611ef685611db6565b830182611e9d565b50505b505050565b600082821c905092915050565b6000611f2460001984600802611f06565b1980831691505092915050565b6000611f3d8383611f13565b9150826002028217905092915050565b611f5682611668565b67ffffffffffffffff811115611f6f57611f6e611334565b5b611f798254611d70565b611f84828285611ec0565b600060209050601f831160018114611fb75760008415611fa5578287015190505b611faf8582611f31565b865550612017565b601f198416611fc586611da1565b60005b82811015611fed57848901518255600182019150602085019450602081019050611fc8565b8683101561200a5784890151612006601f891682611f13565b8355505b6001600288020188555050505b505050505050565b7f496e76616c69642070617469656e742049440000000000000000000000000000600082015250565b6000612055601283611a04565b91506120608261201f565b602082019050919050565b6000602082019050818103600083015261208481612048565b9050919050565b7f50617469656e74206e6f74207265676973746572656400000000000000000000600082015250565b60006120c1601683611a04565b91506120cc8261208b565b602082019050919050565b600060208201905081810360008301526120f0816120b4565b905091905056fea26469706673582212203b1f3017cb4d24850ea5da8453a91b8a92d40344e1409a027a7e0e0811a57a6b64736f6c63430008130033",
  "immutableReferences": {},
  "source": "// SPDX-License-Identifier: MIT\r\npragma solidity ^0.8.19;\r\n\r\ncontract Patient {\r\n    mapping(address => uint256) public walletToPatientId;\r\n    mapping(string => uint256) public usernameToPatientId; // Username -> ID mapping\r\n\r\n    function userExists(address walletAddress) public view returns (bool) {\r\n        return walletToPatientId[walletAddress] != 0;\r\n    }\r\n\r\n    struct MedicalRecord {\r\n        string ipfsHash;\r\n        string fileName;\r\n        string recordDate;\r\n        string hospital;\r\n    }\r\n\r\n    struct PatientDetails {\r\n        uint256 patientId;\r\n        string username; // Added username\r\n        string name;\r\n        address walletAddress;\r\n        string email;\r\n        uint8 age;\r\n        string bloodGroup;\r\n        MedicalRecord[] medicalRecords;\r\n    }\r\n\r\n    mapping(uint256 => PatientDetails) public patients;\r\n    uint256 private patientIdCounter;\r\n\r\n    function registerPatient(\r\n        string memory _username,\r\n        string memory _name,\r\n        string memory _email,\r\n        uint8 _age,\r\n        string memory _bloodGroup\r\n    ) public {\r\n        require(\r\n            walletToPatientId[msg.sender] == 0,\r\n            \"Patient already registered\"\r\n        );\r\n        require(usernameToPatientId[_username] == 0, \"Username already taken\");\r\n\r\n        patientIdCounter++;\r\n        walletToPatientId[msg.sender] = patientIdCounter;\r\n        usernameToPatientId[_username] = patientIdCounter;\r\n\r\n        PatientDetails storage newPatient = patients[patientIdCounter];\r\n        newPatient.patientId = patientIdCounter;\r\n        newPatient.username = _username;\r\n        newPatient.name = _name;\r\n        newPatient.walletAddress = msg.sender;\r\n        newPatient.email = _email;\r\n        newPatient.age = _age;\r\n        newPatient.bloodGroup = _bloodGroup;\r\n    }\r\n\r\n    function addMedicalRecord(\r\n        string memory _ipfsHash,\r\n        string memory _fileName,\r\n        string memory _recordDate,\r\n        string memory _hospital\r\n    ) public {\r\n        uint256 patientId = walletToPatientId[msg.sender];\r\n        require(patientId != 0, \"Patient not registered\");\r\n\r\n        patients[patientId].medicalRecords.push(\r\n            MedicalRecord({\r\n                ipfsHash: _ipfsHash,\r\n                fileName: _fileName,\r\n                recordDate: _recordDate,\r\n                hospital: _hospital\r\n            })\r\n        );\r\n    }\r\n\r\n    function getPatientDetails(\r\n        uint256 _patientId\r\n    ) public view returns (PatientDetails memory) {\r\n        require(\r\n            _patientId > 0 && _patientId <= patientIdCounter,\r\n            \"Invalid patient ID\"\r\n        );\r\n        return patients[_patientId];\r\n    }\r\n\r\n    // Helper to get ID from username (useful for frontend)\r\n    function getPatientIdByUsername(\r\n        string memory _username\r\n    ) public view returns (uint256) {\r\n        return usernameToPatientId[_username];\r\n    }\r\n\r\n    function getMedicalRecords(\r\n        uint256 _patientId\r\n    ) public view returns (MedicalRecord[] memory) {\r\n        require(\r\n            _patientId > 0 && _patientId <= patientIdCounter,\r\n            \"Invalid patient ID\"\r\n        );\r\n        return patients[_patientId].medicalRecords;\r\n    }\r\n}\r\n",
  "sourcePath": "J:\\Users\\ayush\\Desktop\\code\\team-rocket-medi-secure\\contracts\\contracts\\Patient.sol",
  "compiler": {
    "name": "solc",
    "version": "0.8.19+commit.7dd6d404.Emscripten.clang"
  },
  "schemaVersion": "3.4.16",
  "updatedAt": "2026-01-17T14:20:33.546Z",
  "networkType": "ethereum",
  "devdoc": {
    "kind": "dev",
    "methods": {},
    "version": 1
  },
  "userdoc": {
    "kind": "user",
    "methods": {},
    "version": 1
  }
}