{
  "contractName": "Patient",
  "abi": [
    {
      "inputs": [],
      "stateMutability": "nonpayable",
      "type": "constructor"
    },
    {
      "inputs": [
        {
          "internalType": "address",
          "name": "sender",
          "type": "address"
        },
        {
          "internalType": "uint256",
          "name": "tokenId",
          "type": "uint256"
        },
        {
          "internalType": "address",
          "name": "owner",
          "type": "address"
        }
      ],
      "name": "ERC721IncorrectOwner",
      "type": "error"
    },
    {
      "inputs": [
        {
          "internalType": "address",
          "name": "operator",
          "type": "address"
        },
        {
          "internalType": "uint256",
          "name": "tokenId",
          "type": "uint256"
        }
      ],
      "name": "ERC721InsufficientApproval",
      "type": "error"
    },
    {
      "inputs": [
        {
          "internalType": "address",
          "name": "approver",
          "type": "address"
        }
      ],
      "name": "ERC721InvalidApprover",
      "type": "error"
    },
    {
      "inputs": [
        {
          "internalType": "address",
          "name": "operator",
          "type": "address"
        }
      ],
      "name": "ERC721InvalidOperator",
      "type": "error"
    },
    {
      "inputs": [
        {
          "internalType": "address",
          "name": "owner",
          "type": "address"
        }
      ],
      "name": "ERC721InvalidOwner",
      "type": "error"
    },
    {
      "inputs": [
        {
          "internalType": "address",
          "name": "receiver",
          "type": "address"
        }
      ],
      "name": "ERC721InvalidReceiver",
      "type": "error"
    },
    {
      "inputs": [
        {
          "internalType": "address",
          "name": "sender",
          "type": "address"
        }
      ],
      "name": "ERC721InvalidSender",
      "type": "error"
    },
    {
      "inputs": [
        {
          "internalType": "uint256",
          "name": "tokenId",
          "type": "uint256"
        }
      ],
      "name": "ERC721NonexistentToken",
      "type": "error"
    },
    {
      "anonymous": false,
      "inputs": [
        {
          "indexed": true,
          "internalType": "address",
          "name": "owner",
          "type": "address"
        },
        {
          "indexed": true,
          "internalType": "address",
          "name": "approved",
          "type": "address"
        },
        {
          "indexed": true,
          "internalType": "uint256",
          "name": "tokenId",
          "type": "uint256"
        }
      ],
      "name": "Approval",
      "type": "event"
    },
    {
      "anonymous": false,
      "inputs": [
        {
          "indexed": true,
          "internalType": "address",
          "name": "owner",
          "type": "address"
        },
        {
          "indexed": true,
          "internalType": "address",
          "name": "operator",
          "type": "address"
        },
        {
          "indexed": false,
          "internalType": "bool",
          "name": "approved",
          "type": "bool"
        }
      ],
      "name": "ApprovalForAll",
      "type": "event"
    },
    {
      "anonymous": false,
      "inputs": [
        {
          "indexed": false,
          "internalType": "uint256",
          "name": "_fromTokenId",
          "type": "uint256"
        },
        {
          "indexed": false,
          "internalType": "uint256",
          "name": "_toTokenId",
          "type": "uint256"
        }
      ],
      "name": "BatchMetadataUpdate",
      "type": "event"
    },
    {
      "anonymous": false,
      "inputs": [
        {
          "indexed": false,
          "internalType": "uint256",
          "name": "_tokenId",
          "type": "uint256"
        }
      ],
      "name": "MetadataUpdate",
      "type": "event"
    },
    {
      "anonymous": false,
      "inputs": [
        {
          "indexed": true,
          "internalType": "address",
          "name": "from",
          "type": "address"
        },
        {
          "indexed": true,
          "internalType": "address",
          "name": "to",
          "type": "address"
        },
        {
          "indexed": true,
          "internalType": "uint256",
          "name": "tokenId",
          "type": "uint256"
        }
      ],
      "name": "Transfer",
      "type": "event"
    },
    {
      "inputs": [
        {
          "internalType": "address",
          "name": "to",
          "type": "address"
        },
        {
          "internalType": "uint256",
          "name": "tokenId",
          "type": "uint256"
        }
      ],
      "name": "approve",
      "outputs": [],
      "stateMutability": "nonpayable",
      "type": "function"
    },
    {
      "inputs": [
        {
          "internalType": "address",
          "name": "owner",
          "type": "address"
        }
      ],
      "name": "balanceOf",
      "outputs": [
        {
          "internalType": "uint256",
          "name": "",
          "type": "uint256"
        }
      ],
      "stateMutability": "view",
      "type": "function",
      "constant": true
    },
    {
      "inputs": [
        {
          "internalType": "uint256",
          "name": "",
          "type": "uint256"
        }
      ],
      "name": "emergencyAccessHashes",
      "outputs": [
        {
          "internalType": "bytes32",
          "name": "",
          "type": "bytes32"
        }
      ],
      "stateMutability": "view",
      "type": "function",
      "constant": true
    },
    {
      "inputs": [
        {
          "internalType": "uint256",
          "name": "tokenId",
          "type": "uint256"
        }
      ],
      "name": "getApproved",
      "outputs": [
        {
          "internalType": "address",
          "name": "",
          "type": "address"
        }
      ],
      "stateMutability": "view",
      "type": "function",
      "constant": true
    },
    {
      "inputs": [
        {
          "internalType": "address",
          "name": "owner",
          "type": "address"
        },
        {
          "internalType": "address",
          "name": "operator",
          "type": "address"
        }
      ],
      "name": "isApprovedForAll",
      "outputs": [
        {
          "internalType": "bool",
          "name": "",
          "type": "bool"
        }
      ],
      "stateMutability": "view",
      "type": "function",
      "constant": true
    },
    {
      "inputs": [],
      "name": "name",
      "outputs": [
        {
          "internalType": "string",
          "name": "",
          "type": "string"
        }
      ],
      "stateMutability": "view",
      "type": "function",
      "constant": true
    },
    {
      "inputs": [
        {
          "internalType": "uint256",
          "name": "tokenId",
          "type": "uint256"
        }
      ],
      "name": "ownerOf",
      "outputs": [
        {
          "internalType": "address",
          "name": "",
          "type": "address"
        }
      ],
      "stateMutability": "view",
      "type": "function",
      "constant": true
    },
    {
      "inputs": [
        {
          "internalType": "uint256",
          "name": "",
          "type": "uint256"
        },
        {
          "internalType": "uint256",
          "name": "",
          "type": "uint256"
        }
      ],
      "name": "patientNominees",
      "outputs": [
        {
          "internalType": "string",
          "name": "name",
          "type": "string"
        },
        {
          "internalType": "address",
          "name": "walletAddress",
          "type": "address"
        },
        {
          "internalType": "string",
          "name": "relationship",
          "type": "string"
        },
        {
          "internalType": "string",
          "name": "contactNumber",
          "type": "string"
        }
      ],
      "stateMutability": "view",
      "type": "function",
      "constant": true
    },
    {
      "inputs": [
        {
          "internalType": "uint256",
          "name": "",
          "type": "uint256"
        }
      ],
      "name": "patients",
      "outputs": [
        {
          "internalType": "uint256",
          "name": "patientId",
          "type": "uint256"
        },
        {
          "internalType": "string",
          "name": "username",
          "type": "string"
        },
        {
          "internalType": "string",
          "name": "name",
          "type": "string"
        },
        {
          "internalType": "address",
          "name": "walletAddress",
          "type": "address"
        },
        {
          "internalType": "string",
          "name": "email",
          "type": "string"
        },
        {
          "internalType": "uint8",
          "name": "age",
          "type": "uint8"
        },
        {
          "internalType": "string",
          "name": "bloodGroup",
          "type": "string"
        }
      ],
      "stateMutability": "view",
      "type": "function",
      "constant": true
    },
    {
      "inputs": [
        {
          "internalType": "address",
          "name": "from",
          "type": "address"
        },
        {
          "internalType": "address",
          "name": "to",
          "type": "address"
        },
        {
          "internalType": "uint256",
          "name": "tokenId",
          "type": "uint256"
        }
      ],
      "name": "safeTransferFrom",
      "outputs": [],
      "stateMutability": "nonpayable",
      "type": "function"
    },
    {
      "inputs": [
        {
          "internalType": "address",
          "name": "from",
          "type": "address"
        },
        {
          "internalType": "address",
          "name": "to",
          "type": "address"
        },
        {
          "internalType": "uint256",
          "name": "tokenId",
          "type": "uint256"
        },
        {
          "internalType": "bytes",
          "name": "data",
          "type": "bytes"
        }
      ],
      "name": "safeTransferFrom",
      "outputs": [],
      "stateMutability": "nonpayable",
      "type": "function"
    },
    {
      "inputs": [
        {
          "internalType": "address",
          "name": "operator",
          "type": "address"
        },
        {
          "internalType": "bool",
          "name": "approved",
          "type": "bool"
        }
      ],
      "name": "setApprovalForAll",
      "outputs": [],
      "stateMutability": "nonpayable",
      "type": "function"
    },
    {
      "inputs": [
        {
          "internalType": "bytes4",
          "name": "interfaceId",
          "type": "bytes4"
        }
      ],
      "name": "supportsInterface",
      "outputs": [
        {
          "internalType": "bool",
          "name": "",
          "type": "bool"
        }
      ],
      "stateMutability": "view",
      "type": "function",
      "constant": true
    },
    {
      "inputs": [],
      "name": "symbol",
      "outputs": [
        {
          "internalType": "string",
          "name": "",
          "type": "string"
        }
      ],
      "stateMutability": "view",
      "type": "function",
      "constant": true
    },
    {
      "inputs": [
        {
          "internalType": "uint256",
          "name": "tokenId",
          "type": "uint256"
        }
      ],
      "name": "tokenURI",
      "outputs": [
        {
          "internalType": "string",
          "name": "",
          "type": "string"
        }
      ],
      "stateMutability": "view",
      "type": "function",
      "constant": true
    },
    {
      "inputs": [
        {
          "internalType": "address",
          "name": "from",
          "type": "address"
        },
        {
          "internalType": "address",
          "name": "to",
          "type": "address"
        },
        {
          "internalType": "uint256",
          "name": "tokenId",
          "type": "uint256"
        }
      ],
      "name": "transferFrom",
      "outputs": [],
      "stateMutability": "nonpayable",
      "type": "function"
    },
    {
      "inputs": [
        {
          "internalType": "string",
          "name": "",
          "type": "string"
        }
      ],
      "name": "usernameToPatientId",
      "outputs": [
        {
          "internalType": "uint256",
          "name": "",
          "type": "uint256"
        }
      ],
      "stateMutability": "view",
      "type": "function",
      "constant": true
    },
    {
      "inputs": [
        {
          "internalType": "address",
          "name": "",
          "type": "address"
        }
      ],
      "name": "walletToPatientId",
      "outputs": [
        {
          "internalType": "uint256",
          "name": "",
          "type": "uint256"
        }
      ],
      "stateMutability": "view",
      "type": "function",
      "constant": true
    },
    {
      "inputs": [
        {
          "internalType": "address",
          "name": "walletAddress",
          "type": "address"
        }
      ],
      "name": "userExists",
      "outputs": [
        {
          "internalType": "bool",
          "name": "",
          "type": "bool"
        }
      ],
      "stateMutability": "view",
      "type": "function",
      "constant": true
    },
    {
      "inputs": [
        {
          "internalType": "bytes32",
          "name": "_hash",
          "type": "bytes32"
        }
      ],
      "name": "setEmergencyAccessHash",
      "outputs": [],
      "stateMutability": "nonpayable",
      "type": "function"
    },
    {
      "inputs": [
        {
          "internalType": "uint256",
          "name": "_patientId",
          "type": "uint256"
        },
        {
          "internalType": "bytes32",
          "name": "_hash",
          "type": "bytes32"
        }
      ],
      "name": "verifyEmergencyHash",
      "outputs": [
        {
          "internalType": "bool",
          "name": "",
          "type": "bool"
        }
      ],
      "stateMutability": "view",
      "type": "function",
      "constant": true
    },
    {
      "inputs": [
        {
          "internalType": "string",
          "name": "_username",
          "type": "string"
        },
        {
          "internalType": "string",
          "name": "_name",
          "type": "string"
        },
        {
          "internalType": "string",
          "name": "_email",
          "type": "string"
        },
        {
          "internalType": "uint8",
          "name": "_age",
          "type": "uint8"
        },
        {
          "internalType": "string",
          "name": "_bloodGroup",
          "type": "string"
        }
      ],
      "name": "registerPatient",
      "outputs": [],
      "stateMutability": "nonpayable",
      "type": "function"
    },
    {
      "inputs": [
        {
          "internalType": "string",
          "name": "_name",
          "type": "string"
        },
        {
          "internalType": "string",
          "name": "_email",
          "type": "string"
        },
        {
          "internalType": "uint8",
          "name": "_age",
          "type": "uint8"
        },
        {
          "internalType": "string",
          "name": "_bloodGroup",
          "type": "string"
        }
      ],
      "name": "updatePatientDetails",
      "outputs": [],
      "stateMutability": "nonpayable",
      "type": "function"
    },
    {
      "inputs": [
        {
          "internalType": "string",
          "name": "_name",
          "type": "string"
        },
        {
          "internalType": "address",
          "name": "_walletAddress",
          "type": "address"
        },
        {
          "internalType": "string",
          "name": "_relationship",
          "type": "string"
        },
        {
          "internalType": "string",
          "name": "_contactNumber",
          "type": "string"
        }
      ],
      "name": "addNominee",
      "outputs": [],
      "stateMutability": "nonpayable",
      "type": "function"
    },
    {
      "inputs": [
        {
          "internalType": "uint256",
          "name": "_patientId",
          "type": "uint256"
        }
      ],
      "name": "getNominees",
      "outputs": [
        {
          "components": [
            {
              "internalType": "string",
              "name": "name",
              "type": "string"
            },
            {
              "internalType": "address",
              "name": "walletAddress",
              "type": "address"
            },
            {
              "internalType": "string",
              "name": "relationship",
              "type": "string"
            },
            {
              "internalType": "string",
              "name": "contactNumber",
              "type": "string"
            }
          ],
          "internalType": "struct Patient.Nominee[]",
          "name": "",
          "type": "tuple[]"
        }
      ],
      "stateMutability": "view",
      "type": "function",
      "constant": true
    },
    {
      "inputs": [
        {
          "internalType": "string",
          "name": "_ipfsHash",
          "type": "string"
        },
        {
          "internalType": "string",
          "name": "_fileName",
          "type": "string"
        },
        {
          "internalType": "string",
          "name": "_recordDate",
          "type": "string"
        },
        {
          "internalType": "string",
          "name": "_hospital",
          "type": "string"
        },
        {
          "internalType": "bool",
          "name": "_isEmergencyViewable",
          "type": "bool"
        }
      ],
      "name": "addMedicalRecord",
      "outputs": [],
      "stateMutability": "nonpayable",
      "type": "function"
    },
    {
      "inputs": [
        {
          "internalType": "uint256",
          "name": "_recordIndex",
          "type": "uint256"
        }
      ],
      "name": "toggleEmergencyVisibility",
      "outputs": [],
      "stateMutability": "nonpayable",
      "type": "function"
    },
    {
      "inputs": [
        {
          "internalType": "uint256",
          "name": "_patientId",
          "type": "uint256"
        }
      ],
      "name": "getPatientDetails",
      "outputs": [
        {
          "components": [
            {
              "internalType": "uint256",
              "name": "patientId",
              "type": "uint256"
            },
            {
              "internalType": "string",
              "name": "username",
              "type": "string"
            },
            {
              "internalType": "string",
              "name": "name",
              "type": "string"
            },
            {
              "internalType": "address",
              "name": "walletAddress",
              "type": "address"
            },
            {
              "internalType": "string",
              "name": "email",
              "type": "string"
            },
            {
              "internalType": "uint8",
              "name": "age",
              "type": "uint8"
            },
            {
              "internalType": "string",
              "name": "bloodGroup",
              "type": "string"
            },
            {
              "components": [
                {
                  "internalType": "uint256",
                  "name": "tokenId",
                  "type": "uint256"
                },
                {
                  "internalType": "string",
                  "name": "ipfsHash",
                  "type": "string"
                },
                {
                  "internalType": "string",
                  "name": "fileName",
                  "type": "string"
                },
                {
                  "internalType": "string",
                  "name": "recordDate",
                  "type": "string"
                },
                {
                  "internalType": "string",
                  "name": "hospital",
                  "type": "string"
                },
                {
                  "internalType": "bool",
                  "name": "isEmergencyViewable",
                  "type": "bool"
                }
              ],
              "internalType": "struct Patient.MedicalRecord[]",
              "name": "medicalRecords",
              "type": "tuple[]"
            }
          ],
          "internalType": "struct Patient.PatientDetails",
          "name": "",
          "type": "tuple"
        }
      ],
      "stateMutability": "view",
      "type": "function",
      "constant": true
    },
    {
      "inputs": [
        {
          "internalType": "string",
          "name": "_username",
          "type": "string"
        }
      ],
      "name": "getPatientIdByUsername",
      "outputs": [
        {
          "internalType": "uint256",
          "name": "",
          "type": "uint256"
        }
      ],
      "stateMutability": "view",
      "type": "function",
      "constant": true
    },
    {
      "inputs": [
        {
          "internalType": "uint256",
          "name": "_patientId",
          "type": "uint256"
        }
      ],
      "name": "getMedicalRecords",
      "outputs": [
        {
          "components": [
            {
              "internalType": "uint256",
              "name": "tokenId",
              "type": "uint256"
            },
            {
              "internalType": "string",
              "name": "ipfsHash",
              "type": "string"
            },
            {
              "internalType": "string",
              "name": "fileName",
              "type": "string"
            },
            {
              "internalType": "string",
              "name": "recordDate",
              "type": "string"
            },
            {
              "internalType": "string",
              "name": "hospital",
              "type": "string"
            },
            {
              "internalType": "bool",
              "name": "isEmergencyViewable",
              "type": "bool"
            }
          ],
          "internalType": "struct Patient.MedicalRecord[]",
          "name": "",
          "type": "tuple[]"
        }
      ],
      "stateMutability": "view",
      "type": "function",
      "constant": true
    }
  ],
  "bytecode": "0x608060405234801561001057600080fd5b50604051806040016040528060118152602001701359591a54d958dd5c9948149958dbdc99607a1b815250604051806040016040528060068152602001654d454452454360d01b8152508160009081610069919061012a565b506001610076828261012a565b5050506101ec565b634e487b7160e01b600052604160045260246000fd5b600181811c908216806100a857607f821691505b6020821081036100c857634e487b7160e01b600052602260045260246000fd5b50919050565b601f821115610125578282111561012557806000526020600020601f840160051c60208510156100fc575060005b90810190601f840160051c0360005b818110156101215760008382015560010161010b565b5050505b505050565b81516001600160401b038111156101435761014361007e565b610157816101518454610094565b846100ce565b6020601f82116001811461018b57600083156101735750848201515b600019600385901b1c1916600184901b1784556101e5565b600084815260208120601f198516915b828110156101bb578785015182556020948501946001909201910161019b565b50848210156101d95786840151600019600387901b60f8161c191681555b505060018360011b0184555b5050505050565b613153806101fb6000396000f3fe608060405234801561001057600080fd5b50600436106101da5760003560e01c80636352211e11610104578063a22cb465116100a2578063d5b6ec7c11610071578063d5b6ec7c14610488578063dac5ac491461049b578063e985e9c5146104bd578063ffbcfac2146104d057600080fd5b8063a22cb4651461042f578063b1a3bea914610442578063b88d4fde14610462578063c87b56dd1461047557600080fd5b80638590ed19116100de5780638590ed19146103c35780638d6c56c3146103ee57806393119a831461040157806395d89b411461042757600080fd5b80636352211e1461038a5780636f3981ec1461039d57806370a08231146103b057600080fd5b80631f9761311161017c5780632b05a65e1161014b5780632b05a65e146103245780632d50aae314610337578063300c601c1461035757806342842e0e1461037757600080fd5b80631f976131146102bd5780631ff3bd8b146102d057806323b872dd146102e357806323ecb058146102f657600080fd5b8063095ea7b3116101b8578063095ea7b3146102475780630c5d6c9d1461025c5780630e666e491461027f578063161f821e146102aa57600080fd5b806301ffc9a7146101df57806306fdde0314610207578063081812fc1461021c575b600080fd5b6101f26101ed366004612594565b6104f0565b60405190151581526020015b60405180910390f35b61020f61051b565b6040516101fe9190612601565b61022f61022a366004612614565b6105ad565b6040516001600160a01b0390911681526020016101fe565b61025a610255366004612649565b6105d6565b005b61026f61026a366004612673565b6105e5565b6040516101fe9493929190612695565b6101f261028d3660046126e8565b6001600160a01b0316600090815260086020526040902054151590565b61025a6102b8366004612614565b6107d9565b61025a6102cb3660046127b1565b610823565b61025a6102de366004612864565b610908565b61025a6102f1366004612931565b610a98565b6103166103043660046126e8565b60086020526000908152604090205481565b6040519081526020016101fe565b61031661033236600461296e565b610b23565b61034a610345366004612614565b610b4b565b6040516101fe91906129a2565b61036a610365366004612614565b610d8a565b6040516101fe9190612b28565b61025a610385366004612931565b611393565b61022f610398366004612614565b6113b3565b61025a6103ab366004612c11565b6113be565b6103166103be3660046126e8565b6114ec565b6103166103d136600461296e565b805160208183018101805160098252928201919093012091525481565b61025a6103fc366004612cde565b611534565b61041461040f366004612614565b6115af565b6040516101fe9796959493929190612d68565b61020f611822565b61025a61043d366004612de1565b611831565b610316610450366004612614565b600d6020526000908152604090205481565b61025a610470366004612e14565b61183c565b61020f610483366004612614565b611854565b61025a610496366004612614565b611965565b6101f26104a9366004612673565b6000918252600d6020526040909120541490565b6101f26104cb366004612e83565b611a7c565b6104e36104de366004612614565b611aaa565b6040516101fe9190612ead565b60006001600160e01b03198216632483248360e11b1480610515575061051582611dc1565b92915050565b60606000805461052a90612ec0565b80601f016020809104026020016040519081016040528092919081815260200182805461055690612ec0565b80156105a35780601f10610578576101008083540402835291602001916105a3565b820191906000526020600020905b81548152906001019060200180831161058657829003601f168201915b5050505050905090565b60006105b882611e11565b506000828152600460205260409020546001600160a01b0316610515565b6105e1828233611e4a565b5050565b600c602052816000526040600020818154811061060157600080fd5b90600052602060002090600402016000915091505080600001805461062590612ec0565b80601f016020809104026020016040519081016040528092919081815260200182805461065190612ec0565b801561069e5780601f106106735761010080835404028352916020019161069e565b820191906000526020600020905b81548152906001019060200180831161068157829003601f168201915b505050600184015460028501805494956001600160a01b039092169491935091506106c890612ec0565b80601f01602080910402602001604051908101604052809291908181526020018280546106f490612ec0565b80156107415780601f1061071657610100808354040283529160200191610741565b820191906000526020600020905b81548152906001019060200180831161072457829003601f168201915b50505050509080600301805461075690612ec0565b80601f016020809104026020016040519081016040528092919081815260200182805461078290612ec0565b80156107cf5780601f106107a4576101008083540402835291602001916107cf565b820191906000526020600020905b8154815290600101906020018083116107b257829003601f168201915b5050505050905084565b33600090815260086020526040812054908190036108125760405162461bcd60e51b815260040161080990612efa565b60405180910390fd5b6000908152600d6020526040902055565b33600090815260086020526040812054908190036108535760405162461bcd60e51b815260040161080990612efa565b6000818152600c6020908152604080832081516080810183528981526001600160a01b038916818501529182018790526060820186905280546001810182559084529190922082516004909202019081906108ae9082612f7d565b5060208201516001820180546001600160a01b0319166001600160a01b03909216919091179055604082015160028201906108e99082612f7d565b50606082015160038201906108fe9082612f7d565b5050505050505050565b33600090815260086020526040902054156109655760405162461bcd60e51b815260206004820152601a60248201527f50617469656e7420616c726561647920726567697374657265640000000000006044820152606401610809565b600985604051610975919061303b565b9081526020016040518091039020546000146109cc5760405162461bcd60e51b81526020600482015260166024820152752ab9b2b93730b6b29030b63932b0b23c903a30b5b2b760511b6044820152606401610809565b600b80549060006109dc83613057565b9091555050600b54336000908152600860205260409081902082905551600990610a0790889061303b565b908152604080516020928190038301902092909255600b546000818152600a90925291902090815560018101610a3d8782612f7d565b5060028101610a4c8682612f7d565b506003810180546001600160a01b0319163317905560048101610a6f8582612f7d565b5060058101805460ff191660ff851617905560068101610a8f8382612f7d565b50505050505050565b6001600160a01b038216610ac257604051633250574960e11b815260006004820152602401610809565b6000610acf838333611e57565b9050836001600160a01b0316816001600160a01b031614610b1d576040516364283d7b60e01b81526001600160a01b0380861660048301526024820184905282166044820152606401610809565b50505050565b6000600982604051610b35919061303b565b9081526020016040518091039020549050919050565b6060600c6000838152602001908152602001600020805480602002602001604051908101604052809291908181526020016000905b82821015610d7f5783829060005260206000209060040201604051806080016040529081600082018054610bb390612ec0565b80601f0160208091040260200160405190810160405280929190818152602001828054610bdf90612ec0565b8015610c2c5780601f10610c0157610100808354040283529160200191610c2c565b820191906000526020600020905b815481529060010190602001808311610c0f57829003601f168201915b505050918352505060018201546001600160a01b03166020820152600282018054604090920191610c5c90612ec0565b80601f0160208091040260200160405190810160405280929190818152602001828054610c8890612ec0565b8015610cd55780601f10610caa57610100808354040283529160200191610cd5565b820191906000526020600020905b815481529060010190602001808311610cb857829003601f168201915b50505050508152602001600382018054610cee90612ec0565b80601f0160208091040260200160405190810160405280929190818152602001828054610d1a90612ec0565b8015610d675780601f10610d3c57610100808354040283529160200191610d67565b820191906000526020600020905b815481529060010190602001808311610d4a57829003601f168201915b50505050508152505081526020019060010190610b80565b505050509050919050565b610dde60405180610100016040528060008152602001606081526020016060815260200160006001600160a01b0316815260200160608152602001600060ff16815260200160608152602001606081525090565b600082118015610df05750600b548211155b610e315760405162461bcd60e51b8152602060048201526012602482015271125b9d985b1a59081c185d1a595b9d08125160721b6044820152606401610809565b600a60008381526020019081526020016000206040518061010001604052908160008201548152602001600182018054610e6a90612ec0565b80601f0160208091040260200160405190810160405280929190818152602001828054610e9690612ec0565b8015610ee35780601f10610eb857610100808354040283529160200191610ee3565b820191906000526020600020905b815481529060010190602001808311610ec657829003601f168201915b50505050508152602001600282018054610efc90612ec0565b80601f0160208091040260200160405190810160405280929190818152602001828054610f2890612ec0565b8015610f755780601f10610f4a57610100808354040283529160200191610f75565b820191906000526020600020905b815481529060010190602001808311610f5857829003601f168201915b505050918352505060038201546001600160a01b03166020820152600482018054604090920191610fa590612ec0565b80601f0160208091040260200160405190810160405280929190818152602001828054610fd190612ec0565b801561101e5780601f10610ff35761010080835404028352916020019161101e565b820191906000526020600020905b81548152906001019060200180831161100157829003601f168201915b5050509183525050600582015460ff16602082015260068201805460409092019161104890612ec0565b80601f016020809104026020016040519081016040528092919081815260200182805461107490612ec0565b80156110c15780601f10611096576101008083540402835291602001916110c1565b820191906000526020600020905b8154815290600101906020018083116110a457829003601f168201915b5050505050815260200160078201805480602002602001604051908101604052809291908181526020016000905b8282101561138557838290600052602060002090600602016040518060c00160405290816000820154815260200160018201805461112c90612ec0565b80601f016020809104026020016040519081016040528092919081815260200182805461115890612ec0565b80156111a55780601f1061117a576101008083540402835291602001916111a5565b820191906000526020600020905b81548152906001019060200180831161118857829003601f168201915b505050505081526020016002820180546111be90612ec0565b80601f01602080910402602001604051908101604052809291908181526020018280546111ea90612ec0565b80156112375780601f1061120c57610100808354040283529160200191611237565b820191906000526020600020905b81548152906001019060200180831161121a57829003601f168201915b5050505050815260200160038201805461125090612ec0565b80601f016020809104026020016040519081016040528092919081815260200182805461127c90612ec0565b80156112c95780601f1061129e576101008083540402835291602001916112c9565b820191906000526020600020905b8154815290600101906020018083116112ac57829003601f168201915b505050505081526020016004820180546112e290612ec0565b80601f016020809104026020016040519081016040528092919081815260200182805461130e90612ec0565b801561135b5780601f106113305761010080835404028352916020019161135b565b820191906000526020600020905b81548152906001019060200180831161133e57829003601f168201915b50505091835250506005919091015460ff16151560209182015290825260019290920191016110ef565b505050915250909392505050565b6113ae8383836040518060200160405280600081525061183c565b505050565b600061051582611e11565b33600090815260086020526040812054908190036113ee5760405162461bcd60e51b815260040161080990612efa565b60078054600091826113ff83613057565b91905055905061140f3382611f50565b6114198188611fb5565b6000828152600a60209081526040808320815160c0810183528581528084018c81529281018b9052606081018a90526080810189905287151560a08201526007909101805460018181018355918652939094208151600690940201928355905190928201906114889082612f7d565b506040820151600282019061149d9082612f7d565b50606082015160038201906114b29082612f7d565b50608082015160048201906114c79082612f7d565b5060a091909101516005909101805460ff191691151591909117905550505050505050565b60006001600160a01b038216611518576040516322718ad960e21b815260006004820152602401610809565b506001600160a01b031660009081526003602052604090205490565b33600090815260086020526040812054908190036115645760405162461bcd60e51b815260040161080990612efa565b6000818152600a60205260409020600281016115808782612f7d565b506004810161158f8682612f7d565b5060058101805460ff191660ff861617905560068101610a8f8482612f7d565b600a60205260009081526040902080546001820180549192916115d190612ec0565b80601f01602080910402602001604051908101604052809291908181526020018280546115fd90612ec0565b801561164a5780601f1061161f5761010080835404028352916020019161164a565b820191906000526020600020905b81548152906001019060200180831161162d57829003601f168201915b50505050509080600201805461165f90612ec0565b80601f016020809104026020016040519081016040528092919081815260200182805461168b90612ec0565b80156116d85780601f106116ad576101008083540402835291602001916116d8565b820191906000526020600020905b8154815290600101906020018083116116bb57829003601f168201915b505050600384015460048501805494956001600160a01b0390921694919350915061170290612ec0565b80601f016020809104026020016040519081016040528092919081815260200182805461172e90612ec0565b801561177b5780601f106117505761010080835404028352916020019161177b565b820191906000526020600020905b81548152906001019060200180831161175e57829003601f168201915b5050506005840154600685018054949560ff90921694919350915061179f90612ec0565b80601f01602080910402602001604051908101604052809291908181526020018280546117cb90612ec0565b80156118185780601f106117ed57610100808354040283529160200191611818565b820191906000526020600020905b8154815290600101906020018083116117fb57829003601f168201915b5050505050905087565b60606001805461052a90612ec0565b6105e1338383612005565b611847848484610a98565b610b1d33858585856120a4565b606061185f82611e11565b506000828152600660205260408120805461187990612ec0565b80601f01602080910402602001604051908101604052809291908181526020018280546118a590612ec0565b80156118f25780601f106118c7576101008083540402835291602001916118f2565b820191906000526020600020905b8154815290600101906020018083116118d557829003601f168201915b50505050509050600061191060408051602081019091526000815290565b90508051600003611922575092915050565b81511561195457808260405160200161193c92919061307e565b60405160208183030381529060405292505050919050565b61195d846121cf565b949350505050565b33600090815260086020526040812054908190036119955760405162461bcd60e51b815260040161080990612efa565b6000818152600a602052604090206007015482106119ec5760405162461bcd60e51b8152602060048201526014602482015273092dcecc2d8d2c840e4cac6dee4c840d2dcc8caf60631b6044820152606401610809565b6000818152600a60205260409020600701805483908110611a0f57611a0f6130ad565b906000526020600020906006020160050160009054906101000a900460ff1615600a60008381526020019081526020016000206007018381548110611a5657611a566130ad565b60009182526020909120600690910201600501805460ff19169115159190911790555050565b6001600160a01b03918216600090815260056020908152604080832093909416825291909152205460ff1690565b6060600082118015611abe5750600b548211155b611aff5760405162461bcd60e51b8152602060048201526012602482015271125b9d985b1a59081c185d1a595b9d08125160721b6044820152606401610809565b6000828152600a6020908152604080832060070180548251818502810185019093528083529193909284015b82821015610d7f57838290600052602060002090600602016040518060c001604052908160008201548152602001600182018054611b6890612ec0565b80601f0160208091040260200160405190810160405280929190818152602001828054611b9490612ec0565b8015611be15780601f10611bb657610100808354040283529160200191611be1565b820191906000526020600020905b815481529060010190602001808311611bc457829003601f168201915b50505050508152602001600282018054611bfa90612ec0565b80601f0160208091040260200160405190810160405280929190818152602001828054611c2690612ec0565b8015611c735780601f10611c4857610100808354040283529160200191611c73565b820191906000526020600020905b815481529060010190602001808311611c5657829003601f168201915b50505050508152602001600382018054611c8c90612ec0565b80601f0160208091040260200160405190810160405280929190818152602001828054611cb890612ec0565b8015611d055780601f10611cda57610100808354040283529160200191611d05565b820191906000526020600020905b815481529060010190602001808311611ce857829003601f168201915b50505050508152602001600482018054611d1e90612ec0565b80601f0160208091040260200160405190810160405280929190818152602001828054611d4a90612ec0565b8015611d975780601f10611d6c57610100808354040283529160200191611d97565b820191906000526020600020905b815481529060010190602001808311611d7a57829003601f168201915b50505091835250506005919091015460ff1615156020918201529082526001929092019101611b2b565b60006001600160e01b031982166380ac58cd60e01b1480611df257506001600160e01b03198216635b5e139f60e01b145b8061051557506301ffc9a760e01b6001600160e01b0319831614610515565b6000818152600260205260408120546001600160a01b03168061051557604051637e27328960e01b815260048101849052602401610809565b6113ae8383836001612244565b6000828152600260205260408120546001600160a01b0390811690831615611e8457611e8481848661234a565b6001600160a01b03811615611ec257611ea1600085600080612244565b6001600160a01b038116600090815260036020526040902080546000190190555b6001600160a01b03851615611ef1576001600160a01b0385166000908152600360205260409020805460010190555b60008481526002602052604080822080546001600160a01b0319166001600160a01b0389811691821790925591518793918516917fddf252ad1be2c89b69c2b068fc378daa952ba7f163c4a11628f55a4df523b3ef91a4949350505050565b6001600160a01b038216611f7a57604051633250574960e11b815260006004820152602401610809565b6000611f8883836000611e57565b90506001600160a01b038116156113ae576040516339e3563760e11b815260006004820152602401610809565b6000828152600660205260409020611fcd8282612f7d565b506040518281527ff8e1a15aba9398e019f0b49df1a4fde98ee17ae345cb5f6b5e2c27f5033e8ce79060200160405180910390a15050565b6001600160a01b03821661203757604051630b61174360e31b81526001600160a01b0383166004820152602401610809565b6001600160a01b03838116600081815260056020908152604080832094871680845294825291829020805460ff191686151590811790915591519182527f17307eab39ab6107e8899845ad3d59bd9653f200f220920489ca2b5937696c31910160405180910390a3505050565b6001600160a01b0383163b156121c857604051630a85bd0160e11b81526001600160a01b0384169063150b7a02906120e69088908890879087906004016130c3565b6020604051808303816000875af1925050508015612121575060408051601f3d908101601f1916820190925261211e91810190613100565b60015b61218a573d80801561214f576040519150601f19603f3d011682016040523d82523d6000602084013e612154565b606091505b50805160000361218257604051633250574960e11b81526001600160a01b0385166004820152602401610809565b805160208201fd5b6001600160e01b03198116630a85bd0160e11b146121c657604051633250574960e11b81526001600160a01b0385166004820152602401610809565b505b5050505050565b60606121da82611e11565b5060006121f260408051602081019091526000815290565b90506000815111612212576040518060200160405280600081525061223d565b8061221c846123ae565b60405160200161222d92919061307e565b6040516020818303038152906040525b9392505050565b808061225857506001600160a01b03821615155b1561231a57600061226884611e11565b90506001600160a01b038316158015906122945750826001600160a01b0316816001600160a01b031614155b80156122a757506122a58184611a7c565b155b156122d05760405163a9fbf51f60e01b81526001600160a01b0384166004820152602401610809565b81156123185783856001600160a01b0316826001600160a01b03167f8c5be1e5ebec7d5bd14f71427d1e84f3dd0314c0f7b2291e5b200ac8c7c3b92560405160405180910390a45b505b5050600090815260046020526040902080546001600160a01b0319166001600160a01b0392909216919091179055565b612355838383612440565b6113ae576001600160a01b03831661238357604051637e27328960e01b815260048101829052602401610809565b60405163177e802f60e01b81526001600160a01b038316600482015260248101829052604401610809565b606060006123bb836124a3565b60010190506000816001600160401b038111156123da576123da612703565b6040519080825280601f01601f191660200182016040528015612404576020820181803683370190505b5090508181016020015b600019016f181899199a1a9b1b9c1cb0b131b232b360811b600a86061a8153600a850494508461240e57509392505050565b60006001600160a01b0383161580159061195d5750826001600160a01b0316846001600160a01b0316148061247a575061247a8484611a7c565b8061195d5750506000908152600460205260409020546001600160a01b03908116911614919050565b60008072184f03e93ff9f4daa797ed6e38ed64bf6a1f0160401b83106124e25772184f03e93ff9f4daa797ed6e38ed64bf6a1f0160401b830492506040015b6d04ee2d6d415b85acef8100000000831061250e576d04ee2d6d415b85acef8100000000830492506020015b662386f26fc10000831061252c57662386f26fc10000830492506010015b6305f5e1008310612544576305f5e100830492506008015b612710831061255857612710830492506004015b6064831061256a576064830492506002015b600a83106105155760010192915050565b6001600160e01b03198116811461259157600080fd5b50565b6000602082840312156125a657600080fd5b813561223d8161257b565b60005b838110156125cc5781810151838201526020016125b4565b50506000910152565b600081518084526125ed8160208601602086016125b1565b601f01601f19169290920160200192915050565b60208152600061223d60208301846125d5565b60006020828403121561262657600080fd5b5035919050565b80356001600160a01b038116811461264457600080fd5b919050565b6000806040838503121561265c57600080fd5b6126658361262d565b946020939093013593505050565b6000806040838503121561268657600080fd5b50508035926020909101359150565b6080815260006126a860808301876125d5565b6001600160a01b038616602084015282810360408401526126c981866125d5565b905082810360608401526126dd81856125d5565b979650505050505050565b6000602082840312156126fa57600080fd5b61223d8261262d565b634e487b7160e01b600052604160045260246000fd5b6000806001600160401b0384111561273357612733612703565b50604051601f19601f85018116603f011681018181106001600160401b038211171561276157612761612703565b60405283815290508082840185101561277957600080fd5b83836020830137600060208583010152509392505050565b600082601f8301126127a257600080fd5b61223d83833560208501612719565b600080600080608085870312156127c757600080fd5b84356001600160401b038111156127dd57600080fd5b6127e987828801612791565b9450506127f86020860161262d565b925060408501356001600160401b0381111561281357600080fd5b61281f87828801612791565b92505060608501356001600160401b0381111561283b57600080fd5b61284787828801612791565b91505092959194509250565b803560ff8116811461264457600080fd5b600080600080600060a0868803121561287c57600080fd5b85356001600160401b0381111561289257600080fd5b61289e88828901612791565b95505060208601356001600160401b038111156128ba57600080fd5b6128c688828901612791565b94505060408601356001600160401b038111156128e257600080fd5b6128ee88828901612791565b9350506128fd60608701612853565b915060808601356001600160401b0381111561291857600080fd5b61292488828901612791565b9150509295509295909350565b60008060006060848603121561294657600080fd5b61294f8461262d565b925061295d6020850161262d565b929592945050506040919091013590565b60006020828403121561298057600080fd5b81356001600160401b0381111561299657600080fd5b61195d84828501612791565b6000602082016020835280845180835260408501915060408160051b86010192506020860160005b82811015612a4e57603f1987860301845281518051608087526129f060808801826125d5565b905060018060a01b03602083015116602088015260408201518782036040890152612a1b82826125d5565b915050606082015191508681036060880152612a3781836125d5565b9650505060209384019391909101906001016129ca565b50929695505050505050565b600082825180855260208501945060208160051b8301016020850160005b83811015612b1c57601f19858403018852815180518452602081015160c06020860152612aa860c08601826125d5565b905060408201518582036040870152612ac182826125d5565b91505060608201518582036060870152612adb82826125d5565b91505060808201518582036080870152612af582826125d5565b60a09384015115159690930195909552506020988901989093509190910190600101612a78565b50909695505050505050565b6020815281516020820152600060208301516101006040840152612b506101208401826125d5565b90506040840151601f19848303016060850152612b6d82826125d5565b9150506060840151612b8a60808501826001600160a01b03169052565b506080840151838203601f190160a0850152612ba682826125d5565b91505060a0840151612bbd60c085018260ff169052565b5060c0840151838203601f190160e0850152612bd982826125d5565b91505060e0840151601f1984830301610100850152612bf88282612a5a565b95945050505050565b8035801515811461264457600080fd5b600080600080600060a08688031215612c2957600080fd5b85356001600160401b03811115612c3f57600080fd5b612c4b88828901612791565b95505060208601356001600160401b03811115612c6757600080fd5b612c7388828901612791565b94505060408601356001600160401b03811115612c8f57600080fd5b612c9b88828901612791565b93505060608601356001600160401b03811115612cb757600080fd5b612cc388828901612791565b925050612cd260808701612c01565b90509295509295909350565b60008060008060808587031215612cf457600080fd5b84356001600160401b03811115612d0a57600080fd5b612d1687828801612791565b94505060208501356001600160401b03811115612d3257600080fd5b612d3e87828801612791565b935050612d4d60408601612853565b915060608501356001600160401b0381111561283b57600080fd5b87815260e060208201526000612d8160e08301896125d5565b8281036040840152612d9381896125d5565b6001600160a01b038816606085015283810360808501529050612db681876125d5565b905060ff851660a084015282810360c0840152612dd381856125d5565b9a9950505050505050505050565b60008060408385031215612df457600080fd5b612dfd8361262d565b9150612e0b60208401612c01565b90509250929050565b60008060008060808587031215612e2a57600080fd5b612e338561262d565b9350612e416020860161262d565b92506040850135915060608501356001600160401b03811115612e6357600080fd5b8501601f81018713612e7457600080fd5b61284787823560208401612719565b60008060408385031215612e9657600080fd5b612e9f8361262d565b9150612e0b6020840161262d565b60208152600061223d6020830184612a5a565b600181811c90821680612ed457607f821691505b602082108103612ef457634e487b7160e01b600052602260045260246000fd5b50919050565b60208082526016908201527514185d1a595b9d081b9bdd081c9959da5cdd195c995960521b604082015260600190565b601f8211156113ae57828211156113ae57806000526020600020601f840160051c6020851015612f58575060005b90810190601f840160051c0360005b818110156121c657600083820155600101612f67565b81516001600160401b03811115612f9657612f96612703565b612faa81612fa48454612ec0565b84612f2a565b6020601f821160018114612fde5760008315612fc65750848201515b600019600385901b1c1916600184901b1784556121c8565b600084815260208120601f198516915b8281101561300e5787850151825560209485019460019092019101612fee565b508482101561302c5786840151600019600387901b60f8161c191681555b50505050600190811b01905550565b6000825161304d8184602087016125b1565b9190910192915050565b60006001820161307757634e487b7160e01b600052601160045260246000fd5b5060010190565b600083516130908184602088016125b1565b8351908301906130a48183602088016125b1565b01949350505050565b634e487b7160e01b600052603260045260246000fd5b6001600160a01b03858116825284166020820152604081018390526080606082018190526000906130f6908301846125d5565b9695505050505050565b60006020828403121561311257600080fd5b815161223d8161257b56fea264697066735822122011053e0671f39b628852160811af2dcefda630731ba39810449bd95477360d1e64736f6c63430008210033",
  "immutableReferences": {},
  "source": "// SPDX-License-Identifier: MIT\r\npragma solidity ^0.8.20;\r\n\r\nimport \"@openzeppelin/contracts/token/ERC721/extensions/ERC721URIStorage.sol\";\r\n\r\ncontract Patient is ERC721URIStorage {\r\n    uint256 private _nextTokenId;\r\n\r\n    mapping(address => uint256) public walletToPatientId;\r\n    mapping(string => uint256) public usernameToPatientId; // Username -> ID mapping\r\n\r\n    function userExists(address walletAddress) public view returns (bool) {\r\n        return walletToPatientId[walletAddress] != 0;\r\n    }\r\n\r\n    struct MedicalRecord {\r\n        uint256 tokenId; // NFT ID\r\n        string ipfsHash;\r\n        string fileName;\r\n        string recordDate;\r\n        string hospital;\r\n        bool isEmergencyViewable;\r\n    }\r\n\r\n    struct PatientDetails {\r\n        uint256 patientId;\r\n        string username;\r\n        string name;\r\n        address walletAddress;\r\n        string email;\r\n        uint8 age;\r\n        string bloodGroup;\r\n        MedicalRecord[] medicalRecords;\r\n    }\r\n\r\n    mapping(uint256 => PatientDetails) public patients;\r\n    uint256 private patientIdCounter;\r\n\r\n    struct Nominee {\r\n        string name;\r\n        address walletAddress;\r\n        string relationship;\r\n        string contactNumber;\r\n    }\r\n\r\n    mapping(uint256 => Nominee[]) public patientNominees;\r\n    mapping(uint256 => bytes32) public emergencyAccessHashes;\r\n\r\n    function setEmergencyAccessHash(bytes32 _hash) public {\r\n        uint256 patientId = walletToPatientId[msg.sender];\r\n        require(patientId != 0, \"Patient not registered\");\r\n        emergencyAccessHashes[patientId] = _hash;\r\n    }\r\n\r\n    function verifyEmergencyHash(uint256 _patientId, bytes32 _hash) public view returns (bool) {\r\n        return emergencyAccessHashes[_patientId] == _hash;\r\n    }\r\n\r\n    constructor() ERC721(\"MediSecure Record\", \"MEDREC\") {}\r\n\r\n    function registerPatient(\r\n        string memory _username,\r\n        string memory _name,\r\n        string memory _email,\r\n        uint8 _age,\r\n        string memory _bloodGroup\r\n    ) public {\r\n        require(\r\n            walletToPatientId[msg.sender] == 0,\r\n            \"Patient already registered\"\r\n        );\r\n        require(usernameToPatientId[_username] == 0, \"Username already taken\");\r\n\r\n        patientIdCounter++;\r\n        walletToPatientId[msg.sender] = patientIdCounter;\r\n        usernameToPatientId[_username] = patientIdCounter;\r\n\r\n        PatientDetails storage newPatient = patients[patientIdCounter];\r\n        newPatient.patientId = patientIdCounter;\r\n        newPatient.username = _username;\r\n        newPatient.name = _name;\r\n        newPatient.walletAddress = msg.sender;\r\n        newPatient.email = _email;\r\n        newPatient.age = _age;\r\n        newPatient.bloodGroup = _bloodGroup;\r\n    }\r\n\r\n    function updatePatientDetails(\r\n        string memory _name,\r\n        string memory _email,\r\n        uint8 _age,\r\n        string memory _bloodGroup\r\n    ) public {\r\n        uint256 patientId = walletToPatientId[msg.sender];\r\n        require(patientId != 0, \"Patient not registered\");\r\n\r\n        PatientDetails storage patient = patients[patientId];\r\n        patient.name = _name;\r\n        patient.email = _email;\r\n        patient.age = _age;\r\n        patient.bloodGroup = _bloodGroup;\r\n    }\r\n\r\n    function addNominee(\r\n        string memory _name,\r\n        address _walletAddress,\r\n        string memory _relationship,\r\n        string memory _contactNumber\r\n    ) public {\r\n        uint256 patientId = walletToPatientId[msg.sender];\r\n        require(patientId != 0, \"Patient not registered\");\r\n\r\n        patientNominees[patientId].push(\r\n            Nominee({\r\n                name: _name,\r\n                walletAddress: _walletAddress,\r\n                relationship: _relationship,\r\n                contactNumber: _contactNumber\r\n            })\r\n        );\r\n    }\r\n\r\n    function getNominees(\r\n        uint256 _patientId\r\n    ) public view returns (Nominee[] memory) {\r\n        return patientNominees[_patientId];\r\n    }\r\n\r\n    function addMedicalRecord(\r\n        string memory _ipfsHash,\r\n        string memory _fileName,\r\n        string memory _recordDate,\r\n        string memory _hospital,\r\n        bool _isEmergencyViewable\r\n    ) public {\r\n        uint256 patientId = walletToPatientId[msg.sender];\r\n        require(patientId != 0, \"Patient not registered\");\r\n\r\n        // Mint NFT\r\n        uint256 tokenId = _nextTokenId++;\r\n        _mint(msg.sender, tokenId);\r\n        _setTokenURI(tokenId, _ipfsHash);\r\n\r\n        patients[patientId].medicalRecords.push(\r\n            MedicalRecord({\r\n                tokenId: tokenId,\r\n                ipfsHash: _ipfsHash,\r\n                fileName: _fileName,\r\n                recordDate: _recordDate,\r\n                hospital: _hospital,\r\n                isEmergencyViewable: _isEmergencyViewable\r\n            })\r\n        );\r\n    }\r\n\r\n    function toggleEmergencyVisibility(uint256 _recordIndex) public {\r\n        uint256 patientId = walletToPatientId[msg.sender];\r\n        require(patientId != 0, \"Patient not registered\");\r\n        require(_recordIndex < patients[patientId].medicalRecords.length, \"Invalid record index\");\r\n\r\n        patients[patientId].medicalRecords[_recordIndex].isEmergencyViewable = !patients[patientId].medicalRecords[_recordIndex].isEmergencyViewable;\r\n    }\r\n\r\n    function getPatientDetails(\r\n        uint256 _patientId\r\n    ) public view returns (PatientDetails memory) {\r\n        require(\r\n            _patientId > 0 && _patientId <= patientIdCounter,\r\n            \"Invalid patient ID\"\r\n        );\r\n        return patients[_patientId];\r\n    }\r\n\r\n    // Helper to get ID from username (useful for frontend)\r\n    function getPatientIdByUsername(\r\n        string memory _username\r\n    ) public view returns (uint256) {\r\n        return usernameToPatientId[_username];\r\n    }\r\n\r\n    function getMedicalRecords(\r\n        uint256 _patientId\r\n    ) public view returns (MedicalRecord[] memory) {\r\n        require(\r\n            _patientId > 0 && _patientId <= patientIdCounter,\r\n            \"Invalid patient ID\"\r\n        );\r\n        return patients[_patientId].medicalRecords;\r\n    }\r\n}\r\n",
  "sourcePath": "J:\\Users\\ayush\\Desktop\\code\\team-rocket-medi-secure\\contracts\\contracts\\Patient.sol",
  "compiler": {
    "name": "solc",
    "version": "0.8.33+commit.64118f21.Emscripten.clang"
  },
  "schemaVersion": "3.4.16",
  "updatedAt": "2026-01-23T07:17:01.921Z",
  "networkType": "ethereum",
  "devdoc": {
    "errors": {
      "ERC721IncorrectOwner(address,uint256,address)": [
        {
          "details": "Indicates an error related to the ownership over a particular token. Used in transfers.",
          "params": {
            "owner": "Address of the current owner of a token.",
            "sender": "Address whose tokens are being transferred.",
            "tokenId": "Identifier number of a token."
          }
        }
      ],
      "ERC721InsufficientApproval(address,uint256)": [
        {
          "details": "Indicates a failure with the `operator`s approval. Used in transfers.",
          "params": {
            "operator": "Address that may be allowed to operate on tokens without being their owner.",
            "tokenId": "Identifier number of a token."
          }
        }
      ],
      "ERC721InvalidApprover(address)": [
        {
          "details": "Indicates a failure with the `approver` of a token to be approved. Used in approvals.",
          "params": {
            "approver": "Address initiating an approval operation."
          }
        }
      ],
      "ERC721InvalidOperator(address)": [
        {
          "details": "Indicates a failure with the `operator` to be approved. Used in approvals.",
          "params": {
            "operator": "Address that may be allowed to operate on tokens without being their owner."
          }
        }
      ],
      "ERC721InvalidOwner(address)": [
        {
          "details": "Indicates that an address can't be an owner. For example, `address(0)` is a forbidden owner in ERC-20. Used in balance queries.",
          "params": {
            "owner": "Address of the current owner of a token."
          }
        }
      ],
      "ERC721InvalidReceiver(address)": [
        {
          "details": "Indicates a failure with the token `receiver`. Used in transfers.",
          "params": {
            "receiver": "Address to which tokens are being transferred."
          }
        }
      ],
      "ERC721InvalidSender(address)": [
        {
          "details": "Indicates a failure with the token `sender`. Used in transfers.",
          "params": {
            "sender": "Address whose tokens are being transferred."
          }
        }
      ],
      "ERC721NonexistentToken(uint256)": [
        {
          "details": "Indicates a `tokenId` whose `owner` is the zero address.",
          "params": {
            "tokenId": "Identifier number of a token."
          }
        }
      ]
    },
    "events": {
      "Approval(address,address,uint256)": {
        "details": "Emitted when `owner` enables `approved` to manage the `tokenId` token."
      },
      "ApprovalForAll(address,address,bool)": {
        "details": "Emitted when `owner` enables or disables (`approved`) `operator` to manage all of its assets."
      },
      "BatchMetadataUpdate(uint256,uint256)": {
        "details": "This event emits when the metadata of a range of tokens is changed. So that the third-party platforms such as NFT market could timely update the images and related attributes of the NFTs."
      },
      "MetadataUpdate(uint256)": {
        "details": "This event emits when the metadata of a token is changed. So that the third-party platforms such as NFT market could timely update the images and related attributes of the NFT."
      },
      "Transfer(address,address,uint256)": {
        "details": "Emitted when `tokenId` token is transferred from `from` to `to`."
      }
    },
    "kind": "dev",
    "methods": {
      "approve(address,uint256)": {
        "details": "Gives permission to `to` to transfer `tokenId` token to another account. The approval is cleared when the token is transferred. Only a single account can be approved at a time, so approving the zero address clears previous approvals. Requirements: - The caller must own the token or be an approved operator. - `tokenId` must exist. Emits an {Approval} event."
      },
      "balanceOf(address)": {
        "details": "Returns the number of tokens in ``owner``'s account."
      },
      "getApproved(uint256)": {
        "details": "Returns the account approved for `tokenId` token. Requirements: - `tokenId` must exist."
      },
      "isApprovedForAll(address,address)": {
        "details": "Returns if the `operator` is allowed to manage all of the assets of `owner`. See {setApprovalForAll}"
      },
      "name()": {
        "details": "Returns the token collection name."
      },
      "ownerOf(uint256)": {
        "details": "Returns the owner of the `tokenId` token. Requirements: - `tokenId` must exist."
      },
      "safeTransferFrom(address,address,uint256)": {
        "details": "Safely transfers `tokenId` token from `from` to `to`, checking first that contract recipients are aware of the ERC-721 protocol to prevent tokens from being forever locked. Requirements: - `from` cannot be the zero address. - `to` cannot be the zero address. - `tokenId` token must exist and be owned by `from`. - If the caller is not `from`, it must have been allowed to move this token by either {approve} or   {setApprovalForAll}. - If `to` refers to a smart contract, it must implement {IERC721Receiver-onERC721Received}, which is called upon   a safe transfer. Emits a {Transfer} event."
      },
      "safeTransferFrom(address,address,uint256,bytes)": {
        "details": "Safely transfers `tokenId` token from `from` to `to`. Requirements: - `from` cannot be the zero address. - `to` cannot be the zero address. - `tokenId` token must exist and be owned by `from`. - If the caller is not `from`, it must be approved to move this token by either {approve} or {setApprovalForAll}. - If `to` refers to a smart contract, it must implement {IERC721Receiver-onERC721Received}, which is called upon   a safe transfer. Emits a {Transfer} event."
      },
      "setApprovalForAll(address,bool)": {
        "details": "Approve or remove `operator` as an operator for the caller. Operators can call {transferFrom} or {safeTransferFrom} for any token owned by the caller. Requirements: - The `operator` cannot be the address zero. Emits an {ApprovalForAll} event."
      },
      "supportsInterface(bytes4)": {
        "details": "Returns true if this contract implements the interface defined by `interfaceId`. See the corresponding https://eips.ethereum.org/EIPS/eip-165#how-interfaces-are-identified[ERC section] to learn more about how these ids are created. This function call must use less than 30 000 gas."
      },
      "symbol()": {
        "details": "Returns the token collection symbol."
      },
      "tokenURI(uint256)": {
        "details": "Returns the Uniform Resource Identifier (URI) for `tokenId` token."
      },
      "transferFrom(address,address,uint256)": {
        "details": "Transfers `tokenId` token from `from` to `to`. WARNING: Note that the caller is responsible to confirm that the recipient is capable of receiving ERC-721 or else they may be permanently lost. Usage of {safeTransferFrom} prevents loss, though the caller must understand this adds an external call which potentially creates a reentrancy vulnerability. Requirements: - `from` cannot be the zero address. - `to` cannot be the zero address. - `tokenId` token must be owned by `from`. - If the caller is not `from`, it must be approved to move this token by either {approve} or {setApprovalForAll}. Emits a {Transfer} event."
      }
    },
    "version": 1
  },
  "userdoc": {
    "kind": "user",
    "methods": {},
    "version": 1
  }
}