{
  "contractName": "ConsentSBT",
  "abi": [
    {
      "inputs": [
        {
          "internalType": "address",
          "name": "initialOwner",
          "type": "address"
        }
      ],
      "stateMutability": "nonpayable",
      "type": "constructor",
      "signature": "constructor"
    },
    {
      "inputs": [
        {
          "internalType": "address",
          "name": "sender",
          "type": "address"
        },
        {
          "internalType": "uint256",
          "name": "tokenId",
          "type": "uint256"
        },
        {
          "internalType": "address",
          "name": "owner",
          "type": "address"
        }
      ],
      "name": "ERC721IncorrectOwner",
      "type": "error"
    },
    {
      "inputs": [
        {
          "internalType": "address",
          "name": "operator",
          "type": "address"
        },
        {
          "internalType": "uint256",
          "name": "tokenId",
          "type": "uint256"
        }
      ],
      "name": "ERC721InsufficientApproval",
      "type": "error"
    },
    {
      "inputs": [
        {
          "internalType": "address",
          "name": "approver",
          "type": "address"
        }
      ],
      "name": "ERC721InvalidApprover",
      "type": "error"
    },
    {
      "inputs": [
        {
          "internalType": "address",
          "name": "operator",
          "type": "address"
        }
      ],
      "name": "ERC721InvalidOperator",
      "type": "error"
    },
    {
      "inputs": [
        {
          "internalType": "address",
          "name": "owner",
          "type": "address"
        }
      ],
      "name": "ERC721InvalidOwner",
      "type": "error"
    },
    {
      "inputs": [
        {
          "internalType": "address",
          "name": "receiver",
          "type": "address"
        }
      ],
      "name": "ERC721InvalidReceiver",
      "type": "error"
    },
    {
      "inputs": [
        {
          "internalType": "address",
          "name": "sender",
          "type": "address"
        }
      ],
      "name": "ERC721InvalidSender",
      "type": "error"
    },
    {
      "inputs": [
        {
          "internalType": "uint256",
          "name": "tokenId",
          "type": "uint256"
        }
      ],
      "name": "ERC721NonexistentToken",
      "type": "error"
    },
    {
      "inputs": [],
      "name": "NotAuthorizedIssuer",
      "type": "error"
    },
    {
      "inputs": [
        {
          "internalType": "address",
          "name": "owner",
          "type": "address"
        }
      ],
      "name": "OwnableInvalidOwner",
      "type": "error"
    },
    {
      "inputs": [
        {
          "internalType": "address",
          "name": "account",
          "type": "address"
        }
      ],
      "name": "OwnableUnauthorizedAccount",
      "type": "error"
    },
    {
      "inputs": [],
      "name": "SoulboundRestriction",
      "type": "error"
    },
    {
      "anonymous": false,
      "inputs": [
        {
          "indexed": true,
          "internalType": "address",
          "name": "owner",
          "type": "address"
        },
        {
          "indexed": true,
          "internalType": "address",
          "name": "approved",
          "type": "address"
        },
        {
          "indexed": true,
          "internalType": "uint256",
          "name": "tokenId",
          "type": "uint256"
        }
      ],
      "name": "Approval",
      "type": "event",
      "signature": "0x8c5be1e5ebec7d5bd14f71427d1e84f3dd0314c0f7b2291e5b200ac8c7c3b925"
    },
    {
      "anonymous": false,
      "inputs": [
        {
          "indexed": true,
          "internalType": "address",
          "name": "owner",
          "type": "address"
        },
        {
          "indexed": true,
          "internalType": "address",
          "name": "operator",
          "type": "address"
        },
        {
          "indexed": false,
          "internalType": "bool",
          "name": "approved",
          "type": "bool"
        }
      ],
      "name": "ApprovalForAll",
      "type": "event",
      "signature": "0x17307eab39ab6107e8899845ad3d59bd9653f200f220920489ca2b5937696c31"
    },
    {
      "anonymous": false,
      "inputs": [
        {
          "indexed": false,
          "internalType": "uint256",
          "name": "_fromTokenId",
          "type": "uint256"
        },
        {
          "indexed": false,
          "internalType": "uint256",
          "name": "_toTokenId",
          "type": "uint256"
        }
      ],
      "name": "BatchMetadataUpdate",
      "type": "event",
      "signature": "0x6bd5c950a8d8df17f772f5af37cb3655737899cbf903264b9795592da439661c"
    },
    {
      "anonymous": false,
      "inputs": [
        {
          "indexed": true,
          "internalType": "address",
          "name": "patient",
          "type": "address"
        },
        {
          "indexed": true,
          "internalType": "address",
          "name": "doctor",
          "type": "address"
        },
        {
          "indexed": false,
          "internalType": "uint256",
          "name": "tokenId",
          "type": "uint256"
        },
        {
          "indexed": false,
          "internalType": "string",
          "name": "uri",
          "type": "string"
        }
      ],
      "name": "ConsentIssued",
      "type": "event",
      "signature": "0x68fc2a0e196c508432d80d57e8f218ce49cddd88b0aeb02959f86cae9ed5ce46"
    },
    {
      "anonymous": false,
      "inputs": [
        {
          "indexed": true,
          "internalType": "address",
          "name": "patient",
          "type": "address"
        },
        {
          "indexed": true,
          "internalType": "address",
          "name": "doctor",
          "type": "address"
        },
        {
          "indexed": false,
          "internalType": "uint256",
          "name": "tokenId",
          "type": "uint256"
        }
      ],
      "name": "ConsentRevoked",
      "type": "event",
      "signature": "0xb975ee8b7b7c48fd313db9b5ca976e213d1d7bd3136fc5c926dd5ff00077e47f"
    },
    {
      "anonymous": false,
      "inputs": [
        {
          "indexed": false,
          "internalType": "uint256",
          "name": "_tokenId",
          "type": "uint256"
        }
      ],
      "name": "MetadataUpdate",
      "type": "event",
      "signature": "0xf8e1a15aba9398e019f0b49df1a4fde98ee17ae345cb5f6b5e2c27f5033e8ce7"
    },
    {
      "anonymous": false,
      "inputs": [
        {
          "indexed": true,
          "internalType": "address",
          "name": "previousOwner",
          "type": "address"
        },
        {
          "indexed": true,
          "internalType": "address",
          "name": "newOwner",
          "type": "address"
        }
      ],
      "name": "OwnershipTransferred",
      "type": "event",
      "signature": "0x8be0079c531659141344cd1fd0a4f28419497f9722a3daafe3b4186f6b6457e0"
    },
    {
      "anonymous": false,
      "inputs": [
        {
          "indexed": true,
          "internalType": "address",
          "name": "from",
          "type": "address"
        },
        {
          "indexed": true,
          "internalType": "address",
          "name": "to",
          "type": "address"
        },
        {
          "indexed": true,
          "internalType": "uint256",
          "name": "tokenId",
          "type": "uint256"
        }
      ],
      "name": "Transfer",
      "type": "event",
      "signature": "0xddf252ad1be2c89b69c2b068fc378daa952ba7f163c4a11628f55a4df523b3ef"
    },
    {
      "inputs": [
        {
          "internalType": "address",
          "name": "to",
          "type": "address"
        },
        {
          "internalType": "uint256",
          "name": "tokenId",
          "type": "uint256"
        }
      ],
      "name": "approve",
      "outputs": [],
      "stateMutability": "nonpayable",
      "type": "function",
      "signature": "0x095ea7b3"
    },
    {
      "inputs": [
        {
          "internalType": "address",
          "name": "owner",
          "type": "address"
        }
      ],
      "name": "balanceOf",
      "outputs": [
        {
          "internalType": "uint256",
          "name": "",
          "type": "uint256"
        }
      ],
      "stateMutability": "view",
      "type": "function",
      "constant": true,
      "signature": "0x70a08231"
    },
    {
      "inputs": [
        {
          "internalType": "uint256",
          "name": "tokenId",
          "type": "uint256"
        }
      ],
      "name": "getApproved",
      "outputs": [
        {
          "internalType": "address",
          "name": "",
          "type": "address"
        }
      ],
      "stateMutability": "view",
      "type": "function",
      "constant": true,
      "signature": "0x081812fc"
    },
    {
      "inputs": [
        {
          "internalType": "address",
          "name": "owner",
          "type": "address"
        },
        {
          "internalType": "address",
          "name": "operator",
          "type": "address"
        }
      ],
      "name": "isApprovedForAll",
      "outputs": [
        {
          "internalType": "bool",
          "name": "",
          "type": "bool"
        }
      ],
      "stateMutability": "view",
      "type": "function",
      "constant": true,
      "signature": "0xe985e9c5"
    },
    {
      "inputs": [],
      "name": "name",
      "outputs": [
        {
          "internalType": "string",
          "name": "",
          "type": "string"
        }
      ],
      "stateMutability": "view",
      "type": "function",
      "constant": true,
      "signature": "0x06fdde03"
    },
    {
      "inputs": [],
      "name": "owner",
      "outputs": [
        {
          "internalType": "address",
          "name": "",
          "type": "address"
        }
      ],
      "stateMutability": "view",
      "type": "function",
      "constant": true,
      "signature": "0x8da5cb5b"
    },
    {
      "inputs": [
        {
          "internalType": "uint256",
          "name": "tokenId",
          "type": "uint256"
        }
      ],
      "name": "ownerOf",
      "outputs": [
        {
          "internalType": "address",
          "name": "",
          "type": "address"
        }
      ],
      "stateMutability": "view",
      "type": "function",
      "constant": true,
      "signature": "0x6352211e"
    },
    {
      "inputs": [],
      "name": "renounceOwnership",
      "outputs": [],
      "stateMutability": "nonpayable",
      "type": "function",
      "signature": "0x715018a6"
    },
    {
      "inputs": [
        {
          "internalType": "address",
          "name": "from",
          "type": "address"
        },
        {
          "internalType": "address",
          "name": "to",
          "type": "address"
        },
        {
          "internalType": "uint256",
          "name": "tokenId",
          "type": "uint256"
        }
      ],
      "name": "safeTransferFrom",
      "outputs": [],
      "stateMutability": "nonpayable",
      "type": "function",
      "signature": "0x42842e0e"
    },
    {
      "inputs": [
        {
          "internalType": "address",
          "name": "from",
          "type": "address"
        },
        {
          "internalType": "address",
          "name": "to",
          "type": "address"
        },
        {
          "internalType": "uint256",
          "name": "tokenId",
          "type": "uint256"
        },
        {
          "internalType": "bytes",
          "name": "data",
          "type": "bytes"
        }
      ],
      "name": "safeTransferFrom",
      "outputs": [],
      "stateMutability": "nonpayable",
      "type": "function",
      "signature": "0xb88d4fde"
    },
    {
      "inputs": [
        {
          "internalType": "address",
          "name": "operator",
          "type": "address"
        },
        {
          "internalType": "bool",
          "name": "approved",
          "type": "bool"
        }
      ],
      "name": "setApprovalForAll",
      "outputs": [],
      "stateMutability": "nonpayable",
      "type": "function",
      "signature": "0xa22cb465"
    },
    {
      "inputs": [],
      "name": "symbol",
      "outputs": [
        {
          "internalType": "string",
          "name": "",
          "type": "string"
        }
      ],
      "stateMutability": "view",
      "type": "function",
      "constant": true,
      "signature": "0x95d89b41"
    },
    {
      "inputs": [
        {
          "internalType": "uint256",
          "name": "",
          "type": "uint256"
        }
      ],
      "name": "tokenIssuers",
      "outputs": [
        {
          "internalType": "address",
          "name": "",
          "type": "address"
        }
      ],
      "stateMutability": "view",
      "type": "function",
      "constant": true,
      "signature": "0xb7abc58d"
    },
    {
      "inputs": [
        {
          "internalType": "address",
          "name": "from",
          "type": "address"
        },
        {
          "internalType": "address",
          "name": "to",
          "type": "address"
        },
        {
          "internalType": "uint256",
          "name": "tokenId",
          "type": "uint256"
        }
      ],
      "name": "transferFrom",
      "outputs": [],
      "stateMutability": "nonpayable",
      "type": "function",
      "signature": "0x23b872dd"
    },
    {
      "inputs": [
        {
          "internalType": "address",
          "name": "newOwner",
          "type": "address"
        }
      ],
      "name": "transferOwnership",
      "outputs": [],
      "stateMutability": "nonpayable",
      "type": "function",
      "signature": "0xf2fde38b"
    },
    {
      "inputs": [
        {
          "internalType": "address",
          "name": "patient",
          "type": "address"
        },
        {
          "internalType": "address",
          "name": "doctor",
          "type": "address"
        },
        {
          "internalType": "string",
          "name": "uri",
          "type": "string"
        }
      ],
      "name": "mintConsent",
      "outputs": [
        {
          "internalType": "uint256",
          "name": "",
          "type": "uint256"
        }
      ],
      "stateMutability": "nonpayable",
      "type": "function",
      "signature": "0x83170ca2"
    },
    {
      "inputs": [
        {
          "internalType": "uint256",
          "name": "tokenId",
          "type": "uint256"
        }
      ],
      "name": "revokeConsent",
      "outputs": [],
      "stateMutability": "nonpayable",
      "type": "function",
      "signature": "0x16a0042c"
    },
    {
      "inputs": [
        {
          "internalType": "uint256",
          "name": "tokenId",
          "type": "uint256"
        }
      ],
      "name": "tokenURI",
      "outputs": [
        {
          "internalType": "string",
          "name": "",
          "type": "string"
        }
      ],
      "stateMutability": "view",
      "type": "function",
      "constant": true,
      "signature": "0xc87b56dd"
    },
    {
      "inputs": [
        {
          "internalType": "bytes4",
          "name": "interfaceId",
          "type": "bytes4"
        }
      ],
      "name": "supportsInterface",
      "outputs": [
        {
          "internalType": "bool",
          "name": "",
          "type": "bool"
        }
      ],
      "stateMutability": "view",
      "type": "function",
      "constant": true,
      "signature": "0x01ffc9a7"
    }
  ],
  "bytecode": "0x608060405234801562000010575f80fd5b50604051620018eb380380620018eb833981016040819052620000339162000134565b806040518060400160405280601181526020017014d85b9a99595d9b9a4810dbdb9cd95b9d607a1b8152506040518060400160405280600981526020016814cb50d3d394d1539560ba1b815250815f908162000090919062000203565b5060016200009f828262000203565b5050506001600160a01b038116620000d057604051631e4fbdf760e01b81525f600482015260240160405180910390fd5b620000db81620000e3565b5050620002cb565b600780546001600160a01b038381166001600160a01b0319831681179093556040519116919082907f8be0079c531659141344cd1fd0a4f28419497f9722a3daafe3b4186f6b6457e0905f90a35050565b5f6020828403121562000145575f80fd5b81516001600160a01b03811681146200015c575f80fd5b9392505050565b634e487b7160e01b5f52604160045260245ffd5b600181811c908216806200018c57607f821691505b602082108103620001ab57634e487b7160e01b5f52602260045260245ffd5b50919050565b601f821115620001fe575f81815260208120601f850160051c81016020861015620001d95750805b601f850160051c820191505b81811015620001fa57828155600101620001e5565b5050505b505050565b81516001600160401b038111156200021f576200021f62000163565b620002378162000230845462000177565b84620001b1565b602080601f8311600181146200026d575f8415620002555750858301515b5f19600386901b1c1916600185901b178555620001fa565b5f85815260208120601f198616915b828110156200029d578886015182559484019460019091019084016200027c565b5085821015620002bb57878501515f19600388901b60f8161c191681555b5050505050600190811b01905550565b61161280620002d95f395ff3fe608060405234801561000f575f80fd5b506004361061011c575f3560e01c8063715018a6116100a9578063b7abc58d1161006e578063b7abc58d14610251578063b88d4fde14610279578063c87b56dd1461028c578063e985e9c51461029f578063f2fde38b146102b2575f80fd5b8063715018a61461020a57806383170ca2146102125780638da5cb5b1461022557806395d89b4114610236578063a22cb4651461023e575f80fd5b806316a0042c116100ef57806316a0042c1461019d57806323b872dd146101b057806342842e0e146101c35780636352211e146101d657806370a08231146101e9575f80fd5b806301ffc9a71461012057806306fdde0314610148578063081812fc1461015d578063095ea7b314610188575b5f80fd5b61013361012e3660046110df565b6102c5565b60405190151581526020015b60405180910390f35b6101506102d5565b60405161013f9190611147565b61017061016b366004611159565b610364565b6040516001600160a01b03909116815260200161013f565b61019b61019636600461118b565b61038b565b005b61019b6101ab366004611159565b61039a565b61019b6101be3660046111b3565b610469565b61019b6101d13660046111b3565b6104f7565b6101706101e4366004611159565b610516565b6101fc6101f73660046111ec565b610520565b60405190815260200161013f565b61019b610565565b6101fc61022036600461128c565b610578565b6007546001600160a01b0316610170565b61015061061d565b61019b61024c3660046112f9565b61062c565b61017061025f366004611159565b60096020525f90815260409020546001600160a01b031681565b61019b610287366004611332565b610637565b61015061029a366004611159565b61064e565b6101336102ad3660046113a9565b610659565b61019b6102c03660046111ec565b610686565b5f6102cf826106c3565b92915050565b60605f80546102e3906113da565b80601f016020809104026020016040519081016040528092919081815260200182805461030f906113da565b801561035a5780601f106103315761010080835404028352916020019161035a565b820191905f5260205f20905b81548152906001019060200180831161033d57829003601f168201915b5050505050905090565b5f61036e826106e7565b505f828152600460205260409020546001600160a01b03166102cf565b61039682823361071f565b5050565b5f818152600960205260409020546001600160a01b03163381148015906103cc57506007546001600160a01b03163314155b156103ea576040516306aaf4f160e31b815260040160405180910390fd5b5f6103f483610516565b90506103ff8361072c565b5f838152600960205260409081902080546001600160a01b0319169055516001600160a01b0382811691908416907fb975ee8b7b7c48fd313db9b5ca976e213d1d7bd3136fc5c926dd5ff00077e47f9061045c9087815260200190565b60405180910390a3505050565b6001600160a01b03821661049757604051633250574960e11b81525f60048201526024015b60405180910390fd5b5f6104a3838333610764565b9050836001600160a01b0316816001600160a01b0316146104f1576040516364283d7b60e01b81526001600160a01b038086166004830152602482018490528216604482015260640161048e565b50505050565b61051183838360405180602001604052805f815250610637565b505050565b5f6102cf826106e7565b5f6001600160a01b03821661054a576040516322718ad960e21b81525f600482015260240161048e565b506001600160a01b03165f9081526003602052604090205490565b61056d6107c4565b6105765f6107f1565b565b5f6105816107c4565b600880545f918261059183611412565b9190505590506105a18482610842565b6105ab818461085b565b5f818152600960205260409081902080546001600160a01b0319166001600160a01b03888116918217909255915190861691907f68fc2a0e196c508432d80d57e8f218ce49cddd88b0aeb02959f86cae9ed5ce469061060d9085908890611436565b60405180910390a3949350505050565b6060600180546102e3906113da565b6103963383836108aa565b610642848484610469565b6104f184848484610940565b60606102cf82610a66565b6001600160a01b039182165f90815260056020908152604080832093909416825291909152205460ff1690565b61068e6107c4565b6001600160a01b0381166106b757604051631e4fbdf760e01b81525f600482015260240161048e565b6106c0816107f1565b50565b5f6001600160e01b03198216632483248360e11b14806102cf57506102cf82610b71565b5f818152600260205260408120546001600160a01b0316806102cf57604051637e27328960e01b81526004810184905260240161048e565b6105118383836001610bc0565b5f6107385f835f610764565b90506001600160a01b03811661039657604051637e27328960e01b81526004810183905260240161048e565b5f828152600260205260408120546001600160a01b0316801580159061079257506001600160a01b03851615155b156107b05760405163563bca5360e11b815260040160405180910390fd5b6107bb858585610cc4565b95945050505050565b6007546001600160a01b031633146105765760405163118cdaa760e01b815233600482015260240161048e565b600780546001600160a01b038381166001600160a01b0319831681179093556040519116919082907f8be0079c531659141344cd1fd0a4f28419497f9722a3daafe3b4186f6b6457e0905f90a35050565b610396828260405180602001604052805f815250610db6565b5f828152600660205260409020610872828261149b565b506040518281527ff8e1a15aba9398e019f0b49df1a4fde98ee17ae345cb5f6b5e2c27f5033e8ce79060200160405180910390a15050565b6001600160a01b0382166108dc57604051630b61174360e31b81526001600160a01b038316600482015260240161048e565b6001600160a01b038381165f81815260056020908152604080832094871680845294825291829020805460ff191686151590811790915591519182527f17307eab39ab6107e8899845ad3d59bd9653f200f220920489ca2b5937696c31910161045c565b6001600160a01b0383163b156104f157604051630a85bd0160e11b81526001600160a01b0384169063150b7a0290610982903390889087908790600401611557565b6020604051808303815f875af19250505080156109bc575060408051601f3d908101601f191682019092526109b991810190611593565b60015b610a23573d8080156109e9576040519150601f19603f3d011682016040523d82523d5f602084013e6109ee565b606091505b5080515f03610a1b57604051633250574960e11b81526001600160a01b038516600482015260240161048e565b805181602001fd5b6001600160e01b03198116630a85bd0160e11b14610a5f57604051633250574960e11b81526001600160a01b038516600482015260240161048e565b5050505050565b6060610a71826106e7565b505f8281526006602052604081208054610a8a906113da565b80601f0160208091040260200160405190810160405280929190818152602001828054610ab6906113da565b8015610b015780601f10610ad857610100808354040283529160200191610b01565b820191905f5260205f20905b815481529060010190602001808311610ae457829003601f168201915b505050505090505f610b1d60408051602081019091525f815290565b905080515f03610b2e575092915050565b815115610b60578082604051602001610b489291906115ae565b60405160208183030381529060405292505050919050565b610b6984610dcc565b949350505050565b5f6001600160e01b031982166380ac58cd60e01b1480610ba157506001600160e01b03198216635b5e139f60e01b145b806102cf57506301ffc9a760e01b6001600160e01b03198316146102cf565b8080610bd457506001600160a01b03821615155b15610c95575f610be3846106e7565b90506001600160a01b03831615801590610c0f5750826001600160a01b0316816001600160a01b031614155b8015610c225750610c208184610659565b155b15610c4b5760405163a9fbf51f60e01b81526001600160a01b038416600482015260240161048e565b8115610c935783856001600160a01b0316826001600160a01b03167f8c5be1e5ebec7d5bd14f71427d1e84f3dd0314c0f7b2291e5b200ac8c7c3b92560405160405180910390a45b505b50505f90815260046020526040902080546001600160a01b0319166001600160a01b0392909216919091179055565b5f828152600260205260408120546001600160a01b0390811690831615610cf057610cf0818486610e3d565b6001600160a01b03811615610d2a57610d0b5f855f80610bc0565b6001600160a01b0381165f90815260036020526040902080545f190190555b6001600160a01b03851615610d58576001600160a01b0385165f908152600360205260409020805460010190555b5f8481526002602052604080822080546001600160a01b0319166001600160a01b0389811691821790925591518793918516917fddf252ad1be2c89b69c2b068fc378daa952ba7f163c4a11628f55a4df523b3ef91a4949350505050565b610dc08383610ea1565b6105115f848484610940565b6060610dd7826106e7565b505f610ded60408051602081019091525f815290565b90505f815111610e0b5760405180602001604052805f815250610e36565b80610e1584610f02565b604051602001610e269291906115ae565b6040516020818303038152906040525b9392505050565b610e48838383610f92565b610511576001600160a01b038316610e7657604051637e27328960e01b81526004810182905260240161048e565b60405163177e802f60e01b81526001600160a01b03831660048201526024810182905260440161048e565b6001600160a01b038216610eca57604051633250574960e11b81525f600482015260240161048e565b5f610ed683835f610764565b90506001600160a01b03811615610511576040516339e3563760e11b81525f600482015260240161048e565b60605f610f0e83610ff3565b60010190505f8167ffffffffffffffff811115610f2d57610f2d611205565b6040519080825280601f01601f191660200182016040528015610f57576020820181803683370190505b5090508181016020015b5f19016f181899199a1a9b1b9c1cb0b131b232b360811b600a86061a8153600a8504945084610f6157509392505050565b5f6001600160a01b03831615801590610b695750826001600160a01b0316846001600160a01b03161480610fcb5750610fcb8484610659565b80610b695750505f908152600460205260409020546001600160a01b03908116911614919050565b5f8072184f03e93ff9f4daa797ed6e38ed64bf6a1f0160401b83106110315772184f03e93ff9f4daa797ed6e38ed64bf6a1f0160401b830492506040015b6d04ee2d6d415b85acef8100000000831061105d576d04ee2d6d415b85acef8100000000830492506020015b662386f26fc10000831061107b57662386f26fc10000830492506010015b6305f5e1008310611093576305f5e100830492506008015b61271083106110a757612710830492506004015b606483106110b9576064830492506002015b600a83106102cf5760010192915050565b6001600160e01b0319811681146106c0575f80fd5b5f602082840312156110ef575f80fd5b8135610e36816110ca565b5f5b838110156111145781810151838201526020016110fc565b50505f910152565b5f81518084526111338160208601602086016110fa565b601f01601f19169290920160200192915050565b602081525f610e36602083018461111c565b5f60208284031215611169575f80fd5b5035919050565b80356001600160a01b0381168114611186575f80fd5b919050565b5f806040838503121561119c575f80fd5b6111a583611170565b946020939093013593505050565b5f805f606084860312156111c5575f80fd5b6111ce84611170565b92506111dc60208501611170565b9150604084013590509250925092565b5f602082840312156111fc575f80fd5b610e3682611170565b634e487b7160e01b5f52604160045260245ffd5b5f67ffffffffffffffff8084111561123357611233611205565b604051601f8501601f19908116603f0116810190828211818310171561125b5761125b611205565b81604052809350858152868686011115611273575f80fd5b858560208301375f602087830101525050509392505050565b5f805f6060848603121561129e575f80fd5b6112a784611170565b92506112b560208501611170565b9150604084013567ffffffffffffffff8111156112d0575f80fd5b8401601f810186136112e0575f80fd5b6112ef86823560208401611219565b9150509250925092565b5f806040838503121561130a575f80fd5b61131383611170565b915060208301358015158114611327575f80fd5b809150509250929050565b5f805f8060808587031215611345575f80fd5b61134e85611170565b935061135c60208601611170565b925060408501359150606085013567ffffffffffffffff81111561137e575f80fd5b8501601f8101871361138e575f80fd5b61139d87823560208401611219565b91505092959194509250565b5f80604083850312156113ba575f80fd5b6113c383611170565b91506113d160208401611170565b90509250929050565b600181811c908216806113ee57607f821691505b60208210810361140c57634e487b7160e01b5f52602260045260245ffd5b50919050565b5f6001820161142f57634e487b7160e01b5f52601160045260245ffd5b5060010190565b828152604060208201525f610b69604083018461111c565b601f821115610511575f81815260208120601f850160051c810160208610156114745750805b601f850160051c820191505b8181101561149357828155600101611480565b505050505050565b815167ffffffffffffffff8111156114b5576114b5611205565b6114c9816114c384546113da565b8461144e565b602080601f8311600181146114fc575f84156114e55750858301515b5f19600386901b1c1916600185901b178555611493565b5f85815260208120601f198616915b8281101561152a5788860151825594840194600190910190840161150b565b508582101561154757878501515f19600388901b60f8161c191681555b5050505050600190811b01905550565b6001600160a01b03858116825284166020820152604081018390526080606082018190525f906115899083018461111c565b9695505050505050565b5f602082840312156115a3575f80fd5b8151610e36816110ca565b5f83516115bf8184602088016110fa565b8351908301906115d38183602088016110fa565b0194935050505056fea26469706673582212200022e9bb37a2848d364fbf579f35536c08dba2e873a1f2de17b9c6c7b2ac96de64736f6c63430008140033",
  "immutableReferences": {},
  "source": "// SPDX-License-Identifier: MIT\npragma solidity ^0.8.20;\n\nimport \"@openzeppelin/contracts/token/ERC721/ERC721.sol\";\nimport \"@openzeppelin/contracts/token/ERC721/extensions/ERC721URIStorage.sol\";\nimport \"@openzeppelin/contracts/access/Ownable.sol\";\n\n/**\n * @title ConsentSBT\n * @dev Soulbound Token (SBT) representing medical consent. \n * Non-transferable tokens that doctors hold to prove they have patient permission.\n */\ncontract ConsentSBT is ERC721, ERC721URIStorage, Ownable {\n    uint256 private _nextTokenId;\n\n    // Mapping from tokenId to patient address who issued it\n    mapping(uint256 => address) public tokenIssuers;\n    \n    // Custom Errors\n    error SoulboundRestriction();\n    error NotAuthorizedIssuer();\n\n    event ConsentIssued(address indexed patient, address indexed doctor, uint256 tokenId, string uri);\n    event ConsentRevoked(address indexed patient, address indexed doctor, uint256 tokenId);\n\n    constructor(address initialOwner) ERC721(\"Sanjeevni Consent\", \"S-CONSENT\") Ownable(initialOwner) {}\n\n    /**\n     * @dev Mint a new consent token to a doctor.\n     * Only the authorized Sanjeevni registry/patient contract should call this.\n     */\n    function mintConsent(address patient, address doctor, string memory uri) external onlyOwner returns (uint256) {\n        uint256 tokenId = _nextTokenId++;\n        _safeMint(doctor, tokenId);\n        _setTokenURI(tokenId, uri);\n        \n        tokenIssuers[tokenId] = patient;\n        \n        emit ConsentIssued(patient, doctor, tokenId, uri);\n        return tokenId;\n    }\n\n    /**\n     * @dev Revoke/Burn the consent token.\n     * Only the original patient issuer can trigger this.\n     */\n    function revokeConsent(uint256 tokenId) external {\n        address patient = tokenIssuers[tokenId];\n        if (msg.sender != patient && msg.sender != owner()) revert NotAuthorizedIssuer();\n        \n        address doctor = ownerOf(tokenId);\n        _burn(tokenId);\n        delete tokenIssuers[tokenId];\n        \n        emit ConsentRevoked(patient, doctor, tokenId);\n    }\n\n    /**\n     * @dev Override transfer functions to make the token Soulbound (non-transferable).\n     */\n    function _update(address to, uint256 tokenId, address auth) internal override returns (address) {\n        address from = _ownerOf(tokenId);\n        \n        // Allow minting and burning, but revert on any other transfer\n        if (from != address(0) && to != address(0)) {\n            revert SoulboundRestriction();\n        }\n        \n        return super._update(to, tokenId, auth);\n    }\n\n    // Required overrides for ERC721URIStorage\n    function tokenURI(uint256 tokenId) public view override(ERC721, ERC721URIStorage) returns (string memory) {\n        return super.tokenURI(tokenId);\n    }\n\n    function supportsInterface(bytes4 interfaceId) public view override(ERC721, ERC721URIStorage) returns (bool) {\n        return super.supportsInterface(interfaceId);\n    }\n}\n",
  "sourcePath": "/home/ayush/Desktop/code/Sanjeevni/contracts/contracts/ConsentSBT.sol",
  "compiler": {
    "name": "solc",
    "version": "0.8.20+commit.a1b79de6.Emscripten.clang"
  },
  "schemaVersion": "3.4.16",
  "updatedAt": "2026-04-13T21:23:03.169Z",
  "networkType": "ethereum",
  "devdoc": {
    "details": "Soulbound Token (SBT) representing medical consent.  Non-transferable tokens that doctors hold to prove they have patient permission.",
    "errors": {
      "ERC721IncorrectOwner(address,uint256,address)": [
        {
          "details": "Indicates an error related to the ownership over a particular token. Used in transfers.",
          "params": {
            "owner": "Address of the current owner of a token.",
            "sender": "Address whose tokens are being transferred.",
            "tokenId": "Identifier number of a token."
          }
        }
      ],
      "ERC721InsufficientApproval(address,uint256)": [
        {
          "details": "Indicates a failure with the `operator`’s approval. Used in transfers.",
          "params": {
            "operator": "Address that may be allowed to operate on tokens without being their owner.",
            "tokenId": "Identifier number of a token."
          }
        }
      ],
      "ERC721InvalidApprover(address)": [
        {
          "details": "Indicates a failure with the `approver` of a token to be approved. Used in approvals.",
          "params": {
            "approver": "Address initiating an approval operation."
          }
        }
      ],
      "ERC721InvalidOperator(address)": [
        {
          "details": "Indicates a failure with the `operator` to be approved. Used in approvals.",
          "params": {
            "operator": "Address that may be allowed to operate on tokens without being their owner."
          }
        }
      ],
      "ERC721InvalidOwner(address)": [
        {
          "details": "Indicates that an address can't be an owner. For example, `address(0)` is a forbidden owner in EIP-20. Used in balance queries.",
          "params": {
            "owner": "Address of the current owner of a token."
          }
        }
      ],
      "ERC721InvalidReceiver(address)": [
        {
          "details": "Indicates a failure with the token `receiver`. Used in transfers.",
          "params": {
            "receiver": "Address to which tokens are being transferred."
          }
        }
      ],
      "ERC721InvalidSender(address)": [
        {
          "details": "Indicates a failure with the token `sender`. Used in transfers.",
          "params": {
            "sender": "Address whose tokens are being transferred."
          }
        }
      ],
      "ERC721NonexistentToken(uint256)": [
        {
          "details": "Indicates a `tokenId` whose `owner` is the zero address.",
          "params": {
            "tokenId": "Identifier number of a token."
          }
        }
      ],
      "OwnableInvalidOwner(address)": [
        {
          "details": "The owner is not a valid owner account. (eg. `address(0)`)"
        }
      ],
      "OwnableUnauthorizedAccount(address)": [
        {
          "details": "The caller account is not authorized to perform an operation."
        }
      ]
    },
    "events": {
      "Approval(address,address,uint256)": {
        "details": "Emitted when `owner` enables `approved` to manage the `tokenId` token."
      },
      "ApprovalForAll(address,address,bool)": {
        "details": "Emitted when `owner` enables or disables (`approved`) `operator` to manage all of its assets."
      },
      "BatchMetadataUpdate(uint256,uint256)": {
        "details": "This event emits when the metadata of a range of tokens is changed. So that the third-party platforms such as NFT market could timely update the images and related attributes of the NFTs."
      },
      "MetadataUpdate(uint256)": {
        "details": "This event emits when the metadata of a token is changed. So that the third-party platforms such as NFT market could timely update the images and related attributes of the NFT."
      },
      "Transfer(address,address,uint256)": {
        "details": "Emitted when `tokenId` token is transferred from `from` to `to`."
      }
    },
    "kind": "dev",
    "methods": {
      "approve(address,uint256)": {
        "details": "See {IERC721-approve}."
      },
      "balanceOf(address)": {
        "details": "See {IERC721-balanceOf}."
      },
      "getApproved(uint256)": {
        "details": "See {IERC721-getApproved}."
      },
      "isApprovedForAll(address,address)": {
        "details": "See {IERC721-isApprovedForAll}."
      },
      "mintConsent(address,address,string)": {
        "details": "Mint a new consent token to a doctor. Only the authorized Sanjeevni registry/patient contract should call this."
      },
      "name()": {
        "details": "See {IERC721Metadata-name}."
      },
      "owner()": {
        "details": "Returns the address of the current owner."
      },
      "ownerOf(uint256)": {
        "details": "See {IERC721-ownerOf}."
      },
      "renounceOwnership()": {
        "details": "Leaves the contract without owner. It will not be possible to call `onlyOwner` functions. Can only be called by the current owner. NOTE: Renouncing ownership will leave the contract without an owner, thereby disabling any functionality that is only available to the owner."
      },
      "revokeConsent(uint256)": {
        "details": "Revoke/Burn the consent token. Only the original patient issuer can trigger this."
      },
      "safeTransferFrom(address,address,uint256)": {
        "details": "See {IERC721-safeTransferFrom}."
      },
      "safeTransferFrom(address,address,uint256,bytes)": {
        "details": "See {IERC721-safeTransferFrom}."
      },
      "setApprovalForAll(address,bool)": {
        "details": "See {IERC721-setApprovalForAll}."
      },
      "symbol()": {
        "details": "See {IERC721Metadata-symbol}."
      },
      "transferFrom(address,address,uint256)": {
        "details": "See {IERC721-transferFrom}."
      },
      "transferOwnership(address)": {
        "details": "Transfers ownership of the contract to a new account (`newOwner`). Can only be called by the current owner."
      }
    },
    "title": "ConsentSBT",
    "version": 1
  },
  "userdoc": {
    "kind": "user",
    "methods": {},
    "version": 1
  },
  "timeoutBlocks": 500,
  "numberFormat": "BN"
}