{
  "contractName": "Doctor",
  "abi": [
    {
      "inputs": [
        {
          "internalType": "address",
          "name": "_accessControl",
          "type": "address"
        },
        {
          "internalType": "address",
          "name": "_trustedForwarder",
          "type": "address"
        }
      ],
      "stateMutability": "nonpayable",
      "type": "constructor",
      "signature": "constructor"
    },
    {
      "inputs": [],
      "name": "AccessRecordNotFound",
      "type": "error"
    },
    {
      "inputs": [],
      "name": "AccessRequestNotFound",
      "type": "error"
    },
    {
      "inputs": [],
      "name": "DoctorAlreadyRegistered",
      "type": "error"
    },
    {
      "inputs": [],
      "name": "DoctorNotRegistered",
      "type": "error"
    },
    {
      "inputs": [],
      "name": "EmergencyRecordNotFound",
      "type": "error"
    },
    {
      "inputs": [],
      "name": "EnforcedPause",
      "type": "error"
    },
    {
      "inputs": [],
      "name": "ExpectedPause",
      "type": "error"
    },
    {
      "inputs": [],
      "name": "HospitalSystemNotSet",
      "type": "error"
    },
    {
      "inputs": [],
      "name": "InvalidAddress",
      "type": "error"
    },
    {
      "inputs": [],
      "name": "InvalidDuration",
      "type": "error"
    },
    {
      "inputs": [],
      "name": "InvalidIpfsHash",
      "type": "error"
    },
    {
      "inputs": [],
      "name": "InvalidSpecialization",
      "type": "error"
    },
    {
      "inputs": [],
      "name": "NotOnDuty",
      "type": "error"
    },
    {
      "inputs": [],
      "name": "PatientAlreadyAdded",
      "type": "error"
    },
    {
      "inputs": [],
      "name": "RateLimitExceeded",
      "type": "error"
    },
    {
      "inputs": [],
      "name": "ReentrancyGuardReentrantCall",
      "type": "error"
    },
    {
      "anonymous": false,
      "inputs": [
        {
          "indexed": true,
          "internalType": "address",
          "name": "patient",
          "type": "address"
        },
        {
          "indexed": true,
          "internalType": "address",
          "name": "doctor",
          "type": "address"
        },
        {
          "indexed": false,
          "internalType": "string",
          "name": "ipfsHash",
          "type": "string"
        },
        {
          "indexed": false,
          "internalType": "uint256",
          "name": "grantTime",
          "type": "uint256"
        },
        {
          "indexed": false,
          "internalType": "uint256",
          "name": "duration",
          "type": "uint256"
        }
      ],
      "name": "AccessGranted",
      "type": "event",
      "signature": "0xc298d419e944a3f1e7da1b2245c9f34649b9a6ea67875bcd37e975ef5d7209a3"
    },
    {
      "anonymous": false,
      "inputs": [
        {
          "indexed": true,
          "internalType": "address",
          "name": "patient",
          "type": "address"
        },
        {
          "indexed": true,
          "internalType": "address",
          "name": "doctor",
          "type": "address"
        },
        {
          "indexed": false,
          "internalType": "string",
          "name": "ipfsHash",
          "type": "string"
        },
        {
          "indexed": false,
          "internalType": "string",
          "name": "fileName",
          "type": "string"
        },
        {
          "indexed": false,
          "internalType": "uint256",
          "name": "duration",
          "type": "uint256"
        },
        {
          "indexed": false,
          "internalType": "string",
          "name": "reason",
          "type": "string"
        }
      ],
      "name": "AccessRequested",
      "type": "event",
      "signature": "0xc4de088654327f2907ad8f0c288704b90c01af218c310b25c1682df9b7c8c7cd"
    },
    {
      "anonymous": false,
      "inputs": [
        {
          "indexed": true,
          "internalType": "address",
          "name": "patient",
          "type": "address"
        },
        {
          "indexed": true,
          "internalType": "address",
          "name": "doctor",
          "type": "address"
        },
        {
          "indexed": false,
          "internalType": "string",
          "name": "ipfsHash",
          "type": "string"
        },
        {
          "indexed": false,
          "internalType": "uint256",
          "name": "revokeTime",
          "type": "uint256"
        }
      ],
      "name": "AccessRevoked",
      "type": "event",
      "signature": "0x1852eeec29c8b9e06624d3e3008123c26ddd6173947b6bea9054402ea8ca57ad"
    },
    {
      "anonymous": false,
      "inputs": [
        {
          "indexed": true,
          "internalType": "address",
          "name": "doctor",
          "type": "address"
        },
        {
          "indexed": true,
          "internalType": "address",
          "name": "patient",
          "type": "address"
        },
        {
          "indexed": false,
          "internalType": "string",
          "name": "ipfsHash",
          "type": "string"
        },
        {
          "indexed": false,
          "internalType": "string",
          "name": "reason",
          "type": "string"
        },
        {
          "indexed": false,
          "internalType": "uint256",
          "name": "timestamp",
          "type": "uint256"
        }
      ],
      "name": "EmergencyAccessGranted",
      "type": "event",
      "signature": "0xc18b0a731326cfd073d9219b559d4a74aaed4d08716d26c4ace853127d096edb"
    },
    {
      "anonymous": false,
      "inputs": [
        {
          "indexed": true,
          "internalType": "address",
          "name": "patient",
          "type": "address"
        },
        {
          "indexed": true,
          "internalType": "address",
          "name": "resolver",
          "type": "address"
        },
        {
          "indexed": false,
          "internalType": "string",
          "name": "ipfsHash",
          "type": "string"
        },
        {
          "indexed": false,
          "internalType": "uint256",
          "name": "timestamp",
          "type": "uint256"
        }
      ],
      "name": "EmergencyResolved",
      "type": "event",
      "signature": "0xbe73bae5f08d7fe7ebd150bf32bcb303131391314609cc522ae754b46286ecc0"
    },
    {
      "anonymous": false,
      "inputs": [
        {
          "indexed": true,
          "internalType": "uint256",
          "name": "doctorId",
          "type": "uint256"
        },
        {
          "indexed": true,
          "internalType": "uint256",
          "name": "patientId",
          "type": "uint256"
        },
        {
          "indexed": true,
          "internalType": "address",
          "name": "doctor",
          "type": "address"
        }
      ],
      "name": "PatientAdded",
      "type": "event",
      "signature": "0x62e4da5e5c3a89b6dca6a385b8712c06f51bf0855ae5b6abd14937474a4ce01e"
    },
    {
      "anonymous": false,
      "inputs": [
        {
          "indexed": false,
          "internalType": "address",
          "name": "account",
          "type": "address"
        }
      ],
      "name": "Paused",
      "type": "event",
      "signature": "0x62e78cea01bee320cd4e420270b5ea74000d11b0c9f74754ebdbfc544b05a258"
    },
    {
      "anonymous": false,
      "inputs": [
        {
          "indexed": false,
          "internalType": "address",
          "name": "account",
          "type": "address"
        }
      ],
      "name": "Unpaused",
      "type": "event",
      "signature": "0x5db9ee0a495bf2e6ff9c91a7834c1ba4fdd244a5e8aa4e537bd38aeae4b073aa"
    },
    {
      "inputs": [],
      "name": "MAX_ACCESS_REQUESTS",
      "outputs": [
        {
          "internalType": "uint256",
          "name": "",
          "type": "uint256"
        }
      ],
      "stateMutability": "view",
      "type": "function",
      "constant": true,
      "signature": "0x565d45e1"
    },
    {
      "inputs": [],
      "name": "RATE_LIMIT_WINDOW",
      "outputs": [
        {
          "internalType": "uint256",
          "name": "",
          "type": "uint256"
        }
      ],
      "stateMutability": "view",
      "type": "function",
      "constant": true,
      "signature": "0x7130dfc9"
    },
    {
      "inputs": [],
      "name": "accessControl",
      "outputs": [
        {
          "internalType": "contract MediSecureAccessControl",
          "name": "",
          "type": "address"
        }
      ],
      "stateMutability": "view",
      "type": "function",
      "constant": true,
      "signature": "0x13007d55"
    },
    {
      "inputs": [
        {
          "internalType": "uint256",
          "name": "",
          "type": "uint256"
        },
        {
          "internalType": "uint256",
          "name": "",
          "type": "uint256"
        }
      ],
      "name": "doctorAccessList",
      "outputs": [
        {
          "internalType": "address",
          "name": "patient",
          "type": "address"
        },
        {
          "internalType": "string",
          "name": "ipfsHash",
          "type": "string"
        },
        {
          "internalType": "string",
          "name": "fileName",
          "type": "string"
        },
        {
          "internalType": "bool",
          "name": "hasAccess",
          "type": "bool"
        },
        {
          "internalType": "uint256",
          "name": "grantTime",
          "type": "uint256"
        },
        {
          "internalType": "uint256",
          "name": "duration",
          "type": "uint256"
        },
        {
          "internalType": "string",
          "name": "reason",
          "type": "string"
        },
        {
          "internalType": "bool",
          "name": "isEmergency",
          "type": "bool"
        },
        {
          "internalType": "bool",
          "name": "isResolved",
          "type": "bool"
        }
      ],
      "stateMutability": "view",
      "type": "function",
      "constant": true,
      "signature": "0x33948de2"
    },
    {
      "inputs": [
        {
          "internalType": "uint256",
          "name": "",
          "type": "uint256"
        }
      ],
      "name": "doctors",
      "outputs": [
        {
          "internalType": "uint256",
          "name": "doctorId",
          "type": "uint256"
        },
        {
          "internalType": "string",
          "name": "name",
          "type": "string"
        },
        {
          "internalType": "string",
          "name": "specialization",
          "type": "string"
        },
        {
          "internalType": "string",
          "name": "email",
          "type": "string"
        }
      ],
      "stateMutability": "view",
      "type": "function",
      "constant": true,
      "signature": "0x6efb1b84"
    },
    {
      "inputs": [
        {
          "internalType": "bytes32",
          "name": "role",
          "type": "bytes32"
        },
        {
          "internalType": "address",
          "name": "account",
          "type": "address"
        }
      ],
      "name": "hasRole",
      "outputs": [
        {
          "internalType": "bool",
          "name": "",
          "type": "bool"
        }
      ],
      "stateMutability": "view",
      "type": "function",
      "constant": true,
      "signature": "0x91d14854"
    },
    {
      "inputs": [
        {
          "internalType": "enum Roles",
          "name": "role",
          "type": "uint8"
        },
        {
          "internalType": "address",
          "name": "account",
          "type": "address"
        }
      ],
      "name": "hasRole",
      "outputs": [
        {
          "internalType": "bool",
          "name": "",
          "type": "bool"
        }
      ],
      "stateMutability": "view",
      "type": "function",
      "constant": true,
      "signature": "0x9e97b8f6"
    },
    {
      "inputs": [],
      "name": "hospitalContract",
      "outputs": [
        {
          "internalType": "address",
          "name": "",
          "type": "address"
        }
      ],
      "stateMutability": "view",
      "type": "function",
      "constant": true,
      "signature": "0x47dbb71a"
    },
    {
      "inputs": [
        {
          "internalType": "address",
          "name": "account",
          "type": "address"
        }
      ],
      "name": "isAdmin",
      "outputs": [
        {
          "internalType": "bool",
          "name": "",
          "type": "bool"
        }
      ],
      "stateMutability": "view",
      "type": "function",
      "constant": true,
      "signature": "0x24d7806c"
    },
    {
      "inputs": [
        {
          "internalType": "address",
          "name": "forwarder",
          "type": "address"
        }
      ],
      "name": "isTrustedForwarder",
      "outputs": [
        {
          "internalType": "bool",
          "name": "",
          "type": "bool"
        }
      ],
      "stateMutability": "view",
      "type": "function",
      "constant": true,
      "signature": "0x572b6c05"
    },
    {
      "inputs": [],
      "name": "paused",
      "outputs": [
        {
          "internalType": "bool",
          "name": "",
          "type": "bool"
        }
      ],
      "stateMutability": "view",
      "type": "function",
      "constant": true,
      "signature": "0x5c975abb"
    },
    {
      "inputs": [],
      "name": "trustedForwarder",
      "outputs": [
        {
          "internalType": "address",
          "name": "",
          "type": "address"
        }
      ],
      "stateMutability": "view",
      "type": "function",
      "constant": true,
      "signature": "0x7da0a877"
    },
    {
      "inputs": [
        {
          "internalType": "address",
          "name": "",
          "type": "address"
        }
      ],
      "name": "walletToDoctorId",
      "outputs": [
        {
          "internalType": "uint256",
          "name": "",
          "type": "uint256"
        }
      ],
      "stateMutability": "view",
      "type": "function",
      "constant": true,
      "signature": "0x98cf72b3"
    },
    {
      "inputs": [
        {
          "internalType": "address",
          "name": "addr",
          "type": "address"
        }
      ],
      "name": "setHospitalContract",
      "outputs": [],
      "stateMutability": "nonpayable",
      "type": "function",
      "signature": "0x15759754"
    },
    {
      "inputs": [
        {
          "internalType": "string",
          "name": "name",
          "type": "string"
        },
        {
          "internalType": "string",
          "name": "specialization",
          "type": "string"
        },
        {
          "internalType": "string",
          "name": "hospital",
          "type": "string"
        }
      ],
      "name": "registerDoctor",
      "outputs": [],
      "stateMutability": "nonpayable",
      "type": "function",
      "signature": "0x50c7a912"
    },
    {
      "inputs": [
        {
          "internalType": "uint256",
          "name": "patientId",
          "type": "uint256"
        }
      ],
      "name": "addPatient",
      "outputs": [],
      "stateMutability": "nonpayable",
      "type": "function",
      "signature": "0x506e08d2"
    },
    {
      "inputs": [],
      "name": "getDoctorPatients",
      "outputs": [
        {
          "internalType": "uint256[]",
          "name": "",
          "type": "uint256[]"
        }
      ],
      "stateMutability": "view",
      "type": "function",
      "constant": true,
      "signature": "0x8b145ec8"
    },
    {
      "inputs": [
        {
          "internalType": "address",
          "name": "patient",
          "type": "address"
        },
        {
          "internalType": "string",
          "name": "ipfsHash",
          "type": "string"
        }
      ],
      "name": "hasAccessToDocument",
      "outputs": [
        {
          "internalType": "bool",
          "name": "",
          "type": "bool"
        }
      ],
      "stateMutability": "view",
      "type": "function",
      "constant": true,
      "signature": "0xf6827cd1"
    },
    {
      "inputs": [
        {
          "internalType": "address",
          "name": "patient",
          "type": "address"
        },
        {
          "internalType": "string",
          "name": "ipfsHash",
          "type": "string"
        },
        {
          "internalType": "string",
          "name": "fileName",
          "type": "string"
        },
        {
          "internalType": "uint256",
          "name": "duration",
          "type": "uint256"
        },
        {
          "internalType": "string",
          "name": "reason",
          "type": "string"
        }
      ],
      "name": "requestAccess",
      "outputs": [],
      "stateMutability": "nonpayable",
      "type": "function",
      "signature": "0x02b66aaf"
    },
    {
      "inputs": [
        {
          "internalType": "address",
          "name": "patient",
          "type": "address"
        },
        {
          "internalType": "string",
          "name": "ipfsHash",
          "type": "string"
        },
        {
          "internalType": "string",
          "name": "fileName",
          "type": "string"
        },
        {
          "internalType": "string",
          "name": "reason",
          "type": "string"
        },
        {
          "internalType": "address",
          "name": "hospitalAddress",
          "type": "address"
        }
      ],
      "name": "emergencyBreakGlass",
      "outputs": [],
      "stateMutability": "nonpayable",
      "type": "function",
      "signature": "0xb69c6157"
    },
    {
      "inputs": [
        {
          "internalType": "address",
          "name": "doctor",
          "type": "address"
        },
        {
          "internalType": "string",
          "name": "ipfsHash",
          "type": "string"
        },
        {
          "internalType": "uint256",
          "name": "duration",
          "type": "uint256"
        }
      ],
      "name": "grantAccess",
      "outputs": [],
      "stateMutability": "nonpayable",
      "type": "function",
      "signature": "0x7f93a961"
    },
    {
      "inputs": [
        {
          "internalType": "address",
          "name": "doctor",
          "type": "address"
        },
        {
          "internalType": "string",
          "name": "ipfsHash",
          "type": "string"
        }
      ],
      "name": "resolveEmergency",
      "outputs": [],
      "stateMutability": "nonpayable",
      "type": "function",
      "signature": "0xaf2e1665"
    },
    {
      "inputs": [
        {
          "internalType": "address",
          "name": "doctor",
          "type": "address"
        },
        {
          "internalType": "string",
          "name": "ipfsHash",
          "type": "string"
        }
      ],
      "name": "revokeAccess",
      "outputs": [],
      "stateMutability": "nonpayable",
      "type": "function",
      "signature": "0x6a44cac9"
    },
    {
      "inputs": [],
      "name": "getAccessList",
      "outputs": [
        {
          "components": [
            {
              "internalType": "address",
              "name": "patient",
              "type": "address"
            },
            {
              "internalType": "string",
              "name": "ipfsHash",
              "type": "string"
            },
            {
              "internalType": "string",
              "name": "fileName",
              "type": "string"
            },
            {
              "internalType": "bool",
              "name": "hasAccess",
              "type": "bool"
            },
            {
              "internalType": "uint256",
              "name": "grantTime",
              "type": "uint256"
            },
            {
              "internalType": "uint256",
              "name": "duration",
              "type": "uint256"
            },
            {
              "internalType": "string",
              "name": "reason",
              "type": "string"
            },
            {
              "internalType": "bool",
              "name": "isEmergency",
              "type": "bool"
            },
            {
              "internalType": "bool",
              "name": "isResolved",
              "type": "bool"
            }
          ],
          "internalType": "struct Doctor.DocumentAccess[]",
          "name": "",
          "type": "tuple[]"
        }
      ],
      "stateMutability": "view",
      "type": "function",
      "constant": true,
      "signature": "0x8d5ddbb3"
    },
    {
      "inputs": [],
      "name": "getPatients",
      "outputs": [
        {
          "components": [
            {
              "internalType": "uint256",
              "name": "doctorId",
              "type": "uint256"
            },
            {
              "internalType": "string",
              "name": "name",
              "type": "string"
            },
            {
              "internalType": "string",
              "name": "specialization",
              "type": "string"
            },
            {
              "internalType": "string",
              "name": "email",
              "type": "string"
            },
            {
              "internalType": "uint256[]",
              "name": "patientIds",
              "type": "uint256[]"
            }
          ],
          "internalType": "struct Doctor.DoctorDetails[]",
          "name": "",
          "type": "tuple[]"
        }
      ],
      "stateMutability": "view",
      "type": "function",
      "constant": true,
      "signature": "0x12ad1c37"
    },
    {
      "inputs": [
        {
          "internalType": "address",
          "name": "walletAddress",
          "type": "address"
        }
      ],
      "name": "doctorExists",
      "outputs": [
        {
          "internalType": "bool",
          "name": "",
          "type": "bool"
        }
      ],
      "stateMutability": "view",
      "type": "function",
      "constant": true,
      "signature": "0x2ad230a9"
    },
    {
      "inputs": [],
      "name": "getAllDoctors",
      "outputs": [
        {
          "components": [
            {
              "internalType": "uint256",
              "name": "doctorId",
              "type": "uint256"
            },
            {
              "internalType": "string",
              "name": "name",
              "type": "string"
            },
            {
              "internalType": "string",
              "name": "specialization",
              "type": "string"
            },
            {
              "internalType": "string",
              "name": "email",
              "type": "string"
            },
            {
              "internalType": "uint256[]",
              "name": "patientIds",
              "type": "uint256[]"
            }
          ],
          "internalType": "struct Doctor.DoctorDetails[]",
          "name": "",
          "type": "tuple[]"
        }
      ],
      "stateMutability": "view",
      "type": "function",
      "constant": true,
      "signature": "0xf0d95090"
    },
    {
      "inputs": [
        {
          "internalType": "string",
          "name": "specialization",
          "type": "string"
        }
      ],
      "name": "getDoctorsBySpecialization",
      "outputs": [
        {
          "components": [
            {
              "internalType": "uint256",
              "name": "doctorId",
              "type": "uint256"
            },
            {
              "internalType": "string",
              "name": "name",
              "type": "string"
            },
            {
              "internalType": "string",
              "name": "specialization",
              "type": "string"
            },
            {
              "internalType": "string",
              "name": "email",
              "type": "string"
            },
            {
              "internalType": "uint256[]",
              "name": "patientIds",
              "type": "uint256[]"
            }
          ],
          "internalType": "struct Doctor.DoctorDetails[]",
          "name": "",
          "type": "tuple[]"
        }
      ],
      "stateMutability": "view",
      "type": "function",
      "constant": true,
      "signature": "0xc241cdd7"
    },
    {
      "inputs": [
        {
          "internalType": "string",
          "name": "query",
          "type": "string"
        }
      ],
      "name": "searchDoctors",
      "outputs": [
        {
          "components": [
            {
              "internalType": "uint256",
              "name": "doctorId",
              "type": "uint256"
            },
            {
              "internalType": "string",
              "name": "name",
              "type": "string"
            },
            {
              "internalType": "string",
              "name": "specialization",
              "type": "string"
            },
            {
              "internalType": "string",
              "name": "email",
              "type": "string"
            },
            {
              "internalType": "uint256[]",
              "name": "patientIds",
              "type": "uint256[]"
            }
          ],
          "internalType": "struct Doctor.DoctorDetails[]",
          "name": "",
          "type": "tuple[]"
        }
      ],
      "stateMutability": "view",
      "type": "function",
      "constant": true,
      "signature": "0xa37633ef"
    },
    {
      "inputs": [
        {
          "internalType": "uint256",
          "name": "doctorId",
          "type": "uint256"
        }
      ],
      "name": "cleanupExpiredAccess",
      "outputs": [
        {
          "internalType": "uint256",
          "name": "cleanedCount",
          "type": "uint256"
        }
      ],
      "stateMutability": "nonpayable",
      "type": "function",
      "signature": "0xe455afee"
    },
    {
      "inputs": [],
      "name": "cleanupExpiredAccessForAll",
      "outputs": [
        {
          "internalType": "uint256",
          "name": "totalCleaned",
          "type": "uint256"
        }
      ],
      "stateMutability": "nonpayable",
      "type": "function",
      "signature": "0x3551df5d"
    },
    {
      "inputs": [
        {
          "internalType": "uint256",
          "name": "doctorId",
          "type": "uint256"
        }
      ],
      "name": "getExpiredAccessCount",
      "outputs": [
        {
          "internalType": "uint256",
          "name": "count",
          "type": "uint256"
        }
      ],
      "stateMutability": "view",
      "type": "function",
      "constant": true,
      "signature": "0xf551d54c"
    },
    {
      "inputs": [
        {
          "internalType": "uint256",
          "name": "doctorId",
          "type": "uint256"
        },
        {
          "internalType": "address",
          "name": "patient",
          "type": "address"
        }
      ],
      "name": "isAccessExpired",
      "outputs": [
        {
          "internalType": "bool",
          "name": "",
          "type": "bool"
        }
      ],
      "stateMutability": "view",
      "type": "function",
      "constant": true,
      "signature": "0xf32a7591"
    },
    {
      "inputs": [],
      "name": "pauseContract",
      "outputs": [],
      "stateMutability": "nonpayable",
      "type": "function",
      "signature": "0x439766ce"
    },
    {
      "inputs": [],
      "name": "unpauseContract",
      "outputs": [],
      "stateMutability": "nonpayable",
      "type": "function",
      "signature": "0xb33712c5"
    },
    {
      "inputs": [
        {
          "internalType": "address",
          "name": "doctor",
          "type": "address"
        }
      ],
      "name": "grantDoctorRole",
      "outputs": [],
      "stateMutability": "nonpayable",
      "type": "function",
      "signature": "0x2f5635cc"
    },
    {
      "inputs": [
        {
          "internalType": "address",
          "name": "doctor",
          "type": "address"
        }
      ],
      "name": "revokeDoctorRole",
      "outputs": [],
      "stateMutability": "nonpayable",
      "type": "function",
      "signature": "0x6bd6f34b"
    },
    {
      "inputs": [
        {
          "internalType": "address",
          "name": "account",
          "type": "address"
        }
      ],
      "name": "isDoctorRole",
      "outputs": [
        {
          "internalType": "bool",
          "name": "",
          "type": "bool"
        }
      ],
      "stateMutability": "view",
      "type": "function",
      "constant": true,
      "signature": "0x0439b481"
    }
  ],
  "bytecode": "0x60a060405234801562000010575f80fd5b5060405162004746380380620047468339810160408190526200003391620000a2565b60015f819055805460ff191690556001600160a01b03808216608052829082908216156200007c5760018054610100600160a81b0319166101006001600160a01b038516021790555b50505050620000d8565b80516001600160a01b03811681146200009d575f80fd5b919050565b5f8060408385031215620000b4575f80fd5b620000bf8362000086565b9150620000cf6020840162000086565b90509250929050565b608051614647620000ff5f395f81816103a9015281816104380152613a0701526146475ff3fe608060405234801561000f575f80fd5b5060043610610229575f3560e01c80636efb1b841161012a578063a37633ef116100b4578063e455afee11610079578063e455afee14610532578063f0d9509014610545578063f32a75911461054d578063f551d54c14610560578063f6827cd114610573575f80fd5b8063a37633ef146104de578063af2e1665146104f1578063b33712c514610504578063b69c61571461050c578063c241cdd71461051f575f80fd5b80638b145ec8116100fa5780638b145ec81461046f5780638d5ddbb31461048457806391d148541461049957806398cf72b3146104ac5780639e97b8f6146104cb575f80fd5b80636efb1b841461040a5780637130dfc91461042d5780637da0a877146104365780637f93a9611461045c575f80fd5b80633551df5d116101b6578063565d45e11161017b578063565d45e114610391578063572b6c05146103995780635c975abb146103d95780636a44cac9146103e45780636bd6f34b146103f7575f80fd5b80633551df5d1461033a578063439766ce1461035057806347dbb71a14610358578063506e08d21461036b57806350c7a9121461037e575f80fd5b806315759754116101fc57806315759754146102af57806324d7806c146102c25780632ad230a9146102d55780632f5635cc146102ff57806333948de214610312575f80fd5b806302b66aaf1461022d5780630439b4811461024257806312ad1c371461026a57806313007d551461027f575b5f80fd5b61024061023b366004613b74565b610586565b005b610255610250366004613c10565b610903565b60405190151581526020015b60405180910390f35b610272610980565b6040516102619190613c76565b6001546102979061010090046001600160a01b031681565b6040516001600160a01b039091168152602001610261565b6102406102bd366004613c10565b610f42565b6102556102d0366004613c10565b611033565b6102556102e3366004613c10565b6001600160a01b03165f90815260026020526040902054151590565b61024061030d366004613c10565b61106a565b610325610320366004613d64565b611160565b60405161026199989796959493929190613d84565b61034261136f565b604051908152602001610261565b610240611441565b600854610297906001600160a01b031681565b610240610379366004613e03565b6114e2565b61024061038c366004613e1a565b6115f0565b610342600a81565b6102556103a7366004613c10565b7f00000000000000000000000000000000000000000000000000000000000000006001600160a01b0390811691161490565b60015460ff16610255565b6102406103f2366004613e9c565b611724565b610240610405366004613c10565b611955565b61041d610418366004613e03565b611a22565b6040516102619493929190613ee7565b610342610e1081565b7f0000000000000000000000000000000000000000000000000000000000000000610297565b61024061046a366004613f30565b611bdc565b610477611df5565b6040516102619190613f83565b61048c611ea4565b6040516102619190613fba565b6102556104a73660046140ba565b61216e565b6103426104ba366004613c10565b60026020525f908152604090205481565b6102556104d93660046140e4565b6121ee565b6102726104ec366004614111565b612225565b6102406104ff366004613e9c565b612883565b610240612a76565b61024061051a36600461417d565b612b15565b61027261052d366004614111565b612dda565b610342610540366004613e03565b61319a565b61027261324f565b61025561055b3660046140ba565b613521565b61034261056e366004613e03565b6135c2565b610255610581366004613e9c565b613669565b61058e61383b565b61059661385f565b5f60025f6105a2613887565b6001600160a01b03166001600160a01b031681526020019081526020015f20549050805f036105e457604051630a24cfef60e21b815260040160405180910390fd5b6001600160a01b03861661060b5760405163e6c4247b60e01b815260040160405180910390fd5b84515f0361062c5760405163d808503f60e01b815260040160405180910390fd5b82158061063c57506301e1338083115b1561065a57604051637616640160e01b815260040160405180910390fd5b610e1060055f610668613887565b6001600160a01b03166001600160a01b031681526020019081526020015f20546106929190614234565b42101561071f57600a60065f6106a6613887565b6001600160a01b03166001600160a01b031681526020019081526020015f2054106106e45760405163a74c1c5f60e01b815260040160405180910390fd5b60065f6106ef613887565b6001600160a01b0316815260208101919091526040015f90812080549161071583614247565b9190505550610775565b4260055f61072b613887565b6001600160a01b03166001600160a01b031681526020019081526020015f2081905550600160065f61075b613887565b6001600160a01b0316815260208101919091526040015f20555b5f8181526004602090815260408083208151610120810183526001600160a01b038b811682528185018b81529382018a9052606082018690526080820186905260a0820189905260c0820188905260e08201869052610100820186905282546001808201855593875294909520815160089095020180546001600160a01b0319169490951693909317845590519192919082019061081390826142e5565b506040820151600282019061082890826142e5565b50606082015160038201805460ff19169115159190911790556080820151600482015560a0820151600582015560c0820151600682019061086990826142e5565b5060e082015160079190910180546101009384015161ffff1990911692151561ff001916929092179115159092021790556108a2613887565b6001600160a01b0316866001600160a01b03167fc4de088654327f2907ad8f0c288704b90c01af218c310b25c1682df9b7c8c7cd878787876040516108ea94939291906143a1565b60405180910390a3506108fc60015f55565b5050505050565b60018054604051634f4bdc7b60e11b81525f926101009092046001600160a01b031691639e97b8f69161093b919086906004016143df565b602060405180830381865afa158015610956573d5f803e3d5ffd5b505050506040513d601f19601f8201168201806040525081019061097a9190614417565b92915050565b60605f60025f61098e613887565b6001600160a01b03166001600160a01b031681526020019081526020015f20549050805f036109d057604051630a24cfef60e21b815260040160405180910390fd5b5f81815260046020908152604080832080548251818502810185019093528083529192909190849084015b82821015610c43575f8481526020908190206040805161012081019091526008850290910180546001600160a01b031682526001810180549293919291840191610a449061425f565b80601f0160208091040260200160405190810160405280929190818152602001828054610a709061425f565b8015610abb5780601f10610a9257610100808354040283529160200191610abb565b820191905f5260205f20905b815481529060010190602001808311610a9e57829003601f168201915b50505050508152602001600282018054610ad49061425f565b80601f0160208091040260200160405190810160405280929190818152602001828054610b009061425f565b8015610b4b5780601f10610b2257610100808354040283529160200191610b4b565b820191905f5260205f20905b815481529060010190602001808311610b2e57829003601f168201915b5050509183525050600382015460ff16151560208201526004820154604082015260058201546060820152600682018054608090920191610b8b9061425f565b80601f0160208091040260200160405190810160405280929190818152602001828054610bb79061425f565b8015610c025780601f10610bd957610100808354040283529160200191610c02565b820191905f5260205f20905b815481529060010190602001808311610be557829003601f168201915b50505091835250506007919091015460ff808216151560208085019190915261010090920416151560409092019190915290825260019290920191016109fb565b5050505090505f815167ffffffffffffffff811115610c6457610c64613ad7565b604051908082528060200260200182016040528015610c9d57816020015b610c8a613a8e565b815260200190600190039081610c825790505b5090505f805b8351811015610f3857838181518110610cbe57610cbe614436565b60200260200101516060015115610f265760035f8681526020019081526020015f206040518060a00160405290815f8201548152602001600182018054610d049061425f565b80601f0160208091040260200160405190810160405280929190818152602001828054610d309061425f565b8015610d7b5780601f10610d5257610100808354040283529160200191610d7b565b820191905f5260205f20905b815481529060010190602001808311610d5e57829003601f168201915b50505050508152602001600282018054610d949061425f565b80601f0160208091040260200160405190810160405280929190818152602001828054610dc09061425f565b8015610e0b5780601f10610de257610100808354040283529160200191610e0b565b820191905f5260205f20905b815481529060010190602001808311610dee57829003601f168201915b50505050508152602001600382018054610e249061425f565b80601f0160208091040260200160405190810160405280929190818152602001828054610e509061425f565b8015610e9b5780601f10610e7257610100808354040283529160200191610e9b565b820191905f5260205f20905b815481529060010190602001808311610e7e57829003601f168201915b5050505050815260200160048201805480602002602001604051908101604052809291908181526020018280548015610ef157602002820191905f5260205f20905b815481526020019060010190808311610edd575b505050505081525050838381518110610f0c57610f0c614436565b60200260200101819052508180610f2290614247565b9250505b80610f3081614247565b915050610ca3565b5090949350505050565b60015461010090046001600160a01b0316639e97b8f65f610f61613887565b6040518363ffffffff1660e01b8152600401610f7e9291906143df565b602060405180830381865afa158015610f99573d5f803e3d5ffd5b505050506040513d601f19601f82011682018060405250810190610fbd9190614417565b610fe25760405162461bcd60e51b8152600401610fd99061444a565b60405180910390fd5b610fea61383b565b6001600160a01b0381166110115760405163e6c4247b60e01b815260040160405180910390fd5b600880546001600160a01b0319166001600160a01b0392909216919091179055565b600154604051634f4bdc7b60e11b81525f9161010090046001600160a01b031690639e97b8f69061093b90849086906004016143df565b60015461010090046001600160a01b0316639e97b8f65f611089613887565b6040518363ffffffff1660e01b81526004016110a69291906143df565b602060405180830381865afa1580156110c1573d5f803e3d5ffd5b505050506040513d601f19601f820116820180604052508101906110e59190614417565b6111015760405162461bcd60e51b8152600401610fd99061444a565b60018054604051635d5664e160e01b81526101009091046001600160a01b031691635d5664e191611137919085906004016143df565b5f604051808303815f87803b15801561114e575f80fd5b505af11580156108fc573d5f803e3d5ffd5b6004602052815f5260405f208181548110611179575f80fd5b5f918252602090912060089091020180546001820180546001600160a01b0390921694509192506111a99061425f565b80601f01602080910402602001604051908101604052809291908181526020018280546111d59061425f565b80156112205780601f106111f757610100808354040283529160200191611220565b820191905f5260205f20905b81548152906001019060200180831161120357829003601f168201915b5050505050908060020180546112359061425f565b80601f01602080910402602001604051908101604052809291908181526020018280546112619061425f565b80156112ac5780601f10611283576101008083540402835291602001916112ac565b820191905f5260205f20905b81548152906001019060200180831161128f57829003601f168201915b505050600384015460048501546005860154600687018054969760ff90941696929550909350906112dc9061425f565b80601f01602080910402602001604051908101604052809291908181526020018280546113089061425f565b80156113535780601f1061132a57610100808354040283529160200191611353565b820191905f5260205f20905b81548152906001019060200180831161133657829003601f168201915b5050506007909301549192505060ff8082169161010090041689565b5f60015b600754811161143d575f818152600460205260408120905b8154811015611428575f8282815481106113a7576113a7614436565b5f9182526020909120600890910201600381015490915060ff1680156113d757506007810154610100900460ff16155b80156113f6575042816005015482600401546113f39190614234565b11155b156114155760038101805460ff191690558461141181614247565b9550505b508061142081614247565b91505061138b565b5050808061143590614247565b915050611373565b5090565b60015461010090046001600160a01b0316639e97b8f65f611460613887565b6040518363ffffffff1660e01b815260040161147d9291906143df565b602060405180830381865afa158015611498573d5f803e3d5ffd5b505050506040513d601f19601f820116820180604052508101906114bc9190614417565b6114d85760405162461bcd60e51b8152600401610fd99061444a565b6114e0613895565b565b5f60025f6114ee613887565b6001600160a01b03166001600160a01b031681526020019081526020015f20549050805f0361153057604051630a24cfef60e21b815260040160405180910390fd5b5f818152600360205260408120600401905b8154811015611597578382828154811061155e5761155e614436565b905f5260205f20015403611585576040516381a339fb60e01b815260040160405180910390fd5b8061158f81614247565b915050611542565b5080546001810182555f82815260209020018390556115b4613887565b6001600160a01b031683837f62e4da5e5c3a89b6dca6a385b8712c06f51bf0855ae5b6abd14937474a4ce01e60405160405180910390a4505050565b60025f6115fb613887565b6001600160a01b0316815260208101919091526040015f20541561163257604051631698dae160e01b815260040160405180910390fd5b60078054905f61164183614247565b919050555060075460025f611654613887565b6001600160a01b0316815260208082019290925260409081015f9081209390935560075480845260039092529091209081556001810161169485826142e5565b50600281016116a384826142e5565b50600381016116b283826142e5565b506001805461010090046001600160a01b031690635d5664e1906116d4613887565b6040518363ffffffff1660e01b81526004016116f19291906143df565b5f604051808303815f87803b158015611708575f80fd5b505af115801561171a573d5f803e3d5ffd5b5050505050505050565b6001600160a01b0382165f908152600260205260408120549081900361175d57604051630a24cfef60e21b815260040160405180910390fd5b5f818152600460205260408120905b815481101561193b5761177d613887565b6001600160a01b031682828154811061179857611798614436565b5f9182526020909120600890910201546001600160a01b03161480156118295750836040516020016117ca919061448c565b604051602081830303815290604052805190602001208282815481106117f2576117f2614436565b905f5260205f20906008020160010160405160200161181191906144a7565b60405160208183030381529060405280519060200120145b15611929575f82828154811061184157611841614436565b905f5260205f2090600802016003015f6101000a81548160ff02191690831515021790555081818154811061187857611878614436565b5f91825260209091206007600890920201015460ff16156118ce5760018282815481106118a7576118a7614436565b905f5260205f20906008020160070160016101000a81548160ff0219169083151502179055505b846001600160a01b03166118e0613887565b6001600160a01b03167f1852eeec29c8b9e06624d3e3008123c26ddd6173947b6bea9054402ea8ca57ad864260405161191a929190614519565b60405180910390a35050505050565b8061193381614247565b91505061176c565b5060405163174a859d60e31b815260040160405180910390fd5b60015461010090046001600160a01b0316639e97b8f65f611974613887565b6040518363ffffffff1660e01b81526004016119919291906143df565b602060405180830381865afa1580156119ac573d5f803e3d5ffd5b505050506040513d601f19601f820116820180604052508101906119d09190614417565b6119ec5760405162461bcd60e51b8152600401610fd99061444a565b60018054604051634cbb87d360e01b81526101009091046001600160a01b031691634cbb87d391611137919085906004016143df565b60036020525f908152604090208054600182018054919291611a439061425f565b80601f0160208091040260200160405190810160405280929190818152602001828054611a6f9061425f565b8015611aba5780601f10611a9157610100808354040283529160200191611aba565b820191905f5260205f20905b815481529060010190602001808311611a9d57829003601f168201915b505050505090806002018054611acf9061425f565b80601f0160208091040260200160405190810160405280929190818152602001828054611afb9061425f565b8015611b465780601f10611b1d57610100808354040283529160200191611b46565b820191905f5260205f20905b815481529060010190602001808311611b2957829003601f168201915b505050505090806003018054611b5b9061425f565b80601f0160208091040260200160405190810160405280929190818152602001828054611b879061425f565b8015611bd25780601f10611ba957610100808354040283529160200191611bd2565b820191905f5260205f20905b815481529060010190602001808311611bb557829003601f168201915b5050505050905084565b6001600160a01b0383165f9081526002602052604081205490819003611c1557604051630a24cfef60e21b815260040160405180910390fd5b5f818152600460205260408120905b8154811015611ddb57611c35613887565b6001600160a01b0316828281548110611c5057611c50614436565b5f9182526020909120600890910201546001600160a01b0316148015611ce1575084604051602001611c82919061448c565b60405160208183030381529060405280519060200120828281548110611caa57611caa614436565b905f5260205f209060080201600101604051602001611cc991906144a7565b60405160208183030381529060405280519060200120145b15611dc9576001828281548110611cfa57611cfa614436565b905f5260205f2090600802016003015f6101000a81548160ff02191690831515021790555042828281548110611d3257611d32614436565b905f5260205f2090600802016004018190555083828281548110611d5857611d58614436565b905f5260205f20906008020160050181905550856001600160a01b0316611d7d613887565b6001600160a01b03167fc298d419e944a3f1e7da1b2245c9f34649b9a6ea67875bcd37e975ef5d7209a3874288604051611db99392919061453a565b60405180910390a3505050505050565b80611dd381614247565b915050611c24565b50604051636fcd1b3760e01b815260040160405180910390fd5b60605f60025f611e03613887565b6001600160a01b03166001600160a01b031681526020019081526020015f20549050805f03611e4557604051630a24cfef60e21b815260040160405180910390fd5b5f8181526003602090815260409182902060040180548351818402810184019094528084529091830182828015611e9957602002820191905f5260205f20905b815481526020019060010190808311611e85575b505050505091505090565b60605f60025f611eb2613887565b6001600160a01b03166001600160a01b031681526020019081526020015f20549050805f03611ef457604051630a24cfef60e21b815260040160405180910390fd5b5f81815260046020908152604080832080548251818502810185019093528083529193909284015b82821015612164575f8481526020908190206040805161012081019091526008850290910180546001600160a01b031682526001810180549293919291840191611f659061425f565b80601f0160208091040260200160405190810160405280929190818152602001828054611f919061425f565b8015611fdc5780601f10611fb357610100808354040283529160200191611fdc565b820191905f5260205f20905b815481529060010190602001808311611fbf57829003601f168201915b50505050508152602001600282018054611ff59061425f565b80601f01602080910402602001604051908101604052809291908181526020018280546120219061425f565b801561206c5780601f106120435761010080835404028352916020019161206c565b820191905f5260205f20905b81548152906001019060200180831161204f57829003601f168201915b5050509183525050600382015460ff161515602082015260048201546040820152600582015460608201526006820180546080909201916120ac9061425f565b80601f01602080910402602001604051908101604052809291908181526020018280546120d89061425f565b80156121235780601f106120fa57610100808354040283529160200191612123565b820191905f5260205f20905b81548152906001019060200180831161210657829003601f168201915b50505091835250506007919091015460ff80821615156020808501919091526101009092041615156040909201919091529082526001929092019101611f1c565b5050505091505090565b600154604051632474521560e21b8152600481018490526001600160a01b0383811660248301525f92610100900416906391d14854906044015b602060405180830381865afa1580156121c3573d5f803e3d5ffd5b505050506040513d601f19601f820116820180604052508101906121e79190614417565b9392505050565b600154604051634f4bdc7b60e11b81525f9161010090046001600160a01b031690639e97b8f6906121a890869086906004016143df565b6007546060905f60015b828111612516575f60035f8381526020019081526020015f206040518060a00160405290815f820154815260200160018201805461226c9061425f565b80601f01602080910402602001604051908101604052809291908181526020018280546122989061425f565b80156122e35780601f106122ba576101008083540402835291602001916122e3565b820191905f5260205f20905b8154815290600101906020018083116122c657829003601f168201915b505050505081526020016002820180546122fc9061425f565b80601f01602080910402602001604051908101604052809291908181526020018280546123289061425f565b80156123735780601f1061234a57610100808354040283529160200191612373565b820191905f5260205f20905b81548152906001019060200180831161235657829003601f168201915b5050505050815260200160038201805461238c9061425f565b80601f01602080910402602001604051908101604052809291908181526020018280546123b89061425f565b80156124035780601f106123da57610100808354040283529160200191612403565b820191905f5260205f20905b8154815290600101906020018083116123e657829003601f168201915b505050505081526020016004820180548060200260200160405190810160405280929190818152602001828054801561245957602002820191905f5260205f20905b815481526020019060010190808311612445575b50505050508152505090506124a7816020015188888080601f0160208091040260200160405190810160405280939291908181526020018383808284375f920191909152506138ef92505050565b806124f057506124f0816040015188888080601f0160208091040260200160405190810160405280939291908181526020018383808284375f920191909152506138ef92505050565b1561250357826124ff81614247565b9350505b508061250e81614247565b91505061222f565b505f8167ffffffffffffffff81111561253157612531613ad7565b60405190808252806020026020018201604052801561256a57816020015b612557613a8e565b81526020019060019003908161254f5790505b5090505f60015b848111612877575f60035f8381526020019081526020015f206040518060a00160405290815f82015481526020016001820180546125ae9061425f565b80601f01602080910402602001604051908101604052809291908181526020018280546125da9061425f565b80156126255780601f106125fc57610100808354040283529160200191612625565b820191905f5260205f20905b81548152906001019060200180831161260857829003601f168201915b5050505050815260200160028201805461263e9061425f565b80601f016020809104026020016040519081016040528092919081815260200182805461266a9061425f565b80156126b55780601f1061268c576101008083540402835291602001916126b5565b820191905f5260205f20905b81548152906001019060200180831161269857829003601f168201915b505050505081526020016003820180546126ce9061425f565b80601f01602080910402602001604051908101604052809291908181526020018280546126fa9061425f565b80156127455780601f1061271c57610100808354040283529160200191612745565b820191905f5260205f20905b81548152906001019060200180831161272857829003601f168201915b505050505081526020016004820180548060200260200160405190810160405280929190818152602001828054801561279b57602002820191905f5260205f20905b815481526020019060010190808311612787575b50505050508152505090506127e981602001518a8a8080601f0160208091040260200160405190810160405280939291908181526020018383808284375f920191909152506138ef92505050565b80612832575061283281604001518a8a8080601f0160208091040260200160405190810160405280939291908181526020018383808284375f920191909152506138ef92505050565b15612864578084848151811061284a5761284a614436565b6020026020010181905250828061286090614247565b9350505b508061286f81614247565b915050612571565b50909695505050505050565b6001600160a01b0382165f90815260026020526040812054908190036128bc57604051630a24cfef60e21b815260040160405180910390fd5b5f818152600460205260408120905b8154811015612a5c576128dc613887565b6001600160a01b03168282815481106128f7576128f7614436565b5f9182526020909120600890910201546001600160a01b0316148015612988575083604051602001612929919061448c565b6040516020818303038152906040528051906020012082828154811061295157612951614436565b905f5260205f20906008020160010160405160200161297091906144a7565b60405160208183030381529060405280519060200120145b80156129b857508181815481106129a1576129a1614436565b5f91825260209091206007600890920201015460ff165b15612a4a5760018282815481106129d1576129d1614436565b905f5260205f20906008020160070160016101000a81548160ff0219169083151502179055506129ff613887565b6001600160a01b0316612a10613887565b6001600160a01b03167fbe73bae5f08d7fe7ebd150bf32bcb303131391314609cc522ae754b46286ecc0864260405161191a929190614519565b80612a5481614247565b9150506128cb565b506040516316c2c6af60e01b815260040160405180910390fd5b60015461010090046001600160a01b0316639e97b8f65f612a95613887565b6040518363ffffffff1660e01b8152600401612ab29291906143df565b602060405180830381865afa158015612acd573d5f803e3d5ffd5b505050506040513d601f19601f82011682018060405250810190612af19190614417565b612b0d5760405162461bcd60e51b8152600401610fd99061444a565b6114e06139bd565b612b1d61383b565b612b2561385f565b5f60025f612b31613887565b6001600160a01b03166001600160a01b031681526020019081526020015f20549050805f03612b7357604051630a24cfef60e21b815260040160405180910390fd5b6008546001600160a01b0316612b9c57604051637e50cb3560e11b815260040160405180910390fd5b6001600160a01b038616612bc35760405163e6c4247b60e01b815260040160405180910390fd5b6008546001600160a01b031663b6d85395612bdc613887565b6040516001600160e01b031960e084901b1681526001600160a01b0391821660048201529085166024820152604401602060405180830381865afa158015612c26573d5f803e3d5ffd5b505050506040513d601f19601f82011682018060405250810190612c4a9190614417565b612c6757604051635be6b0cb60e01b815260040160405180910390fd5b5f8181526004602090815260408083208151610120810183526001600160a01b038b811682528185018b81529382018a90526001606083018190524260808401526201518060a084015260c083018a905260e0830181905261010083018790528354808201855593875294909520815160089093020180546001600160a01b031916929095169190911784559051909291820190612d0590826142e5565b5060408201516002820190612d1a90826142e5565b50606082015160038201805460ff19169115159190911790556080820151600482015560a0820151600582015560c08201516006820190612d5b90826142e5565b5060e082015160079190910180546101009384015161ffff1990911692151561ff001916929092179115159092021790556001600160a01b038616612d9e613887565b6001600160a01b03167fc18b0a731326cfd073d9219b559d4a74aaed4d08716d26c4ace853127d096edb8786426040516108ea9392919061455e565b6007546060905f60015b828111612e6d578585604051602001612dfe929190614593565b60408051601f1981840301815282825280516020918201205f85815260038352929092209192612e329260020191016144a7565b6040516020818303038152906040528051906020012003612e5b5781612e5781614247565b9250505b80612e6581614247565b915050612de4565b505f8167ffffffffffffffff811115612e8857612e88613ad7565b604051908082528060200260200182016040528015612ec157816020015b612eae613a8e565b815260200190600190039081612ea65790505b5090505f60015b848111612877578787604051602001612ee2929190614593565b60408051601f1981840301815282825280516020918201205f85815260038352929092209192612f169260020191016144a7565b60405160208183030381529060405280519060200120036131885760035f8281526020019081526020015f206040518060a00160405290815f8201548152602001600182018054612f669061425f565b80601f0160208091040260200160405190810160405280929190818152602001828054612f929061425f565b8015612fdd5780601f10612fb457610100808354040283529160200191612fdd565b820191905f5260205f20905b815481529060010190602001808311612fc057829003601f168201915b50505050508152602001600282018054612ff69061425f565b80601f01602080910402602001604051908101604052809291908181526020018280546130229061425f565b801561306d5780601f106130445761010080835404028352916020019161306d565b820191905f5260205f20905b81548152906001019060200180831161305057829003601f168201915b505050505081526020016003820180546130869061425f565b80601f01602080910402602001604051908101604052809291908181526020018280546130b29061425f565b80156130fd5780601f106130d4576101008083540402835291602001916130fd565b820191905f5260205f20905b8154815290600101906020018083116130e057829003601f168201915b505050505081526020016004820180548060200260200160405190810160405280929190818152602001828054801561315357602002820191905f5260205f20905b81548152602001906001019080831161313f575b50505050508152505083838151811061316e5761316e614436565b6020026020010181905250818061318490614247565b9250505b8061319281614247565b915050612ec8565b5f81815260046020526040812081805b8254811015613247575f8382815481106131c6576131c6614436565b5f9182526020909120600890910201600381015490915060ff1680156131f657506007810154610100900460ff16155b8015613215575042816005015482600401546132129190614234565b11155b156132345760038101805460ff191690558261323081614247565b9350505b508061323f81614247565b9150506131aa565b509392505050565b6007546060905f8167ffffffffffffffff81111561326f5761326f613ad7565b6040519080825280602002602001820160405280156132a857816020015b613295613a8e565b81526020019060019003908161328d5790505b5090505f5b8281101561351a5760035f6132c3836001614234565b81526020019081526020015f206040518060a00160405290815f82015481526020016001820180546132f49061425f565b80601f01602080910402602001604051908101604052809291908181526020018280546133209061425f565b801561336b5780601f106133425761010080835404028352916020019161336b565b820191905f5260205f20905b81548152906001019060200180831161334e57829003601f168201915b505050505081526020016002820180546133849061425f565b80601f01602080910402602001604051908101604052809291908181526020018280546133b09061425f565b80156133fb5780601f106133d2576101008083540402835291602001916133fb565b820191905f5260205f20905b8154815290600101906020018083116133de57829003601f168201915b505050505081526020016003820180546134149061425f565b80601f01602080910402602001604051908101604052809291908181526020018280546134409061425f565b801561348b5780601f106134625761010080835404028352916020019161348b565b820191905f5260205f20905b81548152906001019060200180831161346e57829003601f168201915b50505050508152602001600482018054806020026020016040519081016040528092919081815260200182805480156134e157602002820191905f5260205f20905b8154815260200190600101908083116134cd575b5050505050815250508282815181106134fc576134fc614436565b6020026020010181905250808061351290614247565b9150506132ad565b5092915050565b5f828152600460205260408120815b81548110156135b7575f82828154811061354c5761354c614436565b5f918252602090912060089091020180549091506001600160a01b03868116911614801561357e5750600381015460ff165b156135a45742816005015482600401546135989190614234565b1115935050505061097a565b50806135af81614247565b915050613530565b506001949350505050565b5f818152600460205260408120815b8154811015613662575f8282815481106135ed576135ed614436565b5f9182526020909120600890910201600381015490915060ff16801561361d57506007810154610100900460ff16155b801561363c575042816005015482600401546136399190614234565b11155b1561364f578361364b81614247565b9450505b508061365a81614247565b9150506135d1565b5050919050565b5f8060025f613676613887565b6001600160a01b03166001600160a01b031681526020019081526020015f20549050805f036136b857604051630a24cfef60e21b815260040160405180910390fd5b5f818152600460205260408120905b815481101561383057856001600160a01b03168282815481106136ec576136ec614436565b5f9182526020909120600890910201546001600160a01b031614801561377d57508460405160200161371e919061448c565b6040516020818303038152906040528051906020012082828154811061374657613746614436565b905f5260205f20906008020160010160405160200161376591906144a7565b60405160208183030381529060405280519060200120145b80156137ad575081818154811061379657613796614436565b5f91825260209091206003600890920201015460ff165b1561381e578181815481106137c4576137c4614436565b905f5260205f209060080201600501548282815481106137e6576137e6614436565b905f5260205f209060080201600401546138009190614234565b421115613812575f935050505061097a565b6001935050505061097a565b8061382881614247565b9150506136c7565b505f95945050505050565b60015460ff16156114e05760405163d93c066560e01b815260040160405180910390fd5b60025f540361388157604051633ee5aeb560e01b815260040160405180910390fd5b60025f55565b5f6138906139f8565b905090565b61389d61383b565b6001805460ff1916811790557f62e78cea01bee320cd4e420270b5ea74000d11b0c9f74754ebdbfc544b05a2586138d2613887565b6040516001600160a01b03909116815260200160405180910390a1565b805182515f91849184911115613909575f9250505061097a565b5f5b8151835161391991906145a2565b81116138305760015f5b83518110156139965783818151811061393e5761393e614436565b01602001516001600160f81b031916856139588386614234565b8151811061396857613968614436565b01602001516001600160f81b03191614613984575f9150613996565b8061398e81614247565b915050613923565b5080156139aa57600194505050505061097a565b50806139b581614247565b91505061390b565b6139c5613a6b565b6001805460ff191690557f5db9ee0a495bf2e6ff9c91a7834c1ba4fdd244a5e8aa4e537bd38aeae4b073aa6138d2613887565b5f366014336001600160a01b037f000000000000000000000000000000000000000000000000000000000000000016148015613a345750808210155b15613a63575f36613a4583856145a2565b613a509282906145b5565b613a59916145dc565b60601c9250505090565b339250505090565b60015460ff166114e057604051638dfc202b60e01b815260040160405180910390fd5b6040518060a001604052805f8152602001606081526020016060815260200160608152602001606081525090565b80356001600160a01b0381168114613ad2575f80fd5b919050565b634e487b7160e01b5f52604160045260245ffd5b5f82601f830112613afa575f80fd5b813567ffffffffffffffff80821115613b1557613b15613ad7565b604051601f8301601f19908116603f01168101908282118183101715613b3d57613b3d613ad7565b81604052838152866020858801011115613b55575f80fd5b836020870160208301375f602085830101528094505050505092915050565b5f805f805f60a08688031215613b88575f80fd5b613b9186613abc565b9450602086013567ffffffffffffffff80821115613bad575f80fd5b613bb989838a01613aeb565b95506040880135915080821115613bce575f80fd5b613bda89838a01613aeb565b9450606088013593506080880135915080821115613bf6575f80fd5b50613c0388828901613aeb565b9150509295509295909350565b5f60208284031215613c20575f80fd5b6121e782613abc565b5f5b83811015613c43578181015183820152602001613c2b565b50505f910152565b5f8151808452613c62816020860160208601613c29565b601f01601f19169290920160200192915050565b5f6020808301818452808551808352604092508286019150828160051b8701018488015f805b84811015613d5557603f198a8503018652825160a08151865289820151818b880152613cca82880182613c4b565b915050888201518682038a880152613ce28282613c4b565b91505060608083015187830382890152613cfc8382613c4b565b608094850151898203958a01959095528451808252948d0194879450908d01925090505b80831015613d405783518252928b019260019290920191908b0190613d20565b50978a01979550505091870191600101613c9c565b50919998505050505050505050565b5f8060408385031215613d75575f80fd5b50508035926020909101359150565b6001600160a01b038a168152610120602082018190525f90613da88382018c613c4b565b90508281036040840152613dbc818b613c4b565b905088151560608401528760808401528660a084015282810360c0840152613de48187613c4b565b94151560e0840152505090151561010090910152979650505050505050565b5f60208284031215613e13575f80fd5b5035919050565b5f805f60608486031215613e2c575f80fd5b833567ffffffffffffffff80821115613e43575f80fd5b613e4f87838801613aeb565b94506020860135915080821115613e64575f80fd5b613e7087838801613aeb565b93506040860135915080821115613e85575f80fd5b50613e9286828701613aeb565b9150509250925092565b5f8060408385031215613ead575f80fd5b613eb683613abc565b9150602083013567ffffffffffffffff811115613ed1575f80fd5b613edd85828601613aeb565b9150509250929050565b848152608060208201525f613eff6080830186613c4b565b8281036040840152613f118186613c4b565b90508281036060840152613f258185613c4b565b979650505050505050565b5f805f60608486031215613f42575f80fd5b613f4b84613abc565b9250602084013567ffffffffffffffff811115613f66575f80fd5b613f7286828701613aeb565b925050604084013590509250925092565b602080825282518282018190525f9190848201906040850190845b8181101561287757835183529284019291840191600101613f9e565b5f6020808301818452808551808352604092508286019150828160051b8701018488015f5b838110156140ac57888303603f19018552815180516001600160a01b0316845261012088820151818a87015261401782870182613c4b565b915050878201518582038987015261402f8282613c4b565b9150506060808301516140458288018215159052565b50506080828101519086015260a0808301519086015260c080830151868303828801526140728382613c4b565b9250505060e0808301516140898288018215159052565b505061010091820151151594909101939093529386019390860190600101613fdf565b509098975050505050505050565b5f80604083850312156140cb575f80fd5b823591506140db60208401613abc565b90509250929050565b5f80604083850312156140f5575f80fd5b823560098110614103575f80fd5b91506140db60208401613abc565b5f8060208385031215614122575f80fd5b823567ffffffffffffffff80821115614139575f80fd5b818501915085601f83011261414c575f80fd5b81358181111561415a575f80fd5b86602082850101111561416b575f80fd5b60209290920196919550909350505050565b5f805f805f60a08688031215614191575f80fd5b61419a86613abc565b9450602086013567ffffffffffffffff808211156141b6575f80fd5b6141c289838a01613aeb565b955060408801359150808211156141d7575f80fd5b6141e389838a01613aeb565b945060608801359150808211156141f8575f80fd5b5061420588828901613aeb565b92505061421460808701613abc565b90509295509295909350565b634e487b7160e01b5f52601160045260245ffd5b8082018082111561097a5761097a614220565b5f6001820161425857614258614220565b5060010190565b600181811c9082168061427357607f821691505b60208210810361429157634e487b7160e01b5f52602260045260245ffd5b50919050565b601f8211156142e0575f81815260208120601f850160051c810160208610156142bd5750805b601f850160051c820191505b818110156142dc578281556001016142c9565b5050505b505050565b815167ffffffffffffffff8111156142ff576142ff613ad7565b6143138161430d845461425f565b84614297565b602080601f831160018114614346575f841561432f5750858301515b5f19600386901b1c1916600185901b1785556142dc565b5f85815260208120601f198616915b8281101561437457888601518255948401946001909101908401614355565b508582101561439157878501515f19600388901b60f8161c191681555b5050505050600190811b01905550565b608081525f6143b36080830187613c4b565b82810360208401526143c58187613c4b565b90508460408401528281036060840152613f258185613c4b565b60408101600984106143ff57634e487b7160e01b5f52602160045260245ffd5b9281526001600160a01b039190911660209091015290565b5f60208284031215614427575f80fd5b815180151581146121e7575f80fd5b634e487b7160e01b5f52603260045260245ffd5b60208082526022908201527f416363657373436f6e74726f6c3a20726573747269637465642d746f2d61646d60408201526134b760f11b606082015260800190565b5f825161449d818460208701613c29565b9190910192915050565b5f8083546144b48161425f565b600182811680156144cc57600181146144e15761450d565b60ff198416875282151583028701945061450d565b875f526020805f205f5b858110156145045781548a8201529084019082016144eb565b50505082870194505b50929695505050505050565b604081525f61452b6040830185613c4b565b90508260208301529392505050565b606081525f61454c6060830186613c4b565b60208301949094525060400152919050565b606081525f6145706060830186613c4b565b82810360208401526145828186613c4b565b915050826040830152949350505050565b818382375f9101908152919050565b8181038181111561097a5761097a614220565b5f80858511156145c3575f80fd5b838611156145cf575f80fd5b5050820193919092039150565b6bffffffffffffffffffffffff1981358181169160148510156146095780818660140360031b1b83161692505b50509291505056fea264697066735822122030236ebeb1a1e2da4313f2b70416b93ff5f5199e0001c37bb6fb265b7c60d06664736f6c63430008140033",
  "immutableReferences": {
    "4782": [
      {
        "length": 32,
        "start": 937
      },
      {
        "length": 32,
        "start": 1080
      },
      {
        "length": 32,
        "start": 14855
      }
    ]
  },
  "source": "// SPDX-License-Identifier: MIT\npragma solidity ^0.8.20;\n\nimport {StringUtils} from \"./libraries/StringUtils.sol\";\nimport {ReentrancyGuard} from \"@openzeppelin/contracts/utils/ReentrancyGuard.sol\";\nimport {Pausable} from \"@openzeppelin/contracts/utils/Pausable.sol\";\nimport {MediSecureAuth} from \"./common/MediSecureAuth.sol\";\nimport {Roles} from \"./MediSecureAccessControl.sol\";\nimport {IHospital} from \"./interfaces/IHospital.sol\";\nimport {Context} from \"@openzeppelin/contracts/utils/Context.sol\";\nimport {ERC2771Context} from \"@openzeppelin/contracts/metatx/ERC2771Context.sol\";\n\ncontract Doctor is ReentrancyGuard, Pausable, MediSecureAuth {\n    constructor(address _accessControl, address _trustedForwarder) \n        MediSecureAuth(_accessControl, _trustedForwarder) \n    {}\n\n    function _msgSender() internal view override(Context, ERC2771Context) returns (address) {\n        return ERC2771Context._msgSender();\n    }\n\n    function _msgData() internal view override(Context, ERC2771Context) returns (bytes calldata) {\n        return ERC2771Context._msgData();\n    }\n\n    function _contextSuffixLength() internal view override(Context, ERC2771Context) returns (uint256) {\n        return ERC2771Context._contextSuffixLength();\n    }\n\n    struct DoctorDetails {\n        uint256 doctorId;\n        string name;\n        string specialization;\n        string email;\n        uint256[] patientIds; // List of patients linked to this doctor\n    }\n\n    struct DocumentAccess {\n        address patient;\n        string ipfsHash;\n        string fileName;\n        bool hasAccess;\n        uint256 grantTime;\n        uint256 duration;\n        string reason;\n        bool isEmergency;\n        bool isResolved; // NEW: Alert dismissed?\n    }\n\n    uint256 public constant RATE_LIMIT_WINDOW = 1 hours;\n    uint256 public constant MAX_ACCESS_REQUESTS = 10;\n\n    // Custom Errors\n    error DoctorAlreadyRegistered();\n    error DoctorNotRegistered();\n    error InvalidAddress();\n    error InvalidIpfsHash();\n    error InvalidDuration();\n    error RateLimitExceeded();\n    error HospitalSystemNotSet();\n    error NotOnDuty();\n    error AccessRequestNotFound();\n    error EmergencyRecordNotFound();\n    error AccessRecordNotFound();\n    error InvalidSpecialization();\n    error PatientAlreadyAdded();\n\n    mapping(address => uint256) public walletToDoctorId;\n    mapping(uint256 => DoctorDetails) public doctors;\n    mapping(uint256 => DocumentAccess[]) public doctorAccessList;\n    mapping(address => uint256) private _lastAccessTime;\n    mapping(address => uint256) private _accessCount;\n\n    uint256 private doctorIdCounter;\n\n    // Hospital Verification\n\n    address public hospitalContract;\n\n    // --- EVENTS ---\n    event AccessRequested(\n        address indexed patient,\n        address indexed doctor,\n        string ipfsHash,\n        string fileName,\n        uint256 duration,\n        string reason\n    );\n    event AccessGranted(\n        address indexed patient,\n        address indexed doctor,\n        string ipfsHash,\n        uint256 grantTime,\n        uint256 duration\n    );\n    event AccessRevoked(\n        address indexed patient,\n        address indexed doctor,\n        string ipfsHash,\n        uint256 revokeTime\n    );\n    event PatientAdded(\n        uint256 indexed doctorId,\n        uint256 indexed patientId,\n        address indexed doctor\n    );\n    event EmergencyAccessGranted(\n        address indexed doctor,\n        address indexed patient,\n        string ipfsHash,\n        string reason,\n        uint256 timestamp\n    );\n    event EmergencyResolved(\n        address indexed patient,\n        address indexed resolver,\n        string ipfsHash,\n        uint256 timestamp\n    );\n\n\n\n    function setHospitalContract(address addr) public onlyAdmin() whenNotPaused {\n        if (addr == address(0)) revert InvalidAddress();\n        hospitalContract = addr;\n    }\n\n    function registerDoctor(\n        string memory name,\n        string memory specialization,\n        string memory hospital\n    ) public {\n        if (walletToDoctorId[_msgSender()] != 0) revert DoctorAlreadyRegistered();\n        doctorIdCounter++;\n        walletToDoctorId[_msgSender()] = doctorIdCounter;\n \n        DoctorDetails storage newDoctor = doctors[doctorIdCounter];\n        newDoctor.doctorId = doctorIdCounter;\n        newDoctor.name = name;\n        newDoctor.specialization = specialization;\n        newDoctor.email = hospital; // Keeping legacy field mapping for now\n        \n        // Grant role automatically\n        accessControl.grantRole(Roles.DOCTOR, _msgSender());\n    }\n\n    function addPatient(uint256 patientId) public {\n        uint256 doctorId = walletToDoctorId[_msgSender()];\n        if (doctorId == 0) revert DoctorNotRegistered();\n \n        uint256[] storage patientIds = doctors[doctorId].patientIds;\n        for (uint256 i = 0; i < patientIds.length; i++) {\n            if (patientIds[i] == patientId) revert PatientAlreadyAdded();\n        }\n \n        patientIds.push(patientId);\n        emit PatientAdded(doctorId, patientId, _msgSender());\n    }\n\n    function getDoctorPatients() public view returns (uint256[] memory) {\n        uint256 doctorId = walletToDoctorId[_msgSender()];\n        if (doctorId == 0) revert DoctorNotRegistered();\n        return doctors[doctorId].patientIds;\n    }\n\n    function hasAccessToDocument(\n        address patient,\n        string memory ipfsHash\n    ) public view returns (bool) {\n        uint256 doctorId = walletToDoctorId[_msgSender()];\n        if (doctorId == 0) revert DoctorNotRegistered();\n \n        DocumentAccess[] storage accessList = doctorAccessList[doctorId];\n        for (uint256 i = 0; i < accessList.length; i++) {\n            if (\n                accessList[i].patient == patient &&\n                keccak256(abi.encodePacked(accessList[i].ipfsHash)) == keccak256(abi.encodePacked(ipfsHash)) &&\n                accessList[i].hasAccess\n            ) {\n                if (block.timestamp > accessList[i].grantTime + accessList[i].duration) {\n                    return false;\n                }\n                return true;\n            }\n        }\n        return false;\n    }\n\n    function requestAccess(\n        address patient,\n        string memory ipfsHash,\n        string memory fileName,\n        uint256 duration,\n        string memory reason\n    ) public whenNotPaused nonReentrant {\n        uint256 doctorId = walletToDoctorId[_msgSender()];\n        if (doctorId == 0) revert DoctorNotRegistered();\n \n        if (patient == address(0)) revert InvalidAddress();\n        if (bytes(ipfsHash).length == 0) revert InvalidIpfsHash();\n        if (duration == 0 || duration > 365 days) revert InvalidDuration();\n \n        if (block.timestamp < _lastAccessTime[_msgSender()] + RATE_LIMIT_WINDOW) {\n            if (_accessCount[_msgSender()] >= MAX_ACCESS_REQUESTS) revert RateLimitExceeded();\n            _accessCount[_msgSender()]++;\n        } else {\n            _lastAccessTime[_msgSender()] = block.timestamp;\n            _accessCount[_msgSender()] = 1;\n        }\n\n        doctorAccessList[doctorId].push(\n            DocumentAccess({\n                patient: patient,\n                ipfsHash: ipfsHash,\n                fileName: fileName,\n                hasAccess: false,\n                grantTime: 0,\n                duration: duration,\n                reason: reason,\n                isEmergency: false,\n                isResolved: false\n            })\n        );\n\n        emit AccessRequested(\n            patient,\n            _msgSender(),\n            ipfsHash,\n            fileName,\n            duration,\n            reason\n        );\n    }\n\n    function emergencyBreakGlass(\n        address patient,\n        string memory ipfsHash,\n        string memory fileName,\n        string memory reason,\n        address hospitalAddress\n    ) public whenNotPaused nonReentrant {\n        uint256 doctorId = walletToDoctorId[_msgSender()];\n        if (doctorId == 0) revert DoctorNotRegistered();\n        if (hospitalContract == address(0)) revert HospitalSystemNotSet();\n        if (patient == address(0)) revert InvalidAddress();\n        \n        // Verify with Hospital Contract\n        if (!IHospital(hospitalContract).isDoctorOnDuty(_msgSender(), hospitalAddress)) revert NotOnDuty();\n\n        doctorAccessList[doctorId].push(\n            DocumentAccess({\n                patient: patient,\n                ipfsHash: ipfsHash,\n                fileName: fileName,\n                hasAccess: true, // Auto Grant\n                grantTime: block.timestamp,\n                duration: 24 hours, // Fixed duration for emergency\n                reason: reason,\n                isEmergency: true,\n                isResolved: false\n            })\n        );\n\n        emit EmergencyAccessGranted(\n            _msgSender(),\n            patient,\n            ipfsHash,\n            reason,\n            block.timestamp\n        );\n    }\n\n    function grantAccess(\n        address doctor,\n        string memory ipfsHash,\n        uint256 duration\n    ) public {\n        uint256 doctorId = walletToDoctorId[doctor];\n        if (doctorId == 0) revert DoctorNotRegistered();\n \n        DocumentAccess[] storage accessList = doctorAccessList[doctorId];\n        for (uint256 i = 0; i < accessList.length; i++) {\n            if (\n                accessList[i].patient == _msgSender() &&\n                keccak256(abi.encodePacked(accessList[i].ipfsHash)) == keccak256(abi.encodePacked(ipfsHash))\n            ) {\n                accessList[i].hasAccess = true;\n                accessList[i].grantTime = block.timestamp;\n                accessList[i].duration = duration;\n \n                emit AccessGranted(\n                    _msgSender(),\n                    doctor,\n                    ipfsHash,\n                    block.timestamp,\n                    duration\n                );\n                return;\n            }\n        }\n        revert AccessRequestNotFound();\n    }\n\n    function resolveEmergency(address doctor, string memory ipfsHash) public {\n        uint256 doctorId = walletToDoctorId[doctor];\n        if (doctorId == 0) revert DoctorNotRegistered();\n\n        DocumentAccess[] storage accessList = doctorAccessList[doctorId];\n        for (uint256 i = 0; i < accessList.length; i++) {\n            if (\n                accessList[i].patient == _msgSender() &&\n                keccak256(abi.encodePacked(accessList[i].ipfsHash)) == keccak256(abi.encodePacked(ipfsHash)) &&\n                accessList[i].isEmergency\n            ) {\n                accessList[i].isResolved = true;\n                emit EmergencyResolved(\n                    _msgSender(),\n                    _msgSender(),\n                    ipfsHash,\n                    block.timestamp\n                );\n                return;\n            }\n        }\n        revert EmergencyRecordNotFound();\n    }\n\n    function revokeAccess(address doctor, string memory ipfsHash) public {\n        uint256 doctorId = walletToDoctorId[doctor];\n        if (doctorId == 0) revert DoctorNotRegistered();\n\n        DocumentAccess[] storage accessList = doctorAccessList[doctorId];\n        for (uint256 i = 0; i < accessList.length; i++) {\n            if (\n                accessList[i].patient == _msgSender() &&\n                keccak256(abi.encodePacked(accessList[i].ipfsHash)) == keccak256(abi.encodePacked(ipfsHash))\n            ) {\n                accessList[i].hasAccess = false;\n                if (accessList[i].isEmergency) {\n                    accessList[i].isResolved = true;\n                }\n                emit AccessRevoked(\n                    _msgSender(),\n                    doctor,\n                    ipfsHash,\n                    block.timestamp\n                );\n                return;\n            }\n        }\n        revert AccessRecordNotFound();\n    }\n\n    // --- GETTERS ---\n    function getAccessList() public view returns (DocumentAccess[] memory) {\n        uint256 doctorId = walletToDoctorId[_msgSender()];\n        if (doctorId == 0) revert DoctorNotRegistered();\n        return doctorAccessList[doctorId];\n    }\n\n    function getPatients() public view returns (DoctorDetails[] memory) {\n        uint256 doctorId = walletToDoctorId[_msgSender()];\n        if (doctorId == 0) revert DoctorNotRegistered();\n\n        DocumentAccess[] memory accessList = doctorAccessList[doctorId];\n        DoctorDetails[] memory patients = new DoctorDetails[](\n            accessList.length\n        );\n        uint256 count = 0;\n\n        for (uint256 i = 0; i < accessList.length; i++) {\n            if (accessList[i].hasAccess) {\n                patients[count] = doctors[doctorId];\n                count++;\n            }\n        }\n\n        return patients;\n    }\n\n    function doctorExists(address walletAddress) public view returns (bool) {\n        return walletToDoctorId[walletAddress] != 0;\n    }\n\n    function getAllDoctors() public view returns (DoctorDetails[] memory) {\n        uint256 total = doctorIdCounter;\n        DoctorDetails[] memory list = new DoctorDetails[](total);\n\n        for (uint256 i = 0; i < total; i++) {\n            list[i] = doctors[i + 1];\n        }\n\n        return list;\n    }\n\n    function getDoctorsBySpecialization(string calldata specialization) public view returns (DoctorDetails[] memory) {\n        uint256 total = doctorIdCounter;\n        uint256 count = 0;\n        for (uint256 i = 1; i <= total; i++) {\n            if (keccak256(abi.encodePacked(doctors[i].specialization)) == keccak256(abi.encodePacked(specialization))) {\n                count++;\n            }\n        }\n        \n        DoctorDetails[] memory result = new DoctorDetails[](count);\n        uint256 idx = 0;\n        for (uint256 i = 1; i <= total; i++) {\n            if (keccak256(abi.encodePacked(doctors[i].specialization)) == keccak256(abi.encodePacked(specialization))) {\n                result[idx] = doctors[i];\n                idx++;\n            }\n        }\n        return result;\n    }\n\n    function searchDoctors(string calldata query) public view returns (DoctorDetails[] memory) {\n        uint256 total = doctorIdCounter;\n        uint256 count = 0;\n        \n        for (uint256 i = 1; i <= total; i++) {\n            DoctorDetails memory d = doctors[i];\n            if (StringUtils.contains(d.name, query) || StringUtils.contains(d.specialization, query)) {\n                count++;\n            }\n        }\n        \n        DoctorDetails[] memory result = new DoctorDetails[](count);\n        uint256 idx = 0;\n        for (uint256 i = 1; i <= total; i++) {\n            DoctorDetails memory d = doctors[i];\n            if (StringUtils.contains(d.name, query) || StringUtils.contains(d.specialization, query)) {\n                result[idx] = d;\n                idx++;\n            }\n        }\n        return result;\n    }\n\n    function cleanupExpiredAccess(uint256 doctorId) public returns (uint256 cleanedCount) {\n        DocumentAccess[] storage accessList = doctorAccessList[doctorId];\n        uint256 removedCount = 0;\n        \n        for (uint256 i = 0; i < accessList.length; i++) {\n            DocumentAccess storage doc = accessList[i];\n            if (doc.hasAccess && !doc.isResolved && doc.grantTime + doc.duration <= block.timestamp) {\n                doc.hasAccess = false;\n                removedCount++;\n            }\n        }\n        \n        return removedCount;\n    }\n\n    function cleanupExpiredAccessForAll() public returns (uint256 totalCleaned) {\n        totalCleaned = 0;\n        \n        for (uint256 i = 1; i <= doctorIdCounter; i++) {\n            DocumentAccess[] storage accessList = doctorAccessList[i];\n            for (uint256 j = 0; j < accessList.length; j++) {\n                DocumentAccess storage doc = accessList[j];\n                if (doc.hasAccess && !doc.isResolved && doc.grantTime + doc.duration <= block.timestamp) {\n                    doc.hasAccess = false;\n                    totalCleaned++;\n                }\n            }\n        }\n        \n        return totalCleaned;\n    }\n\n    function getExpiredAccessCount(uint256 doctorId) public view returns (uint256 count) {\n        DocumentAccess[] storage accessList = doctorAccessList[doctorId];\n        \n        for (uint256 i = 0; i < accessList.length; i++) {\n            DocumentAccess storage doc = accessList[i];\n            if (doc.hasAccess && !doc.isResolved && doc.grantTime + doc.duration <= block.timestamp) {\n                count++;\n            }\n        }\n        \n        return count;\n    }\n\n    function isAccessExpired(uint256 doctorId, address patient) public view returns (bool) {\n        DocumentAccess[] storage accessList = doctorAccessList[doctorId];\n        \n        for (uint256 i = 0; i < accessList.length; i++) {\n            DocumentAccess storage doc = accessList[i];\n            if (doc.patient == patient && doc.hasAccess) {\n                return doc.grantTime + doc.duration <= block.timestamp;\n            }\n        }\n        \n        return true;\n    }\n\n    // --- PAUSE FUNCTIONS ---\n    function pauseContract() public onlyAdmin() {\n        _pause();\n    }\n\n    function unpauseContract() public onlyAdmin() {\n        _unpause();\n    }\n\n    // --- ACCESS CONTROL HELPERS ---\n    function grantDoctorRole(address doctor) public onlyAdmin() {\n        accessControl.grantRole(Roles.DOCTOR, doctor);\n    }\n\n    function revokeDoctorRole(address doctor) public onlyAdmin() {\n        accessControl.revokeRole(Roles.DOCTOR, doctor);\n    }\n\n    function isDoctorRole(address account) public view returns (bool) {\n        return accessControl.hasRole(Roles.DOCTOR, account);\n    }\n}\n",
  "sourcePath": "/home/ayush/Desktop/code/Sanjeevni/contracts/contracts/Doctor.sol",
  "compiler": {
    "name": "solc",
    "version": "0.8.20+commit.a1b79de6.Emscripten.clang"
  },
  "schemaVersion": "3.4.16",
  "updatedAt": "2026-04-13T21:23:03.194Z",
  "networkType": "ethereum",
  "devdoc": {
    "errors": {
      "EnforcedPause()": [
        {
          "details": "The operation failed because the contract is paused."
        }
      ],
      "ExpectedPause()": [
        {
          "details": "The operation failed because the contract is not paused."
        }
      ],
      "ReentrancyGuardReentrantCall()": [
        {
          "details": "Unauthorized reentrant call."
        }
      ]
    },
    "events": {
      "Paused(address)": {
        "details": "Emitted when the pause is triggered by `account`."
      },
      "Unpaused(address)": {
        "details": "Emitted when the pause is lifted by `account`."
      }
    },
    "kind": "dev",
    "methods": {
      "isTrustedForwarder(address)": {
        "details": "Indicates whether any particular address is the trusted forwarder."
      },
      "paused()": {
        "details": "Returns true if the contract is paused, and false otherwise."
      },
      "trustedForwarder()": {
        "details": "Returns the address of the trusted forwarder."
      }
    },
    "version": 1
  },
  "userdoc": {
    "kind": "user",
    "methods": {},
    "version": 1
  },
  "timeoutBlocks": 500
}