{
  "contractName": "GovernanceManager",
  "abi": [
    {
      "inputs": [
        {
          "internalType": "address",
          "name": "forwarder",
          "type": "address"
        }
      ],
      "stateMutability": "nonpayable",
      "type": "constructor",
      "signature": "constructor"
    },
    {
      "inputs": [
        {
          "internalType": "address",
          "name": "target",
          "type": "address"
        }
      ],
      "name": "AddressEmptyCode",
      "type": "error"
    },
    {
      "inputs": [],
      "name": "AlreadyExecuted",
      "type": "error"
    },
    {
      "inputs": [],
      "name": "ContractNotAuthorized",
      "type": "error"
    },
    {
      "inputs": [
        {
          "internalType": "address",
          "name": "implementation",
          "type": "address"
        }
      ],
      "name": "ERC1967InvalidImplementation",
      "type": "error"
    },
    {
      "inputs": [],
      "name": "ERC1967NonPayable",
      "type": "error"
    },
    {
      "inputs": [],
      "name": "EnforcedPause",
      "type": "error"
    },
    {
      "inputs": [],
      "name": "ExpectedPause",
      "type": "error"
    },
    {
      "inputs": [],
      "name": "FailedInnerCall",
      "type": "error"
    },
    {
      "inputs": [],
      "name": "InvalidAddress",
      "type": "error"
    },
    {
      "inputs": [],
      "name": "InvalidInitialization",
      "type": "error"
    },
    {
      "inputs": [],
      "name": "NotInitializing",
      "type": "error"
    },
    {
      "inputs": [],
      "name": "NotMultiSigOwner",
      "type": "error"
    },
    {
      "inputs": [],
      "name": "UUPSUnauthorizedCallContext",
      "type": "error"
    },
    {
      "inputs": [
        {
          "internalType": "bytes32",
          "name": "slot",
          "type": "bytes32"
        }
      ],
      "name": "UUPSUnsupportedProxiableUUID",
      "type": "error"
    },
    {
      "anonymous": false,
      "inputs": [
        {
          "indexed": true,
          "internalType": "address",
          "name": "contract_",
          "type": "address"
        }
      ],
      "name": "ContractAuthorized",
      "type": "event",
      "signature": "0x8983a1f3c3cb45c24c8226b5b805e3b6eb49686530b808534b2a920129eff651"
    },
    {
      "anonymous": false,
      "inputs": [
        {
          "indexed": true,
          "internalType": "address",
          "name": "contract_",
          "type": "address"
        }
      ],
      "name": "ContractDeauthorized",
      "type": "event",
      "signature": "0x54142b7cb3ceaa9e564243ce4cc2303723c842a1144192de6b3c594f68b16a9a"
    },
    {
      "anonymous": false,
      "inputs": [
        {
          "indexed": false,
          "internalType": "uint64",
          "name": "version",
          "type": "uint64"
        }
      ],
      "name": "Initialized",
      "type": "event",
      "signature": "0xc7f505b2f371ae2175ee4913f4499e1f2633a7b5936321eed1cdaeb6115181d2"
    },
    {
      "anonymous": false,
      "inputs": [
        {
          "indexed": true,
          "internalType": "address",
          "name": "newMultiSig",
          "type": "address"
        }
      ],
      "name": "MultiSigUpdated",
      "type": "event",
      "signature": "0x7ca1bb3a0b8a33b929834f1be025e2a6c15b7273b9f8efc6978a86d84af395cc"
    },
    {
      "anonymous": false,
      "inputs": [
        {
          "indexed": false,
          "internalType": "address",
          "name": "account",
          "type": "address"
        }
      ],
      "name": "Paused",
      "type": "event",
      "signature": "0x62e78cea01bee320cd4e420270b5ea74000d11b0c9f74754ebdbfc544b05a258"
    },
    {
      "anonymous": false,
      "inputs": [
        {
          "indexed": true,
          "internalType": "bytes32",
          "name": "proposalHash",
          "type": "bytes32"
        },
        {
          "indexed": true,
          "internalType": "address",
          "name": "target",
          "type": "address"
        },
        {
          "indexed": false,
          "internalType": "string",
          "name": "actionType",
          "type": "string"
        }
      ],
      "name": "ProposalCreated",
      "type": "event",
      "signature": "0x399d1d4371a507bea52263136afa2916358ccb4fcd6024298ea42659b1a2aec1"
    },
    {
      "anonymous": false,
      "inputs": [
        {
          "indexed": true,
          "internalType": "bytes32",
          "name": "proposalHash",
          "type": "bytes32"
        }
      ],
      "name": "ProposalExecuted",
      "type": "event",
      "signature": "0x7b1bcf1ccf901a11589afff5504d59fd0a53780eed2a952adade0348985139e0"
    },
    {
      "anonymous": false,
      "inputs": [
        {
          "indexed": false,
          "internalType": "address",
          "name": "account",
          "type": "address"
        }
      ],
      "name": "Unpaused",
      "type": "event",
      "signature": "0x5db9ee0a495bf2e6ff9c91a7834c1ba4fdd244a5e8aa4e537bd38aeae4b073aa"
    },
    {
      "anonymous": false,
      "inputs": [
        {
          "indexed": true,
          "internalType": "address",
          "name": "implementation",
          "type": "address"
        }
      ],
      "name": "Upgraded",
      "type": "event",
      "signature": "0xbc7cd75a20ee27fd9adebab32041f755214dbc6bffa90cc0225b39da2e5c2d3b"
    },
    {
      "inputs": [],
      "name": "UPGRADE_INTERFACE_VERSION",
      "outputs": [
        {
          "internalType": "string",
          "name": "",
          "type": "string"
        }
      ],
      "stateMutability": "view",
      "type": "function",
      "constant": true,
      "signature": "0xad3cb1cc"
    },
    {
      "inputs": [],
      "name": "accessControl",
      "outputs": [
        {
          "internalType": "contract MediSecureAccessControl",
          "name": "",
          "type": "address"
        }
      ],
      "stateMutability": "view",
      "type": "function",
      "constant": true,
      "signature": "0x13007d55"
    },
    {
      "inputs": [
        {
          "internalType": "address",
          "name": "",
          "type": "address"
        }
      ],
      "name": "authorizedContracts",
      "outputs": [
        {
          "internalType": "bool",
          "name": "",
          "type": "bool"
        }
      ],
      "stateMutability": "view",
      "type": "function",
      "constant": true,
      "signature": "0xd5b9221b"
    },
    {
      "inputs": [
        {
          "internalType": "bytes32",
          "name": "",
          "type": "bytes32"
        }
      ],
      "name": "executedProposals",
      "outputs": [
        {
          "internalType": "bool",
          "name": "",
          "type": "bool"
        }
      ],
      "stateMutability": "view",
      "type": "function",
      "constant": true,
      "signature": "0x3566414c"
    },
    {
      "inputs": [
        {
          "internalType": "bytes32",
          "name": "role",
          "type": "bytes32"
        },
        {
          "internalType": "address",
          "name": "account",
          "type": "address"
        }
      ],
      "name": "hasRole",
      "outputs": [
        {
          "internalType": "bool",
          "name": "",
          "type": "bool"
        }
      ],
      "stateMutability": "view",
      "type": "function",
      "constant": true,
      "signature": "0x91d14854"
    },
    {
      "inputs": [
        {
          "internalType": "enum Roles",
          "name": "role",
          "type": "uint8"
        },
        {
          "internalType": "address",
          "name": "account",
          "type": "address"
        }
      ],
      "name": "hasRole",
      "outputs": [
        {
          "internalType": "bool",
          "name": "",
          "type": "bool"
        }
      ],
      "stateMutability": "view",
      "type": "function",
      "constant": true,
      "signature": "0x9e97b8f6"
    },
    {
      "inputs": [
        {
          "internalType": "address",
          "name": "account",
          "type": "address"
        }
      ],
      "name": "isAdmin",
      "outputs": [
        {
          "internalType": "bool",
          "name": "",
          "type": "bool"
        }
      ],
      "stateMutability": "view",
      "type": "function",
      "constant": true,
      "signature": "0x24d7806c"
    },
    {
      "inputs": [
        {
          "internalType": "address",
          "name": "forwarder",
          "type": "address"
        }
      ],
      "name": "isTrustedForwarder",
      "outputs": [
        {
          "internalType": "bool",
          "name": "",
          "type": "bool"
        }
      ],
      "stateMutability": "view",
      "type": "function",
      "constant": true,
      "signature": "0x572b6c05"
    },
    {
      "inputs": [],
      "name": "multiSigWallet",
      "outputs": [
        {
          "internalType": "contract IMultiSigWallet",
          "name": "",
          "type": "address"
        }
      ],
      "stateMutability": "view",
      "type": "function",
      "constant": true,
      "signature": "0x4b8feb4f"
    },
    {
      "inputs": [],
      "name": "paused",
      "outputs": [
        {
          "internalType": "bool",
          "name": "",
          "type": "bool"
        }
      ],
      "stateMutability": "view",
      "type": "function",
      "constant": true,
      "signature": "0x5c975abb"
    },
    {
      "inputs": [],
      "name": "proposalCount",
      "outputs": [
        {
          "internalType": "uint256",
          "name": "",
          "type": "uint256"
        }
      ],
      "stateMutability": "view",
      "type": "function",
      "constant": true,
      "signature": "0xda35c664"
    },
    {
      "inputs": [],
      "name": "proposalThreshold",
      "outputs": [
        {
          "internalType": "uint256",
          "name": "",
          "type": "uint256"
        }
      ],
      "stateMutability": "view",
      "type": "function",
      "constant": true,
      "signature": "0xb58131b0"
    },
    {
      "inputs": [],
      "name": "proxiableUUID",
      "outputs": [
        {
          "internalType": "bytes32",
          "name": "",
          "type": "bytes32"
        }
      ],
      "stateMutability": "view",
      "type": "function",
      "constant": true,
      "signature": "0x52d1902d"
    },
    {
      "inputs": [],
      "name": "timelock",
      "outputs": [
        {
          "internalType": "address",
          "name": "",
          "type": "address"
        }
      ],
      "stateMutability": "view",
      "type": "function",
      "constant": true,
      "signature": "0xd33219b4"
    },
    {
      "inputs": [],
      "name": "trustedForwarder",
      "outputs": [
        {
          "internalType": "address",
          "name": "",
          "type": "address"
        }
      ],
      "stateMutability": "view",
      "type": "function",
      "constant": true,
      "signature": "0x7da0a877"
    },
    {
      "inputs": [
        {
          "internalType": "address",
          "name": "newImplementation",
          "type": "address"
        },
        {
          "internalType": "bytes",
          "name": "data",
          "type": "bytes"
        }
      ],
      "name": "upgradeToAndCall",
      "outputs": [],
      "stateMutability": "payable",
      "type": "function",
      "payable": true,
      "signature": "0x4f1ef286"
    },
    {
      "inputs": [
        {
          "internalType": "address",
          "name": "_multiSig",
          "type": "address"
        },
        {
          "internalType": "address",
          "name": "_accessControl",
          "type": "address"
        }
      ],
      "name": "initialize",
      "outputs": [],
      "stateMutability": "nonpayable",
      "type": "function",
      "signature": "0x485cc955"
    },
    {
      "inputs": [
        {
          "internalType": "address",
          "name": "_multiSig",
          "type": "address"
        }
      ],
      "name": "setMultiSig",
      "outputs": [],
      "stateMutability": "nonpayable",
      "type": "function",
      "signature": "0x284d30ef"
    },
    {
      "inputs": [
        {
          "internalType": "address",
          "name": "_contract",
          "type": "address"
        }
      ],
      "name": "authorizeContract",
      "outputs": [],
      "stateMutability": "nonpayable",
      "type": "function",
      "signature": "0x67561d93"
    },
    {
      "inputs": [
        {
          "internalType": "address",
          "name": "_contract",
          "type": "address"
        }
      ],
      "name": "deauthorizeContract",
      "outputs": [],
      "stateMutability": "nonpayable",
      "type": "function",
      "signature": "0x6e861c0e"
    },
    {
      "inputs": [
        {
          "internalType": "address",
          "name": "_impl",
          "type": "address"
        },
        {
          "internalType": "address",
          "name": "_proxy",
          "type": "address"
        }
      ],
      "name": "submitUpgradeProposal",
      "outputs": [],
      "stateMutability": "nonpayable",
      "type": "function",
      "signature": "0x8a11ddfd"
    },
    {
      "inputs": [
        {
          "internalType": "bytes32",
          "name": "_proposalHash",
          "type": "bytes32"
        }
      ],
      "name": "executeProposal",
      "outputs": [],
      "stateMutability": "nonpayable",
      "type": "function",
      "signature": "0x980ff6c6"
    },
    {
      "inputs": [
        {
          "internalType": "address",
          "name": "_to",
          "type": "address"
        },
        {
          "internalType": "bytes",
          "name": "_data",
          "type": "bytes"
        }
      ],
      "name": "submitViaMultiSig",
      "outputs": [
        {
          "internalType": "bytes32",
          "name": "",
          "type": "bytes32"
        }
      ],
      "stateMutability": "nonpayable",
      "type": "function",
      "signature": "0x7e77aaf0"
    }
  ],
  "bytecode": "0x60c060405230608052348015610013575f80fd5b50604051611ba3380380611ba383398101604081905261003291610058565b6001600160a01b031660a0819052603280546001600160a01b0319169091179055610085565b5f60208284031215610068575f80fd5b81516001600160a01b038116811461007e575f80fd5b9392505050565b60805160a051611ae16100c25f395f81816102880152818161033a01526113fd01525f81816111350152818161115e015261136d0152611ae15ff3fe60806040526004361061013c575f3560e01c80636e861c0e116100b35780639e97b8f61161006d5780639e97b8f6146103da578063ad3cb1cc146103f9578063b58131b014610436578063d33219b41461044b578063d5b9221b1461046a578063da35c66414610498575f80fd5b80636e861c0e1461030d5780637da0a8771461032c5780637e77aaf01461035e5780638a11ddfd1461037d57806391d148541461039c578063980ff6c6146103bb575f80fd5b80634b8feb4f116101045780634b8feb4f146102185780634f1ef2861461023757806352d1902d1461024a578063572b6c051461026c5780635c975abb146102b857806367561d93146102ee575f80fd5b806313007d551461014057806324d7806c1461017b578063284d30ef146101aa5780633566414c146101cb578063485cc955146101f9575b5f80fd5b34801561014b575f80fd5b505f5461015e906001600160a01b031681565b6040516001600160a01b0390911681526020015b60405180910390f35b348015610186575f80fd5b5061019a6101953660046116c6565b6104ad565b6040519015158152602001610172565b3480156101b5575f80fd5b506101c96101c43660046116c6565b610524565b005b3480156101d6575f80fd5b5061019a6101e53660046116df565b60356020525f908152604090205460ff1681565b348015610204575f80fd5b506101c96102133660046116f6565b610701565b348015610223575f80fd5b5060335461015e906001600160a01b031681565b6101c961024536600461173b565b6108b5565b348015610255575f80fd5b5061025e6108d4565b604051908152602001610172565b348015610277575f80fd5b5061019a6102863660046116c6565b7f00000000000000000000000000000000000000000000000000000000000000006001600160a01b0390811691161490565b3480156102c3575f80fd5b507fcd5ed15c6e187e77e9aee88184c21f4f2182ab5827cb3b7e07fbedcd63f033005460ff1661019a565b3480156102f9575f80fd5b506101c96103083660046116c6565b6108ef565b348015610318575f80fd5b506101c96103273660046116c6565b6109de565b348015610337575f80fd5b507f000000000000000000000000000000000000000000000000000000000000000061015e565b348015610369575f80fd5b5061025e61037836600461173b565b610aca565b348015610388575f80fd5b506101c96103973660046116f6565b610c9a565b3480156103a7575f80fd5b5061019a6103b63660046117f7565b610eb9565b3480156103c6575f80fd5b506101c96103d53660046116df565b610f34565b3480156103e5575f80fd5b5061019a6103f4366004611818565b611049565b348015610404575f80fd5b50610429604051806040016040528060058152602001640352e302e360dc1b81525081565b6040516101729190611884565b348015610441575f80fd5b5061025e60375481565b348015610456575f80fd5b5060345461015e906001600160a01b031681565b348015610475575f80fd5b5061019a6104843660046116c6565b60366020525f908152604090205460ff1681565b3480156104a3575f80fd5b5061025e60385481565b5f8054604051634f4bdc7b60e11b81526001600160a01b0390911690639e97b8f6906104df9084908690600401611896565b602060405180830381865afa1580156104fa573d5f803e3d5ffd5b505050506040513d601f19601f8201168201806040525081019061051e91906118ce565b92915050565b5f80546001600160a01b031690639e97b8f69061053f61107b565b6040518363ffffffff1660e01b815260040161055c929190611896565b602060405180830381865afa158015610577573d5f803e3d5ffd5b505050506040513d601f19601f8201168201806040525081019061059b91906118ce565b6105f75760405162461bcd60e51b815260206004820152602260248201527f416363657373436f6e74726f6c3a20726573747269637465642d746f2d61646d60448201526134b760f11b60648201526084015b60405180910390fd5b6001600160a01b03811661061e5760405163e6c4247b60e01b815260040160405180910390fd5b806001600160a01b0316632f54bf6e61063561107b565b6040516001600160e01b031960e084901b1681526001600160a01b039091166004820152602401602060405180830381865afa158015610677573d5f803e3d5ffd5b505050506040513d601f19601f8201168201806040525081019061069b91906118ce565b6106b857604051630cdf99e760e01b815260040160405180910390fd5b603380546001600160a01b0319166001600160a01b0383169081179091556040517f7ca1bb3a0b8a33b929834f1be025e2a6c15b7273b9f8efc6978a86d84af395cc905f90a250565b7ff0c57e16840df040f15088dc2f81fe391c3923bec73e23a9662efc9c229c6a008054600160401b810460ff16159067ffffffffffffffff165f811580156107465750825b90505f8267ffffffffffffffff1660011480156107625750303b155b905081158015610770575080155b1561078e5760405163f92ee8a960e01b815260040160405180910390fd5b845467ffffffffffffffff1916600117855583156107b857845460ff60401b1916600160401b1785555b6107c0611089565b6107c98661109b565b6107d1611122565b6001600160a01b03871661081b5760405162461bcd60e51b8152602060048201526011602482015270496e76616c6964206d756c74692d73696760781b60448201526064016105ee565b603380546001600160a01b0319166001600160a01b03891690811790915560026037556040517f7ca1bb3a0b8a33b929834f1be025e2a6c15b7273b9f8efc6978a86d84af395cc905f90a283156108ac57845460ff60401b19168555604051600181527fc7f505b2f371ae2175ee4913f4499e1f2633a7b5936321eed1cdaeb6115181d29060200160405180910390a15b50505050505050565b6108bd61112a565b6108c6826111ce565b6108d082826112a1565b5050565b5f6108dd611362565b505f80516020611a8c83398151915290565b6033546001600160a01b0316632f54bf6e61090861107b565b6040516001600160e01b031960e084901b1681526001600160a01b039091166004820152602401602060405180830381865afa15801561094a573d5f803e3d5ffd5b505050506040513d601f19601f8201168201806040525081019061096e91906118ce565b61098b57604051630cdf99e760e01b815260040160405180910390fd5b6109936113ab565b6001600160a01b0381165f81815260366020526040808220805460ff19166001179055517f8983a1f3c3cb45c24c8226b5b805e3b6eb49686530b808534b2a920129eff6519190a250565b6033546001600160a01b0316632f54bf6e6109f761107b565b6040516001600160e01b031960e084901b1681526001600160a01b039091166004820152602401602060405180830381865afa158015610a39573d5f803e3d5ffd5b505050506040513d601f19601f82011682018060405250810190610a5d91906118ce565b610a7a57604051630cdf99e760e01b815260040160405180910390fd5b610a826113ab565b6001600160a01b0381165f81815260366020526040808220805460ff19169055517f54142b7cb3ceaa9e564243ce4cc2303723c842a1144192de6b3c594f68b16a9a9190a250565b5f80546008906001600160a01b0316639e97b8f682610ae761107b565b6040518363ffffffff1660e01b8152600401610b04929190611896565b602060405180830381865afa158015610b1f573d5f803e3d5ffd5b505050506040513d601f19601f82011682018060405250810190610b4391906118ce565b610b5f5760405162461bcd60e51b81526004016105ee906118ed565b5f8054906101000a90046001600160a01b03166001600160a01b0316635c975abb6040518163ffffffff1660e01b8152600401602060405180830381865afa158015610bad573d5f803e3d5ffd5b505050506040513d601f19601f82011682018060405250810190610bd191906118ce565b15610c1e5760405162461bcd60e51b815260206004820152601b60248201527f4d6564695365637572652050726f746f636f6c3a20706175736564000000000060448201526064016105ee565b6033546040516331909d1d60e21b81526001600160a01b039091169063c642747490610c529087905f90889060040161192e565b6020604051808303815f875af1158015610c6e573d5f803e3d5ffd5b505050506040513d601f19601f82011682018060405250810190610c929190611954565b949350505050565b5f546008906001600160a01b0316639e97b8f682610cb661107b565b6040518363ffffffff1660e01b8152600401610cd3929190611896565b602060405180830381865afa158015610cee573d5f803e3d5ffd5b505050506040513d601f19601f82011682018060405250810190610d1291906118ce565b610d2e5760405162461bcd60e51b81526004016105ee906118ed565b5f8054906101000a90046001600160a01b03166001600160a01b0316635c975abb6040518163ffffffff1660e01b8152600401602060405180830381865afa158015610d7c573d5f803e3d5ffd5b505050506040513d601f19601f82011682018060405250810190610da091906118ce565b15610ded5760405162461bcd60e51b815260206004820152601b60248201527f4d6564695365637572652050726f746f636f6c3a20706175736564000000000060448201526064016105ee565b610df56113ab565b6001600160a01b0382165f9081526036602052604090205460ff16610e2d576040516335eddb9560e01b815260040160405180910390fd5b5f8383603854604051602001610e459392919061196b565b60408051601f198184030181529190528051602090910120603880549192505f610e6e836119c3565b9190505550826001600160a01b0316817f399d1d4371a507bea52263136afa2916358ccb4fcd6024298ea42659b1a2aec1604051610eab906119db565b60405180910390a350505050565b5f8054604051632474521560e21b8152600481018590526001600160a01b038481166024830152909116906391d14854906044015b602060405180830381865afa158015610f09573d5f803e3d5ffd5b505050506040513d601f19601f82011682018060405250810190610f2d91906118ce565b9392505050565b6033546001600160a01b0316632f54bf6e610f4d61107b565b6040516001600160e01b031960e084901b1681526001600160a01b039091166004820152602401602060405180830381865afa158015610f8f573d5f803e3d5ffd5b505050506040513d601f19601f82011682018060405250810190610fb391906118ce565b610fd057604051630cdf99e760e01b815260040160405180910390fd5b610fd86113ab565b5f8181526035602052604090205460ff161561100757604051630dc1019760e01b815260040160405180910390fd5b5f81815260356020526040808220805460ff191660011790555182917f7b1bcf1ccf901a11589afff5504d59fd0a53780eed2a952adade0348985139e091a250565b5f8054604051634f4bdc7b60e11b81526001600160a01b0390911690639e97b8f690610eee9086908690600401611896565b5f6110846113ee565b905090565b611091611461565b6110996114aa565b565b6110a3611461565b6110ab611122565b6001600160a01b0381166111015760405162461bcd60e51b815260206004820152601e60248201527f496e76616c69642061636365737320636f6e74726f6c2061646472657373000060448201526064016105ee565b5f80546001600160a01b0319166001600160a01b0392909216919091179055565b611099611461565b306001600160a01b037f00000000000000000000000000000000000000000000000000000000000000001614806111b057507f00000000000000000000000000000000000000000000000000000000000000006001600160a01b03166111a45f80516020611a8c833981519152546001600160a01b031690565b6001600160a01b031614155b156110995760405163703e46dd60e11b815260040160405180910390fd5b5f546001600160a01b0316639e97b8f660076111e861107b565b6040518363ffffffff1660e01b8152600401611205929190611896565b602060405180830381865afa158015611220573d5f803e3d5ffd5b505050506040513d601f19601f8201168201806040525081019061124491906118ce565b61129e5760405162461bcd60e51b815260206004820152602560248201527f416363657373436f6e74726f6c3a20726573747269637465642d746f2d7570676044820152643930b232b960d91b60648201526084016105ee565b50565b816001600160a01b03166352d1902d6040518163ffffffff1660e01b8152600401602060405180830381865afa9250505080156112fb575060408051601f3d908101601f191682019092526112f891810190611954565b60015b61132357604051634c9c8ce360e01b81526001600160a01b03831660048201526024016105ee565b5f80516020611a8c833981519152811461135357604051632a87526960e21b8152600481018290526024016105ee565b61135d83836114dd565b505050565b306001600160a01b037f000000000000000000000000000000000000000000000000000000000000000016146110995760405163703e46dd60e11b815260040160405180910390fd5b7fcd5ed15c6e187e77e9aee88184c21f4f2182ab5827cb3b7e07fbedcd63f033005460ff16156110995760405163d93c066560e01b815260040160405180910390fd5b5f366014336001600160a01b037f00000000000000000000000000000000000000000000000000000000000000001614801561142a5750808210155b15611459575f3661143b8385611a01565b611446928290611a14565b61144f91611a3b565b60601c9250505090565b339250505090565b7ff0c57e16840df040f15088dc2f81fe391c3923bec73e23a9662efc9c229c6a0054600160401b900460ff1661109957604051631afcd79f60e31b815260040160405180910390fd5b6114b2611461565b7fcd5ed15c6e187e77e9aee88184c21f4f2182ab5827cb3b7e07fbedcd63f03300805460ff19169055565b6114e682611532565b6040516001600160a01b038316907fbc7cd75a20ee27fd9adebab32041f755214dbc6bffa90cc0225b39da2e5c2d3b905f90a280511561152a5761135d8282611595565b6108d0611607565b806001600160a01b03163b5f0361156757604051634c9c8ce360e01b81526001600160a01b03821660048201526024016105ee565b5f80516020611a8c83398151915280546001600160a01b0319166001600160a01b0392909216919091179055565b60605f80846001600160a01b0316846040516115b19190611a70565b5f60405180830381855af49150503d805f81146115e9576040519150601f19603f3d011682016040523d82523d5f602084013e6115ee565b606091505b50915091506115fe858383611626565b95945050505050565b34156110995760405163b398979f60e01b815260040160405180910390fd5b60608261163b5761163682611682565b610f2d565b815115801561165257506001600160a01b0384163b155b1561167b57604051639996b31560e01b81526001600160a01b03851660048201526024016105ee565b5092915050565b8051156116925780518082602001fd5b604051630a12f52160e11b815260040160405180910390fd5b80356001600160a01b03811681146116c1575f80fd5b919050565b5f602082840312156116d6575f80fd5b610f2d826116ab565b5f602082840312156116ef575f80fd5b5035919050565b5f8060408385031215611707575f80fd5b611710836116ab565b915061171e602084016116ab565b90509250929050565b634e487b7160e01b5f52604160045260245ffd5b5f806040838503121561174c575f80fd5b611755836116ab565b9150602083013567ffffffffffffffff80821115611771575f80fd5b818501915085601f830112611784575f80fd5b81358181111561179657611796611727565b604051601f8201601f19908116603f011681019083821181831017156117be576117be611727565b816040528281528860208487010111156117d6575f80fd5b826020860160208301375f6020848301015280955050505050509250929050565b5f8060408385031215611808575f80fd5b8235915061171e602084016116ab565b5f8060408385031215611829575f80fd5b823560098110611710575f80fd5b5f5b83811015611851578181015183820152602001611839565b50505f910152565b5f8151808452611870816020860160208601611837565b601f01601f19169290920160200192915050565b602081525f610f2d6020830184611859565b60408101600984106118b657634e487b7160e01b5f52602160045260245ffd5b9281526001600160a01b039190911660209091015290565b5f602082840312156118de575f80fd5b81518015158114610f2d575f80fd5b60208082526021908201527f416363657373436f6e74726f6c3a20726573747269637465642d746f2d726f6c6040820152606560f81b606082015260800190565b60018060a01b0384168152826020820152606060408201525f6115fe6060830184611859565b5f60208284031215611964575f80fd5b5051919050565b6001600160a01b0384811682528316602082015260408101829052608060608201819052600790820152665550475241444560c81b60a08201525f60c082016115fe565b634e487b7160e01b5f52601160045260245ffd5b5f600182016119d4576119d46119af565b5060010190565b602081525f61051e6020830160078152665550475241444560c81b602082015260400190565b8181038181111561051e5761051e6119af565b5f8085851115611a22575f80fd5b83861115611a2e575f80fd5b5050820193919092039150565b6bffffffffffffffffffffffff198135818116916014851015611a685780818660140360031b1b83161692505b505092915050565b5f8251611a81818460208701611837565b919091019291505056fe360894a13ba1a3210667c828492db98dca3e2076cc3735a920a3ca505d382bbca26469706673582212200f50ff8ae3ca011811d30a6ccf2dec48840180f39e71aa3862fadd1f4f84d0a964736f6c63430008140033",
  "immutableReferences": {
    "585": [
      {
        "length": 32,
        "start": 648
      },
      {
        "length": 32,
        "start": 826
      },
      {
        "length": 32,
        "start": 5117
      }
    ],
    "992": [
      {
        "length": 32,
        "start": 4405
      },
      {
        "length": 32,
        "start": 4446
      },
      {
        "length": 32,
        "start": 4973
      }
    ]
  },
  "source": "// SPDX-License-Identifier: MIT\r\npragma solidity ^0.8.20;\r\n\r\nimport \"@openzeppelin/contracts-upgradeable/proxy/utils/Initializable.sol\";\r\nimport \"@openzeppelin/contracts-upgradeable/proxy/utils/UUPSUpgradeable.sol\";\r\nimport \"@openzeppelin/contracts-upgradeable/utils/PausableUpgradeable.sol\";\r\nimport \"@openzeppelin/contracts-upgradeable/utils/ContextUpgradeable.sol\";\r\nimport \"@openzeppelin/contracts-upgradeable/metatx/ERC2771ContextUpgradeable.sol\";\r\nimport \"./common/MediSecureAuthUpgradeable.sol\";\r\nimport {Roles} from \"./MediSecureAccessControl.sol\";\r\n\r\ninterface IMultiSigWallet {\r\n    function submitTransaction(address _to, uint256 _value, bytes calldata _data) external returns (bytes32);\r\n    function confirmTransaction(bytes32 _txHash) external;\r\n    function executeTransaction(bytes32 _txHash) external;\r\n    function isOwner(address _owner) external view returns (bool);\r\n    function getTransactionCount() external view returns (uint256);\r\n}\r\n\r\n/**\r\n * @title GovernanceManager\r\n * @dev UUPS Upgradeable governance manager for MediSecure protocol.\r\n */\r\ncontract GovernanceManager is Initializable, UUPSUpgradeable, PausableUpgradeable, MediSecureAuthUpgradeable, ERC2771ContextUpgradeable {\r\n    \r\n    address private _trustedForwarder;\r\n\r\n    /// @custom:oz-upgrades-unsafe-allow constructor\r\n    constructor(address forwarder) ERC2771ContextUpgradeable(forwarder) {\r\n        _trustedForwarder = forwarder;\r\n        // _disableInitializers();\r\n    }\r\n\r\n    // Overrides for Context/ERC2771Context to resolve conflicts\r\n    function _msgSender() internal view override(ContextUpgradeable, ERC2771ContextUpgradeable) returns (address) {\r\n        return ERC2771ContextUpgradeable._msgSender();\r\n    }\r\n\r\n    function _msgData() internal view override(ContextUpgradeable, ERC2771ContextUpgradeable) returns (bytes calldata) {\r\n        return ERC2771ContextUpgradeable._msgData();\r\n    }\r\n\r\n    function _contextSuffixLength() internal view override(ContextUpgradeable, ERC2771ContextUpgradeable) returns (uint256) {\r\n        return ERC2771ContextUpgradeable._contextSuffixLength();\r\n    }\r\n\r\n    IMultiSigWallet public multiSigWallet;\r\n    address public timelock;\r\n    \r\n    mapping(bytes32 => bool) public executedProposals;\r\n    mapping(address => bool) public authorizedContracts;\r\n    \r\n    uint256 public proposalThreshold;\r\n    uint256 public proposalCount;\r\n    \r\n    event ProposalCreated(bytes32 indexed proposalHash, address indexed target, string actionType);\r\n    event ProposalExecuted(bytes32 indexed proposalHash);\r\n    event ContractAuthorized(address indexed contract_);\r\n    event ContractDeauthorized(address indexed contract_);\r\n    event MultiSigUpdated(address indexed newMultiSig);\r\n\r\n    function initialize(address _multiSig, address _accessControl) public initializer {\r\n        __Pausable_init();\r\n        __MediSecureAuth_init(_accessControl);\r\n        __UUPSUpgradeable_init();\r\n        \r\n        require(_multiSig != address(0), \"Invalid multi-sig\");\r\n        multiSigWallet = IMultiSigWallet(_multiSig);\r\n        proposalThreshold = 2;\r\n        // GOVERNOR role for multiSig is granted post-deployment by the migration script\r\n        emit MultiSigUpdated(_multiSig);\r\n    }\r\n\r\n    function _authorizeUpgrade(address newImplementation) internal override onlyUpgrader() {}\r\n\r\n    // Custom Errors\r\n    error NotMultiSigOwner();\r\n    error InvalidAddress();\r\n    error ContractNotAuthorized();\r\n    error AlreadyExecuted();\r\n\r\n    modifier onlyMultiSig() {\r\n        if (!multiSigWallet.isOwner(_msgSender())) revert NotMultiSigOwner();\r\n        _;\r\n    }\r\n\r\n    function setMultiSig(address _multiSig) external onlyAdmin() {\r\n        if (_multiSig == address(0)) revert InvalidAddress();\r\n        if (!IMultiSigWallet(_multiSig).isOwner(_msgSender())) revert NotMultiSigOwner();\r\n        multiSigWallet = IMultiSigWallet(_multiSig);\r\n        emit MultiSigUpdated(_multiSig);\r\n    }\r\n\r\n    function authorizeContract(address _contract) external onlyMultiSig whenNotPaused {\r\n        authorizedContracts[_contract] = true;\r\n        emit ContractAuthorized(_contract);\r\n    }\r\n\r\n    function deauthorizeContract(address _contract) external onlyMultiSig whenNotPaused {\r\n        authorizedContracts[_contract] = false;\r\n        emit ContractDeauthorized(_contract);\r\n    }\r\n\r\n    function submitUpgradeProposal(address _impl, address _proxy) external onlyRoleName(Roles.GOVERNOR) whenNotPaused {\r\n        if (!authorizedContracts[_proxy]) revert ContractNotAuthorized();\r\n        \r\n        bytes32 proposalHash = keccak256(abi.encode(\r\n            _impl,\r\n            _proxy,\r\n            proposalCount,\r\n            \"UPGRADE\"\r\n        ));\r\n        \r\n        proposalCount++;\r\n        emit ProposalCreated(proposalHash, _proxy, \"UPGRADE\");\r\n    }\r\n\r\n    function executeProposal(bytes32 _proposalHash) external onlyMultiSig whenNotPaused {\r\n        if (executedProposals[_proposalHash]) revert AlreadyExecuted();\r\n        executedProposals[_proposalHash] = true;\r\n        emit ProposalExecuted(_proposalHash);\r\n    }\r\n\r\n    function submitViaMultiSig(address _to, bytes memory _data) external onlyRoleName(Roles.GOVERNOR) returns (bytes32) {\r\n        return multiSigWallet.submitTransaction(_to, 0, _data);\r\n    }\r\n\r\n    uint256[50] private __gap;\r\n}",
  "sourcePath": "C:\\Users\\night\\Downloads\\team-rocket-medi-secure\\team-rocket-medi-secure\\contracts\\contracts\\GovernanceManager.sol",
  "compiler": {
    "name": "solc",
    "version": "0.8.20+commit.a1b79de6.Emscripten.clang"
  },
  "schemaVersion": "3.4.16",
  "updatedAt": "2026-04-24T10:38:31.030Z",
  "networkType": "ethereum",
  "devdoc": {
    "details": "UUPS Upgradeable governance manager for MediSecure protocol.",
    "errors": {
      "AddressEmptyCode(address)": [
        {
          "details": "There's no code at `target` (it is not a contract)."
        }
      ],
      "ERC1967InvalidImplementation(address)": [
        {
          "details": "The `implementation` of the proxy is invalid."
        }
      ],
      "ERC1967NonPayable()": [
        {
          "details": "An upgrade function sees `msg.value > 0` that may be lost."
        }
      ],
      "EnforcedPause()": [
        {
          "details": "The operation failed because the contract is paused."
        }
      ],
      "ExpectedPause()": [
        {
          "details": "The operation failed because the contract is not paused."
        }
      ],
      "FailedInnerCall()": [
        {
          "details": "A call to an address target failed. The target may have reverted."
        }
      ],
      "InvalidInitialization()": [
        {
          "details": "The contract is already initialized."
        }
      ],
      "NotInitializing()": [
        {
          "details": "The contract is not initializing."
        }
      ],
      "UUPSUnauthorizedCallContext()": [
        {
          "details": "The call is from an unauthorized context."
        }
      ],
      "UUPSUnsupportedProxiableUUID(bytes32)": [
        {
          "details": "The storage `slot` is unsupported as a UUID."
        }
      ]
    },
    "events": {
      "Initialized(uint64)": {
        "details": "Triggered when the contract has been initialized or reinitialized."
      },
      "Paused(address)": {
        "details": "Emitted when the pause is triggered by `account`."
      },
      "Unpaused(address)": {
        "details": "Emitted when the pause is lifted by `account`."
      },
      "Upgraded(address)": {
        "details": "Emitted when the implementation is upgraded."
      }
    },
    "kind": "dev",
    "methods": {
      "constructor": {
        "custom:oz-upgrades-unsafe-allow": "constructor"
      },
      "isTrustedForwarder(address)": {
        "details": "Indicates whether any particular address is the trusted forwarder."
      },
      "paused()": {
        "details": "Returns true if the contract is paused, and false otherwise."
      },
      "proxiableUUID()": {
        "details": "Implementation of the ERC1822 {proxiableUUID} function. This returns the storage slot used by the implementation. It is used to validate the implementation's compatibility when performing an upgrade. IMPORTANT: A proxy pointing at a proxiable contract should not be considered proxiable itself, because this risks bricking a proxy that upgrades to it, by delegating to itself until out of gas. Thus it is critical that this function revert if invoked through a proxy. This is guaranteed by the `notDelegated` modifier."
      },
      "trustedForwarder()": {
        "details": "Returns the address of the trusted forwarder."
      },
      "upgradeToAndCall(address,bytes)": {
        "custom:oz-upgrades-unsafe-allow-reachable": "delegatecall",
        "details": "Upgrade the implementation of the proxy to `newImplementation`, and subsequently execute the function call encoded in `data`. Calls {_authorizeUpgrade}. Emits an {Upgraded} event."
      }
    },
    "title": "GovernanceManager",
    "version": 1
  },
  "userdoc": {
    "kind": "user",
    "methods": {},
    "version": 1
  },
  "timeoutBlocks": 500,
  "numberFormat": "BN"
}