{
  "contractName": "HandoffManager",
  "abi": [
    {
      "inputs": [
        {
          "internalType": "address",
          "name": "_accessControl",
          "type": "address"
        },
        {
          "internalType": "address",
          "name": "_forwarder",
          "type": "address"
        }
      ],
      "stateMutability": "nonpayable",
      "type": "constructor",
      "signature": "constructor"
    },
    {
      "anonymous": false,
      "inputs": [
        {
          "indexed": true,
          "internalType": "uint256",
          "name": "id",
          "type": "uint256"
        },
        {
          "indexed": true,
          "internalType": "address",
          "name": "reliefNurse",
          "type": "address"
        },
        {
          "indexed": false,
          "internalType": "uint256",
          "name": "timestamp",
          "type": "uint256"
        }
      ],
      "name": "HandoffFinalized",
      "type": "event",
      "signature": "0x599aab36b01682f611fb9922fe50e1f76f391a53ef5dfdb65c491fed2ea2333e"
    },
    {
      "anonymous": false,
      "inputs": [
        {
          "indexed": true,
          "internalType": "uint256",
          "name": "id",
          "type": "uint256"
        },
        {
          "indexed": true,
          "internalType": "address",
          "name": "patient",
          "type": "address"
        },
        {
          "indexed": true,
          "internalType": "address",
          "name": "offGoingNurse",
          "type": "address"
        },
        {
          "indexed": false,
          "internalType": "string",
          "name": "reportIpfsHash",
          "type": "string"
        }
      ],
      "name": "HandoffInitiated",
      "type": "event",
      "signature": "0xd905c5b56a884303bbedecf5590b6a7713434c6d6f9864866b430c960f7d15f5"
    },
    {
      "inputs": [],
      "name": "accessControl",
      "outputs": [
        {
          "internalType": "contract MediSecureAccessControl",
          "name": "",
          "type": "address"
        }
      ],
      "stateMutability": "view",
      "type": "function",
      "constant": true,
      "signature": "0x13007d55"
    },
    {
      "inputs": [],
      "name": "handoffCount",
      "outputs": [
        {
          "internalType": "uint256",
          "name": "",
          "type": "uint256"
        }
      ],
      "stateMutability": "view",
      "type": "function",
      "constant": true,
      "signature": "0x934adb19"
    },
    {
      "inputs": [
        {
          "internalType": "uint256",
          "name": "",
          "type": "uint256"
        }
      ],
      "name": "handoffs",
      "outputs": [
        {
          "internalType": "uint256",
          "name": "id",
          "type": "uint256"
        },
        {
          "internalType": "address",
          "name": "patient",
          "type": "address"
        },
        {
          "internalType": "address",
          "name": "offGoingNurse",
          "type": "address"
        },
        {
          "internalType": "address",
          "name": "onComingNurse",
          "type": "address"
        },
        {
          "internalType": "string",
          "name": "reportIpfsHash",
          "type": "string"
        },
        {
          "internalType": "uint256",
          "name": "startTime",
          "type": "uint256"
        },
        {
          "internalType": "uint256",
          "name": "endTime",
          "type": "uint256"
        },
        {
          "internalType": "bool",
          "name": "isComplete",
          "type": "bool"
        },
        {
          "internalType": "string",
          "name": "status",
          "type": "string"
        }
      ],
      "stateMutability": "view",
      "type": "function",
      "constant": true,
      "signature": "0x8fdb6994"
    },
    {
      "inputs": [
        {
          "internalType": "bytes32",
          "name": "role",
          "type": "bytes32"
        },
        {
          "internalType": "address",
          "name": "account",
          "type": "address"
        }
      ],
      "name": "hasRole",
      "outputs": [
        {
          "internalType": "bool",
          "name": "",
          "type": "bool"
        }
      ],
      "stateMutability": "view",
      "type": "function",
      "constant": true,
      "signature": "0x91d14854"
    },
    {
      "inputs": [
        {
          "internalType": "enum Roles",
          "name": "role",
          "type": "uint8"
        },
        {
          "internalType": "address",
          "name": "account",
          "type": "address"
        }
      ],
      "name": "hasRole",
      "outputs": [
        {
          "internalType": "bool",
          "name": "",
          "type": "bool"
        }
      ],
      "stateMutability": "view",
      "type": "function",
      "constant": true,
      "signature": "0x9e97b8f6"
    },
    {
      "inputs": [
        {
          "internalType": "address",
          "name": "account",
          "type": "address"
        }
      ],
      "name": "isAdmin",
      "outputs": [
        {
          "internalType": "bool",
          "name": "",
          "type": "bool"
        }
      ],
      "stateMutability": "view",
      "type": "function",
      "constant": true,
      "signature": "0x24d7806c"
    },
    {
      "inputs": [
        {
          "internalType": "address",
          "name": "forwarder",
          "type": "address"
        }
      ],
      "name": "isTrustedForwarder",
      "outputs": [
        {
          "internalType": "bool",
          "name": "",
          "type": "bool"
        }
      ],
      "stateMutability": "view",
      "type": "function",
      "constant": true,
      "signature": "0x572b6c05"
    },
    {
      "inputs": [],
      "name": "trustedForwarder",
      "outputs": [
        {
          "internalType": "address",
          "name": "",
          "type": "address"
        }
      ],
      "stateMutability": "view",
      "type": "function",
      "constant": true,
      "signature": "0x7da0a877"
    },
    {
      "inputs": [
        {
          "internalType": "address",
          "name": "patient",
          "type": "address"
        },
        {
          "internalType": "string",
          "name": "reportIpfsHash",
          "type": "string"
        }
      ],
      "name": "initiateHandoff",
      "outputs": [
        {
          "internalType": "uint256",
          "name": "",
          "type": "uint256"
        }
      ],
      "stateMutability": "nonpayable",
      "type": "function",
      "signature": "0x752f2e63"
    },
    {
      "inputs": [
        {
          "internalType": "uint256",
          "name": "handoffId",
          "type": "uint256"
        }
      ],
      "name": "finalizeHandoff",
      "outputs": [],
      "stateMutability": "nonpayable",
      "type": "function",
      "signature": "0x7d7a5cc1"
    },
    {
      "inputs": [
        {
          "internalType": "uint256",
          "name": "id",
          "type": "uint256"
        }
      ],
      "name": "getHandoff",
      "outputs": [
        {
          "components": [
            {
              "internalType": "uint256",
              "name": "id",
              "type": "uint256"
            },
            {
              "internalType": "address",
              "name": "patient",
              "type": "address"
            },
            {
              "internalType": "address",
              "name": "offGoingNurse",
              "type": "address"
            },
            {
              "internalType": "address",
              "name": "onComingNurse",
              "type": "address"
            },
            {
              "internalType": "string",
              "name": "reportIpfsHash",
              "type": "string"
            },
            {
              "internalType": "uint256",
              "name": "startTime",
              "type": "uint256"
            },
            {
              "internalType": "uint256",
              "name": "endTime",
              "type": "uint256"
            },
            {
              "internalType": "bool",
              "name": "isComplete",
              "type": "bool"
            },
            {
              "internalType": "string",
              "name": "status",
              "type": "string"
            }
          ],
          "internalType": "struct HandoffManager.HandoffSession",
          "name": "",
          "type": "tuple"
        }
      ],
      "stateMutability": "view",
      "type": "function",
      "constant": true,
      "signature": "0xff036753"
    },
    {
      "inputs": [
        {
          "internalType": "address",
          "name": "patient",
          "type": "address"
        }
      ],
      "name": "getPatientHandoffHistory",
      "outputs": [
        {
          "components": [
            {
              "internalType": "uint256",
              "name": "id",
              "type": "uint256"
            },
            {
              "internalType": "address",
              "name": "patient",
              "type": "address"
            },
            {
              "internalType": "address",
              "name": "offGoingNurse",
              "type": "address"
            },
            {
              "internalType": "address",
              "name": "onComingNurse",
              "type": "address"
            },
            {
              "internalType": "string",
              "name": "reportIpfsHash",
              "type": "string"
            },
            {
              "internalType": "uint256",
              "name": "startTime",
              "type": "uint256"
            },
            {
              "internalType": "uint256",
              "name": "endTime",
              "type": "uint256"
            },
            {
              "internalType": "bool",
              "name": "isComplete",
              "type": "bool"
            },
            {
              "internalType": "string",
              "name": "status",
              "type": "string"
            }
          ],
          "internalType": "struct HandoffManager.HandoffSession[]",
          "name": "",
          "type": "tuple[]"
        }
      ],
      "stateMutability": "view",
      "type": "function",
      "constant": true,
      "signature": "0x22e2b993"
    }
  ],
  "bytecode": "0x60a060405234801561000f575f80fd5b5060405161142038038061142083398101604081905261002e91610086565b6001600160a01b0380821660805282908290821615610062575f80546001600160a01b0319166001600160a01b0384161790555b505050506100b7565b80516001600160a01b0381168114610081575f80fd5b919050565b5f8060408385031215610097575f80fd5b6100a08361006b565b91506100ae6020840161006b565b90509250929050565b6080516113436100dd5f395f81816101370152818161019f0152610c8d01526113435ff3fe608060405234801561000f575f80fd5b50600436106100b1575f3560e01c80637da0a8771161006e5780637da0a8771461019d5780638fdb6994146101c357806391d14854146101eb578063934adb19146101fe5780639e97b8f614610207578063ff0367531461021a575f80fd5b806313007d55146100b557806322e2b993146100e457806324d7806c14610104578063572b6c0514610127578063752f2e63146101675780637d7a5cc114610188575b5f80fd5b5f546100c7906001600160a01b031681565b6040516001600160a01b0390911681526020015b60405180910390f35b6100f76100f2366004610d77565b61023a565b6040516100db9190610e90565b610117610112366004610d77565b6104f9565b60405190151581526020016100db565b610117610135366004610d77565b7f00000000000000000000000000000000000000000000000000000000000000006001600160a01b0390811691161490565b61017a610175366004610f04565b610570565b6040519081526020016100db565b61019b610196366004610fc0565b61071c565b005b7f00000000000000000000000000000000000000000000000000000000000000006100c7565b6101d66101d1366004610fc0565b6108c3565b6040516100db99989796959493929190610fd7565b6101176101f936600461104a565b610a2f565b61017a60025481565b610117610215366004611074565b610aaa565b61022d610228366004610fc0565b610adc565b6040516100db91906110a1565b60605f60015b600254811161028d575f81815260016020819052604090912001546001600160a01b0380861691160361027b5781610277816110c7565b9250505b80610285816110c7565b915050610240565b505f8167ffffffffffffffff8111156102a8576102a8610ef0565b6040519080825280602002602001820160405280156102e157816020015b6102ce610cfa565b8152602001906001900390816102c65790505b5090505f60015b60025481116104ef575f81815260016020819052604090912001546001600160a01b038088169116036104dd575f8181526001602081815260409283902083516101208101855281548152928101546001600160a01b03908116928401929092526002810154821693830193909352600383015416606082015260048201805491929160808401919061037a906110df565b80601f01602080910402602001604051908101604052809291908181526020018280546103a6906110df565b80156103f15780601f106103c8576101008083540402835291602001916103f1565b820191905f5260205f20905b8154815290600101906020018083116103d457829003601f168201915b50505091835250506005820154602082015260068201546040820152600782015460ff1615156060820152600882018054608090920191610431906110df565b80601f016020809104026020016040519081016040528092919081815260200182805461045d906110df565b80156104a85780601f1061047f576101008083540402835291602001916104a8565b820191905f5260205f20905b81548152906001019060200180831161048b57829003601f168201915b5050505050815250508383815181106104c3576104c3611117565b602002602001018190525081806104d9906110c7565b9250505b806104e7816110c7565b9150506102e8565b5090949350505050565b5f8054604051634f4bdc7b60e11b81526001600160a01b0390911690639e97b8f69061052b908490869060040161112b565b602060405180830381865afa158015610546573d5f803e3d5ffd5b505050506040513d601f19601f8201168201806040525081019061056a9190611163565b92915050565b600280545f9182610580836110c7565b91905055506040518061012001604052806002548152602001846001600160a01b031681526020016105b0610c87565b6001600160a01b0390811682525f6020808401829052604080850188905242606080870191909152608080870185905260a0870185905282518084018452600781526650454e44494e4760c81b8186015260c090970196909652600280548552600180855294839020885181559388015194840180549587166001600160a01b0319968716179055918701519183018054928616928516929092179091558501516003820180549190941692169190911790915590820151600482019061067790826111d0565b5060a0820151600582015560c0820151600682015560e082015160078201805460ff191691151591909117905561010082015160088201906106b990826111d0565b509050506106c5610c87565b6001600160a01b0316836001600160a01b03166002547fd905c5b56a884303bbedecf5590b6a7713434c6d6f9864866b430c960f7d15f58560405161070a919061128c565b60405180910390a45060025492915050565b5f818152600160205260409020600781015460ff16156107835760405162461bcd60e51b815260206004820152601960248201527f48616e646f666620616c72656164792066696e616c697a65640000000000000060448201526064015b60405180910390fd5b61078b610c87565b60028201546001600160a01b039182169116036108055760405162461bcd60e51b815260206004820152603260248201527f52656c696566206e757273652063616e6e6f74206265207468652073616d65206044820152716173206f66662d676f696e67206e7572736560701b606482015260840161077a565b61080d610c87565b6003820180546001600160a01b0319166001600160a01b039290921691909117905542600682015560078101805460ff1916600117905560408051808201909152600981526810d3d354131155115160ba1b6020820152600882019061087390826111d0565b5061087c610c87565b6001600160a01b0316827f599aab36b01682f611fb9922fe50e1f76f391a53ef5dfdb65c491fed2ea2333e426040516108b791815260200190565b60405180910390a35050565b600160208190525f9182526040909120805491810154600282015460038301546004840180546001600160a01b0394851695938516949092169291610907906110df565b80601f0160208091040260200160405190810160405280929190818152602001828054610933906110df565b801561097e5780601f106109555761010080835404028352916020019161097e565b820191905f5260205f20905b81548152906001019060200180831161096157829003601f168201915b5050506005840154600685015460078601546008870180549697939692955060ff9091169350906109ae906110df565b80601f01602080910402602001604051908101604052809291908181526020018280546109da906110df565b8015610a255780601f106109fc57610100808354040283529160200191610a25565b820191905f5260205f20905b815481529060010190602001808311610a0857829003601f168201915b5050505050905089565b5f8054604051632474521560e21b8152600481018590526001600160a01b038481166024830152909116906391d14854906044015b602060405180830381865afa158015610a7f573d5f803e3d5ffd5b505050506040513d601f19601f82011682018060405250810190610aa39190611163565b9392505050565b5f8054604051634f4bdc7b60e11b81526001600160a01b0390911690639e97b8f690610a64908690869060040161112b565b610ae4610cfa565b5f8281526001602081815260409283902083516101208101855281548152928101546001600160a01b039081169284019290925260028101548216938301939093526003830154166060820152600482018054919291608084019190610b49906110df565b80601f0160208091040260200160405190810160405280929190818152602001828054610b75906110df565b8015610bc05780601f10610b9757610100808354040283529160200191610bc0565b820191905f5260205f20905b815481529060010190602001808311610ba357829003601f168201915b50505091835250506005820154602082015260068201546040820152600782015460ff1615156060820152600882018054608090920191610c00906110df565b80601f0160208091040260200160405190810160405280929190818152602001828054610c2c906110df565b8015610c775780601f10610c4e57610100808354040283529160200191610c77565b820191905f5260205f20905b815481529060010190602001808311610c5a57829003601f168201915b5050505050815250509050919050565b5f3660147f00000000000000000000000000000000000000000000000000000000000000006001600160a01b031633148015610cc35750808210155b15610cf2575f36610cd4838561129e565b610cdf9282906112b1565b610ce8916112d8565b60601c9250505090565b339250505090565b6040518061012001604052805f81526020015f6001600160a01b031681526020015f6001600160a01b031681526020015f6001600160a01b03168152602001606081526020015f81526020015f81526020015f15158152602001606081525090565b80356001600160a01b0381168114610d72575f80fd5b919050565b5f60208284031215610d87575f80fd5b610aa382610d5c565b5f81518084525f5b81811015610db457602081850181015186830182015201610d98565b505f602082860101526020601f19601f83011685010191505092915050565b5f610120825184526020830151610df560208601826001600160a01b03169052565b506040830151610e1060408601826001600160a01b03169052565b506060830151610e2b60608601826001600160a01b03169052565b506080830151816080860152610e4382860182610d90565b91505060a083015160a085015260c083015160c085015260e0830151610e6d60e086018215159052565b506101008084015185830382870152610e868382610d90565b9695505050505050565b5f602080830181845280855180835260408601915060408160051b87010192508387015f5b82811015610ee357603f19888603018452610ed1858351610dd3565b94509285019290850190600101610eb5565b5092979650505050505050565b634e487b7160e01b5f52604160045260245ffd5b5f8060408385031215610f15575f80fd5b610f1e83610d5c565b9150602083013567ffffffffffffffff80821115610f3a575f80fd5b818501915085601f830112610f4d575f80fd5b813581811115610f5f57610f5f610ef0565b604051601f8201601f19908116603f01168101908382118183101715610f8757610f87610ef0565b81604052828152886020848701011115610f9f575f80fd5b826020860160208301375f6020848301015280955050505050509250929050565b5f60208284031215610fd0575f80fd5b5035919050565b8981526001600160a01b038981166020830152888116604083015287166060820152610120608082018190525f9061101183820189610d90565b90508660a08401528560c084015284151560e084015282810361010084015261103a8185610d90565b9c9b505050505050505050505050565b5f806040838503121561105b575f80fd5b8235915061106b60208401610d5c565b90509250929050565b5f8060408385031215611085575f80fd5b823560098110611093575f80fd5b915061106b60208401610d5c565b602081525f610aa36020830184610dd3565b634e487b7160e01b5f52601160045260245ffd5b5f600182016110d8576110d86110b3565b5060010190565b600181811c908216806110f357607f821691505b60208210810361111157634e487b7160e01b5f52602260045260245ffd5b50919050565b634e487b7160e01b5f52603260045260245ffd5b604081016009841061114b57634e487b7160e01b5f52602160045260245ffd5b9281526001600160a01b039190911660209091015290565b5f60208284031215611173575f80fd5b81518015158114610aa3575f80fd5b601f8211156111cb575f81815260208120601f850160051c810160208610156111a85750805b601f850160051c820191505b818110156111c7578281556001016111b4565b5050505b505050565b815167ffffffffffffffff8111156111ea576111ea610ef0565b6111fe816111f884546110df565b84611182565b602080601f831160018114611231575f841561121a5750858301515b5f19600386901b1c1916600185901b1785556111c7565b5f85815260208120601f198616915b8281101561125f57888601518255948401946001909101908401611240565b508582101561127c57878501515f19600388901b60f8161c191681555b5050505050600190811b01905550565b602081525f610aa36020830184610d90565b8181038181111561056a5761056a6110b3565b5f80858511156112bf575f80fd5b838611156112cb575f80fd5b5050820193919092039150565b6bffffffffffffffffffffffff1981358181169160148510156113055780818660140360031b1b83161692505b50509291505056fea2646970667358221220018967818f6602fd702793716fa6fd559c30b2781050321e558e408c92edfffa64736f6c63430008140033",
  "immutableReferences": {
    "4782": [
      {
        "length": 32,
        "start": 311
      },
      {
        "length": 32,
        "start": 415
      },
      {
        "length": 32,
        "start": 3213
      }
    ]
  },
  "source": "// SPDX-License-Identifier: MIT\npragma solidity ^0.8.20;\n\nimport \"./common/MediSecureAuth.sol\";\nimport {Roles} from \"./MediSecureAccessControl.sol\";\n\n/**\n * @title HandoffManager\n * @dev Manages the legal transfer of clinical responsibility between healthcare providers (Nurses/Doctors).\n */\ncontract HandoffManager is MediSecureAuth {\n    \n    struct HandoffSession {\n        uint256 id;\n        address patient;\n        address offGoingNurse;\n        address onComingNurse;\n        string reportIpfsHash; \n        uint256 startTime;\n        uint256 endTime;\n        bool isComplete;\n        string status; \n    }\n\n    mapping(uint256 => HandoffSession) public handoffs;\n    uint256 public handoffCount;\n\n    // Events\n    event HandoffInitiated(uint256 indexed id, address indexed patient, address indexed offGoingNurse, string reportIpfsHash);\n    event HandoffFinalized(uint256 indexed id, address indexed reliefNurse, uint256 timestamp);\n\n    constructor(address _accessControl, address _forwarder) MediSecureAuth(_accessControl, _forwarder) {}\n\n    function initiateHandoff(address patient, string memory reportIpfsHash) public returns (uint256) {\n        handoffCount++;\n        handoffs[handoffCount] = HandoffSession({\n            id: handoffCount,\n            patient: patient,\n            offGoingNurse: _msgSender(),\n            onComingNurse: address(0),\n            reportIpfsHash: reportIpfsHash,\n            startTime: block.timestamp,\n            endTime: 0,\n            isComplete: false,\n            status: \"PENDING\"\n        });\n\n        emit HandoffInitiated(handoffCount, patient, _msgSender(), reportIpfsHash);\n        return handoffCount;\n    }\n\n    function finalizeHandoff(uint256 handoffId) public {\n        HandoffSession storage session = handoffs[handoffId];\n        require(!session.isComplete, \"Handoff already finalized\");\n        require(session.offGoingNurse != _msgSender(), \"Relief nurse cannot be the same as off-going nurse\");\n\n        session.onComingNurse = _msgSender();\n        session.endTime = block.timestamp;\n        session.isComplete = true;\n        session.status = \"COMPLETED\";\n\n        emit HandoffFinalized(handoffId, _msgSender(), block.timestamp);\n    }\n\n    function getHandoff(uint256 id) public view returns (HandoffSession memory) {\n        return handoffs[id];\n    }\n\n    function getPatientHandoffHistory(address patient) public view returns (HandoffSession[] memory) {\n        uint256 count = 0;\n        for (uint256 i = 1; i <= handoffCount; i++) {\n            if (handoffs[i].patient == patient) {\n                count++;\n            }\n        }\n\n        HandoffSession[] memory history = new HandoffSession[](count);\n        uint256 cursor = 0;\n        for (uint256 i = 1; i <= handoffCount; i++) {\n            if (handoffs[i].patient == patient) {\n                history[cursor] = handoffs[i];\n                cursor++;\n            }\n        }\n        return history;\n    }\n}\n",
  "sourcePath": "/home/ayush/Desktop/code/Sanjeevni/contracts/contracts/HandoffManager.sol",
  "compiler": {
    "name": "solc",
    "version": "0.8.20+commit.a1b79de6.Emscripten.clang"
  },
  "schemaVersion": "3.4.16",
  "updatedAt": "2026-04-13T22:12:39.912Z",
  "networkType": "ethereum",
  "devdoc": {
    "details": "Manages the legal transfer of clinical responsibility between healthcare providers (Nurses/Doctors).",
    "kind": "dev",
    "methods": {
      "isTrustedForwarder(address)": {
        "details": "Indicates whether any particular address is the trusted forwarder."
      },
      "trustedForwarder()": {
        "details": "Returns the address of the trusted forwarder."
      }
    },
    "title": "HandoffManager",
    "version": 1
  },
  "userdoc": {
    "kind": "user",
    "methods": {},
    "version": 1
  },
  "timeoutBlocks": 500
}