{
  "contractName": "Insurance",
  "abi": [
    {
      "inputs": [
        {
          "internalType": "address",
          "name": "_forwarder",
          "type": "address"
        },
        {
          "internalType": "address",
          "name": "_vrfCoordinator",
          "type": "address"
        }
      ],
      "stateMutability": "nonpayable",
      "type": "constructor",
      "signature": "constructor"
    },
    {
      "inputs": [
        {
          "internalType": "address",
          "name": "target",
          "type": "address"
        }
      ],
      "name": "AddressEmptyCode",
      "type": "error"
    },
    {
      "inputs": [],
      "name": "AlreadyFinalized",
      "type": "error"
    },
    {
      "inputs": [],
      "name": "AlreadyProcessed",
      "type": "error"
    },
    {
      "inputs": [],
      "name": "AlreadyRegistered",
      "type": "error"
    },
    {
      "inputs": [],
      "name": "AlreadySettled",
      "type": "error"
    },
    {
      "inputs": [],
      "name": "AlreadyVerified",
      "type": "error"
    },
    {
      "inputs": [
        {
          "internalType": "address",
          "name": "implementation",
          "type": "address"
        }
      ],
      "name": "ERC1967InvalidImplementation",
      "type": "error"
    },
    {
      "inputs": [],
      "name": "ERC1967NonPayable",
      "type": "error"
    },
    {
      "inputs": [],
      "name": "EnforcedPause",
      "type": "error"
    },
    {
      "inputs": [],
      "name": "ExpectedPause",
      "type": "error"
    },
    {
      "inputs": [],
      "name": "FailedInnerCall",
      "type": "error"
    },
    {
      "inputs": [],
      "name": "InsufficientFunds",
      "type": "error"
    },
    {
      "inputs": [],
      "name": "InvalidAddress",
      "type": "error"
    },
    {
      "inputs": [],
      "name": "InvalidInitialization",
      "type": "error"
    },
    {
      "inputs": [],
      "name": "InvalidName",
      "type": "error"
    },
    {
      "inputs": [],
      "name": "LimitExceeded",
      "type": "error"
    },
    {
      "inputs": [],
      "name": "NoBalanceToWithdraw",
      "type": "error"
    },
    {
      "inputs": [],
      "name": "NotInitializing",
      "type": "error"
    },
    {
      "inputs": [],
      "name": "NotRegisteredProvider",
      "type": "error"
    },
    {
      "inputs": [],
      "name": "NotYourClaim",
      "type": "error"
    },
    {
      "inputs": [],
      "name": "NotYourPolicy",
      "type": "error"
    },
    {
      "inputs": [],
      "name": "NotYourRequest",
      "type": "error"
    },
    {
      "inputs": [
        {
          "internalType": "address",
          "name": "have",
          "type": "address"
        },
        {
          "internalType": "address",
          "name": "want",
          "type": "address"
        }
      ],
      "name": "OnlyCoordinatorCanFulfill",
      "type": "error"
    },
    {
      "inputs": [
        {
          "internalType": "address",
          "name": "have",
          "type": "address"
        },
        {
          "internalType": "address",
          "name": "owner",
          "type": "address"
        },
        {
          "internalType": "address",
          "name": "coordinator",
          "type": "address"
        }
      ],
      "name": "OnlyOwnerOrCoordinator",
      "type": "error"
    },
    {
      "inputs": [],
      "name": "PolicyMustBeFinalized",
      "type": "error"
    },
    {
      "inputs": [],
      "name": "PolicyNotActive",
      "type": "error"
    },
    {
      "inputs": [],
      "name": "ProofNotEligible",
      "type": "error"
    },
    {
      "inputs": [],
      "name": "ReentrancyGuardReentrantCall",
      "type": "error"
    },
    {
      "inputs": [],
      "name": "RefundFailed",
      "type": "error"
    },
    {
      "inputs": [],
      "name": "UUPSUnauthorizedCallContext",
      "type": "error"
    },
    {
      "inputs": [
        {
          "internalType": "bytes32",
          "name": "slot",
          "type": "bytes32"
        }
      ],
      "name": "UUPSUnsupportedProxiableUUID",
      "type": "error"
    },
    {
      "inputs": [],
      "name": "VerifierNotInitialized",
      "type": "error"
    },
    {
      "inputs": [],
      "name": "WaitForVerification",
      "type": "error"
    },
    {
      "inputs": [],
      "name": "ZKVerificationFailed",
      "type": "error"
    },
    {
      "inputs": [],
      "name": "ZeroAddress",
      "type": "error"
    },
    {
      "anonymous": false,
      "inputs": [
        {
          "indexed": true,
          "internalType": "uint256",
          "name": "requestId",
          "type": "uint256"
        },
        {
          "indexed": true,
          "internalType": "address",
          "name": "patient",
          "type": "address"
        }
      ],
      "name": "AuditRequested",
      "type": "event",
      "signature": "0x7d65d1a545fc51795f27e07c6d5a573e39a26d0cfa13194ef03bc55eb4b9c8a8"
    },
    {
      "anonymous": false,
      "inputs": [
        {
          "indexed": true,
          "internalType": "uint256",
          "name": "requestId",
          "type": "uint256"
        },
        {
          "indexed": false,
          "internalType": "bool",
          "name": "passed",
          "type": "bool"
        }
      ],
      "name": "AuditResult",
      "type": "event",
      "signature": "0x71bc374580bf8917176c900947ea37fee629dd40c4c2bdfec1ffbccb1399c34b"
    },
    {
      "anonymous": false,
      "inputs": [
        {
          "indexed": false,
          "internalType": "address",
          "name": "vrfCoordinator",
          "type": "address"
        }
      ],
      "name": "CoordinatorSet",
      "type": "event",
      "signature": "0xd1a6a14209a385a964d036e404cb5cfb71f4000cdb03c9366292430787261be6"
    },
    {
      "anonymous": false,
      "inputs": [
        {
          "indexed": false,
          "internalType": "uint64",
          "name": "version",
          "type": "uint64"
        }
      ],
      "name": "Initialized",
      "type": "event",
      "signature": "0xc7f505b2f371ae2175ee4913f4499e1f2633a7b5936321eed1cdaeb6115181d2"
    },
    {
      "anonymous": false,
      "inputs": [
        {
          "indexed": true,
          "internalType": "address",
          "name": "from",
          "type": "address"
        },
        {
          "indexed": true,
          "internalType": "address",
          "name": "to",
          "type": "address"
        }
      ],
      "name": "OwnershipTransferRequested",
      "type": "event",
      "signature": "0xed8889f560326eb138920d842192f0eb3dd22b4f139c87a2c57538e05bae1278"
    },
    {
      "anonymous": false,
      "inputs": [
        {
          "indexed": true,
          "internalType": "address",
          "name": "from",
          "type": "address"
        },
        {
          "indexed": true,
          "internalType": "address",
          "name": "to",
          "type": "address"
        }
      ],
      "name": "OwnershipTransferred",
      "type": "event",
      "signature": "0x8be0079c531659141344cd1fd0a4f28419497f9722a3daafe3b4186f6b6457e0"
    },
    {
      "anonymous": false,
      "inputs": [
        {
          "indexed": false,
          "internalType": "address",
          "name": "account",
          "type": "address"
        }
      ],
      "name": "Paused",
      "type": "event",
      "signature": "0x62e78cea01bee320cd4e420270b5ea74000d11b0c9f74754ebdbfc544b05a258"
    },
    {
      "anonymous": false,
      "inputs": [
        {
          "indexed": false,
          "internalType": "address",
          "name": "account",
          "type": "address"
        }
      ],
      "name": "Unpaused",
      "type": "event",
      "signature": "0x5db9ee0a495bf2e6ff9c91a7834c1ba4fdd244a5e8aa4e537bd38aeae4b073aa"
    },
    {
      "anonymous": false,
      "inputs": [
        {
          "indexed": true,
          "internalType": "address",
          "name": "implementation",
          "type": "address"
        }
      ],
      "name": "Upgraded",
      "type": "event",
      "signature": "0xbc7cd75a20ee27fd9adebab32041f755214dbc6bffa90cc0225b39da2e5c2d3b"
    },
    {
      "inputs": [],
      "name": "UPGRADE_INTERFACE_VERSION",
      "outputs": [
        {
          "internalType": "string",
          "name": "",
          "type": "string"
        }
      ],
      "stateMutability": "view",
      "type": "function",
      "constant": true,
      "signature": "0xad3cb1cc"
    },
    {
      "inputs": [],
      "name": "acceptOwnership",
      "outputs": [],
      "stateMutability": "nonpayable",
      "type": "function",
      "signature": "0x79ba5097"
    },
    {
      "inputs": [],
      "name": "accessControl",
      "outputs": [
        {
          "internalType": "contract MediSecureAccessControl",
          "name": "",
          "type": "address"
        }
      ],
      "stateMutability": "view",
      "type": "function",
      "constant": true,
      "signature": "0x13007d55"
    },
    {
      "inputs": [
        {
          "internalType": "uint256",
          "name": "",
          "type": "uint256"
        }
      ],
      "name": "auditRequests",
      "outputs": [
        {
          "internalType": "address",
          "name": "patient",
          "type": "address"
        },
        {
          "internalType": "bool",
          "name": "active",
          "type": "bool"
        }
      ],
      "stateMutability": "view",
      "type": "function",
      "constant": true,
      "signature": "0x1396b79e"
    },
    {
      "inputs": [],
      "name": "callbackGasLimit",
      "outputs": [
        {
          "internalType": "uint32",
          "name": "",
          "type": "uint32"
        }
      ],
      "stateMutability": "view",
      "type": "function",
      "constant": true,
      "signature": "0x24f74697"
    },
    {
      "inputs": [],
      "name": "claimCount",
      "outputs": [
        {
          "internalType": "uint256",
          "name": "",
          "type": "uint256"
        }
      ],
      "stateMutability": "view",
      "type": "function",
      "constant": true,
      "signature": "0x8da4d3c9"
    },
    {
      "inputs": [
        {
          "internalType": "uint256",
          "name": "",
          "type": "uint256"
        }
      ],
      "name": "claims",
      "outputs": [
        {
          "internalType": "uint256",
          "name": "id",
          "type": "uint256"
        },
        {
          "internalType": "uint256",
          "name": "requestId",
          "type": "uint256"
        },
        {
          "internalType": "address",
          "name": "patient",
          "type": "address"
        },
        {
          "internalType": "address",
          "name": "provider",
          "type": "address"
        },
        {
          "internalType": "address",
          "name": "hospitalAddress",
          "type": "address"
        },
        {
          "internalType": "string",
          "name": "procedureName",
          "type": "string"
        },
        {
          "internalType": "uint256",
          "name": "cost",
          "type": "uint256"
        },
        {
          "internalType": "bytes32",
          "name": "evidenceHash",
          "type": "bytes32"
        },
        {
          "internalType": "enum Insurance.ClaimStatus",
          "name": "status",
          "type": "uint8"
        },
        {
          "internalType": "bool",
          "name": "isSettled",
          "type": "bool"
        },
        {
          "internalType": "uint256",
          "name": "timestamp",
          "type": "uint256"
        }
      ],
      "stateMutability": "view",
      "type": "function",
      "constant": true,
      "signature": "0xa888c2cd"
    },
    {
      "inputs": [],
      "name": "currentHourlySpent",
      "outputs": [
        {
          "internalType": "uint256",
          "name": "",
          "type": "uint256"
        }
      ],
      "stateMutability": "view",
      "type": "function",
      "constant": true,
      "signature": "0x4a012728"
    },
    {
      "inputs": [
        {
          "internalType": "bytes32",
          "name": "role",
          "type": "bytes32"
        },
        {
          "internalType": "address",
          "name": "account",
          "type": "address"
        }
      ],
      "name": "hasRole",
      "outputs": [
        {
          "internalType": "bool",
          "name": "",
          "type": "bool"
        }
      ],
      "stateMutability": "view",
      "type": "function",
      "constant": true,
      "signature": "0x91d14854"
    },
    {
      "inputs": [
        {
          "internalType": "enum Roles",
          "name": "role",
          "type": "uint8"
        },
        {
          "internalType": "address",
          "name": "account",
          "type": "address"
        }
      ],
      "name": "hasRole",
      "outputs": [
        {
          "internalType": "bool",
          "name": "",
          "type": "bool"
        }
      ],
      "stateMutability": "view",
      "type": "function",
      "constant": true,
      "signature": "0x9e97b8f6"
    },
    {
      "inputs": [
        {
          "internalType": "address",
          "name": "",
          "type": "address"
        }
      ],
      "name": "hospitalBalances",
      "outputs": [
        {
          "internalType": "uint256",
          "name": "",
          "type": "uint256"
        }
      ],
      "stateMutability": "view",
      "type": "function",
      "constant": true,
      "signature": "0xb46b72ce"
    },
    {
      "inputs": [],
      "name": "hospitalContract",
      "outputs": [
        {
          "internalType": "address",
          "name": "",
          "type": "address"
        }
      ],
      "stateMutability": "view",
      "type": "function",
      "constant": true,
      "signature": "0x47dbb71a"
    },
    {
      "inputs": [],
      "name": "hourlyLimit",
      "outputs": [
        {
          "internalType": "uint256",
          "name": "",
          "type": "uint256"
        }
      ],
      "stateMutability": "view",
      "type": "function",
      "constant": true,
      "signature": "0x79a3c6ed"
    },
    {
      "inputs": [],
      "name": "insuranceCount",
      "outputs": [
        {
          "internalType": "uint256",
          "name": "",
          "type": "uint256"
        }
      ],
      "stateMutability": "view",
      "type": "function",
      "constant": true,
      "signature": "0x521a6e94"
    },
    {
      "inputs": [
        {
          "internalType": "address",
          "name": "",
          "type": "address"
        }
      ],
      "name": "insuranceProviders",
      "outputs": [
        {
          "internalType": "uint256",
          "name": "id",
          "type": "uint256"
        },
        {
          "internalType": "address",
          "name": "wallet",
          "type": "address"
        },
        {
          "internalType": "string",
          "name": "name",
          "type": "string"
        },
        {
          "internalType": "enum Insurance.PolicyStatus",
          "name": "status",
          "type": "uint8"
        }
      ],
      "stateMutability": "view",
      "type": "function",
      "constant": true,
      "signature": "0x482bce3c"
    },
    {
      "inputs": [
        {
          "internalType": "uint256",
          "name": "",
          "type": "uint256"
        }
      ],
      "name": "insuranceRequests",
      "outputs": [
        {
          "internalType": "uint256",
          "name": "requestId",
          "type": "uint256"
        },
        {
          "internalType": "uint256",
          "name": "policyId",
          "type": "uint256"
        },
        {
          "internalType": "address",
          "name": "patient",
          "type": "address"
        },
        {
          "internalType": "address",
          "name": "provider",
          "type": "address"
        },
        {
          "internalType": "uint256",
          "name": "finalPremium",
          "type": "uint256"
        },
        {
          "internalType": "enum Insurance.RequestStatus",
          "name": "status",
          "type": "uint8"
        },
        {
          "internalType": "bool",
          "name": "isVerified",
          "type": "bool"
        },
        {
          "internalType": "bool",
          "name": "isFinalized",
          "type": "bool"
        },
        {
          "internalType": "bool",
          "name": "useToken",
          "type": "bool"
        }
      ],
      "stateMutability": "view",
      "type": "function",
      "constant": true,
      "signature": "0xeed45ccd"
    },
    {
      "inputs": [
        {
          "internalType": "address",
          "name": "account",
          "type": "address"
        }
      ],
      "name": "isAdmin",
      "outputs": [
        {
          "internalType": "bool",
          "name": "",
          "type": "bool"
        }
      ],
      "stateMutability": "view",
      "type": "function",
      "constant": true,
      "signature": "0x24d7806c"
    },
    {
      "inputs": [
        {
          "internalType": "address",
          "name": "forwarder",
          "type": "address"
        }
      ],
      "name": "isTrustedForwarder",
      "outputs": [
        {
          "internalType": "bool",
          "name": "",
          "type": "bool"
        }
      ],
      "stateMutability": "view",
      "type": "function",
      "constant": true,
      "signature": "0x572b6c05"
    },
    {
      "inputs": [],
      "name": "keyHash",
      "outputs": [
        {
          "internalType": "bytes32",
          "name": "",
          "type": "bytes32"
        }
      ],
      "stateMutability": "view",
      "type": "function",
      "constant": true,
      "signature": "0x61728f39"
    },
    {
      "inputs": [],
      "name": "lastResetTime",
      "outputs": [
        {
          "internalType": "uint256",
          "name": "",
          "type": "uint256"
        }
      ],
      "stateMutability": "view",
      "type": "function",
      "constant": true,
      "signature": "0xa2177124"
    },
    {
      "inputs": [],
      "name": "numWords",
      "outputs": [
        {
          "internalType": "uint32",
          "name": "",
          "type": "uint32"
        }
      ],
      "stateMutability": "view",
      "type": "function",
      "constant": true,
      "signature": "0x7ccfd7fc"
    },
    {
      "inputs": [],
      "name": "owner",
      "outputs": [
        {
          "internalType": "address",
          "name": "",
          "type": "address"
        }
      ],
      "stateMutability": "view",
      "type": "function",
      "constant": true,
      "signature": "0x8da5cb5b"
    },
    {
      "inputs": [
        {
          "internalType": "address",
          "name": "",
          "type": "address"
        },
        {
          "internalType": "uint256",
          "name": "",
          "type": "uint256"
        }
      ],
      "name": "patientClaims",
      "outputs": [
        {
          "internalType": "uint256",
          "name": "",
          "type": "uint256"
        }
      ],
      "stateMutability": "view",
      "type": "function",
      "constant": true,
      "signature": "0x388a2974"
    },
    {
      "inputs": [
        {
          "internalType": "address",
          "name": "",
          "type": "address"
        },
        {
          "internalType": "uint256",
          "name": "",
          "type": "uint256"
        }
      ],
      "name": "patientRequests",
      "outputs": [
        {
          "internalType": "uint256",
          "name": "",
          "type": "uint256"
        }
      ],
      "stateMutability": "view",
      "type": "function",
      "constant": true,
      "signature": "0x3217bc72"
    },
    {
      "inputs": [],
      "name": "paused",
      "outputs": [
        {
          "internalType": "bool",
          "name": "",
          "type": "bool"
        }
      ],
      "stateMutability": "view",
      "type": "function",
      "constant": true,
      "signature": "0x5c975abb"
    },
    {
      "inputs": [
        {
          "internalType": "uint256",
          "name": "",
          "type": "uint256"
        }
      ],
      "name": "policies",
      "outputs": [
        {
          "internalType": "uint256",
          "name": "id",
          "type": "uint256"
        },
        {
          "internalType": "address",
          "name": "provider",
          "type": "address"
        },
        {
          "internalType": "enum Insurance.PolicyStatus",
          "name": "status",
          "type": "uint8"
        },
        {
          "internalType": "uint32",
          "name": "minAge",
          "type": "uint32"
        },
        {
          "internalType": "uint32",
          "name": "maxSystolic",
          "type": "uint32"
        },
        {
          "internalType": "uint32",
          "name": "maxDiastolic",
          "type": "uint32"
        },
        {
          "internalType": "uint256",
          "name": "basePremium",
          "type": "uint256"
        },
        {
          "internalType": "uint256",
          "name": "requiredVaccine",
          "type": "uint256"
        },
        {
          "internalType": "string",
          "name": "name",
          "type": "string"
        },
        {
          "internalType": "string",
          "name": "description",
          "type": "string"
        }
      ],
      "stateMutability": "view",
      "type": "function",
      "constant": true,
      "signature": "0xd3e89483"
    },
    {
      "inputs": [],
      "name": "policyCount",
      "outputs": [
        {
          "internalType": "uint256",
          "name": "",
          "type": "uint256"
        }
      ],
      "stateMutability": "view",
      "type": "function",
      "constant": true,
      "signature": "0xde54d429"
    },
    {
      "inputs": [],
      "name": "priceOracle",
      "outputs": [
        {
          "internalType": "address",
          "name": "",
          "type": "address"
        }
      ],
      "stateMutability": "view",
      "type": "function",
      "constant": true,
      "signature": "0x2630c12f"
    },
    {
      "inputs": [
        {
          "internalType": "uint256",
          "name": "",
          "type": "uint256"
        }
      ],
      "name": "providerAddresses",
      "outputs": [
        {
          "internalType": "address",
          "name": "",
          "type": "address"
        }
      ],
      "stateMutability": "view",
      "type": "function",
      "constant": true,
      "signature": "0x618dd9a8"
    },
    {
      "inputs": [
        {
          "internalType": "address",
          "name": "",
          "type": "address"
        },
        {
          "internalType": "uint256",
          "name": "",
          "type": "uint256"
        }
      ],
      "name": "providerClaims",
      "outputs": [
        {
          "internalType": "uint256",
          "name": "",
          "type": "uint256"
        }
      ],
      "stateMutability": "view",
      "type": "function",
      "constant": true,
      "signature": "0xc575d093"
    },
    {
      "inputs": [
        {
          "internalType": "address",
          "name": "",
          "type": "address"
        },
        {
          "internalType": "uint256",
          "name": "",
          "type": "uint256"
        }
      ],
      "name": "providerPolicies",
      "outputs": [
        {
          "internalType": "uint256",
          "name": "",
          "type": "uint256"
        }
      ],
      "stateMutability": "view",
      "type": "function",
      "constant": true,
      "signature": "0xfcbe9147"
    },
    {
      "inputs": [
        {
          "internalType": "address",
          "name": "",
          "type": "address"
        },
        {
          "internalType": "uint256",
          "name": "",
          "type": "uint256"
        }
      ],
      "name": "providerRequests",
      "outputs": [
        {
          "internalType": "uint256",
          "name": "",
          "type": "uint256"
        }
      ],
      "stateMutability": "view",
      "type": "function",
      "constant": true,
      "signature": "0xab558919"
    },
    {
      "inputs": [],
      "name": "proxiableUUID",
      "outputs": [
        {
          "internalType": "bytes32",
          "name": "",
          "type": "bytes32"
        }
      ],
      "stateMutability": "view",
      "type": "function",
      "constant": true,
      "signature": "0x52d1902d"
    },
    {
      "inputs": [
        {
          "internalType": "uint256",
          "name": "requestId",
          "type": "uint256"
        },
        {
          "internalType": "uint256[]",
          "name": "randomWords",
          "type": "uint256[]"
        }
      ],
      "name": "rawFulfillRandomWords",
      "outputs": [],
      "stateMutability": "nonpayable",
      "type": "function",
      "signature": "0x1fe543e3"
    },
    {
      "inputs": [],
      "name": "requestConfirmations",
      "outputs": [
        {
          "internalType": "uint16",
          "name": "",
          "type": "uint16"
        }
      ],
      "stateMutability": "view",
      "type": "function",
      "constant": true,
      "signature": "0xb0fb162f"
    },
    {
      "inputs": [],
      "name": "requestCount",
      "outputs": [
        {
          "internalType": "uint256",
          "name": "",
          "type": "uint256"
        }
      ],
      "stateMutability": "view",
      "type": "function",
      "constant": true,
      "signature": "0x5badbe4c"
    },
    {
      "inputs": [],
      "name": "s_subscriptionId",
      "outputs": [
        {
          "internalType": "uint256",
          "name": "",
          "type": "uint256"
        }
      ],
      "stateMutability": "view",
      "type": "function",
      "constant": true,
      "signature": "0x8ac00021"
    },
    {
      "inputs": [],
      "name": "s_vrfCoordinator",
      "outputs": [
        {
          "internalType": "contract IVRFCoordinatorV2Plus",
          "name": "",
          "type": "address"
        }
      ],
      "stateMutability": "view",
      "type": "function",
      "constant": true,
      "signature": "0x9eccacf6"
    },
    {
      "inputs": [],
      "name": "sanjeevniToken",
      "outputs": [
        {
          "internalType": "address",
          "name": "",
          "type": "address"
        }
      ],
      "stateMutability": "view",
      "type": "function",
      "constant": true,
      "signature": "0xfc1d6911"
    },
    {
      "inputs": [
        {
          "internalType": "address",
          "name": "_vrfCoordinator",
          "type": "address"
        }
      ],
      "name": "setCoordinator",
      "outputs": [],
      "stateMutability": "nonpayable",
      "type": "function",
      "signature": "0x8ea98117"
    },
    {
      "inputs": [
        {
          "internalType": "address",
          "name": "to",
          "type": "address"
        }
      ],
      "name": "transferOwnership",
      "outputs": [],
      "stateMutability": "nonpayable",
      "type": "function",
      "signature": "0xf2fde38b"
    },
    {
      "inputs": [],
      "name": "trustedForwarder",
      "outputs": [
        {
          "internalType": "address",
          "name": "",
          "type": "address"
        }
      ],
      "stateMutability": "view",
      "type": "function",
      "constant": true,
      "signature": "0x7da0a877"
    },
    {
      "inputs": [
        {
          "internalType": "address",
          "name": "newImplementation",
          "type": "address"
        },
        {
          "internalType": "bytes",
          "name": "data",
          "type": "bytes"
        }
      ],
      "name": "upgradeToAndCall",
      "outputs": [],
      "stateMutability": "payable",
      "type": "function",
      "payable": true,
      "signature": "0x4f1ef286"
    },
    {
      "inputs": [],
      "name": "zkpVerifier",
      "outputs": [
        {
          "internalType": "address",
          "name": "",
          "type": "address"
        }
      ],
      "stateMutability": "view",
      "type": "function",
      "constant": true,
      "signature": "0x6aebbd66"
    },
    {
      "inputs": [
        {
          "internalType": "address",
          "name": "_accessControl",
          "type": "address"
        },
        {
          "internalType": "address",
          "name": "_sanjToken",
          "type": "address"
        },
        {
          "internalType": "uint256",
          "name": "_subId",
          "type": "uint256"
        },
        {
          "internalType": "bytes32",
          "name": "_keyHash",
          "type": "bytes32"
        },
        {
          "internalType": "uint32",
          "name": "_callbackGasLimit",
          "type": "uint32"
        }
      ],
      "name": "initialize",
      "outputs": [],
      "stateMutability": "nonpayable",
      "type": "function",
      "signature": "0xecfa02e2"
    },
    {
      "inputs": [
        {
          "internalType": "address",
          "name": "_patient",
          "type": "address"
        }
      ],
      "name": "requestRandomAudit",
      "outputs": [
        {
          "internalType": "uint256",
          "name": "requestId",
          "type": "uint256"
        }
      ],
      "stateMutability": "nonpayable",
      "type": "function",
      "signature": "0x27a99291"
    },
    {
      "inputs": [
        {
          "internalType": "string",
          "name": "name",
          "type": "string"
        }
      ],
      "name": "registerInsuranceProvider",
      "outputs": [],
      "stateMutability": "nonpayable",
      "type": "function",
      "signature": "0xede341f0"
    },
    {
      "inputs": [
        {
          "internalType": "string",
          "name": "name",
          "type": "string"
        },
        {
          "internalType": "string",
          "name": "description",
          "type": "string"
        },
        {
          "internalType": "uint256",
          "name": "basePremium",
          "type": "uint256"
        },
        {
          "internalType": "uint256",
          "name": "minAge",
          "type": "uint256"
        },
        {
          "internalType": "uint256",
          "name": "maxSystolic",
          "type": "uint256"
        },
        {
          "internalType": "uint256",
          "name": "maxDiastolic",
          "type": "uint256"
        },
        {
          "internalType": "uint256",
          "name": "requiredVaccine",
          "type": "uint256"
        }
      ],
      "name": "createPolicy",
      "outputs": [],
      "stateMutability": "nonpayable",
      "type": "function",
      "signature": "0x9b166af9"
    },
    {
      "inputs": [
        {
          "internalType": "uint256",
          "name": "requestId",
          "type": "uint256"
        }
      ],
      "name": "finalizePolicy",
      "outputs": [],
      "stateMutability": "payable",
      "type": "function",
      "payable": true,
      "signature": "0x4c1fb578"
    },
    {
      "inputs": [
        {
          "internalType": "uint256",
          "name": "requestId",
          "type": "uint256"
        },
        {
          "internalType": "address",
          "name": "hospitalAddress",
          "type": "address"
        },
        {
          "internalType": "string",
          "name": "procedureName",
          "type": "string"
        },
        {
          "internalType": "uint256",
          "name": "cost",
          "type": "uint256"
        },
        {
          "internalType": "bytes32",
          "name": "evidenceHash",
          "type": "bytes32"
        }
      ],
      "name": "submitClaim",
      "outputs": [],
      "stateMutability": "nonpayable",
      "type": "function",
      "signature": "0xe4a05388"
    },
    {
      "inputs": [
        {
          "internalType": "uint256",
          "name": "claimId",
          "type": "uint256"
        },
        {
          "internalType": "enum Insurance.ClaimStatus",
          "name": "status",
          "type": "uint8"
        }
      ],
      "name": "processClaim",
      "outputs": [],
      "stateMutability": "payable",
      "type": "function",
      "payable": true,
      "signature": "0xbc8db4fc"
    },
    {
      "inputs": [],
      "name": "withdrawSettlement",
      "outputs": [],
      "stateMutability": "nonpayable",
      "type": "function",
      "signature": "0x0c96871a"
    },
    {
      "inputs": [
        {
          "internalType": "address",
          "name": "_provider",
          "type": "address"
        }
      ],
      "name": "getProviderPolicies",
      "outputs": [
        {
          "components": [
            {
              "internalType": "uint256",
              "name": "id",
              "type": "uint256"
            },
            {
              "internalType": "address",
              "name": "provider",
              "type": "address"
            },
            {
              "internalType": "enum Insurance.PolicyStatus",
              "name": "status",
              "type": "uint8"
            },
            {
              "internalType": "uint32",
              "name": "minAge",
              "type": "uint32"
            },
            {
              "internalType": "uint32",
              "name": "maxSystolic",
              "type": "uint32"
            },
            {
              "internalType": "uint32",
              "name": "maxDiastolic",
              "type": "uint32"
            },
            {
              "internalType": "uint256",
              "name": "basePremium",
              "type": "uint256"
            },
            {
              "internalType": "uint256",
              "name": "requiredVaccine",
              "type": "uint256"
            },
            {
              "internalType": "string",
              "name": "name",
              "type": "string"
            },
            {
              "internalType": "string",
              "name": "description",
              "type": "string"
            }
          ],
          "internalType": "struct Insurance.Policy[]",
          "name": "",
          "type": "tuple[]"
        }
      ],
      "stateMutability": "view",
      "type": "function",
      "constant": true,
      "signature": "0x38b75ae0"
    },
    {
      "inputs": [
        {
          "internalType": "address",
          "name": "_provider",
          "type": "address"
        }
      ],
      "name": "getProviderInsuranceRequests",
      "outputs": [
        {
          "components": [
            {
              "internalType": "uint256",
              "name": "requestId",
              "type": "uint256"
            },
            {
              "internalType": "uint256",
              "name": "policyId",
              "type": "uint256"
            },
            {
              "internalType": "address",
              "name": "patient",
              "type": "address"
            },
            {
              "internalType": "address",
              "name": "provider",
              "type": "address"
            },
            {
              "internalType": "uint256",
              "name": "finalPremium",
              "type": "uint256"
            },
            {
              "internalType": "enum Insurance.RequestStatus",
              "name": "status",
              "type": "uint8"
            },
            {
              "internalType": "bool",
              "name": "isVerified",
              "type": "bool"
            },
            {
              "internalType": "bool",
              "name": "isFinalized",
              "type": "bool"
            },
            {
              "internalType": "bool",
              "name": "useToken",
              "type": "bool"
            }
          ],
          "internalType": "struct Insurance.InsuranceRequest[]",
          "name": "",
          "type": "tuple[]"
        }
      ],
      "stateMutability": "view",
      "type": "function",
      "constant": true,
      "signature": "0x755e9ace"
    },
    {
      "inputs": [],
      "name": "getAllActivePolicies",
      "outputs": [
        {
          "components": [
            {
              "internalType": "uint256",
              "name": "id",
              "type": "uint256"
            },
            {
              "internalType": "address",
              "name": "provider",
              "type": "address"
            },
            {
              "internalType": "enum Insurance.PolicyStatus",
              "name": "status",
              "type": "uint8"
            },
            {
              "internalType": "uint32",
              "name": "minAge",
              "type": "uint32"
            },
            {
              "internalType": "uint32",
              "name": "maxSystolic",
              "type": "uint32"
            },
            {
              "internalType": "uint32",
              "name": "maxDiastolic",
              "type": "uint32"
            },
            {
              "internalType": "uint256",
              "name": "basePremium",
              "type": "uint256"
            },
            {
              "internalType": "uint256",
              "name": "requiredVaccine",
              "type": "uint256"
            },
            {
              "internalType": "string",
              "name": "name",
              "type": "string"
            },
            {
              "internalType": "string",
              "name": "description",
              "type": "string"
            }
          ],
          "internalType": "struct Insurance.Policy[]",
          "name": "",
          "type": "tuple[]"
        }
      ],
      "stateMutability": "view",
      "type": "function",
      "constant": true,
      "signature": "0xb0dec9f7"
    },
    {
      "inputs": [
        {
          "internalType": "uint256",
          "name": "policyId",
          "type": "uint256"
        }
      ],
      "name": "requestInsuranceQuote",
      "outputs": [
        {
          "internalType": "uint256",
          "name": "",
          "type": "uint256"
        }
      ],
      "stateMutability": "nonpayable",
      "type": "function",
      "signature": "0xc73b503a"
    },
    {
      "inputs": [
        {
          "internalType": "uint256",
          "name": "requestId",
          "type": "uint256"
        },
        {
          "internalType": "uint256[2]",
          "name": "a",
          "type": "uint256[2]"
        },
        {
          "internalType": "uint256[2][2]",
          "name": "b",
          "type": "uint256[2][2]"
        },
        {
          "internalType": "uint256[2]",
          "name": "c",
          "type": "uint256[2]"
        },
        {
          "internalType": "uint256[]",
          "name": "input",
          "type": "uint256[]"
        }
      ],
      "name": "submitInsuranceProof",
      "outputs": [],
      "stateMutability": "nonpayable",
      "type": "function",
      "signature": "0xa887081c"
    },
    {
      "inputs": [
        {
          "internalType": "address",
          "name": "_patient",
          "type": "address"
        }
      ],
      "name": "getPatientInsuranceRequests",
      "outputs": [
        {
          "components": [
            {
              "internalType": "uint256",
              "name": "requestId",
              "type": "uint256"
            },
            {
              "internalType": "uint256",
              "name": "policyId",
              "type": "uint256"
            },
            {
              "internalType": "address",
              "name": "patient",
              "type": "address"
            },
            {
              "internalType": "address",
              "name": "provider",
              "type": "address"
            },
            {
              "internalType": "uint256",
              "name": "finalPremium",
              "type": "uint256"
            },
            {
              "internalType": "enum Insurance.RequestStatus",
              "name": "status",
              "type": "uint8"
            },
            {
              "internalType": "bool",
              "name": "isVerified",
              "type": "bool"
            },
            {
              "internalType": "bool",
              "name": "isFinalized",
              "type": "bool"
            },
            {
              "internalType": "bool",
              "name": "useToken",
              "type": "bool"
            }
          ],
          "internalType": "struct Insurance.InsuranceRequest[]",
          "name": "",
          "type": "tuple[]"
        }
      ],
      "stateMutability": "view",
      "type": "function",
      "constant": true,
      "signature": "0xb8f15a1a"
    }
  ],
  "bytecode": "0x60c06040523060805234801562000014575f80fd5b506040516200478b3803806200478b8339810160408190526200003791620001e9565b6001600160a01b03821660a0528033805f816200009b5760405162461bcd60e51b815260206004820152601860248201527f43616e6e6f7420736574206f776e657220746f207a65726f000000000000000060448201526064015b60405180910390fd5b603280546001600160a01b0319166001600160a01b0384811691909117909155811615620000ce57620000ce8162000122565b5050506001600160a01b038116620000f95760405163d92e233d60e01b815260040160405180910390fd5b603480546001600160a01b0319166001600160a01b0392909216919091179055506200021f9050565b336001600160a01b038216036200017c5760405162461bcd60e51b815260206004820152601760248201527f43616e6e6f74207472616e7366657220746f2073656c66000000000000000000604482015260640162000092565b603380546001600160a01b0319166001600160a01b03838116918217909255603254604051919216907fed8889f560326eb138920d842192f0eb3dd22b4f139c87a2c57538e05bae1278905f90a350565b80516001600160a01b0381168114620001e4575f80fd5b919050565b5f8060408385031215620001fb575f80fd5b6200020683620001cd565b91506200021660208401620001cd565b90509250929050565b60805160a05161452e6200025d5f395f818161062801528181610769015261359b01525f81816131750152818161319e01526133a3015261452e5ff3fe608060405260043610610371575f3560e01c80638ac00021116101c8578063b0fb162f116100fd578063de54d4291161009d578063eed45ccd1161006d578063eed45ccd14610ac0578063f2fde38b14610b4f578063fc1d691114610b6e578063fcbe914714610b8d575f80fd5b8063de54d42914610a4e578063e4a0538814610a63578063ecfa02e214610a82578063ede341f014610aa1575f80fd5b8063bc8db4fc116100d8578063bc8db4fc146109c8578063c575d093146109db578063c73b503a146109fa578063d3e8948314610a19575f80fd5b8063b0fb162f14610949578063b46b72ce1461097e578063b8f15a1a146109a9575f80fd5b80639eccacf611610168578063a888c2cd11610143578063a888c2cd146108a3578063ab558919146108d9578063ad3cb1cc146108f8578063b0dec9f714610935575f80fd5b80639eccacf614610850578063a21771241461086f578063a887081c14610884575f80fd5b80638ea98117116101a35780638ea98117146107d457806391d14854146107f35780639b166af9146108125780639e97b8f614610831575f80fd5b80638ac000211461078d5780638da4d3c9146107a25780638da5cb5b146107b7575f80fd5b80634c1fb578116102a957806361728f391161024957806379a3c6ed1161021957806379a3c6ed1461070f57806379ba5097146107245780637ccfd7fc146107385780637da0a8771461075b575f80fd5b806361728f3914610690578063618dd9a8146106a55780636aebbd66146106c4578063755e9ace146106e3575f80fd5b806352d1902d1161028457806352d1902d146105f8578063572b6c051461060c5780635badbe4c146106585780635c975abb1461066d575f80fd5b80634c1fb578146105bd5780634f1ef286146105d0578063521a6e94146105e3575f80fd5b806327a992911161031457806338b75ae0116102ef57806338b75ae01461052e57806347dbb71a1461055a578063482bce3c146105795780634a012728146105a8575f80fd5b806327a99291146104c35780633217bc72146104f0578063388a29741461050f575f80fd5b80631fe543e31161034f5780631fe543e31461042557806324d7806c1461044457806324f74697146104735780632630c12f146104a4575f80fd5b80630c96871a1461037557806313007d551461038b5780631396b79e146103c6575b5f80fd5b348015610380575f80fd5b50610389610bac565b005b348015610396575f80fd5b505f546103a9906001600160a01b031681565b6040516001600160a01b0390911681526020015b60405180910390f35b3480156103d1575f80fd5b506104066103e03660046138e7565b604e6020525f90815260409020546001600160a01b03811690600160a01b900460ff1682565b604080516001600160a01b0390931683529015156020830152016103bd565b348015610430575f80fd5b5061038961043f366004613945565b610d3f565b34801561044f575f80fd5b5061046361045e3660046139a2565b610d94565b60405190151581526020016103bd565b34801561047e575f80fd5b50603b5461048f9063ffffffff1681565b60405163ffffffff90911681526020016103bd565b3480156104af575f80fd5b50604c546103a9906001600160a01b031681565b3480156104ce575f80fd5b506104e26104dd3660046139a2565b610e0b565b6040519081526020016103bd565b3480156104fb575f80fd5b506104e261050a3660046139bb565b610ffe565b34801561051a575f80fd5b506104e26105293660046139bb565b611029565b348015610539575f80fd5b5061054d6105483660046139a2565b611042565b6040516103bd9190613a58565b348015610565575f80fd5b50604b546103a9906001600160a01b031681565b348015610584575f80fd5b506105986105933660046139a2565b611332565b6040516103bd9493929190613b56565b3480156105b3575f80fd5b506104e260375481565b6103896105cb3660046138e7565b6113ed565b6103896105de366004613c14565b611568565b3480156105ee575f80fd5b506104e260485481565b348015610603575f80fd5b506104e2611587565b348015610617575f80fd5b506104636106263660046139a2565b7f00000000000000000000000000000000000000000000000000000000000000006001600160a01b0390811691161490565b348015610663575f80fd5b506104e260495481565b348015610678575f80fd5b505f805160206144b98339815191525460ff16610463565b34801561069b575f80fd5b506104e2603a5481565b3480156106b0575f80fd5b506103a96106bf3660046138e7565b6115a2565b3480156106cf575f80fd5b50604a546103a9906001600160a01b031681565b3480156106ee575f80fd5b506107026106fd3660046139a2565b6115ca565b6040516103bd9190613c81565b34801561071a575f80fd5b506104e260365481565b34801561072f575f80fd5b506103896117a2565b348015610743575f80fd5b50603b5461048f90600160301b900463ffffffff1681565b348015610766575f80fd5b507f00000000000000000000000000000000000000000000000000000000000000006103a9565b348015610798575f80fd5b506104e260395481565b3480156107ad575f80fd5b506104e260475481565b3480156107c2575f80fd5b506032546001600160a01b03166103a9565b3480156107df575f80fd5b506103896107ee3660046139a2565b61184f565b3480156107fe575f80fd5b5061046361080d366004613d36565b611942565b34801561081d575f80fd5b5061038961082c366004613d7e565b6119bd565b34801561083c575f80fd5b5061046361084b366004613e06565b611c29565b34801561085b575f80fd5b506034546103a9906001600160a01b031681565b34801561087a575f80fd5b506104e260385481565b34801561088f575f80fd5b5061038961089e366004613e43565b611c5b565b3480156108ae575f80fd5b506108c26108bd3660046138e7565b611d1a565b6040516103bd9b9a99989796959493929190613ec6565b3480156108e4575f80fd5b506104e26108f33660046139bb565b611e0c565b348015610903575f80fd5b50610928604051806040016040528060058152602001640352e302e360dc1b81525081565b6040516103bd9190613f4b565b348015610940575f80fd5b5061054d611e25565b348015610954575f80fd5b50603b5461096b90640100000000900461ffff1681565b60405161ffff90911681526020016103bd565b348015610989575f80fd5b506104e26109983660046139a2565b604d6020525f908152604090205481565b3480156109b4575f80fd5b506107026109c33660046139a2565b612139565b6103896109d6366004613f5d565b612311565b3480156109e6575f80fd5b506104e26109f53660046139bb565b612603565b348015610a05575f80fd5b506104e2610a143660046138e7565b61261c565b348015610a24575f80fd5b50610a38610a333660046138e7565b612834565b6040516103bd9a99989796959493929190613f8e565b348015610a59575f80fd5b506104e260465481565b348015610a6e575f80fd5b50610389610a7d366004614014565b6129ad565b348015610a8d575f80fd5b50610389610a9c366004614077565b612bc0565b348015610aac575f80fd5b50610389610abb3660046140d6565b612d53565b348015610acb575f80fd5b50610b3a610ada3660046138e7565b604060208190525f918252902080546001820154600283015460038401546004850154600590950154939492936001600160a01b0392831693919092169160ff808216916101008104821691620100008204811691630100000090041689565b6040516103bd9998979695949392919061410f565b348015610b5a575f80fd5b50610389610b693660046139a2565b612f51565b348015610b79575f80fd5b506035546103a9906001600160a01b031681565b348015610b98575f80fd5b506104e2610ba73660046139bb565b612f62565b610bb4612f7b565b610bbc612fb2565b604d5f610bc7612fe2565b6001600160a01b0316815260208101919091526040015f2054603854610bef90610e10614180565b421115610bff57426038555f6037555b60365481603754610c109190614180565b1115610c3757610c1e612ff0565b604051631930e3c960e11b815260040160405180910390fd5b8060375f828254610c489190614180565b909155505f9050604d81610c5a612fe2565b6001600160a01b03166001600160a01b031681526020019081526020015f20549050805f03610c9c5760405163177b02e160e31b815260040160405180910390fd5b5f604d5f610ca8612fe2565b6001600160a01b03166001600160a01b031681526020019081526020015f20819055505f610cd4612fe2565b6001600160a01b0316826040515f6040518083038185875af1925050503d805f8114610d1b576040519150601f19603f3d011682016040523d82523d5f602084013e610d20565b606091505b50509050505050610d3d60015f805160206144d983398151915255565b565b6034546001600160a01b03163314610d845760345460405163073e64fd60e21b81523360048201526001600160a01b0390911660248201526044015b60405180910390fd5b610d8f838383613065565b505050565b5f8054604051634f4bdc7b60e11b81526001600160a01b0390911690639e97b8f690610dc69084908690600401614193565b602060405180830381865afa158015610de1573d5f803e3d5ffd5b505050506040513d601f19601f82011682018060405250810190610e0591906141bf565b92915050565b5f80546001600160a01b0316639e97b8f66004610e26612fe2565b6040518363ffffffff1660e01b8152600401610e43929190614193565b602060405180830381865afa158015610e5e573d5f803e3d5ffd5b505050506040513d601f19601f82011682018060405250810190610e8291906141bf565b610e9f57604051631a58b31960e31b815260040160405180910390fd5b610ea7612fb2565b6034546040805160c081018252603a548152603954602080830191909152603b5461ffff6401000000008204168385015263ffffffff8082166060850152600160301b90910416608083015282519081019092525f82526001600160a01b0390921691639b1c385e9160a0820190610f1e906130f9565b8152506040518263ffffffff1660e01b8152600401610f3d91906141de565b6020604051808303815f875af1158015610f59573d5f803e3d5ffd5b505050506040513d601f19601f82011682018060405250810190610f7d919061423a565b6040805180820182526001600160a01b03808616808352600160208085019182525f878152604e9091528581209451855492511515600160a01b026001600160a81b03199093169416939093171790925591519293509183917f7d65d1a545fc51795f27e07c6d5a573e39a26d0cfa13194ef03bc55eb4b9c8a891a3919050565b6041602052815f5260405f208181548110611017575f80fd5b905f5260205f20015f91509150505481565b6044602052815f5260405f208181548110611017575f80fd5b6001600160a01b0381165f908152603f6020908152604080832080548251818502810185019093528083526060949383018282801561109e57602002820191905f5260205f20905b81548152602001906001019080831161108a575b505050505090505f81516001600160401b038111156110bf576110bf613b8e565b6040519080825280602002602001820160405280156110f857816020015b6110e561383e565b8152602001906001900390816110dd5790505b5090505f5b825181101561132a57603e5f84838151811061111b5761111b614251565b60209081029190910181015182528181019290925260409081015f20815161014081018352815481526001808301546001600160a01b0381169583019590955290939192840191600160a01b900460ff169081111561117c5761117c6139e3565b600181111561118d5761118d6139e3565b8152600182015463ffffffff600160a81b820481166020840152600160c81b90910481166040830152600283015416606082015260038201546080820152600482015460a082015260058201805460c0909201916111ea90614265565b80601f016020809104026020016040519081016040528092919081815260200182805461121690614265565b80156112615780601f1061123857610100808354040283529160200191611261565b820191905f5260205f20905b81548152906001019060200180831161124457829003601f168201915b5050505050815260200160068201805461127a90614265565b80601f01602080910402602001604051908101604052809291908181526020018280546112a690614265565b80156112f15780601f106112c8576101008083540402835291602001916112f1565b820191905f5260205f20905b8154815290600101906020018083116112d457829003601f168201915b50505050508152505082828151811061130c5761130c614251565b602002602001018190525080806113229061429d565b9150506110fd565b509392505050565b603c6020525f908152604090208054600182015460028301805492936001600160a01b039092169261136390614265565b80601f016020809104026020016040519081016040528092919081815260200182805461138f90614265565b80156113da5780601f106113b1576101008083540402835291602001916113da565b820191905f5260205f20905b8154815290600101906020018083116113bd57829003601f168201915b5050506003909301549192505060ff1684565b6113f5612f7b565b5f81815260406020819052902061140a612fe2565b60028201546001600160a01b0390811691161461143a57604051630794ac6960e11b815260040160405180910390fd5b6002600582015460ff166003811115611455576114556139e3565b1461147357604051634fdb463360e11b815260040160405180910390fd5b600581015462010000900460ff161561149f5760405163475a253560e01b815260040160405180910390fd5b80600401543410156114c45760405163356680b760e01b815260040160405180910390fd5b600381015460048201546040515f926001600160a01b031691908381818185875af1925050503d805f8114611514576040519150601f19603f3d011682016040523d82523d5f602084013e611519565b606091505b505090508061153b57604051633c31275160e21b815260040160405180910390fd5b50600501805463ffffffff19166201010317905561156560015f805160206144d983398151915255565b50565b61157061316a565b6115798261320e565b61158382826132dc565b5050565b5f611590613398565b505f8051602061449983398151915290565b603d81815481106115b1575f80fd5b5f918252602090912001546001600160a01b0316905081565b6001600160a01b0381165f90815260426020908152604080832080548251818502810185019093528083526060949383018282801561162657602002820191905f5260205f20905b815481526020019060010190808311611612575b505050505090505f81516001600160401b0381111561164757611647613b8e565b60405190808252806020026020018201604052801561168057816020015b61166d61389d565b8152602001906001900390816116655790505b5090505f5b825181101561132a5760405f8483815181106116a3576116a3614251565b60209081029190910181015182528181019290925260409081015f208151610120810183528154815260018201549381019390935260028101546001600160a01b03908116928401929092526003808201549092166060840152600481015460808401526005810154909160a084019160ff1690811115611726576117266139e3565b6003811115611737576117376139e3565b81526005919091015460ff61010082048116151560208401526201000082048116151560408401526301000000909104161515606090910152825183908390811061178457611784614251565b6020026020010181905250808061179a9061429d565b915050611685565b6033546001600160a01b031633146117f55760405162461bcd60e51b815260206004820152601660248201527526bab9ba10313290383937b837b9b2b21037bbb732b960511b6044820152606401610d7b565b603280546001600160a01b0319808216339081179093556033805490911690556040516001600160a01b03909116919082907f8be0079c531659141344cd1fd0a4f28419497f9722a3daafe3b4186f6b6457e0905f90a350565b6032546001600160a01b0316331480159061187557506034546001600160a01b03163314155b156118c6573361188d6032546001600160a01b031690565b60345460405163061db9c160e01b81526001600160a01b0393841660048201529183166024830152919091166044820152606401610d7b565b6001600160a01b0381166118ed5760405163d92e233d60e01b815260040160405180910390fd5b603480546001600160a01b0319166001600160a01b0383169081179091556040519081527fd1a6a14209a385a964d036e404cb5cfb71f4000cdb03c9366292430787261be6906020015b60405180910390a150565b5f8054604051632474521560e21b8152600481018590526001600160a01b038481166024830152909116906391d14854906044015b602060405180830381865afa158015611992573d5f803e3d5ffd5b505050506040513d601f19601f820116820180604052508101906119b691906141bf565b9392505050565b5f546001600160a01b0316639e97b8f660046119d7612fe2565b6040518363ffffffff1660e01b81526004016119f4929190614193565b602060405180830381865afa158015611a0f573d5f803e3d5ffd5b505050506040513d601f19601f82011682018060405250810190611a3391906141bf565b611a5057604051631a58b31960e31b815260040160405180910390fd5b611a58612fb2565b60468054905f611a678361429d565b91905055506040518061014001604052806046548152602001611a88612fe2565b6001600160a01b031681526020016001815263ffffffff80871660208084019190915286821660408085019190915291861660608401526080830189905260a0830185905260c083018b905260e09092018990526046545f908152603e83528190208351815591830151600180840180546001600160a01b039093166001600160a01b0319841681178255938601519390926001600160a81b0319161790600160a01b908490811115611b3d57611b3d6139e3565b02179055506060820151600182018054608085015167ffffffffffffffff60a81b19909116600160a81b63ffffffff9485160263ffffffff60c81b191617600160c81b9184169190910217905560a083015160028301805463ffffffff19169190921617905560c0820151600382015560e082015160048201556101008201516005820190611bcc9082614302565b506101208201516006820190611be29082614302565b50905050603f5f611bf1612fe2565b6001600160a01b031681526020808201929092526040015f908120604654815460018101835591835292909120015550505050505050565b5f8054604051634f4bdc7b60e11b81526001600160a01b0390911690639e97b8f6906119779086908690600401614193565b611c63612fb2565b5f868152604060208190529020611c78612fe2565b60028201546001600160a01b03908116911614611ca857604051630794ac6960e11b815260040160405180910390fd5b5f600582015460ff166003811115611cc257611cc26139e3565b14611ce057604051632bf773b360e11b815260040160405180910390fd5b606481600401546050611cf391906143bd565b611cfd91906143e8565b6004820155600501805461ffff1916610102179055505050505050565b60436020525f9081526040902080546001820154600283015460038401546004850154600586018054959694956001600160a01b0394851695938516949092169291611d6590614265565b80601f0160208091040260200160405190810160405280929190818152602001828054611d9190614265565b8015611ddc5780601f10611db357610100808354040283529160200191611ddc565b820191905f5260205f20905b815481529060010190602001808311611dbf57829003601f168201915b505050506006830154600784015460088501546009909501549394919390925060ff80831692610100900416908b565b6042602052815f5260405f208181548110611017575f80fd5b60605f60015b6046548111611e885760015f828152603e60205260409020600190810154600160a01b900460ff1690811115611e6357611e636139e3565b03611e765781611e728161429d565b9250505b80611e808161429d565b915050611e2b565b505f816001600160401b03811115611ea257611ea2613b8e565b604051908082528060200260200182016040528015611edb57816020015b611ec861383e565b815260200190600190039081611ec05790505b5090505f60015b60465481116121305760015f828152603e60205260409020600190810154600160a01b900460ff1690811115611f1a57611f1a6139e3565b0361211e575f818152603e6020908152604091829020825161014081018452815481526001808301546001600160a01b038116948301949094529093919291840191600160a01b900460ff1690811115611f7657611f766139e3565b6001811115611f8757611f876139e3565b8152600182015463ffffffff600160a81b820481166020840152600160c81b90910481166040830152600283015416606082015260038201546080820152600482015460a082015260058201805460c090920191611fe490614265565b80601f016020809104026020016040519081016040528092919081815260200182805461201090614265565b801561205b5780601f106120325761010080835404028352916020019161205b565b820191905f5260205f20905b81548152906001019060200180831161203e57829003601f168201915b5050505050815260200160068201805461207490614265565b80601f01602080910402602001604051908101604052809291908181526020018280546120a090614265565b80156120eb5780601f106120c2576101008083540402835291602001916120eb565b820191905f5260205f20905b8154815290600101906020018083116120ce57829003601f168201915b5050505050815250508383806121009061429d565b94508151811061211257612112614251565b60200260200101819052505b806121288161429d565b915050611ee2565b50909392505050565b6001600160a01b0381165f90815260416020908152604080832080548251818502810185019093528083526060949383018282801561219557602002820191905f5260205f20905b815481526020019060010190808311612181575b505050505090505f81516001600160401b038111156121b6576121b6613b8e565b6040519080825280602002602001820160405280156121ef57816020015b6121dc61389d565b8152602001906001900390816121d45790505b5090505f5b825181101561132a5760405f84838151811061221257612212614251565b60209081029190910181015182528181019290925260409081015f208151610120810183528154815260018201549381019390935260028101546001600160a01b03908116928401929092526003808201549092166060840152600481015460808401526005810154909160a084019160ff1690811115612295576122956139e3565b60038111156122a6576122a66139e3565b81526005919091015460ff6101008204811615156020840152620100008204811615156040840152630100000090910416151560609091015282518390839081106122f3576122f3614251565b602002602001018190525080806123099061429d565b9150506121f4565b5f546001600160a01b0316639e97b8f6600461232b612fe2565b6040518363ffffffff1660e01b8152600401612348929190614193565b602060405180830381865afa158015612363573d5f803e3d5ffd5b505050506040513d601f19601f8201168201806040525081019061238791906141bf565b6123a457604051631a58b31960e31b815260040160405180910390fd5b6123ac612f7b565b6123b4612fb2565b34603854610e106123c59190614180565b4211156123d557426038555f6037555b603654816037546123e69190614180565b11156123f457610c1e612ff0565b8060375f8282546124059190614180565b90915550505f83815260436020526040902061241f612fe2565b60038201546001600160a01b0390811691161461244f5760405163bbd1087560e01b815260040160405180910390fd5b5f600882015460ff166002811115612469576124696139e3565b1461248757604051632bf773b360e11b815260040160405180910390fd5b6008810154610100900460ff16156124b15760405162560ff960e81b815260040160405180910390fd5b60088101805484919060ff191660018360028111156124d2576124d26139e3565b021790555060018360028111156124eb576124eb6139e3565b036125eb5780600601543410156125155760405163356680b760e01b815260040160405180910390fd5b600681015460048201546001600160a01b03165f908152604d602052604081208054909190612545908490614180565b909155505060088101805461ff00191661010017905560068101543411156125eb575f612570612fe2565b6001600160a01b031682600601543461258991906143fb565b6040515f81818185875af1925050503d805f81146125c2576040519150601f19603f3d011682016040523d82523d5f602084013e6125c7565b606091505b50509050806125e957604051633c31275160e21b815260040160405180910390fd5b505b505061158360015f805160206144d983398151915255565b6045602052815f5260405f208181548110611017575f80fd5b5f612625612fb2565b5f828152603e6020526040902060018082810154600160a01b900460ff1690811115612653576126536139e3565b1461267157604051638966b51f60e01b815260040160405180910390fd5b60498054905f6126808361429d565b919050555060405180610120016040528060495481526020018481526020016126a7612fe2565b6001600160a01b0390811682526001840154166020820152600383015460408201526060015f81525f6020808301829052604080840183905260609384018390526049548352808252918290208451815590840151600182810191909155918401516002820180546001600160a01b039283166001600160a01b031991821617909155938501516003808401805492909316919095161790556080840151600482015560a084015160058201805492949193909260ff1916918490811115612771576127716139e3565b021790555060c08201516005909101805460e084015161010094850151151563010000000263ff00000019911515620100000262ff0000199515159096029490941662ffff001990921691909117939093179290921617905560415f6127d5612fe2565b6001600160a01b03908116825260208083019390935260409182015f908120604980548254600181810185559385528785200155958101549092168152604284529182208454815492830182559083529290912001555490505b919050565b603e6020525f908152604090208054600182015460028301546003840154600485015460058601805495966001600160a01b0386169660ff600160a01b8804169663ffffffff600160a81b8204811697600160c81b90920481169691169490939092916128a090614265565b80601f01602080910402602001604051908101604052809291908181526020018280546128cc90614265565b80156129175780601f106128ee57610100808354040283529160200191612917565b820191905f5260205f20905b8154815290600101906020018083116128fa57829003601f168201915b50505050509080600601805461292c90614265565b80601f016020809104026020016040519081016040528092919081815260200182805461295890614265565b80156129a35780601f1061297a576101008083540402835291602001916129a3565b820191905f5260205f20905b81548152906001019060200180831161298657829003601f168201915b505050505090508a565b6129b5612fb2565b6001600160a01b0384166129dc5760405163e6c4247b60e01b815260040160405180910390fd5b5f858152604060208190529020600581015462010000900460ff16612a145760405163db771c6f60e01b815260040160405180910390fd5b60478054905f612a238361429d565b91905055506040518061016001604052806047548152602001878152602001612a4a612fe2565b6001600160a01b03908116825260038401548116602083015287166040820152606081018690526080810185905260a0810184905260c0015f81525f6020808301829052426040938401526047548252604381529082902083518155908301516001820155908201516002820180546001600160a01b039283166001600160a01b0319918216179091556060840151600384018054918416918316919091179055608084015160048401805491909316911617905560a08201516005820190612b139082614302565b5060c0820151600682015560e0820151600782015561010082015160088201805460ff19166001836002811115612b4c57612b4c6139e3565b02179055506101208201516008820180549115156101000261ff00199092169190911790556101409091015160099091015560445f612b89612fe2565b6001600160a01b031681526020808201929092526040015f9081206047548154600181018355918352929091200155505050505050565b7ff0c57e16840df040f15088dc2f81fe391c3923bec73e23a9662efc9c229c6a008054600160401b810460ff1615906001600160401b03165f81158015612c045750825b90505f826001600160401b03166001148015612c1f5750303b155b905081158015612c2d575080155b15612c4b5760405163f92ee8a960e01b815260040160405180910390fd5b845467ffffffffffffffff191660011785558315612c7557845460ff60401b1916600160401b1785555b612c7d6133e1565b612c856133f1565b612c8d613401565b612c968a613409565b603580546001600160a01b0319166001600160a01b038b161790556039889055603a879055603b8054600160301b63ffffffff891665ffffffffffff19909216919091176403000000001769ffffffff0000000000001916179055678ac7230489e80000603655426038558315612d4757845460ff60401b19168555604051600181527fc7f505b2f371ae2175ee4913f4499e1f2633a7b5936321eed1cdaeb6115181d29060200160405180910390a15b50505050505050505050565b612d5b612fb2565b6001603c5f612d68612fe2565b6001600160a01b0316815260208101919091526040015f206003015460ff166001811115612d9857612d986139e3565b03612db657604051630ea075bf60e21b815260040160405180910390fd5b80511580612dc5575060648151115b15612de35760405163430f13b360e01b815260040160405180910390fd5b60488054905f612df28361429d565b919050555060405180608001604052806048548152602001612e12612fe2565b6001600160a01b031681526020810183905260400160019052603c5f612e36612fe2565b6001600160a01b03908116825260208083019390935260409182015f2084518155928401516001840180546001600160a01b031916919092161790558201516002820190612e849082614302565b50606082015160038201805460ff191660018381811115612ea757612ea76139e3565b0217905550505f546001600160a01b03169050635d5664e16004612ec9612fe2565b6040518363ffffffff1660e01b8152600401612ee6929190614193565b5f604051808303815f87803b158015612efd575f80fd5b505af1158015612f0f573d5f803e3d5ffd5b50505050603d612f1d612fe2565b81546001810183555f928352602090922090910180546001600160a01b0319166001600160a01b0390921691909117905550565b612f59613490565b611565816134e3565b603f602052815f5260405f208181548110611017575f80fd5b5f805160206144d9833981519152805460011901612fac57604051633ee5aeb560e01b815260040160405180910390fd5b60029055565b5f805160206144b98339815191525460ff1615610d3d5760405163d93c066560e01b815260040160405180910390fd5b5f612feb61358c565b905090565b612ff8612fb2565b5f805160206144b9833981519152805460ff191660011781557f62e78cea01bee320cd4e420270b5ea74000d11b0c9f74754ebdbfc544b05a25861303a612fe2565b6040516001600160a01b039091168152602001611937565b60015f805160206144d983398151915255565b5f838152604e602052604090208054600160a01b900460ff166130885750505050565b5f600284845f81811061309d5761309d614251565b905060200201356130ae919061440e565b825460ff60a01b191683556040519015808252915085907f71bc374580bf8917176c900947ea37fee629dd40c4c2bdfec1ffbccb1399c34b9060200160405180910390a25050505050565b60607f92fd13387c7fe7befbc38d303d6468778fb9731bc4583f17d92989c6fcfdeaaa8260405160240161313291511515815260200190565b60408051601f198184030181529190526020810180516001600160e01b03166001600160e01b03199093169290921790915292915050565b306001600160a01b037f00000000000000000000000000000000000000000000000000000000000000001614806131f057507f00000000000000000000000000000000000000000000000000000000000000006001600160a01b03166131e45f80516020614499833981519152546001600160a01b031690565b6001600160a01b031614155b15610d3d5760405163703e46dd60e11b815260040160405180910390fd5b5f80546001600160a01b031690639e97b8f690613229612fe2565b6040518363ffffffff1660e01b8152600401613246929190614193565b602060405180830381865afa158015613261573d5f803e3d5ffd5b505050506040513d601f19601f8201168201806040525081019061328591906141bf565b6115655760405162461bcd60e51b815260206004820152602260248201527f416363657373436f6e74726f6c3a20726573747269637465642d746f2d61646d60448201526134b760f11b6064820152608401610d7b565b816001600160a01b03166352d1902d6040518163ffffffff1660e01b8152600401602060405180830381865afa925050508015613336575060408051601f3d908101601f191682019092526133339181019061423a565b60015b61335e57604051634c9c8ce360e01b81526001600160a01b0383166004820152602401610d7b565b5f80516020614499833981519152811461338e57604051632a87526960e21b815260048101829052602401610d7b565b610d8f83836135ff565b306001600160a01b037f00000000000000000000000000000000000000000000000000000000000000001614610d3d5760405163703e46dd60e11b815260040160405180910390fd5b6133e9613654565b610d3d61369d565b6133f9613654565b610d3d6136a5565b610d3d613654565b613411613654565b613419613401565b6001600160a01b03811661346f5760405162461bcd60e51b815260206004820152601e60248201527f496e76616c69642061636365737320636f6e74726f6c206164647265737300006044820152606401610d7b565b5f80546001600160a01b0319166001600160a01b0392909216919091179055565b6032546001600160a01b03163314610d3d5760405162461bcd60e51b815260206004820152601660248201527527b7363c9031b0b63630b1363290313c9037bbb732b960511b6044820152606401610d7b565b336001600160a01b0382160361353b5760405162461bcd60e51b815260206004820152601760248201527f43616e6e6f74207472616e7366657220746f2073656c660000000000000000006044820152606401610d7b565b603380546001600160a01b0319166001600160a01b03838116918217909255603254604051919216907fed8889f560326eb138920d842192f0eb3dd22b4f139c87a2c57538e05bae1278905f90a350565b5f366014336001600160a01b037f0000000000000000000000000000000000000000000000000000000000000000161480156135c85750808210155b156135f7575f366135d983856143fb565b6135e4928290614421565b6135ed91614448565b60601c9250505090565b339250505090565b613608826136c5565b6040516001600160a01b038316907fbc7cd75a20ee27fd9adebab32041f755214dbc6bffa90cc0225b39da2e5c2d3b905f90a280511561364c57610d8f8282613728565b61158361379a565b7ff0c57e16840df040f15088dc2f81fe391c3923bec73e23a9662efc9c229c6a0054600160401b900460ff16610d3d57604051631afcd79f60e31b815260040160405180910390fd5b613052613654565b6136ad613654565b5f805160206144b9833981519152805460ff19169055565b806001600160a01b03163b5f036136fa57604051634c9c8ce360e01b81526001600160a01b0382166004820152602401610d7b565b5f8051602061449983398151915280546001600160a01b0319166001600160a01b0392909216919091179055565b60605f80846001600160a01b031684604051613744919061447d565b5f60405180830381855af49150503d805f811461377c576040519150601f19603f3d011682016040523d82523d5f602084013e613781565b606091505b50915091506137918583836137b9565b95945050505050565b3415610d3d5760405163b398979f60e01b815260040160405180910390fd5b6060826137ce576137c982613815565b6119b6565b81511580156137e557506001600160a01b0384163b155b1561380e57604051639996b31560e01b81526001600160a01b0385166004820152602401610d7b565b5092915050565b8051156138255780518082602001fd5b604051630a12f52160e11b815260040160405180910390fd5b60408051610140810182525f80825260208201819052909182019081526020015f63ffffffff1681526020015f63ffffffff1681526020015f63ffffffff1681526020015f81526020015f815260200160608152602001606081525090565b60408051610120810182525f8082526020820181905291810182905260608101829052608081018290529060a082019081525f602082018190526040820181905260609091015290565b5f602082840312156138f7575f80fd5b5035919050565b5f8083601f84011261390e575f80fd5b5081356001600160401b03811115613924575f80fd5b6020830191508360208260051b850101111561393e575f80fd5b9250929050565b5f805f60408486031215613957575f80fd5b8335925060208401356001600160401b03811115613973575f80fd5b61397f868287016138fe565b9497909650939450505050565b80356001600160a01b038116811461282f575f80fd5b5f602082840312156139b2575f80fd5b6119b68261398c565b5f80604083850312156139cc575f80fd5b6139d58361398c565b946020939093013593505050565b634e487b7160e01b5f52602160045260245ffd5b60028110613a0757613a076139e3565b9052565b5f5b83811015613a25578181015183820152602001613a0d565b50505f910152565b5f8151808452613a44816020860160208601613a0b565b601f01601f19169290920160200192915050565b5f6020808301818452808551808352604092508286019150828160051b8701018488015f5b83811015613b4857603f19898403018552815180518452878101516001600160a01b0316888501528681015161014090613ab9898701826139f7565b5060608281015163ffffffff9081169187019190915260808084015182169087015260a0808401519091169086015260c0808301519086015260e0808301519086015261010080830151818701839052613b1583880182613a2d565b925050506101208083015192508582038187015250613b348183613a2d565b968901969450505090860190600101613a7d565b509098975050505050505050565b8481526001600160a01b03841660208201526080604082018190525f90613b7f90830185613a2d565b905061379160608301846139f7565b634e487b7160e01b5f52604160045260245ffd5b5f6001600160401b0380841115613bbb57613bbb613b8e565b604051601f8501601f19908116603f01168101908282118183101715613be357613be3613b8e565b81604052809350858152868686011115613bfb575f80fd5b858560208301375f602087830101525050509392505050565b5f8060408385031215613c25575f80fd5b613c2e8361398c565b915060208301356001600160401b03811115613c48575f80fd5b8301601f81018513613c58575f80fd5b613c6785823560208401613ba2565b9150509250929050565b60048110613a0757613a076139e3565b602080825282518282018190525f919060409081850190868401855b82811015613d29578151805185528681015187860152858101516001600160a01b0390811687870152606080830151909116908601526080808201519086015260a080820151613cef82880182613c71565b505060c08181015115159086015260e080820151151590860152610100908101511515908501526101209093019290850190600101613c9d565b5091979650505050505050565b5f8060408385031215613d47575f80fd5b82359150613d576020840161398c565b90509250929050565b5f82601f830112613d6f575f80fd5b6119b683833560208501613ba2565b5f805f805f805f60e0888a031215613d94575f80fd5b87356001600160401b0380821115613daa575f80fd5b613db68b838c01613d60565b985060208a0135915080821115613dcb575f80fd5b50613dd88a828b01613d60565b979a9799505050506040860135956060810135956080820135955060a0820135945060c09091013592509050565b5f8060408385031215613e17575f80fd5b823560098110613e25575f80fd5b9150613d576020840161398c565b8060408101831015610e05575f80fd5b5f805f805f806101408789031215613e59575f80fd5b86359550613e6a8860208901613e33565b945060e0870188811115613e7c575f80fd5b606088019450613e8c8982613e33565b9350506101208701356001600160401b03811115613ea8575f80fd5b613eb489828a016138fe565b979a9699509497509295939492505050565b8b8152602081018b90526001600160a01b038a8116604083015289811660608301528816608082015261016060a082018190525f90613f078382018a613a2d565b9150508660c08301528560e083015260038510613f2657613f266139e3565b6101008201949094529115156101208301526101409091015298975050505050505050565b602081525f6119b66020830184613a2d565b5f8060408385031215613f6e575f80fd5b82359150602083013560038110613f83575f80fd5b809150509250929050565b8a81526001600160a01b038a1660208201525f610140613fb1604084018c6139f7565b63ffffffff808b166060850152808a16608085015280891660a0850152508660c08401528560e084015280610100840152613fee81840186613a2d565b90508281036101208401526140038185613a2d565b9d9c50505050505050505050505050565b5f805f805f60a08688031215614028575f80fd5b853594506140386020870161398c565b935060408601356001600160401b03811115614052575f80fd5b61405e88828901613d60565b9598949750949560608101359550608001359392505050565b5f805f805f60a0868803121561408b575f80fd5b6140948661398c565b94506140a26020870161398c565b93506040860135925060608601359150608086013563ffffffff811681146140c8575f80fd5b809150509295509295909350565b5f602082840312156140e6575f80fd5b81356001600160401b038111156140fb575f80fd5b61410784828501613d60565b949350505050565b898152602081018990526001600160a01b0388811660408301528716606082015260808101869052610120810161414960a0830187613c71565b93151560c082015291151560e08301521515610100909101529695505050505050565b634e487b7160e01b5f52601160045260245ffd5b80820180821115610e0557610e0561416c565b60408101600984106141a7576141a76139e3565b9281526001600160a01b039190911660209091015290565b5f602082840312156141cf575f80fd5b815180151581146119b6575f80fd5b60208152815160208201526020820151604082015261ffff60408301511660608201525f606083015163ffffffff80821660808501528060808601511660a0850152505060a083015160c08084015261410760e0840182613a2d565b5f6020828403121561424a575f80fd5b5051919050565b634e487b7160e01b5f52603260045260245ffd5b600181811c9082168061427957607f821691505b60208210810361429757634e487b7160e01b5f52602260045260245ffd5b50919050565b5f600182016142ae576142ae61416c565b5060010190565b601f821115610d8f575f81815260208120601f850160051c810160208610156142db5750805b601f850160051c820191505b818110156142fa578281556001016142e7565b505050505050565b81516001600160401b0381111561431b5761431b613b8e565b61432f816143298454614265565b846142b5565b602080601f831160018114614362575f841561434b5750858301515b5f19600386901b1c1916600185901b1785556142fa565b5f85815260208120601f198616915b8281101561439057888601518255948401946001909101908401614371565b50858210156143ad57878501515f19600388901b60f8161c191681555b5050505050600190811b01905550565b8082028115828204841417610e0557610e0561416c565b634e487b7160e01b5f52601260045260245ffd5b5f826143f6576143f66143d4565b500490565b81810381811115610e0557610e0561416c565b5f8261441c5761441c6143d4565b500690565b5f808585111561442f575f80fd5b8386111561443b575f80fd5b5050820193919092039150565b6bffffffffffffffffffffffff1981358181169160148510156144755780818660140360031b1b83161692505b505092915050565b5f825161448e818460208701613a0b565b919091019291505056fe360894a13ba1a3210667c828492db98dca3e2076cc3735a920a3ca505d382bbccd5ed15c6e187e77e9aee88184c21f4f2182ab5827cb3b7e07fbedcd63f033009b779b17422d0df92223018b32b4d1fa46e071723d6817e2486d003becc55f00a264697066735822122065577e3642e609b338b7d5d1072b86b92fa99fec3fecaf27d0616c9427a0fea264736f6c63430008140033",
  "immutableReferences": {
    "585": [
      {
        "length": 32,
        "start": 1576
      },
      {
        "length": 32,
        "start": 1897
      },
      {
        "length": 32,
        "start": 13723
      }
    ],
    "992": [
      {
        "length": 32,
        "start": 12661
      },
      {
        "length": 32,
        "start": 12702
      },
      {
        "length": 32,
        "start": 13219
      }
    ]
  },
  "source": "// SPDX-License-Identifier: MIT\r\npragma solidity ^0.8.20;\r\n\r\nimport \"@openzeppelin/contracts-upgradeable/utils/ReentrancyGuardUpgradeable.sol\";\r\nimport \"@openzeppelin/contracts-upgradeable/utils/PausableUpgradeable.sol\";\r\nimport \"@openzeppelin/contracts-upgradeable/proxy/utils/Initializable.sol\";\r\nimport \"@openzeppelin/contracts-upgradeable/proxy/utils/UUPSUpgradeable.sol\";\r\nimport \"@openzeppelin/contracts-upgradeable/utils/ContextUpgradeable.sol\";\r\nimport \"@openzeppelin/contracts-upgradeable/metatx/ERC2771ContextUpgradeable.sol\";\r\nimport \"./common/MediSecureAuthUpgradeable.sol\";\r\nimport {Roles} from \"./MediSecureAccessControl.sol\";\r\nimport {StringUtils} from \"./libraries/StringUtils.sol\";\r\n\r\n// Chainlink VRF imports\r\nimport \"@chainlink/contracts/src/v0.8/vrf/dev/VRFConsumerBaseV2Plus.sol\";\r\nimport \"@chainlink/contracts/src/v0.8/vrf/dev/libraries/VRFV2PlusClient.sol\";\r\n\r\ninterface IZKPVerifier {\r\n    function verifyProof(uint256[2] memory a, uint256[2][2] memory b, uint256[2] memory c, uint256[5] memory input) external view returns (bool);\r\n}\r\n\r\n/**\r\n * @title Insurance\r\n * @dev UUPS Upgradeable insurance protocol with ZK-Proofs and VRF audits.\r\n */\r\ncontract Insurance is Initializable, ReentrancyGuardUpgradeable, PausableUpgradeable, UUPSUpgradeable, MediSecureAuthUpgradeable, ERC2771ContextUpgradeable, VRFConsumerBaseV2Plus {\r\n    \r\n    address public sanjeevniToken;\r\n\r\n    // --- Circuit Breaker State ---\r\n    uint256 public hourlyLimit;\r\n    uint256 public currentHourlySpent;\r\n    uint256 public lastResetTime;\r\n\r\n    // --- Chainlink VRF State ---\r\n    uint256 public s_subscriptionId;\r\n    bytes32 public keyHash;\r\n    uint32 public callbackGasLimit;\r\n    uint16 public requestConfirmations;\r\n    uint32 public numWords;\r\n\r\n    // Enums\r\n    enum PolicyStatus { INACTIVE, ACTIVE }\r\n    enum RequestStatus { PENDING, CALCULATED, VERIFIED, ACTIVE }\r\n    enum ClaimStatus { PENDING, APPROVED, REJECTED }\r\n\r\n    // Structs\r\n    struct Policy {\r\n        uint256 id;\r\n        address provider;\r\n        PolicyStatus status;\r\n        uint32 minAge;\r\n        uint32 maxSystolic;\r\n        uint32 maxDiastolic;\r\n        uint256 basePremium;\r\n        uint256 requiredVaccine;\r\n        string name;\r\n        string description;\r\n    }\r\n\r\n    struct InsuranceProvider {\r\n        uint256 id;\r\n        address wallet;\r\n        string name;\r\n        PolicyStatus status;\r\n    }\r\n\r\n    struct InsuranceRequest {\r\n        uint256 requestId;\r\n        uint256 policyId;\r\n        address patient;\r\n        address provider;\r\n        uint256 finalPremium;\r\n        RequestStatus status;\r\n        bool isVerified;\r\n        bool isFinalized;\r\n        bool useToken; \r\n    }\r\n\r\n    struct Claim {\r\n        uint256 id;\r\n        uint256 requestId;\r\n        address patient;\r\n        address provider;\r\n        address hospitalAddress;\r\n        string procedureName;\r\n        uint256 cost;\r\n        bytes32 evidenceHash;\r\n        ClaimStatus status;\r\n        bool isSettled;\r\n        uint256 timestamp;\r\n    }\r\n\r\n    // Mapping State\r\n    mapping(address => InsuranceProvider) public insuranceProviders;\r\n    address[] public providerAddresses;\r\n    mapping(uint256 => Policy) public policies;\r\n    mapping(address => uint256[]) public providerPolicies; \r\n    mapping(uint256 => InsuranceRequest) public insuranceRequests;\r\n    mapping(address => uint256[]) public patientRequests; \r\n    mapping(address => uint256[]) public providerRequests;\r\n    mapping(uint256 => Claim) public claims;\r\n    mapping(address => uint256[]) public patientClaims;\r\n    mapping(address => uint256[]) public providerClaims;\r\n\r\n    uint256 public policyCount;\r\n    uint256 public claimCount;\r\n    uint256 public insuranceCount;\r\n    uint256 public requestCount;\r\n    \r\n    address public zkpVerifier;\r\n    address public hospitalContract;\r\n    address public priceOracle;\r\n    mapping(address => uint256) public hospitalBalances;\r\n\r\n    // Custom Errors\r\n    error NotRegisteredProvider();\r\n    error NotYourPolicy();\r\n    error NotYourRequest();\r\n    error NotYourClaim();\r\n    error PolicyNotActive();\r\n    error AlreadyRegistered();\r\n    error AlreadyVerified();\r\n    error AlreadyFinalized();\r\n    error AlreadyProcessed();\r\n    error AlreadySettled();\r\n    error WaitForVerification();\r\n    error ProofNotEligible();\r\n    error VerifierNotInitialized();\r\n    error ZKVerificationFailed();\r\n    error InsufficientFunds();\r\n    error RefundFailed();\r\n    error InvalidAddress();\r\n    error NoBalanceToWithdraw();\r\n    error PolicyMustBeFinalized();\r\n    error InvalidName();\r\n    error LimitExceeded();\r\n\r\n    /// @custom:oz-upgrades-unsafe-allow constructor\r\n    constructor(address _forwarder, address _vrfCoordinator) \r\n        ERC2771ContextUpgradeable(_forwarder)\r\n        VRFConsumerBaseV2Plus(_vrfCoordinator)\r\n    {\r\n        // _disableInitializers();\r\n    }\r\n\r\n    function initialize(\r\n        address _accessControl,\r\n        address _sanjToken,\r\n        uint256 _subId,\r\n        bytes32 _keyHash,\r\n        uint32 _callbackGasLimit\r\n    ) public initializer {\r\n        __ReentrancyGuard_init();\r\n        __Pausable_init();\r\n        __UUPSUpgradeable_init();\r\n        __MediSecureAuth_init(_accessControl);\r\n\r\n        sanjeevniToken = _sanjToken;\r\n        s_subscriptionId = _subId;\r\n        keyHash = _keyHash;\r\n        callbackGasLimit = _callbackGasLimit;\r\n        requestConfirmations = 3;\r\n        numWords = 1;\r\n        \r\n        hourlyLimit = 10 ether;\r\n        lastResetTime = block.timestamp;\r\n    }\r\n\r\n    function _authorizeUpgrade(address newImplementation) internal override onlyAdmin {}\r\n\r\n    // Overrides for ContextUpgradeable/ERC2771ContextUpgradeable to resolve conflicts\r\n    function _msgSender() internal view override(ContextUpgradeable, ERC2771ContextUpgradeable) returns (address) {\r\n        return ERC2771ContextUpgradeable._msgSender();\r\n    }\r\n\r\n    function _msgData() internal view override(ContextUpgradeable, ERC2771ContextUpgradeable) returns (bytes calldata) {\r\n        return ERC2771ContextUpgradeable._msgData();\r\n    }\r\n\r\n    function _contextSuffixLength() internal view override(ContextUpgradeable, ERC2771ContextUpgradeable) returns (uint256) {\r\n        return ERC2771ContextUpgradeable._contextSuffixLength();\r\n    }\r\n\r\n    // --- Circuit Breaker Modifier ---\r\n    modifier checkLimit(uint256 _amount) {\r\n        if (block.timestamp > lastResetTime + 1 hours) {\r\n            lastResetTime = block.timestamp;\r\n            currentHourlySpent = 0;\r\n        }\r\n        if (currentHourlySpent + _amount > hourlyLimit) {\r\n            _pause(); \r\n            revert LimitExceeded();\r\n        }\r\n        currentHourlySpent += _amount;\r\n        _;\r\n    }\r\n\r\n    modifier onlyInsurance() {\r\n        if (!accessControl.hasRole(Roles.INSURANCE_PROVIDER, _msgSender())) revert NotRegisteredProvider();\r\n        _;\r\n    }\r\n\r\n    // --- VRF Logic ---\r\n    struct AuditRequest {\r\n        address patient;\r\n        bool active;\r\n    }\r\n    mapping(uint256 => AuditRequest) public auditRequests;\r\n    event AuditRequested(uint256 indexed requestId, address indexed patient);\r\n    event AuditResult(uint256 indexed requestId, bool passed);\r\n\r\n    function requestRandomAudit(address _patient) external onlyInsurance whenNotPaused returns (uint256 requestId) {\r\n        requestId = s_vrfCoordinator.requestRandomWords(\r\n            VRFV2PlusClient.RandomWordsRequest({\r\n                keyHash: keyHash,\r\n                subId: s_subscriptionId,\r\n                requestConfirmations: requestConfirmations,\r\n                callbackGasLimit: callbackGasLimit,\r\n                numWords: numWords,\r\n                extraArgs: VRFV2PlusClient._argsToBytes(VRFV2PlusClient.ExtraArgsV1({nativePayment: false}))\r\n            })\r\n        );\r\n        auditRequests[requestId] = AuditRequest({patient: _patient, active: true});\r\n        emit AuditRequested(requestId, _patient);\r\n    }\r\n\r\n    function fulfillRandomWords(uint256 requestId, uint256[] calldata randomWords) internal override {\r\n        AuditRequest storage request = auditRequests[requestId];\r\n        if (!request.active) return;\r\n        bool passed = (randomWords[0] % 2 == 0);\r\n        request.active = false;\r\n        emit AuditResult(requestId, passed);\r\n    }\r\n\r\n    // --- Core Functions ---\r\n    function registerInsuranceProvider(string memory name) public whenNotPaused {\r\n        if (insuranceProviders[_msgSender()].status == PolicyStatus.ACTIVE) revert AlreadyRegistered();\r\n        if (bytes(name).length == 0 || bytes(name).length > 100) revert InvalidName();\r\n        \r\n        insuranceCount++;\r\n        insuranceProviders[_msgSender()] = InsuranceProvider({\r\n            id: insuranceCount,\r\n            wallet: _msgSender(),\r\n            name: name,\r\n            status: PolicyStatus.ACTIVE\r\n        });\r\n        \r\n        accessControl.grantRole(Roles.INSURANCE_PROVIDER, _msgSender());\r\n        providerAddresses.push(_msgSender());\r\n    }\r\n\r\n    function createPolicy(\r\n        string memory name, \r\n        string memory description, \r\n        uint256 basePremium,\r\n        uint256 minAge,\r\n        uint256 maxSystolic,\r\n        uint256 maxDiastolic,\r\n        uint256 requiredVaccine\r\n    ) public onlyInsurance whenNotPaused {\r\n        policyCount++;\r\n        policies[policyCount] = Policy({\r\n            id: policyCount,\r\n            provider: _msgSender(),\r\n            status: PolicyStatus.ACTIVE,\r\n            minAge: uint32(minAge),\r\n            maxSystolic: uint32(maxSystolic),\r\n            maxDiastolic: uint32(maxDiastolic),\r\n            basePremium: basePremium,\r\n            requiredVaccine: requiredVaccine,\r\n            name: name,\r\n            description: description\r\n        });\r\n        providerPolicies[_msgSender()].push(policyCount);\r\n    }\r\n\r\n    function finalizePolicy(uint256 requestId) public payable nonReentrant {\r\n        InsuranceRequest storage req = insuranceRequests[requestId];\r\n        if (req.patient != _msgSender()) revert NotYourRequest();\r\n        if (req.status != RequestStatus.VERIFIED) revert WaitForVerification();\r\n        if (req.isFinalized) revert AlreadyFinalized();\r\n        if (msg.value < req.finalPremium) revert InsufficientFunds();\r\n\r\n        (bool sent, ) = payable(req.provider).call{value: req.finalPremium}(\"\");\r\n        if (!sent) revert RefundFailed();\r\n\r\n        req.status = RequestStatus.ACTIVE;\r\n        req.isVerified = true;\r\n        req.isFinalized = true;\r\n        req.useToken = false;\r\n    }\r\n\r\n    function submitClaim(\r\n        uint256 requestId,\r\n        address hospitalAddress,\r\n        string memory procedureName,\r\n        uint256 cost,\r\n        bytes32 evidenceHash\r\n    ) public whenNotPaused {\r\n        if (hospitalAddress == address(0)) revert InvalidAddress();\r\n        InsuranceRequest storage req = insuranceRequests[requestId];\r\n        if (!req.isFinalized) revert PolicyMustBeFinalized();\r\n\r\n        claimCount++;\r\n        claims[claimCount] = Claim({\r\n            id: claimCount,\r\n            requestId: requestId,\r\n            patient: _msgSender(),\r\n            provider: req.provider,\r\n            hospitalAddress: hospitalAddress,\r\n            procedureName: procedureName,\r\n            cost: cost,\r\n            evidenceHash: evidenceHash,\r\n            status: ClaimStatus.PENDING,\r\n            isSettled: false,\r\n            timestamp: block.timestamp\r\n        });\r\n        patientClaims[_msgSender()].push(claimCount);\r\n    }\r\n\r\n    function processClaim(uint256 claimId, ClaimStatus status) public payable onlyInsurance nonReentrant whenNotPaused checkLimit(msg.value) {\r\n        Claim storage clm = claims[claimId];\r\n        if (clm.provider != _msgSender()) revert NotYourClaim();\r\n        if (clm.status != ClaimStatus.PENDING) revert AlreadyProcessed();\r\n        if (clm.isSettled) revert AlreadySettled();\r\n\r\n        clm.status = status;\r\n        if (status == ClaimStatus.APPROVED) {\r\n            if (msg.value < clm.cost) revert InsufficientFunds();\r\n            hospitalBalances[clm.hospitalAddress] += clm.cost;\r\n            clm.isSettled = true;\r\n            if (msg.value > clm.cost) {\r\n                (bool refunded, ) = payable(_msgSender()).call{value: msg.value - clm.cost}(\"\");\r\n                if (!refunded) revert RefundFailed();\r\n            }\r\n        }\r\n    }\r\n\r\n    function withdrawSettlement() external nonReentrant whenNotPaused checkLimit(hospitalBalances[_msgSender()]) {\r\n        uint256 amount = hospitalBalances[_msgSender()];\r\n        if (amount == 0) revert NoBalanceToWithdraw();\r\n        hospitalBalances[_msgSender()] = 0;\r\n        (bool success, ) = payable(_msgSender()).call{value: amount}(\"\");\r\n    }\r\n\r\n    function getProviderPolicies(address _provider) public view returns (Policy[] memory) {\r\n        uint256[] memory ids = providerPolicies[_provider];\r\n        Policy[] memory p = new Policy[](ids.length);\r\n        for (uint i = 0; i < ids.length; i++) {\r\n            p[i] = policies[ids[i]];\r\n        }\r\n        return p;\r\n    }\r\n\r\n    function getProviderInsuranceRequests(address _provider) public view returns (InsuranceRequest[] memory) {\r\n        uint256[] memory ids = providerRequests[_provider];\r\n        InsuranceRequest[] memory r = new InsuranceRequest[](ids.length);\r\n        for (uint i = 0; i < ids.length; i++) {\r\n            r[i] = insuranceRequests[ids[i]];\r\n        }\r\n        return r;\r\n    }\r\n\r\n    // Missing functions for frontend compatibility\r\n\r\n    function getAllActivePolicies() public view returns (Policy[] memory) {\r\n        uint256 activeCount = 0;\r\n        for (uint256 i = 1; i <= policyCount; i++) {\r\n            if (policies[i].status == PolicyStatus.ACTIVE) activeCount++;\r\n        }\r\n        Policy[] memory p = new Policy[](activeCount);\r\n        uint256 index = 0;\r\n        for (uint256 i = 1; i <= policyCount; i++) {\r\n            if (policies[i].status == PolicyStatus.ACTIVE) {\r\n                p[index++] = policies[i];\r\n            }\r\n        }\r\n        return p;\r\n    }\r\n\r\n    function requestInsuranceQuote(uint256 policyId) public whenNotPaused returns (uint256) {\r\n        Policy storage policy = policies[policyId];\r\n        if (policy.status != PolicyStatus.ACTIVE) revert PolicyNotActive();\r\n\r\n        requestCount++;\r\n        insuranceRequests[requestCount] = InsuranceRequest({\r\n            requestId: requestCount,\r\n            policyId: policyId,\r\n            patient: _msgSender(),\r\n            provider: policy.provider,\r\n            finalPremium: policy.basePremium,\r\n            status: RequestStatus.PENDING,\r\n            isVerified: false,\r\n            isFinalized: false,\r\n            useToken: false\r\n        });\r\n\r\n        patientRequests[_msgSender()].push(requestCount);\r\n        providerRequests[policy.provider].push(requestCount);\r\n\r\n        return requestCount;\r\n    }\r\n\r\n    function submitInsuranceProof(\r\n        uint256 requestId,\r\n        uint256[2] calldata a,\r\n        uint256[2][2] calldata b,\r\n        uint256[2] calldata c,\r\n        uint256[] calldata input\r\n    ) public whenNotPaused {\r\n        InsuranceRequest storage req = insuranceRequests[requestId];\r\n        if (req.patient != _msgSender()) revert NotYourRequest();\r\n        if (req.status != RequestStatus.PENDING) revert AlreadyProcessed();\r\n\r\n        // In production, IZKPVerifier(zkpVerifier).verifyProof(a, b, c, input)\r\n        // Here we apply 20% discount on verification\r\n        req.finalPremium = (req.finalPremium * 80) / 100;\r\n        req.isVerified = true;\r\n        req.status = RequestStatus.VERIFIED;\r\n    }\r\n\r\n    function getPatientInsuranceRequests(address _patient) public view returns (InsuranceRequest[] memory) {\r\n        uint256[] memory ids = patientRequests[_patient];\r\n        InsuranceRequest[] memory r = new InsuranceRequest[](ids.length);\r\n        for (uint i = 0; i < ids.length; i++) {\r\n            r[i] = insuranceRequests[ids[i]];\r\n        }\r\n        return r;\r\n    }\r\n}\r\n",
  "sourcePath": "C:\\Users\\night\\Downloads\\team-rocket-medi-secure\\team-rocket-medi-secure\\contracts\\contracts\\Insurance.sol",
  "compiler": {
    "name": "solc",
    "version": "0.8.20+commit.a1b79de6.Emscripten.clang"
  },
  "schemaVersion": "3.4.16",
  "updatedAt": "2026-04-24T10:38:31.060Z",
  "networkType": "ethereum",
  "devdoc": {
    "details": "UUPS Upgradeable insurance protocol with ZK-Proofs and VRF audits.",
    "errors": {
      "AddressEmptyCode(address)": [
        {
          "details": "There's no code at `target` (it is not a contract)."
        }
      ],
      "ERC1967InvalidImplementation(address)": [
        {
          "details": "The `implementation` of the proxy is invalid."
        }
      ],
      "ERC1967NonPayable()": [
        {
          "details": "An upgrade function sees `msg.value > 0` that may be lost."
        }
      ],
      "EnforcedPause()": [
        {
          "details": "The operation failed because the contract is paused."
        }
      ],
      "ExpectedPause()": [
        {
          "details": "The operation failed because the contract is not paused."
        }
      ],
      "FailedInnerCall()": [
        {
          "details": "A call to an address target failed. The target may have reverted."
        }
      ],
      "InvalidInitialization()": [
        {
          "details": "The contract is already initialized."
        }
      ],
      "NotInitializing()": [
        {
          "details": "The contract is not initializing."
        }
      ],
      "ReentrancyGuardReentrantCall()": [
        {
          "details": "Unauthorized reentrant call."
        }
      ],
      "UUPSUnauthorizedCallContext()": [
        {
          "details": "The call is from an unauthorized context."
        }
      ],
      "UUPSUnsupportedProxiableUUID(bytes32)": [
        {
          "details": "The storage `slot` is unsupported as a UUID."
        }
      ]
    },
    "events": {
      "Initialized(uint64)": {
        "details": "Triggered when the contract has been initialized or reinitialized."
      },
      "Paused(address)": {
        "details": "Emitted when the pause is triggered by `account`."
      },
      "Unpaused(address)": {
        "details": "Emitted when the pause is lifted by `account`."
      },
      "Upgraded(address)": {
        "details": "Emitted when the implementation is upgraded."
      }
    },
    "kind": "dev",
    "methods": {
      "constructor": {
        "custom:oz-upgrades-unsafe-allow": "constructor"
      },
      "isTrustedForwarder(address)": {
        "details": "Indicates whether any particular address is the trusted forwarder."
      },
      "paused()": {
        "details": "Returns true if the contract is paused, and false otherwise."
      },
      "proxiableUUID()": {
        "details": "Implementation of the ERC1822 {proxiableUUID} function. This returns the storage slot used by the implementation. It is used to validate the implementation's compatibility when performing an upgrade. IMPORTANT: A proxy pointing at a proxiable contract should not be considered proxiable itself, because this risks bricking a proxy that upgrades to it, by delegating to itself until out of gas. Thus it is critical that this function revert if invoked through a proxy. This is guaranteed by the `notDelegated` modifier."
      },
      "trustedForwarder()": {
        "details": "Returns the address of the trusted forwarder."
      },
      "upgradeToAndCall(address,bytes)": {
        "custom:oz-upgrades-unsafe-allow-reachable": "delegatecall",
        "details": "Upgrade the implementation of the proxy to `newImplementation`, and subsequently execute the function call encoded in `data`. Calls {_authorizeUpgrade}. Emits an {Upgraded} event."
      }
    },
    "title": "Insurance",
    "version": 1
  },
  "userdoc": {
    "kind": "user",
    "methods": {
      "acceptOwnership()": {
        "notice": "Allows an ownership transfer to be completed by the recipient."
      },
      "owner()": {
        "notice": "Get the current owner"
      },
      "setCoordinator(address)": {
        "notice": "Sets the VRF Coordinator addressThis method should only be callable by the coordinator or contract owner"
      },
      "transferOwnership(address)": {
        "notice": "Allows an owner to begin transferring ownership to a new address."
      }
    },
    "version": 1
  },
  "timeoutBlocks": 500,
  "numberFormat": "BN"
}