{
  "contractName": "InsurancePriceOracle",
  "abi": [
    {
      "inputs": [
        {
          "internalType": "address",
          "name": "_accessControl",
          "type": "address"
        },
        {
          "internalType": "address",
          "name": "_trustedForwarder",
          "type": "address"
        },
        {
          "internalType": "address",
          "name": "_medianizer",
          "type": "address"
        }
      ],
      "stateMutability": "nonpayable",
      "type": "constructor",
      "signature": "constructor"
    },
    {
      "anonymous": false,
      "inputs": [
        {
          "indexed": false,
          "internalType": "string",
          "name": "asset",
          "type": "string"
        },
        {
          "indexed": false,
          "internalType": "address",
          "name": "feed",
          "type": "address"
        }
      ],
      "name": "PriceFeedUpdated",
      "type": "event",
      "signature": "0x74b9819a3b3ab6f1735c195541c4352dec722e0e22f92198d9f1719d2e89a757"
    },
    {
      "anonymous": false,
      "inputs": [
        {
          "indexed": false,
          "internalType": "string",
          "name": "asset",
          "type": "string"
        },
        {
          "indexed": false,
          "internalType": "uint256",
          "name": "price",
          "type": "uint256"
        }
      ],
      "name": "PriceRequested",
      "type": "event",
      "signature": "0xe50392ec1ef53dfbbfbb366280c4831b8bde37354fbb6528121d32ae76a9700a"
    },
    {
      "inputs": [],
      "name": "accessControl",
      "outputs": [
        {
          "internalType": "contract MediSecureAccessControl",
          "name": "",
          "type": "address"
        }
      ],
      "stateMutability": "view",
      "type": "function",
      "constant": true,
      "signature": "0x13007d55"
    },
    {
      "inputs": [
        {
          "internalType": "bytes32",
          "name": "role",
          "type": "bytes32"
        },
        {
          "internalType": "address",
          "name": "account",
          "type": "address"
        }
      ],
      "name": "hasRole",
      "outputs": [
        {
          "internalType": "bool",
          "name": "",
          "type": "bool"
        }
      ],
      "stateMutability": "view",
      "type": "function",
      "constant": true,
      "signature": "0x91d14854"
    },
    {
      "inputs": [
        {
          "internalType": "enum Roles",
          "name": "role",
          "type": "uint8"
        },
        {
          "internalType": "address",
          "name": "account",
          "type": "address"
        }
      ],
      "name": "hasRole",
      "outputs": [
        {
          "internalType": "bool",
          "name": "",
          "type": "bool"
        }
      ],
      "stateMutability": "view",
      "type": "function",
      "constant": true,
      "signature": "0x9e97b8f6"
    },
    {
      "inputs": [
        {
          "internalType": "address",
          "name": "account",
          "type": "address"
        }
      ],
      "name": "isAdmin",
      "outputs": [
        {
          "internalType": "bool",
          "name": "",
          "type": "bool"
        }
      ],
      "stateMutability": "view",
      "type": "function",
      "constant": true,
      "signature": "0x24d7806c"
    },
    {
      "inputs": [
        {
          "internalType": "address",
          "name": "forwarder",
          "type": "address"
        }
      ],
      "name": "isTrustedForwarder",
      "outputs": [
        {
          "internalType": "bool",
          "name": "",
          "type": "bool"
        }
      ],
      "stateMutability": "view",
      "type": "function",
      "constant": true,
      "signature": "0x572b6c05"
    },
    {
      "inputs": [],
      "name": "medianizer",
      "outputs": [
        {
          "internalType": "address",
          "name": "",
          "type": "address"
        }
      ],
      "stateMutability": "view",
      "type": "function",
      "constant": true,
      "signature": "0x053571e1"
    },
    {
      "inputs": [
        {
          "internalType": "string",
          "name": "",
          "type": "string"
        }
      ],
      "name": "priceFeeds",
      "outputs": [
        {
          "internalType": "address",
          "name": "",
          "type": "address"
        }
      ],
      "stateMutability": "view",
      "type": "function",
      "constant": true,
      "signature": "0xcb8ae86c"
    },
    {
      "inputs": [],
      "name": "trustedForwarder",
      "outputs": [
        {
          "internalType": "address",
          "name": "",
          "type": "address"
        }
      ],
      "stateMutability": "view",
      "type": "function",
      "constant": true,
      "signature": "0x7da0a877"
    },
    {
      "inputs": [
        {
          "internalType": "string",
          "name": "asset",
          "type": "string"
        },
        {
          "internalType": "address",
          "name": "feed",
          "type": "address"
        }
      ],
      "name": "setPriceFeed",
      "outputs": [],
      "stateMutability": "nonpayable",
      "type": "function",
      "signature": "0xf3b3347e"
    },
    {
      "inputs": [
        {
          "internalType": "string",
          "name": "asset",
          "type": "string"
        }
      ],
      "name": "getLatestPrice",
      "outputs": [
        {
          "internalType": "uint256",
          "name": "",
          "type": "uint256"
        }
      ],
      "stateMutability": "nonpayable",
      "type": "function",
      "signature": "0xf66a1b71"
    }
  ],
  "bytecode": "0x60a060405234801561000f575f80fd5b50604051610b4b380380610b4b83398101604081905261002e916100a7565b6001600160a01b0380831660805283908390821615610062575f80546001600160a01b0319166001600160a01b0384161790555b5050600280546001600160a01b0319166001600160a01b0392909216919091179055506100e79050565b80516001600160a01b03811681146100a2575f80fd5b919050565b5f805f606084860312156100b9575f80fd5b6100c28461008c565b92506100d06020850161008c565b91506100de6040850161008c565b90509250925092565b608051610a3e61010d5f395f818161011401528181610146015261060e0152610a3e5ff3fe608060405234801561000f575f80fd5b506004361061009b575f3560e01c806391d148541161006357806391d148541461016a5780639e97b8f61461017d578063cb8ae86c14610190578063f3b3347e146101c4578063f66a1b71146101d9575f80fd5b8063053571e11461009f57806313007d55146100cf57806324d7806c146100e1578063572b6c05146101045780637da0a87714610144575b5f80fd5b6002546100b2906001600160a01b031681565b6040516001600160a01b0390911681526020015b60405180910390f35b5f546100b2906001600160a01b031681565b6100f46100ef366004610696565b6101fa565b60405190151581526020016100c6565b6100f4610112366004610696565b7f00000000000000000000000000000000000000000000000000000000000000006001600160a01b0390811691161490565b7f00000000000000000000000000000000000000000000000000000000000000006100b2565b6100f46101783660046106af565b610271565b6100f461018b3660046106d9565b6102ec565b6100b261019e3660046107a3565b80516020818301810180516001825292820191909301209152546001600160a01b031681565b6101d76101d23660046107dd565b61031e565b005b6101ec6101e73660046107a3565b6104b2565b6040519081526020016100c6565b5f8054604051634f4bdc7b60e11b81526001600160a01b0390911690639e97b8f69061022c908490869060040161081f565b602060405180830381865afa158015610247573d5f803e3d5ffd5b505050506040513d601f19601f8201168201806040525081019061026b9190610857565b92915050565b5f8054604051632474521560e21b8152600481018590526001600160a01b038481166024830152909116906391d14854906044015b602060405180830381865afa1580156102c1573d5f803e3d5ffd5b505050506040513d601f19601f820116820180604052508101906102e59190610857565b9392505050565b5f8054604051634f4bdc7b60e11b81526001600160a01b0390911690639e97b8f6906102a6908690869060040161081f565b5f80546001600160a01b031690639e97b8f690610339610608565b6040518363ffffffff1660e01b815260040161035692919061081f565b602060405180830381865afa158015610371573d5f803e3d5ffd5b505050506040513d601f19601f820116820180604052508101906103959190610857565b6103f15760405162461bcd60e51b815260206004820152602260248201527f416363657373436f6e74726f6c3a20726573747269637465642d746f2d61646d60448201526134b760f11b60648201526084015b60405180910390fd5b6001600160a01b0381166104365760405162461bcd60e51b815260206004820152600c60248201526b125b9d985b1a59081999595960a21b60448201526064016103e8565b806001836040516104479190610898565b90815260405190819003602001812080546001600160a01b03939093166001600160a01b0319909316929092179091557f74b9819a3b3ab6f1735c195541c4352dec722e0e22f92198d9f1719d2e89a757906104a690849084906108de565b60405180910390a15050565b5f806001836040516104c49190610898565b908152604051908190036020019020546001600160a01b031690508061051d5760405162461bcd60e51b815260206004820152600e60248201526d11995959081b9bdd08199bdd5b9960921b60448201526064016103e8565b5f8190505f816001600160a01b031663feaf968c6040518163ffffffff1660e01b815260040160a060405180830381865afa15801561055e573d5f803e3d5ffd5b505050506040513d601f19601f820116820180604052508101906105829190610920565b5050509150505f81136105c75760405162461bcd60e51b815260206004820152600d60248201526c496e76616c696420707269636560981b60448201526064016103e8565b7fe50392ec1ef53dfbbfbb366280c4831b8bde37354fbb6528121d32ae76a9700a85826040516105f892919061096c565b60405180910390a1949350505050565b5f3660147f00000000000000000000000000000000000000000000000000000000000000006001600160a01b0316331480156106445750808210155b15610673575f36610655838561098d565b6106609282906109ac565b610669916109d3565b60601c9250505090565b339250505090565b80356001600160a01b0381168114610691575f80fd5b919050565b5f602082840312156106a6575f80fd5b6102e58261067b565b5f80604083850312156106c0575f80fd5b823591506106d06020840161067b565b90509250929050565b5f80604083850312156106ea575f80fd5b8235600981106106f8575f80fd5b91506106d06020840161067b565b634e487b7160e01b5f52604160045260245ffd5b5f82601f830112610729575f80fd5b813567ffffffffffffffff8082111561074457610744610706565b604051601f8301601f19908116603f0116810190828211818310171561076c5761076c610706565b81604052838152866020858801011115610784575f80fd5b836020870160208301375f602085830101528094505050505092915050565b5f602082840312156107b3575f80fd5b813567ffffffffffffffff8111156107c9575f80fd5b6107d58482850161071a565b949350505050565b5f80604083850312156107ee575f80fd5b823567ffffffffffffffff811115610804575f80fd5b6108108582860161071a565b9250506106d06020840161067b565b604081016009841061083f57634e487b7160e01b5f52602160045260245ffd5b9281526001600160a01b039190911660209091015290565b5f60208284031215610867575f80fd5b815180151581146102e5575f80fd5b5f5b83811015610890578181015183820152602001610878565b50505f910152565b5f82516108a9818460208701610876565b9190910192915050565b5f81518084526108ca816020860160208601610876565b601f01601f19169290920160200192915050565b604081525f6108f060408301856108b3565b905060018060a01b03831660208301529392505050565b805169ffffffffffffffffffff81168114610691575f80fd5b5f805f805f60a08688031215610934575f80fd5b61093d86610907565b945060208601519350604086015192506060860151915061096060808701610907565b90509295509295909350565b604081525f61097e60408301856108b3565b90508260208301529392505050565b8181038181111561026b57634e487b7160e01b5f52601160045260245ffd5b5f80858511156109ba575f80fd5b838611156109c6575f80fd5b5050820193919092039150565b6bffffffffffffffffffffffff198135818116916014851015610a005780818660140360031b1b83161692505b50509291505056fea2646970667358221220d468b732688b5f244faa4fb3d97bbd30ddee0910ebed6def4a9e3eed861f2c8e64736f6c63430008140033",
  "immutableReferences": {
    "4782": [
      {
        "length": 32,
        "start": 276
      },
      {
        "length": 32,
        "start": 326
      },
      {
        "length": 32,
        "start": 1550
      }
    ]
  },
  "source": "// SPDX-License-Identifier: MIT\npragma solidity ^0.8.20;\n\nimport \"@chainlink/contracts/src/v0.8/shared/interfaces/AggregatorV3Interface.sol\";\nimport \"./common/MediSecureAuth.sol\";\nimport {Roles} from \"./MediSecureAccessControl.sol\";\n\n/**\n * @title InsurancePriceOracle\n * @dev Fetches real-time price feeds for insurance premium calculation.\n * Links with PriceMedianizer for decentralized trust.\n */\ncontract InsurancePriceOracle is MediSecureAuth {\n    \n    mapping(string => address) public priceFeeds;\n    address public medianizer;\n\n    event PriceFeedUpdated(string asset, address feed);\n    event PriceRequested(string asset, uint256 price);\n\n    constructor(address _accessControl, address _trustedForwarder, address _medianizer) \n        MediSecureAuth(_accessControl, _trustedForwarder) \n    {\n        medianizer = _medianizer;\n    }\n\n    function setPriceFeed(string memory asset, address feed) public onlyAdmin {\n        require(feed != address(0), \"Invalid feed\");\n        priceFeeds[asset] = feed;\n        emit PriceFeedUpdated(asset, feed);\n    }\n\n    function getLatestPrice(string memory asset) public returns (uint256) {\n        address feed = priceFeeds[asset];\n        require(feed != address(0), \"Feed not found\");\n\n        AggregatorV3Interface priceFeed = AggregatorV3Interface(feed);\n        (, int price, , , ) = priceFeed.latestRoundData();\n        require(price > 0, \"Invalid price\");\n\n        emit PriceRequested(asset, uint256(price));\n        return uint256(price);\n    }\n}",
  "sourcePath": "/home/ayush/Desktop/code/Sanjeevni/contracts/contracts/InsurancePriceOracle.sol",
  "compiler": {
    "name": "solc",
    "version": "0.8.20+commit.a1b79de6.Emscripten.clang"
  },
  "schemaVersion": "3.4.16",
  "updatedAt": "2026-04-13T22:12:23.325Z",
  "networkType": "ethereum",
  "devdoc": {
    "details": "Fetches real-time price feeds for insurance premium calculation. Links with PriceMedianizer for decentralized trust.",
    "kind": "dev",
    "methods": {
      "isTrustedForwarder(address)": {
        "details": "Indicates whether any particular address is the trusted forwarder."
      },
      "trustedForwarder()": {
        "details": "Returns the address of the trusted forwarder."
      }
    },
    "title": "InsurancePriceOracle",
    "version": 1
  },
  "userdoc": {
    "kind": "user",
    "methods": {},
    "version": 1
  },
  "timeoutBlocks": 500
}