{
  "contractName": "Marketplace",
  "abi": [
    {
      "inputs": [
        {
          "internalType": "address",
          "name": "_forwarder",
          "type": "address"
        }
      ],
      "stateMutability": "nonpayable",
      "type": "constructor",
      "signature": "constructor"
    },
    {
      "inputs": [
        {
          "internalType": "address",
          "name": "target",
          "type": "address"
        }
      ],
      "name": "AddressEmptyCode",
      "type": "error"
    },
    {
      "inputs": [
        {
          "internalType": "address",
          "name": "account",
          "type": "address"
        }
      ],
      "name": "AddressInsufficientBalance",
      "type": "error"
    },
    {
      "inputs": [],
      "name": "AlreadyRegistered",
      "type": "error"
    },
    {
      "inputs": [],
      "name": "ECDSAInvalidSignature",
      "type": "error"
    },
    {
      "inputs": [
        {
          "internalType": "uint256",
          "name": "length",
          "type": "uint256"
        }
      ],
      "name": "ECDSAInvalidSignatureLength",
      "type": "error"
    },
    {
      "inputs": [
        {
          "internalType": "bytes32",
          "name": "s",
          "type": "bytes32"
        }
      ],
      "name": "ECDSAInvalidSignatureS",
      "type": "error"
    },
    {
      "inputs": [
        {
          "internalType": "address",
          "name": "implementation",
          "type": "address"
        }
      ],
      "name": "ERC1967InvalidImplementation",
      "type": "error"
    },
    {
      "inputs": [],
      "name": "ERC1967NonPayable",
      "type": "error"
    },
    {
      "inputs": [],
      "name": "EnforcedPause",
      "type": "error"
    },
    {
      "inputs": [],
      "name": "ExpectedPause",
      "type": "error"
    },
    {
      "inputs": [],
      "name": "FailedInnerCall",
      "type": "error"
    },
    {
      "inputs": [],
      "name": "InsufficientBudget",
      "type": "error"
    },
    {
      "inputs": [],
      "name": "InvalidBudget",
      "type": "error"
    },
    {
      "inputs": [],
      "name": "InvalidInitialization",
      "type": "error"
    },
    {
      "inputs": [],
      "name": "LimitExceeded",
      "type": "error"
    },
    {
      "inputs": [],
      "name": "NoEarnings",
      "type": "error"
    },
    {
      "inputs": [],
      "name": "NotCompany",
      "type": "error"
    },
    {
      "inputs": [],
      "name": "NotInitializing",
      "type": "error"
    },
    {
      "inputs": [],
      "name": "OfferNotActive",
      "type": "error"
    },
    {
      "inputs": [],
      "name": "ReentrancyGuardReentrantCall",
      "type": "error"
    },
    {
      "inputs": [
        {
          "internalType": "address",
          "name": "token",
          "type": "address"
        }
      ],
      "name": "SafeERC20FailedOperation",
      "type": "error"
    },
    {
      "inputs": [],
      "name": "TransferFailed",
      "type": "error"
    },
    {
      "inputs": [],
      "name": "UUPSUnauthorizedCallContext",
      "type": "error"
    },
    {
      "inputs": [
        {
          "internalType": "bytes32",
          "name": "slot",
          "type": "bytes32"
        }
      ],
      "name": "UUPSUnsupportedProxiableUUID",
      "type": "error"
    },
    {
      "inputs": [],
      "name": "Unauthorized",
      "type": "error"
    },
    {
      "anonymous": false,
      "inputs": [
        {
          "indexed": true,
          "internalType": "address",
          "name": "wallet",
          "type": "address"
        },
        {
          "indexed": false,
          "internalType": "string",
          "name": "name",
          "type": "string"
        }
      ],
      "name": "CompanyRegistered",
      "type": "event",
      "signature": "0x76686aa361308f4a08557cca1a847299ce61e5602a3495cd359a599a1dca438c"
    },
    {
      "anonymous": false,
      "inputs": [
        {
          "indexed": true,
          "internalType": "uint256",
          "name": "offerId",
          "type": "uint256"
        },
        {
          "indexed": true,
          "internalType": "address",
          "name": "company",
          "type": "address"
        },
        {
          "indexed": true,
          "internalType": "address",
          "name": "patient",
          "type": "address"
        },
        {
          "indexed": false,
          "internalType": "uint256",
          "name": "price",
          "type": "uint256"
        },
        {
          "indexed": false,
          "internalType": "bool",
          "name": "isToken",
          "type": "bool"
        }
      ],
      "name": "DataSold",
      "type": "event",
      "signature": "0x08c01b0917b1a6c5225a36e8683be11367bd142c02fb3a6670d90fcad8a9665a"
    },
    {
      "anonymous": false,
      "inputs": [],
      "name": "EIP712DomainChanged",
      "type": "event",
      "signature": "0x0a6387c9ea3628b88a633bb4f3b151770f70085117a15f9bf3787cda53f13d31"
    },
    {
      "anonymous": false,
      "inputs": [
        {
          "indexed": true,
          "internalType": "address",
          "name": "patient",
          "type": "address"
        },
        {
          "indexed": false,
          "internalType": "uint256",
          "name": "amount",
          "type": "uint256"
        },
        {
          "indexed": false,
          "internalType": "bool",
          "name": "isToken",
          "type": "bool"
        }
      ],
      "name": "EarningsClaimed",
      "type": "event",
      "signature": "0xe4c6cb9f9a0db688109bcb755263be612a9b1ce52b4a9391217f363e2fa1bea8"
    },
    {
      "anonymous": false,
      "inputs": [
        {
          "indexed": false,
          "internalType": "uint64",
          "name": "version",
          "type": "uint64"
        }
      ],
      "name": "Initialized",
      "type": "event",
      "signature": "0xc7f505b2f371ae2175ee4913f4499e1f2633a7b5936321eed1cdaeb6115181d2"
    },
    {
      "anonymous": false,
      "inputs": [
        {
          "indexed": true,
          "internalType": "uint256",
          "name": "offerId",
          "type": "uint256"
        },
        {
          "indexed": true,
          "internalType": "address",
          "name": "company",
          "type": "address"
        },
        {
          "indexed": false,
          "internalType": "string",
          "name": "title",
          "type": "string"
        },
        {
          "indexed": false,
          "internalType": "uint256",
          "name": "price",
          "type": "uint256"
        }
      ],
      "name": "OfferCreated",
      "type": "event",
      "signature": "0xcd9b913b9cb9a5dc2f311bf3d3137afdfe474a0385305ce48768a5c9d8804b0c"
    },
    {
      "anonymous": false,
      "inputs": [
        {
          "indexed": false,
          "internalType": "address",
          "name": "account",
          "type": "address"
        }
      ],
      "name": "Paused",
      "type": "event",
      "signature": "0x62e78cea01bee320cd4e420270b5ea74000d11b0c9f74754ebdbfc544b05a258"
    },
    {
      "anonymous": false,
      "inputs": [
        {
          "indexed": false,
          "internalType": "address",
          "name": "account",
          "type": "address"
        }
      ],
      "name": "Unpaused",
      "type": "event",
      "signature": "0x5db9ee0a495bf2e6ff9c91a7834c1ba4fdd244a5e8aa4e537bd38aeae4b073aa"
    },
    {
      "anonymous": false,
      "inputs": [
        {
          "indexed": true,
          "internalType": "address",
          "name": "implementation",
          "type": "address"
        }
      ],
      "name": "Upgraded",
      "type": "event",
      "signature": "0xbc7cd75a20ee27fd9adebab32041f755214dbc6bffa90cc0225b39da2e5c2d3b"
    },
    {
      "inputs": [],
      "name": "UPGRADE_INTERFACE_VERSION",
      "outputs": [
        {
          "internalType": "string",
          "name": "",
          "type": "string"
        }
      ],
      "stateMutability": "view",
      "type": "function",
      "constant": true,
      "signature": "0xad3cb1cc"
    },
    {
      "inputs": [],
      "name": "accessControl",
      "outputs": [
        {
          "internalType": "contract MediSecureAccessControl",
          "name": "",
          "type": "address"
        }
      ],
      "stateMutability": "view",
      "type": "function",
      "constant": true,
      "signature": "0x13007d55"
    },
    {
      "inputs": [
        {
          "internalType": "address",
          "name": "",
          "type": "address"
        }
      ],
      "name": "companies",
      "outputs": [
        {
          "internalType": "uint256",
          "name": "id",
          "type": "uint256"
        },
        {
          "internalType": "address",
          "name": "wallet",
          "type": "address"
        },
        {
          "internalType": "string",
          "name": "name",
          "type": "string"
        },
        {
          "internalType": "string",
          "name": "email",
          "type": "string"
        },
        {
          "internalType": "bool",
          "name": "isRegistered",
          "type": "bool"
        }
      ],
      "stateMutability": "view",
      "type": "function",
      "constant": true,
      "signature": "0x355e6ce8"
    },
    {
      "inputs": [],
      "name": "companyCount",
      "outputs": [
        {
          "internalType": "uint256",
          "name": "",
          "type": "uint256"
        }
      ],
      "stateMutability": "view",
      "type": "function",
      "constant": true,
      "signature": "0x8e75dd47"
    },
    {
      "inputs": [
        {
          "internalType": "address",
          "name": "",
          "type": "address"
        },
        {
          "internalType": "uint256",
          "name": "",
          "type": "uint256"
        }
      ],
      "name": "companyPurchases",
      "outputs": [
        {
          "internalType": "address",
          "name": "patient",
          "type": "address"
        },
        {
          "internalType": "string",
          "name": "ipfsHash",
          "type": "string"
        },
        {
          "internalType": "uint256",
          "name": "timestamp",
          "type": "uint256"
        },
        {
          "internalType": "uint256",
          "name": "offerId",
          "type": "uint256"
        }
      ],
      "stateMutability": "view",
      "type": "function",
      "constant": true,
      "signature": "0x24f38c6a"
    },
    {
      "inputs": [],
      "name": "currentHourlySpent",
      "outputs": [
        {
          "internalType": "uint256",
          "name": "",
          "type": "uint256"
        }
      ],
      "stateMutability": "view",
      "type": "function",
      "constant": true,
      "signature": "0x4a012728"
    },
    {
      "inputs": [],
      "name": "eip712Domain",
      "outputs": [
        {
          "internalType": "bytes1",
          "name": "fields",
          "type": "bytes1"
        },
        {
          "internalType": "string",
          "name": "name",
          "type": "string"
        },
        {
          "internalType": "string",
          "name": "version",
          "type": "string"
        },
        {
          "internalType": "uint256",
          "name": "chainId",
          "type": "uint256"
        },
        {
          "internalType": "address",
          "name": "verifyingContract",
          "type": "address"
        },
        {
          "internalType": "bytes32",
          "name": "salt",
          "type": "bytes32"
        },
        {
          "internalType": "uint256[]",
          "name": "extensions",
          "type": "uint256[]"
        }
      ],
      "stateMutability": "view",
      "type": "function",
      "constant": true,
      "signature": "0x84b0196e"
    },
    {
      "inputs": [
        {
          "internalType": "address",
          "name": "",
          "type": "address"
        },
        {
          "internalType": "string",
          "name": "",
          "type": "string"
        }
      ],
      "name": "hasCompanyPurchased",
      "outputs": [
        {
          "internalType": "bool",
          "name": "",
          "type": "bool"
        }
      ],
      "stateMutability": "view",
      "type": "function",
      "constant": true,
      "signature": "0x5c1287c4"
    },
    {
      "inputs": [
        {
          "internalType": "bytes32",
          "name": "role",
          "type": "bytes32"
        },
        {
          "internalType": "address",
          "name": "account",
          "type": "address"
        }
      ],
      "name": "hasRole",
      "outputs": [
        {
          "internalType": "bool",
          "name": "",
          "type": "bool"
        }
      ],
      "stateMutability": "view",
      "type": "function",
      "constant": true,
      "signature": "0x91d14854"
    },
    {
      "inputs": [
        {
          "internalType": "enum Roles",
          "name": "role",
          "type": "uint8"
        },
        {
          "internalType": "address",
          "name": "account",
          "type": "address"
        }
      ],
      "name": "hasRole",
      "outputs": [
        {
          "internalType": "bool",
          "name": "",
          "type": "bool"
        }
      ],
      "stateMutability": "view",
      "type": "function",
      "constant": true,
      "signature": "0x9e97b8f6"
    },
    {
      "inputs": [],
      "name": "hourlyLimit",
      "outputs": [
        {
          "internalType": "uint256",
          "name": "",
          "type": "uint256"
        }
      ],
      "stateMutability": "view",
      "type": "function",
      "constant": true,
      "signature": "0x79a3c6ed"
    },
    {
      "inputs": [
        {
          "internalType": "address",
          "name": "account",
          "type": "address"
        }
      ],
      "name": "isAdmin",
      "outputs": [
        {
          "internalType": "bool",
          "name": "",
          "type": "bool"
        }
      ],
      "stateMutability": "view",
      "type": "function",
      "constant": true,
      "signature": "0x24d7806c"
    },
    {
      "inputs": [
        {
          "internalType": "address",
          "name": "forwarder",
          "type": "address"
        }
      ],
      "name": "isTrustedForwarder",
      "outputs": [
        {
          "internalType": "bool",
          "name": "",
          "type": "bool"
        }
      ],
      "stateMutability": "view",
      "type": "function",
      "constant": true,
      "signature": "0x572b6c05"
    },
    {
      "inputs": [],
      "name": "lastResetTime",
      "outputs": [
        {
          "internalType": "uint256",
          "name": "",
          "type": "uint256"
        }
      ],
      "stateMutability": "view",
      "type": "function",
      "constant": true,
      "signature": "0xa2177124"
    },
    {
      "inputs": [
        {
          "internalType": "address",
          "name": "",
          "type": "address"
        }
      ],
      "name": "nonces",
      "outputs": [
        {
          "internalType": "uint256",
          "name": "",
          "type": "uint256"
        }
      ],
      "stateMutability": "view",
      "type": "function",
      "constant": true,
      "signature": "0x7ecebe00"
    },
    {
      "inputs": [],
      "name": "offerCount",
      "outputs": [
        {
          "internalType": "uint256",
          "name": "",
          "type": "uint256"
        }
      ],
      "stateMutability": "view",
      "type": "function",
      "constant": true,
      "signature": "0x1115c24d"
    },
    {
      "inputs": [
        {
          "internalType": "uint256",
          "name": "",
          "type": "uint256"
        }
      ],
      "name": "offers",
      "outputs": [
        {
          "internalType": "uint256",
          "name": "id",
          "type": "uint256"
        },
        {
          "internalType": "address",
          "name": "company",
          "type": "address"
        },
        {
          "internalType": "bool",
          "name": "isActive",
          "type": "bool"
        },
        {
          "internalType": "bool",
          "name": "isToken",
          "type": "bool"
        },
        {
          "internalType": "string",
          "name": "title",
          "type": "string"
        },
        {
          "internalType": "string",
          "name": "description",
          "type": "string"
        },
        {
          "internalType": "uint256",
          "name": "price",
          "type": "uint256"
        },
        {
          "internalType": "uint256",
          "name": "budget",
          "type": "uint256"
        }
      ],
      "stateMutability": "view",
      "type": "function",
      "constant": true,
      "signature": "0x8a72ea6a"
    },
    {
      "inputs": [],
      "name": "paused",
      "outputs": [
        {
          "internalType": "bool",
          "name": "",
          "type": "bool"
        }
      ],
      "stateMutability": "view",
      "type": "function",
      "constant": true,
      "signature": "0x5c975abb"
    },
    {
      "inputs": [
        {
          "internalType": "address",
          "name": "",
          "type": "address"
        }
      ],
      "name": "pendingEarnings",
      "outputs": [
        {
          "internalType": "uint256",
          "name": "",
          "type": "uint256"
        }
      ],
      "stateMutability": "view",
      "type": "function",
      "constant": true,
      "signature": "0x3000e8e4"
    },
    {
      "inputs": [
        {
          "internalType": "address",
          "name": "",
          "type": "address"
        }
      ],
      "name": "pendingTokenEarnings",
      "outputs": [
        {
          "internalType": "uint256",
          "name": "",
          "type": "uint256"
        }
      ],
      "stateMutability": "view",
      "type": "function",
      "constant": true,
      "signature": "0x46a16cb9"
    },
    {
      "inputs": [],
      "name": "proxiableUUID",
      "outputs": [
        {
          "internalType": "bytes32",
          "name": "",
          "type": "bytes32"
        }
      ],
      "stateMutability": "view",
      "type": "function",
      "constant": true,
      "signature": "0x52d1902d"
    },
    {
      "inputs": [],
      "name": "sanjeevniToken",
      "outputs": [
        {
          "internalType": "address",
          "name": "",
          "type": "address"
        }
      ],
      "stateMutability": "view",
      "type": "function",
      "constant": true,
      "signature": "0xfc1d6911"
    },
    {
      "inputs": [],
      "name": "trustedForwarder",
      "outputs": [
        {
          "internalType": "address",
          "name": "",
          "type": "address"
        }
      ],
      "stateMutability": "view",
      "type": "function",
      "constant": true,
      "signature": "0x7da0a877"
    },
    {
      "inputs": [
        {
          "internalType": "address",
          "name": "newImplementation",
          "type": "address"
        },
        {
          "internalType": "bytes",
          "name": "data",
          "type": "bytes"
        }
      ],
      "name": "upgradeToAndCall",
      "outputs": [],
      "stateMutability": "payable",
      "type": "function",
      "payable": true,
      "signature": "0x4f1ef286"
    },
    {
      "inputs": [
        {
          "internalType": "address",
          "name": "_accessControl",
          "type": "address"
        },
        {
          "internalType": "address",
          "name": "_token",
          "type": "address"
        }
      ],
      "name": "initialize",
      "outputs": [],
      "stateMutability": "nonpayable",
      "type": "function",
      "signature": "0x485cc955"
    },
    {
      "inputs": [
        {
          "internalType": "string",
          "name": "_name",
          "type": "string"
        },
        {
          "internalType": "string",
          "name": "_email",
          "type": "string"
        }
      ],
      "name": "registerCompany",
      "outputs": [],
      "stateMutability": "nonpayable",
      "type": "function",
      "signature": "0x74448ba4"
    },
    {
      "inputs": [
        {
          "internalType": "string",
          "name": "_title",
          "type": "string"
        },
        {
          "internalType": "string",
          "name": "_description",
          "type": "string"
        },
        {
          "internalType": "uint256",
          "name": "_pricePerRecord",
          "type": "uint256"
        },
        {
          "internalType": "bool",
          "name": "_useToken",
          "type": "bool"
        }
      ],
      "name": "createOffer",
      "outputs": [],
      "stateMutability": "payable",
      "type": "function",
      "payable": true,
      "signature": "0x23f28d3c"
    },
    {
      "inputs": [
        {
          "internalType": "uint256",
          "name": "_offerId",
          "type": "uint256"
        },
        {
          "internalType": "string",
          "name": "_ipfsHash",
          "type": "string"
        }
      ],
      "name": "sellData",
      "outputs": [],
      "stateMutability": "nonpayable",
      "type": "function",
      "signature": "0xe400d61b"
    },
    {
      "inputs": [
        {
          "internalType": "uint256",
          "name": "_offerId",
          "type": "uint256"
        },
        {
          "internalType": "string",
          "name": "_ipfsHash",
          "type": "string"
        },
        {
          "internalType": "address",
          "name": "_patient",
          "type": "address"
        },
        {
          "internalType": "bytes",
          "name": "_signature",
          "type": "bytes"
        }
      ],
      "name": "sellDataWithSignature",
      "outputs": [],
      "stateMutability": "nonpayable",
      "type": "function",
      "signature": "0x4de1fa1f"
    },
    {
      "inputs": [],
      "name": "claimTokenEarnings",
      "outputs": [],
      "stateMutability": "nonpayable",
      "type": "function",
      "signature": "0xa40bbd94"
    },
    {
      "inputs": [],
      "name": "claimEarnings",
      "outputs": [],
      "stateMutability": "nonpayable",
      "type": "function",
      "signature": "0xd9ceab13"
    },
    {
      "inputs": [],
      "name": "getAllOffers",
      "outputs": [
        {
          "components": [
            {
              "internalType": "uint256",
              "name": "id",
              "type": "uint256"
            },
            {
              "internalType": "address",
              "name": "company",
              "type": "address"
            },
            {
              "internalType": "bool",
              "name": "isActive",
              "type": "bool"
            },
            {
              "internalType": "bool",
              "name": "isToken",
              "type": "bool"
            },
            {
              "internalType": "string",
              "name": "title",
              "type": "string"
            },
            {
              "internalType": "string",
              "name": "description",
              "type": "string"
            },
            {
              "internalType": "uint256",
              "name": "price",
              "type": "uint256"
            },
            {
              "internalType": "uint256",
              "name": "budget",
              "type": "uint256"
            }
          ],
          "internalType": "struct Marketplace.DataOffer[]",
          "name": "",
          "type": "tuple[]"
        }
      ],
      "stateMutability": "view",
      "type": "function",
      "constant": true,
      "signature": "0xa1655278"
    },
    {
      "inputs": [
        {
          "internalType": "address",
          "name": "_company",
          "type": "address"
        }
      ],
      "name": "getCompanyPurchases",
      "outputs": [
        {
          "components": [
            {
              "internalType": "address",
              "name": "patient",
              "type": "address"
            },
            {
              "internalType": "string",
              "name": "ipfsHash",
              "type": "string"
            },
            {
              "internalType": "uint256",
              "name": "timestamp",
              "type": "uint256"
            },
            {
              "internalType": "uint256",
              "name": "offerId",
              "type": "uint256"
            }
          ],
          "internalType": "struct Marketplace.PurchasedRecord[]",
          "name": "",
          "type": "tuple[]"
        }
      ],
      "stateMutability": "view",
      "type": "function",
      "constant": true,
      "signature": "0xda651951"
    }
  ],
  "bytecode": "0x60c06040523060805234801562000014575f80fd5b506040516200366238038062003662833981016040819052620000379162000049565b6001600160a01b031660a05262000078565b5f602082840312156200005a575f80fd5b81516001600160a01b038116811462000071575f80fd5b9392505050565b60805160a0516135ac620000b65f395f81816103d7015281816104b601526123dc01525f8181611fc201528181611feb01526121f801526135ac5ff3fe6080604052600436106101e6575f3560e01c806374448ba4116101085780639e97b8f61161009d578063ad3cb1cc1161006d578063ad3cb1cc146105fc578063d9ceab1314610639578063da6519511461064d578063e400d61b14610679578063fc1d691114610698575f80fd5b80639e97b8f614610593578063a1655278146105b2578063a2177124146105d3578063a40bbd94146105e8575f80fd5b806384b0196e116100d857806384b0196e146105055780638a72ea6a1461052c5780638e75dd471461055f57806391d1485414610574575f80fd5b806374448ba41461047457806379a3c6ed146104935780637da0a877146104a85780637ecebe00146104da575f80fd5b8063485cc9551161017e57806352d1902d1161014e57806352d1902d146103a7578063572b6c05146103bb5780635c1287c4146104075780635c975abb14610451575f80fd5b8063485cc955146103415780634a012728146103605780634de1fa1f146103755780634f1ef28614610394575f80fd5b806324f38c6a116101b957806324f38c6a1461028c5780633000e8e4146102bb578063355e6ce8146102e657806346a16cb914610316575f80fd5b80631115c24d146101ea57806313007d551461021257806323f28d3c1461024857806324d7806c1461025d575b5f80fd5b3480156101f5575f80fd5b506101ff603d5481565b6040519081526020015b60405180910390f35b34801561021d575f80fd5b505f54610230906001600160a01b031681565b6040516001600160a01b039091168152602001610209565b61025b610256366004612b86565b6106b7565b005b348015610268575f80fd5b5061027c610277366004612c1c565b610a0b565b6040519015158152602001610209565b348015610297575f80fd5b506102ab6102a6366004612c35565b610a82565b6040516102099493929190612caa565b3480156102c6575f80fd5b506101ff6102d5366004612c1c565b603b6020525f908152604090205481565b3480156102f1575f80fd5b50610305610300366004612c1c565b610b58565b604051610209959493929190612ce0565b348015610321575f80fd5b506101ff610330366004612c1c565b603c6020525f908152604090205481565b34801561034c575f80fd5b5061025b61035b366004612d30565b610c9f565b34801561036b575f80fd5b506101ff60355481565b348015610380575f80fd5b5061025b61038f366004612d61565b610e41565b61025b6103a2366004612e07565b610fa0565b3480156103b2575f80fd5b506101ff610fbf565b3480156103c6575f80fd5b5061027c6103d5366004612c1c565b7f00000000000000000000000000000000000000000000000000000000000000006001600160a01b0390811691161490565b348015610412575f80fd5b5061027c610421366004612e65565b603a60209081525f9283526040909220815180830184018051928152908401929093019190912091525460ff1681565b34801561045c575f80fd5b505f805160206135378339815191525460ff1661027c565b34801561047f575f80fd5b5061025b61048e366004612ea6565b610fda565b34801561049e575f80fd5b506101ff60345481565b3480156104b3575f80fd5b507f0000000000000000000000000000000000000000000000000000000000000000610230565b3480156104e5575f80fd5b506101ff6104f4366004612c1c565b60336020525f908152604090205481565b348015610510575f80fd5b506105196111b4565b6040516102099796959493929190612efc565b348015610537575f80fd5b5061054b610546366004612f90565b61125d565b604051610209989796959493929190612fa7565b34801561056a575f80fd5b506101ff603e5481565b34801561057f575f80fd5b5061027c61058e36600461300d565b6113bc565b34801561059e575f80fd5b5061027c6105ad36600461302e565b611437565b3480156105bd575f80fd5b506105c6611469565b604051610209919061304d565b3480156105de575f80fd5b506101ff60365481565b3480156105f3575f80fd5b5061025b6116e3565b348015610607575f80fd5b5061062c604051806040016040528060058152602001640352e302e360dc1b81525081565b6040516102099190613121565b348015610644575f80fd5b5061025b6117eb565b348015610658575f80fd5b5061066c610667366004612c1c565b6119e7565b6040516102099190613133565b348015610684575f80fd5b5061025b6106933660046131b9565b611b14565b3480156106a3575f80fd5b50603254610230906001600160a01b031681565b5f546001600160a01b0316639e97b8f660056106d1611b4c565b6040518363ffffffff1660e01b81526004016106ee9291906131fb565b602060405180830381865afa158015610709573d5f803e3d5ffd5b505050506040513d601f19601f8201168201806040525081019061072d9190613233565b61074a5760405163149f740160e01b815260040160405180910390fd5b610752611b5a565b8015610891575f61076483600a613262565b9050610785610771611b4c565b6032546001600160a01b0316903084611b8a565b603d8054905f61079483613279565b9190505550604051806101000160405280603d5481526020016107b5611b4c565b6001600160a01b03908116825260016020808401829052604080850183905260608086018c905260808087018c905260a087018b905260c0909601889052603d545f908152603884528290208751815592870151938301805492880151918801511515600160a81b0260ff60a81b19921515600160a01b026001600160a81b03199094169590961694909417919091171692909217905590820151600282019061085f9082613316565b5060a082015160038201906108749082613316565b5060c0820151600482015560e090910151600590910155506109b8565b813410156108b257604051630757bfc960e21b815260040160405180910390fd5b603d8054905f6108c183613279565b9190505550604051806101000160405280603d5481526020016108e2611b4c565b6001600160a01b039081168252600160208084018290525f604080860182905260608087018c905260808088018c905260a088018b90523460c090980197909752603d54835260388452918190208751815592870151938301805491880151928801511515600160a81b0260ff60a81b19931515600160a01b026001600160a81b03199093169590961694909417171692909217905590820151600282019061098b9082613316565b5060a082015160038201906109a09082613316565b5060c0820151600482015560e0909101516005909101555b6109c0611b4c565b6001600160a01b0316603d547fcd9b913b9cb9a5dc2f311bf3d3137afdfe474a0385305ce48768a5c9d8804b0c86856040516109fd9291906133d2565b60405180910390a350505050565b5f8054604051634f4bdc7b60e11b81526001600160a01b0390911690639e97b8f690610a3d90849086906004016131fb565b602060405180830381865afa158015610a58573d5f803e3d5ffd5b505050506040513d601f19601f82011682018060405250810190610a7c9190613233565b92915050565b6039602052815f5260405f208181548110610a9b575f80fd5b5f918252602090912060049091020180546001820180546001600160a01b039092169450919250610acb90613291565b80601f0160208091040260200160405190810160405280929190818152602001828054610af790613291565b8015610b425780601f10610b1957610100808354040283529160200191610b42565b820191905f5260205f20905b815481529060010190602001808311610b2557829003601f168201915b5050505050908060020154908060030154905084565b60376020525f908152604090208054600182015460028301805492936001600160a01b0390921692610b8990613291565b80601f0160208091040260200160405190810160405280929190818152602001828054610bb590613291565b8015610c005780601f10610bd757610100808354040283529160200191610c00565b820191905f5260205f20905b815481529060010190602001808311610be357829003601f168201915b505050505090806003018054610c1590613291565b80601f0160208091040260200160405190810160405280929190818152602001828054610c4190613291565b8015610c8c5780601f10610c6357610100808354040283529160200191610c8c565b820191905f5260205f20905b815481529060010190602001808311610c6f57829003601f168201915b5050506004909301549192505060ff1685565b7ff0c57e16840df040f15088dc2f81fe391c3923bec73e23a9662efc9c229c6a008054600160401b810460ff16159067ffffffffffffffff165f81158015610ce45750825b90505f8267ffffffffffffffff166001148015610d005750303b155b905081158015610d0e575080155b15610d2c5760405163f92ee8a960e01b815260040160405180910390fd5b845467ffffffffffffffff191660011785558315610d5657845460ff60401b1916600160401b1785555b610d5e611bf7565b610d66611c07565b610d6e611c17565b610dbe6040518060400160405280601581526020017453616e6a6565766e69204d61726b6574706c61636560581b815250604051806040016040528060018152602001603160f81b815250611c1f565b610dc787611c31565b603280546001600160a01b0319166001600160a01b038816179055678ac7230489e80000603455426036558315610e3857845460ff60401b19168555604051600181527fc7f505b2f371ae2175ee4913f4499e1f2633a7b5936321eed1cdaeb6115181d29060200160405180910390a15b50505050505050565b610e49611cb8565b610e51611b5a565b6001600160a01b0383165f90815260336020526040812080547f5471d89bb1064c3dd8c76c1fc68365c68a8acd441807116772dbf3caafa9d10c918891889188919086610e9d83613279565b91905055604051602001610eb59594939291906133f3565b6040516020818303038152906040528051906020012090505f610ed782611cef565b90505f610f198286868080601f0160208091040260200160405190810160405280939291908181526020018383808284375f92019190915250611d1b92505050565b9050856001600160a01b0316816001600160a01b031614610f755760405162461bcd60e51b8152602060048201526011602482015270496e76616c6964207369676e617475726560781b60448201526064015b60405180910390fd5b610f80888789611d43565b505050610f9960015f8051602061355783398151915255565b5050505050565b610fa8611fb7565b610fb18261205b565b610fbb828261212c565b5050565b5f610fc86121ed565b505f8051602061351783398151915290565b610fe2611b5a565b60375f610fed611b4c565b6001600160a01b0316815260208101919091526040015f206004015460ff161561102a57604051630ea075bf60e21b815260040160405180910390fd5b603e8054905f61103983613279565b91905055506040518060a00160405280603e548152602001611059611b4c565b6001600160a01b031681526020018381526020018281526020016001151581525060375f611085611b4c565b6001600160a01b03908116825260208083019390935260409182015f2084518155928401516001840180546001600160a01b0319169190921617905582015160028201906110d39082613316565b50606082015160038201906110e89082613316565b50608091909101516004909101805460ff19169115159190911790555f546001600160a01b0316635d5664e1600561111e611b4c565b6040518363ffffffff1660e01b815260040161113b9291906131fb565b5f604051808303815f87803b158015611152575f80fd5b505af1158015611164573d5f803e3d5ffd5b50505050611170611b4c565b6001600160a01b03167f76686aa361308f4a08557cca1a847299ce61e5602a3495cd359a599a1dca438c836040516111a89190613121565b60405180910390a25050565b5f60608082808083815f805160206134f783398151915280549091501580156111df57506001810154155b6112235760405162461bcd60e51b81526020600482015260156024820152741152540dcc4c8e88155b9a5b9a5d1a585b1a5e9959605a1b6044820152606401610f6c565b61122b612236565b6112336122f6565b604080515f80825260208201909252600f60f81b9c939b5091995046985030975095509350915050565b60386020525f908152604090208054600182015460028301805492936001600160a01b0383169360ff600160a01b8504811694600160a81b90041692906112a390613291565b80601f01602080910402602001604051908101604052809291908181526020018280546112cf90613291565b801561131a5780601f106112f15761010080835404028352916020019161131a565b820191905f5260205f20905b8154815290600101906020018083116112fd57829003601f168201915b50505050509080600301805461132f90613291565b80601f016020809104026020016040519081016040528092919081815260200182805461135b90613291565b80156113a65780601f1061137d576101008083540402835291602001916113a6565b820191905f5260205f20905b81548152906001019060200180831161138957829003601f168201915b5050505050908060040154908060050154905088565b5f8054604051632474521560e21b8152600481018590526001600160a01b038481166024830152909116906391d14854906044015b602060405180830381865afa15801561140c573d5f803e3d5ffd5b505050506040513d601f19601f820116820180604052508101906114309190613233565b9392505050565b5f8054604051634f4bdc7b60e11b81526001600160a01b0390911690639e97b8f6906113f190869086906004016131fb565b603d546060905f8167ffffffffffffffff81111561148957611489612ad4565b60405190808252806020026020018201604052801561150957816020015b6114f66040518061010001604052805f81526020015f6001600160a01b031681526020015f151581526020015f1515815260200160608152602001606081526020015f81526020015f81525090565b8152602001906001900390816114a75790505b50905060015b8281116116dc575f818152603860209081526040918290208251610100810184528154815260018201546001600160a01b0381169382019390935260ff600160a01b84048116151594820194909452600160a81b9092049092161515606082015260028201805491929160808401919061158890613291565b80601f01602080910402602001604051908101604052809291908181526020018280546115b490613291565b80156115ff5780601f106115d6576101008083540402835291602001916115ff565b820191905f5260205f20905b8154815290600101906020018083116115e257829003601f168201915b5050505050815260200160038201805461161890613291565b80601f016020809104026020016040519081016040528092919081815260200182805461164490613291565b801561168f5780601f106116665761010080835404028352916020019161168f565b820191905f5260205f20905b81548152906001019060200180831161167257829003601f168201915b505050918352505060048201546020820152600590910154604090910152826116b960018461342e565b815181106116c9576116c9613441565b602090810291909101015260010161150f565b5092915050565b6116eb611cb8565b6116f3611b5a565b5f603c5f6116ff611b4c565b6001600160a01b03166001600160a01b031681526020019081526020015f20549050805f0361174157604051632773d46f60e11b815260040160405180910390fd5b5f603c5f61174d611b4c565b6001600160a01b0316815260208101919091526040015f2055611784611771611b4c565b6032546001600160a01b03169083612334565b61178c611b4c565b60408051838152600160208201526001600160a01b0392909216917fe4c6cb9f9a0db688109bcb755263be612a9b1ce52b4a9391217f363e2fa1bea8910160405180910390a2506117e960015f8051602061355783398151915255565b565b6117f3611cb8565b6117fb611b5a565b603b5f611806611b4c565b6001600160a01b0316815260208101919091526040015f205460365461182e90610e10613455565b42111561183e57426036555f6035555b6034548160355461184f9190613455565b11156118765761185d612365565b604051631930e3c960e11b815260040160405180910390fd5b8060355f8282546118879190613455565b909155505f9050603b81611899611b4c565b6001600160a01b03166001600160a01b031681526020019081526020015f20549050805f036118db57604051632773d46f60e11b815260040160405180910390fd5b5f603b5f6118e7611b4c565b6001600160a01b03166001600160a01b031681526020019081526020015f20819055505f611913611b4c565b6001600160a01b0316826040515f6040518083038185875af1925050503d805f811461195a576040519150601f19603f3d011682016040523d82523d5f602084013e61195f565b606091505b5050905080611981576040516312171d8360e31b815260040160405180910390fd5b611989611b4c565b604080518481525f60208201526001600160a01b0392909216917fe4c6cb9f9a0db688109bcb755263be612a9b1ce52b4a9391217f363e2fa1bea8910160405180910390a25050506117e960015f8051602061355783398151915255565b6001600160a01b0381165f908152603960209081526040808320805482518185028101850190935280835260609492939192909184015b82821015611b09575f84815260209081902060408051608081019091526004850290910180546001600160a01b031682526001810180549293919291840191611a6690613291565b80601f0160208091040260200160405190810160405280929190818152602001828054611a9290613291565b8015611add5780601f10611ab457610100808354040283529160200191611add565b820191905f5260205f20905b815481529060010190602001808311611ac057829003601f168201915b505050505081526020016002820154815260200160038201548152505081526020019060010190611a1e565b505050509050919050565b611b1c611cb8565b611b24611b5a565b611b3682611b30611b4c565b83611d43565b610fbb60015f8051602061355783398151915255565b5f611b556123cd565b905090565b5f805160206135378339815191525460ff16156117e95760405163d93c066560e01b815260040160405180910390fd5b6040516001600160a01b038481166024830152838116604483015260648201839052611bf19186918216906323b872dd906084015b604051602081830303815290604052915060e01b6020820180516001600160e01b038381831617835250505050612440565b50505050565b611bff6124a1565b6117e96124ea565b611c0f6124a1565b6117e96124f2565b6117e96124a1565b611c276124a1565b610fbb8282612512565b611c396124a1565b611c41611c17565b6001600160a01b038116611c975760405162461bcd60e51b815260206004820152601e60248201527f496e76616c69642061636365737320636f6e74726f6c206164647265737300006044820152606401610f6c565b5f80546001600160a01b0319166001600160a01b0392909216919091179055565b5f80516020613557833981519152805460011901611ce957604051633ee5aeb560e01b815260040160405180910390fd5b60029055565b5f610a7c611cfb612571565b8360405161190160f01b8152600281019290925260228201526042902090565b5f805f80611d29868661257a565b925092509250611d3982826125c3565b5090949350505050565b5f8381526038602052604090206001810154600160a01b900460ff16611d7c57604051634d80826b60e11b815260040160405180910390fd5b806004015481600501541015611da557604051634dd23c8b60e01b815260040160405180910390fd5b8060040154816005015f828254611dbc919061342e565b9091555050600481015460058201541015611de15760018101805460ff60a01b191690555b6001818101546001600160a01b039081165f908152603960209081526040808320815160808101835289861681528084018981524293820193909352606081018b90528154808801835591855292909320825160049094020180546001600160a01b0319169390941692909217835590519092820190611e619082613316565b5060408281015160028301556060909201516003909101556001828101546001600160a01b03165f908152603a6020528290209151909190611ea4908590613468565b908152604051908190036020019020805491151560ff199092169190911790556001810154600160a81b900460ff1615611f0f5760048101546001600160a01b0384165f908152603c602052604081208054909190611f04908490613455565b90915550611f419050565b60048101546001600160a01b0384165f908152603b602052604081208054909190611f3b908490613455565b90915550505b6001810154600482015460408051918252600160a81b830460ff16151560208301526001600160a01b0386811693169187917f08c01b0917b1a6c5225a36e8683be11367bd142c02fb3a6670d90fcad8a9665a910160405180910390a450505050565b60015f8051602061355783398151915255565b306001600160a01b037f000000000000000000000000000000000000000000000000000000000000000016148061203d57507f00000000000000000000000000000000000000000000000000000000000000006001600160a01b03166120315f80516020613517833981519152546001600160a01b031690565b6001600160a01b031614155b156117e95760405163703e46dd60e11b815260040160405180910390fd5b5f80546001600160a01b031690639e97b8f690612076611b4c565b6040518363ffffffff1660e01b81526004016120939291906131fb565b602060405180830381865afa1580156120ae573d5f803e3d5ffd5b505050506040513d601f19601f820116820180604052508101906120d29190613233565b6121295760405162461bcd60e51b815260206004820152602260248201527f416363657373436f6e74726f6c3a20726573747269637465642d746f2d61646d60448201526134b760f11b6064820152608401610f6c565b50565b816001600160a01b03166352d1902d6040518163ffffffff1660e01b8152600401602060405180830381865afa925050508015612186575060408051601f3d908101601f1916820190925261218391810190613483565b60015b6121ae57604051634c9c8ce360e01b81526001600160a01b0383166004820152602401610f6c565b5f8051602061351783398151915281146121de57604051632a87526960e21b815260048101829052602401610f6c565b6121e8838361267b565b505050565b306001600160a01b037f000000000000000000000000000000000000000000000000000000000000000016146117e95760405163703e46dd60e11b815260040160405180910390fd5b7fa16a46d94261c7517cc8ff89f61c0ce93598e3c849801011dee649a6a557d10280546060915f805160206134f78339815191529161227490613291565b80601f01602080910402602001604051908101604052809291908181526020018280546122a090613291565b80156122eb5780601f106122c2576101008083540402835291602001916122eb565b820191905f5260205f20905b8154815290600101906020018083116122ce57829003601f168201915b505050505091505090565b7fa16a46d94261c7517cc8ff89f61c0ce93598e3c849801011dee649a6a557d10380546060915f805160206134f78339815191529161227490613291565b6040516001600160a01b038381166024830152604482018390526121e891859182169063a9059cbb90606401611bbf565b61236d611b5a565b5f80516020613537833981519152805460ff191660011781557f62e78cea01bee320cd4e420270b5ea74000d11b0c9f74754ebdbfc544b05a2586123af611b4c565b6040516001600160a01b03909116815260200160405180910390a150565b5f366014336001600160a01b037f0000000000000000000000000000000000000000000000000000000000000000161480156124095750808210155b15612438575f3661241a838561342e565b61242592829061349a565b61242e916134c1565b60601c9250505090565b339250505090565b5f6124546001600160a01b038416836126d0565b905080515f141580156124785750808060200190518101906124769190613233565b155b156121e857604051635274afe760e01b81526001600160a01b0384166004820152602401610f6c565b7ff0c57e16840df040f15088dc2f81fe391c3923bec73e23a9662efc9c229c6a0054600160401b900460ff166117e957604051631afcd79f60e31b815260040160405180910390fd5b611fa46124a1565b6124fa6124a1565b5f80516020613537833981519152805460ff19169055565b61251a6124a1565b5f805160206134f78339815191527fa16a46d94261c7517cc8ff89f61c0ce93598e3c849801011dee649a6a557d1026125538482613316565b50600381016125628382613316565b505f8082556001909101555050565b5f611b556126dd565b5f805f83516041036125b1576020840151604085015160608601515f1a6125a388828585612750565b9550955095505050506125bc565b505081515f91506002905b9250925092565b5f8260038111156125d6576125d66131e7565b036125df575050565b60018260038111156125f3576125f36131e7565b036126115760405163f645eedf60e01b815260040160405180910390fd5b6002826003811115612625576126256131e7565b036126465760405163fce698f760e01b815260048101829052602401610f6c565b600382600381111561265a5761265a6131e7565b03610fbb576040516335e2f38360e21b815260048101829052602401610f6c565b61268482612818565b6040516001600160a01b038316907fbc7cd75a20ee27fd9adebab32041f755214dbc6bffa90cc0225b39da2e5c2d3b905f90a28051156126c8576121e8828261287b565b610fbb6128ed565b606061143083835f61290c565b5f7f8b73c3c69bb8fe3d512ecc4cf759cc79239f7b179b0ffacaa9a75d522b39400f6127076129a5565b61270f612a0d565b60408051602081019490945283019190915260608201524660808201523060a082015260c00160405160208183030381529060405280519060200120905090565b5f80807f7fffffffffffffffffffffffffffffff5d576e7357a4501ddfe92f46681b20a084111561278957505f9150600390508261280e565b604080515f808252602082018084528a905260ff891692820192909252606081018790526080810186905260019060a0016020604051602081039080840390855afa1580156127da573d5f803e3d5ffd5b5050604051601f1901519150506001600160a01b03811661280557505f92506001915082905061280e565b92505f91508190505b9450945094915050565b806001600160a01b03163b5f0361284d57604051634c9c8ce360e01b81526001600160a01b0382166004820152602401610f6c565b5f8051602061351783398151915280546001600160a01b0319166001600160a01b0392909216919091179055565b60605f80846001600160a01b0316846040516128979190613468565b5f60405180830381855af49150503d805f81146128cf576040519150601f19603f3d011682016040523d82523d5f602084013e6128d4565b606091505b50915091506128e4858383612a4f565b95945050505050565b34156117e95760405163b398979f60e01b815260040160405180910390fd5b6060814710156129315760405163cd78605960e01b8152306004820152602401610f6c565b5f80856001600160a01b0316848660405161294c9190613468565b5f6040518083038185875af1925050503d805f8114612986576040519150601f19603f3d011682016040523d82523d5f602084013e61298b565b606091505b509150915061299b868383612a4f565b9695505050505050565b5f5f805160206134f7833981519152816129bd612236565b8051909150156129d557805160209091012092915050565b815480156129e4579392505050565b7fc5d2460186f7233c927e7db2dcc703c0e500b653ca82273b7bfad8045d85a470935050505090565b5f5f805160206134f783398151915281612a256122f6565b805190915015612a3d57805160209091012092915050565b600182015480156129e4579392505050565b606082612a6457612a5f82612aab565b611430565b8151158015612a7b57506001600160a01b0384163b155b15612aa457604051639996b31560e01b81526001600160a01b0385166004820152602401610f6c565b5080611430565b805115612abb5780518082602001fd5b604051630a12f52160e11b815260040160405180910390fd5b634e487b7160e01b5f52604160045260245ffd5b5f67ffffffffffffffff80841115612b0257612b02612ad4565b604051601f8501601f19908116603f01168101908282118183101715612b2a57612b2a612ad4565b81604052809350858152868686011115612b42575f80fd5b858560208301375f602087830101525050509392505050565b5f82601f830112612b6a575f80fd5b61143083833560208501612ae8565b8015158114612129575f80fd5b5f805f8060808587031215612b99575f80fd5b843567ffffffffffffffff80821115612bb0575f80fd5b612bbc88838901612b5b565b95506020870135915080821115612bd1575f80fd5b50612bde87828801612b5b565b935050604085013591506060850135612bf681612b79565b939692955090935050565b80356001600160a01b0381168114612c17575f80fd5b919050565b5f60208284031215612c2c575f80fd5b61143082612c01565b5f8060408385031215612c46575f80fd5b612c4f83612c01565b946020939093013593505050565b5f5b83811015612c77578181015183820152602001612c5f565b50505f910152565b5f8151808452612c96816020860160208601612c5d565b601f01601f19169290920160200192915050565b6001600160a01b03851681526080602082018190525f90612ccd90830186612c7f565b6040830194909452506060015292915050565b8581526001600160a01b038516602082015260a0604082018190525f90612d0990830186612c7f565b8281036060840152612d1b8186612c7f565b91505082151560808301529695505050505050565b5f8060408385031215612d41575f80fd5b612d4a83612c01565b9150612d5860208401612c01565b90509250929050565b5f805f805f60808688031215612d75575f80fd5b85359450602086013567ffffffffffffffff80821115612d93575f80fd5b612d9f89838a01612b5b565b9550612dad60408901612c01565b94506060880135915080821115612dc2575f80fd5b818801915088601f830112612dd5575f80fd5b813581811115612de3575f80fd5b896020828501011115612df4575f80fd5b9699959850939650602001949392505050565b5f8060408385031215612e18575f80fd5b612e2183612c01565b9150602083013567ffffffffffffffff811115612e3c575f80fd5b8301601f81018513612e4c575f80fd5b612e5b85823560208401612ae8565b9150509250929050565b5f8060408385031215612e76575f80fd5b612e7f83612c01565b9150602083013567ffffffffffffffff811115612e9a575f80fd5b612e5b85828601612b5b565b5f8060408385031215612eb7575f80fd5b823567ffffffffffffffff80821115612ece575f80fd5b612eda86838701612b5b565b93506020850135915080821115612eef575f80fd5b50612e5b85828601612b5b565b60ff60f81b881681525f602060e081840152612f1b60e084018a612c7f565b8381036040850152612f2d818a612c7f565b606085018990526001600160a01b038816608086015260a0850187905284810360c086015285518082528387019250908301905f5b81811015612f7e57835183529284019291840191600101612f62565b50909c9b505050505050505050505050565b5f60208284031215612fa0575f80fd5b5035919050565b8881526001600160a01b038816602082015286151560408201528515156060820152610100608082018190525f90612fe183820188612c7f565b905082810360a0840152612ff58187612c7f565b60c0840195909552505060e001529695505050505050565b5f806040838503121561301e575f80fd5b82359150612d5860208401612c01565b5f806040838503121561303f575f80fd5b823560098110612d4a575f80fd5b5f6020808301818452808551808352604092508286019150828160051b8701018488015f5b8381101561311357888303603f19018552815180518452878101516001600160a01b0316888501528681015115158785015260608082015115159085015260808082015161010082870181905291906130cd83880182612c7f565b9250505060a080830151868303828801526130e88382612c7f565b60c0858101519089015260e09485015194909701939093525050509386019390860190600101613072565b509098975050505050505050565b602081525f6114306020830184612c7f565b5f6020808301818452808551808352604092508286019150828160051b8701018488015f5b8381101561311357888303603f19018552815180516001600160a01b031684528781015160808986018190529061319182870182612c7f565b838a0151878b0152606093840151939096019290925250509386019390860190600101613158565b5f80604083850312156131ca575f80fd5b82359150602083013567ffffffffffffffff811115612e9a575f80fd5b634e487b7160e01b5f52602160045260245ffd5b604081016009841061321b57634e487b7160e01b5f52602160045260245ffd5b9281526001600160a01b039190911660209091015290565b5f60208284031215613243575f80fd5b815161143081612b79565b634e487b7160e01b5f52601160045260245ffd5b8082028115828204841417610a7c57610a7c61324e565b5f6001820161328a5761328a61324e565b5060010190565b600181811c908216806132a557607f821691505b6020821081036132c357634e487b7160e01b5f52602260045260245ffd5b50919050565b601f8211156121e8575f81815260208120601f850160051c810160208610156132ef5750805b601f850160051c820191505b8181101561330e578281556001016132fb565b505050505050565b815167ffffffffffffffff81111561333057613330612ad4565b6133448161333e8454613291565b846132c9565b602080601f831160018114613377575f84156133605750858301515b5f19600386901b1c1916600185901b17855561330e565b5f85815260208120601f198616915b828110156133a557888601518255948401946001909101908401613386565b50858210156133c257878501515f19600388901b60f8161c191681555b5050505050600190811b01905550565b604081525f6133e46040830185612c7f565b90508260208301529392505050565b85815284602082015260a060408201525f61341160a0830186612c7f565b6001600160a01b0394909416606083015250608001529392505050565b81810381811115610a7c57610a7c61324e565b634e487b7160e01b5f52603260045260245ffd5b80820180821115610a7c57610a7c61324e565b5f8251613479818460208701612c5d565b9190910192915050565b5f60208284031215613493575f80fd5b5051919050565b5f80858511156134a8575f80fd5b838611156134b4575f80fd5b5050820193919092039150565b6bffffffffffffffffffffffff1981358181169160148510156134ee5780818660140360031b1b83161692505b50509291505056fea16a46d94261c7517cc8ff89f61c0ce93598e3c849801011dee649a6a557d100360894a13ba1a3210667c828492db98dca3e2076cc3735a920a3ca505d382bbccd5ed15c6e187e77e9aee88184c21f4f2182ab5827cb3b7e07fbedcd63f033009b779b17422d0df92223018b32b4d1fa46e071723d6817e2486d003becc55f00a26469706673582212205d09f9de4ac0eeab5eb546ec7ab0910815c4b5b51bdfce31fc510f28c07d87d664736f6c63430008140033",
  "immutableReferences": {
    "585": [
      {
        "length": 32,
        "start": 983
      },
      {
        "length": 32,
        "start": 1206
      },
      {
        "length": 32,
        "start": 9180
      }
    ],
    "992": [
      {
        "length": 32,
        "start": 8130
      },
      {
        "length": 32,
        "start": 8171
      },
      {
        "length": 32,
        "start": 8696
      }
    ]
  },
  "source": "// SPDX-License-Identifier: MIT\npragma solidity ^0.8.20;\n\nimport \"@openzeppelin/contracts-upgradeable/utils/ReentrancyGuardUpgradeable.sol\";\nimport \"@openzeppelin/contracts-upgradeable/utils/PausableUpgradeable.sol\";\nimport \"@openzeppelin/contracts-upgradeable/utils/cryptography/EIP712Upgradeable.sol\";\nimport \"@openzeppelin/contracts-upgradeable/utils/ContextUpgradeable.sol\";\nimport \"@openzeppelin/contracts-upgradeable/metatx/ERC2771ContextUpgradeable.sol\";\nimport \"@openzeppelin/contracts/utils/cryptography/ECDSA.sol\";\nimport \"@openzeppelin/contracts-upgradeable/proxy/utils/Initializable.sol\";\nimport \"@openzeppelin/contracts-upgradeable/proxy/utils/UUPSUpgradeable.sol\";\nimport \"@openzeppelin/contracts/token/ERC20/IERC20.sol\";\nimport \"@openzeppelin/contracts/token/ERC20/utils/SafeERC20.sol\";\nimport \"./common/MediSecureAuthUpgradeable.sol\";\nimport {Roles} from \"./MediSecureAccessControl.sol\";\n\n/**\n * @title Marketplace\n * @dev UUPS Upgradeable marketplace for buying and selling medical data.\n */\ncontract Marketplace is Initializable, ReentrancyGuardUpgradeable, PausableUpgradeable, EIP712Upgradeable, UUPSUpgradeable, MediSecureAuthUpgradeable, ERC2771ContextUpgradeable {\n    using SafeERC20 for IERC20;\n\n    address public sanjeevniToken;\n\n    bytes32 private constant SELL_DATA_TYPEHASH = keccak256(\"SellData(uint256 offerId,string ipfsHash,address patient,uint256 nonce)\");\n    mapping(address => uint256) public nonces;\n\n    uint256 public hourlyLimit;\n    uint256 public currentHourlySpent;\n    uint256 public lastResetTime;\n\n    // Custom Errors\n    error AlreadyRegistered();\n    error NotCompany();\n    error InvalidBudget();\n    error OfferNotActive();\n    error InsufficientBudget();\n    error NoEarnings();\n    error TransferFailed();\n    error LimitExceeded();\n    error Unauthorized();\n\n    /// @custom:oz-upgrades-unsafe-allow constructor\n    constructor(address _forwarder) ERC2771ContextUpgradeable(_forwarder) {\n        // _disableInitializers();\n    }\n\n    function initialize(address _accessControl, address _token) public initializer {\n        __ReentrancyGuard_init();\n        __Pausable_init();\n        __UUPSUpgradeable_init();\n        __EIP712_init(\"Sanjeevni Marketplace\", \"1\");\n        __MediSecureAuth_init(_accessControl);\n\n        sanjeevniToken = _token;\n        hourlyLimit = 10 ether;\n        lastResetTime = block.timestamp;\n    }\n\n    function _authorizeUpgrade(address newImplementation) internal override onlyAdmin {}\n\n    // Overrides for Context/ERC2771Context to resolve conflicts\n    function _msgSender() internal view override(ContextUpgradeable, ERC2771ContextUpgradeable) returns (address) {\n        return ERC2771ContextUpgradeable._msgSender();\n    }\n\n    function _msgData() internal view override(ContextUpgradeable, ERC2771ContextUpgradeable) returns (bytes calldata) {\n        return ERC2771ContextUpgradeable._msgData();\n    }\n\n    function _contextSuffixLength() internal view override(ContextUpgradeable, ERC2771ContextUpgradeable) returns (uint256) {\n        return ERC2771ContextUpgradeable._contextSuffixLength();\n    }\n\n    // --- Data Structures ---\n    struct Company {\n        uint256 id;\n        address wallet;\n        string name;\n        string email;\n        bool isRegistered;\n    }\n\n    struct DataOffer {\n        uint256 id;\n        address company;\n        bool isActive;\n        bool isToken;\n        string title;\n        string description;\n        uint256 price; \n        uint256 budget; \n    }\n\n    struct PurchasedRecord {\n        address patient;\n        string ipfsHash;\n        uint256 timestamp;\n        uint256 offerId;\n    }\n\n    mapping(address => Company) public companies;\n    mapping(uint256 => DataOffer) public offers;\n    mapping(address => PurchasedRecord[]) public companyPurchases;\n    mapping(address => mapping(string => bool)) public hasCompanyPurchased;\n    mapping(address => uint256) public pendingEarnings;\n    mapping(address => uint256) public pendingTokenEarnings;\n\n    uint256 public offerCount;\n    uint256 public companyCount;\n\n    event CompanyRegistered(address indexed wallet, string name);\n    event OfferCreated(uint256 indexed offerId, address indexed company, string title, uint256 price);\n    event DataSold(uint256 indexed offerId, address indexed company, address indexed patient, uint256 price, bool isToken);\n    event EarningsClaimed(address indexed patient, uint256 amount, bool isToken);\n\n    modifier checkLimit(uint256 _amount) {\n        if (block.timestamp > lastResetTime + 1 hours) {\n            lastResetTime = block.timestamp;\n            currentHourlySpent = 0;\n        }\n        if (currentHourlySpent + _amount > hourlyLimit) {\n            _pause();\n            revert LimitExceeded();\n        }\n        currentHourlySpent += _amount;\n        _;\n    }\n\n    modifier onlyCompany() {\n        if (!accessControl.hasRole(Roles.MARKETPLACE_COMPANY, _msgSender())) revert NotCompany();\n        _;\n    }\n\n    function registerCompany(string memory _name, string memory _email) public whenNotPaused {\n        if (companies[_msgSender()].isRegistered) revert AlreadyRegistered();\n\n        companyCount++;\n        companies[_msgSender()] = Company({\n            id: companyCount,\n            wallet: _msgSender(),\n            name: _name,\n            email: _email,\n            isRegistered: true\n        });\n\n        accessControl.grantRole(Roles.MARKETPLACE_COMPANY, _msgSender());\n        emit CompanyRegistered(_msgSender(), _name);\n    }\n\n    function createOffer(\n        string memory _title,\n        string memory _description,\n        uint256 _pricePerRecord,\n        bool _useToken\n    ) public payable onlyCompany whenNotPaused {\n        if (_useToken) {\n            uint256 totalBudget = _pricePerRecord * 10;\n            IERC20(sanjeevniToken).safeTransferFrom(_msgSender(), address(this), totalBudget);\n\n            offerCount++;\n            offers[offerCount] = DataOffer({\n                id: offerCount,\n                company: _msgSender(),\n                isActive: true,\n                isToken: true,\n                title: _title,\n                description: _description,\n                price: _pricePerRecord,\n                budget: totalBudget\n            });\n        } else {\n            if (msg.value < _pricePerRecord) revert InvalidBudget();\n            offerCount++;\n            offers[offerCount] = DataOffer({\n                id: offerCount,\n                company: _msgSender(),\n                isActive: true,\n                isToken: false,\n                title: _title,\n                description: _description,\n                price: _pricePerRecord,\n                budget: msg.value\n            });\n        }\n        emit OfferCreated(offerCount, _msgSender(), _title, _pricePerRecord);\n    }\n\n    function sellData(uint256 _offerId, string memory _ipfsHash) public nonReentrant whenNotPaused {\n        _executeDataSale(_offerId, _msgSender(), _ipfsHash);\n    }\n\n    function sellDataWithSignature(\n        uint256 _offerId,\n        string memory _ipfsHash,\n        address _patient,\n        bytes calldata _signature\n    ) external nonReentrant whenNotPaused {\n        bytes32 structHash = keccak256(abi.encode(\n            SELL_DATA_TYPEHASH,\n            _offerId,\n            _ipfsHash,\n            _patient,\n            nonces[_patient]++\n        ));\n\n        bytes32 hash = _hashTypedDataV4(structHash);\n        address signer = ECDSA.recover(hash, _signature);\n        require(signer == _patient, \"Invalid signature\");\n\n        _executeDataSale(_offerId, _patient, _ipfsHash);\n    }\n\n    function _executeDataSale(uint256 _offerId, address _patient, string memory _ipfsHash) internal {\n        DataOffer storage offer = offers[_offerId];\n        if (!offer.isActive) revert OfferNotActive();\n        if (offer.budget < offer.price) revert InsufficientBudget();\n\n        offer.budget -= offer.price;\n        if (offer.budget < offer.price) offer.isActive = false;\n\n        companyPurchases[offer.company].push(PurchasedRecord({\n            patient: _patient,\n            ipfsHash: _ipfsHash,\n            timestamp: block.timestamp,\n            offerId: _offerId\n        }));\n        hasCompanyPurchased[offer.company][_ipfsHash] = true;\n\n        if (offer.isToken) {\n            pendingTokenEarnings[_patient] += offer.price;\n        } else {\n            pendingEarnings[_patient] += offer.price;\n        }\n\n        emit DataSold(_offerId, offer.company, _patient, offer.price, offer.isToken);\n    }\n\n    function claimTokenEarnings() public nonReentrant whenNotPaused {\n        uint256 amount = pendingTokenEarnings[_msgSender()];\n        if (amount == 0) revert NoEarnings();\n        pendingTokenEarnings[_msgSender()] = 0;\n        IERC20(sanjeevniToken).safeTransfer(_msgSender(), amount);\n        emit EarningsClaimed(_msgSender(), amount, true);\n    }\n\n    function claimEarnings() public nonReentrant whenNotPaused checkLimit(pendingEarnings[_msgSender()]) {\n        uint256 amount = pendingEarnings[_msgSender()];\n        if (amount == 0) revert NoEarnings();\n        pendingEarnings[_msgSender()] = 0;\n\n        (bool sent, ) = payable(_msgSender()).call{value: amount}(\"\");\n        if (!sent) revert TransferFailed();\n        emit EarningsClaimed(_msgSender(), amount, false);\n    }\n\n    function getAllOffers() public view returns (DataOffer[] memory) {\n        uint256 count = offerCount;\n        DataOffer[] memory allOffers = new DataOffer[](count);\n        for (uint256 i = 1; i <= count; ) {\n            allOffers[i - 1] = offers[i];\n            unchecked { i++; }\n        }\n        return allOffers;\n    }\n\n    function getCompanyPurchases(address _company) public view returns (PurchasedRecord[] memory) {\n        return companyPurchases[_company];\n    }\n}\n",
  "sourcePath": "/home/ayush/Desktop/code/Sanjeevni/contracts/contracts/Marketplace.sol",
  "compiler": {
    "name": "solc",
    "version": "0.8.20+commit.a1b79de6.Emscripten.clang"
  },
  "schemaVersion": "3.4.16",
  "updatedAt": "2026-04-13T22:12:13.006Z",
  "networkType": "ethereum",
  "devdoc": {
    "details": "UUPS Upgradeable marketplace for buying and selling medical data.",
    "errors": {
      "AddressEmptyCode(address)": [
        {
          "details": "There's no code at `target` (it is not a contract)."
        }
      ],
      "AddressInsufficientBalance(address)": [
        {
          "details": "The ETH balance of the account is not enough to perform the operation."
        }
      ],
      "ECDSAInvalidSignature()": [
        {
          "details": "The signature derives the `address(0)`."
        }
      ],
      "ECDSAInvalidSignatureLength(uint256)": [
        {
          "details": "The signature has an invalid length."
        }
      ],
      "ECDSAInvalidSignatureS(bytes32)": [
        {
          "details": "The signature has an S value that is in the upper half order."
        }
      ],
      "ERC1967InvalidImplementation(address)": [
        {
          "details": "The `implementation` of the proxy is invalid."
        }
      ],
      "ERC1967NonPayable()": [
        {
          "details": "An upgrade function sees `msg.value > 0` that may be lost."
        }
      ],
      "EnforcedPause()": [
        {
          "details": "The operation failed because the contract is paused."
        }
      ],
      "ExpectedPause()": [
        {
          "details": "The operation failed because the contract is not paused."
        }
      ],
      "FailedInnerCall()": [
        {
          "details": "A call to an address target failed. The target may have reverted."
        }
      ],
      "InvalidInitialization()": [
        {
          "details": "The contract is already initialized."
        }
      ],
      "NotInitializing()": [
        {
          "details": "The contract is not initializing."
        }
      ],
      "ReentrancyGuardReentrantCall()": [
        {
          "details": "Unauthorized reentrant call."
        }
      ],
      "SafeERC20FailedOperation(address)": [
        {
          "details": "An operation with an ERC20 token failed."
        }
      ],
      "UUPSUnauthorizedCallContext()": [
        {
          "details": "The call is from an unauthorized context."
        }
      ],
      "UUPSUnsupportedProxiableUUID(bytes32)": [
        {
          "details": "The storage `slot` is unsupported as a UUID."
        }
      ]
    },
    "events": {
      "EIP712DomainChanged()": {
        "details": "MAY be emitted to signal that the domain could have changed."
      },
      "Initialized(uint64)": {
        "details": "Triggered when the contract has been initialized or reinitialized."
      },
      "Paused(address)": {
        "details": "Emitted when the pause is triggered by `account`."
      },
      "Unpaused(address)": {
        "details": "Emitted when the pause is lifted by `account`."
      },
      "Upgraded(address)": {
        "details": "Emitted when the implementation is upgraded."
      }
    },
    "kind": "dev",
    "methods": {
      "constructor": {
        "custom:oz-upgrades-unsafe-allow": "constructor"
      },
      "eip712Domain()": {
        "details": "See {IERC-5267}."
      },
      "isTrustedForwarder(address)": {
        "details": "Indicates whether any particular address is the trusted forwarder."
      },
      "paused()": {
        "details": "Returns true if the contract is paused, and false otherwise."
      },
      "proxiableUUID()": {
        "details": "Implementation of the ERC1822 {proxiableUUID} function. This returns the storage slot used by the implementation. It is used to validate the implementation's compatibility when performing an upgrade. IMPORTANT: A proxy pointing at a proxiable contract should not be considered proxiable itself, because this risks bricking a proxy that upgrades to it, by delegating to itself until out of gas. Thus it is critical that this function revert if invoked through a proxy. This is guaranteed by the `notDelegated` modifier."
      },
      "trustedForwarder()": {
        "details": "Returns the address of the trusted forwarder."
      },
      "upgradeToAndCall(address,bytes)": {
        "custom:oz-upgrades-unsafe-allow-reachable": "delegatecall",
        "details": "Upgrade the implementation of the proxy to `newImplementation`, and subsequently execute the function call encoded in `data`. Calls {_authorizeUpgrade}. Emits an {Upgraded} event."
      }
    },
    "title": "Marketplace",
    "version": 1
  },
  "userdoc": {
    "kind": "user",
    "methods": {},
    "version": 1
  },
  "timeoutBlocks": 500,
  "numberFormat": "BN"
}