{
  "contractName": "MediSecureAccessControl",
  "abi": [
    {
      "inputs": [],
      "stateMutability": "nonpayable",
      "type": "constructor",
      "signature": "constructor"
    },
    {
      "inputs": [],
      "name": "AccessControlBadConfirmation",
      "type": "error"
    },
    {
      "inputs": [
        {
          "internalType": "address",
          "name": "account",
          "type": "address"
        },
        {
          "internalType": "bytes32",
          "name": "neededRole",
          "type": "bytes32"
        }
      ],
      "name": "AccessControlUnauthorizedAccount",
      "type": "error"
    },
    {
      "inputs": [],
      "name": "EnforcedPause",
      "type": "error"
    },
    {
      "inputs": [],
      "name": "ExpectedPause",
      "type": "error"
    },
    {
      "inputs": [],
      "name": "NotAuthorizedManager",
      "type": "error"
    },
    {
      "anonymous": false,
      "inputs": [
        {
          "indexed": false,
          "internalType": "address",
          "name": "account",
          "type": "address"
        }
      ],
      "name": "Paused",
      "type": "event",
      "signature": "0x62e78cea01bee320cd4e420270b5ea74000d11b0c9f74754ebdbfc544b05a258"
    },
    {
      "anonymous": false,
      "inputs": [
        {
          "indexed": true,
          "internalType": "bytes32",
          "name": "role",
          "type": "bytes32"
        },
        {
          "indexed": true,
          "internalType": "bytes32",
          "name": "previousAdminRole",
          "type": "bytes32"
        },
        {
          "indexed": true,
          "internalType": "bytes32",
          "name": "newAdminRole",
          "type": "bytes32"
        }
      ],
      "name": "RoleAdminChanged",
      "type": "event",
      "signature": "0xbd79b86ffe0ab8e8776151514217cd7cacd52c909f66475c3af44e129f0b00ff"
    },
    {
      "anonymous": false,
      "inputs": [
        {
          "indexed": true,
          "internalType": "bytes32",
          "name": "role",
          "type": "bytes32"
        },
        {
          "indexed": true,
          "internalType": "address",
          "name": "account",
          "type": "address"
        },
        {
          "indexed": true,
          "internalType": "address",
          "name": "sender",
          "type": "address"
        }
      ],
      "name": "RoleGranted",
      "type": "event",
      "signature": "0x2f8788117e7eff1d82e926ec794901d17c78024a50270940304540a733656f0d"
    },
    {
      "anonymous": false,
      "inputs": [
        {
          "indexed": true,
          "internalType": "bytes32",
          "name": "role",
          "type": "bytes32"
        },
        {
          "indexed": true,
          "internalType": "address",
          "name": "account",
          "type": "address"
        },
        {
          "indexed": true,
          "internalType": "address",
          "name": "sender",
          "type": "address"
        }
      ],
      "name": "RoleRevoked",
      "type": "event",
      "signature": "0xf6391f5c32d9c69d2a47ea670b442974b53935d1edc7fd64eb21e047a839171b"
    },
    {
      "anonymous": false,
      "inputs": [
        {
          "indexed": false,
          "internalType": "address",
          "name": "account",
          "type": "address"
        }
      ],
      "name": "Unpaused",
      "type": "event",
      "signature": "0x5db9ee0a495bf2e6ff9c91a7834c1ba4fdd244a5e8aa4e537bd38aeae4b073aa"
    },
    {
      "inputs": [],
      "name": "ADMIN_ROLE",
      "outputs": [
        {
          "internalType": "bytes32",
          "name": "",
          "type": "bytes32"
        }
      ],
      "stateMutability": "view",
      "type": "function",
      "constant": true,
      "signature": "0x75b238fc"
    },
    {
      "inputs": [],
      "name": "DEFAULT_ADMIN_ROLE",
      "outputs": [
        {
          "internalType": "bytes32",
          "name": "",
          "type": "bytes32"
        }
      ],
      "stateMutability": "view",
      "type": "function",
      "constant": true,
      "signature": "0xa217fddf"
    },
    {
      "inputs": [],
      "name": "DOCTOR_ROLE",
      "outputs": [
        {
          "internalType": "bytes32",
          "name": "",
          "type": "bytes32"
        }
      ],
      "stateMutability": "view",
      "type": "function",
      "constant": true,
      "signature": "0xfec331f2"
    },
    {
      "inputs": [],
      "name": "GOVERNOR_ROLE",
      "outputs": [
        {
          "internalType": "bytes32",
          "name": "",
          "type": "bytes32"
        }
      ],
      "stateMutability": "view",
      "type": "function",
      "constant": true,
      "signature": "0xccc57490"
    },
    {
      "inputs": [],
      "name": "HOSPITAL_ROLE",
      "outputs": [
        {
          "internalType": "bytes32",
          "name": "",
          "type": "bytes32"
        }
      ],
      "stateMutability": "view",
      "type": "function",
      "constant": true,
      "signature": "0xf6ba6678"
    },
    {
      "inputs": [],
      "name": "INSURANCE_PROVIDER_ROLE",
      "outputs": [
        {
          "internalType": "bytes32",
          "name": "",
          "type": "bytes32"
        }
      ],
      "stateMutability": "view",
      "type": "function",
      "constant": true,
      "signature": "0x2183de4f"
    },
    {
      "inputs": [],
      "name": "MARKETPLACE_COMPANY_ROLE",
      "outputs": [
        {
          "internalType": "bytes32",
          "name": "",
          "type": "bytes32"
        }
      ],
      "stateMutability": "view",
      "type": "function",
      "constant": true,
      "signature": "0xacf94e90"
    },
    {
      "inputs": [],
      "name": "PATIENT_ROLE",
      "outputs": [
        {
          "internalType": "bytes32",
          "name": "",
          "type": "bytes32"
        }
      ],
      "stateMutability": "view",
      "type": "function",
      "constant": true,
      "signature": "0xac5cb97d"
    },
    {
      "inputs": [],
      "name": "UPGRADER_ROLE",
      "outputs": [
        {
          "internalType": "bytes32",
          "name": "",
          "type": "bytes32"
        }
      ],
      "stateMutability": "view",
      "type": "function",
      "constant": true,
      "signature": "0xf72c0d8b"
    },
    {
      "inputs": [],
      "name": "VERIFIER_ROLE",
      "outputs": [
        {
          "internalType": "bytes32",
          "name": "",
          "type": "bytes32"
        }
      ],
      "stateMutability": "view",
      "type": "function",
      "constant": true,
      "signature": "0xe7705db6"
    },
    {
      "inputs": [
        {
          "internalType": "address",
          "name": "",
          "type": "address"
        }
      ],
      "name": "authorizedManagers",
      "outputs": [
        {
          "internalType": "bool",
          "name": "",
          "type": "bool"
        }
      ],
      "stateMutability": "view",
      "type": "function",
      "constant": true,
      "signature": "0x0a3cb21b"
    },
    {
      "inputs": [
        {
          "internalType": "bytes32",
          "name": "role",
          "type": "bytes32"
        }
      ],
      "name": "getRoleAdmin",
      "outputs": [
        {
          "internalType": "bytes32",
          "name": "",
          "type": "bytes32"
        }
      ],
      "stateMutability": "view",
      "type": "function",
      "constant": true,
      "signature": "0x248a9ca3"
    },
    {
      "inputs": [],
      "name": "paused",
      "outputs": [
        {
          "internalType": "bool",
          "name": "",
          "type": "bool"
        }
      ],
      "stateMutability": "view",
      "type": "function",
      "constant": true,
      "signature": "0x5c975abb"
    },
    {
      "inputs": [
        {
          "internalType": "bytes32",
          "name": "role",
          "type": "bytes32"
        },
        {
          "internalType": "address",
          "name": "callerConfirmation",
          "type": "address"
        }
      ],
      "name": "renounceRole",
      "outputs": [],
      "stateMutability": "nonpayable",
      "type": "function",
      "signature": "0x36568abe"
    },
    {
      "inputs": [
        {
          "internalType": "bytes4",
          "name": "interfaceId",
          "type": "bytes4"
        }
      ],
      "name": "supportsInterface",
      "outputs": [
        {
          "internalType": "bool",
          "name": "",
          "type": "bool"
        }
      ],
      "stateMutability": "view",
      "type": "function",
      "constant": true,
      "signature": "0x01ffc9a7"
    },
    {
      "inputs": [
        {
          "internalType": "enum Roles",
          "name": "role",
          "type": "uint8"
        }
      ],
      "name": "getRoleHash",
      "outputs": [
        {
          "internalType": "bytes32",
          "name": "",
          "type": "bytes32"
        }
      ],
      "stateMutability": "pure",
      "type": "function",
      "constant": true,
      "signature": "0xbc963851"
    },
    {
      "inputs": [
        {
          "internalType": "bytes32",
          "name": "role",
          "type": "bytes32"
        },
        {
          "internalType": "address",
          "name": "account",
          "type": "address"
        }
      ],
      "name": "hasRole",
      "outputs": [
        {
          "internalType": "bool",
          "name": "",
          "type": "bool"
        }
      ],
      "stateMutability": "view",
      "type": "function",
      "constant": true,
      "signature": "0x91d14854"
    },
    {
      "inputs": [
        {
          "internalType": "enum Roles",
          "name": "role",
          "type": "uint8"
        },
        {
          "internalType": "address",
          "name": "account",
          "type": "address"
        }
      ],
      "name": "hasRole",
      "outputs": [
        {
          "internalType": "bool",
          "name": "",
          "type": "bool"
        }
      ],
      "stateMutability": "view",
      "type": "function",
      "constant": true,
      "signature": "0x9e97b8f6"
    },
    {
      "inputs": [
        {
          "internalType": "bytes32",
          "name": "role",
          "type": "bytes32"
        },
        {
          "internalType": "address",
          "name": "account",
          "type": "address"
        }
      ],
      "name": "grantRole",
      "outputs": [],
      "stateMutability": "nonpayable",
      "type": "function",
      "signature": "0x2f2ff15d"
    },
    {
      "inputs": [
        {
          "internalType": "enum Roles",
          "name": "role",
          "type": "uint8"
        },
        {
          "internalType": "address",
          "name": "account",
          "type": "address"
        }
      ],
      "name": "grantRole",
      "outputs": [],
      "stateMutability": "nonpayable",
      "type": "function",
      "signature": "0x5d5664e1"
    },
    {
      "inputs": [
        {
          "internalType": "enum Roles",
          "name": "role",
          "type": "uint8"
        },
        {
          "internalType": "address",
          "name": "account",
          "type": "address"
        }
      ],
      "name": "revokeRole",
      "outputs": [],
      "stateMutability": "nonpayable",
      "type": "function",
      "signature": "0x4cbb87d3"
    },
    {
      "inputs": [
        {
          "internalType": "bytes32",
          "name": "role",
          "type": "bytes32"
        },
        {
          "internalType": "address",
          "name": "account",
          "type": "address"
        }
      ],
      "name": "revokeRole",
      "outputs": [],
      "stateMutability": "nonpayable",
      "type": "function",
      "signature": "0xd547741f"
    },
    {
      "inputs": [
        {
          "internalType": "address",
          "name": "manager",
          "type": "address"
        },
        {
          "internalType": "bool",
          "name": "status",
          "type": "bool"
        }
      ],
      "name": "setAuthorizedManager",
      "outputs": [],
      "stateMutability": "nonpayable",
      "type": "function",
      "signature": "0x2b71fb3a"
    },
    {
      "inputs": [
        {
          "internalType": "address",
          "name": "account",
          "type": "address"
        }
      ],
      "name": "grantAdminRole",
      "outputs": [],
      "stateMutability": "nonpayable",
      "type": "function",
      "signature": "0xc634b78e"
    },
    {
      "inputs": [
        {
          "internalType": "address",
          "name": "account",
          "type": "address"
        }
      ],
      "name": "grantDoctorRole",
      "outputs": [],
      "stateMutability": "nonpayable",
      "type": "function",
      "signature": "0x2f5635cc"
    },
    {
      "inputs": [
        {
          "internalType": "address",
          "name": "account",
          "type": "address"
        }
      ],
      "name": "grantPatientRole",
      "outputs": [],
      "stateMutability": "nonpayable",
      "type": "function",
      "signature": "0x7f2df8b0"
    },
    {
      "inputs": [
        {
          "internalType": "address",
          "name": "account",
          "type": "address"
        }
      ],
      "name": "grantHospitalRole",
      "outputs": [],
      "stateMutability": "nonpayable",
      "type": "function",
      "signature": "0x7ee756f2"
    },
    {
      "inputs": [
        {
          "internalType": "address",
          "name": "account",
          "type": "address"
        }
      ],
      "name": "grantInsuranceRole",
      "outputs": [],
      "stateMutability": "nonpayable",
      "type": "function",
      "signature": "0x886f0f95"
    },
    {
      "inputs": [
        {
          "internalType": "address",
          "name": "account",
          "type": "address"
        }
      ],
      "name": "grantCompanyRole",
      "outputs": [],
      "stateMutability": "nonpayable",
      "type": "function",
      "signature": "0x519f0404"
    },
    {
      "inputs": [
        {
          "internalType": "address",
          "name": "account",
          "type": "address"
        }
      ],
      "name": "grantGovernorRole",
      "outputs": [],
      "stateMutability": "nonpayable",
      "type": "function",
      "signature": "0xe4dd1dca"
    },
    {
      "inputs": [
        {
          "internalType": "address",
          "name": "account",
          "type": "address"
        }
      ],
      "name": "grantUpgraderRole",
      "outputs": [],
      "stateMutability": "nonpayable",
      "type": "function",
      "signature": "0x595a1d3f"
    },
    {
      "inputs": [
        {
          "internalType": "address",
          "name": "account",
          "type": "address"
        }
      ],
      "name": "grantVerifierRole",
      "outputs": [],
      "stateMutability": "nonpayable",
      "type": "function",
      "signature": "0x0337c061"
    },
    {
      "inputs": [],
      "name": "pause",
      "outputs": [],
      "stateMutability": "nonpayable",
      "type": "function",
      "signature": "0x8456cb59"
    },
    {
      "inputs": [],
      "name": "unpause",
      "outputs": [],
      "stateMutability": "nonpayable",
      "type": "function",
      "signature": "0x3f4ba83a"
    },
    {
      "inputs": [
        {
          "internalType": "address",
          "name": "account",
          "type": "address"
        }
      ],
      "name": "isDoctor",
      "outputs": [
        {
          "internalType": "bool",
          "name": "",
          "type": "bool"
        }
      ],
      "stateMutability": "view",
      "type": "function",
      "constant": true,
      "signature": "0x996440c6"
    },
    {
      "inputs": [
        {
          "internalType": "address",
          "name": "account",
          "type": "address"
        }
      ],
      "name": "isPatient",
      "outputs": [
        {
          "internalType": "bool",
          "name": "",
          "type": "bool"
        }
      ],
      "stateMutability": "view",
      "type": "function",
      "constant": true,
      "signature": "0x8f9c79ed"
    },
    {
      "inputs": [
        {
          "internalType": "address",
          "name": "account",
          "type": "address"
        }
      ],
      "name": "isHospital",
      "outputs": [
        {
          "internalType": "bool",
          "name": "",
          "type": "bool"
        }
      ],
      "stateMutability": "view",
      "type": "function",
      "constant": true,
      "signature": "0xbdf6c673"
    },
    {
      "inputs": [
        {
          "internalType": "address",
          "name": "account",
          "type": "address"
        }
      ],
      "name": "isInsuranceProvider",
      "outputs": [
        {
          "internalType": "bool",
          "name": "",
          "type": "bool"
        }
      ],
      "stateMutability": "view",
      "type": "function",
      "constant": true,
      "signature": "0xd2d8fe07"
    },
    {
      "inputs": [
        {
          "internalType": "address",
          "name": "account",
          "type": "address"
        }
      ],
      "name": "isCompany",
      "outputs": [
        {
          "internalType": "bool",
          "name": "",
          "type": "bool"
        }
      ],
      "stateMutability": "view",
      "type": "function",
      "constant": true,
      "signature": "0xa0406ce2"
    }
  ],
  "bytecode": "0x608060405234801561000f575f80fd5b506001805460ff191690556100245f33610055565b5061004f7fa49807205ce4d355092ef5a8a18f56e8913cf4a201fbe287825b095693c2177533610055565b506100fe565b5f828152602081815260408083206001600160a01b038516845290915281205460ff166100f5575f838152602081815260408083206001600160a01b03861684529091529020805460ff191660011790556100ad3390565b6001600160a01b0316826001600160a01b0316847f2f8788117e7eff1d82e926ec794901d17c78024a50270940304540a733656f0d60405160405180910390a45060016100f8565b505f5b92915050565b6110468061010b5f395ff3fe608060405234801561000f575f80fd5b5060043610610234575f3560e01c8063886f0f9511610135578063bdf6c673116100b4578063e4dd1dca11610079578063e4dd1dca14610528578063e7705db61461053b578063f6ba667814610562578063f72c0d8b14610589578063fec331f2146105b0575f80fd5b8063bdf6c673146104b5578063c634b78e146104c8578063ccc57490146104db578063d2d8fe0714610502578063d547741f14610515575f80fd5b8063a0406ce2116100fa578063a0406ce21461043a578063a217fddf1461044d578063ac5cb97d14610454578063acf94e901461047b578063bc963851146104a2575f80fd5b8063886f0f95146103db5780638f9c79ed146103ee57806391d1485414610401578063996440c6146104145780639e97b8f614610427575f80fd5b80633f4ba83a116101c15780635d5664e1116101865780635d5664e11461038657806375b238fc146103995780637ee756f2146103ad5780637f2df8b0146103c05780638456cb59146103d3575f80fd5b80633f4ba83a1461033a5780634cbb87d314610342578063519f040414610355578063595a1d3f146103685780635c975abb1461037b575f80fd5b8063248a9ca311610207578063248a9ca3146102cc5780632b71fb3a146102ee5780632f2ff15d146103015780632f5635cc1461031457806336568abe14610327575f80fd5b806301ffc9a7146102385780630337c061146102605780630a3cb21b146102755780632183de4f14610297575b5f80fd5b61024b610246366004610eb8565b6105d7565b60405190151581526020015b60405180910390f35b61027361026e366004610efa565b61060d565b005b61024b610283366004610efa565b60026020525f908152604090205460ff1681565b6102be7f1bf54c22cc0f717dfed093391c21386d260aebed6896993543d4e49007d4a37a81565b604051908152602001610257565b6102be6102da366004610f13565b5f9081526020819052604090206001015490565b6102736102fc366004610f2a565b610668565b61027361030f366004610f63565b6106a5565b610273610322366004610efa565b6106cf565b610273610335366004610f63565b6106da565b610273610712565b610273610350366004610f9b565b61072c565b610273610363366004610efa565b61078b565b610273610376366004610efa565b6107e3565b60015460ff1661024b565b610273610394366004610f9b565b610837565b6102be5f80516020610ff183398151915281565b6102736103bb366004610efa565b610896565b6102736103ce366004610efa565b6108ee565b6102736108f9565b6102736103e9366004610efa565b610913565b61024b6103fc366004610efa565b61096b565b61024b61040f366004610f63565b610977565b61024b610422366004610efa565b61099f565b61024b610435366004610f9b565b6109a7565b61024b610448366004610efa565b6109c1565b6102be5f81565b6102be7f72606200fac42b7dc86b75901d61ecfab2a4a1a6eded478b97a428094891abed81565b6102be7fe4726cc1063b2e95565eee47060435f8d5626d3ad531b8c37baaa791120f247a81565b6102be6104b0366004610fc3565b6109cd565b61024b6104c3366004610efa565b610c01565b6102736104d6366004610efa565b610c0d565b6102be7f7935bd0ae54bc31f548c14dba4d37c5c64b3f8ca900cb468fb8abd54d5894f5581565b61024b610510366004610efa565b610c17565b610273610523366004610f63565b610c23565b610273610536366004610efa565b610c47565b6102be7f0ce23c3e399818cfee81a7ab0880f714e53d7672b08df0fa62f2843416e1ea0981565b6102be7fc8f5b4140cca307cd927e59cbeea8291bffeee228fc677f0fa059aef7b4dd8d581565b6102be7f189ab7a9244df0848122154315af71fe140f3db0fe014031783b0946b8c9d2e381565b6102be7f0af1dac7dea2fd7f7738119cec7df099dfad49aa9d2e7d17ba6b60f63ae7411f81565b5f6001600160e01b03198216637965db0b60e01b148061060757506301ffc9a760e01b6001600160e01b03198316145b92915050565b6106245f80516020610ff183398151915233610977565b8061063d5750335f9081526002602052604090205460ff165b61065a576040516342f022f760e11b815260040160405180910390fd5b610665600682610837565b50565b6106715f6109cd565b61067a81610c9f565b506001600160a01b03919091165f908152600260205260409020805460ff1916911515919091179055565b5f828152602081905260409020600101546106bf81610c9f565b6106c98383610ca9565b50505050565b610665600182610837565b6001600160a01b03811633146107035760405163334bd91960e11b815260040160405180910390fd5b61070d8282610d38565b505050565b61071b5f6109cd565b61072481610c9f565b610665610da1565b6107435f80516020610ff183398151915233610977565b8061075c5750335f9081526002602052604090205460ff165b610779576040516342f022f760e11b815260040160405180910390fd5b61070d610785836109cd565b82610d38565b6107a25f80516020610ff183398151915233610977565b806107bb5750335f9081526002602052604090205460ff165b6107d8576040516342f022f760e11b815260040160405180910390fd5b610665600582610837565b6107fa5f80516020610ff183398151915233610977565b806108135750335f9081526002602052604090205460ff165b610830576040516342f022f760e11b815260040160405180910390fd5b6106656007825b61084e5f80516020610ff183398151915233610977565b806108675750335f9081526002602052604090205460ff165b610884576040516342f022f760e11b815260040160405180910390fd5b61070d610890836109cd565b82610ca9565b6108ad5f80516020610ff183398151915233610977565b806108c65750335f9081526002602052604090205460ff165b6108e3576040516342f022f760e11b815260040160405180910390fd5b610665600382610837565b610665600282610837565b6109025f6109cd565b61090b81610c9f565b610665610df3565b61092a5f80516020610ff183398151915233610977565b806109435750335f9081526002602052604090205460ff165b610960576040516342f022f760e11b815260040160405180910390fd5b610665600482610837565b5f6106076002836109a7565b5f918252602082815260408084206001600160a01b0393909316845291905290205460ff1690565b5f6106076001835b5f6109ba6109b4846109cd565b83610977565b9392505050565b5f6106076005836109a7565b5f808260088111156109e1576109e1610fdc565b036109fa57505f80516020610ff1833981519152919050565b6001826008811115610a0e57610a0e610fdc565b03610a3a57507f0af1dac7dea2fd7f7738119cec7df099dfad49aa9d2e7d17ba6b60f63ae7411f919050565b6002826008811115610a4e57610a4e610fdc565b03610a7a57507f72606200fac42b7dc86b75901d61ecfab2a4a1a6eded478b97a428094891abed919050565b6003826008811115610a8e57610a8e610fdc565b03610aba57507fc8f5b4140cca307cd927e59cbeea8291bffeee228fc677f0fa059aef7b4dd8d5919050565b6004826008811115610ace57610ace610fdc565b03610afa57507f1bf54c22cc0f717dfed093391c21386d260aebed6896993543d4e49007d4a37a919050565b6005826008811115610b0e57610b0e610fdc565b03610b3a57507fe4726cc1063b2e95565eee47060435f8d5626d3ad531b8c37baaa791120f247a919050565b6006826008811115610b4e57610b4e610fdc565b03610b7a57507f0ce23c3e399818cfee81a7ab0880f714e53d7672b08df0fa62f2843416e1ea09919050565b6007826008811115610b8e57610b8e610fdc565b03610bba57507f189ab7a9244df0848122154315af71fe140f3db0fe014031783b0946b8c9d2e3919050565b6008826008811115610bce57610bce610fdc565b03610bfa57507f7935bd0ae54bc31f548c14dba4d37c5c64b3f8ca900cb468fb8abd54d5894f55919050565b505f919050565b5f6106076003836109a7565b6106655f82610837565b5f6106076004836109a7565b5f82815260208190526040902060010154610c3d81610c9f565b6106c98383610d38565b610c5e5f80516020610ff183398151915233610977565b80610c775750335f9081526002602052604090205460ff165b610c94576040516342f022f760e11b815260040160405180910390fd5b610665600882610837565b6106658133610e2e565b5f610cb48383610977565b610d31575f838152602081815260408083206001600160a01b03861684529091529020805460ff19166001179055610ce93390565b6001600160a01b0316826001600160a01b0316847f2f8788117e7eff1d82e926ec794901d17c78024a50270940304540a733656f0d60405160405180910390a4506001610607565b505f610607565b5f610d438383610977565b15610d31575f838152602081815260408083206001600160a01b0386168085529252808320805460ff1916905551339286917ff6391f5c32d9c69d2a47ea670b442974b53935d1edc7fd64eb21e047a839171b9190a4506001610607565b610da9610e6f565b6001805460ff191690557f5db9ee0a495bf2e6ff9c91a7834c1ba4fdd244a5e8aa4e537bd38aeae4b073aa335b6040516001600160a01b03909116815260200160405180910390a1565b610dfb610e94565b6001805460ff1916811790557f62e78cea01bee320cd4e420270b5ea74000d11b0c9f74754ebdbfc544b05a25833610dd6565b610e388282610977565b610e6b5760405163e2517d3f60e01b81526001600160a01b03821660048201526024810183905260440160405180910390fd5b5050565b60015460ff16610e9257604051638dfc202b60e01b815260040160405180910390fd5b565b60015460ff1615610e925760405163d93c066560e01b815260040160405180910390fd5b5f60208284031215610ec8575f80fd5b81356001600160e01b0319811681146109ba575f80fd5b80356001600160a01b0381168114610ef5575f80fd5b919050565b5f60208284031215610f0a575f80fd5b6109ba82610edf565b5f60208284031215610f23575f80fd5b5035919050565b5f8060408385031215610f3b575f80fd5b610f4483610edf565b915060208301358015158114610f58575f80fd5b809150509250929050565b5f8060408385031215610f74575f80fd5b82359150610f8460208401610edf565b90509250929050565b803560098110610ef5575f80fd5b5f8060408385031215610fac575f80fd5b610fb583610f8d565b9150610f8460208401610edf565b5f60208284031215610fd3575f80fd5b6109ba82610f8d565b634e487b7160e01b5f52602160045260245ffdfea49807205ce4d355092ef5a8a18f56e8913cf4a201fbe287825b095693c21775a2646970667358221220cdb9c55fe4aebb093ce26e366d1bbd4ed88cdf0ccf77fc69d6b65e573212c4c564736f6c63430008140033",
  "immutableReferences": {},
  "source": "// SPDX-License-Identifier: MIT\npragma solidity ^0.8.20;\n\nimport \"@openzeppelin/contracts/access/AccessControl.sol\";\nimport \"@openzeppelin/contracts/utils/Pausable.sol\";\n\n/**\n * @title Roles\n * @dev Role definitions for the MediSecure platform\n */\nenum Roles {\n    ADMIN,\n    DOCTOR,\n    PATIENT,\n    HOSPITAL,\n    INSURANCE_PROVIDER,\n    MARKETPLACE_COMPANY,\n    VERIFIER,\n    UPGRADER,\n    GOVERNOR\n}\n\n/**\n * @title MediSecureAccessControl\n * @dev Centralized access control contract with role-based permissions\n */\ncontract MediSecureAccessControl is AccessControl, Pausable {\n    bytes32 public constant ADMIN_ROLE = keccak256(\"ADMIN_ROLE\");\n    bytes32 public constant DOCTOR_ROLE = keccak256(\"DOCTOR_ROLE\");\n    bytes32 public constant PATIENT_ROLE = keccak256(\"PATIENT_ROLE\");\n    bytes32 public constant HOSPITAL_ROLE = keccak256(\"HOSPITAL_ROLE\");\n    bytes32 public constant INSURANCE_PROVIDER_ROLE = keccak256(\"INSURANCE_PROVIDER_ROLE\");\n    bytes32 public constant MARKETPLACE_COMPANY_ROLE = keccak256(\"MARKETPLACE_COMPANY_ROLE\");\n    bytes32 public constant VERIFIER_ROLE = keccak256(\"VERIFIER_ROLE\");\n    bytes32 public constant UPGRADER_ROLE = keccak256(\"UPGRADER_ROLE\");\n    bytes32 public constant GOVERNOR_ROLE = keccak256(\"GOVERNOR_ROLE\");\n\n    // Custom Errors\n    error NotAuthorizedManager();\n\n    mapping(address => bool) public authorizedManagers;\n\n    constructor() {\n        // Grant deployer admin role\n        _grantRole(DEFAULT_ADMIN_ROLE, msg.sender);\n        _grantRole(ADMIN_ROLE, msg.sender);\n    }\n\n    /**\n     * @dev Maps Roles enum to AccessControl bytes32 hashes\n     */\n    function getRoleHash(Roles role) public pure returns (bytes32) {\n        if (role == Roles.ADMIN) return ADMIN_ROLE;\n        if (role == Roles.DOCTOR) return DOCTOR_ROLE;\n        if (role == Roles.PATIENT) return PATIENT_ROLE;\n        if (role == Roles.HOSPITAL) return HOSPITAL_ROLE;\n        if (role == Roles.INSURANCE_PROVIDER) return INSURANCE_PROVIDER_ROLE;\n        if (role == Roles.MARKETPLACE_COMPANY) return MARKETPLACE_COMPANY_ROLE;\n        if (role == Roles.VERIFIER) return VERIFIER_ROLE;\n        if (role == Roles.UPGRADER) return UPGRADER_ROLE;\n        if (role == Roles.GOVERNOR) return GOVERNOR_ROLE;\n        return 0x00;\n    }\n\n    // --- Enum-based Access Control ---\n\n    function hasRole(Roles role, address account) public view returns (bool) {\n        return hasRole(getRoleHash(role), account);\n    }\n\n    function grantRole(Roles role, address account) public onlyManager {\n        _grantRole(getRoleHash(role), account);\n    }\n\n    function revokeRole(Roles role, address account) public onlyManager {\n        _revokeRole(getRoleHash(role), account);\n    }\n\n    modifier onlyManager() {\n        if (!(hasRole(ADMIN_ROLE, msg.sender) || authorizedManagers[msg.sender])) revert NotAuthorizedManager();\n        _;\n    }\n\n    function setAuthorizedManager(address manager, bool status) external onlyRole(getRoleHash(Roles.ADMIN)) {\n        authorizedManagers[manager] = status;\n    }\n\n    // --- Admin Functions ---\n\n    /**\n     * @dev Grant admin role to an address\n     * @param account Address to grant role to\n     */\n    function grantAdminRole(address account) external {\n        grantRole(Roles.ADMIN, account);\n    }\n\n    /**\n     * @dev Grant doctor role to an address\n     * @param account Address to grant role to\n     */\n    function grantDoctorRole(address account) external {\n        grantRole(Roles.DOCTOR, account);\n    }\n\n    /**\n     * @dev Grant patient role to an address\n     * @param account Address to grant role to\n     */\n    function grantPatientRole(address account) external {\n        grantRole(Roles.PATIENT, account);\n    }\n\n    /**\n     * @dev Grant hospital role to an address\n     * @param account Address to grant role to\n     */\n    function grantHospitalRole(address account) external onlyManager() {\n        grantRole(Roles.HOSPITAL, account);\n    }\n\n    /**\n     * @dev Grant insurance provider role to an address\n     * @param account Address to grant role to\n     */\n    function grantInsuranceRole(address account) external onlyManager() {\n        grantRole(Roles.INSURANCE_PROVIDER, account);\n    }\n\n    /**\n     * @dev Grant marketplace company role to an address\n     * @param account Address to grant role to\n     */\n    function grantCompanyRole(address account) external onlyManager() {\n        grantRole(Roles.MARKETPLACE_COMPANY, account);\n    }\n\n    /**\n     * @dev Grant governor role to an address\n     */\n    function grantGovernorRole(address account) external onlyManager() {\n        grantRole(Roles.GOVERNOR, account);\n    }\n\n    /**\n     * @dev Grant upgrader role to an address\n     */\n    function grantUpgraderRole(address account) external onlyManager() {\n        grantRole(Roles.UPGRADER, account);\n    }\n\n    /**\n     * @dev Grant verifier role to an address\n     */\n    function grantVerifierRole(address account) external onlyManager() {\n        grantRole(Roles.VERIFIER, account);\n    }\n\n    // --- Protocol Control ---\n\n    function pause() external onlyRole(getRoleHash(Roles.ADMIN)) {\n        _pause();\n    }\n\n    function unpause() external onlyRole(getRoleHash(Roles.ADMIN)) {\n        _unpause();\n    }\n\n    // --- Check Functions ---\n\n    /**\n     * @dev Check if account has doctor role\n     * @param account Address to check\n     * @return True if account has doctor role\n     */\n    function isDoctor(address account) external view returns (bool) {\n        return hasRole(Roles.DOCTOR, account);\n    }\n\n    /**\n     * @dev Check if account has patient role\n     * @param account Address to check\n     * @return True if account has patient role\n     */\n    function isPatient(address account) external view returns (bool) {\n        return hasRole(Roles.PATIENT, account);\n    }\n\n    /**\n     * @dev Check if account has hospital role\n     * @param account Address to check\n     * @return True if account has hospital role\n     */\n    function isHospital(address account) external view returns (bool) {\n        return hasRole(Roles.HOSPITAL, account);\n    }\n\n    /**\n     * @dev Check if account has insurance provider role\n     * @param account Address to check\n     * @return True if account has insurance provider role\n     */\n    function isInsuranceProvider(address account) external view returns (bool) {\n        return hasRole(Roles.INSURANCE_PROVIDER, account);\n    }\n\n    /**\n     * @dev Check if account has company role\n     * @param account Address to check\n     * @return True if account has company role\n     */\n    function isCompany(address account) external view returns (bool) {\n        return hasRole(Roles.MARKETPLACE_COMPANY, account);\n    }\n}",
  "sourcePath": "/home/ayush/Desktop/code/Sanjeevni/contracts/contracts/MediSecureAccessControl.sol",
  "compiler": {
    "name": "solc",
    "version": "0.8.20+commit.a1b79de6.Emscripten.clang"
  },
  "schemaVersion": "3.4.16",
  "updatedAt": "2026-04-13T21:23:03.454Z",
  "networkType": "ethereum",
  "devdoc": {
    "details": "Centralized access control contract with role-based permissions",
    "errors": {
      "AccessControlBadConfirmation()": [
        {
          "details": "The caller of a function is not the expected one. NOTE: Don't confuse with {AccessControlUnauthorizedAccount}."
        }
      ],
      "AccessControlUnauthorizedAccount(address,bytes32)": [
        {
          "details": "The `account` is missing a role."
        }
      ],
      "EnforcedPause()": [
        {
          "details": "The operation failed because the contract is paused."
        }
      ],
      "ExpectedPause()": [
        {
          "details": "The operation failed because the contract is not paused."
        }
      ]
    },
    "events": {
      "Paused(address)": {
        "details": "Emitted when the pause is triggered by `account`."
      },
      "RoleAdminChanged(bytes32,bytes32,bytes32)": {
        "details": "Emitted when `newAdminRole` is set as ``role``'s admin role, replacing `previousAdminRole` `DEFAULT_ADMIN_ROLE` is the starting admin for all roles, despite {RoleAdminChanged} not being emitted signaling this."
      },
      "RoleGranted(bytes32,address,address)": {
        "details": "Emitted when `account` is granted `role`. `sender` is the account that originated the contract call, an admin role bearer except when using {AccessControl-_setupRole}."
      },
      "RoleRevoked(bytes32,address,address)": {
        "details": "Emitted when `account` is revoked `role`. `sender` is the account that originated the contract call:   - if using `revokeRole`, it is the admin role bearer   - if using `renounceRole`, it is the role bearer (i.e. `account`)"
      },
      "Unpaused(address)": {
        "details": "Emitted when the pause is lifted by `account`."
      }
    },
    "kind": "dev",
    "methods": {
      "getRoleAdmin(bytes32)": {
        "details": "Returns the admin role that controls `role`. See {grantRole} and {revokeRole}. To change a role's admin, use {_setRoleAdmin}."
      },
      "getRoleHash(uint8)": {
        "details": "Maps Roles enum to AccessControl bytes32 hashes"
      },
      "grantAdminRole(address)": {
        "details": "Grant admin role to an address",
        "params": {
          "account": "Address to grant role to"
        }
      },
      "grantCompanyRole(address)": {
        "details": "Grant marketplace company role to an address",
        "params": {
          "account": "Address to grant role to"
        }
      },
      "grantDoctorRole(address)": {
        "details": "Grant doctor role to an address",
        "params": {
          "account": "Address to grant role to"
        }
      },
      "grantGovernorRole(address)": {
        "details": "Grant governor role to an address"
      },
      "grantHospitalRole(address)": {
        "details": "Grant hospital role to an address",
        "params": {
          "account": "Address to grant role to"
        }
      },
      "grantInsuranceRole(address)": {
        "details": "Grant insurance provider role to an address",
        "params": {
          "account": "Address to grant role to"
        }
      },
      "grantPatientRole(address)": {
        "details": "Grant patient role to an address",
        "params": {
          "account": "Address to grant role to"
        }
      },
      "grantRole(bytes32,address)": {
        "details": "Grants `role` to `account`. If `account` had not been already granted `role`, emits a {RoleGranted} event. Requirements: - the caller must have ``role``'s admin role. May emit a {RoleGranted} event."
      },
      "grantUpgraderRole(address)": {
        "details": "Grant upgrader role to an address"
      },
      "grantVerifierRole(address)": {
        "details": "Grant verifier role to an address"
      },
      "hasRole(bytes32,address)": {
        "details": "Returns `true` if `account` has been granted `role`."
      },
      "isCompany(address)": {
        "details": "Check if account has company role",
        "params": {
          "account": "Address to check"
        },
        "returns": {
          "_0": "True if account has company role"
        }
      },
      "isDoctor(address)": {
        "details": "Check if account has doctor role",
        "params": {
          "account": "Address to check"
        },
        "returns": {
          "_0": "True if account has doctor role"
        }
      },
      "isHospital(address)": {
        "details": "Check if account has hospital role",
        "params": {
          "account": "Address to check"
        },
        "returns": {
          "_0": "True if account has hospital role"
        }
      },
      "isInsuranceProvider(address)": {
        "details": "Check if account has insurance provider role",
        "params": {
          "account": "Address to check"
        },
        "returns": {
          "_0": "True if account has insurance provider role"
        }
      },
      "isPatient(address)": {
        "details": "Check if account has patient role",
        "params": {
          "account": "Address to check"
        },
        "returns": {
          "_0": "True if account has patient role"
        }
      },
      "paused()": {
        "details": "Returns true if the contract is paused, and false otherwise."
      },
      "renounceRole(bytes32,address)": {
        "details": "Revokes `role` from the calling account. Roles are often managed via {grantRole} and {revokeRole}: this function's purpose is to provide a mechanism for accounts to lose their privileges if they are compromised (such as when a trusted device is misplaced). If the calling account had been revoked `role`, emits a {RoleRevoked} event. Requirements: - the caller must be `callerConfirmation`. May emit a {RoleRevoked} event."
      },
      "revokeRole(bytes32,address)": {
        "details": "Revokes `role` from `account`. If `account` had been granted `role`, emits a {RoleRevoked} event. Requirements: - the caller must have ``role``'s admin role. May emit a {RoleRevoked} event."
      },
      "supportsInterface(bytes4)": {
        "details": "See {IERC165-supportsInterface}."
      }
    },
    "title": "MediSecureAccessControl",
    "version": 1
  },
  "userdoc": {
    "kind": "user",
    "methods": {},
    "version": 1
  },
  "timeoutBlocks": 500,
  "numberFormat": "BN"
}