{
  "contractName": "MultiSigWallet",
  "abi": [
    {
      "inputs": [
        {
          "internalType": "address[]",
          "name": "_owners",
          "type": "address[]"
        },
        {
          "internalType": "uint256",
          "name": "_threshold",
          "type": "uint256"
        }
      ],
      "stateMutability": "nonpayable",
      "type": "constructor",
      "signature": "constructor"
    },
    {
      "inputs": [],
      "name": "ReentrancyGuardReentrantCall",
      "type": "error"
    },
    {
      "anonymous": false,
      "inputs": [
        {
          "indexed": true,
          "internalType": "address",
          "name": "owner",
          "type": "address"
        }
      ],
      "name": "OwnerAdded",
      "type": "event",
      "signature": "0x994a936646fe87ffe4f1e469d3d6aa417d6b855598397f323de5b449f765f0c3"
    },
    {
      "anonymous": false,
      "inputs": [
        {
          "indexed": true,
          "internalType": "address",
          "name": "owner",
          "type": "address"
        }
      ],
      "name": "OwnerRemoved",
      "type": "event",
      "signature": "0x58619076adf5bb0943d100ef88d52d7c3fd691b19d3a9071b555b651fbf418da"
    },
    {
      "anonymous": false,
      "inputs": [
        {
          "indexed": false,
          "internalType": "uint256",
          "name": "threshold",
          "type": "uint256"
        }
      ],
      "name": "ThresholdChanged",
      "type": "event",
      "signature": "0x6c4ce60fd690e1216286a10b875c5662555f10774484e58142cedd7a90781baa"
    },
    {
      "anonymous": false,
      "inputs": [
        {
          "indexed": true,
          "internalType": "bytes32",
          "name": "txHash",
          "type": "bytes32"
        },
        {
          "indexed": true,
          "internalType": "address",
          "name": "owner",
          "type": "address"
        }
      ],
      "name": "TransactionConfirmed",
      "type": "event",
      "signature": "0xb612a8591c6aca7a0da017077f974599101a7f1820c9d5a4fe32ac8502c502e2"
    },
    {
      "anonymous": false,
      "inputs": [
        {
          "indexed": true,
          "internalType": "bytes32",
          "name": "txHash",
          "type": "bytes32"
        }
      ],
      "name": "TransactionExecuted",
      "type": "event",
      "signature": "0x862d83c6c5af275e697bfd4e27c8323c196b44bdd011dd9aaab6db0ec9943dce"
    },
    {
      "anonymous": false,
      "inputs": [
        {
          "indexed": true,
          "internalType": "bytes32",
          "name": "txHash",
          "type": "bytes32"
        },
        {
          "indexed": true,
          "internalType": "address",
          "name": "to",
          "type": "address"
        },
        {
          "indexed": false,
          "internalType": "uint256",
          "name": "value",
          "type": "uint256"
        }
      ],
      "name": "TransactionSubmitted",
      "type": "event",
      "signature": "0x98fa2d2a4a79f4305f6568b9183a2ee34b0cbc50afc2fce4428a7e949c836fb1"
    },
    {
      "inputs": [],
      "name": "chainId",
      "outputs": [
        {
          "internalType": "uint256",
          "name": "",
          "type": "uint256"
        }
      ],
      "stateMutability": "view",
      "type": "function",
      "constant": true,
      "signature": "0x9a8a0592"
    },
    {
      "inputs": [
        {
          "internalType": "bytes32",
          "name": "",
          "type": "bytes32"
        }
      ],
      "name": "confirmationCount",
      "outputs": [
        {
          "internalType": "uint256",
          "name": "",
          "type": "uint256"
        }
      ],
      "stateMutability": "view",
      "type": "function",
      "constant": true,
      "signature": "0x59bf77df"
    },
    {
      "inputs": [
        {
          "internalType": "bytes32",
          "name": "",
          "type": "bytes32"
        },
        {
          "internalType": "address",
          "name": "",
          "type": "address"
        }
      ],
      "name": "confirmations",
      "outputs": [
        {
          "internalType": "bool",
          "name": "",
          "type": "bool"
        }
      ],
      "stateMutability": "view",
      "type": "function",
      "constant": true,
      "signature": "0x0c4ecab4"
    },
    {
      "inputs": [],
      "name": "domainSeparator",
      "outputs": [
        {
          "internalType": "bytes32",
          "name": "",
          "type": "bytes32"
        }
      ],
      "stateMutability": "view",
      "type": "function",
      "constant": true,
      "signature": "0xf698da25"
    },
    {
      "inputs": [
        {
          "internalType": "address",
          "name": "",
          "type": "address"
        }
      ],
      "name": "isOwner",
      "outputs": [
        {
          "internalType": "bool",
          "name": "",
          "type": "bool"
        }
      ],
      "stateMutability": "view",
      "type": "function",
      "constant": true,
      "signature": "0x2f54bf6e"
    },
    {
      "inputs": [],
      "name": "nonce",
      "outputs": [
        {
          "internalType": "uint256",
          "name": "",
          "type": "uint256"
        }
      ],
      "stateMutability": "view",
      "type": "function",
      "constant": true,
      "signature": "0xaffed0e0"
    },
    {
      "inputs": [
        {
          "internalType": "address",
          "name": "",
          "type": "address"
        }
      ],
      "name": "ownerIndex",
      "outputs": [
        {
          "internalType": "uint256",
          "name": "",
          "type": "uint256"
        }
      ],
      "stateMutability": "view",
      "type": "function",
      "constant": true,
      "signature": "0x9f8a64e2"
    },
    {
      "inputs": [
        {
          "internalType": "uint256",
          "name": "",
          "type": "uint256"
        }
      ],
      "name": "owners",
      "outputs": [
        {
          "internalType": "address",
          "name": "",
          "type": "address"
        }
      ],
      "stateMutability": "view",
      "type": "function",
      "constant": true,
      "signature": "0x025e7c27"
    },
    {
      "inputs": [],
      "name": "threshold",
      "outputs": [
        {
          "internalType": "uint256",
          "name": "",
          "type": "uint256"
        }
      ],
      "stateMutability": "view",
      "type": "function",
      "constant": true,
      "signature": "0x42cde4e8"
    },
    {
      "inputs": [
        {
          "internalType": "bytes32",
          "name": "",
          "type": "bytes32"
        }
      ],
      "name": "transactions",
      "outputs": [
        {
          "internalType": "address",
          "name": "to",
          "type": "address"
        },
        {
          "internalType": "uint256",
          "name": "value",
          "type": "uint256"
        },
        {
          "internalType": "bytes",
          "name": "data",
          "type": "bytes"
        },
        {
          "internalType": "uint256",
          "name": "nonce",
          "type": "uint256"
        },
        {
          "internalType": "bool",
          "name": "executed",
          "type": "bool"
        }
      ],
      "stateMutability": "view",
      "type": "function",
      "constant": true,
      "signature": "0x642f2eaf"
    },
    {
      "stateMutability": "payable",
      "type": "receive",
      "payable": true
    },
    {
      "inputs": [
        {
          "internalType": "address",
          "name": "_to",
          "type": "address"
        },
        {
          "internalType": "uint256",
          "name": "_value",
          "type": "uint256"
        },
        {
          "internalType": "bytes",
          "name": "_data",
          "type": "bytes"
        }
      ],
      "name": "submitTransaction",
      "outputs": [
        {
          "internalType": "bytes32",
          "name": "txHash",
          "type": "bytes32"
        }
      ],
      "stateMutability": "nonpayable",
      "type": "function",
      "signature": "0xc6427474"
    },
    {
      "inputs": [
        {
          "internalType": "bytes32",
          "name": "_txHash",
          "type": "bytes32"
        }
      ],
      "name": "confirmTransaction",
      "outputs": [],
      "stateMutability": "nonpayable",
      "type": "function",
      "signature": "0x79716e43"
    },
    {
      "inputs": [
        {
          "internalType": "bytes32",
          "name": "_txHash",
          "type": "bytes32"
        }
      ],
      "name": "executeTransaction",
      "outputs": [],
      "stateMutability": "nonpayable",
      "type": "function",
      "signature": "0xc69ed5f2"
    },
    {
      "inputs": [
        {
          "internalType": "bytes32",
          "name": "_txHash",
          "type": "bytes32"
        }
      ],
      "name": "getTransaction",
      "outputs": [
        {
          "internalType": "address",
          "name": "to",
          "type": "address"
        },
        {
          "internalType": "uint256",
          "name": "value",
          "type": "uint256"
        },
        {
          "internalType": "bytes",
          "name": "data",
          "type": "bytes"
        },
        {
          "internalType": "uint256",
          "name": "nonce_",
          "type": "uint256"
        },
        {
          "internalType": "bool",
          "name": "executed",
          "type": "bool"
        },
        {
          "internalType": "uint256",
          "name": "confirmations_",
          "type": "uint256"
        }
      ],
      "stateMutability": "view",
      "type": "function",
      "constant": true,
      "signature": "0x4aae13ca"
    },
    {
      "inputs": [
        {
          "internalType": "bytes32",
          "name": "_txHash",
          "type": "bytes32"
        },
        {
          "internalType": "address",
          "name": "_owner",
          "type": "address"
        }
      ],
      "name": "hasConfirmed",
      "outputs": [
        {
          "internalType": "bool",
          "name": "",
          "type": "bool"
        }
      ],
      "stateMutability": "view",
      "type": "function",
      "constant": true,
      "signature": "0xc2cf7326"
    },
    {
      "inputs": [],
      "name": "getOwners",
      "outputs": [
        {
          "internalType": "address[]",
          "name": "",
          "type": "address[]"
        }
      ],
      "stateMutability": "view",
      "type": "function",
      "constant": true,
      "signature": "0xa0e67e2b"
    },
    {
      "inputs": [],
      "name": "getTransactionCount",
      "outputs": [
        {
          "internalType": "uint256",
          "name": "",
          "type": "uint256"
        }
      ],
      "stateMutability": "view",
      "type": "function",
      "constant": true,
      "signature": "0x2e7700f0"
    }
  ],
  "bytecode": "0x608060405234801562000010575f80fd5b506040516200167b3803806200167b83398101604081905262000033916200042f565b60015f558151811115620000835760405162461bcd60e51b81526020600482015260126024820152715468726573686f6c64203e206f776e65727360701b60448201526064015b60405180910390fd5b6001811015620000c65760405162461bcd60e51b815260206004820152600d60248201526c5468726573686f6c64203c203160981b60448201526064016200007a565b466006819055604080517f8b73c3c69bb8fe3d512ecc4cf759cc79239f7b179b0ffacaa9a75d522b39400f60208201527fd224391e05bea8df3d0cd26822c30d350d1e6173f271e8862b4f063b01773bec918101919091527fe6bbd6277e1bf288eed5e8d1780f9a50b239e86b153736bceebccf4ea79d90b3606082015260808101919091523060a082015260c00160408051601f1981840301815291905280516020909101206007555f5b8251811015620003be575f6001600160a01b03168382815181106200019b576200019b62000504565b60200260200101516001600160a01b031603620001ea5760405162461bcd60e51b815260206004820152600c60248201526b5a65726f206164647265737360a01b60448201526064016200007a565b60025f84838151811062000202576200020262000504565b6020908102919091018101516001600160a01b031682528101919091526040015f205460ff1615620002695760405162461bcd60e51b815260206004820152600f60248201526e223ab83634b1b0ba329037bbb732b960891b60448201526064016200007a565b600160025f85848151811062000283576200028362000504565b60200260200101516001600160a01b03166001600160a01b031681526020019081526020015f205f6101000a81548160ff0219169083151502179055508060035f858481518110620002d957620002d962000504565b60200260200101516001600160a01b03166001600160a01b031681526020019081526020015f208190555060018382815181106200031b576200031b62000504565b60209081029190910181015182546001810184555f938452919092200180546001600160a01b0319166001600160a01b0390921691909117905582518390829081106200036c576200036c62000504565b60200260200101516001600160a01b03167f994a936646fe87ffe4f1e469d3d6aa417d6b855598397f323de5b449f765f0c360405160405180910390a280620003b58162000518565b91505062000172565b5060048190556040518181527f6c4ce60fd690e1216286a10b875c5662555f10774484e58142cedd7a90781baa9060200160405180910390a150506200053d565b634e487b7160e01b5f52604160045260245ffd5b80516001600160a01b03811681146200042a575f80fd5b919050565b5f806040838503121562000441575f80fd5b82516001600160401b038082111562000458575f80fd5b818501915085601f8301126200046c575f80fd5b8151602082821115620004835762000483620003ff565b8160051b604051601f19603f83011681018181108682111715620004ab57620004ab620003ff565b604052928352818301935084810182019289841115620004c9575f80fd5b948201945b83861015620004f257620004e28662000413565b85529482019493820193620004ce565b97909101519698969750505050505050565b634e487b7160e01b5f52603260045260245ffd5b5f600182016200053657634e487b7160e01b5f52601160045260245ffd5b5060010190565b611130806200054b5f395ff3fe6080604052600436106100fd575f3560e01c806379716e4311610092578063affed0e011610062578063affed0e014610333578063c2cf732614610348578063c64274741461038c578063c69ed5f2146103ab578063f698da25146103ca575f80fd5b806379716e43146102b15780639a8a0592146102d25780639f8a64e2146102e7578063a0e67e2b14610312575f80fd5b806342cde4e8116100cd57806342cde4e8146102105780634aae13ca1461022557806359bf77df14610256578063642f2eaf14610281575f80fd5b8063025e7c271461013f5780630c4ecab41461017b5780632e7700f0146101c45780632f54bf6e146101e2575f80fd5b3661013b5760405134815233905f907f98fa2d2a4a79f4305f6568b9183a2ee34b0cbc50afc2fce4428a7e949c836fb19060200160405180910390a3005b5f80fd5b34801561014a575f80fd5b5061015e610159366004610c7f565b6103df565b6040516001600160a01b0390911681526020015b60405180910390f35b348015610186575f80fd5b506101b4610195366004610cb1565b600960209081525f928352604080842090915290825290205460ff1681565b6040519015158152602001610172565b3480156101cf575f80fd5b506005545b604051908152602001610172565b3480156101ed575f80fd5b506101b46101fc366004610cdb565b60026020525f908152604090205460ff1681565b34801561021b575f80fd5b506101d460045481565b348015610230575f80fd5b5061024461023f366004610c7f565b610407565b60405161017296959493929190610d3e565b348015610261575f80fd5b506101d4610270366004610c7f565b600a6020525f908152604090205481565b34801561028c575f80fd5b506102a061029b366004610c7f565b6104f7565b604051610172959493929190610d82565b3480156102bc575f80fd5b506102d06102cb366004610c7f565b6105b9565b005b3480156102dd575f80fd5b506101d460065481565b3480156102f2575f80fd5b506101d4610301366004610cdb565b60036020525f908152604090205481565b34801561031d575f80fd5b50610326610785565b6040516101729190610dc1565b34801561033e575f80fd5b506101d460055481565b348015610353575f80fd5b506101b4610362366004610cb1565b5f9182526009602090815260408084206001600160a01b0393909316845291905290205460ff1690565b348015610397575f80fd5b506101d46103a6366004610e0d565b6107e5565b3480156103b6575f80fd5b506102d06103c5366004610c7f565b610a0f565b3480156103d5575f80fd5b506101d460075481565b600181815481106103ee575f80fd5b5f918252602090912001546001600160a01b0316905081565b5f8181526008602090815260408083208054600182015460038301546004840154600a90965293862054600284018054889760609789978897889791966001600160a01b03909116959194919360ff1691849061046390610e8d565b80601f016020809104026020016040519081016040528092919081815260200182805461048f90610e8d565b80156104da5780601f106104b1576101008083540402835291602001916104da565b820191905f5260205f20905b8154815290600101906020018083116104bd57829003601f168201915b505050505093509650965096509650965096505091939550919395565b60086020525f90815260409020805460018201546002830180546001600160a01b0390931693919261052890610e8d565b80601f016020809104026020016040519081016040528092919081815260200182805461055490610e8d565b801561059f5780601f106105765761010080835404028352916020019161059f565b820191905f5260205f20905b81548152906001019060200180831161058257829003601f168201915b50505050600383015460049093015491929160ff16905085565b335f9081526002602052604090205460ff166105f05760405162461bcd60e51b81526004016105e790610ec5565b60405180910390fd5b5f8181526008602052604090205481906001600160a01b03166106445760405162461bcd60e51b815260206004820152600c60248201526b151e081b9bdd08199bdd5b9960a21b60448201526064016105e7565b5f82815260086020526040902060040154829060ff161561069a5760405162461bcd60e51b815260206004820152601060248201526f105b1c9958591e48195e1958dd5d195960821b60448201526064016105e7565b5f83815260096020908152604080832033845290915290205460ff16156106f75760405162461bcd60e51b8152602060048201526011602482015270105b1c9958591e4818dbdb999a5c9b5959607a1b60448201526064016105e7565b5f8381526009602090815260408083203384528252808320805460ff19166001179055858352600a909152812080549161073083610ee8565b9091555050604051339084907fb612a8591c6aca7a0da017077f974599101a7f1820c9d5a4fe32ac8502c502e2905f90a36004545f848152600a6020526040902054106107805761078083610b60565b505050565b606060018054806020026020016040519081016040528092919081815260200182805480156107db57602002820191905f5260205f20905b81546001600160a01b031681526001909101906020018083116107bd575b5050505050905090565b335f9081526002602052604081205460ff166108135760405162461bcd60e51b81526004016105e790610ec5565b6001600160a01b0385166108535760405162461bcd60e51b81526020600482015260076024820152665a65726f20746f60c81b60448201526064016105e7565b84848484600554600654306040516020016108749796959493929190610f0c565b6040516020818303038152906040528051906020012090506040518060a00160405280866001600160a01b0316815260200185815260200184848080601f0160208091040260200160405190810160405280939291908181526020018383808284375f920182905250938552505060055460208085019190915260409384018390528583526008815291839020845181546001600160a01b0319166001600160a01b039091161781559184015160018301555090820151600282019061093a9082610fcc565b50606082015160038201556080909101516004909101805491151560ff199283161790555f828152600960209081526040808320338452825280832080549094166001908117909455848352600a909152812091909155600580549161099f83610ee8565b9190505550846001600160a01b0316817f98fa2d2a4a79f4305f6568b9183a2ee34b0cbc50afc2fce4428a7e949c836fb1866040516109e091815260200190565b60405180910390a36004545f828152600a602052604090205410610a0757610a0781610b60565b949350505050565b335f9081526002602052604090205460ff16610a3d5760405162461bcd60e51b81526004016105e790610ec5565b5f8181526008602052604090205481906001600160a01b0316610a915760405162461bcd60e51b815260206004820152600c60248201526b151e081b9bdd08199bdd5b9960a21b60448201526064016105e7565b5f82815260086020526040902060040154829060ff1615610ae75760405162461bcd60e51b815260206004820152601060248201526f105b1c9958591e48195e1958dd5d195960821b60448201526064016105e7565b610aef610c57565b6004545f848152600a60205260409020541015610b4e5760405162461bcd60e51b815260206004820152601860248201527f4e6f7420656e6f75676820636f6e6669726d6174696f6e73000000000000000060448201526064016105e7565b610b5783610b60565b61078060015f55565b5f8181526008602052604080822060048101805460ff1916600190811790915581549082015492519193926001600160a01b0390911691610ba5906002860190611088565b5f6040518083038185875af1925050503d805f8114610bdf576040519150601f19603f3d011682016040523d82523d5f602084013e610be4565b606091505b5050905080610c285760405162461bcd60e51b815260206004820152601060248201526f115e1958dd5d1a5bdb8819985a5b195960821b60448201526064016105e7565b60405183907f862d83c6c5af275e697bfd4e27c8323c196b44bdd011dd9aaab6db0ec9943dce905f90a2505050565b60025f5403610c7957604051633ee5aeb560e01b815260040160405180910390fd5b60025f55565b5f60208284031215610c8f575f80fd5b5035919050565b80356001600160a01b0381168114610cac575f80fd5b919050565b5f8060408385031215610cc2575f80fd5b82359150610cd260208401610c96565b90509250929050565b5f60208284031215610ceb575f80fd5b610cf482610c96565b9392505050565b5f81518084525f5b81811015610d1f57602081850181015186830182015201610d03565b505f602082860101526020601f19601f83011685010191505092915050565b60018060a01b038716815285602082015260c060408201525f610d6460c0830187610cfb565b606083019590955250911515608083015260a0909101529392505050565b60018060a01b038616815284602082015260a060408201525f610da860a0830186610cfb565b6060830194909452509015156080909101529392505050565b602080825282518282018190525f9190848201906040850190845b81811015610e015783516001600160a01b031683529284019291840191600101610ddc565b50909695505050505050565b5f805f8060608587031215610e20575f80fd5b610e2985610c96565b935060208501359250604085013567ffffffffffffffff80821115610e4c575f80fd5b818701915087601f830112610e5f575f80fd5b813581811115610e6d575f80fd5b886020828501011115610e7e575f80fd5b95989497505060200194505050565b600181811c90821680610ea157607f821691505b602082108103610ebf57634e487b7160e01b5f52602260045260245ffd5b50919050565b6020808252600990820152682737ba1037bbb732b960b91b604082015260600190565b5f60018201610f0557634e487b7160e01b5f52601160045260245ffd5b5060010190565b5f60018060a01b03808a16835288602084015260c060408401528660c0840152868860e08501375f60e0888501015260e0601f19601f890116840101915085606084015284608084015280841660a08401525098975050505050505050565b634e487b7160e01b5f52604160045260245ffd5b601f821115610780575f81815260208120601f850160051c81016020861015610fa55750805b601f850160051c820191505b81811015610fc457828155600101610fb1565b505050505050565b815167ffffffffffffffff811115610fe657610fe6610f6b565b610ffa81610ff48454610e8d565b84610f7f565b602080601f83116001811461102d575f84156110165750858301515b5f19600386901b1c1916600185901b178555610fc4565b5f85815260208120601f198616915b8281101561105b5788860151825594840194600190910190840161103c565b508582101561107857878501515f19600388901b60f8161c191681555b5050505050600190811b01905550565b5f80835461109581610e8d565b600182811680156110ad57600181146110c2576110ee565b60ff19841687528215158302870194506110ee565b875f526020805f205f5b858110156110e55781548a8201529084019082016110cc565b50505082870194505b5092969550505050505056fea2646970667358221220d46e1d9fcb723c638cc0369112a180457c01b755b610d99f251f0e640578942564736f6c63430008140033",
  "immutableReferences": {},
  "source": "// SPDX-License-Identifier: MIT\npragma solidity ^0.8.20;\n\nimport \"@openzeppelin/contracts/utils/ReentrancyGuard.sol\";\n\ncontract MultiSigWallet is ReentrancyGuard {\n    address[] public owners;\n    mapping(address => bool) public isOwner;\n    mapping(address => uint256) public ownerIndex;\n    \n    uint256 public threshold;\n    uint256 public nonce;\n    uint256 public chainId;\n    bytes32 public domainSeparator;\n\n    mapping(bytes32 => Transaction) public transactions;\n    mapping(bytes32 => mapping(address => bool)) public confirmations;\n    mapping(bytes32 => uint256) public confirmationCount;\n\n    struct Transaction {\n        address to;\n        uint256 value;\n        bytes data;\n        uint256 nonce;\n        bool executed;\n    }\n\n    event OwnerAdded(address indexed owner);\n    event OwnerRemoved(address indexed owner);\n    event TransactionSubmitted(bytes32 indexed txHash, address indexed to, uint256 value);\n    event TransactionConfirmed(bytes32 indexed txHash, address indexed owner);\n    event TransactionExecuted(bytes32 indexed txHash);\n    event ThresholdChanged(uint256 threshold);\n\n    modifier onlyOwner() {\n        require(isOwner[msg.sender], \"Not owner\");\n        _;\n    }\n\n    modifier txExists(bytes32 _txHash) {\n        require(transactions[_txHash].to != address(0), \"Tx not found\");\n        _;\n    }\n\n    modifier notExecuted(bytes32 _txHash) {\n        require(!transactions[_txHash].executed, \"Already executed\");\n        _;\n    }\n\n    constructor(address[] memory _owners, uint256 _threshold) {\n        require(_owners.length >= _threshold, \"Threshold > owners\");\n        require(_threshold >= 1, \"Threshold < 1\");\n        \n        chainId = block.chainid;\n        domainSeparator = keccak256(abi.encode(\n            keccak256(\"EIP712Domain(string name,string version,uint256 chainId,address verifyingContract)\"),\n            keccak256(\"MultiSigWallet\"),\n            keccak256(\"1.0\"),\n            chainId,\n            address(this)\n        ));\n\n        for (uint256 i = 0; i < _owners.length; i++) {\n            require(_owners[i] != address(0), \"Zero address\");\n            require(!isOwner[_owners[i]], \"Duplicate owner\");\n            \n            isOwner[_owners[i]] = true;\n            ownerIndex[_owners[i]] = i;\n            owners.push(_owners[i]);\n            emit OwnerAdded(_owners[i]);\n        }\n        \n        threshold = _threshold;\n        emit ThresholdChanged(_threshold);\n    }\n\n    function submitTransaction(address _to, uint256 _value, bytes calldata _data) external onlyOwner returns (bytes32 txHash) {\n        require(_to != address(0), \"Zero to\");\n        \n        txHash = keccak256(abi.encode(\n            _to,\n            _value,\n            _data,\n            nonce,\n            chainId,\n            address(this)\n        ));\n        \n        transactions[txHash] = Transaction({\n            to: _to,\n            value: _value,\n            data: _data,\n            nonce: nonce,\n            executed: false\n        });\n        \n        confirmations[txHash][msg.sender] = true;\n        confirmationCount[txHash] = 1;\n        \n        nonce++;\n        \n        emit TransactionSubmitted(txHash, _to, _value);\n        \n        if (confirmationCount[txHash] >= threshold) {\n            _executeTransaction(txHash);\n        }\n    }\n\n    function confirmTransaction(bytes32 _txHash) external onlyOwner txExists(_txHash) notExecuted(_txHash) {\n        require(!confirmations[_txHash][msg.sender], \"Already confirmed\");\n        \n        confirmations[_txHash][msg.sender] = true;\n        confirmationCount[_txHash]++;\n        \n        emit TransactionConfirmed(_txHash, msg.sender);\n        \n        if (confirmationCount[_txHash] >= threshold) {\n            _executeTransaction(_txHash);\n        }\n    }\n\n    function executeTransaction(bytes32 _txHash) external onlyOwner txExists(_txHash) notExecuted(_txHash) nonReentrant {\n        require(confirmationCount[_txHash] >= threshold, \"Not enough confirmations\");\n        _executeTransaction(_txHash);\n    }\n\n    function _executeTransaction(bytes32 txHash_) internal {\n        Transaction storage tx_ = transactions[txHash_];\n        tx_.executed = true;\n        \n        (bool success, ) = tx_.to.call{value: tx_.value}(tx_.data);\n        require(success, \"Execution failed\");\n        \n        emit TransactionExecuted(txHash_);\n    }\n\n    function getTransaction(bytes32 _txHash) external view returns (\n        address to,\n        uint256 value,\n        bytes memory data,\n        uint256 nonce_,\n        bool executed,\n        uint256 confirmations_\n    ) {\n        Transaction storage tx_ = transactions[_txHash];\n        return (\n            tx_.to,\n            tx_.value,\n            tx_.data,\n            tx_.nonce,\n            tx_.executed,\n            confirmationCount[_txHash]\n        );\n    }\n\n    function hasConfirmed(bytes32 _txHash, address _owner) external view returns (bool) {\n        return confirmations[_txHash][_owner];\n    }\n\n    function getOwners() external view returns (address[] memory) {\n        return owners;\n    }\n\n    function getTransactionCount() external view returns (uint256) {\n        return nonce;\n    }\n\n    receive() external payable {\n        emit TransactionSubmitted(bytes32(0), msg.sender, msg.value);\n    }\n}",
  "sourcePath": "/home/ayush/Desktop/code/Sanjeevni/contracts/contracts/MultiSigWallet.sol",
  "compiler": {
    "name": "solc",
    "version": "0.8.20+commit.a1b79de6.Emscripten.clang"
  },
  "schemaVersion": "3.4.16",
  "updatedAt": "2026-04-13T21:23:03.484Z",
  "networkType": "ethereum",
  "devdoc": {
    "errors": {
      "ReentrancyGuardReentrantCall()": [
        {
          "details": "Unauthorized reentrant call."
        }
      ]
    },
    "kind": "dev",
    "methods": {},
    "version": 1
  },
  "userdoc": {
    "kind": "user",
    "methods": {},
    "version": 1
  },
  "timeoutBlocks": 500,
  "numberFormat": "BN"
}