{
  "contractName": "PatientDetails",
  "abi": [
    {
      "inputs": [
        {
          "internalType": "address",
          "name": "_forwarder",
          "type": "address"
        }
      ],
      "stateMutability": "nonpayable",
      "type": "constructor",
      "signature": "constructor"
    },
    {
      "inputs": [
        {
          "internalType": "address",
          "name": "target",
          "type": "address"
        }
      ],
      "name": "AddressEmptyCode",
      "type": "error"
    },
    {
      "inputs": [],
      "name": "AlertAlreadyResolved",
      "type": "error"
    },
    {
      "inputs": [
        {
          "internalType": "address",
          "name": "implementation",
          "type": "address"
        }
      ],
      "name": "ERC1967InvalidImplementation",
      "type": "error"
    },
    {
      "inputs": [],
      "name": "ERC1967NonPayable",
      "type": "error"
    },
    {
      "inputs": [],
      "name": "FailedInnerCall",
      "type": "error"
    },
    {
      "inputs": [],
      "name": "InvalidInitialization",
      "type": "error"
    },
    {
      "inputs": [],
      "name": "InvalidVitals",
      "type": "error"
    },
    {
      "inputs": [],
      "name": "NotInitializing",
      "type": "error"
    },
    {
      "inputs": [],
      "name": "UUPSUnauthorizedCallContext",
      "type": "error"
    },
    {
      "inputs": [
        {
          "internalType": "bytes32",
          "name": "slot",
          "type": "bytes32"
        }
      ],
      "name": "UUPSUnsupportedProxiableUUID",
      "type": "error"
    },
    {
      "anonymous": false,
      "inputs": [
        {
          "indexed": true,
          "internalType": "address",
          "name": "patient",
          "type": "address"
        },
        {
          "indexed": false,
          "internalType": "string",
          "name": "issue",
          "type": "string"
        },
        {
          "indexed": false,
          "internalType": "enum PatientDetails.Severity",
          "name": "severity",
          "type": "uint8"
        },
        {
          "indexed": false,
          "internalType": "uint256",
          "name": "timestamp",
          "type": "uint256"
        }
      ],
      "name": "ClinicalAlertTriggered",
      "type": "event",
      "signature": "0x4665d55b87c9c47ea0858e7b9e247108673040620bd3851bcc01ec42adbac927"
    },
    {
      "anonymous": false,
      "inputs": [
        {
          "indexed": false,
          "internalType": "uint64",
          "name": "version",
          "type": "uint64"
        }
      ],
      "name": "Initialized",
      "type": "event",
      "signature": "0xc7f505b2f371ae2175ee4913f4499e1f2633a7b5936321eed1cdaeb6115181d2"
    },
    {
      "anonymous": false,
      "inputs": [
        {
          "indexed": true,
          "internalType": "address",
          "name": "implementation",
          "type": "address"
        }
      ],
      "name": "Upgraded",
      "type": "event",
      "signature": "0xbc7cd75a20ee27fd9adebab32041f755214dbc6bffa90cc0225b39da2e5c2d3b"
    },
    {
      "anonymous": false,
      "inputs": [
        {
          "indexed": true,
          "internalType": "address",
          "name": "patient",
          "type": "address"
        },
        {
          "indexed": false,
          "internalType": "string",
          "name": "bloodPressure",
          "type": "string"
        },
        {
          "indexed": false,
          "internalType": "string",
          "name": "weight",
          "type": "string"
        },
        {
          "indexed": false,
          "internalType": "string",
          "name": "height",
          "type": "string"
        },
        {
          "indexed": false,
          "internalType": "string",
          "name": "heartRate",
          "type": "string"
        },
        {
          "indexed": false,
          "internalType": "string",
          "name": "temperature",
          "type": "string"
        },
        {
          "indexed": false,
          "internalType": "uint256",
          "name": "timestamp",
          "type": "uint256"
        }
      ],
      "name": "VitalsUpdated",
      "type": "event",
      "signature": "0x415fb855c6f1172bd0f889f7e618863b92a76f9ac29506db8bb099b625f5718d"
    },
    {
      "anonymous": false,
      "inputs": [
        {
          "indexed": true,
          "internalType": "address",
          "name": "patient",
          "type": "address"
        },
        {
          "indexed": true,
          "internalType": "address",
          "name": "provider",
          "type": "address"
        },
        {
          "indexed": false,
          "internalType": "string",
          "name": "bloodPressure",
          "type": "string"
        },
        {
          "indexed": false,
          "internalType": "string",
          "name": "heartRate",
          "type": "string"
        },
        {
          "indexed": false,
          "internalType": "string",
          "name": "temperature",
          "type": "string"
        },
        {
          "indexed": false,
          "internalType": "uint256",
          "name": "timestamp",
          "type": "uint256"
        }
      ],
      "name": "VitalsUpdatedByProvider",
      "type": "event",
      "signature": "0xc24ed1fa2f240a5e4093681941a2dcce4906a2005c415f665ce0df62ae38d521"
    },
    {
      "inputs": [],
      "name": "UPGRADE_INTERFACE_VERSION",
      "outputs": [
        {
          "internalType": "string",
          "name": "",
          "type": "string"
        }
      ],
      "stateMutability": "view",
      "type": "function",
      "constant": true,
      "signature": "0xad3cb1cc"
    },
    {
      "inputs": [],
      "name": "accessControl",
      "outputs": [
        {
          "internalType": "contract MediSecureAccessControl",
          "name": "",
          "type": "address"
        }
      ],
      "stateMutability": "view",
      "type": "function",
      "constant": true,
      "signature": "0x13007d55"
    },
    {
      "inputs": [
        {
          "internalType": "bytes32",
          "name": "role",
          "type": "bytes32"
        },
        {
          "internalType": "address",
          "name": "account",
          "type": "address"
        }
      ],
      "name": "hasRole",
      "outputs": [
        {
          "internalType": "bool",
          "name": "",
          "type": "bool"
        }
      ],
      "stateMutability": "view",
      "type": "function",
      "constant": true,
      "signature": "0x91d14854"
    },
    {
      "inputs": [
        {
          "internalType": "enum Roles",
          "name": "role",
          "type": "uint8"
        },
        {
          "internalType": "address",
          "name": "account",
          "type": "address"
        }
      ],
      "name": "hasRole",
      "outputs": [
        {
          "internalType": "bool",
          "name": "",
          "type": "bool"
        }
      ],
      "stateMutability": "view",
      "type": "function",
      "constant": true,
      "signature": "0x9e97b8f6"
    },
    {
      "inputs": [
        {
          "internalType": "address",
          "name": "account",
          "type": "address"
        }
      ],
      "name": "isAdmin",
      "outputs": [
        {
          "internalType": "bool",
          "name": "",
          "type": "bool"
        }
      ],
      "stateMutability": "view",
      "type": "function",
      "constant": true,
      "signature": "0x24d7806c"
    },
    {
      "inputs": [
        {
          "internalType": "address",
          "name": "forwarder",
          "type": "address"
        }
      ],
      "name": "isTrustedForwarder",
      "outputs": [
        {
          "internalType": "bool",
          "name": "",
          "type": "bool"
        }
      ],
      "stateMutability": "view",
      "type": "function",
      "constant": true,
      "signature": "0x572b6c05"
    },
    {
      "inputs": [],
      "name": "proxiableUUID",
      "outputs": [
        {
          "internalType": "bytes32",
          "name": "",
          "type": "bytes32"
        }
      ],
      "stateMutability": "view",
      "type": "function",
      "constant": true,
      "signature": "0x52d1902d"
    },
    {
      "inputs": [],
      "name": "trustedForwarder",
      "outputs": [
        {
          "internalType": "address",
          "name": "",
          "type": "address"
        }
      ],
      "stateMutability": "view",
      "type": "function",
      "constant": true,
      "signature": "0x7da0a877"
    },
    {
      "inputs": [
        {
          "internalType": "address",
          "name": "newImplementation",
          "type": "address"
        },
        {
          "internalType": "bytes",
          "name": "data",
          "type": "bytes"
        }
      ],
      "name": "upgradeToAndCall",
      "outputs": [],
      "stateMutability": "payable",
      "type": "function",
      "payable": true,
      "signature": "0x4f1ef286"
    },
    {
      "inputs": [
        {
          "internalType": "address",
          "name": "_accessControl",
          "type": "address"
        }
      ],
      "name": "initialize",
      "outputs": [],
      "stateMutability": "nonpayable",
      "type": "function",
      "signature": "0xc4d66de8"
    },
    {
      "inputs": [
        {
          "internalType": "string",
          "name": "bp",
          "type": "string"
        },
        {
          "internalType": "string",
          "name": "weight",
          "type": "string"
        },
        {
          "internalType": "string",
          "name": "height",
          "type": "string"
        },
        {
          "internalType": "string",
          "name": "heartRate",
          "type": "string"
        },
        {
          "internalType": "string",
          "name": "temp",
          "type": "string"
        }
      ],
      "name": "setVitals",
      "outputs": [],
      "stateMutability": "nonpayable",
      "type": "function",
      "signature": "0xba4ef842"
    },
    {
      "inputs": [
        {
          "internalType": "address",
          "name": "patient",
          "type": "address"
        },
        {
          "internalType": "string",
          "name": "bp",
          "type": "string"
        },
        {
          "internalType": "string",
          "name": "heartRate",
          "type": "string"
        },
        {
          "internalType": "string",
          "name": "temp",
          "type": "string"
        }
      ],
      "name": "setVitalsForPatient",
      "outputs": [],
      "stateMutability": "nonpayable",
      "type": "function",
      "signature": "0xf6e9cf3d"
    },
    {
      "inputs": [
        {
          "internalType": "address",
          "name": "patient",
          "type": "address"
        },
        {
          "internalType": "string",
          "name": "issue",
          "type": "string"
        },
        {
          "internalType": "enum PatientDetails.Severity",
          "name": "severity",
          "type": "uint8"
        }
      ],
      "name": "triggerClinicalAlert",
      "outputs": [],
      "stateMutability": "nonpayable",
      "type": "function",
      "signature": "0x10660b1e"
    },
    {
      "inputs": [
        {
          "internalType": "address",
          "name": "_patient",
          "type": "address"
        }
      ],
      "name": "getAlerts",
      "outputs": [
        {
          "components": [
            {
              "internalType": "string",
              "name": "issue",
              "type": "string"
            },
            {
              "internalType": "enum PatientDetails.Severity",
              "name": "severity",
              "type": "uint8"
            },
            {
              "internalType": "uint256",
              "name": "timestamp",
              "type": "uint256"
            },
            {
              "internalType": "bool",
              "name": "resolved",
              "type": "bool"
            }
          ],
          "internalType": "struct PatientDetails.EmergencyAlert[]",
          "name": "",
          "type": "tuple[]"
        }
      ],
      "stateMutability": "view",
      "type": "function",
      "constant": true,
      "signature": "0x19a3122d"
    },
    {
      "inputs": [
        {
          "internalType": "address",
          "name": "patient",
          "type": "address"
        }
      ],
      "name": "getVitals",
      "outputs": [
        {
          "components": [
            {
              "internalType": "string",
              "name": "bloodPressure",
              "type": "string"
            },
            {
              "internalType": "string",
              "name": "weight",
              "type": "string"
            },
            {
              "internalType": "string",
              "name": "height",
              "type": "string"
            },
            {
              "internalType": "string",
              "name": "heartRate",
              "type": "string"
            },
            {
              "internalType": "string",
              "name": "temperature",
              "type": "string"
            },
            {
              "internalType": "uint256",
              "name": "lastUpdated",
              "type": "uint256"
            }
          ],
          "internalType": "struct PatientDetails.Vitals",
          "name": "",
          "type": "tuple"
        }
      ],
      "stateMutability": "view",
      "type": "function",
      "constant": true,
      "signature": "0x6bedd7d1"
    }
  ],
  "bytecode": "0x60c060405230608052348015610013575f80fd5b5060405161203038038061203083398101604081905261003291610043565b6001600160a01b031660a052610070565b5f60208284031215610053575f80fd5b81516001600160a01b0381168114610069575f80fd5b9392505050565b60805160a051611f836100ad5f395f81816101f00152818161025a015261130d01525f8181610ff70152818161102001526112310152611f835ff3fe6080604052600436106100e4575f3560e01c80636bedd7d111610087578063ad3cb1cc11610057578063ad3cb1cc146102bc578063ba4ef842146102f9578063c4d66de814610318578063f6e9cf3d14610337575f80fd5b80636bedd7d1146102205780637da0a8771461024c57806391d148541461027e5780639e97b8f61461029d575f80fd5b806324d7806c116100c257806324d7806c146101705780634f1ef2861461019f57806352d1902d146101b2578063572b6c05146101d4575f80fd5b806310660b1e146100e857806313007d551461010957806319a3122d14610144575b5f80fd5b3480156100f3575f80fd5b506101076101023660046115e8565b610356565b005b348015610114575f80fd5b505f54610127906001600160a01b031681565b6040516001600160a01b0390911681526020015b60405180910390f35b34801561014f575f80fd5b5061016361015e36600461164d565b610543565b60405161013b91906116db565b34801561017b575f80fd5b5061018f61018a36600461164d565b610695565b604051901515815260200161013b565b6101076101ad366004611781565b61070c565b3480156101bd575f80fd5b506101c661072b565b60405190815260200161013b565b3480156101df575f80fd5b5061018f6101ee36600461164d565b7f00000000000000000000000000000000000000000000000000000000000000006001600160a01b0390811691161490565b34801561022b575f80fd5b5061023f61023a36600461164d565b610746565b60405161013b919061183d565b348015610257575f80fd5b507f0000000000000000000000000000000000000000000000000000000000000000610127565b348015610289575f80fd5b5061018f6102983660046118e5565b610a80565b3480156102a8575f80fd5b5061018f6102b736600461190f565b610afb565b3480156102c7575f80fd5b506102ec604051806040016040528060058152602001640352e302e360dc1b81525081565b60405161013b919061193c565b348015610304575f80fd5b5061010761031336600461194e565b610b2d565b348015610323575f80fd5b5061010761033236600461164d565b610d5c565b348015610342575f80fd5b50610107610351366004611a34565b610e72565b5f80546001600160a01b031690639e97b8f690610371610fde565b6040518363ffffffff1660e01b815260040161038e929190611ad7565b602060405180830381865afa1580156103a9573d5f803e3d5ffd5b505050506040513d601f19601f820116820180604052508101906103cd9190611b03565b6103f25760405162461bcd60e51b81526004016103e990611b22565b60405180910390fd5b60335f856001600160a01b03166001600160a01b031681526020019081526020015f20604051806080016040528085858080601f0160208091040260200160405190810160405280939291908181526020018383808284375f9201919091525050509082525060200183600381111561046d5761046d6116b3565b8152426020808301919091525f60409092018290528354600181018555938252902081519192600402019081906104a49082611be1565b50602082015160018083018054909160ff19909116908360038111156104cc576104cc6116b3565b021790555060408281015160028301556060909201516003909101805460ff1916911515919091179055516001600160a01b038516907f4665d55b87c9c47ea0858e7b9e247108673040620bd3851bcc01ec42adbac92790610535908690869086904290611cc5565b60405180910390a250505050565b6001600160a01b0381165f908152603360209081526040808320805482518185028101850190935280835260609492939192909184015b8282101561068a578382905f5260205f2090600402016040518060800160405290815f820180546105aa90611b64565b80601f01602080910402602001604051908101604052809291908181526020018280546105d690611b64565b80156106215780601f106105f857610100808354040283529160200191610621565b820191905f5260205f20905b81548152906001019060200180831161060457829003601f168201915b5050509183525050600182015460209091019060ff166003811115610648576106486116b3565b6003811115610659576106596116b3565b8152600282015460208083019190915260039092015460ff161515604090910152908252600192909201910161057a565b505050509050919050565b5f8054604051634f4bdc7b60e11b81526001600160a01b0390911690639e97b8f6906106c79084908690600401611ad7565b602060405180830381865afa1580156106e2573d5f803e3d5ffd5b505050506040513d601f19601f820116820180604052508101906107069190611b03565b92915050565b610714610fec565b61071d82611092565b6107278282611165565b5050565b5f610734611226565b505f80516020611f2e83398151915290565b61077e6040518060c0016040528060608152602001606081526020016060815260200160608152602001606081526020015f81525090565b6001600160a01b0382165f9081526032602052604090819020815160c081019092528054829082906107af90611b64565b80601f01602080910402602001604051908101604052809291908181526020018280546107db90611b64565b80156108265780601f106107fd57610100808354040283529160200191610826565b820191905f5260205f20905b81548152906001019060200180831161080957829003601f168201915b5050505050815260200160018201805461083f90611b64565b80601f016020809104026020016040519081016040528092919081815260200182805461086b90611b64565b80156108b65780601f1061088d576101008083540402835291602001916108b6565b820191905f5260205f20905b81548152906001019060200180831161089957829003601f168201915b505050505081526020016002820180546108cf90611b64565b80601f01602080910402602001604051908101604052809291908181526020018280546108fb90611b64565b80156109465780601f1061091d57610100808354040283529160200191610946565b820191905f5260205f20905b81548152906001019060200180831161092957829003601f168201915b5050505050815260200160038201805461095f90611b64565b80601f016020809104026020016040519081016040528092919081815260200182805461098b90611b64565b80156109d65780601f106109ad576101008083540402835291602001916109d6565b820191905f5260205f20905b8154815290600101906020018083116109b957829003601f168201915b505050505081526020016004820180546109ef90611b64565b80601f0160208091040260200160405190810160405280929190818152602001828054610a1b90611b64565b8015610a665780601f10610a3d57610100808354040283529160200191610a66565b820191905f5260205f20905b815481529060010190602001808311610a4957829003601f168201915b505050505081526020016005820154815250509050919050565b5f8054604051632474521560e21b8152600481018590526001600160a01b038481166024830152909116906391d14854906044015b602060405180830381865afa158015610ad0573d5f803e3d5ffd5b505050506040513d601f19601f82011682018060405250810190610af49190611b03565b9392505050565b5f8054604051634f4bdc7b60e11b81526001600160a01b0390911690639e97b8f690610ab59086908690600401611ad7565b6040518060c001604052808b8b8080601f0160208091040260200160405190810160405280939291908181526020018383808284375f92019190915250505090825250604080516020601f8c018190048102820181019092528a815291810191908b908b90819084018382808284375f92019190915250505090825250604080516020601f8a01819004810282018101909252888152918101919089908990819084018382808284375f92019190915250505090825250604080516020601f8801819004810282018101909252868152918101919087908790819084018382808284375f92019190915250505090825250604080516020601f8601819004810282018101909252848152918101919085908590819084018382808284375f92018290525093855250504260209093019290925260329150610c6c610fde565b6001600160a01b0316815260208101919091526040015f2081518190610c929082611be1565b5060208201516001820190610ca79082611be1565b5060408201516002820190610cbc9082611be1565b5060608201516003820190610cd19082611be1565b5060808201516004820190610ce69082611be1565b5060a08201518160050155905050610cfc610fde565b6001600160a01b03167f415fb855c6f1172bd0f889f7e618863b92a76f9ac29506db8bb099b625f5718d8b8b8b8b8b8b8b8b8b8b42604051610d489b9a99989796959493929190611cf6565b60405180910390a250505050505050505050565b7ff0c57e16840df040f15088dc2f81fe391c3923bec73e23a9662efc9c229c6a008054600160401b810460ff16159067ffffffffffffffff165f81158015610da15750825b90505f8267ffffffffffffffff166001148015610dbd5750303b155b905081158015610dcb575080155b15610de95760405163f92ee8a960e01b815260040160405180910390fd5b845467ffffffffffffffff191660011785558315610e1357845460ff60401b1916600160401b1785555b610e1c8661126f565b610e246112f6565b8315610e6a57845460ff60401b19168555604051600181527fc7f505b2f371ae2175ee4913f4499e1f2633a7b5936321eed1cdaeb6115181d29060200160405180910390a15b505050505050565b5f80546001600160a01b031690639e97b8f690610e8d610fde565b6040518363ffffffff1660e01b8152600401610eaa929190611ad7565b602060405180830381865afa158015610ec5573d5f803e3d5ffd5b505050506040513d601f19601f82011682018060405250810190610ee99190611b03565b610f055760405162461bcd60e51b81526004016103e990611b22565b6001600160a01b038716610f2c57604051638c4fe76560e01b815260040160405180910390fd5b6001600160a01b0387165f90815260326020526040902080610f4f878983611d74565b5060038101610f5f858783611d74565b5060048101610f6f838583611d74565b50426005820155610f7e610fde565b6001600160a01b0316886001600160a01b03167fc24ed1fa2f240a5e4093681941a2dcce4906a2005c415f665ce0df62ae38d52189898989898942604051610fcc9796959493929190611e30565b60405180910390a35050505050505050565b5f610fe76112fe565b905090565b306001600160a01b037f000000000000000000000000000000000000000000000000000000000000000016148061107257507f00000000000000000000000000000000000000000000000000000000000000006001600160a01b03166110665f80516020611f2e833981519152546001600160a01b031690565b6001600160a01b031614155b156110905760405163703e46dd60e11b815260040160405180910390fd5b565b5f546001600160a01b0316639e97b8f660076110ac610fde565b6040518363ffffffff1660e01b81526004016110c9929190611ad7565b602060405180830381865afa1580156110e4573d5f803e3d5ffd5b505050506040513d601f19601f820116820180604052508101906111089190611b03565b6111625760405162461bcd60e51b815260206004820152602560248201527f416363657373436f6e74726f6c3a20726573747269637465642d746f2d7570676044820152643930b232b960d91b60648201526084016103e9565b50565b816001600160a01b03166352d1902d6040518163ffffffff1660e01b8152600401602060405180830381865afa9250505080156111bf575060408051601f3d908101601f191682019092526111bc91810190611e80565b60015b6111e757604051634c9c8ce360e01b81526001600160a01b03831660048201526024016103e9565b5f80516020611f2e833981519152811461121757604051632a87526960e21b8152600481018290526024016103e9565b6112218383611371565b505050565b306001600160a01b037f000000000000000000000000000000000000000000000000000000000000000016146110905760405163703e46dd60e11b815260040160405180910390fd5b6112776113c6565b61127f6112f6565b6001600160a01b0381166112d55760405162461bcd60e51b815260206004820152601e60248201527f496e76616c69642061636365737320636f6e74726f6c2061646472657373000060448201526064016103e9565b5f80546001600160a01b0319166001600160a01b0392909216919091179055565b6110906113c6565b5f366014336001600160a01b037f00000000000000000000000000000000000000000000000000000000000000001614801561133a5750808210155b15611369575f3661134b8385611e97565b611356928290611eb6565b61135f91611edd565b60601c9250505090565b339250505090565b61137a8261140f565b6040516001600160a01b038316907fbc7cd75a20ee27fd9adebab32041f755214dbc6bffa90cc0225b39da2e5c2d3b905f90a28051156113be576112218282611472565b6107276114e4565b7ff0c57e16840df040f15088dc2f81fe391c3923bec73e23a9662efc9c229c6a0054600160401b900460ff1661109057604051631afcd79f60e31b815260040160405180910390fd5b806001600160a01b03163b5f0361144457604051634c9c8ce360e01b81526001600160a01b03821660048201526024016103e9565b5f80516020611f2e83398151915280546001600160a01b0319166001600160a01b0392909216919091179055565b60605f80846001600160a01b03168460405161148e9190611f12565b5f60405180830381855af49150503d805f81146114c6576040519150601f19603f3d011682016040523d82523d5f602084013e6114cb565b606091505b50915091506114db858383611503565b95945050505050565b34156110905760405163b398979f60e01b815260040160405180910390fd5b606082611518576115138261155f565b610af4565b815115801561152f57506001600160a01b0384163b155b1561155857604051639996b31560e01b81526001600160a01b03851660048201526024016103e9565b5092915050565b80511561156f5780518082602001fd5b604051630a12f52160e11b815260040160405180910390fd5b80356001600160a01b038116811461159e575f80fd5b919050565b5f8083601f8401126115b3575f80fd5b50813567ffffffffffffffff8111156115ca575f80fd5b6020830191508360208285010111156115e1575f80fd5b9250929050565b5f805f80606085870312156115fb575f80fd5b61160485611588565b9350602085013567ffffffffffffffff81111561161f575f80fd5b61162b878288016115a3565b909450925050604085013560048110611642575f80fd5b939692955090935050565b5f6020828403121561165d575f80fd5b610af482611588565b5f5b83811015611680578181015183820152602001611668565b50505f910152565b5f815180845261169f816020860160208601611666565b601f01601f19169290920160200192915050565b634e487b7160e01b5f52602160045260245ffd5b600481106116d7576116d76116b3565b9052565b5f6020808301818452808551808352604092508286019150828160051b8701018488015f5b8381101561175f57603f1989840301855281516080815181865261172682870182611688565b915050888201516117398a8701826116c7565b508188015185890152606091820151151591909401529386019390860190600101611700565b509098975050505050505050565b634e487b7160e01b5f52604160045260245ffd5b5f8060408385031215611792575f80fd5b61179b83611588565b9150602083013567ffffffffffffffff808211156117b7575f80fd5b818501915085601f8301126117ca575f80fd5b8135818111156117dc576117dc61176d565b604051601f8201601f19908116603f011681019083821181831017156118045761180461176d565b8160405282815288602084870101111561181c575f80fd5b826020860160208301375f6020848301015280955050505050509250929050565b602081525f825160c0602084015261185860e0840182611688565b90506020840151601f19808584030160408601526118768383611688565b925060408601519150808584030160608601526118938383611688565b925060608601519150808584030160808601526118b08383611688565b925060808601519150808584030160a0860152506118ce8282611688565b91505060a084015160c08401528091505092915050565b5f80604083850312156118f6575f80fd5b8235915061190660208401611588565b90509250929050565b5f8060408385031215611920575f80fd5b82356009811061192e575f80fd5b915061190660208401611588565b602081525f610af46020830184611688565b5f805f805f805f805f8060a08b8d031215611967575f80fd5b8a3567ffffffffffffffff8082111561197e575f80fd5b61198a8e838f016115a3565b909c509a5060208d01359150808211156119a2575f80fd5b6119ae8e838f016115a3565b909a50985060408d01359150808211156119c6575f80fd5b6119d28e838f016115a3565b909850965060608d01359150808211156119ea575f80fd5b6119f68e838f016115a3565b909650945060808d0135915080821115611a0e575f80fd5b50611a1b8d828e016115a3565b915080935050809150509295989b9194979a5092959850565b5f805f805f805f6080888a031215611a4a575f80fd5b611a5388611588565b9650602088013567ffffffffffffffff80821115611a6f575f80fd5b611a7b8b838c016115a3565b909850965060408a0135915080821115611a93575f80fd5b611a9f8b838c016115a3565b909650945060608a0135915080821115611ab7575f80fd5b50611ac48a828b016115a3565b989b979a50959850939692959293505050565b6040810160098410611aeb57611aeb6116b3565b9281526001600160a01b039190911660209091015290565b5f60208284031215611b13575f80fd5b81518015158114610af4575f80fd5b60208082526022908201527f416363657373436f6e74726f6c3a20726573747269637465642d746f2d61646d60408201526134b760f11b606082015260800190565b600181811c90821680611b7857607f821691505b602082108103611b9657634e487b7160e01b5f52602260045260245ffd5b50919050565b601f821115611221575f81815260208120601f850160051c81016020861015611bc25750805b601f850160051c820191505b81811015610e6a57828155600101611bce565b815167ffffffffffffffff811115611bfb57611bfb61176d565b611c0f81611c098454611b64565b84611b9c565b602080601f831160018114611c42575f8415611c2b5750858301515b5f19600386901b1c1916600185901b178555610e6a565b5f85815260208120601f198616915b82811015611c7057888601518255948401946001909101908401611c51565b5085821015611c8d57878501515f19600388901b60f8161c191681555b5050505050600190811b01905550565b81835281816020850137505f828201602090810191909152601f909101601f19169091010190565b606081525f611cd8606083018688611c9d565b9050611ce760208301856116c7565b82604083015295945050505050565b60c081525f611d0960c083018d8f611c9d565b8281036020840152611d1c818c8e611c9d565b90508281036040840152611d31818a8c611c9d565b90508281036060840152611d4681888a611c9d565b90508281036080840152611d5b818688611c9d565b9150508260a08301529c9b505050505050505050505050565b67ffffffffffffffff831115611d8c57611d8c61176d565b611da083611d9a8354611b64565b83611b9c565b5f601f841160018114611dd1575f8515611dba5750838201355b5f19600387901b1c1916600186901b178355611e29565b5f83815260209020601f19861690835b82811015611e015786850135825560209485019460019092019101611de1565b5086821015611e1d575f1960f88860031b161c19848701351681555b505060018560011b0183555b5050505050565b608081525f611e4360808301898b611c9d565b8281036020840152611e5681888a611c9d565b90508281036040840152611e6b818688611c9d565b91505082606083015298975050505050505050565b5f60208284031215611e90575f80fd5b5051919050565b8181038181111561070657634e487b7160e01b5f52601160045260245ffd5b5f8085851115611ec4575f80fd5b83861115611ed0575f80fd5b5050820193919092039150565b6bffffffffffffffffffffffff198135818116916014851015611f0a5780818660140360031b1b83161692505b505092915050565b5f8251611f23818460208701611666565b919091019291505056fe360894a13ba1a3210667c828492db98dca3e2076cc3735a920a3ca505d382bbca264697066735822122082d342b332b48d8343f25de7a9a5c0aa3ad4a57521af0e54e1f1cbfef02098c664736f6c63430008140033",
  "immutableReferences": {
    "585": [
      {
        "length": 32,
        "start": 496
      },
      {
        "length": 32,
        "start": 602
      },
      {
        "length": 32,
        "start": 4877
      }
    ],
    "992": [
      {
        "length": 32,
        "start": 4087
      },
      {
        "length": 32,
        "start": 4128
      },
      {
        "length": 32,
        "start": 4657
      }
    ]
  },
  "source": "// SPDX-License-Identifier: MIT\npragma solidity ^0.8.20;\n\nimport \"@openzeppelin/contracts-upgradeable/proxy/utils/Initializable.sol\";\nimport \"@openzeppelin/contracts-upgradeable/proxy/utils/UUPSUpgradeable.sol\";\nimport \"@openzeppelin/contracts-upgradeable/utils/ContextUpgradeable.sol\";\nimport \"@openzeppelin/contracts-upgradeable/metatx/ERC2771ContextUpgradeable.sol\";\nimport \"./common/MediSecureAuthUpgradeable.sol\";\nimport {Roles} from \"./MediSecureAccessControl.sol\";\n\n/**\n * @title PatientDetails\n * @dev Upgradable contract for storing patient health details.\n * Uses UUPS (Universal Upgradeable Proxy Standard) pattern.\n */\ncontract PatientDetails is Initializable, UUPSUpgradeable, MediSecureAuthUpgradeable, ERC2771ContextUpgradeable {\n    \n    /// @custom:oz-upgrades-unsafe-allow constructor\n    constructor(address _forwarder) ERC2771ContextUpgradeable(_forwarder) {\n        // _disableInitializers();\n    }\n\n    // Overrides for Context/ERC2771Context to resolve conflicts\n    function _msgSender() internal view override(ContextUpgradeable, ERC2771ContextUpgradeable) returns (address) {\n        return ERC2771ContextUpgradeable._msgSender();\n    }\n\n    function _msgData() internal view override(ContextUpgradeable, ERC2771ContextUpgradeable) returns (bytes calldata) {\n        return ERC2771ContextUpgradeable._msgData();\n    }\n\n    function _contextSuffixLength() internal view override(ContextUpgradeable, ERC2771ContextUpgradeable) returns (uint256) {\n        return ERC2771ContextUpgradeable._contextSuffixLength();\n    }\n\n    // Custom Errors\n    error InvalidVitals();\n    error AlertAlreadyResolved();\n\n    // Enums\n    enum Severity { LOW, MEDIUM, HIGH, CRITICAL }\n\n    struct Vitals {\n        string bloodPressure; // e.g., \"120/80\"\n        string weight;        // e.g., \"70 kg\"\n        string height;        // e.g., \"175 cm\"\n        string heartRate;     // e.g., \"72 bpm\"\n        string temperature;   // e.g., \"98.6 F\"\n        uint256 lastUpdated;\n    }\n\n    mapping(address => Vitals) private _patientVitals;\n    \n    struct EmergencyAlert {\n        string issue;\n        Severity severity;\n        uint256 timestamp;\n        bool resolved;\n    }\n\n    mapping(address => EmergencyAlert[]) private _patientAlerts;\n\n    // Events\n    event VitalsUpdated(\n        address indexed patient,\n        string bloodPressure,\n        string weight,\n        string height,\n        string heartRate,\n        string temperature,\n        uint256 timestamp\n    );\n\n    event VitalsUpdatedByProvider(\n        address indexed patient,\n        address indexed provider,\n        string bloodPressure,\n        string heartRate,\n        string temperature,\n        uint256 timestamp\n    );\n\n    event ClinicalAlertTriggered(\n        address indexed patient,\n        string issue,\n        Severity severity,\n        uint256 timestamp\n    );\n\n    function initialize(address _accessControl) public initializer {\n        __MediSecureAuth_init(_accessControl);\n        __UUPSUpgradeable_init();\n    }\n\n    function setVitals(\n        string calldata bp,\n        string calldata weight,\n        string calldata height,\n        string calldata heartRate,\n        string calldata temp\n    ) external {\n        _patientVitals[_msgSender()] = Vitals({\n            bloodPressure: bp,\n            weight: weight,\n            height: height,\n            heartRate: heartRate,\n            temperature: temp,\n            lastUpdated: block.timestamp\n        });\n\n        emit VitalsUpdated(\n            _msgSender(),\n            bp,\n            weight,\n            height,\n            heartRate,\n            temp,\n            block.timestamp\n        );\n    }\n\n    function setVitalsForPatient(\n        address patient,\n        string calldata bp,\n        string calldata heartRate,\n        string calldata temp\n    ) external onlyAdmin() {\n        if (patient == address(0)) revert InvalidVitals();\n        Vitals storage v = _patientVitals[patient];\n        v.bloodPressure = bp;\n        v.heartRate = heartRate;\n        v.temperature = temp;\n        v.lastUpdated = block.timestamp;\n\n        emit VitalsUpdatedByProvider(\n            patient,\n            _msgSender(),\n            bp,\n            heartRate,\n            temp,\n            block.timestamp\n        );\n    }\n\n    function triggerClinicalAlert(\n        address patient,\n        string calldata issue,\n        Severity severity\n    ) external onlyAdmin() {\n        _patientAlerts[patient].push(EmergencyAlert({\n            issue: issue,\n            severity: severity,\n            timestamp: block.timestamp,\n            resolved: false\n        }));\n\n        emit ClinicalAlertTriggered(patient, issue, severity, block.timestamp);\n    }\n\n    function getAlerts(address _patient) public view returns (EmergencyAlert[] memory) {\n        return _patientAlerts[_patient];\n    }\n\n    function getVitals(address patient) external view returns (Vitals memory) {\n        return _patientVitals[patient];\n    }\n\n    function _authorizeUpgrade(address newImplementation) internal override onlyUpgrader() {}\n}\n",
  "sourcePath": "/home/ayush/Desktop/code/Sanjeevni/contracts/contracts/PatientDetails.sol",
  "compiler": {
    "name": "solc",
    "version": "0.8.20+commit.a1b79de6.Emscripten.clang"
  },
  "schemaVersion": "3.4.16",
  "updatedAt": "2026-04-13T22:12:25.694Z",
  "networkType": "ethereum",
  "devdoc": {
    "details": "Upgradable contract for storing patient health details. Uses UUPS (Universal Upgradeable Proxy Standard) pattern.",
    "errors": {
      "AddressEmptyCode(address)": [
        {
          "details": "There's no code at `target` (it is not a contract)."
        }
      ],
      "ERC1967InvalidImplementation(address)": [
        {
          "details": "The `implementation` of the proxy is invalid."
        }
      ],
      "ERC1967NonPayable()": [
        {
          "details": "An upgrade function sees `msg.value > 0` that may be lost."
        }
      ],
      "FailedInnerCall()": [
        {
          "details": "A call to an address target failed. The target may have reverted."
        }
      ],
      "InvalidInitialization()": [
        {
          "details": "The contract is already initialized."
        }
      ],
      "NotInitializing()": [
        {
          "details": "The contract is not initializing."
        }
      ],
      "UUPSUnauthorizedCallContext()": [
        {
          "details": "The call is from an unauthorized context."
        }
      ],
      "UUPSUnsupportedProxiableUUID(bytes32)": [
        {
          "details": "The storage `slot` is unsupported as a UUID."
        }
      ]
    },
    "events": {
      "Initialized(uint64)": {
        "details": "Triggered when the contract has been initialized or reinitialized."
      },
      "Upgraded(address)": {
        "details": "Emitted when the implementation is upgraded."
      }
    },
    "kind": "dev",
    "methods": {
      "constructor": {
        "custom:oz-upgrades-unsafe-allow": "constructor"
      },
      "isTrustedForwarder(address)": {
        "details": "Indicates whether any particular address is the trusted forwarder."
      },
      "proxiableUUID()": {
        "details": "Implementation of the ERC1822 {proxiableUUID} function. This returns the storage slot used by the implementation. It is used to validate the implementation's compatibility when performing an upgrade. IMPORTANT: A proxy pointing at a proxiable contract should not be considered proxiable itself, because this risks bricking a proxy that upgrades to it, by delegating to itself until out of gas. Thus it is critical that this function revert if invoked through a proxy. This is guaranteed by the `notDelegated` modifier."
      },
      "trustedForwarder()": {
        "details": "Returns the address of the trusted forwarder."
      },
      "upgradeToAndCall(address,bytes)": {
        "custom:oz-upgrades-unsafe-allow-reachable": "delegatecall",
        "details": "Upgrade the implementation of the proxy to `newImplementation`, and subsequently execute the function call encoded in `data`. Calls {_authorizeUpgrade}. Emits an {Upgraded} event."
      }
    },
    "title": "PatientDetails",
    "version": 1
  },
  "userdoc": {
    "kind": "user",
    "methods": {},
    "version": 1
  },
  "timeoutBlocks": 500,
  "numberFormat": "BN"
}