{
  "contractName": "PriceMedianizer",
  "abi": [
    {
      "inputs": [
        {
          "internalType": "address",
          "name": "initialOwner",
          "type": "address"
        }
      ],
      "stateMutability": "nonpayable",
      "type": "constructor",
      "signature": "constructor"
    },
    {
      "inputs": [],
      "name": "InsufficientOracles",
      "type": "error"
    },
    {
      "inputs": [],
      "name": "NoValidPrices",
      "type": "error"
    },
    {
      "inputs": [
        {
          "internalType": "address",
          "name": "owner",
          "type": "address"
        }
      ],
      "name": "OwnableInvalidOwner",
      "type": "error"
    },
    {
      "inputs": [
        {
          "internalType": "address",
          "name": "account",
          "type": "address"
        }
      ],
      "name": "OwnableUnauthorizedAccount",
      "type": "error"
    },
    {
      "anonymous": false,
      "inputs": [
        {
          "indexed": true,
          "internalType": "address",
          "name": "previousOwner",
          "type": "address"
        },
        {
          "indexed": true,
          "internalType": "address",
          "name": "newOwner",
          "type": "address"
        }
      ],
      "name": "OwnershipTransferred",
      "type": "event",
      "signature": "0x8be0079c531659141344cd1fd0a4f28419497f9722a3daafe3b4186f6b6457e0"
    },
    {
      "inputs": [],
      "name": "MAX_ORACLES",
      "outputs": [
        {
          "internalType": "uint256",
          "name": "",
          "type": "uint256"
        }
      ],
      "stateMutability": "view",
      "type": "function",
      "constant": true,
      "signature": "0xbfedbfa0"
    },
    {
      "inputs": [],
      "name": "STALE_THRESHOLD",
      "outputs": [
        {
          "internalType": "uint256",
          "name": "",
          "type": "uint256"
        }
      ],
      "stateMutability": "view",
      "type": "function",
      "constant": true,
      "signature": "0x5bdddcd0"
    },
    {
      "inputs": [
        {
          "internalType": "uint256",
          "name": "",
          "type": "uint256"
        }
      ],
      "name": "oracles",
      "outputs": [
        {
          "internalType": "address",
          "name": "addr",
          "type": "address"
        },
        {
          "internalType": "bool",
          "name": "isActive",
          "type": "bool"
        },
        {
          "internalType": "bool",
          "name": "isNative",
          "type": "bool"
        }
      ],
      "stateMutability": "view",
      "type": "function",
      "constant": true,
      "signature": "0x5b69a7d8"
    },
    {
      "inputs": [],
      "name": "owner",
      "outputs": [
        {
          "internalType": "address",
          "name": "",
          "type": "address"
        }
      ],
      "stateMutability": "view",
      "type": "function",
      "constant": true,
      "signature": "0x8da5cb5b"
    },
    {
      "inputs": [],
      "name": "renounceOwnership",
      "outputs": [],
      "stateMutability": "nonpayable",
      "type": "function",
      "signature": "0x715018a6"
    },
    {
      "inputs": [
        {
          "internalType": "address",
          "name": "newOwner",
          "type": "address"
        }
      ],
      "name": "transferOwnership",
      "outputs": [],
      "stateMutability": "nonpayable",
      "type": "function",
      "signature": "0xf2fde38b"
    },
    {
      "inputs": [
        {
          "internalType": "address",
          "name": "_oracle",
          "type": "address"
        },
        {
          "internalType": "bool",
          "name": "_isNative",
          "type": "bool"
        }
      ],
      "name": "addOracle",
      "outputs": [],
      "stateMutability": "nonpayable",
      "type": "function",
      "signature": "0x96e37227"
    },
    {
      "inputs": [
        {
          "internalType": "uint256",
          "name": "index",
          "type": "uint256"
        },
        {
          "internalType": "bool",
          "name": "status",
          "type": "bool"
        }
      ],
      "name": "toggleOracle",
      "outputs": [],
      "stateMutability": "nonpayable",
      "type": "function",
      "signature": "0x0b216ac3"
    },
    {
      "inputs": [],
      "name": "getMedianPrice",
      "outputs": [
        {
          "internalType": "uint256",
          "name": "",
          "type": "uint256"
        }
      ],
      "stateMutability": "view",
      "type": "function",
      "constant": true,
      "signature": "0xf6211959"
    },
    {
      "inputs": [
        {
          "components": [
            {
              "internalType": "address",
              "name": "addr",
              "type": "address"
            },
            {
              "internalType": "bool",
              "name": "isActive",
              "type": "bool"
            },
            {
              "internalType": "bool",
              "name": "isNative",
              "type": "bool"
            }
          ],
          "internalType": "struct PriceMedianizer.Oracle",
          "name": "oracle",
          "type": "tuple"
        }
      ],
      "name": "fetchPrice",
      "outputs": [
        {
          "internalType": "uint256",
          "name": "",
          "type": "uint256"
        }
      ],
      "stateMutability": "view",
      "type": "function",
      "constant": true,
      "signature": "0xad9d0af0"
    }
  ],
  "bytecode": "0x608060405234801561000f575f80fd5b50604051610c07380380610c0783398101604081905261002e916100bb565b806001600160a01b03811661005c57604051631e4fbdf760e01b81525f600482015260240160405180910390fd5b6100658161006c565b50506100e8565b5f80546001600160a01b038381166001600160a01b0319831681178455604051919092169283917f8be0079c531659141344cd1fd0a4f28419497f9722a3daafe3b4186f6b6457e09190a35050565b5f602082840312156100cb575f80fd5b81516001600160a01b03811681146100e1575f80fd5b9392505050565b610b12806100f55f395ff3fe608060405234801561000f575f80fd5b506004361061009b575f3560e01c806396e372271161006357806396e372271461012c578063ad9d0af01461013f578063bfedbfa014610152578063f2fde38b1461015a578063f62119591461016d575f80fd5b80630b216ac31461009f5780635b69a7d8146100b45780635bdddcd0146100f3578063715018a61461010a5780638da5cb5b14610112575b5f80fd5b6100b26100ad366004610898565b610175565b005b6100c76100c23660046108c2565b6101b9565b604080516001600160a01b03909416845291151560208401521515908201526060015b60405180910390f35b6100fc610e1081565b6040519081526020016100ea565b6100b26101f6565b5f546040516001600160a01b0390911681526020016100ea565b6100b261013a3660046108ef565b610209565b6100fc61014d36600461092b565b6102f7565b6100fc600581565b6100b26101683660046109a1565b6103a5565b6100fc6103e2565b61017d610629565b8060018381548110610191576101916109ba565b5f9182526020909120018054911515600160a01b0260ff60a01b199092169190911790555050565b600181815481106101c8575f80fd5b5f918252602090912001546001600160a01b038116915060ff600160a01b8204811691600160a81b90041683565b6101fe610629565b6102075f610655565b565b610211610629565b60015460051161025e5760405162461bcd60e51b815260206004820152601360248201527213585e081bdc9858db195cc81c995858da1959606a1b60448201526064015b60405180910390fd5b604080516060810182526001600160a01b039384168152600160208201818152931515928201928352805480820182555f9190915290517fb10e2d527612073b26eecdfd717e6a320cf44b4afac2b0732d9fcbe2b7fa0cf69091018054935192511515600160a81b0260ff60a81b19931515600160a01b026001600160a81b031990951692909516919091179290921716919091179055565b5f816040015115610399575f825f015190505f80826001600160a01b031663feaf968c6040518163ffffffff1660e01b815260040160a060405180830381865afa158015610347573d5f803e3d5ffd5b505050506040513d601f19601f8201168201806040525081019061036b91906109e7565b50935050925050610e1081426103819190610a47565b111561039157505f949350505050565b509392505050565b505f919050565b919050565b6103ad610629565b6001600160a01b0381166103d657604051631e4fbdf760e01b81525f6004820152602401610255565b6103df81610655565b50565b6001545f90819067ffffffffffffffff81111561040157610401610917565b60405190808252806020026020018201604052801561042a578160200160208202803683370190505b5090505f805b60015481101561055d576001818154811061044d5761044d6109ba565b5f91825260209091200154600160a01b900460ff161561054b57306001600160a01b031663ad9d0af060018381548110610489576104896109ba565b905f5260205f20016040518263ffffffff1660e01b81526004016104d991546001600160a01b038116825260a081901c60ff9081161515602084015260a89190911c161515604082015260600190565b602060405180830381865afa925050508015610512575060408051601f3d908101601f1916820190925261050f91810190610a60565b60015b1561054b5780156105495780848481518110610530576105306109ba565b60209081029190910101528261054581610a77565b9350505b505b8061055581610a77565b915050610430565b50805f0361057e57604051635b3fee9760e11b815260040160405180910390fd5b5f8167ffffffffffffffff81111561059857610598610917565b6040519080825280602002602001820160405280156105c1578160200160208202803683370190505b5090505f5b82811015610617578381815181106105e0576105e06109ba565b60200260200101518282815181106105fa576105fa6109ba565b60209081029190910101528061060f81610a77565b9150506105c6565b50610621816106a4565b935050505090565b5f546001600160a01b031633146102075760405163118cdaa760e01b8152336004820152602401610255565b5f80546001600160a01b038381166001600160a01b0319831681178455604051919092169283917f8be0079c531659141344cd1fd0a4f28419497f9722a3daafe3b4186f6b6457e09190a35050565b80515f908082036106b757505f92915050565b5f5b6106c4600183610a47565b8110156107d8575f5b60016106d98385610a47565b6106e39190610a47565b8110156107c557846106f6826001610a8f565b81518110610706576107066109ba565b6020026020010151858281518110610720576107206109ba565b602002602001015111156107b3578461073a826001610a8f565b8151811061074a5761074a6109ba565b6020026020010151858281518110610764576107646109ba565b602002602001015186838151811061077e5761077e6109ba565b60200260200101878460016107939190610a8f565b815181106107a3576107a36109ba565b6020908102919091010191909152525b806107bd81610a77565b9150506106cd565b50806107d081610a77565b9150506106b9565b506107e4600282610ab6565b60010361081757826107f7600283610ac9565b81518110610807576108076109ba565b6020026020010151915050919050565b6002836108248284610ac9565b81518110610834576108346109ba565b602002602001015184600160028561084c9190610ac9565b6108569190610a47565b81518110610866576108666109ba565b60200260200101516108789190610a8f565b6108829190610ac9565b9392505050565b803580151581146103a0575f80fd5b5f80604083850312156108a9575f80fd5b823591506108b960208401610889565b90509250929050565b5f602082840312156108d2575f80fd5b5035919050565b80356001600160a01b03811681146103a0575f80fd5b5f8060408385031215610900575f80fd5b610909836108d9565b91506108b960208401610889565b634e487b7160e01b5f52604160045260245ffd5b5f6060828403121561093b575f80fd5b6040516060810181811067ffffffffffffffff8211171561096a57634e487b7160e01b5f52604160045260245ffd5b604052610976836108d9565b815261098460208401610889565b602082015261099560408401610889565b60408201529392505050565b5f602082840312156109b1575f80fd5b610882826108d9565b634e487b7160e01b5f52603260045260245ffd5b805169ffffffffffffffffffff811681146103a0575f80fd5b5f805f805f60a086880312156109fb575f80fd5b610a04866109ce565b9450602086015193506040860151925060608601519150610a27608087016109ce565b90509295509295909350565b634e487b7160e01b5f52601160045260245ffd5b81810381811115610a5a57610a5a610a33565b92915050565b5f60208284031215610a70575f80fd5b5051919050565b5f60018201610a8857610a88610a33565b5060010190565b80820180821115610a5a57610a5a610a33565b634e487b7160e01b5f52601260045260245ffd5b5f82610ac457610ac4610aa2565b500690565b5f82610ad757610ad7610aa2565b50049056fea2646970667358221220b7f1cea79b00ebefd379fe7156495313e1bea4b7bdfa6da642c7b98b9bf25ac864736f6c63430008140033",
  "immutableReferences": {},
  "source": "// SPDX-License-Identifier: MIT\npragma solidity ^0.8.20;\n\nimport \"@chainlink/contracts/src/v0.8/shared/interfaces/AggregatorV3Interface.sol\";\nimport \"@openzeppelin/contracts/access/Ownable.sol\";\n\n/**\n * @title PriceMedianizer\n * @dev Aggregates ETH/USD prices from multiple sources (Chainlink, Pyth-style, TWAP)\n * and returns the median to prevent single-oracle manipulation.\n */\ncontract PriceMedianizer is Ownable {\n    \n    struct Oracle {\n        address addr;\n        bool isActive;\n        bool isNative; // True for Chainlink-style, False for custom/Pyth-style\n    }\n\n    Oracle[] public oracles;\n    uint256 public constant MAX_ORACLES = 5;\n    uint256 public constant STALE_THRESHOLD = 3600; // 1 hour\n\n    error InsufficientOracles();\n    error NoValidPrices();\n\n    constructor(address initialOwner) Ownable(initialOwner) {}\n\n    function addOracle(address _oracle, bool _isNative) external onlyOwner {\n        require(oracles.length < MAX_ORACLES, \"Max oracles reached\");\n        oracles.push(Oracle(_oracle, true, _isNative));\n    }\n\n    function toggleOracle(uint256 index, bool status) external onlyOwner {\n        oracles[index].isActive = status;\n    }\n\n    /**\n     * @dev Fetches prices from all active oracles and returns the median.\n     */\n    function getMedianPrice() public view returns (uint256) {\n        uint256[] memory prices = new uint256[](oracles.length);\n        uint256 validCount = 0;\n\n        for (uint256 i = 0; i < oracles.length; i++) {\n            if (!oracles[i].isActive) continue;\n\n            try this.fetchPrice(oracles[i]) returns (uint256 price) {\n                if (price > 0) {\n                    prices[validCount] = price;\n                    validCount++;\n                }\n            } catch {}\n        }\n\n        if (validCount == 0) revert NoValidPrices();\n\n        uint256[] memory validPrices = new uint256[](validCount);\n        for(uint256 i = 0; i < validCount; i++) {\n            validPrices[i] = prices[i];\n        }\n\n        return _computeMedian(validPrices);\n    }\n\n    /**\n     * @dev Helper to fetch price based on oracle type\n     */\n    function fetchPrice(Oracle memory oracle) public view returns (uint256) {\n        if (oracle.isNative) {\n            // Chainlink\n            AggregatorV3Interface feed = AggregatorV3Interface(oracle.addr);\n            (, int256 price, , uint256 updatedAt, ) = feed.latestRoundData();\n            if (block.timestamp - updatedAt > STALE_THRESHOLD) return 0;\n            return uint256(price);\n        } else {\n            // Placeholder for Pyth/Uniswap logic\n            // For now, return a custom value or 0\n            return 0; \n        }\n    }\n\n    /**\n     * @dev Simple sorting and median calculation\n     */\n    function _computeMedian(uint256[] memory data) internal pure returns (uint256) {\n        uint256 l = data.length;\n        if (l == 0) return 0;\n        \n        // Sort (Basic Bubble Sort for small array size)\n        for (uint256 i = 0; i < l - 1; i++) {\n            for (uint256 j = 0; j < l - i - 1; j++) {\n                if (data[j] > data[j + 1]) {\n                    (data[j], data[j + 1]) = (data[j + 1], data[j]);\n                }\n            }\n        }\n\n        if (l % 2 == 1) {\n            return data[l / 2];\n        } else {\n            return (data[l / 2 - 1] + data[l / 2]) / 2;\n        }\n    }\n}\n",
  "sourcePath": "/home/ayush/Desktop/code/Sanjeevni/contracts/contracts/PriceMedianizer.sol",
  "compiler": {
    "name": "solc",
    "version": "0.8.20+commit.a1b79de6.Emscripten.clang"
  },
  "schemaVersion": "3.4.16",
  "updatedAt": "2026-04-13T21:23:03.575Z",
  "networkType": "ethereum",
  "devdoc": {
    "details": "Aggregates ETH/USD prices from multiple sources (Chainlink, Pyth-style, TWAP) and returns the median to prevent single-oracle manipulation.",
    "errors": {
      "OwnableInvalidOwner(address)": [
        {
          "details": "The owner is not a valid owner account. (eg. `address(0)`)"
        }
      ],
      "OwnableUnauthorizedAccount(address)": [
        {
          "details": "The caller account is not authorized to perform an operation."
        }
      ]
    },
    "kind": "dev",
    "methods": {
      "fetchPrice((address,bool,bool))": {
        "details": "Helper to fetch price based on oracle type"
      },
      "getMedianPrice()": {
        "details": "Fetches prices from all active oracles and returns the median."
      },
      "owner()": {
        "details": "Returns the address of the current owner."
      },
      "renounceOwnership()": {
        "details": "Leaves the contract without owner. It will not be possible to call `onlyOwner` functions. Can only be called by the current owner. NOTE: Renouncing ownership will leave the contract without an owner, thereby disabling any functionality that is only available to the owner."
      },
      "transferOwnership(address)": {
        "details": "Transfers ownership of the contract to a new account (`newOwner`). Can only be called by the current owner."
      }
    },
    "title": "PriceMedianizer",
    "version": 1
  },
  "userdoc": {
    "kind": "user",
    "methods": {},
    "version": 1
  },
  "timeoutBlocks": 500,
  "numberFormat": "BN"
}