{
  "contractName": "WellnessRewards",
  "abi": [
    {
      "inputs": [
        {
          "internalType": "address",
          "name": "_accessControl",
          "type": "address"
        },
        {
          "internalType": "address",
          "name": "_forwarder",
          "type": "address"
        },
        {
          "internalType": "address",
          "name": "_token",
          "type": "address"
        },
        {
          "internalType": "address",
          "name": "_verifier",
          "type": "address"
        }
      ],
      "stateMutability": "nonpayable",
      "type": "constructor",
      "signature": "constructor"
    },
    {
      "inputs": [
        {
          "internalType": "address",
          "name": "target",
          "type": "address"
        }
      ],
      "name": "AddressEmptyCode",
      "type": "error"
    },
    {
      "inputs": [
        {
          "internalType": "address",
          "name": "account",
          "type": "address"
        }
      ],
      "name": "AddressInsufficientBalance",
      "type": "error"
    },
    {
      "inputs": [],
      "name": "EnforcedPause",
      "type": "error"
    },
    {
      "inputs": [],
      "name": "ExpectedPause",
      "type": "error"
    },
    {
      "inputs": [],
      "name": "FailedInnerCall",
      "type": "error"
    },
    {
      "inputs": [],
      "name": "InvalidProof",
      "type": "error"
    },
    {
      "inputs": [],
      "name": "NotPatient",
      "type": "error"
    },
    {
      "inputs": [],
      "name": "ReentrancyGuardReentrantCall",
      "type": "error"
    },
    {
      "inputs": [
        {
          "internalType": "address",
          "name": "token",
          "type": "address"
        }
      ],
      "name": "SafeERC20FailedOperation",
      "type": "error"
    },
    {
      "inputs": [],
      "name": "StillInInterval",
      "type": "error"
    },
    {
      "anonymous": false,
      "inputs": [
        {
          "indexed": true,
          "internalType": "address",
          "name": "patient",
          "type": "address"
        },
        {
          "indexed": false,
          "internalType": "uint256",
          "name": "milestone",
          "type": "uint256"
        }
      ],
      "name": "MilestoneReached",
      "type": "event",
      "signature": "0x606c93dd9d51adef863c541a7a184bf8786670793adc7241622075b3bda7f36b"
    },
    {
      "anonymous": false,
      "inputs": [
        {
          "indexed": false,
          "internalType": "address",
          "name": "account",
          "type": "address"
        }
      ],
      "name": "Paused",
      "type": "event",
      "signature": "0x62e78cea01bee320cd4e420270b5ea74000d11b0c9f74754ebdbfc544b05a258"
    },
    {
      "anonymous": false,
      "inputs": [
        {
          "indexed": false,
          "internalType": "address",
          "name": "account",
          "type": "address"
        }
      ],
      "name": "Unpaused",
      "type": "event",
      "signature": "0x5db9ee0a495bf2e6ff9c91a7834c1ba4fdd244a5e8aa4e537bd38aeae4b073aa"
    },
    {
      "anonymous": false,
      "inputs": [
        {
          "indexed": true,
          "internalType": "address",
          "name": "patient",
          "type": "address"
        },
        {
          "indexed": false,
          "internalType": "uint256",
          "name": "streakCount",
          "type": "uint256"
        },
        {
          "indexed": false,
          "internalType": "uint256",
          "name": "reward",
          "type": "uint256"
        }
      ],
      "name": "WellnessVerified",
      "type": "event",
      "signature": "0x6fd087f506dbf330bfd57c5033b6262a2cabc53941578e0b6b9adf2516e740f7"
    },
    {
      "inputs": [],
      "name": "accessControl",
      "outputs": [
        {
          "internalType": "contract MediSecureAccessControl",
          "name": "",
          "type": "address"
        }
      ],
      "stateMutability": "view",
      "type": "function",
      "constant": true,
      "signature": "0x13007d55"
    },
    {
      "inputs": [
        {
          "internalType": "bytes32",
          "name": "role",
          "type": "bytes32"
        },
        {
          "internalType": "address",
          "name": "account",
          "type": "address"
        }
      ],
      "name": "hasRole",
      "outputs": [
        {
          "internalType": "bool",
          "name": "",
          "type": "bool"
        }
      ],
      "stateMutability": "view",
      "type": "function",
      "constant": true,
      "signature": "0x91d14854"
    },
    {
      "inputs": [
        {
          "internalType": "enum Roles",
          "name": "role",
          "type": "uint8"
        },
        {
          "internalType": "address",
          "name": "account",
          "type": "address"
        }
      ],
      "name": "hasRole",
      "outputs": [
        {
          "internalType": "bool",
          "name": "",
          "type": "bool"
        }
      ],
      "stateMutability": "view",
      "type": "function",
      "constant": true,
      "signature": "0x9e97b8f6"
    },
    {
      "inputs": [
        {
          "internalType": "address",
          "name": "account",
          "type": "address"
        }
      ],
      "name": "isAdmin",
      "outputs": [
        {
          "internalType": "bool",
          "name": "",
          "type": "bool"
        }
      ],
      "stateMutability": "view",
      "type": "function",
      "constant": true,
      "signature": "0x24d7806c"
    },
    {
      "inputs": [
        {
          "internalType": "address",
          "name": "forwarder",
          "type": "address"
        }
      ],
      "name": "isTrustedForwarder",
      "outputs": [
        {
          "internalType": "bool",
          "name": "",
          "type": "bool"
        }
      ],
      "stateMutability": "view",
      "type": "function",
      "constant": true,
      "signature": "0x572b6c05"
    },
    {
      "inputs": [],
      "name": "milestoneBonus",
      "outputs": [
        {
          "internalType": "uint256",
          "name": "",
          "type": "uint256"
        }
      ],
      "stateMutability": "view",
      "type": "function",
      "constant": true,
      "signature": "0x9ab060de"
    },
    {
      "inputs": [],
      "name": "minimumInterval",
      "outputs": [
        {
          "internalType": "uint256",
          "name": "",
          "type": "uint256"
        }
      ],
      "stateMutability": "view",
      "type": "function",
      "constant": true,
      "signature": "0x51cfaf73"
    },
    {
      "inputs": [
        {
          "internalType": "address",
          "name": "",
          "type": "address"
        }
      ],
      "name": "patientStreaks",
      "outputs": [
        {
          "internalType": "uint256",
          "name": "count",
          "type": "uint256"
        },
        {
          "internalType": "uint256",
          "name": "lastProofTimestamp",
          "type": "uint256"
        }
      ],
      "stateMutability": "view",
      "type": "function",
      "constant": true,
      "signature": "0xee918d42"
    },
    {
      "inputs": [],
      "name": "paused",
      "outputs": [
        {
          "internalType": "bool",
          "name": "",
          "type": "bool"
        }
      ],
      "stateMutability": "view",
      "type": "function",
      "constant": true,
      "signature": "0x5c975abb"
    },
    {
      "inputs": [],
      "name": "rewardPerProof",
      "outputs": [
        {
          "internalType": "uint256",
          "name": "",
          "type": "uint256"
        }
      ],
      "stateMutability": "view",
      "type": "function",
      "constant": true,
      "signature": "0xb774718d"
    },
    {
      "inputs": [],
      "name": "sanjeevniToken",
      "outputs": [
        {
          "internalType": "contract IERC20",
          "name": "",
          "type": "address"
        }
      ],
      "stateMutability": "view",
      "type": "function",
      "constant": true,
      "signature": "0xfc1d6911"
    },
    {
      "inputs": [],
      "name": "trustedForwarder",
      "outputs": [
        {
          "internalType": "address",
          "name": "",
          "type": "address"
        }
      ],
      "stateMutability": "view",
      "type": "function",
      "constant": true,
      "signature": "0x7da0a877"
    },
    {
      "inputs": [],
      "name": "zkpVerifier",
      "outputs": [
        {
          "internalType": "address",
          "name": "",
          "type": "address"
        }
      ],
      "stateMutability": "view",
      "type": "function",
      "constant": true,
      "signature": "0x6aebbd66"
    },
    {
      "inputs": [
        {
          "internalType": "bytes",
          "name": "proof",
          "type": "bytes"
        }
      ],
      "name": "submitWellnessProof",
      "outputs": [],
      "stateMutability": "nonpayable",
      "type": "function",
      "signature": "0x97c99420"
    },
    {
      "inputs": [
        {
          "internalType": "address",
          "name": "patient",
          "type": "address"
        },
        {
          "internalType": "bytes",
          "name": "proof",
          "type": "bytes"
        }
      ],
      "name": "submitWellnessProofFor",
      "outputs": [],
      "stateMutability": "nonpayable",
      "type": "function",
      "signature": "0x36112a99"
    },
    {
      "inputs": [
        {
          "internalType": "uint256",
          "name": "_base",
          "type": "uint256"
        },
        {
          "internalType": "uint256",
          "name": "_bonus",
          "type": "uint256"
        }
      ],
      "name": "setRewardAmounts",
      "outputs": [],
      "stateMutability": "nonpayable",
      "type": "function",
      "signature": "0xd113ef7c"
    },
    {
      "inputs": [
        {
          "internalType": "uint256",
          "name": "_interval",
          "type": "uint256"
        }
      ],
      "name": "setInterval",
      "outputs": [],
      "stateMutability": "nonpayable",
      "type": "function",
      "signature": "0x22a90082"
    },
    {
      "inputs": [
        {
          "internalType": "address",
          "name": "_verifier",
          "type": "address"
        }
      ],
      "name": "setVerifier",
      "outputs": [],
      "stateMutability": "nonpayable",
      "type": "function",
      "signature": "0x5437988d"
    },
    {
      "inputs": [
        {
          "internalType": "uint256",
          "name": "amount",
          "type": "uint256"
        }
      ],
      "name": "fundRewardPool",
      "outputs": [],
      "stateMutability": "nonpayable",
      "type": "function",
      "signature": "0x1d583e0d"
    }
  ],
  "bytecode": "0x60c06040526802b5e3af16b1880000600455681b1ae4d6e2ef5000006005556220f580600655348015610030575f80fd5b50604051620010b4380380620010b4833981016040819052610051916100e1565b60015f819055805460ff191690556001600160a01b03808416608052849084908216156100995760018054610100600160a81b0319166101006001600160a01b038516021790555b50506001600160a01b0391821660a052600280546001600160a01b03191691909216179055506101329050565b80516001600160a01b03811681146100dc575f80fd5b919050565b5f805f80608085870312156100f4575f80fd5b6100fd856100c6565b935061010b602086016100c6565b9250610119604086016100c6565b9150610127606086016100c6565b905092959194509250565b60805160a051610f3d620001775f395f81816102ff01528181610336015281816108be015261090e01525f81816101ed0152818161023d01526109e80152610f3d5ff3fe608060405234801561000f575f80fd5b506004361061011c575f3560e01c80636aebbd66116100a95780639e97b8f61161006e5780639e97b8f614610290578063b774718d146102a3578063d113ef7c146102ac578063ee918d42146102bf578063fc1d6911146102fa575f80fd5b80636aebbd66146102285780637da0a8771461023b57806391d148541461026157806397c99420146102745780639ab060de14610287575f80fd5b806336112a99116100ef57806336112a99146101a057806351cfaf73146101b35780635437988d146101ca578063572b6c05146101dd5780635c975abb1461021d575f80fd5b806313007d55146101205780631d583e0d1461015557806322a900821461016a57806324d7806c1461017d575b5f80fd5b6001546101389061010090046001600160a01b031681565b6040516001600160a01b0390911681526020015b60405180910390f35b610168610163366004610be0565b610321565b005b610168610178366004610be0565b610361565b61019061018b366004610c12565b610406565b604051901515815260200161014c565b6101686101ae366004610c70565b610482565b6101bc60065481565b60405190815260200161014c565b6101686101d8366004610c12565b610542565b6101906101eb366004610c12565b7f00000000000000000000000000000000000000000000000000000000000000006001600160a01b0390811691161490565b60015460ff16610190565b600254610138906001600160a01b031681565b7f0000000000000000000000000000000000000000000000000000000000000000610138565b61019061026f366004610cbf565b6105fb565b610168610282366004610ce9565b61067b565b6101bc60055481565b61019061029e366004610d28565b6106aa565b6101bc60045481565b6101686102ba366004610d55565b6106e1565b6102e56102cd366004610c12565b60036020525f90815260409020805460019091015482565b6040805192835260208301919091520161014c565b6101387f000000000000000000000000000000000000000000000000000000000000000081565b61035e61032c610783565b6001600160a01b037f000000000000000000000000000000000000000000000000000000000000000016903084610791565b50565b60015461010090046001600160a01b0316639e97b8f65f610380610783565b6040518363ffffffff1660e01b815260040161039d929190610d75565b602060405180830381865afa1580156103b8573d5f803e3d5ffd5b505050506040513d601f19601f820116820180604052508101906103dc9190610dad565b6104015760405162461bcd60e51b81526004016103f890610dcc565b60405180910390fd5b600655565b600154604051634f4bdc7b60e11b81525f9161010090046001600160a01b031690639e97b8f69061043d9084908690600401610d75565b602060405180830381865afa158015610458573d5f803e3d5ffd5b505050506040513d601f19601f8201168201806040525081019061047c9190610dad565b92915050565b60015461010090046001600160a01b0316639e97b8f65f6104a1610783565b6040518363ffffffff1660e01b81526004016104be929190610d75565b602060405180830381865afa1580156104d9573d5f803e3d5ffd5b505050506040513d601f19601f820116820180604052508101906104fd9190610dad565b6105195760405162461bcd60e51b81526004016103f890610dcc565b6105216107fe565b610529610824565b61053483838361084c565b61053d60015f55565b505050565b60015461010090046001600160a01b0316639e97b8f65f610561610783565b6040518363ffffffff1660e01b815260040161057e929190610d75565b602060405180830381865afa158015610599573d5f803e3d5ffd5b505050506040513d601f19601f820116820180604052508101906105bd9190610dad565b6105d95760405162461bcd60e51b81526004016103f890610dcc565b600280546001600160a01b0319166001600160a01b0392909216919091179055565b600154604051632474521560e21b8152600481018490526001600160a01b0383811660248301525f92610100900416906391d14854906044015b602060405180830381865afa158015610650573d5f803e3d5ffd5b505050506040513d601f19601f820116820180604052508101906106749190610dad565b9392505050565b6106836107fe565b61068b610824565b61069d610696610783565b838361084c565b6106a660015f55565b5050565b600154604051634f4bdc7b60e11b81525f9161010090046001600160a01b031690639e97b8f6906106359086908690600401610d75565b60015461010090046001600160a01b0316639e97b8f65f610700610783565b6040518363ffffffff1660e01b815260040161071d929190610d75565b602060405180830381865afa158015610738573d5f803e3d5ffd5b505050506040513d601f19601f8201168201806040525081019061075c9190610dad565b6107785760405162461bcd60e51b81526004016103f890610dcc565b600491909155600555565b5f61078c6109d9565b905090565b6040516001600160a01b0384811660248301528381166044830152606482018390526107f89186918216906323b872dd906084015b604051602081830303815290604052915060e01b6020820180516001600160e01b038381831617835250505050610a4c565b50505050565b60015460ff16156108225760405163d93c066560e01b815260040160405180910390fd5b565b60025f540361084657604051633ee5aeb560e01b815260040160405180910390fd5b60025f55565b6001600160a01b0383165f90815260036020526040902060065460018201546108759190610e22565b4210156108955760405163f84d933160e01b815260040160405180910390fd5b8054815f6108a283610e35565b90915550504260018201556004546108e6906001600160a01b037f000000000000000000000000000000000000000000000000000000000000000016908690610aad565b60045481546108f790600590610e4d565b5f0361098c57600554610936906001600160a01b037f000000000000000000000000000000000000000000000000000000000000000016908790610aad565b6005546109439082610e22565b9050846001600160a01b03167f606c93dd9d51adef863c541a7a184bf8786670793adc7241622075b3bda7f36b835f015460405161098391815260200190565b60405180910390a25b815460408051918252602082018390526001600160a01b038716917f6fd087f506dbf330bfd57c5033b6262a2cabc53941578e0b6b9adf2516e740f7910160405180910390a25050505050565b5f366014336001600160a01b037f000000000000000000000000000000000000000000000000000000000000000016148015610a155750808210155b15610a44575f36610a268385610e6c565b610a31928290610e7f565b610a3a91610ea6565b60601c9250505090565b339250505090565b5f610a606001600160a01b03841683610ade565b905080515f14158015610a84575080806020019051810190610a829190610dad565b155b1561053d57604051635274afe760e01b81526001600160a01b03841660048201526024016103f8565b6040516001600160a01b0383811660248301526044820183905261053d91859182169063a9059cbb906064016107c6565b606061067483835f845f80856001600160a01b03168486604051610b029190610edb565b5f6040518083038185875af1925050503d805f8114610b3c576040519150601f19603f3d011682016040523d82523d5f602084013e610b41565b606091505b5091509150610b51868383610b5b565b9695505050505050565b606082610b7057610b6b82610bb7565b610674565b8151158015610b8757506001600160a01b0384163b155b15610bb057604051639996b31560e01b81526001600160a01b03851660048201526024016103f8565b5080610674565b805115610bc75780518082602001fd5b604051630a12f52160e11b815260040160405180910390fd5b5f60208284031215610bf0575f80fd5b5035919050565b80356001600160a01b0381168114610c0d575f80fd5b919050565b5f60208284031215610c22575f80fd5b61067482610bf7565b5f8083601f840112610c3b575f80fd5b50813567ffffffffffffffff811115610c52575f80fd5b602083019150836020828501011115610c69575f80fd5b9250929050565b5f805f60408486031215610c82575f80fd5b610c8b84610bf7565b9250602084013567ffffffffffffffff811115610ca6575f80fd5b610cb286828701610c2b565b9497909650939450505050565b5f8060408385031215610cd0575f80fd5b82359150610ce060208401610bf7565b90509250929050565b5f8060208385031215610cfa575f80fd5b823567ffffffffffffffff811115610d10575f80fd5b610d1c85828601610c2b565b90969095509350505050565b5f8060408385031215610d39575f80fd5b823560098110610d47575f80fd5b9150610ce060208401610bf7565b5f8060408385031215610d66575f80fd5b50508035926020909101359150565b6040810160098410610d9557634e487b7160e01b5f52602160045260245ffd5b9281526001600160a01b039190911660209091015290565b5f60208284031215610dbd575f80fd5b81518015158114610674575f80fd5b60208082526022908201527f416363657373436f6e74726f6c3a20726573747269637465642d746f2d61646d60408201526134b760f11b606082015260800190565b634e487b7160e01b5f52601160045260245ffd5b8082018082111561047c5761047c610e0e565b5f60018201610e4657610e46610e0e565b5060010190565b5f82610e6757634e487b7160e01b5f52601260045260245ffd5b500690565b8181038181111561047c5761047c610e0e565b5f8085851115610e8d575f80fd5b83861115610e99575f80fd5b5050820193919092039150565b6bffffffffffffffffffffffff198135818116916014851015610ed35780818660140360031b1b83161692505b505092915050565b5f82515f5b81811015610efa5760208186018101518583015201610ee0565b505f92019182525091905056fea264697066735822122067430a40ba8ed0cff5d22d8caf279c35d1b8720ef4060eda6ca820291a2647b564736f6c63430008140033",
  "immutableReferences": {
    "4782": [
      {
        "length": 32,
        "start": 493
      },
      {
        "length": 32,
        "start": 573
      },
      {
        "length": 32,
        "start": 2536
      }
    ],
    "25753": [
      {
        "length": 32,
        "start": 767
      },
      {
        "length": 32,
        "start": 822
      },
      {
        "length": 32,
        "start": 2238
      },
      {
        "length": 32,
        "start": 2318
      }
    ]
  },
  "source": "// SPDX-License-Identifier: MIT\r\npragma solidity ^0.8.20;\r\n\r\nimport \"@openzeppelin/contracts/token/ERC20/IERC20.sol\";\r\nimport \"@openzeppelin/contracts/token/ERC20/utils/SafeERC20.sol\";\r\nimport \"@openzeppelin/contracts/utils/ReentrancyGuard.sol\";\r\nimport \"@openzeppelin/contracts/utils/Pausable.sol\";\r\nimport \"@openzeppelin/contracts/utils/Context.sol\";\r\nimport \"./common/MediSecureAuth.sol\";\r\n\r\n/**\r\n * @title WellnessRewards\r\n * @dev Incentivizes patients to maintain healthy vitals using $SANJ rebates.\r\n * Supports proof-of-wellness verified via ZK-Proofs.\r\n */\r\ncontract WellnessRewards is ReentrancyGuard, Pausable, MediSecureAuth {\r\n    using SafeERC20 for IERC20;\r\n\r\n    IERC20 public immutable sanjeevniToken;\r\n    address public zkpVerifier;\r\n\r\n    struct WellnessStreak {\r\n        uint256 count;\r\n        uint256 lastProofTimestamp;\r\n    }\r\n\r\n    mapping(address => WellnessStreak) public patientStreaks;\r\n    uint256 public rewardPerProof = 50 * 10**18;\r\n    uint256 public milestoneBonus = 500 * 10**18;\r\n    uint256 public minimumInterval = 25 days;\r\n\r\n    // Custom Errors\r\n    error StillInInterval();\r\n    error InvalidProof();\r\n    error NotPatient();\r\n\r\n    event WellnessVerified(address indexed patient, uint256 streakCount, uint256 reward);\r\n    event MilestoneReached(address indexed patient, uint256 milestone);\r\n\r\n    constructor(address _accessControl, address _forwarder, address _token, address _verifier) \r\n        MediSecureAuth(_accessControl, _forwarder) \r\n    {\r\n        sanjeevniToken = IERC20(_token);\r\n        zkpVerifier = _verifier;\r\n    }\r\n\r\n    // Context Overrides to resolve conflicts\r\n    function _msgSender() internal view override(Context, ERC2771Context) returns (address) {\r\n        return ERC2771Context._msgSender();\r\n    }\r\n\r\n    function _msgData() internal view override(Context, ERC2771Context) returns (bytes calldata) {\r\n        return ERC2771Context._msgData();\r\n    }\r\n\r\n    function _contextSuffixLength() internal view override(Context, ERC2771Context) returns (uint256) {\r\n        return ERC2771Context._contextSuffixLength();\r\n    }\r\n\r\n    function submitWellnessProof(bytes calldata proof) external whenNotPaused nonReentrant {\r\n        _processWellnessProof(_msgSender(), proof);\r\n    }\r\n\r\n    /**\r\n     * @dev Allows an authorized relayer to submit proof on behalf of a patient.\r\n     * This is used when the server generates ZK-proofs for the patient.\r\n     */\r\n    function submitWellnessProofFor(address patient, bytes calldata proof) external onlyAdmin whenNotPaused nonReentrant {\r\n        _processWellnessProof(patient, proof);\r\n    }\r\n\r\n    function _processWellnessProof(address patient, bytes calldata proof) internal {\r\n        // require(IZKPVerifier(zkpVerifier).verifyWellness(proof), \"Invalid proof\");\r\n        \r\n        WellnessStreak storage streak = patientStreaks[patient];\r\n        \r\n        if (block.timestamp < streak.lastProofTimestamp + minimumInterval) {\r\n            revert StillInInterval();\r\n        }\r\n\r\n        streak.count++;\r\n        streak.lastProofTimestamp = block.timestamp;\r\n\r\n        sanjeevniToken.safeTransfer(patient, rewardPerProof);\r\n        \r\n        uint256 totalReward = rewardPerProof;\r\n        if (streak.count % 5 == 0) {\r\n            sanjeevniToken.safeTransfer(patient, milestoneBonus);\r\n            totalReward += milestoneBonus;\r\n            emit MilestoneReached(patient, streak.count);\r\n        }\r\n\r\n        emit WellnessVerified(patient, streak.count, totalReward);\r\n    }\r\n\r\n    function setRewardAmounts(uint256 _base, uint256 _bonus) external onlyAdmin {\r\n        rewardPerProof = _base;\r\n        milestoneBonus = _bonus;\r\n    }\r\n\r\n    function setInterval(uint256 _interval) external onlyAdmin {\r\n        minimumInterval = _interval;\r\n    }\r\n\r\n    function setVerifier(address _verifier) external onlyAdmin {\r\n        zkpVerifier = _verifier;\r\n    }\r\n\r\n    function fundRewardPool(uint256 amount) external {\r\n        sanjeevniToken.safeTransferFrom(_msgSender(), address(this), amount);\r\n    }\r\n}\r\n",
  "sourcePath": "C:\\Users\\night\\Downloads\\team-rocket-medi-secure\\team-rocket-medi-secure\\contracts\\contracts\\WellnessRewards.sol",
  "compiler": {
    "name": "solc",
    "version": "0.8.20+commit.a1b79de6.Emscripten.clang"
  },
  "schemaVersion": "3.4.16",
  "updatedAt": "2026-04-24T10:38:31.193Z",
  "networkType": "ethereum",
  "devdoc": {
    "details": "Incentivizes patients to maintain healthy vitals using $SANJ rebates. Supports proof-of-wellness verified via ZK-Proofs.",
    "errors": {
      "AddressEmptyCode(address)": [
        {
          "details": "There's no code at `target` (it is not a contract)."
        }
      ],
      "AddressInsufficientBalance(address)": [
        {
          "details": "The ETH balance of the account is not enough to perform the operation."
        }
      ],
      "EnforcedPause()": [
        {
          "details": "The operation failed because the contract is paused."
        }
      ],
      "ExpectedPause()": [
        {
          "details": "The operation failed because the contract is not paused."
        }
      ],
      "FailedInnerCall()": [
        {
          "details": "A call to an address target failed. The target may have reverted."
        }
      ],
      "ReentrancyGuardReentrantCall()": [
        {
          "details": "Unauthorized reentrant call."
        }
      ],
      "SafeERC20FailedOperation(address)": [
        {
          "details": "An operation with an ERC20 token failed."
        }
      ]
    },
    "events": {
      "Paused(address)": {
        "details": "Emitted when the pause is triggered by `account`."
      },
      "Unpaused(address)": {
        "details": "Emitted when the pause is lifted by `account`."
      }
    },
    "kind": "dev",
    "methods": {
      "isTrustedForwarder(address)": {
        "details": "Indicates whether any particular address is the trusted forwarder."
      },
      "paused()": {
        "details": "Returns true if the contract is paused, and false otherwise."
      },
      "submitWellnessProofFor(address,bytes)": {
        "details": "Allows an authorized relayer to submit proof on behalf of a patient. This is used when the server generates ZK-proofs for the patient."
      },
      "trustedForwarder()": {
        "details": "Returns the address of the trusted forwarder."
      }
    },
    "title": "WellnessRewards",
    "version": 1
  },
  "userdoc": {
    "kind": "user",
    "methods": {},
    "version": 1
  },
  "timeoutBlocks": 500
}