{
  "_format": "hh-sol-artifact-1",
  "contractName": "InsuranceFuzzTest",
  "sourceName": "contracts/InsuranceFuzzTest.sol",
  "abi": [
    {
      "inputs": [],
      "stateMutability": "nonpayable",
      "type": "constructor"
    },
    {
      "inputs": [
        {
          "internalType": "address",
          "name": "owner",
          "type": "address"
        }
      ],
      "name": "OwnableInvalidOwner",
      "type": "error"
    },
    {
      "inputs": [
        {
          "internalType": "address",
          "name": "account",
          "type": "address"
        }
      ],
      "name": "OwnableUnauthorizedAccount",
      "type": "error"
    },
    {
      "inputs": [],
      "name": "ReentrancyGuardReentrantCall",
      "type": "error"
    },
    {
      "anonymous": false,
      "inputs": [
        {
          "indexed": true,
          "internalType": "address",
          "name": "previousOwner",
          "type": "address"
        },
        {
          "indexed": true,
          "internalType": "address",
          "name": "newOwner",
          "type": "address"
        }
      ],
      "name": "OwnershipTransferred",
      "type": "event"
    },
    {
      "inputs": [
        {
          "internalType": "address",
          "name": "_provider",
          "type": "address"
        }
      ],
      "name": "createPolicy",
      "outputs": [],
      "stateMutability": "nonpayable",
      "type": "function"
    },
    {
      "inputs": [
        {
          "internalType": "address",
          "name": "_patient",
          "type": "address"
        },
        {
          "internalType": "address",
          "name": "_provider",
          "type": "address"
        }
      ],
      "name": "createRequest",
      "outputs": [],
      "stateMutability": "nonpayable",
      "type": "function"
    },
    {
      "inputs": [
        {
          "internalType": "uint256",
          "name": "_requestId",
          "type": "uint256"
        },
        {
          "internalType": "address",
          "name": "_provider",
          "type": "address"
        }
      ],
      "name": "fuzz_finalize",
      "outputs": [],
      "stateMutability": "nonpayable",
      "type": "function"
    },
    {
      "inputs": [
        {
          "internalType": "address",
          "name": "_verifier",
          "type": "address"
        }
      ],
      "name": "fuzz_setVerifier",
      "outputs": [],
      "stateMutability": "nonpayable",
      "type": "function"
    },
    {
      "inputs": [
        {
          "internalType": "uint256",
          "name": "_requestId",
          "type": "uint256"
        },
        {
          "internalType": "bool",
          "name": "_eligible",
          "type": "bool"
        }
      ],
      "name": "fuzz_submitProof",
      "outputs": [],
      "stateMutability": "nonpayable",
      "type": "function"
    },
    {
      "inputs": [],
      "name": "invariant_active_policy_has_provider",
      "outputs": [],
      "stateMutability": "view",
      "type": "function"
    },
    {
      "inputs": [],
      "name": "invariant_finalized_must_be_verified",
      "outputs": [],
      "stateMutability": "view",
      "type": "function"
    },
    {
      "inputs": [],
      "name": "invariant_request_bounds",
      "outputs": [],
      "stateMutability": "view",
      "type": "function"
    },
    {
      "inputs": [],
      "name": "invariant_verifier_consistency",
      "outputs": [],
      "stateMutability": "view",
      "type": "function"
    },
    {
      "inputs": [
        {
          "internalType": "address",
          "name": "",
          "type": "address"
        }
      ],
      "name": "isProvider",
      "outputs": [
        {
          "internalType": "bool",
          "name": "",
          "type": "bool"
        }
      ],
      "stateMutability": "view",
      "type": "function"
    },
    {
      "inputs": [],
      "name": "lastPatient",
      "outputs": [
        {
          "internalType": "address",
          "name": "",
          "type": "address"
        }
      ],
      "stateMutability": "view",
      "type": "function"
    },
    {
      "inputs": [],
      "name": "lastPolicyId",
      "outputs": [
        {
          "internalType": "uint256",
          "name": "",
          "type": "uint256"
        }
      ],
      "stateMutability": "view",
      "type": "function"
    },
    {
      "inputs": [],
      "name": "lastProvider",
      "outputs": [
        {
          "internalType": "address",
          "name": "",
          "type": "address"
        }
      ],
      "stateMutability": "view",
      "type": "function"
    },
    {
      "inputs": [],
      "name": "lastRequestId",
      "outputs": [
        {
          "internalType": "uint256",
          "name": "",
          "type": "uint256"
        }
      ],
      "stateMutability": "view",
      "type": "function"
    },
    {
      "inputs": [],
      "name": "owner",
      "outputs": [
        {
          "internalType": "address",
          "name": "",
          "type": "address"
        }
      ],
      "stateMutability": "view",
      "type": "function"
    },
    {
      "inputs": [
        {
          "internalType": "address",
          "name": "",
          "type": "address"
        },
        {
          "internalType": "uint256",
          "name": "",
          "type": "uint256"
        }
      ],
      "name": "patientRequestIds",
      "outputs": [
        {
          "internalType": "uint256",
          "name": "",
          "type": "uint256"
        }
      ],
      "stateMutability": "view",
      "type": "function"
    },
    {
      "inputs": [
        {
          "internalType": "uint256",
          "name": "",
          "type": "uint256"
        }
      ],
      "name": "policyActive",
      "outputs": [
        {
          "internalType": "bool",
          "name": "",
          "type": "bool"
        }
      ],
      "stateMutability": "view",
      "type": "function"
    },
    {
      "inputs": [],
      "name": "policyCount",
      "outputs": [
        {
          "internalType": "uint256",
          "name": "",
          "type": "uint256"
        }
      ],
      "stateMutability": "view",
      "type": "function"
    },
    {
      "inputs": [
        {
          "internalType": "address",
          "name": "",
          "type": "address"
        },
        {
          "internalType": "uint256",
          "name": "",
          "type": "uint256"
        }
      ],
      "name": "providerPolicyIds",
      "outputs": [
        {
          "internalType": "uint256",
          "name": "",
          "type": "uint256"
        }
      ],
      "stateMutability": "view",
      "type": "function"
    },
    {
      "inputs": [
        {
          "internalType": "address",
          "name": "_provider",
          "type": "address"
        }
      ],
      "name": "registerProvider",
      "outputs": [],
      "stateMutability": "nonpayable",
      "type": "function"
    },
    {
      "inputs": [],
      "name": "renounceOwnership",
      "outputs": [],
      "stateMutability": "nonpayable",
      "type": "function"
    },
    {
      "inputs": [],
      "name": "requestCount",
      "outputs": [
        {
          "internalType": "uint256",
          "name": "",
          "type": "uint256"
        }
      ],
      "stateMutability": "view",
      "type": "function"
    },
    {
      "inputs": [
        {
          "internalType": "uint256",
          "name": "",
          "type": "uint256"
        }
      ],
      "name": "requestFinalized",
      "outputs": [
        {
          "internalType": "bool",
          "name": "",
          "type": "bool"
        }
      ],
      "stateMutability": "view",
      "type": "function"
    },
    {
      "inputs": [
        {
          "internalType": "uint256",
          "name": "",
          "type": "uint256"
        }
      ],
      "name": "requestVerified",
      "outputs": [
        {
          "internalType": "bool",
          "name": "",
          "type": "bool"
        }
      ],
      "stateMutability": "view",
      "type": "function"
    },
    {
      "inputs": [
        {
          "internalType": "address",
          "name": "newOwner",
          "type": "address"
        }
      ],
      "name": "transferOwnership",
      "outputs": [],
      "stateMutability": "nonpayable",
      "type": "function"
    },
    {
      "inputs": [],
      "name": "zkpVerifier",
      "outputs": [
        {
          "internalType": "address",
          "name": "",
          "type": "address"
        }
      ],
      "stateMutability": "view",
      "type": "function"
    }
  ],
  "bytecode": "0x6080604052600060088190556009819055600b819055600c55600d80546001600160a01b0319908116909155600e8054909116905534801561004057600080fd5b506001600055338061006c57604051631e4fbdf760e01b81526000600482015260240160405180910390fd5b6100758161007b565b506100cd565b600180546001600160a01b038381166001600160a01b0319831681179093556040519116919082907f8be0079c531659141344cd1fd0a4f28419497f9722a3daafe3b4186f6b6457e090600090a35050565b6108c1806100dc6000396000f3fe608060405234801561001057600080fd5b506004361061018e5760003560e01c8063825716ca116100de578063b6eef60211610097578063ebb92b4011610071578063ebb92b4014610365578063f2fde38b1461036d578063f8530d5a14610380578063fc2a88c3146103a357600080fd5b8063b6eef60214610336578063de54d42914610349578063ea29a4841461035257600080fd5b8063825716ca146102d45780638c5f27a0146102f75780638da5cb5b1461030a578063915799f21461031b57806394b69efb146103235780639978e0d01461019357600080fd5b806335bba9351161014b5780635badbe4c116101255780635badbe4c1461028d5780636aebbd66146102965780636b074a07146102a9578063715018a6146102cc57600080fd5b806335bba9351461023e5780634a096d2b146102475780635951a0e11461027a57600080fd5b8063065817fb146101935780630e260016146101955780631dc3533b146101c757806328195898146101ed5780632a9220de146102005780632d609baf14610213575b600080fd5b005b6101936101a336600461075e565b6001600160a01b03166000908152600260205260409020805460ff19166001179055565b6101da6101d5366004610780565b6103ae565b6040519081526020015b60405180910390f35b6101936101fb3660046107aa565b6103df565b61019361020e36600461075e565b610430565b600e54610226906001600160a01b031681565b6040516001600160a01b0390911681526020016101e4565b6101da600b5481565b61026a6102553660046107df565b60036020526000908152604090205460ff1681565b60405190151581526020016101e4565b6101936102883660046107f8565b610466565b6101da60095481565b600a54610226906001600160a01b031681565b61026a6102b736600461075e565b60026020526000908152604090205460ff1681565b610193610500565b61026a6102e23660046107df565b60056020526000908152604090205460ff1681565b600d54610226906001600160a01b031681565b6001546001600160a01b0316610226565b610193610512565b61019361033136600461082b565b61056a565b61019361034436600461075e565b6105d9565b6101da60085481565b6101da610360366004610780565b61063f565b61019361065b565b61019361037b36600461075e565b610683565b61026a61038e3660046107df565b60046020526000908152604090205460ff1681565b6101da600c5481565b565b600760205281600052604060002081815481106103ca57600080fd5b90600052602060002001600091509150505481565b6000821180156103f157506009548211155b1561042c5780801561040d5750600e546001600160a01b031615155b1561042c576000828152600460205260409020805460ff191660011790555b5050565b6104386106c3565b6001600160a01b0381161561046357600a80546001600160a01b0319166001600160a01b0383161790555b50565b600980549060006104768361084e565b9091555050600980546000908152600460209081526040808320805460ff199081169091558454845260058352818420805490911690556001600160a01b03958616808452600783529083208454815460018101835591855292909320909201559054600c55600e80546001600160a01b03199081169092179055600d8054929093169116179055565b6105086106c3565b6103ac60006106f0565b60015b60095481116104635760008181526005602052604090205460ff16156105585760008181526004602052604090205460ff16151560011461055857610558610875565b806105628161084e565b915050610515565b60008211801561057c57506009548211155b80156105a057506001600160a01b03811660009081526002602052604090205460ff165b1561042c5760008281526004602052604090205460ff161561042c576000828152600560205260409020805460ff191660011790555050565b600880549060006105e98361084e565b9091555050600880546000908152600360209081526040808320805460ff191660019081179091556001600160a01b03909516835260068252822083548154958601825590835291209092019190915554600b55565b600660205281600052604060002081815481106103ca57600080fd5b60015b600854811161046357600081905260036020528061067b8161084e565b91505061065e565b61068b6106c3565b6001600160a01b0381166106ba57604051631e4fbdf760e01b8152600060048201526024015b60405180910390fd5b610463816106f0565b6001546001600160a01b031633146103ac5760405163118cdaa760e01b81523360048201526024016106b1565b600180546001600160a01b038381166001600160a01b0319831681179093556040519116919082907f8be0079c531659141344cd1fd0a4f28419497f9722a3daafe3b4186f6b6457e090600090a35050565b80356001600160a01b038116811461075957600080fd5b919050565b60006020828403121561077057600080fd5b61077982610742565b9392505050565b6000806040838503121561079357600080fd5b61079c83610742565b946020939093013593505050565b600080604083850312156107bd57600080fd5b82359150602083013580151581146107d457600080fd5b809150509250929050565b6000602082840312156107f157600080fd5b5035919050565b6000806040838503121561080b57600080fd5b61081483610742565b915061082260208401610742565b90509250929050565b6000806040838503121561083e57600080fd5b8235915061082260208401610742565b60006001820161086e57634e487b7160e01b600052601160045260246000fd5b5060010190565b634e487b7160e01b600052600160045260246000fdfea264697066735822122027df9f8443bc4ce9fca8bb519b572caf29178d7417c414946268f6fb5701629464736f6c63430008140033",
  "linkReferences": {},
  "deployedLinkReferences": {}
}