{
  "_format": "hh-sol-artifact-1",
  "contractName": "SanjeevniToken",
  "sourceName": "contracts/SanjeevniToken.sol",
  "abi": [
    {
      "inputs": [],
      "stateMutability": "nonpayable",
      "type": "constructor"
    },
    {
      "inputs": [],
      "name": "BlacklistedAccount",
      "type": "error"
    },
    {
      "inputs": [
        {
          "internalType": "address",
          "name": "spender",
          "type": "address"
        },
        {
          "internalType": "uint256",
          "name": "allowance",
          "type": "uint256"
        },
        {
          "internalType": "uint256",
          "name": "needed",
          "type": "uint256"
        }
      ],
      "name": "ERC20InsufficientAllowance",
      "type": "error"
    },
    {
      "inputs": [
        {
          "internalType": "address",
          "name": "sender",
          "type": "address"
        },
        {
          "internalType": "uint256",
          "name": "balance",
          "type": "uint256"
        },
        {
          "internalType": "uint256",
          "name": "needed",
          "type": "uint256"
        }
      ],
      "name": "ERC20InsufficientBalance",
      "type": "error"
    },
    {
      "inputs": [
        {
          "internalType": "address",
          "name": "approver",
          "type": "address"
        }
      ],
      "name": "ERC20InvalidApprover",
      "type": "error"
    },
    {
      "inputs": [
        {
          "internalType": "address",
          "name": "receiver",
          "type": "address"
        }
      ],
      "name": "ERC20InvalidReceiver",
      "type": "error"
    },
    {
      "inputs": [
        {
          "internalType": "address",
          "name": "sender",
          "type": "address"
        }
      ],
      "name": "ERC20InvalidSender",
      "type": "error"
    },
    {
      "inputs": [
        {
          "internalType": "address",
          "name": "spender",
          "type": "address"
        }
      ],
      "name": "ERC20InvalidSpender",
      "type": "error"
    },
    {
      "inputs": [],
      "name": "EnforcedPause",
      "type": "error"
    },
    {
      "inputs": [],
      "name": "ExpectedPause",
      "type": "error"
    },
    {
      "inputs": [],
      "name": "LengthMismatch",
      "type": "error"
    },
    {
      "inputs": [],
      "name": "MaxSupplyExceeded",
      "type": "error"
    },
    {
      "inputs": [],
      "name": "NotMinter",
      "type": "error"
    },
    {
      "inputs": [
        {
          "internalType": "address",
          "name": "owner",
          "type": "address"
        }
      ],
      "name": "OwnableInvalidOwner",
      "type": "error"
    },
    {
      "inputs": [
        {
          "internalType": "address",
          "name": "account",
          "type": "address"
        }
      ],
      "name": "OwnableUnauthorizedAccount",
      "type": "error"
    },
    {
      "inputs": [],
      "name": "ZeroAddress",
      "type": "error"
    },
    {
      "anonymous": false,
      "inputs": [
        {
          "indexed": true,
          "internalType": "address",
          "name": "owner",
          "type": "address"
        },
        {
          "indexed": true,
          "internalType": "address",
          "name": "spender",
          "type": "address"
        },
        {
          "indexed": false,
          "internalType": "uint256",
          "name": "value",
          "type": "uint256"
        }
      ],
      "name": "Approval",
      "type": "event"
    },
    {
      "anonymous": false,
      "inputs": [
        {
          "indexed": true,
          "internalType": "address",
          "name": "account",
          "type": "address"
        },
        {
          "indexed": false,
          "internalType": "bool",
          "name": "status",
          "type": "bool"
        }
      ],
      "name": "Blacklisted",
      "type": "event"
    },
    {
      "anonymous": false,
      "inputs": [
        {
          "indexed": true,
          "internalType": "address",
          "name": "minter",
          "type": "address"
        }
      ],
      "name": "MinterAdded",
      "type": "event"
    },
    {
      "anonymous": false,
      "inputs": [
        {
          "indexed": true,
          "internalType": "address",
          "name": "minter",
          "type": "address"
        }
      ],
      "name": "MinterRemoved",
      "type": "event"
    },
    {
      "anonymous": false,
      "inputs": [
        {
          "indexed": true,
          "internalType": "address",
          "name": "previousOwner",
          "type": "address"
        },
        {
          "indexed": true,
          "internalType": "address",
          "name": "newOwner",
          "type": "address"
        }
      ],
      "name": "OwnershipTransferred",
      "type": "event"
    },
    {
      "anonymous": false,
      "inputs": [
        {
          "indexed": false,
          "internalType": "address",
          "name": "account",
          "type": "address"
        }
      ],
      "name": "Paused",
      "type": "event"
    },
    {
      "anonymous": false,
      "inputs": [
        {
          "indexed": true,
          "internalType": "address",
          "name": "to",
          "type": "address"
        },
        {
          "indexed": false,
          "internalType": "uint256",
          "name": "amount",
          "type": "uint256"
        }
      ],
      "name": "TokensMinted",
      "type": "event"
    },
    {
      "anonymous": false,
      "inputs": [
        {
          "indexed": true,
          "internalType": "address",
          "name": "from",
          "type": "address"
        },
        {
          "indexed": true,
          "internalType": "address",
          "name": "to",
          "type": "address"
        },
        {
          "indexed": false,
          "internalType": "uint256",
          "name": "value",
          "type": "uint256"
        }
      ],
      "name": "Transfer",
      "type": "event"
    },
    {
      "anonymous": false,
      "inputs": [
        {
          "indexed": false,
          "internalType": "address",
          "name": "account",
          "type": "address"
        }
      ],
      "name": "Unpaused",
      "type": "event"
    },
    {
      "inputs": [],
      "name": "MAX_SUPPLY",
      "outputs": [
        {
          "internalType": "uint256",
          "name": "",
          "type": "uint256"
        }
      ],
      "stateMutability": "view",
      "type": "function"
    },
    {
      "inputs": [
        {
          "internalType": "address",
          "name": "_minter",
          "type": "address"
        }
      ],
      "name": "addMinter",
      "outputs": [],
      "stateMutability": "nonpayable",
      "type": "function"
    },
    {
      "inputs": [
        {
          "internalType": "address",
          "name": "owner",
          "type": "address"
        },
        {
          "internalType": "address",
          "name": "spender",
          "type": "address"
        }
      ],
      "name": "allowance",
      "outputs": [
        {
          "internalType": "uint256",
          "name": "",
          "type": "uint256"
        }
      ],
      "stateMutability": "view",
      "type": "function"
    },
    {
      "inputs": [
        {
          "internalType": "address",
          "name": "spender",
          "type": "address"
        },
        {
          "internalType": "uint256",
          "name": "value",
          "type": "uint256"
        }
      ],
      "name": "approve",
      "outputs": [
        {
          "internalType": "bool",
          "name": "",
          "type": "bool"
        }
      ],
      "stateMutability": "nonpayable",
      "type": "function"
    },
    {
      "inputs": [
        {
          "internalType": "address",
          "name": "account",
          "type": "address"
        }
      ],
      "name": "balanceOf",
      "outputs": [
        {
          "internalType": "uint256",
          "name": "",
          "type": "uint256"
        }
      ],
      "stateMutability": "view",
      "type": "function"
    },
    {
      "inputs": [
        {
          "internalType": "address[]",
          "name": "_recipients",
          "type": "address[]"
        },
        {
          "internalType": "uint256[]",
          "name": "_amounts",
          "type": "uint256[]"
        }
      ],
      "name": "batchMint",
      "outputs": [],
      "stateMutability": "nonpayable",
      "type": "function"
    },
    {
      "inputs": [
        {
          "internalType": "address",
          "name": "_account",
          "type": "address"
        },
        {
          "internalType": "bool",
          "name": "_status",
          "type": "bool"
        }
      ],
      "name": "blacklist",
      "outputs": [],
      "stateMutability": "nonpayable",
      "type": "function"
    },
    {
      "inputs": [
        {
          "internalType": "address",
          "name": "",
          "type": "address"
        }
      ],
      "name": "blacklisted",
      "outputs": [
        {
          "internalType": "bool",
          "name": "",
          "type": "bool"
        }
      ],
      "stateMutability": "view",
      "type": "function"
    },
    {
      "inputs": [
        {
          "internalType": "uint256",
          "name": "value",
          "type": "uint256"
        }
      ],
      "name": "burn",
      "outputs": [],
      "stateMutability": "nonpayable",
      "type": "function"
    },
    {
      "inputs": [
        {
          "internalType": "address",
          "name": "account",
          "type": "address"
        },
        {
          "internalType": "uint256",
          "name": "value",
          "type": "uint256"
        }
      ],
      "name": "burnFrom",
      "outputs": [],
      "stateMutability": "nonpayable",
      "type": "function"
    },
    {
      "inputs": [],
      "name": "decimals",
      "outputs": [
        {
          "internalType": "uint8",
          "name": "",
          "type": "uint8"
        }
      ],
      "stateMutability": "view",
      "type": "function"
    },
    {
      "inputs": [],
      "name": "getStats",
      "outputs": [
        {
          "internalType": "uint256",
          "name": "totalSupply_",
          "type": "uint256"
        },
        {
          "internalType": "uint256",
          "name": "maxSupply",
          "type": "uint256"
        },
        {
          "internalType": "uint256",
          "name": "circulating",
          "type": "uint256"
        },
        {
          "internalType": "uint256",
          "name": "minted",
          "type": "uint256"
        }
      ],
      "stateMutability": "view",
      "type": "function"
    },
    {
      "inputs": [
        {
          "internalType": "address",
          "name": "_to",
          "type": "address"
        },
        {
          "internalType": "uint256",
          "name": "_amount",
          "type": "uint256"
        }
      ],
      "name": "mint",
      "outputs": [],
      "stateMutability": "nonpayable",
      "type": "function"
    },
    {
      "inputs": [
        {
          "internalType": "address",
          "name": "",
          "type": "address"
        }
      ],
      "name": "minters",
      "outputs": [
        {
          "internalType": "bool",
          "name": "",
          "type": "bool"
        }
      ],
      "stateMutability": "view",
      "type": "function"
    },
    {
      "inputs": [],
      "name": "name",
      "outputs": [
        {
          "internalType": "string",
          "name": "",
          "type": "string"
        }
      ],
      "stateMutability": "view",
      "type": "function"
    },
    {
      "inputs": [],
      "name": "owner",
      "outputs": [
        {
          "internalType": "address",
          "name": "",
          "type": "address"
        }
      ],
      "stateMutability": "view",
      "type": "function"
    },
    {
      "inputs": [],
      "name": "pause",
      "outputs": [],
      "stateMutability": "nonpayable",
      "type": "function"
    },
    {
      "inputs": [],
      "name": "paused",
      "outputs": [
        {
          "internalType": "bool",
          "name": "",
          "type": "bool"
        }
      ],
      "stateMutability": "view",
      "type": "function"
    },
    {
      "inputs": [
        {
          "internalType": "address",
          "name": "_minter",
          "type": "address"
        }
      ],
      "name": "removeMinter",
      "outputs": [],
      "stateMutability": "nonpayable",
      "type": "function"
    },
    {
      "inputs": [],
      "name": "renounceOwnership",
      "outputs": [],
      "stateMutability": "nonpayable",
      "type": "function"
    },
    {
      "inputs": [],
      "name": "symbol",
      "outputs": [
        {
          "internalType": "string",
          "name": "",
          "type": "string"
        }
      ],
      "stateMutability": "view",
      "type": "function"
    },
    {
      "inputs": [],
      "name": "totalMinted",
      "outputs": [
        {
          "internalType": "uint256",
          "name": "",
          "type": "uint256"
        }
      ],
      "stateMutability": "view",
      "type": "function"
    },
    {
      "inputs": [],
      "name": "totalSupply",
      "outputs": [
        {
          "internalType": "uint256",
          "name": "",
          "type": "uint256"
        }
      ],
      "stateMutability": "view",
      "type": "function"
    },
    {
      "inputs": [
        {
          "internalType": "address",
          "name": "_to",
          "type": "address"
        },
        {
          "internalType": "uint256",
          "name": "_amount",
          "type": "uint256"
        }
      ],
      "name": "transfer",
      "outputs": [
        {
          "internalType": "bool",
          "name": "",
          "type": "bool"
        }
      ],
      "stateMutability": "nonpayable",
      "type": "function"
    },
    {
      "inputs": [
        {
          "internalType": "address",
          "name": "_from",
          "type": "address"
        },
        {
          "internalType": "address",
          "name": "_to",
          "type": "address"
        },
        {
          "internalType": "uint256",
          "name": "_amount",
          "type": "uint256"
        }
      ],
      "name": "transferFrom",
      "outputs": [
        {
          "internalType": "bool",
          "name": "",
          "type": "bool"
        }
      ],
      "stateMutability": "nonpayable",
      "type": "function"
    },
    {
      "inputs": [
        {
          "internalType": "address",
          "name": "newOwner",
          "type": "address"
        }
      ],
      "name": "transferOwnership",
      "outputs": [],
      "stateMutability": "nonpayable",
      "type": "function"
    },
    {
      "inputs": [],
      "name": "unpause",
      "outputs": [],
      "stateMutability": "nonpayable",
      "type": "function"
    }
  ],
  "bytecode": "0x60806040523480156200001157600080fd5b50336040518060400160405280600981526020016853616e6a6565766e6960b81b8152506040518060400160405280600481526020016329a0a72560e11b815250816003908162000063919062000347565b50600462000072828262000347565b50506005805460ff19169055506001600160a01b038116620000af57604051631e4fbdf760e01b8152600060048201526024015b60405180910390fd5b620000ba81620000d7565b50620000d13369d3c21bcecceda100000062000131565b6200043b565b600580546001600160a01b03838116610100818102610100600160a81b031985161790945560405193909204169182907f8be0079c531659141344cd1fd0a4f28419497f9722a3daafe3b4186f6b6457e090600090a35050565b6001600160a01b0382166200015d5760405163ec442f0560e01b815260006004820152602401620000a6565b6200016b600083836200016f565b5050565b6001600160a01b0383166200019e57806002600082825462000192919062000413565b90915550620002129050565b6001600160a01b03831660009081526020819052604090205481811015620001f35760405163391434e360e21b81526001600160a01b03851660048201526024810182905260448101839052606401620000a6565b6001600160a01b03841660009081526020819052604090209082900390555b6001600160a01b03821662000230576002805482900390556200024f565b6001600160a01b03821660009081526020819052604090208054820190555b816001600160a01b0316836001600160a01b03167fddf252ad1be2c89b69c2b068fc378daa952ba7f163c4a11628f55a4df523b3ef836040516200029591815260200190565b60405180910390a3505050565b634e487b7160e01b600052604160045260246000fd5b600181811c90821680620002cd57607f821691505b602082108103620002ee57634e487b7160e01b600052602260045260246000fd5b50919050565b601f8211156200034257600081815260208120601f850160051c810160208610156200031d5750805b601f850160051c820191505b818110156200033e5782815560010162000329565b5050505b505050565b81516001600160401b03811115620003635762000363620002a2565b6200037b81620003748454620002b8565b84620002f4565b602080601f831160018114620003b357600084156200039a5750858301515b600019600386901b1c1916600185901b1785556200033e565b600085815260208120601f198616915b82811015620003e457888601518255948401946001909101908401620003c3565b5085821015620004035787850151600019600388901b60f8161c191681555b5050505050600190811b01905550565b808201808211156200043557634e487b7160e01b600052601160045260246000fd5b92915050565b6112be806200044b6000396000f3fe608060405234801561001057600080fd5b50600436106101a95760003560e01c806370a08231116100f9578063a2309ff811610097578063dbac26e911610071578063dbac26e91461037d578063dd62ed3e146103a0578063f2fde38b146103d9578063f46eccc4146103ec57600080fd5b8063a2309ff814610339578063a9059cbb14610342578063c59d48471461035557600080fd5b80638456cb59116100d35780638456cb59146102ed5780638da5cb5b146102f557806395d89b411461031e578063983b2d561461032657600080fd5b806370a08231146102a9578063715018a6146102d257806379cc6790146102da57600080fd5b806332cb6b0c1161016657806340c10f191161014057806340c10f191461026557806342966c68146102785780635c975abb1461028b578063685731071461029657600080fd5b806332cb6b0c146102385780633f4ba83a1461024a578063404e51291461025257600080fd5b806306fdde03146101ae578063095ea7b3146101cc57806318160ddd146101ef57806323b872dd146102015780633092afd514610214578063313ce56714610229575b600080fd5b6101b661040f565b6040516101c39190610fb8565b60405180910390f35b6101df6101da366004611022565b6104a1565b60405190151581526020016101c3565b6002545b6040519081526020016101c3565b6101df61020f36600461104c565b6104bb565b610227610222366004611088565b610507565b005b604051601281526020016101c3565b6101f36a52b7d2dcc80cd2e400000081565b610227610558565b6102276102603660046110a3565b61056a565b610227610273366004611022565b6105d2565b6102276102863660046110df565b6106f7565b60055460ff166101df565b6102276102a4366004611144565b610704565b6101f36102b7366004611088565b6001600160a01b031660009081526020819052604090205490565b61022761094d565b6102276102e8366004611022565b61095f565b610227610978565b60055461010090046001600160a01b03166040516001600160a01b0390911681526020016101c3565b6101b6610988565b610227610334366004611088565b610997565b6101f360085481565b6101df610350366004611022565b6109eb565b61035d610a35565b6040805194855260208501939093529183015260608201526080016101c3565b6101df61038b366004611088565b60076020526000908152604090205460ff1681565b6101f36103ae3660046111b0565b6001600160a01b03918216600090815260016020908152604080832093909416825291909152205490565b6102276103e7366004611088565b610a89565b6101df6103fa366004611088565b60066020526000908152604090205460ff1681565b60606003805461041e906111e3565b80601f016020809104026020016040519081016040528092919081815260200182805461044a906111e3565b80156104975780601f1061046c57610100808354040283529160200191610497565b820191906000526020600020905b81548152906001019060200180831161047a57829003601f168201915b5050505050905090565b6000336104af818585610ac9565b60019150505b92915050565b3360009081526007602052604081205460ff16156104ec576040516364d09d6360e01b815260040160405180910390fd5b6104f4610adb565b6104ff848484610aff565b949350505050565b61050f610b23565b6001600160a01b038116600081815260066020526040808220805460ff19169055517fe94479a9f7e1952cc78f2d6baab678adc1b772d936c6583def489e524cb666929190a250565b610560610b23565b610568610b56565b565b610572610b23565b6001600160a01b038216600081815260076020908152604091829020805460ff191685151590811790915591519182527fcf3473b85df1594d47b6958f29a32bea0abff9dd68296f7bf33443646793cfd891015b60405180910390a25050565b3360009081526006602052604090205460ff16158015610614575060055461010090046001600160a01b03166001600160a01b0316336001600160a01b031614155b1561063257604051633e34a41b60e21b815260040160405180910390fd5b61063a610adb565b6001600160a01b0382166106615760405163d92e233d60e01b815260040160405180910390fd5b6a52b7d2dcc80cd2e40000008160085461067b9190611233565b111561069a57604051638a164f6360e01b815260040160405180910390fd5b80600860008282546106ac9190611233565b909155506106bc90508282610ba8565b816001600160a01b03167f3f2c9d57c068687834f0de942a9babb9e5acab57d516d3480a3c16ee165a4273826040516105c691815260200190565b6107013382610bde565b50565b3360009081526006602052604090205460ff16158015610746575060055461010090046001600160a01b03166001600160a01b0316336001600160a01b031614155b1561076457604051633e34a41b60e21b815260040160405180910390fd5b61076c610adb565b82811461078f576040516001621398b960e31b0319815260040160405180910390fd5b60005b838110156109465760008585838181106107ae576107ae611246565b90506020020160208101906107c39190611088565b6001600160a01b0316036107ea5760405163d92e233d60e01b815260040160405180910390fd5b6a52b7d2dcc80cd2e400000083838381811061080857610808611246565b9050602002013560085461081c9190611233565b111561083b57604051638a164f6360e01b815260040160405180910390fd5b82828281811061084d5761084d611246565b90506020020135600860008282546108659190611233565b909155506108b3905085858381811061088057610880611246565b90506020020160208101906108959190611088565b8484848181106108a7576108a7611246565b90506020020135610ba8565b8484828181106108c5576108c5611246565b90506020020160208101906108da9190611088565b6001600160a01b03167f3f2c9d57c068687834f0de942a9babb9e5acab57d516d3480a3c16ee165a427384848481811061091657610916611246565b9050602002013560405161092c91815260200190565b60405180910390a28061093e8161125c565b915050610792565b5050505050565b610955610b23565b6105686000610c14565b61096a823383610c6e565b6109748282610bde565b5050565b610980610b23565b610568610cec565b60606004805461041e906111e3565b61099f610b23565b6001600160a01b038116600081815260066020526040808220805460ff19166001179055517f6ae172837ea30b801fbfcdd4108aa1d5bf8ff775444fd70256b44e6bf3dfc3f69190a250565b3360009081526007602052604081205460ff1615610a1c576040516364d09d6360e01b815260040160405180910390fd5b610a24610adb565b610a2e8383610d29565b9392505050565b600080600080610a4460025490565b6a52b7d2dcc80cd2e4000000610a6b6102b76005546001600160a01b036101009091041690565b600254610a789190611275565b600854935093509350935090919293565b610a91610b23565b6001600160a01b038116610ac057604051631e4fbdf760e01b8152600060048201526024015b60405180910390fd5b61070181610c14565b610ad68383836001610d37565b505050565b60055460ff16156105685760405163d93c066560e01b815260040160405180910390fd5b600033610b0d858285610c6e565b610b18858585610e0c565b506001949350505050565b6005546001600160a01b036101009091041633146105685760405163118cdaa760e01b8152336004820152602401610ab7565b610b5e610e6b565b6005805460ff191690557f5db9ee0a495bf2e6ff9c91a7834c1ba4fdd244a5e8aa4e537bd38aeae4b073aa335b6040516001600160a01b03909116815260200160405180910390a1565b6001600160a01b038216610bd25760405163ec442f0560e01b815260006004820152602401610ab7565b61097460008383610e8e565b6001600160a01b038216610c0857604051634b637e8f60e11b815260006004820152602401610ab7565b61097482600083610e8e565b600580546001600160a01b03838116610100818102610100600160a81b031985161790945560405193909204169182907f8be0079c531659141344cd1fd0a4f28419497f9722a3daafe3b4186f6b6457e090600090a35050565b6001600160a01b038381166000908152600160209081526040808320938616835292905220546000198114610ce65781811015610cd757604051637dc7a0d960e11b81526001600160a01b03841660048201526024810182905260448101839052606401610ab7565b610ce684848484036000610d37565b50505050565b610cf4610adb565b6005805460ff191660011790557f62e78cea01bee320cd4e420270b5ea74000d11b0c9f74754ebdbfc544b05a258610b8b3390565b6000336104af818585610e0c565b6001600160a01b038416610d615760405163e602df0560e01b815260006004820152602401610ab7565b6001600160a01b038316610d8b57604051634a1406b160e11b815260006004820152602401610ab7565b6001600160a01b0380851660009081526001602090815260408083209387168352929052208290558015610ce657826001600160a01b0316846001600160a01b03167f8c5be1e5ebec7d5bd14f71427d1e84f3dd0314c0f7b2291e5b200ac8c7c3b92584604051610dfe91815260200190565b60405180910390a350505050565b6001600160a01b038316610e3657604051634b637e8f60e11b815260006004820152602401610ab7565b6001600160a01b038216610e605760405163ec442f0560e01b815260006004820152602401610ab7565b610ad6838383610e8e565b60055460ff1661056857604051638dfc202b60e01b815260040160405180910390fd5b6001600160a01b038316610eb9578060026000828254610eae9190611233565b90915550610f2b9050565b6001600160a01b03831660009081526020819052604090205481811015610f0c5760405163391434e360e21b81526001600160a01b03851660048201526024810182905260448101839052606401610ab7565b6001600160a01b03841660009081526020819052604090209082900390555b6001600160a01b038216610f4757600280548290039055610f66565b6001600160a01b03821660009081526020819052604090208054820190555b816001600160a01b0316836001600160a01b03167fddf252ad1be2c89b69c2b068fc378daa952ba7f163c4a11628f55a4df523b3ef83604051610fab91815260200190565b60405180910390a3505050565b600060208083528351808285015260005b81811015610fe557858101830151858201604001528201610fc9565b506000604082860101526040601f19601f8301168501019250505092915050565b80356001600160a01b038116811461101d57600080fd5b919050565b6000806040838503121561103557600080fd5b61103e83611006565b946020939093013593505050565b60008060006060848603121561106157600080fd5b61106a84611006565b925061107860208501611006565b9150604084013590509250925092565b60006020828403121561109a57600080fd5b610a2e82611006565b600080604083850312156110b657600080fd5b6110bf83611006565b9150602083013580151581146110d457600080fd5b809150509250929050565b6000602082840312156110f157600080fd5b5035919050565b60008083601f84011261110a57600080fd5b50813567ffffffffffffffff81111561112257600080fd5b6020830191508360208260051b850101111561113d57600080fd5b9250929050565b6000806000806040858703121561115a57600080fd5b843567ffffffffffffffff8082111561117257600080fd5b61117e888389016110f8565b9096509450602087013591508082111561119757600080fd5b506111a4878288016110f8565b95989497509550505050565b600080604083850312156111c357600080fd5b6111cc83611006565b91506111da60208401611006565b90509250929050565b600181811c908216806111f757607f821691505b60208210810361121757634e487b7160e01b600052602260045260246000fd5b50919050565b634e487b7160e01b600052601160045260246000fd5b808201808211156104b5576104b561121d565b634e487b7160e01b600052603260045260246000fd5b60006001820161126e5761126e61121d565b5060010190565b818103818111156104b5576104b561121d56fea26469706673582212200dad8ab7c94a119307f96a32f6bbdd8caf71e9566155e6bddd6888609c2c99ee64736f6c63430008140033",
  "linkReferences": {},
  "deployedLinkReferences": {}
}