{
  "_format": "hh-sol-artifact-1",
  "contractName": "ConsentSBT",
  "sourceName": "contracts/ConsentSBT.sol",
  "abi": [
    {
      "inputs": [
        {
          "internalType": "address",
          "name": "initialOwner",
          "type": "address"
        }
      ],
      "stateMutability": "nonpayable",
      "type": "constructor"
    },
    {
      "inputs": [
        {
          "internalType": "address",
          "name": "sender",
          "type": "address"
        },
        {
          "internalType": "uint256",
          "name": "tokenId",
          "type": "uint256"
        },
        {
          "internalType": "address",
          "name": "owner",
          "type": "address"
        }
      ],
      "name": "ERC721IncorrectOwner",
      "type": "error"
    },
    {
      "inputs": [
        {
          "internalType": "address",
          "name": "operator",
          "type": "address"
        },
        {
          "internalType": "uint256",
          "name": "tokenId",
          "type": "uint256"
        }
      ],
      "name": "ERC721InsufficientApproval",
      "type": "error"
    },
    {
      "inputs": [
        {
          "internalType": "address",
          "name": "approver",
          "type": "address"
        }
      ],
      "name": "ERC721InvalidApprover",
      "type": "error"
    },
    {
      "inputs": [
        {
          "internalType": "address",
          "name": "operator",
          "type": "address"
        }
      ],
      "name": "ERC721InvalidOperator",
      "type": "error"
    },
    {
      "inputs": [
        {
          "internalType": "address",
          "name": "owner",
          "type": "address"
        }
      ],
      "name": "ERC721InvalidOwner",
      "type": "error"
    },
    {
      "inputs": [
        {
          "internalType": "address",
          "name": "receiver",
          "type": "address"
        }
      ],
      "name": "ERC721InvalidReceiver",
      "type": "error"
    },
    {
      "inputs": [
        {
          "internalType": "address",
          "name": "sender",
          "type": "address"
        }
      ],
      "name": "ERC721InvalidSender",
      "type": "error"
    },
    {
      "inputs": [
        {
          "internalType": "uint256",
          "name": "tokenId",
          "type": "uint256"
        }
      ],
      "name": "ERC721NonexistentToken",
      "type": "error"
    },
    {
      "inputs": [],
      "name": "NotAuthorizedIssuer",
      "type": "error"
    },
    {
      "inputs": [
        {
          "internalType": "address",
          "name": "owner",
          "type": "address"
        }
      ],
      "name": "OwnableInvalidOwner",
      "type": "error"
    },
    {
      "inputs": [
        {
          "internalType": "address",
          "name": "account",
          "type": "address"
        }
      ],
      "name": "OwnableUnauthorizedAccount",
      "type": "error"
    },
    {
      "inputs": [],
      "name": "SoulboundRestriction",
      "type": "error"
    },
    {
      "anonymous": false,
      "inputs": [
        {
          "indexed": true,
          "internalType": "address",
          "name": "owner",
          "type": "address"
        },
        {
          "indexed": true,
          "internalType": "address",
          "name": "approved",
          "type": "address"
        },
        {
          "indexed": true,
          "internalType": "uint256",
          "name": "tokenId",
          "type": "uint256"
        }
      ],
      "name": "Approval",
      "type": "event"
    },
    {
      "anonymous": false,
      "inputs": [
        {
          "indexed": true,
          "internalType": "address",
          "name": "owner",
          "type": "address"
        },
        {
          "indexed": true,
          "internalType": "address",
          "name": "operator",
          "type": "address"
        },
        {
          "indexed": false,
          "internalType": "bool",
          "name": "approved",
          "type": "bool"
        }
      ],
      "name": "ApprovalForAll",
      "type": "event"
    },
    {
      "anonymous": false,
      "inputs": [
        {
          "indexed": false,
          "internalType": "uint256",
          "name": "_fromTokenId",
          "type": "uint256"
        },
        {
          "indexed": false,
          "internalType": "uint256",
          "name": "_toTokenId",
          "type": "uint256"
        }
      ],
      "name": "BatchMetadataUpdate",
      "type": "event"
    },
    {
      "anonymous": false,
      "inputs": [
        {
          "indexed": true,
          "internalType": "address",
          "name": "patient",
          "type": "address"
        },
        {
          "indexed": true,
          "internalType": "address",
          "name": "doctor",
          "type": "address"
        },
        {
          "indexed": false,
          "internalType": "uint256",
          "name": "tokenId",
          "type": "uint256"
        },
        {
          "indexed": false,
          "internalType": "string",
          "name": "uri",
          "type": "string"
        }
      ],
      "name": "ConsentIssued",
      "type": "event"
    },
    {
      "anonymous": false,
      "inputs": [
        {
          "indexed": true,
          "internalType": "address",
          "name": "patient",
          "type": "address"
        },
        {
          "indexed": true,
          "internalType": "address",
          "name": "doctor",
          "type": "address"
        },
        {
          "indexed": false,
          "internalType": "uint256",
          "name": "tokenId",
          "type": "uint256"
        }
      ],
      "name": "ConsentRevoked",
      "type": "event"
    },
    {
      "anonymous": false,
      "inputs": [
        {
          "indexed": false,
          "internalType": "uint256",
          "name": "_tokenId",
          "type": "uint256"
        }
      ],
      "name": "MetadataUpdate",
      "type": "event"
    },
    {
      "anonymous": false,
      "inputs": [
        {
          "indexed": true,
          "internalType": "address",
          "name": "previousOwner",
          "type": "address"
        },
        {
          "indexed": true,
          "internalType": "address",
          "name": "newOwner",
          "type": "address"
        }
      ],
      "name": "OwnershipTransferred",
      "type": "event"
    },
    {
      "anonymous": false,
      "inputs": [
        {
          "indexed": true,
          "internalType": "address",
          "name": "from",
          "type": "address"
        },
        {
          "indexed": true,
          "internalType": "address",
          "name": "to",
          "type": "address"
        },
        {
          "indexed": true,
          "internalType": "uint256",
          "name": "tokenId",
          "type": "uint256"
        }
      ],
      "name": "Transfer",
      "type": "event"
    },
    {
      "inputs": [
        {
          "internalType": "address",
          "name": "to",
          "type": "address"
        },
        {
          "internalType": "uint256",
          "name": "tokenId",
          "type": "uint256"
        }
      ],
      "name": "approve",
      "outputs": [],
      "stateMutability": "nonpayable",
      "type": "function"
    },
    {
      "inputs": [
        {
          "internalType": "address",
          "name": "owner",
          "type": "address"
        }
      ],
      "name": "balanceOf",
      "outputs": [
        {
          "internalType": "uint256",
          "name": "",
          "type": "uint256"
        }
      ],
      "stateMutability": "view",
      "type": "function"
    },
    {
      "inputs": [
        {
          "internalType": "uint256",
          "name": "tokenId",
          "type": "uint256"
        }
      ],
      "name": "getApproved",
      "outputs": [
        {
          "internalType": "address",
          "name": "",
          "type": "address"
        }
      ],
      "stateMutability": "view",
      "type": "function"
    },
    {
      "inputs": [
        {
          "internalType": "address",
          "name": "owner",
          "type": "address"
        },
        {
          "internalType": "address",
          "name": "operator",
          "type": "address"
        }
      ],
      "name": "isApprovedForAll",
      "outputs": [
        {
          "internalType": "bool",
          "name": "",
          "type": "bool"
        }
      ],
      "stateMutability": "view",
      "type": "function"
    },
    {
      "inputs": [
        {
          "internalType": "address",
          "name": "patient",
          "type": "address"
        },
        {
          "internalType": "address",
          "name": "doctor",
          "type": "address"
        },
        {
          "internalType": "string",
          "name": "uri",
          "type": "string"
        }
      ],
      "name": "mintConsent",
      "outputs": [
        {
          "internalType": "uint256",
          "name": "",
          "type": "uint256"
        }
      ],
      "stateMutability": "nonpayable",
      "type": "function"
    },
    {
      "inputs": [],
      "name": "name",
      "outputs": [
        {
          "internalType": "string",
          "name": "",
          "type": "string"
        }
      ],
      "stateMutability": "view",
      "type": "function"
    },
    {
      "inputs": [],
      "name": "owner",
      "outputs": [
        {
          "internalType": "address",
          "name": "",
          "type": "address"
        }
      ],
      "stateMutability": "view",
      "type": "function"
    },
    {
      "inputs": [
        {
          "internalType": "uint256",
          "name": "tokenId",
          "type": "uint256"
        }
      ],
      "name": "ownerOf",
      "outputs": [
        {
          "internalType": "address",
          "name": "",
          "type": "address"
        }
      ],
      "stateMutability": "view",
      "type": "function"
    },
    {
      "inputs": [],
      "name": "renounceOwnership",
      "outputs": [],
      "stateMutability": "nonpayable",
      "type": "function"
    },
    {
      "inputs": [
        {
          "internalType": "uint256",
          "name": "tokenId",
          "type": "uint256"
        }
      ],
      "name": "revokeConsent",
      "outputs": [],
      "stateMutability": "nonpayable",
      "type": "function"
    },
    {
      "inputs": [
        {
          "internalType": "address",
          "name": "from",
          "type": "address"
        },
        {
          "internalType": "address",
          "name": "to",
          "type": "address"
        },
        {
          "internalType": "uint256",
          "name": "tokenId",
          "type": "uint256"
        }
      ],
      "name": "safeTransferFrom",
      "outputs": [],
      "stateMutability": "nonpayable",
      "type": "function"
    },
    {
      "inputs": [
        {
          "internalType": "address",
          "name": "from",
          "type": "address"
        },
        {
          "internalType": "address",
          "name": "to",
          "type": "address"
        },
        {
          "internalType": "uint256",
          "name": "tokenId",
          "type": "uint256"
        },
        {
          "internalType": "bytes",
          "name": "data",
          "type": "bytes"
        }
      ],
      "name": "safeTransferFrom",
      "outputs": [],
      "stateMutability": "nonpayable",
      "type": "function"
    },
    {
      "inputs": [
        {
          "internalType": "address",
          "name": "operator",
          "type": "address"
        },
        {
          "internalType": "bool",
          "name": "approved",
          "type": "bool"
        }
      ],
      "name": "setApprovalForAll",
      "outputs": [],
      "stateMutability": "nonpayable",
      "type": "function"
    },
    {
      "inputs": [
        {
          "internalType": "bytes4",
          "name": "interfaceId",
          "type": "bytes4"
        }
      ],
      "name": "supportsInterface",
      "outputs": [
        {
          "internalType": "bool",
          "name": "",
          "type": "bool"
        }
      ],
      "stateMutability": "view",
      "type": "function"
    },
    {
      "inputs": [],
      "name": "symbol",
      "outputs": [
        {
          "internalType": "string",
          "name": "",
          "type": "string"
        }
      ],
      "stateMutability": "view",
      "type": "function"
    },
    {
      "inputs": [
        {
          "internalType": "uint256",
          "name": "",
          "type": "uint256"
        }
      ],
      "name": "tokenIssuers",
      "outputs": [
        {
          "internalType": "address",
          "name": "",
          "type": "address"
        }
      ],
      "stateMutability": "view",
      "type": "function"
    },
    {
      "inputs": [
        {
          "internalType": "uint256",
          "name": "tokenId",
          "type": "uint256"
        }
      ],
      "name": "tokenURI",
      "outputs": [
        {
          "internalType": "string",
          "name": "",
          "type": "string"
        }
      ],
      "stateMutability": "view",
      "type": "function"
    },
    {
      "inputs": [
        {
          "internalType": "address",
          "name": "from",
          "type": "address"
        },
        {
          "internalType": "address",
          "name": "to",
          "type": "address"
        },
        {
          "internalType": "uint256",
          "name": "tokenId",
          "type": "uint256"
        }
      ],
      "name": "transferFrom",
      "outputs": [],
      "stateMutability": "nonpayable",
      "type": "function"
    },
    {
      "inputs": [
        {
          "internalType": "address",
          "name": "newOwner",
          "type": "address"
        }
      ],
      "name": "transferOwnership",
      "outputs": [],
      "stateMutability": "nonpayable",
      "type": "function"
    }
  ],
  "bytecode": "0x60806040523480156200001157600080fd5b506040516200197a3803806200197a833981016040819052620000349162000138565b806040518060400160405280601181526020017014d85b9a99595d9b9a4810dbdb9cd95b9d607a1b8152506040518060400160405280600981526020016814cb50d3d394d1539560ba1b81525081600090816200009291906200020f565b506001620000a182826200020f565b5050506001600160a01b038116620000d357604051631e4fbdf760e01b81526000600482015260240160405180910390fd5b620000de81620000e6565b5050620002db565b600780546001600160a01b038381166001600160a01b0319831681179093556040519116919082907f8be0079c531659141344cd1fd0a4f28419497f9722a3daafe3b4186f6b6457e090600090a35050565b6000602082840312156200014b57600080fd5b81516001600160a01b03811681146200016357600080fd5b9392505050565b634e487b7160e01b600052604160045260246000fd5b600181811c908216806200019557607f821691505b602082108103620001b657634e487b7160e01b600052602260045260246000fd5b50919050565b601f8211156200020a57600081815260208120601f850160051c81016020861015620001e55750805b601f850160051c820191505b818110156200020657828155600101620001f1565b5050505b505050565b81516001600160401b038111156200022b576200022b6200016a565b62000243816200023c845462000180565b84620001bc565b602080601f8311600181146200027b5760008415620002625750858301515b600019600386901b1c1916600185901b17855562000206565b600085815260208120601f198616915b82811015620002ac578886015182559484019460019091019084016200028b565b5085821015620002cb5787850151600019600388901b60f8161c191681555b5050505050600190811b01905550565b61168f80620002eb6000396000f3fe608060405234801561001057600080fd5b50600436106101215760003560e01c8063715018a6116100ad578063b7abc58d11610071578063b7abc58d14610257578063b88d4fde14610280578063c87b56dd14610293578063e985e9c5146102a6578063f2fde38b146102b957600080fd5b8063715018a61461021057806383170ca2146102185780638da5cb5b1461022b57806395d89b411461023c578063a22cb4651461024457600080fd5b806316a0042c116100f457806316a0042c146101a357806323b872dd146101b657806342842e0e146101c95780636352211e146101dc57806370a08231146101ef57600080fd5b806301ffc9a71461012657806306fdde031461014e578063081812fc14610163578063095ea7b31461018e575b600080fd5b610139610134366004611129565b6102cc565b60405190151581526020015b60405180910390f35b6101566102dd565b6040516101459190611196565b6101766101713660046111a9565b61036f565b6040516001600160a01b039091168152602001610145565b6101a161019c3660046111de565b610398565b005b6101a16101b13660046111a9565b6103a7565b6101a16101c4366004611208565b610479565b6101a16101d7366004611208565b610509565b6101766101ea3660046111a9565b610529565b6102026101fd366004611244565b610534565b604051908152602001610145565b6101a161057c565b6102026102263660046112eb565b610590565b6007546001600160a01b0316610176565b610156610638565b6101a161025236600461135d565b610647565b6101766102653660046111a9565b6009602052600090815260409020546001600160a01b031681565b6101a161028e366004611399565b610652565b6101566102a13660046111a9565b610669565b6101396102b4366004611415565b610674565b6101a16102c7366004611244565b6106a2565b60006102d7826106e0565b92915050565b6060600080546102ec90611448565b80601f016020809104026020016040519081016040528092919081815260200182805461031890611448565b80156103655780601f1061033a57610100808354040283529160200191610365565b820191906000526020600020905b81548152906001019060200180831161034857829003601f168201915b5050505050905090565b600061037a82610705565b506000828152600460205260409020546001600160a01b03166102d7565b6103a382823361073e565b5050565b6000818152600960205260409020546001600160a01b03163381148015906103da57506007546001600160a01b03163314155b156103f8576040516306aaf4f160e31b815260040160405180910390fd5b600061040383610529565b905061040e8361074b565b6000838152600960205260409081902080546001600160a01b0319169055516001600160a01b0382811691908416907fb975ee8b7b7c48fd313db9b5ca976e213d1d7bd3136fc5c926dd5ff00077e47f9061046c9087815260200190565b60405180910390a3505050565b6001600160a01b0382166104a857604051633250574960e11b8152600060048201526024015b60405180910390fd5b60006104b5838333610786565b9050836001600160a01b0316816001600160a01b031614610503576040516364283d7b60e01b81526001600160a01b038086166004830152602482018490528216604482015260640161049f565b50505050565b61052483838360405180602001604052806000815250610652565b505050565b60006102d782610705565b60006001600160a01b038216610560576040516322718ad960e21b81526000600482015260240161049f565b506001600160a01b031660009081526003602052604090205490565b6105846107e7565b61058e6000610814565b565b600061059a6107e7565b60088054600091826105ab83611482565b9190505590506105bb8482610866565b6105c58184610880565b6000818152600960205260409081902080546001600160a01b0319166001600160a01b03888116918217909255915190861691907f68fc2a0e196c508432d80d57e8f218ce49cddd88b0aeb02959f86cae9ed5ce469061062890859088906114a9565b60405180910390a3949350505050565b6060600180546102ec90611448565b6103a33383836108d0565b61065d848484610479565b61050384848484610967565b60606102d782610a90565b6001600160a01b03918216600090815260056020908152604080832093909416825291909152205460ff1690565b6106aa6107e7565b6001600160a01b0381166106d457604051631e4fbdf760e01b81526000600482015260240161049f565b6106dd81610814565b50565b60006001600160e01b03198216632483248360e11b14806102d757506102d782610ba1565b6000818152600260205260408120546001600160a01b0316806102d757604051637e27328960e01b81526004810184905260240161049f565b6105248383836001610bf1565b600061075a6000836000610786565b90506001600160a01b0381166103a357604051637e27328960e01b81526004810183905260240161049f565b6000828152600260205260408120546001600160a01b031680158015906107b557506001600160a01b03851615155b156107d35760405163563bca5360e11b815260040160405180910390fd5b6107de858585610cf7565b95945050505050565b6007546001600160a01b0316331461058e5760405163118cdaa760e01b815233600482015260240161049f565b600780546001600160a01b038381166001600160a01b0319831681179093556040519116919082907f8be0079c531659141344cd1fd0a4f28419497f9722a3daafe3b4186f6b6457e090600090a35050565b6103a3828260405180602001604052806000815250610df0565b60008281526006602052604090206108988282611510565b506040518281527ff8e1a15aba9398e019f0b49df1a4fde98ee17ae345cb5f6b5e2c27f5033e8ce79060200160405180910390a15050565b6001600160a01b03821661090257604051630b61174360e31b81526001600160a01b038316600482015260240161049f565b6001600160a01b03838116600081815260056020908152604080832094871680845294825291829020805460ff191686151590811790915591519182527f17307eab39ab6107e8899845ad3d59bd9653f200f220920489ca2b5937696c31910161046c565b6001600160a01b0383163b1561050357604051630a85bd0160e11b81526001600160a01b0384169063150b7a02906109a99033908890879087906004016115d0565b6020604051808303816000875af19250505080156109e4575060408051601f3d908101601f191682019092526109e19181019061160d565b60015b610a4d573d808015610a12576040519150601f19603f3d011682016040523d82523d6000602084013e610a17565b606091505b508051600003610a4557604051633250574960e11b81526001600160a01b038516600482015260240161049f565b805181602001fd5b6001600160e01b03198116630a85bd0160e11b14610a8957604051633250574960e11b81526001600160a01b038516600482015260240161049f565b5050505050565b6060610a9b82610705565b5060008281526006602052604081208054610ab590611448565b80601f0160208091040260200160405190810160405280929190818152602001828054610ae190611448565b8015610b2e5780601f10610b0357610100808354040283529160200191610b2e565b820191906000526020600020905b815481529060010190602001808311610b1157829003601f168201915b505050505090506000610b4c60408051602081019091526000815290565b90508051600003610b5e575092915050565b815115610b90578082604051602001610b7892919061162a565b60405160208183030381529060405292505050919050565b610b9984610e07565b949350505050565b60006001600160e01b031982166380ac58cd60e01b1480610bd257506001600160e01b03198216635b5e139f60e01b145b806102d757506301ffc9a760e01b6001600160e01b03198316146102d7565b8080610c0557506001600160a01b03821615155b15610cc7576000610c1584610705565b90506001600160a01b03831615801590610c415750826001600160a01b0316816001600160a01b031614155b8015610c545750610c528184610674565b155b15610c7d5760405163a9fbf51f60e01b81526001600160a01b038416600482015260240161049f565b8115610cc55783856001600160a01b0316826001600160a01b03167f8c5be1e5ebec7d5bd14f71427d1e84f3dd0314c0f7b2291e5b200ac8c7c3b92560405160405180910390a45b505b5050600090815260046020526040902080546001600160a01b0319166001600160a01b0392909216919091179055565b6000828152600260205260408120546001600160a01b0390811690831615610d2457610d24818486610e7c565b6001600160a01b03811615610d6257610d41600085600080610bf1565b6001600160a01b038116600090815260036020526040902080546000190190555b6001600160a01b03851615610d91576001600160a01b0385166000908152600360205260409020805460010190555b60008481526002602052604080822080546001600160a01b0319166001600160a01b0389811691821790925591518793918516917fddf252ad1be2c89b69c2b068fc378daa952ba7f163c4a11628f55a4df523b3ef91a4949350505050565b610dfa8383610ee0565b6105246000848484610967565b6060610e1282610705565b506000610e2a60408051602081019091526000815290565b90506000815111610e4a5760405180602001604052806000815250610e75565b80610e5484610f45565b604051602001610e6592919061162a565b6040516020818303038152906040525b9392505050565b610e87838383610fd8565b610524576001600160a01b038316610eb557604051637e27328960e01b81526004810182905260240161049f565b60405163177e802f60e01b81526001600160a01b03831660048201526024810182905260440161049f565b6001600160a01b038216610f0a57604051633250574960e11b81526000600482015260240161049f565b6000610f1883836000610786565b90506001600160a01b03811615610524576040516339e3563760e11b81526000600482015260240161049f565b60606000610f528361103b565b600101905060008167ffffffffffffffff811115610f7257610f7261125f565b6040519080825280601f01601f191660200182016040528015610f9c576020820181803683370190505b5090508181016020015b600019016f181899199a1a9b1b9c1cb0b131b232b360811b600a86061a8153600a8504945084610fa657509392505050565b60006001600160a01b03831615801590610b995750826001600160a01b0316846001600160a01b0316148061101257506110128484610674565b80610b995750506000908152600460205260409020546001600160a01b03908116911614919050565b60008072184f03e93ff9f4daa797ed6e38ed64bf6a1f0160401b831061107a5772184f03e93ff9f4daa797ed6e38ed64bf6a1f0160401b830492506040015b6d04ee2d6d415b85acef810000000083106110a6576d04ee2d6d415b85acef8100000000830492506020015b662386f26fc1000083106110c457662386f26fc10000830492506010015b6305f5e10083106110dc576305f5e100830492506008015b61271083106110f057612710830492506004015b60648310611102576064830492506002015b600a83106102d75760010192915050565b6001600160e01b0319811681146106dd57600080fd5b60006020828403121561113b57600080fd5b8135610e7581611113565b60005b83811015611161578181015183820152602001611149565b50506000910152565b60008151808452611182816020860160208601611146565b601f01601f19169290920160200192915050565b602081526000610e75602083018461116a565b6000602082840312156111bb57600080fd5b5035919050565b80356001600160a01b03811681146111d957600080fd5b919050565b600080604083850312156111f157600080fd5b6111fa836111c2565b946020939093013593505050565b60008060006060848603121561121d57600080fd5b611226846111c2565b9250611234602085016111c2565b9150604084013590509250925092565b60006020828403121561125657600080fd5b610e75826111c2565b634e487b7160e01b600052604160045260246000fd5b600067ffffffffffffffff808411156112905761129061125f565b604051601f8501601f19908116603f011681019082821181831017156112b8576112b861125f565b816040528093508581528686860111156112d157600080fd5b858560208301376000602087830101525050509392505050565b60008060006060848603121561130057600080fd5b611309846111c2565b9250611317602085016111c2565b9150604084013567ffffffffffffffff81111561133357600080fd5b8401601f8101861361134457600080fd5b61135386823560208401611275565b9150509250925092565b6000806040838503121561137057600080fd5b611379836111c2565b91506020830135801515811461138e57600080fd5b809150509250929050565b600080600080608085870312156113af57600080fd5b6113b8856111c2565b93506113c6602086016111c2565b925060408501359150606085013567ffffffffffffffff8111156113e957600080fd5b8501601f810187136113fa57600080fd5b61140987823560208401611275565b91505092959194509250565b6000806040838503121561142857600080fd5b611431836111c2565b915061143f602084016111c2565b90509250929050565b600181811c9082168061145c57607f821691505b60208210810361147c57634e487b7160e01b600052602260045260246000fd5b50919050565b6000600182016114a257634e487b7160e01b600052601160045260246000fd5b5060010190565b828152604060208201526000610b99604083018461116a565b601f82111561052457600081815260208120601f850160051c810160208610156114e95750805b601f850160051c820191505b81811015611508578281556001016114f5565b505050505050565b815167ffffffffffffffff81111561152a5761152a61125f565b61153e816115388454611448565b846114c2565b602080601f831160018114611573576000841561155b5750858301515b600019600386901b1c1916600185901b178555611508565b600085815260208120601f198616915b828110156115a257888601518255948401946001909101908401611583565b50858210156115c05787850151600019600388901b60f8161c191681555b5050505050600190811b01905550565b6001600160a01b03858116825284166020820152604081018390526080606082018190526000906116039083018461116a565b9695505050505050565b60006020828403121561161f57600080fd5b8151610e7581611113565b6000835161163c818460208801611146565b835190830190611650818360208801611146565b0194935050505056fea2646970667358221220f79928a49a2d50c4a1393f9e817a3cbc8a0085f073628fb7fd3d83776bcf532064736f6c63430008140033",
  "linkReferences": {},
  "deployedLinkReferences": {}
}