{
  "_format": "hh-sol-artifact-1",
  "contractName": "Patient",
  "sourceName": "contracts/Patient.sol",
  "abi": [
    {
      "inputs": [
        {
          "internalType": "address",
          "name": "_forwarder",
          "type": "address"
        }
      ],
      "stateMutability": "nonpayable",
      "type": "constructor"
    },
    {
      "inputs": [
        {
          "internalType": "address",
          "name": "target",
          "type": "address"
        }
      ],
      "name": "AddressEmptyCode",
      "type": "error"
    },
    {
      "inputs": [],
      "name": "ECDSAInvalidSignature",
      "type": "error"
    },
    {
      "inputs": [
        {
          "internalType": "uint256",
          "name": "length",
          "type": "uint256"
        }
      ],
      "name": "ECDSAInvalidSignatureLength",
      "type": "error"
    },
    {
      "inputs": [
        {
          "internalType": "bytes32",
          "name": "s",
          "type": "bytes32"
        }
      ],
      "name": "ECDSAInvalidSignatureS",
      "type": "error"
    },
    {
      "inputs": [
        {
          "internalType": "address",
          "name": "implementation",
          "type": "address"
        }
      ],
      "name": "ERC1967InvalidImplementation",
      "type": "error"
    },
    {
      "inputs": [],
      "name": "ERC1967NonPayable",
      "type": "error"
    },
    {
      "inputs": [
        {
          "internalType": "address",
          "name": "sender",
          "type": "address"
        },
        {
          "internalType": "uint256",
          "name": "tokenId",
          "type": "uint256"
        },
        {
          "internalType": "address",
          "name": "owner",
          "type": "address"
        }
      ],
      "name": "ERC721IncorrectOwner",
      "type": "error"
    },
    {
      "inputs": [
        {
          "internalType": "address",
          "name": "operator",
          "type": "address"
        },
        {
          "internalType": "uint256",
          "name": "tokenId",
          "type": "uint256"
        }
      ],
      "name": "ERC721InsufficientApproval",
      "type": "error"
    },
    {
      "inputs": [
        {
          "internalType": "address",
          "name": "approver",
          "type": "address"
        }
      ],
      "name": "ERC721InvalidApprover",
      "type": "error"
    },
    {
      "inputs": [
        {
          "internalType": "address",
          "name": "operator",
          "type": "address"
        }
      ],
      "name": "ERC721InvalidOperator",
      "type": "error"
    },
    {
      "inputs": [
        {
          "internalType": "address",
          "name": "owner",
          "type": "address"
        }
      ],
      "name": "ERC721InvalidOwner",
      "type": "error"
    },
    {
      "inputs": [
        {
          "internalType": "address",
          "name": "receiver",
          "type": "address"
        }
      ],
      "name": "ERC721InvalidReceiver",
      "type": "error"
    },
    {
      "inputs": [
        {
          "internalType": "address",
          "name": "sender",
          "type": "address"
        }
      ],
      "name": "ERC721InvalidSender",
      "type": "error"
    },
    {
      "inputs": [
        {
          "internalType": "uint256",
          "name": "tokenId",
          "type": "uint256"
        }
      ],
      "name": "ERC721NonexistentToken",
      "type": "error"
    },
    {
      "inputs": [],
      "name": "EnforcedPause",
      "type": "error"
    },
    {
      "inputs": [],
      "name": "ExpectedPause",
      "type": "error"
    },
    {
      "inputs": [],
      "name": "FailedInnerCall",
      "type": "error"
    },
    {
      "inputs": [],
      "name": "InvalidInitialization",
      "type": "error"
    },
    {
      "inputs": [],
      "name": "NotInitializing",
      "type": "error"
    },
    {
      "inputs": [],
      "name": "ReentrancyGuardReentrantCall",
      "type": "error"
    },
    {
      "inputs": [],
      "name": "UUPSUnauthorizedCallContext",
      "type": "error"
    },
    {
      "inputs": [
        {
          "internalType": "bytes32",
          "name": "slot",
          "type": "bytes32"
        }
      ],
      "name": "UUPSUnsupportedProxiableUUID",
      "type": "error"
    },
    {
      "anonymous": false,
      "inputs": [
        {
          "indexed": true,
          "internalType": "address",
          "name": "owner",
          "type": "address"
        },
        {
          "indexed": true,
          "internalType": "address",
          "name": "approved",
          "type": "address"
        },
        {
          "indexed": true,
          "internalType": "uint256",
          "name": "tokenId",
          "type": "uint256"
        }
      ],
      "name": "Approval",
      "type": "event"
    },
    {
      "anonymous": false,
      "inputs": [
        {
          "indexed": true,
          "internalType": "address",
          "name": "owner",
          "type": "address"
        },
        {
          "indexed": true,
          "internalType": "address",
          "name": "operator",
          "type": "address"
        },
        {
          "indexed": false,
          "internalType": "bool",
          "name": "approved",
          "type": "bool"
        }
      ],
      "name": "ApprovalForAll",
      "type": "event"
    },
    {
      "anonymous": false,
      "inputs": [
        {
          "indexed": true,
          "internalType": "address",
          "name": "patient",
          "type": "address"
        },
        {
          "indexed": true,
          "internalType": "address",
          "name": "doctor",
          "type": "address"
        },
        {
          "indexed": false,
          "internalType": "uint256",
          "name": "tokenId",
          "type": "uint256"
        }
      ],
      "name": "ConsentGranted",
      "type": "event"
    },
    {
      "anonymous": false,
      "inputs": [
        {
          "indexed": true,
          "internalType": "address",
          "name": "patient",
          "type": "address"
        },
        {
          "indexed": false,
          "internalType": "uint256",
          "name": "tokenId",
          "type": "uint256"
        }
      ],
      "name": "ConsentRevoked",
      "type": "event"
    },
    {
      "anonymous": false,
      "inputs": [],
      "name": "EIP712DomainChanged",
      "type": "event"
    },
    {
      "anonymous": false,
      "inputs": [
        {
          "indexed": false,
          "internalType": "uint64",
          "name": "version",
          "type": "uint64"
        }
      ],
      "name": "Initialized",
      "type": "event"
    },
    {
      "anonymous": false,
      "inputs": [
        {
          "indexed": true,
          "internalType": "uint256",
          "name": "patientId",
          "type": "uint256"
        },
        {
          "indexed": false,
          "internalType": "uint256",
          "name": "tokenId",
          "type": "uint256"
        },
        {
          "indexed": false,
          "internalType": "bytes32",
          "name": "ipfsHash",
          "type": "bytes32"
        }
      ],
      "name": "MedicalRecordAdded",
      "type": "event"
    },
    {
      "anonymous": false,
      "inputs": [
        {
          "indexed": true,
          "internalType": "uint256",
          "name": "patientId",
          "type": "uint256"
        },
        {
          "indexed": true,
          "internalType": "address",
          "name": "wallet",
          "type": "address"
        },
        {
          "indexed": false,
          "internalType": "string",
          "name": "username",
          "type": "string"
        }
      ],
      "name": "PatientRegistered",
      "type": "event"
    },
    {
      "anonymous": false,
      "inputs": [
        {
          "indexed": false,
          "internalType": "address",
          "name": "account",
          "type": "address"
        }
      ],
      "name": "Paused",
      "type": "event"
    },
    {
      "anonymous": false,
      "inputs": [
        {
          "indexed": true,
          "internalType": "address",
          "name": "from",
          "type": "address"
        },
        {
          "indexed": true,
          "internalType": "address",
          "name": "to",
          "type": "address"
        },
        {
          "indexed": true,
          "internalType": "uint256",
          "name": "tokenId",
          "type": "uint256"
        }
      ],
      "name": "Transfer",
      "type": "event"
    },
    {
      "anonymous": false,
      "inputs": [
        {
          "indexed": false,
          "internalType": "address",
          "name": "account",
          "type": "address"
        }
      ],
      "name": "Unpaused",
      "type": "event"
    },
    {
      "anonymous": false,
      "inputs": [
        {
          "indexed": true,
          "internalType": "address",
          "name": "implementation",
          "type": "address"
        }
      ],
      "name": "Upgraded",
      "type": "event"
    },
    {
      "inputs": [],
      "name": "UPGRADE_INTERFACE_VERSION",
      "outputs": [
        {
          "internalType": "string",
          "name": "",
          "type": "string"
        }
      ],
      "stateMutability": "view",
      "type": "function"
    },
    {
      "inputs": [],
      "name": "accessControl",
      "outputs": [
        {
          "internalType": "contract MediSecureAccessControl",
          "name": "",
          "type": "address"
        }
      ],
      "stateMutability": "view",
      "type": "function"
    },
    {
      "inputs": [
        {
          "internalType": "bytes32",
          "name": "_ipfsHash",
          "type": "bytes32"
        },
        {
          "internalType": "string",
          "name": "_fileName",
          "type": "string"
        },
        {
          "internalType": "string",
          "name": "_recordDate",
          "type": "string"
        },
        {
          "internalType": "string",
          "name": "_hospital",
          "type": "string"
        },
        {
          "internalType": "bool",
          "name": "_isEmergencyViewable",
          "type": "bool"
        }
      ],
      "name": "addMedicalRecord",
      "outputs": [],
      "stateMutability": "nonpayable",
      "type": "function"
    },
    {
      "inputs": [
        {
          "internalType": "address",
          "name": "to",
          "type": "address"
        },
        {
          "internalType": "uint256",
          "name": "tokenId",
          "type": "uint256"
        }
      ],
      "name": "approve",
      "outputs": [],
      "stateMutability": "nonpayable",
      "type": "function"
    },
    {
      "inputs": [
        {
          "internalType": "address",
          "name": "owner",
          "type": "address"
        }
      ],
      "name": "balanceOf",
      "outputs": [
        {
          "internalType": "uint256",
          "name": "",
          "type": "uint256"
        }
      ],
      "stateMutability": "view",
      "type": "function"
    },
    {
      "inputs": [],
      "name": "consentSBT",
      "outputs": [
        {
          "internalType": "contract ConsentSBT",
          "name": "",
          "type": "address"
        }
      ],
      "stateMutability": "view",
      "type": "function"
    },
    {
      "inputs": [],
      "name": "eip712Domain",
      "outputs": [
        {
          "internalType": "bytes1",
          "name": "fields",
          "type": "bytes1"
        },
        {
          "internalType": "string",
          "name": "name",
          "type": "string"
        },
        {
          "internalType": "string",
          "name": "version",
          "type": "string"
        },
        {
          "internalType": "uint256",
          "name": "chainId",
          "type": "uint256"
        },
        {
          "internalType": "address",
          "name": "verifyingContract",
          "type": "address"
        },
        {
          "internalType": "bytes32",
          "name": "salt",
          "type": "bytes32"
        },
        {
          "internalType": "uint256[]",
          "name": "extensions",
          "type": "uint256[]"
        }
      ],
      "stateMutability": "view",
      "type": "function"
    },
    {
      "inputs": [
        {
          "internalType": "uint256",
          "name": "tokenId",
          "type": "uint256"
        }
      ],
      "name": "getApproved",
      "outputs": [
        {
          "internalType": "address",
          "name": "",
          "type": "address"
        }
      ],
      "stateMutability": "view",
      "type": "function"
    },
    {
      "inputs": [
        {
          "internalType": "address",
          "name": "patient",
          "type": "address"
        }
      ],
      "name": "getPatientMedicalRecords",
      "outputs": [
        {
          "components": [
            {
              "internalType": "uint256",
              "name": "tokenId",
              "type": "uint256"
            },
            {
              "internalType": "bytes32",
              "name": "ipfsHash",
              "type": "bytes32"
            },
            {
              "internalType": "string",
              "name": "fileName",
              "type": "string"
            },
            {
              "internalType": "string",
              "name": "recordDate",
              "type": "string"
            },
            {
              "internalType": "string",
              "name": "hospital",
              "type": "string"
            },
            {
              "internalType": "bool",
              "name": "isEmergencyViewable",
              "type": "bool"
            }
          ],
          "internalType": "struct Patient.MedicalRecord[]",
          "name": "",
          "type": "tuple[]"
        }
      ],
      "stateMutability": "view",
      "type": "function"
    },
    {
      "inputs": [
        {
          "internalType": "address",
          "name": "doctor",
          "type": "address"
        },
        {
          "internalType": "string",
          "name": "metadataURI",
          "type": "string"
        }
      ],
      "name": "grantConsent",
      "outputs": [],
      "stateMutability": "nonpayable",
      "type": "function"
    },
    {
      "inputs": [
        {
          "internalType": "address",
          "name": "doctor",
          "type": "address"
        },
        {
          "internalType": "string",
          "name": "metadataURI",
          "type": "string"
        },
        {
          "internalType": "address",
          "name": "patient",
          "type": "address"
        },
        {
          "internalType": "bytes",
          "name": "signature",
          "type": "bytes"
        }
      ],
      "name": "grantConsentWithSignature",
      "outputs": [],
      "stateMutability": "nonpayable",
      "type": "function"
    },
    {
      "inputs": [
        {
          "internalType": "bytes32",
          "name": "role",
          "type": "bytes32"
        },
        {
          "internalType": "address",
          "name": "account",
          "type": "address"
        }
      ],
      "name": "hasRole",
      "outputs": [
        {
          "internalType": "bool",
          "name": "",
          "type": "bool"
        }
      ],
      "stateMutability": "view",
      "type": "function"
    },
    {
      "inputs": [
        {
          "internalType": "enum Roles",
          "name": "role",
          "type": "uint8"
        },
        {
          "internalType": "address",
          "name": "account",
          "type": "address"
        }
      ],
      "name": "hasRole",
      "outputs": [
        {
          "internalType": "bool",
          "name": "",
          "type": "bool"
        }
      ],
      "stateMutability": "view",
      "type": "function"
    },
    {
      "inputs": [
        {
          "internalType": "address",
          "name": "_accessControl",
          "type": "address"
        },
        {
          "internalType": "address",
          "name": "_sbt",
          "type": "address"
        }
      ],
      "name": "initialize",
      "outputs": [],
      "stateMutability": "nonpayable",
      "type": "function"
    },
    {
      "inputs": [
        {
          "internalType": "address",
          "name": "account",
          "type": "address"
        }
      ],
      "name": "isAdmin",
      "outputs": [
        {
          "internalType": "bool",
          "name": "",
          "type": "bool"
        }
      ],
      "stateMutability": "view",
      "type": "function"
    },
    {
      "inputs": [
        {
          "internalType": "address",
          "name": "owner",
          "type": "address"
        },
        {
          "internalType": "address",
          "name": "operator",
          "type": "address"
        }
      ],
      "name": "isApprovedForAll",
      "outputs": [
        {
          "internalType": "bool",
          "name": "",
          "type": "bool"
        }
      ],
      "stateMutability": "view",
      "type": "function"
    },
    {
      "inputs": [
        {
          "internalType": "address",
          "name": "account",
          "type": "address"
        }
      ],
      "name": "isRegistered",
      "outputs": [
        {
          "internalType": "bool",
          "name": "",
          "type": "bool"
        }
      ],
      "stateMutability": "view",
      "type": "function"
    },
    {
      "inputs": [
        {
          "internalType": "address",
          "name": "forwarder",
          "type": "address"
        }
      ],
      "name": "isTrustedForwarder",
      "outputs": [
        {
          "internalType": "bool",
          "name": "",
          "type": "bool"
        }
      ],
      "stateMutability": "view",
      "type": "function"
    },
    {
      "inputs": [],
      "name": "name",
      "outputs": [
        {
          "internalType": "string",
          "name": "",
          "type": "string"
        }
      ],
      "stateMutability": "view",
      "type": "function"
    },
    {
      "inputs": [
        {
          "internalType": "address",
          "name": "",
          "type": "address"
        }
      ],
      "name": "nonces",
      "outputs": [
        {
          "internalType": "uint256",
          "name": "",
          "type": "uint256"
        }
      ],
      "stateMutability": "view",
      "type": "function"
    },
    {
      "inputs": [
        {
          "internalType": "uint256",
          "name": "tokenId",
          "type": "uint256"
        }
      ],
      "name": "ownerOf",
      "outputs": [
        {
          "internalType": "address",
          "name": "",
          "type": "address"
        }
      ],
      "stateMutability": "view",
      "type": "function"
    },
    {
      "inputs": [],
      "name": "patientCount",
      "outputs": [
        {
          "internalType": "uint256",
          "name": "",
          "type": "uint256"
        }
      ],
      "stateMutability": "view",
      "type": "function"
    },
    {
      "inputs": [
        {
          "internalType": "uint256",
          "name": "",
          "type": "uint256"
        },
        {
          "internalType": "uint256",
          "name": "",
          "type": "uint256"
        }
      ],
      "name": "patientRecords",
      "outputs": [
        {
          "internalType": "uint256",
          "name": "tokenId",
          "type": "uint256"
        },
        {
          "internalType": "bytes32",
          "name": "ipfsHash",
          "type": "bytes32"
        },
        {
          "internalType": "string",
          "name": "fileName",
          "type": "string"
        },
        {
          "internalType": "string",
          "name": "recordDate",
          "type": "string"
        },
        {
          "internalType": "string",
          "name": "hospital",
          "type": "string"
        },
        {
          "internalType": "bool",
          "name": "isEmergencyViewable",
          "type": "bool"
        }
      ],
      "stateMutability": "view",
      "type": "function"
    },
    {
      "inputs": [
        {
          "internalType": "uint256",
          "name": "",
          "type": "uint256"
        }
      ],
      "name": "patients",
      "outputs": [
        {
          "internalType": "uint256",
          "name": "patientId",
          "type": "uint256"
        },
        {
          "internalType": "string",
          "name": "username",
          "type": "string"
        },
        {
          "internalType": "string",
          "name": "name",
          "type": "string"
        },
        {
          "internalType": "address",
          "name": "walletAddress",
          "type": "address"
        },
        {
          "internalType": "string",
          "name": "email",
          "type": "string"
        },
        {
          "internalType": "uint256",
          "name": "age",
          "type": "uint256"
        },
        {
          "internalType": "string",
          "name": "bloodGroup",
          "type": "string"
        }
      ],
      "stateMutability": "view",
      "type": "function"
    },
    {
      "inputs": [],
      "name": "paused",
      "outputs": [
        {
          "internalType": "bool",
          "name": "",
          "type": "bool"
        }
      ],
      "stateMutability": "view",
      "type": "function"
    },
    {
      "inputs": [],
      "name": "proxiableUUID",
      "outputs": [
        {
          "internalType": "bytes32",
          "name": "",
          "type": "bytes32"
        }
      ],
      "stateMutability": "view",
      "type": "function"
    },
    {
      "inputs": [
        {
          "internalType": "string",
          "name": "_username",
          "type": "string"
        },
        {
          "internalType": "string",
          "name": "_name",
          "type": "string"
        },
        {
          "internalType": "string",
          "name": "_email",
          "type": "string"
        },
        {
          "internalType": "uint256",
          "name": "_age",
          "type": "uint256"
        },
        {
          "internalType": "string",
          "name": "_bloodGroup",
          "type": "string"
        }
      ],
      "name": "registerPatient",
      "outputs": [],
      "stateMutability": "nonpayable",
      "type": "function"
    },
    {
      "inputs": [
        {
          "internalType": "uint256",
          "name": "tokenId",
          "type": "uint256"
        }
      ],
      "name": "revokeConsent",
      "outputs": [],
      "stateMutability": "nonpayable",
      "type": "function"
    },
    {
      "inputs": [
        {
          "internalType": "address",
          "name": "from",
          "type": "address"
        },
        {
          "internalType": "address",
          "name": "to",
          "type": "address"
        },
        {
          "internalType": "uint256",
          "name": "tokenId",
          "type": "uint256"
        }
      ],
      "name": "safeTransferFrom",
      "outputs": [],
      "stateMutability": "nonpayable",
      "type": "function"
    },
    {
      "inputs": [
        {
          "internalType": "address",
          "name": "from",
          "type": "address"
        },
        {
          "internalType": "address",
          "name": "to",
          "type": "address"
        },
        {
          "internalType": "uint256",
          "name": "tokenId",
          "type": "uint256"
        },
        {
          "internalType": "bytes",
          "name": "data",
          "type": "bytes"
        }
      ],
      "name": "safeTransferFrom",
      "outputs": [],
      "stateMutability": "nonpayable",
      "type": "function"
    },
    {
      "inputs": [
        {
          "internalType": "address",
          "name": "operator",
          "type": "address"
        },
        {
          "internalType": "bool",
          "name": "approved",
          "type": "bool"
        }
      ],
      "name": "setApprovalForAll",
      "outputs": [],
      "stateMutability": "nonpayable",
      "type": "function"
    },
    {
      "inputs": [
        {
          "internalType": "bytes4",
          "name": "interfaceId",
          "type": "bytes4"
        }
      ],
      "name": "supportsInterface",
      "outputs": [
        {
          "internalType": "bool",
          "name": "",
          "type": "bool"
        }
      ],
      "stateMutability": "view",
      "type": "function"
    },
    {
      "inputs": [],
      "name": "symbol",
      "outputs": [
        {
          "internalType": "string",
          "name": "",
          "type": "string"
        }
      ],
      "stateMutability": "view",
      "type": "function"
    },
    {
      "inputs": [
        {
          "internalType": "uint256",
          "name": "tokenId",
          "type": "uint256"
        }
      ],
      "name": "tokenURI",
      "outputs": [
        {
          "internalType": "string",
          "name": "",
          "type": "string"
        }
      ],
      "stateMutability": "view",
      "type": "function"
    },
    {
      "inputs": [
        {
          "internalType": "address",
          "name": "from",
          "type": "address"
        },
        {
          "internalType": "address",
          "name": "to",
          "type": "address"
        },
        {
          "internalType": "uint256",
          "name": "tokenId",
          "type": "uint256"
        }
      ],
      "name": "transferFrom",
      "outputs": [],
      "stateMutability": "nonpayable",
      "type": "function"
    },
    {
      "inputs": [],
      "name": "trustedForwarder",
      "outputs": [
        {
          "internalType": "address",
          "name": "",
          "type": "address"
        }
      ],
      "stateMutability": "view",
      "type": "function"
    },
    {
      "inputs": [
        {
          "internalType": "address",
          "name": "newImplementation",
          "type": "address"
        },
        {
          "internalType": "bytes",
          "name": "data",
          "type": "bytes"
        }
      ],
      "name": "upgradeToAndCall",
      "outputs": [],
      "stateMutability": "payable",
      "type": "function"
    },
    {
      "inputs": [
        {
          "internalType": "string",
          "name": "",
          "type": "string"
        }
      ],
      "name": "usernameToPatientId",
      "outputs": [
        {
          "internalType": "uint256",
          "name": "",
          "type": "uint256"
        }
      ],
      "stateMutability": "view",
      "type": "function"
    },
    {
      "inputs": [
        {
          "internalType": "address",
          "name": "",
          "type": "address"
        }
      ],
      "name": "walletToPatientId",
      "outputs": [
        {
          "internalType": "uint256",
          "name": "",
          "type": "uint256"
        }
      ],
      "stateMutability": "view",
      "type": "function"
    }
  ],
  "bytecode": "0x60c0604052306080523480156200001557600080fd5b5060405162003dae38038062003dae83398101604081905262000038916200004a565b6001600160a01b031660a0526200007c565b6000602082840312156200005d57600080fd5b81516001600160a01b03811681146200007557600080fd5b9392505050565b60805160a051613cf0620000be600039600081816104c50152818161057b0152612740015260008181612199015281816121c201526123cf0152613cf06000f3fe6080604052600436106102305760003560e01c80636352211e1161012e5780639e97b8f6116100ab578063c3c5a5471161006f578063c3c5a5471461075b578063c87b56dd14610793578063e985e9c5146107b3578063f6ee0a2d146107d3578063f9208840146107f357600080fd5b80639e97b8f6146106b4578063a0303c41146106d4578063a22cb465146106ea578063ad3cb1cc1461070a578063b88d4fde1461073b57600080fd5b80638590ed19116100f25780638590ed19146105f4578063889732881461062c57806391d148541461064c57806393119a831461066c57806395d89b411461069f57600080fd5b80636352211e1461052c57806370a082311461054c5780637da0a8771461056c5780637ecebe001461059f57806384b0196e146105cc57600080fd5b806325422a69116101bc578063485cc95511610180578063485cc955146104605780634f1ef2861461048057806352d1902d14610493578063572b6c05146104a85780635c975abb146104f557600080fd5b806325422a69146103a157806329585944146103ce5780633feb932c146103ee5780634035ae091461040e57806342842e0e1461044057600080fd5b806313007d551161020357806313007d55146102e657806316a0042c1461030657806323b872dd1461032657806323ecb0581461034657806324d7806c1461038157600080fd5b806301ffc9a71461023557806306fdde031461026a578063081812fc1461028c578063095ea7b3146102c4575b600080fd5b34801561024157600080fd5b50610255610250366004613101565b610813565b60405190151581526020015b60405180910390f35b34801561027657600080fd5b5061027f610865565b604051610261919061316e565b34801561029857600080fd5b506102ac6102a7366004613181565b610909565b6040516001600160a01b039091168152602001610261565b3480156102d057600080fd5b506102e46102df3660046131b6565b61091e565b005b3480156102f257600080fd5b506000546102ac906001600160a01b031681565b34801561031257600080fd5b506102e4610321366004613181565b610934565b34801561033257600080fd5b506102e46103413660046131e0565b6109e7565b34801561035257600080fd5b5061037361036136600461321c565b60356020526000908152604090205481565b604051908152602001610261565b34801561038d57600080fd5b5061025561039c36600461321c565b610a7e565b3480156103ad57600080fd5b506103c16103bc36600461321c565b610af2565b6040516102619190613237565b3480156103da57600080fd5b506102e46103e93660046133ac565b610d4d565b3480156103fa57600080fd5b506102e461040936600461349c565b610f0d565b34801561041a57600080fd5b5061042e610429366004613530565b6110be565b60405161026196959493929190613552565b34801561044c57600080fd5b506102e461045b3660046131e0565b6112b2565b34801561046c57600080fd5b506102e461047b3660046135ad565b6112d2565b6102e461048e3660046135e0565b6114bc565b34801561049f57600080fd5b506103736114d7565b3480156104b457600080fd5b506102556104c336600461321c565b7f00000000000000000000000000000000000000000000000000000000000000006001600160a01b0390811691161490565b34801561050157600080fd5b507fcd5ed15c6e187e77e9aee88184c21f4f2182ab5827cb3b7e07fbedcd63f033005460ff16610255565b34801561053857600080fd5b506102ac610547366004613181565b6114f4565b34801561055857600080fd5b5061037361056736600461321c565b6114ff565b34801561057857600080fd5b507f00000000000000000000000000000000000000000000000000000000000000006102ac565b3480156105ab57600080fd5b506103736105ba36600461321c565b60346020526000908152604090205481565b3480156105d857600080fd5b506105e161155b565b604051610261979695949392919061362e565b34801561060057600080fd5b5061037361060f3660046136c4565b805160208183018101805160368252928201919093012091525481565b34801561063857600080fd5b506102e46106473660046135e0565b611607565b34801561065857600080fd5b506102556106673660046136f9565b611621565b34801561067857600080fd5b5061068c610687366004613181565b61169f565b604051610261979695949392919061371c565b3480156106ab57600080fd5b5061027f611909565b3480156106c057600080fd5b506102556106cf366004613792565b611948565b3480156106e057600080fd5b5061037360395481565b3480156106f657600080fd5b506102e46107053660046137b4565b61197b565b34801561071657600080fd5b5061027f604051806040016040528060058152602001640352e302e360dc1b81525081565b34801561074757600080fd5b506102e46107563660046137eb565b61198d565b34801561076757600080fd5b5061025561077636600461321c565b6001600160a01b0316600090815260356020526040902054151590565b34801561079f57600080fd5b5061027f6107ae366004613181565b6119a4565b3480156107bf57600080fd5b506102556107ce3660046135ad565b611a18565b3480156107df57600080fd5b506102e46107ee366004613853565b611a65565b3480156107ff57600080fd5b506032546102ac906001600160a01b031681565b60006001600160e01b031982166380ac58cd60e01b148061084457506001600160e01b03198216635b5e139f60e01b145b8061085f57506301ffc9a760e01b6001600160e01b03198316145b92915050565b600080516020613c5b83398151915280546060919081906108859061390a565b80601f01602080910402602001604051908101604052809291908181526020018280546108b19061390a565b80156108fe5780601f106108d3576101008083540402835291602001916108fe565b820191906000526020600020905b8154815290600101906020018083116108e157829003601f168201915b505050505091505090565b600061091482611d3f565b5061085f82611d77565b610930828261092b611db1565b611dc0565b5050565b61093c611dcd565b6032546040516305a8010b60e21b8152600481018390526001600160a01b03909116906316a0042c90602401600060405180830381600087803b15801561098257600080fd5b505af1158015610996573d6000803e3d6000fd5b505050506109a2611db1565b6001600160a01b03167f988f76ef7977a3c8ed258b6edb689399775fa491cc7367bb03d44d8d55af79a8826040516109dc91815260200190565b60405180910390a250565b6001600160a01b038216610a1657604051633250574960e11b8152600060048201526024015b60405180910390fd5b6000610a2a8383610a25611db1565b611e12565b9050836001600160a01b0316816001600160a01b031614610a78576040516364283d7b60e01b81526001600160a01b0380861660048301526024820184905282166044820152606401610a0d565b50505050565b60008054604051634f4bdc7b60e11b81526001600160a01b0390911690639e97b8f690610ab1908490869060040161395a565b602060405180830381865afa158015610ace573d6000803e3d6000fd5b505050506040513d601f19601f8201168201806040525081019061085f9190613994565b6001600160a01b0381166000908152603560209081526040808320548352603b8252808320805482518185028101850190935280835260609492939192909184015b82821015610d4257838290600052602060002090600602016040518060c00160405290816000820154815260200160018201548152602001600282018054610b7b9061390a565b80601f0160208091040260200160405190810160405280929190818152602001828054610ba79061390a565b8015610bf45780601f10610bc957610100808354040283529160200191610bf4565b820191906000526020600020905b815481529060010190602001808311610bd757829003601f168201915b50505050508152602001600382018054610c0d9061390a565b80601f0160208091040260200160405190810160405280929190818152602001828054610c399061390a565b8015610c865780601f10610c5b57610100808354040283529160200191610c86565b820191906000526020600020905b815481529060010190602001808311610c6957829003601f168201915b50505050508152602001600482018054610c9f9061390a565b80601f0160208091040260200160405190810160405280929190818152602001828054610ccb9061390a565b8015610d185780601f10610ced57610100808354040283529160200191610d18565b820191906000526020600020905b815481529060010190602001808311610cfb57829003601f168201915b50505091835250506005919091015460ff1615156020918201529082526001929092019101610b34565b505050509050919050565b610d55611dcd565b600060356000610d63611db1565b6001600160a01b03166001600160a01b0316815260200190815260200160002054905080600003610dc75760405162461bcd60e51b815260206004820152600e60248201526d139bdd081c9959da5cdd195c995960921b6044820152606401610a0d565b6000603360008154610dd8906139c7565b91829055509050610df0610dea611db1565b82611f1c565b6040805160c08101825282815260208082018a81528284018a8152606084018a90526080840189905287151560a0850152600086815260378452858120889055878152603b80855286822080548984526038875297832088905590855260018088018255908252939020845160069096020194855590519184019190915551909182916002820190610e829082613a2e565b5060608201516003820190610e979082613a2e565b5060808201516004820190610eac9082613a2e565b5060a091909101516005909101805460ff191691151591909117905560408051838152602081018a905284917fa9e8690409265568eacdd11964c3029123d5fdabe3e9e7469c334c79fcccea6f910160405180910390a25050505050505050565b610f15611dcd565b60007f880b912ed844c0c5d633d436ab28612ee7442a1aec4689b791e4497d8a639a38878787604051610f49929190613aee565b60408051918290039091206001600160a01b038816600090815260346020529182208054919289929190610f7c836139c7565b909155506040805160208101969096526001600160a01b03948516908601526060850192909252909116608083015260a082015260c0016040516020818303038152906040528051906020012090506000610fd682611f36565b9050600061101a8286868080601f016020809104026020016040519081016040528093929190818152602001838380828437600092019190915250611f6392505050565b9050856001600160a01b0316816001600160a01b0316146110715760405162461bcd60e51b8152602060048201526011602482015270496e76616c6964207369676e617475726560781b6044820152606401610a0d565b6110b38989898080601f0160208091040260200160405190810160405280939291908181526020018383808284376000920191909152508b9250611f8d915050565b505050505050505050565b603b60205281600052604060002081815481106110da57600080fd5b90600052602060002090600602016000915091505080600001549080600101549080600201805461110a9061390a565b80601f01602080910402602001604051908101604052809291908181526020018280546111369061390a565b80156111835780601f1061115857610100808354040283529160200191611183565b820191906000526020600020905b81548152906001019060200180831161116657829003601f168201915b5050505050908060030180546111989061390a565b80601f01602080910402602001604051908101604052809291908181526020018280546111c49061390a565b80156112115780601f106111e657610100808354040283529160200191611211565b820191906000526020600020905b8154815290600101906020018083116111f457829003601f168201915b5050505050908060040180546112269061390a565b80601f01602080910402602001604051908101604052809291908181526020018280546112529061390a565b801561129f5780601f106112745761010080835404028352916020019161129f565b820191906000526020600020905b81548152906001019060200180831161128257829003601f168201915b5050506005909301549192505060ff1686565b6112cd8383836040518060200160405280600081525061198d565b505050565b7ff0c57e16840df040f15088dc2f81fe391c3923bec73e23a9662efc9c229c6a008054600160401b810460ff16159067ffffffffffffffff166000811580156113185750825b905060008267ffffffffffffffff1660011480156113355750303b155b905081158015611343575080155b156113615760405163f92ee8a960e01b815260040160405180910390fd5b845467ffffffffffffffff19166001178555831561138b57845460ff60401b1916600160401b1785555b6113e56040518060400160405280601881526020017f53616e6a6565766e69204d65646963616c205265636f726400000000000000008152506040518060400160405280600381526020016229a6a960e91b8152506120ba565b6113ed6120cc565b6113f56120dc565b6114416040518060400160405280601181526020017014d85b9a99595d9b9a4814185d1a595b9d607a1b815250604051806040016040528060018152602001603160f81b8152506120ec565b6114496120fe565b61145287612106565b603280546001600160a01b0319166001600160a01b03881617905583156114b357845460ff60401b19168555604051600181527fc7f505b2f371ae2175ee4913f4499e1f2633a7b5936321eed1cdaeb6115181d29060200160405180910390a15b50505050505050565b6114c461218e565b6114cd82612233565b6109308282612307565b60006114e16123c4565b50600080516020613c9b83398151915290565b600061085f82611d3f565b6000600080516020613c5b8339815191526001600160a01b03831661153a576040516322718ad960e21b815260006004820152602401610a0d565b6001600160a01b039092166000908152600390920160205250604090205490565b60006060808280808381600080516020613c7b833981519152805490915015801561158857506001810154155b6115cc5760405162461bcd60e51b81526020600482015260156024820152741152540dcc4c8e88155b9a5b9a5d1a585b1a5e9959605a1b6044820152606401610a0d565b6115d461240d565b6115dc61244c565b60408051600080825260208201909252600f60f81b9c939b5091995046985030975095509350915050565b61160f611dcd565b610930828261161c611db1565b611f8d565b60008054604051632474521560e21b8152600481018590526001600160a01b038481166024830152909116906391d14854906044015b602060405180830381865afa158015611674573d6000803e3d6000fd5b505050506040513d601f19601f820116820180604052508101906116989190613994565b9392505050565b603a60205260009081526040902080546001820180549192916116c19061390a565b80601f01602080910402602001604051908101604052809291908181526020018280546116ed9061390a565b801561173a5780601f1061170f5761010080835404028352916020019161173a565b820191906000526020600020905b81548152906001019060200180831161171d57829003601f168201915b50505050509080600201805461174f9061390a565b80601f016020809104026020016040519081016040528092919081815260200182805461177b9061390a565b80156117c85780601f1061179d576101008083540402835291602001916117c8565b820191906000526020600020905b8154815290600101906020018083116117ab57829003601f168201915b505050600384015460048501805494956001600160a01b039092169491935091506117f29061390a565b80601f016020809104026020016040519081016040528092919081815260200182805461181e9061390a565b801561186b5780601f106118405761010080835404028352916020019161186b565b820191906000526020600020905b81548152906001019060200180831161184e57829003601f168201915b5050505050908060050154908060060180546118869061390a565b80601f01602080910402602001604051908101604052809291908181526020018280546118b29061390a565b80156118ff5780601f106118d4576101008083540402835291602001916118ff565b820191906000526020600020905b8154815290600101906020018083116118e257829003601f168201915b5050505050905087565b7f80bb2b638cc20bc4d0a60d66940f3ab4a00c1d7b313497ca82fb0b4ab00793018054606091600080516020613c5b833981519152916108859061390a565b60008054604051634f4bdc7b60e11b81526001600160a01b0390911690639e97b8f690611657908690869060040161395a565b610930611986611db1565b838361248b565b6119988484846109e7565b610a7884848484612533565b60606119af82611d3f565b5060006119c760408051602081019091526000815290565b905060008151116119e75760405180602001604052806000815250611698565b806119f184612663565b604051602001611a02929190613afe565b6040516020818303038152906040529392505050565b6001600160a01b0391821660009081527f80bb2b638cc20bc4d0a60d66940f3ab4a00c1d7b313497ca82fb0b4ab00793056020908152604080832093909416825291909152205460ff1690565b611a6d611dcd565b60356000611a79611db1565b6001600160a01b0316815260208101919091526040016000205415611ad55760405162461bcd60e51b8152602060048201526012602482015271105b1c9958591e481c9959da5cdd195c995960721b6044820152606401610a0d565b603685604051611ae59190613b2d565b908152602001604051809103902054600014611b345760405162461bcd60e51b815260206004820152600e60248201526d2ab9b2b93730b6b2903a30b5b2b760911b6044820152606401610a0d565b60398054906000611b44836139c7565b91905055506040518060e001604052806039548152602001868152602001858152602001611b70611db1565b6001600160a01b031681526020808201869052604080830186905260609092018490526039546000908152603a82529190912082518155908201516001820190611bba9082613a2e565b5060408201516002820190611bcf9082613a2e565b5060608201516003820180546001600160a01b0319166001600160a01b0390921691909117905560808201516004820190611c0a9082613a2e565b5060a0820151600582015560c08201516006820190611c299082613a2e565b5090505060395460356000611c3c611db1565b6001600160a01b03166001600160a01b0316815260200190815260200160002081905550603954603686604051611c739190613b2d565b908152604051908190036020019020556000546001600160a01b0316635d5664e16002611c9e611db1565b6040518363ffffffff1660e01b8152600401611cbb92919061395a565b600060405180830381600087803b158015611cd557600080fd5b505af1158015611ce9573d6000803e3d6000fd5b50505050611cf5611db1565b6001600160a01b03166039547fe960aa893775ad9187a8fc84e3a4750f46f677c7e4f410b0d77faad87596660387604051611d30919061316e565b60405180910390a35050505050565b600080611d4b836126f6565b90506001600160a01b03811661085f57604051637e27328960e01b815260048101849052602401610a0d565b60009081527f80bb2b638cc20bc4d0a60d66940f3ab4a00c1d7b313497ca82fb0b4ab007930460205260409020546001600160a01b031690565b6000611dbb612730565b905090565b6112cd83838360016127a5565b7fcd5ed15c6e187e77e9aee88184c21f4f2182ab5827cb3b7e07fbedcd63f033005460ff1615611e105760405163d93c066560e01b815260040160405180910390fd5b565b6000600080516020613c5b83398151915281611e2d856126f6565b90506001600160a01b03841615611e4957611e498185876128bb565b6001600160a01b03811615611e8957611e666000866000806127a5565b6001600160a01b0381166000908152600383016020526040902080546000190190555b6001600160a01b03861615611eba576001600160a01b03861660009081526003830160205260409020805460010190555b600085815260028301602052604080822080546001600160a01b0319166001600160a01b038a811691821790925591518893918516917fddf252ad1be2c89b69c2b068fc378daa952ba7f163c4a11628f55a4df523b3ef91a495945050505050565b61093082826040518060200160405280600081525061291f565b600061085f611f43612936565b8360405161190160f01b8152600281019290925260228201526042902090565b600080600080611f738686612940565b925092509250611f83828261298d565b5090949350505050565b6001600160a01b0381166000908152603560205260408120549003611fed5760405162461bcd60e51b815260206004820152601660248201527514185d1a595b9d081b9bdd081c9959da5cdd195c995960521b6044820152606401610a0d565b60325460405163418b865160e11b81526000916001600160a01b0316906383170ca29061202290859088908890600401613b49565b6020604051808303816000875af1158015612041573d6000803e3d6000fd5b505050506040513d601f19601f820116820180604052508101906120659190613b75565b9050836001600160a01b0316826001600160a01b03167f76a1ad651bc50df5ed36a8884155c46292a92f3605f168df56223cb72e98d02a836040516120ac91815260200190565b60405180910390a350505050565b6120c2612a46565b6109308282612a8f565b6120d4612a46565b611e10612ac0565b6120e4612a46565b611e10612aee565b6120f4612a46565b6109308282612b21565b611e10612a46565b61210e612a46565b6121166120fe565b6001600160a01b03811661216c5760405162461bcd60e51b815260206004820152601e60248201527f496e76616c69642061636365737320636f6e74726f6c206164647265737300006044820152606401610a0d565b600080546001600160a01b0319166001600160a01b0392909216919091179055565b306001600160a01b037f000000000000000000000000000000000000000000000000000000000000000016148061221557507f00000000000000000000000000000000000000000000000000000000000000006001600160a01b0316612209600080516020613c9b833981519152546001600160a01b031690565b6001600160a01b031614155b15611e105760405163703e46dd60e11b815260040160405180910390fd5b600080546001600160a01b031690639e97b8f69061224f611db1565b6040518363ffffffff1660e01b815260040161226c92919061395a565b602060405180830381865afa158015612289573d6000803e3d6000fd5b505050506040513d601f19601f820116820180604052508101906122ad9190613994565b6123045760405162461bcd60e51b815260206004820152602260248201527f416363657373436f6e74726f6c3a20726573747269637465642d746f2d61646d60448201526134b760f11b6064820152608401610a0d565b50565b816001600160a01b03166352d1902d6040518163ffffffff1660e01b8152600401602060405180830381865afa925050508015612361575060408051601f3d908101601f1916820190925261235e91810190613b75565b60015b61238957604051634c9c8ce360e01b81526001600160a01b0383166004820152602401610a0d565b600080516020613c9b83398151915281146123ba57604051632a87526960e21b815260048101829052602401610a0d565b6112cd8383612b82565b306001600160a01b037f00000000000000000000000000000000000000000000000000000000000000001614611e105760405163703e46dd60e11b815260040160405180910390fd5b7fa16a46d94261c7517cc8ff89f61c0ce93598e3c849801011dee649a6a557d1028054606091600080516020613c7b833981519152916108859061390a565b7fa16a46d94261c7517cc8ff89f61c0ce93598e3c849801011dee649a6a557d1038054606091600080516020613c7b833981519152916108859061390a565b600080516020613c5b8339815191526001600160a01b0383166124cc57604051630b61174360e31b81526001600160a01b0384166004820152602401610a0d565b6001600160a01b038481166000818152600584016020908152604080832094881680845294825291829020805460ff191687151590811790915591519182527f17307eab39ab6107e8899845ad3d59bd9653f200f220920489ca2b5937696c3191016120ac565b6001600160a01b0383163b15610a7857826001600160a01b031663150b7a0261255a611db1565b8685856040518563ffffffff1660e01b815260040161257c9493929190613b8e565b6020604051808303816000875af19250505080156125b7575060408051601f3d908101601f191682019092526125b491810190613bcb565b60015b612620573d8080156125e5576040519150601f19603f3d011682016040523d82523d6000602084013e6125ea565b606091505b50805160000361261857604051633250574960e11b81526001600160a01b0385166004820152602401610a0d565b805181602001fd5b6001600160e01b03198116630a85bd0160e11b1461265c57604051633250574960e11b81526001600160a01b0385166004820152602401610a0d565b5050505050565b6060600061267083612bd8565b600101905060008167ffffffffffffffff811115612690576126906132fb565b6040519080825280601f01601f1916602001820160405280156126ba576020820181803683370190505b5090508181016020015b600019016f181899199a1a9b1b9c1cb0b131b232b360811b600a86061a8153600a85049450846126c457509392505050565b60009081527f80bb2b638cc20bc4d0a60d66940f3ab4a00c1d7b313497ca82fb0b4ab007930260205260409020546001600160a01b031690565b6000366014336001600160a01b037f00000000000000000000000000000000000000000000000000000000000000001614801561276d5750808210155b1561279d5760003661277f8385613be8565b61278a928290613bfb565b61279391613c25565b60601c9250505090565b339250505090565b600080516020613c5b83398151915281806127c857506001600160a01b03831615155b1561288a5760006127d885611d3f565b90506001600160a01b038416158015906128045750836001600160a01b0316816001600160a01b031614155b801561281757506128158185611a18565b155b156128405760405163a9fbf51f60e01b81526001600160a01b0385166004820152602401610a0d565b82156128885784866001600160a01b0316826001600160a01b03167f8c5be1e5ebec7d5bd14f71427d1e84f3dd0314c0f7b2291e5b200ac8c7c3b92560405160405180910390a45b505b600093845260040160205250506040902080546001600160a01b0319166001600160a01b0392909216919091179055565b6128c6838383612cb0565b6112cd576001600160a01b0383166128f457604051637e27328960e01b815260048101829052602401610a0d565b60405163177e802f60e01b81526001600160a01b038316600482015260248101829052604401610a0d565b6129298383612d16565b6112cd6000848484612533565b6000611dbb612d7b565b6000806000835160410361297a5760208401516040850151606086015160001a61296c88828585612def565b955095509550505050612986565b50508151600091506002905b9250925092565b60008260038111156129a1576129a1613944565b036129aa575050565b60018260038111156129be576129be613944565b036129dc5760405163f645eedf60e01b815260040160405180910390fd5b60028260038111156129f0576129f0613944565b03612a115760405163fce698f760e01b815260048101829052602401610a0d565b6003826003811115612a2557612a25613944565b03610930576040516335e2f38360e21b815260048101829052602401610a0d565b7ff0c57e16840df040f15088dc2f81fe391c3923bec73e23a9662efc9c229c6a0054600160401b900460ff16611e1057604051631afcd79f60e31b815260040160405180910390fd5b612a97612a46565b600080516020613c5b83398151915280612ab18482613a2e565b5060018101610a788382613a2e565b612ac8612a46565b60017f9b779b17422d0df92223018b32b4d1fa46e071723d6817e2486d003becc55f0055565b612af6612a46565b7fcd5ed15c6e187e77e9aee88184c21f4f2182ab5827cb3b7e07fbedcd63f03300805460ff19169055565b612b29612a46565b600080516020613c7b8339815191527fa16a46d94261c7517cc8ff89f61c0ce93598e3c849801011dee649a6a557d102612b638482613a2e565b5060038101612b728382613a2e565b5060008082556001909101555050565b612b8b82612ebe565b6040516001600160a01b038316907fbc7cd75a20ee27fd9adebab32041f755214dbc6bffa90cc0225b39da2e5c2d3b90600090a2805115612bd0576112cd8282612f23565b610930612f99565b60008072184f03e93ff9f4daa797ed6e38ed64bf6a1f0160401b8310612c175772184f03e93ff9f4daa797ed6e38ed64bf6a1f0160401b830492506040015b6d04ee2d6d415b85acef81000000008310612c43576d04ee2d6d415b85acef8100000000830492506020015b662386f26fc100008310612c6157662386f26fc10000830492506010015b6305f5e1008310612c79576305f5e100830492506008015b6127108310612c8d57612710830492506004015b60648310612c9f576064830492506002015b600a831061085f5760010192915050565b60006001600160a01b03831615801590612d0e5750826001600160a01b0316846001600160a01b03161480612cea5750612cea8484611a18565b80612d0e5750826001600160a01b0316612d0383611d77565b6001600160a01b0316145b949350505050565b6001600160a01b038216612d4057604051633250574960e11b815260006004820152602401610a0d565b6000612d4e83836000611e12565b90506001600160a01b038116156112cd576040516339e3563760e11b815260006004820152602401610a0d565b60007f8b73c3c69bb8fe3d512ecc4cf759cc79239f7b179b0ffacaa9a75d522b39400f612da6612fb8565b612dae613022565b60408051602081019490945283019190915260608201524660808201523060a082015260c00160405160208183030381529060405280519060200120905090565b600080807f7fffffffffffffffffffffffffffffff5d576e7357a4501ddfe92f46681b20a0841115612e2a5750600091506003905082612eb4565b604080516000808252602082018084528a905260ff891692820192909252606081018790526080810186905260019060a0016020604051602081039080840390855afa158015612e7e573d6000803e3d6000fd5b5050604051601f1901519150506001600160a01b038116612eaa57506000925060019150829050612eb4565b9250600091508190505b9450945094915050565b806001600160a01b03163b600003612ef457604051634c9c8ce360e01b81526001600160a01b0382166004820152602401610a0d565b600080516020613c9b83398151915280546001600160a01b0319166001600160a01b0392909216919091179055565b6060600080846001600160a01b031684604051612f409190613b2d565b600060405180830381855af49150503d8060008114612f7b576040519150601f19603f3d011682016040523d82523d6000602084013e612f80565b606091505b5091509150612f90858383613066565b95945050505050565b3415611e105760405163b398979f60e01b815260040160405180910390fd5b6000600080516020613c7b83398151915281612fd261240d565b805190915015612fea57805160209091012092915050565b81548015612ff9579392505050565b7fc5d2460186f7233c927e7db2dcc703c0e500b653ca82273b7bfad8045d85a470935050505090565b6000600080516020613c7b8339815191528161303c61244c565b80519091501561305457805160209091012092915050565b60018201548015612ff9579392505050565b60608261307b57613076826130c2565b611698565b815115801561309257506001600160a01b0384163b155b156130bb57604051639996b31560e01b81526001600160a01b0385166004820152602401610a0d565b5080611698565b8051156130d25780518082602001fd5b604051630a12f52160e11b815260040160405180910390fd5b6001600160e01b03198116811461230457600080fd5b60006020828403121561311357600080fd5b8135611698816130eb565b60005b83811015613139578181015183820152602001613121565b50506000910152565b6000815180845261315a81602086016020860161311e565b601f01601f19169290920160200192915050565b6020815260006116986020830184613142565b60006020828403121561319357600080fd5b5035919050565b80356001600160a01b03811681146131b157600080fd5b919050565b600080604083850312156131c957600080fd5b6131d28361319a565b946020939093013593505050565b6000806000606084860312156131f557600080fd5b6131fe8461319a565b925061320c6020850161319a565b9150604084013590509250925092565b60006020828403121561322e57600080fd5b6116988261319a565b60006020808301818452808551808352604092508286019150828160051b87010184880160005b838110156132ed57603f19898403018552815160c081518552888201518986015287820151818987015261329482870182613142565b915050606080830151868303828801526132ae8382613142565b92505050608080830151868303828801526132c98382613142565b60a0948501511515979094019690965250509487019492509086019060010161325e565b509098975050505050505050565b634e487b7160e01b600052604160045260246000fd5b600082601f83011261332257600080fd5b813567ffffffffffffffff8082111561333d5761333d6132fb565b604051601f8301601f19908116603f01168101908282118183101715613365576133656132fb565b8160405283815286602085880101111561337e57600080fd5b836020870160208301376000602085830101528094505050505092915050565b801515811461230457600080fd5b600080600080600060a086880312156133c457600080fd5b85359450602086013567ffffffffffffffff808211156133e357600080fd5b6133ef89838a01613311565b9550604088013591508082111561340557600080fd5b61341189838a01613311565b9450606088013591508082111561342757600080fd5b5061343488828901613311565b92505060808601356134458161339e565b809150509295509295909350565b60008083601f84011261346557600080fd5b50813567ffffffffffffffff81111561347d57600080fd5b60208301915083602082850101111561349557600080fd5b9250929050565b600080600080600080608087890312156134b557600080fd5b6134be8761319a565b9550602087013567ffffffffffffffff808211156134db57600080fd5b6134e78a838b01613453565b90975095508591506134fb60408a0161319a565b9450606089013591508082111561351157600080fd5b5061351e89828a01613453565b979a9699509497509295939492505050565b6000806040838503121561354357600080fd5b50508035926020909101359150565b86815285602082015260c06040820152600061357160c0830187613142565b82810360608401526135838187613142565b905082810360808401526135978186613142565b91505082151560a0830152979650505050505050565b600080604083850312156135c057600080fd5b6135c98361319a565b91506135d76020840161319a565b90509250929050565b600080604083850312156135f357600080fd5b6135fc8361319a565b9150602083013567ffffffffffffffff81111561361857600080fd5b61362485828601613311565b9150509250929050565b60ff60f81b881681526000602060e08184015261364e60e084018a613142565b8381036040850152613660818a613142565b606085018990526001600160a01b038816608086015260a0850187905284810360c0860152855180825283870192509083019060005b818110156136b257835183529284019291840191600101613696565b50909c9b505050505050505050505050565b6000602082840312156136d657600080fd5b813567ffffffffffffffff8111156136ed57600080fd5b612d0e84828501613311565b6000806040838503121561370c57600080fd5b823591506135d76020840161319a565b87815260e06020820152600061373560e0830189613142565b82810360408401526137478189613142565b6001600160a01b03881660608501528381036080850152905061376a8187613142565b90508460a084015282810360c08401526137848185613142565b9a9950505050505050505050565b600080604083850312156137a557600080fd5b8235600981106135c957600080fd5b600080604083850312156137c757600080fd5b6137d08361319a565b915060208301356137e08161339e565b809150509250929050565b6000806000806080858703121561380157600080fd5b61380a8561319a565b93506138186020860161319a565b925060408501359150606085013567ffffffffffffffff81111561383b57600080fd5b61384787828801613311565b91505092959194509250565b600080600080600060a0868803121561386b57600080fd5b853567ffffffffffffffff8082111561388357600080fd5b61388f89838a01613311565b965060208801359150808211156138a557600080fd5b6138b189838a01613311565b955060408801359150808211156138c757600080fd5b6138d389838a01613311565b94506060880135935060808801359150808211156138f057600080fd5b506138fd88828901613311565b9150509295509295909350565b600181811c9082168061391e57607f821691505b60208210810361393e57634e487b7160e01b600052602260045260246000fd5b50919050565b634e487b7160e01b600052602160045260246000fd5b604081016009841061397c57634e487b7160e01b600052602160045260246000fd5b9281526001600160a01b039190911660209091015290565b6000602082840312156139a657600080fd5b81516116988161339e565b634e487b7160e01b600052601160045260246000fd5b6000600182016139d9576139d96139b1565b5060010190565b601f8211156112cd57600081815260208120601f850160051c81016020861015613a075750805b601f850160051c820191505b81811015613a2657828155600101613a13565b505050505050565b815167ffffffffffffffff811115613a4857613a486132fb565b613a5c81613a56845461390a565b846139e0565b602080601f831160018114613a915760008415613a795750858301515b600019600386901b1c1916600185901b178555613a26565b600085815260208120601f198616915b82811015613ac057888601518255948401946001909101908401613aa1565b5085821015613ade5787850151600019600388901b60f8161c191681555b5050505050600190811b01905550565b8183823760009101908152919050565b60008351613b1081846020880161311e565b835190830190613b2481836020880161311e565b01949350505050565b60008251613b3f81846020870161311e565b9190910192915050565b6001600160a01b03848116825283166020820152606060408201819052600090612f9090830184613142565b600060208284031215613b8757600080fd5b5051919050565b6001600160a01b0385811682528416602082015260408101839052608060608201819052600090613bc190830184613142565b9695505050505050565b600060208284031215613bdd57600080fd5b8151611698816130eb565b8181038181111561085f5761085f6139b1565b60008085851115613c0b57600080fd5b83861115613c1857600080fd5b5050820193919092039150565b6bffffffffffffffffffffffff198135818116916014851015613c525780818660140360031b1b83161692505b50509291505056fe80bb2b638cc20bc4d0a60d66940f3ab4a00c1d7b313497ca82fb0b4ab0079300a16a46d94261c7517cc8ff89f61c0ce93598e3c849801011dee649a6a557d100360894a13ba1a3210667c828492db98dca3e2076cc3735a920a3ca505d382bbca264697066735822122043eae2317332c10ff8f171c29e702ee6c9bd6cd22b93c44b24c35cb045e95ece64736f6c63430008140033",
  "linkReferences": {},
  "deployedLinkReferences": {}
}