{
  "_format": "hh-sol-artifact-1",
  "contractName": "MediSecureAccessControl",
  "sourceName": "contracts/MediSecureAccessControl.sol",
  "abi": [
    {
      "inputs": [],
      "stateMutability": "nonpayable",
      "type": "constructor"
    },
    {
      "inputs": [],
      "name": "AccessControlBadConfirmation",
      "type": "error"
    },
    {
      "inputs": [
        {
          "internalType": "address",
          "name": "account",
          "type": "address"
        },
        {
          "internalType": "bytes32",
          "name": "neededRole",
          "type": "bytes32"
        }
      ],
      "name": "AccessControlUnauthorizedAccount",
      "type": "error"
    },
    {
      "inputs": [],
      "name": "EnforcedPause",
      "type": "error"
    },
    {
      "inputs": [],
      "name": "ExpectedPause",
      "type": "error"
    },
    {
      "inputs": [],
      "name": "NotAuthorizedManager",
      "type": "error"
    },
    {
      "anonymous": false,
      "inputs": [
        {
          "indexed": false,
          "internalType": "address",
          "name": "account",
          "type": "address"
        }
      ],
      "name": "Paused",
      "type": "event"
    },
    {
      "anonymous": false,
      "inputs": [
        {
          "indexed": true,
          "internalType": "bytes32",
          "name": "role",
          "type": "bytes32"
        },
        {
          "indexed": true,
          "internalType": "bytes32",
          "name": "previousAdminRole",
          "type": "bytes32"
        },
        {
          "indexed": true,
          "internalType": "bytes32",
          "name": "newAdminRole",
          "type": "bytes32"
        }
      ],
      "name": "RoleAdminChanged",
      "type": "event"
    },
    {
      "anonymous": false,
      "inputs": [
        {
          "indexed": true,
          "internalType": "bytes32",
          "name": "role",
          "type": "bytes32"
        },
        {
          "indexed": true,
          "internalType": "address",
          "name": "account",
          "type": "address"
        },
        {
          "indexed": true,
          "internalType": "address",
          "name": "sender",
          "type": "address"
        }
      ],
      "name": "RoleGranted",
      "type": "event"
    },
    {
      "anonymous": false,
      "inputs": [
        {
          "indexed": true,
          "internalType": "bytes32",
          "name": "role",
          "type": "bytes32"
        },
        {
          "indexed": true,
          "internalType": "address",
          "name": "account",
          "type": "address"
        },
        {
          "indexed": true,
          "internalType": "address",
          "name": "sender",
          "type": "address"
        }
      ],
      "name": "RoleRevoked",
      "type": "event"
    },
    {
      "anonymous": false,
      "inputs": [
        {
          "indexed": false,
          "internalType": "address",
          "name": "account",
          "type": "address"
        }
      ],
      "name": "Unpaused",
      "type": "event"
    },
    {
      "inputs": [],
      "name": "ADMIN_ROLE",
      "outputs": [
        {
          "internalType": "bytes32",
          "name": "",
          "type": "bytes32"
        }
      ],
      "stateMutability": "view",
      "type": "function"
    },
    {
      "inputs": [],
      "name": "DEFAULT_ADMIN_ROLE",
      "outputs": [
        {
          "internalType": "bytes32",
          "name": "",
          "type": "bytes32"
        }
      ],
      "stateMutability": "view",
      "type": "function"
    },
    {
      "inputs": [],
      "name": "DOCTOR_ROLE",
      "outputs": [
        {
          "internalType": "bytes32",
          "name": "",
          "type": "bytes32"
        }
      ],
      "stateMutability": "view",
      "type": "function"
    },
    {
      "inputs": [],
      "name": "GOVERNOR_ROLE",
      "outputs": [
        {
          "internalType": "bytes32",
          "name": "",
          "type": "bytes32"
        }
      ],
      "stateMutability": "view",
      "type": "function"
    },
    {
      "inputs": [],
      "name": "HOSPITAL_ROLE",
      "outputs": [
        {
          "internalType": "bytes32",
          "name": "",
          "type": "bytes32"
        }
      ],
      "stateMutability": "view",
      "type": "function"
    },
    {
      "inputs": [],
      "name": "INSURANCE_PROVIDER_ROLE",
      "outputs": [
        {
          "internalType": "bytes32",
          "name": "",
          "type": "bytes32"
        }
      ],
      "stateMutability": "view",
      "type": "function"
    },
    {
      "inputs": [],
      "name": "MARKETPLACE_COMPANY_ROLE",
      "outputs": [
        {
          "internalType": "bytes32",
          "name": "",
          "type": "bytes32"
        }
      ],
      "stateMutability": "view",
      "type": "function"
    },
    {
      "inputs": [],
      "name": "PATIENT_ROLE",
      "outputs": [
        {
          "internalType": "bytes32",
          "name": "",
          "type": "bytes32"
        }
      ],
      "stateMutability": "view",
      "type": "function"
    },
    {
      "inputs": [],
      "name": "UPGRADER_ROLE",
      "outputs": [
        {
          "internalType": "bytes32",
          "name": "",
          "type": "bytes32"
        }
      ],
      "stateMutability": "view",
      "type": "function"
    },
    {
      "inputs": [],
      "name": "VERIFIER_ROLE",
      "outputs": [
        {
          "internalType": "bytes32",
          "name": "",
          "type": "bytes32"
        }
      ],
      "stateMutability": "view",
      "type": "function"
    },
    {
      "inputs": [
        {
          "internalType": "address",
          "name": "",
          "type": "address"
        }
      ],
      "name": "authorizedManagers",
      "outputs": [
        {
          "internalType": "bool",
          "name": "",
          "type": "bool"
        }
      ],
      "stateMutability": "view",
      "type": "function"
    },
    {
      "inputs": [
        {
          "internalType": "bytes32",
          "name": "role",
          "type": "bytes32"
        }
      ],
      "name": "getRoleAdmin",
      "outputs": [
        {
          "internalType": "bytes32",
          "name": "",
          "type": "bytes32"
        }
      ],
      "stateMutability": "view",
      "type": "function"
    },
    {
      "inputs": [
        {
          "internalType": "enum Roles",
          "name": "role",
          "type": "uint8"
        }
      ],
      "name": "getRoleHash",
      "outputs": [
        {
          "internalType": "bytes32",
          "name": "",
          "type": "bytes32"
        }
      ],
      "stateMutability": "pure",
      "type": "function"
    },
    {
      "inputs": [
        {
          "internalType": "address",
          "name": "account",
          "type": "address"
        }
      ],
      "name": "grantAdminRole",
      "outputs": [],
      "stateMutability": "nonpayable",
      "type": "function"
    },
    {
      "inputs": [
        {
          "internalType": "address",
          "name": "account",
          "type": "address"
        }
      ],
      "name": "grantCompanyRole",
      "outputs": [],
      "stateMutability": "nonpayable",
      "type": "function"
    },
    {
      "inputs": [
        {
          "internalType": "address",
          "name": "account",
          "type": "address"
        }
      ],
      "name": "grantDoctorRole",
      "outputs": [],
      "stateMutability": "nonpayable",
      "type": "function"
    },
    {
      "inputs": [
        {
          "internalType": "address",
          "name": "account",
          "type": "address"
        }
      ],
      "name": "grantGovernorRole",
      "outputs": [],
      "stateMutability": "nonpayable",
      "type": "function"
    },
    {
      "inputs": [
        {
          "internalType": "address",
          "name": "account",
          "type": "address"
        }
      ],
      "name": "grantHospitalRole",
      "outputs": [],
      "stateMutability": "nonpayable",
      "type": "function"
    },
    {
      "inputs": [
        {
          "internalType": "address",
          "name": "account",
          "type": "address"
        }
      ],
      "name": "grantInsuranceRole",
      "outputs": [],
      "stateMutability": "nonpayable",
      "type": "function"
    },
    {
      "inputs": [
        {
          "internalType": "address",
          "name": "account",
          "type": "address"
        }
      ],
      "name": "grantPatientRole",
      "outputs": [],
      "stateMutability": "nonpayable",
      "type": "function"
    },
    {
      "inputs": [
        {
          "internalType": "bytes32",
          "name": "role",
          "type": "bytes32"
        },
        {
          "internalType": "address",
          "name": "account",
          "type": "address"
        }
      ],
      "name": "grantRole",
      "outputs": [],
      "stateMutability": "nonpayable",
      "type": "function"
    },
    {
      "inputs": [
        {
          "internalType": "enum Roles",
          "name": "role",
          "type": "uint8"
        },
        {
          "internalType": "address",
          "name": "account",
          "type": "address"
        }
      ],
      "name": "grantRole",
      "outputs": [],
      "stateMutability": "nonpayable",
      "type": "function"
    },
    {
      "inputs": [
        {
          "internalType": "address",
          "name": "account",
          "type": "address"
        }
      ],
      "name": "grantUpgraderRole",
      "outputs": [],
      "stateMutability": "nonpayable",
      "type": "function"
    },
    {
      "inputs": [
        {
          "internalType": "address",
          "name": "account",
          "type": "address"
        }
      ],
      "name": "grantVerifierRole",
      "outputs": [],
      "stateMutability": "nonpayable",
      "type": "function"
    },
    {
      "inputs": [
        {
          "internalType": "bytes32",
          "name": "role",
          "type": "bytes32"
        },
        {
          "internalType": "address",
          "name": "account",
          "type": "address"
        }
      ],
      "name": "hasRole",
      "outputs": [
        {
          "internalType": "bool",
          "name": "",
          "type": "bool"
        }
      ],
      "stateMutability": "view",
      "type": "function"
    },
    {
      "inputs": [
        {
          "internalType": "enum Roles",
          "name": "role",
          "type": "uint8"
        },
        {
          "internalType": "address",
          "name": "account",
          "type": "address"
        }
      ],
      "name": "hasRole",
      "outputs": [
        {
          "internalType": "bool",
          "name": "",
          "type": "bool"
        }
      ],
      "stateMutability": "view",
      "type": "function"
    },
    {
      "inputs": [
        {
          "internalType": "address",
          "name": "account",
          "type": "address"
        }
      ],
      "name": "isCompany",
      "outputs": [
        {
          "internalType": "bool",
          "name": "",
          "type": "bool"
        }
      ],
      "stateMutability": "view",
      "type": "function"
    },
    {
      "inputs": [
        {
          "internalType": "address",
          "name": "account",
          "type": "address"
        }
      ],
      "name": "isDoctor",
      "outputs": [
        {
          "internalType": "bool",
          "name": "",
          "type": "bool"
        }
      ],
      "stateMutability": "view",
      "type": "function"
    },
    {
      "inputs": [
        {
          "internalType": "address",
          "name": "account",
          "type": "address"
        }
      ],
      "name": "isHospital",
      "outputs": [
        {
          "internalType": "bool",
          "name": "",
          "type": "bool"
        }
      ],
      "stateMutability": "view",
      "type": "function"
    },
    {
      "inputs": [
        {
          "internalType": "address",
          "name": "account",
          "type": "address"
        }
      ],
      "name": "isInsuranceProvider",
      "outputs": [
        {
          "internalType": "bool",
          "name": "",
          "type": "bool"
        }
      ],
      "stateMutability": "view",
      "type": "function"
    },
    {
      "inputs": [
        {
          "internalType": "address",
          "name": "account",
          "type": "address"
        }
      ],
      "name": "isPatient",
      "outputs": [
        {
          "internalType": "bool",
          "name": "",
          "type": "bool"
        }
      ],
      "stateMutability": "view",
      "type": "function"
    },
    {
      "inputs": [],
      "name": "pause",
      "outputs": [],
      "stateMutability": "nonpayable",
      "type": "function"
    },
    {
      "inputs": [],
      "name": "paused",
      "outputs": [
        {
          "internalType": "bool",
          "name": "",
          "type": "bool"
        }
      ],
      "stateMutability": "view",
      "type": "function"
    },
    {
      "inputs": [
        {
          "internalType": "bytes32",
          "name": "role",
          "type": "bytes32"
        },
        {
          "internalType": "address",
          "name": "callerConfirmation",
          "type": "address"
        }
      ],
      "name": "renounceRole",
      "outputs": [],
      "stateMutability": "nonpayable",
      "type": "function"
    },
    {
      "inputs": [
        {
          "internalType": "enum Roles",
          "name": "role",
          "type": "uint8"
        },
        {
          "internalType": "address",
          "name": "account",
          "type": "address"
        }
      ],
      "name": "revokeRole",
      "outputs": [],
      "stateMutability": "nonpayable",
      "type": "function"
    },
    {
      "inputs": [
        {
          "internalType": "bytes32",
          "name": "role",
          "type": "bytes32"
        },
        {
          "internalType": "address",
          "name": "account",
          "type": "address"
        }
      ],
      "name": "revokeRole",
      "outputs": [],
      "stateMutability": "nonpayable",
      "type": "function"
    },
    {
      "inputs": [
        {
          "internalType": "address",
          "name": "manager",
          "type": "address"
        },
        {
          "internalType": "bool",
          "name": "status",
          "type": "bool"
        }
      ],
      "name": "setAuthorizedManager",
      "outputs": [],
      "stateMutability": "nonpayable",
      "type": "function"
    },
    {
      "inputs": [
        {
          "internalType": "bytes4",
          "name": "interfaceId",
          "type": "bytes4"
        }
      ],
      "name": "supportsInterface",
      "outputs": [
        {
          "internalType": "bool",
          "name": "",
          "type": "bool"
        }
      ],
      "stateMutability": "view",
      "type": "function"
    },
    {
      "inputs": [],
      "name": "unpause",
      "outputs": [],
      "stateMutability": "nonpayable",
      "type": "function"
    }
  ],
  "bytecode": "0x608060405234801561001057600080fd5b506001805460ff191690556100457fa49807205ce4d355092ef5a8a18f56e8913cf4a201fbe287825b095693c217753361004b565b506100f7565b6000828152602081815260408083206001600160a01b038516845290915281205460ff166100ed576000838152602081815260408083206001600160a01b03861684529091529020805460ff191660011790556100a53390565b6001600160a01b0316826001600160a01b0316847f2f8788117e7eff1d82e926ec794901d17c78024a50270940304540a733656f0d60405160405180910390a45060016100f1565b5060005b92915050565b610ff1806101066000396000f3fe608060405234801561001057600080fd5b506004361061023d5760003560e01c8063886f0f951161013b578063bdf6c673116100b8578063e4dd1dca1161007c578063e4dd1dca14610536578063e7705db614610549578063f6ba667814610570578063f72c0d8b14610597578063fec331f2146105be57600080fd5b8063bdf6c673146104c3578063c634b78e146104d6578063ccc57490146104e9578063d2d8fe0714610510578063d547741f1461052357600080fd5b8063a0406ce2116100ff578063a0406ce214610447578063a217fddf1461045a578063ac5cb97d14610462578063acf94e9014610489578063bc963851146104b057600080fd5b8063886f0f95146103e85780638f9c79ed146103fb57806391d148541461040e578063996440c6146104215780639e97b8f61461043457600080fd5b80633f4ba83a116101c95780635d5664e11161018d5780635d5664e11461039257806375b238fc146103a55780637ee756f2146103ba5780637f2df8b0146103cd5780638456cb59146103e057600080fd5b80633f4ba83a146103465780634cbb87d31461034e578063519f040414610361578063595a1d3f146103745780635c975abb1461038757600080fd5b8063248a9ca311610210578063248a9ca3146102d75780632b71fb3a146102fa5780632f2ff15d1461030d5780632f5635cc1461032057806336568abe1461033357600080fd5b806301ffc9a7146102425780630337c0611461026a5780630a3cb21b1461027f5780632183de4f146102a2575b600080fd5b610255610250366004610e4f565b6105e5565b60405190151581526020015b60405180910390f35b61027d610278366004610e95565b61061c565b005b61025561028d366004610e95565b60026020526000908152604090205460ff1681565b6102c97f1bf54c22cc0f717dfed093391c21386d260aebed6896993543d4e49007d4a37a81565b604051908152602001610261565b6102c96102e5366004610eb0565b60009081526020819052604090206001015490565b61027d610308366004610ec9565b610679565b61027d61031b366004610f05565b6106b8565b61027d61032e366004610e95565b6106e3565b61027d610341366004610f05565b6106ee565b61027d610726565b61027d61035c366004610f40565b610741565b61027d61036f366004610e95565b610757565b61027d610382366004610e95565b6107b1565b60015460ff16610255565b61027d6103a0366004610f40565b610807565b6102c9600080516020610f9c83398151915281565b61027d6103c8366004610e95565b610819565b61027d6103db366004610e95565b610873565b61027d61087e565b61027d6103f6366004610e95565b610899565b610255610409366004610e95565b6108f3565b61025561041c366004610f05565b610900565b61025561042f366004610e95565b610929565b610255610442366004610f40565b610932565b610255610455366004610e95565b61094d565b6102c9600081565b6102c97f72606200fac42b7dc86b75901d61ecfab2a4a1a6eded478b97a428094891abed81565b6102c97fe4726cc1063b2e95565eee47060435f8d5626d3ad531b8c37baaa791120f247a81565b6102c96104be366004610f6a565b61095a565b6102556104d1366004610e95565b610b91565b61027d6104e4366004610e95565b610b9e565b6102c97f7935bd0ae54bc31f548c14dba4d37c5c64b3f8ca900cb468fb8abd54d5894f5581565b61025561051e366004610e95565b610ba9565b61027d610531366004610f05565b610bb6565b61027d610544366004610e95565b610bdb565b6102c97f0ce23c3e399818cfee81a7ab0880f714e53d7672b08df0fa62f2843416e1ea0981565b6102c97fc8f5b4140cca307cd927e59cbeea8291bffeee228fc677f0fa059aef7b4dd8d581565b6102c97f189ab7a9244df0848122154315af71fe140f3db0fe014031783b0946b8c9d2e381565b6102c97f0af1dac7dea2fd7f7738119cec7df099dfad49aa9d2e7d17ba6b60f63ae7411f81565b60006001600160e01b03198216637965db0b60e01b148061061657506301ffc9a760e01b6001600160e01b03198316145b92915050565b610634600080516020610f9c83398151915233610900565b8061064e57503360009081526002602052604090205460ff165b61066b576040516342f022f760e11b815260040160405180910390fd5b610676600682610807565b50565b610683600061095a565b61068c81610c35565b506001600160a01b03919091166000908152600260205260409020805460ff1916911515919091179055565b6000828152602081905260409020600101546106d381610c35565b6106dd8383610c3f565b50505050565b610676600182610807565b6001600160a01b03811633146107175760405163334bd91960e11b815260040160405180910390fd5b6107218282610cd1565b505050565b610730600061095a565b61073981610c35565b610676610d3c565b61075361074d8361095a565b82610bb6565b5050565b61076f600080516020610f9c83398151915233610900565b8061078957503360009081526002602052604090205460ff165b6107a6576040516342f022f760e11b815260040160405180910390fd5b610676600582610807565b6107c9600080516020610f9c83398151915233610900565b806107e357503360009081526002602052604090205460ff165b610800576040516342f022f760e11b815260040160405180910390fd5b6106766007825b6107536108138361095a565b826106b8565b610831600080516020610f9c83398151915233610900565b8061084b57503360009081526002602052604090205460ff165b610868576040516342f022f760e11b815260040160405180910390fd5b610676600382610807565b610676600282610807565b610888600061095a565b61089181610c35565b610676610d8e565b6108b1600080516020610f9c83398151915233610900565b806108cb57503360009081526002602052604090205460ff165b6108e8576040516342f022f760e11b815260040160405180910390fd5b610676600482610807565b6000610616600283610932565b6000918252602082815260408084206001600160a01b0393909316845291905290205460ff1690565b60006106166001835b60006109466109408461095a565b83610900565b9392505050565b6000610616600583610932565b60008082600881111561096f5761096f610f85565b036109895750600080516020610f9c833981519152919050565b600182600881111561099d5761099d610f85565b036109c957507f0af1dac7dea2fd7f7738119cec7df099dfad49aa9d2e7d17ba6b60f63ae7411f919050565b60028260088111156109dd576109dd610f85565b03610a0957507f72606200fac42b7dc86b75901d61ecfab2a4a1a6eded478b97a428094891abed919050565b6003826008811115610a1d57610a1d610f85565b03610a4957507fc8f5b4140cca307cd927e59cbeea8291bffeee228fc677f0fa059aef7b4dd8d5919050565b6004826008811115610a5d57610a5d610f85565b03610a8957507f1bf54c22cc0f717dfed093391c21386d260aebed6896993543d4e49007d4a37a919050565b6005826008811115610a9d57610a9d610f85565b03610ac957507fe4726cc1063b2e95565eee47060435f8d5626d3ad531b8c37baaa791120f247a919050565b6006826008811115610add57610add610f85565b03610b0957507f0ce23c3e399818cfee81a7ab0880f714e53d7672b08df0fa62f2843416e1ea09919050565b6007826008811115610b1d57610b1d610f85565b03610b4957507f189ab7a9244df0848122154315af71fe140f3db0fe014031783b0946b8c9d2e3919050565b6008826008811115610b5d57610b5d610f85565b03610b8957507f7935bd0ae54bc31f548c14dba4d37c5c64b3f8ca900cb468fb8abd54d5894f55919050565b506000919050565b6000610616600383610932565b610676600082610807565b6000610616600483610932565b600082815260208190526040902060010154610bd181610c35565b6106dd8383610cd1565b610bf3600080516020610f9c83398151915233610900565b80610c0d57503360009081526002602052604090205460ff165b610c2a576040516342f022f760e11b815260040160405180910390fd5b610676600882610807565b6106768133610dc9565b6000610c4b8383610900565b610cc9576000838152602081815260408083206001600160a01b03861684529091529020805460ff19166001179055610c813390565b6001600160a01b0316826001600160a01b0316847f2f8788117e7eff1d82e926ec794901d17c78024a50270940304540a733656f0d60405160405180910390a4506001610616565b506000610616565b6000610cdd8383610900565b15610cc9576000838152602081815260408083206001600160a01b0386168085529252808320805460ff1916905551339286917ff6391f5c32d9c69d2a47ea670b442974b53935d1edc7fd64eb21e047a839171b9190a4506001610616565b610d44610e06565b6001805460ff191690557f5db9ee0a495bf2e6ff9c91a7834c1ba4fdd244a5e8aa4e537bd38aeae4b073aa335b6040516001600160a01b03909116815260200160405180910390a1565b610d96610e2b565b6001805460ff1916811790557f62e78cea01bee320cd4e420270b5ea74000d11b0c9f74754ebdbfc544b05a25833610d71565b610dd38282610900565b6107535760405163e2517d3f60e01b81526001600160a01b03821660048201526024810183905260440160405180910390fd5b60015460ff16610e2957604051638dfc202b60e01b815260040160405180910390fd5b565b60015460ff1615610e295760405163d93c066560e01b815260040160405180910390fd5b600060208284031215610e6157600080fd5b81356001600160e01b03198116811461094657600080fd5b80356001600160a01b0381168114610e9057600080fd5b919050565b600060208284031215610ea757600080fd5b61094682610e79565b600060208284031215610ec257600080fd5b5035919050565b60008060408385031215610edc57600080fd5b610ee583610e79565b915060208301358015158114610efa57600080fd5b809150509250929050565b60008060408385031215610f1857600080fd5b82359150610f2860208401610e79565b90509250929050565b803560098110610e9057600080fd5b60008060408385031215610f5357600080fd5b610f5c83610f31565b9150610f2860208401610e79565b600060208284031215610f7c57600080fd5b61094682610f31565b634e487b7160e01b600052602160045260246000fdfea49807205ce4d355092ef5a8a18f56e8913cf4a201fbe287825b095693c21775a2646970667358221220cf90ce326e4cb12defabaa47627b6b4ccab5032da32d2f9963e56c62c666ec6664736f6c63430008140033",
  "linkReferences": {},
  "deployedLinkReferences": {}
}