{
  "_format": "hh-sol-artifact-1",
  "contractName": "TokenVesting",
  "sourceName": "contracts/TokenVesting.sol",
  "abi": [
    {
      "inputs": [
        {
          "internalType": "address",
          "name": "_token",
          "type": "address"
        },
        {
          "internalType": "address",
          "name": "_trustedForwarder",
          "type": "address"
        }
      ],
      "stateMutability": "nonpayable",
      "type": "constructor"
    },
    {
      "inputs": [
        {
          "internalType": "address",
          "name": "target",
          "type": "address"
        }
      ],
      "name": "AddressEmptyCode",
      "type": "error"
    },
    {
      "inputs": [
        {
          "internalType": "address",
          "name": "account",
          "type": "address"
        }
      ],
      "name": "AddressInsufficientBalance",
      "type": "error"
    },
    {
      "inputs": [],
      "name": "AlreadyRevoked",
      "type": "error"
    },
    {
      "inputs": [],
      "name": "FailedInnerCall",
      "type": "error"
    },
    {
      "inputs": [],
      "name": "InvalidAddress",
      "type": "error"
    },
    {
      "inputs": [],
      "name": "InvalidAmount",
      "type": "error"
    },
    {
      "inputs": [],
      "name": "InvalidDuration",
      "type": "error"
    },
    {
      "inputs": [],
      "name": "NoTokensToRelease",
      "type": "error"
    },
    {
      "inputs": [],
      "name": "NotRevocable",
      "type": "error"
    },
    {
      "inputs": [
        {
          "internalType": "address",
          "name": "owner",
          "type": "address"
        }
      ],
      "name": "OwnableInvalidOwner",
      "type": "error"
    },
    {
      "inputs": [
        {
          "internalType": "address",
          "name": "account",
          "type": "address"
        }
      ],
      "name": "OwnableUnauthorizedAccount",
      "type": "error"
    },
    {
      "inputs": [
        {
          "internalType": "address",
          "name": "token",
          "type": "address"
        }
      ],
      "name": "SafeERC20FailedOperation",
      "type": "error"
    },
    {
      "inputs": [],
      "name": "Unauthorized",
      "type": "error"
    },
    {
      "anonymous": false,
      "inputs": [
        {
          "indexed": true,
          "internalType": "address",
          "name": "previousOwner",
          "type": "address"
        },
        {
          "indexed": true,
          "internalType": "address",
          "name": "newOwner",
          "type": "address"
        }
      ],
      "name": "OwnershipTransferred",
      "type": "event"
    },
    {
      "anonymous": false,
      "inputs": [
        {
          "indexed": true,
          "internalType": "bytes32",
          "name": "scheduleId",
          "type": "bytes32"
        },
        {
          "indexed": false,
          "internalType": "uint256",
          "name": "amount",
          "type": "uint256"
        }
      ],
      "name": "TokensReleased",
      "type": "event"
    },
    {
      "anonymous": false,
      "inputs": [
        {
          "indexed": true,
          "internalType": "bytes32",
          "name": "scheduleId",
          "type": "bytes32"
        },
        {
          "indexed": true,
          "internalType": "address",
          "name": "beneficiary",
          "type": "address"
        },
        {
          "indexed": false,
          "internalType": "uint256",
          "name": "amount",
          "type": "uint256"
        }
      ],
      "name": "VestingCreated",
      "type": "event"
    },
    {
      "anonymous": false,
      "inputs": [
        {
          "indexed": true,
          "internalType": "bytes32",
          "name": "scheduleId",
          "type": "bytes32"
        }
      ],
      "name": "VestingRevoked",
      "type": "event"
    },
    {
      "inputs": [
        {
          "internalType": "address",
          "name": "",
          "type": "address"
        },
        {
          "internalType": "uint256",
          "name": "",
          "type": "uint256"
        }
      ],
      "name": "beneficiarySchedules",
      "outputs": [
        {
          "internalType": "bytes32",
          "name": "",
          "type": "bytes32"
        }
      ],
      "stateMutability": "view",
      "type": "function"
    },
    {
      "inputs": [],
      "name": "claim",
      "outputs": [
        {
          "internalType": "uint256",
          "name": "releasedAmount",
          "type": "uint256"
        }
      ],
      "stateMutability": "nonpayable",
      "type": "function"
    },
    {
      "inputs": [
        {
          "internalType": "address",
          "name": "_beneficiary",
          "type": "address"
        },
        {
          "internalType": "uint256",
          "name": "_totalAmount",
          "type": "uint256"
        },
        {
          "internalType": "uint256",
          "name": "_cliffDuration",
          "type": "uint256"
        },
        {
          "internalType": "uint256",
          "name": "_duration",
          "type": "uint256"
        },
        {
          "internalType": "bool",
          "name": "_revocable",
          "type": "bool"
        }
      ],
      "name": "createVesting",
      "outputs": [
        {
          "internalType": "bytes32",
          "name": "scheduleId",
          "type": "bytes32"
        }
      ],
      "stateMutability": "nonpayable",
      "type": "function"
    },
    {
      "inputs": [
        {
          "internalType": "address",
          "name": "_beneficiary",
          "type": "address"
        }
      ],
      "name": "getBeneficiarySchedules",
      "outputs": [
        {
          "internalType": "bytes32[]",
          "name": "",
          "type": "bytes32[]"
        }
      ],
      "stateMutability": "view",
      "type": "function"
    },
    {
      "inputs": [
        {
          "internalType": "address",
          "name": "_beneficiary",
          "type": "address"
        }
      ],
      "name": "getReleasableAmount",
      "outputs": [
        {
          "internalType": "uint256",
          "name": "",
          "type": "uint256"
        }
      ],
      "stateMutability": "view",
      "type": "function"
    },
    {
      "inputs": [
        {
          "internalType": "bytes32",
          "name": "_scheduleId",
          "type": "bytes32"
        }
      ],
      "name": "getScheduleDetails",
      "outputs": [
        {
          "internalType": "address",
          "name": "beneficiary",
          "type": "address"
        },
        {
          "internalType": "uint256",
          "name": "totalAmount",
          "type": "uint256"
        },
        {
          "internalType": "uint256",
          "name": "released",
          "type": "uint256"
        },
        {
          "internalType": "uint256",
          "name": "releasable",
          "type": "uint256"
        },
        {
          "internalType": "bool",
          "name": "revocable",
          "type": "bool"
        },
        {
          "internalType": "bool",
          "name": "revoked",
          "type": "bool"
        }
      ],
      "stateMutability": "view",
      "type": "function"
    },
    {
      "inputs": [
        {
          "internalType": "address",
          "name": "forwarder",
          "type": "address"
        }
      ],
      "name": "isTrustedForwarder",
      "outputs": [
        {
          "internalType": "bool",
          "name": "",
          "type": "bool"
        }
      ],
      "stateMutability": "view",
      "type": "function"
    },
    {
      "inputs": [],
      "name": "owner",
      "outputs": [
        {
          "internalType": "address",
          "name": "",
          "type": "address"
        }
      ],
      "stateMutability": "view",
      "type": "function"
    },
    {
      "inputs": [],
      "name": "renounceOwnership",
      "outputs": [],
      "stateMutability": "nonpayable",
      "type": "function"
    },
    {
      "inputs": [
        {
          "internalType": "bytes32",
          "name": "_scheduleId",
          "type": "bytes32"
        }
      ],
      "name": "revokeVesting",
      "outputs": [],
      "stateMutability": "nonpayable",
      "type": "function"
    },
    {
      "inputs": [],
      "name": "token",
      "outputs": [
        {
          "internalType": "contract IERC20",
          "name": "",
          "type": "address"
        }
      ],
      "stateMutability": "view",
      "type": "function"
    },
    {
      "inputs": [],
      "name": "totalVested",
      "outputs": [
        {
          "internalType": "uint256",
          "name": "",
          "type": "uint256"
        }
      ],
      "stateMutability": "view",
      "type": "function"
    },
    {
      "inputs": [
        {
          "internalType": "address",
          "name": "newOwner",
          "type": "address"
        }
      ],
      "name": "transferOwnership",
      "outputs": [],
      "stateMutability": "nonpayable",
      "type": "function"
    },
    {
      "inputs": [],
      "name": "trustedForwarder",
      "outputs": [
        {
          "internalType": "address",
          "name": "",
          "type": "address"
        }
      ],
      "stateMutability": "view",
      "type": "function"
    },
    {
      "inputs": [
        {
          "internalType": "bytes32",
          "name": "",
          "type": "bytes32"
        }
      ],
      "name": "vestingSchedules",
      "outputs": [
        {
          "internalType": "address",
          "name": "beneficiary",
          "type": "address"
        },
        {
          "internalType": "uint256",
          "name": "totalAmount",
          "type": "uint256"
        },
        {
          "internalType": "uint256",
          "name": "startTime",
          "type": "uint256"
        },
        {
          "internalType": "uint256",
          "name": "cliffDuration",
          "type": "uint256"
        },
        {
          "internalType": "uint256",
          "name": "duration",
          "type": "uint256"
        },
        {
          "internalType": "uint256",
          "name": "released",
          "type": "uint256"
        },
        {
          "internalType": "bool",
          "name": "revocable",
          "type": "bool"
        },
        {
          "internalType": "bool",
          "name": "revoked",
          "type": "bool"
        }
      ],
      "stateMutability": "view",
      "type": "function"
    }
  ],
  "bytecode": "0x60c06040523480156200001157600080fd5b50604051620013a5380380620013a58339810160408190526200003491620001bc565b806200003f620000bb565b6001600160a01b0381166200006e57604051631e4fbdf760e01b81526000600482015260240160405180910390fd5b6200007981620000cc565b506001600160a01b039081166080528216620000a85760405163e6c4247b60e01b815260040160405180910390fd5b506001600160a01b031660a05262000279565b6000620000c76200011c565b905090565b600080546001600160a01b038381166001600160a01b0319831681178455604051919092169283917f8be0079c531659141344cd1fd0a4f28419497f9722a3daafe3b4186f6b6457e09190a35050565b60003660146200012c3362000178565b8015620001395750808210155b1562000170576000366200014e8385620001f4565b6200015b9282906200021c565b620001669162000248565b60601c9250505090565b339250505090565b60006200018460805190565b6001600160a01b0316826001600160a01b0316149050919050565b80516001600160a01b0381168114620001b757600080fd5b919050565b60008060408385031215620001d057600080fd5b620001db836200019f565b9150620001eb602084016200019f565b90509250929050565b818103818111156200021657634e487b7160e01b600052601160045260246000fd5b92915050565b600080858511156200022d57600080fd5b838611156200023b57600080fd5b5050820193919092039150565b6001600160601b03198135818116916014851015620002715780818660140360031b1b83161692505b505092915050565b60805160a0516110e3620002c2600039600081816103400152818161059a0152818161087201526109eb0152600081816101b5015281816102ac0152610c6f01526110e36000f3fe608060405234801561001057600080fd5b50600436106100f55760003560e01c806360417887116100975780638fdd511e116100665780638fdd511e146102f5578063b8900aa714610315578063f2fde38b14610328578063fc0c546a1461033b57600080fd5b806360417887146101f5578063715018a6146102a05780637da0a877146102aa5780638da5cb5b146102e457600080fd5b80632afd1a7d116100d35780632afd1a7d1461017757806346ca42411461018a5780634e71d92d1461019d578063572b6c05146101a557600080fd5b8063199cbc54146100fa57806324ff026b1461011657806326855d6914610164575b600080fd5b61010360035481565b6040519081526020015b60405180910390f35b610129610124366004610e3e565b610362565b604080516001600160a01b039097168752602087019590955293850192909252606084015215156080830152151560a082015260c00161010d565b610103610172366004610e81565b6103cc565b610103610185366004610ed5565b61060f565b610103610198366004610ef0565b6106d3565b610103610704565b6101e56101b3366004610ed5565b7f00000000000000000000000000000000000000000000000000000000000000006001600160a01b0390811691161490565b604051901515815260200161010d565b610257610203366004610e3e565b600160208190526000918252604090912080549181015460028201546003830154600484015460058501546006909501546001600160a01b0390961695939492939192909160ff8082169161010090041688565b604080516001600160a01b0390991689526020890197909752958701949094526060860192909252608085015260a0840152151560c0830152151560e08201526101000161010d565b6102a86108a0565b005b7f00000000000000000000000000000000000000000000000000000000000000005b6040516001600160a01b03909116815260200161010d565b6000546001600160a01b03166102cc565b610308610303366004610ed5565b6108b4565b60405161010d9190610f1a565b6102a8610323366004610e3e565b610920565b6102a8610336366004610ed5565b610a42565b6102cc7f000000000000000000000000000000000000000000000000000000000000000081565b600081815260016020819052604082208054918101546005820154849384938493849384936001600160a01b031691908061039c85610a85565b6103a69190610f74565b60069490940154929b919a50985091965060ff8082169650610100909104169350915050565b60006103d6610aff565b6001600160a01b0386166103fd5760405163e6c4247b60e01b815260040160405180910390fd5b8460000361041e5760405163162908e360e11b815260040160405180910390fd5b8260000361043f57604051637616640160e01b815260040160405180910390fd5b5060408051606087901b6bffffffffffffffffffffffff1916602080830191909152603482018790524260548084018290528451808503909101815260748401808652815191840191909120610174850186526001600160a01b03808c16808452609487018c815260b4880195865260d488018c815260f489018c815260006101148b018181528d15156101348d01908152610154909c018281528883526001808d528e84209a518b5499166001600160a01b0319909916989098178a5594518988015598516002808a019190915592516003808a01919091559151600489015597516005880155985160069096018054925115156101000261ff00199715159790971661ffff1990931692909217959095179055845291845294822080549182018155825291812090910183905581548792919061057f908490610f87565b909155506105c29050610590610b5d565b6001600160a01b037f000000000000000000000000000000000000000000000000000000000000000016903088610b6c565b856001600160a01b0316817f9c550cbfc002e2d474c81a28bfec4830553d15cadbf57242afdc7510f2cb6714876040516105fe91815260200190565b60405180910390a395945050505050565b6001600160a01b038116600090815260026020526040812081805b82548110156106cb5760006001600085848154811061064b5761064b610f9a565b9060005260206000200154815260200190815260200160002090508060060160019054906101000a900460ff161561068357506106bb565b600061068e82610a85565b905081600501548111156106b85760058201546106ab9082610f74565b6106b59085610f87565b93505b50505b6106c481610fb0565b905061062a565b509392505050565b600260205281600052604060002081815481106106ef57600080fd5b90600052602060002001600091509150505481565b60008061070f610b5d565b6001600160a01b0381166000908152600260205260408120919250805b82548110156108435760006001600085848154811061074d5761074d610f9a565b9060005260206000200154815260200190815260200160002090508060060160019054906101000a900460ff16156107855750610833565b600061079082610a85565b905081600501548111156108305760008260050154826107b09190610f74565b9050808360050160008282546107c69190610f87565b909155506107d690508186610f87565b94508584815481106107ea576107ea610f9a565b90600052602060002001547f7e7eb8def93882018eb053721bca2801550a422e8176c587e1ad367fcc4fdc9d8260405161082691815260200190565b60405180910390a2505b50505b61083c81610fb0565b905061072c565b50806000036108655760405163094b911b60e41b815260040160405180910390fd5b6108996001600160a01b037f0000000000000000000000000000000000000000000000000000000000000000168483610bd9565b9392505050565b6108a8610aff565b6108b26000610c0f565b565b6001600160a01b03811660009081526002602090815260409182902080548351818402810184019094528084526060939283018282801561091457602002820191906000526020600020905b815481526020019060010190808311610900575b50505050509050919050565b610928610aff565b6000818152600160205260409020600681015460ff1661095b57604051639414820d60e01b815260040160405180910390fd5b6006810154610100900460ff16156109865760405163905e710760e01b815260040160405180910390fd5b60068101805461ff001916610100179055600581015460018201546000916109ad91610f74565b905080600360008282546109c19190610f74565b90915550508015610a1257610a126109e16000546001600160a01b031690565b6001600160a01b037f0000000000000000000000000000000000000000000000000000000000000000169083610bd9565b60405183907f8813e00e6b3387d6d203de4d34d29edffcbd1905c4338ca2faf29a673f9769f690600090a2505050565b610a4a610aff565b6001600160a01b038116610a7957604051631e4fbdf760e01b8152600060048201526024015b60405180910390fd5b610a8281610c0f565b50565b600081600301548260020154610a9b9190610f87565b421015610aaa57506000919050565b81600401548260020154610abe9190610f87565b4210610acc57506001015490565b60048201546002830154610ae09042610f74565b8360010154610aef9190610fc9565b610af99190610fe0565b92915050565b610b07610b5d565b6001600160a01b0316610b226000546001600160a01b031690565b6001600160a01b0316146108b257610b38610b5d565b60405163118cdaa760e01b81526001600160a01b039091166004820152602401610a70565b6000610b67610c5f565b905090565b6040516001600160a01b038481166024830152838116604483015260648201839052610bd39186918216906323b872dd906084015b604051602081830303815290604052915060e01b6020820180516001600160e01b038381831617835250505050610cd4565b50505050565b6040516001600160a01b03838116602483015260448201839052610c0a91859182169063a9059cbb90606401610ba1565b505050565b600080546001600160a01b038381166001600160a01b0319831681178455604051919092169283917f8be0079c531659141344cd1fd0a4f28419497f9722a3daafe3b4186f6b6457e09190a35050565b6000366014336001600160a01b037f000000000000000000000000000000000000000000000000000000000000000016148015610c9c5750808210155b15610ccc57600036610cae8385610f74565b610cb9928290611002565b610cc29161102c565b60601c9250505090565b339250505090565b6000610ce96001600160a01b03841683610d37565b90508051600014158015610d0e575080806020019051810190610d0c9190611061565b155b15610c0a57604051635274afe760e01b81526001600160a01b0384166004820152602401610a70565b60606108998383600084600080856001600160a01b03168486604051610d5d919061107e565b60006040518083038185875af1925050503d8060008114610d9a576040519150601f19603f3d011682016040523d82523d6000602084013e610d9f565b606091505b5091509150610daf868383610db9565b9695505050505050565b606082610dce57610dc982610e15565b610899565b8151158015610de557506001600160a01b0384163b155b15610e0e57604051639996b31560e01b81526001600160a01b0385166004820152602401610a70565b5080610899565b805115610e255780518082602001fd5b604051630a12f52160e11b815260040160405180910390fd5b600060208284031215610e5057600080fd5b5035919050565b80356001600160a01b0381168114610e6e57600080fd5b919050565b8015158114610a8257600080fd5b600080600080600060a08688031215610e9957600080fd5b610ea286610e57565b94506020860135935060408601359250606086013591506080860135610ec781610e73565b809150509295509295909350565b600060208284031215610ee757600080fd5b61089982610e57565b60008060408385031215610f0357600080fd5b610f0c83610e57565b946020939093013593505050565b6020808252825182820181905260009190848201906040850190845b81811015610f5257835183529284019291840191600101610f36565b50909695505050505050565b634e487b7160e01b600052601160045260246000fd5b81810381811115610af957610af9610f5e565b80820180821115610af957610af9610f5e565b634e487b7160e01b600052603260045260246000fd5b600060018201610fc257610fc2610f5e565b5060010190565b8082028115828204841417610af957610af9610f5e565b600082610ffd57634e487b7160e01b600052601260045260246000fd5b500490565b6000808585111561101257600080fd5b8386111561101f57600080fd5b5050820193919092039150565b6bffffffffffffffffffffffff1981358181169160148510156110595780818660140360031b1b83161692505b505092915050565b60006020828403121561107357600080fd5b815161089981610e73565b6000825160005b8181101561109f5760208186018101518583015201611085565b50600092019182525091905056fea2646970667358221220c04384a16fa97e79344f87eaa0af0b92093a97c4c05942c3a45e006707877b8e64736f6c63430008140033",
  "linkReferences": {},
  "deployedLinkReferences": {}
}