{
  "contractName": "DoctorFuzzTest",
  "abi": [
    {
      "inputs": [],
      "stateMutability": "nonpayable",
      "type": "constructor"
    },
    {
      "inputs": [],
      "name": "accessRequestCount",
      "outputs": [
        {
          "internalType": "uint256",
          "name": "",
          "type": "uint256"
        }
      ],
      "stateMutability": "view",
      "type": "function"
    },
    {
      "inputs": [
        {
          "internalType": "address",
          "name": "",
          "type": "address"
        },
        {
          "internalType": "address",
          "name": "",
          "type": "address"
        }
      ],
      "name": "accessStatus",
      "outputs": [
        {
          "internalType": "bool",
          "name": "",
          "type": "bool"
        }
      ],
      "stateMutability": "view",
      "type": "function"
    },
    {
      "inputs": [],
      "name": "doctorCount",
      "outputs": [
        {
          "internalType": "uint256",
          "name": "",
          "type": "uint256"
        }
      ],
      "stateMutability": "view",
      "type": "function"
    },
    {
      "inputs": [
        {
          "internalType": "uint256",
          "name": "",
          "type": "uint256"
        }
      ],
      "name": "doctorExists",
      "outputs": [
        {
          "internalType": "bool",
          "name": "",
          "type": "bool"
        }
      ],
      "stateMutability": "view",
      "type": "function"
    },
    {
      "inputs": [
        {
          "internalType": "address",
          "name": "",
          "type": "address"
        }
      ],
      "name": "doctorIds",
      "outputs": [
        {
          "internalType": "uint256",
          "name": "",
          "type": "uint256"
        }
      ],
      "stateMutability": "view",
      "type": "function"
    },
    {
      "inputs": [
        {
          "internalType": "address",
          "name": "",
          "type": "address"
        }
      ],
      "name": "emergencyAccess",
      "outputs": [
        {
          "internalType": "bool",
          "name": "",
          "type": "bool"
        }
      ],
      "stateMutability": "view",
      "type": "function"
    },
    {
      "inputs": [],
      "name": "hospitalContract",
      "outputs": [
        {
          "internalType": "address",
          "name": "",
          "type": "address"
        }
      ],
      "stateMutability": "view",
      "type": "function"
    },
    {
      "inputs": [],
      "name": "owner",
      "outputs": [
        {
          "internalType": "address",
          "name": "",
          "type": "address"
        }
      ],
      "stateMutability": "view",
      "type": "function"
    },
    {
      "inputs": [
        {
          "internalType": "address",
          "name": "_doctor",
          "type": "address"
        }
      ],
      "name": "registerDoctor",
      "outputs": [],
      "stateMutability": "nonpayable",
      "type": "function"
    },
    {
      "inputs": [
        {
          "internalType": "address",
          "name": "_hospital",
          "type": "address"
        }
      ],
      "name": "setHospital",
      "outputs": [],
      "stateMutability": "nonpayable",
      "type": "function"
    },
    {
      "inputs": [
        {
          "internalType": "address",
          "name": "_doctor",
          "type": "address"
        },
        {
          "internalType": "address",
          "name": "_patient",
          "type": "address"
        }
      ],
      "name": "requestAccess",
      "outputs": [],
      "stateMutability": "nonpayable",
      "type": "function"
    },
    {
      "inputs": [
        {
          "internalType": "address",
          "name": "_doctor",
          "type": "address"
        },
        {
          "internalType": "address",
          "name": "_patient",
          "type": "address"
        }
      ],
      "name": "grantAccess",
      "outputs": [],
      "stateMutability": "nonpayable",
      "type": "function"
    },
    {
      "inputs": [
        {
          "internalType": "address",
          "name": "_patient",
          "type": "address"
        }
      ],
      "name": "emergencyAccessGranted",
      "outputs": [],
      "stateMutability": "nonpayable",
      "type": "function"
    },
    {
      "inputs": [],
      "name": "invariant_doctor_count",
      "outputs": [],
      "stateMutability": "view",
      "type": "function"
    },
    {
      "inputs": [],
      "name": "invariant_access_bounds",
      "outputs": [],
      "stateMutability": "view",
      "type": "function"
    },
    {
      "inputs": [],
      "name": "invariant_access_requires_patient",
      "outputs": [],
      "stateMutability": "view",
      "type": "function"
    }
  ],
  "bytecode": "0x60806040525f6004555f600555348015610017575f80fd5b50600680546001600160a01b03191633179055610454806100375f395ff3fe608060405234801561000f575f80fd5b50600436106100fb575f3560e01c8063b3d38b2811610093578063c7fd17d311610063578063c7fd17d31461024c578063d8891d2314610112578063dec1c9041461027d578063ffc6ae5314610290575f80fd5b8063b3d38b2814610112578063bc12cde6146101e9578063c14ade0914610112578063c6a09d951461020b575f80fd5b8063699ca998116100ce578063699ca9981461018d57806378522bc4146101a05780638da5cb5b146101a9578063a083e082146101bc575f80fd5b806301d0ac0b146100ff578063104140851461011457806341d724b41461013057806347dbb71a14610162575b5f80fd5b61011261010d366004610392565b6102af565b005b61011d60055481565b6040519081526020015b60405180910390f35b61015261013e3660046103c3565b60036020525f908152604090205460ff1681565b6040519015158152602001610127565b600754610175906001600160a01b031681565b6040516001600160a01b039091168152602001610127565b61011261019b3660046103c3565b6102f3565b61011d60045481565b600654610175906001600160a01b031681565b6101526101ca366004610392565b600260209081525f928352604080842090915290825290205460ff1681565b6101526101f73660046103e3565b60016020525f908152604090205460ff1681565b610112610219366004610392565b6001600160a01b039182165f9081526002602090815260408083209390941682529190915220805460ff19166001179055565b61011261025a3660046103c3565b6001600160a01b03165f908152600360205260409020805460ff19166001179055565b61011261028b3660046103c3565b61033f565b61011d61029e3660046103c3565b5f6020819052908152604090205481565b60058054905f6102be836103fa565b90915550506001600160a01b039182165f9081526002602090815260408083209390941682529190915220805460ff19169055565b60048054905f610302836103fa565b90915550506004546001600160a01b039091165f90815260208181526040808320849055928252600190819052919020805460ff19169091179055565b6006546001600160a01b03163314610355575f80fd5b600780546001600160a01b0319166001600160a01b0392909216919091179055565b80356001600160a01b038116811461038d575f80fd5b919050565b5f80604083850312156103a3575f80fd5b6103ac83610377565b91506103ba60208401610377565b90509250929050565b5f602082840312156103d3575f80fd5b6103dc82610377565b9392505050565b5f602082840312156103f3575f80fd5b5035919050565b5f6001820161041757634e487b7160e01b5f52601160045260245ffd5b506001019056fea2646970667358221220ff86f43daa2b4ba0acb8dededd6115f71f98c342284ce51f3467fbb3129119df64736f6c63430008140033",
  "immutableReferences": {},
  "source": "// SPDX-License-Identifier: MIT\r\npragma solidity ^0.8.20;\r\n\r\n/**\r\n * @title DoctorFuzzTest\r\n * @dev Echidna fuzz testing for Doctor contract invariants.\r\n */\r\ncontract DoctorFuzzTest {\r\n    // State for testing\r\n    mapping(address => uint256) public doctorIds;\r\n    mapping(uint256 => bool) public doctorExists;\r\n    mapping(address => mapping(address => bool)) public accessStatus;\r\n    mapping(address => bool) public emergencyAccess;\r\n    \r\n    uint256 public doctorCount = 0;\r\n    uint256 public accessRequestCount = 0;\r\n    \r\n    address public owner;\r\n    address public hospitalContract;\r\n\r\n    constructor() {\r\n        owner = msg.sender;\r\n    }\r\n\r\n    // --- Helper Functions ---\r\n\r\n    function registerDoctor(address _doctor) public {\r\n        doctorCount++;\r\n        doctorIds[_doctor] = doctorCount;\r\n        doctorExists[doctorCount] = true;\r\n    }\r\n\r\n    function setHospital(address _hospital) public {\r\n        require(msg.sender == owner);\r\n        hospitalContract = _hospital;\r\n    }\r\n\r\n    function requestAccess(address _doctor, address _patient) public {\r\n        accessRequestCount++;\r\n        accessStatus[_doctor][_patient] = false;\r\n    }\r\n\r\n    function grantAccess(address _doctor, address _patient) public {\r\n        accessStatus[_doctor][_patient] = true;\r\n    }\r\n\r\n    function emergencyAccessGranted(address _patient) public {\r\n        emergencyAccess[_patient] = true;\r\n    }\r\n\r\n    // --- Invariants ---\r\n\r\n    /**\r\n     * @dev Invariant: Doctor count cannot be negative.\r\n     */\r\n    function invariant_doctor_count() public view {\r\n        assert(doctorCount >= 0);\r\n    }\r\n\r\n    /**\r\n     * @dev Invariant: Access requests cannot exceed reasonable bounds.\r\n     */\r\n    function invariant_access_bounds() public view {\r\n        assert(accessRequestCount >= 0);\r\n    }\r\n\r\n    /**\r\n     * @dev Invariant: If access is granted, patient must exist.\r\n     */\r\n    function invariant_access_requires_patient() public view {\r\n        // Logic checked by accessStatus mapping\r\n    }\r\n}",
  "sourcePath": "C:\\Users\\night\\Downloads\\team-rocket-medi-secure\\team-rocket-medi-secure\\contracts\\contracts\\DoctorFuzzTest.sol",
  "compiler": {
    "name": "solc",
    "version": "0.8.20+commit.a1b79de6.Emscripten.clang"
  },
  "schemaVersion": "3.4.16",
  "updatedAt": "2026-04-24T10:38:31.006Z",
  "devdoc": {
    "details": "Echidna fuzz testing for Doctor contract invariants.",
    "kind": "dev",
    "methods": {
      "invariant_access_bounds()": {
        "details": "Invariant: Access requests cannot exceed reasonable bounds."
      },
      "invariant_access_requires_patient()": {
        "details": "Invariant: If access is granted, patient must exist."
      },
      "invariant_doctor_count()": {
        "details": "Invariant: Doctor count cannot be negative."
      }
    },
    "title": "DoctorFuzzTest",
    "version": 1
  },
  "userdoc": {
    "kind": "user",
    "methods": {},
    "version": 1
  }
}