{
  "contractName": "DoctorUpgradeable",
  "abi": [
    {
      "inputs": [
        {
          "internalType": "address",
          "name": "_forwarder",
          "type": "address"
        }
      ],
      "stateMutability": "nonpayable",
      "type": "constructor"
    },
    {
      "inputs": [
        {
          "internalType": "address",
          "name": "target",
          "type": "address"
        }
      ],
      "name": "AddressEmptyCode",
      "type": "error"
    },
    {
      "inputs": [
        {
          "internalType": "address",
          "name": "implementation",
          "type": "address"
        }
      ],
      "name": "ERC1967InvalidImplementation",
      "type": "error"
    },
    {
      "inputs": [],
      "name": "ERC1967NonPayable",
      "type": "error"
    },
    {
      "inputs": [],
      "name": "EnforcedPause",
      "type": "error"
    },
    {
      "inputs": [],
      "name": "ExpectedPause",
      "type": "error"
    },
    {
      "inputs": [],
      "name": "FailedInnerCall",
      "type": "error"
    },
    {
      "inputs": [],
      "name": "InvalidInitialization",
      "type": "error"
    },
    {
      "inputs": [],
      "name": "NotInitializing",
      "type": "error"
    },
    {
      "inputs": [],
      "name": "ReentrancyGuardReentrantCall",
      "type": "error"
    },
    {
      "inputs": [],
      "name": "UUPSUnauthorizedCallContext",
      "type": "error"
    },
    {
      "inputs": [
        {
          "internalType": "bytes32",
          "name": "slot",
          "type": "bytes32"
        }
      ],
      "name": "UUPSUnsupportedProxiableUUID",
      "type": "error"
    },
    {
      "anonymous": false,
      "inputs": [
        {
          "indexed": true,
          "internalType": "address",
          "name": "patient",
          "type": "address"
        },
        {
          "indexed": true,
          "internalType": "address",
          "name": "doctor",
          "type": "address"
        },
        {
          "indexed": false,
          "internalType": "string",
          "name": "ipfsHash",
          "type": "string"
        },
        {
          "indexed": false,
          "internalType": "uint256",
          "name": "grantTime",
          "type": "uint256"
        },
        {
          "indexed": false,
          "internalType": "uint256",
          "name": "duration",
          "type": "uint256"
        }
      ],
      "name": "AccessGranted",
      "type": "event"
    },
    {
      "anonymous": false,
      "inputs": [
        {
          "indexed": true,
          "internalType": "address",
          "name": "patient",
          "type": "address"
        },
        {
          "indexed": true,
          "internalType": "address",
          "name": "doctor",
          "type": "address"
        },
        {
          "indexed": false,
          "internalType": "string",
          "name": "ipfsHash",
          "type": "string"
        },
        {
          "indexed": false,
          "internalType": "string",
          "name": "fileName",
          "type": "string"
        },
        {
          "indexed": false,
          "internalType": "uint256",
          "name": "duration",
          "type": "uint256"
        },
        {
          "indexed": false,
          "internalType": "string",
          "name": "reason",
          "type": "string"
        }
      ],
      "name": "AccessRequested",
      "type": "event"
    },
    {
      "anonymous": false,
      "inputs": [
        {
          "indexed": true,
          "internalType": "uint256",
          "name": "doctorId",
          "type": "uint256"
        },
        {
          "indexed": true,
          "internalType": "address",
          "name": "wallet",
          "type": "address"
        },
        {
          "indexed": false,
          "internalType": "string",
          "name": "name",
          "type": "string"
        }
      ],
      "name": "DoctorRegistered",
      "type": "event"
    },
    {
      "anonymous": false,
      "inputs": [
        {
          "indexed": true,
          "internalType": "address",
          "name": "patient",
          "type": "address"
        },
        {
          "indexed": true,
          "internalType": "address",
          "name": "doctor",
          "type": "address"
        },
        {
          "indexed": false,
          "internalType": "string",
          "name": "ipfsHash",
          "type": "string"
        },
        {
          "indexed": false,
          "internalType": "string",
          "name": "reason",
          "type": "string"
        },
        {
          "indexed": false,
          "internalType": "uint256",
          "name": "timestamp",
          "type": "uint256"
        }
      ],
      "name": "EmergencyAccessGranted",
      "type": "event"
    },
    {
      "anonymous": false,
      "inputs": [
        {
          "indexed": false,
          "internalType": "uint64",
          "name": "version",
          "type": "uint64"
        }
      ],
      "name": "Initialized",
      "type": "event"
    },
    {
      "anonymous": false,
      "inputs": [
        {
          "indexed": false,
          "internalType": "address",
          "name": "account",
          "type": "address"
        }
      ],
      "name": "Paused",
      "type": "event"
    },
    {
      "anonymous": false,
      "inputs": [
        {
          "indexed": false,
          "internalType": "address",
          "name": "account",
          "type": "address"
        }
      ],
      "name": "Unpaused",
      "type": "event"
    },
    {
      "anonymous": false,
      "inputs": [
        {
          "indexed": true,
          "internalType": "address",
          "name": "implementation",
          "type": "address"
        }
      ],
      "name": "Upgraded",
      "type": "event"
    },
    {
      "inputs": [],
      "name": "UPGRADE_INTERFACE_VERSION",
      "outputs": [
        {
          "internalType": "string",
          "name": "",
          "type": "string"
        }
      ],
      "stateMutability": "view",
      "type": "function"
    },
    {
      "inputs": [],
      "name": "accessControl",
      "outputs": [
        {
          "internalType": "contract MediSecureAccessControl",
          "name": "",
          "type": "address"
        }
      ],
      "stateMutability": "view",
      "type": "function"
    },
    {
      "inputs": [
        {
          "internalType": "uint256",
          "name": "",
          "type": "uint256"
        },
        {
          "internalType": "uint256",
          "name": "",
          "type": "uint256"
        }
      ],
      "name": "doctorAccessList",
      "outputs": [
        {
          "internalType": "address",
          "name": "patient",
          "type": "address"
        },
        {
          "internalType": "string",
          "name": "ipfsHash",
          "type": "string"
        },
        {
          "internalType": "bool",
          "name": "hasAccess",
          "type": "bool"
        },
        {
          "internalType": "uint256",
          "name": "grantTime",
          "type": "uint256"
        },
        {
          "internalType": "uint256",
          "name": "duration",
          "type": "uint256"
        },
        {
          "internalType": "string",
          "name": "reason",
          "type": "string"
        },
        {
          "internalType": "bool",
          "name": "isEmergency",
          "type": "bool"
        }
      ],
      "stateMutability": "view",
      "type": "function"
    },
    {
      "inputs": [
        {
          "internalType": "uint256",
          "name": "",
          "type": "uint256"
        }
      ],
      "name": "doctors",
      "outputs": [
        {
          "internalType": "string",
          "name": "name",
          "type": "string"
        },
        {
          "internalType": "string",
          "name": "specialization",
          "type": "string"
        },
        {
          "internalType": "string",
          "name": "email",
          "type": "string"
        },
        {
          "internalType": "string",
          "name": "hospital",
          "type": "string"
        },
        {
          "internalType": "bool",
          "name": "isActive",
          "type": "bool"
        }
      ],
      "stateMutability": "view",
      "type": "function"
    },
    {
      "inputs": [
        {
          "internalType": "bytes32",
          "name": "role",
          "type": "bytes32"
        },
        {
          "internalType": "address",
          "name": "account",
          "type": "address"
        }
      ],
      "name": "hasRole",
      "outputs": [
        {
          "internalType": "bool",
          "name": "",
          "type": "bool"
        }
      ],
      "stateMutability": "view",
      "type": "function"
    },
    {
      "inputs": [
        {
          "internalType": "enum Roles",
          "name": "role",
          "type": "uint8"
        },
        {
          "internalType": "address",
          "name": "account",
          "type": "address"
        }
      ],
      "name": "hasRole",
      "outputs": [
        {
          "internalType": "bool",
          "name": "",
          "type": "bool"
        }
      ],
      "stateMutability": "view",
      "type": "function"
    },
    {
      "inputs": [],
      "name": "hospitalContract",
      "outputs": [
        {
          "internalType": "address",
          "name": "",
          "type": "address"
        }
      ],
      "stateMutability": "view",
      "type": "function"
    },
    {
      "inputs": [
        {
          "internalType": "address",
          "name": "account",
          "type": "address"
        }
      ],
      "name": "isAdmin",
      "outputs": [
        {
          "internalType": "bool",
          "name": "",
          "type": "bool"
        }
      ],
      "stateMutability": "view",
      "type": "function"
    },
    {
      "inputs": [
        {
          "internalType": "address",
          "name": "forwarder",
          "type": "address"
        }
      ],
      "name": "isTrustedForwarder",
      "outputs": [
        {
          "internalType": "bool",
          "name": "",
          "type": "bool"
        }
      ],
      "stateMutability": "view",
      "type": "function"
    },
    {
      "inputs": [],
      "name": "paused",
      "outputs": [
        {
          "internalType": "bool",
          "name": "",
          "type": "bool"
        }
      ],
      "stateMutability": "view",
      "type": "function"
    },
    {
      "inputs": [],
      "name": "proxiableUUID",
      "outputs": [
        {
          "internalType": "bytes32",
          "name": "",
          "type": "bytes32"
        }
      ],
      "stateMutability": "view",
      "type": "function"
    },
    {
      "inputs": [],
      "name": "trustedForwarder",
      "outputs": [
        {
          "internalType": "address",
          "name": "",
          "type": "address"
        }
      ],
      "stateMutability": "view",
      "type": "function"
    },
    {
      "inputs": [
        {
          "internalType": "address",
          "name": "newImplementation",
          "type": "address"
        },
        {
          "internalType": "bytes",
          "name": "data",
          "type": "bytes"
        }
      ],
      "name": "upgradeToAndCall",
      "outputs": [],
      "stateMutability": "payable",
      "type": "function"
    },
    {
      "inputs": [
        {
          "internalType": "address",
          "name": "",
          "type": "address"
        }
      ],
      "name": "walletToDoctorId",
      "outputs": [
        {
          "internalType": "uint256",
          "name": "",
          "type": "uint256"
        }
      ],
      "stateMutability": "view",
      "type": "function"
    },
    {
      "inputs": [
        {
          "internalType": "address",
          "name": "_accessControl",
          "type": "address"
        }
      ],
      "name": "initialize",
      "outputs": [],
      "stateMutability": "nonpayable",
      "type": "function"
    },
    {
      "inputs": [
        {
          "internalType": "address",
          "name": "_hospital",
          "type": "address"
        }
      ],
      "name": "setHospitalContract",
      "outputs": [],
      "stateMutability": "nonpayable",
      "type": "function"
    },
    {
      "inputs": [
        {
          "internalType": "string",
          "name": "_name",
          "type": "string"
        },
        {
          "internalType": "string",
          "name": "_specialization",
          "type": "string"
        },
        {
          "internalType": "string",
          "name": "_email",
          "type": "string"
        },
        {
          "internalType": "string",
          "name": "_hospital",
          "type": "string"
        }
      ],
      "name": "registerDoctor",
      "outputs": [],
      "stateMutability": "nonpayable",
      "type": "function"
    },
    {
      "inputs": [
        {
          "internalType": "address",
          "name": "_patient",
          "type": "address"
        },
        {
          "internalType": "string",
          "name": "_ipfsHash",
          "type": "string"
        },
        {
          "internalType": "string",
          "name": "_fileName",
          "type": "string"
        },
        {
          "internalType": "uint256",
          "name": "_duration",
          "type": "uint256"
        },
        {
          "internalType": "string",
          "name": "_reason",
          "type": "string"
        }
      ],
      "name": "requestAccess",
      "outputs": [],
      "stateMutability": "nonpayable",
      "type": "function"
    },
    {
      "inputs": [
        {
          "internalType": "address",
          "name": "_patient",
          "type": "address"
        },
        {
          "internalType": "string",
          "name": "_ipfsHash",
          "type": "string"
        },
        {
          "internalType": "string",
          "name": "_reason",
          "type": "string"
        },
        {
          "internalType": "address",
          "name": "_hospitalAddress",
          "type": "address"
        }
      ],
      "name": "emergencyBreakGlass",
      "outputs": [],
      "stateMutability": "nonpayable",
      "type": "function"
    },
    {
      "inputs": [
        {
          "internalType": "uint256",
          "name": "_accessIndex",
          "type": "uint256"
        }
      ],
      "name": "grantAccess",
      "outputs": [],
      "stateMutability": "nonpayable",
      "type": "function"
    },
    {
      "inputs": [
        {
          "internalType": "address",
          "name": "_patient",
          "type": "address"
        },
        {
          "internalType": "string",
          "name": "_ipfsHash",
          "type": "string"
        }
      ],
      "name": "hasAccessToDocument",
      "outputs": [
        {
          "internalType": "bool",
          "name": "",
          "type": "bool"
        }
      ],
      "stateMutability": "view",
      "type": "function"
    },
    {
      "inputs": [
        {
          "internalType": "address",
          "name": "account",
          "type": "address"
        }
      ],
      "name": "doctorExists",
      "outputs": [
        {
          "internalType": "bool",
          "name": "",
          "type": "bool"
        }
      ],
      "stateMutability": "view",
      "type": "function"
    }
  ],
  "bytecode": "0x60c06040523060805234801562000014575f80fd5b5060405162002adb38038062002adb833981016040819052620000379162000049565b6001600160a01b031660a05262000078565b5f602082840312156200005a575f80fd5b81516001600160a01b038116811462000071575f80fd5b9392505050565b60805160a051612a25620000b65f395f81816102d6015281816103990152611d5f01525f8181611a2b01528181611a540152611c630152612a255ff3fe608060405260043610610131575f3560e01c80635c975abb116100a857806398cf72b31161006d57806398cf72b3146103dc5780639e97b8f614610407578063ad3cb1cc14610426578063c4d66de814610463578063d35cbccf14610482578063f6827cd1146104a1575f80fd5b80635c975abb146103065780636efb1b841461033c5780637ca145631461036c5780637da0a8771461038b57806391d14854146103bd575f80fd5b806333948de2116100f957806333948de21461021557806333a8587f1461024757806347dbb71a146102665780634f1ef2861461028557806352d1902d14610298578063572b6c05146102ba575f80fd5b806302b66aaf1461013557806313007d5514610156578063157597541461019157806324d7806c146101b05780632ad230a9146101df575b5f80fd5b348015610140575f80fd5b5061015461014f3660046120fb565b6104c0565b005b348015610161575f80fd5b505f54610174906001600160a01b031681565b6040516001600160a01b0390911681526020015b60405180910390f35b34801561019c575f80fd5b506101546101ab366004612197565b610827565b3480156101bb575f80fd5b506101cf6101ca366004612197565b610960565b6040519015158152602001610188565b3480156101ea575f80fd5b506101cf6101f9366004612197565b6001600160a01b03165f90815260336020526040902054151590565b348015610220575f80fd5b5061023461022f3660046121b0565b6109d7565b604051610188979695949392919061221d565b348015610252575f80fd5b5061015461026136600461227d565b610b51565b348015610271575f80fd5b50603254610174906001600160a01b031681565b610154610293366004612323565b610dc3565b3480156102a3575f80fd5b506102ac610de2565b604051908152602001610188565b3480156102c5575f80fd5b506101cf6102d4366004612197565b7f00000000000000000000000000000000000000000000000000000000000000006001600160a01b0390811691161490565b348015610311575f80fd5b507fcd5ed15c6e187e77e9aee88184c21f4f2182ab5827cb3b7e07fbedcd63f033005460ff166101cf565b348015610347575f80fd5b5061035b610356366004612381565b610dfd565b604051610188959493929190612398565b348015610377575f80fd5b50610154610386366004612381565b611045565b348015610396575f80fd5b507f0000000000000000000000000000000000000000000000000000000000000000610174565b3480156103c8575f80fd5b506101cf6103d73660046123f9565b6112ac565b3480156103e7575f80fd5b506102ac6103f6366004612197565b60336020525f908152604090205481565b348015610412575f80fd5b506101cf610421366004612423565b611327565b348015610431575f80fd5b50610456604051806040016040528060058152602001640352e302e360dc1b81525081565b6040516101889190612450565b34801561046e575f80fd5b5061015461047d366004612197565b611359565b34801561048d575f80fd5b5061015461049c366004612462565b61147f565b3480156104ac575f80fd5b506101cf6104bb3660046124e2565b611813565b6104c86119cd565b5f546001906001600160a01b0316639e97b8f6826104e4611a12565b6040518363ffffffff1660e01b8152600401610501929190612523565b602060405180830381865afa15801561051c573d5f803e3d5ffd5b505050506040513d601f19601f82011682018060405250810190610540919061255b565b6105655760405162461bcd60e51b815260040161055c9061257a565b60405180910390fd5b5f8054906101000a90046001600160a01b03166001600160a01b0316635c975abb6040518163ffffffff1660e01b8152600401602060405180830381865afa1580156105b3573d5f803e3d5ffd5b505050506040513d601f19601f820116820180604052508101906105d7919061255b565b156105f45760405162461bcd60e51b815260040161055c906125bb565b5f60335f610600611a12565b6001600160a01b03166001600160a01b031681526020019081526020015f20549050805f036106415760405162461bcd60e51b815260040161055c906125f2565b6001600160a01b0387166106895760405162461bcd60e51b815260206004820152600f60248201526e125b9d985b1a59081c185d1a595b9d608a1b604482015260640161055c565b5f8411801561069c57506301e133808411155b6106db5760405162461bcd60e51b815260206004820152601060248201526f24b73b30b634b210323ab930ba34b7b760811b604482015260640161055c565b5f818152603560209081526040808320815160e0810183526001600160a01b038c811682528185018c815293820186905260608201869052608082018a905260a0820189905260c0820186905282546001808201855593875294909520815160079095020180546001600160a01b03191694909516939093178455905191929190820190610769908261269e565b50604082015160028201805460ff1916911515919091179055606082015160038201556080820151600482015560a082015160058201906107aa908261269e565b5060c091909101516006909101805460ff19169115159190911790556107ce611a12565b6001600160a01b0316876001600160a01b03167fc4de088654327f2907ad8f0c288704b90c01af218c310b25c1682df9b7c8c7cd88888888604051610816949392919061275a565b60405180910390a350505050505050565b5f80546001600160a01b031690639e97b8f690610842611a12565b6040518363ffffffff1660e01b815260040161085f929190612523565b602060405180830381865afa15801561087a573d5f803e3d5ffd5b505050506040513d601f19601f8201168201806040525081019061089e919061255b565b6108f55760405162461bcd60e51b815260206004820152602260248201527f416363657373436f6e74726f6c3a20726573747269637465642d746f2d61646d60448201526134b760f11b606482015260840161055c565b6001600160a01b03811661093e5760405162461bcd60e51b815260206004820152601060248201526f125b9d985b1a59081a1bdcdc1a5d185b60821b604482015260640161055c565b603280546001600160a01b0319166001600160a01b0392909216919091179055565b5f8054604051634f4bdc7b60e11b81526001600160a01b0390911690639e97b8f6906109929084908690600401612523565b602060405180830381865afa1580156109ad573d5f803e3d5ffd5b505050506040513d601f19601f820116820180604052508101906109d1919061255b565b92915050565b6035602052815f5260405f2081815481106109f0575f80fd5b5f918252602090912060079091020180546001820180546001600160a01b039092169450919250610a2090612621565b80601f0160208091040260200160405190810160405280929190818152602001828054610a4c90612621565b8015610a975780601f10610a6e57610100808354040283529160200191610a97565b820191905f5260205f20905b815481529060010190602001808311610a7a57829003601f168201915b505050600284015460038501546004860154600587018054969760ff9094169692955090935090610ac790612621565b80601f0160208091040260200160405190810160405280929190818152602001828054610af390612621565b8015610b3e5780601f10610b1557610100808354040283529160200191610b3e565b820191905f5260205f20905b815481529060010190602001808311610b2157829003601f168201915b5050506006909301549192505060ff1687565b610b596119cd565b60335f610b64611a12565b6001600160a01b0316815260208101919091526040015f205415610bbf5760405162461bcd60e51b8152602060048201526012602482015271105b1c9958591e481c9959da5cdd195c995960721b604482015260640161055c565b5f845111610bfe5760405162461bcd60e51b815260206004820152600c60248201526b496e76616c6964206e616d6560a01b604482015260640161055c565b5f835111610c475760405162461bcd60e51b815260206004820152601660248201527524b73b30b634b21039b832b1b4b0b634bd30ba34b7b760511b604482015260640161055c565b60368054905f610c56836127b7565b90915550506036548060335f610c6a611a12565b6001600160a01b0316815260208082019290925260409081015f9081209390935583835260349091529020610c9f868261269e565b505f818152603460205260409020600101610cba858261269e565b505f818152603460205260409020600201610cd5848261269e565b505f818152603460205260409020600301610cf0838261269e565b505f818152603460205260408120600501805460ff1916600190811790915590546001600160a01b031690635d5664e190610d29611a12565b6040518363ffffffff1660e01b8152600401610d46929190612523565b5f604051808303815f87803b158015610d5d575f80fd5b505af1158015610d6f573d5f803e3d5ffd5b50505050610d7b611a12565b6001600160a01b0316817f8de76adc97d5ae61684a14cc77473db8a63c8ce1a9a5a937814252292e41220687604051610db49190612450565b60405180910390a35050505050565b610dcb611a20565b610dd482611ac4565b610dde8282611b97565b5050565b5f610deb611c58565b505f805160206129d083398151915290565b60346020525f9081526040902080548190610e1790612621565b80601f0160208091040260200160405190810160405280929190818152602001828054610e4390612621565b8015610e8e5780601f10610e6557610100808354040283529160200191610e8e565b820191905f5260205f20905b815481529060010190602001808311610e7157829003601f168201915b505050505090806001018054610ea390612621565b80601f0160208091040260200160405190810160405280929190818152602001828054610ecf90612621565b8015610f1a5780601f10610ef157610100808354040283529160200191610f1a565b820191905f5260205f20905b815481529060010190602001808311610efd57829003601f168201915b505050505090806002018054610f2f90612621565b80601f0160208091040260200160405190810160405280929190818152602001828054610f5b90612621565b8015610fa65780601f10610f7d57610100808354040283529160200191610fa6565b820191905f5260205f20905b815481529060010190602001808311610f8957829003601f168201915b505050505090806003018054610fbb90612621565b80601f0160208091040260200160405190810160405280929190818152602001828054610fe790612621565b80156110325780601f1061100957610100808354040283529160200191611032565b820191905f5260205f20905b81548152906001019060200180831161101557829003601f168201915b5050506005909301549192505060ff1685565b5f546001906001600160a01b0316639e97b8f682611061611a12565b6040518363ffffffff1660e01b815260040161107e929190612523565b602060405180830381865afa158015611099573d5f803e3d5ffd5b505050506040513d601f19601f820116820180604052508101906110bd919061255b565b6110d95760405162461bcd60e51b815260040161055c9061257a565b5f8054906101000a90046001600160a01b03166001600160a01b0316635c975abb6040518163ffffffff1660e01b8152600401602060405180830381865afa158015611127573d5f803e3d5ffd5b505050506040513d601f19601f8201168201806040525081019061114b919061255b565b156111685760405162461bcd60e51b815260040161055c906125bb565b5f60335f611174611a12565b6001600160a01b03166001600160a01b031681526020019081526020015f20549050805f036111b55760405162461bcd60e51b815260040161055c906125f2565b5f8181526035602052604090205483106112015760405162461bcd60e51b815260206004820152600d60248201526c092dcecc2d8d2c840d2dcc8caf609b1b604482015260640161055c565b5f818152603560205260408120805485908110611220576112206127cf565b5f91825260209091206002600790920201908101805460ff19166001179055426003820155905061124f611a12565b8154600383015460048401546040516001600160a01b0394851694909316927fc298d419e944a3f1e7da1b2245c9f34649b9a6ea67875bcd37e975ef5d7209a39261129e9260018801926127e3565b60405180910390a350505050565b5f8054604051632474521560e21b8152600481018590526001600160a01b038481166024830152909116906391d14854906044015b602060405180830381865afa1580156112fc573d5f803e3d5ffd5b505050506040513d601f19601f82011682018060405250810190611320919061255b565b9392505050565b5f8054604051634f4bdc7b60e11b81526001600160a01b0390911690639e97b8f6906112e19086908690600401612523565b7ff0c57e16840df040f15088dc2f81fe391c3923bec73e23a9662efc9c229c6a008054600160401b810460ff16159067ffffffffffffffff165f8115801561139e5750825b90505f8267ffffffffffffffff1660011480156113ba5750303b155b9050811580156113c8575080155b156113e65760405163f92ee8a960e01b815260040160405180910390fd5b845467ffffffffffffffff19166001178555831561141057845460ff60401b1916600160401b1785555b611418611ca1565b611420611cb1565b61142986611cc1565b611431611d48565b831561147757845460ff60401b19168555604051600181527fc7f505b2f371ae2175ee4913f4499e1f2633a7b5936321eed1cdaeb6115181d29060200160405180910390a15b505050505050565b6114876119cd565b5f546001906001600160a01b0316639e97b8f6826114a3611a12565b6040518363ffffffff1660e01b81526004016114c0929190612523565b602060405180830381865afa1580156114db573d5f803e3d5ffd5b505050506040513d601f19601f820116820180604052508101906114ff919061255b565b61151b5760405162461bcd60e51b815260040161055c9061257a565b5f8054906101000a90046001600160a01b03166001600160a01b0316635c975abb6040518163ffffffff1660e01b8152600401602060405180830381865afa158015611569573d5f803e3d5ffd5b505050506040513d601f19601f8201168201806040525081019061158d919061255b565b156115aa5760405162461bcd60e51b815260040161055c906125bb565b5f60335f6115b6611a12565b6001600160a01b03166001600160a01b031681526020019081526020015f20549050805f036115f75760405162461bcd60e51b815260040161055c906125f2565b6032546001600160a01b031663b6d85395611610611a12565b6040516001600160e01b031960e084901b1681526001600160a01b0391821660048201529086166024820152604401602060405180830381865afa15801561165a573d5f803e3d5ffd5b505050506040513d601f19601f8201168201806040525081019061167e919061255b565b6116ca5760405162461bcd60e51b815260206004820152601c60248201527f4e6f74206f6e2064757479206174207468697320686f73706974616c00000000604482015260640161055c565b5f818152603560209081526040808320815160e0810183526001600160a01b038b811682528185018b81526001948301859052426060840152610e10608084015260a083018b905260c083018590528354808601855593875294909520815160079093020180546001600160a01b03191692909516919091178455915191929190820190611758908261269e565b50604082015160028201805460ff1916911515919091179055606082015160038201556080820151600482015560a08201516005820190611799908261269e565b5060c091909101516006909101805460ff19169115159190911790556117bd611a12565b6001600160a01b0316866001600160a01b03167fc18b0a731326cfd073d9219b559d4a74aaed4d08716d26c4ace853127d096edb87874260405161180393929190612874565b60405180910390a3505050505050565b5f8060335f611820611a12565b6001600160a01b03166001600160a01b031681526020019081526020015f20549050805f03611852575f9150506109d1565b5f818152603560205260408120905b81548110156119c257856001600160a01b0316828281548110611886576118866127cf565b5f9182526020909120600790910201546001600160a01b03161480156119175750846040516020016118b891906128a9565b604051602081830303815290604052805190602001208282815481106118e0576118e06127cf565b905f5260205f2090600702016001016040516020016118ff91906128c4565b60405160208183030381529060405280519060200120145b80156119475750818181548110611930576119306127cf565b5f91825260209091206002600790920201015460ff165b801561199f575042828281548110611961576119616127cf565b905f5260205f20906007020160040154838381548110611983576119836127cf565b905f5260205f2090600702016003015461199d9190612936565b115b156119b057600193505050506109d1565b806119ba816127b7565b915050611861565b505f95945050505050565b7fcd5ed15c6e187e77e9aee88184c21f4f2182ab5827cb3b7e07fbedcd63f033005460ff1615611a105760405163d93c066560e01b815260040160405180910390fd5b565b5f611a1b611d50565b905090565b306001600160a01b037f0000000000000000000000000000000000000000000000000000000000000000161480611aa657507f00000000000000000000000000000000000000000000000000000000000000006001600160a01b0316611a9a5f805160206129d0833981519152546001600160a01b031690565b6001600160a01b031614155b15611a105760405163703e46dd60e11b815260040160405180910390fd5b5f546001600160a01b0316639e97b8f66007611ade611a12565b6040518363ffffffff1660e01b8152600401611afb929190612523565b602060405180830381865afa158015611b16573d5f803e3d5ffd5b505050506040513d601f19601f82011682018060405250810190611b3a919061255b565b611b945760405162461bcd60e51b815260206004820152602560248201527f416363657373436f6e74726f6c3a20726573747269637465642d746f2d7570676044820152643930b232b960d91b606482015260840161055c565b50565b816001600160a01b03166352d1902d6040518163ffffffff1660e01b8152600401602060405180830381865afa925050508015611bf1575060408051601f3d908101601f19168201909252611bee91810190612949565b60015b611c1957604051634c9c8ce360e01b81526001600160a01b038316600482015260240161055c565b5f805160206129d08339815191528114611c4957604051632a87526960e21b81526004810182905260240161055c565b611c538383611dc3565b505050565b306001600160a01b037f00000000000000000000000000000000000000000000000000000000000000001614611a105760405163703e46dd60e11b815260040160405180910390fd5b611ca9611e18565b611a10611e61565b611cb9611e18565b611a10611e94565b611cc9611e18565b611cd1611d48565b6001600160a01b038116611d275760405162461bcd60e51b815260206004820152601e60248201527f496e76616c69642061636365737320636f6e74726f6c20616464726573730000604482015260640161055c565b5f80546001600160a01b0319166001600160a01b0392909216919091179055565b611a10611e18565b5f366014336001600160a01b037f000000000000000000000000000000000000000000000000000000000000000016148015611d8c5750808210155b15611dbb575f36611d9d8385612960565b611da8928290612973565b611db19161299a565b60601c9250505090565b339250505090565b611dcc82611ec2565b6040516001600160a01b038316907fbc7cd75a20ee27fd9adebab32041f755214dbc6bffa90cc0225b39da2e5c2d3b905f90a2805115611e1057611c538282611f25565b610dde611f97565b7ff0c57e16840df040f15088dc2f81fe391c3923bec73e23a9662efc9c229c6a0054600160401b900460ff16611a1057604051631afcd79f60e31b815260040160405180910390fd5b611e69611e18565b7fcd5ed15c6e187e77e9aee88184c21f4f2182ab5827cb3b7e07fbedcd63f03300805460ff19169055565b611e9c611e18565b60017f9b779b17422d0df92223018b32b4d1fa46e071723d6817e2486d003becc55f0055565b806001600160a01b03163b5f03611ef757604051634c9c8ce360e01b81526001600160a01b038216600482015260240161055c565b5f805160206129d083398151915280546001600160a01b0319166001600160a01b0392909216919091179055565b60605f80846001600160a01b031684604051611f4191906128a9565b5f60405180830381855af49150503d805f8114611f79576040519150601f19603f3d011682016040523d82523d5f602084013e611f7e565b606091505b5091509150611f8e858383611fb6565b95945050505050565b3415611a105760405163b398979f60e01b815260040160405180910390fd5b606082611fcb57611fc682612012565b611320565b8151158015611fe257506001600160a01b0384163b155b1561200b57604051639996b31560e01b81526001600160a01b038516600482015260240161055c565b5092915050565b8051156120225780518082602001fd5b604051630a12f52160e11b815260040160405180910390fd5b80356001600160a01b0381168114612051575f80fd5b919050565b634e487b7160e01b5f52604160045260245ffd5b5f67ffffffffffffffff8084111561208457612084612056565b604051601f8501601f19908116603f011681019082821181831017156120ac576120ac612056565b816040528093508581528686860111156120c4575f80fd5b858560208301375f602087830101525050509392505050565b5f82601f8301126120ec575f80fd5b6113208383356020850161206a565b5f805f805f60a0868803121561210f575f80fd5b6121188661203b565b9450602086013567ffffffffffffffff80821115612134575f80fd5b61214089838a016120dd565b95506040880135915080821115612155575f80fd5b61216189838a016120dd565b945060608801359350608088013591508082111561217d575f80fd5b5061218a888289016120dd565b9150509295509295909350565b5f602082840312156121a7575f80fd5b6113208261203b565b5f80604083850312156121c1575f80fd5b50508035926020909101359150565b5f5b838110156121ea5781810151838201526020016121d2565b50505f910152565b5f81518084526122098160208601602086016121d0565b601f01601f19169290920160200192915050565b6001600160a01b038816815260e0602082018190525f90612240908301896121f2565b871515604084015286606084015285608084015282810360a084015261226681866121f2565b91505082151560c083015298975050505050505050565b5f805f8060808587031215612290575f80fd5b843567ffffffffffffffff808211156122a7575f80fd5b6122b3888389016120dd565b955060208701359150808211156122c8575f80fd5b6122d4888389016120dd565b945060408701359150808211156122e9575f80fd5b6122f5888389016120dd565b9350606087013591508082111561230a575f80fd5b50612317878288016120dd565b91505092959194509250565b5f8060408385031215612334575f80fd5b61233d8361203b565b9150602083013567ffffffffffffffff811115612358575f80fd5b8301601f81018513612368575f80fd5b6123778582356020840161206a565b9150509250929050565b5f60208284031215612391575f80fd5b5035919050565b60a081525f6123aa60a08301886121f2565b82810360208401526123bc81886121f2565b905082810360408401526123d081876121f2565b905082810360608401526123e481866121f2565b91505082151560808301529695505050505050565b5f806040838503121561240a575f80fd5b8235915061241a6020840161203b565b90509250929050565b5f8060408385031215612434575f80fd5b823560098110612442575f80fd5b915061241a6020840161203b565b602081525f61132060208301846121f2565b5f805f8060808587031215612475575f80fd5b61247e8561203b565b9350602085013567ffffffffffffffff8082111561249a575f80fd5b6124a6888389016120dd565b945060408701359150808211156124bb575f80fd5b506124c8878288016120dd565b9250506124d76060860161203b565b905092959194509250565b5f80604083850312156124f3575f80fd5b6124fc8361203b565b9150602083013567ffffffffffffffff811115612517575f80fd5b612377858286016120dd565b604081016009841061254357634e487b7160e01b5f52602160045260245ffd5b9281526001600160a01b039190911660209091015290565b5f6020828403121561256b575f80fd5b81518015158114611320575f80fd5b60208082526021908201527f416363657373436f6e74726f6c3a20726573747269637465642d746f2d726f6c6040820152606560f81b606082015260800190565b6020808252601b908201527f4d6564695365637572652050726f746f636f6c3a207061757365640000000000604082015260600190565b602080825260159082015274111bd8dd1bdc881b9bdd081c9959da5cdd195c9959605a1b604082015260600190565b600181811c9082168061263557607f821691505b60208210810361265357634e487b7160e01b5f52602260045260245ffd5b50919050565b601f821115611c53575f81815260208120601f850160051c8101602086101561267f5750805b601f850160051c820191505b818110156114775782815560010161268b565b815167ffffffffffffffff8111156126b8576126b8612056565b6126cc816126c68454612621565b84612659565b602080601f8311600181146126ff575f84156126e85750858301515b5f19600386901b1c1916600185901b178555611477565b5f85815260208120601f198616915b8281101561272d5788860151825594840194600190910190840161270e565b508582101561274a57878501515f19600388901b60f8161c191681555b5050505050600190811b01905550565b608081525f61276c60808301876121f2565b828103602084015261277e81876121f2565b9050846040840152828103606084015261279881856121f2565b979650505050505050565b634e487b7160e01b5f52601160045260245ffd5b5f600182016127c8576127c86127a3565b5060010190565b634e487b7160e01b5f52603260045260245ffd5b606081525f8085546127f481612621565b806060860152608060018084165f8114612815576001811461282f5761285d565b60ff1985168884015283151560051b88018301955061285d565b8a5f526020805f205f5b868110156128545781548b8201870152908401908201612839565b8a018501975050505b505050505060208301949094525060400152919050565b606081525f61288660608301866121f2565b828103602084015261289881866121f2565b915050826040830152949350505050565b5f82516128ba8184602087016121d0565b9190910192915050565b5f8083546128d181612621565b600182811680156128e957600181146128fe5761292a565b60ff198416875282151583028701945061292a565b875f526020805f205f5b858110156129215781548a820152908401908201612908565b50505082870194505b50929695505050505050565b808201808211156109d1576109d16127a3565b5f60208284031215612959575f80fd5b5051919050565b818103818111156109d1576109d16127a3565b5f8085851115612981575f80fd5b8386111561298d575f80fd5b5050820193919092039150565b6bffffffffffffffffffffffff1981358181169160148510156129c75780818660140360031b1b83161692505b50509291505056fe360894a13ba1a3210667c828492db98dca3e2076cc3735a920a3ca505d382bbca26469706673582212206ce640b88791613ab97b6ac90f115a2872d22c8a3d7f014abc55f1468b4273f164736f6c63430008140033",
  "immutableReferences": {
    "585": [
      {
        "length": 32,
        "start": 726
      },
      {
        "length": 32,
        "start": 921
      },
      {
        "length": 32,
        "start": 7519
      }
    ],
    "992": [
      {
        "length": 32,
        "start": 6699
      },
      {
        "length": 32,
        "start": 6740
      },
      {
        "length": 32,
        "start": 7267
      }
    ]
  },
  "source": "// SPDX-License-Identifier: MIT\r\npragma solidity ^0.8.20;\r\n\r\nimport \"@openzeppelin/contracts-upgradeable/proxy/utils/Initializable.sol\";\r\nimport \"@openzeppelin/contracts-upgradeable/proxy/utils/UUPSUpgradeable.sol\";\r\nimport \"@openzeppelin/contracts-upgradeable/utils/PausableUpgradeable.sol\";\r\nimport \"@openzeppelin/contracts-upgradeable/utils/ReentrancyGuardUpgradeable.sol\";\r\nimport \"@openzeppelin/contracts-upgradeable/utils/ContextUpgradeable.sol\";\r\nimport \"@openzeppelin/contracts-upgradeable/metatx/ERC2771ContextUpgradeable.sol\";\r\nimport \"./common/MediSecureAuthUpgradeable.sol\";\r\nimport {Roles} from \"./MediSecureAccessControl.sol\";\r\nimport \"./interfaces/IHospital.sol\";\r\n\r\ncontract DoctorUpgradeable is Initializable, ReentrancyGuardUpgradeable, PausableUpgradeable, MediSecureAuthUpgradeable, UUPSUpgradeable, ERC2771ContextUpgradeable {\r\n    /// @custom:oz-upgrades-unsafe-allow constructor\r\n    constructor(address _forwarder) ERC2771ContextUpgradeable(_forwarder) {\r\n        // _disableInitializers();\r\n    }\r\n\r\n    function _msgSender() internal view override(ContextUpgradeable, ERC2771ContextUpgradeable) returns (address) {\r\n        return ERC2771ContextUpgradeable._msgSender();\r\n    }\r\n\r\n    function _msgData() internal view override(ContextUpgradeable, ERC2771ContextUpgradeable) returns (bytes calldata) {\r\n        return ERC2771ContextUpgradeable._msgData();\r\n    }\r\n\r\n    function _contextSuffixLength() internal view override(ContextUpgradeable, ERC2771ContextUpgradeable) returns (uint256) {\r\n        return ERC2771ContextUpgradeable._contextSuffixLength();\r\n    }\r\n    \r\n    address public hospitalContract;\r\n\r\n    struct DoctorDetails {\r\n        string name;\r\n        string specialization;\r\n        string email;\r\n        string hospital;\r\n        uint256[] patientIds;\r\n        bool isActive;\r\n    }\r\n\r\n    struct DocumentAccess {\r\n        address patient;\r\n        string ipfsHash;\r\n        bool hasAccess;\r\n        uint256 grantTime;\r\n        uint256 duration;\r\n        string reason;\r\n        bool isEmergency;\r\n    }\r\n\r\n    mapping(address => uint256) public walletToDoctorId;\r\n    mapping(uint256 => DoctorDetails) public doctors;\r\n    mapping(uint256 => DocumentAccess[]) public doctorAccessList;\r\n    \r\n    uint256 private doctorIdCounter;\r\n\r\n    event DoctorRegistered(uint256 indexed doctorId, address indexed wallet, string name);\r\n    event AccessRequested(address indexed patient, address indexed doctor, string ipfsHash, string fileName, uint256 duration, string reason);\r\n    event AccessGranted(address indexed patient, address indexed doctor, string ipfsHash, uint256 grantTime, uint256 duration);\r\n    event EmergencyAccessGranted(address indexed patient, address indexed doctor, string ipfsHash, string reason, uint256 timestamp);\r\n\r\n    function initialize(address _accessControl) public initializer {\r\n        __Pausable_init();\r\n        __ReentrancyGuard_init();\r\n        __MediSecureAuth_init(_accessControl);\r\n        __UUPSUpgradeable_init();\r\n    }\r\n\r\n    function setHospitalContract(address _hospital) public onlyAdmin() {\r\n        require(_hospital != address(0), \"Invalid hospital\");\r\n        hospitalContract = _hospital;\r\n    }\r\n\r\n    function _authorizeUpgrade(address newImplementation) internal override onlyUpgrader() {}\r\n\r\n    function registerDoctor(\r\n        string memory _name,\r\n        string memory _specialization,\r\n        string memory _email,\r\n        string memory _hospital\r\n    ) public whenNotPaused {\r\n        require(walletToDoctorId[_msgSender()] == 0, \"Already registered\");\r\n        require(bytes(_name).length > 0, \"Invalid name\");\r\n        require(bytes(_specialization).length > 0, \"Invalid specialization\");\r\n\r\n        doctorIdCounter++;\r\n        uint256 doctorId = doctorIdCounter;\r\n        \r\n        walletToDoctorId[_msgSender()] = doctorId;\r\n        \r\n        doctors[doctorId].name = _name;\r\n        doctors[doctorId].specialization = _specialization;\r\n        doctors[doctorId].email = _email;\r\n        doctors[doctorId].hospital = _hospital;\r\n        doctors[doctorId].isActive = true;\r\n        \r\n        accessControl.grantRole(Roles.DOCTOR, _msgSender());\r\n        \r\n        emit DoctorRegistered(doctorId, _msgSender(), _name);\r\n    }\r\n\r\n    function requestAccess(\r\n        address _patient,\r\n        string memory _ipfsHash,\r\n        string memory _fileName,\r\n        uint256 _duration,\r\n        string memory _reason\r\n    ) public whenNotPaused onlyRoleName(Roles.DOCTOR) {\r\n        uint256 doctorId = walletToDoctorId[_msgSender()];\r\n        require(doctorId != 0, \"Doctor not registered\");\r\n        require(_patient != address(0), \"Invalid patient\");\r\n        require(_duration > 0 && _duration <= 365 days, \"Invalid duration\");\r\n\r\n        doctorAccessList[doctorId].push(DocumentAccess({\r\n            patient: _patient,\r\n            ipfsHash: _ipfsHash,\r\n            hasAccess: false,\r\n            grantTime: 0,\r\n            duration: _duration,\r\n            reason: _reason,\r\n            isEmergency: false\r\n        }));\r\n\r\n        emit AccessRequested(_patient, _msgSender(), _ipfsHash, _fileName, _duration, _reason);\r\n    }\r\n\r\n    function emergencyBreakGlass(\r\n        address _patient,\r\n        string memory _ipfsHash,\r\n        string memory _reason,\r\n        address _hospitalAddress\r\n    ) public whenNotPaused onlyRoleName(Roles.DOCTOR) {\r\n        uint256 doctorId = walletToDoctorId[_msgSender()];\r\n        require(doctorId != 0, \"Doctor not registered\");\r\n        \r\n        require(IHospital(hospitalContract).isDoctorOnDuty(_msgSender(), _hospitalAddress), \"Not on duty at this hospital\");\r\n\r\n        doctorAccessList[doctorId].push(DocumentAccess({\r\n            patient: _patient,\r\n            ipfsHash: _ipfsHash,\r\n            hasAccess: true,\r\n            grantTime: block.timestamp,\r\n            duration: 1 hours,\r\n            reason: _reason,\r\n            isEmergency: true\r\n        }));\r\n\r\n        emit EmergencyAccessGranted(_patient, _msgSender(), _ipfsHash, _reason, block.timestamp);\r\n    }\r\n\r\n    function grantAccess(uint256 _accessIndex) public onlyRoleName(Roles.DOCTOR) {\r\n        uint256 doctorId = walletToDoctorId[_msgSender()];\r\n        require(doctorId != 0, \"Doctor not registered\");\r\n        require(_accessIndex < doctorAccessList[doctorId].length, \"Invalid index\");\r\n        \r\n        DocumentAccess storage access = doctorAccessList[doctorId][_accessIndex];\r\n        access.hasAccess = true;\r\n        access.grantTime = block.timestamp;\r\n        \r\n        emit AccessGranted(access.patient, _msgSender(), access.ipfsHash, access.grantTime, access.duration);\r\n    }\r\n\r\n    function hasAccessToDocument(address _patient, string memory _ipfsHash) public view returns (bool) {\r\n        uint256 doctorId = walletToDoctorId[_msgSender()];\r\n        if (doctorId == 0) return false;\r\n        \r\n        DocumentAccess[] storage accessList = doctorAccessList[doctorId];\r\n        \r\n        for (uint256 i = 0; i < accessList.length; i++) {\r\n            if (accessList[i].patient == _patient && \r\n                keccak256(abi.encodePacked(accessList[i].ipfsHash)) == keccak256(abi.encodePacked(_ipfsHash)) &&\r\n                accessList[i].hasAccess &&\r\n                accessList[i].grantTime + accessList[i].duration > block.timestamp) {\r\n                return true;\r\n            }\r\n        }\r\n        return false;\r\n    }\r\n\r\n    function doctorExists(address account) public view returns (bool) {\r\n        return walletToDoctorId[account] != 0;\r\n    }\r\n\r\n    uint256[50] private __gap;\r\n}",
  "sourcePath": "C:\\Users\\night\\Downloads\\team-rocket-medi-secure\\team-rocket-medi-secure\\contracts\\contracts\\DoctorUpgradeable.sol",
  "compiler": {
    "name": "solc",
    "version": "0.8.20+commit.a1b79de6.Emscripten.clang"
  },
  "schemaVersion": "3.4.16",
  "updatedAt": "2026-04-24T10:38:31.020Z",
  "devdoc": {
    "errors": {
      "AddressEmptyCode(address)": [
        {
          "details": "There's no code at `target` (it is not a contract)."
        }
      ],
      "ERC1967InvalidImplementation(address)": [
        {
          "details": "The `implementation` of the proxy is invalid."
        }
      ],
      "ERC1967NonPayable()": [
        {
          "details": "An upgrade function sees `msg.value > 0` that may be lost."
        }
      ],
      "EnforcedPause()": [
        {
          "details": "The operation failed because the contract is paused."
        }
      ],
      "ExpectedPause()": [
        {
          "details": "The operation failed because the contract is not paused."
        }
      ],
      "FailedInnerCall()": [
        {
          "details": "A call to an address target failed. The target may have reverted."
        }
      ],
      "InvalidInitialization()": [
        {
          "details": "The contract is already initialized."
        }
      ],
      "NotInitializing()": [
        {
          "details": "The contract is not initializing."
        }
      ],
      "ReentrancyGuardReentrantCall()": [
        {
          "details": "Unauthorized reentrant call."
        }
      ],
      "UUPSUnauthorizedCallContext()": [
        {
          "details": "The call is from an unauthorized context."
        }
      ],
      "UUPSUnsupportedProxiableUUID(bytes32)": [
        {
          "details": "The storage `slot` is unsupported as a UUID."
        }
      ]
    },
    "events": {
      "Initialized(uint64)": {
        "details": "Triggered when the contract has been initialized or reinitialized."
      },
      "Paused(address)": {
        "details": "Emitted when the pause is triggered by `account`."
      },
      "Unpaused(address)": {
        "details": "Emitted when the pause is lifted by `account`."
      },
      "Upgraded(address)": {
        "details": "Emitted when the implementation is upgraded."
      }
    },
    "kind": "dev",
    "methods": {
      "constructor": {
        "custom:oz-upgrades-unsafe-allow": "constructor"
      },
      "isTrustedForwarder(address)": {
        "details": "Indicates whether any particular address is the trusted forwarder."
      },
      "paused()": {
        "details": "Returns true if the contract is paused, and false otherwise."
      },
      "proxiableUUID()": {
        "details": "Implementation of the ERC1822 {proxiableUUID} function. This returns the storage slot used by the implementation. It is used to validate the implementation's compatibility when performing an upgrade. IMPORTANT: A proxy pointing at a proxiable contract should not be considered proxiable itself, because this risks bricking a proxy that upgrades to it, by delegating to itself until out of gas. Thus it is critical that this function revert if invoked through a proxy. This is guaranteed by the `notDelegated` modifier."
      },
      "trustedForwarder()": {
        "details": "Returns the address of the trusted forwarder."
      },
      "upgradeToAndCall(address,bytes)": {
        "custom:oz-upgrades-unsafe-allow-reachable": "delegatecall",
        "details": "Upgrade the implementation of the proxy to `newImplementation`, and subsequently execute the function call encoded in `data`. Calls {_authorizeUpgrade}. Emits an {Upgraded} event."
      }
    },
    "version": 1
  },
  "userdoc": {
    "kind": "user",
    "methods": {},
    "version": 1
  }
}