{
  "contractName": "DoctorReputation",
  "abi": [
    {
      "inputs": [],
      "name": "AccessControlBadConfirmation",
      "type": "error"
    },
    {
      "inputs": [
        {
          "internalType": "address",
          "name": "account",
          "type": "address"
        },
        {
          "internalType": "bytes32",
          "name": "neededRole",
          "type": "bytes32"
        }
      ],
      "name": "AccessControlUnauthorizedAccount",
      "type": "error"
    },
    {
      "inputs": [],
      "name": "EnforcedPause",
      "type": "error"
    },
    {
      "inputs": [],
      "name": "ExpectedPause",
      "type": "error"
    },
    {
      "inputs": [],
      "name": "ReentrancyGuardReentrantCall",
      "type": "error"
    },
    {
      "anonymous": false,
      "inputs": [
        {
          "indexed": true,
          "internalType": "address",
          "name": "doctor",
          "type": "address"
        }
      ],
      "name": "DoctorStatsUpdated",
      "type": "event"
    },
    {
      "anonymous": false,
      "inputs": [
        {
          "indexed": false,
          "internalType": "address",
          "name": "account",
          "type": "address"
        }
      ],
      "name": "Paused",
      "type": "event"
    },
    {
      "anonymous": false,
      "inputs": [
        {
          "indexed": true,
          "internalType": "address",
          "name": "doctor",
          "type": "address"
        },
        {
          "indexed": false,
          "internalType": "uint256",
          "name": "newScore",
          "type": "uint256"
        }
      ],
      "name": "ReputationRecalculated",
      "type": "event"
    },
    {
      "anonymous": false,
      "inputs": [
        {
          "indexed": true,
          "internalType": "uint256",
          "name": "reviewId",
          "type": "uint256"
        }
      ],
      "name": "ReviewDeleted",
      "type": "event"
    },
    {
      "anonymous": false,
      "inputs": [
        {
          "indexed": true,
          "internalType": "uint256",
          "name": "reviewId",
          "type": "uint256"
        },
        {
          "indexed": true,
          "internalType": "address",
          "name": "patient",
          "type": "address"
        },
        {
          "indexed": true,
          "internalType": "address",
          "name": "doctor",
          "type": "address"
        },
        {
          "indexed": false,
          "internalType": "uint8",
          "name": "rating",
          "type": "uint8"
        },
        {
          "indexed": false,
          "internalType": "bool",
          "name": "verifiedVisit",
          "type": "bool"
        }
      ],
      "name": "ReviewSubmitted",
      "type": "event"
    },
    {
      "anonymous": false,
      "inputs": [
        {
          "indexed": true,
          "internalType": "bytes32",
          "name": "role",
          "type": "bytes32"
        },
        {
          "indexed": true,
          "internalType": "bytes32",
          "name": "previousAdminRole",
          "type": "bytes32"
        },
        {
          "indexed": true,
          "internalType": "bytes32",
          "name": "newAdminRole",
          "type": "bytes32"
        }
      ],
      "name": "RoleAdminChanged",
      "type": "event"
    },
    {
      "anonymous": false,
      "inputs": [
        {
          "indexed": true,
          "internalType": "bytes32",
          "name": "role",
          "type": "bytes32"
        },
        {
          "indexed": true,
          "internalType": "address",
          "name": "account",
          "type": "address"
        },
        {
          "indexed": true,
          "internalType": "address",
          "name": "sender",
          "type": "address"
        }
      ],
      "name": "RoleGranted",
      "type": "event"
    },
    {
      "anonymous": false,
      "inputs": [
        {
          "indexed": true,
          "internalType": "bytes32",
          "name": "role",
          "type": "bytes32"
        },
        {
          "indexed": true,
          "internalType": "address",
          "name": "account",
          "type": "address"
        },
        {
          "indexed": true,
          "internalType": "address",
          "name": "sender",
          "type": "address"
        }
      ],
      "name": "RoleRevoked",
      "type": "event"
    },
    {
      "anonymous": false,
      "inputs": [
        {
          "indexed": false,
          "internalType": "address",
          "name": "account",
          "type": "address"
        }
      ],
      "name": "Unpaused",
      "type": "event"
    },
    {
      "inputs": [],
      "name": "ADMIN_ROLE",
      "outputs": [
        {
          "internalType": "bytes32",
          "name": "",
          "type": "bytes32"
        }
      ],
      "stateMutability": "view",
      "type": "function"
    },
    {
      "inputs": [],
      "name": "DEFAULT_ADMIN_ROLE",
      "outputs": [
        {
          "internalType": "bytes32",
          "name": "",
          "type": "bytes32"
        }
      ],
      "stateMutability": "view",
      "type": "function"
    },
    {
      "inputs": [],
      "name": "DOCTOR_ROLE",
      "outputs": [
        {
          "internalType": "bytes32",
          "name": "",
          "type": "bytes32"
        }
      ],
      "stateMutability": "view",
      "type": "function"
    },
    {
      "inputs": [],
      "name": "MAX_RATING",
      "outputs": [
        {
          "internalType": "uint256",
          "name": "",
          "type": "uint256"
        }
      ],
      "stateMutability": "view",
      "type": "function"
    },
    {
      "inputs": [],
      "name": "MIN_REVIEW_INTERVAL",
      "outputs": [
        {
          "internalType": "uint256",
          "name": "",
          "type": "uint256"
        }
      ],
      "stateMutability": "view",
      "type": "function"
    },
    {
      "inputs": [],
      "name": "PATIENT_ROLE",
      "outputs": [
        {
          "internalType": "bytes32",
          "name": "",
          "type": "bytes32"
        }
      ],
      "stateMutability": "view",
      "type": "function"
    },
    {
      "inputs": [],
      "name": "REPUTATION_WEIGHT_UNVERIFIED",
      "outputs": [
        {
          "internalType": "uint256",
          "name": "",
          "type": "uint256"
        }
      ],
      "stateMutability": "view",
      "type": "function"
    },
    {
      "inputs": [],
      "name": "REPUTATION_WEIGHT_VERIFIED",
      "outputs": [
        {
          "internalType": "uint256",
          "name": "",
          "type": "uint256"
        }
      ],
      "stateMutability": "view",
      "type": "function"
    },
    {
      "inputs": [
        {
          "internalType": "address",
          "name": "",
          "type": "address"
        },
        {
          "internalType": "uint256",
          "name": "",
          "type": "uint256"
        }
      ],
      "name": "doctorReviewIds",
      "outputs": [
        {
          "internalType": "uint256",
          "name": "",
          "type": "uint256"
        }
      ],
      "stateMutability": "view",
      "type": "function"
    },
    {
      "inputs": [
        {
          "internalType": "address",
          "name": "",
          "type": "address"
        }
      ],
      "name": "doctorStats",
      "outputs": [
        {
          "internalType": "uint256",
          "name": "totalReviews",
          "type": "uint256"
        },
        {
          "internalType": "uint256",
          "name": "sumRatings",
          "type": "uint256"
        },
        {
          "internalType": "uint256",
          "name": "verifiedVisits",
          "type": "uint256"
        },
        {
          "internalType": "uint256",
          "name": "totalAppointments",
          "type": "uint256"
        },
        {
          "internalType": "uint8",
          "name": "currentRating",
          "type": "uint8"
        },
        {
          "internalType": "uint256",
          "name": "reputationScore",
          "type": "uint256"
        },
        {
          "internalType": "bool",
          "name": "exists",
          "type": "bool"
        }
      ],
      "stateMutability": "view",
      "type": "function"
    },
    {
      "inputs": [
        {
          "internalType": "bytes32",
          "name": "role",
          "type": "bytes32"
        }
      ],
      "name": "getRoleAdmin",
      "outputs": [
        {
          "internalType": "bytes32",
          "name": "",
          "type": "bytes32"
        }
      ],
      "stateMutability": "view",
      "type": "function"
    },
    {
      "inputs": [
        {
          "internalType": "bytes32",
          "name": "role",
          "type": "bytes32"
        },
        {
          "internalType": "address",
          "name": "account",
          "type": "address"
        }
      ],
      "name": "grantRole",
      "outputs": [],
      "stateMutability": "nonpayable",
      "type": "function"
    },
    {
      "inputs": [
        {
          "internalType": "address",
          "name": "",
          "type": "address"
        },
        {
          "internalType": "address",
          "name": "",
          "type": "address"
        }
      ],
      "name": "hasReviewed",
      "outputs": [
        {
          "internalType": "bool",
          "name": "",
          "type": "bool"
        }
      ],
      "stateMutability": "view",
      "type": "function"
    },
    {
      "inputs": [
        {
          "internalType": "bytes32",
          "name": "role",
          "type": "bytes32"
        },
        {
          "internalType": "address",
          "name": "account",
          "type": "address"
        }
      ],
      "name": "hasRole",
      "outputs": [
        {
          "internalType": "bool",
          "name": "",
          "type": "bool"
        }
      ],
      "stateMutability": "view",
      "type": "function"
    },
    {
      "inputs": [
        {
          "internalType": "address",
          "name": "",
          "type": "address"
        },
        {
          "internalType": "address",
          "name": "",
          "type": "address"
        }
      ],
      "name": "lastReviewTime",
      "outputs": [
        {
          "internalType": "uint256",
          "name": "",
          "type": "uint256"
        }
      ],
      "stateMutability": "view",
      "type": "function"
    },
    {
      "inputs": [],
      "name": "paused",
      "outputs": [
        {
          "internalType": "bool",
          "name": "",
          "type": "bool"
        }
      ],
      "stateMutability": "view",
      "type": "function"
    },
    {
      "inputs": [
        {
          "internalType": "bytes32",
          "name": "role",
          "type": "bytes32"
        },
        {
          "internalType": "address",
          "name": "callerConfirmation",
          "type": "address"
        }
      ],
      "name": "renounceRole",
      "outputs": [],
      "stateMutability": "nonpayable",
      "type": "function"
    },
    {
      "inputs": [
        {
          "internalType": "uint256",
          "name": "",
          "type": "uint256"
        }
      ],
      "name": "reviews",
      "outputs": [
        {
          "internalType": "uint256",
          "name": "id",
          "type": "uint256"
        },
        {
          "internalType": "address",
          "name": "patient",
          "type": "address"
        },
        {
          "internalType": "address",
          "name": "doctor",
          "type": "address"
        },
        {
          "internalType": "uint8",
          "name": "rating",
          "type": "uint8"
        },
        {
          "internalType": "string",
          "name": "comment",
          "type": "string"
        },
        {
          "internalType": "uint256",
          "name": "appointmentId",
          "type": "uint256"
        },
        {
          "internalType": "uint256",
          "name": "timestamp",
          "type": "uint256"
        },
        {
          "internalType": "bool",
          "name": "isVerifiedVisit",
          "type": "bool"
        },
        {
          "internalType": "bool",
          "name": "isDeleted",
          "type": "bool"
        }
      ],
      "stateMutability": "view",
      "type": "function"
    },
    {
      "inputs": [
        {
          "internalType": "bytes32",
          "name": "role",
          "type": "bytes32"
        },
        {
          "internalType": "address",
          "name": "account",
          "type": "address"
        }
      ],
      "name": "revokeRole",
      "outputs": [],
      "stateMutability": "nonpayable",
      "type": "function"
    },
    {
      "inputs": [
        {
          "internalType": "bytes4",
          "name": "interfaceId",
          "type": "bytes4"
        }
      ],
      "name": "supportsInterface",
      "outputs": [
        {
          "internalType": "bool",
          "name": "",
          "type": "bool"
        }
      ],
      "stateMutability": "view",
      "type": "function"
    },
    {
      "inputs": [
        {
          "internalType": "address",
          "name": "_doctor",
          "type": "address"
        },
        {
          "internalType": "uint8",
          "name": "_rating",
          "type": "uint8"
        },
        {
          "internalType": "string",
          "name": "_comment",
          "type": "string"
        },
        {
          "internalType": "uint256",
          "name": "_appointmentId",
          "type": "uint256"
        },
        {
          "internalType": "bool",
          "name": "_verifiedVisit",
          "type": "bool"
        }
      ],
      "name": "submitReview",
      "outputs": [],
      "stateMutability": "nonpayable",
      "type": "function"
    },
    {
      "inputs": [
        {
          "internalType": "uint256",
          "name": "_reviewId",
          "type": "uint256"
        }
      ],
      "name": "deleteReview",
      "outputs": [],
      "stateMutability": "nonpayable",
      "type": "function"
    },
    {
      "inputs": [
        {
          "internalType": "address",
          "name": "_doctor",
          "type": "address"
        },
        {
          "internalType": "uint256",
          "name": "_offset",
          "type": "uint256"
        },
        {
          "internalType": "uint256",
          "name": "_limit",
          "type": "uint256"
        }
      ],
      "name": "getDoctorReviews",
      "outputs": [
        {
          "components": [
            {
              "internalType": "uint256",
              "name": "id",
              "type": "uint256"
            },
            {
              "internalType": "address",
              "name": "patient",
              "type": "address"
            },
            {
              "internalType": "address",
              "name": "doctor",
              "type": "address"
            },
            {
              "internalType": "uint8",
              "name": "rating",
              "type": "uint8"
            },
            {
              "internalType": "string",
              "name": "comment",
              "type": "string"
            },
            {
              "internalType": "uint256",
              "name": "appointmentId",
              "type": "uint256"
            },
            {
              "internalType": "uint256",
              "name": "timestamp",
              "type": "uint256"
            },
            {
              "internalType": "bool",
              "name": "isVerifiedVisit",
              "type": "bool"
            },
            {
              "internalType": "bool",
              "name": "isDeleted",
              "type": "bool"
            }
          ],
          "internalType": "struct DoctorReputation.Review[]",
          "name": "",
          "type": "tuple[]"
        }
      ],
      "stateMutability": "view",
      "type": "function"
    },
    {
      "inputs": [
        {
          "internalType": "address",
          "name": "_doctor",
          "type": "address"
        }
      ],
      "name": "getDoctorRatingBreakdown",
      "outputs": [
        {
          "components": [
            {
              "internalType": "uint256",
              "name": "count5Star",
              "type": "uint256"
            },
            {
              "internalType": "uint256",
              "name": "count4Star",
              "type": "uint256"
            },
            {
              "internalType": "uint256",
              "name": "count3Star",
              "type": "uint256"
            },
            {
              "internalType": "uint256",
              "name": "count2Star",
              "type": "uint256"
            },
            {
              "internalType": "uint256",
              "name": "count1Star",
              "type": "uint256"
            }
          ],
          "internalType": "struct DoctorReputation.RatingBreakdown",
          "name": "",
          "type": "tuple"
        }
      ],
      "stateMutability": "view",
      "type": "function"
    },
    {
      "inputs": [
        {
          "internalType": "address",
          "name": "_doctor",
          "type": "address"
        }
      ],
      "name": "getDoctorStats",
      "outputs": [
        {
          "components": [
            {
              "internalType": "uint256",
              "name": "totalReviews",
              "type": "uint256"
            },
            {
              "internalType": "uint256",
              "name": "sumRatings",
              "type": "uint256"
            },
            {
              "internalType": "uint256",
              "name": "verifiedVisits",
              "type": "uint256"
            },
            {
              "internalType": "uint256",
              "name": "totalAppointments",
              "type": "uint256"
            },
            {
              "internalType": "uint8",
              "name": "currentRating",
              "type": "uint8"
            },
            {
              "internalType": "uint256",
              "name": "reputationScore",
              "type": "uint256"
            },
            {
              "internalType": "bool",
              "name": "exists",
              "type": "bool"
            }
          ],
          "internalType": "struct DoctorReputation.DoctorStats",
          "name": "",
          "type": "tuple"
        }
      ],
      "stateMutability": "view",
      "type": "function"
    },
    {
      "inputs": [
        {
          "internalType": "uint256",
          "name": "_limit",
          "type": "uint256"
        }
      ],
      "name": "getTopDoctors",
      "outputs": [
        {
          "internalType": "address[]",
          "name": "",
          "type": "address[]"
        }
      ],
      "stateMutability": "view",
      "type": "function"
    },
    {
      "inputs": [
        {
          "internalType": "address",
          "name": "_doctor",
          "type": "address"
        }
      ],
      "name": "canReviewDoctor",
      "outputs": [
        {
          "internalType": "bool",
          "name": "",
          "type": "bool"
        }
      ],
      "stateMutability": "view",
      "type": "function"
    },
    {
      "inputs": [
        {
          "internalType": "address",
          "name": "_doctor",
          "type": "address"
        }
      ],
      "name": "registerDoctor",
      "outputs": [],
      "stateMutability": "nonpayable",
      "type": "function"
    },
    {
      "inputs": [],
      "name": "pauseContract",
      "outputs": [],
      "stateMutability": "nonpayable",
      "type": "function"
    },
    {
      "inputs": [],
      "name": "unpauseContract",
      "outputs": [],
      "stateMutability": "nonpayable",
      "type": "function"
    }
  ],
  "bytecode": "0x608060405234801561000f575f80fd5b5060015f819055805460ff191690556121a58061002b5f395ff3fe608060405234801561000f575f80fd5b50600436106101d1575f3560e01c806391d14854116100fe578063d00493d61161009e578063e0a3ab3b1161006e578063e0a3ab3b146104a7578063e83ddcea146104b0578063ed7d3f80146104d8578063fec331f214610564575f80fd5b8063d00493d6146103e7578063d45e88aa14610414578063d547741f14610481578063d71e489014610494575f80fd5b8063a217fddf116100d9578063a217fddf1461039e578063ac5cb97d146103a5578063b33712c5146103cc578063c58f2dea146103d4575f80fd5b806391d148541461036357806394e113ea14610376578063a04c1f9a1461037e575f80fd5b80633ba1d9ee116101745780635c975abb116101445780635c975abb1461031e57806361917ee914610329578063699ca9981461033c57806375b238fc1461034f575f80fd5b80633ba1d9ee146102b95780633db6ce40146102cc578063439766ce146102ec5780635a2c1e1a146102f4575f80fd5b806328c9a313116101af57806328c9a313146102815780632f2ff15d146102895780633196f2db1461029e57806336568abe146102a6575f80fd5b806301ffc9a7146101d55780631629d908146101fd578063248a9ca314610251575b5f80fd5b6101e86101e3366004611b8e565b61058b565b60405190151581526020015b60405180910390f35b61021061020b366004611bd0565b6105c1565b6040516101f491905f60a082019050825182526020830151602083015260408301516040830152606083015160608301526080830151608083015292915050565b61027361025f366004611be9565b5f9081526002602052604090206001015490565b6040519081526020016101f4565b610273606481565b61029c610297366004611c00565b610765565b005b610273609681565b61029c6102b4366004611c00565b61078f565b61029c6102c7366004611c39565b6107c7565b6102df6102da366004611ce5565b610ca2565b6040516101f49190611d58565b61029c610f09565b610273610302366004611e38565b600760209081525f928352604080842090915290825290205481565b60015460ff166101e8565b6101e8610337366004611bd0565b610f2b565b61029c61034a366004611bd0565b610fc7565b6102735f8051602061215083398151915281565b6101e8610371366004611c00565b611018565b610273600581565b61039161038c366004611be9565b611042565b6040516101f49190611e60565b6102735f81565b6102737f72606200fac42b7dc86b75901d61ecfab2a4a1a6eded478b97a428094891abed81565b61029c611363565b6102736103e2366004611eac565b611382565b6101e86103f5366004611e38565b600560209081525f928352604080842090915290825290205460ff1681565b610427610422366004611bd0565b6113ad565b6040516101f491905f60e0820190508251825260208301516020830152604083015160408301526060830151606083015260ff608084015116608083015260a083015160a083015260c0830151151560c083015292915050565b61029c61048f366004611c00565b61145f565b61029c6104a2366004611be9565b611483565b610273610e1081565b6104c36104be366004611be9565b6115ff565b6040516101f499989796959493929190611ed4565b61052a6104e6366004611bd0565b600360208190525f91825260409091208054600182015460028301549383015460048401546005850154600690950154939592949293919260ff9182169290911687565b60408051978852602088019690965294860193909352606085019190915260ff16608084015260a0830152151560c082015260e0016101f4565b6102737f0af1dac7dea2fd7f7738119cec7df099dfad49aa9d2e7d17ba6b60f63ae7411f81565b5f6001600160e01b03198216637965db0b60e01b14806105bb57506301ffc9a760e01b6001600160e01b03198316145b92915050565b6105ee6040518060a001604052805f81526020015f81526020015f81526020015f81526020015f81525090565b6001600160a01b0382165f908152600460209081526040808320815160a0810183528481529283018490529082018390526060820183905260808201839052915b825481101561075d575f60065f85848154811061064e5761064e611f3b565b905f5260205f20015481526020019081526020015f2090508060060160019054906101000a900460ff1615610683575061074b565b6002810154600160a01b900460ff166005036106ad578251836106a582611f63565b905250610749565b6002810154600160a01b900460ff166004036106d357602083018051906106a582611f63565b6002810154600160a01b900460ff166003036106f957604083018051906106a582611f63565b600281810154600160a01b900460ff16900361071f57606083018051906106a582611f63565b6002810154600160a01b900460ff16600103610749576080830180519061074582611f63565b9052505b505b8061075581611f63565b91505061062f565b509392505050565b5f8281526002602052604090206001015461077f816116e9565b61078983836116f3565b50505050565b6001600160a01b03811633146107b85760405163334bd91960e11b815260040160405180910390fd5b6107c28282611784565b505050565b6107f17f72606200fac42b7dc86b75901d61ecfab2a4a1a6eded478b97a428094891abed33611018565b61083d5760405162461bcd60e51b81526020600482015260186024820152774f6e6c792070617469656e74732063616e2072657669657760401b60448201526064015b60405180910390fd5b85336001600160a01b0382160361088f5760405162461bcd60e51b815260206004820152601660248201527521b0b73737ba103932bb34b2bb903cb7bab939b2b63360511b6044820152606401610834565b335f9081526005602090815260408083206001600160a01b038516845290915290205460ff16156109025760405162461bcd60e51b815260206004820152601c60248201527f416c7265616479207265766965776564207468697320646f63746f72000000006044820152606401610834565b335f9081526007602090815260408083206001600160a01b0385168452909152902054801561097857610e106109388242611f7b565b10156109785760405162461bcd60e51b815260206004820152600f60248201526e2932bb34b2bb903a37b79039b7b7b760891b6044820152606401610834565b6109806117ef565b610988611817565b6001600160a01b0388166109d75760405162461bcd60e51b8152602060048201526016602482015275496e76616c696420646f63746f72206164647265737360501b6044820152606401610834565b60018760ff16101580156109ef575060058760ff1611155b610a2c5760405162461bcd60e51b815260206004820152600e60248201526d496e76616c696420726174696e6760901b6044820152606401610834565b6001600160a01b0388165f9081526003602052604090206006015460ff16610a8e5760405162461bcd60e51b8152602060048201526015602482015274111bd8dd1bdc881b9bdd081c9959da5cdd195c9959605a1b6044820152606401610834565b5f60085f8154610a9d90611f63565b91829055505f8181526006602052604090208181556001810180546001600160a01b0319163317905560028101805460ff8c16600160a01b026001600160a81b03199091166001600160a01b038e161717905590915060038101610b02888a83612027565b5085816004018190555042816005018190555084816006015f6101000a81548160ff0219169083151502179055505f8160060160016101000a81548160ff021916908315150217905550600160055f336001600160a01b03166001600160a01b031681526020019081526020015f205f8c6001600160a01b03166001600160a01b031681526020019081526020015f205f6101000a81548160ff0219169083151502179055504260075f336001600160a01b03166001600160a01b031681526020019081526020015f205f8c6001600160a01b03166001600160a01b031681526020019081526020015f208190555060045f8b6001600160a01b03166001600160a01b031681526020019081526020015f2082908060018154018082558091505060019003905f5260205f20015f9091909190915055610c418a61183d565b6040805160ff8b16815286151560208201526001600160a01b038c1691339185917fe8373191d2cae55753fb17a18a47d897c3704bded0da08b8957958e730e4c625910160405180910390a45050610c9860015f55565b5050505050505050565b6001600160a01b0383165f908152600460205260409020805460609190808510610d0057604080515f8082526020820190925290610cf6565b610ce3611b44565b815260200190600190039081610cdb5790505b5092505050610f02565b5f81610d0c86886120e3565b11610d175784610d21565b610d218683611f7b565b90505f8167ffffffffffffffff811115610d3d57610d3d611f8e565b604051908082528060200260200182016040528015610d7657816020015b610d63611b44565b815260200190600190039081610d5b5790505b5090505f5b82811015610efb575f85610d8f838b6120e3565b81548110610d9f57610d9f611f3b565b5f91825260208083209190910154808352600682526040928390208351610120810185528154815260018201546001600160a01b0390811694820194909452600282015493841694810194909452600160a01b90920460ff1660608401526003820180549194506080840191610e1490611fa2565b80601f0160208091040260200160405190810160405280929190818152602001828054610e4090611fa2565b8015610e8b5780601f10610e6257610100808354040283529160200191610e8b565b820191905f5260205f20905b815481529060010190602001808311610e6e57829003601f168201915b5050509183525050600482015460208201526005820154604082015260069091015460ff808216151560608401526101009091041615156080909101528351849084908110610edc57610edc611f3b565b6020026020010181905250508080610ef390611f63565b915050610d7b565b5093505050505b9392505050565b5f80516020612150833981519152610f20816116e9565b610f286119ac565b50565b5f336001600160a01b03831603610f4357505f919050565b335f9081526005602090815260408083206001600160a01b038616845290915290205460ff1615610f7557505f919050565b335f9081526007602090815260408083206001600160a01b03861684529091529020548015801590610fb15750610e10610faf8242611f7b565b105b15610fbe57505f92915050565b50600192915050565b5f80516020612150833981519152610fde816116e9565b506001600160a01b03165f90815260036020526040812060068101805460ff19908116600117909155600482018054909116905560050155565b5f9182526002602090815260408084206001600160a01b0393909316845291905290205460ff1690565b60605f603283116110535782611056565b60325b90505f8167ffffffffffffffff81111561107257611072611f8e565b60405190808252806020026020018201604052801561109b578160200160208202803683370190505b5090505f805b8381101561111d576001600160a01b0381165f9081526003602052604090206006015460ff161561110b578083836110d881611f63565b9450815181106110ea576110ea611f3b565b60200260200101906001600160a01b031690816001600160a01b0316815250505b8061111581611f63565b9150506110a1565b505f5b61112b600183611f7b565b8110156112b2575f5b60016111408385611f7b565b61114a9190611f7b565b81101561129f5760035f856111608460016120e3565b8151811061117057611170611f3b565b60200260200101516001600160a01b03166001600160a01b031681526020019081526020015f206005015460035f8684815181106111b0576111b0611f3b565b60200260200101516001600160a01b03166001600160a01b031681526020019081526020015f2060050154101561128d575f8482815181106111f4576111f4611f3b565b602002602001015190508482600161120c91906120e3565b8151811061121c5761121c611f3b565b602002602001015185838151811061123657611236611f3b565b6001600160a01b0390921660209283029190910190910152808561125b8460016120e3565b8151811061126b5761126b611f3b565b60200260200101906001600160a01b031690816001600160a01b031681525050505b8061129781611f63565b915050611134565b50806112aa81611f63565b915050611120565b505f8167ffffffffffffffff8111156112cd576112cd611f8e565b6040519080825280602002602001820160405280156112f6578160200160208202803683370190505b5090505f5b828110156113595783818151811061131557611315611f3b565b602002602001015182828151811061132f5761132f611f3b565b6001600160a01b03909216602092830291909101909101528061135181611f63565b9150506112fb565b5095945050505050565b5f8051602061215083398151915261137a816116e9565b610f28611a00565b6004602052815f5260405f20818154811061139b575f80fd5b905f5260205f20015f91509150505481565b6113eb6040518060e001604052805f81526020015f81526020015f81526020015f81526020015f60ff1681526020015f81526020015f151581525090565b506001600160a01b03165f90815260036020818152604092839020835160e08101855281548152600182015492810192909252600281015493820193909352908201546060820152600482015460ff9081166080830152600583015460a0830152600690920154909116151560c082015290565b5f82815260026020526040902060010154611479816116e9565b6107898383611784565b6114ad7f72606200fac42b7dc86b75901d61ecfab2a4a1a6eded478b97a428094891abed33611018565b6114f45760405162461bcd60e51b81526020600482015260186024820152774f6e6c792070617469656e74732063616e2072657669657760401b6044820152606401610834565b6114fc6117ef565b5f81815260066020526040902060018101546001600160a01b031633146115575760405162461bcd60e51b815260206004820152600f60248201526e4e6f7420796f75722072657669657760881b6044820152606401610834565b6006810154610100900460ff16156115a35760405162461bcd60e51b815260206004820152600f60248201526e105b1c9958591e4819195b195d1959608a1b6044820152606401610834565b60068101805461ff00191661010017905560028101546115cb906001600160a01b031661183d565b60405182907fe5b8d5ce0f468eff18b88328bfdf877d45b5aa6359e0df3ac054656b7acf9b15905f90a250610f2860015f55565b60066020525f9081526040902080546001820154600283015460038401805493946001600160a01b039384169493831693600160a01b90930460ff169290919061164890611fa2565b80601f016020809104026020016040519081016040528092919081815260200182805461167490611fa2565b80156116bf5780601f10611696576101008083540402835291602001916116bf565b820191905f5260205f20905b8154815290600101906020018083116116a257829003601f168201915b50505050600483015460058401546006909401549293909290915060ff8082169161010090041689565b610f288133611a39565b5f6116fe8383611018565b61177d575f8381526002602090815260408083206001600160a01b03861684529091529020805460ff191660011790556117353390565b6001600160a01b0316826001600160a01b0316847f2f8788117e7eff1d82e926ec794901d17c78024a50270940304540a733656f0d60405160405180910390a45060016105bb565b505f6105bb565b5f61178f8383611018565b1561177d575f8381526002602090815260408083206001600160a01b0386168085529252808320805460ff1916905551339286917ff6391f5c32d9c69d2a47ea670b442974b53935d1edc7fd64eb21e047a839171b9190a45060016105bb565b60025f540361181157604051633ee5aeb560e01b815260040160405180910390fd5b60025f55565b60015460ff161561183b5760405163d93c066560e01b815260040160405180910390fd5b565b6001600160a01b0381165f908152600360209081526040808320600490925282209091808080805b855481101561191f575f60065f88848154811061188457611884611f3b565b905f5260205f20015481526020019081526020015f2090508060060160019054906101000a900460ff16156118c657826118bd81611f63565b9350505061190d565b856118d081611f63565b60028301549097506118ed9150600160a01b900460ff16866120e3565b600682015490955060ff161561190b578361190781611f63565b9450505b505b8061191781611f63565b915050611865565b50838655600186018390556002860182905583156119585761194184846120f6565b60048701805460ff191660ff929092169190911790555b600486015461196b9060ff168584611a76565b60058701556040516001600160a01b038816907ffba40ba9747c21b5ca943d171dc47acfd359677a07677bc32f0dd119af468253905f90a250505050505050565b6119b4611817565b6001805460ff1916811790557f62e78cea01bee320cd4e420270b5ea74000d11b0c9f74754ebdbfc544b05a258335b6040516001600160a01b03909116815260200160405180910390a1565b611a08611b21565b6001805460ff191690557f5db9ee0a495bf2e6ff9c91a7834c1ba4fdd244a5e8aa4e537bd38aeae4b073aa336119e3565b611a438282611018565b611a725760405163e2517d3f60e01b81526001600160a01b038216600482015260248101839052604401610834565b5050565b5f825f03611a8557505f610f02565b5f611a91856014612115565b60ff1690505f600a8511611aa5575f611abb565b611ab0600a86611f7b565b611abb906002612138565b905060648111611acb5780611ace565b60645b90505f6064611ade609687612138565b611ae891906120f6565b90505f81611af684866120e3565b611b0091906120e3565b90506103e88111611b115780611b15565b6103e85b98975050505050505050565b60015460ff1661183b57604051638dfc202b60e01b815260040160405180910390fd5b60408051610120810182525f808252602082018190529181018290526060808201839052608082015260a0810182905260c0810182905260e0810182905261010081019190915290565b5f60208284031215611b9e575f80fd5b81356001600160e01b031981168114610f02575f80fd5b80356001600160a01b0381168114611bcb575f80fd5b919050565b5f60208284031215611be0575f80fd5b610f0282611bb5565b5f60208284031215611bf9575f80fd5b5035919050565b5f8060408385031215611c11575f80fd5b82359150611c2160208401611bb5565b90509250929050565b80358015158114611bcb575f80fd5b5f805f805f8060a08789031215611c4e575f80fd5b611c5787611bb5565b9550602087013560ff81168114611c6c575f80fd5b9450604087013567ffffffffffffffff80821115611c88575f80fd5b818901915089601f830112611c9b575f80fd5b813581811115611ca9575f80fd5b8a6020828501011115611cba575f80fd5b60208301965080955050505060608701359150611cd960808801611c2a565b90509295509295509295565b5f805f60608486031215611cf7575f80fd5b611d0084611bb5565b95602085013595506040909401359392505050565b5f81518084525f5b81811015611d3957602081850181015186830182015201611d1d565b505f602082860101526020601f19601f83011685010191505092915050565b5f6020808301818452808551808352604092508286019150828160051b8701018488015f5b83811015611e2a57603f19898403018552815180518452878101516001600160a01b039081168986015287820151168785015260608082015160ff16908501526080808201516101208287018190529190611dda83880182611d15565b9250505060a080830151818701525060c080830151818701525060e080830151611e078288018215159052565b505061010091820151151594909101939093529386019390860190600101611d7d565b509098975050505050505050565b5f8060408385031215611e49575f80fd5b611e5283611bb5565b9150611c2160208401611bb5565b602080825282518282018190525f9190848201906040850190845b81811015611ea05783516001600160a01b031683529284019291840191600101611e7b565b50909695505050505050565b5f8060408385031215611ebd575f80fd5b611ec683611bb5565b946020939093013593505050565b8981526001600160a01b0389811660208301528816604082015260ff87166060820152610120608082018190525f90611f0f83820189611d15565b60a0840197909752505060c081019390935290151560e083015215156101009091015295945050505050565b634e487b7160e01b5f52603260045260245ffd5b634e487b7160e01b5f52601160045260245ffd5b5f60018201611f7457611f74611f4f565b5060010190565b818103818111156105bb576105bb611f4f565b634e487b7160e01b5f52604160045260245ffd5b600181811c90821680611fb657607f821691505b602082108103611fd457634e487b7160e01b5f52602260045260245ffd5b50919050565b601f8211156107c2575f81815260208120601f850160051c810160208610156120005750805b601f850160051c820191505b8181101561201f5782815560010161200c565b505050505050565b67ffffffffffffffff83111561203f5761203f611f8e565b6120538361204d8354611fa2565b83611fda565b5f601f841160018114612084575f851561206d5750838201355b5f19600387901b1c1916600186901b1783556120dc565b5f83815260209020601f19861690835b828110156120b45786850135825560209485019460019092019101612094565b50868210156120d0575f1960f88860031b161c19848701351681555b505060018560011b0183555b5050505050565b808201808211156105bb576105bb611f4f565b5f8261211057634e487b7160e01b5f52601260045260245ffd5b500490565b60ff818116838216029081169081811461213157612131611f4f565b5092915050565b80820281158282048414176105bb576105bb611f4f56fea49807205ce4d355092ef5a8a18f56e8913cf4a201fbe287825b095693c21775a26469706673582212200fa7ff477d1338aee7babd05e5aece4110d7c43be9e3afa33904957a801ed1d364736f6c63430008140033",
  "immutableReferences": {},
  "source": "// SPDX-License-Identifier: MIT\r\npragma solidity ^0.8.20;\r\n\r\nimport {ReentrancyGuard} from \"@openzeppelin/contracts/utils/ReentrancyGuard.sol\";\r\nimport {Pausable} from \"@openzeppelin/contracts/utils/Pausable.sol\";\r\nimport {AccessControl} from \"@openzeppelin/contracts/access/AccessControl.sol\";\r\n\r\ncontract DoctorReputation is ReentrancyGuard, Pausable, AccessControl {\r\n    bytes32 public constant ADMIN_ROLE = keccak256(\"ADMIN_ROLE\");\r\n    bytes32 public constant DOCTOR_ROLE = keccak256(\"DOCTOR_ROLE\");\r\n    bytes32 public constant PATIENT_ROLE = keccak256(\"PATIENT_ROLE\");\r\n\r\n    struct Review {\r\n        uint256 id;\r\n        address patient;\r\n        address doctor;\r\n        uint8 rating;\r\n        string comment;\r\n        uint256 appointmentId;\r\n        uint256 timestamp;\r\n        bool isVerifiedVisit;\r\n        bool isDeleted;\r\n    }\r\n\r\n    struct DoctorStats {\r\n        uint256 totalReviews;\r\n        uint256 sumRatings;\r\n        uint256 verifiedVisits;\r\n        uint256 totalAppointments;\r\n        uint8 currentRating;\r\n        uint256 reputationScore;\r\n        bool exists;\r\n    }\r\n\r\n    struct RatingBreakdown {\r\n        uint256 count5Star;\r\n        uint256 count4Star;\r\n        uint256 count3Star;\r\n        uint256 count2Star;\r\n        uint256 count1Star;\r\n    }\r\n\r\n    mapping(address => DoctorStats) public doctorStats;\r\n    mapping(address => uint256[]) public doctorReviewIds;\r\n    mapping(address => mapping(address => bool)) public hasReviewed;\r\n    mapping(uint256 => Review) public reviews;\r\n    mapping(address => mapping(address => uint256)) public lastReviewTime;\r\n    \r\n    uint256 private reviewIdCounter;\r\n    \r\n    uint256 public constant MIN_REVIEW_INTERVAL = 1 hours;\r\n    uint256 public constant MAX_RATING = 5;\r\n    uint256 public constant REPUTATION_WEIGHT_VERIFIED = 150;\r\n    uint256 public constant REPUTATION_WEIGHT_UNVERIFIED = 100;\r\n\r\n    event ReviewSubmitted(\r\n        uint256 indexed reviewId,\r\n        address indexed patient,\r\n        address indexed doctor,\r\n        uint8 rating,\r\n        bool verifiedVisit\r\n    );\r\n    event ReviewDeleted(uint256 indexed reviewId);\r\n    event DoctorStatsUpdated(address indexed doctor);\r\n    event ReputationRecalculated(address indexed doctor, uint256 newScore);\r\n\r\n    modifier onlyPatient() {\r\n        require(hasRole(PATIENT_ROLE, msg.sender), \"Only patients can review\");\r\n        _;\r\n    }\r\n\r\n    modifier canReview(address _doctor) {\r\n        require(_doctor != msg.sender, \"Cannot review yourself\");\r\n        require(!hasReviewed[msg.sender][_doctor], \"Already reviewed this doctor\");\r\n        \r\n        uint256 lastReview = lastReviewTime[msg.sender][_doctor];\r\n        if (lastReview > 0) {\r\n            require(block.timestamp - lastReview >= MIN_REVIEW_INTERVAL, \"Review too soon\");\r\n        }\r\n        _;\r\n    }\r\n\r\n    function submitReview(\r\n        address _doctor,\r\n        uint8 _rating,\r\n        string calldata _comment,\r\n        uint256 _appointmentId,\r\n        bool _verifiedVisit\r\n    ) external onlyPatient canReview(_doctor) nonReentrant whenNotPaused {\r\n        require(_doctor != address(0), \"Invalid doctor address\");\r\n        require(_rating >= 1 && _rating <= MAX_RATING, \"Invalid rating\");\r\n        require(doctorStats[_doctor].exists, \"Doctor not registered\");\r\n\r\n        uint256 reviewId = ++reviewIdCounter;\r\n        \r\n        Review storage review = reviews[reviewId];\r\n        review.id = reviewId;\r\n        review.patient = msg.sender;\r\n        review.doctor = _doctor;\r\n        review.rating = _rating;\r\n        review.comment = _comment;\r\n        review.appointmentId = _appointmentId;\r\n        review.timestamp = block.timestamp;\r\n        review.isVerifiedVisit = _verifiedVisit;\r\n        review.isDeleted = false;\r\n\r\n        hasReviewed[msg.sender][_doctor] = true;\r\n        lastReviewTime[msg.sender][_doctor] = block.timestamp;\r\n        doctorReviewIds[_doctor].push(reviewId);\r\n\r\n        _updateDoctorStats(_doctor);\r\n        \r\n        emit ReviewSubmitted(reviewId, msg.sender, _doctor, _rating, _verifiedVisit);\r\n    }\r\n\r\n    function _updateDoctorStats(address _doctor) internal {\r\n        DoctorStats storage stats = doctorStats[_doctor];\r\n        \r\n        uint256[] storage reviewIds = doctorReviewIds[_doctor];\r\n        uint256 totalReviews = 0;\r\n        uint256 sumRatings = 0;\r\n        uint256 verifiedVisits = 0;\r\n        uint256 deletedCount = 0;\r\n\r\n        for (uint256 i = 0; i < reviewIds.length; i++) {\r\n            Review storage review = reviews[reviewIds[i]];\r\n            if (review.isDeleted) {\r\n                deletedCount++;\r\n                continue;\r\n            }\r\n            totalReviews++;\r\n            sumRatings += review.rating;\r\n            if (review.isVerifiedVisit) {\r\n                verifiedVisits++;\r\n            }\r\n        }\r\n\r\n        stats.totalReviews = totalReviews;\r\n        stats.sumRatings = sumRatings;\r\n        stats.verifiedVisits = verifiedVisits;\r\n        \r\n        if (totalReviews > 0) {\r\n            stats.currentRating = uint8(sumRatings / totalReviews);\r\n        }\r\n        \r\n        stats.reputationScore = _calculateReputationScore(\r\n            stats.currentRating,\r\n            totalReviews,\r\n            verifiedVisits\r\n        );\r\n\r\n        emit DoctorStatsUpdated(_doctor);\r\n    }\r\n\r\n    function _calculateReputationScore(\r\n        uint8 _rating,\r\n        uint256 _totalReviews,\r\n        uint256 _verifiedVisits\r\n    ) internal pure returns (uint256) {\r\n        if (_totalReviews == 0) return 0;\r\n        \r\n        uint256 baseScore = _rating * 20;\r\n        \r\n        uint256 reviewBonus = _totalReviews > 10 ? (_totalReviews - 10) * 2 : 0;\r\n        reviewBonus = reviewBonus > 100 ? 100 : reviewBonus;\r\n        \r\n        uint256 verifiedBonus = (_verifiedVisits * REPUTATION_WEIGHT_VERIFIED) / 100;\r\n        \r\n        uint256 totalScore = baseScore + reviewBonus + verifiedBonus;\r\n        \r\n        return totalScore > 1000 ? 1000 : totalScore;\r\n    }\r\n\r\n    function deleteReview(uint256 _reviewId) external onlyPatient nonReentrant {\r\n        Review storage review = reviews[_reviewId];\r\n        require(review.patient == msg.sender, \"Not your review\");\r\n        require(!review.isDeleted, \"Already deleted\");\r\n        \r\n        review.isDeleted = true;\r\n        \r\n        _updateDoctorStats(review.doctor);\r\n        \r\n        emit ReviewDeleted(_reviewId);\r\n    }\r\n\r\n    function getDoctorReviews(\r\n        address _doctor,\r\n        uint256 _offset,\r\n        uint256 _limit\r\n    ) external view returns (Review[] memory) {\r\n        uint256[] storage reviewIds = doctorReviewIds[_doctor];\r\n        uint256 totalCount = reviewIds.length;\r\n        \r\n        if (_offset >= totalCount) {\r\n            return new Review[](0);\r\n        }\r\n        \r\n        uint256 resultSize = _offset + _limit > totalCount \r\n            ? totalCount - _offset \r\n            : _limit;\r\n        \r\n        Review[] memory result = new Review[](resultSize);\r\n        \r\n        for (uint256 i = 0; i < resultSize; i++) {\r\n            uint256 idx = reviewIds[_offset + i];\r\n            result[i] = reviews[idx];\r\n        }\r\n        \r\n        return result;\r\n    }\r\n\r\n    function getDoctorRatingBreakdown(address _doctor) \r\n        external \r\n        view \r\n        returns (RatingBreakdown memory) \r\n    {\r\n        uint256[] storage reviewIds = doctorReviewIds[_doctor];\r\n        \r\n        RatingBreakdown memory breakdown;\r\n        \r\n        for (uint256 i = 0; i < reviewIds.length; i++) {\r\n            Review storage review = reviews[reviewIds[i]];\r\n            if (review.isDeleted) continue;\r\n            \r\n            if (review.rating == 5) breakdown.count5Star++;\r\n            else if (review.rating == 4) breakdown.count4Star++;\r\n            else if (review.rating == 3) breakdown.count3Star++;\r\n            else if (review.rating == 2) breakdown.count2Star++;\r\n            else if (review.rating == 1) breakdown.count1Star++;\r\n        }\r\n        \r\n        return breakdown;\r\n    }\r\n\r\n    function getDoctorStats(address _doctor) external view returns (DoctorStats memory) {\r\n        return doctorStats[_doctor];\r\n    }\r\n\r\n    function getTopDoctors(uint256 _limit) external view returns (address[] memory) {\r\n        uint256 maxDoctors = _limit > 50 ? 50 : _limit;\r\n        address[] memory allDoctors = new address[](maxDoctors);\r\n        uint256 count = 0;\r\n        \r\n        for (uint256 i = 0; i < maxDoctors; i++) {\r\n            if (doctorStats[address(uint160(i))].exists) {\r\n                allDoctors[count++] = address(uint160(i));\r\n            }\r\n        }\r\n        \r\n        for (uint256 i = 0; i < count - 1; i++) {\r\n            for (uint256 j = 0; j < count - i - 1; j++) {\r\n                if (doctorStats[allDoctors[j]].reputationScore < \r\n                    doctorStats[allDoctors[j + 1]].reputationScore) {\r\n                    address temp = allDoctors[j];\r\n                    allDoctors[j] = allDoctors[j + 1];\r\n                    allDoctors[j + 1] = temp;\r\n                }\r\n            }\r\n        }\r\n        \r\n        address[] memory result = new address[](count);\r\n        for (uint256 i = 0; i < count; i++) {\r\n            result[i] = allDoctors[i];\r\n        }\r\n        \r\n        return result;\r\n    }\r\n\r\n    function canReviewDoctor(address _doctor) external view returns (bool) {\r\n        if (_doctor == msg.sender) return false;\r\n        if (hasReviewed[msg.sender][_doctor]) return false;\r\n        \r\n        uint256 lastReview = lastReviewTime[msg.sender][_doctor];\r\n        if (lastReview > 0 && block.timestamp - lastReview < MIN_REVIEW_INTERVAL) {\r\n            return false;\r\n        }\r\n        \r\n        return true;\r\n    }\r\n\r\n    function registerDoctor(address _doctor) external onlyRole(ADMIN_ROLE) {\r\n        DoctorStats storage stats = doctorStats[_doctor];\r\n        stats.exists = true;\r\n        stats.currentRating = 0;\r\n        stats.reputationScore = 0;\r\n    }\r\n\r\n    function pauseContract() external onlyRole(ADMIN_ROLE) {\r\n        _pause();\r\n    }\r\n\r\n    function unpauseContract() external onlyRole(ADMIN_ROLE) {\r\n        _unpause();\r\n    }\r\n}",
  "sourcePath": "C:\\Users\\night\\Downloads\\team-rocket-medi-secure\\team-rocket-medi-secure\\contracts\\contracts\\DoctorReputation.sol",
  "compiler": {
    "name": "solc",
    "version": "0.8.20+commit.a1b79de6.Emscripten.clang"
  },
  "schemaVersion": "3.4.16",
  "updatedAt": "2026-04-24T10:38:31.011Z",
  "devdoc": {
    "errors": {
      "AccessControlBadConfirmation()": [
        {
          "details": "The caller of a function is not the expected one. NOTE: Don't confuse with {AccessControlUnauthorizedAccount}."
        }
      ],
      "AccessControlUnauthorizedAccount(address,bytes32)": [
        {
          "details": "The `account` is missing a role."
        }
      ],
      "EnforcedPause()": [
        {
          "details": "The operation failed because the contract is paused."
        }
      ],
      "ExpectedPause()": [
        {
          "details": "The operation failed because the contract is not paused."
        }
      ],
      "ReentrancyGuardReentrantCall()": [
        {
          "details": "Unauthorized reentrant call."
        }
      ]
    },
    "events": {
      "Paused(address)": {
        "details": "Emitted when the pause is triggered by `account`."
      },
      "RoleAdminChanged(bytes32,bytes32,bytes32)": {
        "details": "Emitted when `newAdminRole` is set as ``role``'s admin role, replacing `previousAdminRole` `DEFAULT_ADMIN_ROLE` is the starting admin for all roles, despite {RoleAdminChanged} not being emitted signaling this."
      },
      "RoleGranted(bytes32,address,address)": {
        "details": "Emitted when `account` is granted `role`. `sender` is the account that originated the contract call, an admin role bearer except when using {AccessControl-_setupRole}."
      },
      "RoleRevoked(bytes32,address,address)": {
        "details": "Emitted when `account` is revoked `role`. `sender` is the account that originated the contract call:   - if using `revokeRole`, it is the admin role bearer   - if using `renounceRole`, it is the role bearer (i.e. `account`)"
      },
      "Unpaused(address)": {
        "details": "Emitted when the pause is lifted by `account`."
      }
    },
    "kind": "dev",
    "methods": {
      "getRoleAdmin(bytes32)": {
        "details": "Returns the admin role that controls `role`. See {grantRole} and {revokeRole}. To change a role's admin, use {_setRoleAdmin}."
      },
      "grantRole(bytes32,address)": {
        "details": "Grants `role` to `account`. If `account` had not been already granted `role`, emits a {RoleGranted} event. Requirements: - the caller must have ``role``'s admin role. May emit a {RoleGranted} event."
      },
      "hasRole(bytes32,address)": {
        "details": "Returns `true` if `account` has been granted `role`."
      },
      "paused()": {
        "details": "Returns true if the contract is paused, and false otherwise."
      },
      "renounceRole(bytes32,address)": {
        "details": "Revokes `role` from the calling account. Roles are often managed via {grantRole} and {revokeRole}: this function's purpose is to provide a mechanism for accounts to lose their privileges if they are compromised (such as when a trusted device is misplaced). If the calling account had been revoked `role`, emits a {RoleRevoked} event. Requirements: - the caller must be `callerConfirmation`. May emit a {RoleRevoked} event."
      },
      "revokeRole(bytes32,address)": {
        "details": "Revokes `role` from `account`. If `account` had been granted `role`, emits a {RoleRevoked} event. Requirements: - the caller must have ``role``'s admin role. May emit a {RoleRevoked} event."
      },
      "supportsInterface(bytes4)": {
        "details": "See {IERC165-supportsInterface}."
      }
    },
    "version": 1
  },
  "userdoc": {
    "kind": "user",
    "methods": {},
    "version": 1
  }
}