{
  "contractName": "Doctor",
  "abi": [
    {
      "anonymous": false,
      "inputs": [
        {
          "indexed": true,
          "internalType": "address",
          "name": "patient",
          "type": "address"
        },
        {
          "indexed": true,
          "internalType": "address",
          "name": "doctor",
          "type": "address"
        },
        {
          "indexed": false,
          "internalType": "string",
          "name": "ipfsHash",
          "type": "string"
        },
        {
          "indexed": false,
          "internalType": "uint256",
          "name": "grantTime",
          "type": "uint256"
        },
        {
          "indexed": false,
          "internalType": "uint256",
          "name": "duration",
          "type": "uint256"
        }
      ],
      "name": "AccessGranted",
      "type": "event"
    },
    {
      "anonymous": false,
      "inputs": [
        {
          "indexed": true,
          "internalType": "address",
          "name": "patient",
          "type": "address"
        },
        {
          "indexed": true,
          "internalType": "address",
          "name": "doctor",
          "type": "address"
        },
        {
          "indexed": false,
          "internalType": "string",
          "name": "ipfsHash",
          "type": "string"
        },
        {
          "indexed": false,
          "internalType": "string",
          "name": "fileName",
          "type": "string"
        },
        {
          "indexed": false,
          "internalType": "uint256",
          "name": "duration",
          "type": "uint256"
        },
        {
          "indexed": false,
          "internalType": "string",
          "name": "reason",
          "type": "string"
        }
      ],
      "name": "AccessRequested",
      "type": "event"
    },
    {
      "anonymous": false,
      "inputs": [
        {
          "indexed": true,
          "internalType": "address",
          "name": "patient",
          "type": "address"
        },
        {
          "indexed": true,
          "internalType": "address",
          "name": "doctor",
          "type": "address"
        },
        {
          "indexed": false,
          "internalType": "string",
          "name": "ipfsHash",
          "type": "string"
        },
        {
          "indexed": false,
          "internalType": "uint256",
          "name": "revokeTime",
          "type": "uint256"
        }
      ],
      "name": "AccessRevoked",
      "type": "event"
    },
    {
      "anonymous": false,
      "inputs": [
        {
          "indexed": true,
          "internalType": "uint256",
          "name": "doctorId",
          "type": "uint256"
        },
        {
          "indexed": true,
          "internalType": "uint256",
          "name": "patientId",
          "type": "uint256"
        },
        {
          "indexed": true,
          "internalType": "address",
          "name": "doctor",
          "type": "address"
        }
      ],
      "name": "PatientAdded",
      "type": "event"
    },
    {
      "inputs": [
        {
          "internalType": "uint256",
          "name": "",
          "type": "uint256"
        },
        {
          "internalType": "uint256",
          "name": "",
          "type": "uint256"
        }
      ],
      "name": "doctorAccessList",
      "outputs": [
        {
          "internalType": "address",
          "name": "patient",
          "type": "address"
        },
        {
          "internalType": "string",
          "name": "ipfsHash",
          "type": "string"
        },
        {
          "internalType": "string",
          "name": "fileName",
          "type": "string"
        },
        {
          "internalType": "bool",
          "name": "hasAccess",
          "type": "bool"
        },
        {
          "internalType": "uint256",
          "name": "grantTime",
          "type": "uint256"
        },
        {
          "internalType": "uint256",
          "name": "duration",
          "type": "uint256"
        },
        {
          "internalType": "string",
          "name": "reason",
          "type": "string"
        }
      ],
      "stateMutability": "view",
      "type": "function"
    },
    {
      "inputs": [
        {
          "internalType": "uint256",
          "name": "",
          "type": "uint256"
        }
      ],
      "name": "doctors",
      "outputs": [
        {
          "internalType": "uint256",
          "name": "doctorId",
          "type": "uint256"
        },
        {
          "internalType": "string",
          "name": "name",
          "type": "string"
        },
        {
          "internalType": "string",
          "name": "specialization",
          "type": "string"
        },
        {
          "internalType": "string",
          "name": "email",
          "type": "string"
        }
      ],
      "stateMutability": "view",
      "type": "function"
    },
    {
      "inputs": [
        {
          "internalType": "address",
          "name": "",
          "type": "address"
        }
      ],
      "name": "walletToDoctorId",
      "outputs": [
        {
          "internalType": "uint256",
          "name": "",
          "type": "uint256"
        }
      ],
      "stateMutability": "view",
      "type": "function"
    },
    {
      "inputs": [
        {
          "internalType": "string",
          "name": "_name",
          "type": "string"
        },
        {
          "internalType": "string",
          "name": "_specialization",
          "type": "string"
        },
        {
          "internalType": "string",
          "name": "_hospital",
          "type": "string"
        }
      ],
      "name": "registerDoctor",
      "outputs": [],
      "stateMutability": "nonpayable",
      "type": "function"
    },
    {
      "inputs": [
        {
          "internalType": "uint256",
          "name": "_patientId",
          "type": "uint256"
        }
      ],
      "name": "addPatient",
      "outputs": [],
      "stateMutability": "nonpayable",
      "type": "function"
    },
    {
      "inputs": [],
      "name": "getDoctorPatients",
      "outputs": [
        {
          "internalType": "uint256[]",
          "name": "",
          "type": "uint256[]"
        }
      ],
      "stateMutability": "view",
      "type": "function"
    },
    {
      "inputs": [
        {
          "internalType": "address",
          "name": "_patient",
          "type": "address"
        },
        {
          "internalType": "string",
          "name": "_ipfsHash",
          "type": "string"
        }
      ],
      "name": "hasAccessToDocument",
      "outputs": [
        {
          "internalType": "bool",
          "name": "",
          "type": "bool"
        }
      ],
      "stateMutability": "view",
      "type": "function"
    },
    {
      "inputs": [
        {
          "internalType": "address",
          "name": "_patient",
          "type": "address"
        },
        {
          "internalType": "string",
          "name": "_ipfsHash",
          "type": "string"
        },
        {
          "internalType": "string",
          "name": "_fileName",
          "type": "string"
        },
        {
          "internalType": "uint256",
          "name": "_duration",
          "type": "uint256"
        },
        {
          "internalType": "string",
          "name": "_reason",
          "type": "string"
        }
      ],
      "name": "requestAccess",
      "outputs": [],
      "stateMutability": "nonpayable",
      "type": "function"
    },
    {
      "inputs": [
        {
          "internalType": "address",
          "name": "_doctor",
          "type": "address"
        },
        {
          "internalType": "string",
          "name": "_ipfsHash",
          "type": "string"
        },
        {
          "internalType": "uint256",
          "name": "_duration",
          "type": "uint256"
        }
      ],
      "name": "grantAccess",
      "outputs": [],
      "stateMutability": "nonpayable",
      "type": "function"
    },
    {
      "inputs": [
        {
          "internalType": "address",
          "name": "_doctor",
          "type": "address"
        },
        {
          "internalType": "string",
          "name": "_ipfsHash",
          "type": "string"
        }
      ],
      "name": "revokeAccess",
      "outputs": [],
      "stateMutability": "nonpayable",
      "type": "function"
    },
    {
      "inputs": [],
      "name": "getAccessList",
      "outputs": [
        {
          "components": [
            {
              "internalType": "address",
              "name": "patient",
              "type": "address"
            },
            {
              "internalType": "string",
              "name": "ipfsHash",
              "type": "string"
            },
            {
              "internalType": "string",
              "name": "fileName",
              "type": "string"
            },
            {
              "internalType": "bool",
              "name": "hasAccess",
              "type": "bool"
            },
            {
              "internalType": "uint256",
              "name": "grantTime",
              "type": "uint256"
            },
            {
              "internalType": "uint256",
              "name": "duration",
              "type": "uint256"
            },
            {
              "internalType": "string",
              "name": "reason",
              "type": "string"
            }
          ],
          "internalType": "struct Doctor.DocumentAccess[]",
          "name": "",
          "type": "tuple[]"
        }
      ],
      "stateMutability": "view",
      "type": "function"
    },
    {
      "inputs": [],
      "name": "getPatients",
      "outputs": [
        {
          "components": [
            {
              "internalType": "uint256",
              "name": "doctorId",
              "type": "uint256"
            },
            {
              "internalType": "string",
              "name": "name",
              "type": "string"
            },
            {
              "internalType": "string",
              "name": "specialization",
              "type": "string"
            },
            {
              "internalType": "string",
              "name": "email",
              "type": "string"
            },
            {
              "internalType": "uint256[]",
              "name": "patientIds",
              "type": "uint256[]"
            }
          ],
          "internalType": "struct Doctor.DoctorDetails[]",
          "name": "",
          "type": "tuple[]"
        }
      ],
      "stateMutability": "view",
      "type": "function"
    },
    {
      "inputs": [
        {
          "internalType": "address",
          "name": "walletAddress",
          "type": "address"
        }
      ],
      "name": "doctorExists",
      "outputs": [
        {
          "internalType": "bool",
          "name": "",
          "type": "bool"
        }
      ],
      "stateMutability": "view",
      "type": "function"
    },
    {
      "inputs": [],
      "name": "getAllDoctors",
      "outputs": [
        {
          "components": [
            {
              "internalType": "uint256",
              "name": "doctorId",
              "type": "uint256"
            },
            {
              "internalType": "string",
              "name": "name",
              "type": "string"
            },
            {
              "internalType": "string",
              "name": "specialization",
              "type": "string"
            },
            {
              "internalType": "string",
              "name": "email",
              "type": "string"
            },
            {
              "internalType": "uint256[]",
              "name": "patientIds",
              "type": "uint256[]"
            }
          ],
          "internalType": "struct Doctor.DoctorDetails[]",
          "name": "",
          "type": "tuple[]"
        }
      ],
      "stateMutability": "view",
      "type": "function"
    }
  ],
  "bytecode": "0x608060405234801561001057600080fd5b50613742806100206000396000f3fe608060405234801561001057600080fd5b50600436106100ea5760003560e01c80636efb1b841161008c5780638d5ddbb3116100665780638d5ddbb31461025057806398cf72b31461026e578063f0d950901461029e578063f6827cd1146102bc576100ea565b80636efb1b84146101e35780637f93a961146102165780638b145ec814610232576100ea565b806333948de2116100c857806333948de214610159578063506e08d21461018f57806350c7a912146101ab5780636a44cac9146101c7576100ea565b806302b66aaf146100ef57806312ad1c371461010b5780632ad230a914610129575b600080fd5b61010960048036038101906101049190612628565b6102ec565b005b61011361052d565b6040516101209190612981565b60405180910390f35b610143600480360381019061013e91906129a3565b610b68565b60405161015091906129eb565b60405180910390f35b610173600480360381019061016e9190612a06565b610bb3565b6040516101869796959493929190612aae565b60405180910390f35b6101a960048036038101906101a49190612b32565b610dd7565b005b6101c560048036038101906101c09190612b5f565b610fa0565b005b6101e160048036038101906101dc9190612c06565b6110de565b005b6101fd60048036038101906101f89190612b32565b61137b565b60405161020d9493929190612c62565b60405180910390f35b610230600480360381019061022b9190612cbc565b611543565b005b61023a611835565b6040516102479190612d9a565b60405180910390f35b610258611928565b6040516102659190612f46565b60405180910390f35b610288600480360381019061028391906129a3565b611c5a565b6040516102959190612f68565b60405180910390f35b6102a6611c72565b6040516102b39190612981565b60405180910390f35b6102d660048036038101906102d19190612c06565b611f5a565b6040516102e391906129eb565b60405180910390f35b60008060003373ffffffffffffffffffffffffffffffffffffffff1673ffffffffffffffffffffffffffffffffffffffff16815260200190815260200160002054905060008103610372576040517f08c379a000000000000000000000000000000000000000000000000000000000815260040161036990612fcf565b60405180910390fd5b600260008281526020019081526020016000206040518060e001604052808873ffffffffffffffffffffffffffffffffffffffff1681526020018781526020018681526020016000151581526020016000815260200185815260200184815250908060018154018082558091505060019003906000526020600020906007020160009091909190915060008201518160000160006101000a81548173ffffffffffffffffffffffffffffffffffffffff021916908373ffffffffffffffffffffffffffffffffffffffff160217905550602082015181600101908161045791906131fb565b50604082015181600201908161046d91906131fb565b5060608201518160030160006101000a81548160ff0219169083151502179055506080820151816004015560a0820151816005015560c08201518160060190816104b791906131fb565b5050503373ffffffffffffffffffffffffffffffffffffffff168673ffffffffffffffffffffffffffffffffffffffff167fc4de088654327f2907ad8f0c288704b90c01af218c310b25c1682df9b7c8c7cd8787878760405161051d94939291906132cd565b60405180910390a3505050505050565b606060008060003373ffffffffffffffffffffffffffffffffffffffff1673ffffffffffffffffffffffffffffffffffffffff168152602001908152602001600020549050600081036105b5576040517f08c379a00000000000000000000000000000000000000000000000000000000081526004016105ac90612fcf565b60405180910390fd5b600060026000838152602001908152602001600020805480602002602001604051908101604052809291908181526020016000905b8282101561085757838290600052602060002090600702016040518060e00160405290816000820160009054906101000a900473ffffffffffffffffffffffffffffffffffffffff1673ffffffffffffffffffffffffffffffffffffffff1673ffffffffffffffffffffffffffffffffffffffff1681526020016001820180546106739061301e565b80601f016020809104026020016040519081016040528092919081815260200182805461069f9061301e565b80156106ec5780601f106106c1576101008083540402835291602001916106ec565b820191906000526020600020905b8154815290600101906020018083116106cf57829003601f168201915b505050505081526020016002820180546107059061301e565b80601f01602080910402602001604051908101604052809291908181526020018280546107319061301e565b801561077e5780601f106107535761010080835404028352916020019161077e565b820191906000526020600020905b81548152906001019060200180831161076157829003601f168201915b505050505081526020016003820160009054906101000a900460ff1615151515815260200160048201548152602001600582015481526020016006820180546107c69061301e565b80601f01602080910402602001604051908101604052809291908181526020018280546107f29061301e565b801561083f5780601f106108145761010080835404028352916020019161083f565b820191906000526020600020905b81548152906001019060200180831161082257829003601f168201915b505050505081525050815260200190600101906105ea565b5050505090506000815167ffffffffffffffff81111561087a576108796124c7565b5b6040519080825280602002602001820160405280156108b357816020015b6108a061240b565b8152602001906001900390816108985790505b5090506000805b8351811015610b5d578381815181106108d6576108d5613327565b5b60200260200101516060015115610b4a57600160008681526020019081526020016000206040518060a00160405290816000820154815260200160018201805461091f9061301e565b80601f016020809104026020016040519081016040528092919081815260200182805461094b9061301e565b80156109985780601f1061096d57610100808354040283529160200191610998565b820191906000526020600020905b81548152906001019060200180831161097b57829003601f168201915b505050505081526020016002820180546109b19061301e565b80601f01602080910402602001604051908101604052809291908181526020018280546109dd9061301e565b8015610a2a5780601f106109ff57610100808354040283529160200191610a2a565b820191906000526020600020905b815481529060010190602001808311610a0d57829003601f168201915b50505050508152602001600382018054610a439061301e565b80601f0160208091040260200160405190810160405280929190818152602001828054610a6f9061301e565b8015610abc5780601f10610a9157610100808354040283529160200191610abc565b820191906000526020600020905b815481529060010190602001808311610a9f57829003601f168201915b5050505050815260200160048201805480602002602001604051908101604052809291908181526020018280548015610b1457602002820191906000526020600020905b815481526020019060010190808311610b00575b505050505081525050838381518110610b3057610b2f613327565b5b60200260200101819052508180610b4690613385565b9250505b8080610b5590613385565b9150506108ba565b508194505050505090565b6000806000808473ffffffffffffffffffffffffffffffffffffffff1673ffffffffffffffffffffffffffffffffffffffff1681526020019081526020016000205414159050919050565b60026020528160005260406000208181548110610bcf57600080fd5b9060005260206000209060070201600091509150508060000160009054906101000a900473ffffffffffffffffffffffffffffffffffffffff1690806001018054610c199061301e565b80601f0160208091040260200160405190810160405280929190818152602001828054610c459061301e565b8015610c925780601f10610c6757610100808354040283529160200191610c92565b820191906000526020600020905b815481529060010190602001808311610c7557829003601f168201915b505050505090806002018054610ca79061301e565b80601f0160208091040260200160405190810160405280929190818152602001828054610cd39061301e565b8015610d205780601f10610cf557610100808354040283529160200191610d20565b820191906000526020600020905b815481529060010190602001808311610d0357829003601f168201915b5050505050908060030160009054906101000a900460ff1690806004015490806005015490806006018054610d549061301e565b80601f0160208091040260200160405190810160405280929190818152602001828054610d809061301e565b8015610dcd5780601f10610da257610100808354040283529160200191610dcd565b820191906000526020600020905b815481529060010190602001808311610db057829003601f168201915b5050505050905087565b60008060003373ffffffffffffffffffffffffffffffffffffffff1673ffffffffffffffffffffffffffffffffffffffff16815260200190815260200160002054905060008103610e5d576040517f08c379a0000000000000000000000000000000000000000000000000000000008152600401610e5490612fcf565b60405180910390fd5b6000805b6001600084815260200190815260200160002060040180549050811015610ed75783600160008581526020019081526020016000206004018281548110610eab57610eaa613327565b5b906000526020600020015403610ec45760019150610ed7565b8080610ecf90613385565b915050610e61565b508015610f19576040517f08c379a0000000000000000000000000000000000000000000000000000000008152600401610f1090613419565b60405180910390fd5b600160008381526020019081526020016000206004018390806001815401808255809150506001900390600052602060002001600090919091909150553373ffffffffffffffffffffffffffffffffffffffff1683837f62e4da5e5c3a89b6dca6a385b8712c06f51bf0855ae5b6abd14937474a4ce01e60405160405180910390a4505050565b60008060003373ffffffffffffffffffffffffffffffffffffffff1673ffffffffffffffffffffffffffffffffffffffff1681526020019081526020016000205414611021576040517f08c379a000000000000000000000000000000000000000000000000000000000815260040161101890613485565b60405180910390fd5b6003600081548092919061103490613385565b91905055506003546000803373ffffffffffffffffffffffffffffffffffffffff1673ffffffffffffffffffffffffffffffffffffffff16815260200190815260200160002081905550600060016000600354815260200190815260200160002090506003548160000181905550838160010190816110b391906131fb565b50828160020190816110c591906131fb565b50818160030190816110d791906131fb565b5050505050565b60008060008473ffffffffffffffffffffffffffffffffffffffff1673ffffffffffffffffffffffffffffffffffffffff16815260200190815260200160002054905060008103611164576040517f08c379a000000000000000000000000000000000000000000000000000000000815260040161115b90612fcf565b60405180910390fd5b600060026000838152602001908152602001600020905060005b818054905081101561133b573373ffffffffffffffffffffffffffffffffffffffff168282815481106111b4576111b3613327565b5b906000526020600020906007020160000160009054906101000a900473ffffffffffffffffffffffffffffffffffffffff1673ffffffffffffffffffffffffffffffffffffffff1614801561127757508360405160200161121591906134e1565b6040516020818303038152906040528051906020012082828154811061123e5761123d613327565b5b906000526020600020906007020160010160405160200161125f919061357b565b60405160208183030381529060405280519060200120145b1561132857600082828154811061129157611290613327565b5b906000526020600020906007020160030160006101000a81548160ff0219169083151502179055508473ffffffffffffffffffffffffffffffffffffffff163373ffffffffffffffffffffffffffffffffffffffff167f1852eeec29c8b9e06624d3e3008123c26ddd6173947b6bea9054402ea8ca57ad8642604051611318929190613592565b60405180910390a3505050611377565b808061133390613385565b91505061117e565b506040517f08c379a000000000000000000000000000000000000000000000000000000000815260040161136e9061360e565b60405180910390fd5b5050565b60016020528060005260406000206000915090508060000154908060010180546113a49061301e565b80601f01602080910402602001604051908101604052809291908181526020018280546113d09061301e565b801561141d5780601f106113f25761010080835404028352916020019161141d565b820191906000526020600020905b81548152906001019060200180831161140057829003601f168201915b5050505050908060020180546114329061301e565b80601f016020809104026020016040519081016040528092919081815260200182805461145e9061301e565b80156114ab5780601f10611480576101008083540402835291602001916114ab565b820191906000526020600020905b81548152906001019060200180831161148e57829003601f168201915b5050505050908060030180546114c09061301e565b80601f01602080910402602001604051908101604052809291908181526020018280546114ec9061301e565b80156115395780601f1061150e57610100808354040283529160200191611539565b820191906000526020600020905b81548152906001019060200180831161151c57829003601f168201915b5050505050905084565b60008060008573ffffffffffffffffffffffffffffffffffffffff1673ffffffffffffffffffffffffffffffffffffffff168152602001908152602001600020549050600081036115c9576040517f08c379a00000000000000000000000000000000000000000000000000000000081526004016115c090612fcf565b60405180910390fd5b600060026000838152602001908152602001600020905060005b81805490508110156117f4573373ffffffffffffffffffffffffffffffffffffffff1682828154811061161957611618613327565b5b906000526020600020906007020160000160009054906101000a900473ffffffffffffffffffffffffffffffffffffffff1673ffffffffffffffffffffffffffffffffffffffff161480156116dc57508460405160200161167a91906134e1565b604051602081830303815290604052805190602001208282815481106116a3576116a2613327565b5b90600052602060002090600702016001016040516020016116c4919061357b565b60405160208183030381529060405280519060200120145b156117e15760018282815481106116f6576116f5613327565b5b906000526020600020906007020160030160006101000a81548160ff0219169083151502179055504282828154811061173257611731613327565b5b9060005260206000209060070201600401819055508382828154811061175b5761175a613327565b5b9060005260206000209060070201600501819055508573ffffffffffffffffffffffffffffffffffffffff163373ffffffffffffffffffffffffffffffffffffffff167fc298d419e944a3f1e7da1b2245c9f34649b9a6ea67875bcd37e975ef5d7209a38742886040516117d19392919061362e565b60405180910390a3505050611830565b80806117ec90613385565b9150506115e3565b506040517f08c379a0000000000000000000000000000000000000000000000000000000008152600401611827906136b8565b60405180910390fd5b505050565b606060008060003373ffffffffffffffffffffffffffffffffffffffff1673ffffffffffffffffffffffffffffffffffffffff168152602001908152602001600020549050600081036118bd576040517f08c379a00000000000000000000000000000000000000000000000000000000081526004016118b490612fcf565b60405180910390fd5b6001600082815260200190815260200160002060040180548060200260200160405190810160405280929190818152602001828054801561191d57602002820191906000526020600020905b815481526020019060010190808311611909575b505050505091505090565b606060008060003373ffffffffffffffffffffffffffffffffffffffff1673ffffffffffffffffffffffffffffffffffffffff168152602001908152602001600020549050600081036119b0576040517f08c379a00000000000000000000000000000000000000000000000000000000081526004016119a790612fcf565b60405180910390fd5b60026000828152602001908152602001600020805480602002602001604051908101604052809291908181526020016000905b82821015611c5057838290600052602060002090600702016040518060e00160405290816000820160009054906101000a900473ffffffffffffffffffffffffffffffffffffffff1673ffffffffffffffffffffffffffffffffffffffff1673ffffffffffffffffffffffffffffffffffffffff168152602001600182018054611a6c9061301e565b80601f0160208091040260200160405190810160405280929190818152602001828054611a989061301e565b8015611ae55780601f10611aba57610100808354040283529160200191611ae5565b820191906000526020600020905b815481529060010190602001808311611ac857829003601f168201915b50505050508152602001600282018054611afe9061301e565b80601f0160208091040260200160405190810160405280929190818152602001828054611b2a9061301e565b8015611b775780601f10611b4c57610100808354040283529160200191611b77565b820191906000526020600020905b815481529060010190602001808311611b5a57829003601f168201915b505050505081526020016003820160009054906101000a900460ff161515151581526020016004820154815260200160058201548152602001600682018054611bbf9061301e565b80601f0160208091040260200160405190810160405280929190818152602001828054611beb9061301e565b8015611c385780601f10611c0d57610100808354040283529160200191611c38565b820191906000526020600020905b815481529060010190602001808311611c1b57829003601f168201915b505050505081525050815260200190600101906119e3565b5050505091505090565b60006020528060005260406000206000915090505481565b60606000600354905060008167ffffffffffffffff811115611c9757611c966124c7565b5b604051908082528060200260200182016040528015611cd057816020015b611cbd61240b565b815260200190600190039081611cb55790505b50905060005b82811015611f515760016000600183611cef91906136d8565b81526020019081526020016000206040518060a001604052908160008201548152602001600182018054611d229061301e565b80601f0160208091040260200160405190810160405280929190818152602001828054611d4e9061301e565b8015611d9b5780601f10611d7057610100808354040283529160200191611d9b565b820191906000526020600020905b815481529060010190602001808311611d7e57829003601f168201915b50505050508152602001600282018054611db49061301e565b80601f0160208091040260200160405190810160405280929190818152602001828054611de09061301e565b8015611e2d5780601f10611e0257610100808354040283529160200191611e2d565b820191906000526020600020905b815481529060010190602001808311611e1057829003601f168201915b50505050508152602001600382018054611e469061301e565b80601f0160208091040260200160405190810160405280929190818152602001828054611e729061301e565b8015611ebf5780601f10611e9457610100808354040283529160200191611ebf565b820191906000526020600020905b815481529060010190602001808311611ea257829003601f168201915b5050505050815260200160048201805480602002602001604051908101604052809291908181526020018280548015611f1757602002820191906000526020600020905b815481526020019060010190808311611f03575b505050505081525050828281518110611f3357611f32613327565b5b60200260200101819052508080611f4990613385565b915050611cd6565b50809250505090565b6000806000803373ffffffffffffffffffffffffffffffffffffffff1673ffffffffffffffffffffffffffffffffffffffff16815260200190815260200160002054905060008103611fe1576040517f08c379a0000000000000000000000000000000000000000000000000000000008152600401611fd890612fcf565b60405180910390fd5b600060026000838152602001908152602001600020805480602002602001604051908101604052809291908181526020016000905b8282101561228357838290600052602060002090600702016040518060e00160405290816000820160009054906101000a900473ffffffffffffffffffffffffffffffffffffffff1673ffffffffffffffffffffffffffffffffffffffff1673ffffffffffffffffffffffffffffffffffffffff16815260200160018201805461209f9061301e565b80601f01602080910402602001604051908101604052809291908181526020018280546120cb9061301e565b80156121185780601f106120ed57610100808354040283529160200191612118565b820191906000526020600020905b8154815290600101906020018083116120fb57829003601f168201915b505050505081526020016002820180546121319061301e565b80601f016020809104026020016040519081016040528092919081815260200182805461215d9061301e565b80156121aa5780601f1061217f576101008083540402835291602001916121aa565b820191906000526020600020905b81548152906001019060200180831161218d57829003601f168201915b505050505081526020016003820160009054906101000a900460ff1615151515815260200160048201548152602001600582015481526020016006820180546121f29061301e565b80601f016020809104026020016040519081016040528092919081815260200182805461221e9061301e565b801561226b5780601f106122405761010080835404028352916020019161226b565b820191906000526020600020905b81548152906001019060200180831161224e57829003601f168201915b50505050508152505081526020019060010190612016565b50505050905060005b81518110156123fd578573ffffffffffffffffffffffffffffffffffffffff168282815181106122bf576122be613327565b5b60200260200101516000015173ffffffffffffffffffffffffffffffffffffffff161480156123575750846040516020016122fa91906134e1565b6040516020818303038152906040528051906020012082828151811061232357612322613327565b5b60200260200101516020015160405160200161233f91906134e1565b60405160208183030381529060405280519060200120145b801561237e575081818151811061237157612370613327565b5b6020026020010151606001515b156123ea5781818151811061239657612395613327565b5b602002602001015160a001518282815181106123b5576123b4613327565b5b6020026020010151608001516123cb91906136d8565b4211156123de5760009350505050612405565b60019350505050612405565b80806123f590613385565b91505061228c565b506000925050505b92915050565b6040518060a0016040528060008152602001606081526020016060815260200160608152602001606081525090565b6000604051905090565b600080fd5b600080fd5b600073ffffffffffffffffffffffffffffffffffffffff82169050919050565b60006124798261244e565b9050919050565b6124898161246e565b811461249457600080fd5b50565b6000813590506124a681612480565b92915050565b600080fd5b600080fd5b6000601f19601f8301169050919050565b7f4e487b7100000000000000000000000000000000000000000000000000000000600052604160045260246000fd5b6124ff826124b6565b810181811067ffffffffffffffff8211171561251e5761251d6124c7565b5b80604052505050565b600061253161243a565b905061253d82826124f6565b919050565b600067ffffffffffffffff82111561255d5761255c6124c7565b5b612566826124b6565b9050602081019050919050565b82818337600083830152505050565b600061259561259084612542565b612527565b9050828152602081018484840111156125b1576125b06124b1565b5b6125bc848285612573565b509392505050565b600082601f8301126125d9576125d86124ac565b5b81356125e9848260208601612582565b91505092915050565b6000819050919050565b612605816125f2565b811461261057600080fd5b50565b600081359050612622816125fc565b92915050565b600080600080600060a0868803121561264457612643612444565b5b600061265288828901612497565b955050602086013567ffffffffffffffff81111561267357612672612449565b5b61267f888289016125c4565b945050604086013567ffffffffffffffff8111156126a05761269f612449565b5b6126ac888289016125c4565b93505060606126bd88828901612613565b925050608086013567ffffffffffffffff8111156126de576126dd612449565b5b6126ea888289016125c4565b9150509295509295909350565b600081519050919050565b600082825260208201905092915050565b6000819050602082019050919050565b61272c816125f2565b82525050565b600081519050919050565b600082825260208201905092915050565b60005b8381101561276c578082015181840152602081019050612751565b60008484015250505050565b600061278382612732565b61278d818561273d565b935061279d81856020860161274e565b6127a6816124b6565b840191505092915050565b600081519050919050565b600082825260208201905092915050565b6000819050602082019050919050565b60006127e98383612723565b60208301905092915050565b6000602082019050919050565b600061280d826127b1565b61281781856127bc565b9350612822836127cd565b8060005b8381101561285357815161283a88826127dd565b9750612845836127f5565b925050600181019050612826565b5085935050505092915050565b600060a0830160008301516128786000860182612723565b50602083015184820360208601526128908282612778565b915050604083015184820360408601526128aa8282612778565b915050606083015184820360608601526128c48282612778565b915050608083015184820360808601526128de8282612802565b9150508091505092915050565b60006128f78383612860565b905092915050565b6000602082019050919050565b6000612917826126f7565b6129218185612702565b93508360208202850161293385612713565b8060005b8581101561296f578484038952815161295085826128eb565b945061295b836128ff565b925060208a01995050600181019050612937565b50829750879550505050505092915050565b6000602082019050818103600083015261299b818461290c565b905092915050565b6000602082840312156129b9576129b8612444565b5b60006129c784828501612497565b91505092915050565b60008115159050919050565b6129e5816129d0565b82525050565b6000602082019050612a0060008301846129dc565b92915050565b60008060408385031215612a1d57612a1c612444565b5b6000612a2b85828601612613565b9250506020612a3c85828601612613565b9150509250929050565b612a4f8161246e565b82525050565b600082825260208201905092915050565b6000612a7182612732565b612a7b8185612a55565b9350612a8b81856020860161274e565b612a94816124b6565b840191505092915050565b612aa8816125f2565b82525050565b600060e082019050612ac3600083018a612a46565b8181036020830152612ad58189612a66565b90508181036040830152612ae98188612a66565b9050612af860608301876129dc565b612b056080830186612a9f565b612b1260a0830185612a9f565b81810360c0830152612b248184612a66565b905098975050505050505050565b600060208284031215612b4857612b47612444565b5b6000612b5684828501612613565b91505092915050565b600080600060608486031215612b7857612b77612444565b5b600084013567ffffffffffffffff811115612b9657612b95612449565b5b612ba2868287016125c4565b935050602084013567ffffffffffffffff811115612bc357612bc2612449565b5b612bcf868287016125c4565b925050604084013567ffffffffffffffff811115612bf057612bef612449565b5b612bfc868287016125c4565b9150509250925092565b60008060408385031215612c1d57612c1c612444565b5b6000612c2b85828601612497565b925050602083013567ffffffffffffffff811115612c4c57612c4b612449565b5b612c58858286016125c4565b9150509250929050565b6000608082019050612c776000830187612a9f565b8181036020830152612c898186612a66565b90508181036040830152612c9d8185612a66565b90508181036060830152612cb18184612a66565b905095945050505050565b600080600060608486031215612cd557612cd4612444565b5b6000612ce386828701612497565b935050602084013567ffffffffffffffff811115612d0457612d03612449565b5b612d10868287016125c4565b9250506040612d2186828701612613565b9150509250925092565b600082825260208201905092915050565b6000612d47826127b1565b612d518185612d2b565b9350612d5c836127cd565b8060005b83811015612d8d578151612d7488826127dd565b9750612d7f836127f5565b925050600181019050612d60565b5085935050505092915050565b60006020820190508181036000830152612db48184612d3c565b905092915050565b600081519050919050565b600082825260208201905092915050565b6000819050602082019050919050565b612df18161246e565b82525050565b612e00816129d0565b82525050565b600060e083016000830151612e1e6000860182612de8565b5060208301518482036020860152612e368282612778565b91505060408301518482036040860152612e508282612778565b9150506060830151612e656060860182612df7565b506080830151612e786080860182612723565b5060a0830151612e8b60a0860182612723565b5060c083015184820360c0860152612ea38282612778565b9150508091505092915050565b6000612ebc8383612e06565b905092915050565b6000602082019050919050565b6000612edc82612dbc565b612ee68185612dc7565b935083602082028501612ef885612dd8565b8060005b85811015612f345784840389528151612f158582612eb0565b9450612f2083612ec4565b925060208a01995050600181019050612efc565b50829750879550505050505092915050565b60006020820190508181036000830152612f608184612ed1565b905092915050565b6000602082019050612f7d6000830184612a9f565b92915050565b7f446f63746f72206e6f7420726567697374657265640000000000000000000000600082015250565b6000612fb9601583612a55565b9150612fc482612f83565b602082019050919050565b60006020820190508181036000830152612fe881612fac565b9050919050565b7f4e487b7100000000000000000000000000000000000000000000000000000000600052602260045260246000fd5b6000600282049050600182168061303657607f821691505b60208210810361304957613048612fef565b5b50919050565b60008190508160005260206000209050919050565b60006020601f8301049050919050565b600082821b905092915050565b6000600883026130b17fffffffffffffffffffffffffffffffffffffffffffffffffffffffffffffffff82613074565b6130bb8683613074565b95508019841693508086168417925050509392505050565b6000819050919050565b60006130f86130f36130ee846125f2565b6130d3565b6125f2565b9050919050565b6000819050919050565b613112836130dd565b61312661311e826130ff565b848454613081565b825550505050565b600090565b61313b61312e565b613146818484613109565b505050565b5b8181101561316a5761315f600082613133565b60018101905061314c565b5050565b601f8211156131af576131808161304f565b61318984613064565b81016020851015613198578190505b6131ac6131a485613064565b83018261314b565b50505b505050565b600082821c905092915050565b60006131d2600019846008026131b4565b1980831691505092915050565b60006131eb83836131c1565b9150826002028217905092915050565b61320482612732565b67ffffffffffffffff81111561321d5761321c6124c7565b5b613227825461301e565b61323282828561316e565b600060209050601f8311600181146132655760008415613253578287015190505b61325d85826131df565b8655506132c5565b601f1984166132738661304f565b60005b8281101561329b57848901518255600182019150602085019450602081019050613276565b868310156132b857848901516132b4601f8916826131c1565b8355505b6001600288020188555050505b505050505050565b600060808201905081810360008301526132e78187612a66565b905081810360208301526132fb8186612a66565b905061330a6040830185612a9f565b818103606083015261331c8184612a66565b905095945050505050565b7f4e487b7100000000000000000000000000000000000000000000000000000000600052603260045260246000fd5b7f4e487b7100000000000000000000000000000000000000000000000000000000600052601160045260246000fd5b6000613390826125f2565b91507fffffffffffffffffffffffffffffffffffffffffffffffffffffffffffffffff82036133c2576133c1613356565b5b600182019050919050565b7f50617469656e7420616c72656164792061646465640000000000000000000000600082015250565b6000613403601583612a55565b915061340e826133cd565b602082019050919050565b60006020820190508181036000830152613432816133f6565b9050919050565b7f446f63746f7220616c7265616479207265676973746572656400000000000000600082015250565b600061346f601983612a55565b915061347a82613439565b602082019050919050565b6000602082019050818103600083015261349e81613462565b9050919050565b600081905092915050565b60006134bb82612732565b6134c581856134a5565b93506134d581856020860161274e565b80840191505092915050565b60006134ed82846134b0565b915081905092915050565b600081546135058161301e565b61350f81866134a5565b9450600182166000811461352a576001811461353f57613572565b60ff1983168652811515820286019350613572565b6135488561304f565b60005b8381101561356a5781548189015260018201915060208101905061354b565b838801955050505b50505092915050565b600061358782846134f8565b915081905092915050565b600060408201905081810360008301526135ac8185612a66565b90506135bb6020830184612a9f565b9392505050565b7f416363657373207265636f7264206e6f7420666f756e64000000000000000000600082015250565b60006135f8601783612a55565b9150613603826135c2565b602082019050919050565b60006020820190508181036000830152613627816135eb565b9050919050565b600060608201905081810360008301526136488186612a66565b90506136576020830185612a9f565b6136646040830184612a9f565b949350505050565b7f4163636573732072657175657374206e6f7420666f756e640000000000000000600082015250565b60006136a2601883612a55565b91506136ad8261366c565b602082019050919050565b600060208201905081810360008301526136d181613695565b9050919050565b60006136e3826125f2565b91506136ee836125f2565b925082820190508082111561370657613705613356565b5b9291505056fea26469706673582212203b2a146c09b772cfd41b8df9eb68a1c13f540b5f21109d47c347de41b1661fbf64736f6c63430008130033",
  "immutableReferences": {},
  "source": "// SPDX-License-Identifier: MIT\r\npragma solidity ^0.8.19;\r\n\r\ncontract Doctor {\r\n    struct DoctorDetails {\r\n        uint256 doctorId;\r\n        string name;\r\n        string specialization;\r\n        string email;\r\n        uint256[] patientIds; // NEW: List of patients linked to this doctor\r\n    }\r\n\r\n    struct DocumentAccess {\r\n        address patient;\r\n        string ipfsHash;\r\n        string fileName;\r\n        bool hasAccess;\r\n        uint256 grantTime;\r\n        uint256 duration;\r\n        string reason; // NEW: Purpose of access\r\n    }\r\n\r\n    mapping(address => uint256) public walletToDoctorId;\r\n    mapping(uint256 => DoctorDetails) public doctors;\r\n    mapping(uint256 => DocumentAccess[]) public doctorAccessList;\r\n\r\n    uint256 private doctorIdCounter;\r\n\r\n    // --- EVENTS ---\r\n    event AccessRequested(\r\n        address indexed patient,\r\n        address indexed doctor,\r\n        string ipfsHash,\r\n        string fileName,\r\n        uint256 duration,\r\n        string reason // NEW\r\n    );\r\n    event AccessGranted(\r\n        address indexed patient,\r\n        address indexed doctor,\r\n        string ipfsHash,\r\n        uint256 grantTime,\r\n        uint256 duration\r\n    );\r\n    event AccessRevoked(\r\n        address indexed patient,\r\n        address indexed doctor,\r\n        string ipfsHash,\r\n        uint256 revokeTime\r\n    );\r\n    event PatientAdded(\r\n        uint256 indexed doctorId,\r\n        uint256 indexed patientId,\r\n        address indexed doctor\r\n    );\r\n\r\n    function registerDoctor(\r\n        string memory _name,\r\n        string memory _specialization,\r\n        string memory _hospital\r\n    ) public {\r\n        require(walletToDoctorId[msg.sender] == 0, \"Doctor already registered\");\r\n        doctorIdCounter++;\r\n        walletToDoctorId[msg.sender] = doctorIdCounter;\r\n\r\n        DoctorDetails storage newDoctor = doctors[doctorIdCounter];\r\n        newDoctor.doctorId = doctorIdCounter;\r\n        newDoctor.name = _name;\r\n        newDoctor.specialization = _specialization;\r\n        newDoctor.email = _hospital;\r\n    }\r\n\r\n    function addPatient(uint256 _patientId) public {\r\n        uint256 doctorId = walletToDoctorId[msg.sender];\r\n        require(doctorId != 0, \"Doctor not registered\");\r\n\r\n        bool exists = false;\r\n        for (uint i = 0; i < doctors[doctorId].patientIds.length; i++) {\r\n            if (doctors[doctorId].patientIds[i] == _patientId) {\r\n                exists = true;\r\n                break;\r\n            }\r\n        }\r\n        require(!exists, \"Patient already added\");\r\n\r\n        doctors[doctorId].patientIds.push(_patientId);\r\n        emit PatientAdded(doctorId, _patientId, msg.sender);\r\n    }\r\n\r\n    function getDoctorPatients() public view returns (uint256[] memory) {\r\n        uint256 doctorId = walletToDoctorId[msg.sender];\r\n        require(doctorId != 0, \"Doctor not registered\");\r\n        return doctors[doctorId].patientIds;\r\n    }\r\n\r\n    function hasAccessToDocument(\r\n        address _patient,\r\n        string memory _ipfsHash\r\n    ) public view returns (bool) {\r\n        uint256 doctorId = walletToDoctorId[msg.sender];\r\n        require(doctorId != 0, \"Doctor not registered\");\r\n\r\n        DocumentAccess[] memory accessList = doctorAccessList[doctorId];\r\n        for (uint256 i = 0; i < accessList.length; i++) {\r\n            if (\r\n                accessList[i].patient == _patient &&\r\n                keccak256(abi.encodePacked(accessList[i].ipfsHash)) ==\r\n                keccak256(abi.encodePacked(_ipfsHash)) &&\r\n                accessList[i].hasAccess\r\n            ) {\r\n                // Check for expiration\r\n                if (\r\n                    block.timestamp >\r\n                    accessList[i].grantTime + accessList[i].duration\r\n                ) {\r\n                    return false;\r\n                }\r\n                return true;\r\n            }\r\n        }\r\n        return false;\r\n    }\r\n\r\n    function requestAccess(\r\n        address _patient,\r\n        string memory _ipfsHash,\r\n        string memory _fileName,\r\n        uint256 _duration,\r\n        string memory _reason\r\n    ) public {\r\n        uint256 doctorId = walletToDoctorId[msg.sender];\r\n        require(doctorId != 0, \"Doctor not registered\");\r\n\r\n        doctorAccessList[doctorId].push(\r\n            DocumentAccess({\r\n                patient: _patient,\r\n                ipfsHash: _ipfsHash,\r\n                fileName: _fileName,\r\n                hasAccess: false,\r\n                grantTime: 0,\r\n                duration: _duration,\r\n                reason: _reason\r\n            })\r\n        );\r\n\r\n        emit AccessRequested(\r\n            _patient,\r\n            msg.sender,\r\n            _ipfsHash,\r\n            _fileName,\r\n            _duration,\r\n            _reason\r\n        );\r\n    }\r\n\r\n    function grantAccess(\r\n        address _doctor,\r\n        string memory _ipfsHash,\r\n        uint256 _duration\r\n    ) public {\r\n        uint256 doctorId = walletToDoctorId[_doctor];\r\n        require(doctorId != 0, \"Doctor not registered\");\r\n\r\n        DocumentAccess[] storage accessList = doctorAccessList[doctorId];\r\n        for (uint256 i = 0; i < accessList.length; i++) {\r\n            if (\r\n                accessList[i].patient == msg.sender &&\r\n                keccak256(abi.encodePacked(accessList[i].ipfsHash)) ==\r\n                keccak256(abi.encodePacked(_ipfsHash))\r\n            ) {\r\n                accessList[i].hasAccess = true;\r\n                accessList[i].grantTime = block.timestamp;\r\n                accessList[i].duration = _duration; // Update with confirmed duration\r\n\r\n                emit AccessGranted(\r\n                    msg.sender,\r\n                    _doctor,\r\n                    _ipfsHash,\r\n                    block.timestamp,\r\n                    _duration\r\n                );\r\n                return;\r\n            }\r\n        }\r\n        revert(\"Access request not found\");\r\n    }\r\n\r\n    function revokeAccess(address _doctor, string memory _ipfsHash) public {\r\n        uint256 doctorId = walletToDoctorId[_doctor];\r\n        require(doctorId != 0, \"Doctor not registered\");\r\n\r\n        DocumentAccess[] storage accessList = doctorAccessList[doctorId];\r\n        for (uint256 i = 0; i < accessList.length; i++) {\r\n            if (\r\n                accessList[i].patient == msg.sender &&\r\n                keccak256(abi.encodePacked(accessList[i].ipfsHash)) ==\r\n                keccak256(abi.encodePacked(_ipfsHash))\r\n            ) {\r\n                accessList[i].hasAccess = false;\r\n                emit AccessRevoked(\r\n                    msg.sender,\r\n                    _doctor,\r\n                    _ipfsHash,\r\n                    block.timestamp\r\n                );\r\n                return;\r\n            }\r\n        }\r\n        revert(\"Access record not found\");\r\n    }\r\n\r\n    // --- GETTERS ---\r\n    function getAccessList() public view returns (DocumentAccess[] memory) {\r\n        uint256 doctorId = walletToDoctorId[msg.sender];\r\n        require(doctorId != 0, \"Doctor not registered\");\r\n        return doctorAccessList[doctorId];\r\n    }\r\n\r\n    function getPatients() public view returns (DoctorDetails[] memory) {\r\n        uint256 doctorId = walletToDoctorId[msg.sender];\r\n        require(doctorId != 0, \"Doctor not registered\");\r\n\r\n        DocumentAccess[] memory accessList = doctorAccessList[doctorId];\r\n        DoctorDetails[] memory patients = new DoctorDetails[](\r\n            accessList.length\r\n        );\r\n        uint256 count = 0;\r\n\r\n        for (uint256 i = 0; i < accessList.length; i++) {\r\n            if (accessList[i].hasAccess) {\r\n                patients[count] = doctors[doctorId];\r\n                count++;\r\n            }\r\n        }\r\n\r\n        return patients;\r\n    }\r\n\r\n    function doctorExists(address walletAddress) public view returns (bool) {\r\n        return walletToDoctorId[walletAddress] != 0;\r\n    }\r\n\r\n    function getAllDoctors() public view returns (DoctorDetails[] memory) {\r\n        uint256 total = doctorIdCounter;\r\n        DoctorDetails[] memory list = new DoctorDetails[](total);\r\n\r\n        for (uint256 i = 0; i < total; i++) {\r\n            list[i] = doctors[i + 1];\r\n        }\r\n\r\n        return list;\r\n    }\r\n}\r\n",
  "sourcePath": "J:\\Users\\ayush\\Desktop\\code\\team-rocket-medi-secure\\contracts\\contracts\\Doctor.sol",
  "compiler": {
    "name": "solc",
    "version": "0.8.19+commit.7dd6d404.Emscripten.clang"
  },
  "schemaVersion": "3.4.16",
  "updatedAt": "2026-01-17T14:27:58.440Z",
  "devdoc": {
    "kind": "dev",
    "methods": {},
    "version": 1
  },
  "userdoc": {
    "kind": "user",
    "methods": {},
    "version": 1
  }
}