{
  "contractName": "Doctor",
  "abi": [
    {
      "anonymous": false,
      "inputs": [
        {
          "indexed": true,
          "internalType": "address",
          "name": "patient",
          "type": "address"
        },
        {
          "indexed": true,
          "internalType": "address",
          "name": "doctor",
          "type": "address"
        },
        {
          "indexed": false,
          "internalType": "string",
          "name": "ipfsHash",
          "type": "string"
        },
        {
          "indexed": false,
          "internalType": "uint256",
          "name": "grantTime",
          "type": "uint256"
        },
        {
          "indexed": false,
          "internalType": "uint256",
          "name": "duration",
          "type": "uint256"
        }
      ],
      "name": "AccessGranted",
      "type": "event"
    },
    {
      "anonymous": false,
      "inputs": [
        {
          "indexed": true,
          "internalType": "address",
          "name": "patient",
          "type": "address"
        },
        {
          "indexed": true,
          "internalType": "address",
          "name": "doctor",
          "type": "address"
        },
        {
          "indexed": false,
          "internalType": "string",
          "name": "ipfsHash",
          "type": "string"
        },
        {
          "indexed": false,
          "internalType": "string",
          "name": "fileName",
          "type": "string"
        },
        {
          "indexed": false,
          "internalType": "uint256",
          "name": "duration",
          "type": "uint256"
        }
      ],
      "name": "AccessRequested",
      "type": "event"
    },
    {
      "anonymous": false,
      "inputs": [
        {
          "indexed": true,
          "internalType": "address",
          "name": "patient",
          "type": "address"
        },
        {
          "indexed": true,
          "internalType": "address",
          "name": "doctor",
          "type": "address"
        },
        {
          "indexed": false,
          "internalType": "string",
          "name": "ipfsHash",
          "type": "string"
        },
        {
          "indexed": false,
          "internalType": "uint256",
          "name": "revokeTime",
          "type": "uint256"
        }
      ],
      "name": "AccessRevoked",
      "type": "event"
    },
    {
      "anonymous": false,
      "inputs": [
        {
          "indexed": true,
          "internalType": "uint256",
          "name": "doctorId",
          "type": "uint256"
        },
        {
          "indexed": true,
          "internalType": "uint256",
          "name": "patientId",
          "type": "uint256"
        },
        {
          "indexed": true,
          "internalType": "address",
          "name": "doctor",
          "type": "address"
        }
      ],
      "name": "PatientAdded",
      "type": "event"
    },
    {
      "inputs": [
        {
          "internalType": "uint256",
          "name": "",
          "type": "uint256"
        },
        {
          "internalType": "uint256",
          "name": "",
          "type": "uint256"
        }
      ],
      "name": "doctorAccessList",
      "outputs": [
        {
          "internalType": "address",
          "name": "patient",
          "type": "address"
        },
        {
          "internalType": "string",
          "name": "ipfsHash",
          "type": "string"
        },
        {
          "internalType": "string",
          "name": "fileName",
          "type": "string"
        },
        {
          "internalType": "bool",
          "name": "hasAccess",
          "type": "bool"
        },
        {
          "internalType": "uint256",
          "name": "grantTime",
          "type": "uint256"
        },
        {
          "internalType": "uint256",
          "name": "duration",
          "type": "uint256"
        }
      ],
      "stateMutability": "view",
      "type": "function"
    },
    {
      "inputs": [
        {
          "internalType": "uint256",
          "name": "",
          "type": "uint256"
        }
      ],
      "name": "doctors",
      "outputs": [
        {
          "internalType": "uint256",
          "name": "doctorId",
          "type": "uint256"
        },
        {
          "internalType": "string",
          "name": "name",
          "type": "string"
        },
        {
          "internalType": "string",
          "name": "specialization",
          "type": "string"
        },
        {
          "internalType": "string",
          "name": "email",
          "type": "string"
        }
      ],
      "stateMutability": "view",
      "type": "function"
    },
    {
      "inputs": [
        {
          "internalType": "address",
          "name": "",
          "type": "address"
        }
      ],
      "name": "walletToDoctorId",
      "outputs": [
        {
          "internalType": "uint256",
          "name": "",
          "type": "uint256"
        }
      ],
      "stateMutability": "view",
      "type": "function"
    },
    {
      "inputs": [
        {
          "internalType": "string",
          "name": "_name",
          "type": "string"
        },
        {
          "internalType": "string",
          "name": "_specialization",
          "type": "string"
        },
        {
          "internalType": "string",
          "name": "_hospital",
          "type": "string"
        }
      ],
      "name": "registerDoctor",
      "outputs": [],
      "stateMutability": "nonpayable",
      "type": "function"
    },
    {
      "inputs": [
        {
          "internalType": "uint256",
          "name": "_patientId",
          "type": "uint256"
        }
      ],
      "name": "addPatient",
      "outputs": [],
      "stateMutability": "nonpayable",
      "type": "function"
    },
    {
      "inputs": [],
      "name": "getDoctorPatients",
      "outputs": [
        {
          "internalType": "uint256[]",
          "name": "",
          "type": "uint256[]"
        }
      ],
      "stateMutability": "view",
      "type": "function"
    },
    {
      "inputs": [
        {
          "internalType": "address",
          "name": "_patient",
          "type": "address"
        },
        {
          "internalType": "string",
          "name": "_ipfsHash",
          "type": "string"
        }
      ],
      "name": "hasAccessToDocument",
      "outputs": [
        {
          "internalType": "bool",
          "name": "",
          "type": "bool"
        }
      ],
      "stateMutability": "view",
      "type": "function"
    },
    {
      "inputs": [
        {
          "internalType": "address",
          "name": "_patient",
          "type": "address"
        },
        {
          "internalType": "string",
          "name": "_ipfsHash",
          "type": "string"
        },
        {
          "internalType": "string",
          "name": "_fileName",
          "type": "string"
        },
        {
          "internalType": "uint256",
          "name": "_duration",
          "type": "uint256"
        }
      ],
      "name": "requestAccess",
      "outputs": [],
      "stateMutability": "nonpayable",
      "type": "function"
    },
    {
      "inputs": [
        {
          "internalType": "address",
          "name": "_doctor",
          "type": "address"
        },
        {
          "internalType": "string",
          "name": "_ipfsHash",
          "type": "string"
        },
        {
          "internalType": "uint256",
          "name": "_duration",
          "type": "uint256"
        }
      ],
      "name": "grantAccess",
      "outputs": [],
      "stateMutability": "nonpayable",
      "type": "function"
    },
    {
      "inputs": [
        {
          "internalType": "address",
          "name": "_doctor",
          "type": "address"
        },
        {
          "internalType": "string",
          "name": "_ipfsHash",
          "type": "string"
        }
      ],
      "name": "revokeAccess",
      "outputs": [],
      "stateMutability": "nonpayable",
      "type": "function"
    },
    {
      "inputs": [],
      "name": "getAccessList",
      "outputs": [
        {
          "components": [
            {
              "internalType": "address",
              "name": "patient",
              "type": "address"
            },
            {
              "internalType": "string",
              "name": "ipfsHash",
              "type": "string"
            },
            {
              "internalType": "string",
              "name": "fileName",
              "type": "string"
            },
            {
              "internalType": "bool",
              "name": "hasAccess",
              "type": "bool"
            },
            {
              "internalType": "uint256",
              "name": "grantTime",
              "type": "uint256"
            },
            {
              "internalType": "uint256",
              "name": "duration",
              "type": "uint256"
            }
          ],
          "internalType": "struct Doctor.DocumentAccess[]",
          "name": "",
          "type": "tuple[]"
        }
      ],
      "stateMutability": "view",
      "type": "function"
    },
    {
      "inputs": [],
      "name": "getPatients",
      "outputs": [
        {
          "components": [
            {
              "internalType": "uint256",
              "name": "doctorId",
              "type": "uint256"
            },
            {
              "internalType": "string",
              "name": "name",
              "type": "string"
            },
            {
              "internalType": "string",
              "name": "specialization",
              "type": "string"
            },
            {
              "internalType": "string",
              "name": "email",
              "type": "string"
            },
            {
              "internalType": "uint256[]",
              "name": "patientIds",
              "type": "uint256[]"
            }
          ],
          "internalType": "struct Doctor.DoctorDetails[]",
          "name": "",
          "type": "tuple[]"
        }
      ],
      "stateMutability": "view",
      "type": "function"
    },
    {
      "inputs": [
        {
          "internalType": "address",
          "name": "walletAddress",
          "type": "address"
        }
      ],
      "name": "doctorExists",
      "outputs": [
        {
          "internalType": "bool",
          "name": "",
          "type": "bool"
        }
      ],
      "stateMutability": "view",
      "type": "function"
    },
    {
      "inputs": [],
      "name": "getAllDoctors",
      "outputs": [
        {
          "components": [
            {
              "internalType": "uint256",
              "name": "doctorId",
              "type": "uint256"
            },
            {
              "internalType": "string",
              "name": "name",
              "type": "string"
            },
            {
              "internalType": "string",
              "name": "specialization",
              "type": "string"
            },
            {
              "internalType": "string",
              "name": "email",
              "type": "string"
            },
            {
              "internalType": "uint256[]",
              "name": "patientIds",
              "type": "uint256[]"
            }
          ],
          "internalType": "struct Doctor.DoctorDetails[]",
          "name": "",
          "type": "tuple[]"
        }
      ],
      "stateMutability": "view",
      "type": "function"
    }
  ],
  "bytecode": "0x608060405234801561001057600080fd5b5061346a806100206000396000f3fe608060405234801561001057600080fd5b50600436106100ea5760003560e01c80636efb1b841161008c5780638d5ddbb3116100665780638d5ddbb31461024f57806398cf72b31461026d578063f0d950901461029d578063f6827cd1146102bb576100ea565b80636efb1b84146101e25780637f93a961146102155780638b145ec814610231576100ea565b806333948de2116100c857806333948de214610159578063506e08d21461018e57806350c7a912146101aa5780636a44cac9146101c6576100ea565b80630ca9e2a3146100ef57806312ad1c371461010b5780632ad230a914610129575b600080fd5b610109600480360381019061010491906123c4565b6102eb565b005b61011361050d565b60405161012091906126ed565b60405180910390f35b610143600480360381019061013e919061270f565b610ab6565b6040516101509190612757565b60405180910390f35b610173600480360381019061016e9190612772565b610b01565b6040516101859695949392919061281a565b60405180910390f35b6101a860048036038101906101a39190612889565b610c97565b005b6101c460048036038101906101bf91906128b6565b610e60565b005b6101e060048036038101906101db919061295d565b610f9e565b005b6101fc60048036038101906101f79190612889565b61123b565b60405161020c94939291906129b9565b60405180910390f35b61022f600480360381019061022a9190612a13565b611403565b005b6102396116f5565b6040516102469190612af1565b60405180910390f35b6102576117e8565b6040516102649190612c83565b60405180910390f35b6102876004803603810190610282919061270f565b611a88565b6040516102949190612ca5565b60405180910390f35b6102a5611aa0565b6040516102b291906126ed565b60405180910390f35b6102d560048036038101906102d0919061295d565b611d88565b6040516102e29190612757565b60405180910390f35b60008060003373ffffffffffffffffffffffffffffffffffffffff1673ffffffffffffffffffffffffffffffffffffffff16815260200190815260200160002054905060008103610371576040517f08c379a000000000000000000000000000000000000000000000000000000000815260040161036890612d0c565b60405180910390fd5b600260008281526020019081526020016000206040518060c001604052808773ffffffffffffffffffffffffffffffffffffffff1681526020018681526020018581526020016000151581526020016000815260200184815250908060018154018082558091505060019003906000526020600020906006020160009091909190915060008201518160000160006101000a81548173ffffffffffffffffffffffffffffffffffffffff021916908373ffffffffffffffffffffffffffffffffffffffff16021790555060208201518160010190816104509190612f38565b5060408201518160020190816104669190612f38565b5060608201518160030160006101000a81548160ff0219169083151502179055506080820151816004015560a0820151816005015550503373ffffffffffffffffffffffffffffffffffffffff168573ffffffffffffffffffffffffffffffffffffffff167ff40d19df78758c064b87c49d3df20be2607b374ad85efdb27a381b829498f3198686866040516104fe9392919061300a565b60405180910390a35050505050565b606060008060003373ffffffffffffffffffffffffffffffffffffffff1673ffffffffffffffffffffffffffffffffffffffff16815260200190815260200160002054905060008103610595576040517f08c379a000000000000000000000000000000000000000000000000000000000815260040161058c90612d0c565b60405180910390fd5b600060026000838152602001908152602001600020805480602002602001604051908101604052809291908181526020016000905b828210156107a557838290600052602060002090600602016040518060c00160405290816000820160009054906101000a900473ffffffffffffffffffffffffffffffffffffffff1673ffffffffffffffffffffffffffffffffffffffff1673ffffffffffffffffffffffffffffffffffffffff16815260200160018201805461065390612d5b565b80601f016020809104026020016040519081016040528092919081815260200182805461067f90612d5b565b80156106cc5780601f106106a1576101008083540402835291602001916106cc565b820191906000526020600020905b8154815290600101906020018083116106af57829003601f168201915b505050505081526020016002820180546106e590612d5b565b80601f016020809104026020016040519081016040528092919081815260200182805461071190612d5b565b801561075e5780601f106107335761010080835404028352916020019161075e565b820191906000526020600020905b81548152906001019060200180831161074157829003601f168201915b505050505081526020016003820160009054906101000a900460ff1615151515815260200160048201548152602001600582015481525050815260200190600101906105ca565b5050505090506000815167ffffffffffffffff8111156107c8576107c7612263565b5b60405190808252806020026020018201604052801561080157816020015b6107ee6121a7565b8152602001906001900390816107e65790505b5090506000805b8351811015610aab578381815181106108245761082361304f565b5b60200260200101516060015115610a9857600160008681526020019081526020016000206040518060a00160405290816000820154815260200160018201805461086d90612d5b565b80601f016020809104026020016040519081016040528092919081815260200182805461089990612d5b565b80156108e65780601f106108bb576101008083540402835291602001916108e6565b820191906000526020600020905b8154815290600101906020018083116108c957829003601f168201915b505050505081526020016002820180546108ff90612d5b565b80601f016020809104026020016040519081016040528092919081815260200182805461092b90612d5b565b80156109785780601f1061094d57610100808354040283529160200191610978565b820191906000526020600020905b81548152906001019060200180831161095b57829003601f168201915b5050505050815260200160038201805461099190612d5b565b80601f01602080910402602001604051908101604052809291908181526020018280546109bd90612d5b565b8015610a0a5780601f106109df57610100808354040283529160200191610a0a565b820191906000526020600020905b8154815290600101906020018083116109ed57829003601f168201915b5050505050815260200160048201805480602002602001604051908101604052809291908181526020018280548015610a6257602002820191906000526020600020905b815481526020019060010190808311610a4e575b505050505081525050838381518110610a7e57610a7d61304f565b5b60200260200101819052508180610a94906130ad565b9250505b8080610aa3906130ad565b915050610808565b508194505050505090565b6000806000808473ffffffffffffffffffffffffffffffffffffffff1673ffffffffffffffffffffffffffffffffffffffff1681526020019081526020016000205414159050919050565b60026020528160005260406000208181548110610b1d57600080fd5b9060005260206000209060060201600091509150508060000160009054906101000a900473ffffffffffffffffffffffffffffffffffffffff1690806001018054610b6790612d5b565b80601f0160208091040260200160405190810160405280929190818152602001828054610b9390612d5b565b8015610be05780601f10610bb557610100808354040283529160200191610be0565b820191906000526020600020905b815481529060010190602001808311610bc357829003601f168201915b505050505090806002018054610bf590612d5b565b80601f0160208091040260200160405190810160405280929190818152602001828054610c2190612d5b565b8015610c6e5780601f10610c4357610100808354040283529160200191610c6e565b820191906000526020600020905b815481529060010190602001808311610c5157829003601f168201915b5050505050908060030160009054906101000a900460ff16908060040154908060050154905086565b60008060003373ffffffffffffffffffffffffffffffffffffffff1673ffffffffffffffffffffffffffffffffffffffff16815260200190815260200160002054905060008103610d1d576040517f08c379a0000000000000000000000000000000000000000000000000000000008152600401610d1490612d0c565b60405180910390fd5b6000805b6001600084815260200190815260200160002060040180549050811015610d975783600160008581526020019081526020016000206004018281548110610d6b57610d6a61304f565b5b906000526020600020015403610d845760019150610d97565b8080610d8f906130ad565b915050610d21565b508015610dd9576040517f08c379a0000000000000000000000000000000000000000000000000000000008152600401610dd090613141565b60405180910390fd5b600160008381526020019081526020016000206004018390806001815401808255809150506001900390600052602060002001600090919091909150553373ffffffffffffffffffffffffffffffffffffffff1683837f62e4da5e5c3a89b6dca6a385b8712c06f51bf0855ae5b6abd14937474a4ce01e60405160405180910390a4505050565b60008060003373ffffffffffffffffffffffffffffffffffffffff1673ffffffffffffffffffffffffffffffffffffffff1681526020019081526020016000205414610ee1576040517f08c379a0000000000000000000000000000000000000000000000000000000008152600401610ed8906131ad565b60405180910390fd5b60036000815480929190610ef4906130ad565b91905055506003546000803373ffffffffffffffffffffffffffffffffffffffff1673ffffffffffffffffffffffffffffffffffffffff1681526020019081526020016000208190555060006001600060035481526020019081526020016000209050600354816000018190555083816001019081610f739190612f38565b5082816002019081610f859190612f38565b5081816003019081610f979190612f38565b5050505050565b60008060008473ffffffffffffffffffffffffffffffffffffffff1673ffffffffffffffffffffffffffffffffffffffff16815260200190815260200160002054905060008103611024576040517f08c379a000000000000000000000000000000000000000000000000000000000815260040161101b90612d0c565b60405180910390fd5b600060026000838152602001908152602001600020905060005b81805490508110156111fb573373ffffffffffffffffffffffffffffffffffffffff168282815481106110745761107361304f565b5b906000526020600020906006020160000160009054906101000a900473ffffffffffffffffffffffffffffffffffffffff1673ffffffffffffffffffffffffffffffffffffffff161480156111375750836040516020016110d59190613209565b604051602081830303815290604052805190602001208282815481106110fe576110fd61304f565b5b906000526020600020906006020160010160405160200161111f91906132a3565b60405160208183030381529060405280519060200120145b156111e85760008282815481106111515761115061304f565b5b906000526020600020906006020160030160006101000a81548160ff0219169083151502179055508473ffffffffffffffffffffffffffffffffffffffff163373ffffffffffffffffffffffffffffffffffffffff167f1852eeec29c8b9e06624d3e3008123c26ddd6173947b6bea9054402ea8ca57ad86426040516111d89291906132ba565b60405180910390a3505050611237565b80806111f3906130ad565b91505061103e565b506040517f08c379a000000000000000000000000000000000000000000000000000000000815260040161122e90613336565b60405180910390fd5b5050565b600160205280600052604060002060009150905080600001549080600101805461126490612d5b565b80601f016020809104026020016040519081016040528092919081815260200182805461129090612d5b565b80156112dd5780601f106112b2576101008083540402835291602001916112dd565b820191906000526020600020905b8154815290600101906020018083116112c057829003601f168201915b5050505050908060020180546112f290612d5b565b80601f016020809104026020016040519081016040528092919081815260200182805461131e90612d5b565b801561136b5780601f106113405761010080835404028352916020019161136b565b820191906000526020600020905b81548152906001019060200180831161134e57829003601f168201915b50505050509080600301805461138090612d5b565b80601f01602080910402602001604051908101604052809291908181526020018280546113ac90612d5b565b80156113f95780601f106113ce576101008083540402835291602001916113f9565b820191906000526020600020905b8154815290600101906020018083116113dc57829003601f168201915b5050505050905084565b60008060008573ffffffffffffffffffffffffffffffffffffffff1673ffffffffffffffffffffffffffffffffffffffff16815260200190815260200160002054905060008103611489576040517f08c379a000000000000000000000000000000000000000000000000000000000815260040161148090612d0c565b60405180910390fd5b600060026000838152602001908152602001600020905060005b81805490508110156116b4573373ffffffffffffffffffffffffffffffffffffffff168282815481106114d9576114d861304f565b5b906000526020600020906006020160000160009054906101000a900473ffffffffffffffffffffffffffffffffffffffff1673ffffffffffffffffffffffffffffffffffffffff1614801561159c57508460405160200161153a9190613209565b604051602081830303815290604052805190602001208282815481106115635761156261304f565b5b906000526020600020906006020160010160405160200161158491906132a3565b60405160208183030381529060405280519060200120145b156116a15760018282815481106115b6576115b561304f565b5b906000526020600020906006020160030160006101000a81548160ff021916908315150217905550428282815481106115f2576115f161304f565b5b9060005260206000209060060201600401819055508382828154811061161b5761161a61304f565b5b9060005260206000209060060201600501819055508573ffffffffffffffffffffffffffffffffffffffff163373ffffffffffffffffffffffffffffffffffffffff167fc298d419e944a3f1e7da1b2245c9f34649b9a6ea67875bcd37e975ef5d7209a387428860405161169193929190613356565b60405180910390a35050506116f0565b80806116ac906130ad565b9150506114a3565b506040517f08c379a00000000000000000000000000000000000000000000000000000000081526004016116e7906133e0565b60405180910390fd5b505050565b606060008060003373ffffffffffffffffffffffffffffffffffffffff1673ffffffffffffffffffffffffffffffffffffffff1681526020019081526020016000205490506000810361177d576040517f08c379a000000000000000000000000000000000000000000000000000000000815260040161177490612d0c565b60405180910390fd5b600160008281526020019081526020016000206004018054806020026020016040519081016040528092919081815260200182805480156117dd57602002820191906000526020600020905b8154815260200190600101908083116117c9575b505050505091505090565b606060008060003373ffffffffffffffffffffffffffffffffffffffff1673ffffffffffffffffffffffffffffffffffffffff16815260200190815260200160002054905060008103611870576040517f08c379a000000000000000000000000000000000000000000000000000000000815260040161186790612d0c565b60405180910390fd5b60026000828152602001908152602001600020805480602002602001604051908101604052809291908181526020016000905b82821015611a7e57838290600052602060002090600602016040518060c00160405290816000820160009054906101000a900473ffffffffffffffffffffffffffffffffffffffff1673ffffffffffffffffffffffffffffffffffffffff1673ffffffffffffffffffffffffffffffffffffffff16815260200160018201805461192c90612d5b565b80601f016020809104026020016040519081016040528092919081815260200182805461195890612d5b565b80156119a55780601f1061197a576101008083540402835291602001916119a5565b820191906000526020600020905b81548152906001019060200180831161198857829003601f168201915b505050505081526020016002820180546119be90612d5b565b80601f01602080910402602001604051908101604052809291908181526020018280546119ea90612d5b565b8015611a375780601f10611a0c57610100808354040283529160200191611a37565b820191906000526020600020905b815481529060010190602001808311611a1a57829003601f168201915b505050505081526020016003820160009054906101000a900460ff1615151515815260200160048201548152602001600582015481525050815260200190600101906118a3565b5050505091505090565b60006020528060005260406000206000915090505481565b60606000600354905060008167ffffffffffffffff811115611ac557611ac4612263565b5b604051908082528060200260200182016040528015611afe57816020015b611aeb6121a7565b815260200190600190039081611ae35790505b50905060005b82811015611d7f5760016000600183611b1d9190613400565b81526020019081526020016000206040518060a001604052908160008201548152602001600182018054611b5090612d5b565b80601f0160208091040260200160405190810160405280929190818152602001828054611b7c90612d5b565b8015611bc95780601f10611b9e57610100808354040283529160200191611bc9565b820191906000526020600020905b815481529060010190602001808311611bac57829003601f168201915b50505050508152602001600282018054611be290612d5b565b80601f0160208091040260200160405190810160405280929190818152602001828054611c0e90612d5b565b8015611c5b5780601f10611c3057610100808354040283529160200191611c5b565b820191906000526020600020905b815481529060010190602001808311611c3e57829003601f168201915b50505050508152602001600382018054611c7490612d5b565b80601f0160208091040260200160405190810160405280929190818152602001828054611ca090612d5b565b8015611ced5780601f10611cc257610100808354040283529160200191611ced565b820191906000526020600020905b815481529060010190602001808311611cd057829003601f168201915b5050505050815260200160048201805480602002602001604051908101604052809291908181526020018280548015611d4557602002820191906000526020600020905b815481526020019060010190808311611d31575b505050505081525050828281518110611d6157611d6061304f565b5b60200260200101819052508080611d77906130ad565b915050611b04565b50809250505090565b6000806000803373ffffffffffffffffffffffffffffffffffffffff1673ffffffffffffffffffffffffffffffffffffffff16815260200190815260200160002054905060008103611e0f576040517f08c379a0000000000000000000000000000000000000000000000000000000008152600401611e0690612d0c565b60405180910390fd5b600060026000838152602001908152602001600020805480602002602001604051908101604052809291908181526020016000905b8282101561201f57838290600052602060002090600602016040518060c00160405290816000820160009054906101000a900473ffffffffffffffffffffffffffffffffffffffff1673ffffffffffffffffffffffffffffffffffffffff1673ffffffffffffffffffffffffffffffffffffffff168152602001600182018054611ecd90612d5b565b80601f0160208091040260200160405190810160405280929190818152602001828054611ef990612d5b565b8015611f465780601f10611f1b57610100808354040283529160200191611f46565b820191906000526020600020905b815481529060010190602001808311611f2957829003601f168201915b50505050508152602001600282018054611f5f90612d5b565b80601f0160208091040260200160405190810160405280929190818152602001828054611f8b90612d5b565b8015611fd85780601f10611fad57610100808354040283529160200191611fd8565b820191906000526020600020905b815481529060010190602001808311611fbb57829003601f168201915b505050505081526020016003820160009054906101000a900460ff161515151581526020016004820154815260200160058201548152505081526020019060010190611e44565b50505050905060005b8151811015612199578573ffffffffffffffffffffffffffffffffffffffff1682828151811061205b5761205a61304f565b5b60200260200101516000015173ffffffffffffffffffffffffffffffffffffffff161480156120f35750846040516020016120969190613209565b604051602081830303815290604052805190602001208282815181106120bf576120be61304f565b5b6020026020010151602001516040516020016120db9190613209565b60405160208183030381529060405280519060200120145b801561211a575081818151811061210d5761210c61304f565b5b6020026020010151606001515b15612186578181815181106121325761213161304f565b5b602002602001015160a001518282815181106121515761215061304f565b5b6020026020010151608001516121679190613400565b42111561217a57600093505050506121a1565b600193505050506121a1565b8080612191906130ad565b915050612028565b506000925050505b92915050565b6040518060a0016040528060008152602001606081526020016060815260200160608152602001606081525090565b6000604051905090565b600080fd5b600080fd5b600073ffffffffffffffffffffffffffffffffffffffff82169050919050565b6000612215826121ea565b9050919050565b6122258161220a565b811461223057600080fd5b50565b6000813590506122428161221c565b92915050565b600080fd5b600080fd5b6000601f19601f8301169050919050565b7f4e487b7100000000000000000000000000000000000000000000000000000000600052604160045260246000fd5b61229b82612252565b810181811067ffffffffffffffff821117156122ba576122b9612263565b5b80604052505050565b60006122cd6121d6565b90506122d98282612292565b919050565b600067ffffffffffffffff8211156122f9576122f8612263565b5b61230282612252565b9050602081019050919050565b82818337600083830152505050565b600061233161232c846122de565b6122c3565b90508281526020810184848401111561234d5761234c61224d565b5b61235884828561230f565b509392505050565b600082601f83011261237557612374612248565b5b813561238584826020860161231e565b91505092915050565b6000819050919050565b6123a18161238e565b81146123ac57600080fd5b50565b6000813590506123be81612398565b92915050565b600080600080608085870312156123de576123dd6121e0565b5b60006123ec87828801612233565b945050602085013567ffffffffffffffff81111561240d5761240c6121e5565b5b61241987828801612360565b935050604085013567ffffffffffffffff81111561243a576124396121e5565b5b61244687828801612360565b9250506060612457878288016123af565b91505092959194509250565b600081519050919050565b600082825260208201905092915050565b6000819050602082019050919050565b6124988161238e565b82525050565b600081519050919050565b600082825260208201905092915050565b60005b838110156124d85780820151818401526020810190506124bd565b60008484015250505050565b60006124ef8261249e565b6124f981856124a9565b93506125098185602086016124ba565b61251281612252565b840191505092915050565b600081519050919050565b600082825260208201905092915050565b6000819050602082019050919050565b6000612555838361248f565b60208301905092915050565b6000602082019050919050565b60006125798261251d565b6125838185612528565b935061258e83612539565b8060005b838110156125bf5781516125a68882612549565b97506125b183612561565b925050600181019050612592565b5085935050505092915050565b600060a0830160008301516125e4600086018261248f565b50602083015184820360208601526125fc82826124e4565b9150506040830151848203604086015261261682826124e4565b9150506060830151848203606086015261263082826124e4565b9150506080830151848203608086015261264a828261256e565b9150508091505092915050565b600061266383836125cc565b905092915050565b6000602082019050919050565b600061268382612463565b61268d818561246e565b93508360208202850161269f8561247f565b8060005b858110156126db57848403895281516126bc8582612657565b94506126c78361266b565b925060208a019950506001810190506126a3565b50829750879550505050505092915050565b600060208201905081810360008301526127078184612678565b905092915050565b600060208284031215612725576127246121e0565b5b600061273384828501612233565b91505092915050565b60008115159050919050565b6127518161273c565b82525050565b600060208201905061276c6000830184612748565b92915050565b60008060408385031215612789576127886121e0565b5b6000612797858286016123af565b92505060206127a8858286016123af565b9150509250929050565b6127bb8161220a565b82525050565b600082825260208201905092915050565b60006127dd8261249e565b6127e781856127c1565b93506127f78185602086016124ba565b61280081612252565b840191505092915050565b6128148161238e565b82525050565b600060c08201905061282f60008301896127b2565b818103602083015261284181886127d2565b9050818103604083015261285581876127d2565b90506128646060830186612748565b612871608083018561280b565b61287e60a083018461280b565b979650505050505050565b60006020828403121561289f5761289e6121e0565b5b60006128ad848285016123af565b91505092915050565b6000806000606084860312156128cf576128ce6121e0565b5b600084013567ffffffffffffffff8111156128ed576128ec6121e5565b5b6128f986828701612360565b935050602084013567ffffffffffffffff81111561291a576129196121e5565b5b61292686828701612360565b925050604084013567ffffffffffffffff811115612947576129466121e5565b5b61295386828701612360565b9150509250925092565b60008060408385031215612974576129736121e0565b5b600061298285828601612233565b925050602083013567ffffffffffffffff8111156129a3576129a26121e5565b5b6129af85828601612360565b9150509250929050565b60006080820190506129ce600083018761280b565b81810360208301526129e081866127d2565b905081810360408301526129f481856127d2565b90508181036060830152612a0881846127d2565b905095945050505050565b600080600060608486031215612a2c57612a2b6121e0565b5b6000612a3a86828701612233565b935050602084013567ffffffffffffffff811115612a5b57612a5a6121e5565b5b612a6786828701612360565b9250506040612a78868287016123af565b9150509250925092565b600082825260208201905092915050565b6000612a9e8261251d565b612aa88185612a82565b9350612ab383612539565b8060005b83811015612ae4578151612acb8882612549565b9750612ad683612561565b925050600181019050612ab7565b5085935050505092915050565b60006020820190508181036000830152612b0b8184612a93565b905092915050565b600081519050919050565b600082825260208201905092915050565b6000819050602082019050919050565b612b488161220a565b82525050565b612b578161273c565b82525050565b600060c083016000830151612b756000860182612b3f565b5060208301518482036020860152612b8d82826124e4565b91505060408301518482036040860152612ba782826124e4565b9150506060830151612bbc6060860182612b4e565b506080830151612bcf608086018261248f565b5060a0830151612be260a086018261248f565b508091505092915050565b6000612bf98383612b5d565b905092915050565b6000602082019050919050565b6000612c1982612b13565b612c238185612b1e565b935083602082028501612c3585612b2f565b8060005b85811015612c715784840389528151612c528582612bed565b9450612c5d83612c01565b925060208a01995050600181019050612c39565b50829750879550505050505092915050565b60006020820190508181036000830152612c9d8184612c0e565b905092915050565b6000602082019050612cba600083018461280b565b92915050565b7f446f63746f72206e6f7420726567697374657265640000000000000000000000600082015250565b6000612cf66015836127c1565b9150612d0182612cc0565b602082019050919050565b60006020820190508181036000830152612d2581612ce9565b9050919050565b7f4e487b7100000000000000000000000000000000000000000000000000000000600052602260045260246000fd5b60006002820490506001821680612d7357607f821691505b602082108103612d8657612d85612d2c565b5b50919050565b60008190508160005260206000209050919050565b60006020601f8301049050919050565b600082821b905092915050565b600060088302612dee7fffffffffffffffffffffffffffffffffffffffffffffffffffffffffffffffff82612db1565b612df88683612db1565b95508019841693508086168417925050509392505050565b6000819050919050565b6000612e35612e30612e2b8461238e565b612e10565b61238e565b9050919050565b6000819050919050565b612e4f83612e1a565b612e63612e5b82612e3c565b848454612dbe565b825550505050565b600090565b612e78612e6b565b612e83818484612e46565b505050565b5b81811015612ea757612e9c600082612e70565b600181019050612e89565b5050565b601f821115612eec57612ebd81612d8c565b612ec684612da1565b81016020851015612ed5578190505b612ee9612ee185612da1565b830182612e88565b50505b505050565b600082821c905092915050565b6000612f0f60001984600802612ef1565b1980831691505092915050565b6000612f288383612efe565b9150826002028217905092915050565b612f418261249e565b67ffffffffffffffff811115612f5a57612f59612263565b5b612f648254612d5b565b612f6f828285612eab565b600060209050601f831160018114612fa25760008415612f90578287015190505b612f9a8582612f1c565b865550613002565b601f198416612fb086612d8c565b60005b82811015612fd857848901518255600182019150602085019450602081019050612fb3565b86831015612ff55784890151612ff1601f891682612efe565b8355505b6001600288020188555050505b505050505050565b6000606082019050818103600083015261302481866127d2565b9050818103602083015261303881856127d2565b9050613047604083018461280b565b949350505050565b7f4e487b7100000000000000000000000000000000000000000000000000000000600052603260045260246000fd5b7f4e487b7100000000000000000000000000000000000000000000000000000000600052601160045260246000fd5b60006130b88261238e565b91507fffffffffffffffffffffffffffffffffffffffffffffffffffffffffffffffff82036130ea576130e961307e565b5b600182019050919050565b7f50617469656e7420616c72656164792061646465640000000000000000000000600082015250565b600061312b6015836127c1565b9150613136826130f5565b602082019050919050565b6000602082019050818103600083015261315a8161311e565b9050919050565b7f446f63746f7220616c7265616479207265676973746572656400000000000000600082015250565b60006131976019836127c1565b91506131a282613161565b602082019050919050565b600060208201905081810360008301526131c68161318a565b9050919050565b600081905092915050565b60006131e38261249e565b6131ed81856131cd565b93506131fd8185602086016124ba565b80840191505092915050565b600061321582846131d8565b915081905092915050565b6000815461322d81612d5b565b61323781866131cd565b9450600182166000811461325257600181146132675761329a565b60ff198316865281151582028601935061329a565b61327085612d8c565b60005b8381101561329257815481890152600182019150602081019050613273565b838801955050505b50505092915050565b60006132af8284613220565b915081905092915050565b600060408201905081810360008301526132d481856127d2565b90506132e3602083018461280b565b9392505050565b7f416363657373207265636f7264206e6f7420666f756e64000000000000000000600082015250565b60006133206017836127c1565b915061332b826132ea565b602082019050919050565b6000602082019050818103600083015261334f81613313565b9050919050565b6000606082019050818103600083015261337081866127d2565b905061337f602083018561280b565b61338c604083018461280b565b949350505050565b7f4163636573732072657175657374206e6f7420666f756e640000000000000000600082015250565b60006133ca6018836127c1565b91506133d582613394565b602082019050919050565b600060208201905081810360008301526133f9816133bd565b9050919050565b600061340b8261238e565b91506134168361238e565b925082820190508082111561342e5761342d61307e565b5b9291505056fea2646970667358221220285e274c49738e4e98bdbccc3552cf1229fb41c37440dd025d2cf6fa2565bd8c64736f6c63430008130033",
  "immutableReferences": {},
  "source": "// SPDX-License-Identifier: MIT\r\npragma solidity ^0.8.19;\r\n\r\ncontract Doctor {\r\n    struct DoctorDetails {\r\n        uint256 doctorId;\r\n        string name;\r\n        string specialization;\r\n        string email;\r\n        uint256[] patientIds; // NEW: List of patients linked to this doctor\r\n    }\r\n\r\n    struct DocumentAccess {\r\n        address patient;\r\n        string ipfsHash;\r\n        string fileName;\r\n        bool hasAccess;\r\n        uint256 grantTime;\r\n        uint256 duration;\r\n    }\r\n\r\n    mapping(address => uint256) public walletToDoctorId;\r\n    mapping(uint256 => DoctorDetails) public doctors;\r\n    mapping(uint256 => DocumentAccess[]) public doctorAccessList;\r\n\r\n    uint256 private doctorIdCounter;\r\n\r\n    // --- EVENTS ---\r\n    event AccessRequested(\r\n        address indexed patient,\r\n        address indexed doctor,\r\n        string ipfsHash,\r\n        string fileName,\r\n        uint256 duration\r\n    );\r\n    event AccessGranted(\r\n        address indexed patient,\r\n        address indexed doctor,\r\n        string ipfsHash,\r\n        uint256 grantTime,\r\n        uint256 duration\r\n    );\r\n    event AccessRevoked(\r\n        address indexed patient,\r\n        address indexed doctor,\r\n        string ipfsHash,\r\n        uint256 revokeTime\r\n    );\r\n    event PatientAdded(\r\n        uint256 indexed doctorId,\r\n        uint256 indexed patientId,\r\n        address indexed doctor\r\n    );\r\n\r\n    function registerDoctor(\r\n        string memory _name,\r\n        string memory _specialization,\r\n        string memory _hospital\r\n    ) public {\r\n        require(walletToDoctorId[msg.sender] == 0, \"Doctor already registered\");\r\n        doctorIdCounter++;\r\n        walletToDoctorId[msg.sender] = doctorIdCounter;\r\n\r\n        DoctorDetails storage newDoctor = doctors[doctorIdCounter];\r\n        newDoctor.doctorId = doctorIdCounter;\r\n        newDoctor.name = _name;\r\n        newDoctor.specialization = _specialization;\r\n        newDoctor.email = _hospital;\r\n    }\r\n\r\n    function addPatient(uint256 _patientId) public {\r\n        uint256 doctorId = walletToDoctorId[msg.sender];\r\n        require(doctorId != 0, \"Doctor not registered\");\r\n\r\n        bool exists = false;\r\n        for (uint i = 0; i < doctors[doctorId].patientIds.length; i++) {\r\n            if (doctors[doctorId].patientIds[i] == _patientId) {\r\n                exists = true;\r\n                break;\r\n            }\r\n        }\r\n        require(!exists, \"Patient already added\");\r\n\r\n        doctors[doctorId].patientIds.push(_patientId);\r\n        emit PatientAdded(doctorId, _patientId, msg.sender);\r\n    }\r\n\r\n    function getDoctorPatients() public view returns (uint256[] memory) {\r\n        uint256 doctorId = walletToDoctorId[msg.sender];\r\n        require(doctorId != 0, \"Doctor not registered\");\r\n        return doctors[doctorId].patientIds;\r\n    }\r\n\r\n    function hasAccessToDocument(\r\n        address _patient,\r\n        string memory _ipfsHash\r\n    ) public view returns (bool) {\r\n        uint256 doctorId = walletToDoctorId[msg.sender];\r\n        require(doctorId != 0, \"Doctor not registered\");\r\n\r\n        DocumentAccess[] memory accessList = doctorAccessList[doctorId];\r\n        for (uint256 i = 0; i < accessList.length; i++) {\r\n            if (\r\n                accessList[i].patient == _patient &&\r\n                keccak256(abi.encodePacked(accessList[i].ipfsHash)) ==\r\n                keccak256(abi.encodePacked(_ipfsHash)) &&\r\n                accessList[i].hasAccess\r\n            ) {\r\n                // Check for expiration\r\n                if (\r\n                    block.timestamp >\r\n                    accessList[i].grantTime + accessList[i].duration\r\n                ) {\r\n                    return false;\r\n                }\r\n                return true;\r\n            }\r\n        }\r\n        return false;\r\n    }\r\n\r\n    function requestAccess(\r\n        address _patient,\r\n        string memory _ipfsHash,\r\n        string memory _fileName,\r\n        uint256 _duration\r\n    ) public {\r\n        uint256 doctorId = walletToDoctorId[msg.sender];\r\n        require(doctorId != 0, \"Doctor not registered\");\r\n\r\n        doctorAccessList[doctorId].push(\r\n            DocumentAccess({\r\n                patient: _patient,\r\n                ipfsHash: _ipfsHash,\r\n                fileName: _fileName,\r\n                hasAccess: false,\r\n                grantTime: 0,\r\n                duration: _duration\r\n            })\r\n        );\r\n\r\n        emit AccessRequested(\r\n            _patient,\r\n            msg.sender,\r\n            _ipfsHash,\r\n            _fileName,\r\n            _duration\r\n        );\r\n    }\r\n\r\n    function grantAccess(\r\n        address _doctor,\r\n        string memory _ipfsHash,\r\n        uint256 _duration\r\n    ) public {\r\n        uint256 doctorId = walletToDoctorId[_doctor];\r\n        require(doctorId != 0, \"Doctor not registered\");\r\n\r\n        DocumentAccess[] storage accessList = doctorAccessList[doctorId];\r\n        for (uint256 i = 0; i < accessList.length; i++) {\r\n            if (\r\n                accessList[i].patient == msg.sender &&\r\n                keccak256(abi.encodePacked(accessList[i].ipfsHash)) ==\r\n                keccak256(abi.encodePacked(_ipfsHash))\r\n            ) {\r\n                accessList[i].hasAccess = true;\r\n                accessList[i].grantTime = block.timestamp;\r\n                accessList[i].duration = _duration; // Update with confirmed duration\r\n\r\n                emit AccessGranted(\r\n                    msg.sender,\r\n                    _doctor,\r\n                    _ipfsHash,\r\n                    block.timestamp,\r\n                    _duration\r\n                );\r\n                return;\r\n            }\r\n        }\r\n        revert(\"Access request not found\");\r\n    }\r\n\r\n    function revokeAccess(address _doctor, string memory _ipfsHash) public {\r\n        uint256 doctorId = walletToDoctorId[_doctor];\r\n        require(doctorId != 0, \"Doctor not registered\");\r\n\r\n        DocumentAccess[] storage accessList = doctorAccessList[doctorId];\r\n        for (uint256 i = 0; i < accessList.length; i++) {\r\n            if (\r\n                accessList[i].patient == msg.sender &&\r\n                keccak256(abi.encodePacked(accessList[i].ipfsHash)) ==\r\n                keccak256(abi.encodePacked(_ipfsHash))\r\n            ) {\r\n                accessList[i].hasAccess = false;\r\n                emit AccessRevoked(\r\n                    msg.sender,\r\n                    _doctor,\r\n                    _ipfsHash,\r\n                    block.timestamp\r\n                );\r\n                return;\r\n            }\r\n        }\r\n        revert(\"Access record not found\");\r\n    }\r\n\r\n    // --- GETTERS ---\r\n    function getAccessList() public view returns (DocumentAccess[] memory) {\r\n        uint256 doctorId = walletToDoctorId[msg.sender];\r\n        require(doctorId != 0, \"Doctor not registered\");\r\n        return doctorAccessList[doctorId];\r\n    }\r\n\r\n    function getPatients() public view returns (DoctorDetails[] memory) {\r\n        uint256 doctorId = walletToDoctorId[msg.sender];\r\n        require(doctorId != 0, \"Doctor not registered\");\r\n\r\n        DocumentAccess[] memory accessList = doctorAccessList[doctorId];\r\n        DoctorDetails[] memory patients = new DoctorDetails[](\r\n            accessList.length\r\n        );\r\n        uint256 count = 0;\r\n\r\n        for (uint256 i = 0; i < accessList.length; i++) {\r\n            if (accessList[i].hasAccess) {\r\n                patients[count] = doctors[doctorId];\r\n                count++;\r\n            }\r\n        }\r\n\r\n        return patients;\r\n    }\r\n\r\n    function doctorExists(address walletAddress) public view returns (bool) {\r\n        return walletToDoctorId[walletAddress] != 0;\r\n    }\r\n\r\n    function getAllDoctors() public view returns (DoctorDetails[] memory) {\r\n        uint256 total = doctorIdCounter;\r\n        DoctorDetails[] memory list = new DoctorDetails[](total);\r\n\r\n        for (uint256 i = 0; i < total; i++) {\r\n            list[i] = doctors[i + 1];\r\n        }\r\n\r\n        return list;\r\n    }\r\n}\r\n",
  "sourcePath": "J:\\Users\\ayush\\Desktop\\code\\team-rocket-medi-secure\\contracts\\contracts\\Doctor.sol",
  "compiler": {
    "name": "solc",
    "version": "0.8.19+commit.7dd6d404.Emscripten.clang"
  },
  "schemaVersion": "3.4.16",
  "updatedAt": "2026-01-17T14:20:29.914Z",
  "devdoc": {
    "kind": "dev",
    "methods": {},
    "version": 1
  },
  "userdoc": {
    "kind": "user",
    "methods": {},
    "version": 1
  }
}