{
  "contractName": "ERC2771Forwarder",
  "abi": [
    {
      "inputs": [
        {
          "internalType": "string",
          "name": "name",
          "type": "string"
        }
      ],
      "stateMutability": "nonpayable",
      "type": "constructor"
    },
    {
      "inputs": [
        {
          "internalType": "address",
          "name": "account",
          "type": "address"
        }
      ],
      "name": "AddressInsufficientBalance",
      "type": "error"
    },
    {
      "inputs": [
        {
          "internalType": "uint48",
          "name": "deadline",
          "type": "uint48"
        }
      ],
      "name": "ERC2771ForwarderExpiredRequest",
      "type": "error"
    },
    {
      "inputs": [
        {
          "internalType": "address",
          "name": "signer",
          "type": "address"
        },
        {
          "internalType": "address",
          "name": "from",
          "type": "address"
        }
      ],
      "name": "ERC2771ForwarderInvalidSigner",
      "type": "error"
    },
    {
      "inputs": [
        {
          "internalType": "uint256",
          "name": "requestedValue",
          "type": "uint256"
        },
        {
          "internalType": "uint256",
          "name": "msgValue",
          "type": "uint256"
        }
      ],
      "name": "ERC2771ForwarderMismatchedValue",
      "type": "error"
    },
    {
      "inputs": [
        {
          "internalType": "address",
          "name": "target",
          "type": "address"
        },
        {
          "internalType": "address",
          "name": "forwarder",
          "type": "address"
        }
      ],
      "name": "ERC2771UntrustfulTarget",
      "type": "error"
    },
    {
      "inputs": [],
      "name": "FailedInnerCall",
      "type": "error"
    },
    {
      "inputs": [
        {
          "internalType": "address",
          "name": "account",
          "type": "address"
        },
        {
          "internalType": "uint256",
          "name": "currentNonce",
          "type": "uint256"
        }
      ],
      "name": "InvalidAccountNonce",
      "type": "error"
    },
    {
      "inputs": [],
      "name": "InvalidShortString",
      "type": "error"
    },
    {
      "inputs": [
        {
          "internalType": "string",
          "name": "str",
          "type": "string"
        }
      ],
      "name": "StringTooLong",
      "type": "error"
    },
    {
      "anonymous": false,
      "inputs": [],
      "name": "EIP712DomainChanged",
      "type": "event"
    },
    {
      "anonymous": false,
      "inputs": [
        {
          "indexed": true,
          "internalType": "address",
          "name": "signer",
          "type": "address"
        },
        {
          "indexed": false,
          "internalType": "uint256",
          "name": "nonce",
          "type": "uint256"
        },
        {
          "indexed": false,
          "internalType": "bool",
          "name": "success",
          "type": "bool"
        }
      ],
      "name": "ExecutedForwardRequest",
      "type": "event"
    },
    {
      "inputs": [],
      "name": "eip712Domain",
      "outputs": [
        {
          "internalType": "bytes1",
          "name": "fields",
          "type": "bytes1"
        },
        {
          "internalType": "string",
          "name": "name",
          "type": "string"
        },
        {
          "internalType": "string",
          "name": "version",
          "type": "string"
        },
        {
          "internalType": "uint256",
          "name": "chainId",
          "type": "uint256"
        },
        {
          "internalType": "address",
          "name": "verifyingContract",
          "type": "address"
        },
        {
          "internalType": "bytes32",
          "name": "salt",
          "type": "bytes32"
        },
        {
          "internalType": "uint256[]",
          "name": "extensions",
          "type": "uint256[]"
        }
      ],
      "stateMutability": "view",
      "type": "function"
    },
    {
      "inputs": [
        {
          "internalType": "address",
          "name": "owner",
          "type": "address"
        }
      ],
      "name": "nonces",
      "outputs": [
        {
          "internalType": "uint256",
          "name": "",
          "type": "uint256"
        }
      ],
      "stateMutability": "view",
      "type": "function"
    },
    {
      "inputs": [
        {
          "components": [
            {
              "internalType": "address",
              "name": "from",
              "type": "address"
            },
            {
              "internalType": "address",
              "name": "to",
              "type": "address"
            },
            {
              "internalType": "uint256",
              "name": "value",
              "type": "uint256"
            },
            {
              "internalType": "uint256",
              "name": "gas",
              "type": "uint256"
            },
            {
              "internalType": "uint48",
              "name": "deadline",
              "type": "uint48"
            },
            {
              "internalType": "bytes",
              "name": "data",
              "type": "bytes"
            },
            {
              "internalType": "bytes",
              "name": "signature",
              "type": "bytes"
            }
          ],
          "internalType": "struct ERC2771Forwarder.ForwardRequestData",
          "name": "request",
          "type": "tuple"
        }
      ],
      "name": "verify",
      "outputs": [
        {
          "internalType": "bool",
          "name": "",
          "type": "bool"
        }
      ],
      "stateMutability": "view",
      "type": "function"
    },
    {
      "inputs": [
        {
          "components": [
            {
              "internalType": "address",
              "name": "from",
              "type": "address"
            },
            {
              "internalType": "address",
              "name": "to",
              "type": "address"
            },
            {
              "internalType": "uint256",
              "name": "value",
              "type": "uint256"
            },
            {
              "internalType": "uint256",
              "name": "gas",
              "type": "uint256"
            },
            {
              "internalType": "uint48",
              "name": "deadline",
              "type": "uint48"
            },
            {
              "internalType": "bytes",
              "name": "data",
              "type": "bytes"
            },
            {
              "internalType": "bytes",
              "name": "signature",
              "type": "bytes"
            }
          ],
          "internalType": "struct ERC2771Forwarder.ForwardRequestData",
          "name": "request",
          "type": "tuple"
        }
      ],
      "name": "execute",
      "outputs": [],
      "stateMutability": "payable",
      "type": "function"
    },
    {
      "inputs": [
        {
          "components": [
            {
              "internalType": "address",
              "name": "from",
              "type": "address"
            },
            {
              "internalType": "address",
              "name": "to",
              "type": "address"
            },
            {
              "internalType": "uint256",
              "name": "value",
              "type": "uint256"
            },
            {
              "internalType": "uint256",
              "name": "gas",
              "type": "uint256"
            },
            {
              "internalType": "uint48",
              "name": "deadline",
              "type": "uint48"
            },
            {
              "internalType": "bytes",
              "name": "data",
              "type": "bytes"
            },
            {
              "internalType": "bytes",
              "name": "signature",
              "type": "bytes"
            }
          ],
          "internalType": "struct ERC2771Forwarder.ForwardRequestData[]",
          "name": "requests",
          "type": "tuple[]"
        },
        {
          "internalType": "address payable",
          "name": "refundReceiver",
          "type": "address"
        }
      ],
      "name": "executeBatch",
      "outputs": [],
      "stateMutability": "payable",
      "type": "function"
    }
  ],
  "bytecode": "0x61016060405234801562000011575f80fd5b50604051620013a8380380620013a88339810160408190526200003491620001c3565b6040805180820190915260018152603160f81b602082015281906200005a825f62000108565b610120526200006b81600162000108565b61014052815160208084019190912060e052815190820120610100524660a052620000f860e05161010051604080517f8b73c3c69bb8fe3d512ecc4cf759cc79239f7b179b0ffacaa9a75d522b39400f60208201529081019290925260608201524660808201523060a08201525f9060c00160405160208183030381529060405280519060200120905090565b60805250503060c0525062000422565b5f60208351101562000127576200011f8362000140565b90506200013a565b8162000134848262000302565b5060ff90505b92915050565b5f80829050601f8151111562000176578260405163305a27a960e01b81526004016200016d9190620003ca565b60405180910390fd5b80516200018382620003fe565b179392505050565b634e487b7160e01b5f52604160045260245ffd5b5f5b83811015620001bb578181015183820152602001620001a1565b50505f910152565b5f60208284031215620001d4575f80fd5b81516001600160401b0380821115620001eb575f80fd5b818401915084601f830112620001ff575f80fd5b8151818111156200021457620002146200018b565b604051601f8201601f19908116603f011681019083821181831017156200023f576200023f6200018b565b8160405282815287602084870101111562000258575f80fd5b6200026b8360208301602088016200019f565b979650505050505050565b600181811c908216806200028b57607f821691505b602082108103620002aa57634e487b7160e01b5f52602260045260245ffd5b50919050565b601f821115620002fd575f81815260208120601f850160051c81016020861015620002d85750805b601f850160051c820191505b81811015620002f957828155600101620002e4565b5050505b505050565b81516001600160401b038111156200031e576200031e6200018b565b62000336816200032f845462000276565b84620002b0565b602080601f8311600181146200036c575f8415620003545750858301515b5f19600386901b1c1916600185901b178555620002f9565b5f85815260208120601f198616915b828110156200039c578886015182559484019460019091019084016200037b565b5085821015620003ba57878501515f19600388901b60f8161c191681555b5050505050600190811b01905550565b602081525f8251806020840152620003ea8160408501602087016200019f565b601f01601f19169190910160400192915050565b80516020808301519190811015620002aa575f1960209190910360031b1b16919050565b60805160a05160c05160e051610100516101205161014051610f34620004745f395f6103a601525f61037501525f610a7c01525f610a5401525f6109af01525f6109d901525f610a030152610f345ff3fe608060405260043610610049575f3560e01c806319d8d38c1461004d5780637ecebe001461008157806384b0196e146100c3578063ccf96b4a146100ea578063df905caf146100ff575b5f80fd5b348015610058575f80fd5b5061006c610067366004610bbb565b610112565b60405190151581526020015b60405180910390f35b34801561008c575f80fd5b506100b561009b366004610c0d565b6001600160a01b03165f9081526002602052604090205490565b604051908152602001610078565b3480156100ce575f80fd5b506100d7610142565b6040516100789796959493929190610c6b565b6100fd6100f8366004610cff565b610184565b005b6100fd61010d366004610bbb565b610291565b5f805f8061011f856102ec565b509250925092508280156101305750815b80156101395750805b95945050505050565b5f6060805f805f606061015361036e565b61015b61039f565b604080515f80825260208201909252600f60f81b9b939a50919850469750309650945092509050565b6001600160a01b038116155f80805b8581101561024a578686828181106101ad576101ad610d7e565b90506020028101906101bf9190610d92565b6101cd906040013584610dc4565b92505f6101fd8888848181106101e5576101e5610d7e565b90506020028101906101f79190610d92565b866103cc565b9050806102395787878381811061021657610216610d7e565b90506020028101906102289190610d92565b610236906040013584610dc4565b92505b5061024381610dd7565b9050610193565b50348214610279576040516370647f7960e01b8152600481018390523460248201526044015b60405180910390fd5b80156102895761028984826105a7565b505050505050565b806040013534146102c157604080516370647f7960e01b8152908201356004820152346024820152604401610270565b6102cc8160016103cc565b6102e957604051630a12f52160e11b815260040160405180910390fd5b50565b5f805f805f806102fb8761063f565b90925090506103186103136040890160208a01610c0d565b6107b1565b4261032960a08a0160808b01610def565b65ffffffffffff16101583801561035d575061034860208a018a610c0d565b6001600160a01b0316836001600160a01b0316145b919750955093509150509193509193565b606061039a7f00000000000000000000000000000000000000000000000000000000000000005f61082a565b905090565b606061039a7f0000000000000000000000000000000000000000000000000000000000000000600161082a565b5f805f805f6103da876102ec565b935093509350935085156104a05783610428576103fd6040880160208901610c0d565b60405163d2650cd160e01b81526001600160a01b039091166004820152306024820152604401610270565b826104615761043d60a0880160808901610def565b604051634a777ac560e11b815265ffffffffffff9091166004820152602401610270565b816104a057806104746020890189610c0d565b604051636422d02b60e11b81526001600160a01b03928316600482015291166024820152604401610270565b8380156104aa5750815b80156104b35750825b1561059d576001600160a01b0381165f908152600260205260408120805460018101909155905060608801355f6104f060408b0160208c01610c0d565b905060408a01355f61050560a08d018d610e14565b61051260208f018f610c0d565b60405160200161052493929190610e5e565b60405160208183030381529060405290505f805f83516020850186888af19a505a9050610551818e6108d5565b604080518781528c151560208201526001600160a01b038916917f842fb24a83793558587a3dab2be7674da4a51d09c5542d6dd354e5d0ea70813c910160405180910390a25050505050505b5050505092915050565b804710156105ca5760405163cd78605960e01b8152306004820152602401610270565b5f826001600160a01b0316826040515f6040518083038185875af1925050503d805f8114610613576040519150601f19603f3d011682016040523d82523d5f602084013e610618565b606091505b505090508061063a57604051630a12f52160e11b815260040160405180910390fd5b505050565b5f80808061078c61065360c0870187610e14565b8080601f0160208091040260200160405190810160405280939291908181526020018383808284375f9201919091525061078692507f7f96328b83274ebc7c1cf4f7a3abda602b51a78b7fa1d86a2ce353d75e587cac91506106ba905060208a018a610c0d565b6106ca60408b0160208c01610c0d565b60408b013560608c01356106e461009b60208f018f610c0d565b8d60800160208101906106f79190610def565b8e8060a001906107079190610e14565b604051610715929190610e84565b6040805191829003822060208301999099526001600160a01b0397881690820152959094166060860152608085019290925260a084015260c083015265ffffffffffff1660e082015261010081019190915261012001604051602081830303815290604052805190602001206108f1565b9061091d565b5090925090505f8160038111156107a5576107a5610e93565b14959194509092505050565b6040513060248201525f90819060440160408051601f19818403018152919052602080820180516001600160e01b031663572b6c0560e01b17815282519293505f928392839290918391895afa92503d91505f519050828015610815575060208210155b801561082057505f81115b9695505050505050565b606060ff83146108445761083d83610966565b90506108cf565b81805461085090610ea7565b80601f016020809104026020016040519081016040528092919081815260200182805461087c90610ea7565b80156108c75780601f1061089e576101008083540402835291602001916108c7565b820191905f5260205f20905b8154815290600101906020018083116108aa57829003601f168201915b505050505090505b92915050565b6108e4603f6060830135610edf565b8210156108ed57fe5b5050565b5f6108cf6108fd6109a3565b8360405161190160f01b8152600281019290925260228201526042902090565b5f805f8351604103610954576020840151604085015160608601515f1a61094688828585610acc565b95509550955050505061095f565b505081515f91506002905b9250925092565b60605f61097283610b94565b6040805160208082528183019092529192505f91906020820181803683375050509182525060208101929092525090565b5f306001600160a01b037f0000000000000000000000000000000000000000000000000000000000000000161480156109fb57507f000000000000000000000000000000000000000000000000000000000000000046145b15610a2557507f000000000000000000000000000000000000000000000000000000000000000090565b61039a604080517f8b73c3c69bb8fe3d512ecc4cf759cc79239f7b179b0ffacaa9a75d522b39400f60208201527f0000000000000000000000000000000000000000000000000000000000000000918101919091527f000000000000000000000000000000000000000000000000000000000000000060608201524660808201523060a08201525f9060c00160405160208183030381529060405280519060200120905090565b5f80807f7fffffffffffffffffffffffffffffff5d576e7357a4501ddfe92f46681b20a0841115610b0557505f91506003905082610b8a565b604080515f808252602082018084528a905260ff891692820192909252606081018790526080810186905260019060a0016020604051602081039080840390855afa158015610b56573d5f803e3d5ffd5b5050604051601f1901519150506001600160a01b038116610b8157505f925060019150829050610b8a565b92505f91508190505b9450945094915050565b5f60ff8216601f8111156108cf57604051632cd44ac360e21b815260040160405180910390fd5b5f60208284031215610bcb575f80fd5b813567ffffffffffffffff811115610be1575f80fd5b820160e08185031215610bf2575f80fd5b9392505050565b6001600160a01b03811681146102e9575f80fd5b5f60208284031215610c1d575f80fd5b8135610bf281610bf9565b5f81518084525f5b81811015610c4c57602081850181015186830182015201610c30565b505f602082860101526020601f19601f83011685010191505092915050565b60ff60f81b881681525f602060e081840152610c8a60e084018a610c28565b8381036040850152610c9c818a610c28565b606085018990526001600160a01b038816608086015260a0850187905284810360c086015285518082528387019250908301905f5b81811015610ced57835183529284019291840191600101610cd1565b50909c9b505050505050505050505050565b5f805f60408486031215610d11575f80fd5b833567ffffffffffffffff80821115610d28575f80fd5b818601915086601f830112610d3b575f80fd5b813581811115610d49575f80fd5b8760208260051b8501011115610d5d575f80fd5b60209283019550935050840135610d7381610bf9565b809150509250925092565b634e487b7160e01b5f52603260045260245ffd5b5f823560de19833603018112610da6575f80fd5b9190910192915050565b634e487b7160e01b5f52601160045260245ffd5b808201808211156108cf576108cf610db0565b5f60018201610de857610de8610db0565b5060010190565b5f60208284031215610dff575f80fd5b813565ffffffffffff81168114610bf2575f80fd5b5f808335601e19843603018112610e29575f80fd5b83018035915067ffffffffffffffff821115610e43575f80fd5b602001915036819003821315610e57575f80fd5b9250929050565b8284823760609190911b6bffffffffffffffffffffffff19169101908152601401919050565b818382375f9101908152919050565b634e487b7160e01b5f52602160045260245ffd5b600181811c90821680610ebb57607f821691505b602082108103610ed957634e487b7160e01b5f52602260045260245ffd5b50919050565b5f82610ef957634e487b7160e01b5f52601260045260245ffd5b50049056fea26469706673582212205ec5165c4fb2601dcb655e86671958c3e49ef771db123bc8fad9a44a19e3b4fd64736f6c63430008140033",
  "immutableReferences": {
    "9662": [
      {
        "length": 32,
        "start": 2563
      }
    ],
    "9664": [
      {
        "length": 32,
        "start": 2521
      }
    ],
    "9666": [
      {
        "length": 32,
        "start": 2479
      }
    ],
    "9668": [
      {
        "length": 32,
        "start": 2644
      }
    ],
    "9670": [
      {
        "length": 32,
        "start": 2684
      }
    ],
    "9673": [
      {
        "length": 32,
        "start": 885
      }
    ],
    "9676": [
      {
        "length": 32,
        "start": 934
      }
    ]
  },
  "source": "// SPDX-License-Identifier: MIT\n// OpenZeppelin Contracts (last updated v5.0.0) (metatx/ERC2771Forwarder.sol)\n\npragma solidity ^0.8.20;\n\nimport {ERC2771Context} from \"./ERC2771Context.sol\";\nimport {ECDSA} from \"../utils/cryptography/ECDSA.sol\";\nimport {EIP712} from \"../utils/cryptography/EIP712.sol\";\nimport {Nonces} from \"../utils/Nonces.sol\";\nimport {Address} from \"../utils/Address.sol\";\n\n/**\n * @dev A forwarder compatible with ERC2771 contracts. See {ERC2771Context}.\n *\n * This forwarder operates on forward requests that include:\n *\n * * `from`: An address to operate on behalf of. It is required to be equal to the request signer.\n * * `to`: The address that should be called.\n * * `value`: The amount of native token to attach with the requested call.\n * * `gas`: The amount of gas limit that will be forwarded with the requested call.\n * * `nonce`: A unique transaction ordering identifier to avoid replayability and request invalidation.\n * * `deadline`: A timestamp after which the request is not executable anymore.\n * * `data`: Encoded `msg.data` to send with the requested call.\n *\n * Relayers are able to submit batches if they are processing a high volume of requests. With high\n * throughput, relayers may run into limitations of the chain such as limits on the number of\n * transactions in the mempool. In these cases the recommendation is to distribute the load among\n * multiple accounts.\n *\n * NOTE: Batching requests includes an optional refund for unused `msg.value` that is achieved by\n * performing a call with empty calldata. While this is within the bounds of ERC-2771 compliance,\n * if the refund receiver happens to consider the forwarder a trusted forwarder, it MUST properly\n * handle `msg.data.length == 0`. `ERC2771Context` in OpenZeppelin Contracts versions prior to 4.9.3\n * do not handle this properly.\n *\n * ==== Security Considerations\n *\n * If a relayer submits a forward request, it should be willing to pay up to 100% of the gas amount\n * specified in the request. This contract does not implement any kind of retribution for this gas,\n * and it is assumed that there is an out of band incentive for relayers to pay for execution on\n * behalf of signers. Often, the relayer is operated by a project that will consider it a user\n * acquisition cost.\n *\n * By offering to pay for gas, relayers are at risk of having that gas used by an attacker toward\n * some other purpose that is not aligned with the expected out of band incentives. If you operate a\n * relayer, consider whitelisting target contracts and function selectors. When relaying ERC-721 or\n * ERC-1155 transfers specifically, consider rejecting the use of the `data` field, since it can be\n * used to execute arbitrary code.\n */\ncontract ERC2771Forwarder is EIP712, Nonces {\n    using ECDSA for bytes32;\n\n    struct ForwardRequestData {\n        address from;\n        address to;\n        uint256 value;\n        uint256 gas;\n        uint48 deadline;\n        bytes data;\n        bytes signature;\n    }\n\n    bytes32 internal constant _FORWARD_REQUEST_TYPEHASH =\n        keccak256(\n            \"ForwardRequest(address from,address to,uint256 value,uint256 gas,uint256 nonce,uint48 deadline,bytes data)\"\n        );\n\n    /**\n     * @dev Emitted when a `ForwardRequest` is executed.\n     *\n     * NOTE: An unsuccessful forward request could be due to an invalid signature, an expired deadline,\n     * or simply a revert in the requested call. The contract guarantees that the relayer is not able to force\n     * the requested call to run out of gas.\n     */\n    event ExecutedForwardRequest(address indexed signer, uint256 nonce, bool success);\n\n    /**\n     * @dev The request `from` doesn't match with the recovered `signer`.\n     */\n    error ERC2771ForwarderInvalidSigner(address signer, address from);\n\n    /**\n     * @dev The `requestedValue` doesn't match with the available `msgValue`.\n     */\n    error ERC2771ForwarderMismatchedValue(uint256 requestedValue, uint256 msgValue);\n\n    /**\n     * @dev The request `deadline` has expired.\n     */\n    error ERC2771ForwarderExpiredRequest(uint48 deadline);\n\n    /**\n     * @dev The request target doesn't trust the `forwarder`.\n     */\n    error ERC2771UntrustfulTarget(address target, address forwarder);\n\n    /**\n     * @dev See {EIP712-constructor}.\n     */\n    constructor(string memory name) EIP712(name, \"1\") {}\n\n    /**\n     * @dev Returns `true` if a request is valid for a provided `signature` at the current block timestamp.\n     *\n     * A transaction is considered valid when the target trusts this forwarder, the request hasn't expired\n     * (deadline is not met), and the signer matches the `from` parameter of the signed request.\n     *\n     * NOTE: A request may return false here but it won't cause {executeBatch} to revert if a refund\n     * receiver is provided.\n     */\n    function verify(ForwardRequestData calldata request) public view virtual returns (bool) {\n        (bool isTrustedForwarder, bool active, bool signerMatch, ) = _validate(request);\n        return isTrustedForwarder && active && signerMatch;\n    }\n\n    /**\n     * @dev Executes a `request` on behalf of `signature`'s signer using the ERC-2771 protocol. The gas\n     * provided to the requested call may not be exactly the amount requested, but the call will not run\n     * out of gas. Will revert if the request is invalid or the call reverts, in this case the nonce is not consumed.\n     *\n     * Requirements:\n     *\n     * - The request value should be equal to the provided `msg.value`.\n     * - The request should be valid according to {verify}.\n     */\n    function execute(ForwardRequestData calldata request) public payable virtual {\n        // We make sure that msg.value and request.value match exactly.\n        // If the request is invalid or the call reverts, this whole function\n        // will revert, ensuring value isn't stuck.\n        if (msg.value != request.value) {\n            revert ERC2771ForwarderMismatchedValue(request.value, msg.value);\n        }\n\n        if (!_execute(request, true)) {\n            revert Address.FailedInnerCall();\n        }\n    }\n\n    /**\n     * @dev Batch version of {execute} with optional refunding and atomic execution.\n     *\n     * In case a batch contains at least one invalid request (see {verify}), the\n     * request will be skipped and the `refundReceiver` parameter will receive back the\n     * unused requested value at the end of the execution. This is done to prevent reverting\n     * the entire batch when a request is invalid or has already been submitted.\n     *\n     * If the `refundReceiver` is the `address(0)`, this function will revert when at least\n     * one of the requests was not valid instead of skipping it. This could be useful if\n     * a batch is required to get executed atomically (at least at the top-level). For example,\n     * refunding (and thus atomicity) can be opt-out if the relayer is using a service that avoids\n     * including reverted transactions.\n     *\n     * Requirements:\n     *\n     * - The sum of the requests' values should be equal to the provided `msg.value`.\n     * - All of the requests should be valid (see {verify}) when `refundReceiver` is the zero address.\n     *\n     * NOTE: Setting a zero `refundReceiver` guarantees an all-or-nothing requests execution only for\n     * the first-level forwarded calls. In case a forwarded request calls to a contract with another\n     * subcall, the second-level call may revert without the top-level call reverting.\n     */\n    function executeBatch(\n        ForwardRequestData[] calldata requests,\n        address payable refundReceiver\n    ) public payable virtual {\n        bool atomic = refundReceiver == address(0);\n\n        uint256 requestsValue;\n        uint256 refundValue;\n\n        for (uint256 i; i < requests.length; ++i) {\n            requestsValue += requests[i].value;\n            bool success = _execute(requests[i], atomic);\n            if (!success) {\n                refundValue += requests[i].value;\n            }\n        }\n\n        // The batch should revert if there's a mismatched msg.value provided\n        // to avoid request value tampering\n        if (requestsValue != msg.value) {\n            revert ERC2771ForwarderMismatchedValue(requestsValue, msg.value);\n        }\n\n        // Some requests with value were invalid (possibly due to frontrunning).\n        // To avoid leaving ETH in the contract this value is refunded.\n        if (refundValue != 0) {\n            // We know refundReceiver != address(0) && requestsValue == msg.value\n            // meaning we can ensure refundValue is not taken from the original contract's balance\n            // and refundReceiver is a known account.\n            Address.sendValue(refundReceiver, refundValue);\n        }\n    }\n\n    /**\n     * @dev Validates if the provided request can be executed at current block timestamp with\n     * the given `request.signature` on behalf of `request.signer`.\n     */\n    function _validate(\n        ForwardRequestData calldata request\n    ) internal view virtual returns (bool isTrustedForwarder, bool active, bool signerMatch, address signer) {\n        (bool isValid, address recovered) = _recoverForwardRequestSigner(request);\n\n        return (\n            _isTrustedByTarget(request.to),\n            request.deadline >= block.timestamp,\n            isValid && recovered == request.from,\n            recovered\n        );\n    }\n\n    /**\n     * @dev Returns a tuple with the recovered the signer of an EIP712 forward request message hash\n     * and a boolean indicating if the signature is valid.\n     *\n     * NOTE: The signature is considered valid if {ECDSA-tryRecover} indicates no recover error for it.\n     */\n    function _recoverForwardRequestSigner(\n        ForwardRequestData calldata request\n    ) internal view virtual returns (bool, address) {\n        (address recovered, ECDSA.RecoverError err, ) = _hashTypedDataV4(\n            keccak256(\n                abi.encode(\n                    _FORWARD_REQUEST_TYPEHASH,\n                    request.from,\n                    request.to,\n                    request.value,\n                    request.gas,\n                    nonces(request.from),\n                    request.deadline,\n                    keccak256(request.data)\n                )\n            )\n        ).tryRecover(request.signature);\n\n        return (err == ECDSA.RecoverError.NoError, recovered);\n    }\n\n    /**\n     * @dev Validates and executes a signed request returning the request call `success` value.\n     *\n     * Internal function without msg.value validation.\n     *\n     * Requirements:\n     *\n     * - The caller must have provided enough gas to forward with the call.\n     * - The request must be valid (see {verify}) if the `requireValidRequest` is true.\n     *\n     * Emits an {ExecutedForwardRequest} event.\n     *\n     * IMPORTANT: Using this function doesn't check that all the `msg.value` was sent, potentially\n     * leaving value stuck in the contract.\n     */\n    function _execute(\n        ForwardRequestData calldata request,\n        bool requireValidRequest\n    ) internal virtual returns (bool success) {\n        (bool isTrustedForwarder, bool active, bool signerMatch, address signer) = _validate(request);\n\n        // Need to explicitly specify if a revert is required since non-reverting is default for\n        // batches and reversion is opt-in since it could be useful in some scenarios\n        if (requireValidRequest) {\n            if (!isTrustedForwarder) {\n                revert ERC2771UntrustfulTarget(request.to, address(this));\n            }\n\n            if (!active) {\n                revert ERC2771ForwarderExpiredRequest(request.deadline);\n            }\n\n            if (!signerMatch) {\n                revert ERC2771ForwarderInvalidSigner(signer, request.from);\n            }\n        }\n\n        // Ignore an invalid request because requireValidRequest = false\n        if (isTrustedForwarder && signerMatch && active) {\n            // Nonce should be used before the call to prevent reusing by reentrancy\n            uint256 currentNonce = _useNonce(signer);\n\n            uint256 reqGas = request.gas;\n            address to = request.to;\n            uint256 value = request.value;\n            bytes memory data = abi.encodePacked(request.data, request.from);\n\n            uint256 gasLeft;\n\n            assembly {\n                success := call(reqGas, to, value, add(data, 0x20), mload(data), 0, 0)\n                gasLeft := gas()\n            }\n\n            _checkForwardedGas(gasLeft, request);\n\n            emit ExecutedForwardRequest(signer, currentNonce, success);\n        }\n    }\n\n    /**\n     * @dev Returns whether the target trusts this forwarder.\n     *\n     * This function performs a static call to the target contract calling the\n     * {ERC2771Context-isTrustedForwarder} function.\n     */\n    function _isTrustedByTarget(address target) private view returns (bool) {\n        bytes memory encodedParams = abi.encodeCall(ERC2771Context.isTrustedForwarder, (address(this)));\n\n        bool success;\n        uint256 returnSize;\n        uint256 returnValue;\n        /// @solidity memory-safe-assembly\n        assembly {\n            // Perform the staticcal and save the result in the scratch space.\n            // | Location  | Content  | Content (Hex)                                                      |\n            // |-----------|----------|--------------------------------------------------------------------|\n            // |           |          |                                                           result ↓ |\n            // | 0x00:0x1F | selector | 0x0000000000000000000000000000000000000000000000000000000000000001 |\n            success := staticcall(gas(), target, add(encodedParams, 0x20), mload(encodedParams), 0, 0x20)\n            returnSize := returndatasize()\n            returnValue := mload(0)\n        }\n\n        return success && returnSize >= 0x20 && returnValue > 0;\n    }\n\n    /**\n     * @dev Checks if the requested gas was correctly forwarded to the callee.\n     *\n     * As a consequence of https://eips.ethereum.org/EIPS/eip-150[EIP-150]:\n     * - At most `gasleft() - floor(gasleft() / 64)` is forwarded to the callee.\n     * - At least `floor(gasleft() / 64)` is kept in the caller.\n     *\n     * It reverts consuming all the available gas if the forwarded gas is not the requested gas.\n     *\n     * IMPORTANT: The `gasLeft` parameter should be measured exactly at the end of the forwarded call.\n     * Any gas consumed in between will make room for bypassing this check.\n     */\n    function _checkForwardedGas(uint256 gasLeft, ForwardRequestData calldata request) private pure {\n        // To avoid insufficient gas griefing attacks, as referenced in https://ronan.eth.limo/blog/ethereum-gas-dangers/\n        //\n        // A malicious relayer can attempt to shrink the gas forwarded so that the underlying call reverts out-of-gas\n        // but the forwarding itself still succeeds. In order to make sure that the subcall received sufficient gas,\n        // we will inspect gasleft() after the forwarding.\n        //\n        // Let X be the gas available before the subcall, such that the subcall gets at most X * 63 / 64.\n        // We can't know X after CALL dynamic costs, but we want it to be such that X * 63 / 64 >= req.gas.\n        // Let Y be the gas used in the subcall. gasleft() measured immediately after the subcall will be gasleft() = X - Y.\n        // If the subcall ran out of gas, then Y = X * 63 / 64 and gasleft() = X - Y = X / 64.\n        // Under this assumption req.gas / 63 > gasleft() is true is true if and only if\n        // req.gas / 63 > X / 64, or equivalently req.gas > X * 63 / 64.\n        // This means that if the subcall runs out of gas we are able to detect that insufficient gas was passed.\n        //\n        // We will now also see that req.gas / 63 > gasleft() implies that req.gas >= X * 63 / 64.\n        // The contract guarantees Y <= req.gas, thus gasleft() = X - Y >= X - req.gas.\n        // -    req.gas / 63 > gasleft()\n        // -    req.gas / 63 >= X - req.gas\n        // -    req.gas >= X * 63 / 64\n        // In other words if req.gas < X * 63 / 64 then req.gas / 63 <= gasleft(), thus if the relayer behaves honestly\n        // the forwarding does not revert.\n        if (gasLeft < request.gas / 63) {\n            // We explicitly trigger invalid opcode to consume all gas and bubble-up the effects, since\n            // neither revert or assert consume all gas since Solidity 0.8.20\n            // https://docs.soliditylang.org/en/v0.8.20/control-structures.html#panic-via-assert-and-error-via-require\n            /// @solidity memory-safe-assembly\n            assembly {\n                invalid()\n            }\n        }\n    }\n}\n",
  "sourcePath": "@openzeppelin\\contracts\\metatx\\ERC2771Forwarder.sol",
  "compiler": {
    "name": "solc",
    "version": "0.8.20+commit.a1b79de6.Emscripten.clang"
  },
  "schemaVersion": "3.4.16",
  "updatedAt": "2026-04-24T10:38:30.922Z",
  "devdoc": {
    "details": "A forwarder compatible with ERC2771 contracts. See {ERC2771Context}. This forwarder operates on forward requests that include: * `from`: An address to operate on behalf of. It is required to be equal to the request signer. * `to`: The address that should be called. * `value`: The amount of native token to attach with the requested call. * `gas`: The amount of gas limit that will be forwarded with the requested call. * `nonce`: A unique transaction ordering identifier to avoid replayability and request invalidation. * `deadline`: A timestamp after which the request is not executable anymore. * `data`: Encoded `msg.data` to send with the requested call. Relayers are able to submit batches if they are processing a high volume of requests. With high throughput, relayers may run into limitations of the chain such as limits on the number of transactions in the mempool. In these cases the recommendation is to distribute the load among multiple accounts. NOTE: Batching requests includes an optional refund for unused `msg.value` that is achieved by performing a call with empty calldata. While this is within the bounds of ERC-2771 compliance, if the refund receiver happens to consider the forwarder a trusted forwarder, it MUST properly handle `msg.data.length == 0`. `ERC2771Context` in OpenZeppelin Contracts versions prior to 4.9.3 do not handle this properly. ==== Security Considerations If a relayer submits a forward request, it should be willing to pay up to 100% of the gas amount specified in the request. This contract does not implement any kind of retribution for this gas, and it is assumed that there is an out of band incentive for relayers to pay for execution on behalf of signers. Often, the relayer is operated by a project that will consider it a user acquisition cost. By offering to pay for gas, relayers are at risk of having that gas used by an attacker toward some other purpose that is not aligned with the expected out of band incentives. If you operate a relayer, consider whitelisting target contracts and function selectors. When relaying ERC-721 or ERC-1155 transfers specifically, consider rejecting the use of the `data` field, since it can be used to execute arbitrary code.",
    "errors": {
      "AddressInsufficientBalance(address)": [
        {
          "details": "The ETH balance of the account is not enough to perform the operation."
        }
      ],
      "ERC2771ForwarderExpiredRequest(uint48)": [
        {
          "details": "The request `deadline` has expired."
        }
      ],
      "ERC2771ForwarderInvalidSigner(address,address)": [
        {
          "details": "The request `from` doesn't match with the recovered `signer`."
        }
      ],
      "ERC2771ForwarderMismatchedValue(uint256,uint256)": [
        {
          "details": "The `requestedValue` doesn't match with the available `msgValue`."
        }
      ],
      "ERC2771UntrustfulTarget(address,address)": [
        {
          "details": "The request target doesn't trust the `forwarder`."
        }
      ],
      "FailedInnerCall()": [
        {
          "details": "A call to an address target failed. The target may have reverted."
        }
      ],
      "InvalidAccountNonce(address,uint256)": [
        {
          "details": "The nonce used for an `account` is not the expected current nonce."
        }
      ]
    },
    "events": {
      "EIP712DomainChanged()": {
        "details": "MAY be emitted to signal that the domain could have changed."
      },
      "ExecutedForwardRequest(address,uint256,bool)": {
        "details": "Emitted when a `ForwardRequest` is executed. NOTE: An unsuccessful forward request could be due to an invalid signature, an expired deadline, or simply a revert in the requested call. The contract guarantees that the relayer is not able to force the requested call to run out of gas."
      }
    },
    "kind": "dev",
    "methods": {
      "constructor": {
        "details": "See {EIP712-constructor}."
      },
      "eip712Domain()": {
        "details": "See {IERC-5267}."
      },
      "execute((address,address,uint256,uint256,uint48,bytes,bytes))": {
        "details": "Executes a `request` on behalf of `signature`'s signer using the ERC-2771 protocol. The gas provided to the requested call may not be exactly the amount requested, but the call will not run out of gas. Will revert if the request is invalid or the call reverts, in this case the nonce is not consumed. Requirements: - The request value should be equal to the provided `msg.value`. - The request should be valid according to {verify}."
      },
      "executeBatch((address,address,uint256,uint256,uint48,bytes,bytes)[],address)": {
        "details": "Batch version of {execute} with optional refunding and atomic execution. In case a batch contains at least one invalid request (see {verify}), the request will be skipped and the `refundReceiver` parameter will receive back the unused requested value at the end of the execution. This is done to prevent reverting the entire batch when a request is invalid or has already been submitted. If the `refundReceiver` is the `address(0)`, this function will revert when at least one of the requests was not valid instead of skipping it. This could be useful if a batch is required to get executed atomically (at least at the top-level). For example, refunding (and thus atomicity) can be opt-out if the relayer is using a service that avoids including reverted transactions. Requirements: - The sum of the requests' values should be equal to the provided `msg.value`. - All of the requests should be valid (see {verify}) when `refundReceiver` is the zero address. NOTE: Setting a zero `refundReceiver` guarantees an all-or-nothing requests execution only for the first-level forwarded calls. In case a forwarded request calls to a contract with another subcall, the second-level call may revert without the top-level call reverting."
      },
      "nonces(address)": {
        "details": "Returns the next unused nonce for an address."
      },
      "verify((address,address,uint256,uint256,uint48,bytes,bytes))": {
        "details": "Returns `true` if a request is valid for a provided `signature` at the current block timestamp. A transaction is considered valid when the target trusts this forwarder, the request hasn't expired (deadline is not met), and the signer matches the `from` parameter of the signed request. NOTE: A request may return false here but it won't cause {executeBatch} to revert if a refund receiver is provided."
      }
    },
    "version": 1
  },
  "userdoc": {
    "kind": "user",
    "methods": {},
    "version": 1
  }
}