{
  "contractName": "Hospital",
  "abi": [
    {
      "inputs": [
        {
          "internalType": "address",
          "name": "_accessControl",
          "type": "address"
        },
        {
          "internalType": "address",
          "name": "_trustedForwarder",
          "type": "address"
        }
      ],
      "stateMutability": "nonpayable",
      "type": "constructor"
    },
    {
      "inputs": [],
      "name": "AlreadyOnDuty",
      "type": "error"
    },
    {
      "inputs": [],
      "name": "DoctorAlreadyApproved",
      "type": "error"
    },
    {
      "inputs": [],
      "name": "DoctorNotApproved",
      "type": "error"
    },
    {
      "inputs": [],
      "name": "HospitalAlreadyRegistered",
      "type": "error"
    },
    {
      "inputs": [],
      "name": "InvalidDoctorAddress",
      "type": "error"
    },
    {
      "inputs": [],
      "name": "InvalidHospitalAddress",
      "type": "error"
    },
    {
      "inputs": [],
      "name": "NoEarningsToClaim",
      "type": "error"
    },
    {
      "inputs": [],
      "name": "NoValueSent",
      "type": "error"
    },
    {
      "inputs": [],
      "name": "NotOnDuty",
      "type": "error"
    },
    {
      "inputs": [],
      "name": "NotRegisteredHospital",
      "type": "error"
    },
    {
      "inputs": [],
      "name": "ReentrancyGuardReentrantCall",
      "type": "error"
    },
    {
      "inputs": [],
      "name": "TransferFailed",
      "type": "error"
    },
    {
      "anonymous": false,
      "inputs": [
        {
          "indexed": true,
          "internalType": "uint256",
          "name": "hospitalId",
          "type": "uint256"
        },
        {
          "indexed": true,
          "internalType": "address",
          "name": "doctor",
          "type": "address"
        }
      ],
      "name": "DoctorAdded",
      "type": "event"
    },
    {
      "anonymous": false,
      "inputs": [
        {
          "indexed": true,
          "internalType": "uint256",
          "name": "hospitalId",
          "type": "uint256"
        },
        {
          "indexed": true,
          "internalType": "address",
          "name": "doctor",
          "type": "address"
        }
      ],
      "name": "DoctorRemoved",
      "type": "event"
    },
    {
      "anonymous": false,
      "inputs": [
        {
          "indexed": true,
          "internalType": "address",
          "name": "hospital",
          "type": "address"
        },
        {
          "indexed": false,
          "internalType": "uint256",
          "name": "amount",
          "type": "uint256"
        }
      ],
      "name": "EarningsClaimed",
      "type": "event"
    },
    {
      "anonymous": false,
      "inputs": [
        {
          "indexed": true,
          "internalType": "uint256",
          "name": "id",
          "type": "uint256"
        },
        {
          "indexed": true,
          "internalType": "address",
          "name": "wallet",
          "type": "address"
        },
        {
          "indexed": false,
          "internalType": "string",
          "name": "name",
          "type": "string"
        }
      ],
      "name": "HospitalRegistered",
      "type": "event"
    },
    {
      "anonymous": false,
      "inputs": [
        {
          "indexed": true,
          "internalType": "address",
          "name": "doctor",
          "type": "address"
        },
        {
          "indexed": true,
          "internalType": "address",
          "name": "hospital",
          "type": "address"
        },
        {
          "indexed": false,
          "internalType": "uint256",
          "name": "timestamp",
          "type": "uint256"
        }
      ],
      "name": "LogPunchIn",
      "type": "event"
    },
    {
      "anonymous": false,
      "inputs": [
        {
          "indexed": true,
          "internalType": "address",
          "name": "doctor",
          "type": "address"
        },
        {
          "indexed": true,
          "internalType": "address",
          "name": "hospital",
          "type": "address"
        },
        {
          "indexed": false,
          "internalType": "uint256",
          "name": "timestamp",
          "type": "uint256"
        },
        {
          "indexed": false,
          "internalType": "uint256",
          "name": "duration",
          "type": "uint256"
        }
      ],
      "name": "LogPunchOut",
      "type": "event"
    },
    {
      "anonymous": false,
      "inputs": [
        {
          "indexed": true,
          "internalType": "address",
          "name": "hospital",
          "type": "address"
        },
        {
          "indexed": true,
          "internalType": "address",
          "name": "patient",
          "type": "address"
        },
        {
          "indexed": false,
          "internalType": "uint256",
          "name": "amount",
          "type": "uint256"
        }
      ],
      "name": "SettlementReceived",
      "type": "event"
    },
    {
      "inputs": [],
      "name": "accessControl",
      "outputs": [
        {
          "internalType": "contract MediSecureAccessControl",
          "name": "",
          "type": "address"
        }
      ],
      "stateMutability": "view",
      "type": "function",
      "constant": true
    },
    {
      "inputs": [
        {
          "internalType": "address",
          "name": "",
          "type": "address"
        },
        {
          "internalType": "address",
          "name": "",
          "type": "address"
        }
      ],
      "name": "doctorDutyStatus",
      "outputs": [
        {
          "internalType": "bool",
          "name": "",
          "type": "bool"
        }
      ],
      "stateMutability": "view",
      "type": "function",
      "constant": true
    },
    {
      "inputs": [
        {
          "internalType": "bytes32",
          "name": "role",
          "type": "bytes32"
        },
        {
          "internalType": "address",
          "name": "account",
          "type": "address"
        }
      ],
      "name": "hasRole",
      "outputs": [
        {
          "internalType": "bool",
          "name": "",
          "type": "bool"
        }
      ],
      "stateMutability": "view",
      "type": "function",
      "constant": true
    },
    {
      "inputs": [
        {
          "internalType": "enum Roles",
          "name": "role",
          "type": "uint8"
        },
        {
          "internalType": "address",
          "name": "account",
          "type": "address"
        }
      ],
      "name": "hasRole",
      "outputs": [
        {
          "internalType": "bool",
          "name": "",
          "type": "bool"
        }
      ],
      "stateMutability": "view",
      "type": "function",
      "constant": true
    },
    {
      "inputs": [
        {
          "internalType": "address",
          "name": "",
          "type": "address"
        }
      ],
      "name": "hospitalActiveDoctorCount",
      "outputs": [
        {
          "internalType": "uint256",
          "name": "",
          "type": "uint256"
        }
      ],
      "stateMutability": "view",
      "type": "function",
      "constant": true
    },
    {
      "inputs": [
        {
          "internalType": "uint256",
          "name": "",
          "type": "uint256"
        },
        {
          "internalType": "uint256",
          "name": "",
          "type": "uint256"
        }
      ],
      "name": "hospitalDoctors",
      "outputs": [
        {
          "internalType": "address",
          "name": "",
          "type": "address"
        }
      ],
      "stateMutability": "view",
      "type": "function",
      "constant": true
    },
    {
      "inputs": [
        {
          "internalType": "uint256",
          "name": "",
          "type": "uint256"
        }
      ],
      "name": "hospitals",
      "outputs": [
        {
          "internalType": "uint256",
          "name": "id",
          "type": "uint256"
        },
        {
          "internalType": "address",
          "name": "walletAddress",
          "type": "address"
        },
        {
          "internalType": "string",
          "name": "name",
          "type": "string"
        },
        {
          "internalType": "string",
          "name": "email",
          "type": "string"
        },
        {
          "internalType": "string",
          "name": "location",
          "type": "string"
        },
        {
          "internalType": "string",
          "name": "registrationNumber",
          "type": "string"
        }
      ],
      "stateMutability": "view",
      "type": "function",
      "constant": true
    },
    {
      "inputs": [
        {
          "internalType": "address",
          "name": "account",
          "type": "address"
        }
      ],
      "name": "isAdmin",
      "outputs": [
        {
          "internalType": "bool",
          "name": "",
          "type": "bool"
        }
      ],
      "stateMutability": "view",
      "type": "function",
      "constant": true
    },
    {
      "inputs": [
        {
          "internalType": "uint256",
          "name": "",
          "type": "uint256"
        },
        {
          "internalType": "address",
          "name": "",
          "type": "address"
        }
      ],
      "name": "isDoctorApproved",
      "outputs": [
        {
          "internalType": "bool",
          "name": "",
          "type": "bool"
        }
      ],
      "stateMutability": "view",
      "type": "function",
      "constant": true
    },
    {
      "inputs": [
        {
          "internalType": "address",
          "name": "forwarder",
          "type": "address"
        }
      ],
      "name": "isTrustedForwarder",
      "outputs": [
        {
          "internalType": "bool",
          "name": "",
          "type": "bool"
        }
      ],
      "stateMutability": "view",
      "type": "function",
      "constant": true
    },
    {
      "inputs": [
        {
          "internalType": "address",
          "name": "",
          "type": "address"
        }
      ],
      "name": "pendingEarnings",
      "outputs": [
        {
          "internalType": "uint256",
          "name": "",
          "type": "uint256"
        }
      ],
      "stateMutability": "view",
      "type": "function",
      "constant": true
    },
    {
      "inputs": [
        {
          "internalType": "address",
          "name": "",
          "type": "address"
        },
        {
          "internalType": "address",
          "name": "",
          "type": "address"
        }
      ],
      "name": "shiftStartTimes",
      "outputs": [
        {
          "internalType": "uint256",
          "name": "",
          "type": "uint256"
        }
      ],
      "stateMutability": "view",
      "type": "function",
      "constant": true
    },
    {
      "inputs": [],
      "name": "trustedForwarder",
      "outputs": [
        {
          "internalType": "address",
          "name": "",
          "type": "address"
        }
      ],
      "stateMutability": "view",
      "type": "function",
      "constant": true
    },
    {
      "inputs": [
        {
          "internalType": "address",
          "name": "",
          "type": "address"
        }
      ],
      "name": "walletToHospitalId",
      "outputs": [
        {
          "internalType": "uint256",
          "name": "",
          "type": "uint256"
        }
      ],
      "stateMutability": "view",
      "type": "function",
      "constant": true
    },
    {
      "inputs": [
        {
          "internalType": "string",
          "name": "name",
          "type": "string"
        },
        {
          "internalType": "string",
          "name": "email",
          "type": "string"
        },
        {
          "internalType": "string",
          "name": "location",
          "type": "string"
        },
        {
          "internalType": "string",
          "name": "registrationNumber",
          "type": "string"
        }
      ],
      "name": "registerHospital",
      "outputs": [],
      "stateMutability": "nonpayable",
      "type": "function"
    },
    {
      "inputs": [
        {
          "internalType": "address",
          "name": "doctor",
          "type": "address"
        }
      ],
      "name": "addDoctor",
      "outputs": [],
      "stateMutability": "nonpayable",
      "type": "function"
    },
    {
      "inputs": [
        {
          "internalType": "address",
          "name": "doctor",
          "type": "address"
        }
      ],
      "name": "removeDoctor",
      "outputs": [],
      "stateMutability": "nonpayable",
      "type": "function"
    },
    {
      "inputs": [
        {
          "internalType": "address",
          "name": "hospitalAddress",
          "type": "address"
        }
      ],
      "name": "punchIn",
      "outputs": [],
      "stateMutability": "nonpayable",
      "type": "function"
    },
    {
      "inputs": [
        {
          "internalType": "address",
          "name": "hospitalAddress",
          "type": "address"
        }
      ],
      "name": "punchOut",
      "outputs": [],
      "stateMutability": "nonpayable",
      "type": "function"
    },
    {
      "inputs": [
        {
          "internalType": "address",
          "name": "doctor",
          "type": "address"
        },
        {
          "internalType": "address",
          "name": "hospitalAddress",
          "type": "address"
        }
      ],
      "name": "isDoctorOnDuty",
      "outputs": [
        {
          "internalType": "bool",
          "name": "",
          "type": "bool"
        }
      ],
      "stateMutability": "view",
      "type": "function",
      "constant": true
    },
    {
      "inputs": [
        {
          "internalType": "address",
          "name": "_hospital",
          "type": "address"
        },
        {
          "internalType": "address",
          "name": "_patient",
          "type": "address"
        }
      ],
      "name": "receiveSettlement",
      "outputs": [],
      "stateMutability": "payable",
      "type": "function",
      "payable": true
    },
    {
      "inputs": [],
      "name": "claimEarnings",
      "outputs": [],
      "stateMutability": "nonpayable",
      "type": "function"
    },
    {
      "inputs": [],
      "name": "getHospitalDoctors",
      "outputs": [
        {
          "internalType": "address[]",
          "name": "",
          "type": "address[]"
        }
      ],
      "stateMutability": "view",
      "type": "function",
      "constant": true
    },
    {
      "inputs": [
        {
          "internalType": "address",
          "name": "hospitalAddress",
          "type": "address"
        }
      ],
      "name": "getActiveDoctorCount",
      "outputs": [
        {
          "internalType": "uint256",
          "name": "",
          "type": "uint256"
        }
      ],
      "stateMutability": "view",
      "type": "function",
      "constant": true
    }
  ],
  "bytecode": "0x60a060405234801562000010575f80fd5b506040516200212038038062002120833981016040819052620000339162000093565b60015f556001600160a01b03808216608052829082908216156200006d57600180546001600160a01b0319166001600160a01b0384161790555b50505050620000c9565b80516001600160a01b03811681146200008e575f80fd5b919050565b5f8060408385031215620000a5575f80fd5b620000b08362000077565b9150620000c06020840162000077565b90509250929050565b608051612030620000f05f395f81816102fd0152818161033b015261193901526120305ff3fe608060405260043610610147575f3560e01c806381dc6fd2116100b3578063babef8f61161006d578063babef8f61461046e578063c7972937146104a7578063d7e549d9146104c6578063d9ceab13146104e5578063e127c07c146104f9578063e2aece4a1461052f575f80fd5b806381dc6fd21461035f57806391d148541461039057806398fc90e9146103af5780639e97b8f6146103ce5780639fdd8e6b146103ed578063b6d8539514610426575f80fd5b80633dc33e2c116101045780633dc33e2c14610263578063464334f1146102785780634780468f146102a35780634df6f28d146102c2578063572b6c05146102e15780637da0a8771461032d575f80fd5b806313007d551461014b578063240c6f581461018757806324d7806c146101a65780632b13a7da146101d55780633000e8e4146101f65780633c9217491461022f575b5f80fd5b348015610156575f80fd5b5060015461016a906001600160a01b031681565b6040516001600160a01b0390911681526020015b60405180910390f35b348015610192575f80fd5b5061016a6101a13660046119ce565b61055a565b3480156101b1575f80fd5b506101c56101c0366004611a09565b61058e565b604051901515815260200161017e565b3480156101e0575f80fd5b506101e9610605565b60405161017e9190611a22565b348015610201575f80fd5b50610221610210366004611a09565b600a6020525f908152604090205481565b60405190815260200161017e565b34801561023a575f80fd5b50610221610249366004611a09565b6001600160a01b03165f9081526008602052604090205490565b610276610271366004611a6e565b61069d565b005b348015610283575f80fd5b50610221610292366004611a09565b60086020525f908152604090205481565b3480156102ae575f80fd5b506102766102bd366004611a09565b610773565b3480156102cd575f80fd5b506102766102dc366004611b3c565b6109e2565b3480156102ec575f80fd5b506101c56102fb366004611a09565b7f00000000000000000000000000000000000000000000000000000000000000006001600160a01b0390811691161490565b348015610338575f80fd5b507f000000000000000000000000000000000000000000000000000000000000000061016a565b34801561036a575f80fd5b5061037e610379366004611be2565b610bea565b60405161017e96959493929190611c3c565b34801561039b575f80fd5b506101c56103aa366004611cac565b610e40565b3480156103ba575f80fd5b506102766103c9366004611a09565b610ebb565b3480156103d9575f80fd5b506101c56103e8366004611ccd565b6112f1565b3480156103f8575f80fd5b506101c5610407366004611a6e565b600660209081525f928352604080842090915290825290205460ff1681565b348015610431575f80fd5b506101c5610440366004611a6e565b6001600160a01b038082165f9081526006602090815260408083209386168352929052205460ff1692915050565b348015610479575f80fd5b506101c5610488366004611cac565b600560209081525f928352604080842090915290825290205460ff1681565b3480156104b2575f80fd5b506102766104c1366004611a09565b611323565b3480156104d1575f80fd5b506102766104e0366004611a09565b6114e9565b3480156104f0575f80fd5b506102766117e0565b348015610504575f80fd5b50610221610513366004611a6e565b600760209081525f928352604080842090915290825290205481565b34801561053a575f80fd5b50610221610549366004611a09565b60026020525f908152604090205481565b6004602052815f5260405f208181548110610573575f80fd5b5f918252602090912001546001600160a01b03169150829050565b600154604051634f4bdc7b60e11b81525f916001600160a01b031690639e97b8f6906105c09084908690600401611cec565b602060405180830381865afa1580156105db573d5f803e3d5ffd5b505050506040513d601f19601f820116820180604052508101906105ff9190611d24565b92915050565b335f90815260026020526040812054606091819003610637576040516366df3a2760e11b815260040160405180910390fd5b5f818152600460209081526040918290208054835181840281018401909452808452909183018282801561069257602002820191905f5260205f20905b81546001600160a01b03168152600190910190602001808311610674575b505050505091505090565b345f036106bd576040516327738acf60e21b815260040160405180910390fd5b6001600160a01b0382165f9081526002602052604081205490036106f4576040516366df3a2760e11b815260040160405180910390fd5b6001600160a01b0382165f908152600a60205260408120805434929061071b908490611d57565b92505081905550806001600160a01b0316826001600160a01b03167f9b6a9eab72f220d1e3c93847882e5281dfe6c0f51e60c7d38383212c8d73f4283460405161076791815260200190565b60405180910390a35050565b6001546003906001600160a01b0316639e97b8f682610790611933565b6040518363ffffffff1660e01b81526004016107ad929190611cec565b602060405180830381865afa1580156107c8573d5f803e3d5ffd5b505050506040513d601f19601f820116820180604052508101906107ec9190611d24565b6108115760405162461bcd60e51b815260040161080890611d6a565b60405180910390fd5b60015f9054906101000a90046001600160a01b03166001600160a01b0316635c975abb6040518163ffffffff1660e01b8152600401602060405180830381865afa158015610861573d5f803e3d5ffd5b505050506040513d601f19601f820116820180604052508101906108859190611d24565b156108a25760405162461bcd60e51b815260040161080890611dab565b6001600160a01b0382166108c957604051630f827cad60e41b815260040160405180910390fd5b5f60025f6108d5611933565b6001600160a01b03166001600160a01b031681526020019081526020015f20549050805f03610917576040516366df3a2760e11b815260040160405180910390fd5b5f8181526005602090815260408083206001600160a01b038716845290915290205460ff161561095a57604051630ae142eb60e41b815260040160405180910390fd5b5f8181526004602090815260408083208054600180820183559185528385200180546001600160a01b0319166001600160a01b03891690811790915585855260058452828520818652909352818420805460ff1916909117905551909183917fb4004d986e056780079f39d5a9c407a2816a506dd01c580a911a793cd46121369190a3505050565b60025f6109ed611933565b6001600160a01b0316815260208101919091526040015f205415610a2457604051633ccce4fd60e21b815260040160405180910390fd5b60098054905f610a3383611de2565b919050555060095460025f610a46611933565b6001600160a01b03166001600160a01b031681526020019081526020015f20819055506040518060c001604052806009548152602001610a84611933565b6001600160a01b039081168252602080830188905260408084018890526060840187905260809093018590526009545f9081526003825283902084518155908401516001820180546001600160a01b0319169190931617909155908201516002820190610af19082611e80565b5060608201516003820190610b069082611e80565b5060808201516004820190610b1b9082611e80565b5060a08201516005820190610b309082611e80565b50905050610b3c611933565b6001600160a01b03166009547ff4f5917fdec8f2ae93dd79a5fe4b5b76c30534fb4abe4f82e84e8ed681b7de0a86604051610b779190611f3c565b60405180910390a36001546001600160a01b0316635d5664e16003610b9a611933565b6040518363ffffffff1660e01b8152600401610bb7929190611cec565b5f604051808303815f87803b158015610bce575f80fd5b505af1158015610be0573d5f803e3d5ffd5b5050505050505050565b60036020525f908152604090208054600182015460028301805492936001600160a01b0390921692610c1b90611dfa565b80601f0160208091040260200160405190810160405280929190818152602001828054610c4790611dfa565b8015610c925780601f10610c6957610100808354040283529160200191610c92565b820191905f5260205f20905b815481529060010190602001808311610c7557829003601f168201915b505050505090806003018054610ca790611dfa565b80601f0160208091040260200160405190810160405280929190818152602001828054610cd390611dfa565b8015610d1e5780601f10610cf557610100808354040283529160200191610d1e565b820191905f5260205f20905b815481529060010190602001808311610d0157829003601f168201915b505050505090806004018054610d3390611dfa565b80601f0160208091040260200160405190810160405280929190818152602001828054610d5f90611dfa565b8015610daa5780601f10610d8157610100808354040283529160200191610daa565b820191905f5260205f20905b815481529060010190602001808311610d8d57829003601f168201915b505050505090806005018054610dbf90611dfa565b80601f0160208091040260200160405190810160405280929190818152602001828054610deb90611dfa565b8015610e365780601f10610e0d57610100808354040283529160200191610e36565b820191905f5260205f20905b815481529060010190602001808311610e1957829003601f168201915b5050505050905086565b600154604051632474521560e21b8152600481018490526001600160a01b0383811660248301525f9216906391d14854906044015b602060405180830381865afa158015610e90573d5f803e3d5ffd5b505050506040513d601f19601f82011682018060405250810190610eb49190611d24565b9392505050565b6001546003906001600160a01b0316639e97b8f682610ed8611933565b6040518363ffffffff1660e01b8152600401610ef5929190611cec565b602060405180830381865afa158015610f10573d5f803e3d5ffd5b505050506040513d601f19601f82011682018060405250810190610f349190611d24565b610f505760405162461bcd60e51b815260040161080890611d6a565b60015f9054906101000a90046001600160a01b03166001600160a01b0316635c975abb6040518163ffffffff1660e01b8152600401602060405180830381865afa158015610fa0573d5f803e3d5ffd5b505050506040513d601f19601f82011682018060405250810190610fc49190611d24565b15610fe15760405162461bcd60e51b815260040161080890611dab565b6001600160a01b03821661100857604051630f827cad60e41b815260040160405180910390fd5b5f60025f611014611933565b6001600160a01b03166001600160a01b031681526020019081526020015f20549050805f03611056576040516366df3a2760e11b815260040160405180910390fd5b5f8181526005602090815260408083206001600160a01b038716845290915290205460ff1661109857604051633c5e2b1960e11b815260040160405180910390fd5b5f818152600460205260408120905b81548110156111a457846001600160a01b03168282815481106110cc576110cc611f4e565b5f918252602090912001546001600160a01b03160361119257815482906110f590600190611f62565b8154811061110557611105611f4e565b905f5260205f20015f9054906101000a90046001600160a01b031682828154811061113257611132611f4e565b905f5260205f20015f6101000a8154816001600160a01b0302191690836001600160a01b031602179055508180548061116d5761116d611f75565b5f8281526020902081015f1990810180546001600160a01b03191690550190556111a4565b8061119c81611de2565b9150506110a7565b505f8281526005602090815260408083206001600160a01b03881684529091528120805460ff191690556006906111d9611933565b6001600160a01b03908116825260208083019390935260409182015f9081209188168152925290205460ff16156112b6575f60065f611216611933565b6001600160a01b03908116825260208083019390935260409182015f908120918916815292528120805460ff191692151592909217909155600881611259611933565b6001600160a01b03166001600160a01b031681526020019081526020015f205411156112b65760085f61128a611933565b6001600160a01b0316815260208101919091526040015f9081208054916112b083611f89565b91905055505b6040516001600160a01b0385169083907fe6bf7779cd8f4ea698fdb4de7f9f88df29e86ccbeb9de3f687dca5ddb97c1fac905f90a350505050565b600154604051634f4bdc7b60e11b81525f916001600160a01b031690639e97b8f690610e759086908690600401611cec565b6001600160a01b0381165f90815260066020526040812090611343611933565b6001600160a01b0316815260208101919091526040015f205460ff1661137c57604051635be6b0cb60e01b815260040160405180910390fd5b6001600160a01b0381165f9081526007602052604081208161139c611933565b6001600160a01b0316815260208101919091526040015f9081205491506113c38242611f62565b6001600160a01b0384165f90815260066020526040812091925090816113e7611933565b6001600160a01b03908116825260208083019390935260409182015f908120805460ff19169515159590951790945586168352600790915281208161142a611933565b6001600160a01b03908116825260208083019390935260409182015f9081209490945586168352600890915290205415611487576001600160a01b0383165f90815260086020526040812080549161148183611f89565b91905055505b826001600160a01b0316611499611933565b6001600160a01b03167f4b9776d73203bd0da7c7b1980a0b2780e76d5d8d75748e80aba61472ce1c55f042846040516114dc929190918252602082015260400190565b60405180910390a3505050565b600180546001600160a01b0316639e97b8f682611504611933565b6040518363ffffffff1660e01b8152600401611521929190611cec565b602060405180830381865afa15801561153c573d5f803e3d5ffd5b505050506040513d601f19601f820116820180604052508101906115609190611d24565b61157c5760405162461bcd60e51b815260040161080890611d6a565b60015f9054906101000a90046001600160a01b03166001600160a01b0316635c975abb6040518163ffffffff1660e01b8152600401602060405180830381865afa1580156115cc573d5f803e3d5ffd5b505050506040513d601f19601f820116820180604052508101906115f09190611d24565b1561160d5760405162461bcd60e51b815260040161080890611dab565b6001600160a01b0382165f90815260026020526040812054908190036116465760405163891edff560e01b815260040160405180910390fd5b5f8181526005602052604081209061165c611933565b6001600160a01b0316815260208101919091526040015f205460ff1661169557604051633c5e2b1960e11b815260040160405180910390fd5b6001600160a01b0383165f908152600660205260408120906116b5611933565b6001600160a01b0316815260208101919091526040015f205460ff16156116ef57604051633cf948ed60e11b815260040160405180910390fd5b6001600160a01b0383165f908152600660205260408120600191611711611933565b6001600160a01b03908116825260208083019390935260409182015f908120805460ff19169515159590951790945586168352600790915281204291611755611933565b6001600160a01b03908116825260208083019390935260409182015f90812094909455861683526008909152812080549161178f83611de2565b9190505550826001600160a01b03166117a6611933565b6001600160a01b03167f17a827c421b15526e18fca41c387fa527301ef1552116e752b324afcd7cce19c426040516114dc91815260200190565b6117e86119a6565b5f600a5f6117f4611933565b6001600160a01b03166001600160a01b031681526020019081526020015f20549050805f0361183657604051636773e7e960e01b815260040160405180910390fd5b5f600a5f611842611933565b6001600160a01b03166001600160a01b031681526020019081526020015f20819055505f61186e611933565b6001600160a01b0316826040515f6040518083038185875af1925050503d805f81146118b5576040519150601f19603f3d011682016040523d82523d5f602084013e6118ba565b606091505b50509050806118dc576040516312171d8360e31b815260040160405180910390fd5b6118e4611933565b6001600160a01b03167f6a8d334a32dfb49dae325dba76deb51b0b8f5ea50b1cdfa70710f4dc1b9c24c58360405161191e91815260200190565b60405180910390a2505061193160015f55565b565b5f3660147f00000000000000000000000000000000000000000000000000000000000000006001600160a01b03163314801561196f5750808210155b1561199e575f366119808385611f62565b61198b928290611f9e565b61199491611fc5565b60601c9250505090565b339250505090565b60025f54036119c857604051633ee5aeb560e01b815260040160405180910390fd5b60025f55565b5f80604083850312156119df575f80fd5b50508035926020909101359150565b80356001600160a01b0381168114611a04575f80fd5b919050565b5f60208284031215611a19575f80fd5b610eb4826119ee565b602080825282518282018190525f9190848201906040850190845b81811015611a625783516001600160a01b031683529284019291840191600101611a3d565b50909695505050505050565b5f8060408385031215611a7f575f80fd5b611a88836119ee565b9150611a96602084016119ee565b90509250929050565b634e487b7160e01b5f52604160045260245ffd5b5f82601f830112611ac2575f80fd5b813567ffffffffffffffff80821115611add57611add611a9f565b604051601f8301601f19908116603f01168101908282118183101715611b0557611b05611a9f565b81604052838152866020858801011115611b1d575f80fd5b836020870160208301375f602085830101528094505050505092915050565b5f805f8060808587031215611b4f575f80fd5b843567ffffffffffffffff80821115611b66575f80fd5b611b7288838901611ab3565b95506020870135915080821115611b87575f80fd5b611b9388838901611ab3565b94506040870135915080821115611ba8575f80fd5b611bb488838901611ab3565b93506060870135915080821115611bc9575f80fd5b50611bd687828801611ab3565b91505092959194509250565b5f60208284031215611bf2575f80fd5b5035919050565b5f81518084525f5b81811015611c1d57602081850181015186830182015201611c01565b505f602082860101526020601f19601f83011685010191505092915050565b8681526001600160a01b038616602082015260c0604082018190525f90611c6590830187611bf9565b8281036060840152611c778187611bf9565b90508281036080840152611c8b8186611bf9565b905082810360a0840152611c9f8185611bf9565b9998505050505050505050565b5f8060408385031215611cbd575f80fd5b82359150611a96602084016119ee565b5f8060408385031215611cde575f80fd5b823560098110611a88575f80fd5b6040810160098410611d0c57634e487b7160e01b5f52602160045260245ffd5b9281526001600160a01b039190911660209091015290565b5f60208284031215611d34575f80fd5b81518015158114610eb4575f80fd5b634e487b7160e01b5f52601160045260245ffd5b808201808211156105ff576105ff611d43565b60208082526021908201527f416363657373436f6e74726f6c3a20726573747269637465642d746f2d726f6c6040820152606560f81b606082015260800190565b6020808252601b908201527f4d6564695365637572652050726f746f636f6c3a207061757365640000000000604082015260600190565b5f60018201611df357611df3611d43565b5060010190565b600181811c90821680611e0e57607f821691505b602082108103611e2c57634e487b7160e01b5f52602260045260245ffd5b50919050565b601f821115611e7b575f81815260208120601f850160051c81016020861015611e585750805b601f850160051c820191505b81811015611e7757828155600101611e64565b5050505b505050565b815167ffffffffffffffff811115611e9a57611e9a611a9f565b611eae81611ea88454611dfa565b84611e32565b602080601f831160018114611ee1575f8415611eca5750858301515b5f19600386901b1c1916600185901b178555611e77565b5f85815260208120601f198616915b82811015611f0f57888601518255948401946001909101908401611ef0565b5085821015611f2c57878501515f19600388901b60f8161c191681555b5050505050600190811b01905550565b602081525f610eb46020830184611bf9565b634e487b7160e01b5f52603260045260245ffd5b818103818111156105ff576105ff611d43565b634e487b7160e01b5f52603160045260245ffd5b5f81611f9757611f97611d43565b505f190190565b5f8085851115611fac575f80fd5b83861115611fb8575f80fd5b5050820193919092039150565b6bffffffffffffffffffffffff198135818116916014851015611ff25780818660140360031b1b83161692505b50509291505056fea2646970667358221220b5c21103894f1a70bf522d556d9fdd3fff801389c42b7a016b74d49668bfc59864736f6c63430008140033",
  "immutableReferences": {
    "4782": [
      {
        "length": 32,
        "start": 765
      },
      {
        "length": 32,
        "start": 827
      },
      {
        "length": 32,
        "start": 6457
      }
    ]
  },
  "source": "// SPDX-License-Identifier: MIT\r\npragma solidity ^0.8.20;\r\n\r\nimport \"@openzeppelin/contracts/utils/ReentrancyGuard.sol\";\r\nimport \"./common/MediSecureAuth.sol\";\r\nimport {Roles} from \"./MediSecureAccessControl.sol\";\r\n\r\n\r\n\r\ncontract Hospital is ReentrancyGuard, MediSecureAuth {\r\n    constructor(address _accessControl, address _trustedForwarder) \r\n        MediSecureAuth(_accessControl, _trustedForwarder) \r\n    {}\r\n\r\n\r\n    struct HospitalDetails {\r\n        uint256 id;\r\n        address walletAddress;\r\n        string name;\r\n        string email;\r\n        string location;\r\n        string registrationNumber;\r\n    }\r\n\r\n    // Custom Errors\r\n    error HospitalAlreadyRegistered();\r\n    error NotRegisteredHospital();\r\n    error DoctorAlreadyApproved();\r\n    error DoctorNotApproved();\r\n    error AlreadyOnDuty();\r\n    error NotOnDuty();\r\n    error NoEarningsToClaim();\r\n    error TransferFailed();\r\n    error InvalidDoctorAddress();\r\n    error InvalidHospitalAddress();\r\n    error NoValueSent();\r\n\r\n    mapping(address => uint256) public walletToHospitalId;\r\n    mapping(uint256 => HospitalDetails) public hospitals;\r\n    \r\n    // Hospital ID -> List of approved doctor addresses\r\n    mapping(uint256 => address[]) public hospitalDoctors;\r\n    // Helper to check if a doctor is approved by a specific hospital (Hospital ID -> Doctor Address -> Bool)\r\n    mapping(uint256 => mapping(address => bool)) public isDoctorApproved;\r\n\r\n    // Hospital Address -> Doctor Address -> Is On Duty\r\n    mapping(address => mapping(address => bool)) public doctorDutyStatus;\r\n    \r\n    // Hospital Address -> Doctor Address -> Shift Start Time\r\n    mapping(address => mapping(address => uint256)) public shiftStartTimes;\r\n\r\n    // Hospital Address -> Active Doctor Count\r\n    mapping(address => uint256) public hospitalActiveDoctorCount;\r\n\r\n    uint256 private hospitalIdCounter;\r\n\r\n    // Hospital address -> Accrued insurance payouts\r\n    mapping(address => uint256) public pendingEarnings;\r\n\r\n    // Events for Analytics\r\n    event LogPunchIn(address indexed doctor, address indexed hospital, uint256 timestamp);\r\n    event LogPunchOut(address indexed doctor, address indexed hospital, uint256 timestamp, uint256 duration);\r\n    \r\n    event HospitalRegistered(uint256 indexed id, address indexed wallet, string name);\r\n    event DoctorAdded(uint256 indexed hospitalId, address indexed doctor);\r\n    event DoctorRemoved(uint256 indexed hospitalId, address indexed doctor);\r\n    event SettlementReceived(address indexed hospital, address indexed patient, uint256 amount);\r\n    event EarningsClaimed(address indexed hospital, uint256 amount);\r\n\r\n    function registerHospital(\r\n        string memory name,\r\n        string memory email,\r\n        string memory location,\r\n        string memory registrationNumber\r\n    ) public {\r\n        if (walletToHospitalId[_msgSender()] != 0) revert HospitalAlreadyRegistered();\r\n\r\n        hospitalIdCounter++;\r\n        walletToHospitalId[_msgSender()] = hospitalIdCounter;\r\n\r\n        hospitals[hospitalIdCounter] = HospitalDetails({\r\n            id: hospitalIdCounter,\r\n            walletAddress: _msgSender(),\r\n            name: name,\r\n            email: email,\r\n            location: location,\r\n            registrationNumber: registrationNumber\r\n        });\r\n\r\n        emit HospitalRegistered(hospitalIdCounter, _msgSender(), name);\r\n\r\n        // Centralize access\r\n        accessControl.grantRole(Roles.HOSPITAL, _msgSender());\r\n    }\r\n\r\n    function addDoctor(address doctor) public onlyRoleName(Roles.HOSPITAL) {\r\n        if (doctor == address(0)) revert InvalidDoctorAddress();\r\n        uint256 hospitalId = walletToHospitalId[_msgSender()];\r\n        if (hospitalId == 0) revert NotRegisteredHospital();\r\n        if (isDoctorApproved[hospitalId][doctor]) revert DoctorAlreadyApproved();\r\n\r\n        hospitalDoctors[hospitalId].push(doctor);\r\n        isDoctorApproved[hospitalId][doctor] = true;\r\n\r\n        emit DoctorAdded(hospitalId, doctor);\r\n    }\r\n\r\n    function removeDoctor(address doctor) public onlyRoleName(Roles.HOSPITAL) {\r\n        if (doctor == address(0)) revert InvalidDoctorAddress();\r\n        uint256 hospitalId = walletToHospitalId[_msgSender()];\r\n        if (hospitalId == 0) revert NotRegisteredHospital();\r\n        if (!isDoctorApproved[hospitalId][doctor]) revert DoctorNotApproved();\r\n\r\n        // Remove from array (swap and pop)\r\n        address[] storage docs = hospitalDoctors[hospitalId];\r\n        for (uint256 i = 0; i < docs.length; i++) {\r\n            if (docs[i] == doctor) {\r\n                docs[i] = docs[docs.length - 1];\r\n                docs.pop();\r\n                break;\r\n            }\r\n        }\r\n        \r\n        isDoctorApproved[hospitalId][doctor] = false;\r\n        \r\n        // Force punch out if on duty?\r\n        if (doctorDutyStatus[_msgSender()][doctor]) {\r\n             doctorDutyStatus[_msgSender()][doctor] = false;\r\n             if (hospitalActiveDoctorCount[_msgSender()] > 0) {\r\n                hospitalActiveDoctorCount[_msgSender()]--;\r\n             }\r\n             // No log event for forced removal punchout? Or emit one with 0 duration?\r\n             // Let's just reset status.\r\n        }\r\n\r\n        emit DoctorRemoved(hospitalId, doctor);\r\n    }\r\n\r\n    // Register for emergency duty at a specific hospital\r\n    function punchIn(address hospitalAddress) public onlyRoleName(Roles.DOCTOR) {\r\n        uint256 hospitalId = walletToHospitalId[hospitalAddress];\r\n        if (hospitalId == 0) revert InvalidHospitalAddress();\r\n        if (!isDoctorApproved[hospitalId][_msgSender()]) revert DoctorNotApproved();\r\n        if (doctorDutyStatus[hospitalAddress][_msgSender()]) revert AlreadyOnDuty();\r\n\r\n        doctorDutyStatus[hospitalAddress][_msgSender()] = true;\r\n        shiftStartTimes[hospitalAddress][_msgSender()] = block.timestamp;\r\n        hospitalActiveDoctorCount[hospitalAddress]++;\r\n\r\n        emit LogPunchIn(_msgSender(), hospitalAddress, block.timestamp);\r\n    }\r\n\r\n    function punchOut(address hospitalAddress) public {\r\n        if (!doctorDutyStatus[hospitalAddress][_msgSender()]) revert NotOnDuty();\r\n\r\n        uint256 startTime = shiftStartTimes[hospitalAddress][_msgSender()];\r\n        uint256 duration = block.timestamp - startTime;\r\n\r\n        doctorDutyStatus[hospitalAddress][_msgSender()] = false;\r\n        shiftStartTimes[hospitalAddress][_msgSender()] = 0;\r\n        \r\n        if (hospitalActiveDoctorCount[hospitalAddress] > 0) {\r\n            hospitalActiveDoctorCount[hospitalAddress]--;\r\n        }\r\n\r\n        emit LogPunchOut(_msgSender(), hospitalAddress, block.timestamp, duration);\r\n    }\r\n\r\n    function isDoctorOnDuty(address doctor, address hospitalAddress) public view returns (bool) {\r\n         return doctorDutyStatus[hospitalAddress][doctor];\r\n    }\r\n    \r\n    /**\r\n     * @dev Called by authorized Insurance contracts to settle claims directly to the hospital.\r\n     */\r\n    function receiveSettlement(address _hospital, address _patient) external payable {\r\n        if (msg.value == 0) revert NoValueSent();\r\n        if (walletToHospitalId[_hospital] == 0) revert NotRegisteredHospital();\r\n        \r\n        pendingEarnings[_hospital] += msg.value;\r\n        emit SettlementReceived(_hospital, _patient, msg.value);\r\n    }\r\n\r\n    /**\r\n     * @dev Allows the hospital administrator to claim accumulated insurance payouts.\r\n     */\r\n    function claimEarnings() public nonReentrant {\r\n        uint256 amount = pendingEarnings[_msgSender()];\r\n        if (amount == 0) revert NoEarningsToClaim();\r\n\r\n        pendingEarnings[_msgSender()] = 0;\r\n        \r\n        (bool sent, ) = payable(_msgSender()).call{value: amount}(\"\");\r\n        if (!sent) revert TransferFailed();\r\n\r\n        emit EarningsClaimed(_msgSender(), amount);\r\n    }\r\n    \r\n    // Getters\r\n    function getHospitalDoctors() public view returns (address[] memory) {\r\n        uint256 hospitalId = walletToHospitalId[msg.sender];\r\n        if (hospitalId == 0) revert NotRegisteredHospital();\r\n        return hospitalDoctors[hospitalId];\r\n    }\r\n    \r\n    function getActiveDoctorCount(address hospitalAddress) public view returns (uint256) {\r\n        return hospitalActiveDoctorCount[hospitalAddress];\r\n    }\r\n}\r\n",
  "sourcePath": "C:\\Users\\night\\Downloads\\team-rocket-medi-secure\\team-rocket-medi-secure\\contracts\\contracts\\Hospital.sol",
  "compiler": {
    "name": "solc",
    "version": "0.8.20+commit.a1b79de6.Emscripten.clang"
  },
  "schemaVersion": "3.4.16",
  "updatedAt": "2026-04-24T10:38:39.736Z",
  "networkType": "ethereum",
  "devdoc": {
    "errors": {
      "ReentrancyGuardReentrantCall()": [
        {
          "details": "Unauthorized reentrant call."
        }
      ]
    },
    "kind": "dev",
    "methods": {
      "claimEarnings()": {
        "details": "Allows the hospital administrator to claim accumulated insurance payouts."
      },
      "isTrustedForwarder(address)": {
        "details": "Indicates whether any particular address is the trusted forwarder."
      },
      "receiveSettlement(address,address)": {
        "details": "Called by authorized Insurance contracts to settle claims directly to the hospital."
      },
      "trustedForwarder()": {
        "details": "Returns the address of the trusted forwarder."
      }
    },
    "version": 1
  },
  "userdoc": {
    "kind": "user",
    "methods": {},
    "version": 1
  }
}