{
  "contractName": "InsuranceFuzzTest",
  "abi": [
    {
      "inputs": [],
      "stateMutability": "nonpayable",
      "type": "constructor"
    },
    {
      "inputs": [
        {
          "internalType": "address",
          "name": "owner",
          "type": "address"
        }
      ],
      "name": "OwnableInvalidOwner",
      "type": "error"
    },
    {
      "inputs": [
        {
          "internalType": "address",
          "name": "account",
          "type": "address"
        }
      ],
      "name": "OwnableUnauthorizedAccount",
      "type": "error"
    },
    {
      "inputs": [],
      "name": "ReentrancyGuardReentrantCall",
      "type": "error"
    },
    {
      "anonymous": false,
      "inputs": [
        {
          "indexed": true,
          "internalType": "address",
          "name": "previousOwner",
          "type": "address"
        },
        {
          "indexed": true,
          "internalType": "address",
          "name": "newOwner",
          "type": "address"
        }
      ],
      "name": "OwnershipTransferred",
      "type": "event"
    },
    {
      "inputs": [
        {
          "internalType": "address",
          "name": "",
          "type": "address"
        }
      ],
      "name": "isProvider",
      "outputs": [
        {
          "internalType": "bool",
          "name": "",
          "type": "bool"
        }
      ],
      "stateMutability": "view",
      "type": "function"
    },
    {
      "inputs": [],
      "name": "lastPatient",
      "outputs": [
        {
          "internalType": "address",
          "name": "",
          "type": "address"
        }
      ],
      "stateMutability": "view",
      "type": "function"
    },
    {
      "inputs": [],
      "name": "lastPolicyId",
      "outputs": [
        {
          "internalType": "uint256",
          "name": "",
          "type": "uint256"
        }
      ],
      "stateMutability": "view",
      "type": "function"
    },
    {
      "inputs": [],
      "name": "lastProvider",
      "outputs": [
        {
          "internalType": "address",
          "name": "",
          "type": "address"
        }
      ],
      "stateMutability": "view",
      "type": "function"
    },
    {
      "inputs": [],
      "name": "lastRequestId",
      "outputs": [
        {
          "internalType": "uint256",
          "name": "",
          "type": "uint256"
        }
      ],
      "stateMutability": "view",
      "type": "function"
    },
    {
      "inputs": [],
      "name": "owner",
      "outputs": [
        {
          "internalType": "address",
          "name": "",
          "type": "address"
        }
      ],
      "stateMutability": "view",
      "type": "function"
    },
    {
      "inputs": [
        {
          "internalType": "address",
          "name": "",
          "type": "address"
        },
        {
          "internalType": "uint256",
          "name": "",
          "type": "uint256"
        }
      ],
      "name": "patientRequestIds",
      "outputs": [
        {
          "internalType": "uint256",
          "name": "",
          "type": "uint256"
        }
      ],
      "stateMutability": "view",
      "type": "function"
    },
    {
      "inputs": [
        {
          "internalType": "uint256",
          "name": "",
          "type": "uint256"
        }
      ],
      "name": "policyActive",
      "outputs": [
        {
          "internalType": "bool",
          "name": "",
          "type": "bool"
        }
      ],
      "stateMutability": "view",
      "type": "function"
    },
    {
      "inputs": [],
      "name": "policyCount",
      "outputs": [
        {
          "internalType": "uint256",
          "name": "",
          "type": "uint256"
        }
      ],
      "stateMutability": "view",
      "type": "function"
    },
    {
      "inputs": [
        {
          "internalType": "address",
          "name": "",
          "type": "address"
        },
        {
          "internalType": "uint256",
          "name": "",
          "type": "uint256"
        }
      ],
      "name": "providerPolicyIds",
      "outputs": [
        {
          "internalType": "uint256",
          "name": "",
          "type": "uint256"
        }
      ],
      "stateMutability": "view",
      "type": "function"
    },
    {
      "inputs": [],
      "name": "renounceOwnership",
      "outputs": [],
      "stateMutability": "nonpayable",
      "type": "function"
    },
    {
      "inputs": [],
      "name": "requestCount",
      "outputs": [
        {
          "internalType": "uint256",
          "name": "",
          "type": "uint256"
        }
      ],
      "stateMutability": "view",
      "type": "function"
    },
    {
      "inputs": [
        {
          "internalType": "uint256",
          "name": "",
          "type": "uint256"
        }
      ],
      "name": "requestFinalized",
      "outputs": [
        {
          "internalType": "bool",
          "name": "",
          "type": "bool"
        }
      ],
      "stateMutability": "view",
      "type": "function"
    },
    {
      "inputs": [
        {
          "internalType": "uint256",
          "name": "",
          "type": "uint256"
        }
      ],
      "name": "requestVerified",
      "outputs": [
        {
          "internalType": "bool",
          "name": "",
          "type": "bool"
        }
      ],
      "stateMutability": "view",
      "type": "function"
    },
    {
      "inputs": [
        {
          "internalType": "address",
          "name": "newOwner",
          "type": "address"
        }
      ],
      "name": "transferOwnership",
      "outputs": [],
      "stateMutability": "nonpayable",
      "type": "function"
    },
    {
      "inputs": [],
      "name": "zkpVerifier",
      "outputs": [
        {
          "internalType": "address",
          "name": "",
          "type": "address"
        }
      ],
      "stateMutability": "view",
      "type": "function"
    },
    {
      "inputs": [
        {
          "internalType": "address",
          "name": "_provider",
          "type": "address"
        }
      ],
      "name": "registerProvider",
      "outputs": [],
      "stateMutability": "nonpayable",
      "type": "function"
    },
    {
      "inputs": [
        {
          "internalType": "address",
          "name": "_provider",
          "type": "address"
        }
      ],
      "name": "createPolicy",
      "outputs": [],
      "stateMutability": "nonpayable",
      "type": "function"
    },
    {
      "inputs": [
        {
          "internalType": "address",
          "name": "_patient",
          "type": "address"
        },
        {
          "internalType": "address",
          "name": "_provider",
          "type": "address"
        }
      ],
      "name": "createRequest",
      "outputs": [],
      "stateMutability": "nonpayable",
      "type": "function"
    },
    {
      "inputs": [],
      "name": "invariant_finalized_must_be_verified",
      "outputs": [],
      "stateMutability": "view",
      "type": "function"
    },
    {
      "inputs": [],
      "name": "invariant_active_policy_has_provider",
      "outputs": [],
      "stateMutability": "view",
      "type": "function"
    },
    {
      "inputs": [],
      "name": "invariant_request_bounds",
      "outputs": [],
      "stateMutability": "view",
      "type": "function"
    },
    {
      "inputs": [],
      "name": "invariant_verifier_consistency",
      "outputs": [],
      "stateMutability": "view",
      "type": "function"
    },
    {
      "inputs": [
        {
          "internalType": "uint256",
          "name": "_requestId",
          "type": "uint256"
        },
        {
          "internalType": "bool",
          "name": "_eligible",
          "type": "bool"
        }
      ],
      "name": "fuzz_submitProof",
      "outputs": [],
      "stateMutability": "nonpayable",
      "type": "function"
    },
    {
      "inputs": [
        {
          "internalType": "uint256",
          "name": "_requestId",
          "type": "uint256"
        },
        {
          "internalType": "address",
          "name": "_provider",
          "type": "address"
        }
      ],
      "name": "fuzz_finalize",
      "outputs": [],
      "stateMutability": "nonpayable",
      "type": "function"
    },
    {
      "inputs": [
        {
          "internalType": "address",
          "name": "_verifier",
          "type": "address"
        }
      ],
      "name": "fuzz_setVerifier",
      "outputs": [],
      "stateMutability": "nonpayable",
      "type": "function"
    }
  ],
  "bytecode": "0x60806040525f60088190556009819055600b819055600c55600d80546001600160a01b0319908116909155600e8054909116905534801561003e575f80fd5b5060015f55338061006857604051631e4fbdf760e01b81525f600482015260240160405180910390fd5b61007181610077565b506100c8565b600180546001600160a01b038381166001600160a01b0319831681179093556040519116919082907f8be0079c531659141344cd1fd0a4f28419497f9722a3daafe3b4186f6b6457e0905f90a35050565b610888806100d55f395ff3fe608060405234801561000f575f80fd5b5060043610610187575f3560e01c8063825716ca116100d9578063b6eef60211610093578063ebb92b401161006e578063ebb92b4014610359578063f2fde38b14610361578063f8530d5a14610374578063fc2a88c314610396575f80fd5b8063b6eef6021461032a578063de54d4291461033d578063ea29a48414610346575f80fd5b8063825716ca146102c95780638c5f27a0146102eb5780638da5cb5b146102fe578063915799f21461030f57806394b69efb146103175780639978e0d01461018b575f80fd5b806335bba935116101445780635badbe4c1161011f5780635badbe4c146102835780636aebbd661461028c5780636b074a071461029f578063715018a6146102c1575f80fd5b806335bba935146102355780634a096d2b1461023e5780635951a0e114610270575f80fd5b8063065817fb1461018b5780630e2600161461018d5780631dc3533b146101be57806328195898146101e45780632a9220de146101f75780632d609baf1461020a575b5f80fd5b005b61018b61019b366004610737565b6001600160a01b03165f908152600260205260409020805460ff19166001179055565b6101d16101cc366004610757565b6103a1565b6040519081526020015b60405180910390f35b61018b6101f236600461077f565b6103cc565b61018b610205366004610737565b61041b565b600e5461021d906001600160a01b031681565b6040516001600160a01b0390911681526020016101db565b6101d1600b5481565b61026061024c3660046107b1565b60036020525f908152604090205460ff1681565b60405190151581526020016101db565b61018b61027e3660046107c8565b610451565b6101d160095481565b600a5461021d906001600160a01b031681565b6102606102ad366004610737565b60026020525f908152604090205460ff1681565b61018b6104e9565b6102606102d73660046107b1565b60056020525f908152604090205460ff1681565b600d5461021d906001600160a01b031681565b6001546001600160a01b031661021d565b61018b6104fa565b61018b6103253660046107f9565b610550565b61018b610338366004610737565b6105bb565b6101d160085481565b6101d1610354366004610757565b61061f565b61018b610638565b61018b61036f366004610737565b61065f565b6102606103823660046107b1565b60046020525f908152604090205460ff1681565b6101d1600c5481565b565b6007602052815f5260405f2081815481106103ba575f80fd5b905f5260205f20015f91509150505481565b5f821180156103dd57506009548211155b15610417578080156103f95750600e546001600160a01b031615155b15610417575f828152600460205260409020805460ff191660011790555b5050565b61042361069e565b6001600160a01b0381161561044e57600a80546001600160a01b0319166001600160a01b0383161790555b50565b60098054905f6104608361081a565b9091555050600980545f908152600460209081526040808320805460ff199081169091558454845260058352818420805490911690556001600160a01b03958616808452600783529083208454815460018101835591855292909320909201559054600c55600e80546001600160a01b03199081169092179055600d8054929093169116179055565b6104f161069e565b61039f5f6106cb565b60015b600954811161044e575f8181526005602052604090205460ff161561053e575f8181526004602052604090205460ff16151560011461053e5761053e61083e565b806105488161081a565b9150506104fd565b5f8211801561056157506009548211155b801561058457506001600160a01b0381165f9081526002602052604090205460ff165b15610417575f8281526004602052604090205460ff1615610417575f828152600560205260409020805460ff191660011790555050565b60088054905f6105ca8361081a565b9091555050600880545f908152600360209081526040808320805460ff191660019081179091556001600160a01b03909516835260068252822083548154958601825590835291209092019190915554600b55565b6006602052815f5260405f2081815481106103ba575f80fd5b60015b600854811161044e575f8190526003602052806106578161081a565b91505061063b565b61066761069e565b6001600160a01b03811661069557604051631e4fbdf760e01b81525f60048201526024015b60405180910390fd5b61044e816106cb565b6001546001600160a01b0316331461039f5760405163118cdaa760e01b815233600482015260240161068c565b600180546001600160a01b038381166001600160a01b0319831681179093556040519116919082907f8be0079c531659141344cd1fd0a4f28419497f9722a3daafe3b4186f6b6457e0905f90a35050565b80356001600160a01b0381168114610732575f80fd5b919050565b5f60208284031215610747575f80fd5b6107508261071c565b9392505050565b5f8060408385031215610768575f80fd5b6107718361071c565b946020939093013593505050565b5f8060408385031215610790575f80fd5b82359150602083013580151581146107a6575f80fd5b809150509250929050565b5f602082840312156107c1575f80fd5b5035919050565b5f80604083850312156107d9575f80fd5b6107e28361071c565b91506107f06020840161071c565b90509250929050565b5f806040838503121561080a575f80fd5b823591506107f06020840161071c565b5f6001820161083757634e487b7160e01b5f52601160045260245ffd5b5060010190565b634e487b7160e01b5f52600160045260245ffdfea26469706673582212208da9650ac06f186c55a9b632a6c560834a3ad7d5596b2285c0434e87622e1d2e64736f6c63430008140033",
  "immutableReferences": {},
  "source": "// SPDX-License-Identifier: MIT\r\npragma solidity ^0.8.20;\r\n\r\nimport \"@openzeppelin/contracts/utils/ReentrancyGuard.sol\";\r\nimport \"@openzeppelin/contracts/access/Ownable.sol\";\r\n\r\n/**\r\n * @title InsuranceFuzzTest\r\n * @dev Echidna fuzz testing contract for Insurance properties.\r\n * @notice This contract tests invariants that should always hold.\r\n */\r\ncontract InsuranceFuzzTest is ReentrancyGuard, Ownable {\r\n    // State Variables\r\n    mapping(address => bool) public isProvider;\r\n    mapping(uint256 => bool) public policyActive;\r\n    mapping(uint256 => bool) public requestVerified;\r\n    mapping(uint256 => bool) public requestFinalized;\r\n    mapping(address => uint256[]) public providerPolicyIds;\r\n    mapping(address => uint256[]) public patientRequestIds;\r\n    \r\n    uint256 public policyCount = 0;\r\n    uint256 public requestCount = 0;\r\n    \r\n    address public zkpVerifier;\r\n\r\n    // Test state\r\n    uint256 public lastPolicyId = 0;\r\n    uint256 public lastRequestId = 0;\r\n    address public lastProvider = address(0);\r\n    address public lastPatient = address(0);\r\n\r\n    constructor() Ownable(msg.sender) {}\r\n\r\n    // --- Helper Functions (Fuzz Testing) ---\r\n\r\n    /**\r\n     * @dev Helper to register a provider for testing.\r\n     */\r\n    function registerProvider(address _provider) public {\r\n        isProvider[_provider] = true;\r\n    }\r\n\r\n    /**\r\n     * @dev Helper to create a policy for testing.\r\n     */\r\n    function createPolicy(address _provider) public {\r\n        policyCount++;\r\n        policyActive[policyCount] = true;\r\n        providerPolicyIds[_provider].push(policyCount);\r\n        lastPolicyId = policyCount;\r\n    }\r\n\r\n    /**\r\n     * @dev Helper to create a request for testing.\r\n     */\r\n    function createRequest(address _patient, address _provider) public {\r\n        requestCount++;\r\n        requestVerified[requestCount] = false;\r\n        requestFinalized[requestCount] = false;\r\n        patientRequestIds[_patient].push(requestCount);\r\n        lastRequestId = requestCount;\r\n        lastPatient = _patient;\r\n        lastProvider = _provider;\r\n    }\r\n\r\n    // --- Invariants (Properties to Test) ---\r\n\r\n    /**\r\n     * @dev Invariant: A finalized request must have been verified first.\r\n     * @notice This should never revert - tested by Echidna.\r\n     */\r\n    function invariant_finalized_must_be_verified() public view {\r\n        for (uint256 i = 1; i <= requestCount; i++) {\r\n            if (requestFinalized[i]) {\r\n                assert(requestVerified[i] == true);\r\n            }\r\n        }\r\n    }\r\n\r\n    /**\r\n     * @dev Invariant: Active policies must have valid provider.\r\n     */\r\n    function invariant_active_policy_has_provider() public view {\r\n        for (uint256 i = 1; i <= policyCount; i++) {\r\n            if (policyActive[i]) {\r\n                // This is a simplified check - in real contract, policy has provider field\r\n            }\r\n        }\r\n    }\r\n\r\n    /**\r\n     * @dev Invariant: Patient requests cannot exceed reasonable bounds.\r\n     */\r\n    function invariant_request_bounds() public view {\r\n        assert(requestCount >= 0);\r\n        assert(policyCount >= 0);\r\n    }\r\n\r\n    /**\r\n     * @dev Invariant: Verifier address can be set but never to zero once set.\r\n     */\r\n    function invariant_verifier_consistency() public view {\r\n        // If verifier is set, it should remain set (not be reset to zero)\r\n    }\r\n\r\n    // --- State Transition Functions (Fuzzing) ---\r\n\r\n    /**\r\n     * @dev Fuzz: Submit insurance proof.\r\n     */\r\n    function fuzz_submitProof(uint256 _requestId, bool _eligible) public {\r\n        if (_requestId > 0 && _requestId <= requestCount) {\r\n            if (_eligible && lastPatient != address(0)) {\r\n                requestVerified[_requestId] = true;\r\n            }\r\n        }\r\n    }\r\n\r\n    /**\r\n     * @dev Fuzz: Finalize policy.\r\n     */\r\n    function fuzz_finalize(uint256 _requestId, address _provider) public {\r\n        if (_requestId > 0 && _requestId <= requestCount && isProvider[_provider]) {\r\n            if (requestVerified[_requestId]) {\r\n                requestFinalized[_requestId] = true;\r\n            }\r\n        }\r\n    }\r\n\r\n    /**\r\n     * @dev Fuzz: Update verifier.\r\n     */\r\n    function fuzz_setVerifier(address _verifier) public onlyOwner {\r\n        if (_verifier != address(0)) {\r\n            zkpVerifier = _verifier;\r\n        }\r\n    }\r\n}",
  "sourcePath": "C:\\Users\\night\\Downloads\\team-rocket-medi-secure\\team-rocket-medi-secure\\contracts\\contracts\\InsuranceFuzzTest.sol",
  "compiler": {
    "name": "solc",
    "version": "0.8.20+commit.a1b79de6.Emscripten.clang"
  },
  "schemaVersion": "3.4.16",
  "updatedAt": "2026-04-24T10:38:31.072Z",
  "devdoc": {
    "details": "Echidna fuzz testing contract for Insurance properties.",
    "errors": {
      "OwnableInvalidOwner(address)": [
        {
          "details": "The owner is not a valid owner account. (eg. `address(0)`)"
        }
      ],
      "OwnableUnauthorizedAccount(address)": [
        {
          "details": "The caller account is not authorized to perform an operation."
        }
      ],
      "ReentrancyGuardReentrantCall()": [
        {
          "details": "Unauthorized reentrant call."
        }
      ]
    },
    "kind": "dev",
    "methods": {
      "createPolicy(address)": {
        "details": "Helper to create a policy for testing."
      },
      "createRequest(address,address)": {
        "details": "Helper to create a request for testing."
      },
      "fuzz_finalize(uint256,address)": {
        "details": "Fuzz: Finalize policy."
      },
      "fuzz_setVerifier(address)": {
        "details": "Fuzz: Update verifier."
      },
      "fuzz_submitProof(uint256,bool)": {
        "details": "Fuzz: Submit insurance proof."
      },
      "invariant_active_policy_has_provider()": {
        "details": "Invariant: Active policies must have valid provider."
      },
      "invariant_finalized_must_be_verified()": {
        "details": "Invariant: A finalized request must have been verified first."
      },
      "invariant_request_bounds()": {
        "details": "Invariant: Patient requests cannot exceed reasonable bounds."
      },
      "invariant_verifier_consistency()": {
        "details": "Invariant: Verifier address can be set but never to zero once set."
      },
      "owner()": {
        "details": "Returns the address of the current owner."
      },
      "registerProvider(address)": {
        "details": "Helper to register a provider for testing."
      },
      "renounceOwnership()": {
        "details": "Leaves the contract without owner. It will not be possible to call `onlyOwner` functions. Can only be called by the current owner. NOTE: Renouncing ownership will leave the contract without an owner, thereby disabling any functionality that is only available to the owner."
      },
      "transferOwnership(address)": {
        "details": "Transfers ownership of the contract to a new account (`newOwner`). Can only be called by the current owner."
      }
    },
    "title": "InsuranceFuzzTest",
    "version": 1
  },
  "userdoc": {
    "kind": "user",
    "methods": {
      "invariant_finalized_must_be_verified()": {
        "notice": "This should never revert - tested by Echidna."
      }
    },
    "notice": "This contract tests invariants that should always hold.",
    "version": 1
  }
}