{
  "contractName": "InsuranceUpgradeable",
  "abi": [
    {
      "inputs": [
        {
          "internalType": "address",
          "name": "_forwarder",
          "type": "address"
        }
      ],
      "stateMutability": "nonpayable",
      "type": "constructor"
    },
    {
      "inputs": [
        {
          "internalType": "address",
          "name": "target",
          "type": "address"
        }
      ],
      "name": "AddressEmptyCode",
      "type": "error"
    },
    {
      "inputs": [
        {
          "internalType": "address",
          "name": "implementation",
          "type": "address"
        }
      ],
      "name": "ERC1967InvalidImplementation",
      "type": "error"
    },
    {
      "inputs": [],
      "name": "ERC1967NonPayable",
      "type": "error"
    },
    {
      "inputs": [],
      "name": "EnforcedPause",
      "type": "error"
    },
    {
      "inputs": [],
      "name": "ExpectedPause",
      "type": "error"
    },
    {
      "inputs": [],
      "name": "FailedInnerCall",
      "type": "error"
    },
    {
      "inputs": [],
      "name": "InvalidInitialization",
      "type": "error"
    },
    {
      "inputs": [],
      "name": "NotInitializing",
      "type": "error"
    },
    {
      "inputs": [],
      "name": "ReentrancyGuardReentrantCall",
      "type": "error"
    },
    {
      "inputs": [],
      "name": "UUPSUnauthorizedCallContext",
      "type": "error"
    },
    {
      "inputs": [
        {
          "internalType": "bytes32",
          "name": "slot",
          "type": "bytes32"
        }
      ],
      "name": "UUPSUnsupportedProxiableUUID",
      "type": "error"
    },
    {
      "anonymous": false,
      "inputs": [
        {
          "indexed": true,
          "internalType": "uint256",
          "name": "claimId",
          "type": "uint256"
        },
        {
          "indexed": false,
          "internalType": "string",
          "name": "status",
          "type": "string"
        }
      ],
      "name": "ClaimProcessed",
      "type": "event"
    },
    {
      "anonymous": false,
      "inputs": [
        {
          "indexed": true,
          "internalType": "uint256",
          "name": "claimId",
          "type": "uint256"
        },
        {
          "indexed": true,
          "internalType": "address",
          "name": "patient",
          "type": "address"
        },
        {
          "indexed": false,
          "internalType": "address",
          "name": "provider",
          "type": "address"
        },
        {
          "indexed": false,
          "internalType": "string",
          "name": "procedure",
          "type": "string"
        },
        {
          "indexed": false,
          "internalType": "bytes32",
          "name": "evidenceHash",
          "type": "bytes32"
        }
      ],
      "name": "ClaimSubmitted",
      "type": "event"
    },
    {
      "anonymous": false,
      "inputs": [
        {
          "indexed": false,
          "internalType": "uint64",
          "name": "version",
          "type": "uint64"
        }
      ],
      "name": "Initialized",
      "type": "event"
    },
    {
      "anonymous": false,
      "inputs": [
        {
          "indexed": true,
          "internalType": "uint256",
          "name": "requestId",
          "type": "uint256"
        },
        {
          "indexed": true,
          "internalType": "address",
          "name": "provider",
          "type": "address"
        },
        {
          "indexed": false,
          "internalType": "uint256",
          "name": "discountPremium",
          "type": "uint256"
        }
      ],
      "name": "InsuranceProofVerified",
      "type": "event"
    },
    {
      "anonymous": false,
      "inputs": [
        {
          "indexed": true,
          "internalType": "address",
          "name": "wallet",
          "type": "address"
        },
        {
          "indexed": false,
          "internalType": "string",
          "name": "name",
          "type": "string"
        }
      ],
      "name": "InsuranceProviderRegistered",
      "type": "event"
    },
    {
      "anonymous": false,
      "inputs": [
        {
          "indexed": true,
          "internalType": "uint256",
          "name": "requestId",
          "type": "uint256"
        },
        {
          "indexed": true,
          "internalType": "address",
          "name": "patient",
          "type": "address"
        },
        {
          "indexed": false,
          "internalType": "address",
          "name": "provider",
          "type": "address"
        },
        {
          "indexed": false,
          "internalType": "uint256",
          "name": "policyId",
          "type": "uint256"
        }
      ],
      "name": "InsuranceQuoteRequested",
      "type": "event"
    },
    {
      "anonymous": false,
      "inputs": [
        {
          "indexed": false,
          "internalType": "address",
          "name": "account",
          "type": "address"
        }
      ],
      "name": "Paused",
      "type": "event"
    },
    {
      "anonymous": false,
      "inputs": [
        {
          "indexed": true,
          "internalType": "uint256",
          "name": "policyId",
          "type": "uint256"
        },
        {
          "indexed": true,
          "internalType": "address",
          "name": "provider",
          "type": "address"
        },
        {
          "indexed": false,
          "internalType": "string",
          "name": "name",
          "type": "string"
        }
      ],
      "name": "PolicyCreated",
      "type": "event"
    },
    {
      "anonymous": false,
      "inputs": [
        {
          "indexed": true,
          "internalType": "uint256",
          "name": "requestId",
          "type": "uint256"
        },
        {
          "indexed": true,
          "internalType": "address",
          "name": "patient",
          "type": "address"
        },
        {
          "indexed": true,
          "internalType": "address",
          "name": "provider",
          "type": "address"
        }
      ],
      "name": "PolicyFinalized",
      "type": "event"
    },
    {
      "anonymous": false,
      "inputs": [
        {
          "indexed": false,
          "internalType": "address",
          "name": "account",
          "type": "address"
        }
      ],
      "name": "Unpaused",
      "type": "event"
    },
    {
      "anonymous": false,
      "inputs": [
        {
          "indexed": true,
          "internalType": "address",
          "name": "implementation",
          "type": "address"
        }
      ],
      "name": "Upgraded",
      "type": "event"
    },
    {
      "inputs": [],
      "name": "UPGRADE_INTERFACE_VERSION",
      "outputs": [
        {
          "internalType": "string",
          "name": "",
          "type": "string"
        }
      ],
      "stateMutability": "view",
      "type": "function"
    },
    {
      "inputs": [],
      "name": "accessControl",
      "outputs": [
        {
          "internalType": "contract MediSecureAccessControl",
          "name": "",
          "type": "address"
        }
      ],
      "stateMutability": "view",
      "type": "function"
    },
    {
      "inputs": [
        {
          "internalType": "uint256",
          "name": "",
          "type": "uint256"
        }
      ],
      "name": "claims",
      "outputs": [
        {
          "internalType": "address",
          "name": "patient",
          "type": "address"
        },
        {
          "internalType": "address",
          "name": "provider",
          "type": "address"
        },
        {
          "internalType": "address",
          "name": "hospitalAddress",
          "type": "address"
        },
        {
          "internalType": "string",
          "name": "procedureName",
          "type": "string"
        },
        {
          "internalType": "uint256",
          "name": "amount",
          "type": "uint256"
        },
        {
          "internalType": "bytes32",
          "name": "evidenceHash",
          "type": "bytes32"
        },
        {
          "internalType": "bool",
          "name": "isSettled",
          "type": "bool"
        },
        {
          "internalType": "string",
          "name": "status",
          "type": "string"
        },
        {
          "internalType": "uint256",
          "name": "timestamp",
          "type": "uint256"
        }
      ],
      "stateMutability": "view",
      "type": "function"
    },
    {
      "inputs": [
        {
          "internalType": "bytes32",
          "name": "role",
          "type": "bytes32"
        },
        {
          "internalType": "address",
          "name": "account",
          "type": "address"
        }
      ],
      "name": "hasRole",
      "outputs": [
        {
          "internalType": "bool",
          "name": "",
          "type": "bool"
        }
      ],
      "stateMutability": "view",
      "type": "function"
    },
    {
      "inputs": [
        {
          "internalType": "enum Roles",
          "name": "role",
          "type": "uint8"
        },
        {
          "internalType": "address",
          "name": "account",
          "type": "address"
        }
      ],
      "name": "hasRole",
      "outputs": [
        {
          "internalType": "bool",
          "name": "",
          "type": "bool"
        }
      ],
      "stateMutability": "view",
      "type": "function"
    },
    {
      "inputs": [
        {
          "internalType": "address",
          "name": "",
          "type": "address"
        }
      ],
      "name": "insuranceProviders",
      "outputs": [
        {
          "internalType": "string",
          "name": "name",
          "type": "string"
        },
        {
          "internalType": "bool",
          "name": "isActive",
          "type": "bool"
        },
        {
          "internalType": "uint256",
          "name": "policyCount",
          "type": "uint256"
        }
      ],
      "stateMutability": "view",
      "type": "function"
    },
    {
      "inputs": [
        {
          "internalType": "uint256",
          "name": "",
          "type": "uint256"
        }
      ],
      "name": "insuranceRequests",
      "outputs": [
        {
          "internalType": "address",
          "name": "patient",
          "type": "address"
        },
        {
          "internalType": "address",
          "name": "provider",
          "type": "address"
        },
        {
          "internalType": "uint256",
          "name": "policyId",
          "type": "uint256"
        },
        {
          "internalType": "uint256",
          "name": "finalPremium",
          "type": "uint256"
        },
        {
          "internalType": "bool",
          "name": "isVerified",
          "type": "bool"
        },
        {
          "internalType": "bool",
          "name": "isFinalized",
          "type": "bool"
        }
      ],
      "stateMutability": "view",
      "type": "function"
    },
    {
      "inputs": [
        {
          "internalType": "address",
          "name": "account",
          "type": "address"
        }
      ],
      "name": "isAdmin",
      "outputs": [
        {
          "internalType": "bool",
          "name": "",
          "type": "bool"
        }
      ],
      "stateMutability": "view",
      "type": "function"
    },
    {
      "inputs": [
        {
          "internalType": "address",
          "name": "forwarder",
          "type": "address"
        }
      ],
      "name": "isTrustedForwarder",
      "outputs": [
        {
          "internalType": "bool",
          "name": "",
          "type": "bool"
        }
      ],
      "stateMutability": "view",
      "type": "function"
    },
    {
      "inputs": [
        {
          "internalType": "address",
          "name": "",
          "type": "address"
        },
        {
          "internalType": "uint256",
          "name": "",
          "type": "uint256"
        }
      ],
      "name": "patientPolicyIds",
      "outputs": [
        {
          "internalType": "uint256",
          "name": "",
          "type": "uint256"
        }
      ],
      "stateMutability": "view",
      "type": "function"
    },
    {
      "inputs": [],
      "name": "paused",
      "outputs": [
        {
          "internalType": "bool",
          "name": "",
          "type": "bool"
        }
      ],
      "stateMutability": "view",
      "type": "function"
    },
    {
      "inputs": [
        {
          "internalType": "uint256",
          "name": "",
          "type": "uint256"
        }
      ],
      "name": "policies",
      "outputs": [
        {
          "internalType": "string",
          "name": "name",
          "type": "string"
        },
        {
          "internalType": "uint256",
          "name": "basePremium",
          "type": "uint256"
        },
        {
          "internalType": "bool",
          "name": "isActive",
          "type": "bool"
        },
        {
          "internalType": "uint256",
          "name": "minAge",
          "type": "uint256"
        },
        {
          "internalType": "uint256",
          "name": "maxAge",
          "type": "uint256"
        },
        {
          "internalType": "uint256",
          "name": "coverageAmount",
          "type": "uint256"
        }
      ],
      "stateMutability": "view",
      "type": "function"
    },
    {
      "inputs": [
        {
          "internalType": "address",
          "name": "",
          "type": "address"
        },
        {
          "internalType": "uint256",
          "name": "",
          "type": "uint256"
        }
      ],
      "name": "providerClaims",
      "outputs": [
        {
          "internalType": "uint256",
          "name": "",
          "type": "uint256"
        }
      ],
      "stateMutability": "view",
      "type": "function"
    },
    {
      "inputs": [],
      "name": "proxiableUUID",
      "outputs": [
        {
          "internalType": "bytes32",
          "name": "",
          "type": "bytes32"
        }
      ],
      "stateMutability": "view",
      "type": "function"
    },
    {
      "inputs": [],
      "name": "trustedForwarder",
      "outputs": [
        {
          "internalType": "address",
          "name": "",
          "type": "address"
        }
      ],
      "stateMutability": "view",
      "type": "function"
    },
    {
      "inputs": [
        {
          "internalType": "address",
          "name": "newImplementation",
          "type": "address"
        },
        {
          "internalType": "bytes",
          "name": "data",
          "type": "bytes"
        }
      ],
      "name": "upgradeToAndCall",
      "outputs": [],
      "stateMutability": "payable",
      "type": "function"
    },
    {
      "inputs": [],
      "name": "zkpVerifier",
      "outputs": [
        {
          "internalType": "address",
          "name": "",
          "type": "address"
        }
      ],
      "stateMutability": "view",
      "type": "function"
    },
    {
      "inputs": [
        {
          "internalType": "address",
          "name": "_accessControl",
          "type": "address"
        }
      ],
      "name": "initialize",
      "outputs": [],
      "stateMutability": "nonpayable",
      "type": "function"
    },
    {
      "inputs": [
        {
          "internalType": "address",
          "name": "_verifier",
          "type": "address"
        }
      ],
      "name": "setVerifier",
      "outputs": [],
      "stateMutability": "nonpayable",
      "type": "function"
    },
    {
      "inputs": [
        {
          "internalType": "string",
          "name": "_name",
          "type": "string"
        }
      ],
      "name": "registerInsuranceProvider",
      "outputs": [],
      "stateMutability": "nonpayable",
      "type": "function"
    },
    {
      "inputs": [
        {
          "internalType": "string",
          "name": "_name",
          "type": "string"
        },
        {
          "internalType": "uint256",
          "name": "_basePremium",
          "type": "uint256"
        },
        {
          "internalType": "uint256",
          "name": "_minAge",
          "type": "uint256"
        },
        {
          "internalType": "uint256",
          "name": "_maxAge",
          "type": "uint256"
        },
        {
          "internalType": "uint256",
          "name": "_coverageAmount",
          "type": "uint256"
        }
      ],
      "name": "createPolicy",
      "outputs": [],
      "stateMutability": "nonpayable",
      "type": "function"
    },
    {
      "inputs": [
        {
          "internalType": "address",
          "name": "_provider",
          "type": "address"
        },
        {
          "internalType": "uint256",
          "name": "_policyId",
          "type": "uint256"
        }
      ],
      "name": "requestQuote",
      "outputs": [],
      "stateMutability": "nonpayable",
      "type": "function"
    },
    {
      "inputs": [
        {
          "internalType": "uint256",
          "name": "_requestId",
          "type": "uint256"
        }
      ],
      "name": "verifyProof",
      "outputs": [],
      "stateMutability": "nonpayable",
      "type": "function"
    },
    {
      "inputs": [
        {
          "internalType": "uint256",
          "name": "_requestId",
          "type": "uint256"
        }
      ],
      "name": "finalizePolicy",
      "outputs": [],
      "stateMutability": "nonpayable",
      "type": "function"
    },
    {
      "inputs": [
        {
          "internalType": "address",
          "name": "_provider",
          "type": "address"
        },
        {
          "internalType": "address",
          "name": "_hospitalAddress",
          "type": "address"
        },
        {
          "internalType": "string",
          "name": "_procedureName",
          "type": "string"
        },
        {
          "internalType": "uint256",
          "name": "_amount",
          "type": "uint256"
        },
        {
          "internalType": "bytes32",
          "name": "_evidenceHash",
          "type": "bytes32"
        }
      ],
      "name": "submitClaim",
      "outputs": [],
      "stateMutability": "nonpayable",
      "type": "function"
    },
    {
      "inputs": [
        {
          "internalType": "uint256",
          "name": "_claimId",
          "type": "uint256"
        },
        {
          "internalType": "string",
          "name": "_status",
          "type": "string"
        }
      ],
      "name": "processClaim",
      "outputs": [],
      "stateMutability": "payable",
      "type": "function"
    }
  ],
  "bytecode": "0x60c06040523060805234801562000014575f80fd5b5060405162002c4938038062002c49833981016040819052620000379162000049565b6001600160a01b031660a05262000078565b5f602082840312156200005a575f80fd5b81516001600160a01b038116811462000071575f80fd5b9392505050565b60805160a051612b93620000b65f395f81816102f9015281816103ab01526120ed01525f8181611db901528181611de20152611ff10152612b935ff3fe60806040526004361061017b575f3560e01c806373df0aaa116100cd578063ad3cb1cc11610087578063c575d09311610062578063c575d093146104db578063d3e89483146104fa578063ede341f01461052b578063eed45ccd1461054a575f80fd5b8063ad3cb1cc14610460578063b8ee833b1461049d578063c4d66de8146104bc575f80fd5b806373df0aaa1461037e5780637da0a8771461039d5780638b6958ff146103cf57806391d14854146103ee5780639e97b8f61461040d578063a888c2cd1461042c575f80fd5b80634c1fb578116101385780635437988d116101135780635437988d146102be578063572b6c05146102dd5780635c975abb146103295780636aebbd661461035f575f80fd5b80634c1fb5781461026a5780634f1ef2861461028957806352d1902d1461029c575f80fd5b80630a5eccd31461017f57806313007d551461019457806324d7806c146101cf5780632fafc5f7146101fe57806341d3caff1461021d578063482bce3c1461023c575b5f80fd5b61019261018d36600461246e565b6105e6565b005b34801561019f575f80fd5b505f546101b2906001600160a01b031681565b6040516001600160a01b0390911681526020015b60405180910390f35b3480156101da575f80fd5b506101ee6101e93660046124cd565b610a34565b60405190151581526020016101c6565b348015610209575f80fd5b506101926102183660046124e6565b610aab565b348015610228575f80fd5b5061019261023736600461253e565b610d8b565b348015610247575f80fd5b5061025b6102563660046124cd565b610f79565b6040516101c6939291906125b3565b348015610275575f80fd5b506101926102843660046125d7565b611024565b6101926102973660046125ee565b61114a565b3480156102a7575f80fd5b506102b0611169565b6040519081526020016101c6565b3480156102c9575f80fd5b506101926102d83660046124cd565b611184565b3480156102e8575f80fd5b506101ee6102f73660046124cd565b7f00000000000000000000000000000000000000000000000000000000000000006001600160a01b0390811691161490565b348015610334575f80fd5b507fcd5ed15c6e187e77e9aee88184c21f4f2182ab5827cb3b7e07fbedcd63f033005460ff166101ee565b34801561036a575f80fd5b50603b546101b2906001600160a01b031681565b348015610389575f80fd5b50610192610398366004612642565b6112c4565b3480156103a8575f80fd5b507f00000000000000000000000000000000000000000000000000000000000000006101b2565b3480156103da575f80fd5b506101926103e93660046125d7565b6114e7565b3480156103f9575f80fd5b506101ee6104083660046126ad565b611729565b348015610418575f80fd5b506101ee6104273660046126d7565b6117a4565b348015610437575f80fd5b5061044b6104463660046125d7565b6117d6565b6040516101c699989796959493929190612704565b34801561046b575f80fd5b50610490604051806040016040528060058152602001640352e302e360dc1b81525081565b6040516101c69190612778565b3480156104a8575f80fd5b506102b06104b736600461253e565b611941565b3480156104c7575f80fd5b506101926104d63660046124cd565b61196c565b3480156104e6575f80fd5b506102b06104f536600461253e565b611a92565b348015610505575f80fd5b506105196105143660046125d7565b611aab565b6040516101c69695949392919061278a565b348015610536575f80fd5b506101926105453660046127c5565b611b69565b348015610555575f80fd5b506105aa6105643660046125d7565b60346020525f9081526040902080546001820154600283015460038401546004909401546001600160a01b03938416949390921692909160ff8082169161010090041686565b604080516001600160a01b03978816815296909516602087015293850192909252606084015215156080830152151560a082015260c0016101c6565b5f546004906001600160a01b0316639e97b8f682610602611d5b565b6040518363ffffffff1660e01b815260040161061f9291906127ff565b602060405180830381865afa15801561063a573d5f803e3d5ffd5b505050506040513d601f19601f8201168201806040525081019061065e9190612837565b6106835760405162461bcd60e51b815260040161067a90612856565b60405180910390fd5b5f8054906101000a90046001600160a01b03166001600160a01b0316635c975abb6040518163ffffffff1660e01b8152600401602060405180830381865afa1580156106d1573d5f803e3d5ffd5b505050506040513d601f19601f820116820180604052508101906106f59190612837565b156107125760405162461bcd60e51b815260040161067a90612897565b61071a611d69565b610722611d5b565b5f848152603560205260409020600101546001600160a01b0390811691161461077e5760405162461bcd60e51b815260206004820152600e60248201526d4e6f7420796f757220636c61696d60901b604482015260640161067a565b5f8381526035602052604090206006015460ff16156107d15760405162461bcd60e51b815260206004820152600f60248201526e105b1c9958591e481cd95d1d1b1959608a1b604482015260640161067a565b5f8381526035602052604090206007016107eb838261294b565b506040805180820190915260088152671054141493d5915160c21b6020918201528251908301207f1cdef962e53be3204ebde005dce32d23a1c5ccb8fc56675a07ba9949040c0843016109f7575f838152603560205260409020600401543410156108a25760405162461bcd60e51b815260206004820152602160248201527f496e73756666696369656e742066756e647320666f7220736574746c656d656e6044820152601d60fa1b606482015260840161067a565b5f8381526035602052604090819020600281015460048083015492549351630f70cf8b60e21b81526001600160a01b03928316918101829052919093166024820152633dc33e2c91906044015f604051808303818588803b158015610905575f80fd5b505af1158015610917573d5f803e3d5ffd5b5050505f85815260356020526040902060068101805460ff191660011790556004015434111591506109f79050575f61094e611d5b565b5f858152603560205260409020600401546001600160a01b0391909116906109769034612a1b565b6040515f81818185875af1925050503d805f81146109af576040519150601f19603f3d011682016040523d82523d5f602084013e6109b4565b606091505b50509050806109f55760405162461bcd60e51b815260206004820152600d60248201526c1499599d5b990819985a5b1959609a1b604482015260640161067a565b505b827f3d2d9aaf072180328e478501720eb5e357f462214fac339049c443729042386783604051610a279190612778565b60405180910390a2505050565b5f8054604051634f4bdc7b60e11b81526001600160a01b0390911690639e97b8f690610a6690849086906004016127ff565b602060405180830381865afa158015610a81573d5f803e3d5ffd5b505050506040513d601f19601f82011682018060405250810190610aa59190612837565b92915050565b5f546004906001600160a01b0316639e97b8f682610ac7611d5b565b6040518363ffffffff1660e01b8152600401610ae49291906127ff565b602060405180830381865afa158015610aff573d5f803e3d5ffd5b505050506040513d601f19601f82011682018060405250810190610b239190612837565b610b3f5760405162461bcd60e51b815260040161067a90612856565b5f8054906101000a90046001600160a01b03166001600160a01b0316635c975abb6040518163ffffffff1660e01b8152600401602060405180830381865afa158015610b8d573d5f803e3d5ffd5b505050506040513d601f19601f82011682018060405250810190610bb19190612837565b15610bce5760405162461bcd60e51b815260040161067a90612897565b610bd6611d69565b5f865111610c155760405162461bcd60e51b815260206004820152600c60248201526b496e76616c6964206e616d6560a01b604482015260640161067a565b5f8511610c565760405162461bcd60e51b815260206004820152600f60248201526e496e76616c6964207072656d69756d60881b604482015260640161067a565b838311610c995760405162461bcd60e51b8152602060048201526011602482015270496e76616c6964206167652072616e676560781b604482015260640161067a565b60388054905f610ca883612a2e565b90915550506038545f818152603360205260409020610cc7888261294b565b505f818152603360205260408120600180820189905560028201805460ff191690911790556003810187905560048101869055600501849055603290610d0b611d5b565b6001600160a01b0316815260208101919091526040015f908120600201805491610d3483612a2e565b9190505550610d41611d5b565b6001600160a01b0316817f21d0178f0cde2aed24022db30651dabafb4bbe431fb787fbc92113304d8e354989604051610d7a9190612778565b60405180910390a350505050505050565b610d93611d69565b6001600160a01b0382165f9081526032602052604090206001015460ff16610dfd5760405162461bcd60e51b815260206004820152601760248201527f50726f7669646572206e6f742072656769737465726564000000000000000000604482015260640161067a565b5f8181526033602052604090206002015460ff16610e515760405162461bcd60e51b8152602060048201526011602482015270506f6c696379206e6f742061637469766560781b604482015260640161067a565b60398054905f610e6083612a2e565b9091555050603954610e70611d5b565b5f82815260346020818152604080842080546001600160a01b03199081166001600160a01b0397881617825560018083018054909216978b1697909717905560028101889055878552603383529084209094015485845291905260038301556004909101805461ffff19169055603690610ee8611d5b565b6001600160a01b031681526020808201929092526040015f908120805460018101825590825291902001819055610f1d611d5b565b6001600160a01b0316817ff1b29b9300929052e2978377445efec1b2f0291325f977ba3864b8032c3e1a558585604051610f6c9291906001600160a01b03929092168252602082015260400190565b60405180910390a3505050565b60326020525f9081526040902080548190610f93906128ce565b80601f0160208091040260200160405190810160405280929190818152602001828054610fbf906128ce565b801561100a5780601f10610fe15761010080835404028352916020019161100a565b820191905f5260205f20905b815481529060010190602001808311610fed57829003601f168201915b505050506001830154600290930154919260ff1691905083565b61102c611d69565b611034611d5b565b5f828152603460205260409020546001600160a01b0390811691161461108f5760405162461bcd60e51b815260206004820152601060248201526f139bdd081e5bdd5c881c995c5d595cdd60821b604482015260640161067a565b5f8181526034602052604090206004015460ff166110de5760405162461bcd60e51b815260206004820152600c60248201526b139bdd081d995c9a599a595960a21b604482015260640161067a565b5f81815260346020526040902060048101805461ff001916610100179055600101546001600160a01b0316611111611d5b565b6001600160a01b0316827f67511d343eb9356938a8af11d5abfbaeae7edca1e0a1554007c30b4742d1d78860405160405180910390a450565b611152611dae565b61115b82611e52565b6111658282611f25565b5050565b5f611172611fe6565b505f80516020612b3e83398151915290565b5f80546001600160a01b031690639e97b8f69061119f611d5b565b6040518363ffffffff1660e01b81526004016111bc9291906127ff565b602060405180830381865afa1580156111d7573d5f803e3d5ffd5b505050506040513d601f19601f820116820180604052508101906111fb9190612837565b6112525760405162461bcd60e51b815260206004820152602260248201527f416363657373436f6e74726f6c3a20726573747269637465642d746f2d61646d60448201526134b760f11b606482015260840161067a565b61125a611d69565b6001600160a01b0381166112a25760405162461bcd60e51b815260206004820152600f60248201526e496e76616c6964206164647265737360881b604482015260640161067a565b603b80546001600160a01b0319166001600160a01b0392909216919091179055565b6112cc611d69565b6001600160a01b0385165f9081526032602052604090206001015460ff1661132c5760405162461bcd60e51b815260206004820152601360248201527250726f7669646572206e6f742061637469766560681b604482015260640161067a565b6001600160a01b0384166113825760405162461bcd60e51b815260206004820152601860248201527f496e76616c696420686f73706974616c20616464726573730000000000000000604482015260640161067a565b603a8054905f61139183612a2e565b9091555050603a546113a1611d5b565b5f82815260356020526040902080546001600160a01b03199081166001600160a01b0393841617825560018201805482168a8516179055600282018054909116928816929092179091556003016113f8858261294b565b505f81815260356020818152604080842060048101889055600581018790558151808301909252600982526814d55093525515115160ba1b828401529385905291905260079091019061144b908261294b565b505f81815260356020908152604080832060068101805460ff19169055426008909101556001600160a01b0389168352603782528220805460018101825590835291200181905561149a611d5b565b6001600160a01b0316817fd621c9edee5b7dda898a8dd3a972f2f81a53c6d213536e15d1864349d0d512898887866040516114d793929190612a46565b60405180910390a3505050505050565b5f546004906001600160a01b0316639e97b8f682611503611d5b565b6040518363ffffffff1660e01b81526004016115209291906127ff565b602060405180830381865afa15801561153b573d5f803e3d5ffd5b505050506040513d601f19601f8201168201806040525081019061155f9190612837565b61157b5760405162461bcd60e51b815260040161067a90612856565b5f8054906101000a90046001600160a01b03166001600160a01b0316635c975abb6040518163ffffffff1660e01b8152600401602060405180830381865afa1580156115c9573d5f803e3d5ffd5b505050506040513d601f19601f820116820180604052508101906115ed9190612837565b1561160a5760405162461bcd60e51b815260040161067a90612897565b611612611d69565b61161a611d5b565b5f838152603460205260409020600101546001600160a01b039081169116146116785760405162461bcd60e51b815260206004820152601060248201526f139bdd081e5bdd5c881c995c5d595cdd60821b604482015260640161067a565b5f828152603460209081526040808320600201548084526033909252822060010154909160646116a9836050612a79565b6116b39190612a90565b5f86815260346020526040902060048101805460ff1916600117905560030181905590506116df611d5b565b6001600160a01b0316857f796a366357c80d9d52a4076d6a2d52b3c65e7f0b5bff47ff8a76b3c971055ab88360405161171a91815260200190565b60405180910390a35050505050565b5f8054604051632474521560e21b8152600481018590526001600160a01b038481166024830152909116906391d14854906044015b602060405180830381865afa158015611779573d5f803e3d5ffd5b505050506040513d601f19601f8201168201806040525081019061179d9190612837565b9392505050565b5f8054604051634f4bdc7b60e11b81526001600160a01b0390911690639e97b8f69061175e90869086906004016127ff565b60356020525f908152604090208054600182015460028301546003840180546001600160a01b0394851695938516949092169291611813906128ce565b80601f016020809104026020016040519081016040528092919081815260200182805461183f906128ce565b801561188a5780601f106118615761010080835404028352916020019161188a565b820191905f5260205f20905b81548152906001019060200180831161186d57829003601f168201915b5050506004840154600585015460068601546007870180549697939692955060ff9091169350906118ba906128ce565b80601f01602080910402602001604051908101604052809291908181526020018280546118e6906128ce565b80156119315780601f1061190857610100808354040283529160200191611931565b820191905f5260205f20905b81548152906001019060200180831161191457829003601f168201915b5050505050908060080154905089565b6036602052815f5260405f20818154811061195a575f80fd5b905f5260205f20015f91509150505481565b7ff0c57e16840df040f15088dc2f81fe391c3923bec73e23a9662efc9c229c6a008054600160401b810460ff16159067ffffffffffffffff165f811580156119b15750825b90505f8267ffffffffffffffff1660011480156119cd5750303b155b9050811580156119db575080155b156119f95760405163f92ee8a960e01b815260040160405180910390fd5b845467ffffffffffffffff191660011785558315611a2357845460ff60401b1916600160401b1785555b611a2b61202f565b611a3361203f565b611a3c8661204f565b611a446120d6565b8315611a8a57845460ff60401b19168555604051600181527fc7f505b2f371ae2175ee4913f4499e1f2633a7b5936321eed1cdaeb6115181d29060200160405180910390a15b505050505050565b6037602052815f5260405f20818154811061195a575f80fd5b60336020525f9081526040902080548190611ac5906128ce565b80601f0160208091040260200160405190810160405280929190818152602001828054611af1906128ce565b8015611b3c5780601f10611b1357610100808354040283529160200191611b3c565b820191905f5260205f20905b815481529060010190602001808311611b1f57829003601f168201915b50505060018401546002850154600386015460048701546005909701549596929560ff9092169450925086565b611b71611d69565b60325f611b7c611d5b565b6001600160a01b0316815260208101919091526040015f206001015460ff1615611bdd5760405162461bcd60e51b8152602060048201526012602482015271105b1c9958591e481c9959da5cdd195c995960721b604482015260640161067a565b5f815111611c1c5760405162461bcd60e51b815260206004820152600c60248201526b496e76616c6964206e616d6560a01b604482015260640161067a565b8060325f611c28611d5b565b6001600160a01b0316815260208101919091526040015f2090611c4b908261294b565b50600160325f611c59611d5b565b6001600160a01b0316815260208101919091526040015f908120600101805460ff191692151592909217909155603281611c91611d5b565b6001600160a01b03908116825260208201929092526040015f90812060020192909255905416635d5664e16004611cc6611d5b565b6040518363ffffffff1660e01b8152600401611ce39291906127ff565b5f604051808303815f87803b158015611cfa575f80fd5b505af1158015611d0c573d5f803e3d5ffd5b50505050611d18611d5b565b6001600160a01b03167fba71926bd5489057d853e3d4f8501ea465ca2eb897a1c34e2148b72c8d9b51e682604051611d509190612778565b60405180910390a250565b5f611d646120de565b905090565b7fcd5ed15c6e187e77e9aee88184c21f4f2182ab5827cb3b7e07fbedcd63f033005460ff1615611dac5760405163d93c066560e01b815260040160405180910390fd5b565b306001600160a01b037f0000000000000000000000000000000000000000000000000000000000000000161480611e3457507f00000000000000000000000000000000000000000000000000000000000000006001600160a01b0316611e285f80516020612b3e833981519152546001600160a01b031690565b6001600160a01b031614155b15611dac5760405163703e46dd60e11b815260040160405180910390fd5b5f546001600160a01b0316639e97b8f66007611e6c611d5b565b6040518363ffffffff1660e01b8152600401611e899291906127ff565b602060405180830381865afa158015611ea4573d5f803e3d5ffd5b505050506040513d601f19601f82011682018060405250810190611ec89190612837565b611f225760405162461bcd60e51b815260206004820152602560248201527f416363657373436f6e74726f6c3a20726573747269637465642d746f2d7570676044820152643930b232b960d91b606482015260840161067a565b50565b816001600160a01b03166352d1902d6040518163ffffffff1660e01b8152600401602060405180830381865afa925050508015611f7f575060408051601f3d908101601f19168201909252611f7c91810190612aaf565b60015b611fa757604051634c9c8ce360e01b81526001600160a01b038316600482015260240161067a565b5f80516020612b3e8339815191528114611fd757604051632a87526960e21b81526004810182905260240161067a565b611fe18383612151565b505050565b306001600160a01b037f00000000000000000000000000000000000000000000000000000000000000001614611dac5760405163703e46dd60e11b815260040160405180910390fd5b6120376121a6565b611dac6121ef565b6120476121a6565b611dac612222565b6120576121a6565b61205f6120d6565b6001600160a01b0381166120b55760405162461bcd60e51b815260206004820152601e60248201527f496e76616c69642061636365737320636f6e74726f6c20616464726573730000604482015260640161067a565b5f80546001600160a01b0319166001600160a01b0392909216919091179055565b611dac6121a6565b5f366014336001600160a01b037f00000000000000000000000000000000000000000000000000000000000000001614801561211a5750808210155b15612149575f3661212b8385612a1b565b612136928290612ac6565b61213f91612aed565b60601c9250505090565b339250505090565b61215a82612250565b6040516001600160a01b038316907fbc7cd75a20ee27fd9adebab32041f755214dbc6bffa90cc0225b39da2e5c2d3b905f90a280511561219e57611fe182826122b3565b611165612325565b7ff0c57e16840df040f15088dc2f81fe391c3923bec73e23a9662efc9c229c6a0054600160401b900460ff16611dac57604051631afcd79f60e31b815260040160405180910390fd5b6121f76121a6565b7fcd5ed15c6e187e77e9aee88184c21f4f2182ab5827cb3b7e07fbedcd63f03300805460ff19169055565b61222a6121a6565b60017f9b779b17422d0df92223018b32b4d1fa46e071723d6817e2486d003becc55f0055565b806001600160a01b03163b5f0361228557604051634c9c8ce360e01b81526001600160a01b038216600482015260240161067a565b5f80516020612b3e83398151915280546001600160a01b0319166001600160a01b0392909216919091179055565b60605f80846001600160a01b0316846040516122cf9190612b22565b5f60405180830381855af49150503d805f8114612307576040519150601f19603f3d011682016040523d82523d5f602084013e61230c565b606091505b509150915061231c858383612344565b95945050505050565b3415611dac5760405163b398979f60e01b815260040160405180910390fd5b60608261235957612354826123a0565b61179d565b815115801561237057506001600160a01b0384163b155b1561239957604051639996b31560e01b81526001600160a01b038516600482015260240161067a565b5092915050565b8051156123b05780518082602001fd5b604051630a12f52160e11b815260040160405180910390fd5b634e487b7160e01b5f52604160045260245ffd5b5f67ffffffffffffffff808411156123f7576123f76123c9565b604051601f8501601f19908116603f0116810190828211818310171561241f5761241f6123c9565b81604052809350858152868686011115612437575f80fd5b858560208301375f602087830101525050509392505050565b5f82601f83011261245f575f80fd5b61179d838335602085016123dd565b5f806040838503121561247f575f80fd5b82359150602083013567ffffffffffffffff81111561249c575f80fd5b6124a885828601612450565b9150509250929050565b80356001600160a01b03811681146124c8575f80fd5b919050565b5f602082840312156124dd575f80fd5b61179d826124b2565b5f805f805f60a086880312156124fa575f80fd5b853567ffffffffffffffff811115612510575f80fd5b61251c88828901612450565b9860208801359850604088013597606081013597506080013595509350505050565b5f806040838503121561254f575f80fd5b612558836124b2565b946020939093013593505050565b5f5b83811015612580578181015183820152602001612568565b50505f910152565b5f815180845261259f816020860160208601612566565b601f01601f19169290920160200192915050565b606081525f6125c56060830186612588565b93151560208301525060400152919050565b5f602082840312156125e7575f80fd5b5035919050565b5f80604083850312156125ff575f80fd5b612608836124b2565b9150602083013567ffffffffffffffff811115612623575f80fd5b8301601f81018513612633575f80fd5b6124a8858235602084016123dd565b5f805f805f60a08688031215612656575f80fd5b61265f866124b2565b945061266d602087016124b2565b9350604086013567ffffffffffffffff811115612688575f80fd5b61269488828901612450565b9598949750949560608101359550608001359392505050565b5f80604083850312156126be575f80fd5b823591506126ce602084016124b2565b90509250929050565b5f80604083850312156126e8575f80fd5b8235600981106126f6575f80fd5b91506126ce602084016124b2565b6001600160a01b038a81168252898116602083015288166040820152610120606082018190525f906127388382018a612588565b90508760808401528660a084015285151560c084015282810360e08401526127608186612588565b915050826101008301529a9950505050505050505050565b602081525f61179d6020830184612588565b60c081525f61279c60c0830189612588565b60208301979097525093151560408501526060840192909252608083015260a090910152919050565b5f602082840312156127d5575f80fd5b813567ffffffffffffffff8111156127eb575f80fd5b6127f784828501612450565b949350505050565b604081016009841061281f57634e487b7160e01b5f52602160045260245ffd5b9281526001600160a01b039190911660209091015290565b5f60208284031215612847575f80fd5b8151801515811461179d575f80fd5b60208082526021908201527f416363657373436f6e74726f6c3a20726573747269637465642d746f2d726f6c6040820152606560f81b606082015260800190565b6020808252601b908201527f4d6564695365637572652050726f746f636f6c3a207061757365640000000000604082015260600190565b600181811c908216806128e257607f821691505b60208210810361290057634e487b7160e01b5f52602260045260245ffd5b50919050565b601f821115611fe1575f81815260208120601f850160051c8101602086101561292c5750805b601f850160051c820191505b81811015611a8a57828155600101612938565b815167ffffffffffffffff811115612965576129656123c9565b6129798161297384546128ce565b84612906565b602080601f8311600181146129ac575f84156129955750858301515b5f19600386901b1c1916600185901b178555611a8a565b5f85815260208120601f198616915b828110156129da578886015182559484019460019091019084016129bb565b50858210156129f757878501515f19600388901b60f8161c191681555b5050505050600190811b01905550565b634e487b7160e01b5f52601160045260245ffd5b81810381811115610aa557610aa5612a07565b5f60018201612a3f57612a3f612a07565b5060010190565b6001600160a01b03841681526060602082018190525f90612a6990830185612588565b9050826040830152949350505050565b8082028115828204841417610aa557610aa5612a07565b5f82612aaa57634e487b7160e01b5f52601260045260245ffd5b500490565b5f60208284031215612abf575f80fd5b5051919050565b5f8085851115612ad4575f80fd5b83861115612ae0575f80fd5b5050820193919092039150565b6bffffffffffffffffffffffff198135818116916014851015612b1a5780818660140360031b1b83161692505b505092915050565b5f8251612b33818460208701612566565b919091019291505056fe360894a13ba1a3210667c828492db98dca3e2076cc3735a920a3ca505d382bbca26469706673582212202f104a4b5e5265a5ed220a30334af9b6462950adc722a2a7c44760fcc1a4bf1464736f6c63430008140033",
  "immutableReferences": {
    "585": [
      {
        "length": 32,
        "start": 761
      },
      {
        "length": 32,
        "start": 939
      },
      {
        "length": 32,
        "start": 8429
      }
    ],
    "992": [
      {
        "length": 32,
        "start": 7609
      },
      {
        "length": 32,
        "start": 7650
      },
      {
        "length": 32,
        "start": 8177
      }
    ]
  },
  "source": "// SPDX-License-Identifier: MIT\r\npragma solidity ^0.8.20;\r\n\r\nimport \"@openzeppelin/contracts-upgradeable/proxy/utils/Initializable.sol\";\r\nimport \"@openzeppelin/contracts-upgradeable/proxy/utils/UUPSUpgradeable.sol\";\r\nimport \"@openzeppelin/contracts-upgradeable/utils/PausableUpgradeable.sol\";\r\nimport \"@openzeppelin/contracts-upgradeable/utils/ReentrancyGuardUpgradeable.sol\";\r\nimport \"@openzeppelin/contracts-upgradeable/utils/ContextUpgradeable.sol\";\r\nimport \"@openzeppelin/contracts-upgradeable/metatx/ERC2771ContextUpgradeable.sol\";\r\nimport \"./common/MediSecureAuthUpgradeable.sol\";\r\nimport {Roles} from \"./MediSecureAccessControl.sol\";\r\nimport \"./interfaces/IHospital.sol\";\r\n\r\n\r\n\r\ncontract InsuranceUpgradeable is Initializable, ReentrancyGuardUpgradeable, PausableUpgradeable, MediSecureAuthUpgradeable, UUPSUpgradeable, ERC2771ContextUpgradeable {\r\n\r\n    /// @custom:oz-upgrades-unsafe-allow constructor\r\n    constructor(address _forwarder) ERC2771ContextUpgradeable(_forwarder) {\r\n        // _disableInitializers();\r\n    }\r\n\r\n    function _msgSender() internal view override(ContextUpgradeable, ERC2771ContextUpgradeable) returns (address) {\r\n        return ERC2771ContextUpgradeable._msgSender();\r\n    }\r\n\r\n    function _msgData() internal view override(ContextUpgradeable, ERC2771ContextUpgradeable) returns (bytes calldata) {\r\n        return ERC2771ContextUpgradeable._msgData();\r\n    }\r\n\r\n    function _contextSuffixLength() internal view override(ContextUpgradeable, ERC2771ContextUpgradeable) returns (uint256) {\r\n        return ERC2771ContextUpgradeable._contextSuffixLength();\r\n    }\r\n\r\n    struct InsuranceProvider {\r\n        string name;\r\n        bool isActive;\r\n        uint256 policyCount;\r\n    }\r\n\r\n    struct Policy {\r\n        string name;\r\n        uint256 basePremium;\r\n        bool isActive;\r\n        uint256 minAge;\r\n        uint256 maxAge;\r\n        uint256 coverageAmount;\r\n    }\r\n\r\n    struct InsuranceRequest {\r\n        address patient;\r\n        address provider;\r\n        uint256 policyId;\r\n        uint256 finalPremium;\r\n        bool isVerified;\r\n        bool isFinalized;\r\n    }\r\n\r\n    struct Claim {\r\n        address patient;\r\n        address provider;\r\n        address hospitalAddress; \r\n        string procedureName;\r\n        uint256 amount;\r\n        bytes32 evidenceHash; \r\n        bool isSettled; \r\n        string status;\r\n        uint256 timestamp;\r\n    }\r\n\r\n    mapping(address => InsuranceProvider) public insuranceProviders;\r\n    mapping(uint256 => Policy) public policies;\r\n    mapping(uint256 => InsuranceRequest) public insuranceRequests;\r\n    mapping(uint256 => Claim) public claims;\r\n    mapping(address => uint256[]) public patientPolicyIds;\r\n    mapping(address => uint256[]) public providerClaims;\r\n\r\n    uint256 private policyIdCounter;\r\n    uint256 private requestIdCounter;\r\n    uint256 private claimIdCounter;\r\n\r\n    address public zkpVerifier;\r\n\r\n    event InsuranceProviderRegistered(address indexed wallet, string name);\r\n    event PolicyCreated(uint256 indexed policyId, address indexed provider, string name);\r\n    event InsuranceQuoteRequested(uint256 indexed requestId, address indexed patient, address provider, uint256 policyId);\r\n    event InsuranceProofVerified(uint256 indexed requestId, address indexed provider, uint256 discountPremium);\r\n    event PolicyFinalized(uint256 indexed requestId, address indexed patient, address indexed provider);\r\n    event ClaimSubmitted(uint256 indexed claimId, address indexed patient, address provider, string procedure, bytes32 evidenceHash);\r\n    event ClaimProcessed(uint256 indexed claimId, string status);\r\n\r\n    function initialize(address _accessControl) public initializer {\r\n        __Pausable_init();\r\n        __ReentrancyGuard_init();\r\n        __MediSecureAuth_init(_accessControl);\r\n        __UUPSUpgradeable_init();\r\n    }\r\n\r\n    function _authorizeUpgrade(address newImplementation) internal override onlyUpgrader() {}\r\n\r\n    function setVerifier(address _verifier) public onlyAdmin() whenNotPaused {\r\n        require(_verifier != address(0), \"Invalid address\");\r\n        zkpVerifier = _verifier;\r\n    }\r\n\r\n    function registerInsuranceProvider(string memory _name) public whenNotPaused {\r\n        require(!insuranceProviders[_msgSender()].isActive, \"Already registered\");\r\n        require(bytes(_name).length > 0, \"Invalid name\");\r\n\r\n        insuranceProviders[_msgSender()].name = _name;\r\n        insuranceProviders[_msgSender()].isActive = true;\r\n        insuranceProviders[_msgSender()].policyCount = 0;\r\n        \r\n        accessControl.grantRole(Roles.INSURANCE_PROVIDER, _msgSender());\r\n        \r\n        emit InsuranceProviderRegistered(_msgSender(), _name);\r\n    }\r\n\r\n    function createPolicy(\r\n        string memory _name,\r\n        uint256 _basePremium,\r\n        uint256 _minAge,\r\n        uint256 _maxAge,\r\n        uint256 _coverageAmount\r\n    ) public onlyRoleName(Roles.INSURANCE_PROVIDER) whenNotPaused {\r\n        require(bytes(_name).length > 0, \"Invalid name\");\r\n        require(_basePremium > 0, \"Invalid premium\");\r\n        require(_maxAge > _minAge, \"Invalid age range\");\r\n\r\n        policyIdCounter++;\r\n        uint256 policyId = policyIdCounter;\r\n\r\n        policies[policyId].name = _name;\r\n        policies[policyId].basePremium = _basePremium;\r\n        policies[policyId].isActive = true;\r\n        policies[policyId].minAge = _minAge;\r\n        policies[policyId].maxAge = _maxAge;\r\n        policies[policyId].coverageAmount = _coverageAmount;\r\n\r\n        insuranceProviders[_msgSender()].policyCount++;\r\n        \r\n        emit PolicyCreated(policyId, _msgSender(), _name);\r\n    }\r\n\r\n    function requestQuote(address _provider, uint256 _policyId) public whenNotPaused {\r\n        require(insuranceProviders[_provider].isActive, \"Provider not registered\");\r\n        require(policies[_policyId].isActive, \"Policy not active\");\r\n\r\n        requestIdCounter++;\r\n        uint256 requestId = requestIdCounter;\r\n\r\n        insuranceRequests[requestId].patient = _msgSender();\r\n        insuranceRequests[requestId].provider = _provider;\r\n        insuranceRequests[requestId].policyId = _policyId;\r\n        insuranceRequests[requestId].finalPremium = policies[_policyId].basePremium;\r\n        insuranceRequests[requestId].isVerified = false;\r\n        insuranceRequests[requestId].isFinalized = false;\r\n\r\n        patientPolicyIds[_msgSender()].push(requestId);\r\n        \r\n        emit InsuranceQuoteRequested(requestId, _msgSender(), _provider, _policyId);\r\n    }\r\n\r\n    function verifyProof(uint256 _requestId) public onlyRoleName(Roles.INSURANCE_PROVIDER) whenNotPaused {\r\n        require(insuranceRequests[_requestId].provider == _msgSender(), \"Not your request\");\r\n        \r\n        uint256 policyId = insuranceRequests[_requestId].policyId;\r\n        uint256 basePremium = policies[policyId].basePremium;\r\n        \r\n        uint256 discountPremium = basePremium * 80 / 100;\r\n        \r\n        insuranceRequests[_requestId].isVerified = true;\r\n        insuranceRequests[_requestId].finalPremium = discountPremium;\r\n        \r\n        emit InsuranceProofVerified(_requestId, _msgSender(), discountPremium);\r\n    }\r\n\r\n    function finalizePolicy(uint256 _requestId) public whenNotPaused {\r\n        require(insuranceRequests[_requestId].patient == _msgSender(), \"Not your request\");\r\n        require(insuranceRequests[_requestId].isVerified, \"Not verified\");\r\n        \r\n        insuranceRequests[_requestId].isFinalized = true;\r\n        \r\n        emit PolicyFinalized(_requestId, _msgSender(), insuranceRequests[_requestId].provider);\r\n    }\r\n\r\n    function submitClaim(\r\n        address _provider,\r\n        address _hospitalAddress,\r\n        string memory _procedureName,\r\n        uint256 _amount,\r\n        bytes32 _evidenceHash\r\n    ) public whenNotPaused {\r\n        require(insuranceProviders[_provider].isActive, \"Provider not active\");\r\n        require(_hospitalAddress != address(0), \"Invalid hospital address\");\r\n        \r\n        claimIdCounter++;\r\n        uint256 claimId = claimIdCounter;\r\n\r\n        claims[claimId].patient = _msgSender();\r\n        claims[claimId].provider = _provider;\r\n        claims[claimId].hospitalAddress = _hospitalAddress;\r\n        claims[claimId].procedureName = _procedureName;\r\n        claims[claimId].amount = _amount;\r\n        claims[claimId].evidenceHash = _evidenceHash;\r\n        claims[claimId].status = \"SUBMITTED\";\r\n        claims[claimId].isSettled = false;\r\n        claims[claimId].timestamp = block.timestamp;\r\n\r\n        providerClaims[_provider].push(claimId);\r\n        \r\n        emit ClaimSubmitted(claimId, _msgSender(), _provider, _procedureName, _evidenceHash);\r\n    }\r\n\r\n    function processClaim(uint256 _claimId, string memory _status) public payable onlyRoleName(Roles.INSURANCE_PROVIDER) whenNotPaused {\r\n        require(claims[_claimId].provider == _msgSender(), \"Not your claim\");\r\n        require(!claims[_claimId].isSettled, \"Already settled\");\r\n        \r\n        claims[_claimId].status = _status;\r\n        \r\n        if (keccak256(bytes(_status)) == keccak256(bytes(\"APPROVED\"))) {\r\n            require(msg.value >= claims[_claimId].amount, \"Insufficient funds for settlement\");\r\n            \r\n            IHospital(claims[_claimId].hospitalAddress).receiveSettlement{value: claims[_claimId].amount}(claims[_claimId].hospitalAddress, claims[_claimId].patient);\r\n            \r\n            claims[_claimId].isSettled = true;\r\n            \r\n            if (msg.value > claims[_claimId].amount) {\r\n                (bool refunded, ) = payable(_msgSender()).call{value: msg.value - claims[_claimId].amount}(\"\");\r\n                require(refunded, \"Refund failed\");\r\n            }\r\n        }\r\n        \r\n        emit ClaimProcessed(_claimId, _status);\r\n    }\r\n\r\n    uint256[50] private __gap;\r\n}",
  "sourcePath": "C:\\Users\\night\\Downloads\\team-rocket-medi-secure\\team-rocket-medi-secure\\contracts\\contracts\\InsuranceUpgradeable.sol",
  "compiler": {
    "name": "solc",
    "version": "0.8.20+commit.a1b79de6.Emscripten.clang"
  },
  "schemaVersion": "3.4.16",
  "updatedAt": "2026-04-24T10:38:31.085Z",
  "devdoc": {
    "errors": {
      "AddressEmptyCode(address)": [
        {
          "details": "There's no code at `target` (it is not a contract)."
        }
      ],
      "ERC1967InvalidImplementation(address)": [
        {
          "details": "The `implementation` of the proxy is invalid."
        }
      ],
      "ERC1967NonPayable()": [
        {
          "details": "An upgrade function sees `msg.value > 0` that may be lost."
        }
      ],
      "EnforcedPause()": [
        {
          "details": "The operation failed because the contract is paused."
        }
      ],
      "ExpectedPause()": [
        {
          "details": "The operation failed because the contract is not paused."
        }
      ],
      "FailedInnerCall()": [
        {
          "details": "A call to an address target failed. The target may have reverted."
        }
      ],
      "InvalidInitialization()": [
        {
          "details": "The contract is already initialized."
        }
      ],
      "NotInitializing()": [
        {
          "details": "The contract is not initializing."
        }
      ],
      "ReentrancyGuardReentrantCall()": [
        {
          "details": "Unauthorized reentrant call."
        }
      ],
      "UUPSUnauthorizedCallContext()": [
        {
          "details": "The call is from an unauthorized context."
        }
      ],
      "UUPSUnsupportedProxiableUUID(bytes32)": [
        {
          "details": "The storage `slot` is unsupported as a UUID."
        }
      ]
    },
    "events": {
      "Initialized(uint64)": {
        "details": "Triggered when the contract has been initialized or reinitialized."
      },
      "Paused(address)": {
        "details": "Emitted when the pause is triggered by `account`."
      },
      "Unpaused(address)": {
        "details": "Emitted when the pause is lifted by `account`."
      },
      "Upgraded(address)": {
        "details": "Emitted when the implementation is upgraded."
      }
    },
    "kind": "dev",
    "methods": {
      "constructor": {
        "custom:oz-upgrades-unsafe-allow": "constructor"
      },
      "isTrustedForwarder(address)": {
        "details": "Indicates whether any particular address is the trusted forwarder."
      },
      "paused()": {
        "details": "Returns true if the contract is paused, and false otherwise."
      },
      "proxiableUUID()": {
        "details": "Implementation of the ERC1822 {proxiableUUID} function. This returns the storage slot used by the implementation. It is used to validate the implementation's compatibility when performing an upgrade. IMPORTANT: A proxy pointing at a proxiable contract should not be considered proxiable itself, because this risks bricking a proxy that upgrades to it, by delegating to itself until out of gas. Thus it is critical that this function revert if invoked through a proxy. This is guaranteed by the `notDelegated` modifier."
      },
      "trustedForwarder()": {
        "details": "Returns the address of the trusted forwarder."
      },
      "upgradeToAndCall(address,bytes)": {
        "custom:oz-upgrades-unsafe-allow-reachable": "delegatecall",
        "details": "Upgrade the implementation of the proxy to `newImplementation`, and subsequently execute the function call encoded in `data`. Calls {_authorizeUpgrade}. Emits an {Upgraded} event."
      }
    },
    "version": 1
  },
  "userdoc": {
    "kind": "user",
    "methods": {},
    "version": 1
  }
}