{
  "contractName": "Marketplace",
  "abi": [
    {
      "inputs": [],
      "name": "ReentrancyGuardReentrantCall",
      "type": "error"
    },
    {
      "anonymous": false,
      "inputs": [
        {
          "indexed": true,
          "internalType": "address",
          "name": "wallet",
          "type": "address"
        },
        {
          "indexed": false,
          "internalType": "string",
          "name": "name",
          "type": "string"
        }
      ],
      "name": "CompanyRegistered",
      "type": "event",
      "signature": "0x76686aa361308f4a08557cca1a847299ce61e5602a3495cd359a599a1dca438c"
    },
    {
      "anonymous": false,
      "inputs": [
        {
          "indexed": true,
          "internalType": "uint256",
          "name": "offerId",
          "type": "uint256"
        },
        {
          "indexed": true,
          "internalType": "address",
          "name": "company",
          "type": "address"
        },
        {
          "indexed": true,
          "internalType": "address",
          "name": "patient",
          "type": "address"
        },
        {
          "indexed": false,
          "internalType": "uint256",
          "name": "price",
          "type": "uint256"
        }
      ],
      "name": "DataSold",
      "type": "event",
      "signature": "0x7a2b2b10e41d069cd369536a53b6c0334fe9970d5ed0b5f16a593412d3103ff5"
    },
    {
      "anonymous": false,
      "inputs": [
        {
          "indexed": true,
          "internalType": "uint256",
          "name": "offerId",
          "type": "uint256"
        },
        {
          "indexed": true,
          "internalType": "address",
          "name": "company",
          "type": "address"
        },
        {
          "indexed": false,
          "internalType": "string",
          "name": "title",
          "type": "string"
        },
        {
          "indexed": false,
          "internalType": "uint256",
          "name": "price",
          "type": "uint256"
        }
      ],
      "name": "OfferCreated",
      "type": "event",
      "signature": "0xcd9b913b9cb9a5dc2f311bf3d3137afdfe474a0385305ce48768a5c9d8804b0c"
    },
    {
      "inputs": [
        {
          "internalType": "address",
          "name": "",
          "type": "address"
        }
      ],
      "name": "companies",
      "outputs": [
        {
          "internalType": "uint256",
          "name": "id",
          "type": "uint256"
        },
        {
          "internalType": "address",
          "name": "wallet",
          "type": "address"
        },
        {
          "internalType": "string",
          "name": "name",
          "type": "string"
        },
        {
          "internalType": "string",
          "name": "email",
          "type": "string"
        },
        {
          "internalType": "bool",
          "name": "isRegistered",
          "type": "bool"
        }
      ],
      "stateMutability": "view",
      "type": "function",
      "constant": true,
      "signature": "0x355e6ce8"
    },
    {
      "inputs": [],
      "name": "companyCount",
      "outputs": [
        {
          "internalType": "uint256",
          "name": "",
          "type": "uint256"
        }
      ],
      "stateMutability": "view",
      "type": "function",
      "constant": true,
      "signature": "0x8e75dd47"
    },
    {
      "inputs": [
        {
          "internalType": "address",
          "name": "",
          "type": "address"
        },
        {
          "internalType": "uint256",
          "name": "",
          "type": "uint256"
        }
      ],
      "name": "companyPurchases",
      "outputs": [
        {
          "internalType": "address",
          "name": "patient",
          "type": "address"
        },
        {
          "internalType": "string",
          "name": "ipfsHash",
          "type": "string"
        },
        {
          "internalType": "uint256",
          "name": "timestamp",
          "type": "uint256"
        },
        {
          "internalType": "uint256",
          "name": "offerId",
          "type": "uint256"
        }
      ],
      "stateMutability": "view",
      "type": "function",
      "constant": true,
      "signature": "0x24f38c6a"
    },
    {
      "inputs": [],
      "name": "offerCount",
      "outputs": [
        {
          "internalType": "uint256",
          "name": "",
          "type": "uint256"
        }
      ],
      "stateMutability": "view",
      "type": "function",
      "constant": true,
      "signature": "0x1115c24d"
    },
    {
      "inputs": [
        {
          "internalType": "uint256",
          "name": "",
          "type": "uint256"
        }
      ],
      "name": "offers",
      "outputs": [
        {
          "internalType": "uint256",
          "name": "id",
          "type": "uint256"
        },
        {
          "internalType": "address",
          "name": "company",
          "type": "address"
        },
        {
          "internalType": "string",
          "name": "title",
          "type": "string"
        },
        {
          "internalType": "string",
          "name": "description",
          "type": "string"
        },
        {
          "internalType": "uint256",
          "name": "price",
          "type": "uint256"
        },
        {
          "internalType": "uint256",
          "name": "budget",
          "type": "uint256"
        },
        {
          "internalType": "bool",
          "name": "isActive",
          "type": "bool"
        }
      ],
      "stateMutability": "view",
      "type": "function",
      "constant": true,
      "signature": "0x8a72ea6a"
    },
    {
      "inputs": [
        {
          "internalType": "string",
          "name": "_name",
          "type": "string"
        },
        {
          "internalType": "string",
          "name": "_email",
          "type": "string"
        }
      ],
      "name": "registerCompany",
      "outputs": [],
      "stateMutability": "nonpayable",
      "type": "function",
      "signature": "0x74448ba4"
    },
    {
      "inputs": [
        {
          "internalType": "string",
          "name": "_title",
          "type": "string"
        },
        {
          "internalType": "string",
          "name": "_description",
          "type": "string"
        },
        {
          "internalType": "uint256",
          "name": "_pricePerRecord",
          "type": "uint256"
        }
      ],
      "name": "createOffer",
      "outputs": [],
      "stateMutability": "payable",
      "type": "function",
      "payable": true,
      "signature": "0xb816c56e"
    },
    {
      "inputs": [
        {
          "internalType": "uint256",
          "name": "_offerId",
          "type": "uint256"
        }
      ],
      "name": "fundOffer",
      "outputs": [],
      "stateMutability": "payable",
      "type": "function",
      "payable": true,
      "signature": "0x4ec3bd18"
    },
    {
      "inputs": [
        {
          "internalType": "uint256",
          "name": "_offerId",
          "type": "uint256"
        },
        {
          "internalType": "string",
          "name": "_ipfsHash",
          "type": "string"
        }
      ],
      "name": "sellData",
      "outputs": [],
      "stateMutability": "nonpayable",
      "type": "function",
      "signature": "0xe400d61b"
    },
    {
      "inputs": [],
      "name": "getAllOffers",
      "outputs": [
        {
          "components": [
            {
              "internalType": "uint256",
              "name": "id",
              "type": "uint256"
            },
            {
              "internalType": "address",
              "name": "company",
              "type": "address"
            },
            {
              "internalType": "string",
              "name": "title",
              "type": "string"
            },
            {
              "internalType": "string",
              "name": "description",
              "type": "string"
            },
            {
              "internalType": "uint256",
              "name": "price",
              "type": "uint256"
            },
            {
              "internalType": "uint256",
              "name": "budget",
              "type": "uint256"
            },
            {
              "internalType": "bool",
              "name": "isActive",
              "type": "bool"
            }
          ],
          "internalType": "struct Marketplace.DataOffer[]",
          "name": "",
          "type": "tuple[]"
        }
      ],
      "stateMutability": "view",
      "type": "function",
      "constant": true,
      "signature": "0xa1655278"
    },
    {
      "inputs": [],
      "name": "getCompanyPurchases",
      "outputs": [
        {
          "components": [
            {
              "internalType": "address",
              "name": "patient",
              "type": "address"
            },
            {
              "internalType": "string",
              "name": "ipfsHash",
              "type": "string"
            },
            {
              "internalType": "uint256",
              "name": "timestamp",
              "type": "uint256"
            },
            {
              "internalType": "uint256",
              "name": "offerId",
              "type": "uint256"
            }
          ],
          "internalType": "struct Marketplace.PurchasedRecord[]",
          "name": "",
          "type": "tuple[]"
        }
      ],
      "stateMutability": "view",
      "type": "function",
      "constant": true,
      "signature": "0xe03f2942"
    },
    {
      "inputs": [
        {
          "internalType": "address",
          "name": "_addr",
          "type": "address"
        }
      ],
      "name": "isCompany",
      "outputs": [
        {
          "internalType": "bool",
          "name": "",
          "type": "bool"
        }
      ],
      "stateMutability": "view",
      "type": "function",
      "constant": true,
      "signature": "0xa0406ce2"
    }
  ],
  "bytecode": "0x608060405260006004556000600555348015601957600080fd5b5060016000556117748061002e6000396000f3fe6080604052600436106100a75760003560e01c80638e75dd47116100645780638e75dd471461019e578063a0406ce2146101b4578063a165527814610200578063b816c56e14610222578063e03f294214610235578063e400d61b1461025757600080fd5b80631115c24d146100ac57806324f38c6a146100d5578063355e6ce8146101055780634ec3bd181461013657806374448ba41461014b5780638a72ea6a1461016b575b600080fd5b3480156100b857600080fd5b506100c260045481565b6040519081526020015b60405180910390f35b3480156100e157600080fd5b506100f56100f0366004611069565b610277565b6040516100cc94939291906110d9565b34801561011157600080fd5b50610125610120366004611110565b610353565b6040516100cc959493929190611132565b610149610144366004611183565b6104a0565b005b34801561015757600080fd5b50610149610166366004611241565b610579565b34801561017757600080fd5b5061018b610186366004611183565b6106d5565b6040516100cc97969594939291906112aa565b3480156101aa57600080fd5b506100c260055481565b3480156101c057600080fd5b506101f06101cf366004611110565b6001600160a01b031660009081526001602052604090206004015460ff1690565b60405190151581526020016100cc565b34801561020c57600080fd5b50610215610830565b6040516100cc9190611308565b6101496102303660046113d0565b610a98565b34801561024157600080fd5b5061024a610c56565b6040516100cc9190611443565b34801561026357600080fd5b506101496102723660046114d2565b610dac565b6003602052816000526040600020818154811061029357600080fd5b6000918252602090912060049091020180546001820180546001600160a01b0390921694509192506102c490611503565b80601f01602080910402602001604051908101604052809291908181526020018280546102f090611503565b801561033d5780601f106103125761010080835404028352916020019161033d565b820191906000526020600020905b81548152906001019060200180831161032057829003601f168201915b5050505050908060020154908060030154905084565b60016020819052600091825260409091208054918101546002820180546001600160a01b03909216929161038690611503565b80601f01602080910402602001604051908101604052809291908181526020018280546103b290611503565b80156103ff5780601f106103d4576101008083540402835291602001916103ff565b820191906000526020600020905b8154815290600101906020018083116103e257829003601f168201915b50505050509080600301805461041490611503565b80601f016020809104026020016040519081016040528092919081815260200182805461044090611503565b801561048d5780601f106104625761010080835404028352916020019161048d565b820191906000526020600020905b81548152906001019060200180831161047057829003601f168201915b5050506004909301549192505060ff1685565b3360009081526001602052604090206004015460ff166104db5760405162461bcd60e51b81526004016104d290611537565b60405180910390fd5b6000818152600260205260409020600101546001600160a01b031633146105355760405162461bcd60e51b815260206004820152600e60248201526d2737ba103cb7bab91037b33332b960911b60448201526064016104d2565b6000818152600260205260408120600501805434929061055690849061158f565b90915550506000908152600260205260409020600601805460ff19166001179055565b3360009081526001602052604090206004015460ff16156105dc5760405162461bcd60e51b815260206004820152601a60248201527f436f6d70616e7920616c7265616479207265676973746572656400000000000060448201526064016104d2565b600580549060006105ec836115a8565b90915550506040805160a0810182526005548152336020808301828152838501878152606085018790526001608086018190526000948552928390529490922083518155915190820180546001600160a01b0319166001600160a01b0390921691909117905591519091906002820190610666908261161d565b506060820151600382019061067b908261161d565b50608091909101516004909101805460ff191691151591909117905560405133907f76686aa361308f4a08557cca1a847299ce61e5602a3495cd359a599a1dca438c906106c99085906116e0565b60405180910390a25050565b600260208190526000918252604090912080546001820154928201805491936001600160a01b0316929161070890611503565b80601f016020809104026020016040519081016040528092919081815260200182805461073490611503565b80156107815780601f1061075657610100808354040283529160200191610781565b820191906000526020600020905b81548152906001019060200180831161076457829003601f168201915b50505050509080600301805461079690611503565b80601f01602080910402602001604051908101604052809291908181526020018280546107c290611503565b801561080f5780601f106107e45761010080835404028352916020019161080f565b820191906000526020600020905b8154815290600101906020018083116107f257829003601f168201915b50505050600483015460058401546006909401549293909290915060ff1687565b6060600060045467ffffffffffffffff81111561084f5761084f61119c565b6040519080825280602002602001820160405280156108cb57816020015b6108b86040518060e001604052806000815260200160006001600160a01b03168152602001606081526020016060815260200160008152602001600081526020016000151581525090565b81526020019060019003908161086d5790505b50905060015b6004548111610a9257600081815260026020818152604092839020835160e0810185528154815260018201546001600160a01b0316928101929092529182018054919384019161092090611503565b80601f016020809104026020016040519081016040528092919081815260200182805461094c90611503565b80156109995780601f1061096e57610100808354040283529160200191610999565b820191906000526020600020905b81548152906001019060200180831161097c57829003601f168201915b505050505081526020016003820180546109b290611503565b80601f01602080910402602001604051908101604052809291908181526020018280546109de90611503565b8015610a2b5780601f10610a0057610100808354040283529160200191610a2b565b820191906000526020600020905b815481529060010190602001808311610a0e57829003601f168201915b5050509183525050600482015460208201526005820154604082015260069091015460ff16151560609091015282610a646001846116f3565b81518110610a7457610a74611706565b60200260200101819052508080610a8a906115a8565b9150506108d1565b50919050565b3360009081526001602052604090206004015460ff16610aca5760405162461bcd60e51b81526004016104d290611537565b80341015610b305760405162461bcd60e51b815260206004820152602d60248201527f496e697469616c20627564676574206d75737420636f766572206174206c656160448201526c1cdd081bdb99481c9958dbdc99609a1b60648201526084016104d2565b60048054906000610b40836115a8565b90915550506040805160e08101825260045480825233602080840191825283850188815260608501889052608085018790523460a0860152600160c0860181905260009485526002928390529590932084518155915194820180546001600160a01b0319166001600160a01b039096169590951790945590519192909190820190610bcb908261161d565b5060608201516003820190610be0908261161d565b50608082015160048281019190915560a0830151600583015560c0909201516006909101805460ff1916911515919091179055546040513391907fcd9b913b9cb9a5dc2f311bf3d3137afdfe474a0385305ce48768a5c9d8804b0c90610c49908790869061171c565b60405180910390a3505050565b3360009081526001602052604090206004015460609060ff16610c8b5760405162461bcd60e51b81526004016104d290611537565b33600090815260036020908152604080832080548251818502810185019093528083529193909284015b82821015610da357600084815260209081902060408051608081019091526004850290910180546001600160a01b031682526001810180549293919291840191610cfe90611503565b80601f0160208091040260200160405190810160405280929190818152602001828054610d2a90611503565b8015610d775780601f10610d4c57610100808354040283529160200191610d77565b820191906000526020600020905b815481529060010190602001808311610d5a57829003601f168201915b505050505081526020016002820154815260200160038201548152505081526020019060010190610cb5565b50505050905090565b610db4611023565b6000828152600260205260409020600681015460ff16610e0c5760405162461bcd60e51b81526020600482015260136024820152724f66666572206973206e6f742061637469766560681b60448201526064016104d2565b806004015481600501541015610e5d5760405162461bcd60e51b815260206004820152601660248201527513d999995c88189d5919d95d08195e1a185d5cdd195960521b60448201526064016104d2565b8060040154816005016000828254610e7591906116f3565b9091555050600481015460058201541015610e975760068101805460ff191690555b6001818101546001600160a01b03908116600090815260036020908152604080832081516080810183523381528084018981524293820193909352606081018a90528154808801835591855292909320825160049094020180546001600160a01b0319169390941692909217835590519092820190610f16908261161d565b5060408281015160028301556060909201516003909101556004820154905160009133918381818185875af1925050503d8060008114610f72576040519150601f19603f3d011682016040523d82523d6000602084013e610f77565b606091505b5050905080610fc85760405162461bcd60e51b815260206004820152601f60248201527f4661696c656420746f2073656e6420457468657220746f2070617469656e740060448201526064016104d2565b6001820154600483015460405190815233916001600160a01b03169086907f7a2b2b10e41d069cd369536a53b6c0334fe9970d5ed0b5f16a593412d3103ff59060200160405180910390a4505061101f6001600055565b5050565b60026000540361104657604051633ee5aeb560e01b815260040160405180910390fd5b6002600055565b80356001600160a01b038116811461106457600080fd5b919050565b6000806040838503121561107c57600080fd5b6110858361104d565b946020939093013593505050565b6000815180845260005b818110156110b95760208185018101518683018201520161109d565b506000602082860101526020601f19601f83011685010191505092915050565b6001600160a01b03851681526080602082018190526000906110fd90830186611093565b6040830194909452506060015292915050565b60006020828403121561112257600080fd5b61112b8261104d565b9392505050565b8581526001600160a01b038516602082015260a06040820181905260009061115c90830186611093565b828103606084015261116e8186611093565b91505082151560808301529695505050505050565b60006020828403121561119557600080fd5b5035919050565b634e487b7160e01b600052604160045260246000fd5b600082601f8301126111c357600080fd5b813567ffffffffffffffff8111156111dd576111dd61119c565b604051601f8201601f19908116603f0116810167ffffffffffffffff8111828210171561120c5761120c61119c565b60405281815283820160200185101561122457600080fd5b816020850160208301376000918101602001919091529392505050565b6000806040838503121561125457600080fd5b823567ffffffffffffffff81111561126b57600080fd5b611277858286016111b2565b925050602083013567ffffffffffffffff81111561129457600080fd5b6112a0858286016111b2565b9150509250929050565b8781526001600160a01b038716602082015260e0604082018190526000906112d490830188611093565b82810360608401526112e68188611093565b6080840196909652505060a0810192909252151560c090910152949350505050565b6000602082016020835280845180835260408501915060408160051b86010192506020860160005b828110156113c457603f1987860301845281518051865260018060a01b036020820151166020870152604081015160e0604088015261137260e0880182611093565b90506060820151878203606089015261138b8282611093565b608084810151908a015260a080850151908a015260c0938401511515939098019290925250506020938401939190910190600101611330565b50929695505050505050565b6000806000606084860312156113e557600080fd5b833567ffffffffffffffff8111156113fc57600080fd5b611408868287016111b2565b935050602084013567ffffffffffffffff81111561142557600080fd5b611431868287016111b2565b93969395505050506040919091013590565b6000602082016020835280845180835260408501915060408160051b86010192506020860160005b828110156113c457868503603f19018452815180516001600160a01b031686526020808201516080918801829052906114a690880182611093565b60408381015190890152606092830151929097019190915250602093840193919091019060010161146b565b600080604083850312156114e557600080fd5b82359150602083013567ffffffffffffffff81111561129457600080fd5b600181811c9082168061151757607f821691505b602082108103610a9257634e487b7160e01b600052602260045260246000fd5b60208082526022908201527f43616c6c6572206973206e6f742061207265676973746572656420636f6d70616040820152616e7960f01b606082015260800190565b634e487b7160e01b600052601160045260246000fd5b808201808211156115a2576115a2611579565b92915050565b6000600182016115ba576115ba611579565b5060010190565b601f821115611618578282111561161857806000526020600020601f840160051c60208510156115ef575060005b90810190601f840160051c0360005b81811015611614576000838201556001016115fe565b5050505b505050565b815167ffffffffffffffff8111156116375761163761119c565b61164b816116458454611503565b846115c1565b6020601f82116001811461167f57600083156116675750848201515b600019600385901b1c1916600184901b1784556116d9565b600084815260208120601f198516915b828110156116af578785015182556020948501946001909201910161168f565b50848210156116cd5786840151600019600387901b60f8161c191681555b505060018360011b0184555b5050505050565b60208152600061112b6020830184611093565b818103818111156115a2576115a2611579565b634e487b7160e01b600052603260045260246000fd5b60408152600061172f6040830185611093565b9050826020830152939250505056fea264697066735822122051cbe2e1a759d1885ace2f7dd27e7165bef8c7055ee6cad499b405d3ad90c6c664736f6c63430008210033",
  "immutableReferences": {},
  "source": "// SPDX-License-Identifier: MIT\r\npragma solidity ^0.8.20;\r\n\r\nimport \"@openzeppelin/contracts/utils/ReentrancyGuard.sol\";\r\n\r\ncontract Marketplace is ReentrancyGuard {\r\n    struct Company {\r\n        uint256 id;\r\n        address wallet;\r\n        string name;\r\n        string email;\r\n        bool isRegistered;\r\n    }\r\n\r\n    struct DataOffer {\r\n        uint256 id;\r\n        address company;\r\n        string title;\r\n        string description;\r\n        uint256 price; // Amount paid to patient per record\r\n        uint256 budget; // Total funds available for this offer\r\n        bool isActive;\r\n    }\r\n\r\n    struct PurchasedRecord {\r\n        address patient;\r\n        string ipfsHash;\r\n        uint256 timestamp;\r\n        uint256 offerId;\r\n    }\r\n\r\n    // State Variables\r\n    mapping(address => Company) public companies;\r\n    mapping(uint256 => DataOffer) public offers;\r\n    mapping(address => PurchasedRecord[]) public companyPurchases; // company address -> list of records they bought\r\n\r\n    uint256 public offerCount = 0;\r\n    uint256 public companyCount = 0;\r\n\r\n    // Events\r\n    event CompanyRegistered(address indexed wallet, string name);\r\n    event OfferCreated(\r\n        uint256 indexed offerId,\r\n        address indexed company,\r\n        string title,\r\n        uint256 price\r\n    );\r\n    event DataSold(\r\n        uint256 indexed offerId,\r\n        address indexed company,\r\n        address indexed patient,\r\n        uint256 price\r\n    );\r\n\r\n    // --- Modifiers ---\r\n    modifier onlyCompany() {\r\n        require(\r\n            companies[msg.sender].isRegistered,\r\n            \"Caller is not a registered company\"\r\n        );\r\n        _;\r\n    }\r\n\r\n    // --- Company Functions ---\r\n\r\n    function registerCompany(string memory _name, string memory _email) public {\r\n        require(\r\n            !companies[msg.sender].isRegistered,\r\n            \"Company already registered\"\r\n        );\r\n\r\n        companyCount++;\r\n        companies[msg.sender] = Company({\r\n            id: companyCount,\r\n            wallet: msg.sender,\r\n            name: _name,\r\n            email: _email,\r\n            isRegistered: true\r\n        });\r\n\r\n        emit CompanyRegistered(msg.sender, _name);\r\n    }\r\n\r\n    function createOffer(\r\n        string memory _title,\r\n        string memory _description,\r\n        uint256 _pricePerRecord\r\n    ) public payable onlyCompany {\r\n        require(\r\n            msg.value >= _pricePerRecord,\r\n            \"Initial budget must cover at least one record\"\r\n        );\r\n\r\n        offerCount++;\r\n        offers[offerCount] = DataOffer({\r\n            id: offerCount,\r\n            company: msg.sender,\r\n            title: _title,\r\n            description: _description,\r\n            price: _pricePerRecord,\r\n            budget: msg.value,\r\n            isActive: true\r\n        });\r\n\r\n        emit OfferCreated(offerCount, msg.sender, _title, _pricePerRecord);\r\n    }\r\n\r\n    function fundOffer(uint256 _offerId) public payable onlyCompany {\r\n        require(offers[_offerId].company == msg.sender, \"Not your offer\");\r\n        offers[_offerId].budget += msg.value;\r\n        offers[_offerId].isActive = true;\r\n    }\r\n\r\n    // --- Patient Functions ---\r\n\r\n    function sellData(uint256 _offerId, string memory _ipfsHash) public nonReentrant {\r\n        DataOffer storage offer = offers[_offerId];\r\n\r\n        require(offer.isActive, \"Offer is not active\");\r\n        require(offer.budget >= offer.price, \"Offer budget exhausted\");\r\n\r\n        // 1. Update State (Effects)\r\n        offer.budget -= offer.price;\r\n\r\n        // Deactivate if empty\r\n        if (offer.budget < offer.price) {\r\n            offer.isActive = false;\r\n        }\r\n\r\n        companyPurchases[offer.company].push(\r\n            PurchasedRecord({\r\n                patient: msg.sender,\r\n                ipfsHash: _ipfsHash,\r\n                timestamp: block.timestamp,\r\n                offerId: _offerId\r\n            })\r\n        );\r\n\r\n        // 2. Interaction\r\n        (bool sent, ) = payable(msg.sender).call{value: offer.price}(\"\");\r\n        require(sent, \"Failed to send Ether to patient\");\r\n\r\n        emit DataSold(_offerId, offer.company, msg.sender, offer.price);\r\n    }\r\n\r\n    // --- Getters ---\r\n\r\n    function getAllOffers() public view returns (DataOffer[] memory) {\r\n        DataOffer[] memory allOffers = new DataOffer[](offerCount);\r\n        for (uint i = 1; i <= offerCount; i++) {\r\n            allOffers[i - 1] = offers[i];\r\n        }\r\n        return allOffers;\r\n    }\r\n\r\n    function getCompanyPurchases()\r\n        public\r\n        view\r\n        onlyCompany\r\n        returns (PurchasedRecord[] memory)\r\n    {\r\n        return companyPurchases[msg.sender];\r\n    }\r\n\r\n    function isCompany(address _addr) public view returns (bool) {\r\n        return companies[_addr].isRegistered;\r\n    }\r\n}\r\n",
  "sourcePath": "J:\\Users\\ayush\\Desktop\\code\\team-rocket-medi-secure\\contracts\\contracts\\Marketplace.sol",
  "compiler": {
    "name": "solc",
    "version": "0.8.33+commit.64118f21.Emscripten.clang"
  },
  "schemaVersion": "3.4.16",
  "updatedAt": "2026-01-22T11:16:49.361Z",
  "networkType": "ethereum",
  "devdoc": {
    "errors": {
      "ReentrancyGuardReentrantCall()": [
        {
          "details": "Unauthorized reentrant call."
        }
      ]
    },
    "kind": "dev",
    "methods": {},
    "version": 1
  },
  "userdoc": {
    "kind": "user",
    "methods": {},
    "version": 1
  },
  "timeoutBlocks": 0,
  "autoGas": true,
  "gasMultiplier": 1.25
}