{
  "contractName": "Marketplace",
  "abi": [
    {
      "anonymous": false,
      "inputs": [
        {
          "indexed": true,
          "internalType": "address",
          "name": "wallet",
          "type": "address"
        },
        {
          "indexed": false,
          "internalType": "string",
          "name": "name",
          "type": "string"
        }
      ],
      "name": "CompanyRegistered",
      "type": "event",
      "signature": "0x76686aa361308f4a08557cca1a847299ce61e5602a3495cd359a599a1dca438c"
    },
    {
      "anonymous": false,
      "inputs": [
        {
          "indexed": true,
          "internalType": "uint256",
          "name": "offerId",
          "type": "uint256"
        },
        {
          "indexed": true,
          "internalType": "address",
          "name": "company",
          "type": "address"
        },
        {
          "indexed": true,
          "internalType": "address",
          "name": "patient",
          "type": "address"
        },
        {
          "indexed": false,
          "internalType": "uint256",
          "name": "price",
          "type": "uint256"
        }
      ],
      "name": "DataSold",
      "type": "event",
      "signature": "0x7a2b2b10e41d069cd369536a53b6c0334fe9970d5ed0b5f16a593412d3103ff5"
    },
    {
      "anonymous": false,
      "inputs": [
        {
          "indexed": true,
          "internalType": "uint256",
          "name": "offerId",
          "type": "uint256"
        },
        {
          "indexed": true,
          "internalType": "address",
          "name": "company",
          "type": "address"
        },
        {
          "indexed": false,
          "internalType": "string",
          "name": "title",
          "type": "string"
        },
        {
          "indexed": false,
          "internalType": "uint256",
          "name": "price",
          "type": "uint256"
        }
      ],
      "name": "OfferCreated",
      "type": "event",
      "signature": "0xcd9b913b9cb9a5dc2f311bf3d3137afdfe474a0385305ce48768a5c9d8804b0c"
    },
    {
      "inputs": [
        {
          "internalType": "address",
          "name": "",
          "type": "address"
        }
      ],
      "name": "companies",
      "outputs": [
        {
          "internalType": "uint256",
          "name": "id",
          "type": "uint256"
        },
        {
          "internalType": "address",
          "name": "wallet",
          "type": "address"
        },
        {
          "internalType": "string",
          "name": "name",
          "type": "string"
        },
        {
          "internalType": "string",
          "name": "email",
          "type": "string"
        },
        {
          "internalType": "bool",
          "name": "isRegistered",
          "type": "bool"
        }
      ],
      "stateMutability": "view",
      "type": "function",
      "constant": true,
      "signature": "0x355e6ce8"
    },
    {
      "inputs": [],
      "name": "companyCount",
      "outputs": [
        {
          "internalType": "uint256",
          "name": "",
          "type": "uint256"
        }
      ],
      "stateMutability": "view",
      "type": "function",
      "constant": true,
      "signature": "0x8e75dd47"
    },
    {
      "inputs": [
        {
          "internalType": "address",
          "name": "",
          "type": "address"
        },
        {
          "internalType": "uint256",
          "name": "",
          "type": "uint256"
        }
      ],
      "name": "companyPurchases",
      "outputs": [
        {
          "internalType": "address",
          "name": "patient",
          "type": "address"
        },
        {
          "internalType": "string",
          "name": "ipfsHash",
          "type": "string"
        },
        {
          "internalType": "uint256",
          "name": "timestamp",
          "type": "uint256"
        },
        {
          "internalType": "uint256",
          "name": "offerId",
          "type": "uint256"
        }
      ],
      "stateMutability": "view",
      "type": "function",
      "constant": true,
      "signature": "0x24f38c6a"
    },
    {
      "inputs": [],
      "name": "offerCount",
      "outputs": [
        {
          "internalType": "uint256",
          "name": "",
          "type": "uint256"
        }
      ],
      "stateMutability": "view",
      "type": "function",
      "constant": true,
      "signature": "0x1115c24d"
    },
    {
      "inputs": [
        {
          "internalType": "uint256",
          "name": "",
          "type": "uint256"
        }
      ],
      "name": "offers",
      "outputs": [
        {
          "internalType": "uint256",
          "name": "id",
          "type": "uint256"
        },
        {
          "internalType": "address",
          "name": "company",
          "type": "address"
        },
        {
          "internalType": "string",
          "name": "title",
          "type": "string"
        },
        {
          "internalType": "string",
          "name": "description",
          "type": "string"
        },
        {
          "internalType": "uint256",
          "name": "price",
          "type": "uint256"
        },
        {
          "internalType": "uint256",
          "name": "budget",
          "type": "uint256"
        },
        {
          "internalType": "bool",
          "name": "isActive",
          "type": "bool"
        }
      ],
      "stateMutability": "view",
      "type": "function",
      "constant": true,
      "signature": "0x8a72ea6a"
    },
    {
      "inputs": [
        {
          "internalType": "string",
          "name": "_name",
          "type": "string"
        },
        {
          "internalType": "string",
          "name": "_email",
          "type": "string"
        }
      ],
      "name": "registerCompany",
      "outputs": [],
      "stateMutability": "nonpayable",
      "type": "function",
      "signature": "0x74448ba4"
    },
    {
      "inputs": [
        {
          "internalType": "string",
          "name": "_title",
          "type": "string"
        },
        {
          "internalType": "string",
          "name": "_description",
          "type": "string"
        },
        {
          "internalType": "uint256",
          "name": "_pricePerRecord",
          "type": "uint256"
        }
      ],
      "name": "createOffer",
      "outputs": [],
      "stateMutability": "payable",
      "type": "function",
      "payable": true,
      "signature": "0xb816c56e"
    },
    {
      "inputs": [
        {
          "internalType": "uint256",
          "name": "_offerId",
          "type": "uint256"
        }
      ],
      "name": "fundOffer",
      "outputs": [],
      "stateMutability": "payable",
      "type": "function",
      "payable": true,
      "signature": "0x4ec3bd18"
    },
    {
      "inputs": [
        {
          "internalType": "uint256",
          "name": "_offerId",
          "type": "uint256"
        },
        {
          "internalType": "string",
          "name": "_ipfsHash",
          "type": "string"
        }
      ],
      "name": "sellData",
      "outputs": [],
      "stateMutability": "nonpayable",
      "type": "function",
      "signature": "0xe400d61b"
    },
    {
      "inputs": [],
      "name": "getAllOffers",
      "outputs": [
        {
          "components": [
            {
              "internalType": "uint256",
              "name": "id",
              "type": "uint256"
            },
            {
              "internalType": "address",
              "name": "company",
              "type": "address"
            },
            {
              "internalType": "string",
              "name": "title",
              "type": "string"
            },
            {
              "internalType": "string",
              "name": "description",
              "type": "string"
            },
            {
              "internalType": "uint256",
              "name": "price",
              "type": "uint256"
            },
            {
              "internalType": "uint256",
              "name": "budget",
              "type": "uint256"
            },
            {
              "internalType": "bool",
              "name": "isActive",
              "type": "bool"
            }
          ],
          "internalType": "struct Marketplace.DataOffer[]",
          "name": "",
          "type": "tuple[]"
        }
      ],
      "stateMutability": "view",
      "type": "function",
      "constant": true,
      "signature": "0xa1655278"
    },
    {
      "inputs": [],
      "name": "getCompanyPurchases",
      "outputs": [
        {
          "components": [
            {
              "internalType": "address",
              "name": "patient",
              "type": "address"
            },
            {
              "internalType": "string",
              "name": "ipfsHash",
              "type": "string"
            },
            {
              "internalType": "uint256",
              "name": "timestamp",
              "type": "uint256"
            },
            {
              "internalType": "uint256",
              "name": "offerId",
              "type": "uint256"
            }
          ],
          "internalType": "struct Marketplace.PurchasedRecord[]",
          "name": "",
          "type": "tuple[]"
        }
      ],
      "stateMutability": "view",
      "type": "function",
      "constant": true,
      "signature": "0xe03f2942"
    },
    {
      "inputs": [
        {
          "internalType": "address",
          "name": "_addr",
          "type": "address"
        }
      ],
      "name": "isCompany",
      "outputs": [
        {
          "internalType": "bool",
          "name": "",
          "type": "bool"
        }
      ],
      "stateMutability": "view",
      "type": "function",
      "constant": true,
      "signature": "0xa0406ce2"
    }
  ],
  "bytecode": "0x60806040525f6003555f600455348015610017575f80fd5b506125d8806100255f395ff3fe6080604052600436106100a6575f3560e01c80638e75dd47116100635780638e75dd47146101d9578063a0406ce214610203578063a16552781461023f578063b816c56e14610269578063e03f294214610285578063e400d61b146102af576100a6565b80631115c24d146100aa57806324f38c6a146100d4578063355e6ce8146101135780634ec3bd181461015357806374448ba41461016f5780638a72ea6a14610197575b5f80fd5b3480156100b5575f80fd5b506100be6102d7565b6040516100cb919061153e565b60405180910390f35b3480156100df575f80fd5b506100fa60048036038101906100f591906115ec565b6102dd565b60405161010a94939291906116c3565b60405180910390f35b34801561011e575f80fd5b506101396004803603810190610134919061170d565b6103c8565b60405161014a959493929190611752565b60405180910390f35b61016d600480360381019061016891906117b1565b610530565b005b34801561017a575f80fd5b5061019560048036038101906101909190611908565b6106b4565b005b3480156101a2575f80fd5b506101bd60048036038101906101b891906117b1565b6108c3565b6040516101d0979695949392919061197e565b60405180910390f35b3480156101e4575f80fd5b506101ed610a38565b6040516101fa919061153e565b60405180910390f35b34801561020e575f80fd5b506102296004803603810190610224919061170d565b610a3e565b60405161023691906119f9565b60405180910390f35b34801561024a575f80fd5b50610253610a92565b6040516102609190611be2565b60405180910390f35b610283600480360381019061027e9190611c02565b610d09565b005b348015610290575f80fd5b50610299610f57565b6040516102a69190611da5565b60405180910390f35b3480156102ba575f80fd5b506102d560048036038101906102d09190611dc5565b611171565b005b60035481565b6002602052815f5260405f2081815481106102f6575f80fd5b905f5260205f2090600402015f9150915050805f015f9054906101000a900473ffffffffffffffffffffffffffffffffffffffff169080600101805461033b90611e4c565b80601f016020809104026020016040519081016040528092919081815260200182805461036790611e4c565b80156103b25780601f10610389576101008083540402835291602001916103b2565b820191905f5260205f20905b81548152906001019060200180831161039557829003601f168201915b5050505050908060020154908060030154905084565b5f602052805f5260405f205f91509050805f015490806001015f9054906101000a900473ffffffffffffffffffffffffffffffffffffffff169080600201805461041190611e4c565b80601f016020809104026020016040519081016040528092919081815260200182805461043d90611e4c565b80156104885780601f1061045f57610100808354040283529160200191610488565b820191905f5260205f20905b81548152906001019060200180831161046b57829003601f168201915b50505050509080600301805461049d90611e4c565b80601f01602080910402602001604051908101604052809291908181526020018280546104c990611e4c565b80156105145780601f106104eb57610100808354040283529160200191610514565b820191905f5260205f20905b8154815290600101906020018083116104f757829003601f168201915b505050505090806004015f9054906101000a900460ff16905085565b5f803373ffffffffffffffffffffffffffffffffffffffff1673ffffffffffffffffffffffffffffffffffffffff1681526020019081526020015f206004015f9054906101000a900460ff166105bb576040517f08c379a00000000000000000000000000000000000000000000000000000000081526004016105b290611eec565b60405180910390fd5b3373ffffffffffffffffffffffffffffffffffffffff1660015f8381526020019081526020015f206001015f9054906101000a900473ffffffffffffffffffffffffffffffffffffffff1673ffffffffffffffffffffffffffffffffffffffff161461065c576040517f08c379a000000000000000000000000000000000000000000000000000000000815260040161065390611f54565b60405180910390fd5b3460015f8381526020019081526020015f206005015f82825461067f9190611f9f565b925050819055506001805f8381526020019081526020015f206006015f6101000a81548160ff02191690831515021790555050565b5f803373ffffffffffffffffffffffffffffffffffffffff1673ffffffffffffffffffffffffffffffffffffffff1681526020019081526020015f206004015f9054906101000a900460ff1615610740576040517f08c379a00000000000000000000000000000000000000000000000000000000081526004016107379061201c565b60405180910390fd5b60045f8154809291906107529061203a565b91905055506040518060a0016040528060045481526020013373ffffffffffffffffffffffffffffffffffffffff168152602001838152602001828152602001600115158152505f803373ffffffffffffffffffffffffffffffffffffffff1673ffffffffffffffffffffffffffffffffffffffff1681526020019081526020015f205f820151815f01556020820151816001015f6101000a81548173ffffffffffffffffffffffffffffffffffffffff021916908373ffffffffffffffffffffffffffffffffffffffff1602179055506040820151816002019081610838919061221e565b50606082015181600301908161084e919061221e565b506080820151816004015f6101000a81548160ff0219169083151502179055509050503373ffffffffffffffffffffffffffffffffffffffff167f76686aa361308f4a08557cca1a847299ce61e5602a3495cd359a599a1dca438c836040516108b791906122ed565b60405180910390a25050565b6001602052805f5260405f205f91509050805f015490806001015f9054906101000a900473ffffffffffffffffffffffffffffffffffffffff169080600201805461090d90611e4c565b80601f016020809104026020016040519081016040528092919081815260200182805461093990611e4c565b80156109845780601f1061095b57610100808354040283529160200191610984565b820191905f5260205f20905b81548152906001019060200180831161096757829003601f168201915b50505050509080600301805461099990611e4c565b80601f01602080910402602001604051908101604052809291908181526020018280546109c590611e4c565b8015610a105780601f106109e757610100808354040283529160200191610a10565b820191905f5260205f20905b8154815290600101906020018083116109f357829003601f168201915b505050505090806004015490806005015490806006015f9054906101000a900460ff16905087565b60045481565b5f805f8373ffffffffffffffffffffffffffffffffffffffff1673ffffffffffffffffffffffffffffffffffffffff1681526020019081526020015f206004015f9054906101000a900460ff169050919050565b60605f60035467ffffffffffffffff811115610ab157610ab06117e4565b5b604051908082528060200260200182016040528015610aea57816020015b610ad76114d6565b815260200190600190039081610acf5790505b5090505f600190505b6003548111610d015760015f8281526020019081526020015f206040518060e00160405290815f8201548152602001600182015f9054906101000a900473ffffffffffffffffffffffffffffffffffffffff1673ffffffffffffffffffffffffffffffffffffffff1673ffffffffffffffffffffffffffffffffffffffff168152602001600282018054610b8690611e4c565b80601f0160208091040260200160405190810160405280929190818152602001828054610bb290611e4c565b8015610bfd5780601f10610bd457610100808354040283529160200191610bfd565b820191905f5260205f20905b815481529060010190602001808311610be057829003601f168201915b50505050508152602001600382018054610c1690611e4c565b80601f0160208091040260200160405190810160405280929190818152602001828054610c4290611e4c565b8015610c8d5780601f10610c6457610100808354040283529160200191610c8d565b820191905f5260205f20905b815481529060010190602001808311610c7057829003601f168201915b505050505081526020016004820154815260200160058201548152602001600682015f9054906101000a900460ff16151515158152505082600183610cd2919061230d565b81518110610ce357610ce2612340565b5b60200260200101819052508080610cf99061203a565b915050610af3565b508091505090565b5f803373ffffffffffffffffffffffffffffffffffffffff1673ffffffffffffffffffffffffffffffffffffffff1681526020019081526020015f206004015f9054906101000a900460ff16610d94576040517f08c379a0000000000000000000000000000000000000000000000000000000008152600401610d8b90611eec565b60405180910390fd5b80341015610dd7576040517f08c379a0000000000000000000000000000000000000000000000000000000008152600401610dce906123dd565b60405180910390fd5b60035f815480929190610de99061203a565b91905055506040518060e0016040528060035481526020013373ffffffffffffffffffffffffffffffffffffffff1681526020018481526020018381526020018281526020013481526020016001151581525060015f60035481526020019081526020015f205f820151815f01556020820151816001015f6101000a81548173ffffffffffffffffffffffffffffffffffffffff021916908373ffffffffffffffffffffffffffffffffffffffff1602179055506040820151816002019081610eb2919061221e565b506060820151816003019081610ec8919061221e565b506080820151816004015560a0820151816005015560c0820151816006015f6101000a81548160ff0219169083151502179055509050503373ffffffffffffffffffffffffffffffffffffffff166003547fcd9b913b9cb9a5dc2f311bf3d3137afdfe474a0385305ce48768a5c9d8804b0c8584604051610f4a9291906123fb565b60405180910390a3505050565b60605f803373ffffffffffffffffffffffffffffffffffffffff1673ffffffffffffffffffffffffffffffffffffffff1681526020019081526020015f206004015f9054906101000a900460ff16610fe4576040517f08c379a0000000000000000000000000000000000000000000000000000000008152600401610fdb90611eec565b60405180910390fd5b60025f3373ffffffffffffffffffffffffffffffffffffffff1673ffffffffffffffffffffffffffffffffffffffff1681526020019081526020015f20805480602002602001604051908101604052809291908181526020015f905b82821015611168578382905f5260205f2090600402016040518060800160405290815f82015f9054906101000a900473ffffffffffffffffffffffffffffffffffffffff1673ffffffffffffffffffffffffffffffffffffffff1673ffffffffffffffffffffffffffffffffffffffff1681526020016001820180546110c590611e4c565b80601f01602080910402602001604051908101604052809291908181526020018280546110f190611e4c565b801561113c5780601f106111135761010080835404028352916020019161113c565b820191905f5260205f20905b81548152906001019060200180831161111f57829003601f168201915b505050505081526020016002820154815260200160038201548152505081526020019060010190611040565b50505050905090565b5f60015f8481526020019081526020015f209050806006015f9054906101000a900460ff166111d5576040517f08c379a00000000000000000000000000000000000000000000000000000000081526004016111cc90612473565b60405180910390fd5b806004015481600501541015611220576040517f08c379a0000000000000000000000000000000000000000000000000000000008152600401611217906124db565b60405180910390fd5b60025f826001015f9054906101000a900473ffffffffffffffffffffffffffffffffffffffff1673ffffffffffffffffffffffffffffffffffffffff1673ffffffffffffffffffffffffffffffffffffffff1681526020019081526020015f2060405180608001604052803373ffffffffffffffffffffffffffffffffffffffff16815260200184815260200142815260200185815250908060018154018082558091505060019003905f5260205f2090600402015f909190919091505f820151815f015f6101000a81548173ffffffffffffffffffffffffffffffffffffffff021916908373ffffffffffffffffffffffffffffffffffffffff1602179055506020820151816001019081611336919061221e565b50604082015181600201556060820151816003015550508060040154816005015f828254611364919061230d565b925050819055505f3373ffffffffffffffffffffffffffffffffffffffff16826004015460405161139490612526565b5f6040518083038185875af1925050503d805f81146113ce576040519150601f19603f3d011682016040523d82523d5f602084013e6113d3565b606091505b5050905080611417576040517f08c379a000000000000000000000000000000000000000000000000000000000815260040161140e90612584565b60405180910390fd5b816004015482600501541015611443575f826006015f6101000a81548160ff0219169083151502179055505b3373ffffffffffffffffffffffffffffffffffffffff16826001015f9054906101000a900473ffffffffffffffffffffffffffffffffffffffff1673ffffffffffffffffffffffffffffffffffffffff16857f7a2b2b10e41d069cd369536a53b6c0334fe9970d5ed0b5f16a593412d3103ff585600401546040516114c8919061153e565b60405180910390a450505050565b6040518060e001604052805f81526020015f73ffffffffffffffffffffffffffffffffffffffff16815260200160608152602001606081526020015f81526020015f81526020015f151581525090565b5f819050919050565b61153881611526565b82525050565b5f6020820190506115515f83018461152f565b92915050565b5f604051905090565b5f80fd5b5f80fd5b5f73ffffffffffffffffffffffffffffffffffffffff82169050919050565b5f61159182611568565b9050919050565b6115a181611587565b81146115ab575f80fd5b50565b5f813590506115bc81611598565b92915050565b6115cb81611526565b81146115d5575f80fd5b50565b5f813590506115e6816115c2565b92915050565b5f806040838503121561160257611601611560565b5b5f61160f858286016115ae565b9250506020611620858286016115d8565b9150509250929050565b61163381611587565b82525050565b5f81519050919050565b5f82825260208201905092915050565b5f5b83811015611670578082015181840152602081019050611655565b5f8484015250505050565b5f601f19601f8301169050919050565b5f61169582611639565b61169f8185611643565b93506116af818560208601611653565b6116b88161167b565b840191505092915050565b5f6080820190506116d65f83018761162a565b81810360208301526116e8818661168b565b90506116f7604083018561152f565b611704606083018461152f565b95945050505050565b5f6020828403121561172257611721611560565b5b5f61172f848285016115ae565b91505092915050565b5f8115159050919050565b61174c81611738565b82525050565b5f60a0820190506117655f83018861152f565b611772602083018761162a565b8181036040830152611784818661168b565b90508181036060830152611798818561168b565b90506117a76080830184611743565b9695505050505050565b5f602082840312156117c6576117c5611560565b5b5f6117d3848285016115d8565b91505092915050565b5f80fd5b5f80fd5b7f4e487b71000000000000000000000000000000000000000000000000000000005f52604160045260245ffd5b61181a8261167b565b810181811067ffffffffffffffff82111715611839576118386117e4565b5b80604052505050565b5f61184b611557565b90506118578282611811565b919050565b5f67ffffffffffffffff821115611876576118756117e4565b5b61187f8261167b565b9050602081019050919050565b828183375f83830152505050565b5f6118ac6118a78461185c565b611842565b9050828152602081018484840111156118c8576118c76117e0565b5b6118d384828561188c565b509392505050565b5f82601f8301126118ef576118ee6117dc565b5b81356118ff84826020860161189a565b91505092915050565b5f806040838503121561191e5761191d611560565b5b5f83013567ffffffffffffffff81111561193b5761193a611564565b5b611947858286016118db565b925050602083013567ffffffffffffffff81111561196857611967611564565b5b611974858286016118db565b9150509250929050565b5f60e0820190506119915f83018a61152f565b61199e602083018961162a565b81810360408301526119b0818861168b565b905081810360608301526119c4818761168b565b90506119d3608083018661152f565b6119e060a083018561152f565b6119ed60c0830184611743565b98975050505050505050565b5f602082019050611a0c5f830184611743565b92915050565b5f81519050919050565b5f82825260208201905092915050565b5f819050602082019050919050565b611a4481611526565b82525050565b611a5381611587565b82525050565b5f82825260208201905092915050565b5f611a7382611639565b611a7d8185611a59565b9350611a8d818560208601611653565b611a968161167b565b840191505092915050565b611aaa81611738565b82525050565b5f60e083015f830151611ac55f860182611a3b565b506020830151611ad86020860182611a4a565b5060408301518482036040860152611af08282611a69565b91505060608301518482036060860152611b0a8282611a69565b9150506080830151611b1f6080860182611a3b565b5060a0830151611b3260a0860182611a3b565b5060c0830151611b4560c0860182611aa1565b508091505092915050565b5f611b5b8383611ab0565b905092915050565b5f602082019050919050565b5f611b7982611a12565b611b838185611a1c565b935083602082028501611b9585611a2c565b805f5b85811015611bd05784840389528151611bb18582611b50565b9450611bbc83611b63565b925060208a01995050600181019050611b98565b50829750879550505050505092915050565b5f6020820190508181035f830152611bfa8184611b6f565b905092915050565b5f805f60608486031215611c1957611c18611560565b5b5f84013567ffffffffffffffff811115611c3657611c35611564565b5b611c42868287016118db565b935050602084013567ffffffffffffffff811115611c6357611c62611564565b5b611c6f868287016118db565b9250506040611c80868287016115d8565b9150509250925092565b5f81519050919050565b5f82825260208201905092915050565b5f819050602082019050919050565b5f608083015f830151611cc85f860182611a4a565b5060208301518482036020860152611ce08282611a69565b9150506040830151611cf56040860182611a3b565b506060830151611d086060860182611a3b565b508091505092915050565b5f611d1e8383611cb3565b905092915050565b5f602082019050919050565b5f611d3c82611c8a565b611d468185611c94565b935083602082028501611d5885611ca4565b805f5b85811015611d935784840389528151611d748582611d13565b9450611d7f83611d26565b925060208a01995050600181019050611d5b565b50829750879550505050505092915050565b5f6020820190508181035f830152611dbd8184611d32565b905092915050565b5f8060408385031215611ddb57611dda611560565b5b5f611de8858286016115d8565b925050602083013567ffffffffffffffff811115611e0957611e08611564565b5b611e15858286016118db565b9150509250929050565b7f4e487b71000000000000000000000000000000000000000000000000000000005f52602260045260245ffd5b5f6002820490506001821680611e6357607f821691505b602082108103611e7657611e75611e1f565b5b50919050565b7f43616c6c6572206973206e6f742061207265676973746572656420636f6d70615f8201527f6e79000000000000000000000000000000000000000000000000000000000000602082015250565b5f611ed6602283611643565b9150611ee182611e7c565b604082019050919050565b5f6020820190508181035f830152611f0381611eca565b9050919050565b7f4e6f7420796f7572206f666665720000000000000000000000000000000000005f82015250565b5f611f3e600e83611643565b9150611f4982611f0a565b602082019050919050565b5f6020820190508181035f830152611f6b81611f32565b9050919050565b7f4e487b71000000000000000000000000000000000000000000000000000000005f52601160045260245ffd5b5f611fa982611526565b9150611fb483611526565b9250828201905080821115611fcc57611fcb611f72565b5b92915050565b7f436f6d70616e7920616c726561647920726567697374657265640000000000005f82015250565b5f612006601a83611643565b915061201182611fd2565b602082019050919050565b5f6020820190508181035f83015261203381611ffa565b9050919050565b5f61204482611526565b91507fffffffffffffffffffffffffffffffffffffffffffffffffffffffffffffffff820361207657612075611f72565b5b600182019050919050565b5f819050815f5260205f209050919050565b5f6020601f8301049050919050565b5f82821b905092915050565b5f600883026120dd7fffffffffffffffffffffffffffffffffffffffffffffffffffffffffffffffff826120a2565b6120e786836120a2565b95508019841693508086168417925050509392505050565b5f819050919050565b5f61212261211d61211884611526565b6120ff565b611526565b9050919050565b5f819050919050565b61213b83612108565b61214f61214782612129565b8484546120ae565b825550505050565b5f90565b612163612157565b61216e818484612132565b505050565b5b81811015612191576121865f8261215b565b600181019050612174565b5050565b601f8211156121d6576121a781612081565b6121b084612093565b810160208510156121bf578190505b6121d36121cb85612093565b830182612173565b50505b505050565b5f82821c905092915050565b5f6121f65f19846008026121db565b1980831691505092915050565b5f61220e83836121e7565b9150826002028217905092915050565b61222782611639565b67ffffffffffffffff8111156122405761223f6117e4565b5b61224a8254611e4c565b612255828285612195565b5f60209050601f831160018114612286575f8415612274578287015190505b61227e8582612203565b8655506122e5565b601f19841661229486612081565b5f5b828110156122bb57848901518255600182019150602085019450602081019050612296565b868310156122d857848901516122d4601f8916826121e7565b8355505b6001600288020188555050505b505050505050565b5f6020820190508181035f830152612305818461168b565b905092915050565b5f61231782611526565b915061232283611526565b925082820390508181111561233a57612339611f72565b5b92915050565b7f4e487b71000000000000000000000000000000000000000000000000000000005f52603260045260245ffd5b7f496e697469616c20627564676574206d75737420636f766572206174206c65615f8201527f7374206f6e65207265636f726400000000000000000000000000000000000000602082015250565b5f6123c7602d83611643565b91506123d28261236d565b604082019050919050565b5f6020820190508181035f8301526123f4816123bb565b9050919050565b5f6040820190508181035f830152612413818561168b565b9050612422602083018461152f565b9392505050565b7f4f66666572206973206e6f7420616374697665000000000000000000000000005f82015250565b5f61245d601383611643565b915061246882612429565b602082019050919050565b5f6020820190508181035f83015261248a81612451565b9050919050565b7f4f666665722062756467657420657868617573746564000000000000000000005f82015250565b5f6124c5601683611643565b91506124d082612491565b602082019050919050565b5f6020820190508181035f8301526124f2816124b9565b9050919050565b5f81905092915050565b50565b5f6125115f836124f9565b915061251c82612503565b5f82019050919050565b5f61253082612506565b9150819050919050565b7f4661696c656420746f2073656e6420457468657220746f2070617469656e74005f82015250565b5f61256e601f83611643565b91506125798261253a565b602082019050919050565b5f6020820190508181035f83015261259b81612562565b905091905056fea264697066735822122067be4195111c3584c0761734e8797863ba8ddee176126bf69967c60c9547acbd64736f6c63430008140033",
  "immutableReferences": {},
  "source": "// SPDX-License-Identifier: MIT\r\npragma solidity ^0.8.0;\r\n\r\ncontract Marketplace {\r\n    struct Company {\r\n        uint256 id;\r\n        address wallet;\r\n        string name;\r\n        string email;\r\n        bool isRegistered;\r\n    }\r\n\r\n    struct DataOffer {\r\n        uint256 id;\r\n        address company;\r\n        string title;\r\n        string description;\r\n        uint256 price; // Amount paid to patient per record\r\n        uint256 budget; // Total funds available for this offer\r\n        bool isActive;\r\n    }\r\n\r\n    struct PurchasedRecord {\r\n        address patient;\r\n        string ipfsHash;\r\n        uint256 timestamp;\r\n        uint256 offerId;\r\n    }\r\n\r\n    // State Variables\r\n    mapping(address => Company) public companies;\r\n    mapping(uint256 => DataOffer) public offers;\r\n    mapping(address => PurchasedRecord[]) public companyPurchases; // company address -> list of records they bought\r\n\r\n    uint256 public offerCount = 0;\r\n    uint256 public companyCount = 0;\r\n\r\n    // Events\r\n    event CompanyRegistered(address indexed wallet, string name);\r\n    event OfferCreated(\r\n        uint256 indexed offerId,\r\n        address indexed company,\r\n        string title,\r\n        uint256 price\r\n    );\r\n    event DataSold(\r\n        uint256 indexed offerId,\r\n        address indexed company,\r\n        address indexed patient,\r\n        uint256 price\r\n    );\r\n\r\n    // --- Modifiers ---\r\n    modifier onlyCompany() {\r\n        require(\r\n            companies[msg.sender].isRegistered,\r\n            \"Caller is not a registered company\"\r\n        );\r\n        _;\r\n    }\r\n\r\n    // --- Company Functions ---\r\n\r\n    function registerCompany(string memory _name, string memory _email) public {\r\n        require(\r\n            !companies[msg.sender].isRegistered,\r\n            \"Company already registered\"\r\n        );\r\n\r\n        companyCount++;\r\n        companies[msg.sender] = Company({\r\n            id: companyCount,\r\n            wallet: msg.sender,\r\n            name: _name,\r\n            email: _email,\r\n            isRegistered: true\r\n        });\r\n\r\n        emit CompanyRegistered(msg.sender, _name);\r\n    }\r\n\r\n    function createOffer(\r\n        string memory _title,\r\n        string memory _description,\r\n        uint256 _pricePerRecord\r\n    ) public payable onlyCompany {\r\n        require(\r\n            msg.value >= _pricePerRecord,\r\n            \"Initial budget must cover at least one record\"\r\n        );\r\n\r\n        offerCount++;\r\n        offers[offerCount] = DataOffer({\r\n            id: offerCount,\r\n            company: msg.sender,\r\n            title: _title,\r\n            description: _description,\r\n            price: _pricePerRecord,\r\n            budget: msg.value,\r\n            isActive: true\r\n        });\r\n\r\n        emit OfferCreated(offerCount, msg.sender, _title, _pricePerRecord);\r\n    }\r\n\r\n    function fundOffer(uint256 _offerId) public payable onlyCompany {\r\n        require(offers[_offerId].company == msg.sender, \"Not your offer\");\r\n        offers[_offerId].budget += msg.value;\r\n        offers[_offerId].isActive = true;\r\n    }\r\n\r\n    // --- Patient Functions ---\r\n\r\n    function sellData(uint256 _offerId, string memory _ipfsHash) public {\r\n        DataOffer storage offer = offers[_offerId];\r\n\r\n        require(offer.isActive, \"Offer is not active\");\r\n        require(offer.budget >= offer.price, \"Offer budget exhausted\");\r\n\r\n        // 1. Record the Purchase (Grant Access)\r\n        companyPurchases[offer.company].push(\r\n            PurchasedRecord({\r\n                patient: msg.sender,\r\n                ipfsHash: _ipfsHash,\r\n                timestamp: block.timestamp,\r\n                offerId: _offerId\r\n            })\r\n        );\r\n\r\n        // 2. Transfer Funds to Patient\r\n        offer.budget -= offer.price;\r\n        (bool sent, ) = payable(msg.sender).call{value: offer.price}(\"\");\r\n        require(sent, \"Failed to send Ether to patient\");\r\n\r\n        // 3. Deactivate if empty\r\n        if (offer.budget < offer.price) {\r\n            offer.isActive = false;\r\n        }\r\n\r\n        emit DataSold(_offerId, offer.company, msg.sender, offer.price);\r\n    }\r\n\r\n    // --- Getters ---\r\n\r\n    function getAllOffers() public view returns (DataOffer[] memory) {\r\n        DataOffer[] memory allOffers = new DataOffer[](offerCount);\r\n        for (uint i = 1; i <= offerCount; i++) {\r\n            allOffers[i - 1] = offers[i];\r\n        }\r\n        return allOffers;\r\n    }\r\n\r\n    function getCompanyPurchases()\r\n        public\r\n        view\r\n        onlyCompany\r\n        returns (PurchasedRecord[] memory)\r\n    {\r\n        return companyPurchases[msg.sender];\r\n    }\r\n\r\n    function isCompany(address _addr) public view returns (bool) {\r\n        return companies[_addr].isRegistered;\r\n    }\r\n}\r\n",
  "sourcePath": "J:\\Users\\ayush\\Desktop\\code\\team-rocket-medi-secure\\contracts\\contracts\\Marketplace.sol",
  "compiler": {
    "name": "solc",
    "version": "0.8.20+commit.a1b79de6.Emscripten.clang"
  },
  "schemaVersion": "3.4.16",
  "updatedAt": "2026-01-19T05:25:04.126Z",
  "networkType": "ethereum",
  "devdoc": {
    "kind": "dev",
    "methods": {},
    "version": 1
  },
  "userdoc": {
    "kind": "user",
    "methods": {},
    "version": 1
  },
  "timeoutBlocks": 0,
  "autoGas": true,
  "gasMultiplier": 1.25
}