{
  "contractName": "Marketplace",
  "abi": [
    {
      "inputs": [],
      "name": "ReentrancyGuardReentrantCall",
      "type": "error"
    },
    {
      "anonymous": false,
      "inputs": [
        {
          "indexed": true,
          "internalType": "address",
          "name": "wallet",
          "type": "address"
        },
        {
          "indexed": false,
          "internalType": "string",
          "name": "name",
          "type": "string"
        }
      ],
      "name": "CompanyRegistered",
      "type": "event",
      "signature": "0x76686aa361308f4a08557cca1a847299ce61e5602a3495cd359a599a1dca438c"
    },
    {
      "anonymous": false,
      "inputs": [
        {
          "indexed": true,
          "internalType": "uint256",
          "name": "offerId",
          "type": "uint256"
        },
        {
          "indexed": true,
          "internalType": "address",
          "name": "company",
          "type": "address"
        },
        {
          "indexed": true,
          "internalType": "address",
          "name": "patient",
          "type": "address"
        },
        {
          "indexed": false,
          "internalType": "uint256",
          "name": "price",
          "type": "uint256"
        }
      ],
      "name": "DataSold",
      "type": "event",
      "signature": "0x7a2b2b10e41d069cd369536a53b6c0334fe9970d5ed0b5f16a593412d3103ff5"
    },
    {
      "anonymous": false,
      "inputs": [
        {
          "indexed": true,
          "internalType": "uint256",
          "name": "offerId",
          "type": "uint256"
        },
        {
          "indexed": true,
          "internalType": "address",
          "name": "company",
          "type": "address"
        },
        {
          "indexed": false,
          "internalType": "string",
          "name": "title",
          "type": "string"
        },
        {
          "indexed": false,
          "internalType": "uint256",
          "name": "price",
          "type": "uint256"
        }
      ],
      "name": "OfferCreated",
      "type": "event",
      "signature": "0xcd9b913b9cb9a5dc2f311bf3d3137afdfe474a0385305ce48768a5c9d8804b0c"
    },
    {
      "inputs": [
        {
          "internalType": "address",
          "name": "",
          "type": "address"
        }
      ],
      "name": "companies",
      "outputs": [
        {
          "internalType": "uint256",
          "name": "id",
          "type": "uint256"
        },
        {
          "internalType": "address",
          "name": "wallet",
          "type": "address"
        },
        {
          "internalType": "string",
          "name": "name",
          "type": "string"
        },
        {
          "internalType": "string",
          "name": "email",
          "type": "string"
        },
        {
          "internalType": "bool",
          "name": "isRegistered",
          "type": "bool"
        }
      ],
      "stateMutability": "view",
      "type": "function",
      "constant": true,
      "signature": "0x355e6ce8"
    },
    {
      "inputs": [],
      "name": "companyCount",
      "outputs": [
        {
          "internalType": "uint256",
          "name": "",
          "type": "uint256"
        }
      ],
      "stateMutability": "view",
      "type": "function",
      "constant": true,
      "signature": "0x8e75dd47"
    },
    {
      "inputs": [
        {
          "internalType": "address",
          "name": "",
          "type": "address"
        },
        {
          "internalType": "uint256",
          "name": "",
          "type": "uint256"
        }
      ],
      "name": "companyPurchases",
      "outputs": [
        {
          "internalType": "address",
          "name": "patient",
          "type": "address"
        },
        {
          "internalType": "string",
          "name": "ipfsHash",
          "type": "string"
        },
        {
          "internalType": "uint256",
          "name": "timestamp",
          "type": "uint256"
        },
        {
          "internalType": "uint256",
          "name": "offerId",
          "type": "uint256"
        }
      ],
      "stateMutability": "view",
      "type": "function",
      "constant": true,
      "signature": "0x24f38c6a"
    },
    {
      "inputs": [],
      "name": "offerCount",
      "outputs": [
        {
          "internalType": "uint256",
          "name": "",
          "type": "uint256"
        }
      ],
      "stateMutability": "view",
      "type": "function",
      "constant": true,
      "signature": "0x1115c24d"
    },
    {
      "inputs": [
        {
          "internalType": "uint256",
          "name": "",
          "type": "uint256"
        }
      ],
      "name": "offers",
      "outputs": [
        {
          "internalType": "uint256",
          "name": "id",
          "type": "uint256"
        },
        {
          "internalType": "address",
          "name": "company",
          "type": "address"
        },
        {
          "internalType": "string",
          "name": "title",
          "type": "string"
        },
        {
          "internalType": "string",
          "name": "description",
          "type": "string"
        },
        {
          "internalType": "uint256",
          "name": "price",
          "type": "uint256"
        },
        {
          "internalType": "uint256",
          "name": "budget",
          "type": "uint256"
        },
        {
          "internalType": "bool",
          "name": "isActive",
          "type": "bool"
        }
      ],
      "stateMutability": "view",
      "type": "function",
      "constant": true,
      "signature": "0x8a72ea6a"
    },
    {
      "inputs": [
        {
          "internalType": "string",
          "name": "_name",
          "type": "string"
        },
        {
          "internalType": "string",
          "name": "_email",
          "type": "string"
        }
      ],
      "name": "registerCompany",
      "outputs": [],
      "stateMutability": "nonpayable",
      "type": "function",
      "signature": "0x74448ba4"
    },
    {
      "inputs": [
        {
          "internalType": "string",
          "name": "_title",
          "type": "string"
        },
        {
          "internalType": "string",
          "name": "_description",
          "type": "string"
        },
        {
          "internalType": "uint256",
          "name": "_pricePerRecord",
          "type": "uint256"
        }
      ],
      "name": "createOffer",
      "outputs": [],
      "stateMutability": "payable",
      "type": "function",
      "payable": true,
      "signature": "0xb816c56e"
    },
    {
      "inputs": [
        {
          "internalType": "uint256",
          "name": "_offerId",
          "type": "uint256"
        }
      ],
      "name": "fundOffer",
      "outputs": [],
      "stateMutability": "payable",
      "type": "function",
      "payable": true,
      "signature": "0x4ec3bd18"
    },
    {
      "inputs": [
        {
          "internalType": "uint256",
          "name": "_offerId",
          "type": "uint256"
        },
        {
          "internalType": "string",
          "name": "_ipfsHash",
          "type": "string"
        }
      ],
      "name": "sellData",
      "outputs": [],
      "stateMutability": "nonpayable",
      "type": "function",
      "signature": "0xe400d61b"
    },
    {
      "inputs": [],
      "name": "getAllOffers",
      "outputs": [
        {
          "components": [
            {
              "internalType": "uint256",
              "name": "id",
              "type": "uint256"
            },
            {
              "internalType": "address",
              "name": "company",
              "type": "address"
            },
            {
              "internalType": "string",
              "name": "title",
              "type": "string"
            },
            {
              "internalType": "string",
              "name": "description",
              "type": "string"
            },
            {
              "internalType": "uint256",
              "name": "price",
              "type": "uint256"
            },
            {
              "internalType": "uint256",
              "name": "budget",
              "type": "uint256"
            },
            {
              "internalType": "bool",
              "name": "isActive",
              "type": "bool"
            }
          ],
          "internalType": "struct Marketplace.DataOffer[]",
          "name": "",
          "type": "tuple[]"
        }
      ],
      "stateMutability": "view",
      "type": "function",
      "constant": true,
      "signature": "0xa1655278"
    },
    {
      "inputs": [],
      "name": "getCompanyPurchases",
      "outputs": [
        {
          "components": [
            {
              "internalType": "address",
              "name": "patient",
              "type": "address"
            },
            {
              "internalType": "string",
              "name": "ipfsHash",
              "type": "string"
            },
            {
              "internalType": "uint256",
              "name": "timestamp",
              "type": "uint256"
            },
            {
              "internalType": "uint256",
              "name": "offerId",
              "type": "uint256"
            }
          ],
          "internalType": "struct Marketplace.PurchasedRecord[]",
          "name": "",
          "type": "tuple[]"
        }
      ],
      "stateMutability": "view",
      "type": "function",
      "constant": true,
      "signature": "0xe03f2942"
    },
    {
      "inputs": [
        {
          "internalType": "address",
          "name": "_addr",
          "type": "address"
        }
      ],
      "name": "isCompany",
      "outputs": [
        {
          "internalType": "bool",
          "name": "",
          "type": "bool"
        }
      ],
      "stateMutability": "view",
      "type": "function",
      "constant": true,
      "signature": "0xa0406ce2"
    },
    {
      "inputs": [
        {
          "internalType": "address",
          "name": "_company",
          "type": "address"
        },
        {
          "internalType": "string",
          "name": "_ipfsHash",
          "type": "string"
        }
      ],
      "name": "hasPurchased",
      "outputs": [
        {
          "internalType": "bool",
          "name": "",
          "type": "bool"
        }
      ],
      "stateMutability": "view",
      "type": "function",
      "constant": true,
      "signature": "0xba68f1af"
    }
  ],
  "bytecode": "0x608060405260006004556000600555348015601957600080fd5b5060016000556119348061002e6000396000f3fe6080604052600436106100c25760003560e01c80638e75dd471161007f578063b816c56e11610059578063b816c56e1461023d578063ba68f1af14610250578063e03f294214610270578063e400d61b1461029257600080fd5b80638e75dd47146101b9578063a0406ce2146101cf578063a16552781461021b57600080fd5b80631115c24d146100c757806324f38c6a146100f0578063355e6ce8146101205780634ec3bd181461015157806374448ba4146101665780638a72ea6a14610186575b600080fd5b3480156100d357600080fd5b506100dd60045481565b6040519081526020015b60405180910390f35b3480156100fc57600080fd5b5061011061010b36600461115c565b6102b2565b6040516100e794939291906111d6565b34801561012c57600080fd5b5061014061013b36600461120d565b61038e565b6040516100e795949392919061122f565b61016461015f366004611280565b6104db565b005b34801561017257600080fd5b5061016461018136600461133e565b6105b4565b34801561019257600080fd5b506101a66101a1366004611280565b610710565b6040516100e797969594939291906113a7565b3480156101c557600080fd5b506100dd60055481565b3480156101db57600080fd5b5061020b6101ea36600461120d565b6001600160a01b031660009081526001602052604090206004015460ff1690565b60405190151581526020016100e7565b34801561022757600080fd5b5061023061086b565b6040516100e79190611405565b61016461024b3660046114cd565b610ad3565b34801561025c57600080fd5b5061020b61026b366004611540565b610c91565b34801561027c57600080fd5b50610285610d49565b6040516100e79190611578565b34801561029e57600080fd5b506101646102ad366004611607565b610e9f565b600360205281600052604060002081815481106102ce57600080fd5b6000918252602090912060049091020180546001820180546001600160a01b0390921694509192506102ff90611638565b80601f016020809104026020016040519081016040528092919081815260200182805461032b90611638565b80156103785780601f1061034d57610100808354040283529160200191610378565b820191906000526020600020905b81548152906001019060200180831161035b57829003601f168201915b5050505050908060020154908060030154905084565b60016020819052600091825260409091208054918101546002820180546001600160a01b0390921692916103c190611638565b80601f01602080910402602001604051908101604052809291908181526020018280546103ed90611638565b801561043a5780601f1061040f5761010080835404028352916020019161043a565b820191906000526020600020905b81548152906001019060200180831161041d57829003601f168201915b50505050509080600301805461044f90611638565b80601f016020809104026020016040519081016040528092919081815260200182805461047b90611638565b80156104c85780601f1061049d576101008083540402835291602001916104c8565b820191906000526020600020905b8154815290600101906020018083116104ab57829003601f168201915b5050506004909301549192505060ff1685565b3360009081526001602052604090206004015460ff166105165760405162461bcd60e51b815260040161050d9061166c565b60405180910390fd5b6000818152600260205260409020600101546001600160a01b031633146105705760405162461bcd60e51b815260206004820152600e60248201526d2737ba103cb7bab91037b33332b960911b604482015260640161050d565b600081815260026020526040812060050180543492906105919084906116c4565b90915550506000908152600260205260409020600601805460ff19166001179055565b3360009081526001602052604090206004015460ff16156106175760405162461bcd60e51b815260206004820152601a60248201527f436f6d70616e7920616c72656164792072656769737465726564000000000000604482015260640161050d565b60058054906000610627836116d7565b90915550506040805160a0810182526005548152336020808301828152838501878152606085018790526001608086018190526000948552928390529490922083518155915190820180546001600160a01b0319166001600160a01b03909216919091179055915190919060028201906106a1908261174c565b50606082015160038201906106b6908261174c565b50608091909101516004909101805460ff191691151591909117905560405133907f76686aa361308f4a08557cca1a847299ce61e5602a3495cd359a599a1dca438c9061070490859061180f565b60405180910390a25050565b600260208190526000918252604090912080546001820154928201805491936001600160a01b0316929161074390611638565b80601f016020809104026020016040519081016040528092919081815260200182805461076f90611638565b80156107bc5780601f10610791576101008083540402835291602001916107bc565b820191906000526020600020905b81548152906001019060200180831161079f57829003601f168201915b5050505050908060030180546107d190611638565b80601f01602080910402602001604051908101604052809291908181526020018280546107fd90611638565b801561084a5780601f1061081f5761010080835404028352916020019161084a565b820191906000526020600020905b81548152906001019060200180831161082d57829003601f168201915b50505050600483015460058401546006909401549293909290915060ff1687565b6060600060045467ffffffffffffffff81111561088a5761088a611299565b60405190808252806020026020018201604052801561090657816020015b6108f36040518060e001604052806000815260200160006001600160a01b03168152602001606081526020016060815260200160008152602001600081526020016000151581525090565b8152602001906001900390816108a85790505b50905060015b6004548111610acd57600081815260026020818152604092839020835160e0810185528154815260018201546001600160a01b0316928101929092529182018054919384019161095b90611638565b80601f016020809104026020016040519081016040528092919081815260200182805461098790611638565b80156109d45780601f106109a9576101008083540402835291602001916109d4565b820191906000526020600020905b8154815290600101906020018083116109b757829003601f168201915b505050505081526020016003820180546109ed90611638565b80601f0160208091040260200160405190810160405280929190818152602001828054610a1990611638565b8015610a665780601f10610a3b57610100808354040283529160200191610a66565b820191906000526020600020905b815481529060010190602001808311610a4957829003601f168201915b5050509183525050600482015460208201526005820154604082015260069091015460ff16151560609091015282610a9f600184611822565b81518110610aaf57610aaf611835565b60200260200101819052508080610ac5906116d7565b91505061090c565b50919050565b3360009081526001602052604090206004015460ff16610b055760405162461bcd60e51b815260040161050d9061166c565b80341015610b6b5760405162461bcd60e51b815260206004820152602d60248201527f496e697469616c20627564676574206d75737420636f766572206174206c656160448201526c1cdd081bdb99481c9958dbdc99609a1b606482015260840161050d565b60048054906000610b7b836116d7565b90915550506040805160e08101825260045480825233602080840191825283850188815260608501889052608085018790523460a0860152600160c0860181905260009485526002928390529590932084518155915194820180546001600160a01b0319166001600160a01b039096169590951790945590519192909190820190610c06908261174c565b5060608201516003820190610c1b908261174c565b50608082015160048281019190915560a0830151600583015560c0909201516006909101805460ff1916911515919091179055546040513391907fcd9b913b9cb9a5dc2f311bf3d3137afdfe474a0385305ce48768a5c9d8804b0c90610c84908790869061184b565b60405180910390a3505050565b6001600160a01b0382166000908152600360205260408120815b8154811015610d3c5783604051602001610cc5919061186d565b60405160208183030381529060405280519060200120828281548110610ced57610ced611835565b9060005260206000209060040201600101604051602001610d0e9190611889565b6040516020818303038152906040528051906020012003610d3457600192505050610d43565b600101610cab565b5060009150505b92915050565b3360009081526001602052604090206004015460609060ff16610d7e5760405162461bcd60e51b815260040161050d9061166c565b33600090815260036020908152604080832080548251818502810185019093528083529193909284015b82821015610e9657600084815260209081902060408051608081019091526004850290910180546001600160a01b031682526001810180549293919291840191610df190611638565b80601f0160208091040260200160405190810160405280929190818152602001828054610e1d90611638565b8015610e6a5780601f10610e3f57610100808354040283529160200191610e6a565b820191906000526020600020905b815481529060010190602001808311610e4d57829003601f168201915b505050505081526020016002820154815260200160038201548152505081526020019060010190610da8565b50505050905090565b610ea7611116565b6000828152600260205260409020600681015460ff16610eff5760405162461bcd60e51b81526020600482015260136024820152724f66666572206973206e6f742061637469766560681b604482015260640161050d565b806004015481600501541015610f505760405162461bcd60e51b815260206004820152601660248201527513d999995c88189d5919d95d08195e1a185d5cdd195960521b604482015260640161050d565b8060040154816005016000828254610f689190611822565b9091555050600481015460058201541015610f8a5760068101805460ff191690555b6001818101546001600160a01b03908116600090815260036020908152604080832081516080810183523381528084018981524293820193909352606081018a90528154808801835591855292909320825160049094020180546001600160a01b0319169390941692909217835590519092820190611009908261174c565b5060408281015160028301556060909201516003909101556004820154905160009133918381818185875af1925050503d8060008114611065576040519150601f19603f3d011682016040523d82523d6000602084013e61106a565b606091505b50509050806110bb5760405162461bcd60e51b815260206004820152601f60248201527f4661696c656420746f2073656e6420457468657220746f2070617469656e7400604482015260640161050d565b6001820154600483015460405190815233916001600160a01b03169086907f7a2b2b10e41d069cd369536a53b6c0334fe9970d5ed0b5f16a593412d3103ff59060200160405180910390a450506111126001600055565b5050565b60026000540361113957604051633ee5aeb560e01b815260040160405180910390fd5b6002600055565b80356001600160a01b038116811461115757600080fd5b919050565b6000806040838503121561116f57600080fd5b61117883611140565b946020939093013593505050565b60005b838110156111a1578181015183820152602001611189565b50506000910152565b600081518084526111c2816020860160208601611186565b601f01601f19169290920160200192915050565b6001600160a01b03851681526080602082018190526000906111fa908301866111aa565b6040830194909452506060015292915050565b60006020828403121561121f57600080fd5b61122882611140565b9392505050565b8581526001600160a01b038516602082015260a060408201819052600090611259908301866111aa565b828103606084015261126b81866111aa565b91505082151560808301529695505050505050565b60006020828403121561129257600080fd5b5035919050565b634e487b7160e01b600052604160045260246000fd5b600082601f8301126112c057600080fd5b813567ffffffffffffffff8111156112da576112da611299565b604051601f8201601f19908116603f0116810167ffffffffffffffff8111828210171561130957611309611299565b60405281815283820160200185101561132157600080fd5b816020850160208301376000918101602001919091529392505050565b6000806040838503121561135157600080fd5b823567ffffffffffffffff81111561136857600080fd5b611374858286016112af565b925050602083013567ffffffffffffffff81111561139157600080fd5b61139d858286016112af565b9150509250929050565b8781526001600160a01b038716602082015260e0604082018190526000906113d1908301886111aa565b82810360608401526113e381886111aa565b6080840196909652505060a0810192909252151560c090910152949350505050565b6000602082016020835280845180835260408501915060408160051b86010192506020860160005b828110156114c157603f1987860301845281518051865260018060a01b036020820151166020870152604081015160e0604088015261146f60e08801826111aa565b90506060820151878203606089015261148882826111aa565b608084810151908a015260a080850151908a015260c093840151151593909801929092525050602093840193919091019060010161142d565b50929695505050505050565b6000806000606084860312156114e257600080fd5b833567ffffffffffffffff8111156114f957600080fd5b611505868287016112af565b935050602084013567ffffffffffffffff81111561152257600080fd5b61152e868287016112af565b93969395505050506040919091013590565b6000806040838503121561155357600080fd5b61155c83611140565b9150602083013567ffffffffffffffff81111561139157600080fd5b6000602082016020835280845180835260408501915060408160051b86010192506020860160005b828110156114c157868503603f19018452815180516001600160a01b031686526020808201516080918801829052906115db908801826111aa565b6040838101519089015260609283015192909701919091525060209384019391909101906001016115a0565b6000806040838503121561161a57600080fd5b82359150602083013567ffffffffffffffff81111561139157600080fd5b600181811c9082168061164c57607f821691505b602082108103610acd57634e487b7160e01b600052602260045260246000fd5b60208082526022908201527f43616c6c6572206973206e6f742061207265676973746572656420636f6d70616040820152616e7960f01b606082015260800190565b634e487b7160e01b600052601160045260246000fd5b80820180821115610d4357610d436116ae565b6000600182016116e9576116e96116ae565b5060010190565b601f821115611747578282111561174757806000526020600020601f840160051c602085101561171e575060005b90810190601f840160051c0360005b818110156117435760008382015560010161172d565b5050505b505050565b815167ffffffffffffffff81111561176657611766611299565b61177a816117748454611638565b846116f0565b6020601f8211600181146117ae57600083156117965750848201515b600019600385901b1c1916600184901b178455611808565b600084815260208120601f198516915b828110156117de57878501518255602094850194600190920191016117be565b50848210156117fc5786840151600019600387901b60f8161c191681555b505060018360011b0184555b5050505050565b60208152600061122860208301846111aa565b81810381811115610d4357610d436116ae565b634e487b7160e01b600052603260045260246000fd5b60408152600061185e60408301856111aa565b90508260208301529392505050565b6000825161187f818460208701611186565b9190910192915050565b600080835461189781611638565b6001821680156118ae57600181146118c3576118f3565b60ff19831686528115158202860193506118f3565b86600052602060002060005b838110156118eb578154888201526001909101906020016118cf565b505081860193505b50919594505050505056fea26469706673582212209f1a67c18be08540cd0e46019c1a744e2c70fb84a16154bd893bf3232dd560e864736f6c63430008210033",
  "immutableReferences": {},
  "source": "// SPDX-License-Identifier: MIT\r\npragma solidity ^0.8.20;\r\n\r\nimport \"@openzeppelin/contracts/utils/ReentrancyGuard.sol\";\r\n\r\ncontract Marketplace is ReentrancyGuard {\r\n    struct Company {\r\n        uint256 id;\r\n        address wallet;\r\n        string name;\r\n        string email;\r\n        bool isRegistered;\r\n    }\r\n\r\n    struct DataOffer {\r\n        uint256 id;\r\n        address company;\r\n        string title;\r\n        string description;\r\n        uint256 price; // Amount paid to patient per record\r\n        uint256 budget; // Total funds available for this offer\r\n        bool isActive;\r\n    }\r\n\r\n    struct PurchasedRecord {\r\n        address patient;\r\n        string ipfsHash;\r\n        uint256 timestamp;\r\n        uint256 offerId;\r\n    }\r\n\r\n    // State Variables\r\n    mapping(address => Company) public companies;\r\n    mapping(uint256 => DataOffer) public offers;\r\n    mapping(address => PurchasedRecord[]) public companyPurchases; // company address -> list of records they bought\r\n\r\n    uint256 public offerCount = 0;\r\n    uint256 public companyCount = 0;\r\n\r\n    // Events\r\n    event CompanyRegistered(address indexed wallet, string name);\r\n    event OfferCreated(\r\n        uint256 indexed offerId,\r\n        address indexed company,\r\n        string title,\r\n        uint256 price\r\n    );\r\n    event DataSold(\r\n        uint256 indexed offerId,\r\n        address indexed company,\r\n        address indexed patient,\r\n        uint256 price\r\n    );\r\n\r\n    // --- Modifiers ---\r\n    modifier onlyCompany() {\r\n        require(\r\n            companies[msg.sender].isRegistered,\r\n            \"Caller is not a registered company\"\r\n        );\r\n        _;\r\n    }\r\n\r\n    // --- Company Functions ---\r\n\r\n    function registerCompany(string memory _name, string memory _email) public {\r\n        require(\r\n            !companies[msg.sender].isRegistered,\r\n            \"Company already registered\"\r\n        );\r\n\r\n        companyCount++;\r\n        companies[msg.sender] = Company({\r\n            id: companyCount,\r\n            wallet: msg.sender,\r\n            name: _name,\r\n            email: _email,\r\n            isRegistered: true\r\n        });\r\n\r\n        emit CompanyRegistered(msg.sender, _name);\r\n    }\r\n\r\n    function createOffer(\r\n        string memory _title,\r\n        string memory _description,\r\n        uint256 _pricePerRecord\r\n    ) public payable onlyCompany {\r\n        require(\r\n            msg.value >= _pricePerRecord,\r\n            \"Initial budget must cover at least one record\"\r\n        );\r\n\r\n        offerCount++;\r\n        offers[offerCount] = DataOffer({\r\n            id: offerCount,\r\n            company: msg.sender,\r\n            title: _title,\r\n            description: _description,\r\n            price: _pricePerRecord,\r\n            budget: msg.value,\r\n            isActive: true\r\n        });\r\n\r\n        emit OfferCreated(offerCount, msg.sender, _title, _pricePerRecord);\r\n    }\r\n\r\n    function fundOffer(uint256 _offerId) public payable onlyCompany {\r\n        require(offers[_offerId].company == msg.sender, \"Not your offer\");\r\n        offers[_offerId].budget += msg.value;\r\n        offers[_offerId].isActive = true;\r\n    }\r\n\r\n    // --- Patient Functions ---\r\n\r\n    function sellData(uint256 _offerId, string memory _ipfsHash) public nonReentrant {\r\n        DataOffer storage offer = offers[_offerId];\r\n\r\n        require(offer.isActive, \"Offer is not active\");\r\n        require(offer.budget >= offer.price, \"Offer budget exhausted\");\r\n\r\n        // 1. Update State (Effects)\r\n        offer.budget -= offer.price;\r\n\r\n        // Deactivate if empty\r\n        if (offer.budget < offer.price) {\r\n            offer.isActive = false;\r\n        }\r\n\r\n        companyPurchases[offer.company].push(\r\n            PurchasedRecord({\r\n                patient: msg.sender,\r\n                ipfsHash: _ipfsHash,\r\n                timestamp: block.timestamp,\r\n                offerId: _offerId\r\n            })\r\n        );\r\n\r\n        // 2. Interaction\r\n        (bool sent, ) = payable(msg.sender).call{value: offer.price}(\"\");\r\n        require(sent, \"Failed to send Ether to patient\");\r\n\r\n        emit DataSold(_offerId, offer.company, msg.sender, offer.price);\r\n    }\r\n\r\n    // --- Getters ---\r\n\r\n    function getAllOffers() public view returns (DataOffer[] memory) {\r\n        DataOffer[] memory allOffers = new DataOffer[](offerCount);\r\n        for (uint i = 1; i <= offerCount; i++) {\r\n            allOffers[i - 1] = offers[i];\r\n        }\r\n        return allOffers;\r\n    }\r\n\r\n    function getCompanyPurchases()\r\n        public\r\n        view\r\n        onlyCompany\r\n        returns (PurchasedRecord[] memory)\r\n    {\r\n        return companyPurchases[msg.sender];\r\n    }\r\n\r\n    function isCompany(address _addr) public view returns (bool) {\r\n        return companies[_addr].isRegistered;\r\n    }\r\n\r\n    function hasPurchased(address _company, string memory _ipfsHash) public view returns (bool) {\r\n        PurchasedRecord[] storage records = companyPurchases[_company];\r\n        for (uint256 i = 0; i < records.length; i++) {\r\n            if (keccak256(abi.encodePacked(records[i].ipfsHash)) == keccak256(abi.encodePacked(_ipfsHash))) {\r\n                return true;\r\n            }\r\n        }\r\n        return false;\r\n    }\r\n}\r\n",
  "sourcePath": "J:\\Users\\ayush\\Desktop\\code\\team-rocket-medi-secure\\contracts\\contracts\\Marketplace.sol",
  "compiler": {
    "name": "solc",
    "version": "0.8.33+commit.64118f21.Emscripten.clang"
  },
  "schemaVersion": "3.4.16",
  "updatedAt": "2026-01-23T07:16:58.397Z",
  "networkType": "ethereum",
  "devdoc": {
    "errors": {
      "ReentrancyGuardReentrantCall()": [
        {
          "details": "Unauthorized reentrant call."
        }
      ]
    },
    "kind": "dev",
    "methods": {},
    "version": 1
  },
  "userdoc": {
    "kind": "user",
    "methods": {},
    "version": 1
  },
  "timeoutBlocks": 500
}