{
  "contractName": "MetaTransactionHelper",
  "abi": [
    {
      "inputs": [],
      "stateMutability": "nonpayable",
      "type": "constructor"
    },
    {
      "inputs": [],
      "name": "ECDSAInvalidSignature",
      "type": "error"
    },
    {
      "inputs": [
        {
          "internalType": "uint256",
          "name": "length",
          "type": "uint256"
        }
      ],
      "name": "ECDSAInvalidSignatureLength",
      "type": "error"
    },
    {
      "inputs": [
        {
          "internalType": "bytes32",
          "name": "s",
          "type": "bytes32"
        }
      ],
      "name": "ECDSAInvalidSignatureS",
      "type": "error"
    },
    {
      "inputs": [],
      "name": "InvalidShortString",
      "type": "error"
    },
    {
      "inputs": [
        {
          "internalType": "string",
          "name": "str",
          "type": "string"
        }
      ],
      "name": "StringTooLong",
      "type": "error"
    },
    {
      "anonymous": false,
      "inputs": [],
      "name": "EIP712DomainChanged",
      "type": "event"
    },
    {
      "anonymous": false,
      "inputs": [
        {
          "indexed": true,
          "internalType": "address",
          "name": "from",
          "type": "address"
        },
        {
          "indexed": true,
          "internalType": "address",
          "name": "to",
          "type": "address"
        },
        {
          "indexed": true,
          "internalType": "bytes32",
          "name": "txHash",
          "type": "bytes32"
        },
        {
          "indexed": false,
          "internalType": "bytes",
          "name": "result",
          "type": "bytes"
        }
      ],
      "name": "MetaTransactionExecuted",
      "type": "event"
    },
    {
      "inputs": [],
      "name": "eip712Domain",
      "outputs": [
        {
          "internalType": "bytes1",
          "name": "fields",
          "type": "bytes1"
        },
        {
          "internalType": "string",
          "name": "name",
          "type": "string"
        },
        {
          "internalType": "string",
          "name": "version",
          "type": "string"
        },
        {
          "internalType": "uint256",
          "name": "chainId",
          "type": "uint256"
        },
        {
          "internalType": "address",
          "name": "verifyingContract",
          "type": "address"
        },
        {
          "internalType": "bytes32",
          "name": "salt",
          "type": "bytes32"
        },
        {
          "internalType": "uint256[]",
          "name": "extensions",
          "type": "uint256[]"
        }
      ],
      "stateMutability": "view",
      "type": "function"
    },
    {
      "inputs": [
        {
          "internalType": "bytes32",
          "name": "",
          "type": "bytes32"
        }
      ],
      "name": "executedTx",
      "outputs": [
        {
          "internalType": "bool",
          "name": "",
          "type": "bool"
        }
      ],
      "stateMutability": "view",
      "type": "function"
    },
    {
      "inputs": [
        {
          "internalType": "address",
          "name": "",
          "type": "address"
        }
      ],
      "name": "nonces",
      "outputs": [
        {
          "internalType": "uint256",
          "name": "",
          "type": "uint256"
        }
      ],
      "stateMutability": "view",
      "type": "function"
    },
    {
      "inputs": [
        {
          "internalType": "address",
          "name": "_from",
          "type": "address"
        },
        {
          "internalType": "address",
          "name": "_to",
          "type": "address"
        },
        {
          "internalType": "uint256",
          "name": "_value",
          "type": "uint256"
        },
        {
          "internalType": "bytes",
          "name": "_data",
          "type": "bytes"
        },
        {
          "internalType": "uint256",
          "name": "_nonce",
          "type": "uint256"
        },
        {
          "internalType": "uint256",
          "name": "_gasPrice",
          "type": "uint256"
        },
        {
          "internalType": "uint256",
          "name": "_gasLimit",
          "type": "uint256"
        },
        {
          "internalType": "uint256",
          "name": "_deadline",
          "type": "uint256"
        }
      ],
      "name": "getTransactionHash",
      "outputs": [
        {
          "internalType": "bytes32",
          "name": "",
          "type": "bytes32"
        }
      ],
      "stateMutability": "view",
      "type": "function"
    },
    {
      "inputs": [
        {
          "components": [
            {
              "internalType": "address",
              "name": "from",
              "type": "address"
            },
            {
              "internalType": "address",
              "name": "to",
              "type": "address"
            },
            {
              "internalType": "uint256",
              "name": "value",
              "type": "uint256"
            },
            {
              "internalType": "bytes",
              "name": "data",
              "type": "bytes"
            },
            {
              "internalType": "uint256",
              "name": "nonce",
              "type": "uint256"
            },
            {
              "internalType": "uint256",
              "name": "gasPrice",
              "type": "uint256"
            },
            {
              "internalType": "uint256",
              "name": "gasLimit",
              "type": "uint256"
            },
            {
              "internalType": "uint256",
              "name": "deadline",
              "type": "uint256"
            }
          ],
          "internalType": "struct MetaTransactionHelper.MetaTransaction",
          "name": "_tx",
          "type": "tuple"
        },
        {
          "internalType": "bytes",
          "name": "_signature",
          "type": "bytes"
        }
      ],
      "name": "executeMetaTransaction",
      "outputs": [
        {
          "internalType": "bytes",
          "name": "",
          "type": "bytes"
        }
      ],
      "stateMutability": "payable",
      "type": "function"
    },
    {
      "inputs": [
        {
          "internalType": "address",
          "name": "_user",
          "type": "address"
        }
      ],
      "name": "getNonce",
      "outputs": [
        {
          "internalType": "uint256",
          "name": "",
          "type": "uint256"
        }
      ],
      "stateMutability": "view",
      "type": "function"
    },
    {
      "inputs": [],
      "name": "getDomainSeparator",
      "outputs": [
        {
          "internalType": "bytes32",
          "name": "",
          "type": "bytes32"
        }
      ],
      "stateMutability": "view",
      "type": "function"
    }
  ],
  "bytecode": "0x61016060405234801562000011575f80fd5b50604080518082018252600981526853616e6a6565766e6960b81b602080830191909152825180840190935260038352620312e360ec1b908301529062000059825f62000106565b610120526200006a81600162000106565b61014052815160208084019190912060e052815190820120610100524660a052620000f760e05161010051604080517f8b73c3c69bb8fe3d512ecc4cf759cc79239f7b179b0ffacaa9a75d522b39400f60208201529081019290925260608201524660808201523060a08201525f9060c00160405160208183030381529060405280519060200120905090565b60805250503060c05262000362565b5f60208351101562000125576200011d836200013e565b905062000138565b8162000132848262000229565b5060ff90505b92915050565b5f80829050601f8151111562000174578260405163305a27a960e01b81526004016200016b9190620002f1565b60405180910390fd5b805162000181826200033e565b179392505050565b634e487b7160e01b5f52604160045260245ffd5b600181811c90821680620001b257607f821691505b602082108103620001d157634e487b7160e01b5f52602260045260245ffd5b50919050565b601f82111562000224575f81815260208120601f850160051c81016020861015620001ff5750805b601f850160051c820191505b8181101562000220578281556001016200020b565b5050505b505050565b81516001600160401b0381111562000245576200024562000189565b6200025d816200025684546200019d565b84620001d7565b602080601f83116001811462000293575f84156200027b5750858301515b5f19600386901b1c1916600185901b17855562000220565b5f85815260208120601f198616915b82811015620002c357888601518255948401946001909101908401620002a2565b5085821015620002e157878501515f19600388901b60f8161c191681555b5050505050600190811b01905550565b5f6020808352835180828501525f5b818110156200031e5785810183015185820160400152820162000300565b505f604082860101526040601f19601f8301168501019250505092915050565b80516020808301519190811015620001d1575f1960209190910360031b1b16919050565b60805160a05160c05160e051610100516101205161014051610f84620003b45f395f61079001525f61076401525f6108bb01525f61089301525f6107ee01525f61081801525f6108420152610f845ff3fe60806040526004361061006e575f3560e01c806384b0196e1161004c57806384b0196e14610104578063967469e01461012b578063cdb2c0421461014a578063ed24911d14610188575f80fd5b80632d0335ab146100725780635bd2a2c3146100b95780637ecebe00146100d9575b5f80fd5b34801561007d575f80fd5b506100a661008c366004610c00565b6001600160a01b03165f9081526002602052604090205490565b6040519081526020015b60405180910390f35b6100cc6100c7366004610c65565b61019c565b6040516100b09190610d14565b3480156100e4575f80fd5b506100a66100f3366004610c00565b60026020525f908152604090205481565b34801561010f575f80fd5b50610118610629565b6040516100b09796959493929190610d26565b348015610136575f80fd5b506100a6610145366004610dba565b61066b565b348015610155575f80fd5b50610178610164366004610e43565b60036020525f908152604090205460ff1681565b60405190151581526020016100b0565b348015610193575f80fd5b506100a6610725565b6060428460e0013510156101e95760405162461bcd60e51b815260206004820152600f60248201526e111958591b1a5b99481c185cdcd959608a1b60448201526064015b60405180910390fd5b346101fc60c086013560a0870135610e6e565b111561023d5760405162461bcd60e51b815260206004820152601060248201526f496e73756666696369656e742067617360801b60448201526064016101e0565b608084013560025f6102526020880188610c00565b6001600160a01b03166001600160a01b031681526020019081526020015f2054146102af5760405162461bcd60e51b815260206004820152600d60248201526c496e76616c6964206e6f6e636560981b60448201526064016101e0565b5f6102fb6102c06020870187610c00565b6102d06040880160208901610c00565b60408801356102e260608a018a610e85565b8a608001358b60a001358c60c001358d60e0013561066b565b5f8181526003602052604090205490915060ff161561034f5760405162461bcd60e51b815260206004820152601060248201526f105b1c9958591e48195e1958dd5d195960821b60448201526064016101e0565b5f818152600360209081526040808320805460ff191660011790558051601f87018390048302810183019091528581526103a59187908790819084018382808284375f9201919091525086939250506107339050565b90506103b46020870187610c00565b6001600160a01b0316816001600160a01b0316146104055760405162461bcd60e51b815260206004820152600e60248201526d24b73b30b634b21039b4b3b732b960911b60448201526064016101e0565b60025f6104156020890189610c00565b6001600160a01b0316815260208101919091526040015f90812080549161043b83610ec8565b909155505f9050806104536040890160208a01610c00565b6001600160a01b031660c089013560408a013561047360608c018c610e85565b604051610481929190610ee0565b5f60405180830381858888f193505050503d805f81146104bc576040519150601f19603f3d011682016040523d82523d5f602084013e6104c1565b606091505b5091509150816104ff5760405162461bcd60e51b8152602060048201526009602482015268151e0819985a5b195960ba1b60448201526064016101e0565b3461051260c08a013560a08b0135610e6e565b10156105b7575f3361052c60c08b013560a08c0135610e6e565b6105369034610eef565b6040515f81818185875af1925050503d805f811461056f576040519150601f19603f3d011682016040523d82523d5f602084013e610574565b606091505b50509050806105b55760405162461bcd60e51b815260206004820152600d60248201526c1499599d5b990819985a5b1959609a1b60448201526064016101e0565b505b836105c860408a0160208b01610c00565b6001600160a01b03166105de60208b018b610c00565b6001600160a01b03167ff37754862f320bc44387eb6fbe2e63de49d0d9de5f31b900094705db5496164b846040516106169190610d14565b60405180910390a4979650505050505050565b5f6060805f805f606061063a61075d565b610642610789565b604080515f80825260208201909252600f60f81b9b939a50919850469750309650945092509050565b5f6107177f5a37d04eb6a61daf93c20a600cbd539cdaaf391efee1f6b0902b39c8715089c08b8b8b8b8b6040516106a3929190610ee0565b6040805191829003822060208301969096526001600160a01b0394851690820152929091166060830152608082015260a081019190915260c0810187905260e081018690526101008101859052610120810184905261014001604051602081830303815290604052805190602001206107b6565b9a9950505050505050505050565b5f61072e6107e2565b905090565b5f805f80610741868661090b565b9250925092506107518282610954565b50909150505b92915050565b606061072e7f00000000000000000000000000000000000000000000000000000000000000005f610a10565b606061072e7f00000000000000000000000000000000000000000000000000000000000000006001610a10565b5f6107576107c26107e2565b8360405161190160f01b8152600281019290925260228201526042902090565b5f306001600160a01b037f00000000000000000000000000000000000000000000000000000000000000001614801561083a57507f000000000000000000000000000000000000000000000000000000000000000046145b1561086457507f000000000000000000000000000000000000000000000000000000000000000090565b61072e604080517f8b73c3c69bb8fe3d512ecc4cf759cc79239f7b179b0ffacaa9a75d522b39400f60208201527f0000000000000000000000000000000000000000000000000000000000000000918101919091527f000000000000000000000000000000000000000000000000000000000000000060608201524660808201523060a08201525f9060c00160405160208183030381529060405280519060200120905090565b5f805f8351604103610942576020840151604085015160608601515f1a61093488828585610ab9565b95509550955050505061094d565b505081515f91506002905b9250925092565b5f82600381111561096757610967610f02565b03610970575050565b600182600381111561098457610984610f02565b036109a25760405163f645eedf60e01b815260040160405180910390fd5b60028260038111156109b6576109b6610f02565b036109d75760405163fce698f760e01b8152600481018290526024016101e0565b60038260038111156109eb576109eb610f02565b03610a0c576040516335e2f38360e21b8152600481018290526024016101e0565b5050565b606060ff8314610a2a57610a2383610b81565b9050610757565b818054610a3690610f16565b80601f0160208091040260200160405190810160405280929190818152602001828054610a6290610f16565b8015610aad5780601f10610a8457610100808354040283529160200191610aad565b820191905f5260205f20905b815481529060010190602001808311610a9057829003601f168201915b50505050509050610757565b5f80807f7fffffffffffffffffffffffffffffff5d576e7357a4501ddfe92f46681b20a0841115610af257505f91506003905082610b77565b604080515f808252602082018084528a905260ff891692820192909252606081018790526080810186905260019060a0016020604051602081039080840390855afa158015610b43573d5f803e3d5ffd5b5050604051601f1901519150506001600160a01b038116610b6e57505f925060019150829050610b77565b92505f91508190505b9450945094915050565b60605f610b8d83610bbe565b6040805160208082528183019092529192505f91906020820181803683375050509182525060208101929092525090565b5f60ff8216601f81111561075757604051632cd44ac360e21b815260040160405180910390fd5b80356001600160a01b0381168114610bfb575f80fd5b919050565b5f60208284031215610c10575f80fd5b610c1982610be5565b9392505050565b5f8083601f840112610c30575f80fd5b50813567ffffffffffffffff811115610c47575f80fd5b602083019150836020828501011115610c5e575f80fd5b9250929050565b5f805f60408486031215610c77575f80fd5b833567ffffffffffffffff80821115610c8e575f80fd5b908501906101008288031215610ca2575f80fd5b90935060208501359080821115610cb7575f80fd5b50610cc486828701610c20565b9497909650939450505050565b5f81518084525f5b81811015610cf557602081850181015186830182015201610cd9565b505f602082860101526020601f19601f83011685010191505092915050565b602081525f610c196020830184610cd1565b60ff60f81b881681525f602060e081840152610d4560e084018a610cd1565b8381036040850152610d57818a610cd1565b606085018990526001600160a01b038816608086015260a0850187905284810360c086015285518082528387019250908301905f5b81811015610da857835183529284019291840191600101610d8c565b50909c9b505050505050505050505050565b5f805f805f805f805f6101008a8c031215610dd3575f80fd5b610ddc8a610be5565b9850610dea60208b01610be5565b975060408a0135965060608a013567ffffffffffffffff811115610e0c575f80fd5b610e188c828d01610c20565b9a9d999c50979a97999860808901359860a0810135985060c0810135975060e0013595509350505050565b5f60208284031215610e53575f80fd5b5035919050565b634e487b7160e01b5f52601160045260245ffd5b808202811582820484141761075757610757610e5a565b5f808335601e19843603018112610e9a575f80fd5b83018035915067ffffffffffffffff821115610eb4575f80fd5b602001915036819003821315610c5e575f80fd5b5f60018201610ed957610ed9610e5a565b5060010190565b818382375f9101908152919050565b8181038181111561075757610757610e5a565b634e487b7160e01b5f52602160045260245ffd5b600181811c90821680610f2a57607f821691505b602082108103610f4857634e487b7160e01b5f52602260045260245ffd5b5091905056fea2646970667358221220427e3be3b3686e4e1c35e4940296e77b4d9f3e2267d5fd856670d8f46f12a7da64736f6c63430008140033",
  "immutableReferences": {
    "9662": [
      {
        "length": 32,
        "start": 2114
      }
    ],
    "9664": [
      {
        "length": 32,
        "start": 2072
      }
    ],
    "9666": [
      {
        "length": 32,
        "start": 2030
      }
    ],
    "9668": [
      {
        "length": 32,
        "start": 2195
      }
    ],
    "9670": [
      {
        "length": 32,
        "start": 2235
      }
    ],
    "9673": [
      {
        "length": 32,
        "start": 1892
      }
    ],
    "9676": [
      {
        "length": 32,
        "start": 1936
      }
    ]
  },
  "source": "// SPDX-License-Identifier: MIT\r\npragma solidity ^0.8.20;\r\n\r\nimport \"@openzeppelin/contracts/utils/cryptography/EIP712.sol\";\r\nimport \"@openzeppelin/contracts/utils/cryptography/ECDSA.sol\";\r\n\r\ncontract MetaTransactionHelper is EIP712 {\r\n    using ECDSA for bytes32;\r\n\r\n    struct MetaTransaction {\r\n        address from;\r\n        address to;\r\n        uint256 value;\r\n        bytes data;\r\n        uint256 nonce;\r\n        uint256 gasPrice;\r\n        uint256 gasLimit;\r\n        uint256 deadline;\r\n    }\r\n\r\nstring private constant DOMAIN_NAME = \"Sanjeevni\";\r\n    string private constant DOMAIN_VERSION = \"1.0\";\r\n\r\n    mapping(address => uint256) public nonces;\r\n    mapping(bytes32 => bool) public executedTx;\r\n\r\n    event MetaTransactionExecuted(\r\n        address indexed from,\r\n        address indexed to,\r\n        bytes32 indexed txHash,\r\n        bytes result\r\n    );\r\n\r\n    constructor() EIP712(DOMAIN_NAME, DOMAIN_VERSION) {}\r\n\r\n    function getTransactionHash(\r\n        address _from,\r\n        address _to,\r\n        uint256 _value,\r\n        bytes calldata _data,\r\n        uint256 _nonce,\r\n        uint256 _gasPrice,\r\n        uint256 _gasLimit,\r\n        uint256 _deadline\r\n    ) public view returns (bytes32) {\r\n        return _hashTypedDataV4(keccak256(abi.encode(\r\n            keccak256(\"MetaTransaction(address from,address to,uint256 value,bytes data,uint256 nonce,uint256 gasPrice,uint256 gasLimit,uint256 deadline)\"),\r\n            _from,\r\n            _to,\r\n            _value,\r\n            keccak256(_data),\r\n            _nonce,\r\n            _gasPrice,\r\n            _gasLimit,\r\n            _deadline\r\n        )));\r\n    }\r\n\r\n    function executeMetaTransaction(\r\n        MetaTransaction calldata _tx,\r\n        bytes calldata _signature\r\n    ) external payable returns (bytes memory) {\r\n        require(_tx.deadline >= block.timestamp, \"Deadline passed\");\r\n        require(_tx.gasPrice * _tx.gasLimit <= msg.value, \"Insufficient gas\");\r\n        require(nonces[_tx.from] == _tx.nonce, \"Invalid nonce\");\r\n\r\n        bytes32 txHash = getTransactionHash(\r\n            _tx.from,\r\n            _tx.to,\r\n            _tx.value,\r\n            _tx.data,\r\n            _tx.nonce,\r\n            _tx.gasPrice,\r\n            _tx.gasLimit,\r\n            _tx.deadline\r\n        );\r\n\r\n        require(!executedTx[txHash], \"Already executed\");\r\n        executedTx[txHash] = true;\r\n\r\n        address signer = txHash.recover(_signature);\r\n        require(signer == _tx.from, \"Invalid signer\");\r\n\r\n        nonces[_tx.from]++;\r\n\r\n        (bool success, bytes memory result) = _tx.to.call{value: _tx.value, gas: _tx.gasLimit}(_tx.data);\r\n        require(success, \"Tx failed\");\r\n\r\n        if (_tx.gasPrice * _tx.gasLimit < msg.value) {\r\n            (bool refundSuccess, ) = msg.sender.call{value: msg.value - _tx.gasPrice * _tx.gasLimit}(\"\");\r\n            require(refundSuccess, \"Refund failed\");\r\n        }\r\n\r\n        emit MetaTransactionExecuted(_tx.from, _tx.to, txHash, result);\r\n        return result;\r\n    }\r\n\r\n    function getNonce(address _user) external view returns (uint256) {\r\n        return nonces[_user];\r\n    }\r\n\r\n    function getDomainSeparator() external view returns (bytes32) {\r\n        return _domainSeparatorV4();\r\n    }\r\n}",
  "sourcePath": "C:\\Users\\night\\Downloads\\team-rocket-medi-secure\\team-rocket-medi-secure\\contracts\\contracts\\MetaTransactionHelper.sol",
  "compiler": {
    "name": "solc",
    "version": "0.8.20+commit.a1b79de6.Emscripten.clang"
  },
  "schemaVersion": "3.4.16",
  "updatedAt": "2026-04-24T10:38:31.112Z",
  "devdoc": {
    "errors": {
      "ECDSAInvalidSignature()": [
        {
          "details": "The signature derives the `address(0)`."
        }
      ],
      "ECDSAInvalidSignatureLength(uint256)": [
        {
          "details": "The signature has an invalid length."
        }
      ],
      "ECDSAInvalidSignatureS(bytes32)": [
        {
          "details": "The signature has an S value that is in the upper half order."
        }
      ]
    },
    "events": {
      "EIP712DomainChanged()": {
        "details": "MAY be emitted to signal that the domain could have changed."
      }
    },
    "kind": "dev",
    "methods": {
      "eip712Domain()": {
        "details": "See {IERC-5267}."
      }
    },
    "version": 1
  },
  "userdoc": {
    "kind": "user",
    "methods": {},
    "version": 1
  }
}