{
  "contractName": "MockChainlinkAggregator",
  "abi": [
    {
      "inputs": [
        {
          "internalType": "int256",
          "name": "initialPrice",
          "type": "int256"
        },
        {
          "internalType": "uint8",
          "name": "_decimals",
          "type": "uint8"
        }
      ],
      "stateMutability": "nonpayable",
      "type": "constructor"
    },
    {
      "inputs": [],
      "name": "decimals",
      "outputs": [
        {
          "internalType": "uint8",
          "name": "",
          "type": "uint8"
        }
      ],
      "stateMutability": "view",
      "type": "function",
      "constant": true
    },
    {
      "inputs": [],
      "name": "description",
      "outputs": [
        {
          "internalType": "string",
          "name": "",
          "type": "string"
        }
      ],
      "stateMutability": "view",
      "type": "function",
      "constant": true
    },
    {
      "inputs": [],
      "name": "version",
      "outputs": [
        {
          "internalType": "uint256",
          "name": "",
          "type": "uint256"
        }
      ],
      "stateMutability": "view",
      "type": "function",
      "constant": true
    },
    {
      "inputs": [],
      "name": "latestRoundData",
      "outputs": [
        {
          "internalType": "uint80",
          "name": "roundId",
          "type": "uint80"
        },
        {
          "internalType": "int256",
          "name": "answer",
          "type": "int256"
        },
        {
          "internalType": "uint256",
          "name": "startedAt",
          "type": "uint256"
        },
        {
          "internalType": "uint256",
          "name": "updatedAt",
          "type": "uint256"
        },
        {
          "internalType": "uint80",
          "name": "answeredInRound",
          "type": "uint80"
        }
      ],
      "stateMutability": "view",
      "type": "function",
      "constant": true
    },
    {
      "inputs": [
        {
          "internalType": "int256",
          "name": "newPrice",
          "type": "int256"
        }
      ],
      "name": "setPrice",
      "outputs": [],
      "stateMutability": "nonpayable",
      "type": "function"
    }
  ],
  "bytecode": "0x608060405234801561000f575f80fd5b5060405161045e38038061045e83398101604081905261002e9161007e565b5f8290556001805460ff191660ff831617905560408051808201909152600c81526b135bd8dac81155120bd554d160a21b6020820152600290610071908261014b565b5050600160035550610206565b5f806040838503121561008f575f80fd5b82519150602083015160ff811681146100a6575f80fd5b809150509250929050565b634e487b7160e01b5f52604160045260245ffd5b600181811c908216806100d957607f821691505b6020821081036100f757634e487b7160e01b5f52602260045260245ffd5b50919050565b601f821115610146575f81815260208120601f850160051c810160208610156101235750805b601f850160051c820191505b818110156101425782815560010161012f565b5050505b505050565b81516001600160401b03811115610164576101646100b1565b6101788161017284546100c5565b846100fd565b602080601f8311600181146101ab575f84156101945750858301515b5f19600386901b1c1916600185901b178555610142565b5f85815260208120601f198616915b828110156101d9578886015182559484019460019091019084016101ba565b50858210156101f657878501515f19600388901b60f8161c191681555b5050505050600190811b01905550565b61024b806102135f395ff3fe608060405234801561000f575f80fd5b5060043610610055575f3560e01c8063313ce5671461005957806354fd4d501461007d5780637284e41614610094578063f7a30806146100a9578063feaf968c146100bd575b5f80fd5b6001546100669060ff1681565b60405160ff90911681526020015b60405180910390f35b61008660035481565b604051908152602001610074565b61009c6100ef565b604051610074919061017b565b6100bb6100b73660046101c6565b5f55565b005b5f546040805160018082526020820193909352429181018290526060810191909152608081019190915260a001610074565b600280546100fc906101dd565b80601f0160208091040260200160405190810160405280929190818152602001828054610128906101dd565b80156101735780601f1061014a57610100808354040283529160200191610173565b820191905f5260205f20905b81548152906001019060200180831161015657829003601f168201915b505050505081565b5f6020808352835180828501525f5b818110156101a65785810183015185820160400152820161018a565b505f604082860101526040601f19601f8301168501019250505092915050565b5f602082840312156101d6575f80fd5b5035919050565b600181811c908216806101f157607f821691505b60208210810361020f57634e487b7160e01b5f52602260045260245ffd5b5091905056fea2646970667358221220fb445a97a30060defd58994c9a1967fc85e292388d00b1abc84d300e2a6504ae64736f6c63430008140033",
  "immutableReferences": {},
  "source": "// SPDX-License-Identifier: MIT\r\npragma solidity ^0.8.20;\r\n\r\ncontract MockChainlinkAggregator {\r\n    int256 private _price;\r\n    uint8 public decimals;\r\n    string public description;\r\n    uint256 public version;\r\n\r\n    constructor(int256 initialPrice, uint8 _decimals) {\r\n        _price = initialPrice;\r\n        decimals = _decimals;\r\n        description = \"Mock ETH/USD\";\r\n        version = 1;\r\n    }\r\n\r\n    function latestRoundData()\r\n        external\r\n        view\r\n        returns (\r\n            uint80 roundId,\r\n            int256 answer,\r\n            uint256 startedAt,\r\n            uint256 updatedAt,\r\n            uint80 answeredInRound\r\n        )\r\n    {\r\n        return (1, _price, block.timestamp, block.timestamp, 1);\r\n    }\r\n    \r\n    function setPrice(int256 newPrice) external {\r\n        _price = newPrice;\r\n    }\r\n}\r\n",
  "sourcePath": "C:\\Users\\night\\Downloads\\team-rocket-medi-secure\\team-rocket-medi-secure\\contracts\\contracts\\mocks\\MockChainlinkAggregator.sol",
  "compiler": {
    "name": "solc",
    "version": "0.8.20+commit.a1b79de6.Emscripten.clang"
  },
  "schemaVersion": "3.4.16",
  "updatedAt": "2026-04-24T10:38:42.217Z",
  "networkType": "ethereum",
  "devdoc": {
    "kind": "dev",
    "methods": {},
    "version": 1
  },
  "userdoc": {
    "kind": "user",
    "methods": {},
    "version": 1
  }
}