{
  "contractName": "PatientDetails",
  "abi": [
    {
      "inputs": [],
      "stateMutability": "nonpayable",
      "type": "constructor"
    },
    {
      "inputs": [
        {
          "internalType": "address",
          "name": "target",
          "type": "address"
        }
      ],
      "name": "AddressEmptyCode",
      "type": "error"
    },
    {
      "inputs": [
        {
          "internalType": "address",
          "name": "implementation",
          "type": "address"
        }
      ],
      "name": "ERC1967InvalidImplementation",
      "type": "error"
    },
    {
      "inputs": [],
      "name": "ERC1967NonPayable",
      "type": "error"
    },
    {
      "inputs": [],
      "name": "FailedCall",
      "type": "error"
    },
    {
      "inputs": [],
      "name": "InvalidInitialization",
      "type": "error"
    },
    {
      "inputs": [],
      "name": "NotInitializing",
      "type": "error"
    },
    {
      "inputs": [
        {
          "internalType": "address",
          "name": "owner",
          "type": "address"
        }
      ],
      "name": "OwnableInvalidOwner",
      "type": "error"
    },
    {
      "inputs": [
        {
          "internalType": "address",
          "name": "account",
          "type": "address"
        }
      ],
      "name": "OwnableUnauthorizedAccount",
      "type": "error"
    },
    {
      "inputs": [],
      "name": "UUPSUnauthorizedCallContext",
      "type": "error"
    },
    {
      "inputs": [
        {
          "internalType": "bytes32",
          "name": "slot",
          "type": "bytes32"
        }
      ],
      "name": "UUPSUnsupportedProxiableUUID",
      "type": "error"
    },
    {
      "anonymous": false,
      "inputs": [
        {
          "indexed": false,
          "internalType": "uint64",
          "name": "version",
          "type": "uint64"
        }
      ],
      "name": "Initialized",
      "type": "event"
    },
    {
      "anonymous": false,
      "inputs": [
        {
          "indexed": true,
          "internalType": "address",
          "name": "previousOwner",
          "type": "address"
        },
        {
          "indexed": true,
          "internalType": "address",
          "name": "newOwner",
          "type": "address"
        }
      ],
      "name": "OwnershipTransferred",
      "type": "event"
    },
    {
      "anonymous": false,
      "inputs": [
        {
          "indexed": true,
          "internalType": "address",
          "name": "implementation",
          "type": "address"
        }
      ],
      "name": "Upgraded",
      "type": "event"
    },
    {
      "anonymous": false,
      "inputs": [
        {
          "indexed": true,
          "internalType": "address",
          "name": "patient",
          "type": "address"
        },
        {
          "indexed": false,
          "internalType": "string",
          "name": "bloodPressure",
          "type": "string"
        },
        {
          "indexed": false,
          "internalType": "string",
          "name": "weight",
          "type": "string"
        },
        {
          "indexed": false,
          "internalType": "string",
          "name": "height",
          "type": "string"
        },
        {
          "indexed": false,
          "internalType": "string",
          "name": "heartRate",
          "type": "string"
        },
        {
          "indexed": false,
          "internalType": "string",
          "name": "temperature",
          "type": "string"
        },
        {
          "indexed": false,
          "internalType": "uint256",
          "name": "timestamp",
          "type": "uint256"
        }
      ],
      "name": "VitalsUpdated",
      "type": "event"
    },
    {
      "inputs": [],
      "name": "UPGRADE_INTERFACE_VERSION",
      "outputs": [
        {
          "internalType": "string",
          "name": "",
          "type": "string"
        }
      ],
      "stateMutability": "view",
      "type": "function"
    },
    {
      "inputs": [],
      "name": "owner",
      "outputs": [
        {
          "internalType": "address",
          "name": "",
          "type": "address"
        }
      ],
      "stateMutability": "view",
      "type": "function"
    },
    {
      "inputs": [],
      "name": "proxiableUUID",
      "outputs": [
        {
          "internalType": "bytes32",
          "name": "",
          "type": "bytes32"
        }
      ],
      "stateMutability": "view",
      "type": "function"
    },
    {
      "inputs": [],
      "name": "renounceOwnership",
      "outputs": [],
      "stateMutability": "nonpayable",
      "type": "function"
    },
    {
      "inputs": [
        {
          "internalType": "address",
          "name": "newOwner",
          "type": "address"
        }
      ],
      "name": "transferOwnership",
      "outputs": [],
      "stateMutability": "nonpayable",
      "type": "function"
    },
    {
      "inputs": [
        {
          "internalType": "address",
          "name": "newImplementation",
          "type": "address"
        },
        {
          "internalType": "bytes",
          "name": "data",
          "type": "bytes"
        }
      ],
      "name": "upgradeToAndCall",
      "outputs": [],
      "stateMutability": "payable",
      "type": "function"
    },
    {
      "inputs": [
        {
          "internalType": "address",
          "name": "initialOwner",
          "type": "address"
        }
      ],
      "name": "initialize",
      "outputs": [],
      "stateMutability": "nonpayable",
      "type": "function"
    },
    {
      "inputs": [
        {
          "internalType": "string",
          "name": "_bp",
          "type": "string"
        },
        {
          "internalType": "string",
          "name": "_weight",
          "type": "string"
        },
        {
          "internalType": "string",
          "name": "_height",
          "type": "string"
        },
        {
          "internalType": "string",
          "name": "_heartRate",
          "type": "string"
        },
        {
          "internalType": "string",
          "name": "_temp",
          "type": "string"
        }
      ],
      "name": "setVitals",
      "outputs": [],
      "stateMutability": "nonpayable",
      "type": "function"
    },
    {
      "inputs": [
        {
          "internalType": "address",
          "name": "_patient",
          "type": "address"
        }
      ],
      "name": "getVitals",
      "outputs": [
        {
          "components": [
            {
              "internalType": "string",
              "name": "bloodPressure",
              "type": "string"
            },
            {
              "internalType": "string",
              "name": "weight",
              "type": "string"
            },
            {
              "internalType": "string",
              "name": "height",
              "type": "string"
            },
            {
              "internalType": "string",
              "name": "heartRate",
              "type": "string"
            },
            {
              "internalType": "string",
              "name": "temperature",
              "type": "string"
            },
            {
              "internalType": "uint256",
              "name": "lastUpdated",
              "type": "uint256"
            }
          ],
          "internalType": "struct PatientDetails.Vitals",
          "name": "",
          "type": "tuple"
        }
      ],
      "stateMutability": "view",
      "type": "function"
    }
  ],
  "bytecode": "0x60a06040523060805234801561001457600080fd5b5061001d610022565b6100d4565b7ff0c57e16840df040f15088dc2f81fe391c3923bec73e23a9662efc9c229c6a00805468010000000000000000900460ff16156100725760405163f92ee8a960e01b815260040160405180910390fd5b80546001600160401b03908116146100d15780546001600160401b0319166001600160401b0390811782556040519081527fc7f505b2f371ae2175ee4913f4499e1f2633a7b5936321eed1cdaeb6115181d29060200160405180910390a15b50565b6080516113b26100fd600039600081816108fd015281816109260152610a6c01526113b26000f3fe6080604052600436106100865760003560e01c80638da5cb5b116100595780638da5cb5b1461010a578063ad3cb1cc14610151578063ba4ef8421461018f578063c4d66de8146101af578063f2fde38b146101cf57600080fd5b80634f1ef2861461008b57806352d1902d146100a05780636bedd7d1146100c8578063715018a6146100f5575b600080fd5b61009e610099366004610de9565b6101ef565b005b3480156100ac57600080fd5b506100b561020e565b6040519081526020015b60405180910390f35b3480156100d457600080fd5b506100e86100e3366004610eb3565b61022b565b6040516100bf9190610f1e565b34801561010157600080fd5b5061009e610571565b34801561011657600080fd5b507f9016d09d72d40fdae2fd8ceac6b6234c7706214fd39c1cd1e609a0528c199300546040516001600160a01b0390911681526020016100bf565b34801561015d57600080fd5b50610182604051806040016040528060058152602001640352e302e360dc1b81525081565b6040516100bf9190610fc8565b34801561019b57600080fd5b5061009e6101aa366004611024565b610585565b3480156101bb57600080fd5b5061009e6101ca366004610eb3565b610797565b3480156101db57600080fd5b5061009e6101ea366004610eb3565b6108af565b6101f76108f2565b61020082610997565b61020a828261099f565b5050565b6000610218610a61565b5060008051602061135d83398151915290565b6102646040518060c001604052806060815260200160608152602001606081526020016060815260200160608152602001600081525090565b6001600160a01b03821660009081526020819052604090819020815160c081019092528054829082906102969061112f565b80601f01602080910402602001604051908101604052809291908181526020018280546102c29061112f565b801561030f5780601f106102e45761010080835404028352916020019161030f565b820191906000526020600020905b8154815290600101906020018083116102f257829003601f168201915b505050505081526020016001820180546103289061112f565b80601f01602080910402602001604051908101604052809291908181526020018280546103549061112f565b80156103a15780601f10610376576101008083540402835291602001916103a1565b820191906000526020600020905b81548152906001019060200180831161038457829003601f168201915b505050505081526020016002820180546103ba9061112f565b80601f01602080910402602001604051908101604052809291908181526020018280546103e69061112f565b80156104335780601f1061040857610100808354040283529160200191610433565b820191906000526020600020905b81548152906001019060200180831161041657829003601f168201915b5050505050815260200160038201805461044c9061112f565b80601f01602080910402602001604051908101604052809291908181526020018280546104789061112f565b80156104c55780601f1061049a576101008083540402835291602001916104c5565b820191906000526020600020905b8154815290600101906020018083116104a857829003601f168201915b505050505081526020016004820180546104de9061112f565b80601f016020809104026020016040519081016040528092919081815260200182805461050a9061112f565b80156105575780601f1061052c57610100808354040283529160200191610557565b820191906000526020600020905b81548152906001019060200180831161053a57829003601f168201915b505050505081526020016005820154815250509050919050565b610579610aaa565b6105836000610b05565b565b6040518060c001604052808b8b8080601f016020809104026020016040519081016040528093929190818152602001838380828437600092019190915250505090825250604080516020601f8c018190048102820181019092528a815291810191908b908b9081908401838280828437600092019190915250505090825250604080516020601f8a0181900481028201810190925288815291810191908990899081908401838280828437600092019190915250505090825250604080516020601f880181900481028201810190925286815291810191908790879081908401838280828437600092019190915250505090825250604080516020601f8601819004810282018101909252848152918101919085908590819084018382808284376000920182905250938552505042602093840152503381529081905260409020815181906106d490826111bc565b50602082015160018201906106e990826111bc565b50604082015160028201906106fe90826111bc565b506060820151600382019061071390826111bc565b506080820151600482019061072890826111bc565b5060a08201518160050155905050336001600160a01b03167f415fb855c6f1172bd0f889f7e618863b92a76f9ac29506db8bb099b625f5718d8b8b8b8b8b8b8b8b8b8b426040516107839b9a999897969594939291906112a8565b60405180910390a250505050505050505050565b7ff0c57e16840df040f15088dc2f81fe391c3923bec73e23a9662efc9c229c6a008054600160401b810460ff16159067ffffffffffffffff166000811580156107dd5750825b905060008267ffffffffffffffff1660011480156107fa5750303b155b905081158015610808575080155b156108265760405163f92ee8a960e01b815260040160405180910390fd5b845467ffffffffffffffff19166001178555831561085057845460ff60401b1916600160401b1785555b61085986610b76565b610861610b87565b83156108a757845460ff60401b19168555604051600181527fc7f505b2f371ae2175ee4913f4499e1f2633a7b5936321eed1cdaeb6115181d29060200160405180910390a15b505050505050565b6108b7610aaa565b6001600160a01b0381166108e657604051631e4fbdf760e01b8152600060048201526024015b60405180910390fd5b6108ef81610b05565b50565b306001600160a01b037f000000000000000000000000000000000000000000000000000000000000000016148061097957507f00000000000000000000000000000000000000000000000000000000000000006001600160a01b031661096d60008051602061135d833981519152546001600160a01b031690565b6001600160a01b031614155b156105835760405163703e46dd60e11b815260040160405180910390fd5b6108ef610aaa565b816001600160a01b03166352d1902d6040518163ffffffff1660e01b8152600401602060405180830381865afa9250505080156109f9575060408051601f3d908101601f191682019092526109f691810190611327565b60015b610a2157604051634c9c8ce360e01b81526001600160a01b03831660048201526024016108dd565b60008051602061135d8339815191528114610a5257604051632a87526960e21b8152600481018290526024016108dd565b610a5c8383610b8f565b505050565b306001600160a01b037f000000000000000000000000000000000000000000000000000000000000000016146105835760405163703e46dd60e11b815260040160405180910390fd5b33610adc7f9016d09d72d40fdae2fd8ceac6b6234c7706214fd39c1cd1e609a0528c199300546001600160a01b031690565b6001600160a01b0316146105835760405163118cdaa760e01b81523360048201526024016108dd565b7f9016d09d72d40fdae2fd8ceac6b6234c7706214fd39c1cd1e609a0528c19930080546001600160a01b031981166001600160a01b03848116918217845560405192169182907f8be0079c531659141344cd1fd0a4f28419497f9722a3daafe3b4186f6b6457e090600090a3505050565b610b7e610be5565b6108ef81610c2e565b610583610be5565b610b9882610c36565b6040516001600160a01b038316907fbc7cd75a20ee27fd9adebab32041f755214dbc6bffa90cc0225b39da2e5c2d3b90600090a2805115610bdd57610a5c8282610c9b565b61020a610d11565b7ff0c57e16840df040f15088dc2f81fe391c3923bec73e23a9662efc9c229c6a0054600160401b900460ff1661058357604051631afcd79f60e31b815260040160405180910390fd5b6108b7610be5565b806001600160a01b03163b600003610c6c57604051634c9c8ce360e01b81526001600160a01b03821660048201526024016108dd565b60008051602061135d83398151915280546001600160a01b0319166001600160a01b0392909216919091179055565b6060600080846001600160a01b031684604051610cb89190611340565b600060405180830381855af49150503d8060008114610cf3576040519150601f19603f3d011682016040523d82523d6000602084013e610cf8565b606091505b5091509150610d08858383610d30565b95945050505050565b34156105835760405163b398979f60e01b815260040160405180910390fd5b606082610d4557610d4082610d8f565b610d88565b8151158015610d5c57506001600160a01b0384163b155b15610d8557604051639996b31560e01b81526001600160a01b03851660048201526024016108dd565b50805b9392505050565b805115610d9e57805160208201fd5b60405163d6bda27560e01b815260040160405180910390fd5b80356001600160a01b0381168114610dce57600080fd5b919050565b634e487b7160e01b600052604160045260246000fd5b60008060408385031215610dfc57600080fd5b610e0583610db7565b9150602083013567ffffffffffffffff811115610e2157600080fd5b8301601f81018513610e3257600080fd5b803567ffffffffffffffff811115610e4c57610e4c610dd3565b604051601f8201601f19908116603f0116810167ffffffffffffffff81118282101715610e7b57610e7b610dd3565b604052818152828201602001871015610e9357600080fd5b816020840160208301376000602083830101528093505050509250929050565b600060208284031215610ec557600080fd5b610d8882610db7565b60005b83811015610ee9578181015183820152602001610ed1565b50506000910152565b60008151808452610f0a816020860160208601610ece565b601f01601f19169290920160200192915050565b602081526000825160c06020840152610f3a60e0840182610ef2565b90506020840151601f19848303016040850152610f578282610ef2565b9150506040840151601f19848303016060850152610f758282610ef2565b9150506060840151601f19848303016080850152610f938282610ef2565b9150506080840151601f198483030160a0850152610fb18282610ef2565b91505060a084015160c08401528091505092915050565b602081526000610d886020830184610ef2565b60008083601f840112610fed57600080fd5b50813567ffffffffffffffff81111561100557600080fd5b60208301915083602082850101111561101d57600080fd5b9250929050565b60008060008060008060008060008060a08b8d03121561104357600080fd5b8a3567ffffffffffffffff81111561105a57600080fd5b6110668d828e01610fdb565b909b5099505060208b013567ffffffffffffffff81111561108657600080fd5b6110928d828e01610fdb565b90995097505060408b013567ffffffffffffffff8111156110b257600080fd5b6110be8d828e01610fdb565b90975095505060608b013567ffffffffffffffff8111156110de57600080fd5b6110ea8d828e01610fdb565b90955093505060808b013567ffffffffffffffff81111561110a57600080fd5b6111168d828e01610fdb565b915080935050809150509295989b9194979a5092959850565b600181811c9082168061114357607f821691505b60208210810361116357634e487b7160e01b600052602260045260246000fd5b50919050565b601f821115610a5c5782821115610a5c57806000526020600020601f840160051c6020851015611197575060005b90810190601f840160051c0360005b818110156108a7576000838201556001016111a6565b815167ffffffffffffffff8111156111d6576111d6610dd3565b6111ea816111e4845461112f565b84611169565b6020601f82116001811461121e57600083156112065750848201515b600019600385901b1c1916600184901b178455611278565b600084815260208120601f198516915b8281101561124e578785015182556020948501946001909201910161122e565b508482101561126c5786840151600019600387901b60f8161c191681555b505060018360011b0184555b5050505050565b81835281816020850137506000828201602090810191909152601f909101601f19169091010190565b60c0815260006112bc60c083018d8f61127f565b82810360208401526112cf818c8e61127f565b905082810360408401526112e4818a8c61127f565b905082810360608401526112f981888a61127f565b9050828103608084015261130e81868861127f565b9150508260a08301529c9b505050505050505050505050565b60006020828403121561133957600080fd5b5051919050565b60008251611352818460208701610ece565b919091019291505056fe360894a13ba1a3210667c828492db98dca3e2076cc3735a920a3ca505d382bbca2646970667358221220fd8f80ce37e4b991389d41833c02187415aceeebcdf1fc51e1c70fedd1c9aaa464736f6c63430008220033",
  "immutableReferences": {
    "482": [
      {
        "length": 32,
        "start": 2301
      },
      {
        "length": 32,
        "start": 2342
      },
      {
        "length": 32,
        "start": 2668
      }
    ]
  },
  "source": "// SPDX-License-Identifier: MIT\r\npragma solidity ^0.8.20;\r\n\r\nimport \"@openzeppelin/contracts-upgradeable/proxy/utils/Initializable.sol\";\r\nimport \"@openzeppelin/contracts-upgradeable/proxy/utils/UUPSUpgradeable.sol\";\r\nimport \"@openzeppelin/contracts-upgradeable/access/OwnableUpgradeable.sol\";\r\n\r\n/**\r\n * @title PatientDetails\r\n * @dev Upgradable contract for storing patient health details.\r\n * Uses UUPS (Universal Upgradeable Proxy Standard) pattern.\r\n */\r\ncontract PatientDetails is Initializable, UUPSUpgradeable, OwnableUpgradeable {\r\n    struct Vitals {\r\n        string bloodPressure; // e.g., \"120/80\"\r\n        string weight;        // e.g., \"70 kg\"\r\n        string height;        // e.g., \"175 cm\"\r\n        string heartRate;     // e.g., \"72 bpm\"\r\n        string temperature;   // e.g., \"98.6 F\"\r\n        uint256 lastUpdated;\r\n    }\r\n\r\n    // Mapping from patient address to their health details\r\n    mapping(address => Vitals) private _patientVitals;\r\n\r\n    // Events\r\n    event VitalsUpdated(\r\n        address indexed patient,\r\n        string bloodPressure,\r\n        string weight,\r\n        string height,\r\n        string heartRate,\r\n        string temperature,\r\n        uint256 timestamp\r\n    );\r\n\r\n    /// @custom:oz-upgrades-unsafe-allow constructor\r\n    constructor() {\r\n        _disableInitializers();\r\n    }\r\n\r\n    /**\r\n     * @dev Initializer function (replaces constructor for upgradable contracts)\r\n     * @param initialOwner Address of the contract owner who can authorized upgrades\r\n     */\r\n    function initialize(address initialOwner) public initializer {\r\n        __Ownable_init(initialOwner);\r\n        __UUPSUpgradeable_init();\r\n    }\r\n\r\n    /**\r\n     * @dev Set or update patient health details\r\n     * @param _bp Blood pressure string\r\n     * @param _weight Weight string\r\n     * @param _height Height string\r\n     * @param _heartRate Heart rate string\r\n     * @param _temp Temperature string\r\n     */\r\n    function setVitals(\r\n        string calldata _bp,\r\n        string calldata _weight,\r\n        string calldata _height,\r\n        string calldata _heartRate,\r\n        string calldata _temp\r\n    ) external {\r\n        _patientVitals[msg.sender] = Vitals({\r\n            bloodPressure: _bp,\r\n            weight: _weight,\r\n            height: _height,\r\n            heartRate: _heartRate,\r\n            temperature: _temp,\r\n            lastUpdated: block.timestamp\r\n        });\r\n\r\n        emit VitalsUpdated(\r\n            msg.sender,\r\n            _bp,\r\n            _weight,\r\n            _height,\r\n            _heartRate,\r\n            _temp,\r\n            block.timestamp\r\n        );\r\n    }\r\n\r\n    /**\r\n     * @dev Get patient health details\r\n     * @param _patient Address of the patient\r\n     * @return Vitals struct containing patient details\r\n     */\r\n    function getVitals(address _patient) external view returns (Vitals memory) {\r\n        return _patientVitals[_patient];\r\n    }\r\n\r\n    /**\r\n     * @dev Internal function to authorize contract upgrades.\r\n     * Only the owner can authorize upgrades.\r\n     * @param newImplementation Address of the new implementation contract\r\n     */\r\n    function _authorizeUpgrade(address newImplementation) internal override onlyOwner {}\r\n}\r\n",
  "sourcePath": "C:\\Users\\night\\Downloads\\team-rocket-medi-secure\\team-rocket-medi-secure\\contracts\\contracts\\PatientDetails.sol",
  "compiler": {
    "name": "solc",
    "version": "0.8.34+commit.80d5c536.Emscripten.clang"
  },
  "schemaVersion": "3.4.16",
  "updatedAt": "2026-04-10T04:21:06.011Z",
  "devdoc": {
    "details": "Upgradable contract for storing patient health details. Uses UUPS (Universal Upgradeable Proxy Standard) pattern.",
    "errors": {
      "AddressEmptyCode(address)": [
        {
          "details": "There's no code at `target` (it is not a contract)."
        }
      ],
      "ERC1967InvalidImplementation(address)": [
        {
          "details": "The `implementation` of the proxy is invalid."
        }
      ],
      "ERC1967NonPayable()": [
        {
          "details": "An upgrade function sees `msg.value > 0` that may be lost."
        }
      ],
      "FailedCall()": [
        {
          "details": "A call to an address target failed. The target may have reverted."
        }
      ],
      "InvalidInitialization()": [
        {
          "details": "The contract is already initialized."
        }
      ],
      "NotInitializing()": [
        {
          "details": "The contract is not initializing."
        }
      ],
      "OwnableInvalidOwner(address)": [
        {
          "details": "The owner is not a valid owner account. (eg. `address(0)`)"
        }
      ],
      "OwnableUnauthorizedAccount(address)": [
        {
          "details": "The caller account is not authorized to perform an operation."
        }
      ],
      "UUPSUnauthorizedCallContext()": [
        {
          "details": "The call is from an unauthorized context."
        }
      ],
      "UUPSUnsupportedProxiableUUID(bytes32)": [
        {
          "details": "The storage `slot` is unsupported as a UUID."
        }
      ]
    },
    "events": {
      "Initialized(uint64)": {
        "details": "Triggered when the contract has been initialized or reinitialized."
      },
      "Upgraded(address)": {
        "details": "Emitted when the implementation is upgraded."
      }
    },
    "kind": "dev",
    "methods": {
      "constructor": {
        "custom:oz-upgrades-unsafe-allow": "constructor"
      },
      "getVitals(address)": {
        "details": "Get patient health details",
        "params": {
          "_patient": "Address of the patient"
        },
        "returns": {
          "_0": "Vitals struct containing patient details"
        }
      },
      "initialize(address)": {
        "details": "Initializer function (replaces constructor for upgradable contracts)",
        "params": {
          "initialOwner": "Address of the contract owner who can authorized upgrades"
        }
      },
      "owner()": {
        "details": "Returns the address of the current owner."
      },
      "proxiableUUID()": {
        "details": "Implementation of the ERC-1822 {proxiableUUID} function. This returns the storage slot used by the implementation. It is used to validate the implementation's compatibility when performing an upgrade. IMPORTANT: A proxy pointing at a proxiable contract should not be considered proxiable itself, because this risks bricking a proxy that upgrades to it, by delegating to itself until out of gas. Thus it is critical that this function revert if invoked through a proxy. This is guaranteed by the `notDelegated` modifier."
      },
      "renounceOwnership()": {
        "details": "Leaves the contract without owner. It will not be possible to call `onlyOwner` functions. Can only be called by the current owner. NOTE: Renouncing ownership will leave the contract without an owner, thereby disabling any functionality that is only available to the owner."
      },
      "setVitals(string,string,string,string,string)": {
        "details": "Set or update patient health details",
        "params": {
          "_bp": "Blood pressure string",
          "_heartRate": "Heart rate string",
          "_height": "Height string",
          "_temp": "Temperature string",
          "_weight": "Weight string"
        }
      },
      "transferOwnership(address)": {
        "details": "Transfers ownership of the contract to a new account (`newOwner`). Can only be called by the current owner."
      },
      "upgradeToAndCall(address,bytes)": {
        "custom:oz-upgrades-unsafe-allow-reachable": "delegatecall",
        "details": "Upgrade the implementation of the proxy to `newImplementation`, and subsequently execute the function call encoded in `data`. Calls {_authorizeUpgrade}. Emits an {Upgraded} event."
      }
    },
    "title": "PatientDetails",
    "version": 1
  },
  "userdoc": {
    "kind": "user",
    "methods": {},
    "version": 1
  }
}