{
  "contractName": "Patient",
  "abi": [
    {
      "inputs": [],
      "stateMutability": "nonpayable",
      "type": "constructor",
      "signature": "constructor"
    },
    {
      "inputs": [
        {
          "internalType": "address",
          "name": "sender",
          "type": "address"
        },
        {
          "internalType": "uint256",
          "name": "tokenId",
          "type": "uint256"
        },
        {
          "internalType": "address",
          "name": "owner",
          "type": "address"
        }
      ],
      "name": "ERC721IncorrectOwner",
      "type": "error"
    },
    {
      "inputs": [
        {
          "internalType": "address",
          "name": "operator",
          "type": "address"
        },
        {
          "internalType": "uint256",
          "name": "tokenId",
          "type": "uint256"
        }
      ],
      "name": "ERC721InsufficientApproval",
      "type": "error"
    },
    {
      "inputs": [
        {
          "internalType": "address",
          "name": "approver",
          "type": "address"
        }
      ],
      "name": "ERC721InvalidApprover",
      "type": "error"
    },
    {
      "inputs": [
        {
          "internalType": "address",
          "name": "operator",
          "type": "address"
        }
      ],
      "name": "ERC721InvalidOperator",
      "type": "error"
    },
    {
      "inputs": [
        {
          "internalType": "address",
          "name": "owner",
          "type": "address"
        }
      ],
      "name": "ERC721InvalidOwner",
      "type": "error"
    },
    {
      "inputs": [
        {
          "internalType": "address",
          "name": "receiver",
          "type": "address"
        }
      ],
      "name": "ERC721InvalidReceiver",
      "type": "error"
    },
    {
      "inputs": [
        {
          "internalType": "address",
          "name": "sender",
          "type": "address"
        }
      ],
      "name": "ERC721InvalidSender",
      "type": "error"
    },
    {
      "inputs": [
        {
          "internalType": "uint256",
          "name": "tokenId",
          "type": "uint256"
        }
      ],
      "name": "ERC721NonexistentToken",
      "type": "error"
    },
    {
      "anonymous": false,
      "inputs": [
        {
          "indexed": true,
          "internalType": "address",
          "name": "owner",
          "type": "address"
        },
        {
          "indexed": true,
          "internalType": "address",
          "name": "approved",
          "type": "address"
        },
        {
          "indexed": true,
          "internalType": "uint256",
          "name": "tokenId",
          "type": "uint256"
        }
      ],
      "name": "Approval",
      "type": "event",
      "signature": "0x8c5be1e5ebec7d5bd14f71427d1e84f3dd0314c0f7b2291e5b200ac8c7c3b925"
    },
    {
      "anonymous": false,
      "inputs": [
        {
          "indexed": true,
          "internalType": "address",
          "name": "owner",
          "type": "address"
        },
        {
          "indexed": true,
          "internalType": "address",
          "name": "operator",
          "type": "address"
        },
        {
          "indexed": false,
          "internalType": "bool",
          "name": "approved",
          "type": "bool"
        }
      ],
      "name": "ApprovalForAll",
      "type": "event",
      "signature": "0x17307eab39ab6107e8899845ad3d59bd9653f200f220920489ca2b5937696c31"
    },
    {
      "anonymous": false,
      "inputs": [
        {
          "indexed": false,
          "internalType": "uint256",
          "name": "_fromTokenId",
          "type": "uint256"
        },
        {
          "indexed": false,
          "internalType": "uint256",
          "name": "_toTokenId",
          "type": "uint256"
        }
      ],
      "name": "BatchMetadataUpdate",
      "type": "event",
      "signature": "0x6bd5c950a8d8df17f772f5af37cb3655737899cbf903264b9795592da439661c"
    },
    {
      "anonymous": false,
      "inputs": [
        {
          "indexed": false,
          "internalType": "uint256",
          "name": "_tokenId",
          "type": "uint256"
        }
      ],
      "name": "MetadataUpdate",
      "type": "event",
      "signature": "0xf8e1a15aba9398e019f0b49df1a4fde98ee17ae345cb5f6b5e2c27f5033e8ce7"
    },
    {
      "anonymous": false,
      "inputs": [
        {
          "indexed": true,
          "internalType": "address",
          "name": "from",
          "type": "address"
        },
        {
          "indexed": true,
          "internalType": "address",
          "name": "to",
          "type": "address"
        },
        {
          "indexed": true,
          "internalType": "uint256",
          "name": "tokenId",
          "type": "uint256"
        }
      ],
      "name": "Transfer",
      "type": "event",
      "signature": "0xddf252ad1be2c89b69c2b068fc378daa952ba7f163c4a11628f55a4df523b3ef"
    },
    {
      "inputs": [
        {
          "internalType": "address",
          "name": "to",
          "type": "address"
        },
        {
          "internalType": "uint256",
          "name": "tokenId",
          "type": "uint256"
        }
      ],
      "name": "approve",
      "outputs": [],
      "stateMutability": "nonpayable",
      "type": "function",
      "signature": "0x095ea7b3"
    },
    {
      "inputs": [
        {
          "internalType": "address",
          "name": "owner",
          "type": "address"
        }
      ],
      "name": "balanceOf",
      "outputs": [
        {
          "internalType": "uint256",
          "name": "",
          "type": "uint256"
        }
      ],
      "stateMutability": "view",
      "type": "function",
      "constant": true,
      "signature": "0x70a08231"
    },
    {
      "inputs": [
        {
          "internalType": "uint256",
          "name": "tokenId",
          "type": "uint256"
        }
      ],
      "name": "getApproved",
      "outputs": [
        {
          "internalType": "address",
          "name": "",
          "type": "address"
        }
      ],
      "stateMutability": "view",
      "type": "function",
      "constant": true,
      "signature": "0x081812fc"
    },
    {
      "inputs": [
        {
          "internalType": "address",
          "name": "owner",
          "type": "address"
        },
        {
          "internalType": "address",
          "name": "operator",
          "type": "address"
        }
      ],
      "name": "isApprovedForAll",
      "outputs": [
        {
          "internalType": "bool",
          "name": "",
          "type": "bool"
        }
      ],
      "stateMutability": "view",
      "type": "function",
      "constant": true,
      "signature": "0xe985e9c5"
    },
    {
      "inputs": [],
      "name": "name",
      "outputs": [
        {
          "internalType": "string",
          "name": "",
          "type": "string"
        }
      ],
      "stateMutability": "view",
      "type": "function",
      "constant": true,
      "signature": "0x06fdde03"
    },
    {
      "inputs": [
        {
          "internalType": "uint256",
          "name": "tokenId",
          "type": "uint256"
        }
      ],
      "name": "ownerOf",
      "outputs": [
        {
          "internalType": "address",
          "name": "",
          "type": "address"
        }
      ],
      "stateMutability": "view",
      "type": "function",
      "constant": true,
      "signature": "0x6352211e"
    },
    {
      "inputs": [
        {
          "internalType": "uint256",
          "name": "",
          "type": "uint256"
        }
      ],
      "name": "patients",
      "outputs": [
        {
          "internalType": "uint256",
          "name": "patientId",
          "type": "uint256"
        },
        {
          "internalType": "string",
          "name": "username",
          "type": "string"
        },
        {
          "internalType": "string",
          "name": "name",
          "type": "string"
        },
        {
          "internalType": "address",
          "name": "walletAddress",
          "type": "address"
        },
        {
          "internalType": "string",
          "name": "email",
          "type": "string"
        },
        {
          "internalType": "uint8",
          "name": "age",
          "type": "uint8"
        },
        {
          "internalType": "string",
          "name": "bloodGroup",
          "type": "string"
        }
      ],
      "stateMutability": "view",
      "type": "function",
      "constant": true,
      "signature": "0x93119a83"
    },
    {
      "inputs": [
        {
          "internalType": "address",
          "name": "from",
          "type": "address"
        },
        {
          "internalType": "address",
          "name": "to",
          "type": "address"
        },
        {
          "internalType": "uint256",
          "name": "tokenId",
          "type": "uint256"
        }
      ],
      "name": "safeTransferFrom",
      "outputs": [],
      "stateMutability": "nonpayable",
      "type": "function",
      "signature": "0x42842e0e"
    },
    {
      "inputs": [
        {
          "internalType": "address",
          "name": "from",
          "type": "address"
        },
        {
          "internalType": "address",
          "name": "to",
          "type": "address"
        },
        {
          "internalType": "uint256",
          "name": "tokenId",
          "type": "uint256"
        },
        {
          "internalType": "bytes",
          "name": "data",
          "type": "bytes"
        }
      ],
      "name": "safeTransferFrom",
      "outputs": [],
      "stateMutability": "nonpayable",
      "type": "function",
      "signature": "0xb88d4fde"
    },
    {
      "inputs": [
        {
          "internalType": "address",
          "name": "operator",
          "type": "address"
        },
        {
          "internalType": "bool",
          "name": "approved",
          "type": "bool"
        }
      ],
      "name": "setApprovalForAll",
      "outputs": [],
      "stateMutability": "nonpayable",
      "type": "function",
      "signature": "0xa22cb465"
    },
    {
      "inputs": [
        {
          "internalType": "bytes4",
          "name": "interfaceId",
          "type": "bytes4"
        }
      ],
      "name": "supportsInterface",
      "outputs": [
        {
          "internalType": "bool",
          "name": "",
          "type": "bool"
        }
      ],
      "stateMutability": "view",
      "type": "function",
      "constant": true,
      "signature": "0x01ffc9a7"
    },
    {
      "inputs": [],
      "name": "symbol",
      "outputs": [
        {
          "internalType": "string",
          "name": "",
          "type": "string"
        }
      ],
      "stateMutability": "view",
      "type": "function",
      "constant": true,
      "signature": "0x95d89b41"
    },
    {
      "inputs": [
        {
          "internalType": "uint256",
          "name": "tokenId",
          "type": "uint256"
        }
      ],
      "name": "tokenURI",
      "outputs": [
        {
          "internalType": "string",
          "name": "",
          "type": "string"
        }
      ],
      "stateMutability": "view",
      "type": "function",
      "constant": true,
      "signature": "0xc87b56dd"
    },
    {
      "inputs": [
        {
          "internalType": "address",
          "name": "from",
          "type": "address"
        },
        {
          "internalType": "address",
          "name": "to",
          "type": "address"
        },
        {
          "internalType": "uint256",
          "name": "tokenId",
          "type": "uint256"
        }
      ],
      "name": "transferFrom",
      "outputs": [],
      "stateMutability": "nonpayable",
      "type": "function",
      "signature": "0x23b872dd"
    },
    {
      "inputs": [
        {
          "internalType": "string",
          "name": "",
          "type": "string"
        }
      ],
      "name": "usernameToPatientId",
      "outputs": [
        {
          "internalType": "uint256",
          "name": "",
          "type": "uint256"
        }
      ],
      "stateMutability": "view",
      "type": "function",
      "constant": true,
      "signature": "0x8590ed19"
    },
    {
      "inputs": [
        {
          "internalType": "address",
          "name": "",
          "type": "address"
        }
      ],
      "name": "walletToPatientId",
      "outputs": [
        {
          "internalType": "uint256",
          "name": "",
          "type": "uint256"
        }
      ],
      "stateMutability": "view",
      "type": "function",
      "constant": true,
      "signature": "0x23ecb058"
    },
    {
      "inputs": [
        {
          "internalType": "address",
          "name": "walletAddress",
          "type": "address"
        }
      ],
      "name": "userExists",
      "outputs": [
        {
          "internalType": "bool",
          "name": "",
          "type": "bool"
        }
      ],
      "stateMutability": "view",
      "type": "function",
      "constant": true,
      "signature": "0x0e666e49"
    },
    {
      "inputs": [
        {
          "internalType": "string",
          "name": "_username",
          "type": "string"
        },
        {
          "internalType": "string",
          "name": "_name",
          "type": "string"
        },
        {
          "internalType": "string",
          "name": "_email",
          "type": "string"
        },
        {
          "internalType": "uint8",
          "name": "_age",
          "type": "uint8"
        },
        {
          "internalType": "string",
          "name": "_bloodGroup",
          "type": "string"
        }
      ],
      "name": "registerPatient",
      "outputs": [],
      "stateMutability": "nonpayable",
      "type": "function",
      "signature": "0x1ff3bd8b"
    },
    {
      "inputs": [
        {
          "internalType": "string",
          "name": "_ipfsHash",
          "type": "string"
        },
        {
          "internalType": "string",
          "name": "_fileName",
          "type": "string"
        },
        {
          "internalType": "string",
          "name": "_recordDate",
          "type": "string"
        },
        {
          "internalType": "string",
          "name": "_hospital",
          "type": "string"
        }
      ],
      "name": "addMedicalRecord",
      "outputs": [],
      "stateMutability": "nonpayable",
      "type": "function",
      "signature": "0x3a0c8fb2"
    },
    {
      "inputs": [
        {
          "internalType": "uint256",
          "name": "_patientId",
          "type": "uint256"
        }
      ],
      "name": "getPatientDetails",
      "outputs": [
        {
          "components": [
            {
              "internalType": "uint256",
              "name": "patientId",
              "type": "uint256"
            },
            {
              "internalType": "string",
              "name": "username",
              "type": "string"
            },
            {
              "internalType": "string",
              "name": "name",
              "type": "string"
            },
            {
              "internalType": "address",
              "name": "walletAddress",
              "type": "address"
            },
            {
              "internalType": "string",
              "name": "email",
              "type": "string"
            },
            {
              "internalType": "uint8",
              "name": "age",
              "type": "uint8"
            },
            {
              "internalType": "string",
              "name": "bloodGroup",
              "type": "string"
            },
            {
              "components": [
                {
                  "internalType": "uint256",
                  "name": "tokenId",
                  "type": "uint256"
                },
                {
                  "internalType": "string",
                  "name": "ipfsHash",
                  "type": "string"
                },
                {
                  "internalType": "string",
                  "name": "fileName",
                  "type": "string"
                },
                {
                  "internalType": "string",
                  "name": "recordDate",
                  "type": "string"
                },
                {
                  "internalType": "string",
                  "name": "hospital",
                  "type": "string"
                }
              ],
              "internalType": "struct Patient.MedicalRecord[]",
              "name": "medicalRecords",
              "type": "tuple[]"
            }
          ],
          "internalType": "struct Patient.PatientDetails",
          "name": "",
          "type": "tuple"
        }
      ],
      "stateMutability": "view",
      "type": "function",
      "constant": true,
      "signature": "0x300c601c"
    },
    {
      "inputs": [
        {
          "internalType": "string",
          "name": "_username",
          "type": "string"
        }
      ],
      "name": "getPatientIdByUsername",
      "outputs": [
        {
          "internalType": "uint256",
          "name": "",
          "type": "uint256"
        }
      ],
      "stateMutability": "view",
      "type": "function",
      "constant": true,
      "signature": "0x2b05a65e"
    },
    {
      "inputs": [
        {
          "internalType": "uint256",
          "name": "_patientId",
          "type": "uint256"
        }
      ],
      "name": "getMedicalRecords",
      "outputs": [
        {
          "components": [
            {
              "internalType": "uint256",
              "name": "tokenId",
              "type": "uint256"
            },
            {
              "internalType": "string",
              "name": "ipfsHash",
              "type": "string"
            },
            {
              "internalType": "string",
              "name": "fileName",
              "type": "string"
            },
            {
              "internalType": "string",
              "name": "recordDate",
              "type": "string"
            },
            {
              "internalType": "string",
              "name": "hospital",
              "type": "string"
            }
          ],
          "internalType": "struct Patient.MedicalRecord[]",
          "name": "",
          "type": "tuple[]"
        }
      ],
      "stateMutability": "view",
      "type": "function",
      "constant": true,
      "signature": "0xffbcfac2"
    }
  ],
  "bytecode": "0x608060405234801562000010575f80fd5b506040518060400160405280601181526020017f4d656469536563757265205265636f72640000000000000000000000000000008152506040518060400160405280600681526020017f4d45445245430000000000000000000000000000000000000000000000000000815250815f90816200008d91906200030c565b5080600190816200009f91906200030c565b505050620003f0565b5f81519050919050565b7f4e487b71000000000000000000000000000000000000000000000000000000005f52604160045260245ffd5b7f4e487b71000000000000000000000000000000000000000000000000000000005f52602260045260245ffd5b5f60028204905060018216806200012457607f821691505b6020821081036200013a5762000139620000df565b5b50919050565b5f819050815f5260205f209050919050565b5f6020601f8301049050919050565b5f82821b905092915050565b5f600883026200019e7fffffffffffffffffffffffffffffffffffffffffffffffffffffffffffffffff8262000161565b620001aa868362000161565b95508019841693508086168417925050509392505050565b5f819050919050565b5f819050919050565b5f620001f4620001ee620001e884620001c2565b620001cb565b620001c2565b9050919050565b5f819050919050565b6200020f83620001d4565b620002276200021e82620001fb565b8484546200016d565b825550505050565b5f90565b6200023d6200022f565b6200024a81848462000204565b505050565b5b818110156200027157620002655f8262000233565b60018101905062000250565b5050565b601f821115620002c0576200028a8162000140565b620002958462000152565b81016020851015620002a5578190505b620002bd620002b48562000152565b8301826200024f565b50505b505050565b5f82821c905092915050565b5f620002e25f1984600802620002c5565b1980831691505092915050565b5f620002fc8383620002d1565b9150826002028217905092915050565b6200031782620000a8565b67ffffffffffffffff811115620003335762000332620000b2565b5b6200033f82546200010c565b6200034c82828562000275565b5f60209050601f83116001811462000382575f84156200036d578287015190505b620003798582620002ef565b865550620003e8565b601f198416620003928662000140565b5f5b82811015620003bb5784890151825560018201915060208501945060208101905062000394565b86831015620003db5784890151620003d7601f891682620002d1565b8355505b6001600288020188555050505b505050505050565b613bfb80620003fe5f395ff3fe608060405234801561000f575f80fd5b5060043610610140575f3560e01c806342842e0e116100b657806395d89b411161007a57806395d89b41146103d4578063a22cb465146103f2578063b88d4fde1461040e578063c87b56dd1461042a578063e985e9c51461045a578063ffbcfac21461048a57610140565b806342842e0e146102f25780636352211e1461030e57806370a082311461033e5780638590ed191461036e57806393119a831461039e57610140565b80631ff3bd8b116101085780631ff3bd8b1461020e57806323b872dd1461022a57806323ecb058146102465780632b05a65e14610276578063300c601c146102a65780633a0c8fb2146102d657610140565b806301ffc9a71461014457806306fdde0314610174578063081812fc14610192578063095ea7b3146101c25780630e666e49146101de575b5f80fd5b61015e60048036038101906101599190612944565b6104ba565b60405161016b9190612989565b60405180910390f35b61017c61051a565b6040516101899190612a2c565b60405180910390f35b6101ac60048036038101906101a79190612a7f565b6105a9565b6040516101b99190612ae9565b60405180910390f35b6101dc60048036038101906101d79190612b2c565b6105c4565b005b6101f860048036038101906101f39190612b6a565b6105da565b6040516102059190612989565b60405180910390f35b61022860048036038101906102239190612cf7565b610623565b005b610244600480360381019061023f9190612dde565b610850565b005b610260600480360381019061025b9190612b6a565b61094f565b60405161026d9190612e3d565b60405180910390f35b610290600480360381019061028b9190612e56565b610964565b60405161029d9190612e3d565b60405180910390f35b6102c060048036038101906102bb9190612a7f565b61098b565b6040516102cd919061311e565b60405180910390f35b6102f060048036038101906102eb919061313e565b610f66565b005b61030c60048036038101906103079190612dde565b6110e1565b005b61032860048036038101906103239190612a7f565b611100565b6040516103359190612ae9565b60405180910390f35b61035860048036038101906103539190612b6a565b611111565b6040516103659190612e3d565b60405180910390f35b61038860048036038101906103839190612e56565b6111c7565b6040516103959190612e3d565b60405180910390f35b6103b860048036038101906103b39190612a7f565b6111f4565b6040516103cb9796959493929190613221565b60405180910390f35b6103dc611475565b6040516103e99190612a2c565b60405180910390f35b61040c600480360381019061040791906132d4565b611505565b005b610428600480360381019061042391906133b0565b61151b565b005b610444600480360381019061043f9190612a7f565b611540565b6040516104519190612a2c565b60405180910390f35b610474600480360381019061046f9190613430565b61164b565b6040516104819190612989565b60405180910390f35b6104a4600480360381019061049f9190612a7f565b6116d9565b6040516104b191906134f1565b60405180910390f35b5f634906490660e01b7bffffffffffffffffffffffffffffffffffffffffffffffffffffffff1916827bffffffffffffffffffffffffffffffffffffffffffffffffffffffff191614806105135750610512826119e2565b5b9050919050565b60605f80546105289061353e565b80601f01602080910402602001604051908101604052809291908181526020018280546105549061353e565b801561059f5780601f106105765761010080835404028352916020019161059f565b820191905f5260205f20905b81548152906001019060200180831161058257829003601f168201915b5050505050905090565b5f6105b382611ac3565b506105bd82611b49565b9050919050565b6105d682826105d1611b82565b611b89565b5050565b5f8060085f8473ffffffffffffffffffffffffffffffffffffffff1673ffffffffffffffffffffffffffffffffffffffff1681526020019081526020015f205414159050919050565b5f60085f3373ffffffffffffffffffffffffffffffffffffffff1673ffffffffffffffffffffffffffffffffffffffff1681526020019081526020015f2054146106a2576040517f08c379a0000000000000000000000000000000000000000000000000000000008152600401610699906135b8565b60405180910390fd5b5f6009866040516106b39190613610565b90815260200160405180910390205414610702576040517f08c379a00000000000000000000000000000000000000000000000000000000081526004016106f990613670565b60405180910390fd5b600b5f815480929190610714906136bb565b9190505550600b5460085f3373ffffffffffffffffffffffffffffffffffffffff1673ffffffffffffffffffffffffffffffffffffffff1681526020019081526020015f2081905550600b546009866040516107709190613610565b9081526020016040518091039020819055505f600a5f600b5481526020019081526020015f209050600b54815f0181905550858160010190816107b3919061389f565b50848160020190816107c5919061389f565b5033816003015f6101000a81548173ffffffffffffffffffffffffffffffffffffffff021916908373ffffffffffffffffffffffffffffffffffffffff16021790555083816004019081610819919061389f565b5082816005015f6101000a81548160ff021916908360ff16021790555081816006019081610847919061389f565b50505050505050565b5f73ffffffffffffffffffffffffffffffffffffffff168273ffffffffffffffffffffffffffffffffffffffff16036108c0575f6040517f64a0ae920000000000000000000000000000000000000000000000000000000081526004016108b79190612ae9565b60405180910390fd5b5f6108d383836108ce611b82565b611b9b565b90508373ffffffffffffffffffffffffffffffffffffffff168173ffffffffffffffffffffffffffffffffffffffff1614610949578382826040517f64283d7b0000000000000000000000000000000000000000000000000000000081526004016109409392919061396e565b60405180910390fd5b50505050565b6008602052805f5260405f205f915090505481565b5f6009826040516109759190613610565b9081526020016040518091039020549050919050565b610993612883565b5f821180156109a45750600b548211155b6109e3576040517f08c379a00000000000000000000000000000000000000000000000000000000081526004016109da906139ed565b60405180910390fd5b600a5f8381526020019081526020015f20604051806101000160405290815f8201548152602001600182018054610a199061353e565b80601f0160208091040260200160405190810160405280929190818152602001828054610a459061353e565b8015610a905780601f10610a6757610100808354040283529160200191610a90565b820191905f5260205f20905b815481529060010190602001808311610a7357829003601f168201915b50505050508152602001600282018054610aa99061353e565b80601f0160208091040260200160405190810160405280929190818152602001828054610ad59061353e565b8015610b205780601f10610af757610100808354040283529160200191610b20565b820191905f5260205f20905b815481529060010190602001808311610b0357829003601f168201915b50505050508152602001600382015f9054906101000a900473ffffffffffffffffffffffffffffffffffffffff1673ffffffffffffffffffffffffffffffffffffffff1673ffffffffffffffffffffffffffffffffffffffff168152602001600482018054610b8e9061353e565b80601f0160208091040260200160405190810160405280929190818152602001828054610bba9061353e565b8015610c055780601f10610bdc57610100808354040283529160200191610c05565b820191905f5260205f20905b815481529060010190602001808311610be857829003601f168201915b50505050508152602001600582015f9054906101000a900460ff1660ff1660ff168152602001600682018054610c3a9061353e565b80601f0160208091040260200160405190810160405280929190818152602001828054610c669061353e565b8015610cb15780601f10610c8857610100808354040283529160200191610cb1565b820191905f5260205f20905b815481529060010190602001808311610c9457829003601f168201915b5050505050815260200160078201805480602002602001604051908101604052809291908181526020015f905b82821015610f57578382905f5260205f2090600502016040518060a00160405290815f8201548152602001600182018054610d189061353e565b80601f0160208091040260200160405190810160405280929190818152602001828054610d449061353e565b8015610d8f5780601f10610d6657610100808354040283529160200191610d8f565b820191905f5260205f20905b815481529060010190602001808311610d7257829003601f168201915b50505050508152602001600282018054610da89061353e565b80601f0160208091040260200160405190810160405280929190818152602001828054610dd49061353e565b8015610e1f5780601f10610df657610100808354040283529160200191610e1f565b820191905f5260205f20905b815481529060010190602001808311610e0257829003601f168201915b50505050508152602001600382018054610e389061353e565b80601f0160208091040260200160405190810160405280929190818152602001828054610e649061353e565b8015610eaf5780601f10610e8657610100808354040283529160200191610eaf565b820191905f5260205f20905b815481529060010190602001808311610e9257829003601f168201915b50505050508152602001600482018054610ec89061353e565b80601f0160208091040260200160405190810160405280929190818152602001828054610ef49061353e565b8015610f3f5780601f10610f1657610100808354040283529160200191610f3f565b820191905f5260205f20905b815481529060010190602001808311610f2257829003601f168201915b50505050508152505081526020019060010190610cde565b50505050815250509050919050565b5f60085f3373ffffffffffffffffffffffffffffffffffffffff1673ffffffffffffffffffffffffffffffffffffffff1681526020019081526020015f205490505f8103610fe9576040517f08c379a0000000000000000000000000000000000000000000000000000000008152600401610fe090613a55565b60405180910390fd5b5f60075f815480929190610ffc906136bb565b91905055905061100c3382611da6565b6110168187611e99565b600a5f8381526020019081526020015f206007016040518060a0016040528083815260200188815260200187815260200186815260200185815250908060018154018082558091505060019003905f5260205f2090600502015f909190919091505f820151815f01556020820151816001019081611094919061389f565b5060408201518160020190816110aa919061389f565b5060608201518160030190816110c0919061389f565b5060808201518160040190816110d6919061389f565b505050505050505050565b6110fb83838360405180602001604052805f81525061151b565b505050565b5f61110a82611ac3565b9050919050565b5f8073ffffffffffffffffffffffffffffffffffffffff168273ffffffffffffffffffffffffffffffffffffffff1603611182575f6040517f89c62b640000000000000000000000000000000000000000000000000000000081526004016111799190612ae9565b60405180910390fd5b60035f8373ffffffffffffffffffffffffffffffffffffffff1673ffffffffffffffffffffffffffffffffffffffff1681526020019081526020015f20549050919050565b6009818051602081018201805184825260208301602085012081835280955050505050505f915090505481565b600a602052805f5260405f205f91509050805f0154908060010180546112199061353e565b80601f01602080910402602001604051908101604052809291908181526020018280546112459061353e565b80156112905780601f1061126757610100808354040283529160200191611290565b820191905f5260205f20905b81548152906001019060200180831161127357829003601f168201915b5050505050908060020180546112a59061353e565b80601f01602080910402602001604051908101604052809291908181526020018280546112d19061353e565b801561131c5780601f106112f35761010080835404028352916020019161131c565b820191905f5260205f20905b8154815290600101906020018083116112ff57829003601f168201915b505050505090806003015f9054906101000a900473ffffffffffffffffffffffffffffffffffffffff16908060040180546113569061353e565b80601f01602080910402602001604051908101604052809291908181526020018280546113829061353e565b80156113cd5780601f106113a4576101008083540402835291602001916113cd565b820191905f5260205f20905b8154815290600101906020018083116113b057829003601f168201915b505050505090806005015f9054906101000a900460ff16908060060180546113f49061353e565b80601f01602080910402602001604051908101604052809291908181526020018280546114209061353e565b801561146b5780601f106114425761010080835404028352916020019161146b565b820191905f5260205f20905b81548152906001019060200180831161144e57829003601f168201915b5050505050905087565b6060600180546114849061353e565b80601f01602080910402602001604051908101604052809291908181526020018280546114b09061353e565b80156114fb5780601f106114d2576101008083540402835291602001916114fb565b820191905f5260205f20905b8154815290600101906020018083116114de57829003601f168201915b5050505050905090565b611517611510611b82565b8383611ef3565b5050565b611526848484610850565b61153a611531611b82565b8585858561205c565b50505050565b606061154b82611ac3565b505f60065f8481526020019081526020015f2080546115699061353e565b80601f01602080910402602001604051908101604052809291908181526020018280546115959061353e565b80156115e05780601f106115b7576101008083540402835291602001916115e0565b820191905f5260205f20905b8154815290600101906020018083116115c357829003601f168201915b505050505090505f6115f0612208565b90505f815103611604578192505050611646565b5f82511115611638578082604051602001611620929190613a73565b60405160208183030381529060405292505050611646565b6116418461221e565b925050505b919050565b5f60055f8473ffffffffffffffffffffffffffffffffffffffff1673ffffffffffffffffffffffffffffffffffffffff1681526020019081526020015f205f8373ffffffffffffffffffffffffffffffffffffffff1673ffffffffffffffffffffffffffffffffffffffff1681526020019081526020015f205f9054906101000a900460ff16905092915050565b60605f821180156116ec5750600b548211155b61172b576040517f08c379a0000000000000000000000000000000000000000000000000000000008152600401611722906139ed565b60405180910390fd5b600a5f8381526020019081526020015f20600701805480602002602001604051908101604052809291908181526020015f905b828210156119d7578382905f5260205f2090600502016040518060a00160405290815f82015481526020016001820180546117989061353e565b80601f01602080910402602001604051908101604052809291908181526020018280546117c49061353e565b801561180f5780601f106117e65761010080835404028352916020019161180f565b820191905f5260205f20905b8154815290600101906020018083116117f257829003601f168201915b505050505081526020016002820180546118289061353e565b80601f01602080910402602001604051908101604052809291908181526020018280546118549061353e565b801561189f5780601f106118765761010080835404028352916020019161189f565b820191905f5260205f20905b81548152906001019060200180831161188257829003601f168201915b505050505081526020016003820180546118b89061353e565b80601f01602080910402602001604051908101604052809291908181526020018280546118e49061353e565b801561192f5780601f106119065761010080835404028352916020019161192f565b820191905f5260205f20905b81548152906001019060200180831161191257829003601f168201915b505050505081526020016004820180546119489061353e565b80601f01602080910402602001604051908101604052809291908181526020018280546119749061353e565b80156119bf5780601f10611996576101008083540402835291602001916119bf565b820191905f5260205f20905b8154815290600101906020018083116119a257829003601f168201915b5050505050815250508152602001906001019061175e565b505050509050919050565b5f7f80ac58cd000000000000000000000000000000000000000000000000000000007bffffffffffffffffffffffffffffffffffffffffffffffffffffffff1916827bffffffffffffffffffffffffffffffffffffffffffffffffffffffff19161480611aac57507f5b5e139f000000000000000000000000000000000000000000000000000000007bffffffffffffffffffffffffffffffffffffffffffffffffffffffff1916827bffffffffffffffffffffffffffffffffffffffffffffffffffffffff1916145b80611abc5750611abb82612284565b5b9050919050565b5f80611ace836122ed565b90505f73ffffffffffffffffffffffffffffffffffffffff168173ffffffffffffffffffffffffffffffffffffffff1603611b4057826040517f7e273289000000000000000000000000000000000000000000000000000000008152600401611b379190612e3d565b60405180910390fd5b80915050919050565b5f60045f8381526020019081526020015f205f9054906101000a900473ffffffffffffffffffffffffffffffffffffffff169050919050565b5f33905090565b611b968383836001612326565b505050565b5f80611ba6846122ed565b90505f73ffffffffffffffffffffffffffffffffffffffff168373ffffffffffffffffffffffffffffffffffffffff1614611be757611be68184866124e5565b5b5f73ffffffffffffffffffffffffffffffffffffffff168173ffffffffffffffffffffffffffffffffffffffff1614611c7257611c265f855f80612326565b600160035f8373ffffffffffffffffffffffffffffffffffffffff1673ffffffffffffffffffffffffffffffffffffffff1681526020019081526020015f205f82825403925050819055505b5f73ffffffffffffffffffffffffffffffffffffffff168573ffffffffffffffffffffffffffffffffffffffff1614611cf157600160035f8773ffffffffffffffffffffffffffffffffffffffff1673ffffffffffffffffffffffffffffffffffffffff1681526020019081526020015f205f82825401925050819055505b8460025f8681526020019081526020015f205f6101000a81548173ffffffffffffffffffffffffffffffffffffffff021916908373ffffffffffffffffffffffffffffffffffffffff160217905550838573ffffffffffffffffffffffffffffffffffffffff168273ffffffffffffffffffffffffffffffffffffffff167fddf252ad1be2c89b69c2b068fc378daa952ba7f163c4a11628f55a4df523b3ef60405160405180910390a4809150509392505050565b5f73ffffffffffffffffffffffffffffffffffffffff168273ffffffffffffffffffffffffffffffffffffffff1603611e16575f6040517f64a0ae92000000000000000000000000000000000000000000000000000000008152600401611e0d9190612ae9565b60405180910390fd5b5f611e2283835f611b9b565b90505f73ffffffffffffffffffffffffffffffffffffffff168173ffffffffffffffffffffffffffffffffffffffff1614611e94575f6040517f73c6ac6e000000000000000000000000000000000000000000000000000000008152600401611e8b9190612ae9565b60405180910390fd5b505050565b8060065f8481526020019081526020015f209081611eb7919061389f565b507ff8e1a15aba9398e019f0b49df1a4fde98ee17ae345cb5f6b5e2c27f5033e8ce782604051611ee79190612e3d565b60405180910390a15050565b5f73ffffffffffffffffffffffffffffffffffffffff168273ffffffffffffffffffffffffffffffffffffffff1603611f6357816040517f5b08ba18000000000000000000000000000000000000000000000000000000008152600401611f5a9190612ae9565b60405180910390fd5b8060055f8573ffffffffffffffffffffffffffffffffffffffff1673ffffffffffffffffffffffffffffffffffffffff1681526020019081526020015f205f8473ffffffffffffffffffffffffffffffffffffffff1673ffffffffffffffffffffffffffffffffffffffff1681526020019081526020015f205f6101000a81548160ff0219169083151502179055508173ffffffffffffffffffffffffffffffffffffffff168373ffffffffffffffffffffffffffffffffffffffff167f17307eab39ab6107e8899845ad3d59bd9653f200f220920489ca2b5937696c318360405161204f9190612989565b60405180910390a3505050565b5f8373ffffffffffffffffffffffffffffffffffffffff163b1115612201578273ffffffffffffffffffffffffffffffffffffffff1663150b7a02868685856040518563ffffffff1660e01b81526004016120ba9493929190613ae8565b6020604051808303815f875af19250505080156120f557506040513d601f19601f820116820180604052508101906120f29190613b46565b60015b612176573d805f8114612123576040519150601f19603f3d011682016040523d82523d5f602084013e612128565b606091505b505f81510361216e57836040517f64a0ae920000000000000000000000000000000000000000000000000000000081526004016121659190612ae9565b60405180910390fd5b805160208201fd5b63150b7a0260e01b7bffffffffffffffffffffffffffffffffffffffffffffffffffffffff1916817bffffffffffffffffffffffffffffffffffffffffffffffffffffffff1916146121ff57836040517f64a0ae920000000000000000000000000000000000000000000000000000000081526004016121f69190612ae9565b60405180910390fd5b505b5050505050565b606060405180602001604052805f815250905090565b606061222982611ac3565b505f612233612208565b90505f8151116122515760405180602001604052805f81525061227c565b8061225b846125a8565b60405160200161226c929190613a73565b6040516020818303038152906040525b915050919050565b5f7f01ffc9a7000000000000000000000000000000000000000000000000000000007bffffffffffffffffffffffffffffffffffffffffffffffffffffffff1916827bffffffffffffffffffffffffffffffffffffffffffffffffffffffff1916149050919050565b5f60025f8381526020019081526020015f205f9054906101000a900473ffffffffffffffffffffffffffffffffffffffff169050919050565b808061235e57505f73ffffffffffffffffffffffffffffffffffffffff168273ffffffffffffffffffffffffffffffffffffffff1614155b15612490575f61236d84611ac3565b90505f73ffffffffffffffffffffffffffffffffffffffff168373ffffffffffffffffffffffffffffffffffffffff16141580156123d757508273ffffffffffffffffffffffffffffffffffffffff168173ffffffffffffffffffffffffffffffffffffffff1614155b80156123ea57506123e8818461164b565b155b1561242c57826040517fa9fbf51f0000000000000000000000000000000000000000000000000000000081526004016124239190612ae9565b60405180910390fd5b811561248e57838573ffffffffffffffffffffffffffffffffffffffff168273ffffffffffffffffffffffffffffffffffffffff167f8c5be1e5ebec7d5bd14f71427d1e84f3dd0314c0f7b2291e5b200ac8c7c3b92560405160405180910390a45b505b8360045f8581526020019081526020015f205f6101000a81548173ffffffffffffffffffffffffffffffffffffffff021916908373ffffffffffffffffffffffffffffffffffffffff16021790555050505050565b6124f0838383612672565b6125a3575f73ffffffffffffffffffffffffffffffffffffffff168373ffffffffffffffffffffffffffffffffffffffff160361256457806040517f7e27328900000000000000000000000000000000000000000000000000000000815260040161255b9190612e3d565b60405180910390fd5b81816040517f177e802f00000000000000000000000000000000000000000000000000000000815260040161259a929190613b71565b60405180910390fd5b505050565b60605f60016125b684612732565b0190505f8167ffffffffffffffff8111156125d4576125d3612b9d565b5b6040519080825280601f01601f1916602001820160405280156126065781602001600182028036833780820191505090505b5090505f82602083010190505b600115612667578080600190039150507f3031323334353637383961626364656600000000000000000000000000000000600a86061a8153600a858161265c5761265b613b98565b5b0494505f8503612613575b819350505050919050565b5f8073ffffffffffffffffffffffffffffffffffffffff168373ffffffffffffffffffffffffffffffffffffffff161415801561272957508273ffffffffffffffffffffffffffffffffffffffff168473ffffffffffffffffffffffffffffffffffffffff1614806126ea57506126e9848461164b565b5b8061272857508273ffffffffffffffffffffffffffffffffffffffff1661271083611b49565b73ffffffffffffffffffffffffffffffffffffffff16145b5b90509392505050565b5f805f90507a184f03e93ff9f4daa797ed6e38ed64bf6a1f010000000000000000831061278e577a184f03e93ff9f4daa797ed6e38ed64bf6a1f010000000000000000838161278457612783613b98565b5b0492506040810190505b6d04ee2d6d415b85acef810000000083106127cb576d04ee2d6d415b85acef810000000083816127c1576127c0613b98565b5b0492506020810190505b662386f26fc1000083106127fa57662386f26fc1000083816127f0576127ef613b98565b5b0492506010810190505b6305f5e1008310612823576305f5e100838161281957612818613b98565b5b0492506008810190505b612710831061284857612710838161283e5761283d613b98565b5b0492506004810190505b6064831061286b576064838161286157612860613b98565b5b0492506002810190505b600a831061287a576001810190505b80915050919050565b6040518061010001604052805f815260200160608152602001606081526020015f73ffffffffffffffffffffffffffffffffffffffff168152602001606081526020015f60ff16815260200160608152602001606081525090565b5f604051905090565b5f80fd5b5f80fd5b5f7fffffffff0000000000000000000000000000000000000000000000000000000082169050919050565b612923816128ef565b811461292d575f80fd5b50565b5f8135905061293e8161291a565b92915050565b5f60208284031215612959576129586128e7565b5b5f61296684828501612930565b91505092915050565b5f8115159050919050565b6129838161296f565b82525050565b5f60208201905061299c5f83018461297a565b92915050565b5f81519050919050565b5f82825260208201905092915050565b5f5b838110156129d95780820151818401526020810190506129be565b5f8484015250505050565b5f601f19601f8301169050919050565b5f6129fe826129a2565b612a0881856129ac565b9350612a188185602086016129bc565b612a21816129e4565b840191505092915050565b5f6020820190508181035f830152612a4481846129f4565b905092915050565b5f819050919050565b612a5e81612a4c565b8114612a68575f80fd5b50565b5f81359050612a7981612a55565b92915050565b5f60208284031215612a9457612a936128e7565b5b5f612aa184828501612a6b565b91505092915050565b5f73ffffffffffffffffffffffffffffffffffffffff82169050919050565b5f612ad382612aaa565b9050919050565b612ae381612ac9565b82525050565b5f602082019050612afc5f830184612ada565b92915050565b612b0b81612ac9565b8114612b15575f80fd5b50565b5f81359050612b2681612b02565b92915050565b5f8060408385031215612b4257612b416128e7565b5b5f612b4f85828601612b18565b9250506020612b6085828601612a6b565b9150509250929050565b5f60208284031215612b7f57612b7e6128e7565b5b5f612b8c84828501612b18565b91505092915050565b5f80fd5b5f80fd5b7f4e487b71000000000000000000000000000000000000000000000000000000005f52604160045260245ffd5b612bd3826129e4565b810181811067ffffffffffffffff82111715612bf257612bf1612b9d565b5b80604052505050565b5f612c046128de565b9050612c108282612bca565b919050565b5f67ffffffffffffffff821115612c2f57612c2e612b9d565b5b612c38826129e4565b9050602081019050919050565b828183375f83830152505050565b5f612c65612c6084612c15565b612bfb565b905082815260208101848484011115612c8157612c80612b99565b5b612c8c848285612c45565b509392505050565b5f82601f830112612ca857612ca7612b95565b5b8135612cb8848260208601612c53565b91505092915050565b5f60ff82169050919050565b612cd681612cc1565b8114612ce0575f80fd5b50565b5f81359050612cf181612ccd565b92915050565b5f805f805f60a08688031215612d1057612d0f6128e7565b5b5f86013567ffffffffffffffff811115612d2d57612d2c6128eb565b5b612d3988828901612c94565b955050602086013567ffffffffffffffff811115612d5a57612d596128eb565b5b612d6688828901612c94565b945050604086013567ffffffffffffffff811115612d8757612d866128eb565b5b612d9388828901612c94565b9350506060612da488828901612ce3565b925050608086013567ffffffffffffffff811115612dc557612dc46128eb565b5b612dd188828901612c94565b9150509295509295909350565b5f805f60608486031215612df557612df46128e7565b5b5f612e0286828701612b18565b9350506020612e1386828701612b18565b9250506040612e2486828701612a6b565b9150509250925092565b612e3781612a4c565b82525050565b5f602082019050612e505f830184612e2e565b92915050565b5f60208284031215612e6b57612e6a6128e7565b5b5f82013567ffffffffffffffff811115612e8857612e876128eb565b5b612e9484828501612c94565b91505092915050565b612ea681612a4c565b82525050565b5f82825260208201905092915050565b5f612ec6826129a2565b612ed08185612eac565b9350612ee08185602086016129bc565b612ee9816129e4565b840191505092915050565b612efd81612ac9565b82525050565b612f0c81612cc1565b82525050565b5f81519050919050565b5f82825260208201905092915050565b5f819050602082019050919050565b5f60a083015f830151612f505f860182612e9d565b5060208301518482036020860152612f688282612ebc565b91505060408301518482036040860152612f828282612ebc565b91505060608301518482036060860152612f9c8282612ebc565b91505060808301518482036080860152612fb68282612ebc565b9150508091505092915050565b5f612fce8383612f3b565b905092915050565b5f602082019050919050565b5f612fec82612f12565b612ff68185612f1c565b93508360208202850161300885612f2c565b805f5b8581101561304357848403895281516130248582612fc3565b945061302f83612fd6565b925060208a0199505060018101905061300b565b50829750879550505050505092915050565b5f61010083015f83015161306b5f860182612e9d565b50602083015184820360208601526130838282612ebc565b9150506040830151848203604086015261309d8282612ebc565b91505060608301516130b26060860182612ef4565b50608083015184820360808601526130ca8282612ebc565b91505060a08301516130df60a0860182612f03565b5060c083015184820360c08601526130f78282612ebc565b91505060e083015184820360e08601526131118282612fe2565b9150508091505092915050565b5f6020820190508181035f8301526131368184613055565b905092915050565b5f805f8060808587031215613156576131556128e7565b5b5f85013567ffffffffffffffff811115613173576131726128eb565b5b61317f87828801612c94565b945050602085013567ffffffffffffffff8111156131a05761319f6128eb565b5b6131ac87828801612c94565b935050604085013567ffffffffffffffff8111156131cd576131cc6128eb565b5b6131d987828801612c94565b925050606085013567ffffffffffffffff8111156131fa576131f96128eb565b5b61320687828801612c94565b91505092959194509250565b61321b81612cc1565b82525050565b5f60e0820190506132345f83018a612e2e565b818103602083015261324681896129f4565b9050818103604083015261325a81886129f4565b90506132696060830187612ada565b818103608083015261327b81866129f4565b905061328a60a0830185613212565b81810360c083015261329c81846129f4565b905098975050505050505050565b6132b38161296f565b81146132bd575f80fd5b50565b5f813590506132ce816132aa565b92915050565b5f80604083850312156132ea576132e96128e7565b5b5f6132f785828601612b18565b9250506020613308858286016132c0565b9150509250929050565b5f67ffffffffffffffff82111561332c5761332b612b9d565b5b613335826129e4565b9050602081019050919050565b5f61335461334f84613312565b612bfb565b9050828152602081018484840111156133705761336f612b99565b5b61337b848285612c45565b509392505050565b5f82601f83011261339757613396612b95565b5b81356133a7848260208601613342565b91505092915050565b5f805f80608085870312156133c8576133c76128e7565b5b5f6133d587828801612b18565b94505060206133e687828801612b18565b93505060406133f787828801612a6b565b925050606085013567ffffffffffffffff811115613418576134176128eb565b5b61342487828801613383565b91505092959194509250565b5f8060408385031215613446576134456128e7565b5b5f61345385828601612b18565b925050602061346485828601612b18565b9150509250929050565b5f82825260208201905092915050565b5f61348882612f12565b613492818561346e565b9350836020820285016134a485612f2c565b805f5b858110156134df57848403895281516134c08582612fc3565b94506134cb83612fd6565b925060208a019950506001810190506134a7565b50829750879550505050505092915050565b5f6020820190508181035f830152613509818461347e565b905092915050565b7f4e487b71000000000000000000000000000000000000000000000000000000005f52602260045260245ffd5b5f600282049050600182168061355557607f821691505b60208210810361356857613567613511565b5b50919050565b7f50617469656e7420616c726561647920726567697374657265640000000000005f82015250565b5f6135a2601a836129ac565b91506135ad8261356e565b602082019050919050565b5f6020820190508181035f8301526135cf81613596565b9050919050565b5f81905092915050565b5f6135ea826129a2565b6135f481856135d6565b93506136048185602086016129bc565b80840191505092915050565b5f61361b82846135e0565b915081905092915050565b7f557365726e616d6520616c72656164792074616b656e000000000000000000005f82015250565b5f61365a6016836129ac565b915061366582613626565b602082019050919050565b5f6020820190508181035f8301526136878161364e565b9050919050565b7f4e487b71000000000000000000000000000000000000000000000000000000005f52601160045260245ffd5b5f6136c582612a4c565b91507fffffffffffffffffffffffffffffffffffffffffffffffffffffffffffffffff82036136f7576136f661368e565b5b600182019050919050565b5f819050815f5260205f209050919050565b5f6020601f8301049050919050565b5f82821b905092915050565b5f6008830261375e7fffffffffffffffffffffffffffffffffffffffffffffffffffffffffffffffff82613723565b6137688683613723565b95508019841693508086168417925050509392505050565b5f819050919050565b5f6137a361379e61379984612a4c565b613780565b612a4c565b9050919050565b5f819050919050565b6137bc83613789565b6137d06137c8826137aa565b84845461372f565b825550505050565b5f90565b6137e46137d8565b6137ef8184846137b3565b505050565b5b81811015613812576138075f826137dc565b6001810190506137f5565b5050565b601f8211156138575761382881613702565b61383184613714565b81016020851015613840578190505b61385461384c85613714565b8301826137f4565b50505b505050565b5f82821c905092915050565b5f6138775f198460080261385c565b1980831691505092915050565b5f61388f8383613868565b9150826002028217905092915050565b6138a8826129a2565b67ffffffffffffffff8111156138c1576138c0612b9d565b5b6138cb825461353e565b6138d6828285613816565b5f60209050601f831160018114613907575f84156138f5578287015190505b6138ff8582613884565b865550613966565b601f19841661391586613702565b5f5b8281101561393c57848901518255600182019150602085019450602081019050613917565b868310156139595784890151613955601f891682613868565b8355505b6001600288020188555050505b505050505050565b5f6060820190506139815f830186612ada565b61398e6020830185612e2e565b61399b6040830184612ada565b949350505050565b7f496e76616c69642070617469656e7420494400000000000000000000000000005f82015250565b5f6139d76012836129ac565b91506139e2826139a3565b602082019050919050565b5f6020820190508181035f830152613a04816139cb565b9050919050565b7f50617469656e74206e6f742072656769737465726564000000000000000000005f82015250565b5f613a3f6016836129ac565b9150613a4a82613a0b565b602082019050919050565b5f6020820190508181035f830152613a6c81613a33565b9050919050565b5f613a7e82856135e0565b9150613a8a82846135e0565b91508190509392505050565b5f81519050919050565b5f82825260208201905092915050565b5f613aba82613a96565b613ac48185613aa0565b9350613ad48185602086016129bc565b613add816129e4565b840191505092915050565b5f608082019050613afb5f830187612ada565b613b086020830186612ada565b613b156040830185612e2e565b8181036060830152613b278184613ab0565b905095945050505050565b5f81519050613b408161291a565b92915050565b5f60208284031215613b5b57613b5a6128e7565b5b5f613b6884828501613b32565b91505092915050565b5f604082019050613b845f830185612ada565b613b916020830184612e2e565b9392505050565b7f4e487b71000000000000000000000000000000000000000000000000000000005f52601260045260245ffdfea26469706673582212202305a2a51fc90229d224b56afe0d7fe877abd8d188d064e4d3a5a176c707f01d64736f6c63430008140033",
  "immutableReferences": {},
  "source": "// SPDX-License-Identifier: MIT\r\npragma solidity ^0.8.19;\r\n\r\nimport \"@openzeppelin/contracts/token/ERC721/extensions/ERC721URIStorage.sol\";\r\n\r\ncontract Patient is ERC721URIStorage {\r\n    uint256 private _nextTokenId;\r\n\r\n    mapping(address => uint256) public walletToPatientId;\r\n    mapping(string => uint256) public usernameToPatientId; // Username -> ID mapping\r\n\r\n    function userExists(address walletAddress) public view returns (bool) {\r\n        return walletToPatientId[walletAddress] != 0;\r\n    }\r\n\r\n    struct MedicalRecord {\r\n        uint256 tokenId; // NFT ID\r\n        string ipfsHash;\r\n        string fileName;\r\n        string recordDate;\r\n        string hospital;\r\n    }\r\n\r\n    struct PatientDetails {\r\n        uint256 patientId;\r\n        string username;\r\n        string name;\r\n        address walletAddress;\r\n        string email;\r\n        uint8 age;\r\n        string bloodGroup;\r\n        MedicalRecord[] medicalRecords;\r\n    }\r\n\r\n    mapping(uint256 => PatientDetails) public patients;\r\n    uint256 private patientIdCounter;\r\n\r\n    constructor() ERC721(\"MediSecure Record\", \"MEDREC\") {}\r\n\r\n    function registerPatient(\r\n        string memory _username,\r\n        string memory _name,\r\n        string memory _email,\r\n        uint8 _age,\r\n        string memory _bloodGroup\r\n    ) public {\r\n        require(\r\n            walletToPatientId[msg.sender] == 0,\r\n            \"Patient already registered\"\r\n        );\r\n        require(usernameToPatientId[_username] == 0, \"Username already taken\");\r\n\r\n        patientIdCounter++;\r\n        walletToPatientId[msg.sender] = patientIdCounter;\r\n        usernameToPatientId[_username] = patientIdCounter;\r\n\r\n        PatientDetails storage newPatient = patients[patientIdCounter];\r\n        newPatient.patientId = patientIdCounter;\r\n        newPatient.username = _username;\r\n        newPatient.name = _name;\r\n        newPatient.walletAddress = msg.sender;\r\n        newPatient.email = _email;\r\n        newPatient.age = _age;\r\n        newPatient.bloodGroup = _bloodGroup;\r\n    }\r\n\r\n    function addMedicalRecord(\r\n        string memory _ipfsHash,\r\n        string memory _fileName,\r\n        string memory _recordDate,\r\n        string memory _hospital\r\n    ) public {\r\n        uint256 patientId = walletToPatientId[msg.sender];\r\n        require(patientId != 0, \"Patient not registered\");\r\n\r\n        // Mint NFT\r\n        uint256 tokenId = _nextTokenId++;\r\n        _mint(msg.sender, tokenId);\r\n        _setTokenURI(tokenId, _ipfsHash);\r\n\r\n        patients[patientId].medicalRecords.push(\r\n            MedicalRecord({\r\n                tokenId: tokenId,\r\n                ipfsHash: _ipfsHash,\r\n                fileName: _fileName,\r\n                recordDate: _recordDate,\r\n                hospital: _hospital\r\n            })\r\n        );\r\n    }\r\n\r\n    function getPatientDetails(\r\n        uint256 _patientId\r\n    ) public view returns (PatientDetails memory) {\r\n        require(\r\n            _patientId > 0 && _patientId <= patientIdCounter,\r\n            \"Invalid patient ID\"\r\n        );\r\n        return patients[_patientId];\r\n    }\r\n\r\n    // Helper to get ID from username (useful for frontend)\r\n    function getPatientIdByUsername(\r\n        string memory _username\r\n    ) public view returns (uint256) {\r\n        return usernameToPatientId[_username];\r\n    }\r\n\r\n    function getMedicalRecords(\r\n        uint256 _patientId\r\n    ) public view returns (MedicalRecord[] memory) {\r\n        require(\r\n            _patientId > 0 && _patientId <= patientIdCounter,\r\n            \"Invalid patient ID\"\r\n        );\r\n        return patients[_patientId].medicalRecords;\r\n    }\r\n}\r\n",
  "sourcePath": "J:\\Users\\ayush\\Desktop\\code\\team-rocket-medi-secure\\contracts\\contracts\\Patient.sol",
  "compiler": {
    "name": "solc",
    "version": "0.8.20+commit.a1b79de6.Emscripten.clang"
  },
  "schemaVersion": "3.4.16",
  "updatedAt": "2026-01-17T15:32:57.153Z",
  "networkType": "ethereum",
  "devdoc": {
    "errors": {
      "ERC721IncorrectOwner(address,uint256,address)": [
        {
          "details": "Indicates an error related to the ownership over a particular token. Used in transfers.",
          "params": {
            "owner": "Address of the current owner of a token.",
            "sender": "Address whose tokens are being transferred.",
            "tokenId": "Identifier number of a token."
          }
        }
      ],
      "ERC721InsufficientApproval(address,uint256)": [
        {
          "details": "Indicates a failure with the `operator`s approval. Used in transfers.",
          "params": {
            "operator": "Address that may be allowed to operate on tokens without being their owner.",
            "tokenId": "Identifier number of a token."
          }
        }
      ],
      "ERC721InvalidApprover(address)": [
        {
          "details": "Indicates a failure with the `approver` of a token to be approved. Used in approvals.",
          "params": {
            "approver": "Address initiating an approval operation."
          }
        }
      ],
      "ERC721InvalidOperator(address)": [
        {
          "details": "Indicates a failure with the `operator` to be approved. Used in approvals.",
          "params": {
            "operator": "Address that may be allowed to operate on tokens without being their owner."
          }
        }
      ],
      "ERC721InvalidOwner(address)": [
        {
          "details": "Indicates that an address can't be an owner. For example, `address(0)` is a forbidden owner in ERC-20. Used in balance queries.",
          "params": {
            "owner": "Address of the current owner of a token."
          }
        }
      ],
      "ERC721InvalidReceiver(address)": [
        {
          "details": "Indicates a failure with the token `receiver`. Used in transfers.",
          "params": {
            "receiver": "Address to which tokens are being transferred."
          }
        }
      ],
      "ERC721InvalidSender(address)": [
        {
          "details": "Indicates a failure with the token `sender`. Used in transfers.",
          "params": {
            "sender": "Address whose tokens are being transferred."
          }
        }
      ],
      "ERC721NonexistentToken(uint256)": [
        {
          "details": "Indicates a `tokenId` whose `owner` is the zero address.",
          "params": {
            "tokenId": "Identifier number of a token."
          }
        }
      ]
    },
    "events": {
      "Approval(address,address,uint256)": {
        "details": "Emitted when `owner` enables `approved` to manage the `tokenId` token."
      },
      "ApprovalForAll(address,address,bool)": {
        "details": "Emitted when `owner` enables or disables (`approved`) `operator` to manage all of its assets."
      },
      "BatchMetadataUpdate(uint256,uint256)": {
        "details": "This event emits when the metadata of a range of tokens is changed. So that the third-party platforms such as NFT market could timely update the images and related attributes of the NFTs."
      },
      "MetadataUpdate(uint256)": {
        "details": "This event emits when the metadata of a token is changed. So that the third-party platforms such as NFT market could timely update the images and related attributes of the NFT."
      },
      "Transfer(address,address,uint256)": {
        "details": "Emitted when `tokenId` token is transferred from `from` to `to`."
      }
    },
    "kind": "dev",
    "methods": {
      "approve(address,uint256)": {
        "details": "Gives permission to `to` to transfer `tokenId` token to another account. The approval is cleared when the token is transferred. Only a single account can be approved at a time, so approving the zero address clears previous approvals. Requirements: - The caller must own the token or be an approved operator. - `tokenId` must exist. Emits an {Approval} event."
      },
      "balanceOf(address)": {
        "details": "Returns the number of tokens in ``owner``'s account."
      },
      "getApproved(uint256)": {
        "details": "Returns the account approved for `tokenId` token. Requirements: - `tokenId` must exist."
      },
      "isApprovedForAll(address,address)": {
        "details": "Returns if the `operator` is allowed to manage all of the assets of `owner`. See {setApprovalForAll}"
      },
      "name()": {
        "details": "Returns the token collection name."
      },
      "ownerOf(uint256)": {
        "details": "Returns the owner of the `tokenId` token. Requirements: - `tokenId` must exist."
      },
      "safeTransferFrom(address,address,uint256)": {
        "details": "Safely transfers `tokenId` token from `from` to `to`, checking first that contract recipients are aware of the ERC-721 protocol to prevent tokens from being forever locked. Requirements: - `from` cannot be the zero address. - `to` cannot be the zero address. - `tokenId` token must exist and be owned by `from`. - If the caller is not `from`, it must have been allowed to move this token by either {approve} or   {setApprovalForAll}. - If `to` refers to a smart contract, it must implement {IERC721Receiver-onERC721Received}, which is called upon   a safe transfer. Emits a {Transfer} event."
      },
      "safeTransferFrom(address,address,uint256,bytes)": {
        "details": "Safely transfers `tokenId` token from `from` to `to`. Requirements: - `from` cannot be the zero address. - `to` cannot be the zero address. - `tokenId` token must exist and be owned by `from`. - If the caller is not `from`, it must be approved to move this token by either {approve} or {setApprovalForAll}. - If `to` refers to a smart contract, it must implement {IERC721Receiver-onERC721Received}, which is called upon   a safe transfer. Emits a {Transfer} event."
      },
      "setApprovalForAll(address,bool)": {
        "details": "Approve or remove `operator` as an operator for the caller. Operators can call {transferFrom} or {safeTransferFrom} for any token owned by the caller. Requirements: - The `operator` cannot be the address zero. Emits an {ApprovalForAll} event."
      },
      "supportsInterface(bytes4)": {
        "details": "Returns true if this contract implements the interface defined by `interfaceId`. See the corresponding https://eips.ethereum.org/EIPS/eip-165#how-interfaces-are-identified[ERC section] to learn more about how these ids are created. This function call must use less than 30 000 gas."
      },
      "symbol()": {
        "details": "Returns the token collection symbol."
      },
      "tokenURI(uint256)": {
        "details": "Returns the Uniform Resource Identifier (URI) for `tokenId` token."
      },
      "transferFrom(address,address,uint256)": {
        "details": "Transfers `tokenId` token from `from` to `to`. WARNING: Note that the caller is responsible to confirm that the recipient is capable of receiving ERC-721 or else they may be permanently lost. Usage of {safeTransferFrom} prevents loss, though the caller must understand this adds an external call which potentially creates a reentrancy vulnerability. Requirements: - `from` cannot be the zero address. - `to` cannot be the zero address. - `tokenId` token must be owned by `from`. - If the caller is not `from`, it must be approved to move this token by either {approve} or {setApprovalForAll}. Emits a {Transfer} event."
      }
    },
    "version": 1
  },
  "userdoc": {
    "kind": "user",
    "methods": {},
    "version": 1
  },
  "timeoutBlocks": 0,
  "autoGas": true,
  "gasMultiplier": 1.25
}