{
  "contractName": "PatientUpgradeable",
  "abi": [
    {
      "inputs": [
        {
          "internalType": "address",
          "name": "_forwarder",
          "type": "address"
        }
      ],
      "stateMutability": "nonpayable",
      "type": "constructor"
    },
    {
      "inputs": [
        {
          "internalType": "address",
          "name": "target",
          "type": "address"
        }
      ],
      "name": "AddressEmptyCode",
      "type": "error"
    },
    {
      "inputs": [
        {
          "internalType": "address",
          "name": "implementation",
          "type": "address"
        }
      ],
      "name": "ERC1967InvalidImplementation",
      "type": "error"
    },
    {
      "inputs": [],
      "name": "ERC1967NonPayable",
      "type": "error"
    },
    {
      "inputs": [],
      "name": "EnforcedPause",
      "type": "error"
    },
    {
      "inputs": [],
      "name": "ExpectedPause",
      "type": "error"
    },
    {
      "inputs": [],
      "name": "FailedInnerCall",
      "type": "error"
    },
    {
      "inputs": [],
      "name": "InvalidInitialization",
      "type": "error"
    },
    {
      "inputs": [],
      "name": "NotInitializing",
      "type": "error"
    },
    {
      "inputs": [],
      "name": "UUPSUnauthorizedCallContext",
      "type": "error"
    },
    {
      "inputs": [
        {
          "internalType": "bytes32",
          "name": "slot",
          "type": "bytes32"
        }
      ],
      "name": "UUPSUnsupportedProxiableUUID",
      "type": "error"
    },
    {
      "anonymous": false,
      "inputs": [
        {
          "indexed": false,
          "internalType": "uint64",
          "name": "version",
          "type": "uint64"
        }
      ],
      "name": "Initialized",
      "type": "event"
    },
    {
      "anonymous": false,
      "inputs": [
        {
          "indexed": true,
          "internalType": "uint256",
          "name": "patientId",
          "type": "uint256"
        },
        {
          "indexed": true,
          "internalType": "address",
          "name": "wallet",
          "type": "address"
        },
        {
          "indexed": false,
          "internalType": "string",
          "name": "name",
          "type": "string"
        }
      ],
      "name": "PatientRegistered",
      "type": "event"
    },
    {
      "anonymous": false,
      "inputs": [
        {
          "indexed": false,
          "internalType": "address",
          "name": "account",
          "type": "address"
        }
      ],
      "name": "Paused",
      "type": "event"
    },
    {
      "anonymous": false,
      "inputs": [
        {
          "indexed": true,
          "internalType": "uint256",
          "name": "patientId",
          "type": "uint256"
        },
        {
          "indexed": true,
          "internalType": "uint256",
          "name": "tokenId",
          "type": "uint256"
        },
        {
          "indexed": false,
          "internalType": "string",
          "name": "ipfsHash",
          "type": "string"
        }
      ],
      "name": "RecordAdded",
      "type": "event"
    },
    {
      "anonymous": false,
      "inputs": [
        {
          "indexed": false,
          "internalType": "address",
          "name": "account",
          "type": "address"
        }
      ],
      "name": "Unpaused",
      "type": "event"
    },
    {
      "anonymous": false,
      "inputs": [
        {
          "indexed": true,
          "internalType": "address",
          "name": "implementation",
          "type": "address"
        }
      ],
      "name": "Upgraded",
      "type": "event"
    },
    {
      "inputs": [],
      "name": "UPGRADE_INTERFACE_VERSION",
      "outputs": [
        {
          "internalType": "string",
          "name": "",
          "type": "string"
        }
      ],
      "stateMutability": "view",
      "type": "function"
    },
    {
      "inputs": [],
      "name": "accessControl",
      "outputs": [
        {
          "internalType": "contract MediSecureAccessControl",
          "name": "",
          "type": "address"
        }
      ],
      "stateMutability": "view",
      "type": "function"
    },
    {
      "inputs": [
        {
          "internalType": "bytes32",
          "name": "role",
          "type": "bytes32"
        },
        {
          "internalType": "address",
          "name": "account",
          "type": "address"
        }
      ],
      "name": "hasRole",
      "outputs": [
        {
          "internalType": "bool",
          "name": "",
          "type": "bool"
        }
      ],
      "stateMutability": "view",
      "type": "function"
    },
    {
      "inputs": [
        {
          "internalType": "enum Roles",
          "name": "role",
          "type": "uint8"
        },
        {
          "internalType": "address",
          "name": "account",
          "type": "address"
        }
      ],
      "name": "hasRole",
      "outputs": [
        {
          "internalType": "bool",
          "name": "",
          "type": "bool"
        }
      ],
      "stateMutability": "view",
      "type": "function"
    },
    {
      "inputs": [
        {
          "internalType": "address",
          "name": "account",
          "type": "address"
        }
      ],
      "name": "isAdmin",
      "outputs": [
        {
          "internalType": "bool",
          "name": "",
          "type": "bool"
        }
      ],
      "stateMutability": "view",
      "type": "function"
    },
    {
      "inputs": [
        {
          "internalType": "address",
          "name": "forwarder",
          "type": "address"
        }
      ],
      "name": "isTrustedForwarder",
      "outputs": [
        {
          "internalType": "bool",
          "name": "",
          "type": "bool"
        }
      ],
      "stateMutability": "view",
      "type": "function"
    },
    {
      "inputs": [
        {
          "internalType": "uint256",
          "name": "",
          "type": "uint256"
        },
        {
          "internalType": "uint256",
          "name": "",
          "type": "uint256"
        }
      ],
      "name": "patientRecords",
      "outputs": [
        {
          "internalType": "string",
          "name": "",
          "type": "string"
        }
      ],
      "stateMutability": "view",
      "type": "function"
    },
    {
      "inputs": [
        {
          "internalType": "uint256",
          "name": "",
          "type": "uint256"
        }
      ],
      "name": "patients",
      "outputs": [
        {
          "internalType": "string",
          "name": "username",
          "type": "string"
        },
        {
          "internalType": "string",
          "name": "name",
          "type": "string"
        },
        {
          "internalType": "string",
          "name": "email",
          "type": "string"
        },
        {
          "internalType": "uint8",
          "name": "age",
          "type": "uint8"
        },
        {
          "internalType": "string",
          "name": "bloodGroup",
          "type": "string"
        }
      ],
      "stateMutability": "view",
      "type": "function"
    },
    {
      "inputs": [],
      "name": "paused",
      "outputs": [
        {
          "internalType": "bool",
          "name": "",
          "type": "bool"
        }
      ],
      "stateMutability": "view",
      "type": "function"
    },
    {
      "inputs": [],
      "name": "proxiableUUID",
      "outputs": [
        {
          "internalType": "bytes32",
          "name": "",
          "type": "bytes32"
        }
      ],
      "stateMutability": "view",
      "type": "function"
    },
    {
      "inputs": [],
      "name": "trustedForwarder",
      "outputs": [
        {
          "internalType": "address",
          "name": "",
          "type": "address"
        }
      ],
      "stateMutability": "view",
      "type": "function"
    },
    {
      "inputs": [
        {
          "internalType": "address",
          "name": "newImplementation",
          "type": "address"
        },
        {
          "internalType": "bytes",
          "name": "data",
          "type": "bytes"
        }
      ],
      "name": "upgradeToAndCall",
      "outputs": [],
      "stateMutability": "payable",
      "type": "function"
    },
    {
      "inputs": [
        {
          "internalType": "string",
          "name": "",
          "type": "string"
        }
      ],
      "name": "usernameToPatientId",
      "outputs": [
        {
          "internalType": "uint256",
          "name": "",
          "type": "uint256"
        }
      ],
      "stateMutability": "view",
      "type": "function"
    },
    {
      "inputs": [
        {
          "internalType": "address",
          "name": "",
          "type": "address"
        }
      ],
      "name": "walletToPatientId",
      "outputs": [
        {
          "internalType": "uint256",
          "name": "",
          "type": "uint256"
        }
      ],
      "stateMutability": "view",
      "type": "function"
    },
    {
      "inputs": [
        {
          "internalType": "address",
          "name": "_accessControl",
          "type": "address"
        }
      ],
      "name": "initialize",
      "outputs": [],
      "stateMutability": "nonpayable",
      "type": "function"
    },
    {
      "inputs": [
        {
          "internalType": "string",
          "name": "_username",
          "type": "string"
        },
        {
          "internalType": "string",
          "name": "_name",
          "type": "string"
        },
        {
          "internalType": "string",
          "name": "_email",
          "type": "string"
        },
        {
          "internalType": "uint8",
          "name": "_age",
          "type": "uint8"
        },
        {
          "internalType": "string",
          "name": "_bloodGroup",
          "type": "string"
        }
      ],
      "name": "registerPatient",
      "outputs": [],
      "stateMutability": "nonpayable",
      "type": "function"
    },
    {
      "inputs": [
        {
          "internalType": "string",
          "name": "_ipfsHash",
          "type": "string"
        }
      ],
      "name": "addMedicalRecord",
      "outputs": [],
      "stateMutability": "nonpayable",
      "type": "function"
    },
    {
      "inputs": [
        {
          "internalType": "address",
          "name": "account",
          "type": "address"
        }
      ],
      "name": "isRegistered",
      "outputs": [
        {
          "internalType": "bool",
          "name": "",
          "type": "bool"
        }
      ],
      "stateMutability": "view",
      "type": "function"
    },
    {
      "inputs": [
        {
          "internalType": "address",
          "name": "account",
          "type": "address"
        }
      ],
      "name": "userExists",
      "outputs": [
        {
          "internalType": "bool",
          "name": "",
          "type": "bool"
        }
      ],
      "stateMutability": "view",
      "type": "function"
    }
  ],
  "bytecode": "0x60c060405230608052348015610013575f80fd5b506040516119e13803806119e183398101604081905261003291610043565b6001600160a01b031660a052610070565b5f60208284031215610053575f80fd5b81516001600160a01b0381168114610069575f80fd5b9392505050565b60805160a0516119346100ad5f395f8181610266015281816102da015261105501525f8181610d3101528181610d5a0152610f6901526119345ff3fe608060405260043610610110575f3560e01c80635c975abb1161009d5780639e97b8f6116100625780639e97b8f614610384578063ad3cb1cc146103a3578063c3c5a547146103d3578063c4d66de814610409578063e671926a14610428575f80fd5b80635c975abb146102965780637da0a877146102cc5780638590ed19146102fe57806391d148541461033557806393119a8314610354575f80fd5b806324d7806c116100e357806324d7806c146101d85780634035ae09146101f75780634f1ef2861461022357806352d1902d14610236578063572b6c051461024a575f80fd5b80630e666e491461011457806313007d55146101485780631ff3bd8b1461017e57806323ecb0581461019f575b5f80fd5b34801561011f575f80fd5b5061013361012e36600461131e565b610447565b60405190151581526020015b60405180910390f35b348015610153575f80fd5b505f54610166906001600160a01b031681565b6040516001600160a01b03909116815260200161013f565b348015610189575f80fd5b5061019d6101983660046113dc565b610468565b005b3480156101aa575f80fd5b506101ca6101b936600461131e565b60346020525f908152604090205481565b60405190815260200161013f565b3480156101e3575f80fd5b506101336101f236600461131e565b61066d565b348015610202575f80fd5b5061021661021136600461149b565b6106de565b60405161013f9190611508565b61019d61023136600461151a565b61078f565b348015610241575f80fd5b506101ca6107ae565b348015610255575f80fd5b5061013361026436600461131e565b7f00000000000000000000000000000000000000000000000000000000000000006001600160a01b0390811691161490565b3480156102a1575f80fd5b507fcd5ed15c6e187e77e9aee88184c21f4f2182ab5827cb3b7e07fbedcd63f033005460ff16610133565b3480156102d7575f80fd5b507f0000000000000000000000000000000000000000000000000000000000000000610166565b348015610309575f80fd5b506101ca610318366004611578565b805160208183018101805160358252928201919093012091525481565b348015610340575f80fd5b5061013361034f3660046115b2565b6107c9565b34801561035f575f80fd5b5061037361036e3660046115dc565b610844565b60405161013f9594939291906115f3565b34801561038f575f80fd5b5061013361039e366004611654565b610a92565b3480156103ae575f80fd5b50610216604051806040016040528060058152602001640352e302e360dc1b81525081565b3480156103de575f80fd5b506101336103ed36600461131e565b6001600160a01b03165f90815260346020526040902054151590565b348015610414575f80fd5b5061019d61042336600461131e565b610ac4565b348015610433575f80fd5b5061019d610442366004611578565b610be2565b6001600160a01b0381165f9081526034602052604081205415155b92915050565b610470610cd3565b60345f61047b610d18565b6001600160a01b0316815260208101919091526040015f2054156104db5760405162461bcd60e51b8152602060048201526012602482015271105b1c9958591e481c9959da5cdd195c995960721b60448201526064015b60405180910390fd5b6035856040516104eb9190611681565b9081526020016040518091039020545f146105395760405162461bcd60e51b815260206004820152600e60248201526d2ab9b2b93730b6b2903a30b5b2b760911b60448201526064016104d2565b60338054905f610548836116b0565b90915550506033548060345f61055c610d18565b6001600160a01b03166001600160a01b031681526020019081526020015f2081905550806035876040516105909190611681565b9081526040805160209281900383019020929092555f8381526036909152206105b98782611745565b505f8181526036602052604090206001016105d48682611745565b505f8181526036602052604090206002016105ef8582611745565b505f81815260366020526040902060038101805460ff191660ff861617905560040161061b8382611745565b50610624610d18565b6001600160a01b0316817fe960aa893775ad9187a8fc84e3a4750f46f677c7e4f410b0d77faad8759666038760405161065d9190611508565b60405180910390a3505050505050565b5f8054604051634f4bdc7b60e11b81526001600160a01b0390911690639e97b8f69061069f9084908690600401611801565b602060405180830381865afa1580156106ba573d5f803e3d5ffd5b505050506040513d601f19601f820116820180604052508101906104629190611839565b6037602052815f5260405f2081815481106106f7575f80fd5b905f5260205f20015f91509150508054610710906116c8565b80601f016020809104026020016040519081016040528092919081815260200182805461073c906116c8565b80156107875780601f1061075e57610100808354040283529160200191610787565b820191905f5260205f20905b81548152906001019060200180831161076a57829003601f168201915b505050505081565b610797610d26565b6107a082610dca565b6107aa8282610e9d565b5050565b5f6107b7610f5e565b505f805160206118df83398151915290565b5f8054604051632474521560e21b8152600481018590526001600160a01b038481166024830152909116906391d14854906044015b602060405180830381865afa158015610819573d5f803e3d5ffd5b505050506040513d601f19601f8201168201806040525081019061083d9190611839565b9392505050565b60366020525f908152604090208054819061085e906116c8565b80601f016020809104026020016040519081016040528092919081815260200182805461088a906116c8565b80156108d55780601f106108ac576101008083540402835291602001916108d5565b820191905f5260205f20905b8154815290600101906020018083116108b857829003601f168201915b5050505050908060010180546108ea906116c8565b80601f0160208091040260200160405190810160405280929190818152602001828054610916906116c8565b80156109615780601f1061093857610100808354040283529160200191610961565b820191905f5260205f20905b81548152906001019060200180831161094457829003601f168201915b505050505090806002018054610976906116c8565b80601f01602080910402602001604051908101604052809291908181526020018280546109a2906116c8565b80156109ed5780601f106109c4576101008083540402835291602001916109ed565b820191905f5260205f20905b8154815290600101906020018083116109d057829003601f168201915b5050506003840154600485018054949560ff909216949193509150610a11906116c8565b80601f0160208091040260200160405190810160405280929190818152602001828054610a3d906116c8565b8015610a885780601f10610a5f57610100808354040283529160200191610a88565b820191905f5260205f20905b815481529060010190602001808311610a6b57829003601f168201915b5050505050905085565b5f8054604051634f4bdc7b60e11b81526001600160a01b0390911690639e97b8f6906107fe9086908690600401611801565b7ff0c57e16840df040f15088dc2f81fe391c3923bec73e23a9662efc9c229c6a008054600160401b810460ff16159067ffffffffffffffff165f81158015610b095750825b90505f8267ffffffffffffffff166001148015610b255750303b155b905081158015610b33575080155b15610b515760405163f92ee8a960e01b815260040160405180910390fd5b845467ffffffffffffffff191660011785558315610b7b57845460ff60401b1916600160401b1785555b610b83610fa7565b610b8c86610fb7565b610b9461103e565b8315610bda57845460ff60401b19168555604051600181527fc7f505b2f371ae2175ee4913f4499e1f2633a7b5936321eed1cdaeb6115181d29060200160405180910390a15b505050505050565b610bea610cd3565b5f60345f610bf6610d18565b6001600160a01b03166001600160a01b031681526020019081526020015f20549050805f03610c585760405162461bcd60e51b815260206004820152600e60248201526d139bdd081c9959da5cdd195c995960921b60448201526064016104d2565b60328054905f610c67836116b0565b90915550505f81815260376020908152604082208054600181018255908352912001610c938382611745565b50603254817f5fea036c56a9fe203110015d4d45fde7ec91f39e84507f4ffd536c61ed0b27ea84604051610cc79190611508565b60405180910390a35050565b7fcd5ed15c6e187e77e9aee88184c21f4f2182ab5827cb3b7e07fbedcd63f033005460ff1615610d165760405163d93c066560e01b815260040160405180910390fd5b565b5f610d21611046565b905090565b306001600160a01b037f0000000000000000000000000000000000000000000000000000000000000000161480610dac57507f00000000000000000000000000000000000000000000000000000000000000006001600160a01b0316610da05f805160206118df833981519152546001600160a01b031690565b6001600160a01b031614155b15610d165760405163703e46dd60e11b815260040160405180910390fd5b5f546001600160a01b0316639e97b8f66007610de4610d18565b6040518363ffffffff1660e01b8152600401610e01929190611801565b602060405180830381865afa158015610e1c573d5f803e3d5ffd5b505050506040513d601f19601f82011682018060405250810190610e409190611839565b610e9a5760405162461bcd60e51b815260206004820152602560248201527f416363657373436f6e74726f6c3a20726573747269637465642d746f2d7570676044820152643930b232b960d91b60648201526084016104d2565b50565b816001600160a01b03166352d1902d6040518163ffffffff1660e01b8152600401602060405180830381865afa925050508015610ef7575060408051601f3d908101601f19168201909252610ef491810190611858565b60015b610f1f57604051634c9c8ce360e01b81526001600160a01b03831660048201526024016104d2565b5f805160206118df8339815191528114610f4f57604051632a87526960e21b8152600481018290526024016104d2565b610f5983836110b9565b505050565b306001600160a01b037f00000000000000000000000000000000000000000000000000000000000000001614610d165760405163703e46dd60e11b815260040160405180910390fd5b610faf61110e565b610d16611157565b610fbf61110e565b610fc761103e565b6001600160a01b03811661101d5760405162461bcd60e51b815260206004820152601e60248201527f496e76616c69642061636365737320636f6e74726f6c2061646472657373000060448201526064016104d2565b5f80546001600160a01b0319166001600160a01b0392909216919091179055565b610d1661110e565b5f366014336001600160a01b037f0000000000000000000000000000000000000000000000000000000000000000161480156110825750808210155b156110b1575f36611093838561186f565b61109e928290611882565b6110a7916118a9565b60601c9250505090565b339250505090565b6110c28261118a565b6040516001600160a01b038316907fbc7cd75a20ee27fd9adebab32041f755214dbc6bffa90cc0225b39da2e5c2d3b905f90a280511561110657610f5982826111ed565b6107aa61125f565b7ff0c57e16840df040f15088dc2f81fe391c3923bec73e23a9662efc9c229c6a0054600160401b900460ff16610d1657604051631afcd79f60e31b815260040160405180910390fd5b61115f61110e565b7fcd5ed15c6e187e77e9aee88184c21f4f2182ab5827cb3b7e07fbedcd63f03300805460ff19169055565b806001600160a01b03163b5f036111bf57604051634c9c8ce360e01b81526001600160a01b03821660048201526024016104d2565b5f805160206118df83398151915280546001600160a01b0319166001600160a01b0392909216919091179055565b60605f80846001600160a01b0316846040516112099190611681565b5f60405180830381855af49150503d805f8114611241576040519150601f19603f3d011682016040523d82523d5f602084013e611246565b606091505b509150915061125685838361127e565b95945050505050565b3415610d165760405163b398979f60e01b815260040160405180910390fd5b6060826112935761128e826112da565b61083d565b81511580156112aa57506001600160a01b0384163b155b156112d357604051639996b31560e01b81526001600160a01b03851660048201526024016104d2565b5092915050565b8051156112ea5780518082602001fd5b604051630a12f52160e11b815260040160405180910390fd5b80356001600160a01b0381168114611319575f80fd5b919050565b5f6020828403121561132e575f80fd5b61083d82611303565b634e487b7160e01b5f52604160045260245ffd5b5f67ffffffffffffffff8084111561136557611365611337565b604051601f8501601f19908116603f0116810190828211818310171561138d5761138d611337565b816040528093508581528686860111156113a5575f80fd5b858560208301375f602087830101525050509392505050565b5f82601f8301126113cd575f80fd5b61083d8383356020850161134b565b5f805f805f60a086880312156113f0575f80fd5b853567ffffffffffffffff80821115611407575f80fd5b61141389838a016113be565b96506020880135915080821115611428575f80fd5b61143489838a016113be565b95506040880135915080821115611449575f80fd5b61145589838a016113be565b94506060880135915060ff8216821461146c575f80fd5b90925060808701359080821115611481575f80fd5b5061148e888289016113be565b9150509295509295909350565b5f80604083850312156114ac575f80fd5b50508035926020909101359150565b5f5b838110156114d55781810151838201526020016114bd565b50505f910152565b5f81518084526114f48160208601602086016114bb565b601f01601f19169290920160200192915050565b602081525f61083d60208301846114dd565b5f806040838503121561152b575f80fd5b61153483611303565b9150602083013567ffffffffffffffff81111561154f575f80fd5b8301601f8101851361155f575f80fd5b61156e8582356020840161134b565b9150509250929050565b5f60208284031215611588575f80fd5b813567ffffffffffffffff81111561159e575f80fd5b6115aa848285016113be565b949350505050565b5f80604083850312156115c3575f80fd5b823591506115d360208401611303565b90509250929050565b5f602082840312156115ec575f80fd5b5035919050565b60a081525f61160560a08301886114dd565b828103602084015261161781886114dd565b9050828103604084015261162b81876114dd565b905060ff85166060840152828103608084015261164881856114dd565b98975050505050505050565b5f8060408385031215611665575f80fd5b823560098110611673575f80fd5b91506115d360208401611303565b5f82516116928184602087016114bb565b9190910192915050565b634e487b7160e01b5f52601160045260245ffd5b5f600182016116c1576116c161169c565b5060010190565b600181811c908216806116dc57607f821691505b6020821081036116fa57634e487b7160e01b5f52602260045260245ffd5b50919050565b601f821115610f59575f81815260208120601f850160051c810160208610156117265750805b601f850160051c820191505b81811015610bda57828155600101611732565b815167ffffffffffffffff81111561175f5761175f611337565b6117738161176d84546116c8565b84611700565b602080601f8311600181146117a6575f841561178f5750858301515b5f19600386901b1c1916600185901b178555610bda565b5f85815260208120601f198616915b828110156117d4578886015182559484019460019091019084016117b5565b50858210156117f157878501515f19600388901b60f8161c191681555b5050505050600190811b01905550565b604081016009841061182157634e487b7160e01b5f52602160045260245ffd5b9281526001600160a01b039190911660209091015290565b5f60208284031215611849575f80fd5b8151801515811461083d575f80fd5b5f60208284031215611868575f80fd5b5051919050565b818103818111156104625761046261169c565b5f8085851115611890575f80fd5b8386111561189c575f80fd5b5050820193919092039150565b6bffffffffffffffffffffffff1981358181169160148510156118d65780818660140360031b1b83161692505b50509291505056fe360894a13ba1a3210667c828492db98dca3e2076cc3735a920a3ca505d382bbca264697066735822122051f22f750b0429934c68b579b8f44777092e70cc525dbf66c7aa9d94231912b164736f6c63430008140033",
  "immutableReferences": {
    "585": [
      {
        "length": 32,
        "start": 614
      },
      {
        "length": 32,
        "start": 730
      },
      {
        "length": 32,
        "start": 4181
      }
    ],
    "992": [
      {
        "length": 32,
        "start": 3377
      },
      {
        "length": 32,
        "start": 3418
      },
      {
        "length": 32,
        "start": 3945
      }
    ]
  },
  "source": "// SPDX-License-Identifier: MIT\r\npragma solidity ^0.8.20;\r\n\r\nimport \"@openzeppelin/contracts-upgradeable/proxy/utils/Initializable.sol\";\r\nimport \"@openzeppelin/contracts-upgradeable/proxy/utils/UUPSUpgradeable.sol\";\r\nimport \"@openzeppelin/contracts-upgradeable/utils/PausableUpgradeable.sol\";\r\nimport \"@openzeppelin/contracts-upgradeable/utils/ContextUpgradeable.sol\";\r\nimport \"@openzeppelin/contracts-upgradeable/metatx/ERC2771ContextUpgradeable.sol\";\r\nimport \"./common/MediSecureAuthUpgradeable.sol\";\r\nimport {Roles} from \"./MediSecureAccessControl.sol\";\r\n\r\ncontract PatientUpgradeable is Initializable, UUPSUpgradeable, PausableUpgradeable, MediSecureAuthUpgradeable, ERC2771ContextUpgradeable {\r\n    \r\n    /// @custom:oz-upgrades-unsafe-allow constructor\r\n    constructor(address _forwarder) ERC2771ContextUpgradeable(_forwarder) {\r\n        // _disableInitializers();\r\n    }\r\n\r\n    function _msgSender() internal view override(ContextUpgradeable, ERC2771ContextUpgradeable) returns (address) {\r\n        return ERC2771ContextUpgradeable._msgSender();\r\n    }\r\n\r\n    function _msgData() internal view override(ContextUpgradeable, ERC2771ContextUpgradeable) returns (bytes calldata) {\r\n        return ERC2771ContextUpgradeable._msgData();\r\n    }\r\n\r\n    function _contextSuffixLength() internal view override(ContextUpgradeable, ERC2771ContextUpgradeable) returns (uint256) {\r\n        return ERC2771ContextUpgradeable._contextSuffixLength();\r\n    }\r\n\r\n    uint256 private _nextTokenId;\r\n    uint256 private patientIdCounter;\r\n    \r\n    mapping(address => uint256) public walletToPatientId;\r\n    mapping(string => uint256) public usernameToPatientId;\r\n    \r\n    struct PatientDetails {\r\n        string username;\r\n        string name;\r\n        string email;\r\n        uint8 age;\r\n        string bloodGroup;\r\n    }\r\n    \r\n    mapping(uint256 => PatientDetails) public patients;\r\n    mapping(uint256 => string[]) public patientRecords;\r\n    \r\n    event PatientRegistered(uint256 indexed patientId, address indexed wallet, string name);\r\n    event RecordAdded(uint256 indexed patientId, uint256 indexed tokenId, string ipfsHash);\r\n\r\n    function initialize(address _accessControl) public initializer {\r\n        __Pausable_init();\r\n        __MediSecureAuth_init(_accessControl);\r\n        __UUPSUpgradeable_init();\r\n    }\r\n\r\n    function _authorizeUpgrade(address newImplementation) internal override onlyUpgrader() {}\r\n\r\n    function registerPatient(\r\n        string memory _username,\r\n        string memory _name,\r\n        string memory _email,\r\n        uint8 _age,\r\n        string memory _bloodGroup\r\n    ) public whenNotPaused {\r\n        require(walletToPatientId[_msgSender()] == 0, \"Already registered\");\r\n        require(usernameToPatientId[_username] == 0, \"Username taken\");\r\n\r\n        patientIdCounter++;\r\n        uint256 patientId = patientIdCounter;\r\n        \r\n        walletToPatientId[_msgSender()] = patientId;\r\n        usernameToPatientId[_username] = patientId;\r\n        \r\n        patients[patientId].username = _username;\r\n        patients[patientId].name = _name;\r\n        patients[patientId].email = _email;\r\n        patients[patientId].age = _age;\r\n        patients[patientId].bloodGroup = _bloodGroup;\r\n        \r\n        emit PatientRegistered(patientId, _msgSender(), _name);\r\n    }\r\n\r\n    function addMedicalRecord(string memory _ipfsHash) public whenNotPaused {\r\n        uint256 patientId = walletToPatientId[_msgSender()];\r\n        require(patientId != 0, \"Not registered\");\r\n        \r\n        _nextTokenId++;\r\n        patientRecords[patientId].push(_ipfsHash);\r\n        \r\n        emit RecordAdded(patientId, _nextTokenId, _ipfsHash);\r\n    }\r\n\r\n    function isRegistered(address account) public view returns (bool) {\r\n        return walletToPatientId[account] != 0;\r\n    }\r\n\r\n    function userExists(address account) public view returns (bool) {\r\n        return isRegistered(account);\r\n    }\r\n\r\n    uint256[50] private __gap;\r\n}",
  "sourcePath": "C:\\Users\\night\\Downloads\\team-rocket-medi-secure\\team-rocket-medi-secure\\contracts\\contracts\\PatientUpgradeable.sol",
  "compiler": {
    "name": "solc",
    "version": "0.8.20+commit.a1b79de6.Emscripten.clang"
  },
  "schemaVersion": "3.4.16",
  "updatedAt": "2026-04-24T10:38:31.152Z",
  "devdoc": {
    "errors": {
      "AddressEmptyCode(address)": [
        {
          "details": "There's no code at `target` (it is not a contract)."
        }
      ],
      "ERC1967InvalidImplementation(address)": [
        {
          "details": "The `implementation` of the proxy is invalid."
        }
      ],
      "ERC1967NonPayable()": [
        {
          "details": "An upgrade function sees `msg.value > 0` that may be lost."
        }
      ],
      "EnforcedPause()": [
        {
          "details": "The operation failed because the contract is paused."
        }
      ],
      "ExpectedPause()": [
        {
          "details": "The operation failed because the contract is not paused."
        }
      ],
      "FailedInnerCall()": [
        {
          "details": "A call to an address target failed. The target may have reverted."
        }
      ],
      "InvalidInitialization()": [
        {
          "details": "The contract is already initialized."
        }
      ],
      "NotInitializing()": [
        {
          "details": "The contract is not initializing."
        }
      ],
      "UUPSUnauthorizedCallContext()": [
        {
          "details": "The call is from an unauthorized context."
        }
      ],
      "UUPSUnsupportedProxiableUUID(bytes32)": [
        {
          "details": "The storage `slot` is unsupported as a UUID."
        }
      ]
    },
    "events": {
      "Initialized(uint64)": {
        "details": "Triggered when the contract has been initialized or reinitialized."
      },
      "Paused(address)": {
        "details": "Emitted when the pause is triggered by `account`."
      },
      "Unpaused(address)": {
        "details": "Emitted when the pause is lifted by `account`."
      },
      "Upgraded(address)": {
        "details": "Emitted when the implementation is upgraded."
      }
    },
    "kind": "dev",
    "methods": {
      "constructor": {
        "custom:oz-upgrades-unsafe-allow": "constructor"
      },
      "isTrustedForwarder(address)": {
        "details": "Indicates whether any particular address is the trusted forwarder."
      },
      "paused()": {
        "details": "Returns true if the contract is paused, and false otherwise."
      },
      "proxiableUUID()": {
        "details": "Implementation of the ERC1822 {proxiableUUID} function. This returns the storage slot used by the implementation. It is used to validate the implementation's compatibility when performing an upgrade. IMPORTANT: A proxy pointing at a proxiable contract should not be considered proxiable itself, because this risks bricking a proxy that upgrades to it, by delegating to itself until out of gas. Thus it is critical that this function revert if invoked through a proxy. This is guaranteed by the `notDelegated` modifier."
      },
      "trustedForwarder()": {
        "details": "Returns the address of the trusted forwarder."
      },
      "upgradeToAndCall(address,bytes)": {
        "custom:oz-upgrades-unsafe-allow-reachable": "delegatecall",
        "details": "Upgrade the implementation of the proxy to `newImplementation`, and subsequently execute the function call encoded in `data`. Calls {_authorizeUpgrade}. Emits an {Upgraded} event."
      }
    },
    "version": 1
  },
  "userdoc": {
    "kind": "user",
    "methods": {},
    "version": 1
  }
}