{
  "contractName": "RBACDoctor",
  "abi": [
    {
      "inputs": [
        {
          "internalType": "address",
          "name": "_accessControl",
          "type": "address"
        },
        {
          "internalType": "address",
          "name": "_forwarder",
          "type": "address"
        }
      ],
      "stateMutability": "nonpayable",
      "type": "constructor"
    },
    {
      "anonymous": false,
      "inputs": [
        {
          "indexed": true,
          "internalType": "address",
          "name": "patient",
          "type": "address"
        },
        {
          "indexed": true,
          "internalType": "address",
          "name": "doctor",
          "type": "address"
        },
        {
          "indexed": false,
          "internalType": "string",
          "name": "ipfsHash",
          "type": "string"
        },
        {
          "indexed": false,
          "internalType": "uint256",
          "name": "grantTime",
          "type": "uint256"
        },
        {
          "indexed": false,
          "internalType": "uint256",
          "name": "duration",
          "type": "uint256"
        }
      ],
      "name": "AccessGranted",
      "type": "event"
    },
    {
      "anonymous": false,
      "inputs": [
        {
          "indexed": true,
          "internalType": "address",
          "name": "patient",
          "type": "address"
        },
        {
          "indexed": true,
          "internalType": "address",
          "name": "doctor",
          "type": "address"
        },
        {
          "indexed": false,
          "internalType": "string",
          "name": "ipfsHash",
          "type": "string"
        },
        {
          "indexed": false,
          "internalType": "string",
          "name": "fileName",
          "type": "string"
        },
        {
          "indexed": false,
          "internalType": "uint256",
          "name": "duration",
          "type": "uint256"
        },
        {
          "indexed": false,
          "internalType": "string",
          "name": "reason",
          "type": "string"
        }
      ],
      "name": "AccessRequested",
      "type": "event"
    },
    {
      "anonymous": false,
      "inputs": [
        {
          "indexed": true,
          "internalType": "address",
          "name": "patient",
          "type": "address"
        },
        {
          "indexed": true,
          "internalType": "address",
          "name": "doctor",
          "type": "address"
        },
        {
          "indexed": false,
          "internalType": "string",
          "name": "ipfsHash",
          "type": "string"
        },
        {
          "indexed": false,
          "internalType": "uint256",
          "name": "revokeTime",
          "type": "uint256"
        }
      ],
      "name": "AccessRevoked",
      "type": "event"
    },
    {
      "anonymous": false,
      "inputs": [
        {
          "indexed": true,
          "internalType": "address",
          "name": "doctor",
          "type": "address"
        },
        {
          "indexed": true,
          "internalType": "address",
          "name": "patient",
          "type": "address"
        },
        {
          "indexed": false,
          "internalType": "string",
          "name": "ipfsHash",
          "type": "string"
        },
        {
          "indexed": false,
          "internalType": "string",
          "name": "reason",
          "type": "string"
        },
        {
          "indexed": false,
          "internalType": "uint256",
          "name": "timestamp",
          "type": "uint256"
        }
      ],
      "name": "EmergencyAccessGranted",
      "type": "event"
    },
    {
      "anonymous": false,
      "inputs": [
        {
          "indexed": true,
          "internalType": "address",
          "name": "patient",
          "type": "address"
        },
        {
          "indexed": true,
          "internalType": "address",
          "name": "resolver",
          "type": "address"
        },
        {
          "indexed": false,
          "internalType": "string",
          "name": "ipfsHash",
          "type": "string"
        },
        {
          "indexed": false,
          "internalType": "uint256",
          "name": "timestamp",
          "type": "uint256"
        }
      ],
      "name": "EmergencyResolved",
      "type": "event"
    },
    {
      "anonymous": false,
      "inputs": [
        {
          "indexed": true,
          "internalType": "uint256",
          "name": "doctorId",
          "type": "uint256"
        },
        {
          "indexed": true,
          "internalType": "uint256",
          "name": "patientId",
          "type": "uint256"
        },
        {
          "indexed": true,
          "internalType": "address",
          "name": "doctor",
          "type": "address"
        }
      ],
      "name": "PatientAdded",
      "type": "event"
    },
    {
      "inputs": [],
      "name": "accessControl",
      "outputs": [
        {
          "internalType": "contract MediSecureAccessControl",
          "name": "",
          "type": "address"
        }
      ],
      "stateMutability": "view",
      "type": "function",
      "constant": true
    },
    {
      "inputs": [
        {
          "internalType": "uint256",
          "name": "",
          "type": "uint256"
        },
        {
          "internalType": "uint256",
          "name": "",
          "type": "uint256"
        }
      ],
      "name": "doctorAccessList",
      "outputs": [
        {
          "internalType": "address",
          "name": "patient",
          "type": "address"
        },
        {
          "internalType": "string",
          "name": "ipfsHash",
          "type": "string"
        },
        {
          "internalType": "string",
          "name": "fileName",
          "type": "string"
        },
        {
          "internalType": "bool",
          "name": "hasAccess",
          "type": "bool"
        },
        {
          "internalType": "uint256",
          "name": "grantTime",
          "type": "uint256"
        },
        {
          "internalType": "uint256",
          "name": "duration",
          "type": "uint256"
        },
        {
          "internalType": "string",
          "name": "reason",
          "type": "string"
        },
        {
          "internalType": "bool",
          "name": "isEmergency",
          "type": "bool"
        },
        {
          "internalType": "bool",
          "name": "isResolved",
          "type": "bool"
        }
      ],
      "stateMutability": "view",
      "type": "function",
      "constant": true
    },
    {
      "inputs": [
        {
          "internalType": "uint256",
          "name": "",
          "type": "uint256"
        }
      ],
      "name": "doctors",
      "outputs": [
        {
          "internalType": "uint256",
          "name": "doctorId",
          "type": "uint256"
        },
        {
          "internalType": "string",
          "name": "name",
          "type": "string"
        },
        {
          "internalType": "string",
          "name": "specialization",
          "type": "string"
        },
        {
          "internalType": "string",
          "name": "email",
          "type": "string"
        }
      ],
      "stateMutability": "view",
      "type": "function",
      "constant": true
    },
    {
      "inputs": [
        {
          "internalType": "bytes32",
          "name": "role",
          "type": "bytes32"
        },
        {
          "internalType": "address",
          "name": "account",
          "type": "address"
        }
      ],
      "name": "hasRole",
      "outputs": [
        {
          "internalType": "bool",
          "name": "",
          "type": "bool"
        }
      ],
      "stateMutability": "view",
      "type": "function",
      "constant": true
    },
    {
      "inputs": [
        {
          "internalType": "enum Roles",
          "name": "role",
          "type": "uint8"
        },
        {
          "internalType": "address",
          "name": "account",
          "type": "address"
        }
      ],
      "name": "hasRole",
      "outputs": [
        {
          "internalType": "bool",
          "name": "",
          "type": "bool"
        }
      ],
      "stateMutability": "view",
      "type": "function",
      "constant": true
    },
    {
      "inputs": [
        {
          "internalType": "address",
          "name": "account",
          "type": "address"
        }
      ],
      "name": "isAdmin",
      "outputs": [
        {
          "internalType": "bool",
          "name": "",
          "type": "bool"
        }
      ],
      "stateMutability": "view",
      "type": "function",
      "constant": true
    },
    {
      "inputs": [
        {
          "internalType": "address",
          "name": "forwarder",
          "type": "address"
        }
      ],
      "name": "isTrustedForwarder",
      "outputs": [
        {
          "internalType": "bool",
          "name": "",
          "type": "bool"
        }
      ],
      "stateMutability": "view",
      "type": "function",
      "constant": true
    },
    {
      "inputs": [],
      "name": "trustedForwarder",
      "outputs": [
        {
          "internalType": "address",
          "name": "",
          "type": "address"
        }
      ],
      "stateMutability": "view",
      "type": "function",
      "constant": true
    },
    {
      "inputs": [
        {
          "internalType": "address",
          "name": "",
          "type": "address"
        }
      ],
      "name": "walletToDoctorId",
      "outputs": [
        {
          "internalType": "uint256",
          "name": "",
          "type": "uint256"
        }
      ],
      "stateMutability": "view",
      "type": "function",
      "constant": true
    },
    {
      "inputs": [
        {
          "internalType": "string",
          "name": "_name",
          "type": "string"
        },
        {
          "internalType": "string",
          "name": "_specialization",
          "type": "string"
        },
        {
          "internalType": "string",
          "name": "_hospital",
          "type": "string"
        }
      ],
      "name": "registerDoctor",
      "outputs": [],
      "stateMutability": "nonpayable",
      "type": "function"
    },
    {
      "inputs": [
        {
          "internalType": "uint256",
          "name": "_patientId",
          "type": "uint256"
        }
      ],
      "name": "addPatient",
      "outputs": [],
      "stateMutability": "nonpayable",
      "type": "function"
    },
    {
      "inputs": [],
      "name": "getDoctorPatients",
      "outputs": [
        {
          "internalType": "uint256[]",
          "name": "",
          "type": "uint256[]"
        }
      ],
      "stateMutability": "view",
      "type": "function",
      "constant": true
    },
    {
      "inputs": [
        {
          "internalType": "address",
          "name": "_patient",
          "type": "address"
        },
        {
          "internalType": "string",
          "name": "_ipfsHash",
          "type": "string"
        }
      ],
      "name": "hasAccessToDocument",
      "outputs": [
        {
          "internalType": "bool",
          "name": "",
          "type": "bool"
        }
      ],
      "stateMutability": "view",
      "type": "function",
      "constant": true
    },
    {
      "inputs": [
        {
          "internalType": "address",
          "name": "_patient",
          "type": "address"
        },
        {
          "internalType": "string",
          "name": "_ipfsHash",
          "type": "string"
        },
        {
          "internalType": "string",
          "name": "_fileName",
          "type": "string"
        },
        {
          "internalType": "uint256",
          "name": "_duration",
          "type": "uint256"
        },
        {
          "internalType": "string",
          "name": "_reason",
          "type": "string"
        }
      ],
      "name": "requestAccess",
      "outputs": [],
      "stateMutability": "nonpayable",
      "type": "function"
    },
    {
      "inputs": [
        {
          "internalType": "address",
          "name": "_doctor",
          "type": "address"
        },
        {
          "internalType": "string",
          "name": "_ipfsHash",
          "type": "string"
        },
        {
          "internalType": "uint256",
          "name": "_duration",
          "type": "uint256"
        }
      ],
      "name": "grantAccess",
      "outputs": [],
      "stateMutability": "nonpayable",
      "type": "function"
    },
    {
      "inputs": [
        {
          "internalType": "address",
          "name": "walletAddress",
          "type": "address"
        }
      ],
      "name": "doctorExists",
      "outputs": [
        {
          "internalType": "bool",
          "name": "",
          "type": "bool"
        }
      ],
      "stateMutability": "view",
      "type": "function",
      "constant": true
    },
    {
      "inputs": [],
      "name": "getAllDoctors",
      "outputs": [
        {
          "components": [
            {
              "internalType": "uint256",
              "name": "doctorId",
              "type": "uint256"
            },
            {
              "internalType": "string",
              "name": "name",
              "type": "string"
            },
            {
              "internalType": "string",
              "name": "specialization",
              "type": "string"
            },
            {
              "internalType": "string",
              "name": "email",
              "type": "string"
            },
            {
              "internalType": "uint256[]",
              "name": "patientIds",
              "type": "uint256[]"
            }
          ],
          "internalType": "struct RBACDoctor.DoctorDetails[]",
          "name": "",
          "type": "tuple[]"
        }
      ],
      "stateMutability": "view",
      "type": "function",
      "constant": true
    },
    {
      "inputs": [
        {
          "internalType": "address",
          "name": "_patient",
          "type": "address"
        },
        {
          "internalType": "string",
          "name": "_ipfsHash",
          "type": "string"
        },
        {
          "internalType": "string",
          "name": "_reason",
          "type": "string"
        }
      ],
      "name": "declareEmergency",
      "outputs": [],
      "stateMutability": "nonpayable",
      "type": "function"
    },
    {
      "inputs": [
        {
          "internalType": "uint256",
          "name": "_doctorId",
          "type": "uint256"
        },
        {
          "internalType": "uint256",
          "name": "_accessIndex",
          "type": "uint256"
        }
      ],
      "name": "resolveEmergency",
      "outputs": [],
      "stateMutability": "nonpayable",
      "type": "function"
    }
  ],
  "bytecode": "0x60a060405234801562000010575f80fd5b50604051620029123803806200291283398101604081905262000033916200008e565b6001600160a01b038082166080528290829082161562000068575f80546001600160a01b0319166001600160a01b0384161790555b50505050620000c4565b80516001600160a01b038116811462000089575f80fd5b919050565b5f8060408385031215620000a0575f80fd5b620000ab8362000072565b9150620000bb6020840162000072565b90509250929050565b608051612827620000eb5f395f81816102350152818161028a0152611d9e01526128275ff3fe608060405234801561000f575f80fd5b506004361061011c575f3560e01c8063572b6c05116100a957806391d148541161006e57806391d14854146102d657806398cf72b3146102e95780639e97b8f614610316578063f0d9509014610329578063f6827cd11461033e575f80fd5b8063572b6c05146102255780636efb1b84146102655780637da0a877146102885780637f93a961146102ae5780638b145ec8146102c1575f80fd5b806329fe0bda116100ef57806329fe0bda1461019a5780632ad230a9146101ad57806333948de2146101d7578063506e08d2146101ff57806350c7a91214610212575f80fd5b806302b66aaf1461012057806313007d5514610135578063215dfdea1461016457806324d7806c14610177575b5f80fd5b61013361012e366004611ec3565b610351565b005b5f54610147906001600160a01b031681565b6040516001600160a01b0390911681526020015b60405180910390f35b610133610172366004611f5f565b610583565b61018a610185366004611fce565b610979565b604051901515815260200161015b565b6101336101a8366004611fe7565b6109f0565b61018a6101bb366004611fce565b6001600160a01b03165f90815260016020526040902054151590565b6101ea6101e5366004611fe7565b610c03565b60405161015b99989796959493929190612054565b61013361020d3660046120d3565b610e12565b6101336102203660046120ea565b610fd1565b61018a610233366004611fce565b7f00000000000000000000000000000000000000000000000000000000000000006001600160a01b0390811691161490565b6102786102733660046120d3565b61112e565b60405161015b9493929190612134565b7f0000000000000000000000000000000000000000000000000000000000000000610147565b6101336102bc36600461217d565b6112e8565b6102c961151f565b60405161015b9190612209565b61018a6102e436600461221b565b6115cd565b6103086102f7366004611fce565b60016020525f908152604090205481565b60405190815260200161015b565b61018a610324366004612245565b611648565b61033161167a565b60405161015b9190612272565b61018a61034c366004612337565b611975565b61035c610185611d98565b8061036f575061036f6001610324611d98565b6103b15760405162461bcd60e51b815260206004820152600e60248201526d139bdd08185d5d1a1bdc9a5e995960921b60448201526064015b60405180910390fd5b5f60015f6103bd611d98565b6001600160a01b03166001600160a01b031681526020019081526020015f20549050805f036103fe5760405162461bcd60e51b81526004016103a890612382565b5f8181526003602090815260408083208151610120810183526001600160a01b038b811682528185018b81529382018a9052606082018690526080820186905260a0820189905260c0820188905260e08201869052610100820186905282546001808201855593875294909520815160089095020180546001600160a01b0319169490951693909317845590519192919082019061049c9082612437565b50604082015160028201906104b19082612437565b50606082015160038201805460ff19169115159190911790556080820151600482015560a0820151600582015560c082015160068201906104f29082612437565b5060e082015160079190910180546101009384015161ffff1990911692151561ff0019169290921791151590920217905561052b611d98565b6001600160a01b0316866001600160a01b03167fc4de088654327f2907ad8f0c288704b90c01af218c310b25c1682df9b7c8c7cd8787878760405161057394939291906124f3565b60405180910390a3505050505050565b5f546001906001600160a01b0316639e97b8f68261059f611d98565b6040518363ffffffff1660e01b81526004016105bc929190612531565b602060405180830381865afa1580156105d7573d5f803e3d5ffd5b505050506040513d601f19601f820116820180604052508101906105fb9190612569565b6106515760405162461bcd60e51b815260206004820152602160248201527f416363657373436f6e74726f6c3a20726573747269637465642d746f2d726f6c6044820152606560f81b60648201526084016103a8565b5f8054906101000a90046001600160a01b03166001600160a01b0316635c975abb6040518163ffffffff1660e01b8152600401602060405180830381865afa15801561069f573d5f803e3d5ffd5b505050506040513d601f19601f820116820180604052508101906106c39190612569565b156107105760405162461bcd60e51b815260206004820152601b60248201527f4d6564695365637572652050726f746f636f6c3a20706175736564000000000060448201526064016103a8565b5f60015f61071c611d98565b6001600160a01b03166001600160a01b031681526020019081526020015f20549050805f0361075d5760405162461bcd60e51b81526004016103a890612382565b600a8351116107a15760405162461bcd60e51b815260206004820152601060248201526f1499585cdbdb881d1bdbc81cda1bdc9d60821b60448201526064016103a8565b60035f8281526020019081526020015f20604051806101200160405280876001600160a01b031681526020018681526020016040518060400160405280601081526020016f454d455247454e43595f41434345535360801b8152508152602001600115158152602001428152602001611c208152602001856040516020016108299190612588565b60408051808303601f19018152918152908252600160208084018290525f939092018390528454808201865594835291819020835160089095020180546001600160a01b0319166001600160a01b03909516949094178455820151919291908201906108959082612437565b50604082015160028201906108aa9082612437565b50606082015160038201805460ff19169115159190911790556080820151600482015560a0820151600582015560c082015160068201906108eb9082612437565b5060e082015160079190910180546101009384015161ffff1990911692151561ff001916929092179115159092021790556001600160a01b03851661092e611d98565b6001600160a01b03167fc18b0a731326cfd073d9219b559d4a74aaed4d08716d26c4ace853127d096edb86864260405161096a939291906125ba565b60405180910390a35050505050565b5f8054604051634f4bdc7b60e11b81526001600160a01b0390911690639e97b8f6906109ab9084908690600401612531565b602060405180830381865afa1580156109c6573d5f803e3d5ffd5b505050506040513d601f19601f820116820180604052508101906109ea9190612569565b92915050565b5f80546001600160a01b031690639e97b8f690610a0b611d98565b6040518363ffffffff1660e01b8152600401610a28929190612531565b602060405180830381865afa158015610a43573d5f803e3d5ffd5b505050506040513d601f19601f82011682018060405250810190610a679190612569565b610abe5760405162461bcd60e51b815260206004820152602260248201527f416363657373436f6e74726f6c3a20726573747269637465642d746f2d61646d60448201526134b760f11b60648201526084016103a8565b5f828152600360205260409020548110610b115760405162461bcd60e51b8152602060048201526014602482015273092dcecc2d8d2c840c2c6c6cae6e640d2dcc8caf60631b60448201526064016103a8565b5f828152600360205260408120805483908110610b3057610b306125ef565b5f9182526020909120600890910201600781015490915060ff16610b965760405162461bcd60e51b815260206004820152601760248201527f4e6f7420616e20656d657267656e63792061636365737300000000000000000060448201526064016103a8565b60078101805461ff001916610100179055610baf611d98565b81546040516001600160a01b0392831692909116907fbe73bae5f08d7fe7ebd150bf32bcb303131391314609cc522ae754b46286ecc090610bf69060018601904290612603565b60405180910390a3505050565b6003602052815f5260405f208181548110610c1c575f80fd5b5f918252602090912060089091020180546001820180546001600160a01b039092169450919250610c4c906123b1565b80601f0160208091040260200160405190810160405280929190818152602001828054610c78906123b1565b8015610cc35780601f10610c9a57610100808354040283529160200191610cc3565b820191905f5260205f20905b815481529060010190602001808311610ca657829003601f168201915b505050505090806002018054610cd8906123b1565b80601f0160208091040260200160405190810160405280929190818152602001828054610d04906123b1565b8015610d4f5780601f10610d2657610100808354040283529160200191610d4f565b820191905f5260205f20905b815481529060010190602001808311610d3257829003601f168201915b505050600384015460048501546005860154600687018054969760ff9094169692955090935090610d7f906123b1565b80601f0160208091040260200160405190810160405280929190818152602001828054610dab906123b1565b8015610df65780601f10610dcd57610100808354040283529160200191610df6565b820191905f5260205f20905b815481529060010190602001808311610dd957829003601f168201915b5050506007909301549192505060ff8082169161010090041689565b610e1d610185611d98565b80610e305750610e306001610324611d98565b610e6d5760405162461bcd60e51b815260206004820152600e60248201526d139bdd08185d5d1a1bdc9a5e995960921b60448201526064016103a8565b5f60015f610e79611d98565b6001600160a01b03166001600160a01b031681526020019081526020015f20549050805f03610eba5760405162461bcd60e51b81526004016103a890612382565b5f805b5f83815260026020526040902060040154811015610f23575f838152600260205260409020600401805485919083908110610efa57610efa6125ef565b905f5260205f20015403610f115760019150610f23565b80610f1b816126a6565b915050610ebd565b508015610f6a5760405162461bcd60e51b815260206004820152601560248201527414185d1a595b9d08185b1c9958591e481859191959605a1b60448201526064016103a8565b5f82815260026020908152604082206004018054600181018255908352912001839055610f95611d98565b6001600160a01b031683837f62e4da5e5c3a89b6dca6a385b8712c06f51bf0855ae5b6abd14937474a4ce01e60405160405180910390a4505050565b60015f610fdc611d98565b6001600160a01b0316815260208101919091526040015f2054156110425760405162461bcd60e51b815260206004820152601960248201527f446f63746f7220616c726561647920726567697374657265640000000000000060448201526064016103a8565b5f546001600160a01b0316635d5664e1600161105c611d98565b6040518363ffffffff1660e01b8152600401611079929190612531565b5f604051808303815f87803b158015611090575f80fd5b505af11580156110a2573d5f803e3d5ffd5b505060048054925090505f6110b6836126a6565b919050555060045460015f6110c9611d98565b6001600160a01b0316815260208082019290925260409081015f908120939093556004548084526002909252909120908155600181016111098582612437565b50600281016111188482612437565b50600381016111278382612437565b5050505050565b60026020525f90815260409020805460018201805491929161114f906123b1565b80601f016020809104026020016040519081016040528092919081815260200182805461117b906123b1565b80156111c65780601f1061119d576101008083540402835291602001916111c6565b820191905f5260205f20905b8154815290600101906020018083116111a957829003601f168201915b5050505050908060020180546111db906123b1565b80601f0160208091040260200160405190810160405280929190818152602001828054611207906123b1565b80156112525780601f1061122957610100808354040283529160200191611252565b820191905f5260205f20905b81548152906001019060200180831161123557829003601f168201915b505050505090806003018054611267906123b1565b80601f0160208091040260200160405190810160405280929190818152602001828054611293906123b1565b80156112de5780601f106112b5576101008083540402835291602001916112de565b820191905f5260205f20905b8154815290600101906020018083116112c157829003601f168201915b5050505050905084565b6001600160a01b0383165f90815260016020526040812054908190036113205760405162461bcd60e51b81526004016103a890612382565b5f818152600360205260408120905b81548110156114d657611340611d98565b6001600160a01b031682828154811061135b5761135b6125ef565b5f9182526020909120600890910201546001600160a01b03161480156113ec57508460405160200161138d91906126be565b604051602081830303815290604052805190602001208282815481106113b5576113b56125ef565b905f5260205f2090600802016001016040516020016113d491906126d9565b60405160208183030381529060405280519060200120145b156114c4576001828281548110611405576114056125ef565b905f5260205f2090600802016003015f6101000a81548160ff0219169083151502179055504282828154811061143d5761143d6125ef565b905f5260205f2090600802016004018190555083828281548110611463576114636125ef565b905f5260205f20906008020160050181905550856001600160a01b0316611488611d98565b6001600160a01b03167fc298d419e944a3f1e7da1b2245c9f34649b9a6ea67875bcd37e975ef5d7209a38742886040516105739392919061274b565b806114ce816126a6565b91505061132f565b5060405162461bcd60e51b815260206004820152601860248201527f4163636573732072657175657374206e6f7420666f756e64000000000000000060448201526064016103a8565b60605f60015f61152d611d98565b6001600160a01b03166001600160a01b031681526020019081526020015f20549050805f0361156e5760405162461bcd60e51b81526004016103a890612382565b5f81815260026020908152604091829020600401805483518184028101840190945280845290918301828280156115c257602002820191905f5260205f20905b8154815260200190600101908083116115ae575b505050505091505090565b5f8054604051632474521560e21b8152600481018590526001600160a01b038481166024830152909116906391d14854906044015b602060405180830381865afa15801561161d573d5f803e3d5ffd5b505050506040513d601f19601f820116820180604052508101906116419190612569565b9392505050565b5f8054604051634f4bdc7b60e11b81526001600160a01b0390911690639e97b8f6906116029086908690600401612531565b6004546060905f8167ffffffffffffffff81111561169a5761169a611e26565b6040519080825280602002602001820160405280156116fc57816020015b6116e96040518060a001604052805f8152602001606081526020016060815260200160608152602001606081525090565b8152602001906001900390816116b85790505b5090505f5b8281101561196e5760025f61171783600161276f565b81526020019081526020015f206040518060a00160405290815f8201548152602001600182018054611748906123b1565b80601f0160208091040260200160405190810160405280929190818152602001828054611774906123b1565b80156117bf5780601f10611796576101008083540402835291602001916117bf565b820191905f5260205f20905b8154815290600101906020018083116117a257829003601f168201915b505050505081526020016002820180546117d8906123b1565b80601f0160208091040260200160405190810160405280929190818152602001828054611804906123b1565b801561184f5780601f106118265761010080835404028352916020019161184f565b820191905f5260205f20905b81548152906001019060200180831161183257829003601f168201915b50505050508152602001600382018054611868906123b1565b80601f0160208091040260200160405190810160405280929190818152602001828054611894906123b1565b80156118df5780601f106118b6576101008083540402835291602001916118df565b820191905f5260205f20905b8154815290600101906020018083116118c257829003601f168201915b505050505081526020016004820180548060200260200160405190810160405280929190818152602001828054801561193557602002820191905f5260205f20905b815481526020019060010190808311611921575b505050505081525050828281518110611950576119506125ef565b60200260200101819052508080611966906126a6565b915050611701565b5092915050565b5f8060015f611982611d98565b6001600160a01b03166001600160a01b031681526020019081526020015f20549050805f036119c35760405162461bcd60e51b81526004016103a890612382565b5f81815260036020908152604080832080548251818502810185019093528083529192909190849084015b82821015611c36575f8481526020908190206040805161012081019091526008850290910180546001600160a01b031682526001810180549293919291840191611a37906123b1565b80601f0160208091040260200160405190810160405280929190818152602001828054611a63906123b1565b8015611aae5780601f10611a8557610100808354040283529160200191611aae565b820191905f5260205f20905b815481529060010190602001808311611a9157829003601f168201915b50505050508152602001600282018054611ac7906123b1565b80601f0160208091040260200160405190810160405280929190818152602001828054611af3906123b1565b8015611b3e5780601f10611b1557610100808354040283529160200191611b3e565b820191905f5260205f20905b815481529060010190602001808311611b2157829003601f168201915b5050509183525050600382015460ff16151560208201526004820154604082015260058201546060820152600682018054608090920191611b7e906123b1565b80601f0160208091040260200160405190810160405280929190818152602001828054611baa906123b1565b8015611bf55780601f10611bcc57610100808354040283529160200191611bf5565b820191905f5260205f20905b815481529060010190602001808311611bd857829003601f168201915b50505091835250506007919091015460ff808216151560208085019190915261010090920416151560409092019190915290825260019290920191016119ee565b5050505090505f5b8151811015611d8d57856001600160a01b0316828281518110611c6357611c636125ef565b60200260200101515f01516001600160a01b0316148015611cec575084604051602001611c9091906126be565b60405160208183030381529060405280519060200120828281518110611cb857611cb86125ef565b602002602001015160200151604051602001611cd491906126be565b60405160208183030381529060405280519060200120145b8015611d125750818181518110611d0557611d056125ef565b6020026020010151606001515b15611d7b57818181518110611d2957611d296125ef565b602002602001015160a00151828281518110611d4757611d476125ef565b602002602001015160800151611d5d919061276f565b421115611d6f575f93505050506109ea565b600193505050506109ea565b80611d85816126a6565b915050611c3e565b505f95945050505050565b5f3660147f00000000000000000000000000000000000000000000000000000000000000006001600160a01b031633148015611dd45750808210155b15611e03575f36611de58385612782565b611df0928290612795565b611df9916127bc565b60601c9250505090565b339250505090565b80356001600160a01b0381168114611e21575f80fd5b919050565b634e487b7160e01b5f52604160045260245ffd5b5f82601f830112611e49575f80fd5b813567ffffffffffffffff80821115611e6457611e64611e26565b604051601f8301601f19908116603f01168101908282118183101715611e8c57611e8c611e26565b81604052838152866020858801011115611ea4575f80fd5b836020870160208301375f602085830101528094505050505092915050565b5f805f805f60a08688031215611ed7575f80fd5b611ee086611e0b565b9450602086013567ffffffffffffffff80821115611efc575f80fd5b611f0889838a01611e3a565b95506040880135915080821115611f1d575f80fd5b611f2989838a01611e3a565b9450606088013593506080880135915080821115611f45575f80fd5b50611f5288828901611e3a565b9150509295509295909350565b5f805f60608486031215611f71575f80fd5b611f7a84611e0b565b9250602084013567ffffffffffffffff80821115611f96575f80fd5b611fa287838801611e3a565b93506040860135915080821115611fb7575f80fd5b50611fc486828701611e3a565b9150509250925092565b5f60208284031215611fde575f80fd5b61164182611e0b565b5f8060408385031215611ff8575f80fd5b50508035926020909101359150565b5f5b83811015612021578181015183820152602001612009565b50505f910152565b5f8151808452612040816020860160208601612007565b601f01601f19169290920160200192915050565b6001600160a01b038a168152610120602082018190525f906120788382018c612029565b9050828103604084015261208c818b612029565b905088151560608401528760808401528660a084015282810360c08401526120b48187612029565b94151560e0840152505090151561010090910152979650505050505050565b5f602082840312156120e3575f80fd5b5035919050565b5f805f606084860312156120fc575f80fd5b833567ffffffffffffffff80821115612113575f80fd5b61211f87838801611e3a565b94506020860135915080821115611f96575f80fd5b848152608060208201525f61214c6080830186612029565b828103604084015261215e8186612029565b905082810360608401526121728185612029565b979650505050505050565b5f805f6060848603121561218f575f80fd5b61219884611e0b565b9250602084013567ffffffffffffffff8111156121b3575f80fd5b6121bf86828701611e3a565b925050604084013590509250925092565b5f8151808452602080850194508084015f5b838110156121fe578151875295820195908201906001016121e2565b509495945050505050565b602081525f61164160208301846121d0565b5f806040838503121561222c575f80fd5b8235915061223c60208401611e0b565b90509250929050565b5f8060408385031215612256575f80fd5b823560098110612264575f80fd5b915061223c60208401611e0b565b5f6020808301818452808551808352604092508286019150828160051b8701018488015f5b8381101561232957603f19898403018552815160a08151855288820151818a8701526122c582870182612029565b91505087820151858203898701526122dd8282612029565b915050606080830151868303828801526122f78382612029565b925050506080808301519250858203818701525061231581836121d0565b968901969450505090860190600101612297565b509098975050505050505050565b5f8060408385031215612348575f80fd5b61235183611e0b565b9150602083013567ffffffffffffffff81111561236c575f80fd5b61237885828601611e3a565b9150509250929050565b602080825260159082015274111bd8dd1bdc881b9bdd081c9959da5cdd195c9959605a1b604082015260600190565b600181811c908216806123c557607f821691505b6020821081036123e357634e487b7160e01b5f52602260045260245ffd5b50919050565b601f821115612432575f81815260208120601f850160051c8101602086101561240f5750805b601f850160051c820191505b8181101561242e5782815560010161241b565b5050505b505050565b815167ffffffffffffffff81111561245157612451611e26565b6124658161245f84546123b1565b846123e9565b602080601f831160018114612498575f84156124815750858301515b5f19600386901b1c1916600185901b17855561242e565b5f85815260208120601f198616915b828110156124c6578886015182559484019460019091019084016124a7565b50858210156124e357878501515f19600388901b60f8161c191681555b5050505050600190811b01905550565b608081525f6125056080830187612029565b82810360208401526125178187612029565b905084604084015282810360608401526121728185612029565b604081016009841061255157634e487b7160e01b5f52602160045260245ffd5b9281526001600160a01b039190911660209091015290565b5f60208284031215612579575f80fd5b81518015158114611641575f80fd5b6a022a6a2a923a2a721ac9d160ad1b81525f82516125ad81600b850160208701612007565b91909101600b0192915050565b606081525f6125cc6060830186612029565b82810360208401526125de8186612029565b915050826040830152949350505050565b634e487b7160e01b5f52603260045260245ffd5b604081525f808454612614816123b1565b806040860152606060018084165f8114612635576001811461264f5761267d565b60ff1985168884015283151560051b88018301955061267d565b895f526020805f205f5b868110156126745781548b8201870152908401908201612659565b8a018501975050505b50505050506020929092019290925292915050565b634e487b7160e01b5f52601160045260245ffd5b5f600182016126b7576126b7612692565b5060010190565b5f82516126cf818460208701612007565b9190910192915050565b5f8083546126e6816123b1565b600182811680156126fe57600181146127135761273f565b60ff198416875282151583028701945061273f565b875f526020805f205f5b858110156127365781548a82015290840190820161271d565b50505082870194505b50929695505050505050565b606081525f61275d6060830186612029565b60208301949094525060400152919050565b808201808211156109ea576109ea612692565b818103818111156109ea576109ea612692565b5f80858511156127a3575f80fd5b838611156127af575f80fd5b5050820193919092039150565b6bffffffffffffffffffffffff1981358181169160148510156127e95780818660140360031b1b83161692505b50509291505056fea2646970667358221220e6b8ec44f987cf7aad5174737d4c0d368b84d40aa90d1b5e622059e5131c2dca64736f6c63430008140033",
  "immutableReferences": {
    "4782": [
      {
        "length": 32,
        "start": 565
      },
      {
        "length": 32,
        "start": 650
      },
      {
        "length": 32,
        "start": 7582
      }
    ]
  },
  "source": "// SPDX-License-Identifier: MIT\r\npragma solidity ^0.8.20;\r\n\r\nimport \"./common/MediSecureAuth.sol\";\r\nimport {Roles} from \"./MediSecureAccessControl.sol\";\r\n\r\n/**\r\n * @title RBACDoctor\r\n * @dev Doctor contract with OpenZeppelin AccessControl for role-based permissions (Legacy Compatibility).\r\n */\r\ncontract RBACDoctor is MediSecureAuth {\r\n    constructor(address _accessControl, address _forwarder) MediSecureAuth(_accessControl, _forwarder) {}\r\n    \r\n    struct DoctorDetails {\r\n        uint256 doctorId;\r\n        string name;\r\n        string specialization;\r\n        string email;\r\n        uint256[] patientIds;\r\n    }\r\n\r\n    struct DocumentAccess {\r\n        address patient;\r\n        string ipfsHash;\r\n        string fileName;\r\n        bool hasAccess;\r\n        uint256 grantTime;\r\n        uint256 duration;\r\n        string reason;\r\n        bool isEmergency;\r\n        bool isResolved;\r\n    }\r\n\r\n    mapping(address => uint256) public walletToDoctorId;\r\n    mapping(uint256 => DoctorDetails) public doctors;\r\n    mapping(uint256 => DocumentAccess[]) public doctorAccessList;\r\n\r\n    uint256 private doctorIdCounter;\r\n\r\n    // Events\r\n    event AccessRequested(address indexed patient, address indexed doctor, string ipfsHash, string fileName, uint256 duration, string reason);\r\n    event AccessGranted(address indexed patient, address indexed doctor, string ipfsHash, uint256 grantTime, uint256 duration);\r\n    event AccessRevoked(address indexed patient, address indexed doctor, string ipfsHash, uint256 revokeTime);\r\n    event PatientAdded(uint256 indexed doctorId, uint256 indexed patientId, address indexed doctor);\r\n    event EmergencyAccessGranted(address indexed doctor, address indexed patient, string ipfsHash, string reason, uint256 timestamp);\r\n    event EmergencyResolved(address indexed patient, address indexed resolver, string ipfsHash, uint256 timestamp);\r\n\r\n    function registerDoctor(string memory _name, string memory _specialization, string memory _hospital) public {\r\n        require(walletToDoctorId[_msgSender()] == 0, \"Doctor already registered\");\r\n        \r\n        // Grant DOCTOR role to the registering doctor centrally\r\n        accessControl.grantRole(Roles.DOCTOR, _msgSender());\r\n        \r\n        doctorIdCounter++;\r\n        walletToDoctorId[_msgSender()] = doctorIdCounter;\r\n\r\n        DoctorDetails storage newDoctor = doctors[doctorIdCounter];\r\n        newDoctor.doctorId = doctorIdCounter;\r\n        newDoctor.name = _name;\r\n        newDoctor.specialization = _specialization;\r\n        newDoctor.email = _hospital;\r\n    }\r\n\r\n    // Allow functions to be called by admin OR doctors with DOCTOR role\r\n    modifier onlyDoctorOrAdmin() {\r\n        require(isAdmin(_msgSender()) || hasRole(Roles.DOCTOR, _msgSender()), \"Not authorized\");\r\n        _;\r\n    }\r\n\r\n    function addPatient(uint256 _patientId) public onlyDoctorOrAdmin {\r\n        uint256 doctorId = walletToDoctorId[_msgSender()];\r\n        require(doctorId != 0, \"Doctor not registered\");\r\n\r\n        bool exists = false;\r\n        for (uint i = 0; i < doctors[doctorId].patientIds.length; i++) {\r\n            if (doctors[doctorId].patientIds[i] == _patientId) {\r\n                exists = true;\r\n                break;\r\n            }\r\n        }\r\n        require(!exists, \"Patient already added\");\r\n\r\n        doctors[doctorId].patientIds.push(_patientId);\r\n        emit PatientAdded(doctorId, _patientId, _msgSender());\r\n    }\r\n\r\n    function getDoctorPatients() public view returns (uint256[] memory) {\r\n        uint256 doctorId = walletToDoctorId[_msgSender()];\r\n        require(doctorId != 0, \"Doctor not registered\");\r\n        return doctors[doctorId].patientIds;\r\n    }\r\n\r\n    function hasAccessToDocument(address _patient, string memory _ipfsHash) public view returns (bool) {\r\n        uint256 doctorId = walletToDoctorId[_msgSender()];\r\n        require(doctorId != 0, \"Doctor not registered\");\r\n\r\n        DocumentAccess[] memory accessList = doctorAccessList[doctorId];\r\n        for (uint256 i = 0; i < accessList.length; i++) {\r\n            if (\r\n                accessList[i].patient == _patient &&\r\n                keccak256(abi.encodePacked(accessList[i].ipfsHash)) ==\r\n                keccak256(abi.encodePacked(_ipfsHash)) &&\r\n                accessList[i].hasAccess\r\n            ) {\r\n                if (block.timestamp > accessList[i].grantTime + accessList[i].duration) {\r\n                    return false;\r\n                }\r\n                return true;\r\n            }\r\n        }\r\n        return false;\r\n    }\r\n\r\n    function requestAccess(address _patient, string memory _ipfsHash, string memory _fileName, uint256 _duration, string memory _reason) public onlyDoctorOrAdmin {\r\n        uint256 doctorId = walletToDoctorId[_msgSender()];\r\n        require(doctorId != 0, \"Doctor not registered\");\r\n\r\n        doctorAccessList[doctorId].push(DocumentAccess({\r\n            patient: _patient,\r\n            ipfsHash: _ipfsHash,\r\n            fileName: _fileName,\r\n            hasAccess: false,\r\n            grantTime: 0,\r\n            duration: _duration,\r\n            reason: _reason,\r\n            isEmergency: false,\r\n            isResolved: false\r\n        }));\r\n\r\n        emit AccessRequested(_patient, _msgSender(), _ipfsHash, _fileName, _duration, _reason);\r\n    }\r\n\r\n    function grantAccess(address _doctor, string memory _ipfsHash, uint256 _duration) public {\r\n        uint256 doctorId = walletToDoctorId[_doctor];\r\n        require(doctorId != 0, \"Doctor not registered\");\r\n\r\n        DocumentAccess[] storage accessList = doctorAccessList[doctorId];\r\n        for (uint256 i = 0; i < accessList.length; i++) {\r\n            if (\r\n                accessList[i].patient == _msgSender() &&\r\n                keccak256(abi.encodePacked(accessList[i].ipfsHash)) ==\r\n                keccak256(abi.encodePacked(_ipfsHash))\r\n            ) {\r\n                accessList[i].hasAccess = true;\r\n                accessList[i].grantTime = block.timestamp;\r\n                accessList[i].duration = _duration;\r\n\r\n                emit AccessGranted(_msgSender(), _doctor, _ipfsHash, block.timestamp, _duration);\r\n                return;\r\n            }\r\n        }\r\n        revert(\"Access request not found\");\r\n    }\r\n\r\n    function doctorExists(address walletAddress) public view returns (bool) {\r\n        return walletToDoctorId[walletAddress] != 0;\r\n    }\r\n\r\n    function getAllDoctors() public view returns (DoctorDetails[] memory) {\r\n        uint256 total = doctorIdCounter;\r\n        DoctorDetails[] memory list = new DoctorDetails[](total);\r\n        for (uint256 i = 0; i < total; i++) {\r\n            list[i] = doctors[i + 1];\r\n        }\r\n        return list;\r\n    }\r\n\r\n    function declareEmergency(address _patient, string memory _ipfsHash, string memory _reason) public onlyRoleName(Roles.DOCTOR) {\r\n        uint256 doctorId = walletToDoctorId[_msgSender()];\r\n        require(doctorId != 0, \"Doctor not registered\");\r\n        require(bytes(_reason).length > 10, \"Reason too short\");\r\n\r\n        doctorAccessList[doctorId].push(DocumentAccess({\r\n            patient: _patient,\r\n            ipfsHash: _ipfsHash,\r\n            fileName: \"EMERGENCY_ACCESS\",\r\n            hasAccess: true,\r\n            grantTime: block.timestamp,\r\n            duration: 2 hours, \r\n            reason: string(abi.encodePacked(\"EMERGENCY: \", _reason)),\r\n            isEmergency: true,\r\n            isResolved: false\r\n        }));\r\n\r\n        emit EmergencyAccessGranted(_msgSender(), _patient, _ipfsHash, _reason, block.timestamp);\r\n    }\r\n\r\n    function resolveEmergency(uint256 _doctorId, uint256 _accessIndex) public onlyAdmin() {\r\n        require(_accessIndex < doctorAccessList[_doctorId].length, \"Invalid access index\");\r\n        DocumentAccess storage access = doctorAccessList[_doctorId][_accessIndex];\r\n        require(access.isEmergency, \"Not an emergency access\");\r\n        \r\n        access.isResolved = true;\r\n        emit EmergencyResolved(access.patient, _msgSender(), access.ipfsHash, block.timestamp);\r\n    }\r\n}",
  "sourcePath": "C:\\Users\\night\\Downloads\\team-rocket-medi-secure\\team-rocket-medi-secure\\contracts\\contracts\\RBACDoctor.sol",
  "compiler": {
    "name": "solc",
    "version": "0.8.20+commit.a1b79de6.Emscripten.clang"
  },
  "schemaVersion": "3.4.16",
  "updatedAt": "2026-04-24T10:38:44.095Z",
  "networkType": "ethereum",
  "devdoc": {
    "details": "Doctor contract with OpenZeppelin AccessControl for role-based permissions (Legacy Compatibility).",
    "kind": "dev",
    "methods": {
      "isTrustedForwarder(address)": {
        "details": "Indicates whether any particular address is the trusted forwarder."
      },
      "trustedForwarder()": {
        "details": "Returns the address of the trusted forwarder."
      }
    },
    "title": "RBACDoctor",
    "version": 1
  },
  "userdoc": {
    "kind": "user",
    "methods": {},
    "version": 1
  }
}