{
  "contractName": "SanjeevniICO",
  "abi": [
    {
      "inputs": [
        {
          "internalType": "address",
          "name": "_token",
          "type": "address"
        },
        {
          "internalType": "address",
          "name": "_paymentToken",
          "type": "address"
        }
      ],
      "stateMutability": "nonpayable",
      "type": "constructor"
    },
    {
      "inputs": [
        {
          "internalType": "address",
          "name": "target",
          "type": "address"
        }
      ],
      "name": "AddressEmptyCode",
      "type": "error"
    },
    {
      "inputs": [
        {
          "internalType": "address",
          "name": "account",
          "type": "address"
        }
      ],
      "name": "AddressInsufficientBalance",
      "type": "error"
    },
    {
      "inputs": [],
      "name": "FailedInnerCall",
      "type": "error"
    },
    {
      "inputs": [
        {
          "internalType": "address",
          "name": "owner",
          "type": "address"
        }
      ],
      "name": "OwnableInvalidOwner",
      "type": "error"
    },
    {
      "inputs": [
        {
          "internalType": "address",
          "name": "account",
          "type": "address"
        }
      ],
      "name": "OwnableUnauthorizedAccount",
      "type": "error"
    },
    {
      "inputs": [],
      "name": "ReentrancyGuardReentrantCall",
      "type": "error"
    },
    {
      "inputs": [
        {
          "internalType": "address",
          "name": "token",
          "type": "address"
        }
      ],
      "name": "SafeERC20FailedOperation",
      "type": "error"
    },
    {
      "anonymous": false,
      "inputs": [
        {
          "indexed": true,
          "internalType": "address",
          "name": "previousOwner",
          "type": "address"
        },
        {
          "indexed": true,
          "internalType": "address",
          "name": "newOwner",
          "type": "address"
        }
      ],
      "name": "OwnershipTransferred",
      "type": "event"
    },
    {
      "anonymous": false,
      "inputs": [
        {
          "indexed": false,
          "internalType": "uint256",
          "name": "newRate",
          "type": "uint256"
        }
      ],
      "name": "RateUpdated",
      "type": "event"
    },
    {
      "anonymous": false,
      "inputs": [
        {
          "indexed": true,
          "internalType": "address",
          "name": "buyer",
          "type": "address"
        },
        {
          "indexed": false,
          "internalType": "uint256",
          "name": "ethAmount",
          "type": "uint256"
        },
        {
          "indexed": false,
          "internalType": "uint256",
          "name": "tokenAmount",
          "type": "uint256"
        }
      ],
      "name": "TokensPurchased",
      "type": "event"
    },
    {
      "anonymous": false,
      "inputs": [
        {
          "indexed": true,
          "internalType": "address",
          "name": "buyer",
          "type": "address"
        },
        {
          "indexed": false,
          "internalType": "bool",
          "name": "status",
          "type": "bool"
        }
      ],
      "name": "WhitelistUpdated",
      "type": "event"
    },
    {
      "inputs": [],
      "name": "endTime",
      "outputs": [
        {
          "internalType": "uint256",
          "name": "",
          "type": "uint256"
        }
      ],
      "stateMutability": "view",
      "type": "function"
    },
    {
      "inputs": [],
      "name": "hardCap",
      "outputs": [
        {
          "internalType": "uint256",
          "name": "",
          "type": "uint256"
        }
      ],
      "stateMutability": "view",
      "type": "function"
    },
    {
      "inputs": [],
      "name": "isPaused",
      "outputs": [
        {
          "internalType": "bool",
          "name": "",
          "type": "bool"
        }
      ],
      "stateMutability": "view",
      "type": "function"
    },
    {
      "inputs": [],
      "name": "maxPurchase",
      "outputs": [
        {
          "internalType": "uint256",
          "name": "",
          "type": "uint256"
        }
      ],
      "stateMutability": "view",
      "type": "function"
    },
    {
      "inputs": [],
      "name": "minPurchase",
      "outputs": [
        {
          "internalType": "uint256",
          "name": "",
          "type": "uint256"
        }
      ],
      "stateMutability": "view",
      "type": "function"
    },
    {
      "inputs": [],
      "name": "owner",
      "outputs": [
        {
          "internalType": "address",
          "name": "",
          "type": "address"
        }
      ],
      "stateMutability": "view",
      "type": "function"
    },
    {
      "inputs": [],
      "name": "paymentToken",
      "outputs": [
        {
          "internalType": "contract IERC20",
          "name": "",
          "type": "address"
        }
      ],
      "stateMutability": "view",
      "type": "function"
    },
    {
      "inputs": [
        {
          "internalType": "address",
          "name": "",
          "type": "address"
        }
      ],
      "name": "purchasedAmount",
      "outputs": [
        {
          "internalType": "uint256",
          "name": "",
          "type": "uint256"
        }
      ],
      "stateMutability": "view",
      "type": "function"
    },
    {
      "inputs": [],
      "name": "raised",
      "outputs": [
        {
          "internalType": "uint256",
          "name": "",
          "type": "uint256"
        }
      ],
      "stateMutability": "view",
      "type": "function"
    },
    {
      "inputs": [],
      "name": "rate",
      "outputs": [
        {
          "internalType": "uint256",
          "name": "",
          "type": "uint256"
        }
      ],
      "stateMutability": "view",
      "type": "function"
    },
    {
      "inputs": [],
      "name": "renounceOwnership",
      "outputs": [],
      "stateMutability": "nonpayable",
      "type": "function"
    },
    {
      "inputs": [],
      "name": "startTime",
      "outputs": [
        {
          "internalType": "uint256",
          "name": "",
          "type": "uint256"
        }
      ],
      "stateMutability": "view",
      "type": "function"
    },
    {
      "inputs": [],
      "name": "token",
      "outputs": [
        {
          "internalType": "contract IERC20",
          "name": "",
          "type": "address"
        }
      ],
      "stateMutability": "view",
      "type": "function"
    },
    {
      "inputs": [
        {
          "internalType": "address",
          "name": "newOwner",
          "type": "address"
        }
      ],
      "name": "transferOwnership",
      "outputs": [],
      "stateMutability": "nonpayable",
      "type": "function"
    },
    {
      "inputs": [
        {
          "internalType": "address",
          "name": "",
          "type": "address"
        }
      ],
      "name": "whitelisted",
      "outputs": [
        {
          "internalType": "bool",
          "name": "",
          "type": "bool"
        }
      ],
      "stateMutability": "view",
      "type": "function"
    },
    {
      "inputs": [
        {
          "internalType": "uint256",
          "name": "_rate",
          "type": "uint256"
        }
      ],
      "name": "setRate",
      "outputs": [],
      "stateMutability": "nonpayable",
      "type": "function"
    },
    {
      "inputs": [
        {
          "internalType": "uint256",
          "name": "_min",
          "type": "uint256"
        },
        {
          "internalType": "uint256",
          "name": "_max",
          "type": "uint256"
        }
      ],
      "name": "setPurchaseLimits",
      "outputs": [],
      "stateMutability": "nonpayable",
      "type": "function"
    },
    {
      "inputs": [
        {
          "internalType": "uint256",
          "name": "_start",
          "type": "uint256"
        },
        {
          "internalType": "uint256",
          "name": "_duration",
          "type": "uint256"
        }
      ],
      "name": "setTime",
      "outputs": [],
      "stateMutability": "nonpayable",
      "type": "function"
    },
    {
      "inputs": [
        {
          "internalType": "address[]",
          "name": "_addresses",
          "type": "address[]"
        },
        {
          "internalType": "bool",
          "name": "_status",
          "type": "bool"
        }
      ],
      "name": "whitelist",
      "outputs": [],
      "stateMutability": "nonpayable",
      "type": "function"
    },
    {
      "inputs": [
        {
          "internalType": "uint256",
          "name": "_amount",
          "type": "uint256"
        }
      ],
      "name": "buyTokens",
      "outputs": [],
      "stateMutability": "nonpayable",
      "type": "function"
    },
    {
      "inputs": [],
      "name": "withdrawFunds",
      "outputs": [],
      "stateMutability": "nonpayable",
      "type": "function"
    },
    {
      "inputs": [],
      "name": "pauseICO",
      "outputs": [],
      "stateMutability": "nonpayable",
      "type": "function"
    },
    {
      "inputs": [],
      "name": "unpauseICO",
      "outputs": [],
      "stateMutability": "nonpayable",
      "type": "function"
    },
    {
      "inputs": [],
      "name": "getStats",
      "outputs": [
        {
          "internalType": "uint256",
          "name": "rate_",
          "type": "uint256"
        },
        {
          "internalType": "uint256",
          "name": "raised_",
          "type": "uint256"
        },
        {
          "internalType": "uint256",
          "name": "hardCap_",
          "type": "uint256"
        },
        {
          "internalType": "uint256",
          "name": "tokensSold",
          "type": "uint256"
        },
        {
          "internalType": "bool",
          "name": "active",
          "type": "bool"
        }
      ],
      "stateMutability": "view",
      "type": "function"
    }
  ],
  "bytecode": "0x608060405234801561000f575f80fd5b50604051610f72380380610f7283398101604081905261002e91610169565b338061005457604051631e4fbdf760e01b81525f60048201526024015b60405180910390fd5b61005d816100ff565b50600180556001600160a01b0382166100a55760405162461bcd60e51b815260206004820152600a6024820152692d32b937903a37b5b2b760b11b604482015260640161004b565b600280546001600160a01b039384166001600160a01b031991821617909155600380549290931691161790556064600455662386f26fc10000600555678ac7230489e800006006556802b5e3af16b188000060075561019a565b5f80546001600160a01b038381166001600160a01b0319831681178455604051919092169283917f8be0079c531659141344cd1fd0a4f28419497f9722a3daafe3b4186f6b6457e09190a35050565b80516001600160a01b0381168114610164575f80fd5b919050565b5f806040838503121561017a575f80fd5b6101838361014e565b91506101916020840161014e565b90509250929050565b610dcb806101a75f395ff3fe608060405234801561000f575f80fd5b5060043610610153575f3560e01c806378e97925116100bf578063c59d484711610079578063c59d48471461028f578063d936547e146102c1578063f0ea4bfc146102e3578063f2fde38b146102ec578063fb86a404146102ff578063fc0c546a14610308575f80fd5b806378e979251461022a5780638da5cb5b14610233578063977b055b14610243578063a0355eca1461024c578063b187bd261461025f578063be30f0a61461027c575f80fd5b806333c77a6d1161011057806333c77a6d146101cd57806334fcf437146101d55780633610724e146101e857806344c4dcc1146101fb57806363d177e61461021a578063715018a614610222575f80fd5b806301b38af51461015757806324600fc31461016c5780632c4e722e146101745780633013ce29146101905780633197cbb6146101bb57806333b5b62e146101c4575b5f80fd5b61016a610165366004610bf1565b61031b565b005b61016a610402565b61017d60045481565b6040519081526020015b60405180910390f35b6003546101a3906001600160a01b031681565b6040516001600160a01b039091168152602001610187565b61017d600a5481565b61017d60055481565b61016a6104f2565b61016a6101e3366004610c70565b610509565b61016a6101f6366004610c70565b610586565b61017d610209366004610c87565b600d6020525f908152604090205481565b61016a610828565b61016a61083c565b61017d60095481565b5f546001600160a01b03166101a3565b61017d60065481565b61016a61025a366004610cad565b61084f565b600b5461026c9060ff1681565b6040519015158152602001610187565b61016a61028a366004610cad565b61086d565b610297610880565b6040805195865260208601949094529284019190915260608301521515608082015260a001610187565b61026c6102cf366004610c87565b600c6020525f908152604090205460ff1681565b61017d60085481565b61016a6102fa366004610c87565b6108d1565b61017d60075481565b6002546101a3906001600160a01b031681565b61032361090b565b5f5b828110156103fc5781600c5f86868581811061034357610343610ccd565b90506020020160208101906103589190610c87565b6001600160a01b0316815260208101919091526040015f20805460ff191691151591909117905583838281811061039157610391610ccd565b90506020020160208101906103a69190610c87565b6001600160a01b03167ff93f9a76c1bf3444d22400a00cb9fe990e6abe9dbb333fda48859cfee864543d836040516103e2911515815260200190565b60405180910390a2806103f481610cf5565b915050610325565b50505050565b61040a61090b565b600a5442118061041e575060075460085410155b61045c5760405162461bcd60e51b815260206004820152600a60248201526949434f2061637469766560b01b60448201526064015b60405180910390fd5b6003546040516370a0823160e01b81523060048201525f916001600160a01b0316906370a0823190602401602060405180830381865afa1580156104a2573d5f803e3d5ffd5b505050506040513d601f19601f820116820180604052508101906104c69190610d0d565b90506104ef6104dc5f546001600160a01b031690565b6003546001600160a01b03169083610937565b50565b6104fa61090b565b600b805460ff19166001179055565b61051161090b565b5f811161054b5760405162461bcd60e51b8152602060048201526008602482015267052617465203e20360c41b6044820152606401610453565b60048190556040518181527fe65c987b2e4668e09ba867026921588005b2b2063607a1e7e7d91683c8f91b7b9060200160405180910390a150565b61058e61099b565b600b5460ff16156105ca5760405162461bcd60e51b815260206004820152600660248201526514185d5cd95960d21b6044820152606401610453565b5f6009541180156105dd57506009544210155b6106175760405162461bcd60e51b815260206004820152600b60248201526a139bdd081cdd185c9d195960aa1b6044820152606401610453565b5f600a541180156106295750600a5442105b61065d5760405162461bcd60e51b8152602060048201526005602482015264115b99195960da1b6044820152606401610453565b600b5460ff16156106995760405162461bcd60e51b815260206004820152600660248201526514185d5cd95960d21b6044820152606401610453565b6005548110156106d75760405162461bcd60e51b81526020600482015260096024820152682132b637bb9036b4b760b91b6044820152606401610453565b6006548111156107155760405162461bcd60e51b8152602060048201526009602482015268082c4deecca40dac2f60bb1b6044820152606401610453565b600754816008546107269190610d24565b11156107675760405162461bcd60e51b815260206004820152601060248201526f12185c990818d85c081c995858da195960821b6044820152606401610453565b5f600454826107769190610d37565b600354909150610791906001600160a01b03163330856109c5565b335f908152600d6020526040812080548492906107af908490610d24565b925050819055508160085f8282546107c79190610d24565b90915550506002546107e3906001600160a01b03163383610937565b604080518381526020810183905233917f8fafebcaf9d154343dad25669bfa277f4fbacd7ac6b0c4fed522580e040a0f33910160405180910390a2506104ef60018055565b61083061090b565b600b805460ff19169055565b61084461090b565b61084d5f6109fe565b565b61085761090b565b60098290556108668183610d24565b600a555050565b61087561090b565b600591909155600655565b5f805f805f60045460085460075460045460085461089e9190610d37565b60095442101580156108b15750600a5442105b80156108c05750600754600854105b945094509450945094509091929394565b6108d961090b565b6001600160a01b03811661090257604051631e4fbdf760e01b81525f6004820152602401610453565b6104ef816109fe565b5f546001600160a01b0316331461084d5760405163118cdaa760e01b8152336004820152602401610453565b6040516001600160a01b0383811660248301526044820183905261099691859182169063a9059cbb906064015b604051602081830303815290604052915060e01b6020820180516001600160e01b038381831617835250505050610a4d565b505050565b6002600154036109be57604051633ee5aeb560e01b815260040160405180910390fd5b6002600155565b6040516001600160a01b0384811660248301528381166044830152606482018390526103fc9186918216906323b872dd90608401610964565b5f80546001600160a01b038381166001600160a01b0319831681178455604051919092169283917f8be0079c531659141344cd1fd0a4f28419497f9722a3daafe3b4186f6b6457e09190a35050565b5f610a616001600160a01b03841683610aae565b905080515f14158015610a85575080806020019051810190610a839190610d4e565b155b1561099657604051635274afe760e01b81526001600160a01b0384166004820152602401610453565b6060610abb83835f610ac4565b90505b92915050565b606081471015610ae95760405163cd78605960e01b8152306004820152602401610453565b5f80856001600160a01b03168486604051610b049190610d69565b5f6040518083038185875af1925050503d805f8114610b3e576040519150601f19603f3d011682016040523d82523d5f602084013e610b43565b606091505b5091509150610b53868383610b5f565b925050505b9392505050565b606082610b7457610b6f82610bbb565b610b58565b8151158015610b8b57506001600160a01b0384163b155b15610bb457604051639996b31560e01b81526001600160a01b0385166004820152602401610453565b5080610b58565b805115610bcb5780518082602001fd5b604051630a12f52160e11b815260040160405180910390fd5b80151581146104ef575f80fd5b5f805f60408486031215610c03575f80fd5b833567ffffffffffffffff80821115610c1a575f80fd5b818601915086601f830112610c2d575f80fd5b813581811115610c3b575f80fd5b8760208260051b8501011115610c4f575f80fd5b60209283019550935050840135610c6581610be4565b809150509250925092565b5f60208284031215610c80575f80fd5b5035919050565b5f60208284031215610c97575f80fd5b81356001600160a01b0381168114610b58575f80fd5b5f8060408385031215610cbe575f80fd5b50508035926020909101359150565b634e487b7160e01b5f52603260045260245ffd5b634e487b7160e01b5f52601160045260245ffd5b5f60018201610d0657610d06610ce1565b5060010190565b5f60208284031215610d1d575f80fd5b5051919050565b80820180821115610abe57610abe610ce1565b8082028115828204841417610abe57610abe610ce1565b5f60208284031215610d5e575f80fd5b8151610b5881610be4565b5f82515f5b81811015610d885760208186018101518583015201610d6e565b505f92019182525091905056fea26469706673582212207e3cac281c45c5c3c7987284929a5fdcc35e289d1e5ba4047e738ae25650744764736f6c63430008140033",
  "immutableReferences": {},
  "source": "// SPDX-License-Identifier: MIT\r\npragma solidity ^0.8.20;\r\n\r\nimport \"@openzeppelin/contracts/token/ERC20/IERC20.sol\";\r\nimport \"@openzeppelin/contracts/token/ERC20/utils/SafeERC20.sol\";\r\nimport \"@openzeppelin/contracts/access/Ownable.sol\";\r\nimport \"@openzeppelin/contracts/utils/ReentrancyGuard.sol\";\r\n\r\ncontract SanjeevniICO is Ownable, ReentrancyGuard {\r\n    using SafeERC20 for IERC20;\r\n\r\n    IERC20 public token;\r\n    IERC20 public paymentToken;\r\n    \r\n    uint256 public rate; // tokens per ETH\r\n    uint256 public minPurchase;\r\n    uint256 public maxPurchase;\r\n    uint256 public hardCap;\r\n    uint256 public raised;\r\n    uint256 public startTime;\r\n    uint256 public endTime;\r\n    \r\n    bool public isPaused;\r\n    mapping(address => bool) public whitelisted;\r\n    mapping(address => uint256) public purchasedAmount;\r\n    \r\n    event TokensPurchased(address indexed buyer, uint256 ethAmount, uint256 tokenAmount);\r\n    event RateUpdated(uint256 newRate);\r\n    event WhitelistUpdated(address indexed buyer, bool status);\r\n\r\n    constructor(address _token, address _paymentToken) Ownable(msg.sender) {\r\n        require(_token != address(0), \"Zero token\");\r\n        token = IERC20(_token);\r\n        paymentToken = IERC20(_paymentToken);\r\n        rate = 100; // 100 SANJ per 1 ETH\r\n        minPurchase = 0.01 ether;\r\n        maxPurchase = 10 ether;\r\n        hardCap = 50 ether;\r\n    }\r\n\r\n    function setRate(uint256 _rate) external onlyOwner {\r\n        require(_rate > 0, \"Rate > 0\");\r\n        rate = _rate;\r\n        emit RateUpdated(_rate);\r\n    }\r\n\r\n    function setPurchaseLimits(uint256 _min, uint256 _max) external onlyOwner {\r\n        minPurchase = _min;\r\n        maxPurchase = _max;\r\n    }\r\n\r\n    function setTime(uint256 _start, uint256 _duration) external onlyOwner {\r\n        startTime = _start;\r\n        endTime = _start + _duration;\r\n    }\r\n\r\n    function whitelist(address[] calldata _addresses, bool _status) external onlyOwner {\r\n        for (uint256 i = 0; i < _addresses.length; i++) {\r\n            whitelisted[_addresses[i]] = _status;\r\n            emit WhitelistUpdated(_addresses[i], _status);\r\n        }\r\n    }\r\n\r\n    function buyTokens(uint256 _amount) external nonReentrant whenNotPaused {\r\n        require(startTime > 0 && block.timestamp >= startTime, \"Not started\");\r\n        require(endTime > 0 && block.timestamp < endTime, \"Ended\");\r\n        require(!isPaused, \"Paused\");\r\n        require(_amount >= minPurchase, \"Below min\");\r\n        require(_amount <= maxPurchase, \"Above max\");\r\n        require(raised + _amount <= hardCap, \"Hard cap reached\");\r\n        \r\n        uint256 tokenAmount = _amount * rate;\r\n        \r\n        paymentToken.safeTransferFrom(msg.sender, address(this), _amount);\r\n        \r\n        purchasedAmount[msg.sender] += _amount;\r\n        raised += _amount;\r\n        \r\n        token.safeTransfer(msg.sender, tokenAmount);\r\n        \r\n        emit TokensPurchased(msg.sender, _amount, tokenAmount);\r\n    }\r\n\r\n    function withdrawFunds() external onlyOwner {\r\n        require(block.timestamp > endTime || raised >= hardCap, \"ICO active\");\r\n        uint256 balance = paymentToken.balanceOf(address(this));\r\n        paymentToken.safeTransfer(owner(), balance);\r\n    }\r\n\r\n    function pauseICO() external onlyOwner {\r\n        isPaused = true;\r\n    }\r\n\r\n    function unpauseICO() external onlyOwner {\r\n        isPaused = false;\r\n    }\r\n\r\n    modifier whenNotPaused() {\r\n        require(!isPaused, \"Paused\");\r\n        _;\r\n    }\r\n\r\n    function getStats() external view returns (\r\n        uint256 rate_,\r\n        uint256 raised_,\r\n        uint256 hardCap_,\r\n        uint256 tokensSold,\r\n        bool active\r\n    ) {\r\n        return (\r\n            rate,\r\n            raised,\r\n            hardCap,\r\n            raised * rate,\r\n            block.timestamp >= startTime && block.timestamp < endTime && raised < hardCap\r\n        );\r\n    }\r\n}",
  "sourcePath": "C:\\Users\\night\\Downloads\\team-rocket-medi-secure\\team-rocket-medi-secure\\contracts\\contracts\\SanjeevniICO.sol",
  "compiler": {
    "name": "solc",
    "version": "0.8.20+commit.a1b79de6.Emscripten.clang"
  },
  "schemaVersion": "3.4.16",
  "updatedAt": "2026-04-24T10:38:31.170Z",
  "devdoc": {
    "errors": {
      "AddressEmptyCode(address)": [
        {
          "details": "There's no code at `target` (it is not a contract)."
        }
      ],
      "AddressInsufficientBalance(address)": [
        {
          "details": "The ETH balance of the account is not enough to perform the operation."
        }
      ],
      "FailedInnerCall()": [
        {
          "details": "A call to an address target failed. The target may have reverted."
        }
      ],
      "OwnableInvalidOwner(address)": [
        {
          "details": "The owner is not a valid owner account. (eg. `address(0)`)"
        }
      ],
      "OwnableUnauthorizedAccount(address)": [
        {
          "details": "The caller account is not authorized to perform an operation."
        }
      ],
      "ReentrancyGuardReentrantCall()": [
        {
          "details": "Unauthorized reentrant call."
        }
      ],
      "SafeERC20FailedOperation(address)": [
        {
          "details": "An operation with an ERC20 token failed."
        }
      ]
    },
    "kind": "dev",
    "methods": {
      "owner()": {
        "details": "Returns the address of the current owner."
      },
      "renounceOwnership()": {
        "details": "Leaves the contract without owner. It will not be possible to call `onlyOwner` functions. Can only be called by the current owner. NOTE: Renouncing ownership will leave the contract without an owner, thereby disabling any functionality that is only available to the owner."
      },
      "transferOwnership(address)": {
        "details": "Transfers ownership of the contract to a new account (`newOwner`). Can only be called by the current owner."
      }
    },
    "version": 1
  },
  "userdoc": {
    "kind": "user",
    "methods": {},
    "version": 1
  }
}