{
  "contractName": "SanjeevniToken",
  "abi": [
    {
      "inputs": [],
      "stateMutability": "nonpayable",
      "type": "constructor"
    },
    {
      "inputs": [],
      "name": "BlacklistedAccount",
      "type": "error"
    },
    {
      "inputs": [
        {
          "internalType": "address",
          "name": "spender",
          "type": "address"
        },
        {
          "internalType": "uint256",
          "name": "allowance",
          "type": "uint256"
        },
        {
          "internalType": "uint256",
          "name": "needed",
          "type": "uint256"
        }
      ],
      "name": "ERC20InsufficientAllowance",
      "type": "error"
    },
    {
      "inputs": [
        {
          "internalType": "address",
          "name": "sender",
          "type": "address"
        },
        {
          "internalType": "uint256",
          "name": "balance",
          "type": "uint256"
        },
        {
          "internalType": "uint256",
          "name": "needed",
          "type": "uint256"
        }
      ],
      "name": "ERC20InsufficientBalance",
      "type": "error"
    },
    {
      "inputs": [
        {
          "internalType": "address",
          "name": "approver",
          "type": "address"
        }
      ],
      "name": "ERC20InvalidApprover",
      "type": "error"
    },
    {
      "inputs": [
        {
          "internalType": "address",
          "name": "receiver",
          "type": "address"
        }
      ],
      "name": "ERC20InvalidReceiver",
      "type": "error"
    },
    {
      "inputs": [
        {
          "internalType": "address",
          "name": "sender",
          "type": "address"
        }
      ],
      "name": "ERC20InvalidSender",
      "type": "error"
    },
    {
      "inputs": [
        {
          "internalType": "address",
          "name": "spender",
          "type": "address"
        }
      ],
      "name": "ERC20InvalidSpender",
      "type": "error"
    },
    {
      "inputs": [],
      "name": "EnforcedPause",
      "type": "error"
    },
    {
      "inputs": [],
      "name": "ExpectedPause",
      "type": "error"
    },
    {
      "inputs": [],
      "name": "LengthMismatch",
      "type": "error"
    },
    {
      "inputs": [],
      "name": "MaxSupplyExceeded",
      "type": "error"
    },
    {
      "inputs": [],
      "name": "NotMinter",
      "type": "error"
    },
    {
      "inputs": [
        {
          "internalType": "address",
          "name": "owner",
          "type": "address"
        }
      ],
      "name": "OwnableInvalidOwner",
      "type": "error"
    },
    {
      "inputs": [
        {
          "internalType": "address",
          "name": "account",
          "type": "address"
        }
      ],
      "name": "OwnableUnauthorizedAccount",
      "type": "error"
    },
    {
      "inputs": [],
      "name": "ZeroAddress",
      "type": "error"
    },
    {
      "anonymous": false,
      "inputs": [
        {
          "indexed": true,
          "internalType": "address",
          "name": "owner",
          "type": "address"
        },
        {
          "indexed": true,
          "internalType": "address",
          "name": "spender",
          "type": "address"
        },
        {
          "indexed": false,
          "internalType": "uint256",
          "name": "value",
          "type": "uint256"
        }
      ],
      "name": "Approval",
      "type": "event"
    },
    {
      "anonymous": false,
      "inputs": [
        {
          "indexed": true,
          "internalType": "address",
          "name": "account",
          "type": "address"
        },
        {
          "indexed": false,
          "internalType": "bool",
          "name": "status",
          "type": "bool"
        }
      ],
      "name": "Blacklisted",
      "type": "event"
    },
    {
      "anonymous": false,
      "inputs": [
        {
          "indexed": true,
          "internalType": "address",
          "name": "minter",
          "type": "address"
        }
      ],
      "name": "MinterAdded",
      "type": "event"
    },
    {
      "anonymous": false,
      "inputs": [
        {
          "indexed": true,
          "internalType": "address",
          "name": "minter",
          "type": "address"
        }
      ],
      "name": "MinterRemoved",
      "type": "event"
    },
    {
      "anonymous": false,
      "inputs": [
        {
          "indexed": true,
          "internalType": "address",
          "name": "previousOwner",
          "type": "address"
        },
        {
          "indexed": true,
          "internalType": "address",
          "name": "newOwner",
          "type": "address"
        }
      ],
      "name": "OwnershipTransferred",
      "type": "event"
    },
    {
      "anonymous": false,
      "inputs": [
        {
          "indexed": false,
          "internalType": "address",
          "name": "account",
          "type": "address"
        }
      ],
      "name": "Paused",
      "type": "event"
    },
    {
      "anonymous": false,
      "inputs": [
        {
          "indexed": true,
          "internalType": "address",
          "name": "to",
          "type": "address"
        },
        {
          "indexed": false,
          "internalType": "uint256",
          "name": "amount",
          "type": "uint256"
        }
      ],
      "name": "TokensMinted",
      "type": "event"
    },
    {
      "anonymous": false,
      "inputs": [
        {
          "indexed": true,
          "internalType": "address",
          "name": "from",
          "type": "address"
        },
        {
          "indexed": true,
          "internalType": "address",
          "name": "to",
          "type": "address"
        },
        {
          "indexed": false,
          "internalType": "uint256",
          "name": "value",
          "type": "uint256"
        }
      ],
      "name": "Transfer",
      "type": "event"
    },
    {
      "anonymous": false,
      "inputs": [
        {
          "indexed": false,
          "internalType": "address",
          "name": "account",
          "type": "address"
        }
      ],
      "name": "Unpaused",
      "type": "event"
    },
    {
      "inputs": [],
      "name": "MAX_SUPPLY",
      "outputs": [
        {
          "internalType": "uint256",
          "name": "",
          "type": "uint256"
        }
      ],
      "stateMutability": "view",
      "type": "function",
      "constant": true
    },
    {
      "inputs": [
        {
          "internalType": "address",
          "name": "owner",
          "type": "address"
        },
        {
          "internalType": "address",
          "name": "spender",
          "type": "address"
        }
      ],
      "name": "allowance",
      "outputs": [
        {
          "internalType": "uint256",
          "name": "",
          "type": "uint256"
        }
      ],
      "stateMutability": "view",
      "type": "function",
      "constant": true
    },
    {
      "inputs": [
        {
          "internalType": "address",
          "name": "spender",
          "type": "address"
        },
        {
          "internalType": "uint256",
          "name": "value",
          "type": "uint256"
        }
      ],
      "name": "approve",
      "outputs": [
        {
          "internalType": "bool",
          "name": "",
          "type": "bool"
        }
      ],
      "stateMutability": "nonpayable",
      "type": "function"
    },
    {
      "inputs": [
        {
          "internalType": "address",
          "name": "account",
          "type": "address"
        }
      ],
      "name": "balanceOf",
      "outputs": [
        {
          "internalType": "uint256",
          "name": "",
          "type": "uint256"
        }
      ],
      "stateMutability": "view",
      "type": "function",
      "constant": true
    },
    {
      "inputs": [
        {
          "internalType": "address",
          "name": "",
          "type": "address"
        }
      ],
      "name": "blacklisted",
      "outputs": [
        {
          "internalType": "bool",
          "name": "",
          "type": "bool"
        }
      ],
      "stateMutability": "view",
      "type": "function",
      "constant": true
    },
    {
      "inputs": [
        {
          "internalType": "uint256",
          "name": "value",
          "type": "uint256"
        }
      ],
      "name": "burn",
      "outputs": [],
      "stateMutability": "nonpayable",
      "type": "function"
    },
    {
      "inputs": [
        {
          "internalType": "address",
          "name": "account",
          "type": "address"
        },
        {
          "internalType": "uint256",
          "name": "value",
          "type": "uint256"
        }
      ],
      "name": "burnFrom",
      "outputs": [],
      "stateMutability": "nonpayable",
      "type": "function"
    },
    {
      "inputs": [],
      "name": "decimals",
      "outputs": [
        {
          "internalType": "uint8",
          "name": "",
          "type": "uint8"
        }
      ],
      "stateMutability": "view",
      "type": "function",
      "constant": true
    },
    {
      "inputs": [
        {
          "internalType": "address",
          "name": "",
          "type": "address"
        }
      ],
      "name": "minters",
      "outputs": [
        {
          "internalType": "bool",
          "name": "",
          "type": "bool"
        }
      ],
      "stateMutability": "view",
      "type": "function",
      "constant": true
    },
    {
      "inputs": [],
      "name": "name",
      "outputs": [
        {
          "internalType": "string",
          "name": "",
          "type": "string"
        }
      ],
      "stateMutability": "view",
      "type": "function",
      "constant": true
    },
    {
      "inputs": [],
      "name": "owner",
      "outputs": [
        {
          "internalType": "address",
          "name": "",
          "type": "address"
        }
      ],
      "stateMutability": "view",
      "type": "function",
      "constant": true
    },
    {
      "inputs": [],
      "name": "paused",
      "outputs": [
        {
          "internalType": "bool",
          "name": "",
          "type": "bool"
        }
      ],
      "stateMutability": "view",
      "type": "function",
      "constant": true
    },
    {
      "inputs": [],
      "name": "renounceOwnership",
      "outputs": [],
      "stateMutability": "nonpayable",
      "type": "function"
    },
    {
      "inputs": [],
      "name": "symbol",
      "outputs": [
        {
          "internalType": "string",
          "name": "",
          "type": "string"
        }
      ],
      "stateMutability": "view",
      "type": "function",
      "constant": true
    },
    {
      "inputs": [],
      "name": "totalMinted",
      "outputs": [
        {
          "internalType": "uint256",
          "name": "",
          "type": "uint256"
        }
      ],
      "stateMutability": "view",
      "type": "function",
      "constant": true
    },
    {
      "inputs": [],
      "name": "totalSupply",
      "outputs": [
        {
          "internalType": "uint256",
          "name": "",
          "type": "uint256"
        }
      ],
      "stateMutability": "view",
      "type": "function",
      "constant": true
    },
    {
      "inputs": [
        {
          "internalType": "address",
          "name": "newOwner",
          "type": "address"
        }
      ],
      "name": "transferOwnership",
      "outputs": [],
      "stateMutability": "nonpayable",
      "type": "function"
    },
    {
      "inputs": [
        {
          "internalType": "address",
          "name": "_to",
          "type": "address"
        },
        {
          "internalType": "uint256",
          "name": "_amount",
          "type": "uint256"
        }
      ],
      "name": "mint",
      "outputs": [],
      "stateMutability": "nonpayable",
      "type": "function"
    },
    {
      "inputs": [
        {
          "internalType": "address[]",
          "name": "_recipients",
          "type": "address[]"
        },
        {
          "internalType": "uint256[]",
          "name": "_amounts",
          "type": "uint256[]"
        }
      ],
      "name": "batchMint",
      "outputs": [],
      "stateMutability": "nonpayable",
      "type": "function"
    },
    {
      "inputs": [
        {
          "internalType": "address",
          "name": "_minter",
          "type": "address"
        }
      ],
      "name": "addMinter",
      "outputs": [],
      "stateMutability": "nonpayable",
      "type": "function"
    },
    {
      "inputs": [
        {
          "internalType": "address",
          "name": "_minter",
          "type": "address"
        }
      ],
      "name": "removeMinter",
      "outputs": [],
      "stateMutability": "nonpayable",
      "type": "function"
    },
    {
      "inputs": [
        {
          "internalType": "address",
          "name": "_account",
          "type": "address"
        },
        {
          "internalType": "bool",
          "name": "_status",
          "type": "bool"
        }
      ],
      "name": "blacklist",
      "outputs": [],
      "stateMutability": "nonpayable",
      "type": "function"
    },
    {
      "inputs": [
        {
          "internalType": "address",
          "name": "_to",
          "type": "address"
        },
        {
          "internalType": "uint256",
          "name": "_amount",
          "type": "uint256"
        }
      ],
      "name": "transfer",
      "outputs": [
        {
          "internalType": "bool",
          "name": "",
          "type": "bool"
        }
      ],
      "stateMutability": "nonpayable",
      "type": "function"
    },
    {
      "inputs": [
        {
          "internalType": "address",
          "name": "_from",
          "type": "address"
        },
        {
          "internalType": "address",
          "name": "_to",
          "type": "address"
        },
        {
          "internalType": "uint256",
          "name": "_amount",
          "type": "uint256"
        }
      ],
      "name": "transferFrom",
      "outputs": [
        {
          "internalType": "bool",
          "name": "",
          "type": "bool"
        }
      ],
      "stateMutability": "nonpayable",
      "type": "function"
    },
    {
      "inputs": [],
      "name": "pause",
      "outputs": [],
      "stateMutability": "nonpayable",
      "type": "function"
    },
    {
      "inputs": [],
      "name": "unpause",
      "outputs": [],
      "stateMutability": "nonpayable",
      "type": "function"
    },
    {
      "inputs": [],
      "name": "getStats",
      "outputs": [
        {
          "internalType": "uint256",
          "name": "totalSupply_",
          "type": "uint256"
        },
        {
          "internalType": "uint256",
          "name": "maxSupply",
          "type": "uint256"
        },
        {
          "internalType": "uint256",
          "name": "circulating",
          "type": "uint256"
        },
        {
          "internalType": "uint256",
          "name": "minted",
          "type": "uint256"
        }
      ],
      "stateMutability": "view",
      "type": "function",
      "constant": true
    }
  ],
  "bytecode": "0x608060405234801562000010575f80fd5b50336040518060400160405280600981526020016853616e6a6565766e6960b81b8152506040518060400160405280600481526020016329a0a72560e11b815250816003908162000062919062000339565b50600462000071828262000339565b50506005805460ff19169055506001600160a01b038116620000ad57604051631e4fbdf760e01b81525f60048201526024015b60405180910390fd5b620000b881620000d5565b50620000cf3369d3c21bcecceda10000006200012e565b62000427565b600580546001600160a01b03838116610100818102610100600160a81b031985161790945560405193909204169182907f8be0079c531659141344cd1fd0a4f28419497f9722a3daafe3b4186f6b6457e0905f90a35050565b6001600160a01b038216620001595760405163ec442f0560e01b81525f6004820152602401620000a4565b620001665f83836200016a565b5050565b6001600160a01b03831662000198578060025f8282546200018c919062000401565b909155506200020a9050565b6001600160a01b0383165f9081526020819052604090205481811015620001ec5760405163391434e360e21b81526001600160a01b03851660048201526024810182905260448101839052606401620000a4565b6001600160a01b0384165f9081526020819052604090209082900390555b6001600160a01b038216620002285760028054829003905562000246565b6001600160a01b0382165f9081526020819052604090208054820190555b816001600160a01b0316836001600160a01b03167fddf252ad1be2c89b69c2b068fc378daa952ba7f163c4a11628f55a4df523b3ef836040516200028c91815260200190565b60405180910390a3505050565b634e487b7160e01b5f52604160045260245ffd5b600181811c90821680620002c257607f821691505b602082108103620002e157634e487b7160e01b5f52602260045260245ffd5b50919050565b601f82111562000334575f81815260208120601f850160051c810160208610156200030f5750805b601f850160051c820191505b8181101562000330578281556001016200031b565b5050505b505050565b81516001600160401b0381111562000355576200035562000299565b6200036d81620003668454620002ad565b84620002e7565b602080601f831160018114620003a3575f84156200038b5750858301515b5f19600386901b1c1916600185901b17855562000330565b5f85815260208120601f198616915b82811015620003d357888601518255948401946001909101908401620003b2565b5085821015620003f157878501515f19600388901b60f8161c191681555b5050505050600190811b01905550565b808201808211156200042157634e487b7160e01b5f52601160045260245ffd5b92915050565b61126a80620004355f395ff3fe608060405234801561000f575f80fd5b50600436106101a1575f3560e01c806370a08231116100f3578063a2309ff811610093578063dbac26e91161006e578063dbac26e914610373578063dd62ed3e14610395578063f2fde38b146103cd578063f46eccc4146103e0575f80fd5b8063a2309ff81461032f578063a9059cbb14610338578063c59d48471461034b575f80fd5b80638456cb59116100ce5780638456cb59146102e35780638da5cb5b146102eb57806395d89b4114610314578063983b2d561461031c575f80fd5b806370a08231146102a0578063715018a6146102c857806379cc6790146102d0575f80fd5b806332cb6b0c1161015e57806340c10f191161013957806340c10f191461025c57806342966c681461026f5780635c975abb14610282578063685731071461028d575f80fd5b806332cb6b0c1461022f5780633f4ba83a14610241578063404e512914610249575f80fd5b806306fdde03146101a5578063095ea7b3146101c357806318160ddd146101e657806323b872dd146101f85780633092afd51461020b578063313ce56714610220575b5f80fd5b6101ad610402565b6040516101ba9190610f86565b60405180910390f35b6101d66101d1366004610fec565b610492565b60405190151581526020016101ba565b6002545b6040519081526020016101ba565b6101d6610206366004611014565b6104ab565b61021e61021936600461104d565b6104f6565b005b604051601281526020016101ba565b6101ea6a52b7d2dcc80cd2e400000081565b61021e610546565b61021e610257366004611066565b610558565b61021e61026a366004610fec565b6105bf565b61021e61027d36600461109f565b6106e2565b60055460ff166101d6565b61021e61029b3660046110fe565b6106ef565b6101ea6102ae36600461104d565b6001600160a01b03165f9081526020819052604090205490565b61021e610934565b61021e6102de366004610fec565b610945565b61021e61095e565b60055461010090046001600160a01b03166040516001600160a01b0390911681526020016101ba565b6101ad61096e565b61021e61032a36600461104d565b61097d565b6101ea60085481565b6101d6610346366004610fec565b6109d0565b610353610a19565b6040805194855260208501939093529183015260608201526080016101ba565b6101d661038136600461104d565b60076020525f908152604090205460ff1681565b6101ea6103a3366004611165565b6001600160a01b039182165f90815260016020908152604080832093909416825291909152205490565b61021e6103db36600461104d565b610a6b565b6101d66103ee36600461104d565b60066020525f908152604090205460ff1681565b60606003805461041190611196565b80601f016020809104026020016040519081016040528092919081815260200182805461043d90611196565b80156104885780601f1061045f57610100808354040283529160200191610488565b820191905f5260205f20905b81548152906001019060200180831161046b57829003601f168201915b5050505050905090565b5f3361049f818585610aaa565b60019150505b92915050565b335f9081526007602052604081205460ff16156104db576040516364d09d6360e01b815260040160405180910390fd5b6104e3610abc565b6104ee848484610ae0565b949350505050565b6104fe610b03565b6001600160a01b0381165f81815260066020526040808220805460ff19169055517fe94479a9f7e1952cc78f2d6baab678adc1b772d936c6583def489e524cb666929190a250565b61054e610b03565b610556610b36565b565b610560610b03565b6001600160a01b0382165f81815260076020908152604091829020805460ff191685151590811790915591519182527fcf3473b85df1594d47b6958f29a32bea0abff9dd68296f7bf33443646793cfd891015b60405180910390a25050565b335f9081526006602052604090205460ff16158015610600575060055461010090046001600160a01b03166001600160a01b0316336001600160a01b031614155b1561061e57604051633e34a41b60e21b815260040160405180910390fd5b610626610abc565b6001600160a01b03821661064d5760405163d92e233d60e01b815260040160405180910390fd5b6a52b7d2dcc80cd2e40000008160085461066791906111e2565b111561068657604051638a164f6360e01b815260040160405180910390fd5b8060085f82825461069791906111e2565b909155506106a790508282610b88565b816001600160a01b03167f3f2c9d57c068687834f0de942a9babb9e5acab57d516d3480a3c16ee165a4273826040516105b391815260200190565b6106ec3382610bbc565b50565b335f9081526006602052604090205460ff16158015610730575060055461010090046001600160a01b03166001600160a01b0316336001600160a01b031614155b1561074e57604051633e34a41b60e21b815260040160405180910390fd5b610756610abc565b828114610779576040516001621398b960e31b0319815260040160405180910390fd5b5f5b8381101561092d575f858583818110610796576107966111f5565b90506020020160208101906107ab919061104d565b6001600160a01b0316036107d25760405163d92e233d60e01b815260040160405180910390fd5b6a52b7d2dcc80cd2e40000008383838181106107f0576107f06111f5565b9050602002013560085461080491906111e2565b111561082357604051638a164f6360e01b815260040160405180910390fd5b828282818110610835576108356111f5565b9050602002013560085f82825461084c91906111e2565b9091555061089a9050858583818110610867576108676111f5565b905060200201602081019061087c919061104d565b84848481811061088e5761088e6111f5565b90506020020135610b88565b8484828181106108ac576108ac6111f5565b90506020020160208101906108c1919061104d565b6001600160a01b03167f3f2c9d57c068687834f0de942a9babb9e5acab57d516d3480a3c16ee165a42738484848181106108fd576108fd6111f5565b9050602002013560405161091391815260200190565b60405180910390a28061092581611209565b91505061077b565b5050505050565b61093c610b03565b6105565f610bf0565b610950823383610c49565b61095a8282610bbc565b5050565b610966610b03565b610556610cc4565b60606004805461041190611196565b610985610b03565b6001600160a01b0381165f81815260066020526040808220805460ff19166001179055517f6ae172837ea30b801fbfcdd4108aa1d5bf8ff775444fd70256b44e6bf3dfc3f69190a250565b335f9081526007602052604081205460ff1615610a00576040516364d09d6360e01b815260040160405180910390fd5b610a08610abc565b610a128383610d01565b9392505050565b5f805f80610a2660025490565b6a52b7d2dcc80cd2e4000000610a4d6102ae6005546001600160a01b036101009091041690565b600254610a5a9190611221565b600854935093509350935090919293565b610a73610b03565b6001600160a01b038116610aa157604051631e4fbdf760e01b81525f60048201526024015b60405180910390fd5b6106ec81610bf0565b610ab78383836001610d0e565b505050565b60055460ff16156105565760405163d93c066560e01b815260040160405180910390fd5b5f33610aed858285610c49565b610af8858585610de0565b506001949350505050565b6005546001600160a01b036101009091041633146105565760405163118cdaa760e01b8152336004820152602401610a98565b610b3e610e3d565b6005805460ff191690557f5db9ee0a495bf2e6ff9c91a7834c1ba4fdd244a5e8aa4e537bd38aeae4b073aa335b6040516001600160a01b03909116815260200160405180910390a1565b6001600160a01b038216610bb15760405163ec442f0560e01b81525f6004820152602401610a98565b61095a5f8383610e60565b6001600160a01b038216610be557604051634b637e8f60e11b81525f6004820152602401610a98565b61095a825f83610e60565b600580546001600160a01b03838116610100818102610100600160a81b031985161790945560405193909204169182907f8be0079c531659141344cd1fd0a4f28419497f9722a3daafe3b4186f6b6457e0905f90a35050565b6001600160a01b038381165f908152600160209081526040808320938616835292905220545f198114610cbe5781811015610cb057604051637dc7a0d960e11b81526001600160a01b03841660048201526024810182905260448101839052606401610a98565b610cbe84848484035f610d0e565b50505050565b610ccc610abc565b6005805460ff191660011790557f62e78cea01bee320cd4e420270b5ea74000d11b0c9f74754ebdbfc544b05a258610b6b3390565b5f3361049f818585610de0565b6001600160a01b038416610d375760405163e602df0560e01b81525f6004820152602401610a98565b6001600160a01b038316610d6057604051634a1406b160e11b81525f6004820152602401610a98565b6001600160a01b038085165f9081526001602090815260408083209387168352929052208290558015610cbe57826001600160a01b0316846001600160a01b03167f8c5be1e5ebec7d5bd14f71427d1e84f3dd0314c0f7b2291e5b200ac8c7c3b92584604051610dd291815260200190565b60405180910390a350505050565b6001600160a01b038316610e0957604051634b637e8f60e11b81525f6004820152602401610a98565b6001600160a01b038216610e325760405163ec442f0560e01b81525f6004820152602401610a98565b610ab7838383610e60565b60055460ff1661055657604051638dfc202b60e01b815260040160405180910390fd5b6001600160a01b038316610e8a578060025f828254610e7f91906111e2565b90915550610efa9050565b6001600160a01b0383165f9081526020819052604090205481811015610edc5760405163391434e360e21b81526001600160a01b03851660048201526024810182905260448101839052606401610a98565b6001600160a01b0384165f9081526020819052604090209082900390555b6001600160a01b038216610f1657600280548290039055610f34565b6001600160a01b0382165f9081526020819052604090208054820190555b816001600160a01b0316836001600160a01b03167fddf252ad1be2c89b69c2b068fc378daa952ba7f163c4a11628f55a4df523b3ef83604051610f7991815260200190565b60405180910390a3505050565b5f6020808352835180828501525f5b81811015610fb157858101830151858201604001528201610f95565b505f604082860101526040601f19601f8301168501019250505092915050565b80356001600160a01b0381168114610fe7575f80fd5b919050565b5f8060408385031215610ffd575f80fd5b61100683610fd1565b946020939093013593505050565b5f805f60608486031215611026575f80fd5b61102f84610fd1565b925061103d60208501610fd1565b9150604084013590509250925092565b5f6020828403121561105d575f80fd5b610a1282610fd1565b5f8060408385031215611077575f80fd5b61108083610fd1565b915060208301358015158114611094575f80fd5b809150509250929050565b5f602082840312156110af575f80fd5b5035919050565b5f8083601f8401126110c6575f80fd5b50813567ffffffffffffffff8111156110dd575f80fd5b6020830191508360208260051b85010111156110f7575f80fd5b9250929050565b5f805f8060408587031215611111575f80fd5b843567ffffffffffffffff80821115611128575f80fd5b611134888389016110b6565b9096509450602087013591508082111561114c575f80fd5b50611159878288016110b6565b95989497509550505050565b5f8060408385031215611176575f80fd5b61117f83610fd1565b915061118d60208401610fd1565b90509250929050565b600181811c908216806111aa57607f821691505b6020821081036111c857634e487b7160e01b5f52602260045260245ffd5b50919050565b634e487b7160e01b5f52601160045260245ffd5b808201808211156104a5576104a56111ce565b634e487b7160e01b5f52603260045260245ffd5b5f6001820161121a5761121a6111ce565b5060010190565b818103818111156104a5576104a56111ce56fea26469706673582212200ac22ade770e5c1d920ba93501f1bd2e1f18551ba6203a81a4c3f9156442b0c364736f6c63430008140033",
  "immutableReferences": {},
  "source": "// SPDX-License-Identifier: MIT\r\npragma solidity ^0.8.20;\r\n\r\nimport \"@openzeppelin/contracts/token/ERC20/ERC20.sol\";\r\nimport \"@openzeppelin/contracts/token/ERC20/extensions/ERC20Burnable.sol\";\r\nimport \"@openzeppelin/contracts/access/Ownable.sol\";\r\nimport \"@openzeppelin/contracts/utils/Pausable.sol\";\r\n\r\ncontract SanjeevniToken is ERC20, ERC20Burnable, Pausable, Ownable {\r\n    mapping(address => bool) public minters;\r\n    mapping(address => bool) public blacklisted;\r\n    \r\n    uint256 public constant MAX_SUPPLY = 100_000_000 * 1e18; // 100M tokens\r\n    uint256 public totalMinted;\r\n    \r\n    event MinterAdded(address indexed minter);\r\n    event MinterRemoved(address indexed minter);\r\n    event Blacklisted(address indexed account, bool status);\r\n    event TokensMinted(address indexed to, uint256 amount);\r\n\r\n    error NotMinter();\r\n    error BlacklistedAccount();\r\n    error ZeroAddress();\r\n    error MaxSupplyExceeded();\r\n    error LengthMismatch();\r\n\r\n    modifier onlyMinter() {\r\n        if (!minters[msg.sender] && msg.sender != owner()) revert NotMinter();\r\n        _;\r\n    }\r\n\r\n    modifier notBlacklisted() {\r\n        if (blacklisted[msg.sender]) revert BlacklistedAccount();\r\n        _;\r\n    }\r\n\r\n    constructor() ERC20(\"Sanjeevni\", \"SANJ\") Ownable(msg.sender) {\r\n        _mint(msg.sender, 1_000_000 * 1e18); // 1M to deployer for liquidity\r\n    }\r\n\r\n    function mint(address _to, uint256 _amount) external onlyMinter whenNotPaused {\r\n        if (_to == address(0)) revert ZeroAddress();\r\n        if (totalMinted + _amount > MAX_SUPPLY) revert MaxSupplyExceeded();\r\n        \r\n        totalMinted += _amount;\r\n        _mint(_to, _amount);\r\n        emit TokensMinted(_to, _amount);\r\n    }\r\n\r\n    function batchMint(address[] calldata _recipients, uint256[] calldata _amounts) external onlyMinter whenNotPaused {\r\n        if (_recipients.length != _amounts.length) revert LengthMismatch();\r\n        \r\n        for (uint256 i = 0; i < _recipients.length; i++) {\r\n            if (_recipients[i] == address(0)) revert ZeroAddress();\r\n            if (totalMinted + _amounts[i] > MAX_SUPPLY) revert MaxSupplyExceeded();\r\n            \r\n            totalMinted += _amounts[i];\r\n            _mint(_recipients[i], _amounts[i]);\r\n            emit TokensMinted(_recipients[i], _amounts[i]);\r\n        }\r\n    }\r\n\r\n    function addMinter(address _minter) external onlyOwner {\r\n        minters[_minter] = true;\r\n        emit MinterAdded(_minter);\r\n    }\r\n\r\n    function removeMinter(address _minter) external onlyOwner {\r\n        minters[_minter] = false;\r\n        emit MinterRemoved(_minter);\r\n    }\r\n\r\n    function blacklist(address _account, bool _status) external onlyOwner {\r\n        blacklisted[_account] = _status;\r\n        emit Blacklisted(_account, _status);\r\n    }\r\n\r\n    function transfer(address _to, uint256 _amount) public override notBlacklisted whenNotPaused returns (bool) {\r\n        return super.transfer(_to, _amount);\r\n    }\r\n\r\n    function transferFrom(address _from, address _to, uint256 _amount) public override notBlacklisted whenNotPaused returns (bool) {\r\n        return super.transferFrom(_from, _to, _amount);\r\n    }\r\n\r\n    function pause() external onlyOwner {\r\n        _pause();\r\n    }\r\n\r\n    function unpause() external onlyOwner {\r\n        _unpause();\r\n    }\r\n\r\n    function getStats() external view returns (\r\n        uint256 totalSupply_,\r\n        uint256 maxSupply,\r\n        uint256 circulating,\r\n        uint256 minted\r\n    ) {\r\n        return (\r\n            totalSupply(),\r\n            MAX_SUPPLY,\r\n            totalSupply() - balanceOf(owner()),\r\n            totalMinted\r\n        );\r\n    }\r\n}",
  "sourcePath": "C:\\Users\\night\\Downloads\\team-rocket-medi-secure\\team-rocket-medi-secure\\contracts\\contracts\\SanjeevniToken.sol",
  "compiler": {
    "name": "solc",
    "version": "0.8.20+commit.a1b79de6.Emscripten.clang"
  },
  "schemaVersion": "3.4.16",
  "updatedAt": "2026-04-24T10:38:45.555Z",
  "networkType": "ethereum",
  "devdoc": {
    "errors": {
      "ERC20InsufficientAllowance(address,uint256,uint256)": [
        {
          "details": "Indicates a failure with the `spender`’s `allowance`. Used in transfers.",
          "params": {
            "allowance": "Amount of tokens a `spender` is allowed to operate with.",
            "needed": "Minimum amount required to perform a transfer.",
            "spender": "Address that may be allowed to operate on tokens without being their owner."
          }
        }
      ],
      "ERC20InsufficientBalance(address,uint256,uint256)": [
        {
          "details": "Indicates an error related to the current `balance` of a `sender`. Used in transfers.",
          "params": {
            "balance": "Current balance for the interacting account.",
            "needed": "Minimum amount required to perform a transfer.",
            "sender": "Address whose tokens are being transferred."
          }
        }
      ],
      "ERC20InvalidApprover(address)": [
        {
          "details": "Indicates a failure with the `approver` of a token to be approved. Used in approvals.",
          "params": {
            "approver": "Address initiating an approval operation."
          }
        }
      ],
      "ERC20InvalidReceiver(address)": [
        {
          "details": "Indicates a failure with the token `receiver`. Used in transfers.",
          "params": {
            "receiver": "Address to which tokens are being transferred."
          }
        }
      ],
      "ERC20InvalidSender(address)": [
        {
          "details": "Indicates a failure with the token `sender`. Used in transfers.",
          "params": {
            "sender": "Address whose tokens are being transferred."
          }
        }
      ],
      "ERC20InvalidSpender(address)": [
        {
          "details": "Indicates a failure with the `spender` to be approved. Used in approvals.",
          "params": {
            "spender": "Address that may be allowed to operate on tokens without being their owner."
          }
        }
      ],
      "EnforcedPause()": [
        {
          "details": "The operation failed because the contract is paused."
        }
      ],
      "ExpectedPause()": [
        {
          "details": "The operation failed because the contract is not paused."
        }
      ],
      "OwnableInvalidOwner(address)": [
        {
          "details": "The owner is not a valid owner account. (eg. `address(0)`)"
        }
      ],
      "OwnableUnauthorizedAccount(address)": [
        {
          "details": "The caller account is not authorized to perform an operation."
        }
      ]
    },
    "events": {
      "Approval(address,address,uint256)": {
        "details": "Emitted when the allowance of a `spender` for an `owner` is set by a call to {approve}. `value` is the new allowance."
      },
      "Paused(address)": {
        "details": "Emitted when the pause is triggered by `account`."
      },
      "Transfer(address,address,uint256)": {
        "details": "Emitted when `value` tokens are moved from one account (`from`) to another (`to`). Note that `value` may be zero."
      },
      "Unpaused(address)": {
        "details": "Emitted when the pause is lifted by `account`."
      }
    },
    "kind": "dev",
    "methods": {
      "allowance(address,address)": {
        "details": "See {IERC20-allowance}."
      },
      "approve(address,uint256)": {
        "details": "See {IERC20-approve}. NOTE: If `value` is the maximum `uint256`, the allowance is not updated on `transferFrom`. This is semantically equivalent to an infinite approval. Requirements: - `spender` cannot be the zero address."
      },
      "balanceOf(address)": {
        "details": "See {IERC20-balanceOf}."
      },
      "burn(uint256)": {
        "details": "Destroys a `value` amount of tokens from the caller. See {ERC20-_burn}."
      },
      "burnFrom(address,uint256)": {
        "details": "Destroys a `value` amount of tokens from `account`, deducting from the caller's allowance. See {ERC20-_burn} and {ERC20-allowance}. Requirements: - the caller must have allowance for ``accounts``'s tokens of at least `value`."
      },
      "decimals()": {
        "details": "Returns the number of decimals used to get its user representation. For example, if `decimals` equals `2`, a balance of `505` tokens should be displayed to a user as `5.05` (`505 / 10 ** 2`). Tokens usually opt for a value of 18, imitating the relationship between Ether and Wei. This is the default value returned by this function, unless it's overridden. NOTE: This information is only used for _display_ purposes: it in no way affects any of the arithmetic of the contract, including {IERC20-balanceOf} and {IERC20-transfer}."
      },
      "name()": {
        "details": "Returns the name of the token."
      },
      "owner()": {
        "details": "Returns the address of the current owner."
      },
      "paused()": {
        "details": "Returns true if the contract is paused, and false otherwise."
      },
      "renounceOwnership()": {
        "details": "Leaves the contract without owner. It will not be possible to call `onlyOwner` functions. Can only be called by the current owner. NOTE: Renouncing ownership will leave the contract without an owner, thereby disabling any functionality that is only available to the owner."
      },
      "symbol()": {
        "details": "Returns the symbol of the token, usually a shorter version of the name."
      },
      "totalSupply()": {
        "details": "See {IERC20-totalSupply}."
      },
      "transferOwnership(address)": {
        "details": "Transfers ownership of the contract to a new account (`newOwner`). Can only be called by the current owner."
      }
    },
    "version": 1
  },
  "userdoc": {
    "kind": "user",
    "methods": {},
    "version": 1
  }
}