{
  "contractName": "SanjeevniOracle",
  "abi": [
    {
      "inputs": [
        {
          "internalType": "address",
          "name": "_accessControl",
          "type": "address"
        },
        {
          "internalType": "address",
          "name": "_trustedForwarder",
          "type": "address"
        },
        {
          "internalType": "address",
          "name": "_priceFeed",
          "type": "address"
        }
      ],
      "stateMutability": "nonpayable",
      "type": "constructor"
    },
    {
      "anonymous": false,
      "inputs": [
        {
          "indexed": true,
          "internalType": "bytes32",
          "name": "dataHash",
          "type": "bytes32"
        },
        {
          "indexed": false,
          "internalType": "bool",
          "name": "isValid",
          "type": "bool"
        }
      ],
      "name": "DataValidated",
      "type": "event"
    },
    {
      "inputs": [],
      "name": "accessControl",
      "outputs": [
        {
          "internalType": "contract MediSecureAccessControl",
          "name": "",
          "type": "address"
        }
      ],
      "stateMutability": "view",
      "type": "function"
    },
    {
      "inputs": [
        {
          "internalType": "bytes32",
          "name": "role",
          "type": "bytes32"
        },
        {
          "internalType": "address",
          "name": "account",
          "type": "address"
        }
      ],
      "name": "hasRole",
      "outputs": [
        {
          "internalType": "bool",
          "name": "",
          "type": "bool"
        }
      ],
      "stateMutability": "view",
      "type": "function"
    },
    {
      "inputs": [
        {
          "internalType": "enum Roles",
          "name": "role",
          "type": "uint8"
        },
        {
          "internalType": "address",
          "name": "account",
          "type": "address"
        }
      ],
      "name": "hasRole",
      "outputs": [
        {
          "internalType": "bool",
          "name": "",
          "type": "bool"
        }
      ],
      "stateMutability": "view",
      "type": "function"
    },
    {
      "inputs": [
        {
          "internalType": "address",
          "name": "account",
          "type": "address"
        }
      ],
      "name": "isAdmin",
      "outputs": [
        {
          "internalType": "bool",
          "name": "",
          "type": "bool"
        }
      ],
      "stateMutability": "view",
      "type": "function"
    },
    {
      "inputs": [
        {
          "internalType": "address",
          "name": "forwarder",
          "type": "address"
        }
      ],
      "name": "isTrustedForwarder",
      "outputs": [
        {
          "internalType": "bool",
          "name": "",
          "type": "bool"
        }
      ],
      "stateMutability": "view",
      "type": "function"
    },
    {
      "inputs": [],
      "name": "trustedForwarder",
      "outputs": [
        {
          "internalType": "address",
          "name": "",
          "type": "address"
        }
      ],
      "stateMutability": "view",
      "type": "function"
    },
    {
      "inputs": [],
      "name": "getLatestDataPoint",
      "outputs": [
        {
          "internalType": "int256",
          "name": "",
          "type": "int256"
        }
      ],
      "stateMutability": "view",
      "type": "function"
    },
    {
      "inputs": [
        {
          "internalType": "bytes32",
          "name": "dataHash",
          "type": "bytes32"
        },
        {
          "internalType": "bytes",
          "name": "proof",
          "type": "bytes"
        }
      ],
      "name": "validateMedicalData",
      "outputs": [
        {
          "internalType": "bool",
          "name": "",
          "type": "bool"
        }
      ],
      "stateMutability": "nonpayable",
      "type": "function"
    }
  ],
  "bytecode": "0x60a060405234801561000f575f80fd5b5060405161088538038061088583398101604081905261002e916100a7565b6001600160a01b0380831660805283908390821615610062575f80546001600160a01b0319166001600160a01b0384161790555b5050600180546001600160a01b0319166001600160a01b0392909216919091179055506100e79050565b80516001600160a01b03811681146100a2575f80fd5b919050565b5f805f606084860312156100b9575f80fd5b6100c28461008c565b92506100d06020850161008c565b91506100de6040850161008c565b90509250925092565b60805161077961010c5f395f818160eb01528181610146015261044b01526107795ff3fe608060405234801561000f575f80fd5b5060043610610085575f3560e01c8063759a1f1811610058578063759a1f18146101315780637da0a8771461014457806391d148541461016a5780639e97b8f61461017d575f80fd5b806313007d551461008957806324d7806c146100b8578063572b6c05146100db5780635e7ccc2c1461011b575b5f80fd5b5f5461009b906001600160a01b031681565b6040516001600160a01b0390911681526020015b60405180910390f35b6100cb6100c63660046104d3565b610190565b60405190151581526020016100af565b6100cb6100e93660046104d3565b7f00000000000000000000000000000000000000000000000000000000000000006001600160a01b0390811691161490565b610123610207565b6040519081526020016100af565b6100cb61013f366004610500565b610288565b7f000000000000000000000000000000000000000000000000000000000000000061009b565b6100cb6101783660046105b5565b610398565b6100cb61018b3660046105df565b610413565b5f8054604051634f4bdc7b60e11b81526001600160a01b0390911690639e97b8f6906101c2908490869060040161060c565b602060405180830381865afa1580156101dd573d5f803e3d5ffd5b505050506040513d601f19601f820116820180604052508101906102019190610644565b92915050565b5f8060015f9054906101000a90046001600160a01b03166001600160a01b031663feaf968c6040518163ffffffff1660e01b815260040160a060405180830381865afa158015610259573d5f803e3d5ffd5b505050506040513d601f19601f8201168201806040525081019061027d919061067c565b509195945050505050565b5f80546001600160a01b0316639e97b8f6826102a2610445565b6040518363ffffffff1660e01b81526004016102bf92919061060c565b602060405180830381865afa1580156102da573d5f803e3d5ffd5b505050506040513d601f19601f820116820180604052508101906102fe9190610644565b6103595760405162461bcd60e51b815260206004820152602260248201527f416363657373436f6e74726f6c3a20726573747269637465642d746f2d61646d60448201526134b760f11b606482015260840160405180910390fd5b60405160018082529084907f9e68398c94bd1c813a49cf1bbd15b40674c1bf5b1126b782472f1801e944c04f9060200160405180910390a29392505050565b5f8054604051632474521560e21b8152600481018590526001600160a01b038481166024830152909116906391d14854906044015b602060405180830381865afa1580156103e8573d5f803e3d5ffd5b505050506040513d601f19601f8201168201806040525081019061040c9190610644565b9392505050565b5f8054604051634f4bdc7b60e11b81526001600160a01b0390911690639e97b8f6906103cd908690869060040161060c565b5f3660147f00000000000000000000000000000000000000000000000000000000000000006001600160a01b0316331480156104815750808210155b156104b0575f3661049283856106c8565b61049d9282906106e7565b6104a69161070e565b60601c9250505090565b339250505090565b80356001600160a01b03811681146104ce575f80fd5b919050565b5f602082840312156104e3575f80fd5b61040c826104b8565b634e487b7160e01b5f52604160045260245ffd5b5f8060408385031215610511575f80fd5b82359150602083013567ffffffffffffffff8082111561052f575f80fd5b818501915085601f830112610542575f80fd5b813581811115610554576105546104ec565b604051601f8201601f19908116603f0116810190838211818310171561057c5761057c6104ec565b81604052828152886020848701011115610594575f80fd5b826020860160208301375f6020848301015280955050505050509250929050565b5f80604083850312156105c6575f80fd5b823591506105d6602084016104b8565b90509250929050565b5f80604083850312156105f0575f80fd5b8235600981106105fe575f80fd5b91506105d6602084016104b8565b604081016009841061062c57634e487b7160e01b5f52602160045260245ffd5b9281526001600160a01b039190911660209091015290565b5f60208284031215610654575f80fd5b8151801515811461040c575f80fd5b805169ffffffffffffffffffff811681146104ce575f80fd5b5f805f805f60a08688031215610690575f80fd5b61069986610663565b94506020860151935060408601519250606086015191506106bc60808701610663565b90509295509295909350565b8181038181111561020157634e487b7160e01b5f52601160045260245ffd5b5f80858511156106f5575f80fd5b83861115610701575f80fd5b5050820193919092039150565b6bffffffffffffffffffffffff19813581811691601485101561073b5780818660140360031b1b83161692505b50509291505056fea26469706673582212203b253fe0ca44262aaa40b5e8ec8378d64a221da2df827d8a5101d9dd41676b0464736f6c63430008140033",
  "immutableReferences": {
    "4782": [
      {
        "length": 32,
        "start": 235
      },
      {
        "length": 32,
        "start": 326
      },
      {
        "length": 32,
        "start": 1099
      }
    ]
  },
  "source": "// SPDX-License-Identifier: MIT\r\npragma solidity ^0.8.20;\r\n\r\nimport \"@chainlink/contracts/src/v0.8/shared/interfaces/AggregatorV3Interface.sol\";\r\nimport \"./common/MediSecureAuth.sol\";\r\n\r\n/**\r\n * @title SanjeevniOracle\r\n * @dev Custom oracle for medical data validation and reward calculations.\r\n */\r\ncontract SanjeevniOracle is MediSecureAuth {\r\n    \r\n    AggregatorV3Interface internal dataFeed;\r\n\r\n    event DataValidated(bytes32 indexed dataHash, bool isValid);\r\n\r\n    constructor(address _accessControl, address _trustedForwarder, address _priceFeed) \r\n        MediSecureAuth(_accessControl, _trustedForwarder) \r\n    {\r\n        dataFeed = AggregatorV3Interface(_priceFeed);\r\n    }\r\n\r\n    /**\r\n     * @dev Returns the latest price from the feed.\r\n     */\r\n    function getLatestDataPoint() public view returns (int) {\r\n        (\r\n            , \r\n            int data,\r\n            ,\r\n            ,\r\n        ) = dataFeed.latestRoundData();\r\n        return data;\r\n    }\r\n\r\n    function validateMedicalData(bytes32 dataHash, bytes memory proof) public onlyAdmin returns (bool) {\r\n        // Logic for off-chain proof verification could be added here\r\n        bool isValid = true; \r\n        emit DataValidated(dataHash, isValid);\r\n        return isValid;\r\n    }\r\n}",
  "sourcePath": "C:\\Users\\night\\Downloads\\team-rocket-medi-secure\\team-rocket-medi-secure\\contracts\\contracts\\SanjeevniOracle.sol",
  "compiler": {
    "name": "solc",
    "version": "0.8.20+commit.a1b79de6.Emscripten.clang"
  },
  "schemaVersion": "3.4.16",
  "updatedAt": "2026-04-24T10:38:31.173Z",
  "devdoc": {
    "details": "Custom oracle for medical data validation and reward calculations.",
    "kind": "dev",
    "methods": {
      "getLatestDataPoint()": {
        "details": "Returns the latest price from the feed."
      },
      "isTrustedForwarder(address)": {
        "details": "Indicates whether any particular address is the trusted forwarder."
      },
      "trustedForwarder()": {
        "details": "Returns the address of the trusted forwarder."
      }
    },
    "title": "SanjeevniOracle",
    "version": 1
  },
  "userdoc": {
    "kind": "user",
    "methods": {},
    "version": 1
  }
}