{
  "contractName": "TokenVesting",
  "abi": [
    {
      "inputs": [
        {
          "internalType": "address",
          "name": "_token",
          "type": "address"
        },
        {
          "internalType": "address",
          "name": "_trustedForwarder",
          "type": "address"
        }
      ],
      "stateMutability": "nonpayable",
      "type": "constructor"
    },
    {
      "inputs": [
        {
          "internalType": "address",
          "name": "target",
          "type": "address"
        }
      ],
      "name": "AddressEmptyCode",
      "type": "error"
    },
    {
      "inputs": [
        {
          "internalType": "address",
          "name": "account",
          "type": "address"
        }
      ],
      "name": "AddressInsufficientBalance",
      "type": "error"
    },
    {
      "inputs": [],
      "name": "AlreadyRevoked",
      "type": "error"
    },
    {
      "inputs": [],
      "name": "FailedInnerCall",
      "type": "error"
    },
    {
      "inputs": [],
      "name": "InvalidAddress",
      "type": "error"
    },
    {
      "inputs": [],
      "name": "InvalidAmount",
      "type": "error"
    },
    {
      "inputs": [],
      "name": "InvalidDuration",
      "type": "error"
    },
    {
      "inputs": [],
      "name": "NoTokensToRelease",
      "type": "error"
    },
    {
      "inputs": [],
      "name": "NotRevocable",
      "type": "error"
    },
    {
      "inputs": [
        {
          "internalType": "address",
          "name": "owner",
          "type": "address"
        }
      ],
      "name": "OwnableInvalidOwner",
      "type": "error"
    },
    {
      "inputs": [
        {
          "internalType": "address",
          "name": "account",
          "type": "address"
        }
      ],
      "name": "OwnableUnauthorizedAccount",
      "type": "error"
    },
    {
      "inputs": [
        {
          "internalType": "address",
          "name": "token",
          "type": "address"
        }
      ],
      "name": "SafeERC20FailedOperation",
      "type": "error"
    },
    {
      "inputs": [],
      "name": "Unauthorized",
      "type": "error"
    },
    {
      "anonymous": false,
      "inputs": [
        {
          "indexed": true,
          "internalType": "address",
          "name": "previousOwner",
          "type": "address"
        },
        {
          "indexed": true,
          "internalType": "address",
          "name": "newOwner",
          "type": "address"
        }
      ],
      "name": "OwnershipTransferred",
      "type": "event"
    },
    {
      "anonymous": false,
      "inputs": [
        {
          "indexed": true,
          "internalType": "bytes32",
          "name": "scheduleId",
          "type": "bytes32"
        },
        {
          "indexed": false,
          "internalType": "uint256",
          "name": "amount",
          "type": "uint256"
        }
      ],
      "name": "TokensReleased",
      "type": "event"
    },
    {
      "anonymous": false,
      "inputs": [
        {
          "indexed": true,
          "internalType": "bytes32",
          "name": "scheduleId",
          "type": "bytes32"
        },
        {
          "indexed": true,
          "internalType": "address",
          "name": "beneficiary",
          "type": "address"
        },
        {
          "indexed": false,
          "internalType": "uint256",
          "name": "amount",
          "type": "uint256"
        }
      ],
      "name": "VestingCreated",
      "type": "event"
    },
    {
      "anonymous": false,
      "inputs": [
        {
          "indexed": true,
          "internalType": "bytes32",
          "name": "scheduleId",
          "type": "bytes32"
        }
      ],
      "name": "VestingRevoked",
      "type": "event"
    },
    {
      "inputs": [
        {
          "internalType": "address",
          "name": "",
          "type": "address"
        },
        {
          "internalType": "uint256",
          "name": "",
          "type": "uint256"
        }
      ],
      "name": "beneficiarySchedules",
      "outputs": [
        {
          "internalType": "bytes32",
          "name": "",
          "type": "bytes32"
        }
      ],
      "stateMutability": "view",
      "type": "function"
    },
    {
      "inputs": [
        {
          "internalType": "address",
          "name": "forwarder",
          "type": "address"
        }
      ],
      "name": "isTrustedForwarder",
      "outputs": [
        {
          "internalType": "bool",
          "name": "",
          "type": "bool"
        }
      ],
      "stateMutability": "view",
      "type": "function"
    },
    {
      "inputs": [],
      "name": "owner",
      "outputs": [
        {
          "internalType": "address",
          "name": "",
          "type": "address"
        }
      ],
      "stateMutability": "view",
      "type": "function"
    },
    {
      "inputs": [],
      "name": "renounceOwnership",
      "outputs": [],
      "stateMutability": "nonpayable",
      "type": "function"
    },
    {
      "inputs": [],
      "name": "token",
      "outputs": [
        {
          "internalType": "contract IERC20",
          "name": "",
          "type": "address"
        }
      ],
      "stateMutability": "view",
      "type": "function"
    },
    {
      "inputs": [],
      "name": "totalVested",
      "outputs": [
        {
          "internalType": "uint256",
          "name": "",
          "type": "uint256"
        }
      ],
      "stateMutability": "view",
      "type": "function"
    },
    {
      "inputs": [
        {
          "internalType": "address",
          "name": "newOwner",
          "type": "address"
        }
      ],
      "name": "transferOwnership",
      "outputs": [],
      "stateMutability": "nonpayable",
      "type": "function"
    },
    {
      "inputs": [],
      "name": "trustedForwarder",
      "outputs": [
        {
          "internalType": "address",
          "name": "",
          "type": "address"
        }
      ],
      "stateMutability": "view",
      "type": "function"
    },
    {
      "inputs": [
        {
          "internalType": "bytes32",
          "name": "",
          "type": "bytes32"
        }
      ],
      "name": "vestingSchedules",
      "outputs": [
        {
          "internalType": "address",
          "name": "beneficiary",
          "type": "address"
        },
        {
          "internalType": "uint256",
          "name": "totalAmount",
          "type": "uint256"
        },
        {
          "internalType": "uint256",
          "name": "startTime",
          "type": "uint256"
        },
        {
          "internalType": "uint256",
          "name": "cliffDuration",
          "type": "uint256"
        },
        {
          "internalType": "uint256",
          "name": "duration",
          "type": "uint256"
        },
        {
          "internalType": "uint256",
          "name": "released",
          "type": "uint256"
        },
        {
          "internalType": "bool",
          "name": "revocable",
          "type": "bool"
        },
        {
          "internalType": "bool",
          "name": "revoked",
          "type": "bool"
        }
      ],
      "stateMutability": "view",
      "type": "function"
    },
    {
      "inputs": [
        {
          "internalType": "address",
          "name": "_beneficiary",
          "type": "address"
        },
        {
          "internalType": "uint256",
          "name": "_totalAmount",
          "type": "uint256"
        },
        {
          "internalType": "uint256",
          "name": "_cliffDuration",
          "type": "uint256"
        },
        {
          "internalType": "uint256",
          "name": "_duration",
          "type": "uint256"
        },
        {
          "internalType": "bool",
          "name": "_revocable",
          "type": "bool"
        }
      ],
      "name": "createVesting",
      "outputs": [
        {
          "internalType": "bytes32",
          "name": "scheduleId",
          "type": "bytes32"
        }
      ],
      "stateMutability": "nonpayable",
      "type": "function"
    },
    {
      "inputs": [],
      "name": "claim",
      "outputs": [
        {
          "internalType": "uint256",
          "name": "releasedAmount",
          "type": "uint256"
        }
      ],
      "stateMutability": "nonpayable",
      "type": "function"
    },
    {
      "inputs": [
        {
          "internalType": "address",
          "name": "_beneficiary",
          "type": "address"
        }
      ],
      "name": "getReleasableAmount",
      "outputs": [
        {
          "internalType": "uint256",
          "name": "",
          "type": "uint256"
        }
      ],
      "stateMutability": "view",
      "type": "function"
    },
    {
      "inputs": [
        {
          "internalType": "bytes32",
          "name": "_scheduleId",
          "type": "bytes32"
        }
      ],
      "name": "revokeVesting",
      "outputs": [],
      "stateMutability": "nonpayable",
      "type": "function"
    },
    {
      "inputs": [
        {
          "internalType": "address",
          "name": "_beneficiary",
          "type": "address"
        }
      ],
      "name": "getBeneficiarySchedules",
      "outputs": [
        {
          "internalType": "bytes32[]",
          "name": "",
          "type": "bytes32[]"
        }
      ],
      "stateMutability": "view",
      "type": "function"
    },
    {
      "inputs": [
        {
          "internalType": "bytes32",
          "name": "_scheduleId",
          "type": "bytes32"
        }
      ],
      "name": "getScheduleDetails",
      "outputs": [
        {
          "internalType": "address",
          "name": "beneficiary",
          "type": "address"
        },
        {
          "internalType": "uint256",
          "name": "totalAmount",
          "type": "uint256"
        },
        {
          "internalType": "uint256",
          "name": "released",
          "type": "uint256"
        },
        {
          "internalType": "uint256",
          "name": "releasable",
          "type": "uint256"
        },
        {
          "internalType": "bool",
          "name": "revocable",
          "type": "bool"
        },
        {
          "internalType": "bool",
          "name": "revoked",
          "type": "bool"
        }
      ],
      "stateMutability": "view",
      "type": "function"
    }
  ],
  "bytecode": "0x60c060405234801562000010575f80fd5b5060405162001336380380620013368339810160408190526200003391620001b4565b806200003e620000b9565b6001600160a01b0381166200006c57604051631e4fbdf760e01b81525f600482015260240160405180910390fd5b6200007781620000c9565b506001600160a01b039081166080528216620000a65760405163e6c4247b60e01b815260040160405180910390fd5b506001600160a01b031660a0526200026a565b5f620000c462000118565b905090565b5f80546001600160a01b038381166001600160a01b0319831681178455604051919092169283917f8be0079c531659141344cd1fd0a4f28419497f9722a3daafe3b4186f6b6457e09190a35050565b5f366014620001273362000172565b8015620001345750808210155b156200016a575f36620001488385620001ea565b6200015592829062000210565b620001609162000239565b60601c9250505090565b339250505090565b5f6200017d60805190565b6001600160a01b0316826001600160a01b0316149050919050565b80516001600160a01b0381168114620001af575f80fd5b919050565b5f8060408385031215620001c6575f80fd5b620001d18362000198565b9150620001e16020840162000198565b90509250929050565b818103818111156200020a57634e487b7160e01b5f52601160045260245ffd5b92915050565b5f80858511156200021f575f80fd5b838611156200022c575f80fd5b5050820193919092039150565b6001600160601b03198135818116916014851015620002625780818660140360031b1b83161692505b505092915050565b60805160a051611087620002af5f395f81816103380152818161058d0152818161084b01526109bc01525f81816101af015281816102a50152610c3801526110875ff3fe608060405234801561000f575f80fd5b50600436106100f0575f3560e01c806360417887116100935780638fdd511e116100635780638fdd511e146102ed578063b8900aa71461030d578063f2fde38b14610320578063fc0c546a14610333575f80fd5b806360417887146101ef578063715018a6146102995780637da0a877146102a35780638da5cb5b146102dd575f80fd5b80632afd1a7d116100ce5780632afd1a7d1461017157806346ca4241146101845780634e71d92d14610197578063572b6c051461019f575f80fd5b8063199cbc54146100f457806324ff026b1461011057806326855d691461015e575b5f80fd5b6100fd60035481565b6040519081526020015b60405180910390f35b61012361011e366004610dff565b61035a565b604080516001600160a01b039097168752602087019590955293850192909252606084015215156080830152151560a082015260c001610107565b6100fd61016c366004610e3e565b6103c3565b6100fd61017f366004610e8e565b610602565b6100fd610192366004610ea7565b6106bf565b6100fd6106ea565b6101df6101ad366004610e8e565b7f00000000000000000000000000000000000000000000000000000000000000006001600160a01b0390811691161490565b6040519015158152602001610107565b6102506101fd366004610dff565b600160208190525f918252604090912080549181015460028201546003830154600484015460058501546006909501546001600160a01b0390961695939492939192909160ff8082169161010090041688565b604080516001600160a01b0390991689526020890197909752958701949094526060860192909252608085015260a0840152151560c0830152151560e082015261010001610107565b6102a1610879565b005b7f00000000000000000000000000000000000000000000000000000000000000005b6040516001600160a01b039091168152602001610107565b5f546001600160a01b03166102c5565b6103006102fb366004610e8e565b61088c565b6040516101079190610ecf565b6102a161031b366004610dff565b6108f5565b6102a161032e366004610e8e565b610a12565b6102c57f000000000000000000000000000000000000000000000000000000000000000081565b5f81815260016020819052604082208054918101546005820154849384938493849384936001600160a01b031691908061039385610a54565b61039d9190610f26565b60069490940154929b919a50985091965060ff8082169650610100909104169350915050565b5f6103cc610acc565b6001600160a01b0386166103f35760405163e6c4247b60e01b815260040160405180910390fd5b845f036104135760405163162908e360e11b815260040160405180910390fd5b825f0361043357604051637616640160e01b815260040160405180910390fd5b5060408051606087901b6bffffffffffffffffffffffff1916602080830191909152603482018790524260548084018290528451808503909101815260748401808652815191840191909120610174850186526001600160a01b03808c16808452609487018c815260b4880195865260d488018c815260f489018c81525f6101148b018181528d15156101348d01908152610154909c018281528883526001808d528e84209a518b5499166001600160a01b0319909916989098178a5594518988015598516002808a019190915592516003808a01919091559151600489015597516005880155985160069096018054925115156101000261ff00199715159790971661ffff19909316929092179590951790558452918452948220805491820181558252918120909101839055815487929190610572908490610f39565b909155506105b59050610583610b29565b6001600160a01b037f000000000000000000000000000000000000000000000000000000000000000016903088610b37565b856001600160a01b0316817f9c550cbfc002e2d474c81a28bfec4830553d15cadbf57242afdc7510f2cb6714876040516105f191815260200190565b60405180910390a395945050505050565b6001600160a01b0381165f90815260026020526040812081805b82548110156106b7575f60015f85848154811061063b5761063b610f4c565b905f5260205f20015481526020019081526020015f2090508060060160019054906101000a900460ff161561067057506106a7565b5f61067a82610a54565b905081600501548111156106a45760058201546106979082610f26565b6106a19085610f39565b93505b50505b6106b081610f60565b905061061c565b509392505050565b6002602052815f5260405f2081815481106106d8575f80fd5b905f5260205f20015f91509150505481565b5f806106f4610b29565b6001600160a01b0381165f908152600260205260408120919250805b825481101561081d575f60015f85848154811061072f5761072f610f4c565b905f5260205f20015481526020019081526020015f2090508060060160019054906101000a900460ff1615610764575061080d565b5f61076e82610a54565b9050816005015481111561080a575f82600501548261078d9190610f26565b905080836005015f8282546107a29190610f39565b909155506107b290508186610f39565b94508584815481106107c6576107c6610f4c565b905f5260205f2001547f7e7eb8def93882018eb053721bca2801550a422e8176c587e1ad367fcc4fdc9d8260405161080091815260200190565b60405180910390a2505b50505b61081681610f60565b9050610710565b50805f0361083e5760405163094b911b60e41b815260040160405180910390fd5b6108726001600160a01b037f0000000000000000000000000000000000000000000000000000000000000000168483610ba4565b9392505050565b610881610acc565b61088a5f610bda565b565b6001600160a01b0381165f908152600260209081526040918290208054835181840281018401909452808452606093928301828280156108e957602002820191905f5260205f20905b8154815260200190600101908083116108d5575b50505050509050919050565b6108fd610acc565b5f818152600160205260409020600681015460ff1661092f57604051639414820d60e01b815260040160405180910390fd5b6006810154610100900460ff161561095a5760405163905e710760e01b815260040160405180910390fd5b60068101805461ff001916610100179055600581015460018201545f9161098091610f26565b90508060035f8282546109939190610f26565b909155505080156109e3576109e36109b25f546001600160a01b031690565b6001600160a01b037f0000000000000000000000000000000000000000000000000000000000000000169083610ba4565b60405183907f8813e00e6b3387d6d203de4d34d29edffcbd1905c4338ca2faf29a673f9769f6905f90a2505050565b610a1a610acc565b6001600160a01b038116610a4857604051631e4fbdf760e01b81525f60048201526024015b60405180910390fd5b610a5181610bda565b50565b5f81600301548260020154610a699190610f39565b421015610a7757505f919050565b81600401548260020154610a8b9190610f39565b4210610a9957506001015490565b60048201546002830154610aad9042610f26565b8360010154610abc9190610f78565b610ac69190610f8f565b92915050565b610ad4610b29565b6001600160a01b0316610aee5f546001600160a01b031690565b6001600160a01b03161461088a57610b04610b29565b60405163118cdaa760e01b81526001600160a01b039091166004820152602401610a3f565b5f610b32610c29565b905090565b6040516001600160a01b038481166024830152838116604483015260648201839052610b9e9186918216906323b872dd906084015b604051602081830303815290604052915060e01b6020820180516001600160e01b038381831617835250505050610c9c565b50505050565b6040516001600160a01b03838116602483015260448201839052610bd591859182169063a9059cbb90606401610b6c565b505050565b5f80546001600160a01b038381166001600160a01b0319831681178455604051919092169283917f8be0079c531659141344cd1fd0a4f28419497f9722a3daafe3b4186f6b6457e09190a35050565b5f366014336001600160a01b037f000000000000000000000000000000000000000000000000000000000000000016148015610c655750808210155b15610c94575f36610c768385610f26565b610c81928290610fae565b610c8a91610fd5565b60601c9250505090565b339250505090565b5f610cb06001600160a01b03841683610cfd565b905080515f14158015610cd4575080806020019051810190610cd2919061100a565b155b15610bd557604051635274afe760e01b81526001600160a01b0384166004820152602401610a3f565b606061087283835f845f80856001600160a01b03168486604051610d219190611025565b5f6040518083038185875af1925050503d805f8114610d5b576040519150601f19603f3d011682016040523d82523d5f602084013e610d60565b606091505b5091509150610d70868383610d7a565b9695505050505050565b606082610d8f57610d8a82610dd6565b610872565b8151158015610da657506001600160a01b0384163b155b15610dcf57604051639996b31560e01b81526001600160a01b0385166004820152602401610a3f565b5080610872565b805115610de65780518082602001fd5b604051630a12f52160e11b815260040160405180910390fd5b5f60208284031215610e0f575f80fd5b5035919050565b80356001600160a01b0381168114610e2c575f80fd5b919050565b8015158114610a51575f80fd5b5f805f805f60a08688031215610e52575f80fd5b610e5b86610e16565b94506020860135935060408601359250606086013591506080860135610e8081610e31565b809150509295509295909350565b5f60208284031215610e9e575f80fd5b61087282610e16565b5f8060408385031215610eb8575f80fd5b610ec183610e16565b946020939093013593505050565b602080825282518282018190525f9190848201906040850190845b81811015610f0657835183529284019291840191600101610eea565b50909695505050505050565b634e487b7160e01b5f52601160045260245ffd5b81810381811115610ac657610ac6610f12565b80820180821115610ac657610ac6610f12565b634e487b7160e01b5f52603260045260245ffd5b5f60018201610f7157610f71610f12565b5060010190565b8082028115828204841417610ac657610ac6610f12565b5f82610fa957634e487b7160e01b5f52601260045260245ffd5b500490565b5f8085851115610fbc575f80fd5b83861115610fc8575f80fd5b5050820193919092039150565b6bffffffffffffffffffffffff1981358181169160148510156110025780818660140360031b1b83161692505b505092915050565b5f6020828403121561101a575f80fd5b815161087281610e31565b5f82515f5b81811015611044576020818601810151858301520161102a565b505f92019182525091905056fea264697066735822122048f37638f1a4cb7abcde9390e6bb3ee488c6f6d6aa75421477ab1717c4870aba64736f6c63430008140033",
  "immutableReferences": {
    "4782": [
      {
        "length": 32,
        "start": 431
      },
      {
        "length": 32,
        "start": 677
      },
      {
        "length": 32,
        "start": 3128
      }
    ],
    "25195": [
      {
        "length": 32,
        "start": 824
      },
      {
        "length": 32,
        "start": 1421
      },
      {
        "length": 32,
        "start": 2123
      },
      {
        "length": 32,
        "start": 2492
      }
    ]
  },
  "source": "// SPDX-License-Identifier: MIT\r\npragma solidity ^0.8.20;\r\n\r\nimport \"@openzeppelin/contracts/token/ERC20/IERC20.sol\";\r\nimport \"@openzeppelin/contracts/token/ERC20/utils/SafeERC20.sol\";\r\nimport \"@openzeppelin/contracts/access/Ownable.sol\";\r\nimport \"@openzeppelin/contracts/metatx/ERC2771Context.sol\";\r\n\r\n/**\r\n * @title TokenVesting\r\n * @dev Manages token release schedules for team and investors. Now supports EIP-2771 Gasless claims.\r\n */\r\ncontract TokenVesting is Ownable, ERC2771Context {\r\n    using SafeERC20 for IERC20;\r\n\r\n    // Custom Errors\r\n    error InvalidAddress();\r\n    error InvalidAmount();\r\n    error InvalidDuration();\r\n    error NoTokensToRelease();\r\n    error NotRevocable();\r\n    error AlreadyRevoked();\r\n    error Unauthorized();\r\n\r\n    struct VestingSchedule {\r\n        address beneficiary;\r\n        uint256 totalAmount;\r\n        uint256 startTime;\r\n        uint256 cliffDuration;\r\n        uint256 duration;\r\n        uint256 released;\r\n        bool revocable;\r\n        bool revoked;\r\n    }\r\n\r\n    IERC20 public immutable token;\r\n    mapping(bytes32 => VestingSchedule) public vestingSchedules;\r\n    mapping(address => bytes32[]) public beneficiarySchedules;\r\n    \r\n    uint256 public totalVested;\r\n    \r\n    event VestingCreated(bytes32 indexed scheduleId, address indexed beneficiary, uint256 amount);\r\n    event TokensReleased(bytes32 indexed scheduleId, uint256 amount);\r\n    event VestingRevoked(bytes32 indexed scheduleId);\r\n\r\n    constructor(address _token, address _trustedForwarder) \r\n        Ownable(_msgSender()) \r\n        ERC2771Context(_trustedForwarder) \r\n    {\r\n        if (_token == address(0)) revert InvalidAddress();\r\n        token = IERC20(_token);\r\n    }\r\n\r\n    function _msgSender() internal view override(Context, ERC2771Context) returns (address) {\r\n        return ERC2771Context._msgSender();\r\n    }\r\n\r\n    function _msgData() internal view override(Context, ERC2771Context) returns (bytes calldata) {\r\n        return ERC2771Context._msgData();\r\n    }\r\n\r\n    function _contextSuffixLength() internal view override(Context, ERC2771Context) returns (uint256) {\r\n        return ERC2771Context._contextSuffixLength();\r\n    }\r\n\r\n    function createVesting(\r\n        address _beneficiary,\r\n        uint256 _totalAmount,\r\n        uint256 _cliffDuration,\r\n        uint256 _duration,\r\n        bool _revocable\r\n    ) external onlyOwner returns (bytes32 scheduleId) {\r\n        if (_beneficiary == address(0)) revert InvalidAddress();\r\n        if (_totalAmount == 0) revert InvalidAmount();\r\n        if (_duration == 0) revert InvalidDuration();\r\n        \r\n        scheduleId = keccak256(abi.encodePacked(_beneficiary, _totalAmount, block.timestamp));\r\n        \r\n        vestingSchedules[scheduleId] = VestingSchedule({\r\n            beneficiary: _beneficiary,\r\n            totalAmount: _totalAmount,\r\n            startTime: block.timestamp,\r\n            cliffDuration: _cliffDuration,\r\n            duration: _duration,\r\n            released: 0,\r\n            revocable: _revocable,\r\n            revoked: false\r\n        });\r\n        \r\n        beneficiarySchedules[_beneficiary].push(scheduleId);\r\n        totalVested += _totalAmount;\r\n        \r\n        token.safeTransferFrom(_msgSender(), address(this), _totalAmount);\r\n        emit VestingCreated(scheduleId, _beneficiary, _totalAmount);\r\n    }\r\n\r\n    /**\r\n     * @dev Allows beneficiaries to claim their vested tokens. Supports gasless relayers.\r\n     */\r\n    function claim() external returns (uint256 releasedAmount) {\r\n        address sender = _msgSender();\r\n        bytes32[] storage scheduleIds = beneficiarySchedules[sender];\r\n        uint256 totalRelease;\r\n        \r\n        for (uint256 i = 0; i < scheduleIds.length; ++i) {\r\n            VestingSchedule storage schedule = vestingSchedules[scheduleIds[i]];\r\n            if (schedule.revoked) continue;\r\n            \r\n            uint256 vestedAmount = calculateVestedAmount(schedule);\r\n            if (vestedAmount > schedule.released) {\r\n                uint256 releasable = vestedAmount - schedule.released;\r\n                schedule.released += releasable;\r\n                totalRelease += releasable;\r\n                emit TokensReleased(scheduleIds[i], releasable);\r\n            }\r\n        }\r\n        \r\n        if (totalRelease == 0) revert NoTokensToRelease();\r\n        token.safeTransfer(sender, totalRelease);\r\n        return totalRelease;\r\n    }\r\n\r\n    function calculateVestedAmount(VestingSchedule storage _schedule) internal view returns (uint256) {\r\n        if (block.timestamp < _schedule.startTime + _schedule.cliffDuration) {\r\n            return 0;\r\n        }\r\n        if (block.timestamp >= _schedule.startTime + _schedule.duration) {\r\n            return _schedule.totalAmount;\r\n        }\r\n        return (_schedule.totalAmount * (block.timestamp - _schedule.startTime)) / _schedule.duration;\r\n    }\r\n\r\n    function getReleasableAmount(address _beneficiary) external view returns (uint256) {\r\n        bytes32[] storage scheduleIds = beneficiarySchedules[_beneficiary];\r\n        uint256 totalRelease;\r\n        \r\n        for (uint256 i = 0; i < scheduleIds.length; ++i) {\r\n            VestingSchedule storage schedule = vestingSchedules[scheduleIds[i]];\r\n            if (schedule.revoked) continue;\r\n            \r\n            uint256 vestedAmount = calculateVestedAmount(schedule);\r\n            if (vestedAmount > schedule.released) {\r\n                totalRelease += vestedAmount - schedule.released;\r\n            }\r\n        }\r\n        return totalRelease;\r\n    }\r\n\r\n    function revokeVesting(bytes32 _scheduleId) external onlyOwner {\r\n        VestingSchedule storage schedule = vestingSchedules[_scheduleId];\r\n        if (!schedule.revocable) revert NotRevocable();\r\n        if (schedule.revoked) revert AlreadyRevoked();\r\n        \r\n        schedule.revoked = true;\r\n        uint256 remaining = schedule.totalAmount - schedule.released;\r\n        totalVested -= remaining;\r\n        \r\n        if (remaining > 0) {\r\n            token.safeTransfer(owner(), remaining);\r\n        }\r\n        \r\n        emit VestingRevoked(_scheduleId);\r\n    }\r\n\r\n    function getBeneficiarySchedules(address _beneficiary) external view returns (bytes32[] memory) {\r\n        return beneficiarySchedules[_beneficiary];\r\n    }\r\n\r\n    function getScheduleDetails(bytes32 _scheduleId) external view returns (\r\n        address beneficiary,\r\n        uint256 totalAmount,\r\n        uint256 released,\r\n        uint256 releasable,\r\n        bool revocable,\r\n        bool revoked\r\n    ) {\r\n        VestingSchedule storage schedule = vestingSchedules[_scheduleId];\r\n        return (\r\n            schedule.beneficiary,\r\n            schedule.totalAmount,\r\n            schedule.released,\r\n            calculateVestedAmount(schedule) - schedule.released,\r\n            schedule.revocable,\r\n            schedule.revoked\r\n        );\r\n    }\r\n}",
  "sourcePath": "C:\\Users\\night\\Downloads\\team-rocket-medi-secure\\team-rocket-medi-secure\\contracts\\contracts\\TokenVesting.sol",
  "compiler": {
    "name": "solc",
    "version": "0.8.20+commit.a1b79de6.Emscripten.clang"
  },
  "schemaVersion": "3.4.16",
  "updatedAt": "2026-04-24T10:38:31.189Z",
  "devdoc": {
    "details": "Manages token release schedules for team and investors. Now supports EIP-2771 Gasless claims.",
    "errors": {
      "AddressEmptyCode(address)": [
        {
          "details": "There's no code at `target` (it is not a contract)."
        }
      ],
      "AddressInsufficientBalance(address)": [
        {
          "details": "The ETH balance of the account is not enough to perform the operation."
        }
      ],
      "FailedInnerCall()": [
        {
          "details": "A call to an address target failed. The target may have reverted."
        }
      ],
      "OwnableInvalidOwner(address)": [
        {
          "details": "The owner is not a valid owner account. (eg. `address(0)`)"
        }
      ],
      "OwnableUnauthorizedAccount(address)": [
        {
          "details": "The caller account is not authorized to perform an operation."
        }
      ],
      "SafeERC20FailedOperation(address)": [
        {
          "details": "An operation with an ERC20 token failed."
        }
      ]
    },
    "kind": "dev",
    "methods": {
      "claim()": {
        "details": "Allows beneficiaries to claim their vested tokens. Supports gasless relayers."
      },
      "isTrustedForwarder(address)": {
        "details": "Indicates whether any particular address is the trusted forwarder."
      },
      "owner()": {
        "details": "Returns the address of the current owner."
      },
      "renounceOwnership()": {
        "details": "Leaves the contract without owner. It will not be possible to call `onlyOwner` functions. Can only be called by the current owner. NOTE: Renouncing ownership will leave the contract without an owner, thereby disabling any functionality that is only available to the owner."
      },
      "transferOwnership(address)": {
        "details": "Transfers ownership of the contract to a new account (`newOwner`). Can only be called by the current owner."
      },
      "trustedForwarder()": {
        "details": "Returns the address of the trusted forwarder."
      }
    },
    "title": "TokenVesting",
    "version": 1
  },
  "userdoc": {
    "kind": "user",
    "methods": {},
    "version": 1
  }
}