{
  "contractName": "VRFV2PlusClient",
  "abi": [
    {
      "inputs": [],
      "name": "EXTRA_ARGS_V1_TAG",
      "outputs": [
        {
          "internalType": "bytes4",
          "name": "",
          "type": "bytes4"
        }
      ],
      "stateMutability": "view",
      "type": "function"
    }
  ],
  "bytecode": "0x60af610033600b8282823980515f1a607314602757634e487b7160e01b5f525f60045260245ffd5b305f52607381538281f3fe73000000000000000000000000000000000000000030146080604052600436106032575f3560e01c8063f7514ab4146036575b5f80fd5b605c7f92fd13387c7fe7befbc38d303d6468778fb9731bc4583f17d92989c6fcfdeaaa81565b6040516001600160e01b0319909116815260200160405180910390f3fea264697066735822122013512ea0265229e2db9d4315d98e7b98616abeb7e9c47910a2b0259d5d61b93664736f6c63430008140033",
  "immutableReferences": {},
  "source": "// SPDX-License-Identifier: MIT\npragma solidity ^0.8.4;\n\n// End consumer library.\nlibrary VRFV2PlusClient {\n  // extraArgs will evolve to support new features\n  bytes4 public constant EXTRA_ARGS_V1_TAG = bytes4(keccak256(\"VRF ExtraArgsV1\"));\n  struct ExtraArgsV1 {\n    bool nativePayment;\n  }\n\n  struct RandomWordsRequest {\n    bytes32 keyHash;\n    uint256 subId;\n    uint16 requestConfirmations;\n    uint32 callbackGasLimit;\n    uint32 numWords;\n    bytes extraArgs;\n  }\n\n  function _argsToBytes(ExtraArgsV1 memory extraArgs) internal pure returns (bytes memory bts) {\n    return abi.encodeWithSelector(EXTRA_ARGS_V1_TAG, extraArgs);\n  }\n}\n",
  "sourcePath": "@chainlink\\contracts\\src\\v0.8\\vrf\\dev\\libraries\\VRFV2PlusClient.sol",
  "compiler": {
    "name": "solc",
    "version": "0.8.20+commit.a1b79de6.Emscripten.clang"
  },
  "schemaVersion": "3.4.16",
  "updatedAt": "2026-04-24T10:38:30.872Z",
  "devdoc": {
    "kind": "dev",
    "methods": {},
    "version": 1
  },
  "userdoc": {
    "kind": "user",
    "methods": {},
    "version": 1
  }
}