{
  "_format": "hh-sol-artifact-1",
  "contractName": "Hospital",
  "sourceName": "contracts/Hospital.sol",
  "abi": [
    {
      "inputs": [
        {
          "internalType": "address",
          "name": "_accessControl",
          "type": "address"
        },
        {
          "internalType": "address",
          "name": "_trustedForwarder",
          "type": "address"
        }
      ],
      "stateMutability": "nonpayable",
      "type": "constructor"
    },
    {
      "inputs": [],
      "name": "AlreadyOnDuty",
      "type": "error"
    },
    {
      "inputs": [],
      "name": "DoctorAlreadyApproved",
      "type": "error"
    },
    {
      "inputs": [],
      "name": "DoctorNotApproved",
      "type": "error"
    },
    {
      "inputs": [],
      "name": "HospitalAlreadyRegistered",
      "type": "error"
    },
    {
      "inputs": [],
      "name": "InvalidDoctorAddress",
      "type": "error"
    },
    {
      "inputs": [],
      "name": "InvalidHospitalAddress",
      "type": "error"
    },
    {
      "inputs": [],
      "name": "NoEarningsToClaim",
      "type": "error"
    },
    {
      "inputs": [],
      "name": "NoValueSent",
      "type": "error"
    },
    {
      "inputs": [],
      "name": "NotOnDuty",
      "type": "error"
    },
    {
      "inputs": [],
      "name": "NotRegisteredHospital",
      "type": "error"
    },
    {
      "inputs": [],
      "name": "ReentrancyGuardReentrantCall",
      "type": "error"
    },
    {
      "inputs": [],
      "name": "TransferFailed",
      "type": "error"
    },
    {
      "anonymous": false,
      "inputs": [
        {
          "indexed": true,
          "internalType": "uint256",
          "name": "hospitalId",
          "type": "uint256"
        },
        {
          "indexed": true,
          "internalType": "address",
          "name": "doctor",
          "type": "address"
        }
      ],
      "name": "DoctorAdded",
      "type": "event"
    },
    {
      "anonymous": false,
      "inputs": [
        {
          "indexed": true,
          "internalType": "uint256",
          "name": "hospitalId",
          "type": "uint256"
        },
        {
          "indexed": true,
          "internalType": "address",
          "name": "doctor",
          "type": "address"
        }
      ],
      "name": "DoctorRemoved",
      "type": "event"
    },
    {
      "anonymous": false,
      "inputs": [
        {
          "indexed": true,
          "internalType": "address",
          "name": "hospital",
          "type": "address"
        },
        {
          "indexed": false,
          "internalType": "uint256",
          "name": "amount",
          "type": "uint256"
        }
      ],
      "name": "EarningsClaimed",
      "type": "event"
    },
    {
      "anonymous": false,
      "inputs": [
        {
          "indexed": true,
          "internalType": "uint256",
          "name": "id",
          "type": "uint256"
        },
        {
          "indexed": true,
          "internalType": "address",
          "name": "wallet",
          "type": "address"
        },
        {
          "indexed": false,
          "internalType": "string",
          "name": "name",
          "type": "string"
        }
      ],
      "name": "HospitalRegistered",
      "type": "event"
    },
    {
      "anonymous": false,
      "inputs": [
        {
          "indexed": true,
          "internalType": "address",
          "name": "doctor",
          "type": "address"
        },
        {
          "indexed": true,
          "internalType": "address",
          "name": "hospital",
          "type": "address"
        },
        {
          "indexed": false,
          "internalType": "uint256",
          "name": "timestamp",
          "type": "uint256"
        }
      ],
      "name": "LogPunchIn",
      "type": "event"
    },
    {
      "anonymous": false,
      "inputs": [
        {
          "indexed": true,
          "internalType": "address",
          "name": "doctor",
          "type": "address"
        },
        {
          "indexed": true,
          "internalType": "address",
          "name": "hospital",
          "type": "address"
        },
        {
          "indexed": false,
          "internalType": "uint256",
          "name": "timestamp",
          "type": "uint256"
        },
        {
          "indexed": false,
          "internalType": "uint256",
          "name": "duration",
          "type": "uint256"
        }
      ],
      "name": "LogPunchOut",
      "type": "event"
    },
    {
      "anonymous": false,
      "inputs": [
        {
          "indexed": true,
          "internalType": "address",
          "name": "hospital",
          "type": "address"
        },
        {
          "indexed": true,
          "internalType": "address",
          "name": "patient",
          "type": "address"
        },
        {
          "indexed": false,
          "internalType": "uint256",
          "name": "amount",
          "type": "uint256"
        }
      ],
      "name": "SettlementReceived",
      "type": "event"
    },
    {
      "inputs": [],
      "name": "accessControl",
      "outputs": [
        {
          "internalType": "contract MediSecureAccessControl",
          "name": "",
          "type": "address"
        }
      ],
      "stateMutability": "view",
      "type": "function"
    },
    {
      "inputs": [
        {
          "internalType": "address",
          "name": "doctor",
          "type": "address"
        }
      ],
      "name": "addDoctor",
      "outputs": [],
      "stateMutability": "nonpayable",
      "type": "function"
    },
    {
      "inputs": [],
      "name": "claimEarnings",
      "outputs": [],
      "stateMutability": "nonpayable",
      "type": "function"
    },
    {
      "inputs": [
        {
          "internalType": "address",
          "name": "",
          "type": "address"
        },
        {
          "internalType": "address",
          "name": "",
          "type": "address"
        }
      ],
      "name": "doctorDutyStatus",
      "outputs": [
        {
          "internalType": "bool",
          "name": "",
          "type": "bool"
        }
      ],
      "stateMutability": "view",
      "type": "function"
    },
    {
      "inputs": [
        {
          "internalType": "address",
          "name": "hospitalAddress",
          "type": "address"
        }
      ],
      "name": "getActiveDoctorCount",
      "outputs": [
        {
          "internalType": "uint256",
          "name": "",
          "type": "uint256"
        }
      ],
      "stateMutability": "view",
      "type": "function"
    },
    {
      "inputs": [],
      "name": "getHospitalDoctors",
      "outputs": [
        {
          "internalType": "address[]",
          "name": "",
          "type": "address[]"
        }
      ],
      "stateMutability": "view",
      "type": "function"
    },
    {
      "inputs": [
        {
          "internalType": "bytes32",
          "name": "role",
          "type": "bytes32"
        },
        {
          "internalType": "address",
          "name": "account",
          "type": "address"
        }
      ],
      "name": "hasRole",
      "outputs": [
        {
          "internalType": "bool",
          "name": "",
          "type": "bool"
        }
      ],
      "stateMutability": "view",
      "type": "function"
    },
    {
      "inputs": [
        {
          "internalType": "enum Roles",
          "name": "role",
          "type": "uint8"
        },
        {
          "internalType": "address",
          "name": "account",
          "type": "address"
        }
      ],
      "name": "hasRole",
      "outputs": [
        {
          "internalType": "bool",
          "name": "",
          "type": "bool"
        }
      ],
      "stateMutability": "view",
      "type": "function"
    },
    {
      "inputs": [
        {
          "internalType": "address",
          "name": "",
          "type": "address"
        }
      ],
      "name": "hospitalActiveDoctorCount",
      "outputs": [
        {
          "internalType": "uint256",
          "name": "",
          "type": "uint256"
        }
      ],
      "stateMutability": "view",
      "type": "function"
    },
    {
      "inputs": [
        {
          "internalType": "uint256",
          "name": "",
          "type": "uint256"
        },
        {
          "internalType": "uint256",
          "name": "",
          "type": "uint256"
        }
      ],
      "name": "hospitalDoctors",
      "outputs": [
        {
          "internalType": "address",
          "name": "",
          "type": "address"
        }
      ],
      "stateMutability": "view",
      "type": "function"
    },
    {
      "inputs": [
        {
          "internalType": "uint256",
          "name": "",
          "type": "uint256"
        }
      ],
      "name": "hospitals",
      "outputs": [
        {
          "internalType": "uint256",
          "name": "id",
          "type": "uint256"
        },
        {
          "internalType": "address",
          "name": "walletAddress",
          "type": "address"
        },
        {
          "internalType": "string",
          "name": "name",
          "type": "string"
        },
        {
          "internalType": "string",
          "name": "email",
          "type": "string"
        },
        {
          "internalType": "string",
          "name": "location",
          "type": "string"
        },
        {
          "internalType": "string",
          "name": "registrationNumber",
          "type": "string"
        }
      ],
      "stateMutability": "view",
      "type": "function"
    },
    {
      "inputs": [
        {
          "internalType": "address",
          "name": "account",
          "type": "address"
        }
      ],
      "name": "isAdmin",
      "outputs": [
        {
          "internalType": "bool",
          "name": "",
          "type": "bool"
        }
      ],
      "stateMutability": "view",
      "type": "function"
    },
    {
      "inputs": [
        {
          "internalType": "uint256",
          "name": "",
          "type": "uint256"
        },
        {
          "internalType": "address",
          "name": "",
          "type": "address"
        }
      ],
      "name": "isDoctorApproved",
      "outputs": [
        {
          "internalType": "bool",
          "name": "",
          "type": "bool"
        }
      ],
      "stateMutability": "view",
      "type": "function"
    },
    {
      "inputs": [
        {
          "internalType": "address",
          "name": "doctor",
          "type": "address"
        },
        {
          "internalType": "address",
          "name": "hospitalAddress",
          "type": "address"
        }
      ],
      "name": "isDoctorOnDuty",
      "outputs": [
        {
          "internalType": "bool",
          "name": "",
          "type": "bool"
        }
      ],
      "stateMutability": "view",
      "type": "function"
    },
    {
      "inputs": [
        {
          "internalType": "address",
          "name": "forwarder",
          "type": "address"
        }
      ],
      "name": "isTrustedForwarder",
      "outputs": [
        {
          "internalType": "bool",
          "name": "",
          "type": "bool"
        }
      ],
      "stateMutability": "view",
      "type": "function"
    },
    {
      "inputs": [
        {
          "internalType": "address",
          "name": "",
          "type": "address"
        }
      ],
      "name": "pendingEarnings",
      "outputs": [
        {
          "internalType": "uint256",
          "name": "",
          "type": "uint256"
        }
      ],
      "stateMutability": "view",
      "type": "function"
    },
    {
      "inputs": [
        {
          "internalType": "address",
          "name": "hospitalAddress",
          "type": "address"
        }
      ],
      "name": "punchIn",
      "outputs": [],
      "stateMutability": "nonpayable",
      "type": "function"
    },
    {
      "inputs": [
        {
          "internalType": "address",
          "name": "hospitalAddress",
          "type": "address"
        }
      ],
      "name": "punchOut",
      "outputs": [],
      "stateMutability": "nonpayable",
      "type": "function"
    },
    {
      "inputs": [
        {
          "internalType": "address",
          "name": "_hospital",
          "type": "address"
        },
        {
          "internalType": "address",
          "name": "_patient",
          "type": "address"
        }
      ],
      "name": "receiveSettlement",
      "outputs": [],
      "stateMutability": "payable",
      "type": "function"
    },
    {
      "inputs": [
        {
          "internalType": "string",
          "name": "name",
          "type": "string"
        },
        {
          "internalType": "string",
          "name": "email",
          "type": "string"
        },
        {
          "internalType": "string",
          "name": "location",
          "type": "string"
        },
        {
          "internalType": "string",
          "name": "registrationNumber",
          "type": "string"
        }
      ],
      "name": "registerHospital",
      "outputs": [],
      "stateMutability": "nonpayable",
      "type": "function"
    },
    {
      "inputs": [
        {
          "internalType": "address",
          "name": "doctor",
          "type": "address"
        }
      ],
      "name": "removeDoctor",
      "outputs": [],
      "stateMutability": "nonpayable",
      "type": "function"
    },
    {
      "inputs": [
        {
          "internalType": "address",
          "name": "",
          "type": "address"
        },
        {
          "internalType": "address",
          "name": "",
          "type": "address"
        }
      ],
      "name": "shiftStartTimes",
      "outputs": [
        {
          "internalType": "uint256",
          "name": "",
          "type": "uint256"
        }
      ],
      "stateMutability": "view",
      "type": "function"
    },
    {
      "inputs": [],
      "name": "trustedForwarder",
      "outputs": [
        {
          "internalType": "address",
          "name": "",
          "type": "address"
        }
      ],
      "stateMutability": "view",
      "type": "function"
    },
    {
      "inputs": [
        {
          "internalType": "address",
          "name": "",
          "type": "address"
        }
      ],
      "name": "walletToHospitalId",
      "outputs": [
        {
          "internalType": "uint256",
          "name": "",
          "type": "uint256"
        }
      ],
      "stateMutability": "view",
      "type": "function"
    }
  ],
  "bytecode": "0x60a06040523480156200001157600080fd5b50604051620021f8380380620021f8833981016040819052620000349162000096565b60016000556001600160a01b03808216608052829082908216156200006f57600180546001600160a01b0319166001600160a01b0384161790555b50505050620000ce565b80516001600160a01b03811681146200009157600080fd5b919050565b60008060408385031215620000aa57600080fd5b620000b58362000079565b9150620000c56020840162000079565b90509250929050565b608051612100620000f86000396000818161030f0152818161034e01526119cd01526121006000f3fe60806040526004361061014b5760003560e01c806381dc6fd2116100b6578063babef8f61161006f578063babef8f614610489578063c7972937146104c4578063d7e549d9146104e4578063d9ceab1314610504578063e127c07c14610519578063e2aece4a1461055157600080fd5b806381dc6fd21461037257806391d14854146103a457806398fc90e9146103c45780639e97b8f6146103e45780639fdd8e6b14610404578063b6d853951461043f57600080fd5b80633dc33e2c116101085780633dc33e2c14610270578063464334f1146102855780634780468f146102b25780634df6f28d146102d2578063572b6c05146102f25780637da0a8771461033f57600080fd5b806313007d5514610150578063240c6f581461018d57806324d7806c146101ad5780632b13a7da146101dd5780633000e8e4146101ff5780633c9217491461023a575b600080fd5b34801561015c57600080fd5b50600154610170906001600160a01b031681565b6040516001600160a01b0390911681526020015b60405180910390f35b34801561019957600080fd5b506101706101a8366004611a65565b61057e565b3480156101b957600080fd5b506101cd6101c8366004611aa3565b6105b6565b6040519015158152602001610184565b3480156101e957600080fd5b506101f2610630565b6040516101849190611abe565b34801561020b57600080fd5b5061022c61021a366004611aa3565b600a6020526000908152604090205481565b604051908152602001610184565b34801561024657600080fd5b5061022c610255366004611aa3565b6001600160a01b031660009081526008602052604090205490565b61028361027e366004611b0b565b6106cc565b005b34801561029157600080fd5b5061022c6102a0366004611aa3565b60086020526000908152604090205481565b3480156102be57600080fd5b506102836102cd366004611aa3565b6107a5565b3480156102de57600080fd5b506102836102ed366004611be1565b610a1f565b3480156102fe57600080fd5b506101cd61030d366004611aa3565b7f00000000000000000000000000000000000000000000000000000000000000006001600160a01b0390811691161490565b34801561034b57600080fd5b507f0000000000000000000000000000000000000000000000000000000000000000610170565b34801561037e57600080fd5b5061039261038d366004611c8e565b610c32565b60405161018496959493929190611ced565b3480156103b057600080fd5b506101cd6103bf366004611d5e565b610e91565b3480156103d057600080fd5b506102836103df366004611aa3565b610f0f565b3480156103f057600080fd5b506101cd6103ff366004611d81565b611362565b34801561041057600080fd5b506101cd61041f366004611b0b565b600660209081526000928352604080842090915290825290205460ff1681565b34801561044b57600080fd5b506101cd61045a366004611b0b565b6001600160a01b0380821660009081526006602090815260408083209386168352929052205460ff1692915050565b34801561049557600080fd5b506101cd6104a4366004611d5e565b600560209081526000928352604080842090915290825290205460ff1681565b3480156104d057600080fd5b506102836104df366004611aa3565b611395565b3480156104f057600080fd5b506102836104ff366004611aa3565b611563565b34801561051057600080fd5b50610283611867565b34801561052557600080fd5b5061022c610534366004611b0b565b600760209081526000928352604080842090915290825290205481565b34801561055d57600080fd5b5061022c61056c366004611aa3565b60026020526000908152604090205481565b6004602052816000526040600020818154811061059a57600080fd5b6000918252602090912001546001600160a01b03169150829050565b600154604051634f4bdc7b60e11b81526000916001600160a01b031690639e97b8f6906105e99084908690600401611da3565b602060405180830381865afa158015610606573d6000803e3d6000fd5b505050506040513d601f19601f8201168201806040525081019061062a9190611ddd565b92915050565b33600090815260026020526040812054606091819003610663576040516366df3a2760e11b815260040160405180910390fd5b600081815260046020908152604091829020805483518184028101840190945280845290918301828280156106c157602002820191906000526020600020905b81546001600160a01b031681526001909101906020018083116106a3575b505050505091505090565b346000036106ed576040516327738acf60e21b815260040160405180910390fd5b6001600160a01b0382166000908152600260205260408120549003610725576040516366df3a2760e11b815260040160405180910390fd5b6001600160a01b0382166000908152600a60205260408120805434929061074d908490611e15565b92505081905550806001600160a01b0316826001600160a01b03167f9b6a9eab72f220d1e3c93847882e5281dfe6c0f51e60c7d38383212c8d73f4283460405161079991815260200190565b60405180910390a35050565b6001546003906001600160a01b0316639e97b8f6826107c26119c6565b6040518363ffffffff1660e01b81526004016107df929190611da3565b602060405180830381865afa1580156107fc573d6000803e3d6000fd5b505050506040513d601f19601f820116820180604052508101906108209190611ddd565b6108455760405162461bcd60e51b815260040161083c90611e28565b60405180910390fd5b600160009054906101000a90046001600160a01b03166001600160a01b0316635c975abb6040518163ffffffff1660e01b8152600401602060405180830381865afa158015610898573d6000803e3d6000fd5b505050506040513d601f19601f820116820180604052508101906108bc9190611ddd565b156108d95760405162461bcd60e51b815260040161083c90611e69565b6001600160a01b03821661090057604051630f827cad60e41b815260040160405180910390fd5b60006002600061090e6119c6565b6001600160a01b03166001600160a01b0316815260200190815260200160002054905080600003610952576040516366df3a2760e11b815260040160405180910390fd5b60008181526005602090815260408083206001600160a01b038716845290915290205460ff161561099657604051630ae142eb60e41b815260040160405180910390fd5b60008181526004602090815260408083208054600180820183559185528385200180546001600160a01b0319166001600160a01b03891690811790915585855260058452828520818652909352818420805460ff1916909117905551909183917fb4004d986e056780079f39d5a9c407a2816a506dd01c580a911a793cd46121369190a3505050565b60026000610a2b6119c6565b6001600160a01b0316815260208101919091526040016000205415610a6357604051633ccce4fd60e21b815260040160405180910390fd5b60098054906000610a7383611ea0565b919050555060095460026000610a876119c6565b6001600160a01b03166001600160a01b03168152602001908152602001600020819055506040518060c001604052806009548152602001610ac66119c6565b6001600160a01b0390811682526020808301889052604080840188905260608401879052608090930185905260095460009081526003825283902084518155908401516001820180546001600160a01b0319169190931617909155908201516002820190610b349082611f42565b5060608201516003820190610b499082611f42565b5060808201516004820190610b5e9082611f42565b5060a08201516005820190610b739082611f42565b50905050610b7f6119c6565b6001600160a01b03166009547ff4f5917fdec8f2ae93dd79a5fe4b5b76c30534fb4abe4f82e84e8ed681b7de0a86604051610bba9190612002565b60405180910390a36001546001600160a01b0316635d5664e16003610bdd6119c6565b6040518363ffffffff1660e01b8152600401610bfa929190611da3565b600060405180830381600087803b158015610c1457600080fd5b505af1158015610c28573d6000803e3d6000fd5b5050505050505050565b60036020526000908152604090208054600182015460028301805492936001600160a01b0390921692610c6490611eb9565b80601f0160208091040260200160405190810160405280929190818152602001828054610c9090611eb9565b8015610cdd5780601f10610cb257610100808354040283529160200191610cdd565b820191906000526020600020905b815481529060010190602001808311610cc057829003601f168201915b505050505090806003018054610cf290611eb9565b80601f0160208091040260200160405190810160405280929190818152602001828054610d1e90611eb9565b8015610d6b5780601f10610d4057610100808354040283529160200191610d6b565b820191906000526020600020905b815481529060010190602001808311610d4e57829003601f168201915b505050505090806004018054610d8090611eb9565b80601f0160208091040260200160405190810160405280929190818152602001828054610dac90611eb9565b8015610df95780601f10610dce57610100808354040283529160200191610df9565b820191906000526020600020905b815481529060010190602001808311610ddc57829003601f168201915b505050505090806005018054610e0e90611eb9565b80601f0160208091040260200160405190810160405280929190818152602001828054610e3a90611eb9565b8015610e875780601f10610e5c57610100808354040283529160200191610e87565b820191906000526020600020905b815481529060010190602001808311610e6a57829003601f168201915b5050505050905086565b600154604051632474521560e21b8152600481018490526001600160a01b03838116602483015260009216906391d14854906044015b602060405180830381865afa158015610ee4573d6000803e3d6000fd5b505050506040513d601f19601f82011682018060405250810190610f089190611ddd565b9392505050565b6001546003906001600160a01b0316639e97b8f682610f2c6119c6565b6040518363ffffffff1660e01b8152600401610f49929190611da3565b602060405180830381865afa158015610f66573d6000803e3d6000fd5b505050506040513d601f19601f82011682018060405250810190610f8a9190611ddd565b610fa65760405162461bcd60e51b815260040161083c90611e28565b600160009054906101000a90046001600160a01b03166001600160a01b0316635c975abb6040518163ffffffff1660e01b8152600401602060405180830381865afa158015610ff9573d6000803e3d6000fd5b505050506040513d601f19601f8201168201806040525081019061101d9190611ddd565b1561103a5760405162461bcd60e51b815260040161083c90611e69565b6001600160a01b03821661106157604051630f827cad60e41b815260040160405180910390fd5b60006002600061106f6119c6565b6001600160a01b03166001600160a01b03168152602001908152602001600020549050806000036110b3576040516366df3a2760e11b815260040160405180910390fd5b60008181526005602090815260408083206001600160a01b038716845290915290205460ff166110f657604051633c5e2b1960e11b815260040160405180910390fd5b6000818152600460205260408120905b815481101561120c57846001600160a01b031682828154811061112b5761112b612015565b6000918252602090912001546001600160a01b0316036111fa57815482906111559060019061202b565b8154811061116557611165612015565b9060005260206000200160009054906101000a90046001600160a01b031682828154811061119557611195612015565b9060005260206000200160006101000a8154816001600160a01b0302191690836001600160a01b03160217905550818054806111d3576111d361203e565b600082815260209020810160001990810180546001600160a01b031916905501905561120c565b8061120481611ea0565b915050611106565b5060008281526005602090815260408083206001600160a01b03881684529091528120805460ff191690556006906112426119c6565b6001600160a01b039081168252602080830193909352604091820160009081209188168152925290205460ff1615611326576000600660006112826119c6565b6001600160a01b03908116825260208083019390935260409182016000908120918916815292528120805460ff1916921515929092179091556008816112c66119c6565b6001600160a01b03166001600160a01b0316815260200190815260200160002054111561132657600860006112f96119c6565b6001600160a01b031681526020810191909152604001600090812080549161132083612054565b91905055505b6040516001600160a01b0385169083907fe6bf7779cd8f4ea698fdb4de7f9f88df29e86ccbeb9de3f687dca5ddb97c1fac90600090a350505050565b600154604051634f4bdc7b60e11b81526000916001600160a01b031690639e97b8f690610ec79086908690600401611da3565b6001600160a01b0381166000908152600660205260408120906113b66119c6565b6001600160a01b0316815260208101919091526040016000205460ff166113f057604051635be6b0cb60e01b815260040160405180910390fd5b6001600160a01b0381166000908152600760205260408120816114116119c6565b6001600160a01b0316815260208101919091526040016000908120549150611439824261202b565b6001600160a01b0384166000908152600660205260408120919250908161145e6119c6565b6001600160a01b03908116825260208083019390935260409182016000908120805460ff1916951515959095179094558616835260079091528120816114a26119c6565b6001600160a01b039081168252602080830193909352604091820160009081209490945586168352600890915290205415611501576001600160a01b03831660009081526008602052604081208054916114fb83612054565b91905055505b826001600160a01b03166115136119c6565b6001600160a01b03167f4b9776d73203bd0da7c7b1980a0b2780e76d5d8d75748e80aba61472ce1c55f04284604051611556929190918252602082015260400190565b60405180910390a3505050565b600180546001600160a01b0316639e97b8f68261157e6119c6565b6040518363ffffffff1660e01b815260040161159b929190611da3565b602060405180830381865afa1580156115b8573d6000803e3d6000fd5b505050506040513d601f19601f820116820180604052508101906115dc9190611ddd565b6115f85760405162461bcd60e51b815260040161083c90611e28565b600160009054906101000a90046001600160a01b03166001600160a01b0316635c975abb6040518163ffffffff1660e01b8152600401602060405180830381865afa15801561164b573d6000803e3d6000fd5b505050506040513d601f19601f8201168201806040525081019061166f9190611ddd565b1561168c5760405162461bcd60e51b815260040161083c90611e69565b6001600160a01b038216600090815260026020526040812054908190036116c65760405163891edff560e01b815260040160405180910390fd5b6000818152600560205260408120906116dd6119c6565b6001600160a01b0316815260208101919091526040016000205460ff1661171757604051633c5e2b1960e11b815260040160405180910390fd5b6001600160a01b0383166000908152600660205260408120906117386119c6565b6001600160a01b0316815260208101919091526040016000205460ff161561177357604051633cf948ed60e11b815260040160405180910390fd5b6001600160a01b03831660009081526006602052604081206001916117966119c6565b6001600160a01b03908116825260208083019390935260409182016000908120805460ff191695151595909517909455861683526007909152812042916117db6119c6565b6001600160a01b0390811682526020808301939093526040918201600090812094909455861683526008909152812080549161181683611ea0565b9190505550826001600160a01b031661182d6119c6565b6001600160a01b03167f17a827c421b15526e18fca41c387fa527301ef1552116e752b324afcd7cce19c4260405161155691815260200190565b61186f611a3b565b6000600a600061187d6119c6565b6001600160a01b03166001600160a01b03168152602001908152602001600020549050806000036118c157604051636773e7e960e01b815260040160405180910390fd5b6000600a60006118cf6119c6565b6001600160a01b03166001600160a01b031681526020019081526020016000208190555060006118fd6119c6565b6001600160a01b03168260405160006040518083038185875af1925050503d8060008114611947576040519150601f19603f3d011682016040523d82523d6000602084013e61194c565b606091505b505090508061196e576040516312171d8360e31b815260040160405180910390fd5b6119766119c6565b6001600160a01b03167f6a8d334a32dfb49dae325dba76deb51b0b8f5ea50b1cdfa70710f4dc1b9c24c5836040516119b091815260200190565b60405180910390a250506119c46001600055565b565b60003660147f00000000000000000000000000000000000000000000000000000000000000006001600160a01b031633148015611a035750808210155b15611a3357600036611a15838561202b565b611a2092829061206b565b611a2991612095565b60601c9250505090565b339250505090565b600260005403611a5e57604051633ee5aeb560e01b815260040160405180910390fd5b6002600055565b60008060408385031215611a7857600080fd5b50508035926020909101359150565b80356001600160a01b0381168114611a9e57600080fd5b919050565b600060208284031215611ab557600080fd5b610f0882611a87565b6020808252825182820181905260009190848201906040850190845b81811015611aff5783516001600160a01b031683529284019291840191600101611ada565b50909695505050505050565b60008060408385031215611b1e57600080fd5b611b2783611a87565b9150611b3560208401611a87565b90509250929050565b634e487b7160e01b600052604160045260246000fd5b600082601f830112611b6557600080fd5b813567ffffffffffffffff80821115611b8057611b80611b3e565b604051601f8301601f19908116603f01168101908282118183101715611ba857611ba8611b3e565b81604052838152866020858801011115611bc157600080fd5b836020870160208301376000602085830101528094505050505092915050565b60008060008060808587031215611bf757600080fd5b843567ffffffffffffffff80821115611c0f57600080fd5b611c1b88838901611b54565b95506020870135915080821115611c3157600080fd5b611c3d88838901611b54565b94506040870135915080821115611c5357600080fd5b611c5f88838901611b54565b93506060870135915080821115611c7557600080fd5b50611c8287828801611b54565b91505092959194509250565b600060208284031215611ca057600080fd5b5035919050565b6000815180845260005b81811015611ccd57602081850181015186830182015201611cb1565b506000602082860101526020601f19601f83011685010191505092915050565b8681526001600160a01b038616602082015260c060408201819052600090611d1790830187611ca7565b8281036060840152611d298187611ca7565b90508281036080840152611d3d8186611ca7565b905082810360a0840152611d518185611ca7565b9998505050505050505050565b60008060408385031215611d7157600080fd5b82359150611b3560208401611a87565b60008060408385031215611d9457600080fd5b823560098110611b2757600080fd5b6040810160098410611dc557634e487b7160e01b600052602160045260246000fd5b9281526001600160a01b039190911660209091015290565b600060208284031215611def57600080fd5b81518015158114610f0857600080fd5b634e487b7160e01b600052601160045260246000fd5b8082018082111561062a5761062a611dff565b60208082526021908201527f416363657373436f6e74726f6c3a20726573747269637465642d746f2d726f6c6040820152606560f81b606082015260800190565b6020808252601b908201527f4d6564695365637572652050726f746f636f6c3a207061757365640000000000604082015260600190565b600060018201611eb257611eb2611dff565b5060010190565b600181811c90821680611ecd57607f821691505b602082108103611eed57634e487b7160e01b600052602260045260246000fd5b50919050565b601f821115611f3d57600081815260208120601f850160051c81016020861015611f1a5750805b601f850160051c820191505b81811015611f3957828155600101611f26565b5050505b505050565b815167ffffffffffffffff811115611f5c57611f5c611b3e565b611f7081611f6a8454611eb9565b84611ef3565b602080601f831160018114611fa55760008415611f8d5750858301515b600019600386901b1c1916600185901b178555611f39565b600085815260208120601f198616915b82811015611fd457888601518255948401946001909101908401611fb5565b5085821015611ff25787850151600019600388901b60f8161c191681555b5050505050600190811b01905550565b602081526000610f086020830184611ca7565b634e487b7160e01b600052603260045260246000fd5b8181038181111561062a5761062a611dff565b634e487b7160e01b600052603160045260246000fd5b60008161206357612063611dff565b506000190190565b6000808585111561207b57600080fd5b8386111561208857600080fd5b5050820193919092039150565b6bffffffffffffffffffffffff1981358181169160148510156120c25780818660140360031b1b83161692505b50509291505056fea2646970667358221220e7a8a404cd1726d9d116e82c371fe66802e2ddf0ecfb392bc850cbbb78b61d7564736f6c63430008140033",
  "linkReferences": {},
  "deployedLinkReferences": {}
}