{
  "_format": "hh-sol-artifact-1",
  "contractName": "SanjeevniOracle",
  "sourceName": "contracts/SanjeevniOracle.sol",
  "abi": [
    {
      "inputs": [
        {
          "internalType": "address",
          "name": "_accessControl",
          "type": "address"
        },
        {
          "internalType": "address",
          "name": "_trustedForwarder",
          "type": "address"
        },
        {
          "internalType": "address",
          "name": "_priceFeed",
          "type": "address"
        }
      ],
      "stateMutability": "nonpayable",
      "type": "constructor"
    },
    {
      "anonymous": false,
      "inputs": [
        {
          "indexed": true,
          "internalType": "bytes32",
          "name": "dataHash",
          "type": "bytes32"
        },
        {
          "indexed": false,
          "internalType": "bool",
          "name": "isValid",
          "type": "bool"
        }
      ],
      "name": "DataValidated",
      "type": "event"
    },
    {
      "inputs": [],
      "name": "accessControl",
      "outputs": [
        {
          "internalType": "contract MediSecureAccessControl",
          "name": "",
          "type": "address"
        }
      ],
      "stateMutability": "view",
      "type": "function"
    },
    {
      "inputs": [],
      "name": "getLatestDataPoint",
      "outputs": [
        {
          "internalType": "int256",
          "name": "",
          "type": "int256"
        }
      ],
      "stateMutability": "view",
      "type": "function"
    },
    {
      "inputs": [
        {
          "internalType": "bytes32",
          "name": "role",
          "type": "bytes32"
        },
        {
          "internalType": "address",
          "name": "account",
          "type": "address"
        }
      ],
      "name": "hasRole",
      "outputs": [
        {
          "internalType": "bool",
          "name": "",
          "type": "bool"
        }
      ],
      "stateMutability": "view",
      "type": "function"
    },
    {
      "inputs": [
        {
          "internalType": "enum Roles",
          "name": "role",
          "type": "uint8"
        },
        {
          "internalType": "address",
          "name": "account",
          "type": "address"
        }
      ],
      "name": "hasRole",
      "outputs": [
        {
          "internalType": "bool",
          "name": "",
          "type": "bool"
        }
      ],
      "stateMutability": "view",
      "type": "function"
    },
    {
      "inputs": [
        {
          "internalType": "address",
          "name": "account",
          "type": "address"
        }
      ],
      "name": "isAdmin",
      "outputs": [
        {
          "internalType": "bool",
          "name": "",
          "type": "bool"
        }
      ],
      "stateMutability": "view",
      "type": "function"
    },
    {
      "inputs": [
        {
          "internalType": "address",
          "name": "forwarder",
          "type": "address"
        }
      ],
      "name": "isTrustedForwarder",
      "outputs": [
        {
          "internalType": "bool",
          "name": "",
          "type": "bool"
        }
      ],
      "stateMutability": "view",
      "type": "function"
    },
    {
      "inputs": [],
      "name": "trustedForwarder",
      "outputs": [
        {
          "internalType": "address",
          "name": "",
          "type": "address"
        }
      ],
      "stateMutability": "view",
      "type": "function"
    },
    {
      "inputs": [
        {
          "internalType": "bytes32",
          "name": "dataHash",
          "type": "bytes32"
        },
        {
          "internalType": "bytes",
          "name": "proof",
          "type": "bytes"
        }
      ],
      "name": "validateMedicalData",
      "outputs": [
        {
          "internalType": "bool",
          "name": "",
          "type": "bool"
        }
      ],
      "stateMutability": "nonpayable",
      "type": "function"
    }
  ],
  "bytecode": "0x60a060405234801561001057600080fd5b506040516108c23803806108c283398101604081905261002f916100aa565b6001600160a01b038083166080528390839082161561006457600080546001600160a01b0319166001600160a01b0384161790555b5050600180546001600160a01b0319166001600160a01b0392909216919091179055506100ed9050565b80516001600160a01b03811681146100a557600080fd5b919050565b6000806000606084860312156100bf57600080fd5b6100c88461008e565b92506100d66020850161008e565b91506100e46040850161008e565b90509250925092565b6080516107ad6101156000396000818160f00152818161014b015261045f01526107ad6000f3fe608060405234801561001057600080fd5b50600436106100885760003560e01c8063759a1f181161005b578063759a1f18146101365780637da0a8771461014957806391d148541461016f5780639e97b8f61461018257600080fd5b806313007d551461008d57806324d7806c146100bd578063572b6c05146100e05780635e7ccc2c14610120575b600080fd5b6000546100a0906001600160a01b031681565b6040516001600160a01b0390911681526020015b60405180910390f35b6100d06100cb3660046104e9565b610195565b60405190151581526020016100b4565b6100d06100ee3660046104e9565b7f00000000000000000000000000000000000000000000000000000000000000006001600160a01b0390811691161490565b61012861020f565b6040519081526020016100b4565b6100d061014436600461051a565b610294565b7f00000000000000000000000000000000000000000000000000000000000000006100a0565b6100d061017d3660046105d5565b6103a7565b6100d0610190366004610601565b610425565b60008054604051634f4bdc7b60e11b81526001600160a01b0390911690639e97b8f6906101c89084908690600401610631565b602060405180830381865afa1580156101e5573d6000803e3d6000fd5b505050506040513d601f19601f82011682018060405250810190610209919061066b565b92915050565b600080600160009054906101000a90046001600160a01b03166001600160a01b031663feaf968c6040518163ffffffff1660e01b815260040160a060405180830381865afa158015610265573d6000803e3d6000fd5b505050506040513d601f19601f8201168201806040525081019061028991906106a7565b509195945050505050565b600080546001600160a01b0316639e97b8f6826102af610458565b6040518363ffffffff1660e01b81526004016102cc929190610631565b602060405180830381865afa1580156102e9573d6000803e3d6000fd5b505050506040513d601f19601f8201168201806040525081019061030d919061066b565b6103685760405162461bcd60e51b815260206004820152602260248201527f416363657373436f6e74726f6c3a20726573747269637465642d746f2d61646d60448201526134b760f11b606482015260840160405180910390fd5b60405160018082529084907f9e68398c94bd1c813a49cf1bbd15b40674c1bf5b1126b782472f1801e944c04f9060200160405180910390a29392505050565b60008054604051632474521560e21b8152600481018590526001600160a01b038481166024830152909116906391d14854906044015b602060405180830381865afa1580156103fa573d6000803e3d6000fd5b505050506040513d601f19601f8201168201806040525081019061041e919061066b565b9392505050565b60008054604051634f4bdc7b60e11b81526001600160a01b0390911690639e97b8f6906103dd9086908690600401610631565b60003660147f00000000000000000000000000000000000000000000000000000000000000006001600160a01b0316331480156104955750808210155b156104c5576000366104a783856106f7565b6104b2928290610718565b6104bb91610742565b60601c9250505090565b339250505090565b80356001600160a01b03811681146104e457600080fd5b919050565b6000602082840312156104fb57600080fd5b61041e826104cd565b634e487b7160e01b600052604160045260246000fd5b6000806040838503121561052d57600080fd5b82359150602083013567ffffffffffffffff8082111561054c57600080fd5b818501915085601f83011261056057600080fd5b81358181111561057257610572610504565b604051601f8201601f19908116603f0116810190838211818310171561059a5761059a610504565b816040528281528860208487010111156105b357600080fd5b8260208601602083013760006020848301015280955050505050509250929050565b600080604083850312156105e857600080fd5b823591506105f8602084016104cd565b90509250929050565b6000806040838503121561061457600080fd5b82356009811061062357600080fd5b91506105f8602084016104cd565b604081016009841061065357634e487b7160e01b600052602160045260246000fd5b9281526001600160a01b039190911660209091015290565b60006020828403121561067d57600080fd5b8151801515811461041e57600080fd5b805169ffffffffffffffffffff811681146104e457600080fd5b600080600080600060a086880312156106bf57600080fd5b6106c88661068d565b94506020860151935060408601519250606086015191506106eb6080870161068d565b90509295509295909350565b8181038181111561020957634e487b7160e01b600052601160045260246000fd5b6000808585111561072857600080fd5b8386111561073557600080fd5b5050820193919092039150565b6bffffffffffffffffffffffff19813581811691601485101561076f5780818660140360031b1b83161692505b50509291505056fea264697066735822122051b97af05aa90c787e83102ba6b319ab2d349ec257b14d3b11d844143fdc14b264736f6c63430008140033",
  "linkReferences": {},
  "deployedLinkReferences": {}
}