{
  "contractName": "Doctor",
  "abi": [
    {
      "inputs": [],
      "stateMutability": "nonpayable",
      "type": "constructor"
    },
    {
      "inputs": [],
      "name": "AccessControlBadConfirmation",
      "type": "error"
    },
    {
      "inputs": [
        {
          "internalType": "address",
          "name": "account",
          "type": "address"
        },
        {
          "internalType": "bytes32",
          "name": "neededRole",
          "type": "bytes32"
        }
      ],
      "name": "AccessControlUnauthorizedAccount",
      "type": "error"
    },
    {
      "inputs": [],
      "name": "EnforcedPause",
      "type": "error"
    },
    {
      "inputs": [],
      "name": "ExpectedPause",
      "type": "error"
    },
    {
      "inputs": [],
      "name": "ReentrancyGuardReentrantCall",
      "type": "error"
    },
    {
      "anonymous": false,
      "inputs": [
        {
          "indexed": true,
          "internalType": "address",
          "name": "patient",
          "type": "address"
        },
        {
          "indexed": true,
          "internalType": "address",
          "name": "doctor",
          "type": "address"
        },
        {
          "indexed": false,
          "internalType": "string",
          "name": "ipfsHash",
          "type": "string"
        },
        {
          "indexed": false,
          "internalType": "uint256",
          "name": "grantTime",
          "type": "uint256"
        },
        {
          "indexed": false,
          "internalType": "uint256",
          "name": "duration",
          "type": "uint256"
        }
      ],
      "name": "AccessGranted",
      "type": "event"
    },
    {
      "anonymous": false,
      "inputs": [
        {
          "indexed": true,
          "internalType": "address",
          "name": "patient",
          "type": "address"
        },
        {
          "indexed": true,
          "internalType": "address",
          "name": "doctor",
          "type": "address"
        },
        {
          "indexed": false,
          "internalType": "string",
          "name": "ipfsHash",
          "type": "string"
        },
        {
          "indexed": false,
          "internalType": "string",
          "name": "fileName",
          "type": "string"
        },
        {
          "indexed": false,
          "internalType": "uint256",
          "name": "duration",
          "type": "uint256"
        },
        {
          "indexed": false,
          "internalType": "string",
          "name": "reason",
          "type": "string"
        }
      ],
      "name": "AccessRequested",
      "type": "event"
    },
    {
      "anonymous": false,
      "inputs": [
        {
          "indexed": true,
          "internalType": "address",
          "name": "patient",
          "type": "address"
        },
        {
          "indexed": true,
          "internalType": "address",
          "name": "doctor",
          "type": "address"
        },
        {
          "indexed": false,
          "internalType": "string",
          "name": "ipfsHash",
          "type": "string"
        },
        {
          "indexed": false,
          "internalType": "uint256",
          "name": "revokeTime",
          "type": "uint256"
        }
      ],
      "name": "AccessRevoked",
      "type": "event"
    },
    {
      "anonymous": false,
      "inputs": [
        {
          "indexed": true,
          "internalType": "address",
          "name": "doctor",
          "type": "address"
        },
        {
          "indexed": true,
          "internalType": "address",
          "name": "patient",
          "type": "address"
        },
        {
          "indexed": false,
          "internalType": "string",
          "name": "ipfsHash",
          "type": "string"
        },
        {
          "indexed": false,
          "internalType": "string",
          "name": "reason",
          "type": "string"
        },
        {
          "indexed": false,
          "internalType": "uint256",
          "name": "timestamp",
          "type": "uint256"
        }
      ],
      "name": "EmergencyAccessGranted",
      "type": "event"
    },
    {
      "anonymous": false,
      "inputs": [
        {
          "indexed": true,
          "internalType": "address",
          "name": "patient",
          "type": "address"
        },
        {
          "indexed": true,
          "internalType": "address",
          "name": "resolver",
          "type": "address"
        },
        {
          "indexed": false,
          "internalType": "string",
          "name": "ipfsHash",
          "type": "string"
        },
        {
          "indexed": false,
          "internalType": "uint256",
          "name": "timestamp",
          "type": "uint256"
        }
      ],
      "name": "EmergencyResolved",
      "type": "event"
    },
    {
      "anonymous": false,
      "inputs": [
        {
          "indexed": true,
          "internalType": "uint256",
          "name": "doctorId",
          "type": "uint256"
        },
        {
          "indexed": true,
          "internalType": "uint256",
          "name": "patientId",
          "type": "uint256"
        },
        {
          "indexed": true,
          "internalType": "address",
          "name": "doctor",
          "type": "address"
        }
      ],
      "name": "PatientAdded",
      "type": "event"
    },
    {
      "anonymous": false,
      "inputs": [
        {
          "indexed": false,
          "internalType": "address",
          "name": "account",
          "type": "address"
        }
      ],
      "name": "Paused",
      "type": "event"
    },
    {
      "anonymous": false,
      "inputs": [
        {
          "indexed": true,
          "internalType": "bytes32",
          "name": "role",
          "type": "bytes32"
        },
        {
          "indexed": true,
          "internalType": "bytes32",
          "name": "previousAdminRole",
          "type": "bytes32"
        },
        {
          "indexed": true,
          "internalType": "bytes32",
          "name": "newAdminRole",
          "type": "bytes32"
        }
      ],
      "name": "RoleAdminChanged",
      "type": "event"
    },
    {
      "anonymous": false,
      "inputs": [
        {
          "indexed": true,
          "internalType": "bytes32",
          "name": "role",
          "type": "bytes32"
        },
        {
          "indexed": true,
          "internalType": "address",
          "name": "account",
          "type": "address"
        },
        {
          "indexed": true,
          "internalType": "address",
          "name": "sender",
          "type": "address"
        }
      ],
      "name": "RoleGranted",
      "type": "event"
    },
    {
      "anonymous": false,
      "inputs": [
        {
          "indexed": true,
          "internalType": "bytes32",
          "name": "role",
          "type": "bytes32"
        },
        {
          "indexed": true,
          "internalType": "address",
          "name": "account",
          "type": "address"
        },
        {
          "indexed": true,
          "internalType": "address",
          "name": "sender",
          "type": "address"
        }
      ],
      "name": "RoleRevoked",
      "type": "event"
    },
    {
      "anonymous": false,
      "inputs": [
        {
          "indexed": false,
          "internalType": "address",
          "name": "account",
          "type": "address"
        }
      ],
      "name": "Unpaused",
      "type": "event"
    },
    {
      "inputs": [],
      "name": "ADMIN_ROLE",
      "outputs": [
        {
          "internalType": "bytes32",
          "name": "",
          "type": "bytes32"
        }
      ],
      "stateMutability": "view",
      "type": "function"
    },
    {
      "inputs": [],
      "name": "DEFAULT_ADMIN_ROLE",
      "outputs": [
        {
          "internalType": "bytes32",
          "name": "",
          "type": "bytes32"
        }
      ],
      "stateMutability": "view",
      "type": "function"
    },
    {
      "inputs": [],
      "name": "DOCTOR_ROLE",
      "outputs": [
        {
          "internalType": "bytes32",
          "name": "",
          "type": "bytes32"
        }
      ],
      "stateMutability": "view",
      "type": "function"
    },
    {
      "inputs": [],
      "name": "MAX_ACCESS_REQUESTS",
      "outputs": [
        {
          "internalType": "uint256",
          "name": "",
          "type": "uint256"
        }
      ],
      "stateMutability": "view",
      "type": "function"
    },
    {
      "inputs": [],
      "name": "RATE_LIMIT_WINDOW",
      "outputs": [
        {
          "internalType": "uint256",
          "name": "",
          "type": "uint256"
        }
      ],
      "stateMutability": "view",
      "type": "function"
    },
    {
      "inputs": [
        {
          "internalType": "uint256",
          "name": "",
          "type": "uint256"
        },
        {
          "internalType": "uint256",
          "name": "",
          "type": "uint256"
        }
      ],
      "name": "doctorAccessList",
      "outputs": [
        {
          "internalType": "address",
          "name": "patient",
          "type": "address"
        },
        {
          "internalType": "string",
          "name": "ipfsHash",
          "type": "string"
        },
        {
          "internalType": "string",
          "name": "fileName",
          "type": "string"
        },
        {
          "internalType": "bool",
          "name": "hasAccess",
          "type": "bool"
        },
        {
          "internalType": "uint256",
          "name": "grantTime",
          "type": "uint256"
        },
        {
          "internalType": "uint256",
          "name": "duration",
          "type": "uint256"
        },
        {
          "internalType": "string",
          "name": "reason",
          "type": "string"
        },
        {
          "internalType": "bool",
          "name": "isEmergency",
          "type": "bool"
        },
        {
          "internalType": "bool",
          "name": "isResolved",
          "type": "bool"
        }
      ],
      "stateMutability": "view",
      "type": "function"
    },
    {
      "inputs": [
        {
          "internalType": "uint256",
          "name": "",
          "type": "uint256"
        }
      ],
      "name": "doctors",
      "outputs": [
        {
          "internalType": "uint256",
          "name": "doctorId",
          "type": "uint256"
        },
        {
          "internalType": "string",
          "name": "name",
          "type": "string"
        },
        {
          "internalType": "string",
          "name": "specialization",
          "type": "string"
        },
        {
          "internalType": "string",
          "name": "email",
          "type": "string"
        }
      ],
      "stateMutability": "view",
      "type": "function"
    },
    {
      "inputs": [
        {
          "internalType": "bytes32",
          "name": "role",
          "type": "bytes32"
        }
      ],
      "name": "getRoleAdmin",
      "outputs": [
        {
          "internalType": "bytes32",
          "name": "",
          "type": "bytes32"
        }
      ],
      "stateMutability": "view",
      "type": "function"
    },
    {
      "inputs": [
        {
          "internalType": "bytes32",
          "name": "role",
          "type": "bytes32"
        },
        {
          "internalType": "address",
          "name": "account",
          "type": "address"
        }
      ],
      "name": "grantRole",
      "outputs": [],
      "stateMutability": "nonpayable",
      "type": "function"
    },
    {
      "inputs": [
        {
          "internalType": "bytes32",
          "name": "role",
          "type": "bytes32"
        },
        {
          "internalType": "address",
          "name": "account",
          "type": "address"
        }
      ],
      "name": "hasRole",
      "outputs": [
        {
          "internalType": "bool",
          "name": "",
          "type": "bool"
        }
      ],
      "stateMutability": "view",
      "type": "function"
    },
    {
      "inputs": [],
      "name": "hospitalContract",
      "outputs": [
        {
          "internalType": "address",
          "name": "",
          "type": "address"
        }
      ],
      "stateMutability": "view",
      "type": "function"
    },
    {
      "inputs": [],
      "name": "owner",
      "outputs": [
        {
          "internalType": "address",
          "name": "",
          "type": "address"
        }
      ],
      "stateMutability": "view",
      "type": "function"
    },
    {
      "inputs": [],
      "name": "paused",
      "outputs": [
        {
          "internalType": "bool",
          "name": "",
          "type": "bool"
        }
      ],
      "stateMutability": "view",
      "type": "function"
    },
    {
      "inputs": [
        {
          "internalType": "bytes32",
          "name": "role",
          "type": "bytes32"
        },
        {
          "internalType": "address",
          "name": "callerConfirmation",
          "type": "address"
        }
      ],
      "name": "renounceRole",
      "outputs": [],
      "stateMutability": "nonpayable",
      "type": "function"
    },
    {
      "inputs": [
        {
          "internalType": "bytes32",
          "name": "role",
          "type": "bytes32"
        },
        {
          "internalType": "address",
          "name": "account",
          "type": "address"
        }
      ],
      "name": "revokeRole",
      "outputs": [],
      "stateMutability": "nonpayable",
      "type": "function"
    },
    {
      "inputs": [
        {
          "internalType": "bytes4",
          "name": "interfaceId",
          "type": "bytes4"
        }
      ],
      "name": "supportsInterface",
      "outputs": [
        {
          "internalType": "bool",
          "name": "",
          "type": "bool"
        }
      ],
      "stateMutability": "view",
      "type": "function"
    },
    {
      "inputs": [
        {
          "internalType": "address",
          "name": "",
          "type": "address"
        }
      ],
      "name": "walletToDoctorId",
      "outputs": [
        {
          "internalType": "uint256",
          "name": "",
          "type": "uint256"
        }
      ],
      "stateMutability": "view",
      "type": "function"
    },
    {
      "inputs": [
        {
          "internalType": "address",
          "name": "_addr",
          "type": "address"
        }
      ],
      "name": "setHospitalContract",
      "outputs": [],
      "stateMutability": "nonpayable",
      "type": "function"
    },
    {
      "inputs": [
        {
          "internalType": "string",
          "name": "_name",
          "type": "string"
        },
        {
          "internalType": "string",
          "name": "_specialization",
          "type": "string"
        },
        {
          "internalType": "string",
          "name": "_hospital",
          "type": "string"
        }
      ],
      "name": "registerDoctor",
      "outputs": [],
      "stateMutability": "nonpayable",
      "type": "function"
    },
    {
      "inputs": [
        {
          "internalType": "uint256",
          "name": "_patientId",
          "type": "uint256"
        }
      ],
      "name": "addPatient",
      "outputs": [],
      "stateMutability": "nonpayable",
      "type": "function"
    },
    {
      "inputs": [],
      "name": "getDoctorPatients",
      "outputs": [
        {
          "internalType": "uint256[]",
          "name": "",
          "type": "uint256[]"
        }
      ],
      "stateMutability": "view",
      "type": "function"
    },
    {
      "inputs": [
        {
          "internalType": "address",
          "name": "_patient",
          "type": "address"
        },
        {
          "internalType": "string",
          "name": "_ipfsHash",
          "type": "string"
        }
      ],
      "name": "hasAccessToDocument",
      "outputs": [
        {
          "internalType": "bool",
          "name": "",
          "type": "bool"
        }
      ],
      "stateMutability": "view",
      "type": "function"
    },
    {
      "inputs": [
        {
          "internalType": "address",
          "name": "_patient",
          "type": "address"
        },
        {
          "internalType": "string",
          "name": "_ipfsHash",
          "type": "string"
        },
        {
          "internalType": "string",
          "name": "_fileName",
          "type": "string"
        },
        {
          "internalType": "uint256",
          "name": "_duration",
          "type": "uint256"
        },
        {
          "internalType": "string",
          "name": "_reason",
          "type": "string"
        }
      ],
      "name": "requestAccess",
      "outputs": [],
      "stateMutability": "nonpayable",
      "type": "function"
    },
    {
      "inputs": [
        {
          "internalType": "address",
          "name": "_patient",
          "type": "address"
        },
        {
          "internalType": "string",
          "name": "_ipfsHash",
          "type": "string"
        },
        {
          "internalType": "string",
          "name": "_fileName",
          "type": "string"
        },
        {
          "internalType": "string",
          "name": "_reason",
          "type": "string"
        },
        {
          "internalType": "address",
          "name": "_hospitalAddress",
          "type": "address"
        }
      ],
      "name": "emergencyBreakGlass",
      "outputs": [],
      "stateMutability": "nonpayable",
      "type": "function"
    },
    {
      "inputs": [
        {
          "internalType": "address",
          "name": "_doctor",
          "type": "address"
        },
        {
          "internalType": "string",
          "name": "_ipfsHash",
          "type": "string"
        },
        {
          "internalType": "uint256",
          "name": "_duration",
          "type": "uint256"
        }
      ],
      "name": "grantAccess",
      "outputs": [],
      "stateMutability": "nonpayable",
      "type": "function"
    },
    {
      "inputs": [
        {
          "internalType": "address",
          "name": "_doctor",
          "type": "address"
        },
        {
          "internalType": "string",
          "name": "_ipfsHash",
          "type": "string"
        }
      ],
      "name": "resolveEmergency",
      "outputs": [],
      "stateMutability": "nonpayable",
      "type": "function"
    },
    {
      "inputs": [
        {
          "internalType": "address",
          "name": "_doctor",
          "type": "address"
        },
        {
          "internalType": "string",
          "name": "_ipfsHash",
          "type": "string"
        }
      ],
      "name": "revokeAccess",
      "outputs": [],
      "stateMutability": "nonpayable",
      "type": "function"
    },
    {
      "inputs": [],
      "name": "getAccessList",
      "outputs": [
        {
          "components": [
            {
              "internalType": "address",
              "name": "patient",
              "type": "address"
            },
            {
              "internalType": "string",
              "name": "ipfsHash",
              "type": "string"
            },
            {
              "internalType": "string",
              "name": "fileName",
              "type": "string"
            },
            {
              "internalType": "bool",
              "name": "hasAccess",
              "type": "bool"
            },
            {
              "internalType": "uint256",
              "name": "grantTime",
              "type": "uint256"
            },
            {
              "internalType": "uint256",
              "name": "duration",
              "type": "uint256"
            },
            {
              "internalType": "string",
              "name": "reason",
              "type": "string"
            },
            {
              "internalType": "bool",
              "name": "isEmergency",
              "type": "bool"
            },
            {
              "internalType": "bool",
              "name": "isResolved",
              "type": "bool"
            }
          ],
          "internalType": "struct Doctor.DocumentAccess[]",
          "name": "",
          "type": "tuple[]"
        }
      ],
      "stateMutability": "view",
      "type": "function"
    },
    {
      "inputs": [],
      "name": "getPatients",
      "outputs": [
        {
          "components": [
            {
              "internalType": "uint256",
              "name": "doctorId",
              "type": "uint256"
            },
            {
              "internalType": "string",
              "name": "name",
              "type": "string"
            },
            {
              "internalType": "string",
              "name": "specialization",
              "type": "string"
            },
            {
              "internalType": "string",
              "name": "email",
              "type": "string"
            },
            {
              "internalType": "uint256[]",
              "name": "patientIds",
              "type": "uint256[]"
            }
          ],
          "internalType": "struct Doctor.DoctorDetails[]",
          "name": "",
          "type": "tuple[]"
        }
      ],
      "stateMutability": "view",
      "type": "function"
    },
    {
      "inputs": [
        {
          "internalType": "address",
          "name": "walletAddress",
          "type": "address"
        }
      ],
      "name": "doctorExists",
      "outputs": [
        {
          "internalType": "bool",
          "name": "",
          "type": "bool"
        }
      ],
      "stateMutability": "view",
      "type": "function"
    },
    {
      "inputs": [],
      "name": "getAllDoctors",
      "outputs": [
        {
          "components": [
            {
              "internalType": "uint256",
              "name": "doctorId",
              "type": "uint256"
            },
            {
              "internalType": "string",
              "name": "name",
              "type": "string"
            },
            {
              "internalType": "string",
              "name": "specialization",
              "type": "string"
            },
            {
              "internalType": "string",
              "name": "email",
              "type": "string"
            },
            {
              "internalType": "uint256[]",
              "name": "patientIds",
              "type": "uint256[]"
            }
          ],
          "internalType": "struct Doctor.DoctorDetails[]",
          "name": "",
          "type": "tuple[]"
        }
      ],
      "stateMutability": "view",
      "type": "function"
    },
    {
      "inputs": [
        {
          "internalType": "string",
          "name": "_specialization",
          "type": "string"
        }
      ],
      "name": "getDoctorsBySpecialization",
      "outputs": [
        {
          "components": [
            {
              "internalType": "uint256",
              "name": "doctorId",
              "type": "uint256"
            },
            {
              "internalType": "string",
              "name": "name",
              "type": "string"
            },
            {
              "internalType": "string",
              "name": "specialization",
              "type": "string"
            },
            {
              "internalType": "string",
              "name": "email",
              "type": "string"
            },
            {
              "internalType": "uint256[]",
              "name": "patientIds",
              "type": "uint256[]"
            }
          ],
          "internalType": "struct Doctor.DoctorDetails[]",
          "name": "",
          "type": "tuple[]"
        }
      ],
      "stateMutability": "view",
      "type": "function"
    },
    {
      "inputs": [
        {
          "internalType": "string",
          "name": "_query",
          "type": "string"
        }
      ],
      "name": "searchDoctors",
      "outputs": [
        {
          "components": [
            {
              "internalType": "uint256",
              "name": "doctorId",
              "type": "uint256"
            },
            {
              "internalType": "string",
              "name": "name",
              "type": "string"
            },
            {
              "internalType": "string",
              "name": "specialization",
              "type": "string"
            },
            {
              "internalType": "string",
              "name": "email",
              "type": "string"
            },
            {
              "internalType": "uint256[]",
              "name": "patientIds",
              "type": "uint256[]"
            }
          ],
          "internalType": "struct Doctor.DoctorDetails[]",
          "name": "",
          "type": "tuple[]"
        }
      ],
      "stateMutability": "view",
      "type": "function"
    },
    {
      "inputs": [
        {
          "internalType": "uint256",
          "name": "_doctorId",
          "type": "uint256"
        }
      ],
      "name": "cleanupExpiredAccess",
      "outputs": [
        {
          "internalType": "uint256",
          "name": "cleanedCount",
          "type": "uint256"
        }
      ],
      "stateMutability": "nonpayable",
      "type": "function"
    },
    {
      "inputs": [],
      "name": "cleanupExpiredAccessForAll",
      "outputs": [
        {
          "internalType": "uint256",
          "name": "totalCleaned",
          "type": "uint256"
        }
      ],
      "stateMutability": "nonpayable",
      "type": "function"
    },
    {
      "inputs": [
        {
          "internalType": "uint256",
          "name": "_doctorId",
          "type": "uint256"
        }
      ],
      "name": "getExpiredAccessCount",
      "outputs": [
        {
          "internalType": "uint256",
          "name": "count",
          "type": "uint256"
        }
      ],
      "stateMutability": "view",
      "type": "function"
    },
    {
      "inputs": [
        {
          "internalType": "uint256",
          "name": "_doctorId",
          "type": "uint256"
        },
        {
          "internalType": "address",
          "name": "_patient",
          "type": "address"
        }
      ],
      "name": "isAccessExpired",
      "outputs": [
        {
          "internalType": "bool",
          "name": "",
          "type": "bool"
        }
      ],
      "stateMutability": "view",
      "type": "function"
    },
    {
      "inputs": [],
      "name": "pauseContract",
      "outputs": [],
      "stateMutability": "nonpayable",
      "type": "function"
    },
    {
      "inputs": [],
      "name": "unpauseContract",
      "outputs": [],
      "stateMutability": "nonpayable",
      "type": "function"
    },
    {
      "inputs": [
        {
          "internalType": "address",
          "name": "_doctor",
          "type": "address"
        }
      ],
      "name": "grantDoctorRole",
      "outputs": [],
      "stateMutability": "nonpayable",
      "type": "function"
    },
    {
      "inputs": [
        {
          "internalType": "address",
          "name": "_doctor",
          "type": "address"
        }
      ],
      "name": "revokeDoctorRole",
      "outputs": [],
      "stateMutability": "nonpayable",
      "type": "function"
    },
    {
      "inputs": [
        {
          "internalType": "address",
          "name": "_account",
          "type": "address"
        }
      ],
      "name": "isDoctorRole",
      "outputs": [
        {
          "internalType": "bool",
          "name": "",
          "type": "bool"
        }
      ],
      "stateMutability": "view",
      "type": "function"
    }
  ],
  "bytecode": "0x60806040523461004b5760015f5560ff19600154166001553360018060a01b031960095416176009556100313361004f565b5061003b336100c5565b5060405161339890816101598239f35b5f80fd5b6001600160a01b0381165f9081525f5160206135115f395f51905f52602052604090205460ff166100c0576001600160a01b03165f8181525f5160206135115f395f51905f5260205260408120805460ff191660011790553391905f5160206134f15f395f51905f528180a4600190565b505f90565b6001600160a01b0381165f9081525f5160206135315f395f51905f52602052604090205460ff166100c0576001600160a01b03165f8181525f5160206135315f395f51905f5260205260408120805460ff191660011790553391907fa49807205ce4d355092ef5a8a18f56e8913cf4a201fbe287825b095693c21775905f5160206134f15f395f51905f529080a460019056fe6080806040526004361015610012575f80fd5b5f3560e01c90816301ffc9a714611f175750806302b66aaf14611c2f5780630439b48114611be157806312ad1c3714611a4757806315759754146119b7578063248a9ca3146119845780632ad230a91461194a5780632f2ff15d1461190c5780632f5635cc146118a357806333948de2146117b55780633551df5d146116e457806336568abe146116a0578063439766ce1461164857806347dbb71a14611620578063506e08d2146114f557806350c7a912146110ae578063565d45e1146110935780635c975abb146110715780636a44cac91461105a5780636bd6f34b14610ff15780636efb1b8414610f6c5780637130dfc914610f5057806375b238fc14610f165780637f93a96114610ed15780638b145ec814610e4f5780638d5ddbb314610c685780638da5cb5b14610c4057806391d1485414610bf757806398cf72b314610bbf578063a217fddf14610ba5578063a37633ef146109b7578063af2e1665146109a0578063b33712c51461093a578063b69c61571461066e578063c241cdd7146104da578063d547741f14610495578063e455afee146103de578063f0d9509014610309578063f32a7591146102e3578063f551d54c14610238578063f6827cd1146102155763fec331f2146101ea575f80fd5b34610211575f3660031901126102115760206040515f5160206133435f395f51905f528152f35b5f80fd5b3461021157602061022e6102283661226c565b90612e1f565b6040519015158152f35b34610211576020366003190112610211575f6004355f52600560205260405f205f908054915b82811061027057602084604051908152f35b61027a8183612167565b5060ff60038201541690816102d0575b816102b2575b5061029e575b60010161025e565b926102aa60019161239a565b939050610296565b6102c79150600560048201549101549061238d565b42101585610290565b600781015460081c60ff1615915061028a565b3461021157604036600319011261021157602061022e610301611f80565b600435612da0565b34610211575f36600319011261021157600854610325816127e1565b905f5b818110610341576040518061033d8582612089565b0390f35b60018101908181116103ca576001915f52600460205260405f206103a960046040519261036d84611fb2565b8054845261037c8682016121cc565b602085015261038d600282016121cc565b604085015261039e600382016121cc565b606085015201612865565b60808201526103b88286612851565b526103c38185612851565b5001610328565b634e487b7160e01b5f52601160045260245ffd5b34610211576020366003190112610211576004355f52600560205260405f205f905f5b815481101561048a576104148183612167565b50600381019081549060ff82169081610477575b81610459575b5061043e575b5050600101610401565b60ff19169055916001906104519061239a565b929084610434565b61046e9150600560048201549101549061238d565b4210158661042e565b600781015460081c60ff16159150610428565b602083604051908152f35b34610211576040366003190112610211576104d86004356104b4611f80565b906104d36104ce825f526002602052600160405f20015490565b6130af565b61329e565b005b34610211576104e8366122ae565b90600854905f60015b838111156105f25750610503906127e1565b925f9160015b8481111561051f576040518061033d8882612089565b805f526004602052600260405f2001604051610551816105436020820180956128c2565b03601f198101835282611fcd565b51902060405160208101908585833761057d6020828881015f838201520301601f198101835282611fcd565b51902014610594575b61058f9061239a565b610509565b926105ea61058f91855f52600460205260405f206105ca6004604051926105ba84611fb2565b8054845261037c600182016121cc565b60808201526105d9828a612851565b526105e48189612851565b5061239a565b939050610586565b805f526004602052600260405f2001604051610616816105436020820180956128c2565b5190206040516020810190878683376106426020828a81015f838201520301601f198101835282611fcd565b51902014610659575b6106549061239a565b6104f1565b906106666106549161239a565b91905061064b565b346102115760a036600319011261021157610687611f6a565b6024356001600160401b038111610211576106a6903690600401611fee565b6044356001600160401b038111610211576106c5903690600401611fee565b916064356001600160401b038111610211576106e5903690600401611fee565b6084356001600160a01b03811694919085900361021157610704613007565b61070c613022565b335f52600360205260405f2054926107258415156122fd565b600a546001600160a01b03169081156108e9576001600160a01b031695602090610750881515612341565b60446040518094819363b6d8539560e01b835233600484015260248301525afa9081156108de575f916108a3575b501561083857610802610825927fc18b0a731326cfd073d9219b559d4a74aaed4d08716d26c4ace853127d096edb945f52600560205260405f20604051916107c583611f96565b8883528760208401526040830152600160608301524260808301526201518060a08301528360c0830152600160e08301525f6101008301526123a8565b61081760405194606086526060860190612064565b908482036020860152612064565b914260408201528033930390a360015f55005b60405162461bcd60e51b815260206004820152603c60248201527f446f63746f72206973206e6f742070756e6368656420696e20666f7220656d6560448201527f7267656e63792064757479206174207468697320686f73706974616c000000006064820152608490fd5b90506020813d6020116108d6575b816108be60209383611fcd565b8101031261021157518015158103610211578661077e565b3d91506108b1565b6040513d5f823e3d90fd5b60405162461bcd60e51b8152602060048201526024808201527f486f73706974616c20766572696669636174696f6e2073797374656d206e6f74604482015263081cd95d60e21b6064820152608490fd5b34610211575f36600319011261021157610952613040565b60015460ff8116156109915760ff19166001557f5db9ee0a495bf2e6ff9c91a7834c1ba4fdd244a5e8aa4e537bd38aeae4b073aa6020604051338152a1005b638dfc202b60e01b5f5260045ffd5b34610211576104d86109b13661226c565b90612c37565b34610211576109c5366122ae565b600854909160015f5b83821115610af2576109e091506127e1565b916001908111156109f9576040518061033d8582612089565b9091505f52600460205260405f2091610ac2604051610a1781611fb2565b84548152610a27600186016121cc565b90602081019182526080610a616004610a4260028a016121cc565b9860408501998a52610a56600382016121cc565b606086015201612865565b91015251604051610a9360208281610a828183019687815193849201612043565b81010301601f198101835282611fcd565b5190209351602060405182610ab18294518092858086019101612043565b8101030190601f1982018152611fcd565b610ae9602060405183819483830196873781015f838201520301601f198101835282611fcd565b519020906103ca565b610b99610b9f91835f526004602052610b6d60405f20604051610b1481611fb2565b815481526080610b506004610b2b600186016121cc565b9460208501958652610b3f600282016121cc565b6040860152610a56600382016121cc565b91015251602060405182610ab18294518092858086019101612043565b610b94604051888760208301376020818a81015f83820152030190601f1982018152611fcd565b61239a565b9161239a565b906109ce565b34610211575f3660031901126102115760206040515f8152f35b34610211576020366003190112610211576001600160a01b03610be0611f6a565b165f526003602052602060405f2054604051908152f35b3461021157604036600319011261021157610c10611f80565b6004355f52600260205260405f209060018060a01b03165f52602052602060ff60405f2054166040519015158152f35b34610211575f366003190112610211576009546040516001600160a01b039091168152602090f35b34610211575f36600319011261021157335f52600360205260405f2054610c908115156122fd565b5f52600560205260405f20805490610ca7826127ca565b91610cb56040519384611fcd565b8083526020830180925f5260205f205f915b838310610db357848660405191829160208301906020845251809152604083019060408160051b85010192915f905b828210610d0557505050500390f35b919360019193955060208091603f19898203018552875190848060a01b03825116815261010080610d8f610d5d610d4b8787015161012089880152610120870190612064565b60408701518682036040880152612064565b6060860151151560608601526080860151608086015260a086015160a086015260c086015185820360c0870152612064565b9360e0810151151560e0850152015115159101529601920192018594939192610cf6565b60086020600192604051610dc681611f96565b848060a01b038654168152610ddc8587016121cc565b83820152610dec600287016121cc565b604082015260ff6003870154161515606082015260048601546080820152600586015460a0820152610e20600687016121cc565b60c082015260ff6007870154818116151560e0840152851c161515610100820152815201920192019190610cc7565b34610211575f36600319011261021157335f52600360205260405f2054610e778115156122fd565b5f526004602052610e8d600460405f2001612865565b6040518091602082016020835281518091526020604084019201905f5b818110610eb8575050500390f35b8251845285945060209384019390920191600101610eaa565b3461021157606036600319011261021157610eea611f6a565b602435906001600160401b03821161021157610f0d6104d8923690600401611fee565b60443591612aca565b34610211575f3660031901126102115760206040517fa49807205ce4d355092ef5a8a18f56e8913cf4a201fbe287825b095693c217758152f35b34610211575f366003190112610211576020604051610e108152f35b34610211576020366003190112610211576004355f52600460205260405f20805461033d610f9c600184016121cc565b92610fe3610fb86003610fb1600285016121cc565b93016121cc565b91610fd56040519687968752608060208801526080870190612064565b908582036040870152612064565b908382036060850152612064565b34610211576020366003190112610211576104d861100d611f6a565b611015613040565b5f5160206133435f395f51905f525f5260026020527f61030fecadebfb424535ca6b7d59e12594b5d1fda4f0a938fe5a3540866e241054611055906130af565b61320d565b34610211576104d861106b3661226c565b90612948565b34610211575f36600319011261021157602060ff600154166040519015158152f35b34610211575f366003190112610211576020604051600a8152f35b34610211576060366003190112610211576004356001600160401b038111610211576110de903690600401611fee565b6024356001600160401b038111610211576110fd903690600401611fee565b906044356001600160401b0381116102115761111d903690600401611fee565b90335f52600360205260405f20546114b05761113a60085461239a565b80600855335f52600360205260405f205560085490815f52600460205260405f2091825560018201908051906001600160401b0382116113155781906111808454612194565b601f8111611457575b50602090601f83116001146113f4575f926113e9575b50508160011b915f199060031b1c19161790555b6002810183516001600160401b038111611315576111d18254612194565b601f8111611398575b506020601f8211600114611334578190600395965f92611329575b50508160011b915f1990861b1c19161790555b0181516001600160401b038111611315576112238254612194565b601f81116112c4575b50602092601f821160011461126857928192935f9261125d575b50505f19600383901b1c191660019190911b179055005b015190508380611246565b601f19821693835f52805f20915f5b8681106112ac5750836001959610611294575b505050811b019055005b01515f1960f88460031b161c1916905583808061128a565b91926020600181928685015181550194019201611277565b8181111561122c57825f5260205f20601f830160051c906020841061130d575b81601f9101920160051c03905f5b82811061130057505061122c565b5f828201556001016112f2565b5f91506112e4565b634e487b7160e01b5f52604160045260245ffd5b0151905086806111f5565b601f19821695835f52815f20965f5b8181106113805750916003969791846001959410611369575b505050811b019055611208565b01515f1983881b60f8161c1916905586808061135c565b83830151895560019098019760209384019301611343565b818111156111da57825f5260205f20601f830160051c90602084106113e1575b81601f9101920160051c03905f5b8281106113d45750506111da565b5f828201556001016113c6565b5f91506113b8565b01519050868061119f565b5f8581528281209350601f198516905b81811061143f5750908460019594939210611427575b505050811b0190556111b3565b01515f1960f88460031b161c1916905586808061141a565b92936020600181928786015181550195019301611404565b8281111561118957909150835f5260205f20601f840160051c90602085106114a8575b849392601f0160051c82900391015f5b828110611498575050611189565b5f8183015585945060010161148a565b5f915061147a565b60405162461bcd60e51b815260206004820152601960248201527f446f63746f7220616c72656164792072656769737465726564000000000000006044820152606490fd5b3461021157602036600319011261021157600435335f52600360205260405f2054906115228215156122fd565b5f905f5b835f526004602052600460405f20015481101561161957835f5260046020528161155682600460405f20016128ad565b90549060031b1c1461156a57600101611526565b50905060015b6115dc57815f526004602052600460405f20018054600160401b811015611315576115a0916001820181556128ad565b81549060031b9083821b915f19901b191617905533917f62e4da5e5c3a89b6dca6a385b8712c06f51bf0855ae5b6abd14937474a4ce01e5f80a4005b60405162461bcd60e51b815260206004820152601560248201527414185d1a595b9d08185b1c9958591e481859191959605a1b6044820152606490fd5b5090611570565b34610211575f36600319011261021157600a546040516001600160a01b039091168152602090f35b34610211575f36600319011261021157611660613040565b611668613007565b600160ff19815416176001557f62e78cea01bee320cd4e420270b5ea74000d11b0c9f74754ebdbfc544b05a2586020604051338152a1005b34610211576040366003190112610211576116b9611f80565b336001600160a01b038216036116d5576104d89060043561329e565b63334bd91960e11b5f5260045ffd5b34610211575f366003190112610211575f60015b60085481116117aa57805f52600560205260405f20915f5b8354811015611799576117238185612167565b50600381019081549060ff82169081611786575b81611768575b5061174d575b5050600101611710565b60ff19169055906001906117609061239a565b919085611743565b61177d9150600560048201549101549061238d565b4210158761173d565b600781015460081c60ff16159150611737565b5091506117a59061239a565b6116f8565b602082604051908152f35b34610211576040366003190112610211576024356004355f52600560205260405f20908154811015610211576117ea91612167565b5080546001600160a01b0316611802600183016121cc565b9160ff611888611814600284016121cc565b92826003820154169060048101546005820154906118696007611839600686016121cc565b9401549761185b6040519b8c9b8c5261012060208d01526101208c0190612064565b908a820360408c0152612064565b9315156060890152608088015260a087015285820360c0870152612064565b91818116151560e085015260081c1615156101008301520390f35b34610211576020366003190112610211576104d86118bf611f6a565b6118c7613040565b5f5160206133435f395f51905f525f5260026020527f61030fecadebfb424535ca6b7d59e12594b5d1fda4f0a938fe5a3540866e241054611907906130af565b6130e9565b34610211576040366003190112610211576104d860043561192b611f80565b906119456104ce825f526002602052600160405f20015490565b613181565b34610211576020366003190112610211576001600160a01b0361196b611f6a565b165f526003602052602060405f20541515604051908152f35b346102115760203660031901126102115760206119af6004355f526002602052600160405f20015490565b604051908152f35b34610211576020366003190112610211576119d0611f6a565b6119d8613040565b6119e0613007565b6001600160a01b03168015611a0b576bffffffffffffffffffffffff60a01b600a541617600a555f80f35b60405162461bcd60e51b8152602060048201526014602482015273496e76616c6964207a65726f206164647265737360601b6044820152606490fd5b34610211575f36600319011261021157335f52600360205260405f2054611a6f8115156122fd565b805f52600560205260405f208054611a86816127ca565b91611a946040519384611fcd565b81835260208301905f5260205f205f915b838310611b45578585611ab881516127e1565b915f5f5b8351811015611b37576060611ad18286612851565b510151611ae1575b600101611abc565b90611b2f600191845f52600460205260405f20611b15600460405192611b0684611fb2565b8054845261037c8782016121cc565b6080820152611b248289612851565b526105e48188612851565b919050611ad9565b6040518061033d8782612089565b60086020600192604051611b5881611f96565b848060a01b038654168152611b6e8587016121cc565b83820152611b7e600287016121cc565b604082015260ff6003870154161515606082015260048601546080820152600586015460a0820152611bb2600687016121cc565b60c082015260ff6007870154818116151560e0840152851c161515610100820152815201920192019190611aa5565b3461021157602036600319011261021157611bfa611f6a565b6001600160a01b03165f9081525f5160206133235f395f51905f52602090815260409182902054915160ff9092161515825290f35b346102115760a036600319011261021157611c48611f6a565b6024356001600160401b03811161021157611c67903690600401611fee565b906044356001600160401b03811161021157611c87903690600401611fee565b90606435906084356001600160401b03811161021157611cab903690600401611fee565b93611cb4613007565b611cbc613022565b335f52600360205260405f205491611cd58315156122fd565b6001600160a01b031693611cea851515612341565b815115611ede5783151580611ed0575b15611e9857335f52600660205260405f2054610e1081018091116103ca57421015611e4957335f526007602052600a60405f20541015611e0e577fc4de088654327f2907ad8f0c288704b90c01af218c310b25c1682df9b7c8c7cd93611df0611e0592611de295335f52600760205260405f20611d77815461239a565b90555b5f526005602052611dce60405f2060405190611d9582611f96565b8a82528760208301528360408301525f60608301525f60808301528560a08301528b60c08301525f60e08301525f6101008301526123a8565b604051958695608087526080870190612064565b908582036020870152612064565b90604084015282810360608401523396612064565b0390a360015f55005b60405162461bcd60e51b815260206004820152601360248201527214985d19481b1a5b5a5d08195e18d959591959606a1b6044820152606490fd5b7fc4de088654327f2907ad8f0c288704b90c01af218c310b25c1682df9b7c8c7cd93611df0611e0592611de295335f5260066020524260405f2055335f526007602052600160405f2055611d7a565b60405162461bcd60e51b815260206004820152601060248201526f24b73b30b634b210323ab930ba34b7b760811b6044820152606490fd5b506301e13380841115611cfa565b60405162461bcd60e51b8152602060048201526011602482015270092dcecc2d8d2c84092a08ca640d0c2e6d607b1b6044820152606490fd5b34610211576020366003190112610211576004359063ffffffff60e01b821680920361021157602091637965db0b60e01b8114908115611f59575b5015158152f35b6301ffc9a760e01b14905083611f52565b600435906001600160a01b038216820361021157565b602435906001600160a01b038216820361021157565b61012081019081106001600160401b0382111761131557604052565b60a081019081106001600160401b0382111761131557604052565b90601f801991011681019081106001600160401b0382111761131557604052565b81601f82011215610211578035906001600160401b0382116113155760405192612022601f8401601f191660200185611fcd565b8284526020838301011161021157815f926020809301838601378301015290565b5f5b8381106120545750505f910152565b8181015183820152602001612045565b9060209161207d81518092818552858086019101612043565b601f01601f1916010190565b602081016020825282518091526040820191602060408360051b8301019401925f915b8383106120bb57505050505090565b9091929394603f1982820301835285518051825260806121146121026120f0602085015160a0602088015260a0870190612064565b60408501518682036040880152612064565b60608401518582036060870152612064565b910151916080818303910152602080835192838152019201905f905b80821061214f57505050602080600192970193019301919392906120ac565b90919260208060019286518152019401920190612130565b8054821015612180575f5260205f209060031b01905f90565b634e487b7160e01b5f52603260045260245ffd5b90600182811c921680156121c2575b60208310146121ae57565b634e487b7160e01b5f52602260045260245ffd5b91607f16916121a3565b9060405191825f8254926121df84612194565b808452936001811690811561224a5750600114612206575b5061220492500383611fcd565b565b90505f9291925260205f20905f915b81831061222e575050906020612204928201015f6121f7565b6020919350806001915483858901015201910190918492612215565b90506020925061220494915060ff191682840152151560051b8201015f6121f7565b906040600319830112610211576004356001600160a01b03811681036102115791602435906001600160401b038211610211576122ab91600401611fee565b90565b906020600319830112610211576004356001600160401b0381116102115782602382011215610211578060040135926001600160401b0384116102115760248483010111610211576024019190565b1561230457565b60405162461bcd60e51b8152602060048201526015602482015274111bd8dd1bdc881b9bdd081c9959da5cdd195c9959605a1b6044820152606490fd5b1561234857565b60405162461bcd60e51b815260206004820152601760248201527f496e76616c69642070617469656e7420616464726573730000000000000000006044820152606490fd5b919082018092116103ca57565b5f1981146103ca5760010190565b8054600160401b811015611315576123c591600182018155612167565b6127b757815181546001600160a01b0319166001600160a01b03919091161781556020820151805160018301916001600160401b03821161131557819061240c8454612194565b601f811161275e575b50602090601f83116001146126fb575f926126f0575b50508160011b915f199060031b1c19161790555b6002810160408301518051906001600160401b0382116113155781906124658454612194565b601f8111612697575b50602090601f8311600114612634575f92612629575b50508160011b915f199060031b1c19161790555b6124b760608301511515600383019060ff801983541691151516179055565b6080820151600482015560a082015160058201556006810160c08301518051906001600160401b038211611315576124ef8354612194565b601f81116125d8575b50602090601f831160011461256e5791806007949261010096945f92612563575b50508160011b915f199060031b1c19161790555b019161254b60e08201511515849060ff801983541691151516179055565b0151815461ff00191690151560081b61ff0016179055565b015190505f80612519565b90601f19831691845f52815f20925f5b8181106125c05750926001928592610100989660079896106125a8575b505050811b01905561252d565b01515f1960f88460031b161c191690555f808061259b565b9293602060018192878601518155019501930161257e565b828111156124f857835f5260205f20601f840160051c9060208510612621575b81601f9101920160051c03905f5b8281106126145750506124f8565b5f82820155600101612606565b5f91506125f8565b015190505f80612484565b5f8581528281209350601f198516905b81811061267f5750908460019594939210612667575b505050811b019055612498565b01515f1960f88460031b161c191690555f808061265a565b92936020600181928786015181550195019301612644565b8281111561246e57909150835f5260205f20601f840160051c90602085106126e8575b849392601f0160051c82900391015f5b8281106126d857505061246e565b5f818301558594506001016126ca565b5f91506126ba565b015190505f8061242b565b5f8581528281209350601f198516905b818110612746575090846001959493921061272e575b505050811b01905561243f565b01515f1960f88460031b161c191690555f8080612721565b9293602060018192878601518155019501930161270b565b8281111561241557909150835f5260205f20601f840160051c90602085106127af575b849392601f0160051c82900391015f5b82811061279f575050612415565b5f81830155859450600101612791565b5f9150612781565b634e487b7160e01b5f525f60045260245ffd5b6001600160401b0381116113155760051b60200190565b906127eb826127ca565b6127f86040519182611fcd565b8281528092612809601f19916127ca565b01905f5b82811061281957505050565b60209060405161282881611fb2565b5f815260608382015260606040820152606080820152606060808201528282850101520161280d565b80518210156121805760209160051b010190565b90604051918281549182825260208201905f5260205f20925f5b81811061289457505061220492500383611fcd565b845483526001948501948794506020909301920161287f565b8054821015612180575f5260205f2001905f90565b5f92918154916128d183612194565b926001811690811561291957506001146128ea57505050565b90919293505f5260205f205f905b8382106129055750500190565b6001816020925484860152019101906128f8565b60ff191683525050811515909102019150565b929190612943602091604086526040860190612064565b930152565b6001600160a01b03165f8181526003602052604090205461296a8115156122fd565b5f52600560205260405f20915f5b8354811015612a855761298b8185612167565b50546001600160a01b0316331480612a35575b6129aa57600101612978565b90919260036129b98383612167565b5001805460ff1916905560ff60076129d18484612167565b50015416612a13575b50507f1852eeec29c8b9e06624d3e3008123c26ddd6173947b6bea9054402ea8ca57ad60405180612a0e339442908361292c565b0390a3565b600791612a1f91612167565b5001805461ff0019166101001790555f806129da565b506001610543612a5c612a488488612167565b5060405192839160208301958691016128c2565b5190206040516020810190612a7c6020828751610a828187858c01612043565b5190201461299e565b60405162461bcd60e51b815260206004820152601760248201527f416363657373207265636f7264206e6f7420666f756e640000000000000000006044820152606490fd5b6001600160a01b03165f8181526003602052604090205491929091612af08115156122fd565b5f52600560205260405f20925f5b8454811015612bf257612b118186612167565b50546001600160a01b0316331480612bb6575b612b3057600101612afe565b916005612b8a84876003612b677fc298d419e944a3f1e7da1b2245c9f34649b9a6ea67875bcd37e975ef5d7209a398879a9b612167565b5001805460ff19166001179055612b7e8282612167565b50600442910155612167565b500155612ba260405191606083526060830190612064565b9242602083015260408201528033930390a3565b506001610543612bc9612a488489612167565b5190206040516020810190612be96020828751610a828187858c01612043565b51902014612b24565b60405162461bcd60e51b815260206004820152601860248201527f4163636573732072657175657374206e6f7420666f756e6400000000000000006044820152606490fd5b6001600160a01b03165f90815260036020526040902054612c598115156122fd565b5f52600560205260405f20905f5b8254811015612d4457612c7a8184612167565b50546001600160a01b0316331480612d08575b80612cf0575b612c9f57600101612c67565b612cac9060079293612167565b500161010061ff0019825416179055604051907fbe73bae5f08d7fe7ebd150bf32bcb303131391314609cc522ae754b46286ecc0339280612a0e339442908361292c565b5060ff6007612cff8386612167565b50015416612c93565b506001610543612d1b612a488487612167565b5190206040516020810190612d3b6020828751610a828187858c01612043565b51902014612c8d565b60405162461bcd60e51b815260206004820152602e60248201527f456d657267656e6379207265636f7264206e6f7420666f756e64206f7220616c60448201526d1c9958591e481c995cdbdb1d995960921b6064820152608490fd5b5f52600560205260405f20905f918054925b838110612dc25750505050600190565b612dcc8183612167565b5080546001600160a01b0385811691161480612e11575b612df05750600101612db2565b612e0b9450809350600592506004915001549101549061238d565b42101590565b5060ff600382015416612de3565b90335f52600360205260405f2054612e388115156122fd565b5f52600560205260405f20908154612e4f816127ca565b92612e5d6040519485611fcd565b81845260208401905f5260205f205f915b838310612f6b57505050505f5b8251811015612f63576001600160a01b03612e968285612851565b5151166001600160a01b0385161480612f0d575b80612ef6575b612ebc57600101612e7b565b612ee7935060a09150806080612ed5612ede9386612851565b51015193612851565b5101519061238d565b4211612ef257600190565b5f90565b506060612f038285612851565b5101511515612eb0565b506020612f1a8285612851565b510151604051612f3a60208281610a828183019687815193849201612043565b5190206040516020810190612f5a6020828751610a828187858c01612043565b51902014612eaa565b505050505f90565b60086020600192604051612f7e81611f96565b848060a01b038654168152612f948587016121cc565b83820152612fa4600287016121cc565b604082015260ff6003870154161515606082015260048601546080820152600586015460a0820152612fd8600687016121cc565b60c082015260ff6007870154818116151560e0840152851c161515610100820152815201920192019190612e6e565b60ff6001541661301357565b63d93c066560e01b5f5260045ffd5b60025f54146130315760025f55565b633ee5aeb560e01b5f5260045ffd5b335f9081527fe5ebfa64fca8d502a8e50c1edffd2c31ef4dad5b396e65d9f397fb028f74abc5602052604090205460ff161561307857565b63e2517d3f60e01b5f52336004527fa49807205ce4d355092ef5a8a18f56e8913cf4a201fbe287825b095693c2177560245260445ffd5b5f81815260026020908152604080832033845290915290205460ff16156130d35750565b63e2517d3f60e01b5f523360045260245260445ffd5b6001600160a01b0381165f9081525f5160206133235f395f51905f52602052604090205460ff1661317c576001600160a01b03165f8181525f5160206133235f395f51905f5260205260408120805460ff191660011790553391905f5160206133435f395f51905f52907f2f8788117e7eff1d82e926ec794901d17c78024a50270940304540a733656f0d9080a4600190565b505f90565b5f8181526002602090815260408083206001600160a01b038616845290915290205460ff16613207575f8181526002602090815260408083206001600160a01b0395909516808452949091528120805460ff19166001179055339291907f2f8788117e7eff1d82e926ec794901d17c78024a50270940304540a733656f0d9080a4600190565b50505f90565b6001600160a01b0381165f9081525f5160206133235f395f51905f52602052604090205460ff161561317c576001600160a01b03165f8181525f5160206133235f395f51905f5260205260408120805460ff191690553391905f5160206133435f395f51905f52907ff6391f5c32d9c69d2a47ea670b442974b53935d1edc7fd64eb21e047a839171b9080a4600190565b5f8181526002602090815260408083206001600160a01b038616845290915290205460ff1615613207575f8181526002602090815260408083206001600160a01b0395909516808452949091528120805460ff19169055339291907ff6391f5c32d9c69d2a47ea670b442974b53935d1edc7fd64eb21e047a839171b9080a460019056fe61030fecadebfb424535ca6b7d59e12594b5d1fda4f0a938fe5a3540866e240f0af1dac7dea2fd7f7738119cec7df099dfad49aa9d2e7d17ba6b60f63ae7411fa264697066735822122069941d25705ce50901e30921c59cac6097f529af752780d27263c61d6a81439364736f6c634300082200332f8788117e7eff1d82e926ec794901d17c78024a50270940304540a733656f0dac33ff75c19e70fe83507db0d683fd3465c996598dc972688b7ace676c89077be5ebfa64fca8d502a8e50c1edffd2c31ef4dad5b396e65d9f397fb028f74abc5",
  "immutableReferences": {},
  "source": "// SPDX-License-Identifier: MIT\npragma solidity ^0.8.20;\n\nimport {StringUtils} from \"./libraries/StringUtils.sol\";\nimport {ReentrancyGuard} from \"@openzeppelin/contracts/utils/ReentrancyGuard.sol\";\nimport {Pausable} from \"@openzeppelin/contracts/utils/Pausable.sol\";\nimport {AccessControl} from \"@openzeppelin/contracts/access/AccessControl.sol\";\n\ninterface IHospital {\n    function isDoctorOnDuty(address _doctor, address _hospitalAddress) external view returns (bool);\n}\n\ncontract Doctor is ReentrancyGuard, Pausable, AccessControl {\n    bytes32 public constant ADMIN_ROLE = keccak256(\"ADMIN_ROLE\");\n    bytes32 public constant DOCTOR_ROLE = keccak256(\"DOCTOR_ROLE\");\n\n    struct DoctorDetails {\n        uint256 doctorId;\n        string name;\n        string specialization;\n        string email;\n        uint256[] patientIds; // List of patients linked to this doctor\n    }\n\n    struct DocumentAccess {\n        address patient;\n        string ipfsHash;\n        string fileName;\n        bool hasAccess;\n        uint256 grantTime;\n        uint256 duration;\n        string reason;\n        bool isEmergency;\n        bool isResolved; // NEW: Alert dismissed?\n    }\n\n    mapping(address => uint256) public walletToDoctorId;\n    mapping(uint256 => DoctorDetails) public doctors;\n    mapping(uint256 => DocumentAccess[]) public doctorAccessList;\n    mapping(address => uint256) private _lastAccessTime;\n    mapping(address => uint256) private _accessCount;\n\n    uint256 private doctorIdCounter;\n    uint256 public constant RATE_LIMIT_WINDOW = 1 hours;\n    uint256 public constant MAX_ACCESS_REQUESTS = 10;\n\n    // Hospital Verification\n    address public owner;\n    address public hospitalContract;\n\n    // --- EVENTS ---\n    event AccessRequested(\n        address indexed patient,\n        address indexed doctor,\n        string ipfsHash,\n        string fileName,\n        uint256 duration,\n        string reason\n    );\n    event AccessGranted(\n        address indexed patient,\n        address indexed doctor,\n        string ipfsHash,\n        uint256 grantTime,\n        uint256 duration\n    );\n    event AccessRevoked(\n        address indexed patient,\n        address indexed doctor,\n        string ipfsHash,\n        uint256 revokeTime\n    );\n    event PatientAdded(\n        uint256 indexed doctorId,\n        uint256 indexed patientId,\n        address indexed doctor\n    );\n    event EmergencyAccessGranted(\n        address indexed doctor,\n        address indexed patient,\n        string ipfsHash,\n        string reason,\n        uint256 timestamp\n    );\n    event EmergencyResolved(\n        address indexed patient,\n        address indexed resolver,\n        string ipfsHash,\n        uint256 timestamp\n    );\n\n    constructor() {\n        owner = msg.sender;\n        _grantRole(DEFAULT_ADMIN_ROLE, msg.sender);\n        _grantRole(ADMIN_ROLE, msg.sender);\n    }\n\n    modifier onlyOwner() {\n        require(msg.sender == owner, \"Only owner can call this\");\n        _;\n    }\n\n    function setHospitalContract(address _addr) public onlyRole(ADMIN_ROLE) whenNotPaused {\n        require(_addr != address(0), \"Invalid zero address\");\n        hospitalContract = _addr;\n    }\n\n    function registerDoctor(\n        string memory _name,\n        string memory _specialization,\n        string memory _hospital\n    ) public {\n        require(walletToDoctorId[msg.sender] == 0, \"Doctor already registered\");\n        doctorIdCounter++;\n        walletToDoctorId[msg.sender] = doctorIdCounter;\n\n        DoctorDetails storage newDoctor = doctors[doctorIdCounter];\n        newDoctor.doctorId = doctorIdCounter;\n        newDoctor.name = _name;\n        newDoctor.specialization = _specialization;\n        newDoctor.email = _hospital; // Keeping legacy field mapping for now\n    }\n\n    function addPatient(uint256 _patientId) public {\n        uint256 doctorId = walletToDoctorId[msg.sender];\n        require(doctorId != 0, \"Doctor not registered\");\n\n        bool exists = false;\n        for (uint i = 0; i < doctors[doctorId].patientIds.length; i++) {\n            if (doctors[doctorId].patientIds[i] == _patientId) {\n                exists = true;\n                break;\n            }\n        }\n        require(!exists, \"Patient already added\");\n\n        doctors[doctorId].patientIds.push(_patientId);\n        emit PatientAdded(doctorId, _patientId, msg.sender);\n    }\n\n    function getDoctorPatients() public view returns (uint256[] memory) {\n        uint256 doctorId = walletToDoctorId[msg.sender];\n        require(doctorId != 0, \"Doctor not registered\");\n        return doctors[doctorId].patientIds;\n    }\n\n    function hasAccessToDocument(\n        address _patient,\n        string memory _ipfsHash\n    ) public view returns (bool) {\n        uint256 doctorId = walletToDoctorId[msg.sender];\n        require(doctorId != 0, \"Doctor not registered\");\n\n        DocumentAccess[] memory accessList = doctorAccessList[doctorId];\n        for (uint256 i = 0; i < accessList.length; i++) {\n            if (\n                accessList[i].patient == _patient &&\n                keccak256(abi.encodePacked(accessList[i].ipfsHash)) ==\n                keccak256(abi.encodePacked(_ipfsHash)) &&\n                accessList[i].hasAccess\n            ) {\n                // Check for expiration\n                if (\n                    block.timestamp >\n                    accessList[i].grantTime + accessList[i].duration\n                ) {\n                    return false;\n                }\n                return true;\n            }\n        }\n        return false;\n    }\n\n    function requestAccess(\n        address _patient,\n        string memory _ipfsHash,\n        string memory _fileName,\n        uint256 _duration,\n        string memory _reason\n    ) public whenNotPaused nonReentrant {\n        uint256 doctorId = walletToDoctorId[msg.sender];\n        require(doctorId != 0, \"Doctor not registered\");\n\n        require(_patient != address(0), \"Invalid patient address\");\n        require(bytes(_ipfsHash).length > 0, \"Invalid IPFS hash\");\n        require(_duration > 0 && _duration <= 365 days, \"Invalid duration\");\n\n        if (block.timestamp < _lastAccessTime[msg.sender] + RATE_LIMIT_WINDOW) {\n            require(_accessCount[msg.sender] < MAX_ACCESS_REQUESTS, \"Rate limit exceeded\");\n            _accessCount[msg.sender]++;\n        } else {\n            _lastAccessTime[msg.sender] = block.timestamp;\n            _accessCount[msg.sender] = 1;\n        }\n\n        doctorAccessList[doctorId].push(\n            DocumentAccess({\n                patient: _patient,\n                ipfsHash: _ipfsHash,\n                fileName: _fileName,\n                hasAccess: false,\n                grantTime: 0,\n                duration: _duration,\n                reason: _reason,\n                isEmergency: false,\n                isResolved: false\n            })\n        );\n\n        emit AccessRequested(\n            _patient,\n            msg.sender,\n            _ipfsHash,\n            _fileName,\n            _duration,\n            _reason\n        );\n    }\n\n    function emergencyBreakGlass(\n        address _patient,\n        string memory _ipfsHash,\n        string memory _fileName,\n        string memory _reason,\n        address _hospitalAddress\n    ) public whenNotPaused nonReentrant {\n        uint256 doctorId = walletToDoctorId[msg.sender];\n        require(doctorId != 0, \"Doctor not registered\");\n        require(hospitalContract != address(0), \"Hospital verification system not set\");\n        require(_patient != address(0), \"Invalid patient address\");\n        \n        // Verify with Hospital Contract\n        bool onDuty = IHospital(hospitalContract).isDoctorOnDuty(msg.sender, _hospitalAddress);\n        require(onDuty, \"Doctor is not punched in for emergency duty at this hospital\");\n\n        doctorAccessList[doctorId].push(\n            DocumentAccess({\n                patient: _patient,\n                ipfsHash: _ipfsHash,\n                fileName: _fileName,\n                hasAccess: true, // Auto Grant\n                grantTime: block.timestamp,\n                duration: 24 hours, // Fixed duration for emergency\n                reason: _reason,\n                isEmergency: true,\n                isResolved: false\n            })\n        );\n\n        emit EmergencyAccessGranted(\n            msg.sender,\n            _patient,\n            _ipfsHash,\n            _reason,\n            block.timestamp\n        );\n    }\n\n    function grantAccess(\n        address _doctor,\n        string memory _ipfsHash,\n        uint256 _duration\n    ) public {\n        uint256 doctorId = walletToDoctorId[_doctor];\n        require(doctorId != 0, \"Doctor not registered\");\n\n        DocumentAccess[] storage accessList = doctorAccessList[doctorId];\n        for (uint256 i = 0; i < accessList.length; i++) {\n            if (\n                accessList[i].patient == msg.sender &&\n                keccak256(abi.encodePacked(accessList[i].ipfsHash)) ==\n                keccak256(abi.encodePacked(_ipfsHash))\n            ) {\n                accessList[i].hasAccess = true;\n                accessList[i].grantTime = block.timestamp;\n                accessList[i].duration = _duration;\n\n                emit AccessGranted(\n                    msg.sender,\n                    _doctor,\n                    _ipfsHash,\n                    block.timestamp,\n                    _duration\n                );\n                return;\n            }\n        }\n        revert(\"Access request not found\");\n    }\n\n    function resolveEmergency(address _doctor, string memory _ipfsHash) public {\n        uint256 doctorId = walletToDoctorId[_doctor];\n        require(doctorId != 0, \"Doctor not registered\");\n\n        DocumentAccess[] storage accessList = doctorAccessList[doctorId];\n        for (uint256 i = 0; i < accessList.length; i++) {\n            if (\n                accessList[i].patient == msg.sender &&\n                keccak256(abi.encodePacked(accessList[i].ipfsHash)) ==\n                keccak256(abi.encodePacked(_ipfsHash)) &&\n                accessList[i].isEmergency\n            ) {\n                accessList[i].isResolved = true;\n                emit EmergencyResolved(\n                    msg.sender,\n                    msg.sender,\n                    _ipfsHash,\n                    block.timestamp\n                );\n                return;\n            }\n        }\n        revert(\"Emergency record not found or already resolved\");\n    }\n\n    function revokeAccess(address _doctor, string memory _ipfsHash) public {\n        uint256 doctorId = walletToDoctorId[_doctor];\n        require(doctorId != 0, \"Doctor not registered\");\n\n        DocumentAccess[] storage accessList = doctorAccessList[doctorId];\n        for (uint256 i = 0; i < accessList.length; i++) {\n            if (\n                accessList[i].patient == msg.sender &&\n                keccak256(abi.encodePacked(accessList[i].ipfsHash)) ==\n                keccak256(abi.encodePacked(_ipfsHash))\n            ) {\n                accessList[i].hasAccess = false;\n                if (accessList[i].isEmergency) {\n                    accessList[i].isResolved = true;\n                }\n                emit AccessRevoked(\n                    msg.sender,\n                    _doctor,\n                    _ipfsHash,\n                    block.timestamp\n                );\n                return;\n            }\n        }\n        revert(\"Access record not found\");\n    }\n\n    // --- GETTERS ---\n    function getAccessList() public view returns (DocumentAccess[] memory) {\n        uint256 doctorId = walletToDoctorId[msg.sender];\n        require(doctorId != 0, \"Doctor not registered\");\n        return doctorAccessList[doctorId];\n    }\n\n    function getPatients() public view returns (DoctorDetails[] memory) {\n        uint256 doctorId = walletToDoctorId[msg.sender];\n        require(doctorId != 0, \"Doctor not registered\");\n\n        DocumentAccess[] memory accessList = doctorAccessList[doctorId];\n        DoctorDetails[] memory patients = new DoctorDetails[](\n            accessList.length\n        );\n        uint256 count = 0;\n\n        for (uint256 i = 0; i < accessList.length; i++) {\n            if (accessList[i].hasAccess) {\n                patients[count] = doctors[doctorId];\n                count++;\n            }\n        }\n\n        return patients;\n    }\n\n    function doctorExists(address walletAddress) public view returns (bool) {\n        return walletToDoctorId[walletAddress] != 0;\n    }\n\n    function getAllDoctors() public view returns (DoctorDetails[] memory) {\n        uint256 total = doctorIdCounter;\n        DoctorDetails[] memory list = new DoctorDetails[](total);\n\n        for (uint256 i = 0; i < total; i++) {\n            list[i] = doctors[i + 1];\n        }\n\n        return list;\n    }\n\n    function getDoctorsBySpecialization(string calldata _specialization) public view returns (DoctorDetails[] memory) {\n        uint256 total = doctorIdCounter;\n        uint256 count = 0;\n        for (uint256 i = 1; i <= total; i++) {\n            if (keccak256(abi.encodePacked(doctors[i].specialization)) == keccak256(abi.encodePacked(_specialization))) {\n                count++;\n            }\n        }\n        \n        DoctorDetails[] memory result = new DoctorDetails[](count);\n        uint256 idx = 0;\n        for (uint256 i = 1; i <= total; i++) {\n            if (keccak256(abi.encodePacked(doctors[i].specialization)) == keccak256(abi.encodePacked(_specialization))) {\n                result[idx] = doctors[i];\n                idx++;\n            }\n        }\n        return result;\n    }\n\n    function searchDoctors(string calldata _query) public view returns (DoctorDetails[] memory) {\n        uint256 total = doctorIdCounter;\n        uint256 count = 0;\n        \n        for (uint256 i = 1; i <= total; i++) {\n            DoctorDetails memory d = doctors[i];\n            if (keccak256(abi.encodePacked(d.name)).length >= keccak256(abi.encodePacked(_query)).length ||\n                keccak256(abi.encodePacked(d.specialization)).length >= keccak256(abi.encodePacked(_query)).length) {\n                count++;\n            }\n        }\n        \n        DoctorDetails[] memory result = new DoctorDetails[](count);\n        uint256 idx = 0;\n        for (uint256 i = 1; i <= total; i++) {\n            DoctorDetails memory d = doctors[i];\n            bytes32 nameHash = keccak256(abi.encodePacked(d.name));\n            bytes32 specHash = keccak256(abi.encodePacked(d.specialization));\n            bytes32 queryHash = keccak256(abi.encodePacked(_query));\n            if (containsSubstring(nameHash, queryHash) || containsSubstring(specHash, queryHash)) {\n                result[idx] = d;\n                idx++;\n            }\n        }\n        return result;\n    }\n\n    function containsSubstring(bytes32 _source, bytes32 _search) internal pure returns (bool) {\n        if (_source.length < _search.length) return false;\n        bytes32 mask = bytes32((1 << (8 * _search.length)) - 1);\n        for (uint256 i = 0; i <= 32 - _search.length; i++) {\n            if ((_source >> (i * 8)) == (_search >> (i * 8))) return true;\n        }\n        return false;\n    }\n\n    function cleanupExpiredAccess(uint256 _doctorId) public returns (uint256 cleanedCount) {\n        DocumentAccess[] storage accessList = doctorAccessList[_doctorId];\n        uint256 count = 0;\n        uint256 removedCount = 0;\n        \n        for (uint256 i = 0; i < accessList.length; i++) {\n            DocumentAccess storage doc = accessList[i];\n            if (doc.hasAccess && !doc.isResolved && doc.grantTime + doc.duration <= block.timestamp) {\n                doc.hasAccess = false;\n                removedCount++;\n            }\n        }\n        \n        return removedCount;\n    }\n\n    function cleanupExpiredAccessForAll() public returns (uint256 totalCleaned) {\n        totalCleaned = 0;\n        \n        for (uint256 i = 1; i <= doctorIdCounter; i++) {\n            DocumentAccess[] storage accessList = doctorAccessList[i];\n            for (uint256 j = 0; j < accessList.length; j++) {\n                DocumentAccess storage doc = accessList[j];\n                if (doc.hasAccess && !doc.isResolved && doc.grantTime + doc.duration <= block.timestamp) {\n                    doc.hasAccess = false;\n                    totalCleaned++;\n                }\n            }\n        }\n        \n        return totalCleaned;\n    }\n\n    function getExpiredAccessCount(uint256 _doctorId) public view returns (uint256 count) {\n        DocumentAccess[] storage accessList = doctorAccessList[_doctorId];\n        \n        for (uint256 i = 0; i < accessList.length; i++) {\n            DocumentAccess storage doc = accessList[i];\n            if (doc.hasAccess && !doc.isResolved && doc.grantTime + doc.duration <= block.timestamp) {\n                count++;\n            }\n        }\n        \n        return count;\n    }\n\n    function isAccessExpired(uint256 _doctorId, address _patient) public view returns (bool) {\n        DocumentAccess[] storage accessList = doctorAccessList[_doctorId];\n        \n        for (uint256 i = 0; i < accessList.length; i++) {\n            DocumentAccess storage doc = accessList[i];\n            if (doc.patient == _patient && doc.hasAccess) {\n                return doc.grantTime + doc.duration <= block.timestamp;\n            }\n        }\n        \n        return true;\n    }\n\n    // --- PAUSE FUNCTIONS ---\n    function pauseContract() public onlyRole(ADMIN_ROLE) {\n        _pause();\n    }\n\n    function unpauseContract() public onlyRole(ADMIN_ROLE) {\n        _unpause();\n    }\n\n    // --- ACCESS CONTROL HELPERS ---\n    function grantDoctorRole(address _doctor) public onlyRole(ADMIN_ROLE) {\n        grantRole(DOCTOR_ROLE, _doctor);\n    }\n\n    function revokeDoctorRole(address _doctor) public onlyRole(ADMIN_ROLE) {\n        revokeRole(DOCTOR_ROLE, _doctor);\n    }\n\n    function isDoctorRole(address _account) public view returns (bool) {\n        return hasRole(DOCTOR_ROLE, _account);\n    }\n}\n",
  "sourcePath": "/home/ayush/Desktop/code/Sanjeevni/contracts/contracts/Doctor.sol",
  "compiler": {
    "name": "solc",
    "version": "0.8.20+commit.80d5c536.Emscripten.clang"
  },
  "schemaVersion": "3.4.16",
  "updatedAt": "2026-04-09T18:14:11.636Z",
  "devdoc": {
    "errors": {
      "AccessControlBadConfirmation()": [
        {
          "details": "The caller of a function is not the expected one. NOTE: Don't confuse with {AccessControlUnauthorizedAccount}."
        }
      ],
      "AccessControlUnauthorizedAccount(address,bytes32)": [
        {
          "details": "The `account` is missing a role."
        }
      ],
      "EnforcedPause()": [
        {
          "details": "The operation failed because the contract is paused."
        }
      ],
      "ExpectedPause()": [
        {
          "details": "The operation failed because the contract is not paused."
        }
      ],
      "ReentrancyGuardReentrantCall()": [
        {
          "details": "Unauthorized reentrant call."
        }
      ]
    },
    "events": {
      "Paused(address)": {
        "details": "Emitted when the pause is triggered by `account`."
      },
      "RoleAdminChanged(bytes32,bytes32,bytes32)": {
        "details": "Emitted when `newAdminRole` is set as ``role``'s admin role, replacing `previousAdminRole` `DEFAULT_ADMIN_ROLE` is the starting admin for all roles, despite {RoleAdminChanged} not being emitted signaling this."
      },
      "RoleGranted(bytes32,address,address)": {
        "details": "Emitted when `account` is granted `role`. `sender` is the account that originated the contract call, an admin role bearer except when using {AccessControl-_setupRole}."
      },
      "RoleRevoked(bytes32,address,address)": {
        "details": "Emitted when `account` is revoked `role`. `sender` is the account that originated the contract call:   - if using `revokeRole`, it is the admin role bearer   - if using `renounceRole`, it is the role bearer (i.e. `account`)"
      },
      "Unpaused(address)": {
        "details": "Emitted when the pause is lifted by `account`."
      }
    },
    "kind": "dev",
    "methods": {
      "getRoleAdmin(bytes32)": {
        "details": "Returns the admin role that controls `role`. See {grantRole} and {revokeRole}. To change a role's admin, use {_setRoleAdmin}."
      },
      "grantRole(bytes32,address)": {
        "details": "Grants `role` to `account`. If `account` had not been already granted `role`, emits a {RoleGranted} event. Requirements: - the caller must have ``role``'s admin role. May emit a {RoleGranted} event."
      },
      "hasRole(bytes32,address)": {
        "details": "Returns `true` if `account` has been granted `role`."
      },
      "paused()": {
        "details": "Returns true if the contract is paused, and false otherwise."
      },
      "renounceRole(bytes32,address)": {
        "details": "Revokes `role` from the calling account. Roles are often managed via {grantRole} and {revokeRole}: this function's purpose is to provide a mechanism for accounts to lose their privileges if they are compromised (such as when a trusted device is misplaced). If the calling account had been revoked `role`, emits a {RoleRevoked} event. Requirements: - the caller must be `callerConfirmation`. May emit a {RoleRevoked} event."
      },
      "revokeRole(bytes32,address)": {
        "details": "Revokes `role` from `account`. If `account` had been granted `role`, emits a {RoleRevoked} event. Requirements: - the caller must have ``role``'s admin role. May emit a {RoleRevoked} event."
      },
      "supportsInterface(bytes4)": {
        "details": "See {IERC165-supportsInterface}."
      }
    },
    "version": 1
  },
  "userdoc": {
    "kind": "user",
    "methods": {},
    "version": 1
  }
}