{
  "contractName": "Hospital",
  "abi": [
    {
      "anonymous": false,
      "inputs": [
        {
          "indexed": true,
          "internalType": "uint256",
          "name": "hospitalId",
          "type": "uint256"
        },
        {
          "indexed": true,
          "internalType": "address",
          "name": "doctor",
          "type": "address"
        }
      ],
      "name": "DoctorAdded",
      "type": "event"
    },
    {
      "anonymous": false,
      "inputs": [
        {
          "indexed": true,
          "internalType": "uint256",
          "name": "hospitalId",
          "type": "uint256"
        },
        {
          "indexed": true,
          "internalType": "address",
          "name": "doctor",
          "type": "address"
        }
      ],
      "name": "DoctorRemoved",
      "type": "event"
    },
    {
      "anonymous": false,
      "inputs": [
        {
          "indexed": true,
          "internalType": "uint256",
          "name": "id",
          "type": "uint256"
        },
        {
          "indexed": true,
          "internalType": "address",
          "name": "wallet",
          "type": "address"
        },
        {
          "indexed": false,
          "internalType": "string",
          "name": "name",
          "type": "string"
        }
      ],
      "name": "HospitalRegistered",
      "type": "event"
    },
    {
      "anonymous": false,
      "inputs": [
        {
          "indexed": true,
          "internalType": "address",
          "name": "doctor",
          "type": "address"
        },
        {
          "indexed": true,
          "internalType": "address",
          "name": "hospital",
          "type": "address"
        },
        {
          "indexed": false,
          "internalType": "uint256",
          "name": "timestamp",
          "type": "uint256"
        }
      ],
      "name": "LogPunchIn",
      "type": "event"
    },
    {
      "anonymous": false,
      "inputs": [
        {
          "indexed": true,
          "internalType": "address",
          "name": "doctor",
          "type": "address"
        },
        {
          "indexed": true,
          "internalType": "address",
          "name": "hospital",
          "type": "address"
        },
        {
          "indexed": false,
          "internalType": "uint256",
          "name": "timestamp",
          "type": "uint256"
        },
        {
          "indexed": false,
          "internalType": "uint256",
          "name": "duration",
          "type": "uint256"
        }
      ],
      "name": "LogPunchOut",
      "type": "event"
    },
    {
      "inputs": [
        {
          "internalType": "address",
          "name": "",
          "type": "address"
        },
        {
          "internalType": "address",
          "name": "",
          "type": "address"
        }
      ],
      "name": "doctorDutyStatus",
      "outputs": [
        {
          "internalType": "bool",
          "name": "",
          "type": "bool"
        }
      ],
      "stateMutability": "view",
      "type": "function",
      "constant": true
    },
    {
      "inputs": [
        {
          "internalType": "address",
          "name": "",
          "type": "address"
        }
      ],
      "name": "hospitalActiveDoctorCount",
      "outputs": [
        {
          "internalType": "uint256",
          "name": "",
          "type": "uint256"
        }
      ],
      "stateMutability": "view",
      "type": "function",
      "constant": true
    },
    {
      "inputs": [
        {
          "internalType": "uint256",
          "name": "",
          "type": "uint256"
        },
        {
          "internalType": "uint256",
          "name": "",
          "type": "uint256"
        }
      ],
      "name": "hospitalDoctors",
      "outputs": [
        {
          "internalType": "address",
          "name": "",
          "type": "address"
        }
      ],
      "stateMutability": "view",
      "type": "function",
      "constant": true
    },
    {
      "inputs": [
        {
          "internalType": "uint256",
          "name": "",
          "type": "uint256"
        }
      ],
      "name": "hospitals",
      "outputs": [
        {
          "internalType": "uint256",
          "name": "id",
          "type": "uint256"
        },
        {
          "internalType": "address",
          "name": "walletAddress",
          "type": "address"
        },
        {
          "internalType": "string",
          "name": "name",
          "type": "string"
        },
        {
          "internalType": "string",
          "name": "email",
          "type": "string"
        },
        {
          "internalType": "string",
          "name": "location",
          "type": "string"
        },
        {
          "internalType": "string",
          "name": "registrationNumber",
          "type": "string"
        }
      ],
      "stateMutability": "view",
      "type": "function",
      "constant": true
    },
    {
      "inputs": [
        {
          "internalType": "uint256",
          "name": "",
          "type": "uint256"
        },
        {
          "internalType": "address",
          "name": "",
          "type": "address"
        }
      ],
      "name": "isDoctorApproved",
      "outputs": [
        {
          "internalType": "bool",
          "name": "",
          "type": "bool"
        }
      ],
      "stateMutability": "view",
      "type": "function",
      "constant": true
    },
    {
      "inputs": [
        {
          "internalType": "address",
          "name": "",
          "type": "address"
        },
        {
          "internalType": "address",
          "name": "",
          "type": "address"
        }
      ],
      "name": "shiftStartTimes",
      "outputs": [
        {
          "internalType": "uint256",
          "name": "",
          "type": "uint256"
        }
      ],
      "stateMutability": "view",
      "type": "function",
      "constant": true
    },
    {
      "inputs": [
        {
          "internalType": "address",
          "name": "",
          "type": "address"
        }
      ],
      "name": "walletToHospitalId",
      "outputs": [
        {
          "internalType": "uint256",
          "name": "",
          "type": "uint256"
        }
      ],
      "stateMutability": "view",
      "type": "function",
      "constant": true
    },
    {
      "inputs": [
        {
          "internalType": "string",
          "name": "_name",
          "type": "string"
        },
        {
          "internalType": "string",
          "name": "_email",
          "type": "string"
        },
        {
          "internalType": "string",
          "name": "_location",
          "type": "string"
        },
        {
          "internalType": "string",
          "name": "_registrationNumber",
          "type": "string"
        }
      ],
      "name": "registerHospital",
      "outputs": [],
      "stateMutability": "nonpayable",
      "type": "function"
    },
    {
      "inputs": [
        {
          "internalType": "address",
          "name": "_doctor",
          "type": "address"
        }
      ],
      "name": "addDoctor",
      "outputs": [],
      "stateMutability": "nonpayable",
      "type": "function"
    },
    {
      "inputs": [
        {
          "internalType": "address",
          "name": "_doctor",
          "type": "address"
        }
      ],
      "name": "removeDoctor",
      "outputs": [],
      "stateMutability": "nonpayable",
      "type": "function"
    },
    {
      "inputs": [
        {
          "internalType": "address",
          "name": "_hospitalAddress",
          "type": "address"
        }
      ],
      "name": "punchIn",
      "outputs": [],
      "stateMutability": "nonpayable",
      "type": "function"
    },
    {
      "inputs": [
        {
          "internalType": "address",
          "name": "_hospitalAddress",
          "type": "address"
        }
      ],
      "name": "punchOut",
      "outputs": [],
      "stateMutability": "nonpayable",
      "type": "function"
    },
    {
      "inputs": [
        {
          "internalType": "address",
          "name": "_doctor",
          "type": "address"
        },
        {
          "internalType": "address",
          "name": "_hospitalAddress",
          "type": "address"
        }
      ],
      "name": "isDoctorOnDuty",
      "outputs": [
        {
          "internalType": "bool",
          "name": "",
          "type": "bool"
        }
      ],
      "stateMutability": "view",
      "type": "function",
      "constant": true
    },
    {
      "inputs": [],
      "name": "getHospitalDoctors",
      "outputs": [
        {
          "internalType": "address[]",
          "name": "",
          "type": "address[]"
        }
      ],
      "stateMutability": "view",
      "type": "function",
      "constant": true
    },
    {
      "inputs": [
        {
          "internalType": "address",
          "name": "_hospitalAddress",
          "type": "address"
        }
      ],
      "name": "getActiveDoctorCount",
      "outputs": [
        {
          "internalType": "uint256",
          "name": "",
          "type": "uint256"
        }
      ],
      "stateMutability": "view",
      "type": "function",
      "constant": true
    }
  ],
  "bytecode": "0x6080806040523460155761136c908161001a8239f35b5f80fdfe60806040526004361015610011575f80fd5b5f3560e01c8063240c6f581461109c5780632b13a7da14610fd15780633c92174914610f99578063464334f114610f995780634780468f14610e7a5780634df6f28d1461083a57806381dc6fd21461078157806398fc90e91461054b5780639fdd8e6b146104f4578063b6d853951461049d578063babef8f614610454578063c79729371461030a578063d7e549d914610149578063e127c07c146100f95763e2aece4a146100be575f80fd5b346100f55760203660031901126100f5576001600160a01b036100df611115565b165f525f602052602060405f2054604051908152f35b5f80fd5b346100f55760403660031901126100f557610112611115565b61011a61112b565b6001600160a01b039182165f908152600560209081526040808320949093168252928352819020549051908152f35b346100f55760203660031901126100f5576001600160a01b0361016a611115565b16805f525f60205260405f205480156102c5575f90815260036020908152604080832033845290915290205460ff1615610274575f81815260046020908152604080832033845290915290205460ff1661023d575f81815260046020908152604080832033808552908352818420805460ff1916600117905584845260058352818420908452825280832042905583835260069091529020805461020d9061131c565b90556040514281527f17a827c421b15526e18fca41c387fa527301ef1552116e752b324afcd7cce19c60203392a3005b60405162461bcd60e51b815260206004820152600f60248201526e416c7265616479206f6e206475747960881b6044820152606490fd5b60405162461bcd60e51b8152602060048201526024808201527f446f63746f72206e6f7420617070726f766564206279207468697320686f73706044820152631a5d185b60e21b6064820152608490fd5b60405162461bcd60e51b815260206004820152601860248201527f496e76616c696420686f73706974616c206164647265737300000000000000006044820152606490fd5b346100f55760203660031901126100f5576001600160a01b0361032b611115565b165f81815260046020908152604080832033845290915290205460ff161561042157805f52600560205260405f2060018060a01b0333165f5260205260405f2054420342811161040d575f82815260046020908152604080832033808552908352818420805460ff1916905585845260058352818420908452825280832083905584835260069091529020546103f0575b6040519042825260208201527f4b9776d73203bd0da7c7b1980a0b2780e76d5d8d75748e80aba61472ce1c55f060403392a3005b815f52600660205260405f20610406815461132a565b90556103bc565b634e487b7160e01b5f52601160045260245ffd5b60405162461bcd60e51b815260206004820152600b60248201526a4e6f74206f6e206475747960a81b6044820152606490fd5b346100f55760403660031901126100f55761046d61112b565b6004355f52600360205260405f209060018060a01b03165f52602052602060ff60405f2054166040519015158152f35b346100f55760403660031901126100f5576104b6611115565b6001600160a01b036104c661112b565b165f52600460205260405f209060018060a01b03165f52602052602060ff60405f2054166040519015158152f35b346100f55760403660031901126100f55761050d611115565b61051561112b565b9060018060a01b03165f52600460205260405f209060018060a01b03165f52602052602060ff60405f2054166040519015158152f35b346100f55760203660031901126100f557610564611115565b335f525f60205260405f20549061057c8215156112d0565b815f52600360205260405f2060018060a01b0382165f5260205260ff60405f20541615610747575f8281526002602052604081206001600160a01b0390921692905b82548082101561073e57846105d383866110ec565b905460039190911b1c6001600160a01b0316146105f357506001016105be565b9192915f1981019190821161040d5761062b61061261064f93856110ec565b905460039190911b1c6001600160a01b031691846110ec565b81546001600160a01b0393841660039290921b91821b9390911b1916919091179055565b8054801561072a575f19019061066582826110ec565b81549060018060a01b039060031b1b19169055555b805f52600360205260405f20825f5260205260405f2060ff198154169055335f52600460205260405f20825f5260205260ff60405f2054166106dd575b7fe6bf7779cd8f4ea698fdb4de7f9f88df29e86ccbeb9de3f687dca5ddb97c1fac5f80a3005b335f52600460205260405f20825f5260205260405f2060ff198154169055335f52600660205260405f2054156106b757335f52600660205260405f20610723815461132a565b90556106b7565b634e487b7160e01b5f52603160045260245ffd5b5050905061067a565b60405162461bcd60e51b8152602060048201526012602482015271111bd8dd1bdc881b9bdd081a5b881b1a5cdd60721b6044820152606490fd5b346100f55760203660031901126100f5576004355f52600160205260405f20805461083660018060a01b03600184015416926108286107c2600283016111f1565b9161081a6107d2600383016111f1565b61080c6107ed60056107e6600487016111f1565b95016111f1565b95604051998a998a5260208a015260c060408a015260c0890190611291565b908782036060890152611291565b908582036080870152611291565b9083820360a0850152611291565b0390f35b346100f55760803660031901126100f55760043567ffffffffffffffff81116100f55761086b903690600401611163565b60243567ffffffffffffffff81116100f55761088b903690600401611163565b9060443567ffffffffffffffff81116100f5576108ac903690600401611163565b9160643567ffffffffffffffff81116100f5576108cd903690600401611163565b92335f525f60205260405f2054610e35576108e960075461131c565b80600755335f525f60205260405f2055600754916040519260c0840184811067ffffffffffffffff821117610bd057604052808452602084013381526040850191868352606086019384526080860194855260a086019788525f52600160205260405f2094518555600185019060018060a01b039051166bffffffffffffffffffffffff60a01b82541617905560028401905180519067ffffffffffffffff8211610bd057819061099a84546111b9565b601f8111610ddc575b50602090601f8311600114610d79575f92610d6e575b50508160011b915f199060031b1c19161790555b518051600384019167ffffffffffffffff8211610bd05781906109f084546111b9565b601f8111610d15575b50602090601f8311600114610cb2575f92610ca7575b50508160011b915f199060031b1c19161790555b518051600483019167ffffffffffffffff8211610bd057610a4483546111b9565b601f8111610c56575b50602090601f8311600114610bef576005949392915f9183610be4575b50508160011b915f199060031b1c19161790555b01915191825167ffffffffffffffff8111610bd057610a9d82546111b9565b601f8111610b7f575b506020601f8211600114610b1e57819293945f92610b13575b50508160011b915f199060031b1c19161790555b6007547ff4f5917fdec8f2ae93dd79a5fe4b5b76c30534fb4abe4f82e84e8ed681b7de0a6040516020815280610b0e33956020830190611291565b0390a3005b015190508480610abf565b601f19821690835f52805f20915f5b818110610b6757509583600195969710610b4f575b505050811b019055610ad3565b01515f1960f88460031b161c19169055848080610b42565b9192602060018192868b015181550194019201610b2d565b81811115610aa657825f5260205f20601f830160051c9060208410610bc8575b81601f9101920160051c03905f5b828110610bbb575050610aa6565b5f82820155600101610bad565b5f9150610b9f565b634e487b7160e01b5f52604160045260245ffd5b015190508780610a6a565b90601f19831691845f52815f20925f5b818110610c3e575091600193918560059897969410610c26575b505050811b019055610a7e565b01515f1960f88460031b161c19169055878080610c19565b92936020600181928786015181550195019301610bff565b82811115610a4d57835f5260205f20601f840160051c9060208510610c9f575b81601f9101920160051c03905f5b828110610c92575050610a4d565b5f82820155600101610c84565b5f9150610c76565b015190508780610a0f565b5f8581528281209350601f198516905b818110610cfd5750908460019594939210610ce5575b505050811b019055610a23565b01515f1960f88460031b161c19169055878080610cd8565b92936020600181928786015181550195019301610cc2565b828111156109f957909150835f5260205f20601f840160051c9060208510610d66575b849392601f0160051c82900391015f5b828110610d565750506109f9565b5f81830155859450600101610d48565b5f9150610d38565b0151905088806109b9565b5f8581528281209350601f198516905b818110610dc45750908460019594939210610dac575b505050811b0190556109cd565b01515f1960f88460031b161c19169055888080610d9f565b92936020600181928786015181550195019301610d89565b828111156109a357909150835f5260205f20601f840160051c9060208510610e2d575b849392601f0160051c82900391015f5b828110610e1d5750506109a3565b5f81830155859450600101610e0f565b5f9150610dff565b60405162461bcd60e51b815260206004820152601b60248201527f486f73706974616c20616c7265616479207265676973746572656400000000006044820152606490fd5b346100f55760203660031901126100f557610e93611115565b335f525f60205260405f205490610eab8215156112d0565b815f52600360205260405f2060018060a01b0382165f5260205260ff60405f205416610f5d57815f52600260205260405f20805468010000000000000000811015610bd05761062b81610f0493600186940181556110ec565b5f8281526003602090815260408083206001600160a01b0394909416808452939091528120805460ff191660011790559091907fb4004d986e056780079f39d5a9c407a2816a506dd01c580a911a793cd46121369080a3005b60405162461bcd60e51b8152602060048201526014602482015273111bd8dd1bdc88185b1c9958591e48185919195960621b6044820152606490fd5b346100f55760203660031901126100f5576001600160a01b03610fba611115565b165f526006602052602060405f2054604051908152f35b346100f5575f3660031901126100f557335f525f60205260405f2054610ff88115156112d0565b5f52600260205260405f20604051806020835491828152019081935f5260205f20905f5b81811061107d5750505081611032910382611141565b604051918291602083019060208452518091526040830191905f5b81811061105b575050500390f35b82516001600160a01b031684528594506020938401939092019160010161104d565b82546001600160a01b031684526020909301926001928301920161101c565b346100f55760403660031901126100f5576024356004355f52600260205260405f2080548210156100f5576020916110d3916110ec565b905460405160039290921b1c6001600160a01b03168152f35b8054821015611101575f5260205f2001905f90565b634e487b7160e01b5f52603260045260245ffd5b600435906001600160a01b03821682036100f557565b602435906001600160a01b03821682036100f557565b90601f8019910116810190811067ffffffffffffffff821117610bd057604052565b81601f820112156100f55780359067ffffffffffffffff8211610bd05760405192611198601f8401601f191660200185611141565b828452602083830101116100f557815f926020809301838601378301015290565b90600182811c921680156111e7575b60208310146111d357565b634e487b7160e01b5f52602260045260245ffd5b91607f16916111c8565b9060405191825f825492611204846111b9565b808452936001811690811561126f575060011461122b575b5061122992500383611141565b565b90505f9291925260205f20905f915b818310611253575050906020611229928201015f61121c565b602091935080600191548385890101520191019091849261123a565b90506020925061122994915060ff191682840152151560051b8201015f61121c565b91908251928382525f5b8481106112bb575050825f602080949584010152601f8019910116010190565b8060208092840101518282860101520161129b565b156112d757565b60405162461bcd60e51b815260206004820152601960248201527f4e6f742061207265676973746572656420686f73706974616c000000000000006044820152606490fd5b5f19811461040d5760010190565b801561040d575f19019056fea2646970667358221220bc91ce80d2bda405a334ed1c48982965c89a5c003e216987563f7493df6d3b0464736f6c63430008220033",
  "immutableReferences": {},
  "source": "// SPDX-License-Identifier: MIT\npragma solidity ^0.8.20;\n\ncontract Hospital {\n    struct HospitalDetails {\n        uint256 id;\n        address walletAddress;\n        string name;\n        string email;\n        string location;\n        string registrationNumber;\n    }\n\n    mapping(address => uint256) public walletToHospitalId;\n    mapping(uint256 => HospitalDetails) public hospitals;\n    \n    // Hospital ID -> List of approved doctor addresses\n    mapping(uint256 => address[]) public hospitalDoctors;\n    // Helper to check if a doctor is approved by a specific hospital (Hospital ID -> Doctor Address -> Bool)\n    mapping(uint256 => mapping(address => bool)) public isDoctorApproved;\n\n    // Hospital Address -> Doctor Address -> Is On Duty\n    mapping(address => mapping(address => bool)) public doctorDutyStatus;\n    \n    // Hospital Address -> Doctor Address -> Shift Start Time\n    mapping(address => mapping(address => uint256)) public shiftStartTimes;\n\n    // Hospital Address -> Active Doctor Count\n    mapping(address => uint256) public hospitalActiveDoctorCount;\n\n    uint256 private hospitalIdCounter;\n\n    // Events for Analytics\n    event LogPunchIn(address indexed doctor, address indexed hospital, uint256 timestamp);\n    event LogPunchOut(address indexed doctor, address indexed hospital, uint256 timestamp, uint256 duration);\n    \n    event HospitalRegistered(uint256 indexed id, address indexed wallet, string name);\n    event DoctorAdded(uint256 indexed hospitalId, address indexed doctor);\n    event DoctorRemoved(uint256 indexed hospitalId, address indexed doctor);\n\n    function registerHospital(\n        string memory _name,\n        string memory _email,\n        string memory _location,\n        string memory _registrationNumber\n    ) public {\n        require(walletToHospitalId[msg.sender] == 0, \"Hospital already registered\");\n\n        hospitalIdCounter++;\n        walletToHospitalId[msg.sender] = hospitalIdCounter;\n\n        hospitals[hospitalIdCounter] = HospitalDetails({\n            id: hospitalIdCounter,\n            walletAddress: msg.sender,\n            name: _name,\n            email: _email,\n            location: _location,\n            registrationNumber: _registrationNumber\n        });\n\n        emit HospitalRegistered(hospitalIdCounter, msg.sender, _name);\n    }\n\n    function addDoctor(address _doctor) public {\n        uint256 hospitalId = walletToHospitalId[msg.sender];\n        require(hospitalId != 0, \"Not a registered hospital\");\n        require(!isDoctorApproved[hospitalId][_doctor], \"Doctor already added\");\n\n        hospitalDoctors[hospitalId].push(_doctor);\n        isDoctorApproved[hospitalId][_doctor] = true;\n\n        emit DoctorAdded(hospitalId, _doctor);\n    }\n\n    function removeDoctor(address _doctor) public {\n        uint256 hospitalId = walletToHospitalId[msg.sender];\n        require(hospitalId != 0, \"Not a registered hospital\");\n        require(isDoctorApproved[hospitalId][_doctor], \"Doctor not in list\");\n\n        // Remove from array (swap and pop)\n        address[] storage docs = hospitalDoctors[hospitalId];\n        for (uint i = 0; i < docs.length; i++) {\n            if (docs[i] == _doctor) {\n                docs[i] = docs[docs.length - 1];\n                docs.pop();\n                break;\n            }\n        }\n        \n        isDoctorApproved[hospitalId][_doctor] = false;\n        \n        // Force punch out if on duty?\n        if (doctorDutyStatus[msg.sender][_doctor]) {\n             doctorDutyStatus[msg.sender][_doctor] = false;\n             if (hospitalActiveDoctorCount[msg.sender] > 0) {\n                hospitalActiveDoctorCount[msg.sender]--;\n             }\n             // No log event for forced removal punchout? Or emit one with 0 duration?\n             // Let's just reset status.\n        }\n\n        emit DoctorRemoved(hospitalId, _doctor);\n    }\n\n    // Register for emergency duty at a specific hospital\n    function punchIn(address _hospitalAddress) public {\n        uint256 hospitalId = walletToHospitalId[_hospitalAddress];\n        require(hospitalId != 0, \"Invalid hospital address\");\n        require(isDoctorApproved[hospitalId][msg.sender], \"Doctor not approved by this hospital\");\n        require(!doctorDutyStatus[_hospitalAddress][msg.sender], \"Already on duty\");\n\n        doctorDutyStatus[_hospitalAddress][msg.sender] = true;\n        shiftStartTimes[_hospitalAddress][msg.sender] = block.timestamp;\n        hospitalActiveDoctorCount[_hospitalAddress]++;\n\n        emit LogPunchIn(msg.sender, _hospitalAddress, block.timestamp);\n    }\n\n    function punchOut(address _hospitalAddress) public {\n        require(doctorDutyStatus[_hospitalAddress][msg.sender], \"Not on duty\");\n\n        uint256 startTime = shiftStartTimes[_hospitalAddress][msg.sender];\n        uint256 duration = block.timestamp - startTime;\n\n        doctorDutyStatus[_hospitalAddress][msg.sender] = false;\n        shiftStartTimes[_hospitalAddress][msg.sender] = 0;\n        \n        if (hospitalActiveDoctorCount[_hospitalAddress] > 0) {\n            hospitalActiveDoctorCount[_hospitalAddress]--;\n        }\n\n        emit LogPunchOut(msg.sender, _hospitalAddress, block.timestamp, duration);\n    }\n\n    function isDoctorOnDuty(address _doctor, address _hospitalAddress) public view returns (bool) {\n         return doctorDutyStatus[_hospitalAddress][_doctor];\n    }\n    \n    // Getters\n    function getHospitalDoctors() public view returns (address[] memory) {\n        uint256 hospitalId = walletToHospitalId[msg.sender];\n        require(hospitalId != 0, \"Not a registered hospital\");\n        return hospitalDoctors[hospitalId];\n    }\n    \n    function getActiveDoctorCount(address _hospitalAddress) public view returns (uint256) {\n        return hospitalActiveDoctorCount[_hospitalAddress];\n    }\n}\n",
  "sourcePath": "/home/ayush/Desktop/code/Sanjeevni/contracts/contracts/Hospital.sol",
  "compiler": {
    "name": "solc",
    "version": "0.8.20+commit.80d5c536.Emscripten.clang"
  },
  "schemaVersion": "3.4.16",
  "updatedAt": "2026-04-09T17:11:40.059Z",
  "networkType": "ethereum",
  "devdoc": {
    "kind": "dev",
    "methods": {},
    "version": 1
  },
  "userdoc": {
    "kind": "user",
    "methods": {},
    "version": 1
  }
}