{
  "contractName": "Insurance",
  "abi": [
    {
      "inputs": [],
      "stateMutability": "nonpayable",
      "type": "constructor"
    },
    {
      "inputs": [],
      "name": "AccessControlBadConfirmation",
      "type": "error"
    },
    {
      "inputs": [
        {
          "internalType": "address",
          "name": "account",
          "type": "address"
        },
        {
          "internalType": "bytes32",
          "name": "neededRole",
          "type": "bytes32"
        }
      ],
      "name": "AccessControlUnauthorizedAccount",
      "type": "error"
    },
    {
      "inputs": [],
      "name": "EnforcedPause",
      "type": "error"
    },
    {
      "inputs": [],
      "name": "ExpectedPause",
      "type": "error"
    },
    {
      "inputs": [],
      "name": "ReentrancyGuardReentrantCall",
      "type": "error"
    },
    {
      "anonymous": false,
      "inputs": [
        {
          "indexed": true,
          "internalType": "uint256",
          "name": "claimId",
          "type": "uint256"
        },
        {
          "indexed": false,
          "internalType": "string",
          "name": "status",
          "type": "string"
        }
      ],
      "name": "ClaimProcessed",
      "type": "event"
    },
    {
      "anonymous": false,
      "inputs": [
        {
          "indexed": true,
          "internalType": "uint256",
          "name": "claimId",
          "type": "uint256"
        },
        {
          "indexed": true,
          "internalType": "address",
          "name": "patient",
          "type": "address"
        },
        {
          "indexed": false,
          "internalType": "string",
          "name": "procedure",
          "type": "string"
        }
      ],
      "name": "ClaimSubmitted",
      "type": "event"
    },
    {
      "anonymous": false,
      "inputs": [
        {
          "indexed": true,
          "internalType": "uint256",
          "name": "requestId",
          "type": "uint256"
        },
        {
          "indexed": true,
          "internalType": "address",
          "name": "patient",
          "type": "address"
        },
        {
          "indexed": false,
          "internalType": "uint256",
          "name": "discountPremium",
          "type": "uint256"
        }
      ],
      "name": "InsuranceProofVerified",
      "type": "event"
    },
    {
      "anonymous": false,
      "inputs": [
        {
          "indexed": true,
          "internalType": "address",
          "name": "wallet",
          "type": "address"
        },
        {
          "indexed": false,
          "internalType": "string",
          "name": "name",
          "type": "string"
        }
      ],
      "name": "InsuranceProviderRegistered",
      "type": "event"
    },
    {
      "anonymous": false,
      "inputs": [
        {
          "indexed": true,
          "internalType": "uint256",
          "name": "requestId",
          "type": "uint256"
        },
        {
          "indexed": true,
          "internalType": "address",
          "name": "patient",
          "type": "address"
        },
        {
          "indexed": true,
          "internalType": "address",
          "name": "provider",
          "type": "address"
        },
        {
          "indexed": false,
          "internalType": "uint256",
          "name": "policyId",
          "type": "uint256"
        }
      ],
      "name": "InsuranceQuoteRequested",
      "type": "event"
    },
    {
      "anonymous": false,
      "inputs": [
        {
          "indexed": false,
          "internalType": "address",
          "name": "account",
          "type": "address"
        }
      ],
      "name": "Paused",
      "type": "event"
    },
    {
      "anonymous": false,
      "inputs": [
        {
          "indexed": true,
          "internalType": "uint256",
          "name": "policyId",
          "type": "uint256"
        },
        {
          "indexed": true,
          "internalType": "address",
          "name": "provider",
          "type": "address"
        },
        {
          "indexed": false,
          "internalType": "string",
          "name": "name",
          "type": "string"
        }
      ],
      "name": "PolicyCreated",
      "type": "event"
    },
    {
      "anonymous": false,
      "inputs": [
        {
          "indexed": true,
          "internalType": "uint256",
          "name": "requestId",
          "type": "uint256"
        },
        {
          "indexed": true,
          "internalType": "address",
          "name": "patient",
          "type": "address"
        }
      ],
      "name": "PolicyFinalized",
      "type": "event"
    },
    {
      "anonymous": false,
      "inputs": [
        {
          "indexed": true,
          "internalType": "uint256",
          "name": "policyId",
          "type": "uint256"
        },
        {
          "indexed": false,
          "internalType": "string",
          "name": "name",
          "type": "string"
        },
        {
          "indexed": false,
          "internalType": "uint256",
          "name": "basePremium",
          "type": "uint256"
        }
      ],
      "name": "PolicyUpdated",
      "type": "event"
    },
    {
      "anonymous": false,
      "inputs": [
        {
          "indexed": true,
          "internalType": "bytes32",
          "name": "role",
          "type": "bytes32"
        },
        {
          "indexed": true,
          "internalType": "bytes32",
          "name": "previousAdminRole",
          "type": "bytes32"
        },
        {
          "indexed": true,
          "internalType": "bytes32",
          "name": "newAdminRole",
          "type": "bytes32"
        }
      ],
      "name": "RoleAdminChanged",
      "type": "event"
    },
    {
      "anonymous": false,
      "inputs": [
        {
          "indexed": true,
          "internalType": "bytes32",
          "name": "role",
          "type": "bytes32"
        },
        {
          "indexed": true,
          "internalType": "address",
          "name": "account",
          "type": "address"
        },
        {
          "indexed": true,
          "internalType": "address",
          "name": "sender",
          "type": "address"
        }
      ],
      "name": "RoleGranted",
      "type": "event"
    },
    {
      "anonymous": false,
      "inputs": [
        {
          "indexed": true,
          "internalType": "bytes32",
          "name": "role",
          "type": "bytes32"
        },
        {
          "indexed": true,
          "internalType": "address",
          "name": "account",
          "type": "address"
        },
        {
          "indexed": true,
          "internalType": "address",
          "name": "sender",
          "type": "address"
        }
      ],
      "name": "RoleRevoked",
      "type": "event"
    },
    {
      "anonymous": false,
      "inputs": [
        {
          "indexed": false,
          "internalType": "address",
          "name": "account",
          "type": "address"
        }
      ],
      "name": "Unpaused",
      "type": "event"
    },
    {
      "inputs": [],
      "name": "ADMIN_ROLE",
      "outputs": [
        {
          "internalType": "bytes32",
          "name": "",
          "type": "bytes32"
        }
      ],
      "stateMutability": "view",
      "type": "function"
    },
    {
      "inputs": [],
      "name": "DEFAULT_ADMIN_ROLE",
      "outputs": [
        {
          "internalType": "bytes32",
          "name": "",
          "type": "bytes32"
        }
      ],
      "stateMutability": "view",
      "type": "function"
    },
    {
      "inputs": [],
      "name": "PROVIDER_ROLE",
      "outputs": [
        {
          "internalType": "bytes32",
          "name": "",
          "type": "bytes32"
        }
      ],
      "stateMutability": "view",
      "type": "function"
    },
    {
      "inputs": [],
      "name": "claimCount",
      "outputs": [
        {
          "internalType": "uint256",
          "name": "",
          "type": "uint256"
        }
      ],
      "stateMutability": "view",
      "type": "function"
    },
    {
      "inputs": [
        {
          "internalType": "uint256",
          "name": "",
          "type": "uint256"
        }
      ],
      "name": "claims",
      "outputs": [
        {
          "internalType": "uint256",
          "name": "id",
          "type": "uint256"
        },
        {
          "internalType": "uint256",
          "name": "requestId",
          "type": "uint256"
        },
        {
          "internalType": "address",
          "name": "patient",
          "type": "address"
        },
        {
          "internalType": "address",
          "name": "provider",
          "type": "address"
        },
        {
          "internalType": "string",
          "name": "procedureName",
          "type": "string"
        },
        {
          "internalType": "uint256",
          "name": "cost",
          "type": "uint256"
        },
        {
          "internalType": "string",
          "name": "evidenceHash",
          "type": "string"
        },
        {
          "internalType": "string",
          "name": "status",
          "type": "string"
        },
        {
          "internalType": "uint256",
          "name": "timestamp",
          "type": "uint256"
        }
      ],
      "stateMutability": "view",
      "type": "function"
    },
    {
      "inputs": [
        {
          "internalType": "bytes32",
          "name": "role",
          "type": "bytes32"
        }
      ],
      "name": "getRoleAdmin",
      "outputs": [
        {
          "internalType": "bytes32",
          "name": "",
          "type": "bytes32"
        }
      ],
      "stateMutability": "view",
      "type": "function"
    },
    {
      "inputs": [
        {
          "internalType": "bytes32",
          "name": "role",
          "type": "bytes32"
        },
        {
          "internalType": "address",
          "name": "account",
          "type": "address"
        }
      ],
      "name": "grantRole",
      "outputs": [],
      "stateMutability": "nonpayable",
      "type": "function"
    },
    {
      "inputs": [
        {
          "internalType": "bytes32",
          "name": "role",
          "type": "bytes32"
        },
        {
          "internalType": "address",
          "name": "account",
          "type": "address"
        }
      ],
      "name": "hasRole",
      "outputs": [
        {
          "internalType": "bool",
          "name": "",
          "type": "bool"
        }
      ],
      "stateMutability": "view",
      "type": "function"
    },
    {
      "inputs": [],
      "name": "insuranceCount",
      "outputs": [
        {
          "internalType": "uint256",
          "name": "",
          "type": "uint256"
        }
      ],
      "stateMutability": "view",
      "type": "function"
    },
    {
      "inputs": [
        {
          "internalType": "address",
          "name": "",
          "type": "address"
        }
      ],
      "name": "insuranceProviders",
      "outputs": [
        {
          "internalType": "uint256",
          "name": "id",
          "type": "uint256"
        },
        {
          "internalType": "address",
          "name": "wallet",
          "type": "address"
        },
        {
          "internalType": "string",
          "name": "name",
          "type": "string"
        },
        {
          "internalType": "bool",
          "name": "isActive",
          "type": "bool"
        }
      ],
      "stateMutability": "view",
      "type": "function"
    },
    {
      "inputs": [
        {
          "internalType": "uint256",
          "name": "",
          "type": "uint256"
        }
      ],
      "name": "insuranceRequests",
      "outputs": [
        {
          "internalType": "uint256",
          "name": "requestId",
          "type": "uint256"
        },
        {
          "internalType": "uint256",
          "name": "policyId",
          "type": "uint256"
        },
        {
          "internalType": "address",
          "name": "patient",
          "type": "address"
        },
        {
          "internalType": "address",
          "name": "provider",
          "type": "address"
        },
        {
          "internalType": "uint256",
          "name": "finalPremium",
          "type": "uint256"
        },
        {
          "internalType": "bool",
          "name": "isVerified",
          "type": "bool"
        },
        {
          "internalType": "bool",
          "name": "isCalculated",
          "type": "bool"
        },
        {
          "internalType": "bool",
          "name": "isFinalized",
          "type": "bool"
        }
      ],
      "stateMutability": "view",
      "type": "function"
    },
    {
      "inputs": [
        {
          "internalType": "address",
          "name": "",
          "type": "address"
        },
        {
          "internalType": "uint256",
          "name": "",
          "type": "uint256"
        }
      ],
      "name": "patientClaims",
      "outputs": [
        {
          "internalType": "uint256",
          "name": "",
          "type": "uint256"
        }
      ],
      "stateMutability": "view",
      "type": "function"
    },
    {
      "inputs": [
        {
          "internalType": "address",
          "name": "",
          "type": "address"
        },
        {
          "internalType": "uint256",
          "name": "",
          "type": "uint256"
        }
      ],
      "name": "patientRequests",
      "outputs": [
        {
          "internalType": "uint256",
          "name": "",
          "type": "uint256"
        }
      ],
      "stateMutability": "view",
      "type": "function"
    },
    {
      "inputs": [],
      "name": "paused",
      "outputs": [
        {
          "internalType": "bool",
          "name": "",
          "type": "bool"
        }
      ],
      "stateMutability": "view",
      "type": "function"
    },
    {
      "inputs": [
        {
          "internalType": "uint256",
          "name": "",
          "type": "uint256"
        }
      ],
      "name": "policies",
      "outputs": [
        {
          "internalType": "uint256",
          "name": "id",
          "type": "uint256"
        },
        {
          "internalType": "address",
          "name": "provider",
          "type": "address"
        },
        {
          "internalType": "string",
          "name": "name",
          "type": "string"
        },
        {
          "internalType": "string",
          "name": "description",
          "type": "string"
        },
        {
          "internalType": "uint256",
          "name": "basePremium",
          "type": "uint256"
        },
        {
          "internalType": "bool",
          "name": "isActive",
          "type": "bool"
        },
        {
          "internalType": "uint256",
          "name": "minAge",
          "type": "uint256"
        },
        {
          "internalType": "uint256",
          "name": "maxSystolic",
          "type": "uint256"
        },
        {
          "internalType": "uint256",
          "name": "maxDiastolic",
          "type": "uint256"
        },
        {
          "internalType": "uint256",
          "name": "requiredVaccine",
          "type": "uint256"
        }
      ],
      "stateMutability": "view",
      "type": "function"
    },
    {
      "inputs": [],
      "name": "policyCount",
      "outputs": [
        {
          "internalType": "uint256",
          "name": "",
          "type": "uint256"
        }
      ],
      "stateMutability": "view",
      "type": "function"
    },
    {
      "inputs": [
        {
          "internalType": "uint256",
          "name": "",
          "type": "uint256"
        }
      ],
      "name": "providerAddresses",
      "outputs": [
        {
          "internalType": "address",
          "name": "",
          "type": "address"
        }
      ],
      "stateMutability": "view",
      "type": "function"
    },
    {
      "inputs": [
        {
          "internalType": "address",
          "name": "",
          "type": "address"
        },
        {
          "internalType": "uint256",
          "name": "",
          "type": "uint256"
        }
      ],
      "name": "providerClaims",
      "outputs": [
        {
          "internalType": "uint256",
          "name": "",
          "type": "uint256"
        }
      ],
      "stateMutability": "view",
      "type": "function"
    },
    {
      "inputs": [
        {
          "internalType": "address",
          "name": "",
          "type": "address"
        },
        {
          "internalType": "uint256",
          "name": "",
          "type": "uint256"
        }
      ],
      "name": "providerPolicies",
      "outputs": [
        {
          "internalType": "uint256",
          "name": "",
          "type": "uint256"
        }
      ],
      "stateMutability": "view",
      "type": "function"
    },
    {
      "inputs": [
        {
          "internalType": "address",
          "name": "",
          "type": "address"
        },
        {
          "internalType": "uint256",
          "name": "",
          "type": "uint256"
        }
      ],
      "name": "providerRequests",
      "outputs": [
        {
          "internalType": "uint256",
          "name": "",
          "type": "uint256"
        }
      ],
      "stateMutability": "view",
      "type": "function"
    },
    {
      "inputs": [
        {
          "internalType": "bytes32",
          "name": "role",
          "type": "bytes32"
        },
        {
          "internalType": "address",
          "name": "callerConfirmation",
          "type": "address"
        }
      ],
      "name": "renounceRole",
      "outputs": [],
      "stateMutability": "nonpayable",
      "type": "function"
    },
    {
      "inputs": [],
      "name": "requestCount",
      "outputs": [
        {
          "internalType": "uint256",
          "name": "",
          "type": "uint256"
        }
      ],
      "stateMutability": "view",
      "type": "function"
    },
    {
      "inputs": [
        {
          "internalType": "bytes32",
          "name": "role",
          "type": "bytes32"
        },
        {
          "internalType": "address",
          "name": "account",
          "type": "address"
        }
      ],
      "name": "revokeRole",
      "outputs": [],
      "stateMutability": "nonpayable",
      "type": "function"
    },
    {
      "inputs": [
        {
          "internalType": "bytes4",
          "name": "interfaceId",
          "type": "bytes4"
        }
      ],
      "name": "supportsInterface",
      "outputs": [
        {
          "internalType": "bool",
          "name": "",
          "type": "bool"
        }
      ],
      "stateMutability": "view",
      "type": "function"
    },
    {
      "inputs": [],
      "name": "zkpVerifier",
      "outputs": [
        {
          "internalType": "address",
          "name": "",
          "type": "address"
        }
      ],
      "stateMutability": "view",
      "type": "function"
    },
    {
      "inputs": [
        {
          "internalType": "address",
          "name": "_verifier",
          "type": "address"
        }
      ],
      "name": "setVerifier",
      "outputs": [],
      "stateMutability": "nonpayable",
      "type": "function"
    },
    {
      "inputs": [
        {
          "internalType": "string",
          "name": "_name",
          "type": "string"
        }
      ],
      "name": "registerInsuranceProvider",
      "outputs": [],
      "stateMutability": "nonpayable",
      "type": "function"
    },
    {
      "inputs": [
        {
          "internalType": "string",
          "name": "_name",
          "type": "string"
        },
        {
          "internalType": "string",
          "name": "_description",
          "type": "string"
        },
        {
          "internalType": "uint256",
          "name": "_basePremium",
          "type": "uint256"
        },
        {
          "internalType": "uint256",
          "name": "_minAge",
          "type": "uint256"
        },
        {
          "internalType": "uint256",
          "name": "_maxSystolic",
          "type": "uint256"
        },
        {
          "internalType": "uint256",
          "name": "_maxDiastolic",
          "type": "uint256"
        },
        {
          "internalType": "uint256",
          "name": "_requiredVaccine",
          "type": "uint256"
        }
      ],
      "name": "createPolicy",
      "outputs": [],
      "stateMutability": "nonpayable",
      "type": "function"
    },
    {
      "inputs": [
        {
          "internalType": "uint256",
          "name": "_policyId",
          "type": "uint256"
        },
        {
          "internalType": "string",
          "name": "_name",
          "type": "string"
        },
        {
          "internalType": "string",
          "name": "_description",
          "type": "string"
        },
        {
          "internalType": "uint256",
          "name": "_basePremium",
          "type": "uint256"
        },
        {
          "internalType": "bool",
          "name": "_isActive",
          "type": "bool"
        },
        {
          "internalType": "uint256",
          "name": "_minAge",
          "type": "uint256"
        },
        {
          "internalType": "uint256",
          "name": "_maxSystolic",
          "type": "uint256"
        },
        {
          "internalType": "uint256",
          "name": "_maxDiastolic",
          "type": "uint256"
        },
        {
          "internalType": "uint256",
          "name": "_requiredVaccine",
          "type": "uint256"
        }
      ],
      "name": "updatePolicy",
      "outputs": [],
      "stateMutability": "nonpayable",
      "type": "function"
    },
    {
      "inputs": [
        {
          "internalType": "uint256",
          "name": "_policyId",
          "type": "uint256"
        }
      ],
      "name": "requestInsuranceQuote",
      "outputs": [],
      "stateMutability": "nonpayable",
      "type": "function"
    },
    {
      "inputs": [
        {
          "internalType": "uint256",
          "name": "_requestId",
          "type": "uint256"
        },
        {
          "internalType": "uint256[2]",
          "name": "a",
          "type": "uint256[2]"
        },
        {
          "internalType": "uint256[2][2]",
          "name": "b",
          "type": "uint256[2][2]"
        },
        {
          "internalType": "uint256[2]",
          "name": "c",
          "type": "uint256[2]"
        },
        {
          "internalType": "uint256[5]",
          "name": "input",
          "type": "uint256[5]"
        }
      ],
      "name": "submitInsuranceProof",
      "outputs": [],
      "stateMutability": "nonpayable",
      "type": "function"
    },
    {
      "inputs": [
        {
          "internalType": "uint256",
          "name": "_requestId",
          "type": "uint256"
        }
      ],
      "name": "finalizePolicy",
      "outputs": [],
      "stateMutability": "nonpayable",
      "type": "function"
    },
    {
      "inputs": [
        {
          "internalType": "address",
          "name": "_provider",
          "type": "address"
        }
      ],
      "name": "getProviderPolicies",
      "outputs": [
        {
          "components": [
            {
              "internalType": "uint256",
              "name": "id",
              "type": "uint256"
            },
            {
              "internalType": "address",
              "name": "provider",
              "type": "address"
            },
            {
              "internalType": "string",
              "name": "name",
              "type": "string"
            },
            {
              "internalType": "string",
              "name": "description",
              "type": "string"
            },
            {
              "internalType": "uint256",
              "name": "basePremium",
              "type": "uint256"
            },
            {
              "internalType": "bool",
              "name": "isActive",
              "type": "bool"
            },
            {
              "internalType": "uint256",
              "name": "minAge",
              "type": "uint256"
            },
            {
              "internalType": "uint256",
              "name": "maxSystolic",
              "type": "uint256"
            },
            {
              "internalType": "uint256",
              "name": "maxDiastolic",
              "type": "uint256"
            },
            {
              "internalType": "uint256",
              "name": "requiredVaccine",
              "type": "uint256"
            }
          ],
          "internalType": "struct Insurance.Policy[]",
          "name": "",
          "type": "tuple[]"
        }
      ],
      "stateMutability": "view",
      "type": "function"
    },
    {
      "inputs": [],
      "name": "getAllActivePolicies",
      "outputs": [
        {
          "components": [
            {
              "internalType": "uint256",
              "name": "id",
              "type": "uint256"
            },
            {
              "internalType": "address",
              "name": "provider",
              "type": "address"
            },
            {
              "internalType": "string",
              "name": "name",
              "type": "string"
            },
            {
              "internalType": "string",
              "name": "description",
              "type": "string"
            },
            {
              "internalType": "uint256",
              "name": "basePremium",
              "type": "uint256"
            },
            {
              "internalType": "bool",
              "name": "isActive",
              "type": "bool"
            },
            {
              "internalType": "uint256",
              "name": "minAge",
              "type": "uint256"
            },
            {
              "internalType": "uint256",
              "name": "maxSystolic",
              "type": "uint256"
            },
            {
              "internalType": "uint256",
              "name": "maxDiastolic",
              "type": "uint256"
            },
            {
              "internalType": "uint256",
              "name": "requiredVaccine",
              "type": "uint256"
            }
          ],
          "internalType": "struct Insurance.Policy[]",
          "name": "",
          "type": "tuple[]"
        }
      ],
      "stateMutability": "view",
      "type": "function"
    },
    {
      "inputs": [
        {
          "internalType": "address",
          "name": "_patient",
          "type": "address"
        }
      ],
      "name": "getPatientInsuranceRequests",
      "outputs": [
        {
          "components": [
            {
              "internalType": "uint256",
              "name": "requestId",
              "type": "uint256"
            },
            {
              "internalType": "uint256",
              "name": "policyId",
              "type": "uint256"
            },
            {
              "internalType": "address",
              "name": "patient",
              "type": "address"
            },
            {
              "internalType": "address",
              "name": "provider",
              "type": "address"
            },
            {
              "internalType": "uint256",
              "name": "finalPremium",
              "type": "uint256"
            },
            {
              "internalType": "bool",
              "name": "isVerified",
              "type": "bool"
            },
            {
              "internalType": "bool",
              "name": "isCalculated",
              "type": "bool"
            },
            {
              "internalType": "bool",
              "name": "isFinalized",
              "type": "bool"
            }
          ],
          "internalType": "struct Insurance.InsuranceRequest[]",
          "name": "",
          "type": "tuple[]"
        }
      ],
      "stateMutability": "view",
      "type": "function"
    },
    {
      "inputs": [
        {
          "internalType": "address",
          "name": "_provider",
          "type": "address"
        }
      ],
      "name": "getProviderInsuranceRequests",
      "outputs": [
        {
          "components": [
            {
              "internalType": "uint256",
              "name": "requestId",
              "type": "uint256"
            },
            {
              "internalType": "uint256",
              "name": "policyId",
              "type": "uint256"
            },
            {
              "internalType": "address",
              "name": "patient",
              "type": "address"
            },
            {
              "internalType": "address",
              "name": "provider",
              "type": "address"
            },
            {
              "internalType": "uint256",
              "name": "finalPremium",
              "type": "uint256"
            },
            {
              "internalType": "bool",
              "name": "isVerified",
              "type": "bool"
            },
            {
              "internalType": "bool",
              "name": "isCalculated",
              "type": "bool"
            },
            {
              "internalType": "bool",
              "name": "isFinalized",
              "type": "bool"
            }
          ],
          "internalType": "struct Insurance.InsuranceRequest[]",
          "name": "",
          "type": "tuple[]"
        }
      ],
      "stateMutability": "view",
      "type": "function"
    },
    {
      "inputs": [
        {
          "internalType": "address",
          "name": "_addr",
          "type": "address"
        }
      ],
      "name": "isInsuranceProvider",
      "outputs": [
        {
          "internalType": "bool",
          "name": "",
          "type": "bool"
        }
      ],
      "stateMutability": "view",
      "type": "function"
    },
    {
      "inputs": [
        {
          "internalType": "uint256",
          "name": "_requestId",
          "type": "uint256"
        },
        {
          "internalType": "string",
          "name": "_procedureName",
          "type": "string"
        },
        {
          "internalType": "uint256",
          "name": "_cost",
          "type": "uint256"
        },
        {
          "internalType": "string",
          "name": "_evidenceHash",
          "type": "string"
        }
      ],
      "name": "submitClaim",
      "outputs": [],
      "stateMutability": "nonpayable",
      "type": "function"
    },
    {
      "inputs": [
        {
          "internalType": "uint256",
          "name": "_claimId",
          "type": "uint256"
        },
        {
          "internalType": "string",
          "name": "_status",
          "type": "string"
        }
      ],
      "name": "processClaim",
      "outputs": [],
      "stateMutability": "nonpayable",
      "type": "function"
    },
    {
      "inputs": [
        {
          "internalType": "address",
          "name": "_patient",
          "type": "address"
        }
      ],
      "name": "getPatientClaims",
      "outputs": [
        {
          "components": [
            {
              "internalType": "uint256",
              "name": "id",
              "type": "uint256"
            },
            {
              "internalType": "uint256",
              "name": "requestId",
              "type": "uint256"
            },
            {
              "internalType": "address",
              "name": "patient",
              "type": "address"
            },
            {
              "internalType": "address",
              "name": "provider",
              "type": "address"
            },
            {
              "internalType": "string",
              "name": "procedureName",
              "type": "string"
            },
            {
              "internalType": "uint256",
              "name": "cost",
              "type": "uint256"
            },
            {
              "internalType": "string",
              "name": "evidenceHash",
              "type": "string"
            },
            {
              "internalType": "string",
              "name": "status",
              "type": "string"
            },
            {
              "internalType": "uint256",
              "name": "timestamp",
              "type": "uint256"
            }
          ],
          "internalType": "struct Insurance.Claim[]",
          "name": "",
          "type": "tuple[]"
        }
      ],
      "stateMutability": "view",
      "type": "function"
    },
    {
      "inputs": [
        {
          "internalType": "address",
          "name": "_provider",
          "type": "address"
        }
      ],
      "name": "getProviderClaims",
      "outputs": [
        {
          "components": [
            {
              "internalType": "uint256",
              "name": "id",
              "type": "uint256"
            },
            {
              "internalType": "uint256",
              "name": "requestId",
              "type": "uint256"
            },
            {
              "internalType": "address",
              "name": "patient",
              "type": "address"
            },
            {
              "internalType": "address",
              "name": "provider",
              "type": "address"
            },
            {
              "internalType": "string",
              "name": "procedureName",
              "type": "string"
            },
            {
              "internalType": "uint256",
              "name": "cost",
              "type": "uint256"
            },
            {
              "internalType": "string",
              "name": "evidenceHash",
              "type": "string"
            },
            {
              "internalType": "string",
              "name": "status",
              "type": "string"
            },
            {
              "internalType": "uint256",
              "name": "timestamp",
              "type": "uint256"
            }
          ],
          "internalType": "struct Insurance.Claim[]",
          "name": "",
          "type": "tuple[]"
        }
      ],
      "stateMutability": "view",
      "type": "function"
    },
    {
      "inputs": [
        {
          "internalType": "uint256",
          "name": "_minPremium",
          "type": "uint256"
        },
        {
          "internalType": "uint256",
          "name": "_maxPremium",
          "type": "uint256"
        }
      ],
      "name": "getPoliciesByPremiumRange",
      "outputs": [
        {
          "components": [
            {
              "internalType": "uint256",
              "name": "id",
              "type": "uint256"
            },
            {
              "internalType": "address",
              "name": "provider",
              "type": "address"
            },
            {
              "internalType": "string",
              "name": "name",
              "type": "string"
            },
            {
              "internalType": "string",
              "name": "description",
              "type": "string"
            },
            {
              "internalType": "uint256",
              "name": "basePremium",
              "type": "uint256"
            },
            {
              "internalType": "bool",
              "name": "isActive",
              "type": "bool"
            },
            {
              "internalType": "uint256",
              "name": "minAge",
              "type": "uint256"
            },
            {
              "internalType": "uint256",
              "name": "maxSystolic",
              "type": "uint256"
            },
            {
              "internalType": "uint256",
              "name": "maxDiastolic",
              "type": "uint256"
            },
            {
              "internalType": "uint256",
              "name": "requiredVaccine",
              "type": "uint256"
            }
          ],
          "internalType": "struct Insurance.Policy[]",
          "name": "",
          "type": "tuple[]"
        }
      ],
      "stateMutability": "view",
      "type": "function"
    },
    {
      "inputs": [
        {
          "internalType": "address",
          "name": "_provider",
          "type": "address"
        }
      ],
      "name": "getPoliciesByProvider",
      "outputs": [
        {
          "components": [
            {
              "internalType": "uint256",
              "name": "id",
              "type": "uint256"
            },
            {
              "internalType": "address",
              "name": "provider",
              "type": "address"
            },
            {
              "internalType": "string",
              "name": "name",
              "type": "string"
            },
            {
              "internalType": "string",
              "name": "description",
              "type": "string"
            },
            {
              "internalType": "uint256",
              "name": "basePremium",
              "type": "uint256"
            },
            {
              "internalType": "bool",
              "name": "isActive",
              "type": "bool"
            },
            {
              "internalType": "uint256",
              "name": "minAge",
              "type": "uint256"
            },
            {
              "internalType": "uint256",
              "name": "maxSystolic",
              "type": "uint256"
            },
            {
              "internalType": "uint256",
              "name": "maxDiastolic",
              "type": "uint256"
            },
            {
              "internalType": "uint256",
              "name": "requiredVaccine",
              "type": "uint256"
            }
          ],
          "internalType": "struct Insurance.Policy[]",
          "name": "",
          "type": "tuple[]"
        }
      ],
      "stateMutability": "view",
      "type": "function"
    },
    {
      "inputs": [
        {
          "internalType": "uint256",
          "name": "_age",
          "type": "uint256"
        }
      ],
      "name": "getPoliciesByAgeRequirement",
      "outputs": [
        {
          "components": [
            {
              "internalType": "uint256",
              "name": "id",
              "type": "uint256"
            },
            {
              "internalType": "address",
              "name": "provider",
              "type": "address"
            },
            {
              "internalType": "string",
              "name": "name",
              "type": "string"
            },
            {
              "internalType": "string",
              "name": "description",
              "type": "string"
            },
            {
              "internalType": "uint256",
              "name": "basePremium",
              "type": "uint256"
            },
            {
              "internalType": "bool",
              "name": "isActive",
              "type": "bool"
            },
            {
              "internalType": "uint256",
              "name": "minAge",
              "type": "uint256"
            },
            {
              "internalType": "uint256",
              "name": "maxSystolic",
              "type": "uint256"
            },
            {
              "internalType": "uint256",
              "name": "maxDiastolic",
              "type": "uint256"
            },
            {
              "internalType": "uint256",
              "name": "requiredVaccine",
              "type": "uint256"
            }
          ],
          "internalType": "struct Insurance.Policy[]",
          "name": "",
          "type": "tuple[]"
        }
      ],
      "stateMutability": "view",
      "type": "function"
    },
    {
      "inputs": [
        {
          "internalType": "string",
          "name": "_query",
          "type": "string"
        }
      ],
      "name": "searchPolicies",
      "outputs": [
        {
          "components": [
            {
              "internalType": "uint256",
              "name": "id",
              "type": "uint256"
            },
            {
              "internalType": "address",
              "name": "provider",
              "type": "address"
            },
            {
              "internalType": "string",
              "name": "name",
              "type": "string"
            },
            {
              "internalType": "string",
              "name": "description",
              "type": "string"
            },
            {
              "internalType": "uint256",
              "name": "basePremium",
              "type": "uint256"
            },
            {
              "internalType": "bool",
              "name": "isActive",
              "type": "bool"
            },
            {
              "internalType": "uint256",
              "name": "minAge",
              "type": "uint256"
            },
            {
              "internalType": "uint256",
              "name": "maxSystolic",
              "type": "uint256"
            },
            {
              "internalType": "uint256",
              "name": "maxDiastolic",
              "type": "uint256"
            },
            {
              "internalType": "uint256",
              "name": "requiredVaccine",
              "type": "uint256"
            }
          ],
          "internalType": "struct Insurance.Policy[]",
          "name": "",
          "type": "tuple[]"
        }
      ],
      "stateMutability": "view",
      "type": "function"
    }
  ],
  "bytecode": "0x60806040523461004a5760015f5560ff19600154166001555f6006555f600c555f600f555f6010556100303361004e565b5061003a336100c4565b50604051613d6790816101588239f35b5f80fd5b6001600160a01b0381165f9081525f516020613edf5f395f51905f52602052604090205460ff166100bf576001600160a01b03165f8181525f516020613edf5f395f51905f5260205260408120805460ff191660011790553391905f516020613ebf5f395f51905f528180a4600190565b505f90565b6001600160a01b0381165f9081525f516020613eff5f395f51905f52602052604090205460ff166100bf576001600160a01b03165f8181525f516020613eff5f395f51905f5260205260408120805460ff191660011790553391907fa49807205ce4d355092ef5a8a18f56e8913cf4a201fbe287825b095693c21775905f516020613ebf5f395f51905f529080a460019056fe6080806040526004361015610012575f80fd5b5f3560e01c90816301ffc9a7146133d4575080630223fe21146130565780630a5eccd314612d445780632380b97914612a4a578063248a9ca314612a1757806324c20a34146129dd5780632d4dbb96146128cd5780632f2ff15d1461288f5780633217bc721461284657806336568abe14612802578063388a2974146127b957806338b75ae014612667578063482bce3c146125e85780634c1fb578146124c2578063521a6e94146124a55780635437988d146123b55780635badbe4c146123985780635c975abb146123765780635df67cad14611e09578063618dd9a814611dc75780636aebbd6614611d9f578063755e9ace14611c7257806375b238fc14611c385780637f8905f314611a555780638da4d3c914611a3857806391d14854146119ef5780639b166af914611604578063a217fddf146115ea578063a888c2cd14611517578063ab558919146114ce578063ac1686301461138e578063b0dec9f714611230578063b8f15a1a146110f5578063c29f140114610fa7578063c2ac6afa14610bc5578063c575d09314610b7c578063c73b503a14610990578063d2d8fe0714610950578063d3e8948314610885578063d547741f14610840578063de54d42914610823578063e05ba3481461061b578063ede341f0146102f8578063eed45ccd146102675763fcbe91471461020b575f80fd5b346102635760403660031901126102635761022461365b565b6001600160a01b03165f9081526007602052604090208054602435919082101561026357602091610254916136b3565b90549060031b1c604051908152f35b5f80fd5b34610263576020366003190112610263576004355f52600860205261010060405f2060ff81549160018101549060018060a01b0360028201541660018060a01b036003830154169060056004840154930154936040519687526020870152604086015260608501526080840152818116151560a0840152818160081c16151560c084015260101c16151560e0820152f35b34610263576020366003190112610263576004356001600160401b038111610263576103289036906004016134f4565b610330613d16565b335f52600360205260ff600360405f200154166105e157805180151590816105d5575b501561059a57610364600f546139c9565b80600f5560405190608082018281106001600160401b038211176104c05760405281526020810133815260408201838152606083019160018352335f52600360205260405f209351845560018060a01b03905116600184019060018060a01b03166001600160601b0360a01b8254161790556002830190518051906001600160401b0382116104c0576103f783546136c8565b601f8111610549575b50602090601f83116001146104df5791806003949261044b9796945f926104d4575b50508160011b915f1990861b1c19161790555b51151591019060ff801983541691151516179055565b600454600160401b8110156104c05780600161046a9201600455613687565b81549060031b9033821b9160018060a01b03901b19161790557fba71926bd5489057d853e3d4f8501ea465ca2eb897a1c34e2148b72c8d9b51e660405160208152806104bb3394602083019061355b565b0390a2005b634e487b7160e01b5f52604160045260245ffd5b015190508880610422565b90601f19831691845f52815f20925f5b818110610531575092600192859261044b999896600398961061051a575b505050811b019055610435565b01515f1983881b60f8161c1916905588808061050d565b929360206001819287860151815501950193016104ef565b8281111561040057835f5260205f20601f840160051c9060208510610592575b81601f9101920160051c03905f5b828110610585575050610400565b5f82820155600101610577565b5f9150610569565b60405162461bcd60e51b8152602060048201526013602482015272092dcecc2d8d2c840dcc2daca40d8cadccee8d606b1b6044820152606490fd5b60649150111582610353565b60405162461bcd60e51b8152602060048201526012602482015271105b1c9958591e481c9959da5cdd195c995960721b6044820152606490fd5b3461026357602036600319011261026357600654600435905f60015b828111156107515750610649906139ee565b915f60015b8381111561066857604051806106648782613580565b0390f35b805f52600560205260405f206040519061068182613427565b8054825260018101546001600160a01b031660208301526106a460028201613700565b60408301526106b560038201613700565b60608301526004810154608083015260ff6005820154161515908160a084015260096006820154918260c0860152600781015460e08601526008810154610100860152015461012084015281610746575b5061071b575b50610716906139c9565b61064e565b8261073f9161072e610716949589613a7c565b526107398188613a7c565b506139c9565b919061070c565b905084101587610706565b805f52600560205260405f206040519061076a82613427565b8054825260018101546001600160a01b0316602083015261078d60028201613700565b604083015261079e60038201613700565b60608301526004810154608083015260ff6005820154161515918260a082015261012060096006840154938460c0850152600781015460e08501526008810154610100850152015491015281610818575b50610803575b6107fe906139c9565b610637565b906108106107fe916139c9565b9190506107f5565b9050841015856107ef565b34610263575f366003190112610263576020600654604051908152f35b346102635760403660031901126102635761088360043561085f613671565b9061087e610879825f526002602052600160405f20015490565b613bcc565b613c92565b005b34610263576020366003190112610263576004355f908152600560205260409020805460018201546001600160a01b0316916108c360028201613700565b6108cf60038301613700565b9160048101549260ff60058301541660068301549061092960078501549361091b60096008880154970154976040519b8c9b8c5260208c015261014060408c01526101408b019061355b565b9089820360608b015261355b565b956080880152151560a087015260c086015260e08501526101008401526101208301520390f35b34610263576020366003190112610263576001600160a01b0361097161365b565b165f526003602052602060ff600360405f200154166040519015158152f35b3461026357602036600319011261026357600435805f52600560205260405f209060ff60058301541615610b40576109c96010546139c9565b91826010556001810192600460018060a01b03855416920154610a9760056040516109f38161345f565b848152602080820188815233604080850191825260608501998a52608085019788525f60a0860181815260c0870182815260e088018381529b835260089096529190209451855591516001850155516002840180546001600160a01b039283166001600160a01b0319918216179091559851600385018054919092169916989098179097559351600482015594519401805460ff191694151560ff16949094178455565b51151561ff0083549160081b169061ff00191617825551151562ff000082549160101b169062ff00001916179055335f526009602052610add60405f2060105490613a90565b81546001600160a01b03165f908152600a60205260409020601054610b0191613a90565b60105491546040519182526001600160a01b03169133917ff1b29b9300929052e2978377445efec1b2f0291325f977ba3864b8032c3e1a5590602090a4005b60405162461bcd60e51b8152602060048201526014602482015273506f6c696379206973206e6f742061637469766560601b6044820152606490fd5b3461026357604036600319011261026357610b9561365b565b6001600160a01b03165f908152600e602052604090208054602435919082101561026357602091610254916136b3565b3461026357610120366003190112610263576004356024356001600160401b03811161026357610bf99036906004016134f4565b6044356001600160401b03811161026357610c189036906004016134f4565b6064359060843590811515820361026357335f526003602052610c4460ff600360405f2001541661397d565b845f5260056020523360018060a01b03600160405f2001541603610f7057845f526005602052600260405f200184516001600160401b0381116104c057610c8b82546136c8565b601f8111610f1f575b50806020601f8211600114610ebe575f91610eb3575b508160011b915f199060031b1c19161790555b845f526005602052600360405f2001908051906001600160401b0382116104c057610ce883546136c8565b601f8111610e62575b50602090601f8311600114610dd4579282610d7b937f9e17a7ed966932600b902e0ec0872c3f999e1078596958cbd1463bab7f0ab41a989693610dbe98965f92610dc9575b50508160011b915f199060031b1c19161790555b865f52600560205282600460405f200155865f526005602052600560405f20019060ff801983541691151516179055565b5f858152600560205260409081902060a435600682015560c435600782015560e4356008820155610104356009909101558051818152938493909184019061355b565b9060208301520390a2005b015190508a80610d36565b90601f19831691845f52815f20925f5b818110610e4a5750937f9e17a7ed966932600b902e0ec0872c3f999e1078596958cbd1463bab7f0ab41a989693610dbe98969360019383610d7b9810610e32575b505050811b019055610d4a565b01515f1960f88460031b161c191690558a8080610e25565b92936020600181928786015181550195019301610de4565b82811115610cf157835f5260205f20601f840160051c9060208510610eab575b81601f9101920160051c03905f5b828110610e9e575050610cf1565b5f82820155600101610e90565b5f9150610e82565b905086015188610caa565b5f8481528181209250601f198416905b818110610f0757509083600194939210610eef575b5050811b019055610cbd565b8801515f1960f88460031b161c191690558880610ee3565b9192602060018192868d015181550194019201610ece565b81811115610c9457825f5260205f20601f830160051c9060208410610f68575b81601f9101920160051c03905f5b828110610f5b575050610c94565b5f82820155600101610f4d565b5f9150610f3f565b60405162461bcd60e51b815260206004820152600f60248201526e4e6f7420796f757220706f6c69637960881b6044820152606490fd5b34610263576020366003190112610263576001600160a01b03610fc861365b565b165f52600e60205260405f20604051808260208294549384815201905f5260205f20925f5b8181106110dc5750506110029250038261347b565b61100c8151613b43565b905f5b81518110156110ce578061102560019284613a7c565b515f52600b60205260405f2060086040519161104083613443565b80548352848101546020840152600281015460a086901b8690039081166040850152600382015416606084015261107960048201613700565b6080840152600581015460a084015261109460068201613700565b60c08401526110a560078201613700565b60e084015201546101008201526110bc8286613a7c565b526110c78185613a7c565b500161100f565b604051806106648582613838565b8454835260019485019486945060209093019201610fed565b34610263576020366003190112610263576001600160a01b0361111661365b565b165f52600960205260405f20604051808260208294549384815201905f5260205f20925f5b8181106112175750506111509250038261347b565b61115a8151613ac4565b905f5b8151811015611209578061117360019284613a7c565b515f52600860205260405f2060ff6005604051926111908461345f565b80548452858101546020850152858060a01b036002820154166040850152858060a01b036003820154166060850152600481015460808501520154818116151560a0840152818160081c16151560c084015260101c16151560e08201526111f78286613a7c565b526112028185613a7c565b500161115d565b6040518061066485826137a0565b845483526001948501948694506020909301920161113b565b34610263575f366003190112610263576006545f60015b828111156113535750611259906139ee565b905f60015b8281111561127457604051806106648682613580565b805f52600560205260ff600560405f2001541661129a575b611295906139c9565b61125e565b9061134b61129591835f52600560205260405f206009604051916112bd83613427565b8054835260018101546001600160a01b031660208401526112e060028201613700565b60408401526112f160038201613700565b60608401526004810154608084015260ff600582015416151560a0840152600681015460c0840152600781015460e0840152600881015461010084015201546101208201526113408288613a7c565b526107398187613a7c565b91905061128c565b805f52600560205260ff600560405f20015416611379575b611374906139c9565b611247565b90611386611374916139c9565b91905061136b565b34610263576020366003190112610263576001600160a01b036113af61365b565b165f52600d60205260405f20604051808260208294549384815201905f5260205f20925f5b8181106114b55750506113e99250038261347b565b6113f38151613b43565b905f5b81518110156110ce578061140c60019284613a7c565b515f52600b60205260405f2060086040519161142783613443565b80548352848101546020840152600281015460a086901b8690039081166040850152600382015416606084015261146060048201613700565b6080840152600581015460a084015261147b60068201613700565b60c084015261148c60078201613700565b60e084015201546101008201526114a38286613a7c565b526114ae8185613a7c565b50016113f6565b84548352600194850194869450602090930192016113d4565b34610263576040366003190112610263576114e761365b565b6001600160a01b03165f908152600a602052604090208054602435919082101561026357602091610254916136b3565b34610263576020366003190112610263576004355f52600b60205260405f2080546001820154916115df60018060a01b03600283015416916115d160018060a01b0360038301541661156b60048401613700565b906115be60058501549261158160068701613700565b92600861159060078901613700565b970154986040519b8c9b8c5260208c015260408b015260608a015261012060808a015261012089019061355b565b9160a088015286820360c088015261355b565b9084820360e086015261355b565b906101008301520390f35b34610263575f3660031901126102635760206040515f8152f35b346102635760e0366003190112610263576004356001600160401b038111610263576116349036906004016134f4565b6024356001600160401b038111610263576116539036906004016134f4565b90335f52600360205261166f60ff600360405f2001541661397d565b611677613d16565b6116826006546139c9565b806006556040519061169382613427565b80825260208201338152604083018481526060840195865260808401604435815260a085016001815260c0860191606435835260e0870193608435855261010088019560a435875261012089019760c43589525f52600560205260405f209851895560018060a01b03905116600189019060018060a01b03166001600160601b0360a01b8254161790556002880190518051906001600160401b0382116104c057819061174084546136c8565b601f8111611996575b50602090601f8311600114611933575f92611928575b50508160011b915f199060031b1c19161790555b6003870198519889516001600160401b0381116104c05761179482546136c8565b601f81116118d7575b506020601f821160011461186b5790806117f29594939260099b9c9d5f92611860575b50508160011b915f199060031b1c19161790555b516004890155511515600588019060ff801983541691151516179055565b51600686015551600785015551600884015551910155335f52600760205261182060405f2060065490613a90565b6006547f21d0178f0cde2aed24022db30651dabafb4bbe431fb787fbc92113304d8e3549604051602081528061185b3395602083019061355b565b0390a3005b015190508d806117c0565b601f19821690835f52805f20915f5b8181106118bf575091839160099c9d9e6117f298979695600195106118a7575b505050811b0190556117d4565b01515f1960f88460031b161c191690558d808061189a565b8e83015184556001909301926020928301920161187a565b8181111561179d57825f5260205f20601f830160051c9060208410611920575b81601f9101920160051c03905f5b82811061191357505061179d565b5f82820155600101611905565b5f91506118f7565b015190508c8061175f565b5f8581528281209350601f198516905b81811061197e5750908460019594939210611966575b505050811b019055611773565b01515f1960f88460031b161c191690558c8080611959565b92936020600181928786015181550195019301611943565b8281111561174957909150835f5260205f20601f840160051c90602085106119e7575b849392601f0160051c82900391015f5b8281106119d7575050611749565b5f818301558594506001016119c9565b5f91506119b9565b3461026357604036600319011261026357611a08613671565b6004355f52600260205260405f209060018060a01b03165f52602052602060ff60405f2054166040519015158152f35b34610263575f366003190112610263576020600c54604051908152f35b3461026357604036600319011261026357600654600435906024355f60015b83811115611bbf5750611a86906139ee565b925f9160015b84811115611aa257604051806106648882613580565b805f52600560205260ff600560405f2001541680611ba6575b80611b8d575b611ad4575b611acf906139c9565b611a8c565b92611b85611acf91855f52600560205260405f20600960405191611af783613427565b8054835260018101546001600160a01b03166020840152611b1a60028201613700565b6040840152611b2b60038201613700565b60608401526004810154608084015260ff600582015416151560a0840152600681015460c0840152600781015460e084015260088101546101008401520154610120820152611b7a828a613a7c565b526107398189613a7c565b939050611ac6565b50805f52600560205281600460405f2001541115611ac1565b50805f52600560205282600460405f2001541015611abb565b805f52600560205260ff600560405f2001541680611c1f575b80611c06575b611bf1575b611bec906139c9565b611a74565b90611bfe611bec916139c9565b919050611be3565b50805f52600560205282600460405f2001541115611bde565b50805f52600560205284600460405f2001541015611bd8565b34610263575f3660031901126102635760206040517fa49807205ce4d355092ef5a8a18f56e8913cf4a201fbe287825b095693c217758152f35b34610263576020366003190112610263576001600160a01b03611c9361365b565b165f52600a60205260405f20604051808260208294549384815201905f5260205f20925f5b818110611d86575050611ccd9250038261347b565b611cd78151613ac4565b905f5b81518110156112095780611cf060019284613a7c565b515f52600860205260405f2060ff600560405192611d0d8461345f565b80548452858101546020850152858060a01b036002820154166040850152858060a01b036003820154166060850152600481015460808501520154818116151560a0840152818160081c16151560c084015260101c16151560e0820152611d748286613a7c565b52611d7f8185613a7c565b5001611cda565b8454835260019485019486945060209093019201611cb8565b34610263575f366003190112610263576011546040516001600160a01b039091168152602090f35b346102635760203660031901126102635760043560045481101561026357611df0602091613687565b905460405160039290921b1c6001600160a01b03168152f35b34610263576080366003190112610263576004356024356001600160401b03811161026357611e3c9036906004016134f4565b906064356001600160401b03811161026357611e5c9036906004016134f4565b611e64613d16565b815f52600860205260405f209060ff600583015460101c1615612331576003611e8e600c546139c9565b9283600c55019160018060a01b038354169360405192611ead84613443565b828452602084019182526040840195338752606085019081526080850188815260a0860191604435835260c08701938452604098895195611eee8b8861347b565b600787526650454e44494e4760c81b60208089019190915260e08a01978852426101008b019081525f998a52600b909152978b902098518955516001890155516002880180546001600160a01b03199081166001600160a01b03938416179091559151600389018054909316911617905551805160048701916001600160401b0382116104c0578190611f8184546136c8565b601f81116122d8575b50602090601f8311600114612275575f9261226a575b50508160011b915f199060031b1c19161790555b51600585015551805160068501916001600160401b0382116104c0578190611fdc84546136c8565b601f8111612211575b50602090601f83116001146121ae575f926121a3575b50508160011b915f199060031b1c19161790555b51805160078401916001600160401b0382116104c05761202f83546136c8565b601f8111612152575b50602090601f83116001146120eb576008949392915f91836120e0575b50508160011b915f199060031b1c19161790555b51910155335f52600d602052612084825f20600c5490613a90565b546001600160a01b03165f908152600e602052819020600c546120a691613a90565b7f2f71653c2a88aa8bb0f0a0a9a4c20a39fe431d759dbfd744d58b34747bd0eb12600c549151602081528061185b3395602083019061355b565b015190508980612055565b90601f19831691845f52815f20925f5b81811061213a575091600193918560089897969410612122575b505050811b019055612069565b01515f1960f88460031b161c19169055898080612115565b929360206001819287860151815501950193016120fb565b8281111561203857835f5260205f20601f840160051c906020851061219b575b81601f9101920160051c03905f5b82811061218e575050612038565b5f82820155600101612180565b5f9150612172565b015190508980611ffb565b5f8581528281209350601f198516905b8181106121f957509084600195949392106121e1575b505050811b01905561200f565b01515f1960f88460031b161c191690558980806121d4565b929360206001819287860151815501950193016121be565b82811115611fe557909150835f5260205f20601f840160051c9060208510612262575b849392601f0160051c82900391015f5b828110612252575050611fe5565b5f81830155859450600101612244565b5f9150612234565b015190508b80611fa0565b5f8581528281209350601f198516905b8181106122c057509084600195949392106122a8575b505050811b019055611fb4565b01515f1960f88460031b161c191690558b808061229b565b92936020600181928786015181550195019301612285565b82811115611f8a57909150835f5260205f20601f840160051c9060208510612329575b849392601f0160051c82900391015f5b828110612319575050611f8a565b5f8183015585945060010161230b565b5f91506122fb565b60405162461bcd60e51b815260206004820152601e60248201527f506f6c696379206d7573742062652066696e616c697a656420666972737400006044820152606490fd5b34610263575f36600319011261026357602060ff600154166040519015158152f35b34610263575f366003190112610263576020601054604051908152f35b34610263576020366003190112610263576123ce61365b565b335f9081527fe5ebfa64fca8d502a8e50c1edffd2c31ef4dad5b396e65d9f397fb028f74abc5602052604090205460ff161561246e5761240c613d16565b6001600160a01b03168015612432576001600160601b0360a01b60115416176011555f80f35b60405162461bcd60e51b8152602060048201526014602482015273496e76616c6964207a65726f206164647265737360601b6044820152606490fd5b63e2517d3f60e01b5f52336004527fa49807205ce4d355092ef5a8a18f56e8913cf4a201fbe287825b095693c2177560245260445ffd5b34610263575f366003190112610263576020600f54604051908152f35b3461026357602036600319011261026357600435335f5260036020526124f160ff600360405f2001541661397d565b5f8181526008602052604090206003810154612517906001600160a01b03163314613917565b60058101805460ff8160101c166125af5760ff8116156125725762ff0000191662010000179055600201546001600160a01b0316907fb54bfb2140076e02295b8abbecc5716f7c8919c93cc7e55e60d784f2b14ecbd35f80a3005b60405162461bcd60e51b81526020600482015260156024820152742bb0b4ba103337b9103b32b934b334b1b0ba34b7b760591b6044820152606490fd5b60405162461bcd60e51b8152602060048201526011602482015270105b1c9958591e48199a5b985b1a5e9959607a1b6044820152606490fd5b34610263576020366003190112610263576001600160a01b0361260961365b565b165f52600360205260405f20805460018060a01b036001830154169161265b60ff600361263860028501613700565b93015416916040519485948552602085015260806040850152608084019061355b565b90151560608301520390f35b34610263576020366003190112610263576001600160a01b0361268861365b565b165f52600760205260405f20604051808260208294549384815201905f5260205f20925f5b8181106127a05750506126c29250038261347b565b6126cc81516139ee565b905f5b815181101561279257806126e560019284613a7c565b515f52600560205260405f2060096040519161270083613427565b80548352848060a01b038582015416602084015261272060028201613700565b604084015261273160038201613700565b60608401526004810154608084015260ff600582015416151560a0840152600681015460c0840152600781015460e0840152600881015461010084015201546101208201526127808286613a7c565b5261278b8185613a7c565b50016126cf565b604051806106648582613580565b84548352600194850194869450602090930192016126ad565b34610263576040366003190112610263576127d261365b565b6001600160a01b03165f908152600d602052604090208054602435919082101561026357602091610254916136b3565b346102635760403660031901126102635761281b613671565b336001600160a01b038216036128375761088390600435613c92565b63334bd91960e11b5f5260045ffd5b346102635760403660031901126102635761285f61365b565b6001600160a01b03165f9081526009602052604090208054602435919082101561026357602091610254916136b3565b34610263576040366003190112610263576108836004356128ae613671565b906128c8610879825f526002602052600160405f20015490565b613c06565b34610263576020366003190112610263576001600160a01b036128ee61365b565b165f52600760205260405f208054612905816139ee565b915f5b82811061291d57604051806106648682613580565b8061292a600192846136b3565b90549060031b1c5f52600560205260405f2060096040519161294b83613427565b80548352848060a01b038582015416602084015261296b60028201613700565b604084015261297c60038201613700565b60608401526004810154608084015260ff600582015416151560a0840152600681015460c0840152600781015460e0840152600881015461010084015201546101208201526129cb8287613a7c565b526129d68186613a7c565b5001612908565b34610263575f3660031901126102635760206040517f18d9ff454de989bd126b06bd404b47ede75f9e65543e94e8d212f89d7dcbb87c8152f35b34610263576020366003190112610263576020612a426004355f526002602052600160405f20015490565b604051908152f35b34610263576020366003190112610263576004356001600160401b03811161026357612a7a9036906004016134f4565b604051612aa860208281612a97818301968781519384920161353a565b81010301601f19810183528261347b565b5190206006545f60015b82811115612c145750612ac4906139ee565b915f60015b83811115612adf57604051806106648782613580565b805f52600560205260405f2060405190612af882613427565b8054825260018101546001600160a01b0316602083015284612b1c60028301613700565b60408401908152612b2f60038401613700565b926060850193845260048101546080860152600960ff6005830154161515918260a0880152600681015460c0880152600781015460e088015260088101546101008801520154610120860152612b92575b50505050612b8d906139c9565b612ac9565b819051604051612bb260208281612a97818301968781519384920161353a565b5190209251604051612bd460208281612a97818301968781519384920161353a565b5190209214918215612c0a575b5050612bf0575b808481612b80565b82612c039161072e612b8d949589613a7c565b9190612be8565b1490508488612be1565b805f52600560205260405f208460405191612c2e83613427565b8054835260018101546001600160a01b03166020840152612c5160028201613700565b9060408401918252612c6560038201613700565b936060810194855260048201546080820152610120600960ff6005850154161515938460a0850152600681015460c0850152600781015460e085015260088101546101008501520154910152612cc7575b505050612cc2906139c9565b612ab2565b819051604051612ce760208281612a97818301968781519384920161353a565b5190209251604051612d0960208281612a97818301968781519384920161353a565b5190209214918215612d3a575b5050612d25575b848481612cb6565b90612d32612cc2916139c9565b919050612d1d565b1490508486612d16565b34610263576040366003190112610263576004356024356001600160401b03811161026357612d779036906004016134f4565b90335f526003602052612d9360ff600360405f2001541661397d565b805f52600b60205260405f203360018060a01b0360038301541603613020576007019160405192602084015f9482549581612dcd886136c8565b9160018916801561300557600114612fc7575b612df3925003601f19810183528261347b565b51902060405160208101906650454e44494e4760c81b825260078152612e1a60278261347b565b51902003612f8e578151936001600160401b0385116104c057612e3c906136c8565b601f8111612f3d575b50602093601f8111600114612eb75790816104bb93927f3d2d9aaf072180328e478501720eb5e357f462214fac339049c443729042386795965f91612eac575b508160011b915f199060031b1c19161790555b60405191829160208352602083019061355b565b905083015187612e85565b601f198116825f52855f20905f5b818110612f255750916001917f3d2d9aaf072180328e478501720eb5e357f462214fac339049c44372904238679697826104bb97969510612f0d575b5050811b019055612e98565b8501515f1960f88460031b161c191690558780612f01565b85880151835560209788019760019093019201612ec5565b84811115612e4557815f5260205f20601f860160051c9060208710612f86575b81601f9101920160051c03905f5b828110612f79575050612e45565b5f82820155600101612f6b565b5f9150612f5d565b60405162461bcd60e51b8152602060048201526011602482015270105b1c9958591e481c1c9bd8d95cdcd959607a1b6044820152606490fd5b5050835f528160205f205f905b838210612feb5750506020612df392820101612de0565b602091925080600191548385880101520191018391612fd4565b505060ff1988168452612df391801515028101602001612de0565b60405162461bcd60e51b815260206004820152600e60248201526d4e6f7420796f757220636c61696d60901b6044820152606490fd5b34610263576101c03660031901126102635760043536604312156102635761307f36602461349c565b90366083121561026357604091825190613099848361347b565b813660e411610263576064905b60e482106133b0575050366101031215610263576130c53660e461349c565b366101431215610263578451916130dd60a08461347b565b82366101c41161026357610124905b6101c482106133a057505060025f54146133915760025f55845f526008602052855f209361312760018060a01b036002870154163314613917565b600585019360ff85541661335a576001815103613316576011546001600160a01b031693846131c9575b50505050509060049161010161ffff19825416179055019182546050810290808204605014901517156131b55760649004809355519182527f796a366357c80d9d52a4076d6a2d52b3c65e7f0b5bff47ff8a76b3c971055ab860203393a360015f55005b634e487b7160e01b5f52601160045260245ffd5b8851926131e860208501956334baeab960e01b87526024860190613956565b5f8a606486015b600283106132f757505050506132099060e4840190613956565b5f61012483015b600582106132e157505050915f929183836101a48295526132336101c48261347b565b51925af13d156132da573d613247816134d9565b906132548751928361347b565b81523d5f602083013e5b816132b8575b5015613274578480808080613151565b835162461bcd60e51b815260206004820152601c60248201527f5a4b2050726f6f6620566572696669636174696f6e204661696c6564000000006044820152606490fd5b9050602081805181010312610263576020015180151581036102635785613264565b606061325e565b6020806001928551815201930191019091613210565b600191816133086020938751613956565b019301910190918b906131ef565b875162461bcd60e51b815260206004820152601860248201527f50726f6f662073686f7773206e6f7420656c696769626c6500000000000000006044820152606490fd5b875162461bcd60e51b815260206004820152601060248201526f105b1c9958591e481d995c9a599a595960821b6044820152606490fd5b633ee5aeb560e01b5f5260045ffd5b81358152602091820191016130ec565b36601f8301121561026357602086916133c9368561349c565b8152019101906130a6565b34610263576020366003190112610263576004359063ffffffff60e01b821680920361026357602091637965db0b60e01b8114908115613416575b5015158152f35b6301ffc9a760e01b1490508361340f565b61014081019081106001600160401b038211176104c057604052565b61012081019081106001600160401b038211176104c057604052565b61010081019081106001600160401b038211176104c057604052565b90601f801991011681019081106001600160401b038211176104c057604052565b91906040805193906134ae908561347b565b83906040810192831161026357905b8282106134c957505050565b81358152602091820191016134bd565b6001600160401b0381116104c057601f01601f191660200190565b81601f820112156102635780359061350b826134d9565b92613519604051948561347b565b8284526020838301011161026357815f926020809301838601378301015290565b5f5b83811061354b5750505f910152565b818101518382015260200161353c565b906020916135748151809281855285808601910161353a565b601f01601f1916010190565b602081016020825282518091526040820191602060408360051b8301019401925f915b8383106135b257505050505090565b9091929394602080600192603f1985820301865288519081518152848060a01b03838301511683820152610120806136106135fe6040860151610140604087015261014086019061355b565b6060860151858203606087015261355b565b936080810151608085015260a0810151151560a085015260c081015160c085015260e081015160e08501526101008101516101008501520151910152970193019301919392906135a3565b600435906001600160a01b038216820361026357565b602435906001600160a01b038216820361026357565b60045481101561369f5760045f5260205f2001905f90565b634e487b7160e01b5f52603260045260245ffd5b805482101561369f575f5260205f2001905f90565b90600182811c921680156136f6575b60208310146136e257565b634e487b7160e01b5f52602260045260245ffd5b91607f16916136d7565b9060405191825f825492613713846136c8565b808452936001811690811561377e575060011461373a575b506137389250038361347b565b565b90505f9291925260205f20905f915b818310613762575050906020613738928201015f61372b565b6020919350806001915483858901015201910190918492613749565b90506020925061373894915060ff191682840152151560051b8201015f61372b565b60206040818301928281528451809452019201905f5b8181106137c35750505090565b909192602061010060019260e08751805183528481015185840152858060a01b036040820151166040840152858060a01b0360608201511660608401526080810151608084015260a0810151151560a084015260c0810151151560c08401520151151560e082015201940191019190916137b6565b602081016020825282518091526040820191602060408360051b8301019401925f915b83831061386a57505050505090565b9091929394602080600192603f19858203018652885190815181528282015183820152848060a01b036040830151166040820152848060a01b036060830151166060820152610100806139026138f06138d46080870151610120608088015261012087019061355b565b60a087015160a087015260c087015186820360c088015261355b565b60e086015185820360e087015261355b565b9301519101529701930193019193929061385b565b1561391e57565b60405162461bcd60e51b815260206004820152601060248201526f139bdd081e5bdd5c881c995c5d595cdd60821b6044820152606490fd5b905f905b6002821061396757505050565b602080600192855181520193019101909161395a565b1561398457565b60405162461bcd60e51b815260206004820152601960248201527f4e6f74206120726567697374657265642070726f7669646572000000000000006044820152606490fd5b5f1981146131b55760010190565b6001600160401b0381116104c05760051b60200190565b906139f8826139d7565b613a05604051918261347b565b8281528092613a16601f19916139d7565b01905f5b828110613a2657505050565b602090604051613a3581613427565b5f81525f83820152606060408201526060808201525f60808201525f60a08201525f60c08201525f60e08201525f6101008201525f61012082015282828501015201613a1a565b805182101561369f5760209160051b010190565b8054600160401b8110156104c057613aad916001820181556136b3565b819291549060031b91821b915f19901b1916179055565b90613ace826139d7565b613adb604051918261347b565b8281528092613aec601f19916139d7565b01905f5b828110613afc57505050565b602090604051613b0b8161345f565b5f81525f838201525f60408201525f60608201525f60808201525f60a08201525f60c08201525f60e082015282828501015201613af0565b90613b4d826139d7565b613b5a604051918261347b565b8281528092613b6b601f19916139d7565b01905f5b828110613b7b57505050565b602090604051613b8a81613443565b5f81525f838201525f60408201525f6060820152606060808201525f60a0820152606060c0820152606060e08201525f61010082015282828501015201613b6f565b5f81815260026020908152604080832033845290915290205460ff1615613bf05750565b63e2517d3f60e01b5f523360045260245260445ffd5b5f8181526002602090815260408083206001600160a01b038616845290915290205460ff16613c8c575f8181526002602090815260408083206001600160a01b0395909516808452949091528120805460ff19166001179055339291907f2f8788117e7eff1d82e926ec794901d17c78024a50270940304540a733656f0d9080a4600190565b50505f90565b5f8181526002602090815260408083206001600160a01b038616845290915290205460ff1615613c8c575f8181526002602090815260408083206001600160a01b0395909516808452949091528120805460ff19169055339291907ff6391f5c32d9c69d2a47ea670b442974b53935d1edc7fd64eb21e047a839171b9080a4600190565b60ff60015416613d2257565b63d93c066560e01b5f5260045ffdfea26469706673582212200e47f1c40ba2c1ea243c9478929153ec42d949c86fc21908c8b9dad4de828fe364736f6c634300082200332f8788117e7eff1d82e926ec794901d17c78024a50270940304540a733656f0dac33ff75c19e70fe83507db0d683fd3465c996598dc972688b7ace676c89077be5ebfa64fca8d502a8e50c1edffd2c31ef4dad5b396e65d9f397fb028f74abc5",
  "immutableReferences": {},
  "source": "// SPDX-License-Identifier: MIT\npragma solidity ^0.8.20;\n\nimport \"@openzeppelin/contracts/utils/ReentrancyGuard.sol\";\nimport \"@openzeppelin/contracts/utils/Pausable.sol\";\nimport \"@openzeppelin/contracts/access/AccessControl.sol\";\nimport {StringUtils} from \"./libraries/StringUtils.sol\";\n\n/**\n * @title Insurance\n * @dev Manages insurance providers and quote requests using ZK-Proofs for privacy-preserving premium calculation.\n */\ncontract Insurance is ReentrancyGuard, Pausable, AccessControl {\n    bytes32 public constant ADMIN_ROLE = keccak256(\"ADMIN_ROLE\");\n    bytes32 public constant PROVIDER_ROLE = keccak256(\"PROVIDER_ROLE\");\n    struct Policy {\n        uint256 id;\n        address provider;\n        string name;\n        string description;\n        uint256 basePremium;\n        bool isActive;\n        uint256 minAge;\n        uint256 maxSystolic;\n        uint256 maxDiastolic;\n        uint256 requiredVaccine;\n    }\n\n    struct InsuranceProvider {\n        uint256 id;\n        address wallet;\n        string name;\n        bool isActive;\n    }\n\n    struct InsuranceRequest {\n        uint256 requestId;\n        uint256 policyId;\n        address patient;\n        address provider;\n        uint256 finalPremium;\n        bool isVerified;\n        bool isCalculated;\n        bool isFinalized;\n    }\n\n    struct Claim {\n        uint256 id;\n        uint256 requestId;\n        address patient;\n        address provider;\n        string procedureName;\n        uint256 cost;\n        string evidenceHash; // IPFS CID of the clinical handoff report\n        string status; // PENDING, APPROVED, REJECTED\n        uint256 timestamp;\n    }\n\n    // State Variables\n    mapping(address => InsuranceProvider) public insuranceProviders;\n    address[] public providerAddresses;\n    \n    mapping(uint256 => Policy) public policies;\n    uint256 public policyCount = 0;\n    mapping(address => uint256[]) public providerPolicies; // provider -> policy IDs\n\n    mapping(uint256 => InsuranceRequest) public insuranceRequests;\n    mapping(address => uint256[]) public patientRequests; // patient address -> request IDs\n    mapping(address => uint256[]) public providerRequests; // provider address -> request IDs\n    \n    mapping(uint256 => Claim) public claims;\n    uint256 public claimCount = 0;\n    mapping(address => uint256[]) public patientClaims;\n    mapping(address => uint256[]) public providerClaims;\n\n    uint256 public insuranceCount = 0;\n    uint256 public requestCount = 0;\n    \n    address public zkpVerifier;\n\n    // Events\n    event InsuranceProviderRegistered(address indexed wallet, string name);\n    event PolicyCreated(uint256 indexed policyId, address indexed provider, string name);\n    event PolicyUpdated(uint256 indexed policyId, string name, uint256 basePremium);\n    event InsuranceQuoteRequested(uint256 indexed requestId, address indexed patient, address indexed provider, uint256 policyId);\n    event InsuranceProofVerified(uint256 indexed requestId, address indexed patient, uint256 discountPremium);\n    event PolicyFinalized(uint256 indexed requestId, address indexed patient);\n    \n    event ClaimSubmitted(uint256 indexed claimId, address indexed patient, string procedure);\n    event ClaimProcessed(uint256 indexed claimId, string status);\n\n    // --- Modifiers ---\n    modifier onlyInsurance() {\n        require(insuranceProviders[msg.sender].isActive, \"Not a registered provider\");\n        _;\n    }\n\n    constructor() {\n        _grantRole(DEFAULT_ADMIN_ROLE, msg.sender);\n        _grantRole(ADMIN_ROLE, msg.sender);\n    }\n\n    // --- Functions ---\n\n    function setVerifier(address _verifier) public onlyRole(ADMIN_ROLE) whenNotPaused {\n        require(_verifier != address(0), \"Invalid zero address\");\n        zkpVerifier = _verifier;\n    }\n\n    function registerInsuranceProvider(string memory _name) public whenNotPaused {\n        require(!insuranceProviders[msg.sender].isActive, \"Already registered\");\n        require(bytes(_name).length > 0 && bytes(_name).length <= 100, \"Invalid name length\");\n        \n        insuranceCount++;\n        insuranceProviders[msg.sender] = InsuranceProvider({\n            id: insuranceCount,\n            wallet: msg.sender,\n            name: _name,\n            isActive: true\n        });\n        providerAddresses.push(msg.sender);\n\n        emit InsuranceProviderRegistered(msg.sender, _name);\n    }\n\n    function createPolicy(\n        string memory _name, \n        string memory _description, \n        uint256 _basePremium,\n        uint256 _minAge,\n        uint256 _maxSystolic,\n        uint256 _maxDiastolic,\n        uint256 _requiredVaccine\n    ) public onlyInsurance whenNotPaused {\n        policyCount++;\n        policies[policyCount] = Policy({\n            id: policyCount,\n            provider: msg.sender,\n            name: _name,\n            description: _description,\n            basePremium: _basePremium,\n            isActive: true,\n            minAge: _minAge,\n            maxSystolic: _maxSystolic,\n            maxDiastolic: _maxDiastolic,\n            requiredVaccine: _requiredVaccine\n        });\n        providerPolicies[msg.sender].push(policyCount);\n        emit PolicyCreated(policyCount, msg.sender, _name);\n    }\n\n    function updatePolicy(\n        uint256 _policyId, \n        string memory _name, \n        string memory _description, \n        uint256 _basePremium, \n        bool _isActive,\n        uint256 _minAge,\n        uint256 _maxSystolic,\n        uint256 _maxDiastolic,\n        uint256 _requiredVaccine\n    ) public onlyInsurance {\n        require(policies[_policyId].provider == msg.sender, \"Not your policy\");\n        \n        policies[_policyId].name = _name;\n        policies[_policyId].description = _description;\n        policies[_policyId].basePremium = _basePremium;\n        policies[_policyId].isActive = _isActive;\n        policies[_policyId].minAge = _minAge;\n        policies[_policyId].maxSystolic = _maxSystolic;\n        policies[_policyId].maxDiastolic = _maxDiastolic;\n        policies[_policyId].requiredVaccine = _requiredVaccine;\n\n        emit PolicyUpdated(_policyId, _name, _basePremium);\n    }\n\n    function requestInsuranceQuote(uint256 _policyId) public {\n        Policy storage policy = policies[_policyId];\n        require(policy.isActive, \"Policy is not active\");\n        \n        requestCount++;\n        insuranceRequests[requestCount] = InsuranceRequest({\n            requestId: requestCount,\n            policyId: _policyId,\n            patient: msg.sender,\n            provider: policy.provider,\n            finalPremium: policy.basePremium,\n            isVerified: false,\n            isCalculated: false,\n            isFinalized: false\n        });\n\n        patientRequests[msg.sender].push(requestCount);\n        providerRequests[policy.provider].push(requestCount);\n        emit InsuranceQuoteRequested(requestCount, msg.sender, policy.provider, _policyId);\n    }\n\n    function submitInsuranceProof(\n        uint256 _requestId,\n        uint[2] memory a,\n        uint[2][2] memory b,\n        uint[2] memory c,\n        uint[5] memory input\n    ) public nonReentrant {\n        InsuranceRequest storage req = insuranceRequests[_requestId];\n        require(req.patient == msg.sender, \"Not your request\");\n        require(!req.isVerified, \"Already verified\");\n        require(input[0] == 1, \"Proof shows not eligible\");\n\n        if (zkpVerifier != address(0)) {\n            (bool success, bytes memory data) = zkpVerifier.call(\n                abi.encodeWithSignature(\"verifyProof(uint256[2],uint256[2][2],uint256[2],uint256[5])\", a, b, c, input)\n            );\n            require(success && abi.decode(data, (bool)), \"ZK Proof Verification Failed\");\n        }\n\n        req.isVerified = true;\n        req.isCalculated = true;\n        req.finalPremium = (req.finalPremium * 80) / 100;\n\n        emit InsuranceProofVerified(_requestId, msg.sender, req.finalPremium);\n    }\n\n    function finalizePolicy(uint256 _requestId) public onlyInsurance {\n        InsuranceRequest storage req = insuranceRequests[_requestId];\n        require(req.provider == msg.sender, \"Not your request\");\n        require(!req.isFinalized, \"Already finalized\");\n        require(req.isVerified, \"Wait for verification\");\n\n        req.isFinalized = true;\n        emit PolicyFinalized(_requestId, req.patient);\n    }\n\n    function getProviderPolicies(address _provider) public view returns (Policy[] memory) {\n        uint256[] memory ids = providerPolicies[_provider];\n        Policy[] memory pols = new Policy[](ids.length);\n        for(uint i = 0; i < ids.length; i++) {\n            pols[i] = policies[ids[i]];\n        }\n        return pols;\n    }\n\n    function getAllActivePolicies() public view returns (Policy[] memory) {\n        uint256 activeCount = 0;\n        for(uint i = 1; i <= policyCount; i++) {\n            if(policies[i].isActive) activeCount++;\n        }\n        \n        Policy[] memory activePols = new Policy[](activeCount);\n        uint256 cursor = 0;\n        for(uint i = 1; i <= policyCount; i++) {\n            if(policies[i].isActive) {\n                activePols[cursor] = policies[i];\n                cursor++;\n            }\n        }\n        return activePols;\n    }\n\n    function getPatientInsuranceRequests(address _patient) public view returns (InsuranceRequest[] memory) {\n        uint256[] memory ids = patientRequests[_patient];\n        InsuranceRequest[] memory reqs = new InsuranceRequest[](ids.length);\n        for(uint i = 0; i < ids.length; i++) {\n            reqs[i] = insuranceRequests[ids[i]];\n        }\n        return reqs;\n    }\n\n    function getProviderInsuranceRequests(address _provider) public view returns (InsuranceRequest[] memory) {\n        uint256[] memory ids = providerRequests[_provider];\n        InsuranceRequest[] memory reqs = new InsuranceRequest[](ids.length);\n        for(uint i = 0; i < ids.length; i++) {\n            reqs[i] = insuranceRequests[ids[i]];\n        }\n        return reqs;\n    }\n\n    function isInsuranceProvider(address _addr) public view returns (bool) {\n        return insuranceProviders[_addr].isActive;\n    }\n\n    /**\n     * @dev Step 1: Submit a clinical claim for reimbursement\n     */\n    function submitClaim(\n        uint256 _requestId,\n        string memory _procedureName,\n        uint256 _cost,\n        string memory _evidenceHash\n    ) public whenNotPaused {\n        InsuranceRequest storage req = insuranceRequests[_requestId];\n        require(req.isFinalized, \"Policy must be finalized first\");\n\n        claimCount++;\n        claims[claimCount] = Claim({\n            id: claimCount,\n            requestId: _requestId,\n            patient: msg.sender,\n            provider: req.provider,\n            procedureName: _procedureName,\n            cost: _cost,\n            evidenceHash: _evidenceHash,\n            status: \"PENDING\",\n            timestamp: block.timestamp\n        });\n\n        patientClaims[msg.sender].push(claimCount);\n        providerClaims[req.provider].push(claimCount);\n\n        emit ClaimSubmitted(claimCount, msg.sender, _procedureName);\n    }\n\n    /**\n     * @dev Step 2: Process a claim (Insurance Provider only)\n     */\n    function processClaim(uint256 _claimId, string memory _status) public onlyInsurance {\n        Claim storage clm = claims[_claimId];\n        require(clm.provider == msg.sender, \"Not your claim\");\n        require(keccak256(abi.encodePacked(clm.status)) == keccak256(abi.encodePacked(\"PENDING\")), \"Already processed\");\n\n        clm.status = _status;\n        emit ClaimProcessed(_claimId, _status);\n    }\n\n    // --- History Getters ---\n    function getPatientClaims(address _patient) public view returns (Claim[] memory) {\n        uint256[] memory ids = patientClaims[_patient];\n        Claim[] memory clms = new Claim[](ids.length);\n        for(uint i = 0; i < ids.length; i++) {\n            clms[i] = claims[ids[i]];\n        }\n        return clms;\n    }\n\n    function getProviderClaims(address _provider) public view returns (Claim[] memory) {\n        uint256[] memory ids = providerClaims[_provider];\n        Claim[] memory clms = new Claim[](ids.length);\n        for(uint i = 0; i < ids.length; i++) {\n            clms[i] = claims[ids[i]];\n        }\n        return clms;\n    }\n\n    function getPoliciesByPremiumRange(uint256 _minPremium, uint256 _maxPremium) public view returns (Policy[] memory) {\n        uint256 count = 0;\n        for (uint256 i = 1; i <= policyCount; i++) {\n            if (policies[i].isActive && policies[i].basePremium >= _minPremium && policies[i].basePremium <= _maxPremium) {\n                count++;\n            }\n        }\n        \n        Policy[] memory result = new Policy[](count);\n        uint256 idx = 0;\n        for (uint256 i = 1; i <= policyCount; i++) {\n            if (policies[i].isActive && policies[i].basePremium >= _minPremium && policies[i].basePremium <= _maxPremium) {\n                result[idx] = policies[i];\n                idx++;\n            }\n        }\n        return result;\n    }\n\n    function getPoliciesByProvider(address _provider) public view returns (Policy[] memory) {\n        uint256[] storage ids = providerPolicies[_provider];\n        Policy[] memory result = new Policy[](ids.length);\n        for (uint256 i = 0; i < ids.length; i++) {\n            result[i] = policies[ids[i]];\n        }\n        return result;\n    }\n\n    function getPoliciesByAgeRequirement(uint256 _age) public view returns (Policy[] memory) {\n        uint256 count = 0;\n        for (uint256 i = 1; i <= policyCount; i++) {\n            Policy memory p = policies[i];\n            if (p.isActive && _age >= p.minAge) {\n                count++;\n            }\n        }\n        \n        Policy[] memory result = new Policy[](count);\n        uint256 idx = 0;\n        for (uint256 i = 1; i <= policyCount; i++) {\n            Policy memory p = policies[i];\n            if (p.isActive && _age >= p.minAge) {\n                result[idx] = p;\n                idx++;\n            }\n        }\n        return result;\n    }\n\n    function searchPolicies(string memory _query) public view returns (Policy[] memory) {\n        bytes32 queryHash = keccak256(abi.encodePacked(_query));\n        uint256 count = 0;\n        for (uint256 i = 1; i <= policyCount; i++) {\n            Policy memory p = policies[i];\n            if (p.isActive) {\n                bytes32 nameHash = keccak256(abi.encodePacked(p.name));\n                bytes32 descHash = keccak256(abi.encodePacked(p.description));\n                if (nameHash == queryHash || descHash == queryHash) {\n                    count++;\n                }\n            }\n        }\n        \n        Policy[] memory result = new Policy[](count);\n        uint256 idx = 0;\n        for (uint256 i = 1; i <= policyCount; i++) {\n            Policy memory p = policies[i];\n            if (p.isActive) {\n                bytes32 nameHash = keccak256(abi.encodePacked(p.name));\n                bytes32 descHash = keccak256(abi.encodePacked(p.description));\n                if (nameHash == queryHash || descHash == queryHash) {\n                    result[idx] = p;\n                    idx++;\n                }\n            }\n        }\n        return result;\n    }\n}\n",
  "sourcePath": "/home/ayush/Desktop/code/Sanjeevni/contracts/contracts/Insurance.sol",
  "compiler": {
    "name": "solc",
    "version": "0.8.20+commit.80d5c536.Emscripten.clang"
  },
  "schemaVersion": "3.4.16",
  "updatedAt": "2026-04-09T18:22:00.311Z",
  "devdoc": {
    "details": "Manages insurance providers and quote requests using ZK-Proofs for privacy-preserving premium calculation.",
    "errors": {
      "AccessControlBadConfirmation()": [
        {
          "details": "The caller of a function is not the expected one. NOTE: Don't confuse with {AccessControlUnauthorizedAccount}."
        }
      ],
      "AccessControlUnauthorizedAccount(address,bytes32)": [
        {
          "details": "The `account` is missing a role."
        }
      ],
      "EnforcedPause()": [
        {
          "details": "The operation failed because the contract is paused."
        }
      ],
      "ExpectedPause()": [
        {
          "details": "The operation failed because the contract is not paused."
        }
      ],
      "ReentrancyGuardReentrantCall()": [
        {
          "details": "Unauthorized reentrant call."
        }
      ]
    },
    "events": {
      "Paused(address)": {
        "details": "Emitted when the pause is triggered by `account`."
      },
      "RoleAdminChanged(bytes32,bytes32,bytes32)": {
        "details": "Emitted when `newAdminRole` is set as ``role``'s admin role, replacing `previousAdminRole` `DEFAULT_ADMIN_ROLE` is the starting admin for all roles, despite {RoleAdminChanged} not being emitted signaling this."
      },
      "RoleGranted(bytes32,address,address)": {
        "details": "Emitted when `account` is granted `role`. `sender` is the account that originated the contract call, an admin role bearer except when using {AccessControl-_setupRole}."
      },
      "RoleRevoked(bytes32,address,address)": {
        "details": "Emitted when `account` is revoked `role`. `sender` is the account that originated the contract call:   - if using `revokeRole`, it is the admin role bearer   - if using `renounceRole`, it is the role bearer (i.e. `account`)"
      },
      "Unpaused(address)": {
        "details": "Emitted when the pause is lifted by `account`."
      }
    },
    "kind": "dev",
    "methods": {
      "getRoleAdmin(bytes32)": {
        "details": "Returns the admin role that controls `role`. See {grantRole} and {revokeRole}. To change a role's admin, use {_setRoleAdmin}."
      },
      "grantRole(bytes32,address)": {
        "details": "Grants `role` to `account`. If `account` had not been already granted `role`, emits a {RoleGranted} event. Requirements: - the caller must have ``role``'s admin role. May emit a {RoleGranted} event."
      },
      "hasRole(bytes32,address)": {
        "details": "Returns `true` if `account` has been granted `role`."
      },
      "paused()": {
        "details": "Returns true if the contract is paused, and false otherwise."
      },
      "processClaim(uint256,string)": {
        "details": "Step 2: Process a claim (Insurance Provider only)"
      },
      "renounceRole(bytes32,address)": {
        "details": "Revokes `role` from the calling account. Roles are often managed via {grantRole} and {revokeRole}: this function's purpose is to provide a mechanism for accounts to lose their privileges if they are compromised (such as when a trusted device is misplaced). If the calling account had been revoked `role`, emits a {RoleRevoked} event. Requirements: - the caller must be `callerConfirmation`. May emit a {RoleRevoked} event."
      },
      "revokeRole(bytes32,address)": {
        "details": "Revokes `role` from `account`. If `account` had been granted `role`, emits a {RoleRevoked} event. Requirements: - the caller must have ``role``'s admin role. May emit a {RoleRevoked} event."
      },
      "submitClaim(uint256,string,uint256,string)": {
        "details": "Step 1: Submit a clinical claim for reimbursement"
      },
      "supportsInterface(bytes4)": {
        "details": "See {IERC165-supportsInterface}."
      }
    },
    "title": "Insurance",
    "version": 1
  },
  "userdoc": {
    "kind": "user",
    "methods": {},
    "version": 1
  }
}