{
  "contractName": "MultiSigWallet",
  "abi": [
    {
      "inputs": [
        {
          "internalType": "address[]",
          "name": "_owners",
          "type": "address[]"
        },
        {
          "internalType": "uint256",
          "name": "_threshold",
          "type": "uint256"
        }
      ],
      "stateMutability": "nonpayable",
      "type": "constructor"
    },
    {
      "inputs": [],
      "name": "ReentrancyGuardReentrantCall",
      "type": "error"
    },
    {
      "anonymous": false,
      "inputs": [
        {
          "indexed": true,
          "internalType": "address",
          "name": "owner",
          "type": "address"
        }
      ],
      "name": "OwnerAdded",
      "type": "event"
    },
    {
      "anonymous": false,
      "inputs": [
        {
          "indexed": true,
          "internalType": "address",
          "name": "owner",
          "type": "address"
        }
      ],
      "name": "OwnerRemoved",
      "type": "event"
    },
    {
      "anonymous": false,
      "inputs": [
        {
          "indexed": false,
          "internalType": "uint256",
          "name": "threshold",
          "type": "uint256"
        }
      ],
      "name": "ThresholdChanged",
      "type": "event"
    },
    {
      "anonymous": false,
      "inputs": [
        {
          "indexed": true,
          "internalType": "bytes32",
          "name": "txHash",
          "type": "bytes32"
        },
        {
          "indexed": true,
          "internalType": "address",
          "name": "owner",
          "type": "address"
        }
      ],
      "name": "TransactionConfirmed",
      "type": "event"
    },
    {
      "anonymous": false,
      "inputs": [
        {
          "indexed": true,
          "internalType": "bytes32",
          "name": "txHash",
          "type": "bytes32"
        }
      ],
      "name": "TransactionExecuted",
      "type": "event"
    },
    {
      "anonymous": false,
      "inputs": [
        {
          "indexed": true,
          "internalType": "bytes32",
          "name": "txHash",
          "type": "bytes32"
        },
        {
          "indexed": true,
          "internalType": "address",
          "name": "to",
          "type": "address"
        },
        {
          "indexed": false,
          "internalType": "uint256",
          "name": "value",
          "type": "uint256"
        }
      ],
      "name": "TransactionSubmitted",
      "type": "event"
    },
    {
      "inputs": [],
      "name": "chainId",
      "outputs": [
        {
          "internalType": "uint256",
          "name": "",
          "type": "uint256"
        }
      ],
      "stateMutability": "view",
      "type": "function"
    },
    {
      "inputs": [
        {
          "internalType": "bytes32",
          "name": "",
          "type": "bytes32"
        }
      ],
      "name": "confirmationCount",
      "outputs": [
        {
          "internalType": "uint256",
          "name": "",
          "type": "uint256"
        }
      ],
      "stateMutability": "view",
      "type": "function"
    },
    {
      "inputs": [
        {
          "internalType": "bytes32",
          "name": "",
          "type": "bytes32"
        },
        {
          "internalType": "address",
          "name": "",
          "type": "address"
        }
      ],
      "name": "confirmations",
      "outputs": [
        {
          "internalType": "bool",
          "name": "",
          "type": "bool"
        }
      ],
      "stateMutability": "view",
      "type": "function"
    },
    {
      "inputs": [],
      "name": "domainSeparator",
      "outputs": [
        {
          "internalType": "bytes32",
          "name": "",
          "type": "bytes32"
        }
      ],
      "stateMutability": "view",
      "type": "function"
    },
    {
      "inputs": [
        {
          "internalType": "address",
          "name": "",
          "type": "address"
        }
      ],
      "name": "isOwner",
      "outputs": [
        {
          "internalType": "bool",
          "name": "",
          "type": "bool"
        }
      ],
      "stateMutability": "view",
      "type": "function"
    },
    {
      "inputs": [],
      "name": "nonce",
      "outputs": [
        {
          "internalType": "uint256",
          "name": "",
          "type": "uint256"
        }
      ],
      "stateMutability": "view",
      "type": "function"
    },
    {
      "inputs": [
        {
          "internalType": "address",
          "name": "",
          "type": "address"
        }
      ],
      "name": "ownerIndex",
      "outputs": [
        {
          "internalType": "uint256",
          "name": "",
          "type": "uint256"
        }
      ],
      "stateMutability": "view",
      "type": "function"
    },
    {
      "inputs": [
        {
          "internalType": "uint256",
          "name": "",
          "type": "uint256"
        }
      ],
      "name": "owners",
      "outputs": [
        {
          "internalType": "address",
          "name": "",
          "type": "address"
        }
      ],
      "stateMutability": "view",
      "type": "function"
    },
    {
      "inputs": [],
      "name": "threshold",
      "outputs": [
        {
          "internalType": "uint256",
          "name": "",
          "type": "uint256"
        }
      ],
      "stateMutability": "view",
      "type": "function"
    },
    {
      "inputs": [
        {
          "internalType": "bytes32",
          "name": "",
          "type": "bytes32"
        }
      ],
      "name": "transactions",
      "outputs": [
        {
          "internalType": "address",
          "name": "to",
          "type": "address"
        },
        {
          "internalType": "uint256",
          "name": "value",
          "type": "uint256"
        },
        {
          "internalType": "bytes",
          "name": "data",
          "type": "bytes"
        },
        {
          "internalType": "uint256",
          "name": "nonce",
          "type": "uint256"
        },
        {
          "internalType": "bool",
          "name": "executed",
          "type": "bool"
        }
      ],
      "stateMutability": "view",
      "type": "function"
    },
    {
      "stateMutability": "payable",
      "type": "receive"
    },
    {
      "inputs": [
        {
          "internalType": "address",
          "name": "_to",
          "type": "address"
        },
        {
          "internalType": "uint256",
          "name": "_value",
          "type": "uint256"
        },
        {
          "internalType": "bytes",
          "name": "_data",
          "type": "bytes"
        }
      ],
      "name": "submitTransaction",
      "outputs": [
        {
          "internalType": "bytes32",
          "name": "txHash",
          "type": "bytes32"
        }
      ],
      "stateMutability": "nonpayable",
      "type": "function"
    },
    {
      "inputs": [
        {
          "internalType": "bytes32",
          "name": "_txHash",
          "type": "bytes32"
        }
      ],
      "name": "confirmTransaction",
      "outputs": [],
      "stateMutability": "nonpayable",
      "type": "function"
    },
    {
      "inputs": [
        {
          "internalType": "bytes32",
          "name": "_txHash",
          "type": "bytes32"
        }
      ],
      "name": "executeTransaction",
      "outputs": [],
      "stateMutability": "nonpayable",
      "type": "function"
    },
    {
      "inputs": [
        {
          "internalType": "bytes32",
          "name": "_txHash",
          "type": "bytes32"
        }
      ],
      "name": "getTransaction",
      "outputs": [
        {
          "internalType": "address",
          "name": "to",
          "type": "address"
        },
        {
          "internalType": "uint256",
          "name": "value",
          "type": "uint256"
        },
        {
          "internalType": "bytes",
          "name": "data",
          "type": "bytes"
        },
        {
          "internalType": "uint256",
          "name": "nonce_",
          "type": "uint256"
        },
        {
          "internalType": "bool",
          "name": "executed",
          "type": "bool"
        },
        {
          "internalType": "uint256",
          "name": "confirmations_",
          "type": "uint256"
        }
      ],
      "stateMutability": "view",
      "type": "function"
    },
    {
      "inputs": [
        {
          "internalType": "bytes32",
          "name": "_txHash",
          "type": "bytes32"
        },
        {
          "internalType": "address",
          "name": "_owner",
          "type": "address"
        }
      ],
      "name": "hasConfirmed",
      "outputs": [
        {
          "internalType": "bool",
          "name": "",
          "type": "bool"
        }
      ],
      "stateMutability": "view",
      "type": "function"
    },
    {
      "inputs": [],
      "name": "getOwners",
      "outputs": [
        {
          "internalType": "address[]",
          "name": "",
          "type": "address[]"
        }
      ],
      "stateMutability": "view",
      "type": "function"
    },
    {
      "inputs": [],
      "name": "getTransactionCount",
      "outputs": [
        {
          "internalType": "uint256",
          "name": "",
          "type": "uint256"
        }
      ],
      "stateMutability": "view",
      "type": "function"
    }
  ],
  "bytecode": "0x608080604052346103f057611293803803809161001c82856103f4565b83398101906040818303126103f05780516001600160401b0381116103f057810182601f820112156103f0578051926001600160401b0384116102a4578360051b916040519461006f60208501876103f4565b85526020808601938201019182116103f057602001915b8183106103d05784602085015160015f55808251106103965760018110610361574660065560405160208101907f8b73c3c69bb8fe3d512ecc4cf759cc79239f7b179b0ffacaa9a75d522b39400f82527fd224391e05bea8df3d0cd26822c30d350d1e6173f271e8862b4f063b01773bec60408201527fe6bbd6277e1bf288eed5e8d1780f9a50b239e86b153736bceebccf4ea79d90b360608201524660808201523060a082015260a0815261013d60c0826103f4565b5190206007555f5b8251811015610323576001600160a01b036101608285610417565b5116156102ef576001600160a01b036101798285610417565b51165f52600260205260ff60405f2054166102b8576001600160a01b036101a08285610417565b51165f908152600260205260409020805460ff191660011790556001600160a01b036101cc8285610417565b51165f9081526003602052604090208190556001600160a01b036101f08285610417565b51169060015491680100000000000000008310156102a45760018301806001558310156102905760015f8190527fb10e2d527612073b26eecdfd717e6a320cf44b4afac2b0732d9fcbe2b7fa0cf690930180546001600160a01b03191690911790556001600160a01b036102648286610417565b51167f994a936646fe87ffe4f1e469d3d6aa417d6b855598397f323de5b449f765f0c35f80a201610145565b634e487b7160e01b5f52603260045260245ffd5b634e487b7160e01b5f52604160045260245ffd5b60405162461bcd60e51b815260206004820152600f60248201526e223ab83634b1b0ba329037bbb732b960891b6044820152606490fd5b60405162461bcd60e51b815260206004820152600c60248201526b5a65726f206164647265737360a01b6044820152606490fd5b7f6c4ce60fd690e1216286a10b875c5662555f10774484e58142cedd7a90781baa60208380600455604051908152a1604051610e67908161042c8239f35b60405162461bcd60e51b815260206004820152600d60248201526c5468726573686f6c64203c203160981b6044820152606490fd5b60405162461bcd60e51b81526020600482015260126024820152715468726573686f6c64203e206f776e65727360701b6044820152606490fd5b82516001600160a01b03811681036103f057815260209283019201610086565b5f80fd5b601f909101601f19168101906001600160401b038211908210176102a457604052565b80518210156102905760209160051b01019056fe6080806040526004361015610049575b50361561001a575f80fd5b6040513481525f7f98fa2d2a4a79f4305f6568b9183a2ee34b0cbc50afc2fce4428a7e949c836fb160203393a3005b5f3560e01c908163025e7c2714610a47575080630c4ecab4146105ef5780632e7700f0146106385780632f54bf6e14610a0a57806342cde4e8146109ed5780634aae13ca1461095d57806359bf77df14610933578063642f2eaf146108b857806379716e43146107725780639a8a0592146107555780639f8a64e21461071d578063a0e67e2b14610655578063affed0e014610638578063c2cf7326146105ef578063c642747414610220578063c69ed5f2146101315763f698da2514610110575f61000f565b3461012d575f36600319011261012d576020600754604051908152f35b5f80fd5b3461012d57602036600319011261012d57600435335f52600260205261015d60ff60405f205416610c04565b5f8181526008602052604090205461017f906001600160a01b03161515610c3c565b805f52600860205261019b60ff600460405f2001541615610c77565b60025f54146102115760025f55805f52600a60205260405f2054600454116101cc576101c690610cf4565b60015f55005b60405162461bcd60e51b815260206004820152601860248201527f4e6f7420656e6f75676820636f6e6669726d6174696f6e7300000000000000006044820152606490fd5b633ee5aeb560e01b5f5260045ffd5b3461012d57606036600319011261012d57610239610ab5565b6044359060243567ffffffffffffffff831161012d573660238401121561012d5782600401359167ffffffffffffffff831161012d576024840193602484369201011161012d57335f52600260205261029860ff60405f205416610c04565b6001600160a01b03169081156105c05760055492600654604051602081019185835284604083015260c060608301528360e083015283886101008401375f610100858401015286608083015260a08201523060c082015261030f61010082601f19601f87011681010301601f198101835282610b42565b519020936040519060a0820182811067ffffffffffffffff8211176105ac576040528482525f6020808401948686528061034881610cd8565b9a6103566040519c8d610b42565b818c52838c013789010152604082019687526060820190815260808201925f8452865f52600860205260405f209260018060a01b039051166bffffffffffffffffffffffff60a01b84541617835551600183015560028201965196875167ffffffffffffffff81116105ac576103cc8254610b0a565b601f811161055b575b50908795949392916020998a90601f83116001146104cd5792827f98fa2d2a4a79f4305f6568b9183a2ee34b0cbc50afc2fce4428a7e949c836fb19896938d9896936004965f926104c2575b50508160011b915f199060031b1c19161790555b516003820155019051151560ff80198354169116179055835f526009825260405f2060018060a01b0333165f52825260405f20600160ff19825416179055835f52600a8252600160405f205561048c600554610cb6565b600555604051908152a3805f52600a825260405f205460045411156104b4575b604051908152f35b6104bd81610cf4565b6104ac565b015190508e80610421565b90601f19831691845f52815f20925f5b8181106105415750938d98969360049693600193837f98fa2d2a4a79f4305f6568b9183a2ee34b0cbc50afc2fce4428a7e949c836fb19d9b9810610529575b505050811b019055610435565b01515f1960f88460031b161c191690558e808061051c565b8284015185558d9b50600190940193928e01928e016104dd565b818111156103d55798825f5260205f20601f830160051c90602084106105a4575b81019a601f0160051c035f5b818110610597575050986103d5565b5f8c820155600101610588565b5f915061057c565b634e487b7160e01b5f52604160045260245ffd5b60405162461bcd60e51b81526020600482015260076024820152665a65726f20746f60c81b6044820152606490fd5b3461012d57604036600319011261012d57610608610a9f565b6004355f52600960205260405f209060018060a01b03165f52602052602060ff60405f2054166040519015158152f35b3461012d575f36600319011261012d576020600554604051908152f35b3461012d575f36600319011261012d576040518060206001549283815201809260015f527fb10e2d527612073b26eecdfd717e6a320cf44b4afac2b0732d9fcbe2b7fa0cf6905f5b8181106106fe57505050816106b3910382610b42565b604051918291602083019060208452518091526040830191905f5b8181106106dc575050500390f35b82516001600160a01b03168452859450602093840193909201916001016106ce565b82546001600160a01b031684526020909301926001928301920161069d565b3461012d57602036600319011261012d576001600160a01b0361073e610ab5565b165f526003602052602060405f2054604051908152f35b3461012d575f36600319011261012d576020600654604051908152f35b3461012d57602036600319011261012d57600435335f52600260205261079e60ff60405f205416610c04565b5f818152600860205260409020546107c0906001600160a01b03161515610c3c565b805f5260086020526107dc60ff600460405f2001541615610c77565b5f81815260096020908152604080832033845290915290205460ff1661087f575f8181526009602090815260408083203384528252808320805460ff19166001179055838352600a9091529020805461083490610cb6565b905533817fb612a8591c6aca7a0da017077f974599101a7f1820c9d5a4fe32ac8502c502e25f80a3805f52600a60205260405f2054600454111561087457005b61087d90610cf4565b005b60405162461bcd60e51b8152602060048201526011602482015270105b1c9958591e4818dbdb999a5c9b5959607a1b6044820152606490fd5b3461012d57602036600319011261012d576004355f52600860205260405f2060018060a01b038154166001820154916108f360028201610b64565b61092260ff6004600385015494015416916040519586958652602086015260a0604086015260a0850190610acb565b916060840152151560808301520390f35b3461012d57602036600319011261012d576004355f52600a602052602060405f2054604051908152f35b3461012d57602036600319011261012d57600435805f52600860205260405f209060018060a01b038254169060018301549260038101549160ff600483015416905f52600a6020526109d76109b9600260405f20549401610b64565b6040519687968752602087015260c0604087015260c0860190610acb565b9260608501521515608084015260a08301520390f35b3461012d575f36600319011261012d576020600454604051908152f35b3461012d57602036600319011261012d576001600160a01b03610a2b610ab5565b165f526002602052602060ff60405f2054166040519015158152f35b3461012d57602036600319011261012d576004359060015482101561012d5760015f527fb10e2d527612073b26eecdfd717e6a320cf44b4afac2b0732d9fcbe2b7fa0cf6909101546001600160a01b03168152602090f35b602435906001600160a01b038216820361012d57565b600435906001600160a01b038216820361012d57565b91908251928382525f5b848110610af5575050825f602080949584010152601f8019910116010190565b80602080928401015182828601015201610ad5565b90600182811c92168015610b38575b6020831014610b2457565b634e487b7160e01b5f52602260045260245ffd5b91607f1691610b19565b90601f8019910116810190811067ffffffffffffffff8211176105ac57604052565b9060405191825f825492610b7784610b0a565b8084529360018116908115610be25750600114610b9e575b50610b9c92500383610b42565b565b90505f9291925260205f20905f915b818310610bc6575050906020610b9c928201015f610b8f565b6020919350806001915483858901015201910190918492610bad565b905060209250610b9c94915060ff191682840152151560051b8201015f610b8f565b15610c0b57565b60405162461bcd60e51b81526020600482015260096024820152682737ba1037bbb732b960b91b6044820152606490fd5b15610c4357565b60405162461bcd60e51b815260206004820152600c60248201526b151e081b9bdd08199bdd5b9960a21b6044820152606490fd5b15610c7e57565b60405162461bcd60e51b815260206004820152601060248201526f105b1c9958591e48195e1958dd5d195960821b6044820152606490fd5b5f198114610cc45760010190565b634e487b7160e01b5f52601160045260245ffd5b67ffffffffffffffff81116105ac57601f01601f191660200190565b805f52600860205260405f2060048101600160ff1982541617905560018060a01b038154169060026001820154910190604051915f90805490610d3682610b0a565b9160018116908115610e1a5750600114610de8575b5050915f939181859403925af13d15610de3573d610d6881610cd8565b90610d766040519283610b42565b81525f60203d92013e5b15610dab577f862d83c6c5af275e697bfd4e27c8323c196b44bdd011dd9aaab6db0ec9943dce5f80a2565b60405162461bcd60e51b815260206004820152601060248201526f115e1958dd5d1a5bdb8819985a5b195960821b6044820152606490fd5b610d80565b9091505f5260205f205f905b828210610e0657505082018183610d4b565b600181602092548488015201910190610df4565b60ff19168652505080151502830190508183610d4b56fea2646970667358221220908eafbf9ae9757f4976f7ff1c247ebdc6fc61ef1c9ee38455f85ed1a0b8eaa064736f6c63430008220033",
  "immutableReferences": {},
  "source": "// SPDX-License-Identifier: MIT\npragma solidity ^0.8.20;\n\nimport \"@openzeppelin/contracts/utils/ReentrancyGuard.sol\";\n\ncontract MultiSigWallet is ReentrancyGuard {\n    address[] public owners;\n    mapping(address => bool) public isOwner;\n    mapping(address => uint256) public ownerIndex;\n    \n    uint256 public threshold;\n    uint256 public nonce;\n    uint256 public chainId;\n    bytes32 public domainSeparator;\n\n    mapping(bytes32 => Transaction) public transactions;\n    mapping(bytes32 => mapping(address => bool)) public confirmations;\n    mapping(bytes32 => uint256) public confirmationCount;\n\n    struct Transaction {\n        address to;\n        uint256 value;\n        bytes data;\n        uint256 nonce;\n        bool executed;\n    }\n\n    event OwnerAdded(address indexed owner);\n    event OwnerRemoved(address indexed owner);\n    event TransactionSubmitted(bytes32 indexed txHash, address indexed to, uint256 value);\n    event TransactionConfirmed(bytes32 indexed txHash, address indexed owner);\n    event TransactionExecuted(bytes32 indexed txHash);\n    event ThresholdChanged(uint256 threshold);\n\n    modifier onlyOwner() {\n        require(isOwner[msg.sender], \"Not owner\");\n        _;\n    }\n\n    modifier txExists(bytes32 _txHash) {\n        require(transactions[_txHash].to != address(0), \"Tx not found\");\n        _;\n    }\n\n    modifier notExecuted(bytes32 _txHash) {\n        require(!transactions[_txHash].executed, \"Already executed\");\n        _;\n    }\n\n    constructor(address[] memory _owners, uint256 _threshold) {\n        require(_owners.length >= _threshold, \"Threshold > owners\");\n        require(_threshold >= 1, \"Threshold < 1\");\n        \n        chainId = block.chainid;\n        domainSeparator = keccak256(abi.encode(\n            keccak256(\"EIP712Domain(string name,string version,uint256 chainId,address verifyingContract)\"),\n            keccak256(\"MultiSigWallet\"),\n            keccak256(\"1.0\"),\n            chainId,\n            address(this)\n        ));\n\n        for (uint256 i = 0; i < _owners.length; i++) {\n            require(_owners[i] != address(0), \"Zero address\");\n            require(!isOwner[_owners[i]], \"Duplicate owner\");\n            \n            isOwner[_owners[i]] = true;\n            ownerIndex[_owners[i]] = i;\n            owners.push(_owners[i]);\n            emit OwnerAdded(_owners[i]);\n        }\n        \n        threshold = _threshold;\n        emit ThresholdChanged(_threshold);\n    }\n\n    function submitTransaction(address _to, uint256 _value, bytes calldata _data) external onlyOwner returns (bytes32 txHash) {\n        require(_to != address(0), \"Zero to\");\n        \n        txHash = keccak256(abi.encode(\n            _to,\n            _value,\n            _data,\n            nonce,\n            chainId,\n            address(this)\n        ));\n        \n        transactions[txHash] = Transaction({\n            to: _to,\n            value: _value,\n            data: _data,\n            nonce: nonce,\n            executed: false\n        });\n        \n        confirmations[txHash][msg.sender] = true;\n        confirmationCount[txHash] = 1;\n        \n        nonce++;\n        \n        emit TransactionSubmitted(txHash, _to, _value);\n        \n        if (confirmationCount[txHash] >= threshold) {\n            _executeTransaction(txHash);\n        }\n    }\n\n    function confirmTransaction(bytes32 _txHash) external onlyOwner txExists(_txHash) notExecuted(_txHash) {\n        require(!confirmations[_txHash][msg.sender], \"Already confirmed\");\n        \n        confirmations[_txHash][msg.sender] = true;\n        confirmationCount[_txHash]++;\n        \n        emit TransactionConfirmed(_txHash, msg.sender);\n        \n        if (confirmationCount[_txHash] >= threshold) {\n            _executeTransaction(_txHash);\n        }\n    }\n\n    function executeTransaction(bytes32 _txHash) external onlyOwner txExists(_txHash) notExecuted(_txHash) nonReentrant {\n        require(confirmationCount[_txHash] >= threshold, \"Not enough confirmations\");\n        _executeTransaction(_txHash);\n    }\n\n    function _executeTransaction(bytes32 txHash_) internal {\n        Transaction storage tx_ = transactions[txHash_];\n        tx_.executed = true;\n        \n        (bool success, ) = tx_.to.call{value: tx_.value}(tx_.data);\n        require(success, \"Execution failed\");\n        \n        emit TransactionExecuted(txHash_);\n    }\n\n    function getTransaction(bytes32 _txHash) external view returns (\n        address to,\n        uint256 value,\n        bytes memory data,\n        uint256 nonce_,\n        bool executed,\n        uint256 confirmations_\n    ) {\n        Transaction storage tx_ = transactions[_txHash];\n        return (\n            tx_.to,\n            tx_.value,\n            tx_.data,\n            tx_.nonce,\n            tx_.executed,\n            confirmationCount[_txHash]\n        );\n    }\n\n    function hasConfirmed(bytes32 _txHash, address _owner) external view returns (bool) {\n        return confirmations[_txHash][_owner];\n    }\n\n    function getOwners() external view returns (address[] memory) {\n        return owners;\n    }\n\n    function getTransactionCount() external view returns (uint256) {\n        return nonce;\n    }\n\n    receive() external payable {\n        emit TransactionSubmitted(bytes32(0), msg.sender, msg.value);\n    }\n}",
  "sourcePath": "/home/ayush/Desktop/code/Sanjeevni/contracts/contracts/MultiSigWallet.sol",
  "compiler": {
    "name": "solc",
    "version": "0.8.20+commit.80d5c536.Emscripten.clang"
  },
  "schemaVersion": "3.4.16",
  "updatedAt": "2026-04-09T17:09:49.550Z",
  "devdoc": {
    "errors": {
      "ReentrancyGuardReentrantCall()": [
        {
          "details": "Unauthorized reentrant call."
        }
      ]
    },
    "kind": "dev",
    "methods": {},
    "version": 1
  },
  "userdoc": {
    "kind": "user",
    "methods": {},
    "version": 1
  }
}