{
  "contractName": "Patient",
  "abi": [
    {
      "inputs": [],
      "stateMutability": "nonpayable",
      "type": "constructor"
    },
    {
      "inputs": [],
      "name": "AccessControlBadConfirmation",
      "type": "error"
    },
    {
      "inputs": [
        {
          "internalType": "address",
          "name": "account",
          "type": "address"
        },
        {
          "internalType": "bytes32",
          "name": "neededRole",
          "type": "bytes32"
        }
      ],
      "name": "AccessControlUnauthorizedAccount",
      "type": "error"
    },
    {
      "inputs": [
        {
          "internalType": "address",
          "name": "sender",
          "type": "address"
        },
        {
          "internalType": "uint256",
          "name": "tokenId",
          "type": "uint256"
        },
        {
          "internalType": "address",
          "name": "owner",
          "type": "address"
        }
      ],
      "name": "ERC721IncorrectOwner",
      "type": "error"
    },
    {
      "inputs": [
        {
          "internalType": "address",
          "name": "operator",
          "type": "address"
        },
        {
          "internalType": "uint256",
          "name": "tokenId",
          "type": "uint256"
        }
      ],
      "name": "ERC721InsufficientApproval",
      "type": "error"
    },
    {
      "inputs": [
        {
          "internalType": "address",
          "name": "approver",
          "type": "address"
        }
      ],
      "name": "ERC721InvalidApprover",
      "type": "error"
    },
    {
      "inputs": [
        {
          "internalType": "address",
          "name": "operator",
          "type": "address"
        }
      ],
      "name": "ERC721InvalidOperator",
      "type": "error"
    },
    {
      "inputs": [
        {
          "internalType": "address",
          "name": "owner",
          "type": "address"
        }
      ],
      "name": "ERC721InvalidOwner",
      "type": "error"
    },
    {
      "inputs": [
        {
          "internalType": "address",
          "name": "receiver",
          "type": "address"
        }
      ],
      "name": "ERC721InvalidReceiver",
      "type": "error"
    },
    {
      "inputs": [
        {
          "internalType": "address",
          "name": "sender",
          "type": "address"
        }
      ],
      "name": "ERC721InvalidSender",
      "type": "error"
    },
    {
      "inputs": [
        {
          "internalType": "uint256",
          "name": "tokenId",
          "type": "uint256"
        }
      ],
      "name": "ERC721NonexistentToken",
      "type": "error"
    },
    {
      "inputs": [],
      "name": "EnforcedPause",
      "type": "error"
    },
    {
      "inputs": [],
      "name": "ExpectedPause",
      "type": "error"
    },
    {
      "inputs": [],
      "name": "ReentrancyGuardReentrantCall",
      "type": "error"
    },
    {
      "anonymous": false,
      "inputs": [
        {
          "indexed": true,
          "internalType": "address",
          "name": "owner",
          "type": "address"
        },
        {
          "indexed": true,
          "internalType": "address",
          "name": "approved",
          "type": "address"
        },
        {
          "indexed": true,
          "internalType": "uint256",
          "name": "tokenId",
          "type": "uint256"
        }
      ],
      "name": "Approval",
      "type": "event"
    },
    {
      "anonymous": false,
      "inputs": [
        {
          "indexed": true,
          "internalType": "address",
          "name": "owner",
          "type": "address"
        },
        {
          "indexed": true,
          "internalType": "address",
          "name": "operator",
          "type": "address"
        },
        {
          "indexed": false,
          "internalType": "bool",
          "name": "approved",
          "type": "bool"
        }
      ],
      "name": "ApprovalForAll",
      "type": "event"
    },
    {
      "anonymous": false,
      "inputs": [
        {
          "indexed": false,
          "internalType": "uint256",
          "name": "_fromTokenId",
          "type": "uint256"
        },
        {
          "indexed": false,
          "internalType": "uint256",
          "name": "_toTokenId",
          "type": "uint256"
        }
      ],
      "name": "BatchMetadataUpdate",
      "type": "event"
    },
    {
      "anonymous": false,
      "inputs": [
        {
          "indexed": true,
          "internalType": "uint256",
          "name": "patientId",
          "type": "uint256"
        },
        {
          "indexed": true,
          "internalType": "address",
          "name": "accessor",
          "type": "address"
        },
        {
          "indexed": false,
          "internalType": "string",
          "name": "reason",
          "type": "string"
        },
        {
          "indexed": false,
          "internalType": "uint256",
          "name": "timestamp",
          "type": "uint256"
        }
      ],
      "name": "EmergencyAccessLogged",
      "type": "event"
    },
    {
      "anonymous": false,
      "inputs": [
        {
          "indexed": false,
          "internalType": "uint256",
          "name": "_tokenId",
          "type": "uint256"
        }
      ],
      "name": "MetadataUpdate",
      "type": "event"
    },
    {
      "anonymous": false,
      "inputs": [
        {
          "indexed": true,
          "internalType": "uint256",
          "name": "patientId",
          "type": "uint256"
        },
        {
          "indexed": true,
          "internalType": "address",
          "name": "wallet",
          "type": "address"
        },
        {
          "indexed": false,
          "internalType": "string",
          "name": "name",
          "type": "string"
        }
      ],
      "name": "PatientRegistered",
      "type": "event"
    },
    {
      "anonymous": false,
      "inputs": [
        {
          "indexed": false,
          "internalType": "address",
          "name": "account",
          "type": "address"
        }
      ],
      "name": "Paused",
      "type": "event"
    },
    {
      "anonymous": false,
      "inputs": [
        {
          "indexed": true,
          "internalType": "uint256",
          "name": "patientId",
          "type": "uint256"
        },
        {
          "indexed": true,
          "internalType": "uint256",
          "name": "tokenId",
          "type": "uint256"
        },
        {
          "indexed": false,
          "internalType": "string",
          "name": "ipfsHash",
          "type": "string"
        }
      ],
      "name": "RecordAdded",
      "type": "event"
    },
    {
      "anonymous": false,
      "inputs": [
        {
          "indexed": true,
          "internalType": "bytes32",
          "name": "role",
          "type": "bytes32"
        },
        {
          "indexed": true,
          "internalType": "bytes32",
          "name": "previousAdminRole",
          "type": "bytes32"
        },
        {
          "indexed": true,
          "internalType": "bytes32",
          "name": "newAdminRole",
          "type": "bytes32"
        }
      ],
      "name": "RoleAdminChanged",
      "type": "event"
    },
    {
      "anonymous": false,
      "inputs": [
        {
          "indexed": true,
          "internalType": "bytes32",
          "name": "role",
          "type": "bytes32"
        },
        {
          "indexed": true,
          "internalType": "address",
          "name": "account",
          "type": "address"
        },
        {
          "indexed": true,
          "internalType": "address",
          "name": "sender",
          "type": "address"
        }
      ],
      "name": "RoleGranted",
      "type": "event"
    },
    {
      "anonymous": false,
      "inputs": [
        {
          "indexed": true,
          "internalType": "bytes32",
          "name": "role",
          "type": "bytes32"
        },
        {
          "indexed": true,
          "internalType": "address",
          "name": "account",
          "type": "address"
        },
        {
          "indexed": true,
          "internalType": "address",
          "name": "sender",
          "type": "address"
        }
      ],
      "name": "RoleRevoked",
      "type": "event"
    },
    {
      "anonymous": false,
      "inputs": [
        {
          "indexed": true,
          "internalType": "address",
          "name": "from",
          "type": "address"
        },
        {
          "indexed": true,
          "internalType": "address",
          "name": "to",
          "type": "address"
        },
        {
          "indexed": true,
          "internalType": "uint256",
          "name": "tokenId",
          "type": "uint256"
        }
      ],
      "name": "Transfer",
      "type": "event"
    },
    {
      "anonymous": false,
      "inputs": [
        {
          "indexed": false,
          "internalType": "address",
          "name": "account",
          "type": "address"
        }
      ],
      "name": "Unpaused",
      "type": "event"
    },
    {
      "inputs": [],
      "name": "ADMIN_ROLE",
      "outputs": [
        {
          "internalType": "bytes32",
          "name": "",
          "type": "bytes32"
        }
      ],
      "stateMutability": "view",
      "type": "function"
    },
    {
      "inputs": [],
      "name": "DEFAULT_ADMIN_ROLE",
      "outputs": [
        {
          "internalType": "bytes32",
          "name": "",
          "type": "bytes32"
        }
      ],
      "stateMutability": "view",
      "type": "function"
    },
    {
      "inputs": [],
      "name": "INSURANCE_ROLE",
      "outputs": [
        {
          "internalType": "bytes32",
          "name": "",
          "type": "bytes32"
        }
      ],
      "stateMutability": "view",
      "type": "function"
    },
    {
      "inputs": [
        {
          "internalType": "address",
          "name": "to",
          "type": "address"
        },
        {
          "internalType": "uint256",
          "name": "tokenId",
          "type": "uint256"
        }
      ],
      "name": "approve",
      "outputs": [],
      "stateMutability": "nonpayable",
      "type": "function"
    },
    {
      "inputs": [
        {
          "internalType": "address",
          "name": "owner",
          "type": "address"
        }
      ],
      "name": "balanceOf",
      "outputs": [
        {
          "internalType": "uint256",
          "name": "",
          "type": "uint256"
        }
      ],
      "stateMutability": "view",
      "type": "function"
    },
    {
      "inputs": [
        {
          "internalType": "uint256",
          "name": "",
          "type": "uint256"
        }
      ],
      "name": "emergencyAccessHashes",
      "outputs": [
        {
          "internalType": "bytes32",
          "name": "",
          "type": "bytes32"
        }
      ],
      "stateMutability": "view",
      "type": "function"
    },
    {
      "inputs": [
        {
          "internalType": "uint256",
          "name": "",
          "type": "uint256"
        },
        {
          "internalType": "uint256",
          "name": "",
          "type": "uint256"
        }
      ],
      "name": "emergencyAccessLogs",
      "outputs": [
        {
          "internalType": "address",
          "name": "accessor",
          "type": "address"
        },
        {
          "internalType": "string",
          "name": "reason",
          "type": "string"
        },
        {
          "internalType": "uint256",
          "name": "timestamp",
          "type": "uint256"
        }
      ],
      "stateMutability": "view",
      "type": "function"
    },
    {
      "inputs": [
        {
          "internalType": "uint256",
          "name": "tokenId",
          "type": "uint256"
        }
      ],
      "name": "getApproved",
      "outputs": [
        {
          "internalType": "address",
          "name": "",
          "type": "address"
        }
      ],
      "stateMutability": "view",
      "type": "function"
    },
    {
      "inputs": [
        {
          "internalType": "bytes32",
          "name": "role",
          "type": "bytes32"
        }
      ],
      "name": "getRoleAdmin",
      "outputs": [
        {
          "internalType": "bytes32",
          "name": "",
          "type": "bytes32"
        }
      ],
      "stateMutability": "view",
      "type": "function"
    },
    {
      "inputs": [
        {
          "internalType": "bytes32",
          "name": "role",
          "type": "bytes32"
        },
        {
          "internalType": "address",
          "name": "account",
          "type": "address"
        }
      ],
      "name": "grantRole",
      "outputs": [],
      "stateMutability": "nonpayable",
      "type": "function"
    },
    {
      "inputs": [
        {
          "internalType": "bytes32",
          "name": "role",
          "type": "bytes32"
        },
        {
          "internalType": "address",
          "name": "account",
          "type": "address"
        }
      ],
      "name": "hasRole",
      "outputs": [
        {
          "internalType": "bool",
          "name": "",
          "type": "bool"
        }
      ],
      "stateMutability": "view",
      "type": "function"
    },
    {
      "inputs": [
        {
          "internalType": "address",
          "name": "owner",
          "type": "address"
        },
        {
          "internalType": "address",
          "name": "operator",
          "type": "address"
        }
      ],
      "name": "isApprovedForAll",
      "outputs": [
        {
          "internalType": "bool",
          "name": "",
          "type": "bool"
        }
      ],
      "stateMutability": "view",
      "type": "function"
    },
    {
      "inputs": [],
      "name": "name",
      "outputs": [
        {
          "internalType": "string",
          "name": "",
          "type": "string"
        }
      ],
      "stateMutability": "view",
      "type": "function"
    },
    {
      "inputs": [
        {
          "internalType": "uint256",
          "name": "tokenId",
          "type": "uint256"
        }
      ],
      "name": "ownerOf",
      "outputs": [
        {
          "internalType": "address",
          "name": "",
          "type": "address"
        }
      ],
      "stateMutability": "view",
      "type": "function"
    },
    {
      "inputs": [
        {
          "internalType": "uint256",
          "name": "",
          "type": "uint256"
        },
        {
          "internalType": "uint256",
          "name": "",
          "type": "uint256"
        }
      ],
      "name": "patientNominees",
      "outputs": [
        {
          "internalType": "string",
          "name": "name",
          "type": "string"
        },
        {
          "internalType": "address",
          "name": "walletAddress",
          "type": "address"
        },
        {
          "internalType": "string",
          "name": "relationship",
          "type": "string"
        },
        {
          "internalType": "string",
          "name": "contactNumber",
          "type": "string"
        }
      ],
      "stateMutability": "view",
      "type": "function"
    },
    {
      "inputs": [
        {
          "internalType": "uint256",
          "name": "",
          "type": "uint256"
        }
      ],
      "name": "patients",
      "outputs": [
        {
          "internalType": "uint256",
          "name": "patientId",
          "type": "uint256"
        },
        {
          "internalType": "string",
          "name": "username",
          "type": "string"
        },
        {
          "internalType": "string",
          "name": "name",
          "type": "string"
        },
        {
          "internalType": "address",
          "name": "walletAddress",
          "type": "address"
        },
        {
          "internalType": "string",
          "name": "email",
          "type": "string"
        },
        {
          "internalType": "uint8",
          "name": "age",
          "type": "uint8"
        },
        {
          "internalType": "string",
          "name": "bloodGroup",
          "type": "string"
        }
      ],
      "stateMutability": "view",
      "type": "function"
    },
    {
      "inputs": [],
      "name": "paused",
      "outputs": [
        {
          "internalType": "bool",
          "name": "",
          "type": "bool"
        }
      ],
      "stateMutability": "view",
      "type": "function"
    },
    {
      "inputs": [
        {
          "internalType": "bytes32",
          "name": "role",
          "type": "bytes32"
        },
        {
          "internalType": "address",
          "name": "callerConfirmation",
          "type": "address"
        }
      ],
      "name": "renounceRole",
      "outputs": [],
      "stateMutability": "nonpayable",
      "type": "function"
    },
    {
      "inputs": [
        {
          "internalType": "bytes32",
          "name": "role",
          "type": "bytes32"
        },
        {
          "internalType": "address",
          "name": "account",
          "type": "address"
        }
      ],
      "name": "revokeRole",
      "outputs": [],
      "stateMutability": "nonpayable",
      "type": "function"
    },
    {
      "inputs": [
        {
          "internalType": "address",
          "name": "from",
          "type": "address"
        },
        {
          "internalType": "address",
          "name": "to",
          "type": "address"
        },
        {
          "internalType": "uint256",
          "name": "tokenId",
          "type": "uint256"
        }
      ],
      "name": "safeTransferFrom",
      "outputs": [],
      "stateMutability": "nonpayable",
      "type": "function"
    },
    {
      "inputs": [
        {
          "internalType": "address",
          "name": "from",
          "type": "address"
        },
        {
          "internalType": "address",
          "name": "to",
          "type": "address"
        },
        {
          "internalType": "uint256",
          "name": "tokenId",
          "type": "uint256"
        },
        {
          "internalType": "bytes",
          "name": "data",
          "type": "bytes"
        }
      ],
      "name": "safeTransferFrom",
      "outputs": [],
      "stateMutability": "nonpayable",
      "type": "function"
    },
    {
      "inputs": [
        {
          "internalType": "address",
          "name": "operator",
          "type": "address"
        },
        {
          "internalType": "bool",
          "name": "approved",
          "type": "bool"
        }
      ],
      "name": "setApprovalForAll",
      "outputs": [],
      "stateMutability": "nonpayable",
      "type": "function"
    },
    {
      "inputs": [],
      "name": "symbol",
      "outputs": [
        {
          "internalType": "string",
          "name": "",
          "type": "string"
        }
      ],
      "stateMutability": "view",
      "type": "function"
    },
    {
      "inputs": [
        {
          "internalType": "uint256",
          "name": "tokenId",
          "type": "uint256"
        }
      ],
      "name": "tokenURI",
      "outputs": [
        {
          "internalType": "string",
          "name": "",
          "type": "string"
        }
      ],
      "stateMutability": "view",
      "type": "function"
    },
    {
      "inputs": [
        {
          "internalType": "address",
          "name": "from",
          "type": "address"
        },
        {
          "internalType": "address",
          "name": "to",
          "type": "address"
        },
        {
          "internalType": "uint256",
          "name": "tokenId",
          "type": "uint256"
        }
      ],
      "name": "transferFrom",
      "outputs": [],
      "stateMutability": "nonpayable",
      "type": "function"
    },
    {
      "inputs": [
        {
          "internalType": "string",
          "name": "",
          "type": "string"
        }
      ],
      "name": "usernameToPatientId",
      "outputs": [
        {
          "internalType": "uint256",
          "name": "",
          "type": "uint256"
        }
      ],
      "stateMutability": "view",
      "type": "function"
    },
    {
      "inputs": [
        {
          "internalType": "address",
          "name": "",
          "type": "address"
        }
      ],
      "name": "walletToPatientId",
      "outputs": [
        {
          "internalType": "uint256",
          "name": "",
          "type": "uint256"
        }
      ],
      "stateMutability": "view",
      "type": "function"
    },
    {
      "inputs": [
        {
          "internalType": "bytes4",
          "name": "interfaceId",
          "type": "bytes4"
        }
      ],
      "name": "supportsInterface",
      "outputs": [
        {
          "internalType": "bool",
          "name": "",
          "type": "bool"
        }
      ],
      "stateMutability": "view",
      "type": "function"
    },
    {
      "inputs": [
        {
          "internalType": "address",
          "name": "walletAddress",
          "type": "address"
        }
      ],
      "name": "userExists",
      "outputs": [
        {
          "internalType": "bool",
          "name": "",
          "type": "bool"
        }
      ],
      "stateMutability": "view",
      "type": "function"
    },
    {
      "inputs": [
        {
          "internalType": "bytes32",
          "name": "_hash",
          "type": "bytes32"
        }
      ],
      "name": "setEmergencyAccessHash",
      "outputs": [],
      "stateMutability": "nonpayable",
      "type": "function"
    },
    {
      "inputs": [
        {
          "internalType": "uint256",
          "name": "_patientId",
          "type": "uint256"
        },
        {
          "internalType": "bytes32",
          "name": "_hash",
          "type": "bytes32"
        }
      ],
      "name": "verifyEmergencyHash",
      "outputs": [
        {
          "internalType": "bool",
          "name": "",
          "type": "bool"
        }
      ],
      "stateMutability": "view",
      "type": "function"
    },
    {
      "inputs": [
        {
          "internalType": "uint256",
          "name": "_patientId",
          "type": "uint256"
        },
        {
          "internalType": "string",
          "name": "_reason",
          "type": "string"
        }
      ],
      "name": "logEmergencyAccess",
      "outputs": [],
      "stateMutability": "nonpayable",
      "type": "function"
    },
    {
      "inputs": [
        {
          "internalType": "uint256",
          "name": "_patientId",
          "type": "uint256"
        }
      ],
      "name": "getAccessLogs",
      "outputs": [
        {
          "components": [
            {
              "internalType": "address",
              "name": "accessor",
              "type": "address"
            },
            {
              "internalType": "string",
              "name": "reason",
              "type": "string"
            },
            {
              "internalType": "uint256",
              "name": "timestamp",
              "type": "uint256"
            }
          ],
          "internalType": "struct Patient.AccessLog[]",
          "name": "",
          "type": "tuple[]"
        }
      ],
      "stateMutability": "view",
      "type": "function"
    },
    {
      "inputs": [],
      "name": "pauseContract",
      "outputs": [],
      "stateMutability": "nonpayable",
      "type": "function"
    },
    {
      "inputs": [],
      "name": "unpauseContract",
      "outputs": [],
      "stateMutability": "nonpayable",
      "type": "function"
    },
    {
      "inputs": [
        {
          "internalType": "address",
          "name": "_insurance",
          "type": "address"
        }
      ],
      "name": "grantInsuranceRole",
      "outputs": [],
      "stateMutability": "nonpayable",
      "type": "function"
    },
    {
      "inputs": [
        {
          "internalType": "address",
          "name": "_insurance",
          "type": "address"
        }
      ],
      "name": "revokeInsuranceRole",
      "outputs": [],
      "stateMutability": "nonpayable",
      "type": "function"
    },
    {
      "inputs": [
        {
          "internalType": "string",
          "name": "_username",
          "type": "string"
        },
        {
          "internalType": "string",
          "name": "_name",
          "type": "string"
        },
        {
          "internalType": "string",
          "name": "_email",
          "type": "string"
        },
        {
          "internalType": "uint8",
          "name": "_age",
          "type": "uint8"
        },
        {
          "internalType": "string",
          "name": "_bloodGroup",
          "type": "string"
        }
      ],
      "name": "registerPatient",
      "outputs": [],
      "stateMutability": "nonpayable",
      "type": "function"
    },
    {
      "inputs": [
        {
          "internalType": "string",
          "name": "_name",
          "type": "string"
        },
        {
          "internalType": "string",
          "name": "_email",
          "type": "string"
        },
        {
          "internalType": "uint8",
          "name": "_age",
          "type": "uint8"
        },
        {
          "internalType": "string",
          "name": "_bloodGroup",
          "type": "string"
        }
      ],
      "name": "updatePatientDetails",
      "outputs": [],
      "stateMutability": "nonpayable",
      "type": "function"
    },
    {
      "inputs": [
        {
          "internalType": "string",
          "name": "_name",
          "type": "string"
        },
        {
          "internalType": "address",
          "name": "_walletAddress",
          "type": "address"
        },
        {
          "internalType": "string",
          "name": "_relationship",
          "type": "string"
        },
        {
          "internalType": "string",
          "name": "_contactNumber",
          "type": "string"
        }
      ],
      "name": "addNominee",
      "outputs": [],
      "stateMutability": "nonpayable",
      "type": "function"
    },
    {
      "inputs": [
        {
          "internalType": "uint256",
          "name": "_patientId",
          "type": "uint256"
        }
      ],
      "name": "getNominees",
      "outputs": [
        {
          "components": [
            {
              "internalType": "string",
              "name": "name",
              "type": "string"
            },
            {
              "internalType": "address",
              "name": "walletAddress",
              "type": "address"
            },
            {
              "internalType": "string",
              "name": "relationship",
              "type": "string"
            },
            {
              "internalType": "string",
              "name": "contactNumber",
              "type": "string"
            }
          ],
          "internalType": "struct Patient.Nominee[]",
          "name": "",
          "type": "tuple[]"
        }
      ],
      "stateMutability": "view",
      "type": "function"
    },
    {
      "inputs": [
        {
          "internalType": "string",
          "name": "_ipfsHash",
          "type": "string"
        },
        {
          "internalType": "string",
          "name": "_fileName",
          "type": "string"
        },
        {
          "internalType": "string",
          "name": "_recordDate",
          "type": "string"
        },
        {
          "internalType": "string",
          "name": "_hospital",
          "type": "string"
        },
        {
          "internalType": "bool",
          "name": "_isEmergencyViewable",
          "type": "bool"
        }
      ],
      "name": "addMedicalRecord",
      "outputs": [],
      "stateMutability": "nonpayable",
      "type": "function"
    },
    {
      "inputs": [
        {
          "internalType": "uint256",
          "name": "_recordIndex",
          "type": "uint256"
        }
      ],
      "name": "toggleEmergencyVisibility",
      "outputs": [],
      "stateMutability": "nonpayable",
      "type": "function"
    },
    {
      "inputs": [
        {
          "internalType": "uint256",
          "name": "_patientId",
          "type": "uint256"
        }
      ],
      "name": "getPatientDetails",
      "outputs": [
        {
          "components": [
            {
              "internalType": "uint256",
              "name": "patientId",
              "type": "uint256"
            },
            {
              "internalType": "string",
              "name": "username",
              "type": "string"
            },
            {
              "internalType": "string",
              "name": "name",
              "type": "string"
            },
            {
              "internalType": "address",
              "name": "walletAddress",
              "type": "address"
            },
            {
              "internalType": "string",
              "name": "email",
              "type": "string"
            },
            {
              "internalType": "uint8",
              "name": "age",
              "type": "uint8"
            },
            {
              "internalType": "string",
              "name": "bloodGroup",
              "type": "string"
            },
            {
              "components": [
                {
                  "internalType": "uint256",
                  "name": "tokenId",
                  "type": "uint256"
                },
                {
                  "internalType": "string",
                  "name": "ipfsHash",
                  "type": "string"
                },
                {
                  "internalType": "string",
                  "name": "fileName",
                  "type": "string"
                },
                {
                  "internalType": "string",
                  "name": "recordDate",
                  "type": "string"
                },
                {
                  "internalType": "string",
                  "name": "hospital",
                  "type": "string"
                },
                {
                  "internalType": "bool",
                  "name": "isEmergencyViewable",
                  "type": "bool"
                }
              ],
              "internalType": "struct Patient.MedicalRecord[]",
              "name": "medicalRecords",
              "type": "tuple[]"
            }
          ],
          "internalType": "struct Patient.PatientDetails",
          "name": "",
          "type": "tuple"
        }
      ],
      "stateMutability": "view",
      "type": "function"
    },
    {
      "inputs": [
        {
          "internalType": "string",
          "name": "_username",
          "type": "string"
        }
      ],
      "name": "getPatientIdByUsername",
      "outputs": [
        {
          "internalType": "uint256",
          "name": "",
          "type": "uint256"
        }
      ],
      "stateMutability": "view",
      "type": "function"
    },
    {
      "inputs": [
        {
          "internalType": "uint256",
          "name": "_patientId",
          "type": "uint256"
        }
      ],
      "name": "getMedicalRecords",
      "outputs": [
        {
          "components": [
            {
              "internalType": "uint256",
              "name": "tokenId",
              "type": "uint256"
            },
            {
              "internalType": "string",
              "name": "ipfsHash",
              "type": "string"
            },
            {
              "internalType": "string",
              "name": "fileName",
              "type": "string"
            },
            {
              "internalType": "string",
              "name": "recordDate",
              "type": "string"
            },
            {
              "internalType": "string",
              "name": "hospital",
              "type": "string"
            },
            {
              "internalType": "bool",
              "name": "isEmergencyViewable",
              "type": "bool"
            }
          ],
          "internalType": "struct Patient.MedicalRecord[]",
          "name": "",
          "type": "tuple[]"
        }
      ],
      "stateMutability": "view",
      "type": "function"
    },
    {
      "inputs": [
        {
          "internalType": "uint256",
          "name": "_patientId",
          "type": "uint256"
        }
      ],
      "name": "getPatientSummary",
      "outputs": [
        {
          "internalType": "uint256",
          "name": "patientId",
          "type": "uint256"
        },
        {
          "internalType": "string",
          "name": "name",
          "type": "string"
        },
        {
          "internalType": "string",
          "name": "email",
          "type": "string"
        },
        {
          "internalType": "uint8",
          "name": "age",
          "type": "uint8"
        },
        {
          "internalType": "string",
          "name": "bloodGroup",
          "type": "string"
        },
        {
          "internalType": "uint256",
          "name": "recordCount",
          "type": "uint256"
        },
        {
          "internalType": "uint256",
          "name": "nomineeCount",
          "type": "uint256"
        },
        {
          "internalType": "bool",
          "name": "hasEmergencyHash",
          "type": "bool"
        }
      ],
      "stateMutability": "view",
      "type": "function"
    },
    {
      "inputs": [
        {
          "internalType": "address",
          "name": "_wallet",
          "type": "address"
        }
      ],
      "name": "getPatientDashboard",
      "outputs": [
        {
          "internalType": "uint256",
          "name": "patientId",
          "type": "uint256"
        },
        {
          "internalType": "string",
          "name": "name",
          "type": "string"
        },
        {
          "internalType": "uint256",
          "name": "recordCount",
          "type": "uint256"
        },
        {
          "internalType": "uint256",
          "name": "nomineeCount",
          "type": "uint256"
        },
        {
          "internalType": "bool",
          "name": "isRegistered",
          "type": "bool"
        },
        {
          "internalType": "string",
          "name": "status",
          "type": "string"
        }
      ],
      "stateMutability": "view",
      "type": "function"
    },
    {
      "inputs": [
        {
          "internalType": "uint256",
          "name": "_patientId",
          "type": "uint256"
        },
        {
          "internalType": "uint256",
          "name": "_offset",
          "type": "uint256"
        },
        {
          "internalType": "uint256",
          "name": "_limit",
          "type": "uint256"
        }
      ],
      "name": "getMedicalRecordsPaginated",
      "outputs": [
        {
          "components": [
            {
              "internalType": "uint256",
              "name": "tokenId",
              "type": "uint256"
            },
            {
              "internalType": "string",
              "name": "ipfsHash",
              "type": "string"
            },
            {
              "internalType": "string",
              "name": "fileName",
              "type": "string"
            },
            {
              "internalType": "string",
              "name": "recordDate",
              "type": "string"
            },
            {
              "internalType": "string",
              "name": "hospital",
              "type": "string"
            },
            {
              "internalType": "bool",
              "name": "isEmergencyViewable",
              "type": "bool"
            }
          ],
          "internalType": "struct Patient.MedicalRecord[]",
          "name": "",
          "type": "tuple[]"
        }
      ],
      "stateMutability": "view",
      "type": "function"
    },
    {
      "inputs": [
        {
          "internalType": "uint256",
          "name": "_patientId",
          "type": "uint256"
        }
      ],
      "name": "getEmergencyLogs",
      "outputs": [
        {
          "components": [
            {
              "internalType": "address",
              "name": "accessor",
              "type": "address"
            },
            {
              "internalType": "string",
              "name": "reason",
              "type": "string"
            },
            {
              "internalType": "uint256",
              "name": "timestamp",
              "type": "uint256"
            }
          ],
          "internalType": "struct Patient.AccessLog[]",
          "name": "",
          "type": "tuple[]"
        }
      ],
      "stateMutability": "view",
      "type": "function"
    },
    {
      "inputs": [
        {
          "internalType": "uint256",
          "name": "_patientId",
          "type": "uint256"
        }
      ],
      "name": "getEmergencyAccessDetails",
      "outputs": [
        {
          "internalType": "bool",
          "name": "hasHash",
          "type": "bool"
        },
        {
          "internalType": "bytes32",
          "name": "hash",
          "type": "bytes32"
        },
        {
          "internalType": "uint256",
          "name": "logCount",
          "type": "uint256"
        },
        {
          "internalType": "string",
          "name": "lastAccessReason",
          "type": "string"
        },
        {
          "internalType": "uint256",
          "name": "lastAccessTime",
          "type": "uint256"
        }
      ],
      "stateMutability": "view",
      "type": "function"
    },
    {
      "inputs": [
        {
          "internalType": "uint256",
          "name": "_patientId",
          "type": "uint256"
        },
        {
          "internalType": "uint256",
          "name": "_count",
          "type": "uint256"
        }
      ],
      "name": "getRecentRecords",
      "outputs": [
        {
          "components": [
            {
              "internalType": "uint256",
              "name": "tokenId",
              "type": "uint256"
            },
            {
              "internalType": "string",
              "name": "ipfsHash",
              "type": "string"
            },
            {
              "internalType": "string",
              "name": "fileName",
              "type": "string"
            },
            {
              "internalType": "string",
              "name": "recordDate",
              "type": "string"
            },
            {
              "internalType": "string",
              "name": "hospital",
              "type": "string"
            },
            {
              "internalType": "bool",
              "name": "isEmergencyViewable",
              "type": "bool"
            }
          ],
          "internalType": "struct Patient.MedicalRecord[]",
          "name": "",
          "type": "tuple[]"
        }
      ],
      "stateMutability": "view",
      "type": "function"
    },
    {
      "inputs": [
        {
          "internalType": "uint256",
          "name": "_patientId",
          "type": "uint256"
        },
        {
          "internalType": "uint256",
          "name": "_index",
          "type": "uint256"
        }
      ],
      "name": "getRecordByIndex",
      "outputs": [
        {
          "components": [
            {
              "internalType": "uint256",
              "name": "tokenId",
              "type": "uint256"
            },
            {
              "internalType": "string",
              "name": "ipfsHash",
              "type": "string"
            },
            {
              "internalType": "string",
              "name": "fileName",
              "type": "string"
            },
            {
              "internalType": "string",
              "name": "recordDate",
              "type": "string"
            },
            {
              "internalType": "string",
              "name": "hospital",
              "type": "string"
            },
            {
              "internalType": "bool",
              "name": "isEmergencyViewable",
              "type": "bool"
            }
          ],
          "internalType": "struct Patient.MedicalRecord",
          "name": "",
          "type": "tuple"
        }
      ],
      "stateMutability": "view",
      "type": "function"
    },
    {
      "inputs": [
        {
          "internalType": "string[]",
          "name": "_ipfsHashes",
          "type": "string[]"
        },
        {
          "internalType": "string[]",
          "name": "_fileNames",
          "type": "string[]"
        },
        {
          "internalType": "string[]",
          "name": "_recordDates",
          "type": "string[]"
        },
        {
          "internalType": "string[]",
          "name": "_hospitals",
          "type": "string[]"
        },
        {
          "internalType": "bool[]",
          "name": "_emergencyViewable",
          "type": "bool[]"
        }
      ],
      "name": "addMedicalRecordsBatch",
      "outputs": [],
      "stateMutability": "nonpayable",
      "type": "function"
    }
  ],
  "bytecode": "0x60806040523461035157604080519081016001600160401b0381118282101761025c57604090815260118252701359591a54d958dd5c9948149958dbdc99607a1b602083015280519081016001600160401b0381118282101761025c5760405260068152654d454452454360d01b602082015281516001600160401b03811161025c575f54600181811c91168015610347575b602082101461023e57601f81116102da575b50602092601f821160011461027b57928192935f92610270575b50508160011b915f199060031b1c1916175f555b80516001600160401b03811161025c57600154600181811c91168015610252575b602082101461023e57601f81116101d0575b50602091601f8211600114610170579181925f92610165575b50508160011b915f199060031b1c1916176001555b600160075560ff196008541660085561014b33610355565b50610155336103cb565b5060405161473e908161045f8239f35b015190505f8061011e565b601f1982169260015f52805f20915f5b8581106101b8575083600195106101a0575b505050811b01600155610133565b01515f1960f88460031b161c191690555f8080610192565b91926020600181928685015181550194019201610180565b818111156101055760015f52601f820160051c7fb10e2d527612073b26eecdfd717e6a320cf44b4afac2b0732d9fcbe2b7fa0cf660208410610236575b81601f9101920160051c03905f5b828110610229575050610105565b5f8282015560010161021b565b5f915061020d565b634e487b7160e01b5f52602260045260245ffd5b90607f16906100f3565b634e487b7160e01b5f52604160045260245ffd5b015190505f806100be565b601f198216935f8052805f20915f5b8681106102c257508360019596106102aa575b505050811b015f556100d2565b01515f1960f88460031b161c191690555f808061029d565b9192602060018192868501518155019401920161028a565b818111156100a4575f8052601f820160051c7f290decd9548b62a8d60345a988386fc84ba6bc95484008f6362f93160ef3e5636020841061033f575b81601f9101920160051c03905f5b8281106103325750506100a4565b5f82820155600101610324565b5f9150610316565b90607f1690610092565b5f80fd5b6001600160a01b0381165f9081525f516020614bbd5f395f51905f52602052604090205460ff166103c6576001600160a01b03165f8181525f516020614bbd5f395f51905f5260205260408120805460ff191660011790553391905f516020614b9d5f395f51905f528180a4600190565b505f90565b6001600160a01b0381165f9081525f516020614bdd5f395f51905f52602052604090205460ff166103c6576001600160a01b03165f8181525f516020614bdd5f395f51905f5260205260408120805460ff191660011790553391907fa49807205ce4d355092ef5a8a18f56e8913cf4a201fbe287825b095693c21775905f516020614b9d5f395f51905f529080a460019056fe6080806040526004361015610012575f80fd5b5f3560e01c90816301ffc9a714612d9e5750806306fdde0314612cfc578063081812fc14612cc0578063095ea7b314612bd65780630c5d6c9d14612b365780630e666e4914612afc578063161f821e14612ac05780631f976131146125c95780631ff3bd8b14611ec657806323b872dd14611eaf57806323ecb05814611e77578063248a9ca314611e445780632536542414611d855780632b05a65e146114945780632d50aae314611c2a5780632f2ff15d14611bec578063300c601c14611a4657806336568abe14611a025780633a5418701461196857806342842e0e1461193f578063439766ce146118e65780635c975abb146118c45780636352211e146118945780636f3981ec1461165457806370a082311461160357806375b238fc146115c957806379630af31461155957806382f2a6e9146114f05780638590ed1914611494578063886f0f951461142b5780638d6c56c314610fb457806391d1485414610f6b57806393119a8314610ec957806395d89b4114610dff5780639a9fd4c214610d28578063a217fddf14610d0e578063a22cb46514610c6a578063abb5b97c14610a3e578063b1a3bea914610a14578063b33712c5146109ae578063b752a74b14610987578063b88d4fde14610928578063be6ff6f7146108ac578063c87b56dd14610879578063ca5b41431461085f578063cc2d9f8f1461070a578063d547741f146106c7578063d5b6ec7c146105f8578063dac5ac49146105ca578063e4c7961a146103b4578063e5451f0f14610351578063e985e9c5146102fa578063fdc034e5146102d55763ffbcfac21461026e575f80fd5b346102d15760203660031901126102d157600435801515806102c5575b61029490613622565b5f52600d6020526102c16102ad600760405f20016136e3565b604051918291602083526020830190613171565b0390f35b50600e5481111561028b565b5f80fd5b346102d15760603660031901126102d1576102c16102ad60443560243560043561406d565b346102d15760403660031901126102d157610313612e88565b61031b612e9e565b9060018060a01b03165f52600560205260405f209060018060a01b03165f52602052602060ff60405f2054166040519015158152f35b346102d15760203660031901126102d1576102c1610375610370612e88565b613e03565b91610395604097959751978897885260c0602089015260c0880190612e63565b93604087015260608601521515608085015283820360a0850152612e63565b346102d15760a03660031901126102d1576004356001600160401b0381116102d1576103e490369060040161327c565b6024356001600160401b0381116102d15761040390369060040161327c565b906044356001600160401b0381116102d15761042390369060040161327c565b6064356001600160401b0381116102d15761044290369060040161327c565b92608435926001600160401b0384116102d157366023850112156102d157836004013561046e81613265565b9461047c6040519687612f9c565b8186526024602087019260051b820101903682116102d157602401915b8183106105b1575050506104b08151835114613db1565b6104bd8151845114613db1565b6104ca8151865114613db1565b6104d78151855114613db1565b335f52600b60205260405f2054916104f08315156132fa565b5f5b82518110156105af576001906105a9600a5461050d81613441565b600a5561051a813361447a565b61052e6105278488613def565b5182614556565b865f52600d60205285858a8c8b610578886105718161056a816105638161055c81600760405f20019e613def565b519b613def565b5196613def565b5195613def565b5194613def565b511515936040519661058988612f66565b8752602087015260408601526060850152608084015260a0830152613774565b016104f2565b005b823580151581036102d157815260209283019201610499565b346102d15760403660031901126102d1576004355f526010602052602060243560405f205414604051908152f35b346102d15760203660031901126102d157600435335f52600b60205260405f20546106248115156132fa565b805f52600d602052600760405f20015482101561068b5760056106786105af93835f52600d60205260ff8361065f83600760405f2001613663565b5001541615935f52600d602052600760405f2001613663565b50019060ff801983541691151516179055565b60405162461bcd60e51b8152602060048201526014602482015273092dcecc2d8d2c840e4cac6dee4c840d2dcc8caf60631b6044820152606490fd5b346102d15760403660031901126102d1576105af6004356106e6612e9e565b90610705610700825f526009602052600160405f20015490565b614207565b6143f6565b346102d15760203660031901126102d15760043580151580610853575b61073090613622565b805f52600d60205260405f2060405161074881612f4a565b8154815261075860018301612fbd565b602082015261076960028301612fbd565b6040820190815260038301546001600160a01b031660608301529161079060048201612fbd565b936080830194855261083f60ff6005840154169260a0850193845260ff6107cc60076107be60068501612fbd565b9360c08901948552016136e3565b958660e082015251965197519451169051945194835f52600f60205260405f2054935f52601060205261082c60405f205415159561081e6040519a8b9a8b5261010060208c01526101008b0190612e63565b9089820360408b0152612e63565b9160608801528682036080880152612e63565b9260a085015260c084015260e08301520390f35b50600e54811115610727565b346102d1576102c16102ad61087336612eb4565b90613fd0565b346102d15760203660031901126102d1576102c1610898600435613d81565b604051918291602083526020830190612e63565b346102d15760203660031901126102d1576004355f52601160205260405f2080546108d681613265565b916108e46040519384612f9c565b81835260208301905f5260205f205f915b83831061090a57604051806102c187826131c9565b6003602060019261091a85613739565b8152019201920191906108f5565b346102d15760803660031901126102d157610941612e88565b610949612e9e565b606435916001600160401b0383116102d157366023840112156102d15761097d6105af933690602481600401359101613078565b9160443591613c41565b346102d1575f3660031901126102d15760206040515f5160206146e95f395f51905f528152f35b346102d1575f3660031901126102d1576109c6614198565b60085460ff811615610a055760ff19166008557f5db9ee0a495bf2e6ff9c91a7834c1ba4fdd244a5e8aa4e537bd38aeae4b073aa6020604051338152a1005b638dfc202b60e01b5f5260045ffd5b346102d15760203660031901126102d1576004355f526010602052602060405f2054604051908152f35b346102d15760403660031901126102d1576004356024356001600160401b0381116102d157610a719036906004016130ae565b90805f52601160205260405f2060405190610a8b82612f81565b3382526020820184815260408301914283528054600160401b811015610c4357610aba9160018201815561324c565b939093610c57575183546001600160a01b0319166001600160a01b039190911617835551805160018401916001600160401b038211610c4357610afd8354612ef7565b601f8111610bf2575b50602090601f8311600114610b8b576002949392915f9183610b80575b50508160011b915f199060031b1c19161790555b519101557f2fa2f149e536b21aa4962d702cf05c812c6dde2445fefe8d05ec6acd606c08b2610b7160405193604085526040850190612e63565b924260208201528033940390a3005b015190508880610b23565b90601f19831691845f52815f20925f5b818110610bda575091600193918560029897969410610bc2575b505050811b019055610b37565b01515f1960f88460031b161c19169055888080610bb5565b92936020600181928786015181550195019301610b9b565b82811115610b0657835f5260205f20601f840160051c9060208510610c3b575b81601f9101920160051c03905f5b828110610c2e575050610b06565b5f82820155600101610c20565b5f9150610c12565b634e487b7160e01b5f52604160045260245ffd5b634e487b7160e01b5f525f60045260245ffd5b346102d15760403660031901126102d157610c83612e88565b60243590811515908183036102d1576001600160a01b0316918215610cfb57610ccd90335f52600560205260405f20845f5260205260405f209060ff801983541691151516179055565b6040519081527f17307eab39ab6107e8899845ad3d59bd9653f200f220920489ca2b5937696c3160203392a3005b82630b61174360e31b5f5260045260245ffd5b346102d1575f3660031901126102d15760206040515f8152f35b346102d15760203660031901126102d15760606004355f81151580610df3575b610d5190613622565b815f52601060205260405f2054915f52601160205260405f209283549384610da9575b50610d9f9060405194848695151586526020860152604085015260a0606085015260a0840190612e63565b9060808301520390f35b5f19850192509050838211610ddf57610dcb91610dc59161324c565b50613739565b610d9f604060208301519201519190610d74565b634e487b7160e01b5f52601160045260245ffd5b50600e54821115610d48565b346102d1575f3660031901126102d1576040515f600154610e1f81612ef7565b8084529060018116908115610ea55750600114610e47575b6102c18361089881850382612f9c565b60015f9081527fb10e2d527612073b26eecdfd717e6a320cf44b4afac2b0732d9fcbe2b7fa0cf6939250905b808210610e8b57509091508101602001610898610e37565b919260018160209254838588010152019101909291610e73565b60ff191660208086019190915291151560051b840190910191506108989050610e37565b346102d15760203660031901126102d1576004355f52600d60205260405f2080546102c1610ef960018401612fbd565b92610f0660028201612fbd565b6003820154610f58906001600160a01b0316610f2460048501612fbd565b61082c610f3b600660ff6005890154169701612fbd565b9461081e6040519a8b9a8b5260e060208c015260e08b0190612e63565b9160a085015283820360c0850152612e63565b346102d15760403660031901126102d157610f84612e9e565b6004355f52600960205260405f209060018060a01b03165f52602052602060ff60405f2054166040519015158152f35b346102d15760803660031901126102d1576004356001600160401b0381116102d157610fe49036906004016130ae565b6024356001600160401b0381116102d1576110039036906004016130ae565b906044359060ff82168092036102d1576064356001600160401b0381116102d1576110329036906004016130ae565b9161103b61415d565b611043614178565b335f52600b60205260405f205461105b8115156132fa565b6110708351801515908161141f575b5061333f565b61108585518015159081611413575b50613381565b81151580611408575b611097906133c4565b6110a3845115156133fe565b5f52600d60205260405f209160028301908051906001600160401b038211610c435781906110d18454612ef7565b601f81116113af575b50602090601f831160011461134c575f92611341575b50508160011b915f199060031b1c19161790555b600482018451946001600160401b038611610c43576111238254612ef7565b601f81116112f0575b50602090601f871160011461128a57958091600696975f9261127f575b50508160011b915f199060031b1c19161790555b600582019060ff198254161790550181516001600160401b038111610c43576111868254612ef7565b601f811161122e575b50602092601f82116001146111cf57928192935f926111c4575b50508160011b915f199060031b1c19161790555b6001600755005b0151905083806111a9565b601f19821693835f52805f20915f5b86811061121657508360019596106111fe575b505050811b0190556111bd565b01515f1960f88460031b161c191690558380806111f1565b919260206001819286850151815501940192016111de565b8181111561118f57825f5260205f20601f830160051c9060208410611277575b81601f9101920160051c03905f5b82811061126a57505061118f565b5f8282015560010161125c565b5f915061124e565b015190508780611149565b90601f19871691835f52815f20925f5b8181106112d857509160019391896006999a94106112c0575b505050811b01905561115d565b01515f1960f88460031b161c191690558780806112b3565b9293602060018192878601518155019501930161129a565b8681111561112c57825f5260205f20601f880160051c9060208910611339575b81601f9101920160051c03905f5b82811061132c57505061112c565b5f8282015560010161131e565b5f9150611310565b0151905087806110f0565b5f8581528281209350601f198516905b818110611397575090846001959493921061137f575b505050811b019055611104565b01515f1960f88460031b161c19169055878080611372565b9293602060018192878601518155019501930161135c565b828111156110da57909150835f5260205f20601f840160051c9060208510611400575b849392601f0160051c82900391015f5b8281106113f05750506110da565b5f818301558594506001016113e2565b5f91506113d2565b50609682111561108e565b6064915011158761107f565b6064915011158761106a565b346102d15760203660031901126102d1576105af611447612e88565b61144f614198565b5f5160206146e95f395f51905f525f5260096020527f890646ee67fad0c54d5500dcc8a33960d54b2779af84e17bd345b29384faeea65461148f90614207565b614241565b346102d15760203660031901126102d1576004356001600160401b0381116102d1576114dd60206114ca819336906004016130ae565b8160405193828580945193849201612e42565b8101600c81520301902054604051908152f35b346102d15760203660031901126102d1576105af61150c612e88565b611514614198565b5f5160206146e95f395f51905f525f5260096020527f890646ee67fad0c54d5500dcc8a33960d54b2779af84e17bd345b29384faeea65461155490614207565b614365565b346102d15761156736612eb4565b905f52601160205260405f209081548110156102d1576115869161324c565b5080546001600160a01b031660026115a060018401612fbd565b9201546115bf6040519384938452606060208501526060840190612e63565b9060408301520390f35b346102d1575f3660031901126102d15760206040517fa49807205ce4d355092ef5a8a18f56e8913cf4a201fbe287825b095693c217758152f35b346102d15760203660031901126102d1576001600160a01b03611624612e88565b168015611641575f526003602052602060405f2054604051908152f35b6322718ad960e21b5f525f60045260245ffd5b346102d15760a03660031901126102d1576004356001600160401b0381116102d1576116849036906004016130ae565b6024356001600160401b0381116102d1576116a39036906004016130ae565b906044356001600160401b0381116102d1576116c39036906004016130ae565b906064356001600160401b0381116102d1576116e39036906004016130ae565b608435908115158092036102d1576116f961415d565b611701614178565b335f52600b60205260405f20549361171a8515156132fa565b83511561185a578551801515908161184e575b5015611815578051156117d957815180151590816117cd575b5015611790576111bd95600a549561175d87613441565b600a5561176a873361447a565b6117748688614556565b5f52600d602052600760405f2001946040519661058988612f66565b60405162461bcd60e51b8152602060048201526015602482015274121bdcdc1a5d185b081b985b59481a5b9d985b1a59605a1b6044820152606490fd5b60ff9150111587611746565b60405162461bcd60e51b8152602060048201526014602482015273149958dbdc990819185d19481c995c5d5a5c995960621b6044820152606490fd5b60405162461bcd60e51b8152602060048201526011602482015270119a5b19481b985b59481a5b9d985b1a59607a1b6044820152606490fd5b60ff915011158761172d565b60405162461bcd60e51b815260206004820152601260248201527112541194c81a185cda081c995c5d5a5c995960721b6044820152606490fd5b346102d15760203660031901126102d15760206118b2600435614129565b6040516001600160a01b039091168152f35b346102d1575f3660031901126102d157602060ff600854166040519015158152f35b346102d1575f3660031901126102d1576118fe614198565b61190661415d565b600160ff1960085416176008557f62e78cea01bee320cd4e420270b5ea74000d11b0c9f74754ebdbfc544b05a2586020604051338152a1005b346102d1576105af611950366130cc565b9060405192611960602085612f9c565b5f8452613c41565b346102d15760203660031901126102d157600435801515806119f6575b61198e90613622565b5f52601160205260405f2080546119a481613265565b916119b26040519384612f9c565b81835260208301905f5260205f205f915b8383106119d857604051806102c187826131c9565b600360206001926119e885613739565b8152019201920191906119c3565b50600e54811115611985565b346102d15760403660031901126102d157611a1b612e9e565b336001600160a01b03821603611a37576105af906004356143f6565b63334bd91960e11b5f5260045ffd5b346102d15760203660031901126102d157600435606060e0604051611a6a81612f4a565b5f81528260208201528260408201525f838201528260808201525f60a08201528260c0820152015280151580611be0575b611aa490613622565b5f52600d60205261012060405f206102c1604051611ac181612f4a565b82548152611bcc611ad460018501612fbd565b93602083019485528260ff611bb2611aee60028501612fbd565b6040840190815260038501546001600160a01b03166060850190815290611b90611b1a60048801612fbd565b9160808701928352611b7d611b5260078860058c0154169a60a08b019b8c5260c0611b4760068301612fbd565b9b019a8b52016136e3565b9a60e081019b8c526040519e8f9e8f9260208452516020840152519161010060408201520190612e63565b90518c8203601f190160608e0152612e63565b91516001600160a01b031660808b015251898203601f190160a08b0152612e63565b92511660c087015251858203601f190160e0870152612e63565b9051838203601f1901610100850152613171565b50600e54811115611a9b565b346102d15760403660031901126102d1576105af600435611c0b612e9e565b90611c25610700825f526009602052600160405f20015490565b6142d9565b346102d15760203660031901126102d1576004355f52600f60205260405f20805490611c5582613265565b91611c636040519384612f9c565b8083526020830180925f5260205f205f915b838310611d2857848660405191829160208301906020845251809152604083019060408160051b85010192915f905b828210611cb357505050500390f35b91936001919395506020611d188192603f198a82030186528851906060611d07611ce68451608085526080850190612e63565b888060a01b0387860151168785015260408501518482036040860152612e63565b920151906060818403910152612e63565b9601920192018594939192611ca4565b60046020600192604051611d3b81612f2f565b611d4486612fbd565b8152848060a01b03858701541683820152611d6160028701612fbd565b6040820152611d7260038701612fbd565b6060820152815201920192019190611c75565b346102d157611d9336612eb4565b611d9b6135ef565b5081151580611e38575b611dae90613622565b815f52600d602052600760405f200154811015611dfd57611de3611de9916102c1935f52600d602052600760405f2001613663565b5061367c565b604051918291602083526020830190613106565b60405162461bcd60e51b8152602060048201526013602482015272496e646578206f7574206f6620626f756e647360681b6044820152606490fd5b50600e54821115611da5565b346102d15760203660031901126102d1576020611e6f6004355f526009602052600160405f20015490565b604051908152f35b346102d15760203660031901126102d1576001600160a01b03611e98612e88565b165f52600b602052602060405f2054604051908152f35b346102d1576105af611ec0366130cc565b9161344f565b346102d15760a03660031901126102d1576004356001600160401b0381116102d157611ef69036906004016130ae565b6024356001600160401b0381116102d157611f159036906004016130ae565b6044356001600160401b0381116102d157611f349036906004016130ae565b9160643560ff81168091036102d1576084356001600160401b0381116102d157611f629036906004016130ae565b92611f6b61415d565b335f52600b60205260405f2054612584576040519280519360208181840196611f9581838a612e42565b8101600c815203019020546125465780516003811015908161253a575b50156124f557602093611fcf835180151590816124e9575061333f565b611fe3875180151590816124dd5750613381565b831515806124d2575b611ff5906133c4565b612001865115156133fe565b61200c600e54613441565b80600e55335f52600b865260405f2055612036600e54958692604051809381928751928391612e42565b8101600c81520301902055835f52600d60205260405f2093845560018401908051906001600160401b038211610c435781906120728454612ef7565b601f8111612479575b50602090601f8311600114612416575f9261240b575b50508160011b915f199060031b1c19161790555b805160028401916001600160401b038211610c435781906120c68454612ef7565b601f81116123b2575b50602090601f831160011461234f575f92612344575b50508160011b915f199060031b1c19161790555b6003820180546001600160a01b0319163317905583519360048301906001600160401b038611610c435761212d8254612ef7565b601f81116122f3575b50602090601f871160011461228d57958091600696975f92612282575b50508160011b915f199060031b1c19161790555b600582019060ff198254161790550181516001600160401b038111610c43576121908254612ef7565b601f8111612231575b50602092601f82116001146121d557928192935f926121ca575b50505f19600383901b1c191660019190911b179055005b0151905083806121b3565b601f19821693835f52805f20915f5b8681106122195750836001959610612201575b505050811b019055005b01515f1960f88460031b161c191690558380806121f7565b919260206001819286850151815501940192016121e4565b8181111561219957825f5260205f20601f830160051c906020841061227a575b81601f9101920160051c03905f5b82811061226d575050612199565b5f8282015560010161225f565b5f9150612251565b015190508780612153565b90601f19871691835f52815f20925f5b8181106122db57509160019391896006999a94106122c3575b505050811b019055612167565b01515f1960f88460031b161c191690558780806122b6565b9293602060018192878601518155019501930161229d565b8681111561213657825f5260205f20601f880160051c906020891061233c575b81601f9101920160051c03905f5b82811061232f575050612136565b5f82820155600101612321565b5f9150612313565b0151905087806120e5565b5f8581528281209350601f198516905b81811061239a5750908460019594939210612382575b505050811b0190556120f9565b01515f1960f88460031b161c19169055878080612375565b9293602060018192878601518155019501930161235f565b828111156120cf57909150835f5260205f20601f840160051c9060208510612403575b849392601f0160051c82900391015f5b8281106123f35750506120cf565b5f818301558594506001016123e5565b5f91506123d5565b015190508880612091565b5f8581528281209350601f198516905b8181106124615750908460019594939210612449575b505050811b0190556120a5565b01515f1960f88460031b161c1916905588808061243c565b92936020600181928786015181550195019301612426565b8281111561207b57909150835f5260205f20601f840160051c90602085106124ca575b849392601f0160051c82900391015f5b8281106124ba57505061207b565b5f818301558594506001016124ac565b5f915061249c565b506096841115611fec565b6064915011158961107f565b6064915011158961106a565b60405162461bcd60e51b815260206004820152601760248201527f557365726e616d65206c656e67746820696e76616c69640000000000000000006044820152606490fd5b601e9150111587611fb2565b60405162461bcd60e51b81526020600482015260166024820152752ab9b2b93730b6b29030b63932b0b23c903a30b5b2b760511b6044820152606490fd5b60405162461bcd60e51b815260206004820152601a60248201527f50617469656e7420616c726561647920726567697374657265640000000000006044820152606490fd5b346102d15760803660031901126102d1576004356001600160401b0381116102d1576125f99036906004016130ae565b612601612e9e565b6044356001600160401b0381116102d1576126209036906004016130ae565b916064356001600160401b0381116102d1576126409036906004016130ae565b9161264961415d565b612651614178565b335f52600b60205260405f20549061266a8215156132fa565b61267e8351801515908161141f575061333f565b6001600160a01b0316908115612a825784518015159081612a76575b5015612a3a575f52600f60205260405f20604051926126b884612f2f565b83526020830191825260408301948552606083019384528054600160401b811015610c43576126ec91600182018155612eca565b929092610c5757518051906001600160401b038211610c435781906127118554612ef7565b601f81116129e1575b50602090601f831160011461297e575f92612973575b50508160011b915f199060031b1c19161782555b516001820180546001600160a01b0319166001600160a01b03929092169190911790559151805190929060028201906001600160401b038111610c435761278b8254612ef7565b601f8111612922575b506020601f82116001146128be578190600395965f926128b3575b50508160011b915f1990861b1c19161790555b0190519081516001600160401b038111610c43576127e08254612ef7565b601f8111612862575b50602092601f821160011461281c57928192935f926111c45750508160011b915f199060031b1c19161790556001600755005b601f19821693835f52805f20915f5b86811061284a57508360019596106111fe57505050811b0190556111bd565b9192602060018192868501518155019401920161282b565b818111156127e957825f5260205f20601f830160051c90602084106128ab575b81601f9101920160051c03905f5b82811061289e5750506127e9565b5f82820155600101612890565b5f9150612882565b0151905086806127af565b601f19821695835f52815f20965f5b81811061290a57509160039697918460019594106128f3575b505050811b0190556127c2565b01515f1983881b60f8161c191690558680806128e6565b838301518955600190980197602093840193016128cd565b8181111561279457825f5260205f20601f830160051c906020841061296b575b81601f9101920160051c03905f5b82811061295e575050612794565b5f82820155600101612950565b5f9150612942565b015190508680612730565b5f8681528281209350601f198516905b8181106129c957509084600195949392106129b1575b505050811b018255612744565b01515f1960f88460031b161c191690558680806129a4565b9293602060018192878601518155019501930161298e565b8281111561271a57909150845f5260205f20601f840160051c9060208510612a32575b849392601f0160051c82900391015f5b828110612a2257505061271a565b5f81830155859450600101612a14565b5f9150612a04565b60405162461bcd60e51b815260206004820152601460248201527314995b185d1a5bdb9cda1a5c081a5b9d985b1a5960621b6044820152606490fd5b6032915011158661269a565b60405162461bcd60e51b8152602060048201526016602482015275496e76616c69642077616c6c6574206164647265737360501b6044820152606490fd5b346102d15760203660031901126102d157335f52600b60205260405f2054612ae98115156132fa565b5f52601060205260043560405f20555f80f35b346102d15760203660031901126102d1576001600160a01b03612b1d612e88565b165f52600b602052602060405f20541515604051908152f35b346102d157612b4436612eb4565b905f52600f60205260405f2080548210156102d157612bb591612b6691612eca565b506102c1612b7382612fbd565b6001830154909290612bc8906001600160a01b0316612ba06003612b9960028601612fbd565b9401612fbd565b92604051968796608088526080880190612e63565b9160208701528582036040870152612e63565b908382036060850152612e63565b346102d15760403660031901126102d157612bef612e88565b602435612bfb81614129565b33151580612cad575b80612c80575b612c6d5781906001600160a01b0384811691167f8c5be1e5ebec7d5bd14f71427d1e84f3dd0314c0f7b2291e5b200ac8c7c3b9255f80a45f90815260046020526040902080546001600160a01b0319166001600160a01b03909216919091179055005b63a9fbf51f60e01b5f523360045260245ffd5b506001600160a01b0381165f90815260056020908152604080832033845290915290205460ff1615612c0a565b506001600160a01b038116331415612c04565b346102d15760203660031901126102d157600435612cdd81614129565b505f526004602052602060018060a01b0360405f205416604051908152f35b346102d1575f3660031901126102d1576040515f5f54612d1b81612ef7565b8084529060018116908115610ea55750600114612d42576102c18361089881850382612f9c565b5f8080527f290decd9548b62a8d60345a988386fc84ba6bc95484008f6362f93160ef3e563939250905b808210612d8457509091508101602001610898610e37565b919260018160209254838588010152019101909291612d6c565b346102d15760203660031901126102d1576004359063ffffffff60e01b82168092036102d157602091632483248360e11b81148015612e0b575b80918115612de9575b505015158152f35b637965db0b60e01b1491508115612e03575b508380612de1565b905083612dfb565b506380ac58cd60e01b81148015612e32575b80612dd857506301ffc9a760e01b8114612dd8565b50635b5e139f60e01b8114612e1d565b5f5b838110612e535750505f910152565b8181015183820152602001612e44565b90602091612e7c81518092818552858086019101612e42565b601f01601f1916010190565b600435906001600160a01b03821682036102d157565b602435906001600160a01b03821682036102d157565b60409060031901126102d1576004359060243590565b8054821015612ee3575f5260205f209060021b01905f90565b634e487b7160e01b5f52603260045260245ffd5b90600182811c92168015612f25575b6020831014612f1157565b634e487b7160e01b5f52602260045260245ffd5b91607f1691612f06565b608081019081106001600160401b03821117610c4357604052565b61010081019081106001600160401b03821117610c4357604052565b60c081019081106001600160401b03821117610c4357604052565b606081019081106001600160401b03821117610c4357604052565b90601f801991011681019081106001600160401b03821117610c4357604052565b9060405191825f825492612fd084612ef7565b808452936001811690811561303b5750600114612ff7575b50612ff592500383612f9c565b565b90505f9291925260205f20905f915b81831061301f575050906020612ff5928201015f612fe8565b6020919350806001915483858901015201910190918492613006565b905060209250612ff594915060ff191682840152151560051b8201015f612fe8565b6001600160401b038111610c4357601f01601f191660200190565b9291926130848261305d565b916130926040519384612f9c565b8294818452818301116102d1578281602093845f960137010152565b9080601f830112156102d1578160206130c993359101613078565b90565b60609060031901126102d1576004356001600160a01b03811681036102d157906024356001600160a01b03811681036102d1579060443590565b908151815260a080613166613154613142613130602088015160c0602089015260c0880190612e63565b60408801518782036040890152612e63565b60608701518682036060880152612e63565b60808601518582036080870152612e63565b930151151591015290565b9080602083519182815201916020808360051b8301019401925f915b83831061319c57505050505090565b90919293946020806131ba600193601f198682030187528951613106565b9701930193019193929061318d565b602081016020825282518091526040820191602060408360051b8301019401925f915b8383106131fb57505050505090565b9091929394602080600192603f19858203018652885190848060a01b038251168152604080613237858501516060878601526060850190612e63565b930151910152970193019301919392906131ec565b8054821015612ee3575f52600360205f20910201905f90565b6001600160401b038111610c435760051b60200190565b9080601f830112156102d157813561329381613265565b926132a16040519485612f9c565b81845260208085019260051b820101918383116102d15760208201905b8382106132cd57505050505090565b81356001600160401b0381116102d1576020916132ef878480948801016130ae565b8152019101906132be565b1561330157565b60405162461bcd60e51b815260206004820152601660248201527514185d1a595b9d081b9bdd081c9959da5cdd195c995960521b6044820152606490fd5b1561334657565b60405162461bcd60e51b815260206004820152601360248201527213985b59481b195b99dd1a081a5b9d985b1a59606a1b6044820152606490fd5b1561338857565b60405162461bcd60e51b8152602060048201526014602482015273115b585a5b081b195b99dd1a081a5b9d985b1a5960621b6044820152606490fd5b156133cb57565b60405162461bcd60e51b815260206004820152600b60248201526a1059d9481a5b9d985b1a5960aa1b6044820152606490fd5b1561340557565b60405162461bcd60e51b8152602060048201526014602482015273109b1bdbd90819dc9bdd5c081c995c5d5a5c995960621b6044820152606490fd5b5f198114610ddf5760010190565b6001600160a01b03909116919082156135dc575f828152600260205260409020546001600160a01b031692829033151580613547575b5084613514575b805f52600360205260405f2060018154019055815f52600260205260405f20816bffffffffffffffffffffffff60a01b825416179055847fddf252ad1be2c89b69c2b068fc378daa952ba7f163c4a11628f55a4df523b3ef5f80a46001600160a01b03168083036134fc57505050565b6364283d7b60e01b5f5260045260245260445260645ffd5b5f82815260046020526040902080546001600160a01b0319169055845f52600360205260405f205f19815401905561348c565b9091508061358b575b1561355d5782905f613485565b828461357557637e27328960e01b5f5260045260245ffd5b63177e802f60e01b5f523360045260245260445ffd5b5033841480156135ba575b8061355057505f838152600460205260409020546001600160a01b03163314613550565b505f84815260056020908152604080832033845290915290205460ff16613596565b633250574960e11b5f525f60045260245ffd5b604051906135fc82612f66565b5f60a0838281526060602082015260606040820152606080820152606060808201520152565b1561362957565b60405162461bcd60e51b8152602060048201526012602482015271125b9d985b1a59081c185d1a595b9d08125160721b6044820152606490fd5b8054821015612ee3575f52600660205f20910201905f90565b9060405161368981612f66565b60a060ff60058395805485526136a160018201612fbd565b60208601526136b260028201612fbd565b60408601526136c360038201612fbd565b60608601526136d460048201612fbd565b60808601520154161515910152565b9081546136ef81613265565b926136fd6040519485612f9c565b81845260208401905f5260205f205f915b83831061371b5750505050565b6006602060019261372b8561367c565b81520192019201919061370e565b9060405161374681612f81565b82546001600160a01b0316815291829060409060029061376860018201612fbd565b60208501520154910152565b8054600160401b811015610c435761379191600182018155613663565b919091610c5757805182556001820160208201518051906001600160401b038211610c435781906137c28454612ef7565b601f8111613be8575b50602090601f8311600114613b85575f92613b7a575b50508160011b915f199060031b1c19161790555b6002820160408201518051906001600160401b038211610c4357819061381b8454612ef7565b601f8111613b21575b50602090601f8311600114613abe575f92613ab3575b50508160011b915f199060031b1c19161790555b6003820160608201518051906001600160401b038211610c435781906138748454612ef7565b601f8111613a5a575b50602090601f83116001146139f7575f926139ec575b50508160011b915f199060031b1c19161790555b6004820160808201518051906001600160401b038211610c43576138cb8354612ef7565b601f811161399b575b50602090601f831160011461392e57928260a093612ff59796936005965f92613923575b50508160011b915f199060031b1c19161790555b0151151591019060ff801983541691151516179055565b015190505f806138f8565b90601f19831691845f52815f20925f5b818110613983575093612ff5979693600596936001938360a0981061396b575b505050811b01905561390c565b01515f1960f88460031b161c191690555f808061395e565b9293602060018192878601518155019501930161393e565b828111156138d457835f5260205f20601f840160051c90602085106139e4575b81601f9101920160051c03905f5b8281106139d75750506138d4565b5f828201556001016139c9565b5f91506139bb565b015190505f80613893565b5f8581528281209350601f198516905b818110613a425750908460019594939210613a2a575b505050811b0190556138a7565b01515f1960f88460031b161c191690555f8080613a1d565b92936020600181928786015181550195019301613a07565b8281111561387d57909150835f5260205f20601f840160051c9060208510613aab575b849392601f0160051c82900391015f5b828110613a9b57505061387d565b5f81830155859450600101613a8d565b5f9150613a7d565b015190505f8061383a565b5f8581528281209350601f198516905b818110613b095750908460019594939210613af1575b505050811b01905561384e565b01515f1960f88460031b161c191690555f8080613ae4565b92936020600181928786015181550195019301613ace565b8281111561382457909150835f5260205f20601f840160051c9060208510613b72575b849392601f0160051c82900391015f5b828110613b62575050613824565b5f81830155859450600101613b54565b5f9150613b44565b015190505f806137e1565b5f8581528281209350601f198516905b818110613bd05750908460019594939210613bb8575b505050811b0190556137f5565b01515f1960f88460031b161c191690555f8080613bab565b92936020600181928786015181550195019301613b95565b828111156137cb57909150835f5260205f20601f840160051c9060208510613c39575b849392601f0160051c82900391015f5b828110613c295750506137cb565b5f81830155859450600101613c1b565b5f9150613c0b565b9291613c4e81838661344f565b813b613c5b575b50505050565b604051630a85bd0160e11b81523360048201526001600160a01b0394851660248201526044810191909152608060648201529216919060209082908190613ca6906084830190612e63565b03815f865af15f9181613d3c575b50613d0957503d15613d02573d613cca8161305d565b90613cd86040519283612f9c565b81523d5f602083013e5b80519081613cfd5782633250574960e11b5f5260045260245ffd5b602001fd5b6060613ce2565b6001600160e01b03191663757a42ff60e11b01613d2a57505f808080613c55565b633250574960e11b5f5260045260245ffd5b9091506020813d602011613d79575b81613d5860209383612f9c565b810103126102d157516001600160e01b0319811681036102d157905f613cb4565b3d9150613d4b565b613d8a81614129565b505f526006602052613d9e60405f20612fbd565b5f604051613dad602082612f9c565b5290565b15613db857565b60405162461bcd60e51b815260206004820152600f60248201526e098cadccee8d040dad2e6dac2e8c6d608b1b6044820152606490fd5b8051821015612ee35760209160051b010190565b6001600160a01b03165f908152600b60205260409020548015613ef457908160e0925f52600d60205260405f20604051613e3c81612f4a565b81548152613e4c60018301612fbd565b6020820152613eb26007613e6260028501612fbd565b6040840190815260038501546001600160a01b0316606085015293613e8960048201612fbd565b608085015260ff60058201541660a0850152613ea760068201612fbd565b60c0850152016136e3565b948591015251925191815f52600f60205260405f20549193929190600190604051613ede604082612f9c565b600681526541435449564560d01b602082015290565b505f90604051613f05602082612f9c565b5f8152905f905f905f90604051613f1d604082612f9c565b600e81526d1393d517d49151d254d51154915160921b602082015290565b60405190613f4a602083612f9c565b5f80835282815b828110613f5d57505050565b602090613f686135ef565b82828501015201613f51565b90613f7e82613265565b613f8b6040519182612f9c565b8281528092613f9c601f1991613265565b01905f5b828110613fac57505050565b602090613fb76135ef565b82828501015201613fa0565b91908201809211610ddf57565b80151580614061575b613fe290613622565b5f52600d602052600760405f20018054918215614056575f908381111561404d5750505f91905b61401282613f74565b925b8281106140215750505090565b600190614031611de38285613663565b61403b8287613def565b526140468186613def565b5001614014565b90925090614009565b5050506130c9613f3b565b50600e54811115613fd9565b9190918015158061411d575b61408290613622565b5f52600d602052600760405f2001908154908184101561411157816140a78286613fc3565b11156141095750828103908111610ddf57905b6140c382613f74565b925f5b8381106140d4575050505090565b806140ed611de36140e760019486613fc3565b86613663565b6140f78288613def565b526141028187613def565b50016140c6565b9050906140ba565b505050506130c9613f3b565b50600e54811115614079565b5f818152600260205260409020546001600160a01b031690811561414b575090565b637e27328960e01b5f5260045260245ffd5b60ff6008541661416957565b63d93c066560e01b5f5260045ffd5b600260075414614189576002600755565b633ee5aeb560e01b5f5260045ffd5b335f9081527f5e421a728e346ccaf4d82870ec53d59217a30d3483c6688054a2a67760f2138c602052604090205460ff16156141d057565b63e2517d3f60e01b5f52336004527fa49807205ce4d355092ef5a8a18f56e8913cf4a201fbe287825b095693c2177560245260445ffd5b5f81815260096020908152604080832033845290915290205460ff161561422b5750565b63e2517d3f60e01b5f523360045260245260445ffd5b6001600160a01b0381165f9081525f5160206146c95f395f51905f52602052604090205460ff166142d4576001600160a01b03165f8181525f5160206146c95f395f51905f5260205260408120805460ff191660011790553391905f5160206146e95f395f51905f52907f2f8788117e7eff1d82e926ec794901d17c78024a50270940304540a733656f0d9080a4600190565b505f90565b5f8181526009602090815260408083206001600160a01b038616845290915290205460ff1661435f575f8181526009602090815260408083206001600160a01b0395909516808452949091528120805460ff19166001179055339291907f2f8788117e7eff1d82e926ec794901d17c78024a50270940304540a733656f0d9080a4600190565b50505f90565b6001600160a01b0381165f9081525f5160206146c95f395f51905f52602052604090205460ff16156142d4576001600160a01b03165f8181525f5160206146c95f395f51905f5260205260408120805460ff191690553391905f5160206146e95f395f51905f52907ff6391f5c32d9c69d2a47ea670b442974b53935d1edc7fd64eb21e047a839171b9080a4600190565b5f8181526009602090815260408083206001600160a01b038616845290915290205460ff161561435f575f8181526009602090815260408083206001600160a01b0395909516808452949091528120805460ff19169055339291907ff6391f5c32d9c69d2a47ea670b442974b53935d1edc7fd64eb21e047a839171b9080a4600190565b6001600160a01b03169081156135dc575f818152600260205260409020546001600160a01b03168015159290919083614523575b805f52600360205260405f2060018154019055815f52600260205260405f20816bffffffffffffffffffffffff60a01b825416179055827fddf252ad1be2c89b69c2b068fc378daa952ba7f163c4a11628f55a4df523b3ef5f80a45061451057565b6339e3563760e11b5f525f60045260245ffd5b5f82815260046020526040902080546001600160a01b0319169055825f52600360205260405f205f1981540190556144ae565b919091805f52600660205260405f2083516001600160401b038111610c435761457f8254612ef7565b601f8111614677575b506020601f82116001146145ef57908060209493927ff8e1a15aba9398e019f0b49df1a4fde98ee17ae345cb5f6b5e2c27f5033e8ce796975f926145e4575b50508160011b915f199060031b1c19161790555b604051908152a1565b015190505f806145c7565b601f19821695835f52815f20965f5b81811061465f575096600192849260209796957ff8e1a15aba9398e019f0b49df1a4fde98ee17ae345cb5f6b5e2c27f5033e8ce7999a10614647575b505050811b0190556145db565b01515f1960f88460031b161c191690555f808061463a565b838301518955600190980197602093840193016145fe565b8181111561458857825f5260205f20601f830160051c90602084106146c0575b81601f9101920160051c03905f5b8281106146b3575050614588565b5f828201556001016146a5565b5f915061469756fe890646ee67fad0c54d5500dcc8a33960d54b2779af84e17bd345b29384faeea5fec7cd74e5c65b641d49ecc2e89f646c7c0bcae85dc50f9616bf9c798cedda8ba2646970667358221220eab7010c43e3e4cfc91bffebaf6e4070bd28df1650f2196289e708b2af65ac9064736f6c634300082200332f8788117e7eff1d82e926ec794901d17c78024a50270940304540a733656f0dec8156718a8372b1db44bb411437d0870f3e3790d4a08526d024ce1b0b668f6b5e421a728e346ccaf4d82870ec53d59217a30d3483c6688054a2a67760f2138c",
  "immutableReferences": {},
  "source": "// SPDX-License-Identifier: MIT\npragma solidity ^0.8.20;\n\nimport \"@openzeppelin/contracts/token/ERC721/extensions/ERC721URIStorage.sol\";\nimport \"@openzeppelin/contracts/utils/ReentrancyGuard.sol\";\nimport \"@openzeppelin/contracts/utils/Pausable.sol\";\nimport \"@openzeppelin/contracts/access/AccessControl.sol\";\n\n/**\n * @title Patient\n * @dev Contract for managing patient data, medical records, and emergency access.\n * @notice Extends ERC721 for medical record NFTs. Patients control their data and can grant/revoke access.\n */\ncontract Patient is ERC721URIStorage, ReentrancyGuard, Pausable, AccessControl {\n    bytes32 public constant ADMIN_ROLE = keccak256(\"ADMIN_ROLE\");\n    bytes32 public constant INSURANCE_ROLE = keccak256(\"INSURANCE_ROLE\");\n\n    /// @dev Counter for generating unique NFT token IDs\n    uint256 private _nextTokenId;\n\n    /// @notice Mapping from wallet address to patient ID\n    mapping(address => uint256) public walletToPatientId;\n    \n    /// @notice Mapping from username to patient ID (for friendly lookups)\n    mapping(string => uint256) public usernameToPatientId;\n\n    /**\n     * @dev See {IERC165-supportsInterface}.\n     */\n    function supportsInterface(bytes4 interfaceId) public view virtual override(ERC721URIStorage, AccessControl) returns (bool) {\n        return ERC721URIStorage.supportsInterface(interfaceId) || AccessControl.supportsInterface(interfaceId);\n    }\n\n    /**\n     * @dev Struct representing a medical record.\n     * @notice Contains metadata about a medical document stored on IPFS.\n     */\n    struct MedicalRecord {\n        uint256 tokenId;\n        string ipfsHash;\n        string fileName;\n        string recordDate;\n        string hospital;\n        bool isEmergencyViewable;\n    }\n\n    /**\n     * @dev Struct containing patient profile information.\n     */\n    struct PatientDetails {\n        uint256 patientId;\n        string username;\n        string name;\n        address walletAddress;\n        string email;\n        uint8 age;\n        string bloodGroup;\n        MedicalRecord[] medicalRecords;\n    }\n\n    /// @notice Mapping from patient ID to PatientDetails\n    mapping(uint256 => PatientDetails) public patients;\n    \n    /// @dev Counter for assigning unique patient IDs\n    uint256 private patientIdCounter;\n\n    /**\n     * @dev Struct representing an emergency nominee.\n     * @notice Used for emergency contact purposes.\n     */\n    struct Nominee {\n        string name;\n        address walletAddress;\n        string relationship;\n        string contactNumber;\n    }\n\n    /// @notice Mapping from patient ID to list of nominees\n    mapping(uint256 => Nominee[]) public patientNominees;\n    \n    /// @notice Mapping from patient ID to emergency access hash (for magic link verification)\n    mapping(uint256 => bytes32) public emergencyAccessHashes;\n\n    /**\n     * @dev Struct for logging emergency access events.\n     */\n    struct AccessLog {\n        address accessor;\n        string reason;\n        uint256 timestamp;\n    }\n\n    /// @notice Mapping from patient ID to emergency access logs\n    mapping(uint256 => AccessLog[]) public emergencyAccessLogs;\n\n    // Events\n\n    /// @notice Emitted when a patient registers\n    /// @param patientId The patient's unique ID\n    /// @param wallet The patient's wallet address\n    /// @param name The patient's name\n    event PatientRegistered(uint256 indexed patientId, address indexed wallet, string name);\n\n    /// @notice Emitted when a medical record is added\n    /// @param patientId The patient's unique ID\n    /// @param tokenId The NFT token ID\n    /// @param ipfsHash The IPFS hash\n    event RecordAdded(uint256 indexed patientId, uint256 indexed tokenId, string ipfsHash);\n\n    /// @notice Emitted when emergency access is logged for audit purposes\n    /// @param patientId The patient's unique ID\n    /// @param accessor The address that accessed the records\n    /// @param reason Reason for emergency access\n    /// @param timestamp Time of access\n    event EmergencyAccessLogged(uint256 indexed patientId, address indexed accessor, string reason, uint256 timestamp);\n\n    /**\n     * @dev Checks if a wallet address belongs to a registered patient.\n     * @param walletAddress The address to check.\n     * @return True if the address belongs to a registered patient.\n     */\n    function userExists(address walletAddress) public view returns (bool) {\n        return walletToPatientId[walletAddress] != 0;\n    }\n\n    /**\n     * @dev Sets the emergency access hash for the calling patient.\n     * @param _hash Hash generated for emergency magic link verification.\n     * @notice Caller must be a registered patient.\n     */\n    function setEmergencyAccessHash(bytes32 _hash) public {\n        uint256 patientId = walletToPatientId[msg.sender];\n        require(patientId != 0, \"Patient not registered\");\n        emergencyAccessHashes[patientId] = _hash;\n    }\n\n    /**\n     * @dev Verifies if a given hash matches the patient's emergency access hash.\n     * @param _patientId The patient's unique ID.\n     * @param _hash The hash to verify.\n     * @return True if the hash matches.\n     */\n    function verifyEmergencyHash(uint256 _patientId, bytes32 _hash) public view returns (bool) {\n        return emergencyAccessHashes[_patientId] == _hash;\n    }\n\n    /**\n     * @dev Step 1: Logs an emergency \"Break-Glass\" access event for audit trail.\n     * @param _patientId The patient's unique ID.\n     * @param _reason Reason for the emergency access.\n     * @notice Creates an immutable log of who accessed what and why.\n     */\n    function logEmergencyAccess(uint256 _patientId, string memory _reason) public {\n        emergencyAccessLogs[_patientId].push(AccessLog({\n            accessor: msg.sender,\n            reason: _reason,\n            timestamp: block.timestamp\n        }));\n        emit EmergencyAccessLogged(_patientId, msg.sender, _reason, block.timestamp);\n    }\n\n    /**\n     * @dev Step 2: Retrieves the audit trail (access logs) for a patient.\n     * @param _patientId The patient's unique ID.\n     * @return Array of AccessLog structs.\n     * @notice Used for compliance and audit purposes.\n     */\n    function getAccessLogs(uint256 _patientId) public view returns (AccessLog[] memory) {\n        return emergencyAccessLogs[_patientId];\n    }\n\n    /**\n     * @dev Constructor that initializes the ERC721 token with name and symbol.\n     */\n    constructor() ERC721(\"MediSecure Record\", \"MEDREC\") {\n        _grantRole(DEFAULT_ADMIN_ROLE, msg.sender);\n        _grantRole(ADMIN_ROLE, msg.sender);\n    }\n\n    modifier onlyRegisteredPatient() {\n        require(walletToPatientId[msg.sender] != 0, \"Patient not registered\");\n        _;\n    }\n\n    function pauseContract() public onlyRole(ADMIN_ROLE) {\n        _pause();\n    }\n\n    function unpauseContract() public onlyRole(ADMIN_ROLE) {\n        _unpause();\n    }\n\n    function grantInsuranceRole(address _insurance) public onlyRole(ADMIN_ROLE) {\n        grantRole(INSURANCE_ROLE, _insurance);\n    }\n\n    function revokeInsuranceRole(address _insurance) public onlyRole(ADMIN_ROLE) {\n        revokeRole(INSURANCE_ROLE, _insurance);\n    }\n\n    /**\n     * @dev Registers a new patient in the system.\n     * @param _username Unique username for the patient.\n     * @param _name Patient's full name.\n     * @param _email Patient's email address.\n     * @param _age Patient's age.\n     * @param _bloodGroup Patient's blood group.\n     * @notice Caller must not already be registered. Username must be unique.\n     */\n    function registerPatient(\n        string memory _username,\n        string memory _name,\n        string memory _email,\n        uint8 _age,\n        string memory _bloodGroup\n    ) public whenNotPaused {\n        require(\n            walletToPatientId[msg.sender] == 0,\n            \"Patient already registered\"\n        );\n        require(usernameToPatientId[_username] == 0, \"Username already taken\");\n        require(bytes(_username).length >= 3 && bytes(_username).length <= 30, \"Username length invalid\");\n        require(bytes(_name).length > 0 && bytes(_name).length <= 100, \"Name length invalid\");\n        require(bytes(_email).length > 0 && bytes(_email).length <= 100, \"Email length invalid\");\n        require(_age > 0 && _age <= 150, \"Age invalid\");\n        require(bytes(_bloodGroup).length > 0, \"Blood group required\");\n\n        patientIdCounter++;\n        walletToPatientId[msg.sender] = patientIdCounter;\n        usernameToPatientId[_username] = patientIdCounter;\n\n        PatientDetails storage newPatient = patients[patientIdCounter];\n        newPatient.patientId = patientIdCounter;\n        newPatient.username = _username;\n        newPatient.name = _name;\n        newPatient.walletAddress = msg.sender;\n        newPatient.email = _email;\n        newPatient.age = _age;\n        newPatient.bloodGroup = _bloodGroup;\n    }\n\n    /**\n     * @dev Updates patient profile details.\n     * @param _name Patient's new full name.\n     * @param _email Patient's new email address.\n     * @param _age Patient's new age.\n     * @param _bloodGroup Patient's new blood group.\n     * @notice Caller must be a registered patient.\n     */\n    function updatePatientDetails(\n        string memory _name,\n        string memory _email,\n        uint8 _age,\n        string memory _bloodGroup\n    ) public whenNotPaused nonReentrant {\n        uint256 patientId = walletToPatientId[msg.sender];\n        require(patientId != 0, \"Patient not registered\");\n        require(bytes(_name).length > 0 && bytes(_name).length <= 100, \"Name length invalid\");\n        require(bytes(_email).length > 0 && bytes(_email).length <= 100, \"Email length invalid\");\n        require(_age > 0 && _age <= 150, \"Age invalid\");\n        require(bytes(_bloodGroup).length > 0, \"Blood group required\");\n\n        PatientDetails storage patient = patients[patientId];\n        patient.name = _name;\n        patient.email = _email;\n        patient.age = _age;\n        patient.bloodGroup = _bloodGroup;\n    }\n\n    /**\n     * @dev Adds a nominee (emergency contact) for the patient.\n     * @param _name Nominee's full name.\n     * @param _walletAddress Nominee's wallet address.\n     * @param _relationship Relationship to the patient (e.g., \"spouse\", \"parent\").\n     * @param _contactNumber Nominee's contact number.\n     * @notice Caller must be a registered patient. Multiple nominees allowed.\n     */\n    function addNominee(\n        string memory _name,\n        address _walletAddress,\n        string memory _relationship,\n        string memory _contactNumber\n    ) public whenNotPaused nonReentrant {\n        uint256 patientId = walletToPatientId[msg.sender];\n        require(patientId != 0, \"Patient not registered\");\n        require(bytes(_name).length > 0 && bytes(_name).length <= 100, \"Name length invalid\");\n        require(_walletAddress != address(0), \"Invalid wallet address\");\n        require(bytes(_relationship).length > 0 && bytes(_relationship).length <= 50, \"Relationship invalid\");\n\n        patientNominees[patientId].push(\n            Nominee({\n                name: _name,\n                walletAddress: _walletAddress,\n                relationship: _relationship,\n                contactNumber: _contactNumber\n            })\n        );\n    }\n\n    /**\n     * @dev Retrieves the list of nominees for a patient.\n     * @param _patientId The patient's unique ID.\n     * @return Array of Nominee structs.\n     */\n    function getNominees(\n        uint256 _patientId\n    ) public view returns (Nominee[] memory) {\n        return patientNominees[_patientId];\n    }\n\n    /**\n     * @dev Adds a medical record for the patient and mints an NFT.\n     * @param _ipfsHash IPFS hash of the medical document.\n     * @param _fileName Name of the file.\n     * @param _recordDate Date of the medical record.\n     * @param _hospital Hospital or clinic name.\n     * @param _isEmergencyViewable Whether this record can be accessed in emergencies.\n     * @notice Mints an ERC721 NFT representing the medical record. Caller must be registered.\n     */\n    function addMedicalRecord(\n        string memory _ipfsHash,\n        string memory _fileName,\n        string memory _recordDate,\n        string memory _hospital,\n        bool _isEmergencyViewable\n    ) public whenNotPaused nonReentrant {\n        uint256 patientId = walletToPatientId[msg.sender];\n        require(patientId != 0, \"Patient not registered\");\n        \n        require(bytes(_ipfsHash).length > 0, \"IPFS hash required\");\n        require(bytes(_fileName).length > 0 && bytes(_fileName).length <= 255, \"File name invalid\");\n        require(bytes(_recordDate).length > 0, \"Record date required\");\n        require(bytes(_hospital).length > 0 && bytes(_hospital).length <= 255, \"Hospital name invalid\");\n\n        // Mint NFT\n        uint256 tokenId = _nextTokenId++;\n        _mint(msg.sender, tokenId);\n        _setTokenURI(tokenId, _ipfsHash);\n\n        patients[patientId].medicalRecords.push(\n            MedicalRecord({\n                tokenId: tokenId,\n                ipfsHash: _ipfsHash,\n                fileName: _fileName,\n                recordDate: _recordDate,\n                hospital: _hospital,\n                isEmergencyViewable: _isEmergencyViewable\n            })\n        );\n    }\n\n    /**\n     * @dev Toggles the emergency visibility of a specific medical record.\n     * @param _recordIndex Index of the medical record in the patient's array.\n     * @notice Caller must be a registered patient. Toggles between viewable/non-viewable.\n     */\n    function toggleEmergencyVisibility(uint256 _recordIndex) public {\n        uint256 patientId = walletToPatientId[msg.sender];\n        require(patientId != 0, \"Patient not registered\");\n        require(_recordIndex < patients[patientId].medicalRecords.length, \"Invalid record index\");\n\n        patients[patientId].medicalRecords[_recordIndex].isEmergencyViewable = !patients[patientId].medicalRecords[_recordIndex].isEmergencyViewable;\n    }\n\n    /**\n     * @dev Retrieves detailed information for a specific patient.\n     * @param _patientId The patient's unique ID.\n     * @return PatientDetails struct containing all patient information.\n     * @notice Validates patient ID is within valid range.\n     */\n    function getPatientDetails(\n        uint256 _patientId\n    ) public view returns (PatientDetails memory) {\n        require(\n            _patientId > 0 && _patientId <= patientIdCounter,\n            \"Invalid patient ID\"\n        );\n        return patients[_patientId];\n    }\n\n    /**\n     * @dev Retrieves patient ID from username.\n     * @param _username The username to look up.\n     * @return Patient ID or 0 if not found.\n     * @notice Useful for frontend lookups.\n     */\n    function getPatientIdByUsername(\n        string memory _username\n    ) public view returns (uint256) {\n        return usernameToPatientId[_username];\n    }\n\n    /**\n     * @dev Retrieves all medical records for a patient.\n     * @param _patientId The patient's unique ID.\n     * @return Array of MedicalRecord structs.\n     * @notice Validates patient ID is within valid range.\n     */\n    function getMedicalRecords(\n        uint256 _patientId\n    ) public view returns (MedicalRecord[] memory) {\n        require(\n            _patientId > 0 && _patientId <= patientIdCounter,\n            \"Invalid patient ID\"\n        );\n        return patients[_patientId].medicalRecords;\n    }\n\n    function getPatientSummary(uint256 _patientId) public view returns (\n        uint256 patientId,\n        string memory name,\n        string memory email,\n        uint8 age,\n        string memory bloodGroup,\n        uint256 recordCount,\n        uint256 nomineeCount,\n        bool hasEmergencyHash\n    ) {\n        require(_patientId > 0 && _patientId <= patientIdCounter, \"Invalid patient ID\");\n        PatientDetails memory p = patients[_patientId];\n        return (\n            p.patientId,\n            p.name,\n            p.email,\n            p.age,\n            p.bloodGroup,\n            p.medicalRecords.length,\n            patientNominees[_patientId].length,\n            emergencyAccessHashes[_patientId] != bytes32(0)\n        );\n    }\n\n    function getPatientDashboard(address _wallet) public view returns (\n        uint256 patientId,\n        string memory name,\n        uint256 recordCount,\n        uint256 nomineeCount,\n        bool isRegistered,\n        string memory status\n    ) {\n        patientId = walletToPatientId[_wallet];\n        if (patientId == 0) {\n            return (0, \"\", 0, 0, false, \"NOT_REGISTERED\");\n        }\n        PatientDetails memory p = patients[patientId];\n        return (\n            patientId,\n            p.name,\n            p.medicalRecords.length,\n            patientNominees[patientId].length,\n            true,\n            \"ACTIVE\"\n        );\n    }\n\n    function getMedicalRecordsPaginated(\n        uint256 _patientId,\n        uint256 _offset,\n        uint256 _limit\n    ) public view returns (MedicalRecord[] memory) {\n        require(_patientId > 0 && _patientId <= patientIdCounter, \"Invalid patient ID\");\n        MedicalRecord[] storage allRecords = patients[_patientId].medicalRecords;\n        uint256 length = allRecords.length;\n        if (_offset >= length) return new MedicalRecord[](0);\n        \n        uint256 size = _offset + _limit > length ? length - _offset : _limit;\n        MedicalRecord[] memory result = new MedicalRecord[](size);\n        for (uint256 i = 0; i < size; i++) {\n            result[i] = allRecords[_offset + i];\n        }\n        return result;\n    }\n\n    function getEmergencyLogs(uint256 _patientId) public view returns (AccessLog[] memory) {\n        require(_patientId > 0 && _patientId <= patientIdCounter, \"Invalid patient ID\");\n        return emergencyAccessLogs[_patientId];\n    }\n\n    function getEmergencyAccessDetails(uint256 _patientId) public view returns (\n        bool hasHash,\n        bytes32 hash,\n        uint256 logCount,\n        string memory lastAccessReason,\n        uint256 lastAccessTime\n    ) {\n        require(_patientId > 0 && _patientId <= patientIdCounter, \"Invalid patient ID\");\n        hash = emergencyAccessHashes[_patientId];\n        AccessLog[] storage logs = emergencyAccessLogs[_patientId];\n        uint256 count = logs.length;\n        \n        if (count > 0) {\n            AccessLog memory last = logs[count - 1];\n            lastAccessReason = last.reason;\n            lastAccessTime = last.timestamp;\n        }\n        \n        return (hash != bytes32(0), hash, count, lastAccessReason, lastAccessTime);\n    }\n\n    function getRecentRecords(uint256 _patientId, uint256 _count) public view returns (MedicalRecord[] memory) {\n        return getMedicalRecordsPaginated(_patientId, 0, _count);\n    }\n\n    function getRecordByIndex(uint256 _patientId, uint256 _index) public view returns (MedicalRecord memory) {\n        require(_patientId > 0 && _patientId <= patientIdCounter, \"Invalid patient ID\");\n        require(_index < patients[_patientId].medicalRecords.length, \"Index out of bounds\");\n        return patients[_patientId].medicalRecords[_index];\n    }\n\n    function addMedicalRecordsBatch(\n        string[] memory _ipfsHashes,\n        string[] memory _fileNames,\n        string[] memory _recordDates,\n        string[] memory _hospitals,\n        bool[] memory _emergencyViewable\n    ) public {\n        require(_ipfsHashes.length == _fileNames.length, \"Length mismatch\");\n        require(_ipfsHashes.length == _recordDates.length, \"Length mismatch\");\n        require(_ipfsHashes.length == _hospitals.length, \"Length mismatch\");\n        require(_ipfsHashes.length == _emergencyViewable.length, \"Length mismatch\");\n        \n        uint256 patientId = walletToPatientId[msg.sender];\n        require(patientId != 0, \"Patient not registered\");\n        \n        for (uint256 i = 0; i < _ipfsHashes.length; i++) {\n            uint256 tokenId = _nextTokenId++;\n            _mint(msg.sender, tokenId);\n            _setTokenURI(tokenId, _ipfsHashes[i]);\n            \n            patients[patientId].medicalRecords.push(\n                MedicalRecord({\n                    tokenId: tokenId,\n                    ipfsHash: _ipfsHashes[i],\n                    fileName: _fileNames[i],\n                    recordDate: _recordDates[i],\n                    hospital: _hospitals[i],\n                    isEmergencyViewable: _emergencyViewable[i]\n                })\n            );\n        }\n    }\n\n    }",
  "sourcePath": "/home/ayush/Desktop/code/Sanjeevni/contracts/contracts/Patient.sol",
  "compiler": {
    "name": "solc",
    "version": "0.8.20+commit.80d5c536.Emscripten.clang"
  },
  "schemaVersion": "3.4.16",
  "updatedAt": "2026-04-09T18:14:11.650Z",
  "devdoc": {
    "details": "Contract for managing patient data, medical records, and emergency access.",
    "errors": {
      "AccessControlBadConfirmation()": [
        {
          "details": "The caller of a function is not the expected one. NOTE: Don't confuse with {AccessControlUnauthorizedAccount}."
        }
      ],
      "AccessControlUnauthorizedAccount(address,bytes32)": [
        {
          "details": "The `account` is missing a role."
        }
      ],
      "ERC721IncorrectOwner(address,uint256,address)": [
        {
          "details": "Indicates an error related to the ownership over a particular token. Used in transfers.",
          "params": {
            "owner": "Address of the current owner of a token.",
            "sender": "Address whose tokens are being transferred.",
            "tokenId": "Identifier number of a token."
          }
        }
      ],
      "ERC721InsufficientApproval(address,uint256)": [
        {
          "details": "Indicates a failure with the `operator`’s approval. Used in transfers.",
          "params": {
            "operator": "Address that may be allowed to operate on tokens without being their owner.",
            "tokenId": "Identifier number of a token."
          }
        }
      ],
      "ERC721InvalidApprover(address)": [
        {
          "details": "Indicates a failure with the `approver` of a token to be approved. Used in approvals.",
          "params": {
            "approver": "Address initiating an approval operation."
          }
        }
      ],
      "ERC721InvalidOperator(address)": [
        {
          "details": "Indicates a failure with the `operator` to be approved. Used in approvals.",
          "params": {
            "operator": "Address that may be allowed to operate on tokens without being their owner."
          }
        }
      ],
      "ERC721InvalidOwner(address)": [
        {
          "details": "Indicates that an address can't be an owner. For example, `address(0)` is a forbidden owner in EIP-20. Used in balance queries.",
          "params": {
            "owner": "Address of the current owner of a token."
          }
        }
      ],
      "ERC721InvalidReceiver(address)": [
        {
          "details": "Indicates a failure with the token `receiver`. Used in transfers.",
          "params": {
            "receiver": "Address to which tokens are being transferred."
          }
        }
      ],
      "ERC721InvalidSender(address)": [
        {
          "details": "Indicates a failure with the token `sender`. Used in transfers.",
          "params": {
            "sender": "Address whose tokens are being transferred."
          }
        }
      ],
      "ERC721NonexistentToken(uint256)": [
        {
          "details": "Indicates a `tokenId` whose `owner` is the zero address.",
          "params": {
            "tokenId": "Identifier number of a token."
          }
        }
      ],
      "EnforcedPause()": [
        {
          "details": "The operation failed because the contract is paused."
        }
      ],
      "ExpectedPause()": [
        {
          "details": "The operation failed because the contract is not paused."
        }
      ],
      "ReentrancyGuardReentrantCall()": [
        {
          "details": "Unauthorized reentrant call."
        }
      ]
    },
    "events": {
      "Approval(address,address,uint256)": {
        "details": "Emitted when `owner` enables `approved` to manage the `tokenId` token."
      },
      "ApprovalForAll(address,address,bool)": {
        "details": "Emitted when `owner` enables or disables (`approved`) `operator` to manage all of its assets."
      },
      "BatchMetadataUpdate(uint256,uint256)": {
        "details": "This event emits when the metadata of a range of tokens is changed. So that the third-party platforms such as NFT market could timely update the images and related attributes of the NFTs."
      },
      "EmergencyAccessLogged(uint256,address,string,uint256)": {
        "params": {
          "accessor": "The address that accessed the records",
          "patientId": "The patient's unique ID",
          "reason": "Reason for emergency access",
          "timestamp": "Time of access"
        }
      },
      "MetadataUpdate(uint256)": {
        "details": "This event emits when the metadata of a token is changed. So that the third-party platforms such as NFT market could timely update the images and related attributes of the NFT."
      },
      "PatientRegistered(uint256,address,string)": {
        "params": {
          "name": "The patient's name",
          "patientId": "The patient's unique ID",
          "wallet": "The patient's wallet address"
        }
      },
      "Paused(address)": {
        "details": "Emitted when the pause is triggered by `account`."
      },
      "RecordAdded(uint256,uint256,string)": {
        "params": {
          "ipfsHash": "The IPFS hash",
          "patientId": "The patient's unique ID",
          "tokenId": "The NFT token ID"
        }
      },
      "RoleAdminChanged(bytes32,bytes32,bytes32)": {
        "details": "Emitted when `newAdminRole` is set as ``role``'s admin role, replacing `previousAdminRole` `DEFAULT_ADMIN_ROLE` is the starting admin for all roles, despite {RoleAdminChanged} not being emitted signaling this."
      },
      "RoleGranted(bytes32,address,address)": {
        "details": "Emitted when `account` is granted `role`. `sender` is the account that originated the contract call, an admin role bearer except when using {AccessControl-_setupRole}."
      },
      "RoleRevoked(bytes32,address,address)": {
        "details": "Emitted when `account` is revoked `role`. `sender` is the account that originated the contract call:   - if using `revokeRole`, it is the admin role bearer   - if using `renounceRole`, it is the role bearer (i.e. `account`)"
      },
      "Transfer(address,address,uint256)": {
        "details": "Emitted when `tokenId` token is transferred from `from` to `to`."
      },
      "Unpaused(address)": {
        "details": "Emitted when the pause is lifted by `account`."
      }
    },
    "kind": "dev",
    "methods": {
      "addMedicalRecord(string,string,string,string,bool)": {
        "details": "Adds a medical record for the patient and mints an NFT.",
        "params": {
          "_fileName": "Name of the file.",
          "_hospital": "Hospital or clinic name.",
          "_ipfsHash": "IPFS hash of the medical document.",
          "_isEmergencyViewable": "Whether this record can be accessed in emergencies.",
          "_recordDate": "Date of the medical record."
        }
      },
      "addNominee(string,address,string,string)": {
        "details": "Adds a nominee (emergency contact) for the patient.",
        "params": {
          "_contactNumber": "Nominee's contact number.",
          "_name": "Nominee's full name.",
          "_relationship": "Relationship to the patient (e.g., \"spouse\", \"parent\").",
          "_walletAddress": "Nominee's wallet address."
        }
      },
      "approve(address,uint256)": {
        "details": "See {IERC721-approve}."
      },
      "balanceOf(address)": {
        "details": "See {IERC721-balanceOf}."
      },
      "constructor": {
        "details": "Constructor that initializes the ERC721 token with name and symbol."
      },
      "getAccessLogs(uint256)": {
        "details": "Step 2: Retrieves the audit trail (access logs) for a patient.",
        "params": {
          "_patientId": "The patient's unique ID."
        },
        "returns": {
          "_0": "Array of AccessLog structs."
        }
      },
      "getApproved(uint256)": {
        "details": "See {IERC721-getApproved}."
      },
      "getMedicalRecords(uint256)": {
        "details": "Retrieves all medical records for a patient.",
        "params": {
          "_patientId": "The patient's unique ID."
        },
        "returns": {
          "_0": "Array of MedicalRecord structs."
        }
      },
      "getNominees(uint256)": {
        "details": "Retrieves the list of nominees for a patient.",
        "params": {
          "_patientId": "The patient's unique ID."
        },
        "returns": {
          "_0": "Array of Nominee structs."
        }
      },
      "getPatientDetails(uint256)": {
        "details": "Retrieves detailed information for a specific patient.",
        "params": {
          "_patientId": "The patient's unique ID."
        },
        "returns": {
          "_0": "PatientDetails struct containing all patient information."
        }
      },
      "getPatientIdByUsername(string)": {
        "details": "Retrieves patient ID from username.",
        "params": {
          "_username": "The username to look up."
        },
        "returns": {
          "_0": "Patient ID or 0 if not found."
        }
      },
      "getRoleAdmin(bytes32)": {
        "details": "Returns the admin role that controls `role`. See {grantRole} and {revokeRole}. To change a role's admin, use {_setRoleAdmin}."
      },
      "grantRole(bytes32,address)": {
        "details": "Grants `role` to `account`. If `account` had not been already granted `role`, emits a {RoleGranted} event. Requirements: - the caller must have ``role``'s admin role. May emit a {RoleGranted} event."
      },
      "hasRole(bytes32,address)": {
        "details": "Returns `true` if `account` has been granted `role`."
      },
      "isApprovedForAll(address,address)": {
        "details": "See {IERC721-isApprovedForAll}."
      },
      "logEmergencyAccess(uint256,string)": {
        "details": "Step 1: Logs an emergency \"Break-Glass\" access event for audit trail.",
        "params": {
          "_patientId": "The patient's unique ID.",
          "_reason": "Reason for the emergency access."
        }
      },
      "name()": {
        "details": "See {IERC721Metadata-name}."
      },
      "ownerOf(uint256)": {
        "details": "See {IERC721-ownerOf}."
      },
      "paused()": {
        "details": "Returns true if the contract is paused, and false otherwise."
      },
      "registerPatient(string,string,string,uint8,string)": {
        "details": "Registers a new patient in the system.",
        "params": {
          "_age": "Patient's age.",
          "_bloodGroup": "Patient's blood group.",
          "_email": "Patient's email address.",
          "_name": "Patient's full name.",
          "_username": "Unique username for the patient."
        }
      },
      "renounceRole(bytes32,address)": {
        "details": "Revokes `role` from the calling account. Roles are often managed via {grantRole} and {revokeRole}: this function's purpose is to provide a mechanism for accounts to lose their privileges if they are compromised (such as when a trusted device is misplaced). If the calling account had been revoked `role`, emits a {RoleRevoked} event. Requirements: - the caller must be `callerConfirmation`. May emit a {RoleRevoked} event."
      },
      "revokeRole(bytes32,address)": {
        "details": "Revokes `role` from `account`. If `account` had been granted `role`, emits a {RoleRevoked} event. Requirements: - the caller must have ``role``'s admin role. May emit a {RoleRevoked} event."
      },
      "safeTransferFrom(address,address,uint256)": {
        "details": "See {IERC721-safeTransferFrom}."
      },
      "safeTransferFrom(address,address,uint256,bytes)": {
        "details": "See {IERC721-safeTransferFrom}."
      },
      "setApprovalForAll(address,bool)": {
        "details": "See {IERC721-setApprovalForAll}."
      },
      "setEmergencyAccessHash(bytes32)": {
        "details": "Sets the emergency access hash for the calling patient.",
        "params": {
          "_hash": "Hash generated for emergency magic link verification."
        }
      },
      "supportsInterface(bytes4)": {
        "details": "See {IERC165-supportsInterface}."
      },
      "symbol()": {
        "details": "See {IERC721Metadata-symbol}."
      },
      "toggleEmergencyVisibility(uint256)": {
        "details": "Toggles the emergency visibility of a specific medical record.",
        "params": {
          "_recordIndex": "Index of the medical record in the patient's array."
        }
      },
      "tokenURI(uint256)": {
        "details": "See {IERC721Metadata-tokenURI}."
      },
      "transferFrom(address,address,uint256)": {
        "details": "See {IERC721-transferFrom}."
      },
      "updatePatientDetails(string,string,uint8,string)": {
        "details": "Updates patient profile details.",
        "params": {
          "_age": "Patient's new age.",
          "_bloodGroup": "Patient's new blood group.",
          "_email": "Patient's new email address.",
          "_name": "Patient's new full name."
        }
      },
      "userExists(address)": {
        "details": "Checks if a wallet address belongs to a registered patient.",
        "params": {
          "walletAddress": "The address to check."
        },
        "returns": {
          "_0": "True if the address belongs to a registered patient."
        }
      },
      "verifyEmergencyHash(uint256,bytes32)": {
        "details": "Verifies if a given hash matches the patient's emergency access hash.",
        "params": {
          "_hash": "The hash to verify.",
          "_patientId": "The patient's unique ID."
        },
        "returns": {
          "_0": "True if the hash matches."
        }
      }
    },
    "stateVariables": {
      "_nextTokenId": {
        "details": "Counter for generating unique NFT token IDs"
      },
      "patientIdCounter": {
        "details": "Counter for assigning unique patient IDs"
      }
    },
    "title": "Patient",
    "version": 1
  },
  "userdoc": {
    "events": {
      "EmergencyAccessLogged(uint256,address,string,uint256)": {
        "notice": "Emitted when emergency access is logged for audit purposes"
      },
      "PatientRegistered(uint256,address,string)": {
        "notice": "Emitted when a patient registers"
      },
      "RecordAdded(uint256,uint256,string)": {
        "notice": "Emitted when a medical record is added"
      }
    },
    "kind": "user",
    "methods": {
      "addMedicalRecord(string,string,string,string,bool)": {
        "notice": "Mints an ERC721 NFT representing the medical record. Caller must be registered."
      },
      "addNominee(string,address,string,string)": {
        "notice": "Caller must be a registered patient. Multiple nominees allowed."
      },
      "emergencyAccessHashes(uint256)": {
        "notice": "Mapping from patient ID to emergency access hash (for magic link verification)"
      },
      "emergencyAccessLogs(uint256,uint256)": {
        "notice": "Mapping from patient ID to emergency access logs"
      },
      "getAccessLogs(uint256)": {
        "notice": "Used for compliance and audit purposes."
      },
      "getMedicalRecords(uint256)": {
        "notice": "Validates patient ID is within valid range."
      },
      "getPatientDetails(uint256)": {
        "notice": "Validates patient ID is within valid range."
      },
      "getPatientIdByUsername(string)": {
        "notice": "Useful for frontend lookups."
      },
      "logEmergencyAccess(uint256,string)": {
        "notice": "Creates an immutable log of who accessed what and why."
      },
      "patientNominees(uint256,uint256)": {
        "notice": "Mapping from patient ID to list of nominees"
      },
      "patients(uint256)": {
        "notice": "Mapping from patient ID to PatientDetails"
      },
      "registerPatient(string,string,string,uint8,string)": {
        "notice": "Caller must not already be registered. Username must be unique."
      },
      "setEmergencyAccessHash(bytes32)": {
        "notice": "Caller must be a registered patient."
      },
      "toggleEmergencyVisibility(uint256)": {
        "notice": "Caller must be a registered patient. Toggles between viewable/non-viewable."
      },
      "updatePatientDetails(string,string,uint8,string)": {
        "notice": "Caller must be a registered patient."
      },
      "usernameToPatientId(string)": {
        "notice": "Mapping from username to patient ID (for friendly lookups)"
      },
      "walletToPatientId(address)": {
        "notice": "Mapping from wallet address to patient ID"
      }
    },
    "notice": "Extends ERC721 for medical record NFTs. Patients control their data and can grant/revoke access.",
    "version": 1
  }
}