{
  "_format": "hh-sol-artifact-1",
  "contractName": "PatientUpgradeable",
  "sourceName": "contracts/PatientUpgradeable.sol",
  "abi": [
    {
      "inputs": [
        {
          "internalType": "address",
          "name": "_forwarder",
          "type": "address"
        }
      ],
      "stateMutability": "nonpayable",
      "type": "constructor"
    },
    {
      "inputs": [
        {
          "internalType": "address",
          "name": "target",
          "type": "address"
        }
      ],
      "name": "AddressEmptyCode",
      "type": "error"
    },
    {
      "inputs": [
        {
          "internalType": "address",
          "name": "implementation",
          "type": "address"
        }
      ],
      "name": "ERC1967InvalidImplementation",
      "type": "error"
    },
    {
      "inputs": [],
      "name": "ERC1967NonPayable",
      "type": "error"
    },
    {
      "inputs": [],
      "name": "EnforcedPause",
      "type": "error"
    },
    {
      "inputs": [],
      "name": "ExpectedPause",
      "type": "error"
    },
    {
      "inputs": [],
      "name": "FailedInnerCall",
      "type": "error"
    },
    {
      "inputs": [],
      "name": "InvalidInitialization",
      "type": "error"
    },
    {
      "inputs": [],
      "name": "NotInitializing",
      "type": "error"
    },
    {
      "inputs": [],
      "name": "UUPSUnauthorizedCallContext",
      "type": "error"
    },
    {
      "inputs": [
        {
          "internalType": "bytes32",
          "name": "slot",
          "type": "bytes32"
        }
      ],
      "name": "UUPSUnsupportedProxiableUUID",
      "type": "error"
    },
    {
      "anonymous": false,
      "inputs": [
        {
          "indexed": false,
          "internalType": "uint64",
          "name": "version",
          "type": "uint64"
        }
      ],
      "name": "Initialized",
      "type": "event"
    },
    {
      "anonymous": false,
      "inputs": [
        {
          "indexed": true,
          "internalType": "uint256",
          "name": "patientId",
          "type": "uint256"
        },
        {
          "indexed": true,
          "internalType": "address",
          "name": "wallet",
          "type": "address"
        },
        {
          "indexed": false,
          "internalType": "string",
          "name": "name",
          "type": "string"
        }
      ],
      "name": "PatientRegistered",
      "type": "event"
    },
    {
      "anonymous": false,
      "inputs": [
        {
          "indexed": false,
          "internalType": "address",
          "name": "account",
          "type": "address"
        }
      ],
      "name": "Paused",
      "type": "event"
    },
    {
      "anonymous": false,
      "inputs": [
        {
          "indexed": true,
          "internalType": "uint256",
          "name": "patientId",
          "type": "uint256"
        },
        {
          "indexed": true,
          "internalType": "uint256",
          "name": "tokenId",
          "type": "uint256"
        },
        {
          "indexed": false,
          "internalType": "string",
          "name": "ipfsHash",
          "type": "string"
        }
      ],
      "name": "RecordAdded",
      "type": "event"
    },
    {
      "anonymous": false,
      "inputs": [
        {
          "indexed": false,
          "internalType": "address",
          "name": "account",
          "type": "address"
        }
      ],
      "name": "Unpaused",
      "type": "event"
    },
    {
      "anonymous": false,
      "inputs": [
        {
          "indexed": true,
          "internalType": "address",
          "name": "implementation",
          "type": "address"
        }
      ],
      "name": "Upgraded",
      "type": "event"
    },
    {
      "inputs": [],
      "name": "UPGRADE_INTERFACE_VERSION",
      "outputs": [
        {
          "internalType": "string",
          "name": "",
          "type": "string"
        }
      ],
      "stateMutability": "view",
      "type": "function"
    },
    {
      "inputs": [],
      "name": "accessControl",
      "outputs": [
        {
          "internalType": "contract MediSecureAccessControl",
          "name": "",
          "type": "address"
        }
      ],
      "stateMutability": "view",
      "type": "function"
    },
    {
      "inputs": [
        {
          "internalType": "string",
          "name": "_ipfsHash",
          "type": "string"
        }
      ],
      "name": "addMedicalRecord",
      "outputs": [],
      "stateMutability": "nonpayable",
      "type": "function"
    },
    {
      "inputs": [
        {
          "internalType": "bytes32",
          "name": "role",
          "type": "bytes32"
        },
        {
          "internalType": "address",
          "name": "account",
          "type": "address"
        }
      ],
      "name": "hasRole",
      "outputs": [
        {
          "internalType": "bool",
          "name": "",
          "type": "bool"
        }
      ],
      "stateMutability": "view",
      "type": "function"
    },
    {
      "inputs": [
        {
          "internalType": "enum Roles",
          "name": "role",
          "type": "uint8"
        },
        {
          "internalType": "address",
          "name": "account",
          "type": "address"
        }
      ],
      "name": "hasRole",
      "outputs": [
        {
          "internalType": "bool",
          "name": "",
          "type": "bool"
        }
      ],
      "stateMutability": "view",
      "type": "function"
    },
    {
      "inputs": [
        {
          "internalType": "address",
          "name": "_accessControl",
          "type": "address"
        }
      ],
      "name": "initialize",
      "outputs": [],
      "stateMutability": "nonpayable",
      "type": "function"
    },
    {
      "inputs": [
        {
          "internalType": "address",
          "name": "account",
          "type": "address"
        }
      ],
      "name": "isAdmin",
      "outputs": [
        {
          "internalType": "bool",
          "name": "",
          "type": "bool"
        }
      ],
      "stateMutability": "view",
      "type": "function"
    },
    {
      "inputs": [
        {
          "internalType": "address",
          "name": "forwarder",
          "type": "address"
        }
      ],
      "name": "isTrustedForwarder",
      "outputs": [
        {
          "internalType": "bool",
          "name": "",
          "type": "bool"
        }
      ],
      "stateMutability": "view",
      "type": "function"
    },
    {
      "inputs": [
        {
          "internalType": "uint256",
          "name": "",
          "type": "uint256"
        },
        {
          "internalType": "uint256",
          "name": "",
          "type": "uint256"
        }
      ],
      "name": "patientRecords",
      "outputs": [
        {
          "internalType": "string",
          "name": "",
          "type": "string"
        }
      ],
      "stateMutability": "view",
      "type": "function"
    },
    {
      "inputs": [
        {
          "internalType": "uint256",
          "name": "",
          "type": "uint256"
        }
      ],
      "name": "patients",
      "outputs": [
        {
          "internalType": "string",
          "name": "username",
          "type": "string"
        },
        {
          "internalType": "string",
          "name": "name",
          "type": "string"
        },
        {
          "internalType": "string",
          "name": "email",
          "type": "string"
        },
        {
          "internalType": "uint8",
          "name": "age",
          "type": "uint8"
        },
        {
          "internalType": "string",
          "name": "bloodGroup",
          "type": "string"
        }
      ],
      "stateMutability": "view",
      "type": "function"
    },
    {
      "inputs": [],
      "name": "paused",
      "outputs": [
        {
          "internalType": "bool",
          "name": "",
          "type": "bool"
        }
      ],
      "stateMutability": "view",
      "type": "function"
    },
    {
      "inputs": [],
      "name": "proxiableUUID",
      "outputs": [
        {
          "internalType": "bytes32",
          "name": "",
          "type": "bytes32"
        }
      ],
      "stateMutability": "view",
      "type": "function"
    },
    {
      "inputs": [
        {
          "internalType": "string",
          "name": "_username",
          "type": "string"
        },
        {
          "internalType": "string",
          "name": "_name",
          "type": "string"
        },
        {
          "internalType": "string",
          "name": "_email",
          "type": "string"
        },
        {
          "internalType": "uint8",
          "name": "_age",
          "type": "uint8"
        },
        {
          "internalType": "string",
          "name": "_bloodGroup",
          "type": "string"
        }
      ],
      "name": "registerPatient",
      "outputs": [],
      "stateMutability": "nonpayable",
      "type": "function"
    },
    {
      "inputs": [],
      "name": "trustedForwarder",
      "outputs": [
        {
          "internalType": "address",
          "name": "",
          "type": "address"
        }
      ],
      "stateMutability": "view",
      "type": "function"
    },
    {
      "inputs": [
        {
          "internalType": "address",
          "name": "newImplementation",
          "type": "address"
        },
        {
          "internalType": "bytes",
          "name": "data",
          "type": "bytes"
        }
      ],
      "name": "upgradeToAndCall",
      "outputs": [],
      "stateMutability": "payable",
      "type": "function"
    },
    {
      "inputs": [
        {
          "internalType": "string",
          "name": "",
          "type": "string"
        }
      ],
      "name": "usernameToPatientId",
      "outputs": [
        {
          "internalType": "uint256",
          "name": "",
          "type": "uint256"
        }
      ],
      "stateMutability": "view",
      "type": "function"
    },
    {
      "inputs": [
        {
          "internalType": "address",
          "name": "",
          "type": "address"
        }
      ],
      "name": "walletToPatientId",
      "outputs": [
        {
          "internalType": "uint256",
          "name": "",
          "type": "uint256"
        }
      ],
      "stateMutability": "view",
      "type": "function"
    }
  ],
  "bytecode": "0x60c0604052306080523480156200001557600080fd5b5060405162001abc38038062001abc83398101604081905262000038916200010a565b6001600160a01b03811660a0526200004f62000056565b506200013c565b7ff0c57e16840df040f15088dc2f81fe391c3923bec73e23a9662efc9c229c6a00805468010000000000000000900460ff1615620000a75760405163f92ee8a960e01b815260040160405180910390fd5b80546001600160401b0390811614620001075780546001600160401b0319166001600160401b0390811782556040519081527fc7f505b2f371ae2175ee4913f4499e1f2633a7b5936321eed1cdaeb6115181d29060200160405180910390a15b50565b6000602082840312156200011d57600080fd5b81516001600160a01b03811681146200013557600080fd5b9392505050565b60805160a05161193e6200017e6000396000818161023f015281816102b5015261101a015260008181610cef01528181610d180152610f2c015261193e6000f3fe6080604052600436106100fe5760003560e01c80635c975abb1161009557806393119a831161006457806393119a83146103315780639e97b8f614610362578063ad3cb1cc14610382578063c4d66de8146103b3578063e671926a146103d357600080fd5b80635c975abb1461026f5780637da0a877146102a65780638590ed19146102d957806391d148541461031157600080fd5b80634035ae09116100d15780634035ae09146101cd5780634f1ef286146101fa57806352d1902d1461020d578063572b6c051461022257600080fd5b806313007d55146101035780631ff3bd8b1461014057806323ecb0581461016257806324d7806c1461019d575b600080fd5b34801561010f57600080fd5b50600054610123906001600160a01b031681565b6040516001600160a01b0390911681526020015b60405180910390f35b34801561014c57600080fd5b5061016061015b36600461137c565b6103f3565b005b34801561016e57600080fd5b5061018f61017d366004611460565b60346020526000908152604090205481565b604051908152602001610137565b3480156101a957600080fd5b506101bd6101b8366004611460565b610602565b6040519015158152602001610137565b3480156101d957600080fd5b506101ed6101e836600461147b565b61067c565b60405161013791906114ed565b610160610208366004611500565b610735565b34801561021957600080fd5b5061018f610754565b34801561022e57600080fd5b506101bd61023d366004611460565b7f00000000000000000000000000000000000000000000000000000000000000006001600160a01b0390811691161490565b34801561027b57600080fd5b507fcd5ed15c6e187e77e9aee88184c21f4f2182ab5827cb3b7e07fbedcd63f033005460ff166101bd565b3480156102b257600080fd5b507f0000000000000000000000000000000000000000000000000000000000000000610123565b3480156102e557600080fd5b5061018f6102f4366004611562565b805160208183018101805160358252928201919093012091525481565b34801561031d57600080fd5b506101bd61032c36600461159f565b610771565b34801561033d57600080fd5b5061035161034c3660046115cb565b6107ef565b6040516101379594939291906115e4565b34801561036e57600080fd5b506101bd61037d366004611646565b610a46565b34801561038e57600080fd5b506101ed604051806040016040528060058152602001640352e302e360dc1b81525081565b3480156103bf57600080fd5b506101606103ce366004611460565b610a79565b3480156103df57600080fd5b506101606103ee366004611562565b610b99565b6103fb610c90565b60346000610407610cd5565b6001600160a01b03168152602081019190915260400160002054156104685760405162461bcd60e51b8152602060048201526012602482015271105b1c9958591e481c9959da5cdd195c995960721b60448201526064015b60405180910390fd5b6035856040516104789190611676565b9081526020016040518091039020546000146104c75760405162461bcd60e51b815260206004820152600e60248201526d2ab9b2b93730b6b2903a30b5b2b760911b604482015260640161045f565b603380549060006104d7836116a8565b909155505060335480603460006104ec610cd5565b6001600160a01b03166001600160a01b0316815260200190815260200160002081905550806035876040516105219190611676565b908152604080516020928190038301902092909255600083815260369091522061054b8782611741565b5060008181526036602052604090206001016105678682611741565b5060008181526036602052604090206002016105838582611741565b50600081815260366020526040902060038101805460ff191660ff86161790556004016105b08382611741565b506105b9610cd5565b6001600160a01b0316817fe960aa893775ad9187a8fc84e3a4750f46f677c7e4f410b0d77faad875966603876040516105f291906114ed565b60405180910390a3505050505050565b60008054604051634f4bdc7b60e11b81526001600160a01b0390911690639e97b8f6906106359084908690600401611801565b602060405180830381865afa158015610652573d6000803e3d6000fd5b505050506040513d601f19601f82011682018060405250810190610676919061183b565b92915050565b6037602052816000526040600020818154811061069857600080fd5b906000526020600020016000915091505080546106b4906116c1565b80601f01602080910402602001604051908101604052809291908181526020018280546106e0906116c1565b801561072d5780601f106107025761010080835404028352916020019161072d565b820191906000526020600020905b81548152906001019060200180831161071057829003601f168201915b505050505081565b61073d610ce4565b61074682610d89565b6107508282610e5f565b5050565b600061075e610f21565b506000805160206118e983398151915290565b60008054604051632474521560e21b8152600481018590526001600160a01b038481166024830152909116906391d14854906044015b602060405180830381865afa1580156107c4573d6000803e3d6000fd5b505050506040513d601f19601f820116820180604052508101906107e8919061183b565b9392505050565b60366020526000908152604090208054819061080a906116c1565b80601f0160208091040260200160405190810160405280929190818152602001828054610836906116c1565b80156108835780601f1061085857610100808354040283529160200191610883565b820191906000526020600020905b81548152906001019060200180831161086657829003601f168201915b505050505090806001018054610898906116c1565b80601f01602080910402602001604051908101604052809291908181526020018280546108c4906116c1565b80156109115780601f106108e657610100808354040283529160200191610911565b820191906000526020600020905b8154815290600101906020018083116108f457829003601f168201915b505050505090806002018054610926906116c1565b80601f0160208091040260200160405190810160405280929190818152602001828054610952906116c1565b801561099f5780601f106109745761010080835404028352916020019161099f565b820191906000526020600020905b81548152906001019060200180831161098257829003601f168201915b5050506003840154600485018054949560ff9092169491935091506109c3906116c1565b80601f01602080910402602001604051908101604052809291908181526020018280546109ef906116c1565b8015610a3c5780601f10610a1157610100808354040283529160200191610a3c565b820191906000526020600020905b815481529060010190602001808311610a1f57829003601f168201915b5050505050905085565b60008054604051634f4bdc7b60e11b81526001600160a01b0390911690639e97b8f6906107a79086908690600401611801565b7ff0c57e16840df040f15088dc2f81fe391c3923bec73e23a9662efc9c229c6a008054600160401b810460ff16159067ffffffffffffffff16600081158015610abf5750825b905060008267ffffffffffffffff166001148015610adc5750303b155b905081158015610aea575080155b15610b085760405163f92ee8a960e01b815260040160405180910390fd5b845467ffffffffffffffff191660011785558315610b3257845460ff60401b1916600160401b1785555b610b3a610f6a565b610b4386610f7a565b610b4b611002565b8315610b9157845460ff60401b19168555604051600181527fc7f505b2f371ae2175ee4913f4499e1f2633a7b5936321eed1cdaeb6115181d29060200160405180910390a15b505050505050565b610ba1610c90565b600060346000610baf610cd5565b6001600160a01b03166001600160a01b0316815260200190815260200160002054905080600003610c135760405162461bcd60e51b815260206004820152600e60248201526d139bdd081c9959da5cdd195c995960921b604482015260640161045f565b60328054906000610c23836116a8565b9091555050600081815260376020908152604082208054600181018255908352912001610c508382611741565b50603254817f5fea036c56a9fe203110015d4d45fde7ec91f39e84507f4ffd536c61ed0b27ea84604051610c8491906114ed565b60405180910390a35050565b7fcd5ed15c6e187e77e9aee88184c21f4f2182ab5827cb3b7e07fbedcd63f033005460ff1615610cd35760405163d93c066560e01b815260040160405180910390fd5b565b6000610cdf61100a565b905090565b306001600160a01b037f0000000000000000000000000000000000000000000000000000000000000000161480610d6b57507f00000000000000000000000000000000000000000000000000000000000000006001600160a01b0316610d5f6000805160206118e9833981519152546001600160a01b031690565b6001600160a01b031614155b15610cd35760405163703e46dd60e11b815260040160405180910390fd5b6000546001600160a01b0316639e97b8f66007610da4610cd5565b6040518363ffffffff1660e01b8152600401610dc1929190611801565b602060405180830381865afa158015610dde573d6000803e3d6000fd5b505050506040513d601f19601f82011682018060405250810190610e02919061183b565b610e5c5760405162461bcd60e51b815260206004820152602560248201527f416363657373436f6e74726f6c3a20726573747269637465642d746f2d7570676044820152643930b232b960d91b606482015260840161045f565b50565b816001600160a01b03166352d1902d6040518163ffffffff1660e01b8152600401602060405180830381865afa925050508015610eb9575060408051601f3d908101601f19168201909252610eb69181019061185d565b60015b610ee157604051634c9c8ce360e01b81526001600160a01b038316600482015260240161045f565b6000805160206118e98339815191528114610f1257604051632a87526960e21b81526004810182905260240161045f565b610f1c838361107f565b505050565b306001600160a01b037f00000000000000000000000000000000000000000000000000000000000000001614610cd35760405163703e46dd60e11b815260040160405180910390fd5b610f726110d5565b610cd361111e565b610f826110d5565b610f8a611002565b6001600160a01b038116610fe05760405162461bcd60e51b815260206004820152601e60248201527f496e76616c69642061636365737320636f6e74726f6c20616464726573730000604482015260640161045f565b600080546001600160a01b0319166001600160a01b0392909216919091179055565b610cd36110d5565b6000366014336001600160a01b037f0000000000000000000000000000000000000000000000000000000000000000161480156110475750808210155b15611077576000366110598385611876565b611064928290611889565b61106d916118b3565b60601c9250505090565b339250505090565b61108882611151565b6040516001600160a01b038316907fbc7cd75a20ee27fd9adebab32041f755214dbc6bffa90cc0225b39da2e5c2d3b90600090a28051156110cd57610f1c82826111b6565b61075061122c565b7ff0c57e16840df040f15088dc2f81fe391c3923bec73e23a9662efc9c229c6a0054600160401b900460ff16610cd357604051631afcd79f60e31b815260040160405180910390fd5b6111266110d5565b7fcd5ed15c6e187e77e9aee88184c21f4f2182ab5827cb3b7e07fbedcd63f03300805460ff19169055565b806001600160a01b03163b60000361118757604051634c9c8ce360e01b81526001600160a01b038216600482015260240161045f565b6000805160206118e983398151915280546001600160a01b0319166001600160a01b0392909216919091179055565b6060600080846001600160a01b0316846040516111d39190611676565b600060405180830381855af49150503d806000811461120e576040519150601f19603f3d011682016040523d82523d6000602084013e611213565b606091505b509150915061122385838361124b565b95945050505050565b3415610cd35760405163b398979f60e01b815260040160405180910390fd5b6060826112605761125b826112a7565b6107e8565b815115801561127757506001600160a01b0384163b155b156112a057604051639996b31560e01b81526001600160a01b038516600482015260240161045f565b5092915050565b8051156112b75780518082602001fd5b604051630a12f52160e11b815260040160405180910390fd5b634e487b7160e01b600052604160045260246000fd5b600067ffffffffffffffff80841115611301576113016112d0565b604051601f8501601f19908116603f01168101908282118183101715611329576113296112d0565b8160405280935085815286868601111561134257600080fd5b858560208301376000602087830101525050509392505050565b600082601f83011261136d57600080fd5b6107e8838335602085016112e6565b600080600080600060a0868803121561139457600080fd5b853567ffffffffffffffff808211156113ac57600080fd5b6113b889838a0161135c565b965060208801359150808211156113ce57600080fd5b6113da89838a0161135c565b955060408801359150808211156113f057600080fd5b6113fc89838a0161135c565b94506060880135915060ff8216821461141457600080fd5b9092506080870135908082111561142a57600080fd5b506114378882890161135c565b9150509295509295909350565b80356001600160a01b038116811461145b57600080fd5b919050565b60006020828403121561147257600080fd5b6107e882611444565b6000806040838503121561148e57600080fd5b50508035926020909101359150565b60005b838110156114b85781810151838201526020016114a0565b50506000910152565b600081518084526114d981602086016020860161149d565b601f01601f19169290920160200192915050565b6020815260006107e860208301846114c1565b6000806040838503121561151357600080fd5b61151c83611444565b9150602083013567ffffffffffffffff81111561153857600080fd5b8301601f8101851361154957600080fd5b611558858235602084016112e6565b9150509250929050565b60006020828403121561157457600080fd5b813567ffffffffffffffff81111561158b57600080fd5b6115978482850161135c565b949350505050565b600080604083850312156115b257600080fd5b823591506115c260208401611444565b90509250929050565b6000602082840312156115dd57600080fd5b5035919050565b60a0815260006115f760a08301886114c1565b828103602084015261160981886114c1565b9050828103604084015261161d81876114c1565b905060ff85166060840152828103608084015261163a81856114c1565b98975050505050505050565b6000806040838503121561165957600080fd5b82356009811061166857600080fd5b91506115c260208401611444565b6000825161168881846020870161149d565b9190910192915050565b634e487b7160e01b600052601160045260246000fd5b6000600182016116ba576116ba611692565b5060010190565b600181811c908216806116d557607f821691505b6020821081036116f557634e487b7160e01b600052602260045260246000fd5b50919050565b601f821115610f1c57600081815260208120601f850160051c810160208610156117225750805b601f850160051c820191505b81811015610b915782815560010161172e565b815167ffffffffffffffff81111561175b5761175b6112d0565b61176f8161176984546116c1565b846116fb565b602080601f8311600181146117a4576000841561178c5750858301515b600019600386901b1c1916600185901b178555610b91565b600085815260208120601f198616915b828110156117d3578886015182559484019460019091019084016117b4565b50858210156117f15787850151600019600388901b60f8161c191681555b5050505050600190811b01905550565b604081016009841061182357634e487b7160e01b600052602160045260246000fd5b9281526001600160a01b039190911660209091015290565b60006020828403121561184d57600080fd5b815180151581146107e857600080fd5b60006020828403121561186f57600080fd5b5051919050565b8181038181111561067657610676611692565b6000808585111561189957600080fd5b838611156118a657600080fd5b5050820193919092039150565b6bffffffffffffffffffffffff1981358181169160148510156118e05780818660140360031b1b83161692505b50509291505056fe360894a13ba1a3210667c828492db98dca3e2076cc3735a920a3ca505d382bbca2646970667358221220408e2cc76174c6599c1491275272a5b11d5149ff0579fc88c8b3093e396e10c864736f6c63430008140033",
  "linkReferences": {},
  "deployedLinkReferences": {}
}