{
  "_format": "hh-sol-artifact-1",
  "contractName": "MedSecure",
  "sourceName": "contracts/MedSecure.sol",
  "abi": [
    {
      "anonymous": false,
      "inputs": [
        {
          "indexed": false,
          "internalType": "uint256",
          "name": "patientId",
          "type": "uint256"
        },
        {
          "indexed": false,
          "internalType": "address",
          "name": "provider",
          "type": "address"
        }
      ],
      "name": "AccessGranted",
      "type": "event"
    },
    {
      "anonymous": false,
      "inputs": [
        {
          "indexed": false,
          "internalType": "uint256",
          "name": "patientId",
          "type": "uint256"
        },
        {
          "indexed": false,
          "internalType": "address",
          "name": "provider",
          "type": "address"
        }
      ],
      "name": "AccessRevoked",
      "type": "event"
    },
    {
      "anonymous": false,
      "inputs": [
        {
          "indexed": false,
          "internalType": "uint256",
          "name": "patientId",
          "type": "uint256"
        },
        {
          "indexed": false,
          "internalType": "bytes32",
          "name": "initialHash",
          "type": "bytes32"
        },
        {
          "indexed": false,
          "internalType": "address",
          "name": "owner",
          "type": "address"
        }
      ],
      "name": "PatientCreated",
      "type": "event"
    },
    {
      "anonymous": false,
      "inputs": [
        {
          "indexed": false,
          "internalType": "uint256",
          "name": "patientId",
          "type": "uint256"
        },
        {
          "indexed": false,
          "internalType": "bytes32",
          "name": "newHash",
          "type": "bytes32"
        }
      ],
      "name": "RecordUpdated",
      "type": "event"
    },
    {
      "inputs": [
        {
          "internalType": "bytes32",
          "name": "initialHash",
          "type": "bytes32"
        }
      ],
      "name": "createPatient",
      "outputs": [
        {
          "internalType": "uint256",
          "name": "",
          "type": "uint256"
        }
      ],
      "stateMutability": "nonpayable",
      "type": "function"
    },
    {
      "inputs": [
        {
          "internalType": "uint256",
          "name": "patientId",
          "type": "uint256"
        }
      ],
      "name": "getAllRecords",
      "outputs": [
        {
          "internalType": "bytes32[]",
          "name": "",
          "type": "bytes32[]"
        }
      ],
      "stateMutability": "view",
      "type": "function"
    },
    {
      "inputs": [
        {
          "internalType": "uint256",
          "name": "patientId",
          "type": "uint256"
        }
      ],
      "name": "getLatestRecord",
      "outputs": [
        {
          "internalType": "bytes32",
          "name": "",
          "type": "bytes32"
        }
      ],
      "stateMutability": "view",
      "type": "function"
    },
    {
      "inputs": [
        {
          "internalType": "uint256",
          "name": "patientId",
          "type": "uint256"
        },
        {
          "internalType": "address",
          "name": "provider",
          "type": "address"
        }
      ],
      "name": "grantAccess",
      "outputs": [],
      "stateMutability": "nonpayable",
      "type": "function"
    },
    {
      "inputs": [],
      "name": "patientCounter",
      "outputs": [
        {
          "internalType": "uint256",
          "name": "",
          "type": "uint256"
        }
      ],
      "stateMutability": "view",
      "type": "function"
    },
    {
      "inputs": [
        {
          "internalType": "uint256",
          "name": "patientId",
          "type": "uint256"
        },
        {
          "internalType": "address",
          "name": "provider",
          "type": "address"
        }
      ],
      "name": "revokeAccess",
      "outputs": [],
      "stateMutability": "nonpayable",
      "type": "function"
    },
    {
      "inputs": [
        {
          "internalType": "uint256",
          "name": "patientId",
          "type": "uint256"
        },
        {
          "internalType": "bytes32",
          "name": "newHash",
          "type": "bytes32"
        }
      ],
      "name": "updateRecord",
      "outputs": [],
      "stateMutability": "nonpayable",
      "type": "function"
    }
  ],
  "bytecode": "0x6080604052348015600f57600080fd5b50610e7e8061001f6000396000f3fe608060405234801561001057600080fd5b506004361061007d5760003560e01c8063d9a5ec1b1161005b578063d9a5ec1b146100fe578063e8e0b05c1461011a578063f15d084814610138578063f6d7ace1146101685761007d565b806327f8ab061461008257806365dd152c146100b2578063933d8f14146100ce575b600080fd5b61009c6004803603810190610097919061094b565b610184565b6040516100a99190610991565b60405180910390f35b6100cc60048036038101906100c79190610a36565b61026c565b005b6100e860048036038101906100e39190610a76565b6103b9565b6040516100f59190610ab2565b60405180910390f35b61011860048036038101906101139190610a36565b610528565b005b610122610675565b60405161012f9190610991565b60405180910390f35b610152600480360381019061014d9190610a76565b61067b565b60405161015f9190610b8b565b60405180910390f35b610182600480360381019061017d9190610bad565b6107f2565b005b60006001600081548092919061019990610c1c565b9190505550600080600060015481526020019081526020016000209050338160010160006101000a81548173ffffffffffffffffffffffffffffffffffffffff021916908373ffffffffffffffffffffffffffffffffffffffff160217905550806000018390806001815401808255809150506001900390600052602060002001600090919091909150557fe60ad96de2dec76ef9609231d9b70731871f5ad0159ffc9ed3db68320b9cb42c600154843360405161025993929190610c73565b60405180910390a1600154915050919050565b8160008082815260200190815260200160002060010160009054906101000a900473ffffffffffffffffffffffffffffffffffffffff1673ffffffffffffffffffffffffffffffffffffffff163373ffffffffffffffffffffffffffffffffffffffff1614610310576040517f08c379a000000000000000000000000000000000000000000000000000000000815260040161030790610d07565b60405180910390fd5b600160008085815260200190815260200160002060020160008473ffffffffffffffffffffffffffffffffffffffff1673ffffffffffffffffffffffffffffffffffffffff16815260200190815260200160002060006101000a81548160ff0219169083151502179055507f3c3a9147a1fc73dd51a32f4d10c43d457e8cb826eb6f35cac6349eb965ba82b483836040516103ac929190610d27565b60405180910390a1505050565b600080600083815260200190815260200160002060010160009054906101000a900473ffffffffffffffffffffffffffffffffffffffff1673ffffffffffffffffffffffffffffffffffffffff163373ffffffffffffffffffffffffffffffffffffffff161480610486575060008083815260200190815260200160002060020160003373ffffffffffffffffffffffffffffffffffffffff1673ffffffffffffffffffffffffffffffffffffffff16815260200190815260200160002060009054906101000a900460ff165b6104c5576040517f08c379a00000000000000000000000000000000000000000000000000000000081526004016104bc90610d9c565b60405180910390fd5b60008060008481526020019081526020016000206000018054905090506000808481526020019081526020016000206000016001826105049190610dbc565b8154811061051557610514610df0565b5b9060005260206000200154915050919050565b8160008082815260200190815260200160002060010160009054906101000a900473ffffffffffffffffffffffffffffffffffffffff1673ffffffffffffffffffffffffffffffffffffffff163373ffffffffffffffffffffffffffffffffffffffff16146105cc576040517f08c379a00000000000000000000000000000000000000000000000000000000081526004016105c390610d07565b60405180910390fd5b600080600085815260200190815260200160002060020160008473ffffffffffffffffffffffffffffffffffffffff1673ffffffffffffffffffffffffffffffffffffffff16815260200190815260200160002060006101000a81548160ff0219169083151502179055507f125883b94692baebecad9f111ed97ffa626523bbbadc6b0ef85ee1b56b9e52d58383604051610668929190610d27565b60405180910390a1505050565b60015481565b606060008083815260200190815260200160002060010160009054906101000a900473ffffffffffffffffffffffffffffffffffffffff1673ffffffffffffffffffffffffffffffffffffffff163373ffffffffffffffffffffffffffffffffffffffff161480610748575060008083815260200190815260200160002060020160003373ffffffffffffffffffffffffffffffffffffffff1673ffffffffffffffffffffffffffffffffffffffff16815260200190815260200160002060009054906101000a900460ff165b610787576040517f08c379a000000000000000000000000000000000000000000000000000000000815260040161077e90610d9c565b60405180910390fd5b6000808381526020019081526020016000206000018054806020026020016040519081016040528092919081815260200182805480156107e657602002820191906000526020600020905b8154815260200190600101908083116107d2575b50505050509050919050565b8160008082815260200190815260200160002060010160009054906101000a900473ffffffffffffffffffffffffffffffffffffffff1673ffffffffffffffffffffffffffffffffffffffff163373ffffffffffffffffffffffffffffffffffffffff1614610896576040517f08c379a000000000000000000000000000000000000000000000000000000000815260040161088d90610d07565b60405180910390fd5b6000808481526020019081526020016000206000018290806001815401808255809150506001900390600052602060002001600090919091909150557f0fef1e979d0b74e703ce41335e4adc7465be6b6511ce6870d8d76b85a2cd987c8383604051610903929190610e1f565b60405180910390a1505050565b600080fd5b6000819050919050565b61092881610915565b811461093357600080fd5b50565b6000813590506109458161091f565b92915050565b60006020828403121561096157610960610910565b5b600061096f84828501610936565b91505092915050565b6000819050919050565b61098b81610978565b82525050565b60006020820190506109a66000830184610982565b92915050565b6109b581610978565b81146109c057600080fd5b50565b6000813590506109d2816109ac565b92915050565b600073ffffffffffffffffffffffffffffffffffffffff82169050919050565b6000610a03826109d8565b9050919050565b610a13816109f8565b8114610a1e57600080fd5b50565b600081359050610a3081610a0a565b92915050565b60008060408385031215610a4d57610a4c610910565b5b6000610a5b858286016109c3565b9250506020610a6c85828601610a21565b9150509250929050565b600060208284031215610a8c57610a8b610910565b5b6000610a9a848285016109c3565b91505092915050565b610aac81610915565b82525050565b6000602082019050610ac76000830184610aa3565b92915050565b600081519050919050565b600082825260208201905092915050565b6000819050602082019050919050565b610b0281610915565b82525050565b6000610b148383610af9565b60208301905092915050565b6000602082019050919050565b6000610b3882610acd565b610b428185610ad8565b9350610b4d83610ae9565b8060005b83811015610b7e578151610b658882610b08565b9750610b7083610b20565b925050600181019050610b51565b5085935050505092915050565b60006020820190508181036000830152610ba58184610b2d565b905092915050565b60008060408385031215610bc457610bc3610910565b5b6000610bd2858286016109c3565b9250506020610be385828601610936565b9150509250929050565b7f4e487b7100000000000000000000000000000000000000000000000000000000600052601160045260246000fd5b6000610c2782610978565b91507fffffffffffffffffffffffffffffffffffffffffffffffffffffffffffffffff8203610c5957610c58610bed565b5b600182019050919050565b610c6d816109f8565b82525050565b6000606082019050610c886000830186610982565b610c956020830185610aa3565b610ca26040830184610c64565b949350505050565b600082825260208201905092915050565b7f4f6e6c79206f776e657200000000000000000000000000000000000000000000600082015250565b6000610cf1600a83610caa565b9150610cfc82610cbb565b602082019050919050565b60006020820190508181036000830152610d2081610ce4565b9050919050565b6000604082019050610d3c6000830185610982565b610d496020830184610c64565b9392505050565b7f4163636573732064656e69656400000000000000000000000000000000000000600082015250565b6000610d86600d83610caa565b9150610d9182610d50565b602082019050919050565b60006020820190508181036000830152610db581610d79565b9050919050565b6000610dc782610978565b9150610dd283610978565b9250828203905081811115610dea57610de9610bed565b5b92915050565b7f4e487b7100000000000000000000000000000000000000000000000000000000600052603260045260246000fd5b6000604082019050610e346000830185610982565b610e416020830184610aa3565b939250505056fea2646970667358221220c4839877b63fd9f3ae5adf5305b6c4729ed6b9f344092687748be22fcdd5f41a64736f6c634300081c0033",
  "linkReferences": {},
  "deployedLinkReferences": {}
}