{
  "_format": "hh-sol-artifact-1",
  "contractName": "SanjeevniICO",
  "sourceName": "contracts/SanjeevniICO.sol",
  "abi": [
    {
      "inputs": [
        {
          "internalType": "address",
          "name": "_token",
          "type": "address"
        },
        {
          "internalType": "address",
          "name": "_paymentToken",
          "type": "address"
        }
      ],
      "stateMutability": "nonpayable",
      "type": "constructor"
    },
    {
      "inputs": [
        {
          "internalType": "address",
          "name": "target",
          "type": "address"
        }
      ],
      "name": "AddressEmptyCode",
      "type": "error"
    },
    {
      "inputs": [
        {
          "internalType": "address",
          "name": "account",
          "type": "address"
        }
      ],
      "name": "AddressInsufficientBalance",
      "type": "error"
    },
    {
      "inputs": [],
      "name": "FailedInnerCall",
      "type": "error"
    },
    {
      "inputs": [
        {
          "internalType": "address",
          "name": "owner",
          "type": "address"
        }
      ],
      "name": "OwnableInvalidOwner",
      "type": "error"
    },
    {
      "inputs": [
        {
          "internalType": "address",
          "name": "account",
          "type": "address"
        }
      ],
      "name": "OwnableUnauthorizedAccount",
      "type": "error"
    },
    {
      "inputs": [],
      "name": "ReentrancyGuardReentrantCall",
      "type": "error"
    },
    {
      "inputs": [
        {
          "internalType": "address",
          "name": "token",
          "type": "address"
        }
      ],
      "name": "SafeERC20FailedOperation",
      "type": "error"
    },
    {
      "anonymous": false,
      "inputs": [
        {
          "indexed": true,
          "internalType": "address",
          "name": "previousOwner",
          "type": "address"
        },
        {
          "indexed": true,
          "internalType": "address",
          "name": "newOwner",
          "type": "address"
        }
      ],
      "name": "OwnershipTransferred",
      "type": "event"
    },
    {
      "anonymous": false,
      "inputs": [
        {
          "indexed": false,
          "internalType": "uint256",
          "name": "newRate",
          "type": "uint256"
        }
      ],
      "name": "RateUpdated",
      "type": "event"
    },
    {
      "anonymous": false,
      "inputs": [
        {
          "indexed": true,
          "internalType": "address",
          "name": "buyer",
          "type": "address"
        },
        {
          "indexed": false,
          "internalType": "uint256",
          "name": "ethAmount",
          "type": "uint256"
        },
        {
          "indexed": false,
          "internalType": "uint256",
          "name": "tokenAmount",
          "type": "uint256"
        }
      ],
      "name": "TokensPurchased",
      "type": "event"
    },
    {
      "anonymous": false,
      "inputs": [
        {
          "indexed": true,
          "internalType": "address",
          "name": "buyer",
          "type": "address"
        },
        {
          "indexed": false,
          "internalType": "bool",
          "name": "status",
          "type": "bool"
        }
      ],
      "name": "WhitelistUpdated",
      "type": "event"
    },
    {
      "inputs": [
        {
          "internalType": "uint256",
          "name": "_amount",
          "type": "uint256"
        }
      ],
      "name": "buyTokens",
      "outputs": [],
      "stateMutability": "nonpayable",
      "type": "function"
    },
    {
      "inputs": [],
      "name": "endTime",
      "outputs": [
        {
          "internalType": "uint256",
          "name": "",
          "type": "uint256"
        }
      ],
      "stateMutability": "view",
      "type": "function"
    },
    {
      "inputs": [],
      "name": "getStats",
      "outputs": [
        {
          "internalType": "uint256",
          "name": "rate_",
          "type": "uint256"
        },
        {
          "internalType": "uint256",
          "name": "raised_",
          "type": "uint256"
        },
        {
          "internalType": "uint256",
          "name": "hardCap_",
          "type": "uint256"
        },
        {
          "internalType": "uint256",
          "name": "tokensSold",
          "type": "uint256"
        },
        {
          "internalType": "bool",
          "name": "active",
          "type": "bool"
        }
      ],
      "stateMutability": "view",
      "type": "function"
    },
    {
      "inputs": [],
      "name": "hardCap",
      "outputs": [
        {
          "internalType": "uint256",
          "name": "",
          "type": "uint256"
        }
      ],
      "stateMutability": "view",
      "type": "function"
    },
    {
      "inputs": [],
      "name": "isPaused",
      "outputs": [
        {
          "internalType": "bool",
          "name": "",
          "type": "bool"
        }
      ],
      "stateMutability": "view",
      "type": "function"
    },
    {
      "inputs": [],
      "name": "maxPurchase",
      "outputs": [
        {
          "internalType": "uint256",
          "name": "",
          "type": "uint256"
        }
      ],
      "stateMutability": "view",
      "type": "function"
    },
    {
      "inputs": [],
      "name": "minPurchase",
      "outputs": [
        {
          "internalType": "uint256",
          "name": "",
          "type": "uint256"
        }
      ],
      "stateMutability": "view",
      "type": "function"
    },
    {
      "inputs": [],
      "name": "owner",
      "outputs": [
        {
          "internalType": "address",
          "name": "",
          "type": "address"
        }
      ],
      "stateMutability": "view",
      "type": "function"
    },
    {
      "inputs": [],
      "name": "pauseICO",
      "outputs": [],
      "stateMutability": "nonpayable",
      "type": "function"
    },
    {
      "inputs": [],
      "name": "paymentToken",
      "outputs": [
        {
          "internalType": "contract IERC20",
          "name": "",
          "type": "address"
        }
      ],
      "stateMutability": "view",
      "type": "function"
    },
    {
      "inputs": [
        {
          "internalType": "address",
          "name": "",
          "type": "address"
        }
      ],
      "name": "purchasedAmount",
      "outputs": [
        {
          "internalType": "uint256",
          "name": "",
          "type": "uint256"
        }
      ],
      "stateMutability": "view",
      "type": "function"
    },
    {
      "inputs": [],
      "name": "raised",
      "outputs": [
        {
          "internalType": "uint256",
          "name": "",
          "type": "uint256"
        }
      ],
      "stateMutability": "view",
      "type": "function"
    },
    {
      "inputs": [],
      "name": "rate",
      "outputs": [
        {
          "internalType": "uint256",
          "name": "",
          "type": "uint256"
        }
      ],
      "stateMutability": "view",
      "type": "function"
    },
    {
      "inputs": [],
      "name": "renounceOwnership",
      "outputs": [],
      "stateMutability": "nonpayable",
      "type": "function"
    },
    {
      "inputs": [
        {
          "internalType": "uint256",
          "name": "_min",
          "type": "uint256"
        },
        {
          "internalType": "uint256",
          "name": "_max",
          "type": "uint256"
        }
      ],
      "name": "setPurchaseLimits",
      "outputs": [],
      "stateMutability": "nonpayable",
      "type": "function"
    },
    {
      "inputs": [
        {
          "internalType": "uint256",
          "name": "_rate",
          "type": "uint256"
        }
      ],
      "name": "setRate",
      "outputs": [],
      "stateMutability": "nonpayable",
      "type": "function"
    },
    {
      "inputs": [
        {
          "internalType": "uint256",
          "name": "_start",
          "type": "uint256"
        },
        {
          "internalType": "uint256",
          "name": "_duration",
          "type": "uint256"
        }
      ],
      "name": "setTime",
      "outputs": [],
      "stateMutability": "nonpayable",
      "type": "function"
    },
    {
      "inputs": [],
      "name": "startTime",
      "outputs": [
        {
          "internalType": "uint256",
          "name": "",
          "type": "uint256"
        }
      ],
      "stateMutability": "view",
      "type": "function"
    },
    {
      "inputs": [],
      "name": "token",
      "outputs": [
        {
          "internalType": "contract IERC20",
          "name": "",
          "type": "address"
        }
      ],
      "stateMutability": "view",
      "type": "function"
    },
    {
      "inputs": [
        {
          "internalType": "address",
          "name": "newOwner",
          "type": "address"
        }
      ],
      "name": "transferOwnership",
      "outputs": [],
      "stateMutability": "nonpayable",
      "type": "function"
    },
    {
      "inputs": [],
      "name": "unpauseICO",
      "outputs": [],
      "stateMutability": "nonpayable",
      "type": "function"
    },
    {
      "inputs": [
        {
          "internalType": "address[]",
          "name": "_addresses",
          "type": "address[]"
        },
        {
          "internalType": "bool",
          "name": "_status",
          "type": "bool"
        }
      ],
      "name": "whitelist",
      "outputs": [],
      "stateMutability": "nonpayable",
      "type": "function"
    },
    {
      "inputs": [
        {
          "internalType": "address",
          "name": "",
          "type": "address"
        }
      ],
      "name": "whitelisted",
      "outputs": [
        {
          "internalType": "bool",
          "name": "",
          "type": "bool"
        }
      ],
      "stateMutability": "view",
      "type": "function"
    },
    {
      "inputs": [],
      "name": "withdrawFunds",
      "outputs": [],
      "stateMutability": "nonpayable",
      "type": "function"
    }
  ],
  "bytecode": "0x608060405234801561001057600080fd5b50604051610fb9380380610fb983398101604081905261002f9161016d565b338061005657604051631e4fbdf760e01b8152600060048201526024015b60405180910390fd5b61005f81610101565b50600180556001600160a01b0382166100a75760405162461bcd60e51b815260206004820152600a6024820152692d32b937903a37b5b2b760b11b604482015260640161004d565b600280546001600160a01b039384166001600160a01b031991821617909155600380549290931691161790556064600455662386f26fc10000600555678ac7230489e800006006556802b5e3af16b18800006007556101a0565b600080546001600160a01b038381166001600160a01b0319831681178455604051919092169283917f8be0079c531659141344cd1fd0a4f28419497f9722a3daafe3b4186f6b6457e09190a35050565b80516001600160a01b038116811461016857600080fd5b919050565b6000806040838503121561018057600080fd5b61018983610151565b915061019760208401610151565b90509250929050565b610e0a806101af6000396000f3fe608060405234801561001057600080fd5b50600436106101585760003560e01c806378e97925116100c3578063c59d48471161007c578063c59d484714610297578063d936547e146102c9578063f0ea4bfc146102ec578063f2fde38b146102f5578063fb86a40414610308578063fc0c546a1461031157600080fd5b806378e97925146102315780638da5cb5b1461023a578063977b055b1461024b578063a0355eca14610254578063b187bd2614610267578063be30f0a61461028457600080fd5b806333c77a6d1161011557806333c77a6d146101d357806334fcf437146101db5780633610724e146101ee57806344c4dcc11461020157806363d177e614610221578063715018a61461022957600080fd5b806301b38af51461015d57806324600fc3146101725780632c4e722e1461017a5780633013ce29146101965780633197cbb6146101c157806333b5b62e146101ca575b600080fd5b61017061016b366004610c16565b610324565b005b61017061040e565b61018360045481565b6040519081526020015b60405180910390f35b6003546101a9906001600160a01b031681565b6040516001600160a01b03909116815260200161018d565b610183600a5481565b61018360055481565b610170610502565b6101706101e9366004610c9c565b610519565b6101706101fc366004610c9c565b610597565b61018361020f366004610cb5565b600d6020526000908152604090205481565b61017061083e565b610170610852565b61018360095481565b6000546001600160a01b03166101a9565b61018360065481565b610170610262366004610cde565b610866565b600b546102749060ff1681565b604051901515815260200161018d565b610170610292366004610cde565b610884565b61029f610897565b6040805195865260208601949094529284019190915260608301521515608082015260a00161018d565b6102746102d7366004610cb5565b600c6020526000908152604090205460ff1681565b61018360085481565b610170610303366004610cb5565b6108eb565b61018360075481565b6002546101a9906001600160a01b031681565b61032c610926565b60005b828110156104085781600c600086868581811061034e5761034e610d00565b90506020020160208101906103639190610cb5565b6001600160a01b031681526020810191909152604001600020805460ff191691151591909117905583838281811061039d5761039d610d00565b90506020020160208101906103b29190610cb5565b6001600160a01b03167ff93f9a76c1bf3444d22400a00cb9fe990e6abe9dbb333fda48859cfee864543d836040516103ee911515815260200190565b60405180910390a28061040081610d2c565b91505061032f565b50505050565b610416610926565b600a5442118061042a575060075460085410155b6104685760405162461bcd60e51b815260206004820152600a60248201526949434f2061637469766560b01b60448201526064015b60405180910390fd5b6003546040516370a0823160e01b81523060048201526000916001600160a01b0316906370a0823190602401602060405180830381865afa1580156104b1573d6000803e3d6000fd5b505050506040513d601f19601f820116820180604052508101906104d59190610d45565b90506104ff6104ec6000546001600160a01b031690565b6003546001600160a01b03169083610953565b50565b61050a610926565b600b805460ff19166001179055565b610521610926565b6000811161055c5760405162461bcd60e51b8152602060048201526008602482015267052617465203e20360c41b604482015260640161045f565b60048190556040518181527fe65c987b2e4668e09ba867026921588005b2b2063607a1e7e7d91683c8f91b7b9060200160405180910390a150565b61059f6109b7565b600b5460ff16156105db5760405162461bcd60e51b815260206004820152600660248201526514185d5cd95960d21b604482015260640161045f565b60006009541180156105ef57506009544210155b6106295760405162461bcd60e51b815260206004820152600b60248201526a139bdd081cdd185c9d195960aa1b604482015260640161045f565b6000600a5411801561063c5750600a5442105b6106705760405162461bcd60e51b8152602060048201526005602482015264115b99195960da1b604482015260640161045f565b600b5460ff16156106ac5760405162461bcd60e51b815260206004820152600660248201526514185d5cd95960d21b604482015260640161045f565b6005548110156106ea5760405162461bcd60e51b81526020600482015260096024820152682132b637bb9036b4b760b91b604482015260640161045f565b6006548111156107285760405162461bcd60e51b8152602060048201526009602482015268082c4deecca40dac2f60bb1b604482015260640161045f565b600754816008546107399190610d5e565b111561077a5760405162461bcd60e51b815260206004820152601060248201526f12185c990818d85c081c995858da195960821b604482015260640161045f565b60006004548261078a9190610d71565b6003549091506107a5906001600160a01b03163330856109e1565b336000908152600d6020526040812080548492906107c4908490610d5e565b9250508190555081600860008282546107dd9190610d5e565b90915550506002546107f9906001600160a01b03163383610953565b604080518381526020810183905233917f8fafebcaf9d154343dad25669bfa277f4fbacd7ac6b0c4fed522580e040a0f33910160405180910390a2506104ff60018055565b610846610926565b600b805460ff19169055565b61085a610926565b6108646000610a1a565b565b61086e610926565b600982905561087d8183610d5e565b600a555050565b61088c610926565b600591909155600655565b60008060008060006004546008546007546004546008546108b89190610d71565b60095442101580156108cb5750600a5442105b80156108da5750600754600854105b945094509450945094509091929394565b6108f3610926565b6001600160a01b03811661091d57604051631e4fbdf760e01b81526000600482015260240161045f565b6104ff81610a1a565b6000546001600160a01b031633146108645760405163118cdaa760e01b815233600482015260240161045f565b6040516001600160a01b038381166024830152604482018390526109b291859182169063a9059cbb906064015b604051602081830303815290604052915060e01b6020820180516001600160e01b038381831617835250505050610a6a565b505050565b6002600154036109da57604051633ee5aeb560e01b815260040160405180910390fd5b6002600155565b6040516001600160a01b0384811660248301528381166044830152606482018390526104089186918216906323b872dd90608401610980565b600080546001600160a01b038381166001600160a01b0319831681178455604051919092169283917f8be0079c531659141344cd1fd0a4f28419497f9722a3daafe3b4186f6b6457e09190a35050565b6000610a7f6001600160a01b03841683610acd565b90508051600014158015610aa4575080806020019051810190610aa29190610d88565b155b156109b257604051635274afe760e01b81526001600160a01b038416600482015260240161045f565b6060610adb83836000610ae4565b90505b92915050565b606081471015610b095760405163cd78605960e01b815230600482015260240161045f565b600080856001600160a01b03168486604051610b259190610da5565b60006040518083038185875af1925050503d8060008114610b62576040519150601f19603f3d011682016040523d82523d6000602084013e610b67565b606091505b5091509150610b77868383610b83565b925050505b9392505050565b606082610b9857610b9382610bdf565b610b7c565b8151158015610baf57506001600160a01b0384163b155b15610bd857604051639996b31560e01b81526001600160a01b038516600482015260240161045f565b5080610b7c565b805115610bef5780518082602001fd5b604051630a12f52160e11b815260040160405180910390fd5b80151581146104ff57600080fd5b600080600060408486031215610c2b57600080fd5b833567ffffffffffffffff80821115610c4357600080fd5b818601915086601f830112610c5757600080fd5b813581811115610c6657600080fd5b8760208260051b8501011115610c7b57600080fd5b60209283019550935050840135610c9181610c08565b809150509250925092565b600060208284031215610cae57600080fd5b5035919050565b600060208284031215610cc757600080fd5b81356001600160a01b0381168114610b7c57600080fd5b60008060408385031215610cf157600080fd5b50508035926020909101359150565b634e487b7160e01b600052603260045260246000fd5b634e487b7160e01b600052601160045260246000fd5b600060018201610d3e57610d3e610d16565b5060010190565b600060208284031215610d5757600080fd5b5051919050565b80820180821115610ade57610ade610d16565b8082028115828204841417610ade57610ade610d16565b600060208284031215610d9a57600080fd5b8151610b7c81610c08565b6000825160005b81811015610dc65760208186018101518583015201610dac565b50600092019182525091905056fea2646970667358221220375700db859fa89d4d3d8a5789b8ea80d67f2a89402b45cca48685b599cbd81664736f6c63430008140033",
  "linkReferences": {},
  "deployedLinkReferences": {}
}