{
  "_format": "hh-sol-artifact-1",
  "contractName": "PatientDetails",
  "sourceName": "contracts/PatientDetails.sol",
  "abi": [
    {
      "inputs": [
        {
          "internalType": "address",
          "name": "_forwarder",
          "type": "address"
        }
      ],
      "stateMutability": "nonpayable",
      "type": "constructor"
    },
    {
      "inputs": [
        {
          "internalType": "address",
          "name": "target",
          "type": "address"
        }
      ],
      "name": "AddressEmptyCode",
      "type": "error"
    },
    {
      "inputs": [],
      "name": "AlertAlreadyResolved",
      "type": "error"
    },
    {
      "inputs": [
        {
          "internalType": "address",
          "name": "implementation",
          "type": "address"
        }
      ],
      "name": "ERC1967InvalidImplementation",
      "type": "error"
    },
    {
      "inputs": [],
      "name": "ERC1967NonPayable",
      "type": "error"
    },
    {
      "inputs": [],
      "name": "FailedInnerCall",
      "type": "error"
    },
    {
      "inputs": [],
      "name": "InvalidInitialization",
      "type": "error"
    },
    {
      "inputs": [],
      "name": "InvalidVitals",
      "type": "error"
    },
    {
      "inputs": [],
      "name": "NotInitializing",
      "type": "error"
    },
    {
      "inputs": [],
      "name": "UUPSUnauthorizedCallContext",
      "type": "error"
    },
    {
      "inputs": [
        {
          "internalType": "bytes32",
          "name": "slot",
          "type": "bytes32"
        }
      ],
      "name": "UUPSUnsupportedProxiableUUID",
      "type": "error"
    },
    {
      "anonymous": false,
      "inputs": [
        {
          "indexed": true,
          "internalType": "address",
          "name": "patient",
          "type": "address"
        },
        {
          "indexed": false,
          "internalType": "string",
          "name": "issue",
          "type": "string"
        },
        {
          "indexed": false,
          "internalType": "enum PatientDetails.Severity",
          "name": "severity",
          "type": "uint8"
        },
        {
          "indexed": false,
          "internalType": "uint256",
          "name": "timestamp",
          "type": "uint256"
        }
      ],
      "name": "ClinicalAlertTriggered",
      "type": "event"
    },
    {
      "anonymous": false,
      "inputs": [
        {
          "indexed": false,
          "internalType": "uint64",
          "name": "version",
          "type": "uint64"
        }
      ],
      "name": "Initialized",
      "type": "event"
    },
    {
      "anonymous": false,
      "inputs": [
        {
          "indexed": true,
          "internalType": "address",
          "name": "implementation",
          "type": "address"
        }
      ],
      "name": "Upgraded",
      "type": "event"
    },
    {
      "anonymous": false,
      "inputs": [
        {
          "indexed": true,
          "internalType": "address",
          "name": "patient",
          "type": "address"
        },
        {
          "indexed": false,
          "internalType": "string",
          "name": "bloodPressure",
          "type": "string"
        },
        {
          "indexed": false,
          "internalType": "string",
          "name": "weight",
          "type": "string"
        },
        {
          "indexed": false,
          "internalType": "string",
          "name": "height",
          "type": "string"
        },
        {
          "indexed": false,
          "internalType": "string",
          "name": "heartRate",
          "type": "string"
        },
        {
          "indexed": false,
          "internalType": "string",
          "name": "temperature",
          "type": "string"
        },
        {
          "indexed": false,
          "internalType": "uint256",
          "name": "timestamp",
          "type": "uint256"
        }
      ],
      "name": "VitalsUpdated",
      "type": "event"
    },
    {
      "anonymous": false,
      "inputs": [
        {
          "indexed": true,
          "internalType": "address",
          "name": "patient",
          "type": "address"
        },
        {
          "indexed": true,
          "internalType": "address",
          "name": "provider",
          "type": "address"
        },
        {
          "indexed": false,
          "internalType": "string",
          "name": "bloodPressure",
          "type": "string"
        },
        {
          "indexed": false,
          "internalType": "string",
          "name": "heartRate",
          "type": "string"
        },
        {
          "indexed": false,
          "internalType": "string",
          "name": "temperature",
          "type": "string"
        },
        {
          "indexed": false,
          "internalType": "uint256",
          "name": "timestamp",
          "type": "uint256"
        }
      ],
      "name": "VitalsUpdatedByProvider",
      "type": "event"
    },
    {
      "inputs": [],
      "name": "UPGRADE_INTERFACE_VERSION",
      "outputs": [
        {
          "internalType": "string",
          "name": "",
          "type": "string"
        }
      ],
      "stateMutability": "view",
      "type": "function"
    },
    {
      "inputs": [],
      "name": "accessControl",
      "outputs": [
        {
          "internalType": "contract MediSecureAccessControl",
          "name": "",
          "type": "address"
        }
      ],
      "stateMutability": "view",
      "type": "function"
    },
    {
      "inputs": [
        {
          "internalType": "address",
          "name": "_patient",
          "type": "address"
        }
      ],
      "name": "getAlerts",
      "outputs": [
        {
          "components": [
            {
              "internalType": "string",
              "name": "issue",
              "type": "string"
            },
            {
              "internalType": "enum PatientDetails.Severity",
              "name": "severity",
              "type": "uint8"
            },
            {
              "internalType": "uint256",
              "name": "timestamp",
              "type": "uint256"
            },
            {
              "internalType": "bool",
              "name": "resolved",
              "type": "bool"
            }
          ],
          "internalType": "struct PatientDetails.EmergencyAlert[]",
          "name": "",
          "type": "tuple[]"
        }
      ],
      "stateMutability": "view",
      "type": "function"
    },
    {
      "inputs": [
        {
          "internalType": "address",
          "name": "patient",
          "type": "address"
        }
      ],
      "name": "getVitals",
      "outputs": [
        {
          "components": [
            {
              "internalType": "string",
              "name": "bloodPressure",
              "type": "string"
            },
            {
              "internalType": "string",
              "name": "weight",
              "type": "string"
            },
            {
              "internalType": "string",
              "name": "height",
              "type": "string"
            },
            {
              "internalType": "string",
              "name": "heartRate",
              "type": "string"
            },
            {
              "internalType": "string",
              "name": "temperature",
              "type": "string"
            },
            {
              "internalType": "uint256",
              "name": "lastUpdated",
              "type": "uint256"
            }
          ],
          "internalType": "struct PatientDetails.Vitals",
          "name": "",
          "type": "tuple"
        }
      ],
      "stateMutability": "view",
      "type": "function"
    },
    {
      "inputs": [
        {
          "internalType": "bytes32",
          "name": "role",
          "type": "bytes32"
        },
        {
          "internalType": "address",
          "name": "account",
          "type": "address"
        }
      ],
      "name": "hasRole",
      "outputs": [
        {
          "internalType": "bool",
          "name": "",
          "type": "bool"
        }
      ],
      "stateMutability": "view",
      "type": "function"
    },
    {
      "inputs": [
        {
          "internalType": "enum Roles",
          "name": "role",
          "type": "uint8"
        },
        {
          "internalType": "address",
          "name": "account",
          "type": "address"
        }
      ],
      "name": "hasRole",
      "outputs": [
        {
          "internalType": "bool",
          "name": "",
          "type": "bool"
        }
      ],
      "stateMutability": "view",
      "type": "function"
    },
    {
      "inputs": [
        {
          "internalType": "address",
          "name": "_accessControl",
          "type": "address"
        }
      ],
      "name": "initialize",
      "outputs": [],
      "stateMutability": "nonpayable",
      "type": "function"
    },
    {
      "inputs": [
        {
          "internalType": "address",
          "name": "account",
          "type": "address"
        }
      ],
      "name": "isAdmin",
      "outputs": [
        {
          "internalType": "bool",
          "name": "",
          "type": "bool"
        }
      ],
      "stateMutability": "view",
      "type": "function"
    },
    {
      "inputs": [
        {
          "internalType": "address",
          "name": "forwarder",
          "type": "address"
        }
      ],
      "name": "isTrustedForwarder",
      "outputs": [
        {
          "internalType": "bool",
          "name": "",
          "type": "bool"
        }
      ],
      "stateMutability": "view",
      "type": "function"
    },
    {
      "inputs": [],
      "name": "proxiableUUID",
      "outputs": [
        {
          "internalType": "bytes32",
          "name": "",
          "type": "bytes32"
        }
      ],
      "stateMutability": "view",
      "type": "function"
    },
    {
      "inputs": [
        {
          "internalType": "string",
          "name": "bp",
          "type": "string"
        },
        {
          "internalType": "string",
          "name": "weight",
          "type": "string"
        },
        {
          "internalType": "string",
          "name": "height",
          "type": "string"
        },
        {
          "internalType": "string",
          "name": "heartRate",
          "type": "string"
        },
        {
          "internalType": "string",
          "name": "temp",
          "type": "string"
        }
      ],
      "name": "setVitals",
      "outputs": [],
      "stateMutability": "nonpayable",
      "type": "function"
    },
    {
      "inputs": [
        {
          "internalType": "address",
          "name": "patient",
          "type": "address"
        },
        {
          "internalType": "string",
          "name": "bp",
          "type": "string"
        },
        {
          "internalType": "string",
          "name": "heartRate",
          "type": "string"
        },
        {
          "internalType": "string",
          "name": "temp",
          "type": "string"
        }
      ],
      "name": "setVitalsForPatient",
      "outputs": [],
      "stateMutability": "nonpayable",
      "type": "function"
    },
    {
      "inputs": [
        {
          "internalType": "address",
          "name": "patient",
          "type": "address"
        },
        {
          "internalType": "string",
          "name": "issue",
          "type": "string"
        },
        {
          "internalType": "enum PatientDetails.Severity",
          "name": "severity",
          "type": "uint8"
        }
      ],
      "name": "triggerClinicalAlert",
      "outputs": [],
      "stateMutability": "nonpayable",
      "type": "function"
    },
    {
      "inputs": [],
      "name": "trustedForwarder",
      "outputs": [
        {
          "internalType": "address",
          "name": "",
          "type": "address"
        }
      ],
      "stateMutability": "view",
      "type": "function"
    },
    {
      "inputs": [
        {
          "internalType": "address",
          "name": "newImplementation",
          "type": "address"
        },
        {
          "internalType": "bytes",
          "name": "data",
          "type": "bytes"
        }
      ],
      "name": "upgradeToAndCall",
      "outputs": [],
      "stateMutability": "payable",
      "type": "function"
    }
  ],
  "bytecode": "0x60c0604052306080523480156200001557600080fd5b50604051620021a3380380620021a383398101604081905262000038916200010a565b6001600160a01b03811660a0526200004f62000056565b506200013c565b7ff0c57e16840df040f15088dc2f81fe391c3923bec73e23a9662efc9c229c6a00805468010000000000000000900460ff1615620000a75760405163f92ee8a960e01b815260040160405180910390fd5b80546001600160401b0390811614620001075780546001600160401b0319166001600160401b0390811782556040519081527fc7f505b2f371ae2175ee4913f4499e1f2633a7b5936321eed1cdaeb6115181d29060200160405180910390a15b50565b6000602082840312156200011d57600080fd5b81516001600160a01b03811681146200013557600080fd5b9392505050565b60805160a0516120256200017e600039600081816101fc01528181610268015261135701526000818161103a01528181611063015261127901526120256000f3fe6080604052600436106100e85760003560e01c80636bedd7d11161008a578063ad3cb1cc11610059578063ad3cb1cc146102cc578063ba4ef8421461030a578063c4d66de81461032a578063f6e9cf3d1461034a57600080fd5b80636bedd7d11461022c5780637da0a8771461025957806391d148541461028c5780639e97b8f6146102ac57600080fd5b806324d7806c116100c657806324d7806c146101795780634f1ef286146101a957806352d1902d146101bc578063572b6c05146101df57600080fd5b806310660b1e146100ed57806313007d551461010f57806319a3122d1461014c575b600080fd5b3480156100f957600080fd5b5061010d61010836600461163f565b61036a565b005b34801561011b57600080fd5b5060005461012f906001600160a01b031681565b6040516001600160a01b0390911681526020015b60405180910390f35b34801561015857600080fd5b5061016c6101673660046116a9565b61055e565b604051610143919061173e565b34801561018557600080fd5b506101996101943660046116a9565b6106b6565b6040519015158152602001610143565b61010d6101b73660046117e8565b610730565b3480156101c857600080fd5b506101d161074f565b604051908152602001610143565b3480156101eb57600080fd5b506101996101fa3660046116a9565b7f00000000000000000000000000000000000000000000000000000000000000006001600160a01b0390811691161490565b34801561023857600080fd5b5061024c6102473660046116a9565b61076c565b60405161014391906118aa565b34801561026557600080fd5b507f000000000000000000000000000000000000000000000000000000000000000061012f565b34801561029857600080fd5b506101996102a7366004611953565b610ab2565b3480156102b857600080fd5b506101996102c736600461197f565b610b30565b3480156102d857600080fd5b506102fd604051806040016040528060058152602001640352e302e360dc1b81525081565b60405161014391906119af565b34801561031657600080fd5b5061010d6103253660046119c2565b610b63565b34801561033657600080fd5b5061010d6103453660046116a9565b610d98565b34801561035657600080fd5b5061010d610365366004611ab3565b610eb0565b600080546001600160a01b031690639e97b8f690610386611020565b6040518363ffffffff1660e01b81526004016103a3929190611b5e565b602060405180830381865afa1580156103c0573d6000803e3d6000fd5b505050506040513d601f19601f820116820180604052508101906103e49190611b8a565b6104095760405162461bcd60e51b815260040161040090611bac565b60405180910390fd5b60336000856001600160a01b03166001600160a01b03168152602001908152602001600020604051806080016040528085858080601f01602080910402602001604051908101604052809392919081815260200183838082843760009201919091525050509082525060200183600381111561048757610487611714565b815242602080830191909152600060409092018290528354600181018555938252902081519192600402019081906104bf9082611c6e565b50602082015160018083018054909160ff19909116908360038111156104e7576104e7611714565b021790555060408281015160028301556060909201516003909101805460ff1916911515919091179055516001600160a01b038516907f4665d55b87c9c47ea0858e7b9e247108673040620bd3851bcc01ec42adbac92790610550908690869086904290611d57565b60405180910390a250505050565b6001600160a01b0381166000908152603360209081526040808320805482518185028101850190935280835260609492939192909184015b828210156106ab57838290600052602060002090600402016040518060800160405290816000820180546105c990611bee565b80601f01602080910402602001604051908101604052809291908181526020018280546105f590611bee565b80156106425780601f1061061757610100808354040283529160200191610642565b820191906000526020600020905b81548152906001019060200180831161062557829003601f168201915b5050509183525050600182015460209091019060ff16600381111561066957610669611714565b600381111561067a5761067a611714565b8152600282015460208083019190915260039092015460ff1615156040909101529082526001929092019101610596565b505050509050919050565b60008054604051634f4bdc7b60e11b81526001600160a01b0390911690639e97b8f6906106e99084908690600401611b5e565b602060405180830381865afa158015610706573d6000803e3d6000fd5b505050506040513d601f19601f8201168201806040525081019061072a9190611b8a565b92915050565b61073861102f565b610741826110d6565b61074b82826111ac565b5050565b600061075961126e565b50600080516020611fd083398151915290565b6107a56040518060c001604052806060815260200160608152602001606081526020016060815260200160608152602001600081525090565b6001600160a01b03821660009081526032602052604090819020815160c081019092528054829082906107d790611bee565b80601f016020809104026020016040519081016040528092919081815260200182805461080390611bee565b80156108505780601f1061082557610100808354040283529160200191610850565b820191906000526020600020905b81548152906001019060200180831161083357829003601f168201915b5050505050815260200160018201805461086990611bee565b80601f016020809104026020016040519081016040528092919081815260200182805461089590611bee565b80156108e25780601f106108b7576101008083540402835291602001916108e2565b820191906000526020600020905b8154815290600101906020018083116108c557829003601f168201915b505050505081526020016002820180546108fb90611bee565b80601f016020809104026020016040519081016040528092919081815260200182805461092790611bee565b80156109745780601f1061094957610100808354040283529160200191610974565b820191906000526020600020905b81548152906001019060200180831161095757829003601f168201915b5050505050815260200160038201805461098d90611bee565b80601f01602080910402602001604051908101604052809291908181526020018280546109b990611bee565b8015610a065780601f106109db57610100808354040283529160200191610a06565b820191906000526020600020905b8154815290600101906020018083116109e957829003601f168201915b50505050508152602001600482018054610a1f90611bee565b80601f0160208091040260200160405190810160405280929190818152602001828054610a4b90611bee565b8015610a985780601f10610a6d57610100808354040283529160200191610a98565b820191906000526020600020905b815481529060010190602001808311610a7b57829003601f168201915b505050505081526020016005820154815250509050919050565b60008054604051632474521560e21b8152600481018590526001600160a01b038481166024830152909116906391d14854906044015b602060405180830381865afa158015610b05573d6000803e3d6000fd5b505050506040513d601f19601f82011682018060405250810190610b299190611b8a565b9392505050565b60008054604051634f4bdc7b60e11b81526001600160a01b0390911690639e97b8f690610ae89086908690600401611b5e565b6040518060c001604052808b8b8080601f016020809104026020016040519081016040528093929190818152602001838380828437600092019190915250505090825250604080516020601f8c018190048102820181019092528a815291810191908b908b9081908401838280828437600092019190915250505090825250604080516020601f8a0181900481028201810190925288815291810191908990899081908401838280828437600092019190915250505090825250604080516020601f880181900481028201810190925286815291810191908790879081908401838280828437600092019190915250505090825250604080516020601f860181900481028201810190925284815291810191908590859081908401838280828437600092018290525093855250504260209093019290925260329150610ca7611020565b6001600160a01b03168152602081019190915260400160002081518190610cce9082611c6e565b5060208201516001820190610ce39082611c6e565b5060408201516002820190610cf89082611c6e565b5060608201516003820190610d0d9082611c6e565b5060808201516004820190610d229082611c6e565b5060a08201518160050155905050610d38611020565b6001600160a01b03167f415fb855c6f1172bd0f889f7e618863b92a76f9ac29506db8bb099b625f5718d8b8b8b8b8b8b8b8b8b8b42604051610d849b9a99989796959493929190611d89565b60405180910390a250505050505050505050565b7ff0c57e16840df040f15088dc2f81fe391c3923bec73e23a9662efc9c229c6a008054600160401b810460ff16159067ffffffffffffffff16600081158015610dde5750825b905060008267ffffffffffffffff166001148015610dfb5750303b155b905081158015610e09575080155b15610e275760405163f92ee8a960e01b815260040160405180910390fd5b845467ffffffffffffffff191660011785558315610e5157845460ff60401b1916600160401b1785555b610e5a866112b7565b610e6261133f565b8315610ea857845460ff60401b19168555604051600181527fc7f505b2f371ae2175ee4913f4499e1f2633a7b5936321eed1cdaeb6115181d29060200160405180910390a15b505050505050565b600080546001600160a01b031690639e97b8f690610ecc611020565b6040518363ffffffff1660e01b8152600401610ee9929190611b5e565b602060405180830381865afa158015610f06573d6000803e3d6000fd5b505050506040513d601f19601f82011682018060405250810190610f2a9190611b8a565b610f465760405162461bcd60e51b815260040161040090611bac565b6001600160a01b038716610f6d57604051638c4fe76560e01b815260040160405180910390fd5b6001600160a01b038716600090815260326020526040902080610f91878983611e08565b5060038101610fa1858783611e08565b5060048101610fb1838583611e08565b50426005820155610fc0611020565b6001600160a01b0316886001600160a01b03167fc24ed1fa2f240a5e4093681941a2dcce4906a2005c415f665ce0df62ae38d5218989898989894260405161100e9796959493929190611ec9565b60405180910390a35050505050505050565b600061102a611347565b905090565b306001600160a01b037f00000000000000000000000000000000000000000000000000000000000000001614806110b657507f00000000000000000000000000000000000000000000000000000000000000006001600160a01b03166110aa600080516020611fd0833981519152546001600160a01b031690565b6001600160a01b031614155b156110d45760405163703e46dd60e11b815260040160405180910390fd5b565b6000546001600160a01b0316639e97b8f660076110f1611020565b6040518363ffffffff1660e01b815260040161110e929190611b5e565b602060405180830381865afa15801561112b573d6000803e3d6000fd5b505050506040513d601f19601f8201168201806040525081019061114f9190611b8a565b6111a95760405162461bcd60e51b815260206004820152602560248201527f416363657373436f6e74726f6c3a20726573747269637465642d746f2d7570676044820152643930b232b960d91b6064820152608401610400565b50565b816001600160a01b03166352d1902d6040518163ffffffff1660e01b8152600401602060405180830381865afa925050508015611206575060408051601f3d908101601f1916820190925261120391810190611f1a565b60015b61122e57604051634c9c8ce360e01b81526001600160a01b0383166004820152602401610400565b600080516020611fd0833981519152811461125f57604051632a87526960e21b815260048101829052602401610400565b61126983836113bc565b505050565b306001600160a01b037f000000000000000000000000000000000000000000000000000000000000000016146110d45760405163703e46dd60e11b815260040160405180910390fd5b6112bf611412565b6112c761133f565b6001600160a01b03811661131d5760405162461bcd60e51b815260206004820152601e60248201527f496e76616c69642061636365737320636f6e74726f6c206164647265737300006044820152606401610400565b600080546001600160a01b0319166001600160a01b0392909216919091179055565b6110d4611412565b6000366014336001600160a01b037f0000000000000000000000000000000000000000000000000000000000000000161480156113845750808210155b156113b4576000366113968385611f33565b6113a1928290611f54565b6113aa91611f7e565b60601c9250505090565b339250505090565b6113c58261145b565b6040516001600160a01b038316907fbc7cd75a20ee27fd9adebab32041f755214dbc6bffa90cc0225b39da2e5c2d3b90600090a280511561140a5761126982826114c0565b61074b611536565b7ff0c57e16840df040f15088dc2f81fe391c3923bec73e23a9662efc9c229c6a0054600160401b900460ff166110d457604051631afcd79f60e31b815260040160405180910390fd5b806001600160a01b03163b60000361149157604051634c9c8ce360e01b81526001600160a01b0382166004820152602401610400565b600080516020611fd083398151915280546001600160a01b0319166001600160a01b0392909216919091179055565b6060600080846001600160a01b0316846040516114dd9190611fb3565b600060405180830381855af49150503d8060008114611518576040519150601f19603f3d011682016040523d82523d6000602084013e61151d565b606091505b509150915061152d858383611555565b95945050505050565b34156110d45760405163b398979f60e01b815260040160405180910390fd5b60608261156a57611565826115b1565b610b29565b815115801561158157506001600160a01b0384163b155b156115aa57604051639996b31560e01b81526001600160a01b0385166004820152602401610400565b5092915050565b8051156115c15780518082602001fd5b604051630a12f52160e11b815260040160405180910390fd5b80356001600160a01b03811681146115f157600080fd5b919050565b60008083601f84011261160857600080fd5b50813567ffffffffffffffff81111561162057600080fd5b60208301915083602082850101111561163857600080fd5b9250929050565b6000806000806060858703121561165557600080fd5b61165e856115da565b9350602085013567ffffffffffffffff81111561167a57600080fd5b611686878288016115f6565b90945092505060408501356004811061169e57600080fd5b939692955090935050565b6000602082840312156116bb57600080fd5b610b29826115da565b60005b838110156116df5781810151838201526020016116c7565b50506000910152565b600081518084526117008160208601602086016116c4565b601f01601f19169290920160200192915050565b634e487b7160e01b600052602160045260246000fd5b6004811061173a5761173a611714565b9052565b60006020808301818452808551808352604092508286019150828160051b87010184880160005b838110156117c457603f1989840301855281516080815181865261178b828701826116e8565b9150508882015161179e8a87018261172a565b508188015185890152606091820151151591909401529386019390860190600101611765565b509098975050505050505050565b634e487b7160e01b600052604160045260246000fd5b600080604083850312156117fb57600080fd5b611804836115da565b9150602083013567ffffffffffffffff8082111561182157600080fd5b818501915085601f83011261183557600080fd5b813581811115611847576118476117d2565b604051601f8201601f19908116603f0116810190838211818310171561186f5761186f6117d2565b8160405282815288602084870101111561188857600080fd5b8260208601602083013760006020848301015280955050505050509250929050565b602081526000825160c060208401526118c660e08401826116e8565b90506020840151601f19808584030160408601526118e483836116e8565b9250604086015191508085840301606086015261190183836116e8565b9250606086015191508085840301608086015261191e83836116e8565b925060808601519150808584030160a08601525061193c82826116e8565b91505060a084015160c08401528091505092915050565b6000806040838503121561196657600080fd5b82359150611976602084016115da565b90509250929050565b6000806040838503121561199257600080fd5b8235600981106119a157600080fd5b9150611976602084016115da565b602081526000610b2960208301846116e8565b60008060008060008060008060008060a08b8d0312156119e157600080fd5b8a3567ffffffffffffffff808211156119f957600080fd5b611a058e838f016115f6565b909c509a5060208d0135915080821115611a1e57600080fd5b611a2a8e838f016115f6565b909a50985060408d0135915080821115611a4357600080fd5b611a4f8e838f016115f6565b909850965060608d0135915080821115611a6857600080fd5b611a748e838f016115f6565b909650945060808d0135915080821115611a8d57600080fd5b50611a9a8d828e016115f6565b915080935050809150509295989b9194979a5092959850565b60008060008060008060006080888a031215611ace57600080fd5b611ad7886115da565b9650602088013567ffffffffffffffff80821115611af457600080fd5b611b008b838c016115f6565b909850965060408a0135915080821115611b1957600080fd5b611b258b838c016115f6565b909650945060608a0135915080821115611b3e57600080fd5b50611b4b8a828b016115f6565b989b979a50959850939692959293505050565b6040810160098410611b7257611b72611714565b9281526001600160a01b039190911660209091015290565b600060208284031215611b9c57600080fd5b81518015158114610b2957600080fd5b60208082526022908201527f416363657373436f6e74726f6c3a20726573747269637465642d746f2d61646d60408201526134b760f11b606082015260800190565b600181811c90821680611c0257607f821691505b602082108103611c2257634e487b7160e01b600052602260045260246000fd5b50919050565b601f82111561126957600081815260208120601f850160051c81016020861015611c4f5750805b601f850160051c820191505b81811015610ea857828155600101611c5b565b815167ffffffffffffffff811115611c8857611c886117d2565b611c9c81611c968454611bee565b84611c28565b602080601f831160018114611cd15760008415611cb95750858301515b600019600386901b1c1916600185901b178555610ea8565b600085815260208120601f198616915b82811015611d0057888601518255948401946001909101908401611ce1565b5085821015611d1e5787850151600019600388901b60f8161c191681555b5050505050600190811b01905550565b81835281816020850137506000828201602090810191909152601f909101601f19169091010190565b606081526000611d6b606083018688611d2e565b9050611d7a602083018561172a565b82604083015295945050505050565b60c081526000611d9d60c083018d8f611d2e565b8281036020840152611db0818c8e611d2e565b90508281036040840152611dc5818a8c611d2e565b90508281036060840152611dda81888a611d2e565b90508281036080840152611def818688611d2e565b9150508260a08301529c9b505050505050505050505050565b67ffffffffffffffff831115611e2057611e206117d2565b611e3483611e2e8354611bee565b83611c28565b6000601f841160018114611e685760008515611e505750838201355b600019600387901b1c1916600186901b178355611ec2565b600083815260209020601f19861690835b82811015611e995786850135825560209485019460019092019101611e79565b5086821015611eb65760001960f88860031b161c19848701351681555b505060018560011b0183555b5050505050565b608081526000611edd60808301898b611d2e565b8281036020840152611ef081888a611d2e565b90508281036040840152611f05818688611d2e565b91505082606083015298975050505050505050565b600060208284031215611f2c57600080fd5b5051919050565b8181038181111561072a57634e487b7160e01b600052601160045260246000fd5b60008085851115611f6457600080fd5b83861115611f7157600080fd5b5050820193919092039150565b6bffffffffffffffffffffffff198135818116916014851015611fab5780818660140360031b1b83161692505b505092915050565b60008251611fc58184602087016116c4565b919091019291505056fe360894a13ba1a3210667c828492db98dca3e2076cc3735a920a3ca505d382bbca26469706673582212203f662c1f8bf70d76fbcbf0d2bde028afeed4d41f460aa2504bffcfa96d5b28b264736f6c63430008140033",
  "linkReferences": {},
  "deployedLinkReferences": {}
}