{
  "_format": "hh-sol-artifact-1",
  "contractName": "GovernanceManager",
  "sourceName": "contracts/GovernanceManager.sol",
  "abi": [
    {
      "inputs": [
        {
          "internalType": "address",
          "name": "forwarder",
          "type": "address"
        }
      ],
      "stateMutability": "nonpayable",
      "type": "constructor"
    },
    {
      "inputs": [
        {
          "internalType": "address",
          "name": "target",
          "type": "address"
        }
      ],
      "name": "AddressEmptyCode",
      "type": "error"
    },
    {
      "inputs": [],
      "name": "AlreadyExecuted",
      "type": "error"
    },
    {
      "inputs": [],
      "name": "ContractNotAuthorized",
      "type": "error"
    },
    {
      "inputs": [
        {
          "internalType": "address",
          "name": "implementation",
          "type": "address"
        }
      ],
      "name": "ERC1967InvalidImplementation",
      "type": "error"
    },
    {
      "inputs": [],
      "name": "ERC1967NonPayable",
      "type": "error"
    },
    {
      "inputs": [],
      "name": "EnforcedPause",
      "type": "error"
    },
    {
      "inputs": [],
      "name": "ExpectedPause",
      "type": "error"
    },
    {
      "inputs": [],
      "name": "FailedInnerCall",
      "type": "error"
    },
    {
      "inputs": [],
      "name": "InvalidAddress",
      "type": "error"
    },
    {
      "inputs": [],
      "name": "InvalidInitialization",
      "type": "error"
    },
    {
      "inputs": [],
      "name": "NotInitializing",
      "type": "error"
    },
    {
      "inputs": [],
      "name": "NotMultiSigOwner",
      "type": "error"
    },
    {
      "inputs": [],
      "name": "UUPSUnauthorizedCallContext",
      "type": "error"
    },
    {
      "inputs": [
        {
          "internalType": "bytes32",
          "name": "slot",
          "type": "bytes32"
        }
      ],
      "name": "UUPSUnsupportedProxiableUUID",
      "type": "error"
    },
    {
      "anonymous": false,
      "inputs": [
        {
          "indexed": true,
          "internalType": "address",
          "name": "contract_",
          "type": "address"
        }
      ],
      "name": "ContractAuthorized",
      "type": "event"
    },
    {
      "anonymous": false,
      "inputs": [
        {
          "indexed": true,
          "internalType": "address",
          "name": "contract_",
          "type": "address"
        }
      ],
      "name": "ContractDeauthorized",
      "type": "event"
    },
    {
      "anonymous": false,
      "inputs": [
        {
          "indexed": false,
          "internalType": "uint64",
          "name": "version",
          "type": "uint64"
        }
      ],
      "name": "Initialized",
      "type": "event"
    },
    {
      "anonymous": false,
      "inputs": [
        {
          "indexed": true,
          "internalType": "address",
          "name": "newMultiSig",
          "type": "address"
        }
      ],
      "name": "MultiSigUpdated",
      "type": "event"
    },
    {
      "anonymous": false,
      "inputs": [
        {
          "indexed": false,
          "internalType": "address",
          "name": "account",
          "type": "address"
        }
      ],
      "name": "Paused",
      "type": "event"
    },
    {
      "anonymous": false,
      "inputs": [
        {
          "indexed": true,
          "internalType": "bytes32",
          "name": "proposalHash",
          "type": "bytes32"
        },
        {
          "indexed": true,
          "internalType": "address",
          "name": "target",
          "type": "address"
        },
        {
          "indexed": false,
          "internalType": "string",
          "name": "actionType",
          "type": "string"
        }
      ],
      "name": "ProposalCreated",
      "type": "event"
    },
    {
      "anonymous": false,
      "inputs": [
        {
          "indexed": true,
          "internalType": "bytes32",
          "name": "proposalHash",
          "type": "bytes32"
        }
      ],
      "name": "ProposalExecuted",
      "type": "event"
    },
    {
      "anonymous": false,
      "inputs": [
        {
          "indexed": false,
          "internalType": "address",
          "name": "account",
          "type": "address"
        }
      ],
      "name": "Unpaused",
      "type": "event"
    },
    {
      "anonymous": false,
      "inputs": [
        {
          "indexed": true,
          "internalType": "address",
          "name": "implementation",
          "type": "address"
        }
      ],
      "name": "Upgraded",
      "type": "event"
    },
    {
      "inputs": [],
      "name": "UPGRADE_INTERFACE_VERSION",
      "outputs": [
        {
          "internalType": "string",
          "name": "",
          "type": "string"
        }
      ],
      "stateMutability": "view",
      "type": "function"
    },
    {
      "inputs": [],
      "name": "accessControl",
      "outputs": [
        {
          "internalType": "contract MediSecureAccessControl",
          "name": "",
          "type": "address"
        }
      ],
      "stateMutability": "view",
      "type": "function"
    },
    {
      "inputs": [
        {
          "internalType": "address",
          "name": "_contract",
          "type": "address"
        }
      ],
      "name": "authorizeContract",
      "outputs": [],
      "stateMutability": "nonpayable",
      "type": "function"
    },
    {
      "inputs": [
        {
          "internalType": "address",
          "name": "",
          "type": "address"
        }
      ],
      "name": "authorizedContracts",
      "outputs": [
        {
          "internalType": "bool",
          "name": "",
          "type": "bool"
        }
      ],
      "stateMutability": "view",
      "type": "function"
    },
    {
      "inputs": [
        {
          "internalType": "address",
          "name": "_contract",
          "type": "address"
        }
      ],
      "name": "deauthorizeContract",
      "outputs": [],
      "stateMutability": "nonpayable",
      "type": "function"
    },
    {
      "inputs": [
        {
          "internalType": "bytes32",
          "name": "_proposalHash",
          "type": "bytes32"
        }
      ],
      "name": "executeProposal",
      "outputs": [],
      "stateMutability": "nonpayable",
      "type": "function"
    },
    {
      "inputs": [
        {
          "internalType": "bytes32",
          "name": "",
          "type": "bytes32"
        }
      ],
      "name": "executedProposals",
      "outputs": [
        {
          "internalType": "bool",
          "name": "",
          "type": "bool"
        }
      ],
      "stateMutability": "view",
      "type": "function"
    },
    {
      "inputs": [
        {
          "internalType": "bytes32",
          "name": "role",
          "type": "bytes32"
        },
        {
          "internalType": "address",
          "name": "account",
          "type": "address"
        }
      ],
      "name": "hasRole",
      "outputs": [
        {
          "internalType": "bool",
          "name": "",
          "type": "bool"
        }
      ],
      "stateMutability": "view",
      "type": "function"
    },
    {
      "inputs": [
        {
          "internalType": "enum Roles",
          "name": "role",
          "type": "uint8"
        },
        {
          "internalType": "address",
          "name": "account",
          "type": "address"
        }
      ],
      "name": "hasRole",
      "outputs": [
        {
          "internalType": "bool",
          "name": "",
          "type": "bool"
        }
      ],
      "stateMutability": "view",
      "type": "function"
    },
    {
      "inputs": [
        {
          "internalType": "address",
          "name": "_multiSig",
          "type": "address"
        },
        {
          "internalType": "address",
          "name": "_accessControl",
          "type": "address"
        }
      ],
      "name": "initialize",
      "outputs": [],
      "stateMutability": "nonpayable",
      "type": "function"
    },
    {
      "inputs": [
        {
          "internalType": "address",
          "name": "account",
          "type": "address"
        }
      ],
      "name": "isAdmin",
      "outputs": [
        {
          "internalType": "bool",
          "name": "",
          "type": "bool"
        }
      ],
      "stateMutability": "view",
      "type": "function"
    },
    {
      "inputs": [
        {
          "internalType": "address",
          "name": "forwarder",
          "type": "address"
        }
      ],
      "name": "isTrustedForwarder",
      "outputs": [
        {
          "internalType": "bool",
          "name": "",
          "type": "bool"
        }
      ],
      "stateMutability": "view",
      "type": "function"
    },
    {
      "inputs": [],
      "name": "multiSigWallet",
      "outputs": [
        {
          "internalType": "contract IMultiSigWallet",
          "name": "",
          "type": "address"
        }
      ],
      "stateMutability": "view",
      "type": "function"
    },
    {
      "inputs": [],
      "name": "paused",
      "outputs": [
        {
          "internalType": "bool",
          "name": "",
          "type": "bool"
        }
      ],
      "stateMutability": "view",
      "type": "function"
    },
    {
      "inputs": [],
      "name": "proposalCount",
      "outputs": [
        {
          "internalType": "uint256",
          "name": "",
          "type": "uint256"
        }
      ],
      "stateMutability": "view",
      "type": "function"
    },
    {
      "inputs": [],
      "name": "proposalThreshold",
      "outputs": [
        {
          "internalType": "uint256",
          "name": "",
          "type": "uint256"
        }
      ],
      "stateMutability": "view",
      "type": "function"
    },
    {
      "inputs": [],
      "name": "proxiableUUID",
      "outputs": [
        {
          "internalType": "bytes32",
          "name": "",
          "type": "bytes32"
        }
      ],
      "stateMutability": "view",
      "type": "function"
    },
    {
      "inputs": [
        {
          "internalType": "address",
          "name": "_multiSig",
          "type": "address"
        }
      ],
      "name": "setMultiSig",
      "outputs": [],
      "stateMutability": "nonpayable",
      "type": "function"
    },
    {
      "inputs": [
        {
          "internalType": "address",
          "name": "_impl",
          "type": "address"
        },
        {
          "internalType": "address",
          "name": "_proxy",
          "type": "address"
        }
      ],
      "name": "submitUpgradeProposal",
      "outputs": [],
      "stateMutability": "nonpayable",
      "type": "function"
    },
    {
      "inputs": [
        {
          "internalType": "address",
          "name": "_to",
          "type": "address"
        },
        {
          "internalType": "bytes",
          "name": "_data",
          "type": "bytes"
        }
      ],
      "name": "submitViaMultiSig",
      "outputs": [
        {
          "internalType": "bytes32",
          "name": "",
          "type": "bytes32"
        }
      ],
      "stateMutability": "nonpayable",
      "type": "function"
    },
    {
      "inputs": [],
      "name": "timelock",
      "outputs": [
        {
          "internalType": "address",
          "name": "",
          "type": "address"
        }
      ],
      "stateMutability": "view",
      "type": "function"
    },
    {
      "inputs": [],
      "name": "trustedForwarder",
      "outputs": [
        {
          "internalType": "address",
          "name": "",
          "type": "address"
        }
      ],
      "stateMutability": "view",
      "type": "function"
    },
    {
      "inputs": [
        {
          "internalType": "address",
          "name": "newImplementation",
          "type": "address"
        },
        {
          "internalType": "bytes",
          "name": "data",
          "type": "bytes"
        }
      ],
      "name": "upgradeToAndCall",
      "outputs": [],
      "stateMutability": "payable",
      "type": "function"
    }
  ],
  "bytecode": "0x60c0604052306080523480156200001557600080fd5b5060405162001cfa38038062001cfa83398101604081905262000038916200011f565b6001600160a01b03811660a0819052603280546001600160a01b0319169091179055620000646200006b565b5062000151565b7ff0c57e16840df040f15088dc2f81fe391c3923bec73e23a9662efc9c229c6a00805468010000000000000000900460ff1615620000bc5760405163f92ee8a960e01b815260040160405180910390fd5b80546001600160401b03908116146200011c5780546001600160401b0319166001600160401b0390811782556040519081527fc7f505b2f371ae2175ee4913f4499e1f2633a7b5936321eed1cdaeb6115181d29060200160405180910390a15b50565b6000602082840312156200013257600080fd5b81516001600160a01b03811681146200014a57600080fd5b9392505050565b60805160a051611b6762000193600039600081816102970152818161034d0152611452015260008181611184015281816111ad01526113c10152611b676000f3fe6080604052600436106101405760003560e01c80636e861c0e116100b65780639e97b8f61161006f5780639e97b8f6146103f1578063ad3cb1cc14610411578063b58131b01461044f578063d33219b414610465578063d5b9221b14610485578063da35c664146104b557600080fd5b80636e861c0e1461031e5780637da0a8771461033e5780637e77aaf0146103715780638a11ddfd1461039157806391d14854146103b1578063980ff6c6146103d157600080fd5b80634b8feb4f116101085780634b8feb4f146102245780634f1ef2861461024457806352d1902d14610257578063572b6c051461027a5780635c975abb146102c757806367561d93146102fe57600080fd5b806313007d551461014557806324d7806c14610182578063284d30ef146101b25780633566414c146101d4578063485cc95514610204575b600080fd5b34801561015157600080fd5b50600054610165906001600160a01b031681565b6040516001600160a01b0390911681526020015b60405180910390f35b34801561018e57600080fd5b506101a261019d366004611724565b6104cb565b6040519015158152602001610179565b3480156101be57600080fd5b506101d26101cd366004611724565b610545565b005b3480156101e057600080fd5b506101a26101ef36600461173f565b60356020526000908152604090205460ff1681565b34801561021057600080fd5b506101d261021f366004611758565b610728565b34801561023057600080fd5b50603354610165906001600160a01b031681565b6101d26102523660046117a1565b6108df565b34801561026357600080fd5b5061026c6108fe565b604051908152602001610179565b34801561028657600080fd5b506101a2610295366004611724565b7f00000000000000000000000000000000000000000000000000000000000000006001600160a01b0390811691161490565b3480156102d357600080fd5b507fcd5ed15c6e187e77e9aee88184c21f4f2182ab5827cb3b7e07fbedcd63f033005460ff166101a2565b34801561030a57600080fd5b506101d2610319366004611724565b61091b565b34801561032a57600080fd5b506101d2610339366004611724565b610a0d565b34801561034a57600080fd5b507f0000000000000000000000000000000000000000000000000000000000000000610165565b34801561037d57600080fd5b5061026c61038c3660046117a1565b610afc565b34801561039d57600080fd5b506101d26103ac366004611758565b610cd6565b3480156103bd57600080fd5b506101a26103cc366004611863565b610efe565b3480156103dd57600080fd5b506101d26103ec36600461173f565b610f7c565b3480156103fd57600080fd5b506101a261040c366004611886565b611095565b34801561041d57600080fd5b50610442604051806040016040528060058152602001640352e302e360dc1b81525081565b60405161017991906118f8565b34801561045b57600080fd5b5061026c60375481565b34801561047157600080fd5b50603454610165906001600160a01b031681565b34801561049157600080fd5b506101a26104a0366004611724565b60366020526000908152604090205460ff1681565b3480156104c157600080fd5b5061026c60385481565b60008054604051634f4bdc7b60e11b81526001600160a01b0390911690639e97b8f6906104fe908490869060040161190b565b602060405180830381865afa15801561051b573d6000803e3d6000fd5b505050506040513d601f19601f8201168201806040525081019061053f9190611945565b92915050565b600080546001600160a01b031690639e97b8f6906105616110c8565b6040518363ffffffff1660e01b815260040161057e92919061190b565b602060405180830381865afa15801561059b573d6000803e3d6000fd5b505050506040513d601f19601f820116820180604052508101906105bf9190611945565b61061b5760405162461bcd60e51b815260206004820152602260248201527f416363657373436f6e74726f6c3a20726573747269637465642d746f2d61646d60448201526134b760f11b60648201526084015b60405180910390fd5b6001600160a01b0381166106425760405163e6c4247b60e01b815260040160405180910390fd5b806001600160a01b0316632f54bf6e6106596110c8565b6040516001600160e01b031960e084901b1681526001600160a01b039091166004820152602401602060405180830381865afa15801561069d573d6000803e3d6000fd5b505050506040513d601f19601f820116820180604052508101906106c19190611945565b6106de57604051630cdf99e760e01b815260040160405180910390fd5b603380546001600160a01b0319166001600160a01b0383169081179091556040517f7ca1bb3a0b8a33b929834f1be025e2a6c15b7273b9f8efc6978a86d84af395cc90600090a250565b7ff0c57e16840df040f15088dc2f81fe391c3923bec73e23a9662efc9c229c6a008054600160401b810460ff16159067ffffffffffffffff1660008115801561076e5750825b905060008267ffffffffffffffff16600114801561078b5750303b155b905081158015610799575080155b156107b75760405163f92ee8a960e01b815260040160405180910390fd5b845467ffffffffffffffff1916600117855583156107e157845460ff60401b1916600160401b1785555b6107e96110d7565b6107f2866110e9565b6107fa611171565b6001600160a01b0387166108445760405162461bcd60e51b8152602060048201526011602482015270496e76616c6964206d756c74692d73696760781b6044820152606401610612565b603380546001600160a01b0319166001600160a01b03891690811790915560026037556040517f7ca1bb3a0b8a33b929834f1be025e2a6c15b7273b9f8efc6978a86d84af395cc90600090a283156108d657845460ff60401b19168555604051600181527fc7f505b2f371ae2175ee4913f4499e1f2633a7b5936321eed1cdaeb6115181d29060200160405180910390a15b50505050505050565b6108e7611179565b6108f08261121e565b6108fa82826112f4565b5050565b60006109086113b6565b50600080516020611b1283398151915290565b6033546001600160a01b0316632f54bf6e6109346110c8565b6040516001600160e01b031960e084901b1681526001600160a01b039091166004820152602401602060405180830381865afa158015610978573d6000803e3d6000fd5b505050506040513d601f19601f8201168201806040525081019061099c9190611945565b6109b957604051630cdf99e760e01b815260040160405180910390fd5b6109c16113ff565b6001600160a01b038116600081815260366020526040808220805460ff19166001179055517f8983a1f3c3cb45c24c8226b5b805e3b6eb49686530b808534b2a920129eff6519190a250565b6033546001600160a01b0316632f54bf6e610a266110c8565b6040516001600160e01b031960e084901b1681526001600160a01b039091166004820152602401602060405180830381865afa158015610a6a573d6000803e3d6000fd5b505050506040513d601f19601f82011682018060405250810190610a8e9190611945565b610aab57604051630cdf99e760e01b815260040160405180910390fd5b610ab36113ff565b6001600160a01b038116600081815260366020526040808220805460ff19169055517f54142b7cb3ceaa9e564243ce4cc2303723c842a1144192de6b3c594f68b16a9a9190a250565b600080546008906001600160a01b0316639e97b8f682610b1a6110c8565b6040518363ffffffff1660e01b8152600401610b3792919061190b565b602060405180830381865afa158015610b54573d6000803e3d6000fd5b505050506040513d601f19601f82011682018060405250810190610b789190611945565b610b945760405162461bcd60e51b815260040161061290611967565b60008054906101000a90046001600160a01b03166001600160a01b0316635c975abb6040518163ffffffff1660e01b8152600401602060405180830381865afa158015610be5573d6000803e3d6000fd5b505050506040513d601f19601f82011682018060405250810190610c099190611945565b15610c565760405162461bcd60e51b815260206004820152601b60248201527f4d6564695365637572652050726f746f636f6c3a2070617573656400000000006044820152606401610612565b6033546040516331909d1d60e21b81526001600160a01b039091169063c642747490610c8b90879060009088906004016119a8565b6020604051808303816000875af1158015610caa573d6000803e3d6000fd5b505050506040513d601f19601f82011682018060405250810190610cce91906119cf565b949350505050565b6000546008906001600160a01b0316639e97b8f682610cf36110c8565b6040518363ffffffff1660e01b8152600401610d1092919061190b565b602060405180830381865afa158015610d2d573d6000803e3d6000fd5b505050506040513d601f19601f82011682018060405250810190610d519190611945565b610d6d5760405162461bcd60e51b815260040161061290611967565b60008054906101000a90046001600160a01b03166001600160a01b0316635c975abb6040518163ffffffff1660e01b8152600401602060405180830381865afa158015610dbe573d6000803e3d6000fd5b505050506040513d601f19601f82011682018060405250810190610de29190611945565b15610e2f5760405162461bcd60e51b815260206004820152601b60248201527f4d6564695365637572652050726f746f636f6c3a2070617573656400000000006044820152606401610612565b610e376113ff565b6001600160a01b03821660009081526036602052604090205460ff16610e70576040516335eddb9560e01b815260040160405180910390fd5b60008383603854604051602001610e89939291906119e8565b60408051601f198184030181529190528051602090910120603880549192506000610eb383611a43565b9190505550826001600160a01b0316817f399d1d4371a507bea52263136afa2916358ccb4fcd6024298ea42659b1a2aec1604051610ef090611a5c565b60405180910390a350505050565b60008054604051632474521560e21b8152600481018590526001600160a01b038481166024830152909116906391d14854906044015b602060405180830381865afa158015610f51573d6000803e3d6000fd5b505050506040513d601f19601f82011682018060405250810190610f759190611945565b9392505050565b6033546001600160a01b0316632f54bf6e610f956110c8565b6040516001600160e01b031960e084901b1681526001600160a01b039091166004820152602401602060405180830381865afa158015610fd9573d6000803e3d6000fd5b505050506040513d601f19601f82011682018060405250810190610ffd9190611945565b61101a57604051630cdf99e760e01b815260040160405180910390fd5b6110226113ff565b60008181526035602052604090205460ff161561105257604051630dc1019760e01b815260040160405180910390fd5b600081815260356020526040808220805460ff191660011790555182917f7b1bcf1ccf901a11589afff5504d59fd0a53780eed2a952adade0348985139e091a250565b60008054604051634f4bdc7b60e11b81526001600160a01b0390911690639e97b8f690610f34908690869060040161190b565b60006110d2611442565b905090565b6110df6114b7565b6110e7611500565b565b6110f16114b7565b6110f9611171565b6001600160a01b03811661114f5760405162461bcd60e51b815260206004820152601e60248201527f496e76616c69642061636365737320636f6e74726f6c206164647265737300006044820152606401610612565b600080546001600160a01b0319166001600160a01b0392909216919091179055565b6110e76114b7565b306001600160a01b037f000000000000000000000000000000000000000000000000000000000000000016148061120057507f00000000000000000000000000000000000000000000000000000000000000006001600160a01b03166111f4600080516020611b12833981519152546001600160a01b031690565b6001600160a01b031614155b156110e75760405163703e46dd60e11b815260040160405180910390fd5b6000546001600160a01b0316639e97b8f660076112396110c8565b6040518363ffffffff1660e01b815260040161125692919061190b565b602060405180830381865afa158015611273573d6000803e3d6000fd5b505050506040513d601f19601f820116820180604052508101906112979190611945565b6112f15760405162461bcd60e51b815260206004820152602560248201527f416363657373436f6e74726f6c3a20726573747269637465642d746f2d7570676044820152643930b232b960d91b6064820152608401610612565b50565b816001600160a01b03166352d1902d6040518163ffffffff1660e01b8152600401602060405180830381865afa92505050801561134e575060408051601f3d908101601f1916820190925261134b918101906119cf565b60015b61137657604051634c9c8ce360e01b81526001600160a01b0383166004820152602401610612565b600080516020611b1283398151915281146113a757604051632a87526960e21b815260048101829052602401610612565b6113b18383611533565b505050565b306001600160a01b037f000000000000000000000000000000000000000000000000000000000000000016146110e75760405163703e46dd60e11b815260040160405180910390fd5b7fcd5ed15c6e187e77e9aee88184c21f4f2182ab5827cb3b7e07fbedcd63f033005460ff16156110e75760405163d93c066560e01b815260040160405180910390fd5b6000366014336001600160a01b037f00000000000000000000000000000000000000000000000000000000000000001614801561147f5750808210155b156114af576000366114918385611a83565b61149c928290611a96565b6114a591611ac0565b60601c9250505090565b339250505090565b7ff0c57e16840df040f15088dc2f81fe391c3923bec73e23a9662efc9c229c6a0054600160401b900460ff166110e757604051631afcd79f60e31b815260040160405180910390fd5b6115086114b7565b7fcd5ed15c6e187e77e9aee88184c21f4f2182ab5827cb3b7e07fbedcd63f03300805460ff19169055565b61153c82611589565b6040516001600160a01b038316907fbc7cd75a20ee27fd9adebab32041f755214dbc6bffa90cc0225b39da2e5c2d3b90600090a2805115611581576113b182826115ee565b6108fa611664565b806001600160a01b03163b6000036115bf57604051634c9c8ce360e01b81526001600160a01b0382166004820152602401610612565b600080516020611b1283398151915280546001600160a01b0319166001600160a01b0392909216919091179055565b6060600080846001600160a01b03168460405161160b9190611af5565b600060405180830381855af49150503d8060008114611646576040519150601f19603f3d011682016040523d82523d6000602084013e61164b565b606091505b509150915061165b858383611683565b95945050505050565b34156110e75760405163b398979f60e01b815260040160405180910390fd5b60608261169857611693826116df565b610f75565b81511580156116af57506001600160a01b0384163b155b156116d857604051639996b31560e01b81526001600160a01b0385166004820152602401610612565b5092915050565b8051156116ef5780518082602001fd5b604051630a12f52160e11b815260040160405180910390fd5b80356001600160a01b038116811461171f57600080fd5b919050565b60006020828403121561173657600080fd5b610f7582611708565b60006020828403121561175157600080fd5b5035919050565b6000806040838503121561176b57600080fd5b61177483611708565b915061178260208401611708565b90509250929050565b634e487b7160e01b600052604160045260246000fd5b600080604083850312156117b457600080fd5b6117bd83611708565b9150602083013567ffffffffffffffff808211156117da57600080fd5b818501915085601f8301126117ee57600080fd5b8135818111156118005761180061178b565b604051601f8201601f19908116603f011681019083821181831017156118285761182861178b565b8160405282815288602084870101111561184157600080fd5b8260208601602083013760006020848301015280955050505050509250929050565b6000806040838503121561187657600080fd5b8235915061178260208401611708565b6000806040838503121561189957600080fd5b82356009811061177457600080fd5b60005b838110156118c35781810151838201526020016118ab565b50506000910152565b600081518084526118e48160208601602086016118a8565b601f01601f19169290920160200192915050565b602081526000610f7560208301846118cc565b604081016009841061192d57634e487b7160e01b600052602160045260246000fd5b9281526001600160a01b039190911660209091015290565b60006020828403121561195757600080fd5b81518015158114610f7557600080fd5b60208082526021908201527f416363657373436f6e74726f6c3a20726573747269637465642d746f2d726f6c6040820152606560f81b606082015260800190565b60018060a01b038416815282602082015260606040820152600061165b60608301846118cc565b6000602082840312156119e157600080fd5b5051919050565b6001600160a01b0384811682528316602082015260408101829052608060608201819052600790820152665550475241444560c81b60a0820152600060c0820161165b565b634e487b7160e01b600052601160045260246000fd5b600060018201611a5557611a55611a2d565b5060010190565b60208152600061053f6020830160078152665550475241444560c81b602082015260400190565b8181038181111561053f5761053f611a2d565b60008085851115611aa657600080fd5b83861115611ab357600080fd5b5050820193919092039150565b6bffffffffffffffffffffffff198135818116916014851015611aed5780818660140360031b1b83161692505b505092915050565b60008251611b078184602087016118a8565b919091019291505056fe360894a13ba1a3210667c828492db98dca3e2076cc3735a920a3ca505d382bbca26469706673582212209cb71a9593f09d7d25d439db5ed27a23c787bec448bd6b1525233034cd10986b64736f6c63430008140033",
  "linkReferences": {},
  "deployedLinkReferences": {}
}