{
  "_format": "hh-sol-artifact-1",
  "contractName": "MultiSigWalletFactory",
  "sourceName": "contracts/MultiSigWalletFactory.sol",
  "abi": [
    {
      "anonymous": false,
      "inputs": [
        {
          "indexed": true,
          "internalType": "address",
          "name": "wallet",
          "type": "address"
        },
        {
          "indexed": false,
          "internalType": "address[]",
          "name": "owners",
          "type": "address[]"
        },
        {
          "indexed": false,
          "internalType": "uint256",
          "name": "threshold",
          "type": "uint256"
        }
      ],
      "name": "WalletCreated",
      "type": "event"
    },
    {
      "inputs": [
        {
          "internalType": "address[]",
          "name": "_owners",
          "type": "address[]"
        },
        {
          "internalType": "uint256",
          "name": "_threshold",
          "type": "uint256"
        }
      ],
      "name": "createWallet",
      "outputs": [
        {
          "internalType": "address",
          "name": "wallet",
          "type": "address"
        }
      ],
      "stateMutability": "nonpayable",
      "type": "function"
    },
    {
      "inputs": [
        {
          "internalType": "address",
          "name": "_owner",
          "type": "address"
        }
      ],
      "name": "getWalletCount",
      "outputs": [
        {
          "internalType": "uint256",
          "name": "",
          "type": "uint256"
        }
      ],
      "stateMutability": "view",
      "type": "function"
    },
    {
      "inputs": [
        {
          "internalType": "address",
          "name": "_owner",
          "type": "address"
        }
      ],
      "name": "getWallets",
      "outputs": [
        {
          "internalType": "address[]",
          "name": "",
          "type": "address[]"
        }
      ],
      "stateMutability": "view",
      "type": "function"
    },
    {
      "inputs": [
        {
          "internalType": "address",
          "name": "",
          "type": "address"
        }
      ],
      "name": "isWallet",
      "outputs": [
        {
          "internalType": "bool",
          "name": "",
          "type": "bool"
        }
      ],
      "stateMutability": "view",
      "type": "function"
    },
    {
      "inputs": [
        {
          "internalType": "address",
          "name": "",
          "type": "address"
        },
        {
          "internalType": "uint256",
          "name": "",
          "type": "uint256"
        }
      ],
      "name": "ownerWallets",
      "outputs": [
        {
          "internalType": "address",
          "name": "",
          "type": "address"
        }
      ],
      "stateMutability": "view",
      "type": "function"
    },
    {
      "inputs": [
        {
          "internalType": "address",
          "name": "",
          "type": "address"
        }
      ],
      "name": "walletOwners",
      "outputs": [
        {
          "internalType": "address",
          "name": "",
          "type": "address"
        }
      ],
      "stateMutability": "view",
      "type": "function"
    }
  ],
  "bytecode": "0x608060405234801561001057600080fd5b50613046806100206000396000f3fe60806040523480156200001157600080fd5b50600436106200006a5760003560e01c80633800a55d146200006f578063422c29a414620000a35780637ead6caf14620000c9578063878023d414620000e0578063a8e9379a146200011b578063ce5570ec1462000147575b600080fd5b620000866200008036600462000547565b6200017e565b6040516001600160a01b0390911681526020015b60405180910390f35b620000ba620000b436600462000620565b62000449565b6040516200009a91906200068b565b62000086620000da366004620006a0565b620004bf565b6200010c620000f136600462000620565b6001600160a01b031660009081526020819052604090205490565b6040519081526020016200009a565b620000866200012c36600462000620565b6001602052600090815260409020546001600160a01b031681565b6200016d6200015836600462000620565b60026020526000908152604090205460ff1681565b60405190151581526020016200009a565b6000600a83511115620001c85760405162461bcd60e51b815260206004820152600d60248201526c4d6178203130206f776e65727360981b60448201526064015b60405180910390fd5b60028210156200020d5760405162461bcd60e51b815260206004820152600f60248201526e26b4b7103a343932b9b437b632101960891b6044820152606401620001bf565b8183511015620002555760405162461bcd60e51b81526020600482015260126024820152715468726573686f6c64203e206f776e65727360701b6044820152606401620001bf565b6000604051806020016200026990620004f8565b6020820181038252601f19601f820116604052509050600060405180602001620002939062000506565b6020820181038252601f19601f82011660405250905060008585604051602001620002c0929190620006cd565b604051602081830303815290604052905060008382604051602001620002e892919062000723565b60405160208183030381529060405290508051602082016000f094506001600160a01b038516620003505760405162461bcd60e51b815260206004820152601160248201527011195c1b1bde5b595b9d0819985a5b1959607a1b6044820152606401620001bf565b6001600160a01b0385166000908152600260205260408120805460ff191660011790555b8751811015620003f95760008089838151811062000396576200039662000744565b6020908102919091018101516001600160a01b039081168352828201939093526040909101600090812080546001810182559082529190200180546001600160a01b03191691881691909117905580620003f0816200075a565b91505062000374565b50846001600160a01b03167fe981d41cfcc707f2fa59586347099614ffa99754751f6000ade1fbd3514ebd4d888860405162000437929190620006cd565b60405180910390a25050505092915050565b6001600160a01b03811660009081526020818152604091829020805483518184028101840190945280845260609392830182828015620004b357602002820191906000526020600020905b81546001600160a01b0316815260019091019060200180831162000494575b50505050509050919050565b60006020528160005260406000208181548110620004dc57600080fd5b6000918252602090912001546001600160a01b03169150829050565b6116fa806200078383390190565b6111948062001e7d83390190565b634e487b7160e01b600052604160045260246000fd5b80356001600160a01b03811681146200054257600080fd5b919050565b600080604083850312156200055b57600080fd5b823567ffffffffffffffff808211156200057457600080fd5b818501915085601f8301126200058957600080fd5b8135602082821115620005a057620005a062000514565b8160051b604051601f19603f83011681018181108682111715620005c857620005c862000514565b604052928352818301935084810182019289841115620005e757600080fd5b948201945b83861015620006105762000600866200052a565b85529482019493820193620005ec565b9997909101359750505050505050565b6000602082840312156200063357600080fd5b6200063e826200052a565b9392505050565b600081518084526020808501945080840160005b83811015620006805781516001600160a01b03168752958201959082019060010162000659565b509495945050505050565b6020815260006200063e602083018462000645565b60008060408385031215620006b457600080fd5b620006bf836200052a565b946020939093013593505050565b604081526000620006e2604083018562000645565b90508260208301529392505050565b6000815160005b81811015620007145760208185018101518683015201620006f8565b50600093019283525090919050565b60006200073c620007358386620006f1565b84620006f1565b949350505050565b634e487b7160e01b600052603260045260246000fd5b6000600182016200077b57634e487b7160e01b600052601160045260246000fd5b506001019056fe60806040523480156200001157600080fd5b50604051620016fa380380620016fa83398101604081905262000034916200043e565b60016000558151811115620000855760405162461bcd60e51b81526020600482015260126024820152715468726573686f6c64203e206f776e65727360701b60448201526064015b60405180910390fd5b6001811015620000c85760405162461bcd60e51b815260206004820152600d60248201526c5468726573686f6c64203c203160981b60448201526064016200007c565b466006819055604080517f8b73c3c69bb8fe3d512ecc4cf759cc79239f7b179b0ffacaa9a75d522b39400f60208201527fd224391e05bea8df3d0cd26822c30d350d1e6173f271e8862b4f063b01773bec918101919091527fe6bbd6277e1bf288eed5e8d1780f9a50b239e86b153736bceebccf4ea79d90b3606082015260808101919091523060a082015260c00160408051601f19818403018152919052805160209091012060075560005b8251811015620003ca5760006001600160a01b03168382815181106200019f576200019f62000518565b60200260200101516001600160a01b031603620001ee5760405162461bcd60e51b815260206004820152600c60248201526b5a65726f206164647265737360a01b60448201526064016200007c565b6002600084838151811062000207576200020762000518565b6020908102919091018101516001600160a01b031682528101919091526040016000205460ff16156200026f5760405162461bcd60e51b815260206004820152600f60248201526e223ab83634b1b0ba329037bbb732b960891b60448201526064016200007c565b6001600260008584815181106200028a576200028a62000518565b60200260200101516001600160a01b03166001600160a01b0316815260200190815260200160002060006101000a81548160ff0219169083151502179055508060036000858481518110620002e357620002e362000518565b60200260200101516001600160a01b03166001600160a01b0316815260200190815260200160002081905550600183828151811062000326576200032662000518565b60209081029190910181015182546001810184556000938452919092200180546001600160a01b0319166001600160a01b03909216919091179055825183908290811062000378576200037862000518565b60200260200101516001600160a01b03167f994a936646fe87ffe4f1e469d3d6aa417d6b855598397f323de5b449f765f0c360405160405180910390a280620003c1816200052e565b91505062000175565b5060048190556040518181527f6c4ce60fd690e1216286a10b875c5662555f10774484e58142cedd7a90781baa9060200160405180910390a1505062000556565b634e487b7160e01b600052604160045260246000fd5b80516001600160a01b03811681146200043957600080fd5b919050565b600080604083850312156200045257600080fd5b82516001600160401b03808211156200046a57600080fd5b818501915085601f8301126200047f57600080fd5b81516020828211156200049657620004966200040b565b8160051b604051601f19603f83011681018181108682111715620004be57620004be6200040b565b604052928352818301935084810182019289841115620004dd57600080fd5b948201945b838610156200050657620004f68662000421565b85529482019493820193620004e2565b97909101519698969750505050505050565b634e487b7160e01b600052603260045260246000fd5b6000600182016200054f57634e487b7160e01b600052601160045260246000fd5b5060010190565b61119480620005666000396000f3fe6080604052600436106101025760003560e01c806379716e4311610095578063affed0e011610064578063affed0e01461034a578063c2cf732614610360578063c6427474146103a6578063c69ed5f2146103c6578063f698da25146103e657600080fd5b806379716e43146102c35780639a8a0592146102e55780639f8a64e2146102fb578063a0e67e2b1461032857600080fd5b806342cde4e8116100d157806342cde4e81461021d5780634aae13ca1461023357806359bf77df14610265578063642f2eaf1461029257600080fd5b8063025e7c27146101465780630c4ecab4146101835780632e7700f0146101ce5780632f54bf6e146101ed57600080fd5b366101415760405134815233906000907f98fa2d2a4a79f4305f6568b9183a2ee34b0cbc50afc2fce4428a7e949c836fb19060200160405180910390a3005b600080fd5b34801561015257600080fd5b50610166610161366004610cbd565b6103fc565b6040516001600160a01b0390911681526020015b60405180910390f35b34801561018f57600080fd5b506101be61019e366004610cf2565b600960209081526000928352604080842090915290825290205460ff1681565b604051901515815260200161017a565b3480156101da57600080fd5b506005545b60405190815260200161017a565b3480156101f957600080fd5b506101be610208366004610d1e565b60026020526000908152604090205460ff1681565b34801561022957600080fd5b506101df60045481565b34801561023f57600080fd5b5061025361024e366004610cbd565b610426565b60405161017a96959493929190610d86565b34801561027157600080fd5b506101df610280366004610cbd565b600a6020526000908152604090205481565b34801561029e57600080fd5b506102b26102ad366004610cbd565b610519565b60405161017a959493929190610dcb565b3480156102cf57600080fd5b506102e36102de366004610cbd565b6105de565b005b3480156102f157600080fd5b506101df60065481565b34801561030757600080fd5b506101df610316366004610d1e565b60036020526000908152604090205481565b34801561033457600080fd5b5061033d6107b1565b60405161017a9190610e0b565b34801561035657600080fd5b506101df60055481565b34801561036c57600080fd5b506101be61037b366004610cf2565b60009182526009602090815260408084206001600160a01b0393909316845291905290205460ff1690565b3480156103b257600080fd5b506101df6103c1366004610e58565b610813565b3480156103d257600080fd5b506102e36103e1366004610cbd565b610a41565b3480156103f257600080fd5b506101df60075481565b6001818154811061040c57600080fd5b6000918252602090912001546001600160a01b0316905081565b60008181526008602090815260408083208054600182015460038301546004840154600a90965293862054600284018054889760609789978897889791966001600160a01b03909116959194919360ff1691849061048390610edf565b80601f01602080910402602001604051908101604052809291908181526020018280546104af90610edf565b80156104fc5780601f106104d1576101008083540402835291602001916104fc565b820191906000526020600020905b8154815290600101906020018083116104df57829003601f168201915b505050505093509650965096509650965096505091939550919395565b6008602052600090815260409020805460018201546002830180546001600160a01b0390931693919261054b90610edf565b80601f016020809104026020016040519081016040528092919081815260200182805461057790610edf565b80156105c45780601f10610599576101008083540402835291602001916105c4565b820191906000526020600020905b8154815290600101906020018083116105a757829003601f168201915b50505050600383015460049093015491929160ff16905085565b3360009081526002602052604090205460ff166106165760405162461bcd60e51b815260040161060d90610f19565b60405180910390fd5b60008181526008602052604090205481906001600160a01b031661066b5760405162461bcd60e51b815260206004820152600c60248201526b151e081b9bdd08199bdd5b9960a21b604482015260640161060d565b600082815260086020526040902060040154829060ff16156106c25760405162461bcd60e51b815260206004820152601060248201526f105b1c9958591e48195e1958dd5d195960821b604482015260640161060d565b600083815260096020908152604080832033845290915290205460ff16156107205760405162461bcd60e51b8152602060048201526011602482015270105b1c9958591e4818dbdb999a5c9b5959607a1b604482015260640161060d565b60008381526009602090815260408083203384528252808320805460ff19166001179055858352600a909152812080549161075a83610f3c565b9091555050604051339084907fb612a8591c6aca7a0da017077f974599101a7f1820c9d5a4fe32ac8502c502e290600090a36004546000848152600a6020526040902054106107ac576107ac83610b97565b505050565b6060600180548060200260200160405190810160405280929190818152602001828054801561080957602002820191906000526020600020905b81546001600160a01b031681526001909101906020018083116107eb575b5050505050905090565b3360009081526002602052604081205460ff166108425760405162461bcd60e51b815260040161060d90610f19565b6001600160a01b0385166108825760405162461bcd60e51b81526020600482015260076024820152665a65726f20746f60c81b604482015260640161060d565b84848484600554600654306040516020016108a39796959493929190610f63565b6040516020818303038152906040528051906020012090506040518060a00160405280866001600160a01b0316815260200185815260200184848080601f0160208091040260200160405190810160405280939291908181526020018383808284376000920182905250938552505060055460208085019190915260409384018390528583526008815291839020845181546001600160a01b0319166001600160a01b039091161781559184015160018301555090820151600282019061096a9082611028565b50606082015160038201556080909101516004909101805491151560ff199283161790556000828152600960209081526040808320338452825280832080549094166001908117909455848352600a90915281209190915560058054916109d083610f3c565b9190505550846001600160a01b0316817f98fa2d2a4a79f4305f6568b9183a2ee34b0cbc50afc2fce4428a7e949c836fb186604051610a1191815260200190565b60405180910390a36004546000828152600a602052604090205410610a3957610a3981610b97565b949350505050565b3360009081526002602052604090205460ff16610a705760405162461bcd60e51b815260040161060d90610f19565b60008181526008602052604090205481906001600160a01b0316610ac55760405162461bcd60e51b815260206004820152600c60248201526b151e081b9bdd08199bdd5b9960a21b604482015260640161060d565b600082815260086020526040902060040154829060ff1615610b1c5760405162461bcd60e51b815260206004820152601060248201526f105b1c9958591e48195e1958dd5d195960821b604482015260640161060d565b610b24610c93565b6004546000848152600a60205260409020541015610b845760405162461bcd60e51b815260206004820152601860248201527f4e6f7420656e6f75676820636f6e6669726d6174696f6e730000000000000000604482015260640161060d565b610b8d83610b97565b6107ac6001600055565b60008181526008602052604080822060048101805460ff1916600190811790915581549082015492519193926001600160a01b0390911691610bdd9060028601906110e8565b60006040518083038185875af1925050503d8060008114610c1a576040519150601f19603f3d011682016040523d82523d6000602084013e610c1f565b606091505b5050905080610c635760405162461bcd60e51b815260206004820152601060248201526f115e1958dd5d1a5bdb8819985a5b195960821b604482015260640161060d565b60405183907f862d83c6c5af275e697bfd4e27c8323c196b44bdd011dd9aaab6db0ec9943dce90600090a2505050565b600260005403610cb657604051633ee5aeb560e01b815260040160405180910390fd5b6002600055565b600060208284031215610ccf57600080fd5b5035919050565b80356001600160a01b0381168114610ced57600080fd5b919050565b60008060408385031215610d0557600080fd5b82359150610d1560208401610cd6565b90509250929050565b600060208284031215610d3057600080fd5b610d3982610cd6565b9392505050565b6000815180845260005b81811015610d6657602081850181015186830182015201610d4a565b506000602082860101526020601f19601f83011685010191505092915050565b60018060a01b038716815285602082015260c060408201526000610dad60c0830187610d40565b606083019590955250911515608083015260a0909101529392505050565b60018060a01b038616815284602082015260a060408201526000610df260a0830186610d40565b6060830194909452509015156080909101529392505050565b6020808252825182820181905260009190848201906040850190845b81811015610e4c5783516001600160a01b031683529284019291840191600101610e27565b50909695505050505050565b60008060008060608587031215610e6e57600080fd5b610e7785610cd6565b935060208501359250604085013567ffffffffffffffff80821115610e9b57600080fd5b818701915087601f830112610eaf57600080fd5b813581811115610ebe57600080fd5b886020828501011115610ed057600080fd5b95989497505060200194505050565b600181811c90821680610ef357607f821691505b602082108103610f1357634e487b7160e01b600052602260045260246000fd5b50919050565b6020808252600990820152682737ba1037bbb732b960b91b604082015260600190565b600060018201610f5c57634e487b7160e01b600052601160045260246000fd5b5060010190565b600060018060a01b03808a16835288602084015260c060408401528660c0840152868860e0850137600060e0888501015260e0601f19601f890116840101915085606084015284608084015280841660a08401525098975050505050505050565b634e487b7160e01b600052604160045260246000fd5b601f8211156107ac57600081815260208120601f850160051c810160208610156110015750805b601f850160051c820191505b818110156110205782815560010161100d565b505050505050565b815167ffffffffffffffff81111561104257611042610fc4565b611056816110508454610edf565b84610fda565b602080601f83116001811461108b57600084156110735750858301515b600019600386901b1c1916600185901b178555611020565b600085815260208120601f198616915b828110156110ba5788860151825594840194600190910190840161109b565b50858210156110d85787850151600019600388901b60f8161c191681555b5050505050600190811b01905550565b60008083546110f681610edf565b6001828116801561110e576001811461112357611152565b60ff1984168752821515830287019450611152565b8760005260208060002060005b858110156111495781548a820152908401908201611130565b50505082870194505b5092969550505050505056fea2646970667358221220e28864540b7208adcc40be6babab2f69cd84d5e374c417e0d9babc0c92c81f5164736f6c634300081400336080604052600436106101025760003560e01c806379716e4311610095578063affed0e011610064578063affed0e01461034a578063c2cf732614610360578063c6427474146103a6578063c69ed5f2146103c6578063f698da25146103e657600080fd5b806379716e43146102c35780639a8a0592146102e55780639f8a64e2146102fb578063a0e67e2b1461032857600080fd5b806342cde4e8116100d157806342cde4e81461021d5780634aae13ca1461023357806359bf77df14610265578063642f2eaf1461029257600080fd5b8063025e7c27146101465780630c4ecab4146101835780632e7700f0146101ce5780632f54bf6e146101ed57600080fd5b366101415760405134815233906000907f98fa2d2a4a79f4305f6568b9183a2ee34b0cbc50afc2fce4428a7e949c836fb19060200160405180910390a3005b600080fd5b34801561015257600080fd5b50610166610161366004610cbd565b6103fc565b6040516001600160a01b0390911681526020015b60405180910390f35b34801561018f57600080fd5b506101be61019e366004610cf2565b600960209081526000928352604080842090915290825290205460ff1681565b604051901515815260200161017a565b3480156101da57600080fd5b506005545b60405190815260200161017a565b3480156101f957600080fd5b506101be610208366004610d1e565b60026020526000908152604090205460ff1681565b34801561022957600080fd5b506101df60045481565b34801561023f57600080fd5b5061025361024e366004610cbd565b610426565b60405161017a96959493929190610d86565b34801561027157600080fd5b506101df610280366004610cbd565b600a6020526000908152604090205481565b34801561029e57600080fd5b506102b26102ad366004610cbd565b610519565b60405161017a959493929190610dcb565b3480156102cf57600080fd5b506102e36102de366004610cbd565b6105de565b005b3480156102f157600080fd5b506101df60065481565b34801561030757600080fd5b506101df610316366004610d1e565b60036020526000908152604090205481565b34801561033457600080fd5b5061033d6107b1565b60405161017a9190610e0b565b34801561035657600080fd5b506101df60055481565b34801561036c57600080fd5b506101be61037b366004610cf2565b60009182526009602090815260408084206001600160a01b0393909316845291905290205460ff1690565b3480156103b257600080fd5b506101df6103c1366004610e58565b610813565b3480156103d257600080fd5b506102e36103e1366004610cbd565b610a41565b3480156103f257600080fd5b506101df60075481565b6001818154811061040c57600080fd5b6000918252602090912001546001600160a01b0316905081565b60008181526008602090815260408083208054600182015460038301546004840154600a90965293862054600284018054889760609789978897889791966001600160a01b03909116959194919360ff1691849061048390610edf565b80601f01602080910402602001604051908101604052809291908181526020018280546104af90610edf565b80156104fc5780601f106104d1576101008083540402835291602001916104fc565b820191906000526020600020905b8154815290600101906020018083116104df57829003601f168201915b505050505093509650965096509650965096505091939550919395565b6008602052600090815260409020805460018201546002830180546001600160a01b0390931693919261054b90610edf565b80601f016020809104026020016040519081016040528092919081815260200182805461057790610edf565b80156105c45780601f10610599576101008083540402835291602001916105c4565b820191906000526020600020905b8154815290600101906020018083116105a757829003601f168201915b50505050600383015460049093015491929160ff16905085565b3360009081526002602052604090205460ff166106165760405162461bcd60e51b815260040161060d90610f19565b60405180910390fd5b60008181526008602052604090205481906001600160a01b031661066b5760405162461bcd60e51b815260206004820152600c60248201526b151e081b9bdd08199bdd5b9960a21b604482015260640161060d565b600082815260086020526040902060040154829060ff16156106c25760405162461bcd60e51b815260206004820152601060248201526f105b1c9958591e48195e1958dd5d195960821b604482015260640161060d565b600083815260096020908152604080832033845290915290205460ff16156107205760405162461bcd60e51b8152602060048201526011602482015270105b1c9958591e4818dbdb999a5c9b5959607a1b604482015260640161060d565b60008381526009602090815260408083203384528252808320805460ff19166001179055858352600a909152812080549161075a83610f3c565b9091555050604051339084907fb612a8591c6aca7a0da017077f974599101a7f1820c9d5a4fe32ac8502c502e290600090a36004546000848152600a6020526040902054106107ac576107ac83610b97565b505050565b6060600180548060200260200160405190810160405280929190818152602001828054801561080957602002820191906000526020600020905b81546001600160a01b031681526001909101906020018083116107eb575b5050505050905090565b3360009081526002602052604081205460ff166108425760405162461bcd60e51b815260040161060d90610f19565b6001600160a01b0385166108825760405162461bcd60e51b81526020600482015260076024820152665a65726f20746f60c81b604482015260640161060d565b84848484600554600654306040516020016108a39796959493929190610f63565b6040516020818303038152906040528051906020012090506040518060a00160405280866001600160a01b0316815260200185815260200184848080601f0160208091040260200160405190810160405280939291908181526020018383808284376000920182905250938552505060055460208085019190915260409384018390528583526008815291839020845181546001600160a01b0319166001600160a01b039091161781559184015160018301555090820151600282019061096a9082611028565b50606082015160038201556080909101516004909101805491151560ff199283161790556000828152600960209081526040808320338452825280832080549094166001908117909455848352600a90915281209190915560058054916109d083610f3c565b9190505550846001600160a01b0316817f98fa2d2a4a79f4305f6568b9183a2ee34b0cbc50afc2fce4428a7e949c836fb186604051610a1191815260200190565b60405180910390a36004546000828152600a602052604090205410610a3957610a3981610b97565b949350505050565b3360009081526002602052604090205460ff16610a705760405162461bcd60e51b815260040161060d90610f19565b60008181526008602052604090205481906001600160a01b0316610ac55760405162461bcd60e51b815260206004820152600c60248201526b151e081b9bdd08199bdd5b9960a21b604482015260640161060d565b600082815260086020526040902060040154829060ff1615610b1c5760405162461bcd60e51b815260206004820152601060248201526f105b1c9958591e48195e1958dd5d195960821b604482015260640161060d565b610b24610c93565b6004546000848152600a60205260409020541015610b845760405162461bcd60e51b815260206004820152601860248201527f4e6f7420656e6f75676820636f6e6669726d6174696f6e730000000000000000604482015260640161060d565b610b8d83610b97565b6107ac6001600055565b60008181526008602052604080822060048101805460ff1916600190811790915581549082015492519193926001600160a01b0390911691610bdd9060028601906110e8565b60006040518083038185875af1925050503d8060008114610c1a576040519150601f19603f3d011682016040523d82523d6000602084013e610c1f565b606091505b5050905080610c635760405162461bcd60e51b815260206004820152601060248201526f115e1958dd5d1a5bdb8819985a5b195960821b604482015260640161060d565b60405183907f862d83c6c5af275e697bfd4e27c8323c196b44bdd011dd9aaab6db0ec9943dce90600090a2505050565b600260005403610cb657604051633ee5aeb560e01b815260040160405180910390fd5b6002600055565b600060208284031215610ccf57600080fd5b5035919050565b80356001600160a01b0381168114610ced57600080fd5b919050565b60008060408385031215610d0557600080fd5b82359150610d1560208401610cd6565b90509250929050565b600060208284031215610d3057600080fd5b610d3982610cd6565b9392505050565b6000815180845260005b81811015610d6657602081850181015186830182015201610d4a565b506000602082860101526020601f19601f83011685010191505092915050565b60018060a01b038716815285602082015260c060408201526000610dad60c0830187610d40565b606083019590955250911515608083015260a0909101529392505050565b60018060a01b038616815284602082015260a060408201526000610df260a0830186610d40565b6060830194909452509015156080909101529392505050565b6020808252825182820181905260009190848201906040850190845b81811015610e4c5783516001600160a01b031683529284019291840191600101610e27565b50909695505050505050565b60008060008060608587031215610e6e57600080fd5b610e7785610cd6565b935060208501359250604085013567ffffffffffffffff80821115610e9b57600080fd5b818701915087601f830112610eaf57600080fd5b813581811115610ebe57600080fd5b886020828501011115610ed057600080fd5b95989497505060200194505050565b600181811c90821680610ef357607f821691505b602082108103610f1357634e487b7160e01b600052602260045260246000fd5b50919050565b6020808252600990820152682737ba1037bbb732b960b91b604082015260600190565b600060018201610f5c57634e487b7160e01b600052601160045260246000fd5b5060010190565b600060018060a01b03808a16835288602084015260c060408401528660c0840152868860e0850137600060e0888501015260e0601f19601f890116840101915085606084015284608084015280841660a08401525098975050505050505050565b634e487b7160e01b600052604160045260246000fd5b601f8211156107ac57600081815260208120601f850160051c810160208610156110015750805b601f850160051c820191505b818110156110205782815560010161100d565b505050505050565b815167ffffffffffffffff81111561104257611042610fc4565b611056816110508454610edf565b84610fda565b602080601f83116001811461108b57600084156110735750858301515b600019600386901b1c1916600185901b178555611020565b600085815260208120601f198616915b828110156110ba5788860151825594840194600190910190840161109b565b50858210156110d85787850151600019600388901b60f8161c191681555b5050505050600190811b01905550565b60008083546110f681610edf565b6001828116801561110e576001811461112357611152565b60ff1984168752821515830287019450611152565b8760005260208060002060005b858110156111495781548a820152908401908201611130565b50505082870194505b5092969550505050505056fea2646970667358221220e28864540b7208adcc40be6babab2f69cd84d5e374c417e0d9babc0c92c81f5164736f6c63430008140033a2646970667358221220bb619a6008d4e7d02962ebe24ca8965bd0c8b4eb40d7260c7c2f661baeda781864736f6c63430008140033",
  "linkReferences": {},
  "deployedLinkReferences": {}
}