{
  "_format": "hh-sol-artifact-1",
  "contractName": "HandoffManager",
  "sourceName": "contracts/HandoffManager.sol",
  "abi": [
    {
      "inputs": [
        {
          "internalType": "address",
          "name": "_accessControl",
          "type": "address"
        },
        {
          "internalType": "address",
          "name": "_forwarder",
          "type": "address"
        }
      ],
      "stateMutability": "nonpayable",
      "type": "constructor"
    },
    {
      "anonymous": false,
      "inputs": [
        {
          "indexed": true,
          "internalType": "uint256",
          "name": "id",
          "type": "uint256"
        },
        {
          "indexed": true,
          "internalType": "address",
          "name": "reliefNurse",
          "type": "address"
        },
        {
          "indexed": false,
          "internalType": "uint256",
          "name": "timestamp",
          "type": "uint256"
        }
      ],
      "name": "HandoffFinalized",
      "type": "event"
    },
    {
      "anonymous": false,
      "inputs": [
        {
          "indexed": true,
          "internalType": "uint256",
          "name": "id",
          "type": "uint256"
        },
        {
          "indexed": true,
          "internalType": "address",
          "name": "patient",
          "type": "address"
        },
        {
          "indexed": true,
          "internalType": "address",
          "name": "offGoingNurse",
          "type": "address"
        },
        {
          "indexed": false,
          "internalType": "string",
          "name": "reportIpfsHash",
          "type": "string"
        }
      ],
      "name": "HandoffInitiated",
      "type": "event"
    },
    {
      "inputs": [],
      "name": "accessControl",
      "outputs": [
        {
          "internalType": "contract MediSecureAccessControl",
          "name": "",
          "type": "address"
        }
      ],
      "stateMutability": "view",
      "type": "function"
    },
    {
      "inputs": [
        {
          "internalType": "uint256",
          "name": "handoffId",
          "type": "uint256"
        }
      ],
      "name": "finalizeHandoff",
      "outputs": [],
      "stateMutability": "nonpayable",
      "type": "function"
    },
    {
      "inputs": [
        {
          "internalType": "uint256",
          "name": "id",
          "type": "uint256"
        }
      ],
      "name": "getHandoff",
      "outputs": [
        {
          "components": [
            {
              "internalType": "uint256",
              "name": "id",
              "type": "uint256"
            },
            {
              "internalType": "address",
              "name": "patient",
              "type": "address"
            },
            {
              "internalType": "address",
              "name": "offGoingNurse",
              "type": "address"
            },
            {
              "internalType": "address",
              "name": "onComingNurse",
              "type": "address"
            },
            {
              "internalType": "string",
              "name": "reportIpfsHash",
              "type": "string"
            },
            {
              "internalType": "uint256",
              "name": "startTime",
              "type": "uint256"
            },
            {
              "internalType": "uint256",
              "name": "endTime",
              "type": "uint256"
            },
            {
              "internalType": "bool",
              "name": "isComplete",
              "type": "bool"
            },
            {
              "internalType": "string",
              "name": "status",
              "type": "string"
            }
          ],
          "internalType": "struct HandoffManager.HandoffSession",
          "name": "",
          "type": "tuple"
        }
      ],
      "stateMutability": "view",
      "type": "function"
    },
    {
      "inputs": [
        {
          "internalType": "address",
          "name": "patient",
          "type": "address"
        }
      ],
      "name": "getPatientHandoffHistory",
      "outputs": [
        {
          "components": [
            {
              "internalType": "uint256",
              "name": "id",
              "type": "uint256"
            },
            {
              "internalType": "address",
              "name": "patient",
              "type": "address"
            },
            {
              "internalType": "address",
              "name": "offGoingNurse",
              "type": "address"
            },
            {
              "internalType": "address",
              "name": "onComingNurse",
              "type": "address"
            },
            {
              "internalType": "string",
              "name": "reportIpfsHash",
              "type": "string"
            },
            {
              "internalType": "uint256",
              "name": "startTime",
              "type": "uint256"
            },
            {
              "internalType": "uint256",
              "name": "endTime",
              "type": "uint256"
            },
            {
              "internalType": "bool",
              "name": "isComplete",
              "type": "bool"
            },
            {
              "internalType": "string",
              "name": "status",
              "type": "string"
            }
          ],
          "internalType": "struct HandoffManager.HandoffSession[]",
          "name": "",
          "type": "tuple[]"
        }
      ],
      "stateMutability": "view",
      "type": "function"
    },
    {
      "inputs": [],
      "name": "handoffCount",
      "outputs": [
        {
          "internalType": "uint256",
          "name": "",
          "type": "uint256"
        }
      ],
      "stateMutability": "view",
      "type": "function"
    },
    {
      "inputs": [
        {
          "internalType": "uint256",
          "name": "",
          "type": "uint256"
        }
      ],
      "name": "handoffs",
      "outputs": [
        {
          "internalType": "uint256",
          "name": "id",
          "type": "uint256"
        },
        {
          "internalType": "address",
          "name": "patient",
          "type": "address"
        },
        {
          "internalType": "address",
          "name": "offGoingNurse",
          "type": "address"
        },
        {
          "internalType": "address",
          "name": "onComingNurse",
          "type": "address"
        },
        {
          "internalType": "string",
          "name": "reportIpfsHash",
          "type": "string"
        },
        {
          "internalType": "uint256",
          "name": "startTime",
          "type": "uint256"
        },
        {
          "internalType": "uint256",
          "name": "endTime",
          "type": "uint256"
        },
        {
          "internalType": "bool",
          "name": "isComplete",
          "type": "bool"
        },
        {
          "internalType": "string",
          "name": "status",
          "type": "string"
        }
      ],
      "stateMutability": "view",
      "type": "function"
    },
    {
      "inputs": [
        {
          "internalType": "bytes32",
          "name": "role",
          "type": "bytes32"
        },
        {
          "internalType": "address",
          "name": "account",
          "type": "address"
        }
      ],
      "name": "hasRole",
      "outputs": [
        {
          "internalType": "bool",
          "name": "",
          "type": "bool"
        }
      ],
      "stateMutability": "view",
      "type": "function"
    },
    {
      "inputs": [
        {
          "internalType": "enum Roles",
          "name": "role",
          "type": "uint8"
        },
        {
          "internalType": "address",
          "name": "account",
          "type": "address"
        }
      ],
      "name": "hasRole",
      "outputs": [
        {
          "internalType": "bool",
          "name": "",
          "type": "bool"
        }
      ],
      "stateMutability": "view",
      "type": "function"
    },
    {
      "inputs": [
        {
          "internalType": "address",
          "name": "patient",
          "type": "address"
        },
        {
          "internalType": "string",
          "name": "reportIpfsHash",
          "type": "string"
        }
      ],
      "name": "initiateHandoff",
      "outputs": [
        {
          "internalType": "uint256",
          "name": "",
          "type": "uint256"
        }
      ],
      "stateMutability": "nonpayable",
      "type": "function"
    },
    {
      "inputs": [
        {
          "internalType": "address",
          "name": "account",
          "type": "address"
        }
      ],
      "name": "isAdmin",
      "outputs": [
        {
          "internalType": "bool",
          "name": "",
          "type": "bool"
        }
      ],
      "stateMutability": "view",
      "type": "function"
    },
    {
      "inputs": [
        {
          "internalType": "address",
          "name": "forwarder",
          "type": "address"
        }
      ],
      "name": "isTrustedForwarder",
      "outputs": [
        {
          "internalType": "bool",
          "name": "",
          "type": "bool"
        }
      ],
      "stateMutability": "view",
      "type": "function"
    },
    {
      "inputs": [],
      "name": "trustedForwarder",
      "outputs": [
        {
          "internalType": "address",
          "name": "",
          "type": "address"
        }
      ],
      "stateMutability": "view",
      "type": "function"
    }
  ],
  "bytecode": "0x60a060405234801561001057600080fd5b5060405161148338038061148383398101604081905261002f91610089565b6001600160a01b038082166080528290829082161561006457600080546001600160a01b0319166001600160a01b0384161790555b505050506100bc565b80516001600160a01b038116811461008457600080fd5b919050565b6000806040838503121561009c57600080fd5b6100a58361006d565b91506100b36020840161006d565b90509250929050565b60805161139e6100e56000396000818161013c015281816101a40152610cb1015261139e6000f3fe608060405234801561001057600080fd5b50600436106100b45760003560e01c80637da0a877116100715780637da0a877146101a25780638fdb6994146101c857806391d14854146101f0578063934adb19146102035780639e97b8f61461020c578063ff0367531461021f57600080fd5b806313007d55146100b957806322e2b993146100e957806324d7806c14610109578063572b6c051461012c578063752f2e631461016c5780637d7a5cc11461018d575b600080fd5b6000546100cc906001600160a01b031681565b6040516001600160a01b0390911681526020015b60405180910390f35b6100fc6100f7366004610da4565b61023f565b6040516100e09190610ec3565b61011c610117366004610da4565b610508565b60405190151581526020016100e0565b61011c61013a366004610da4565b7f00000000000000000000000000000000000000000000000000000000000000006001600160a01b0390811691161490565b61017f61017a366004610f3b565b610582565b6040519081526020016100e0565b6101a061019b366004610ffd565b610730565b005b7f00000000000000000000000000000000000000000000000000000000000000006100cc565b6101db6101d6366004610ffd565b6108d8565b6040516100e099989796959493929190611016565b61011c6101fe36600461108a565b610a49565b61017f60025481565b61011c61021a3660046110b6565b610ac7565b61023261022d366004610ffd565b610afa565b6040516100e091906110e6565b6060600060015b600254811161029457600081815260016020819052604090912001546001600160a01b03808616911603610282578161027e8161110f565b9250505b8061028c8161110f565b915050610246565b5060008167ffffffffffffffff8111156102b0576102b0610f25565b6040519080825280602002602001820160405280156102e957816020015b6102d6610d1f565b8152602001906001900390816102ce5790505b509050600060015b60025481116104fe57600081815260016020819052604090912001546001600160a01b038088169116036104ec5760008181526001602081815260409283902083516101208101855281548152928101546001600160a01b03908116928401929092526002810154821693830193909352600383015416606082015260048201805491929160808401919061038590611128565b80601f01602080910402602001604051908101604052809291908181526020018280546103b190611128565b80156103fe5780601f106103d3576101008083540402835291602001916103fe565b820191906000526020600020905b8154815290600101906020018083116103e157829003601f168201915b50505091835250506005820154602082015260068201546040820152600782015460ff161515606082015260088201805460809092019161043e90611128565b80601f016020809104026020016040519081016040528092919081815260200182805461046a90611128565b80156104b75780601f1061048c576101008083540402835291602001916104b7565b820191906000526020600020905b81548152906001019060200180831161049a57829003601f168201915b5050505050815250508383815181106104d2576104d2611162565b602002602001018190525081806104e89061110f565b9250505b806104f68161110f565b9150506102f1565b5090949350505050565b60008054604051634f4bdc7b60e11b81526001600160a01b0390911690639e97b8f69061053b9084908690600401611178565b602060405180830381865afa158015610558573d6000803e3d6000fd5b505050506040513d601f19601f8201168201806040525081019061057c91906111b2565b92915050565b60028054600091826105938361110f565b91905055506040518061012001604052806002548152602001846001600160a01b031681526020016105c3610caa565b6001600160a01b03908116825260006020808401829052604080850188905242606080870191909152608080870185905260a0870185905282518084018452600781526650454e44494e4760c81b8186015260c090970196909652600280548552600180855294839020885181559388015194840180549587166001600160a01b0319968716179055918701519183018054928616928516929092179091558501516003820180549190941692169190911790915590820151600482019061068b9082611223565b5060a0820151600582015560c0820151600682015560e082015160078201805460ff191691151591909117905561010082015160088201906106cd9082611223565b509050506106d9610caa565b6001600160a01b0316836001600160a01b03166002547fd905c5b56a884303bbedecf5590b6a7713434c6d6f9864866b430c960f7d15f58560405161071e91906112e3565b60405180910390a45060025492915050565b6000818152600160205260409020600781015460ff16156107985760405162461bcd60e51b815260206004820152601960248201527f48616e646f666620616c72656164792066696e616c697a65640000000000000060448201526064015b60405180910390fd5b6107a0610caa565b60028201546001600160a01b0391821691160361081a5760405162461bcd60e51b815260206004820152603260248201527f52656c696566206e757273652063616e6e6f74206265207468652073616d65206044820152716173206f66662d676f696e67206e7572736560701b606482015260840161078f565b610822610caa565b6003820180546001600160a01b0319166001600160a01b039290921691909117905542600682015560078101805460ff1916600117905560408051808201909152600981526810d3d354131155115160ba1b602082015260088201906108889082611223565b50610891610caa565b6001600160a01b0316827f599aab36b01682f611fb9922fe50e1f76f391a53ef5dfdb65c491fed2ea2333e426040516108cc91815260200190565b60405180910390a35050565b6001602081905260009182526040909120805491810154600282015460038301546004840180546001600160a01b039485169593851694909216929161091d90611128565b80601f016020809104026020016040519081016040528092919081815260200182805461094990611128565b80156109965780601f1061096b57610100808354040283529160200191610996565b820191906000526020600020905b81548152906001019060200180831161097957829003601f168201915b5050506005840154600685015460078601546008870180549697939692955060ff9091169350906109c690611128565b80601f01602080910402602001604051908101604052809291908181526020018280546109f290611128565b8015610a3f5780601f10610a1457610100808354040283529160200191610a3f565b820191906000526020600020905b815481529060010190602001808311610a2257829003601f168201915b5050505050905089565b60008054604051632474521560e21b8152600481018590526001600160a01b038481166024830152909116906391d14854906044015b602060405180830381865afa158015610a9c573d6000803e3d6000fd5b505050506040513d601f19601f82011682018060405250810190610ac091906111b2565b9392505050565b60008054604051634f4bdc7b60e11b81526001600160a01b0390911690639e97b8f690610a7f9086908690600401611178565b610b02610d1f565b60008281526001602081815260409283902083516101208101855281548152928101546001600160a01b039081169284019290925260028101548216938301939093526003830154166060820152600482018054919291608084019190610b6890611128565b80601f0160208091040260200160405190810160405280929190818152602001828054610b9490611128565b8015610be15780601f10610bb657610100808354040283529160200191610be1565b820191906000526020600020905b815481529060010190602001808311610bc457829003601f168201915b50505091835250506005820154602082015260068201546040820152600782015460ff1615156060820152600882018054608090920191610c2190611128565b80601f0160208091040260200160405190810160405280929190818152602001828054610c4d90611128565b8015610c9a5780601f10610c6f57610100808354040283529160200191610c9a565b820191906000526020600020905b815481529060010190602001808311610c7d57829003601f168201915b5050505050815250509050919050565b60003660147f00000000000000000000000000000000000000000000000000000000000000006001600160a01b031633148015610ce75750808210155b15610d1757600036610cf983856112f6565b610d04928290611309565b610d0d91611333565b60601c9250505090565b339250505090565b6040518061012001604052806000815260200160006001600160a01b0316815260200160006001600160a01b0316815260200160006001600160a01b03168152602001606081526020016000815260200160008152602001600015158152602001606081525090565b80356001600160a01b0381168114610d9f57600080fd5b919050565b600060208284031215610db657600080fd5b610ac082610d88565b6000815180845260005b81811015610de557602081850181015186830182015201610dc9565b506000602082860101526020601f19601f83011685010191505092915050565b6000610120825184526020830151610e2860208601826001600160a01b03169052565b506040830151610e4360408601826001600160a01b03169052565b506060830151610e5e60608601826001600160a01b03169052565b506080830151816080860152610e7682860182610dbf565b91505060a083015160a085015260c083015160c085015260e0830151610ea060e086018215159052565b506101008084015185830382870152610eb98382610dbf565b9695505050505050565b6000602080830181845280855180835260408601915060408160051b870101925083870160005b82811015610f1857603f19888603018452610f06858351610e05565b94509285019290850190600101610eea565b5092979650505050505050565b634e487b7160e01b600052604160045260246000fd5b60008060408385031215610f4e57600080fd5b610f5783610d88565b9150602083013567ffffffffffffffff80821115610f7457600080fd5b818501915085601f830112610f8857600080fd5b813581811115610f9a57610f9a610f25565b604051601f8201601f19908116603f01168101908382118183101715610fc257610fc2610f25565b81604052828152886020848701011115610fdb57600080fd5b8260208601602083013760006020848301015280955050505050509250929050565b60006020828403121561100f57600080fd5b5035919050565b8981526001600160a01b0389811660208301528881166040830152871660608201526101206080820181905260009061105183820189610dbf565b90508660a08401528560c084015284151560e084015282810361010084015261107a8185610dbf565b9c9b505050505050505050505050565b6000806040838503121561109d57600080fd5b823591506110ad60208401610d88565b90509250929050565b600080604083850312156110c957600080fd5b8235600981106110d857600080fd5b91506110ad60208401610d88565b602081526000610ac06020830184610e05565b634e487b7160e01b600052601160045260246000fd5b600060018201611121576111216110f9565b5060010190565b600181811c9082168061113c57607f821691505b60208210810361115c57634e487b7160e01b600052602260045260246000fd5b50919050565b634e487b7160e01b600052603260045260246000fd5b604081016009841061119a57634e487b7160e01b600052602160045260246000fd5b9281526001600160a01b039190911660209091015290565b6000602082840312156111c457600080fd5b81518015158114610ac057600080fd5b601f82111561121e57600081815260208120601f850160051c810160208610156111fb5750805b601f850160051c820191505b8181101561121a57828155600101611207565b5050505b505050565b815167ffffffffffffffff81111561123d5761123d610f25565b6112518161124b8454611128565b846111d4565b602080601f831160018114611286576000841561126e5750858301515b600019600386901b1c1916600185901b17855561121a565b600085815260208120601f198616915b828110156112b557888601518255948401946001909101908401611296565b50858210156112d35787850151600019600388901b60f8161c191681555b5050505050600190811b01905550565b602081526000610ac06020830184610dbf565b8181038181111561057c5761057c6110f9565b6000808585111561131957600080fd5b8386111561132657600080fd5b5050820193919092039150565b6bffffffffffffffffffffffff1981358181169160148510156113605780818660140360031b1b83161692505b50509291505056fea264697066735822122040ecb29c8cc056da723a6007a8bd8efc23cc5b2d9567f50095740300a367c67864736f6c63430008140033",
  "linkReferences": {},
  "deployedLinkReferences": {}
}